{
	"data": {
		"bytecode": {
			"linkReferences": {},
			"object": "6080604052348015600e575f5ffd5b505f805460ff199081168255600180805533808452600a60205260409093208054909216179055600c80546001600160a01b0319169091179055612895806100555f395ff3fe608060405234801561000f575f5ffd5b50600436106100fe575f3560e01c806371dc77251161009a57806371dc7725146101bd5780638456cb59146101d057806387ad8f87146101d85780638da5cb5b146101eb57806399762734146101fe5780639ad8d6f7146102115780639c5338a514610224578063a24e5b4614610237578063d28735101461024a578063f19e207e1461025d575f5ffd5b80631351cf511461010257806313af4035146101175780631b8e2ed91461012a57806329878bc4146101535780632e0155841461016657806333bf3577146101795780633f4ba83a1461018c5780634783c35b146101945780635c975abb146101a7575b5f5ffd5b6101156101103660046122d5565b61027f565b005b61011561012536600461230c565b6102f5565b60065461013d906001600160a01b031681565b60405161014a919061232e565b60405180910390f35b60035461013d906001600160a01b031681565b60075461013d906001600160a01b031681565b61011561018736600461230c565b610345565b610115611350565b600b5461013d906001600160a01b031681565b5f5460ff165b604051901515815260200161014a565b60095461013d906001600160a01b031681565b610115611399565b60025461013d906001600160a01b031681565b600c5461013d906001600160a01b031681565b60045461013d906001600160a01b031681565b61011561021f366004612342565b6113df565b60085461013d906001600160a01b031681565b6101156102453660046123e6565b6114b3565b60055461013d906001600160a01b031681565b6101ad61026b36600461230c565b600a6020525f908152604090205460ff1681565b335f908152600a602052604090205460ff166102b65760405162461bcd60e51b81526004016102ad90612410565b60405180910390fd5b6102be611592565b6102c66115bc565b6001600160a01b0382165f908152600a60205260409020805460ff1916821515179055600180555050565b5050565b335f908152600a602052604090205460ff166103235760405162461bcd60e51b81526004016102ad90612410565b600c80546001600160a01b0319166001600160a01b0392909216919091179055565b61034d611592565b335f908152600a602052604090205460ff1661037b5760405162461bcd60e51b81526004016102ad90612410565b6002546040516310df52b960e01b81525f916001600160a01b0316906310df52b9906103ad9085908590600401612460565b602060405180830381865afa1580156103c8573d5f5f3e3d5ffd5b505050506040513d601f19601f820116820180604052508101906103ec919061247d565b11156109d3576002546040516310df52b960e01b81525f916001600160a01b0316906310df52b9906104249085908590600401612460565b602060405180830381865afa15801561043f573d5f5f3e3d5ffd5b505050506040513d601f19601f82011682018060405250810190610463919061247d565b9050801561052c57600654604051630d44798360e11b81526001600160a01b0390911690631a88f3069061049d9085908590600401612494565b5f604051808303815f87803b1580156104b4575f5ffd5b505af11580156104c6573d5f5f3e3d5ffd5b505060025460405163e80b146d60e01b81526001600160a01b03909116925063e80b146d91506104fe9085905f9081906004016124ad565b5f604051808303815f87803b158015610515575f5ffd5b505af1158015610527573d5f5f3e3d5ffd5b505050505b60025460408051631ceb987b60e11b815290515f926001600160a01b0316916339d730f69160048083019260209291908290030181865afa158015610573573d5f5f3e3d5ffd5b505050506040513d601f19601f82011682018060405250810190610597919061247d565b90505b80156106b6576002545f906001600160a01b031663ca3333726105be6001856124ec565b6040518263ffffffff1660e01b81526004016105dc91815260200190565b61010060405180830381865afa1580156105f8573d5f5f3e3d5ffd5b505050506040513d601f19601f8201168201806040525081019061061c9190612628565b9050836001600160a01b031681602001516001600160a01b0316036106a3576002546001600160a01b0316632b20dac46106576001856124ec565b6040518263ffffffff1660e01b815260040161067591815260200190565b5f604051808303815f87803b15801561068c575f5ffd5b505af115801561069e573d5f5f3e3d5ffd5b505050505b50806106ae81612643565b91505061059a565b50600954604080516360988eaf60e01b815290515f926001600160a01b0316916360988eaf9160048083019260209291908290030181865afa1580156106fe573d5f5f3e3d5ffd5b505050506040513d601f19601f82011682018060405250810190610722919061247d565b90505b8015610841576009545f906001600160a01b031663a817d34f6107496001856124ec565b6040518263ffffffff1660e01b815260040161076791815260200190565b61010060405180830381865afa158015610783573d5f5f3e3d5ffd5b505050506040513d601f19601f820116820180604052508101906107a79190612628565b9050836001600160a01b031681602001516001600160a01b03160361082e576009546001600160a01b03166352d38b7f6107e26001856124ec565b6040518263ffffffff1660e01b815260040161080091815260200190565b5f604051808303815f87803b158015610817575f5ffd5b505af1158015610829573d5f5f3e3d5ffd5b505050505b508061083981612643565b915050610725565b5060085460408051630aacc7b960e41b815290515f926001600160a01b03169163aacc7b909160048083019260209291908290030181865afa158015610889573d5f5f3e3d5ffd5b505050506040513d601f19601f820116820180604052508101906108ad919061247d565b90505b80156109cc576008545f906001600160a01b03166350b557666108d46001856124ec565b6040518263ffffffff1660e01b81526004016108f291815260200190565b61010060405180830381865afa15801561090e573d5f5f3e3d5ffd5b505050506040513d601f19601f820116820180604052508101906109329190612628565b9050836001600160a01b031681602001516001600160a01b0316036109b9576008546001600160a01b031663bf5915d161096d6001856124ec565b6040518263ffffffff1660e01b815260040161098b91815260200190565b5f604051808303815f87803b1580156109a2575f5ffd5b505af11580156109b4573d5f5f3e3d5ffd5b505050505b50806109c481612643565b9150506108b0565b5050611344565b6002546040516232e4df60e51b81525f916001600160a01b03169063065c9be090610a049085908590600401612668565b602060405180830381865afa158015610a1f573d5f5f3e3d5ffd5b505050506040513d601f19601f82011682018060405250810190610a43919061247d565b90508015610b0c57600354604051632d6d980f60e21b81526001600160a01b039091169063b5b6603c90610a7d9085908590600401612494565b5f604051808303815f87803b158015610a94575f5ffd5b505af1158015610aa6573d5f5f3e3d5ffd5b505060025460405163a3a84f0160e01b81526001600160a01b03909116925063a3a84f019150610ade9085905f908190600401612685565b5f604051808303815f87803b158015610af5575f5ffd5b505af1158015610b07573d5f5f3e3d5ffd5b505050505b6002546040516232e4df60e51b81525f916001600160a01b03169063065c9be090610b3e908690600190600401612668565b602060405180830381865afa158015610b59573d5f5f3e3d5ffd5b505050506040513d601f19601f82011682018060405250810190610b7d919061247d565b90508015610d16576002546040516320cdb42760e01b8152600481018390526001600160a01b03909116906320cdb427906024015f604051808303815f87803b158015610bc8575f5ffd5b505af1158015610bda573d5f5f3e3d5ffd5b50506004546040515f93508392506001600160a01b03909116906323b872dd60e01b90610c0f903390899088906024016126a2565b60408051601f198184030181529181526020820180516001600160e01b03166001600160e01b0319909416939093179092529051610c4d91906126c6565b5f604051808303815f865af19150503d805f8114610c86576040519150601f19603f3d011682016040523d82523d5f602084013e610c8b565b606091505b5091509150818190610cb05760405162461bcd60e51b81526004016102ad91906126dc565b5060025460405163a3a84f0160e01b81526001600160a01b039091169063a3a84f0190610ce69088906001905f90600401612685565b5f604051808303815f87803b158015610cfd575f5ffd5b505af1158015610d0f573d5f5f3e3d5ffd5b5050505050505b600280546040516232e4df60e51b81525f926001600160a01b039092169163065c9be091610d48918891600401612668565b602060405180830381865afa158015610d63573d5f5f3e3d5ffd5b505050506040513d601f19601f82011682018060405250810190610d87919061247d565b90508015610ec357600254604051635f80a9cf60e01b8152600481018390526001600160a01b0390911690635f80a9cf906024015f604051808303815f87803b158015610dd2575f5ffd5b505af1158015610de4573d5f5f3e3d5ffd5b50506005546002546040516323b872dd60e01b81526001600160a01b0392831694506323b872dd9350610e219290911690889086906004016126a2565b6020604051808303815f875af1158015610e3d573d5f5f3e3d5ffd5b505050506040513d601f19601f82011682018060405250810190610e619190612711565b506002805460405163a3a84f0160e01b81526001600160a01b039091169163a3a84f0191610e959188915f90600401612685565b5f604051808303815f87803b158015610eac575f5ffd5b505af1158015610ebe573d5f5f3e3d5ffd5b505050505b60025460408051636e6d19ff60e01b815290515f926001600160a01b031691636e6d19ff9160048083019260209291908290030181865afa158015610f0a573d5f5f3e3d5ffd5b505050506040513d601f19601f82011682018060405250810190610f2e919061247d565b90505b8015611041576002546001600160a01b03808716911663e8107c1d610f576001856124ec565b6040518263ffffffff1660e01b8152600401610f7591815260200190565b61010060405180830381865afa158015610f91573d5f5f3e3d5ffd5b505050506040513d601f19601f82011682018060405250810190610fb59190612628565b602001516001600160a01b03160361102f576002546001600160a01b03166375d924a9610fe36001846124ec565b6040518263ffffffff1660e01b815260040161100191815260200190565b5f604051808303815f87803b158015611018575f5ffd5b505af115801561102a573d5f5f3e3d5ffd5b505050505b8061103981612643565b915050610f31565b506009546040805163af23174760e01b815290515f926001600160a01b03169163af2317479160048083019260209291908290030181865afa158015611089573d5f5f3e3d5ffd5b505050506040513d601f19601f820116820180604052508101906110ad919061247d565b90505b80156111c0576009546001600160a01b03808716911663ab4b88536110d66001856124ec565b6040518263ffffffff1660e01b81526004016110f491815260200190565b61010060405180830381865afa158015611110573d5f5f3e3d5ffd5b505050506040513d601f19601f820116820180604052508101906111349190612628565b602001516001600160a01b0316036111ae576009546001600160a01b031663b6adc7d86111626001846124ec565b6040518263ffffffff1660e01b815260040161118091815260200190565b5f604051808303815f87803b158015611197575f5ffd5b505af11580156111a9573d5f5f3e3d5ffd5b505050505b806111b881612643565b9150506110b0565b506008546040805163a2b3480560e01b815290515f926001600160a01b03169163a2b348059160048083019260209291908290030181865afa158015611208573d5f5f3e3d5ffd5b505050506040513d601f19601f8201168201806040525081019061122c919061247d565b90505b801561133f576008546001600160a01b038087169116630de6d7a26112556001856124ec565b6040518263ffffffff1660e01b815260040161127391815260200190565b61010060405180830381865afa15801561128f573d5f5f3e3d5ffd5b505050506040513d601f19601f820116820180604052508101906112b39190612628565b602001516001600160a01b03160361132d576008546001600160a01b0316631af0159a6112e16001846124ec565b6040518263ffffffff1660e01b81526004016112ff91815260200190565b5f604051808303815f87803b158015611316575f5ffd5b505af1158015611328573d5f5f3e3d5ffd5b505050505b8061133781612643565b91505061122f565b505050505b61134d60018055565b50565b335f908152600a602052604090205460ff1661137e5760405162461bcd60e51b81526004016102ad90612410565b611386611592565b61138e611601565b61139760018055565b565b335f908152600a602052604090205460ff166113c75760405162461bcd60e51b81526004016102ad90612410565b6113cf6115bc565b6113d7611592565b61138e61164c565b335f908152600a602052604090205460ff1661140d5760405162461bcd60e51b81526004016102ad90612410565b611415611592565b61141d6115bc565b600280546001600160a01b03199081166001600160a01b038b8116919091179092556004805482168a84161790556005805482168984169081179091556007805483169091179055600880548216888416179055600980548216878416179055600380548216868416179055600680548216848416179055600b8054909116918416919091179055600180555050505050505050565b6114bb611592565b335f908152600a602052604090205460ff166114e95760405162461bcd60e51b81526004016102ad90612410565b6114f6828260015f611688565b6115895761150682825f5f611688565b611589576115178282600180611688565b6115895761152882825f6001611688565b6115895761153a828260016002611688565b6115895761154b82825f6002611688565b6115895760405162461bcd60e51b815260206004820152600f60248201526e13dc99195c881b9bdd08199bdd5b99608a1b60448201526064016102ad565b6102f160018055565b6002600154036115b557604051633ee5aeb560e01b815260040160405180910390fd5b6002600155565b5f5460ff16156113975760405162461bcd60e51b815260206004820152601060248201526f14185d5cd8589b194e881c185d5cd95960821b60448201526064016102ad565b61160961226c565b5f805460ff191690557f5db9ee0a495bf2e6ff9c91a7834c1ba4fdd244a5e8aa4e537bd38aeae4b073aa335b604051611642919061232e565b60405180910390a1565b6116546115bc565b5f805460ff191660011790557f62e78cea01bee320cd4e420270b5ea74000d11b0c9f74754ebdbfc544b05a2586116353390565b5f606083156117fb575f8360028111156116a4576116a4612438565b036117265760025f9054906101000a90046001600160a01b03166001600160a01b0316634c3095a96040518163ffffffff1660e01b81526004015f60405180830381865afa1580156116f8573d5f5f3e3d5ffd5b505050506040513d5f823e601f3d908101601f1916820160405261171f919081019061272c565b905061195c565b600183600281111561173a5761173a612438565b0361178e5760095f9054906101000a90046001600160a01b03166001600160a01b0316632465af116040518163ffffffff1660e01b81526004015f60405180830381865afa1580156116f8573d5f5f3e3d5ffd5b60028360028111156117a2576117a2612438565b036117f65760085f9054906101000a90046001600160a01b03166001600160a01b031663505b304d6040518163ffffffff1660e01b81526004015f60405180830381865afa1580156116f8573d5f5f3e3d5ffd5b61195c565b5f83600281111561180e5761180e612438565b036118625760025f9054906101000a90046001600160a01b03166001600160a01b0316638c65a4986040518163ffffffff1660e01b81526004015f60405180830381865afa1580156116f8573d5f5f3e3d5ffd5b600183600281111561187657611876612438565b036118ca5760095f9054906101000a90046001600160a01b03166001600160a01b0316636cca424f6040518163ffffffff1660e01b81526004015f60405180830381865afa1580156116f8573d5f5f3e3d5ffd5b60028360028111156118de576118de612438565b0361195c5760085f9054906101000a90046001600160a01b03166001600160a01b031663ebe4e82f6040518163ffffffff1660e01b81526004015f60405180830381865afa158015611932573d5f5f3e3d5ffd5b505050506040513d5f823e601f3d908101601f19168201604052611959919081019061272c565b90505b5f5b815181101561225e578582828151811061197a5761197a6127e1565b60200260200101515f015103612256575f82828151811061199d5761199d6127e1565b602002602001015190505f81602001519050886001600160a01b0316816001600160a01b031614611a305760405162461bcd60e51b815260206004820152603760248201527f4f6e6c7920746865206f776e6572206f72207468652062757965722f73656c6c60448201527632b91031b0b7103932b6b7bb32903a34329037b93232b960491b60648201526084016102ad565b8615611e6057606082015160408301515f906103e890611a519084906127f5565b611a5b919061280c565b6002546040516347db859160e01b81529192505f916001600160a01b03909116906347db859190611a929087908d90600401612668565b602060405180830381865afa158015611aad573d5f5f3e3d5ffd5b505050506040513d601f19601f82011682018060405250810190611ad1919061247d565b90505f828210611ae15782611ae3565b815b90505f8a6002811115611af857611af8612438565b03611bbb5780821015611b575760405162461bcd60e51b815260206004820152602160248201527f496e73756666696369656e7420657468657220657363726f772062616c616e636044820152606560f81b60648201526084016102ad565b600354604051632d6d980f60e21b81526001600160a01b039091169063b5b6603c90611b899088908590600401612494565b5f604051808303815f87803b158015611ba0575f5ffd5b505af1158015611bb2573d5f5f3e3d5ffd5b50505050611df4565b60018a6002811115611bcf57611bcf612438565b03611d07576002546040516320cdb42760e01b8152600481018390526001600160a01b03909116906320cdb427906024015f604051808303815f87803b158015611c17575f5ffd5b505af1158015611c29573d5f5f3e3d5ffd5b50506004546040515f93508392506001600160a01b03909116906323b872dd60e01b90611c5e9033908b9088906024016126a2565b60408051601f198184030181529181526020820180516001600160e01b03166001600160e01b0319909416939093179092529051611c9c91906126c6565b5f604051808303815f865af19150503d805f8114611cd5576040519150601f19603f3d011682016040523d82523d5f602084013e611cda565b606091505b5091509150818190611cff5760405162461bcd60e51b81526004016102ad91906126dc565b505050611df4565b60028a6002811115611d1b57611d1b612438565b03611df457600254604051635f80a9cf60e01b8152600481018390526001600160a01b0390911690635f80a9cf906024015f604051808303815f87803b158015611d63575f5ffd5b505af1158015611d75573d5f5f3e3d5ffd5b50506005546002546040516323b872dd60e01b81526001600160a01b0392831694506323b872dd9350611db29290911690899086906004016126a2565b6020604051808303815f875af1158015611dce573d5f5f3e3d5ffd5b505050506040513d601f19601f82011682018060405250810190611df29190612711565b505b6002546040516342af7a0d60e11b81526001600160a01b039091169063855ef41a90611e2a9088908e9086905f9060040161282b565b5f604051808303815f87803b158015611e41575f5ffd5b505af1158015611e53573d5f5f3e3d5ffd5b505050505050505061201b565b606082015160025460a08401516040516310df52b960e01b81525f926001600160a01b0316916310df52b991611e9a918791600401612460565b602060405180830381865afa158015611eb5573d5f5f3e3d5ffd5b505050506040513d601f19601f82011682018060405250810190611ed9919061247d565b90505f828210611ee95782611eeb565b815b905080821015611f475760405162461bcd60e51b815260206004820152602160248201527f496e73756666696369656e7420746f6b656e20657363726f772062616c616e636044820152606560f81b60648201526084016102ad565b600654604051630d44798360e11b81526001600160a01b0390911690631a88f30690611f799087908590600401612494565b5f604051808303815f87803b158015611f90575f5ffd5b505af1158015611fa2573d5f5f3e3d5ffd5b505060025460a08801516001600160a01b03909116925063e80b146d91508690611fcc85876124ec565b6040518463ffffffff1660e01b8152600401611fea939291906124ad565b5f604051808303815f87803b158015612001575f5ffd5b505af1158015612013573d5f5f3e3d5ffd5b505050505050505b8615612143575f86600281111561203457612034612438565b03612098576002546040516375d924a960e01b8152600481018590526001600160a01b03909116906375d924a9906024015b5f604051808303815f87803b15801561207d575f5ffd5b505af115801561208f573d5f5f3e3d5ffd5b50505050612249565b60018660028111156120ac576120ac612438565b036120f4576009546040516316d5b8fb60e31b8152600481018590526001600160a01b039091169063b6adc7d8906024015f604051808303815f87803b15801561207d575f5ffd5b600286600281111561210857612108612438565b0361213e57600854604051630d780acd60e11b8152600481018590526001600160a01b0390911690631af0159a90602401612066565b612249565b5f86600281111561215657612156612438565b0361218c57600254604051630ac836b160e21b8152600481018590526001600160a01b0390911690632b20dac490602401612066565b60018660028111156121a0576121a0612438565b036121d6576009546040516352d38b7f60e01b8152600481018590526001600160a01b03909116906352d38b7f90602401612066565b60028660028111156121ea576121ea612438565b036122495760085460405163bf5915d160e01b8152600481018590526001600160a01b039091169063bf5915d1906024015f604051808303815f87803b158015612232575f5ffd5b505af1158015612244573d5f5f3e3d5ffd5b505050505b6001945050505050612264565b60010161195e565b505f9150505b949350505050565b5f5460ff166113975760405162461bcd60e51b815260206004820152601460248201527314185d5cd8589b194e881b9bdd081c185d5cd95960621b60448201526064016102ad565b6001600160a01b038116811461134d575f5ffd5b801515811461134d575f5ffd5b5f5f604083850312156122e6575f5ffd5b82356122f1816122b4565b91506020830135612301816122c8565b809150509250929050565b5f6020828403121561231c575f5ffd5b8135612327816122b4565b9392505050565b6001600160a01b0391909116815260200190565b5f5f5f5f5f5f5f5f610100898b03121561235a575f5ffd5b8835612365816122b4565b97506020890135612375816122b4565b96506040890135612385816122b4565b95506060890135612395816122b4565b945060808901356123a5816122b4565b935060a08901356123b5816122b4565b925060c08901356123c5816122b4565b915060e08901356123d5816122b4565b809150509295985092959890939650565b5f5f604083850312156123f7575f5ffd5b8235612402816122b4565b946020939093013593505050565b6020808252600e908201526d139bdd08185d5d1a1bdc9a5e995960921b604082015260600190565b634e487b7160e01b5f52602160045260245ffd5b6001811061245c5761245c612438565b9052565b6001600160a01b038316815260408101612327602083018461244c565b5f6020828403121561248d575f5ffd5b5051919050565b6001600160a01b03929092168252602082015260400190565b6001600160a01b0384168152606081016124ca602083018561244c565b826040830152949350505050565b634e487b7160e01b5f52601160045260245ffd5b818103818111156124ff576124ff6124d8565b92915050565b634e487b7160e01b5f52604160045260245ffd5b60405161010081016001600160401b038111828210171561253c5761253c612505565b60405290565b604051601f8201601f191681016001600160401b038111828210171561256a5761256a612505565b604052919050565b805160018110612580575f5ffd5b919050565b805160038110612580575f5ffd5b8051612580816122c8565b5f61010082840312156125af575f5ffd5b6125b7612519565b8251815260208301519091506125cc816122b4565b60208201526040828101519082015260608083015190820152608080830151908201526125fb60a08301612572565b60a082015261260c60c08301612585565b60c082015261261d60e08301612593565b60e082015292915050565b5f6101008284031215612639575f5ffd5b612327838361259e565b5f81612651576126516124d8565b505f190190565b6003811061245c5761245c612438565b6001600160a01b0383168152604081016123276020830184612658565b6001600160a01b0384168152606081016124ca6020830185612658565b6001600160a01b039384168152919092166020820152604081019190915260600190565b5f82518060208501845e5f920191825250919050565b602081525f82518060208401528060208501604085015e5f604082850101526040601f19601f83011684010191505092915050565b5f60208284031215612721575f5ffd5b8151612327816122c8565b5f6020828403121561273c575f5ffd5b81516001600160401b03811115612751575f5ffd5b8201601f81018413612761575f5ffd5b80516001600160401b0381111561277a5761277a612505565b61278960208260051b01612542565b8082825260208201915060208360081b8501019250868311156127aa575f5ffd5b6020840193505b828410156127d7576127c3878561259e565b8252602082019150610100840193506127b1565b9695505050505050565b634e487b7160e01b5f52603260045260245ffd5b80820281158282048414176124ff576124ff6124d8565b5f8261282657634e487b7160e01b5f52601260045260245ffd5b500490565b6001600160a01b0385168152608081016128486020830186612658565b83604083015282151560608301529594505050505056fea2646970667358221220c2cc944cec2e4a664bb7bd0c508e60dff36f44bcbbfa9c8a562570317c1cf1e364736f6c634300081e0033",
			"opcodes": "PUSH1 0x80 PUSH1 0x40 MSTORE CALLVALUE DUP1 ISZERO PUSH1 0xE JUMPI PUSH0 PUSH0 REVERT JUMPDEST POP PUSH0 DUP1 SLOAD PUSH1 0xFF NOT SWAP1 DUP2 AND DUP3 SSTORE PUSH1 0x1 DUP1 DUP1 SSTORE CALLER DUP1 DUP5 MSTORE PUSH1 0xA PUSH1 0x20 MSTORE PUSH1 0x40 SWAP1 SWAP4 KECCAK256 DUP1 SLOAD SWAP1 SWAP3 AND OR SWAP1 SSTORE PUSH1 0xC DUP1 SLOAD PUSH1 0x1 PUSH1 0x1 PUSH1 0xA0 SHL SUB NOT AND SWAP1 SWAP2 OR SWAP1 SSTORE PUSH2 0x2895 DUP1 PUSH2 0x55 PUSH0 CODECOPY PUSH0 RETURN INVALID PUSH1 0x80 PUSH1 0x40 MSTORE CALLVALUE DUP1 ISZERO PUSH2 0xF JUMPI PUSH0 PUSH0 REVERT JUMPDEST POP PUSH1 0x4 CALLDATASIZE LT PUSH2 0xFE JUMPI PUSH0 CALLDATALOAD PUSH1 0xE0 SHR DUP1 PUSH4 0x71DC7725 GT PUSH2 0x9A JUMPI DUP1 PUSH4 0x71DC7725 EQ PUSH2 0x1BD JUMPI DUP1 PUSH4 0x8456CB59 EQ PUSH2 0x1D0 JUMPI DUP1 PUSH4 0x87AD8F87 EQ PUSH2 0x1D8 JUMPI DUP1 PUSH4 0x8DA5CB5B EQ PUSH2 0x1EB JUMPI DUP1 PUSH4 0x99762734 EQ PUSH2 0x1FE JUMPI DUP1 PUSH4 0x9AD8D6F7 EQ PUSH2 0x211 JUMPI DUP1 PUSH4 0x9C5338A5 EQ PUSH2 0x224 JUMPI DUP1 PUSH4 0xA24E5B46 EQ PUSH2 0x237 JUMPI DUP1 PUSH4 0xD2873510 EQ PUSH2 0x24A JUMPI DUP1 PUSH4 0xF19E207E EQ PUSH2 0x25D JUMPI PUSH0 PUSH0 REVERT JUMPDEST DUP1 PUSH4 0x1351CF51 EQ PUSH2 0x102 JUMPI DUP1 PUSH4 0x13AF4035 EQ PUSH2 0x117 JUMPI DUP1 PUSH4 0x1B8E2ED9 EQ PUSH2 0x12A JUMPI DUP1 PUSH4 0x29878BC4 EQ PUSH2 0x153 JUMPI DUP1 PUSH4 0x2E015584 EQ PUSH2 0x166 JUMPI DUP1 PUSH4 0x33BF3577 EQ PUSH2 0x179 JUMPI DUP1 PUSH4 0x3F4BA83A EQ PUSH2 0x18C JUMPI DUP1 PUSH4 0x4783C35B EQ PUSH2 0x194 JUMPI DUP1 PUSH4 0x5C975ABB EQ PUSH2 0x1A7 JUMPI JUMPDEST PUSH0 PUSH0 REVERT JUMPDEST PUSH2 0x115 PUSH2 0x110 CALLDATASIZE PUSH1 0x4 PUSH2 0x22D5 JUMP JUMPDEST PUSH2 0x27F JUMP JUMPDEST STOP JUMPDEST PUSH2 0x115 PUSH2 0x125 CALLDATASIZE PUSH1 0x4 PUSH2 0x230C JUMP JUMPDEST PUSH2 0x2F5 JUMP JUMPDEST PUSH1 0x6 SLOAD PUSH2 0x13D SWAP1 PUSH1 0x1 PUSH1 0x1 PUSH1 0xA0 SHL SUB AND DUP2 JUMP JUMPDEST PUSH1 0x40 MLOAD PUSH2 0x14A SWAP2 SWAP1 PUSH2 0x232E JUMP JUMPDEST PUSH1 0x40 MLOAD DUP1 SWAP2 SUB SWAP1 RETURN JUMPDEST PUSH1 0x3 SLOAD PUSH2 0x13D SWAP1 PUSH1 0x1 PUSH1 0x1 PUSH1 0xA0 SHL SUB AND DUP2 JUMP JUMPDEST PUSH1 0x7 SLOAD PUSH2 0x13D SWAP1 PUSH1 0x1 PUSH1 0x1 PUSH1 0xA0 SHL SUB AND DUP2 JUMP JUMPDEST PUSH2 0x115 PUSH2 0x187 CALLDATASIZE PUSH1 0x4 PUSH2 0x230C JUMP JUMPDEST PUSH2 0x345 JUMP JUMPDEST PUSH2 0x115 PUSH2 0x1350 JUMP JUMPDEST PUSH1 0xB SLOAD PUSH2 0x13D SWAP1 PUSH1 0x1 PUSH1 0x1 PUSH1 0xA0 SHL SUB AND DUP2 JUMP JUMPDEST PUSH0 SLOAD PUSH1 0xFF AND JUMPDEST PUSH1 0x40 MLOAD SWAP1 ISZERO ISZERO DUP2 MSTORE PUSH1 0x20 ADD PUSH2 0x14A JUMP JUMPDEST PUSH1 0x9 SLOAD PUSH2 0x13D SWAP1 PUSH1 0x1 PUSH1 0x1 PUSH1 0xA0 SHL SUB AND DUP2 JUMP JUMPDEST PUSH2 0x115 PUSH2 0x1399 JUMP JUMPDEST PUSH1 0x2 SLOAD PUSH2 0x13D SWAP1 PUSH1 0x1 PUSH1 0x1 PUSH1 0xA0 SHL SUB AND DUP2 JUMP JUMPDEST PUSH1 0xC SLOAD PUSH2 0x13D SWAP1 PUSH1 0x1 PUSH1 0x1 PUSH1 0xA0 SHL SUB AND DUP2 JUMP JUMPDEST PUSH1 0x4 SLOAD PUSH2 0x13D SWAP1 PUSH1 0x1 PUSH1 0x1 PUSH1 0xA0 SHL SUB AND DUP2 JUMP JUMPDEST PUSH2 0x115 PUSH2 0x21F CALLDATASIZE PUSH1 0x4 PUSH2 0x2342 JUMP JUMPDEST PUSH2 0x13DF JUMP JUMPDEST PUSH1 0x8 SLOAD PUSH2 0x13D SWAP1 PUSH1 0x1 PUSH1 0x1 PUSH1 0xA0 SHL SUB AND DUP2 JUMP JUMPDEST PUSH2 0x115 PUSH2 0x245 CALLDATASIZE PUSH1 0x4 PUSH2 0x23E6 JUMP JUMPDEST PUSH2 0x14B3 JUMP JUMPDEST PUSH1 0x5 SLOAD PUSH2 0x13D SWAP1 PUSH1 0x1 PUSH1 0x1 PUSH1 0xA0 SHL SUB AND DUP2 JUMP JUMPDEST PUSH2 0x1AD PUSH2 0x26B CALLDATASIZE PUSH1 0x4 PUSH2 0x230C JUMP JUMPDEST PUSH1 0xA PUSH1 0x20 MSTORE PUSH0 SWAP1 DUP2 MSTORE PUSH1 0x40 SWAP1 KECCAK256 SLOAD PUSH1 0xFF AND DUP2 JUMP JUMPDEST CALLER PUSH0 SWAP1 DUP2 MSTORE PUSH1 0xA PUSH1 0x20 MSTORE PUSH1 0x40 SWAP1 KECCAK256 SLOAD PUSH1 0xFF AND PUSH2 0x2B6 JUMPI PUSH1 0x40 MLOAD PUSH3 0x461BCD PUSH1 0xE5 SHL DUP2 MSTORE PUSH1 0x4 ADD PUSH2 0x2AD SWAP1 PUSH2 0x2410 JUMP JUMPDEST PUSH1 0x40 MLOAD DUP1 SWAP2 SUB SWAP1 REVERT JUMPDEST PUSH2 0x2BE PUSH2 0x1592 JUMP JUMPDEST PUSH2 0x2C6 PUSH2 0x15BC JUMP JUMPDEST PUSH1 0x1 PUSH1 0x1 PUSH1 0xA0 SHL SUB DUP3 AND PUSH0 SWAP1 DUP2 MSTORE PUSH1 0xA PUSH1 0x20 MSTORE PUSH1 0x40 SWAP1 KECCAK256 DUP1 SLOAD PUSH1 0xFF NOT AND DUP3 ISZERO ISZERO OR SWAP1 SSTORE PUSH1 0x1 DUP1 SSTORE POP POP JUMP JUMPDEST POP POP JUMP JUMPDEST CALLER PUSH0 SWAP1 DUP2 MSTORE PUSH1 0xA PUSH1 0x20 MSTORE PUSH1 0x40 SWAP1 KECCAK256 SLOAD PUSH1 0xFF AND PUSH2 0x323 JUMPI PUSH1 0x40 MLOAD PUSH3 0x461BCD PUSH1 0xE5 SHL DUP2 MSTORE PUSH1 0x4 ADD PUSH2 0x2AD SWAP1 PUSH2 0x2410 JUMP JUMPDEST PUSH1 0xC DUP1 SLOAD PUSH1 0x1 PUSH1 0x1 PUSH1 0xA0 SHL SUB NOT AND PUSH1 0x1 PUSH1 0x1 PUSH1 0xA0 SHL SUB SWAP3 SWAP1 SWAP3 AND SWAP2 SWAP1 SWAP2 OR SWAP1 SSTORE JUMP JUMPDEST PUSH2 0x34D PUSH2 0x1592 JUMP JUMPDEST CALLER PUSH0 SWAP1 DUP2 MSTORE PUSH1 0xA PUSH1 0x20 MSTORE PUSH1 0x40 SWAP1 KECCAK256 SLOAD PUSH1 0xFF AND PUSH2 0x37B JUMPI PUSH1 0x40 MLOAD PUSH3 0x461BCD PUSH1 0xE5 SHL DUP2 MSTORE PUSH1 0x4 ADD PUSH2 0x2AD SWAP1 PUSH2 0x2410 JUMP JUMPDEST PUSH1 0x2 SLOAD PUSH1 0x40 MLOAD PUSH4 0x10DF52B9 PUSH1 0xE0 SHL DUP2 MSTORE PUSH0 SWAP2 PUSH1 0x1 PUSH1 0x1 PUSH1 0xA0 SHL SUB AND SWAP1 PUSH4 0x10DF52B9 SWAP1 PUSH2 0x3AD SWAP1 DUP6 SWAP1 DUP6 SWAP1 PUSH1 0x4 ADD PUSH2 0x2460 JUMP JUMPDEST PUSH1 0x20 PUSH1 0x40 MLOAD DUP1 DUP4 SUB DUP2 DUP7 GAS STATICCALL ISZERO DUP1 ISZERO PUSH2 0x3C8 JUMPI RETURNDATASIZE PUSH0 PUSH0 RETURNDATACOPY RETURNDATASIZE PUSH0 REVERT JUMPDEST POP POP POP POP PUSH1 0x40 MLOAD RETURNDATASIZE PUSH1 0x1F NOT PUSH1 0x1F DUP3 ADD AND DUP3 ADD DUP1 PUSH1 0x40 MSTORE POP DUP2 ADD SWAP1 PUSH2 0x3EC SWAP2 SWAP1 PUSH2 0x247D JUMP JUMPDEST GT ISZERO PUSH2 0x9D3 JUMPI PUSH1 0x2 SLOAD PUSH1 0x40 MLOAD PUSH4 0x10DF52B9 PUSH1 0xE0 SHL DUP2 MSTORE PUSH0 SWAP2 PUSH1 0x1 PUSH1 0x1 PUSH1 0xA0 SHL SUB AND SWAP1 PUSH4 0x10DF52B9 SWAP1 PUSH2 0x424 SWAP1 DUP6 SWAP1 DUP6 SWAP1 PUSH1 0x4 ADD PUSH2 0x2460 JUMP JUMPDEST PUSH1 0x20 PUSH1 0x40 MLOAD DUP1 DUP4 SUB DUP2 DUP7 GAS STATICCALL ISZERO DUP1 ISZERO PUSH2 0x43F JUMPI RETURNDATASIZE PUSH0 PUSH0 RETURNDATACOPY RETURNDATASIZE PUSH0 REVERT JUMPDEST POP POP POP POP PUSH1 0x40 MLOAD RETURNDATASIZE PUSH1 0x1F NOT PUSH1 0x1F DUP3 ADD AND DUP3 ADD DUP1 PUSH1 0x40 MSTORE POP DUP2 ADD SWAP1 PUSH2 0x463 SWAP2 SWAP1 PUSH2 0x247D JUMP JUMPDEST SWAP1 POP DUP1 ISZERO PUSH2 0x52C JUMPI PUSH1 0x6 SLOAD PUSH1 0x40 MLOAD PUSH4 0xD447983 PUSH1 0xE1 SHL DUP2 MSTORE PUSH1 0x1 PUSH1 0x1 PUSH1 0xA0 SHL SUB SWAP1 SWAP2 AND SWAP1 PUSH4 0x1A88F306 SWAP1 PUSH2 0x49D SWAP1 DUP6 SWAP1 DUP6 SWAP1 PUSH1 0x4 ADD PUSH2 0x2494 JUMP JUMPDEST PUSH0 PUSH1 0x40 MLOAD DUP1 DUP4 SUB DUP2 PUSH0 DUP8 DUP1 EXTCODESIZE ISZERO DUP1 ISZERO PUSH2 0x4B4 JUMPI PUSH0 PUSH0 REVERT JUMPDEST POP GAS CALL ISZERO DUP1 ISZERO PUSH2 0x4C6 JUMPI RETURNDATASIZE PUSH0 PUSH0 RETURNDATACOPY RETURNDATASIZE PUSH0 REVERT JUMPDEST POP POP PUSH1 0x2 SLOAD PUSH1 0x40 MLOAD PUSH4 0xE80B146D PUSH1 0xE0 SHL DUP2 MSTORE PUSH1 0x1 PUSH1 0x1 PUSH1 0xA0 SHL SUB SWAP1 SWAP2 AND SWAP3 POP PUSH4 0xE80B146D SWAP2 POP PUSH2 0x4FE SWAP1 DUP6 SWAP1 PUSH0 SWAP1 DUP2 SWAP1 PUSH1 0x4 ADD PUSH2 0x24AD JUMP JUMPDEST PUSH0 PUSH1 0x40 MLOAD DUP1 DUP4 SUB DUP2 PUSH0 DUP8 DUP1 EXTCODESIZE ISZERO DUP1 ISZERO PUSH2 0x515 JUMPI PUSH0 PUSH0 REVERT JUMPDEST POP GAS CALL ISZERO DUP1 ISZERO PUSH2 0x527 JUMPI RETURNDATASIZE PUSH0 PUSH0 RETURNDATACOPY RETURNDATASIZE PUSH0 REVERT JUMPDEST POP POP POP POP JUMPDEST PUSH1 0x2 SLOAD PUSH1 0x40 DUP1 MLOAD PUSH4 0x1CEB987B PUSH1 0xE1 SHL DUP2 MSTORE SWAP1 MLOAD PUSH0 SWAP3 PUSH1 0x1 PUSH1 0x1 PUSH1 0xA0 SHL SUB AND SWAP2 PUSH4 0x39D730F6 SWAP2 PUSH1 0x4 DUP1 DUP4 ADD SWAP3 PUSH1 0x20 SWAP3 SWAP2 SWAP1 DUP3 SWAP1 SUB ADD DUP2 DUP7 GAS STATICCALL ISZERO DUP1 ISZERO PUSH2 0x573 JUMPI RETURNDATASIZE PUSH0 PUSH0 RETURNDATACOPY RETURNDATASIZE PUSH0 REVERT JUMPDEST POP POP POP POP PUSH1 0x40 MLOAD RETURNDATASIZE PUSH1 0x1F NOT PUSH1 0x1F DUP3 ADD AND DUP3 ADD DUP1 PUSH1 0x40 MSTORE POP DUP2 ADD SWAP1 PUSH2 0x597 SWAP2 SWAP1 PUSH2 0x247D JUMP JUMPDEST SWAP1 POP JUMPDEST DUP1 ISZERO PUSH2 0x6B6 JUMPI PUSH1 0x2 SLOAD PUSH0 SWAP1 PUSH1 0x1 PUSH1 0x1 PUSH1 0xA0 SHL SUB AND PUSH4 0xCA333372 PUSH2 0x5BE PUSH1 0x1 DUP6 PUSH2 0x24EC JUMP JUMPDEST PUSH1 0x40 MLOAD DUP3 PUSH4 0xFFFFFFFF AND PUSH1 0xE0 SHL DUP2 MSTORE PUSH1 0x4 ADD PUSH2 0x5DC SWAP2 DUP2 MSTORE PUSH1 0x20 ADD SWAP1 JUMP JUMPDEST PUSH2 0x100 PUSH1 0x40 MLOAD DUP1 DUP4 SUB DUP2 DUP7 GAS STATICCALL ISZERO DUP1 ISZERO PUSH2 0x5F8 JUMPI RETURNDATASIZE PUSH0 PUSH0 RETURNDATACOPY RETURNDATASIZE PUSH0 REVERT JUMPDEST POP POP POP POP PUSH1 0x40 MLOAD RETURNDATASIZE PUSH1 0x1F NOT PUSH1 0x1F DUP3 ADD AND DUP3 ADD DUP1 PUSH1 0x40 MSTORE POP DUP2 ADD SWAP1 PUSH2 0x61C SWAP2 SWAP1 PUSH2 0x2628 JUMP JUMPDEST SWAP1 POP DUP4 PUSH1 0x1 PUSH1 0x1 PUSH1 0xA0 SHL SUB AND DUP2 PUSH1 0x20 ADD MLOAD PUSH1 0x1 PUSH1 0x1 PUSH1 0xA0 SHL SUB AND SUB PUSH2 0x6A3 JUMPI PUSH1 0x2 SLOAD PUSH1 0x1 PUSH1 0x1 PUSH1 0xA0 SHL SUB AND PUSH4 0x2B20DAC4 PUSH2 0x657 PUSH1 0x1 DUP6 PUSH2 0x24EC JUMP JUMPDEST PUSH1 0x40 MLOAD DUP3 PUSH4 0xFFFFFFFF AND PUSH1 0xE0 SHL DUP2 MSTORE PUSH1 0x4 ADD PUSH2 0x675 SWAP2 DUP2 MSTORE PUSH1 0x20 ADD SWAP1 JUMP JUMPDEST PUSH0 PUSH1 0x40 MLOAD DUP1 DUP4 SUB DUP2 PUSH0 DUP8 DUP1 EXTCODESIZE ISZERO DUP1 ISZERO PUSH2 0x68C JUMPI PUSH0 PUSH0 REVERT JUMPDEST POP GAS CALL ISZERO DUP1 ISZERO PUSH2 0x69E JUMPI RETURNDATASIZE PUSH0 PUSH0 RETURNDATACOPY RETURNDATASIZE PUSH0 REVERT JUMPDEST POP POP POP POP JUMPDEST POP DUP1 PUSH2 0x6AE DUP2 PUSH2 0x2643 JUMP JUMPDEST SWAP2 POP POP PUSH2 0x59A JUMP JUMPDEST POP PUSH1 0x9 SLOAD PUSH1 0x40 DUP1 MLOAD PUSH4 0x60988EAF PUSH1 0xE0 SHL DUP2 MSTORE SWAP1 MLOAD PUSH0 SWAP3 PUSH1 0x1 PUSH1 0x1 PUSH1 0xA0 SHL SUB AND SWAP2 PUSH4 0x60988EAF SWAP2 PUSH1 0x4 DUP1 DUP4 ADD SWAP3 PUSH1 0x20 SWAP3 SWAP2 SWAP1 DUP3 SWAP1 SUB ADD DUP2 DUP7 GAS STATICCALL ISZERO DUP1 ISZERO PUSH2 0x6FE JUMPI RETURNDATASIZE PUSH0 PUSH0 RETURNDATACOPY RETURNDATASIZE PUSH0 REVERT JUMPDEST POP POP POP POP PUSH1 0x40 MLOAD RETURNDATASIZE PUSH1 0x1F NOT PUSH1 0x1F DUP3 ADD AND DUP3 ADD DUP1 PUSH1 0x40 MSTORE POP DUP2 ADD SWAP1 PUSH2 0x722 SWAP2 SWAP1 PUSH2 0x247D JUMP JUMPDEST SWAP1 POP JUMPDEST DUP1 ISZERO PUSH2 0x841 JUMPI PUSH1 0x9 SLOAD PUSH0 SWAP1 PUSH1 0x1 PUSH1 0x1 PUSH1 0xA0 SHL SUB AND PUSH4 0xA817D34F PUSH2 0x749 PUSH1 0x1 DUP6 PUSH2 0x24EC JUMP JUMPDEST PUSH1 0x40 MLOAD DUP3 PUSH4 0xFFFFFFFF AND PUSH1 0xE0 SHL DUP2 MSTORE PUSH1 0x4 ADD PUSH2 0x767 SWAP2 DUP2 MSTORE PUSH1 0x20 ADD SWAP1 JUMP JUMPDEST PUSH2 0x100 PUSH1 0x40 MLOAD DUP1 DUP4 SUB DUP2 DUP7 GAS STATICCALL ISZERO DUP1 ISZERO PUSH2 0x783 JUMPI RETURNDATASIZE PUSH0 PUSH0 RETURNDATACOPY RETURNDATASIZE PUSH0 REVERT JUMPDEST POP POP POP POP PUSH1 0x40 MLOAD RETURNDATASIZE PUSH1 0x1F NOT PUSH1 0x1F DUP3 ADD AND DUP3 ADD DUP1 PUSH1 0x40 MSTORE POP DUP2 ADD SWAP1 PUSH2 0x7A7 SWAP2 SWAP1 PUSH2 0x2628 JUMP JUMPDEST SWAP1 POP DUP4 PUSH1 0x1 PUSH1 0x1 PUSH1 0xA0 SHL SUB AND DUP2 PUSH1 0x20 ADD MLOAD PUSH1 0x1 PUSH1 0x1 PUSH1 0xA0 SHL SUB AND SUB PUSH2 0x82E JUMPI PUSH1 0x9 SLOAD PUSH1 0x1 PUSH1 0x1 PUSH1 0xA0 SHL SUB AND PUSH4 0x52D38B7F PUSH2 0x7E2 PUSH1 0x1 DUP6 PUSH2 0x24EC JUMP JUMPDEST PUSH1 0x40 MLOAD DUP3 PUSH4 0xFFFFFFFF AND PUSH1 0xE0 SHL DUP2 MSTORE PUSH1 0x4 ADD PUSH2 0x800 SWAP2 DUP2 MSTORE PUSH1 0x20 ADD SWAP1 JUMP JUMPDEST PUSH0 PUSH1 0x40 MLOAD DUP1 DUP4 SUB DUP2 PUSH0 DUP8 DUP1 EXTCODESIZE ISZERO DUP1 ISZERO PUSH2 0x817 JUMPI PUSH0 PUSH0 REVERT JUMPDEST POP GAS CALL ISZERO DUP1 ISZERO PUSH2 0x829 JUMPI RETURNDATASIZE PUSH0 PUSH0 RETURNDATACOPY RETURNDATASIZE PUSH0 REVERT JUMPDEST POP POP POP POP JUMPDEST POP DUP1 PUSH2 0x839 DUP2 PUSH2 0x2643 JUMP JUMPDEST SWAP2 POP POP PUSH2 0x725 JUMP JUMPDEST POP PUSH1 0x8 SLOAD PUSH1 0x40 DUP1 MLOAD PUSH4 0xAACC7B9 PUSH1 0xE4 SHL DUP2 MSTORE SWAP1 MLOAD PUSH0 SWAP3 PUSH1 0x1 PUSH1 0x1 PUSH1 0xA0 SHL SUB AND SWAP2 PUSH4 0xAACC7B90 SWAP2 PUSH1 0x4 DUP1 DUP4 ADD SWAP3 PUSH1 0x20 SWAP3 SWAP2 SWAP1 DUP3 SWAP1 SUB ADD DUP2 DUP7 GAS STATICCALL ISZERO DUP1 ISZERO PUSH2 0x889 JUMPI RETURNDATASIZE PUSH0 PUSH0 RETURNDATACOPY RETURNDATASIZE PUSH0 REVERT JUMPDEST POP POP POP POP PUSH1 0x40 MLOAD RETURNDATASIZE PUSH1 0x1F NOT PUSH1 0x1F DUP3 ADD AND DUP3 ADD DUP1 PUSH1 0x40 MSTORE POP DUP2 ADD SWAP1 PUSH2 0x8AD SWAP2 SWAP1 PUSH2 0x247D JUMP JUMPDEST SWAP1 POP JUMPDEST DUP1 ISZERO PUSH2 0x9CC JUMPI PUSH1 0x8 SLOAD PUSH0 SWAP1 PUSH1 0x1 PUSH1 0x1 PUSH1 0xA0 SHL SUB AND PUSH4 0x50B55766 PUSH2 0x8D4 PUSH1 0x1 DUP6 PUSH2 0x24EC JUMP JUMPDEST PUSH1 0x40 MLOAD DUP3 PUSH4 0xFFFFFFFF AND PUSH1 0xE0 SHL DUP2 MSTORE PUSH1 0x4 ADD PUSH2 0x8F2 SWAP2 DUP2 MSTORE PUSH1 0x20 ADD SWAP1 JUMP JUMPDEST PUSH2 0x100 PUSH1 0x40 MLOAD DUP1 DUP4 SUB DUP2 DUP7 GAS STATICCALL ISZERO DUP1 ISZERO PUSH2 0x90E JUMPI RETURNDATASIZE PUSH0 PUSH0 RETURNDATACOPY RETURNDATASIZE PUSH0 REVERT JUMPDEST POP POP POP POP PUSH1 0x40 MLOAD RETURNDATASIZE PUSH1 0x1F NOT PUSH1 0x1F DUP3 ADD AND DUP3 ADD DUP1 PUSH1 0x40 MSTORE POP DUP2 ADD SWAP1 PUSH2 0x932 SWAP2 SWAP1 PUSH2 0x2628 JUMP JUMPDEST SWAP1 POP DUP4 PUSH1 0x1 PUSH1 0x1 PUSH1 0xA0 SHL SUB AND DUP2 PUSH1 0x20 ADD MLOAD PUSH1 0x1 PUSH1 0x1 PUSH1 0xA0 SHL SUB AND SUB PUSH2 0x9B9 JUMPI PUSH1 0x8 SLOAD PUSH1 0x1 PUSH1 0x1 PUSH1 0xA0 SHL SUB AND PUSH4 0xBF5915D1 PUSH2 0x96D PUSH1 0x1 DUP6 PUSH2 0x24EC JUMP JUMPDEST PUSH1 0x40 MLOAD DUP3 PUSH4 0xFFFFFFFF AND PUSH1 0xE0 SHL DUP2 MSTORE PUSH1 0x4 ADD PUSH2 0x98B SWAP2 DUP2 MSTORE PUSH1 0x20 ADD SWAP1 JUMP JUMPDEST PUSH0 PUSH1 0x40 MLOAD DUP1 DUP4 SUB DUP2 PUSH0 DUP8 DUP1 EXTCODESIZE ISZERO DUP1 ISZERO PUSH2 0x9A2 JUMPI PUSH0 PUSH0 REVERT JUMPDEST POP GAS CALL ISZERO DUP1 ISZERO PUSH2 0x9B4 JUMPI RETURNDATASIZE PUSH0 PUSH0 RETURNDATACOPY RETURNDATASIZE PUSH0 REVERT JUMPDEST POP POP POP POP JUMPDEST POP DUP1 PUSH2 0x9C4 DUP2 PUSH2 0x2643 JUMP JUMPDEST SWAP2 POP POP PUSH2 0x8B0 JUMP JUMPDEST POP POP PUSH2 0x1344 JUMP JUMPDEST PUSH1 0x2 SLOAD PUSH1 0x40 MLOAD PUSH3 0x32E4DF PUSH1 0xE5 SHL DUP2 MSTORE PUSH0 SWAP2 PUSH1 0x1 PUSH1 0x1 PUSH1 0xA0 SHL SUB AND SWAP1 PUSH4 0x65C9BE0 SWAP1 PUSH2 0xA04 SWAP1 DUP6 SWAP1 DUP6 SWAP1 PUSH1 0x4 ADD PUSH2 0x2668 JUMP JUMPDEST PUSH1 0x20 PUSH1 0x40 MLOAD DUP1 DUP4 SUB DUP2 DUP7 GAS STATICCALL ISZERO DUP1 ISZERO PUSH2 0xA1F JUMPI RETURNDATASIZE PUSH0 PUSH0 RETURNDATACOPY RETURNDATASIZE PUSH0 REVERT JUMPDEST POP POP POP POP PUSH1 0x40 MLOAD RETURNDATASIZE PUSH1 0x1F NOT PUSH1 0x1F DUP3 ADD AND DUP3 ADD DUP1 PUSH1 0x40 MSTORE POP DUP2 ADD SWAP1 PUSH2 0xA43 SWAP2 SWAP1 PUSH2 0x247D JUMP JUMPDEST SWAP1 POP DUP1 ISZERO PUSH2 0xB0C JUMPI PUSH1 0x3 SLOAD PUSH1 0x40 MLOAD PUSH4 0x2D6D980F PUSH1 0xE2 SHL DUP2 MSTORE PUSH1 0x1 PUSH1 0x1 PUSH1 0xA0 SHL SUB SWAP1 SWAP2 AND SWAP1 PUSH4 0xB5B6603C SWAP1 PUSH2 0xA7D SWAP1 DUP6 SWAP1 DUP6 SWAP1 PUSH1 0x4 ADD PUSH2 0x2494 JUMP JUMPDEST PUSH0 PUSH1 0x40 MLOAD DUP1 DUP4 SUB DUP2 PUSH0 DUP8 DUP1 EXTCODESIZE ISZERO DUP1 ISZERO PUSH2 0xA94 JUMPI PUSH0 PUSH0 REVERT JUMPDEST POP GAS CALL ISZERO DUP1 ISZERO PUSH2 0xAA6 JUMPI RETURNDATASIZE PUSH0 PUSH0 RETURNDATACOPY RETURNDATASIZE PUSH0 REVERT JUMPDEST POP POP PUSH1 0x2 SLOAD PUSH1 0x40 MLOAD PUSH4 0xA3A84F01 PUSH1 0xE0 SHL DUP2 MSTORE PUSH1 0x1 PUSH1 0x1 PUSH1 0xA0 SHL SUB SWAP1 SWAP2 AND SWAP3 POP PUSH4 0xA3A84F01 SWAP2 POP PUSH2 0xADE SWAP1 DUP6 SWAP1 PUSH0 SWAP1 DUP2 SWAP1 PUSH1 0x4 ADD PUSH2 0x2685 JUMP JUMPDEST PUSH0 PUSH1 0x40 MLOAD DUP1 DUP4 SUB DUP2 PUSH0 DUP8 DUP1 EXTCODESIZE ISZERO DUP1 ISZERO PUSH2 0xAF5 JUMPI PUSH0 PUSH0 REVERT JUMPDEST POP GAS CALL ISZERO DUP1 ISZERO PUSH2 0xB07 JUMPI RETURNDATASIZE PUSH0 PUSH0 RETURNDATACOPY RETURNDATASIZE PUSH0 REVERT JUMPDEST POP POP POP POP JUMPDEST PUSH1 0x2 SLOAD PUSH1 0x40 MLOAD PUSH3 0x32E4DF PUSH1 0xE5 SHL DUP2 MSTORE PUSH0 SWAP2 PUSH1 0x1 PUSH1 0x1 PUSH1 0xA0 SHL SUB AND SWAP1 PUSH4 0x65C9BE0 SWAP1 PUSH2 0xB3E SWAP1 DUP7 SWAP1 PUSH1 0x1 SWAP1 PUSH1 0x4 ADD PUSH2 0x2668 JUMP JUMPDEST PUSH1 0x20 PUSH1 0x40 MLOAD DUP1 DUP4 SUB DUP2 DUP7 GAS STATICCALL ISZERO DUP1 ISZERO PUSH2 0xB59 JUMPI RETURNDATASIZE PUSH0 PUSH0 RETURNDATACOPY RETURNDATASIZE PUSH0 REVERT JUMPDEST POP POP POP POP PUSH1 0x40 MLOAD RETURNDATASIZE PUSH1 0x1F NOT PUSH1 0x1F DUP3 ADD AND DUP3 ADD DUP1 PUSH1 0x40 MSTORE POP DUP2 ADD SWAP1 PUSH2 0xB7D SWAP2 SWAP1 PUSH2 0x247D JUMP JUMPDEST SWAP1 POP DUP1 ISZERO PUSH2 0xD16 JUMPI PUSH1 0x2 SLOAD PUSH1 0x40 MLOAD PUSH4 0x20CDB427 PUSH1 0xE0 SHL DUP2 MSTORE PUSH1 0x4 DUP2 ADD DUP4 SWAP1 MSTORE PUSH1 0x1 PUSH1 0x1 PUSH1 0xA0 SHL SUB SWAP1 SWAP2 AND SWAP1 PUSH4 0x20CDB427 SWAP1 PUSH1 0x24 ADD PUSH0 PUSH1 0x40 MLOAD DUP1 DUP4 SUB DUP2 PUSH0 DUP8 DUP1 EXTCODESIZE ISZERO DUP1 ISZERO PUSH2 0xBC8 JUMPI PUSH0 PUSH0 REVERT JUMPDEST POP GAS CALL ISZERO DUP1 ISZERO PUSH2 0xBDA JUMPI RETURNDATASIZE PUSH0 PUSH0 RETURNDATACOPY RETURNDATASIZE PUSH0 REVERT JUMPDEST POP POP PUSH1 0x4 SLOAD PUSH1 0x40 MLOAD PUSH0 SWAP4 POP DUP4 SWAP3 POP PUSH1 0x1 PUSH1 0x1 PUSH1 0xA0 SHL SUB SWAP1 SWAP2 AND SWAP1 PUSH4 0x23B872DD PUSH1 0xE0 SHL SWAP1 PUSH2 0xC0F SWAP1 CALLER SWAP1 DUP10 SWAP1 DUP9 SWAP1 PUSH1 0x24 ADD PUSH2 0x26A2 JUMP JUMPDEST PUSH1 0x40 DUP1 MLOAD PUSH1 0x1F NOT DUP2 DUP5 SUB ADD DUP2 MSTORE SWAP2 DUP2 MSTORE PUSH1 0x20 DUP3 ADD DUP1 MLOAD PUSH1 0x1 PUSH1 0x1 PUSH1 0xE0 SHL SUB AND PUSH1 0x1 PUSH1 0x1 PUSH1 0xE0 SHL SUB NOT SWAP1 SWAP5 AND SWAP4 SWAP1 SWAP4 OR SWAP1 SWAP3 MSTORE SWAP1 MLOAD PUSH2 0xC4D SWAP2 SWAP1 PUSH2 0x26C6 JUMP JUMPDEST PUSH0 PUSH1 0x40 MLOAD DUP1 DUP4 SUB DUP2 PUSH0 DUP7 GAS CALL SWAP2 POP POP RETURNDATASIZE DUP1 PUSH0 DUP2 EQ PUSH2 0xC86 JUMPI PUSH1 0x40 MLOAD SWAP2 POP PUSH1 0x1F NOT PUSH1 0x3F RETURNDATASIZE ADD AND DUP3 ADD PUSH1 0x40 MSTORE RETURNDATASIZE DUP3 MSTORE RETURNDATASIZE PUSH0 PUSH1 0x20 DUP5 ADD RETURNDATACOPY PUSH2 0xC8B JUMP JUMPDEST PUSH1 0x60 SWAP2 POP JUMPDEST POP SWAP2 POP SWAP2 POP DUP2 DUP2 SWAP1 PUSH2 0xCB0 JUMPI PUSH1 0x40 MLOAD PUSH3 0x461BCD PUSH1 0xE5 SHL DUP2 MSTORE PUSH1 0x4 ADD PUSH2 0x2AD SWAP2 SWAP1 PUSH2 0x26DC JUMP JUMPDEST POP PUSH1 0x2 SLOAD PUSH1 0x40 MLOAD PUSH4 0xA3A84F01 PUSH1 0xE0 SHL DUP2 MSTORE PUSH1 0x1 PUSH1 0x1 PUSH1 0xA0 SHL SUB SWAP1 SWAP2 AND SWAP1 PUSH4 0xA3A84F01 SWAP1 PUSH2 0xCE6 SWAP1 DUP9 SWAP1 PUSH1 0x1 SWAP1 PUSH0 SWAP1 PUSH1 0x4 ADD PUSH2 0x2685 JUMP JUMPDEST PUSH0 PUSH1 0x40 MLOAD DUP1 DUP4 SUB DUP2 PUSH0 DUP8 DUP1 EXTCODESIZE ISZERO DUP1 ISZERO PUSH2 0xCFD JUMPI PUSH0 PUSH0 REVERT JUMPDEST POP GAS CALL ISZERO DUP1 ISZERO PUSH2 0xD0F JUMPI RETURNDATASIZE PUSH0 PUSH0 RETURNDATACOPY RETURNDATASIZE PUSH0 REVERT JUMPDEST POP POP POP POP POP POP JUMPDEST PUSH1 0x2 DUP1 SLOAD PUSH1 0x40 MLOAD PUSH3 0x32E4DF PUSH1 0xE5 SHL DUP2 MSTORE PUSH0 SWAP3 PUSH1 0x1 PUSH1 0x1 PUSH1 0xA0 SHL SUB SWAP1 SWAP3 AND SWAP2 PUSH4 0x65C9BE0 SWAP2 PUSH2 0xD48 SWAP2 DUP9 SWAP2 PUSH1 0x4 ADD PUSH2 0x2668 JUMP JUMPDEST PUSH1 0x20 PUSH1 0x40 MLOAD DUP1 DUP4 SUB DUP2 DUP7 GAS STATICCALL ISZERO DUP1 ISZERO PUSH2 0xD63 JUMPI RETURNDATASIZE PUSH0 PUSH0 RETURNDATACOPY RETURNDATASIZE PUSH0 REVERT JUMPDEST POP POP POP POP PUSH1 0x40 MLOAD RETURNDATASIZE PUSH1 0x1F NOT PUSH1 0x1F DUP3 ADD AND DUP3 ADD DUP1 PUSH1 0x40 MSTORE POP DUP2 ADD SWAP1 PUSH2 0xD87 SWAP2 SWAP1 PUSH2 0x247D JUMP JUMPDEST SWAP1 POP DUP1 ISZERO PUSH2 0xEC3 JUMPI PUSH1 0x2 SLOAD PUSH1 0x40 MLOAD PUSH4 0x5F80A9CF PUSH1 0xE0 SHL DUP2 MSTORE PUSH1 0x4 DUP2 ADD DUP4 SWAP1 MSTORE PUSH1 0x1 PUSH1 0x1 PUSH1 0xA0 SHL SUB SWAP1 SWAP2 AND SWAP1 PUSH4 0x5F80A9CF SWAP1 PUSH1 0x24 ADD PUSH0 PUSH1 0x40 MLOAD DUP1 DUP4 SUB DUP2 PUSH0 DUP8 DUP1 EXTCODESIZE ISZERO DUP1 ISZERO PUSH2 0xDD2 JUMPI PUSH0 PUSH0 REVERT JUMPDEST POP GAS CALL ISZERO DUP1 ISZERO PUSH2 0xDE4 JUMPI RETURNDATASIZE PUSH0 PUSH0 RETURNDATACOPY RETURNDATASIZE PUSH0 REVERT JUMPDEST POP POP PUSH1 0x5 SLOAD PUSH1 0x2 SLOAD PUSH1 0x40 MLOAD PUSH4 0x23B872DD PUSH1 0xE0 SHL DUP2 MSTORE PUSH1 0x1 PUSH1 0x1 PUSH1 0xA0 SHL SUB SWAP3 DUP4 AND SWAP5 POP PUSH4 0x23B872DD SWAP4 POP PUSH2 0xE21 SWAP3 SWAP1 SWAP2 AND SWAP1 DUP9 SWAP1 DUP7 SWAP1 PUSH1 0x4 ADD PUSH2 0x26A2 JUMP JUMPDEST PUSH1 0x20 PUSH1 0x40 MLOAD DUP1 DUP4 SUB DUP2 PUSH0 DUP8 GAS CALL ISZERO DUP1 ISZERO PUSH2 0xE3D JUMPI RETURNDATASIZE PUSH0 PUSH0 RETURNDATACOPY RETURNDATASIZE PUSH0 REVERT JUMPDEST POP POP POP POP PUSH1 0x40 MLOAD RETURNDATASIZE PUSH1 0x1F NOT PUSH1 0x1F DUP3 ADD AND DUP3 ADD DUP1 PUSH1 0x40 MSTORE POP DUP2 ADD SWAP1 PUSH2 0xE61 SWAP2 SWAP1 PUSH2 0x2711 JUMP JUMPDEST POP PUSH1 0x2 DUP1 SLOAD PUSH1 0x40 MLOAD PUSH4 0xA3A84F01 PUSH1 0xE0 SHL DUP2 MSTORE PUSH1 0x1 PUSH1 0x1 PUSH1 0xA0 SHL SUB SWAP1 SWAP2 AND SWAP2 PUSH4 0xA3A84F01 SWAP2 PUSH2 0xE95 SWAP2 DUP9 SWAP2 PUSH0 SWAP1 PUSH1 0x4 ADD PUSH2 0x2685 JUMP JUMPDEST PUSH0 PUSH1 0x40 MLOAD DUP1 DUP4 SUB DUP2 PUSH0 DUP8 DUP1 EXTCODESIZE ISZERO DUP1 ISZERO PUSH2 0xEAC JUMPI PUSH0 PUSH0 REVERT JUMPDEST POP GAS CALL ISZERO DUP1 ISZERO PUSH2 0xEBE JUMPI RETURNDATASIZE PUSH0 PUSH0 RETURNDATACOPY RETURNDATASIZE PUSH0 REVERT JUMPDEST POP POP POP POP JUMPDEST PUSH1 0x2 SLOAD PUSH1 0x40 DUP1 MLOAD PUSH4 0x6E6D19FF PUSH1 0xE0 SHL DUP2 MSTORE SWAP1 MLOAD PUSH0 SWAP3 PUSH1 0x1 PUSH1 0x1 PUSH1 0xA0 SHL SUB AND SWAP2 PUSH4 0x6E6D19FF SWAP2 PUSH1 0x4 DUP1 DUP4 ADD SWAP3 PUSH1 0x20 SWAP3 SWAP2 SWAP1 DUP3 SWAP1 SUB ADD DUP2 DUP7 GAS STATICCALL ISZERO DUP1 ISZERO PUSH2 0xF0A JUMPI RETURNDATASIZE PUSH0 PUSH0 RETURNDATACOPY RETURNDATASIZE PUSH0 REVERT JUMPDEST POP POP POP POP PUSH1 0x40 MLOAD RETURNDATASIZE PUSH1 0x1F NOT PUSH1 0x1F DUP3 ADD AND DUP3 ADD DUP1 PUSH1 0x40 MSTORE POP DUP2 ADD SWAP1 PUSH2 0xF2E SWAP2 SWAP1 PUSH2 0x247D JUMP JUMPDEST SWAP1 POP JUMPDEST DUP1 ISZERO PUSH2 0x1041 JUMPI PUSH1 0x2 SLOAD PUSH1 0x1 PUSH1 0x1 PUSH1 0xA0 SHL SUB DUP1 DUP8 AND SWAP2 AND PUSH4 0xE8107C1D PUSH2 0xF57 PUSH1 0x1 DUP6 PUSH2 0x24EC JUMP JUMPDEST PUSH1 0x40 MLOAD DUP3 PUSH4 0xFFFFFFFF AND PUSH1 0xE0 SHL DUP2 MSTORE PUSH1 0x4 ADD PUSH2 0xF75 SWAP2 DUP2 MSTORE PUSH1 0x20 ADD SWAP1 JUMP JUMPDEST PUSH2 0x100 PUSH1 0x40 MLOAD DUP1 DUP4 SUB DUP2 DUP7 GAS STATICCALL ISZERO DUP1 ISZERO PUSH2 0xF91 JUMPI RETURNDATASIZE PUSH0 PUSH0 RETURNDATACOPY RETURNDATASIZE PUSH0 REVERT JUMPDEST POP POP POP POP PUSH1 0x40 MLOAD RETURNDATASIZE PUSH1 0x1F NOT PUSH1 0x1F DUP3 ADD AND DUP3 ADD DUP1 PUSH1 0x40 MSTORE POP DUP2 ADD SWAP1 PUSH2 0xFB5 SWAP2 SWAP1 PUSH2 0x2628 JUMP JUMPDEST PUSH1 0x20 ADD MLOAD PUSH1 0x1 PUSH1 0x1 PUSH1 0xA0 SHL SUB AND SUB PUSH2 0x102F JUMPI PUSH1 0x2 SLOAD PUSH1 0x1 PUSH1 0x1 PUSH1 0xA0 SHL SUB AND PUSH4 0x75D924A9 PUSH2 0xFE3 PUSH1 0x1 DUP5 PUSH2 0x24EC JUMP JUMPDEST PUSH1 0x40 MLOAD DUP3 PUSH4 0xFFFFFFFF AND PUSH1 0xE0 SHL DUP2 MSTORE PUSH1 0x4 ADD PUSH2 0x1001 SWAP2 DUP2 MSTORE PUSH1 0x20 ADD SWAP1 JUMP JUMPDEST PUSH0 PUSH1 0x40 MLOAD DUP1 DUP4 SUB DUP2 PUSH0 DUP8 DUP1 EXTCODESIZE ISZERO DUP1 ISZERO PUSH2 0x1018 JUMPI PUSH0 PUSH0 REVERT JUMPDEST POP GAS CALL ISZERO DUP1 ISZERO PUSH2 0x102A JUMPI RETURNDATASIZE PUSH0 PUSH0 RETURNDATACOPY RETURNDATASIZE PUSH0 REVERT JUMPDEST POP POP POP POP JUMPDEST DUP1 PUSH2 0x1039 DUP2 PUSH2 0x2643 JUMP JUMPDEST SWAP2 POP POP PUSH2 0xF31 JUMP JUMPDEST POP PUSH1 0x9 SLOAD PUSH1 0x40 DUP1 MLOAD PUSH4 0xAF231747 PUSH1 0xE0 SHL DUP2 MSTORE SWAP1 MLOAD PUSH0 SWAP3 PUSH1 0x1 PUSH1 0x1 PUSH1 0xA0 SHL SUB AND SWAP2 PUSH4 0xAF231747 SWAP2 PUSH1 0x4 DUP1 DUP4 ADD SWAP3 PUSH1 0x20 SWAP3 SWAP2 SWAP1 DUP3 SWAP1 SUB ADD DUP2 DUP7 GAS STATICCALL ISZERO DUP1 ISZERO PUSH2 0x1089 JUMPI RETURNDATASIZE PUSH0 PUSH0 RETURNDATACOPY RETURNDATASIZE PUSH0 REVERT JUMPDEST POP POP POP POP PUSH1 0x40 MLOAD RETURNDATASIZE PUSH1 0x1F NOT PUSH1 0x1F DUP3 ADD AND DUP3 ADD DUP1 PUSH1 0x40 MSTORE POP DUP2 ADD SWAP1 PUSH2 0x10AD SWAP2 SWAP1 PUSH2 0x247D JUMP JUMPDEST SWAP1 POP JUMPDEST DUP1 ISZERO PUSH2 0x11C0 JUMPI PUSH1 0x9 SLOAD PUSH1 0x1 PUSH1 0x1 PUSH1 0xA0 SHL SUB DUP1 DUP8 AND SWAP2 AND PUSH4 0xAB4B8853 PUSH2 0x10D6 PUSH1 0x1 DUP6 PUSH2 0x24EC JUMP JUMPDEST PUSH1 0x40 MLOAD DUP3 PUSH4 0xFFFFFFFF AND PUSH1 0xE0 SHL DUP2 MSTORE PUSH1 0x4 ADD PUSH2 0x10F4 SWAP2 DUP2 MSTORE PUSH1 0x20 ADD SWAP1 JUMP JUMPDEST PUSH2 0x100 PUSH1 0x40 MLOAD DUP1 DUP4 SUB DUP2 DUP7 GAS STATICCALL ISZERO DUP1 ISZERO PUSH2 0x1110 JUMPI RETURNDATASIZE PUSH0 PUSH0 RETURNDATACOPY RETURNDATASIZE PUSH0 REVERT JUMPDEST POP POP POP POP PUSH1 0x40 MLOAD RETURNDATASIZE PUSH1 0x1F NOT PUSH1 0x1F DUP3 ADD AND DUP3 ADD DUP1 PUSH1 0x40 MSTORE POP DUP2 ADD SWAP1 PUSH2 0x1134 SWAP2 SWAP1 PUSH2 0x2628 JUMP JUMPDEST PUSH1 0x20 ADD MLOAD PUSH1 0x1 PUSH1 0x1 PUSH1 0xA0 SHL SUB AND SUB PUSH2 0x11AE JUMPI PUSH1 0x9 SLOAD PUSH1 0x1 PUSH1 0x1 PUSH1 0xA0 SHL SUB AND PUSH4 0xB6ADC7D8 PUSH2 0x1162 PUSH1 0x1 DUP5 PUSH2 0x24EC JUMP JUMPDEST PUSH1 0x40 MLOAD DUP3 PUSH4 0xFFFFFFFF AND PUSH1 0xE0 SHL DUP2 MSTORE PUSH1 0x4 ADD PUSH2 0x1180 SWAP2 DUP2 MSTORE PUSH1 0x20 ADD SWAP1 JUMP JUMPDEST PUSH0 PUSH1 0x40 MLOAD DUP1 DUP4 SUB DUP2 PUSH0 DUP8 DUP1 EXTCODESIZE ISZERO DUP1 ISZERO PUSH2 0x1197 JUMPI PUSH0 PUSH0 REVERT JUMPDEST POP GAS CALL ISZERO DUP1 ISZERO PUSH2 0x11A9 JUMPI RETURNDATASIZE PUSH0 PUSH0 RETURNDATACOPY RETURNDATASIZE PUSH0 REVERT JUMPDEST POP POP POP POP JUMPDEST DUP1 PUSH2 0x11B8 DUP2 PUSH2 0x2643 JUMP JUMPDEST SWAP2 POP POP PUSH2 0x10B0 JUMP JUMPDEST POP PUSH1 0x8 SLOAD PUSH1 0x40 DUP1 MLOAD PUSH4 0xA2B34805 PUSH1 0xE0 SHL DUP2 MSTORE SWAP1 MLOAD PUSH0 SWAP3 PUSH1 0x1 PUSH1 0x1 PUSH1 0xA0 SHL SUB AND SWAP2 PUSH4 0xA2B34805 SWAP2 PUSH1 0x4 DUP1 DUP4 ADD SWAP3 PUSH1 0x20 SWAP3 SWAP2 SWAP1 DUP3 SWAP1 SUB ADD DUP2 DUP7 GAS STATICCALL ISZERO DUP1 ISZERO PUSH2 0x1208 JUMPI RETURNDATASIZE PUSH0 PUSH0 RETURNDATACOPY RETURNDATASIZE PUSH0 REVERT JUMPDEST POP POP POP POP PUSH1 0x40 MLOAD RETURNDATASIZE PUSH1 0x1F NOT PUSH1 0x1F DUP3 ADD AND DUP3 ADD DUP1 PUSH1 0x40 MSTORE POP DUP2 ADD SWAP1 PUSH2 0x122C SWAP2 SWAP1 PUSH2 0x247D JUMP JUMPDEST SWAP1 POP JUMPDEST DUP1 ISZERO PUSH2 0x133F JUMPI PUSH1 0x8 SLOAD PUSH1 0x1 PUSH1 0x1 PUSH1 0xA0 SHL SUB DUP1 DUP8 AND SWAP2 AND PUSH4 0xDE6D7A2 PUSH2 0x1255 PUSH1 0x1 DUP6 PUSH2 0x24EC JUMP JUMPDEST PUSH1 0x40 MLOAD DUP3 PUSH4 0xFFFFFFFF AND PUSH1 0xE0 SHL DUP2 MSTORE PUSH1 0x4 ADD PUSH2 0x1273 SWAP2 DUP2 MSTORE PUSH1 0x20 ADD SWAP1 JUMP JUMPDEST PUSH2 0x100 PUSH1 0x40 MLOAD DUP1 DUP4 SUB DUP2 DUP7 GAS STATICCALL ISZERO DUP1 ISZERO PUSH2 0x128F JUMPI RETURNDATASIZE PUSH0 PUSH0 RETURNDATACOPY RETURNDATASIZE PUSH0 REVERT JUMPDEST POP POP POP POP PUSH1 0x40 MLOAD RETURNDATASIZE PUSH1 0x1F NOT PUSH1 0x1F DUP3 ADD AND DUP3 ADD DUP1 PUSH1 0x40 MSTORE POP DUP2 ADD SWAP1 PUSH2 0x12B3 SWAP2 SWAP1 PUSH2 0x2628 JUMP JUMPDEST PUSH1 0x20 ADD MLOAD PUSH1 0x1 PUSH1 0x1 PUSH1 0xA0 SHL SUB AND SUB PUSH2 0x132D JUMPI PUSH1 0x8 SLOAD PUSH1 0x1 PUSH1 0x1 PUSH1 0xA0 SHL SUB AND PUSH4 0x1AF0159A PUSH2 0x12E1 PUSH1 0x1 DUP5 PUSH2 0x24EC JUMP JUMPDEST PUSH1 0x40 MLOAD DUP3 PUSH4 0xFFFFFFFF AND PUSH1 0xE0 SHL DUP2 MSTORE PUSH1 0x4 ADD PUSH2 0x12FF SWAP2 DUP2 MSTORE PUSH1 0x20 ADD SWAP1 JUMP JUMPDEST PUSH0 PUSH1 0x40 MLOAD DUP1 DUP4 SUB DUP2 PUSH0 DUP8 DUP1 EXTCODESIZE ISZERO DUP1 ISZERO PUSH2 0x1316 JUMPI PUSH0 PUSH0 REVERT JUMPDEST POP GAS CALL ISZERO DUP1 ISZERO PUSH2 0x1328 JUMPI RETURNDATASIZE PUSH0 PUSH0 RETURNDATACOPY RETURNDATASIZE PUSH0 REVERT JUMPDEST POP POP POP POP JUMPDEST DUP1 PUSH2 0x1337 DUP2 PUSH2 0x2643 JUMP JUMPDEST SWAP2 POP POP PUSH2 0x122F JUMP JUMPDEST POP POP POP POP JUMPDEST PUSH2 0x134D PUSH1 0x1 DUP1 SSTORE JUMP JUMPDEST POP JUMP JUMPDEST CALLER PUSH0 SWAP1 DUP2 MSTORE PUSH1 0xA PUSH1 0x20 MSTORE PUSH1 0x40 SWAP1 KECCAK256 SLOAD PUSH1 0xFF AND PUSH2 0x137E JUMPI PUSH1 0x40 MLOAD PUSH3 0x461BCD PUSH1 0xE5 SHL DUP2 MSTORE PUSH1 0x4 ADD PUSH2 0x2AD SWAP1 PUSH2 0x2410 JUMP JUMPDEST PUSH2 0x1386 PUSH2 0x1592 JUMP JUMPDEST PUSH2 0x138E PUSH2 0x1601 JUMP JUMPDEST PUSH2 0x1397 PUSH1 0x1 DUP1 SSTORE JUMP JUMPDEST JUMP JUMPDEST CALLER PUSH0 SWAP1 DUP2 MSTORE PUSH1 0xA PUSH1 0x20 MSTORE PUSH1 0x40 SWAP1 KECCAK256 SLOAD PUSH1 0xFF AND PUSH2 0x13C7 JUMPI PUSH1 0x40 MLOAD PUSH3 0x461BCD PUSH1 0xE5 SHL DUP2 MSTORE PUSH1 0x4 ADD PUSH2 0x2AD SWAP1 PUSH2 0x2410 JUMP JUMPDEST PUSH2 0x13CF PUSH2 0x15BC JUMP JUMPDEST PUSH2 0x13D7 PUSH2 0x1592 JUMP JUMPDEST PUSH2 0x138E PUSH2 0x164C JUMP JUMPDEST CALLER PUSH0 SWAP1 DUP2 MSTORE PUSH1 0xA PUSH1 0x20 MSTORE PUSH1 0x40 SWAP1 KECCAK256 SLOAD PUSH1 0xFF AND PUSH2 0x140D JUMPI PUSH1 0x40 MLOAD PUSH3 0x461BCD PUSH1 0xE5 SHL DUP2 MSTORE PUSH1 0x4 ADD PUSH2 0x2AD SWAP1 PUSH2 0x2410 JUMP JUMPDEST PUSH2 0x1415 PUSH2 0x1592 JUMP JUMPDEST PUSH2 0x141D PUSH2 0x15BC JUMP JUMPDEST PUSH1 0x2 DUP1 SLOAD PUSH1 0x1 PUSH1 0x1 PUSH1 0xA0 SHL SUB NOT SWAP1 DUP2 AND PUSH1 0x1 PUSH1 0x1 PUSH1 0xA0 SHL SUB DUP12 DUP2 AND SWAP2 SWAP1 SWAP2 OR SWAP1 SWAP3 SSTORE PUSH1 0x4 DUP1 SLOAD DUP3 AND DUP11 DUP5 AND OR SWAP1 SSTORE PUSH1 0x5 DUP1 SLOAD DUP3 AND DUP10 DUP5 AND SWAP1 DUP2 OR SWAP1 SWAP2 SSTORE PUSH1 0x7 DUP1 SLOAD DUP4 AND SWAP1 SWAP2 OR SWAP1 SSTORE PUSH1 0x8 DUP1 SLOAD DUP3 AND DUP9 DUP5 AND OR SWAP1 SSTORE PUSH1 0x9 DUP1 SLOAD DUP3 AND DUP8 DUP5 AND OR SWAP1 SSTORE PUSH1 0x3 DUP1 SLOAD DUP3 AND DUP7 DUP5 AND OR SWAP1 SSTORE PUSH1 0x6 DUP1 SLOAD DUP3 AND DUP5 DUP5 AND OR SWAP1 SSTORE PUSH1 0xB DUP1 SLOAD SWAP1 SWAP2 AND SWAP2 DUP5 AND SWAP2 SWAP1 SWAP2 OR SWAP1 SSTORE PUSH1 0x1 DUP1 SSTORE POP POP POP POP POP POP POP POP JUMP JUMPDEST PUSH2 0x14BB PUSH2 0x1592 JUMP JUMPDEST CALLER PUSH0 SWAP1 DUP2 MSTORE PUSH1 0xA PUSH1 0x20 MSTORE PUSH1 0x40 SWAP1 KECCAK256 SLOAD PUSH1 0xFF AND PUSH2 0x14E9 JUMPI PUSH1 0x40 MLOAD PUSH3 0x461BCD PUSH1 0xE5 SHL DUP2 MSTORE PUSH1 0x4 ADD PUSH2 0x2AD SWAP1 PUSH2 0x2410 JUMP JUMPDEST PUSH2 0x14F6 DUP3 DUP3 PUSH1 0x1 PUSH0 PUSH2 0x1688 JUMP JUMPDEST PUSH2 0x1589 JUMPI PUSH2 0x1506 DUP3 DUP3 PUSH0 PUSH0 PUSH2 0x1688 JUMP JUMPDEST PUSH2 0x1589 JUMPI PUSH2 0x1517 DUP3 DUP3 PUSH1 0x1 DUP1 PUSH2 0x1688 JUMP JUMPDEST PUSH2 0x1589 JUMPI PUSH2 0x1528 DUP3 DUP3 PUSH0 PUSH1 0x1 PUSH2 0x1688 JUMP JUMPDEST PUSH2 0x1589 JUMPI PUSH2 0x153A DUP3 DUP3 PUSH1 0x1 PUSH1 0x2 PUSH2 0x1688 JUMP JUMPDEST PUSH2 0x1589 JUMPI PUSH2 0x154B DUP3 DUP3 PUSH0 PUSH1 0x2 PUSH2 0x1688 JUMP JUMPDEST PUSH2 0x1589 JUMPI PUSH1 0x40 MLOAD PUSH3 0x461BCD PUSH1 0xE5 SHL DUP2 MSTORE PUSH1 0x20 PUSH1 0x4 DUP3 ADD MSTORE PUSH1 0xF PUSH1 0x24 DUP3 ADD MSTORE PUSH15 0x13DC99195C881B9BDD08199BDD5B99 PUSH1 0x8A SHL PUSH1 0x44 DUP3 ADD MSTORE PUSH1 0x64 ADD PUSH2 0x2AD JUMP JUMPDEST PUSH2 0x2F1 PUSH1 0x1 DUP1 SSTORE JUMP JUMPDEST PUSH1 0x2 PUSH1 0x1 SLOAD SUB PUSH2 0x15B5 JUMPI PUSH1 0x40 MLOAD PUSH4 0x3EE5AEB5 PUSH1 0xE0 SHL DUP2 MSTORE PUSH1 0x4 ADD PUSH1 0x40 MLOAD DUP1 SWAP2 SUB SWAP1 REVERT JUMPDEST PUSH1 0x2 PUSH1 0x1 SSTORE JUMP JUMPDEST PUSH0 SLOAD PUSH1 0xFF AND ISZERO PUSH2 0x1397 JUMPI PUSH1 0x40 MLOAD PUSH3 0x461BCD PUSH1 0xE5 SHL DUP2 MSTORE PUSH1 0x20 PUSH1 0x4 DUP3 ADD MSTORE PUSH1 0x10 PUSH1 0x24 DUP3 ADD MSTORE PUSH16 0x14185D5CD8589B194E881C185D5CD959 PUSH1 0x82 SHL PUSH1 0x44 DUP3 ADD MSTORE PUSH1 0x64 ADD PUSH2 0x2AD JUMP JUMPDEST PUSH2 0x1609 PUSH2 0x226C JUMP JUMPDEST PUSH0 DUP1 SLOAD PUSH1 0xFF NOT AND SWAP1 SSTORE PUSH32 0x5DB9EE0A495BF2E6FF9C91A7834C1BA4FDD244A5E8AA4E537BD38AEAE4B073AA CALLER JUMPDEST PUSH1 0x40 MLOAD PUSH2 0x1642 SWAP2 SWAP1 PUSH2 0x232E JUMP JUMPDEST PUSH1 0x40 MLOAD DUP1 SWAP2 SUB SWAP1 LOG1 JUMP JUMPDEST PUSH2 0x1654 PUSH2 0x15BC JUMP JUMPDEST PUSH0 DUP1 SLOAD PUSH1 0xFF NOT AND PUSH1 0x1 OR SWAP1 SSTORE PUSH32 0x62E78CEA01BEE320CD4E420270B5EA74000D11B0C9F74754EBDBFC544B05A258 PUSH2 0x1635 CALLER SWAP1 JUMP JUMPDEST PUSH0 PUSH1 0x60 DUP4 ISZERO PUSH2 0x17FB JUMPI PUSH0 DUP4 PUSH1 0x2 DUP2 GT ISZERO PUSH2 0x16A4 JUMPI PUSH2 0x16A4 PUSH2 0x2438 JUMP JUMPDEST SUB PUSH2 0x1726 JUMPI PUSH1 0x2 PUSH0 SWAP1 SLOAD SWAP1 PUSH2 0x100 EXP SWAP1 DIV PUSH1 0x1 PUSH1 0x1 PUSH1 0xA0 SHL SUB AND PUSH1 0x1 PUSH1 0x1 PUSH1 0xA0 SHL SUB AND PUSH4 0x4C3095A9 PUSH1 0x40 MLOAD DUP2 PUSH4 0xFFFFFFFF AND PUSH1 0xE0 SHL DUP2 MSTORE PUSH1 0x4 ADD PUSH0 PUSH1 0x40 MLOAD DUP1 DUP4 SUB DUP2 DUP7 GAS STATICCALL ISZERO DUP1 ISZERO PUSH2 0x16F8 JUMPI RETURNDATASIZE PUSH0 PUSH0 RETURNDATACOPY RETURNDATASIZE PUSH0 REVERT JUMPDEST POP POP POP POP PUSH1 0x40 MLOAD RETURNDATASIZE PUSH0 DUP3 RETURNDATACOPY PUSH1 0x1F RETURNDATASIZE SWAP1 DUP2 ADD PUSH1 0x1F NOT AND DUP3 ADD PUSH1 0x40 MSTORE PUSH2 0x171F SWAP2 SWAP1 DUP2 ADD SWAP1 PUSH2 0x272C JUMP JUMPDEST SWAP1 POP PUSH2 0x195C JUMP JUMPDEST PUSH1 0x1 DUP4 PUSH1 0x2 DUP2 GT ISZERO PUSH2 0x173A JUMPI PUSH2 0x173A PUSH2 0x2438 JUMP JUMPDEST SUB PUSH2 0x178E JUMPI PUSH1 0x9 PUSH0 SWAP1 SLOAD SWAP1 PUSH2 0x100 EXP SWAP1 DIV PUSH1 0x1 PUSH1 0x1 PUSH1 0xA0 SHL SUB AND PUSH1 0x1 PUSH1 0x1 PUSH1 0xA0 SHL SUB AND PUSH4 0x2465AF11 PUSH1 0x40 MLOAD DUP2 PUSH4 0xFFFFFFFF AND PUSH1 0xE0 SHL DUP2 MSTORE PUSH1 0x4 ADD PUSH0 PUSH1 0x40 MLOAD DUP1 DUP4 SUB DUP2 DUP7 GAS STATICCALL ISZERO DUP1 ISZERO PUSH2 0x16F8 JUMPI RETURNDATASIZE PUSH0 PUSH0 RETURNDATACOPY RETURNDATASIZE PUSH0 REVERT JUMPDEST PUSH1 0x2 DUP4 PUSH1 0x2 DUP2 GT ISZERO PUSH2 0x17A2 JUMPI PUSH2 0x17A2 PUSH2 0x2438 JUMP JUMPDEST SUB PUSH2 0x17F6 JUMPI PUSH1 0x8 PUSH0 SWAP1 SLOAD SWAP1 PUSH2 0x100 EXP SWAP1 DIV PUSH1 0x1 PUSH1 0x1 PUSH1 0xA0 SHL SUB AND PUSH1 0x1 PUSH1 0x1 PUSH1 0xA0 SHL SUB AND PUSH4 0x505B304D PUSH1 0x40 MLOAD DUP2 PUSH4 0xFFFFFFFF AND PUSH1 0xE0 SHL DUP2 MSTORE PUSH1 0x4 ADD PUSH0 PUSH1 0x40 MLOAD DUP1 DUP4 SUB DUP2 DUP7 GAS STATICCALL ISZERO DUP1 ISZERO PUSH2 0x16F8 JUMPI RETURNDATASIZE PUSH0 PUSH0 RETURNDATACOPY RETURNDATASIZE PUSH0 REVERT JUMPDEST PUSH2 0x195C JUMP JUMPDEST PUSH0 DUP4 PUSH1 0x2 DUP2 GT ISZERO PUSH2 0x180E JUMPI PUSH2 0x180E PUSH2 0x2438 JUMP JUMPDEST SUB PUSH2 0x1862 JUMPI PUSH1 0x2 PUSH0 SWAP1 SLOAD SWAP1 PUSH2 0x100 EXP SWAP1 DIV PUSH1 0x1 PUSH1 0x1 PUSH1 0xA0 SHL SUB AND PUSH1 0x1 PUSH1 0x1 PUSH1 0xA0 SHL SUB AND PUSH4 0x8C65A498 PUSH1 0x40 MLOAD DUP2 PUSH4 0xFFFFFFFF AND PUSH1 0xE0 SHL DUP2 MSTORE PUSH1 0x4 ADD PUSH0 PUSH1 0x40 MLOAD DUP1 DUP4 SUB DUP2 DUP7 GAS STATICCALL ISZERO DUP1 ISZERO PUSH2 0x16F8 JUMPI RETURNDATASIZE PUSH0 PUSH0 RETURNDATACOPY RETURNDATASIZE PUSH0 REVERT JUMPDEST PUSH1 0x1 DUP4 PUSH1 0x2 DUP2 GT ISZERO PUSH2 0x1876 JUMPI PUSH2 0x1876 PUSH2 0x2438 JUMP JUMPDEST SUB PUSH2 0x18CA JUMPI PUSH1 0x9 PUSH0 SWAP1 SLOAD SWAP1 PUSH2 0x100 EXP SWAP1 DIV PUSH1 0x1 PUSH1 0x1 PUSH1 0xA0 SHL SUB AND PUSH1 0x1 PUSH1 0x1 PUSH1 0xA0 SHL SUB AND PUSH4 0x6CCA424F PUSH1 0x40 MLOAD DUP2 PUSH4 0xFFFFFFFF AND PUSH1 0xE0 SHL DUP2 MSTORE PUSH1 0x4 ADD PUSH0 PUSH1 0x40 MLOAD DUP1 DUP4 SUB DUP2 DUP7 GAS STATICCALL ISZERO DUP1 ISZERO PUSH2 0x16F8 JUMPI RETURNDATASIZE PUSH0 PUSH0 RETURNDATACOPY RETURNDATASIZE PUSH0 REVERT JUMPDEST PUSH1 0x2 DUP4 PUSH1 0x2 DUP2 GT ISZERO PUSH2 0x18DE JUMPI PUSH2 0x18DE PUSH2 0x2438 JUMP JUMPDEST SUB PUSH2 0x195C JUMPI PUSH1 0x8 PUSH0 SWAP1 SLOAD SWAP1 PUSH2 0x100 EXP SWAP1 DIV PUSH1 0x1 PUSH1 0x1 PUSH1 0xA0 SHL SUB AND PUSH1 0x1 PUSH1 0x1 PUSH1 0xA0 SHL SUB AND PUSH4 0xEBE4E82F PUSH1 0x40 MLOAD DUP2 PUSH4 0xFFFFFFFF AND PUSH1 0xE0 SHL DUP2 MSTORE PUSH1 0x4 ADD PUSH0 PUSH1 0x40 MLOAD DUP1 DUP4 SUB DUP2 DUP7 GAS STATICCALL ISZERO DUP1 ISZERO PUSH2 0x1932 JUMPI RETURNDATASIZE PUSH0 PUSH0 RETURNDATACOPY RETURNDATASIZE PUSH0 REVERT JUMPDEST POP POP POP POP PUSH1 0x40 MLOAD RETURNDATASIZE PUSH0 DUP3 RETURNDATACOPY PUSH1 0x1F RETURNDATASIZE SWAP1 DUP2 ADD PUSH1 0x1F NOT AND DUP3 ADD PUSH1 0x40 MSTORE PUSH2 0x1959 SWAP2 SWAP1 DUP2 ADD SWAP1 PUSH2 0x272C JUMP JUMPDEST SWAP1 POP JUMPDEST PUSH0 JUMPDEST DUP2 MLOAD DUP2 LT ISZERO PUSH2 0x225E JUMPI DUP6 DUP3 DUP3 DUP2 MLOAD DUP2 LT PUSH2 0x197A JUMPI PUSH2 0x197A PUSH2 0x27E1 JUMP JUMPDEST PUSH1 0x20 MUL PUSH1 0x20 ADD ADD MLOAD PUSH0 ADD MLOAD SUB PUSH2 0x2256 JUMPI PUSH0 DUP3 DUP3 DUP2 MLOAD DUP2 LT PUSH2 0x199D JUMPI PUSH2 0x199D PUSH2 0x27E1 JUMP JUMPDEST PUSH1 0x20 MUL PUSH1 0x20 ADD ADD MLOAD SWAP1 POP PUSH0 DUP2 PUSH1 0x20 ADD MLOAD SWAP1 POP DUP9 PUSH1 0x1 PUSH1 0x1 PUSH1 0xA0 SHL SUB AND DUP2 PUSH1 0x1 PUSH1 0x1 PUSH1 0xA0 SHL SUB AND EQ PUSH2 0x1A30 JUMPI PUSH1 0x40 MLOAD PUSH3 0x461BCD PUSH1 0xE5 SHL DUP2 MSTORE PUSH1 0x20 PUSH1 0x4 DUP3 ADD MSTORE PUSH1 0x37 PUSH1 0x24 DUP3 ADD MSTORE PUSH32 0x4F6E6C7920746865206F776E6572206F72207468652062757965722F73656C6C PUSH1 0x44 DUP3 ADD MSTORE PUSH23 0x32B91031B0B7103932B6B7BB32903A34329037B93232B9 PUSH1 0x49 SHL PUSH1 0x64 DUP3 ADD MSTORE PUSH1 0x84 ADD PUSH2 0x2AD JUMP JUMPDEST DUP7 ISZERO PUSH2 0x1E60 JUMPI PUSH1 0x60 DUP3 ADD MLOAD PUSH1 0x40 DUP4 ADD MLOAD PUSH0 SWAP1 PUSH2 0x3E8 SWAP1 PUSH2 0x1A51 SWAP1 DUP5 SWAP1 PUSH2 0x27F5 JUMP JUMPDEST PUSH2 0x1A5B SWAP2 SWAP1 PUSH2 0x280C JUMP JUMPDEST PUSH1 0x2 SLOAD PUSH1 0x40 MLOAD PUSH4 0x47DB8591 PUSH1 0xE0 SHL DUP2 MSTORE SWAP2 SWAP3 POP PUSH0 SWAP2 PUSH1 0x1 PUSH1 0x1 PUSH1 0xA0 SHL SUB SWAP1 SWAP2 AND SWAP1 PUSH4 0x47DB8591 SWAP1 PUSH2 0x1A92 SWAP1 DUP8 SWAP1 DUP14 SWAP1 PUSH1 0x4 ADD PUSH2 0x2668 JUMP JUMPDEST PUSH1 0x20 PUSH1 0x40 MLOAD DUP1 DUP4 SUB DUP2 DUP7 GAS STATICCALL ISZERO DUP1 ISZERO PUSH2 0x1AAD JUMPI RETURNDATASIZE PUSH0 PUSH0 RETURNDATACOPY RETURNDATASIZE PUSH0 REVERT JUMPDEST POP POP POP POP PUSH1 0x40 MLOAD RETURNDATASIZE PUSH1 0x1F NOT PUSH1 0x1F DUP3 ADD AND DUP3 ADD DUP1 PUSH1 0x40 MSTORE POP DUP2 ADD SWAP1 PUSH2 0x1AD1 SWAP2 SWAP1 PUSH2 0x247D JUMP JUMPDEST SWAP1 POP PUSH0 DUP3 DUP3 LT PUSH2 0x1AE1 JUMPI DUP3 PUSH2 0x1AE3 JUMP JUMPDEST DUP2 JUMPDEST SWAP1 POP PUSH0 DUP11 PUSH1 0x2 DUP2 GT ISZERO PUSH2 0x1AF8 JUMPI PUSH2 0x1AF8 PUSH2 0x2438 JUMP JUMPDEST SUB PUSH2 0x1BBB JUMPI DUP1 DUP3 LT ISZERO PUSH2 0x1B57 JUMPI PUSH1 0x40 MLOAD PUSH3 0x461BCD PUSH1 0xE5 SHL DUP2 MSTORE PUSH1 0x20 PUSH1 0x4 DUP3 ADD MSTORE PUSH1 0x21 PUSH1 0x24 DUP3 ADD MSTORE PUSH32 0x496E73756666696369656E7420657468657220657363726F772062616C616E63 PUSH1 0x44 DUP3 ADD MSTORE PUSH1 0x65 PUSH1 0xF8 SHL PUSH1 0x64 DUP3 ADD MSTORE PUSH1 0x84 ADD PUSH2 0x2AD JUMP JUMPDEST PUSH1 0x3 SLOAD PUSH1 0x40 MLOAD PUSH4 0x2D6D980F PUSH1 0xE2 SHL DUP2 MSTORE PUSH1 0x1 PUSH1 0x1 PUSH1 0xA0 SHL SUB SWAP1 SWAP2 AND SWAP1 PUSH4 0xB5B6603C SWAP1 PUSH2 0x1B89 SWAP1 DUP9 SWAP1 DUP6 SWAP1 PUSH1 0x4 ADD PUSH2 0x2494 JUMP JUMPDEST PUSH0 PUSH1 0x40 MLOAD DUP1 DUP4 SUB DUP2 PUSH0 DUP8 DUP1 EXTCODESIZE ISZERO DUP1 ISZERO PUSH2 0x1BA0 JUMPI PUSH0 PUSH0 REVERT JUMPDEST POP GAS CALL ISZERO DUP1 ISZERO PUSH2 0x1BB2 JUMPI RETURNDATASIZE PUSH0 PUSH0 RETURNDATACOPY RETURNDATASIZE PUSH0 REVERT JUMPDEST POP POP POP POP PUSH2 0x1DF4 JUMP JUMPDEST PUSH1 0x1 DUP11 PUSH1 0x2 DUP2 GT ISZERO PUSH2 0x1BCF JUMPI PUSH2 0x1BCF PUSH2 0x2438 JUMP JUMPDEST SUB PUSH2 0x1D07 JUMPI PUSH1 0x2 SLOAD PUSH1 0x40 MLOAD PUSH4 0x20CDB427 PUSH1 0xE0 SHL DUP2 MSTORE PUSH1 0x4 DUP2 ADD DUP4 SWAP1 MSTORE PUSH1 0x1 PUSH1 0x1 PUSH1 0xA0 SHL SUB SWAP1 SWAP2 AND SWAP1 PUSH4 0x20CDB427 SWAP1 PUSH1 0x24 ADD PUSH0 PUSH1 0x40 MLOAD DUP1 DUP4 SUB DUP2 PUSH0 DUP8 DUP1 EXTCODESIZE ISZERO DUP1 ISZERO PUSH2 0x1C17 JUMPI PUSH0 PUSH0 REVERT JUMPDEST POP GAS CALL ISZERO DUP1 ISZERO PUSH2 0x1C29 JUMPI RETURNDATASIZE PUSH0 PUSH0 RETURNDATACOPY RETURNDATASIZE PUSH0 REVERT JUMPDEST POP POP PUSH1 0x4 SLOAD PUSH1 0x40 MLOAD PUSH0 SWAP4 POP DUP4 SWAP3 POP PUSH1 0x1 PUSH1 0x1 PUSH1 0xA0 SHL SUB SWAP1 SWAP2 AND SWAP1 PUSH4 0x23B872DD PUSH1 0xE0 SHL SWAP1 PUSH2 0x1C5E SWAP1 CALLER SWAP1 DUP12 SWAP1 DUP9 SWAP1 PUSH1 0x24 ADD PUSH2 0x26A2 JUMP JUMPDEST PUSH1 0x40 DUP1 MLOAD PUSH1 0x1F NOT DUP2 DUP5 SUB ADD DUP2 MSTORE SWAP2 DUP2 MSTORE PUSH1 0x20 DUP3 ADD DUP1 MLOAD PUSH1 0x1 PUSH1 0x1 PUSH1 0xE0 SHL SUB AND PUSH1 0x1 PUSH1 0x1 PUSH1 0xE0 SHL SUB NOT SWAP1 SWAP5 AND SWAP4 SWAP1 SWAP4 OR SWAP1 SWAP3 MSTORE SWAP1 MLOAD PUSH2 0x1C9C SWAP2 SWAP1 PUSH2 0x26C6 JUMP JUMPDEST PUSH0 PUSH1 0x40 MLOAD DUP1 DUP4 SUB DUP2 PUSH0 DUP7 GAS CALL SWAP2 POP POP RETURNDATASIZE DUP1 PUSH0 DUP2 EQ PUSH2 0x1CD5 JUMPI PUSH1 0x40 MLOAD SWAP2 POP PUSH1 0x1F NOT PUSH1 0x3F RETURNDATASIZE ADD AND DUP3 ADD PUSH1 0x40 MSTORE RETURNDATASIZE DUP3 MSTORE RETURNDATASIZE PUSH0 PUSH1 0x20 DUP5 ADD RETURNDATACOPY PUSH2 0x1CDA JUMP JUMPDEST PUSH1 0x60 SWAP2 POP JUMPDEST POP SWAP2 POP SWAP2 POP DUP2 DUP2 SWAP1 PUSH2 0x1CFF JUMPI PUSH1 0x40 MLOAD PUSH3 0x461BCD PUSH1 0xE5 SHL DUP2 MSTORE PUSH1 0x4 ADD PUSH2 0x2AD SWAP2 SWAP1 PUSH2 0x26DC JUMP JUMPDEST POP POP POP PUSH2 0x1DF4 JUMP JUMPDEST PUSH1 0x2 DUP11 PUSH1 0x2 DUP2 GT ISZERO PUSH2 0x1D1B JUMPI PUSH2 0x1D1B PUSH2 0x2438 JUMP JUMPDEST SUB PUSH2 0x1DF4 JUMPI PUSH1 0x2 SLOAD PUSH1 0x40 MLOAD PUSH4 0x5F80A9CF PUSH1 0xE0 SHL DUP2 MSTORE PUSH1 0x4 DUP2 ADD DUP4 SWAP1 MSTORE PUSH1 0x1 PUSH1 0x1 PUSH1 0xA0 SHL SUB SWAP1 SWAP2 AND SWAP1 PUSH4 0x5F80A9CF SWAP1 PUSH1 0x24 ADD PUSH0 PUSH1 0x40 MLOAD DUP1 DUP4 SUB DUP2 PUSH0 DUP8 DUP1 EXTCODESIZE ISZERO DUP1 ISZERO PUSH2 0x1D63 JUMPI PUSH0 PUSH0 REVERT JUMPDEST POP GAS CALL ISZERO DUP1 ISZERO PUSH2 0x1D75 JUMPI RETURNDATASIZE PUSH0 PUSH0 RETURNDATACOPY RETURNDATASIZE PUSH0 REVERT JUMPDEST POP POP PUSH1 0x5 SLOAD PUSH1 0x2 SLOAD PUSH1 0x40 MLOAD PUSH4 0x23B872DD PUSH1 0xE0 SHL DUP2 MSTORE PUSH1 0x1 PUSH1 0x1 PUSH1 0xA0 SHL SUB SWAP3 DUP4 AND SWAP5 POP PUSH4 0x23B872DD SWAP4 POP PUSH2 0x1DB2 SWAP3 SWAP1 SWAP2 AND SWAP1 DUP10 SWAP1 DUP7 SWAP1 PUSH1 0x4 ADD PUSH2 0x26A2 JUMP JUMPDEST PUSH1 0x20 PUSH1 0x40 MLOAD DUP1 DUP4 SUB DUP2 PUSH0 DUP8 GAS CALL ISZERO DUP1 ISZERO PUSH2 0x1DCE JUMPI RETURNDATASIZE PUSH0 PUSH0 RETURNDATACOPY RETURNDATASIZE PUSH0 REVERT JUMPDEST POP POP POP POP PUSH1 0x40 MLOAD RETURNDATASIZE PUSH1 0x1F NOT PUSH1 0x1F DUP3 ADD AND DUP3 ADD DUP1 PUSH1 0x40 MSTORE POP DUP2 ADD SWAP1 PUSH2 0x1DF2 SWAP2 SWAP1 PUSH2 0x2711 JUMP JUMPDEST POP JUMPDEST PUSH1 0x2 SLOAD PUSH1 0x40 MLOAD PUSH4 0x42AF7A0D PUSH1 0xE1 SHL DUP2 MSTORE PUSH1 0x1 PUSH1 0x1 PUSH1 0xA0 SHL SUB SWAP1 SWAP2 AND SWAP1 PUSH4 0x855EF41A SWAP1 PUSH2 0x1E2A SWAP1 DUP9 SWAP1 DUP15 SWAP1 DUP7 SWAP1 PUSH0 SWAP1 PUSH1 0x4 ADD PUSH2 0x282B JUMP JUMPDEST PUSH0 PUSH1 0x40 MLOAD DUP1 DUP4 SUB DUP2 PUSH0 DUP8 DUP1 EXTCODESIZE ISZERO DUP1 ISZERO PUSH2 0x1E41 JUMPI PUSH0 PUSH0 REVERT JUMPDEST POP GAS CALL ISZERO DUP1 ISZERO PUSH2 0x1E53 JUMPI RETURNDATASIZE PUSH0 PUSH0 RETURNDATACOPY RETURNDATASIZE PUSH0 REVERT JUMPDEST POP POP POP POP POP POP POP POP PUSH2 0x201B JUMP JUMPDEST PUSH1 0x60 DUP3 ADD MLOAD PUSH1 0x2 SLOAD PUSH1 0xA0 DUP5 ADD MLOAD PUSH1 0x40 MLOAD PUSH4 0x10DF52B9 PUSH1 0xE0 SHL DUP2 MSTORE PUSH0 SWAP3 PUSH1 0x1 PUSH1 0x1 PUSH1 0xA0 SHL SUB AND SWAP2 PUSH4 0x10DF52B9 SWAP2 PUSH2 0x1E9A SWAP2 DUP8 SWAP2 PUSH1 0x4 ADD PUSH2 0x2460 JUMP JUMPDEST PUSH1 0x20 PUSH1 0x40 MLOAD DUP1 DUP4 SUB DUP2 DUP7 GAS STATICCALL ISZERO DUP1 ISZERO PUSH2 0x1EB5 JUMPI RETURNDATASIZE PUSH0 PUSH0 RETURNDATACOPY RETURNDATASIZE PUSH0 REVERT JUMPDEST POP POP POP POP PUSH1 0x40 MLOAD RETURNDATASIZE PUSH1 0x1F NOT PUSH1 0x1F DUP3 ADD AND DUP3 ADD DUP1 PUSH1 0x40 MSTORE POP DUP2 ADD SWAP1 PUSH2 0x1ED9 SWAP2 SWAP1 PUSH2 0x247D JUMP JUMPDEST SWAP1 POP PUSH0 DUP3 DUP3 LT PUSH2 0x1EE9 JUMPI DUP3 PUSH2 0x1EEB JUMP JUMPDEST DUP2 JUMPDEST SWAP1 POP DUP1 DUP3 LT ISZERO PUSH2 0x1F47 JUMPI PUSH1 0x40 MLOAD PUSH3 0x461BCD PUSH1 0xE5 SHL DUP2 MSTORE PUSH1 0x20 PUSH1 0x4 DUP3 ADD MSTORE PUSH1 0x21 PUSH1 0x24 DUP3 ADD MSTORE PUSH32 0x496E73756666696369656E7420746F6B656E20657363726F772062616C616E63 PUSH1 0x44 DUP3 ADD MSTORE PUSH1 0x65 PUSH1 0xF8 SHL PUSH1 0x64 DUP3 ADD MSTORE PUSH1 0x84 ADD PUSH2 0x2AD JUMP JUMPDEST PUSH1 0x6 SLOAD PUSH1 0x40 MLOAD PUSH4 0xD447983 PUSH1 0xE1 SHL DUP2 MSTORE PUSH1 0x1 PUSH1 0x1 PUSH1 0xA0 SHL SUB SWAP1 SWAP2 AND SWAP1 PUSH4 0x1A88F306 SWAP1 PUSH2 0x1F79 SWAP1 DUP8 SWAP1 DUP6 SWAP1 PUSH1 0x4 ADD PUSH2 0x2494 JUMP JUMPDEST PUSH0 PUSH1 0x40 MLOAD DUP1 DUP4 SUB DUP2 PUSH0 DUP8 DUP1 EXTCODESIZE ISZERO DUP1 ISZERO PUSH2 0x1F90 JUMPI PUSH0 PUSH0 REVERT JUMPDEST POP GAS CALL ISZERO DUP1 ISZERO PUSH2 0x1FA2 JUMPI RETURNDATASIZE PUSH0 PUSH0 RETURNDATACOPY RETURNDATASIZE PUSH0 REVERT JUMPDEST POP POP PUSH1 0x2 SLOAD PUSH1 0xA0 DUP9 ADD MLOAD PUSH1 0x1 PUSH1 0x1 PUSH1 0xA0 SHL SUB SWAP1 SWAP2 AND SWAP3 POP PUSH4 0xE80B146D SWAP2 POP DUP7 SWAP1 PUSH2 0x1FCC DUP6 DUP8 PUSH2 0x24EC JUMP JUMPDEST PUSH1 0x40 MLOAD DUP5 PUSH4 0xFFFFFFFF AND PUSH1 0xE0 SHL DUP2 MSTORE PUSH1 0x4 ADD PUSH2 0x1FEA SWAP4 SWAP3 SWAP2 SWAP1 PUSH2 0x24AD JUMP JUMPDEST PUSH0 PUSH1 0x40 MLOAD DUP1 DUP4 SUB DUP2 PUSH0 DUP8 DUP1 EXTCODESIZE ISZERO DUP1 ISZERO PUSH2 0x2001 JUMPI PUSH0 PUSH0 REVERT JUMPDEST POP GAS CALL ISZERO DUP1 ISZERO PUSH2 0x2013 JUMPI RETURNDATASIZE PUSH0 PUSH0 RETURNDATACOPY RETURNDATASIZE PUSH0 REVERT JUMPDEST POP POP POP POP POP POP POP JUMPDEST DUP7 ISZERO PUSH2 0x2143 JUMPI PUSH0 DUP7 PUSH1 0x2 DUP2 GT ISZERO PUSH2 0x2034 JUMPI PUSH2 0x2034 PUSH2 0x2438 JUMP JUMPDEST SUB PUSH2 0x2098 JUMPI PUSH1 0x2 SLOAD PUSH1 0x40 MLOAD PUSH4 0x75D924A9 PUSH1 0xE0 SHL DUP2 MSTORE PUSH1 0x4 DUP2 ADD DUP6 SWAP1 MSTORE PUSH1 0x1 PUSH1 0x1 PUSH1 0xA0 SHL SUB SWAP1 SWAP2 AND SWAP1 PUSH4 0x75D924A9 SWAP1 PUSH1 0x24 ADD JUMPDEST PUSH0 PUSH1 0x40 MLOAD DUP1 DUP4 SUB DUP2 PUSH0 DUP8 DUP1 EXTCODESIZE ISZERO DUP1 ISZERO PUSH2 0x207D JUMPI PUSH0 PUSH0 REVERT JUMPDEST POP GAS CALL ISZERO DUP1 ISZERO PUSH2 0x208F JUMPI RETURNDATASIZE PUSH0 PUSH0 RETURNDATACOPY RETURNDATASIZE PUSH0 REVERT JUMPDEST POP POP POP POP PUSH2 0x2249 JUMP JUMPDEST PUSH1 0x1 DUP7 PUSH1 0x2 DUP2 GT ISZERO PUSH2 0x20AC JUMPI PUSH2 0x20AC PUSH2 0x2438 JUMP JUMPDEST SUB PUSH2 0x20F4 JUMPI PUSH1 0x9 SLOAD PUSH1 0x40 MLOAD PUSH4 0x16D5B8FB PUSH1 0xE3 SHL DUP2 MSTORE PUSH1 0x4 DUP2 ADD DUP6 SWAP1 MSTORE PUSH1 0x1 PUSH1 0x1 PUSH1 0xA0 SHL SUB SWAP1 SWAP2 AND SWAP1 PUSH4 0xB6ADC7D8 SWAP1 PUSH1 0x24 ADD PUSH0 PUSH1 0x40 MLOAD DUP1 DUP4 SUB DUP2 PUSH0 DUP8 DUP1 EXTCODESIZE ISZERO DUP1 ISZERO PUSH2 0x207D JUMPI PUSH0 PUSH0 REVERT JUMPDEST PUSH1 0x2 DUP7 PUSH1 0x2 DUP2 GT ISZERO PUSH2 0x2108 JUMPI PUSH2 0x2108 PUSH2 0x2438 JUMP JUMPDEST SUB PUSH2 0x213E JUMPI PUSH1 0x8 SLOAD PUSH1 0x40 MLOAD PUSH4 0xD780ACD PUSH1 0xE1 SHL DUP2 MSTORE PUSH1 0x4 DUP2 ADD DUP6 SWAP1 MSTORE PUSH1 0x1 PUSH1 0x1 PUSH1 0xA0 SHL SUB SWAP1 SWAP2 AND SWAP1 PUSH4 0x1AF0159A SWAP1 PUSH1 0x24 ADD PUSH2 0x2066 JUMP JUMPDEST PUSH2 0x2249 JUMP JUMPDEST PUSH0 DUP7 PUSH1 0x2 DUP2 GT ISZERO PUSH2 0x2156 JUMPI PUSH2 0x2156 PUSH2 0x2438 JUMP JUMPDEST SUB PUSH2 0x218C JUMPI PUSH1 0x2 SLOAD PUSH1 0x40 MLOAD PUSH4 0xAC836B1 PUSH1 0xE2 SHL DUP2 MSTORE PUSH1 0x4 DUP2 ADD DUP6 SWAP1 MSTORE PUSH1 0x1 PUSH1 0x1 PUSH1 0xA0 SHL SUB SWAP1 SWAP2 AND SWAP1 PUSH4 0x2B20DAC4 SWAP1 PUSH1 0x24 ADD PUSH2 0x2066 JUMP JUMPDEST PUSH1 0x1 DUP7 PUSH1 0x2 DUP2 GT ISZERO PUSH2 0x21A0 JUMPI PUSH2 0x21A0 PUSH2 0x2438 JUMP JUMPDEST SUB PUSH2 0x21D6 JUMPI PUSH1 0x9 SLOAD PUSH1 0x40 MLOAD PUSH4 0x52D38B7F PUSH1 0xE0 SHL DUP2 MSTORE PUSH1 0x4 DUP2 ADD DUP6 SWAP1 MSTORE PUSH1 0x1 PUSH1 0x1 PUSH1 0xA0 SHL SUB SWAP1 SWAP2 AND SWAP1 PUSH4 0x52D38B7F SWAP1 PUSH1 0x24 ADD PUSH2 0x2066 JUMP JUMPDEST PUSH1 0x2 DUP7 PUSH1 0x2 DUP2 GT ISZERO PUSH2 0x21EA JUMPI PUSH2 0x21EA PUSH2 0x2438 JUMP JUMPDEST SUB PUSH2 0x2249 JUMPI PUSH1 0x8 SLOAD PUSH1 0x40 MLOAD PUSH4 0xBF5915D1 PUSH1 0xE0 SHL DUP2 MSTORE PUSH1 0x4 DUP2 ADD DUP6 SWAP1 MSTORE PUSH1 0x1 PUSH1 0x1 PUSH1 0xA0 SHL SUB SWAP1 SWAP2 AND SWAP1 PUSH4 0xBF5915D1 SWAP1 PUSH1 0x24 ADD PUSH0 PUSH1 0x40 MLOAD DUP1 DUP4 SUB DUP2 PUSH0 DUP8 DUP1 EXTCODESIZE ISZERO DUP1 ISZERO PUSH2 0x2232 JUMPI PUSH0 PUSH0 REVERT JUMPDEST POP GAS CALL ISZERO DUP1 ISZERO PUSH2 0x2244 JUMPI RETURNDATASIZE PUSH0 PUSH0 RETURNDATACOPY RETURNDATASIZE PUSH0 REVERT JUMPDEST POP POP POP POP JUMPDEST PUSH1 0x1 SWAP5 POP POP POP POP POP PUSH2 0x2264 JUMP JUMPDEST PUSH1 0x1 ADD PUSH2 0x195E JUMP JUMPDEST POP PUSH0 SWAP2 POP POP JUMPDEST SWAP5 SWAP4 POP POP POP POP JUMP JUMPDEST PUSH0 SLOAD PUSH1 0xFF AND PUSH2 0x1397 JUMPI PUSH1 0x40 MLOAD PUSH3 0x461BCD PUSH1 0xE5 SHL DUP2 MSTORE PUSH1 0x20 PUSH1 0x4 DUP3 ADD MSTORE PUSH1 0x14 PUSH1 0x24 DUP3 ADD MSTORE PUSH20 0x14185D5CD8589B194E881B9BDD081C185D5CD959 PUSH1 0x62 SHL PUSH1 0x44 DUP3 ADD MSTORE PUSH1 0x64 ADD PUSH2 0x2AD JUMP JUMPDEST PUSH1 0x1 PUSH1 0x1 PUSH1 0xA0 SHL SUB DUP2 AND DUP2 EQ PUSH2 0x134D JUMPI PUSH0 PUSH0 REVERT JUMPDEST DUP1 ISZERO ISZERO DUP2 EQ PUSH2 0x134D JUMPI PUSH0 PUSH0 REVERT JUMPDEST PUSH0 PUSH0 PUSH1 0x40 DUP4 DUP6 SUB SLT ISZERO PUSH2 0x22E6 JUMPI PUSH0 PUSH0 REVERT JUMPDEST DUP3 CALLDATALOAD PUSH2 0x22F1 DUP2 PUSH2 0x22B4 JUMP JUMPDEST SWAP2 POP PUSH1 0x20 DUP4 ADD CALLDATALOAD PUSH2 0x2301 DUP2 PUSH2 0x22C8 JUMP JUMPDEST DUP1 SWAP2 POP POP SWAP3 POP SWAP3 SWAP1 POP JUMP JUMPDEST PUSH0 PUSH1 0x20 DUP3 DUP5 SUB SLT ISZERO PUSH2 0x231C JUMPI PUSH0 PUSH0 REVERT JUMPDEST DUP2 CALLDATALOAD PUSH2 0x2327 DUP2 PUSH2 0x22B4 JUMP JUMPDEST SWAP4 SWAP3 POP POP POP JUMP JUMPDEST PUSH1 0x1 PUSH1 0x1 PUSH1 0xA0 SHL SUB SWAP2 SWAP1 SWAP2 AND DUP2 MSTORE PUSH1 0x20 ADD SWAP1 JUMP JUMPDEST PUSH0 PUSH0 PUSH0 PUSH0 PUSH0 PUSH0 PUSH0 PUSH0 PUSH2 0x100 DUP10 DUP12 SUB SLT ISZERO PUSH2 0x235A JUMPI PUSH0 PUSH0 REVERT JUMPDEST DUP9 CALLDATALOAD PUSH2 0x2365 DUP2 PUSH2 0x22B4 JUMP JUMPDEST SWAP8 POP PUSH1 0x20 DUP10 ADD CALLDATALOAD PUSH2 0x2375 DUP2 PUSH2 0x22B4 JUMP JUMPDEST SWAP7 POP PUSH1 0x40 DUP10 ADD CALLDATALOAD PUSH2 0x2385 DUP2 PUSH2 0x22B4 JUMP JUMPDEST SWAP6 POP PUSH1 0x60 DUP10 ADD CALLDATALOAD PUSH2 0x2395 DUP2 PUSH2 0x22B4 JUMP JUMPDEST SWAP5 POP PUSH1 0x80 DUP10 ADD CALLDATALOAD PUSH2 0x23A5 DUP2 PUSH2 0x22B4 JUMP JUMPDEST SWAP4 POP PUSH1 0xA0 DUP10 ADD CALLDATALOAD PUSH2 0x23B5 DUP2 PUSH2 0x22B4 JUMP JUMPDEST SWAP3 POP PUSH1 0xC0 DUP10 ADD CALLDATALOAD PUSH2 0x23C5 DUP2 PUSH2 0x22B4 JUMP JUMPDEST SWAP2 POP PUSH1 0xE0 DUP10 ADD CALLDATALOAD PUSH2 0x23D5 DUP2 PUSH2 0x22B4 JUMP JUMPDEST DUP1 SWAP2 POP POP SWAP3 SWAP6 SWAP9 POP SWAP3 SWAP6 SWAP9 SWAP1 SWAP4 SWAP7 POP JUMP JUMPDEST PUSH0 PUSH0 PUSH1 0x40 DUP4 DUP6 SUB SLT ISZERO PUSH2 0x23F7 JUMPI PUSH0 PUSH0 REVERT JUMPDEST DUP3 CALLDATALOAD PUSH2 0x2402 DUP2 PUSH2 0x22B4 JUMP JUMPDEST SWAP5 PUSH1 0x20 SWAP4 SWAP1 SWAP4 ADD CALLDATALOAD SWAP4 POP POP POP JUMP JUMPDEST PUSH1 0x20 DUP1 DUP3 MSTORE PUSH1 0xE SWAP1 DUP3 ADD MSTORE PUSH14 0x139BDD08185D5D1A1BDC9A5E9959 PUSH1 0x92 SHL PUSH1 0x40 DUP3 ADD MSTORE PUSH1 0x60 ADD SWAP1 JUMP JUMPDEST PUSH4 0x4E487B71 PUSH1 0xE0 SHL PUSH0 MSTORE PUSH1 0x21 PUSH1 0x4 MSTORE PUSH1 0x24 PUSH0 REVERT JUMPDEST PUSH1 0x1 DUP2 LT PUSH2 0x245C JUMPI PUSH2 0x245C PUSH2 0x2438 JUMP JUMPDEST SWAP1 MSTORE JUMP JUMPDEST PUSH1 0x1 PUSH1 0x1 PUSH1 0xA0 SHL SUB DUP4 AND DUP2 MSTORE PUSH1 0x40 DUP2 ADD PUSH2 0x2327 PUSH1 0x20 DUP4 ADD DUP5 PUSH2 0x244C JUMP JUMPDEST PUSH0 PUSH1 0x20 DUP3 DUP5 SUB SLT ISZERO PUSH2 0x248D JUMPI PUSH0 PUSH0 REVERT JUMPDEST POP MLOAD SWAP2 SWAP1 POP JUMP JUMPDEST PUSH1 0x1 PUSH1 0x1 PUSH1 0xA0 SHL SUB SWAP3 SWAP1 SWAP3 AND DUP3 MSTORE PUSH1 0x20 DUP3 ADD MSTORE PUSH1 0x40 ADD SWAP1 JUMP JUMPDEST PUSH1 0x1 PUSH1 0x1 PUSH1 0xA0 SHL SUB DUP5 AND DUP2 MSTORE PUSH1 0x60 DUP2 ADD PUSH2 0x24CA PUSH1 0x20 DUP4 ADD DUP6 PUSH2 0x244C JUMP JUMPDEST DUP3 PUSH1 0x40 DUP4 ADD MSTORE SWAP5 SWAP4 POP POP POP POP JUMP JUMPDEST PUSH4 0x4E487B71 PUSH1 0xE0 SHL PUSH0 MSTORE PUSH1 0x11 PUSH1 0x4 MSTORE PUSH1 0x24 PUSH0 REVERT JUMPDEST DUP2 DUP2 SUB DUP2 DUP2 GT ISZERO PUSH2 0x24FF JUMPI PUSH2 0x24FF PUSH2 0x24D8 JUMP JUMPDEST SWAP3 SWAP2 POP POP JUMP JUMPDEST PUSH4 0x4E487B71 PUSH1 0xE0 SHL PUSH0 MSTORE PUSH1 0x41 PUSH1 0x4 MSTORE PUSH1 0x24 PUSH0 REVERT JUMPDEST PUSH1 0x40 MLOAD PUSH2 0x100 DUP2 ADD PUSH1 0x1 PUSH1 0x1 PUSH1 0x40 SHL SUB DUP2 GT DUP3 DUP3 LT OR ISZERO PUSH2 0x253C JUMPI PUSH2 0x253C PUSH2 0x2505 JUMP JUMPDEST PUSH1 0x40 MSTORE SWAP1 JUMP JUMPDEST PUSH1 0x40 MLOAD PUSH1 0x1F DUP3 ADD PUSH1 0x1F NOT AND DUP2 ADD PUSH1 0x1 PUSH1 0x1 PUSH1 0x40 SHL SUB DUP2 GT DUP3 DUP3 LT OR ISZERO PUSH2 0x256A JUMPI PUSH2 0x256A PUSH2 0x2505 JUMP JUMPDEST PUSH1 0x40 MSTORE SWAP2 SWAP1 POP JUMP JUMPDEST DUP1 MLOAD PUSH1 0x1 DUP2 LT PUSH2 0x2580 JUMPI PUSH0 PUSH0 REVERT JUMPDEST SWAP2 SWAP1 POP JUMP JUMPDEST DUP1 MLOAD PUSH1 0x3 DUP2 LT PUSH2 0x2580 JUMPI PUSH0 PUSH0 REVERT JUMPDEST DUP1 MLOAD PUSH2 0x2580 DUP2 PUSH2 0x22C8 JUMP JUMPDEST PUSH0 PUSH2 0x100 DUP3 DUP5 SUB SLT ISZERO PUSH2 0x25AF JUMPI PUSH0 PUSH0 REVERT JUMPDEST PUSH2 0x25B7 PUSH2 0x2519 JUMP JUMPDEST DUP3 MLOAD DUP2 MSTORE PUSH1 0x20 DUP4 ADD MLOAD SWAP1 SWAP2 POP PUSH2 0x25CC DUP2 PUSH2 0x22B4 JUMP JUMPDEST PUSH1 0x20 DUP3 ADD MSTORE PUSH1 0x40 DUP3 DUP2 ADD MLOAD SWAP1 DUP3 ADD MSTORE PUSH1 0x60 DUP1 DUP4 ADD MLOAD SWAP1 DUP3 ADD MSTORE PUSH1 0x80 DUP1 DUP4 ADD MLOAD SWAP1 DUP3 ADD MSTORE PUSH2 0x25FB PUSH1 0xA0 DUP4 ADD PUSH2 0x2572 JUMP JUMPDEST PUSH1 0xA0 DUP3 ADD MSTORE PUSH2 0x260C PUSH1 0xC0 DUP4 ADD PUSH2 0x2585 JUMP JUMPDEST PUSH1 0xC0 DUP3 ADD MSTORE PUSH2 0x261D PUSH1 0xE0 DUP4 ADD PUSH2 0x2593 JUMP JUMPDEST PUSH1 0xE0 DUP3 ADD MSTORE SWAP3 SWAP2 POP POP JUMP JUMPDEST PUSH0 PUSH2 0x100 DUP3 DUP5 SUB SLT ISZERO PUSH2 0x2639 JUMPI PUSH0 PUSH0 REVERT JUMPDEST PUSH2 0x2327 DUP4 DUP4 PUSH2 0x259E JUMP JUMPDEST PUSH0 DUP2 PUSH2 0x2651 JUMPI PUSH2 0x2651 PUSH2 0x24D8 JUMP JUMPDEST POP PUSH0 NOT ADD SWAP1 JUMP JUMPDEST PUSH1 0x3 DUP2 LT PUSH2 0x245C JUMPI PUSH2 0x245C PUSH2 0x2438 JUMP JUMPDEST PUSH1 0x1 PUSH1 0x1 PUSH1 0xA0 SHL SUB DUP4 AND DUP2 MSTORE PUSH1 0x40 DUP2 ADD PUSH2 0x2327 PUSH1 0x20 DUP4 ADD DUP5 PUSH2 0x2658 JUMP JUMPDEST PUSH1 0x1 PUSH1 0x1 PUSH1 0xA0 SHL SUB DUP5 AND DUP2 MSTORE PUSH1 0x60 DUP2 ADD PUSH2 0x24CA PUSH1 0x20 DUP4 ADD DUP6 PUSH2 0x2658 JUMP JUMPDEST PUSH1 0x1 PUSH1 0x1 PUSH1 0xA0 SHL SUB SWAP4 DUP5 AND DUP2 MSTORE SWAP2 SWAP1 SWAP3 AND PUSH1 0x20 DUP3 ADD MSTORE PUSH1 0x40 DUP2 ADD SWAP2 SWAP1 SWAP2 MSTORE PUSH1 0x60 ADD SWAP1 JUMP JUMPDEST PUSH0 DUP3 MLOAD DUP1 PUSH1 0x20 DUP6 ADD DUP5 MCOPY PUSH0 SWAP3 ADD SWAP2 DUP3 MSTORE POP SWAP2 SWAP1 POP JUMP JUMPDEST PUSH1 0x20 DUP2 MSTORE PUSH0 DUP3 MLOAD DUP1 PUSH1 0x20 DUP5 ADD MSTORE DUP1 PUSH1 0x20 DUP6 ADD PUSH1 0x40 DUP6 ADD MCOPY PUSH0 PUSH1 0x40 DUP3 DUP6 ADD ADD MSTORE PUSH1 0x40 PUSH1 0x1F NOT PUSH1 0x1F DUP4 ADD AND DUP5 ADD ADD SWAP2 POP POP SWAP3 SWAP2 POP POP JUMP JUMPDEST PUSH0 PUSH1 0x20 DUP3 DUP5 SUB SLT ISZERO PUSH2 0x2721 JUMPI PUSH0 PUSH0 REVERT JUMPDEST DUP2 MLOAD PUSH2 0x2327 DUP2 PUSH2 0x22C8 JUMP JUMPDEST PUSH0 PUSH1 0x20 DUP3 DUP5 SUB SLT ISZERO PUSH2 0x273C JUMPI PUSH0 PUSH0 REVERT JUMPDEST DUP2 MLOAD PUSH1 0x1 PUSH1 0x1 PUSH1 0x40 SHL SUB DUP2 GT ISZERO PUSH2 0x2751 JUMPI PUSH0 PUSH0 REVERT JUMPDEST DUP3 ADD PUSH1 0x1F DUP2 ADD DUP5 SGT PUSH2 0x2761 JUMPI PUSH0 PUSH0 REVERT JUMPDEST DUP1 MLOAD PUSH1 0x1 PUSH1 0x1 PUSH1 0x40 SHL SUB DUP2 GT ISZERO PUSH2 0x277A JUMPI PUSH2 0x277A PUSH2 0x2505 JUMP JUMPDEST PUSH2 0x2789 PUSH1 0x20 DUP3 PUSH1 0x5 SHL ADD PUSH2 0x2542 JUMP JUMPDEST DUP1 DUP3 DUP3 MSTORE PUSH1 0x20 DUP3 ADD SWAP2 POP PUSH1 0x20 DUP4 PUSH1 0x8 SHL DUP6 ADD ADD SWAP3 POP DUP7 DUP4 GT ISZERO PUSH2 0x27AA JUMPI PUSH0 PUSH0 REVERT JUMPDEST PUSH1 0x20 DUP5 ADD SWAP4 POP JUMPDEST DUP3 DUP5 LT ISZERO PUSH2 0x27D7 JUMPI PUSH2 0x27C3 DUP8 DUP6 PUSH2 0x259E JUMP JUMPDEST DUP3 MSTORE PUSH1 0x20 DUP3 ADD SWAP2 POP PUSH2 0x100 DUP5 ADD SWAP4 POP PUSH2 0x27B1 JUMP JUMPDEST SWAP7 SWAP6 POP POP POP POP POP POP JUMP JUMPDEST PUSH4 0x4E487B71 PUSH1 0xE0 SHL PUSH0 MSTORE PUSH1 0x32 PUSH1 0x4 MSTORE PUSH1 0x24 PUSH0 REVERT JUMPDEST DUP1 DUP3 MUL DUP2 ISZERO DUP3 DUP3 DIV DUP5 EQ OR PUSH2 0x24FF JUMPI PUSH2 0x24FF PUSH2 0x24D8 JUMP JUMPDEST PUSH0 DUP3 PUSH2 0x2826 JUMPI PUSH4 0x4E487B71 PUSH1 0xE0 SHL PUSH0 MSTORE PUSH1 0x12 PUSH1 0x4 MSTORE PUSH1 0x24 PUSH0 REVERT JUMPDEST POP DIV SWAP1 JUMP JUMPDEST PUSH1 0x1 PUSH1 0x1 PUSH1 0xA0 SHL SUB DUP6 AND DUP2 MSTORE PUSH1 0x80 DUP2 ADD PUSH2 0x2848 PUSH1 0x20 DUP4 ADD DUP7 PUSH2 0x2658 JUMP JUMPDEST DUP4 PUSH1 0x40 DUP4 ADD MSTORE DUP3 ISZERO ISZERO PUSH1 0x60 DUP4 ADD MSTORE SWAP6 SWAP5 POP POP POP POP POP JUMP INVALID LOG2 PUSH5 0x6970667358 0x22 SLT KECCAK256 0xC2 0xCC SWAP5 0x4C EOFCREATE 0x2E BLOBBASEFEE PUSH7 0x4BB7BD0C508E60 0xDF RETURN PUSH16 0x44BCBBFA9C8A562570317C1CF1E36473 PUSH16 0x6C634300081E00330000000000000000 "
		},
		"gasEstimates": {
			"creation": {
				"codeDepositCost": "2077800",
				"executionCost": "97065",
				"totalCost": "2174865"
			},
			"external": {
				"USDCContract()": "2536",
				"USDTContract()": "2448",
				"adminControl(address)": "infinite",
				"authorizedAddresses(address)": "2720",
				"centralContract()": "2427",
				"escrowHandler()": "2404",
				"multisig()": "2515",
				"nickeliumContract()": "2405",
				"owner()": "2426",
				"pause()": "infinite",
				"paused()": "2468",
				"setAuthorizedAddress(address,bool)": "infinite",
				"setContracts(address,address,address,address,address,address,address,address)": "infinite",
				"setOwner(address)": "26776",
				"unpause()": "infinite",
				"usdcContractAddress()": "2449",
				"usdcOrders()": "2492",
				"usdtOrders()": "2360",
				"userRemoveOrder(address,uint256)": "infinite"
			},
			"internal": {
				"removeOrderFromList(address,uint256,bool,enum SharedStructs.PaymentMethod)": "infinite"
			}
		},
		"methodIdentifiers": {
			"USDCContract()": "d2873510",
			"USDTContract()": "99762734",
			"adminControl(address)": "33bf3577",
			"authorizedAddresses(address)": "f19e207e",
			"centralContract()": "29878bc4",
			"escrowHandler()": "87ad8f87",
			"multisig()": "4783c35b",
			"nickeliumContract()": "1b8e2ed9",
			"owner()": "8da5cb5b",
			"pause()": "8456cb59",
			"paused()": "5c975abb",
			"setAuthorizedAddress(address,bool)": "1351cf51",
			"setContracts(address,address,address,address,address,address,address,address)": "9ad8d6f7",
			"setOwner(address)": "13af4035",
			"unpause()": "3f4ba83a",
			"usdcContractAddress()": "2e015584",
			"usdcOrders()": "9c5338a5",
			"usdtOrders()": "71dc7725",
			"userRemoveOrder(address,uint256)": "a24e5b46"
		}
	},
	"abi": [
		{
			"inputs": [],
			"stateMutability": "nonpayable",
			"type": "constructor"
		},
		{
			"inputs": [],
			"name": "ReentrancyGuardReentrantCall",
			"type": "error"
		},
		{
			"anonymous": false,
			"inputs": [
				{
					"indexed": false,
					"internalType": "address",
					"name": "account",
					"type": "address"
				}
			],
			"name": "Paused",
			"type": "event"
		},
		{
			"anonymous": false,
			"inputs": [
				{
					"indexed": false,
					"internalType": "address",
					"name": "account",
					"type": "address"
				}
			],
			"name": "Unpaused",
			"type": "event"
		},
		{
			"inputs": [],
			"name": "USDCContract",
			"outputs": [
				{
					"internalType": "contract IERC20",
					"name": "",
					"type": "address"
				}
			],
			"stateMutability": "view",
			"type": "function"
		},
		{
			"inputs": [],
			"name": "USDTContract",
			"outputs": [
				{
					"internalType": "contract ITether",
					"name": "",
					"type": "address"
				}
			],
			"stateMutability": "view",
			"type": "function"
		},
		{
			"inputs": [
				{
					"internalType": "address",
					"name": "_user",
					"type": "address"
				}
			],
			"name": "adminControl",
			"outputs": [],
			"stateMutability": "nonpayable",
			"type": "function"
		},
		{
			"inputs": [
				{
					"internalType": "address",
					"name": "",
					"type": "address"
				}
			],
			"name": "authorizedAddresses",
			"outputs": [
				{
					"internalType": "bool",
					"name": "",
					"type": "bool"
				}
			],
			"stateMutability": "view",
			"type": "function"
		},
		{
			"inputs": [],
			"name": "centralContract",
			"outputs": [
				{
					"internalType": "contract ICentral",
					"name": "",
					"type": "address"
				}
			],
			"stateMutability": "view",
			"type": "function"
		},
		{
			"inputs": [],
			"name": "escrowHandler",
			"outputs": [
				{
					"internalType": "contract IEscrowHandler",
					"name": "",
					"type": "address"
				}
			],
			"stateMutability": "view",
			"type": "function"
		},
		{
			"inputs": [],
			"name": "multisig",
			"outputs": [
				{
					"internalType": "address",
					"name": "",
					"type": "address"
				}
			],
			"stateMutability": "view",
			"type": "function"
		},
		{
			"inputs": [],
			"name": "nickeliumContract",
			"outputs": [
				{
					"internalType": "contract INickelium",
					"name": "",
					"type": "address"
				}
			],
			"stateMutability": "view",
			"type": "function"
		},
		{
			"inputs": [],
			"name": "owner",
			"outputs": [
				{
					"internalType": "address",
					"name": "",
					"type": "address"
				}
			],
			"stateMutability": "view",
			"type": "function"
		},
		{
			"inputs": [],
			"name": "pause",
			"outputs": [],
			"stateMutability": "nonpayable",
			"type": "function"
		},
		{
			"inputs": [],
			"name": "paused",
			"outputs": [
				{
					"internalType": "bool",
					"name": "",
					"type": "bool"
				}
			],
			"stateMutability": "view",
			"type": "function"
		},
		{
			"inputs": [
				{
					"internalType": "address",
					"name": "_address",
					"type": "address"
				},
				{
					"internalType": "bool",
					"name": "_status",
					"type": "bool"
				}
			],
			"name": "setAuthorizedAddress",
			"outputs": [],
			"stateMutability": "nonpayable",
			"type": "function"
		},
		{
			"inputs": [
				{
					"internalType": "address",
					"name": "_escrowHandler",
					"type": "address"
				},
				{
					"internalType": "address",
					"name": "_USDTAddress",
					"type": "address"
				},
				{
					"internalType": "address",
					"name": "_usdcAddress",
					"type": "address"
				},
				{
					"internalType": "address",
					"name": "_usdcOrdersAddress",
					"type": "address"
				},
				{
					"internalType": "address",
					"name": "_usdtOrdersAddress",
					"type": "address"
				},
				{
					"internalType": "address",
					"name": "_centralAddress",
					"type": "address"
				},
				{
					"internalType": "address",
					"name": "_multisig",
					"type": "address"
				},
				{
					"internalType": "address",
					"name": "_nickeliumAddress",
					"type": "address"
				}
			],
			"name": "setContracts",
			"outputs": [],
			"stateMutability": "nonpayable",
			"type": "function"
		},
		{
			"inputs": [
				{
					"internalType": "address",
					"name": "newOwner",
					"type": "address"
				}
			],
			"name": "setOwner",
			"outputs": [],
			"stateMutability": "nonpayable",
			"type": "function"
		},
		{
			"inputs": [],
			"name": "unpause",
			"outputs": [],
			"stateMutability": "nonpayable",
			"type": "function"
		},
		{
			"inputs": [],
			"name": "usdcContractAddress",
			"outputs": [
				{
					"internalType": "address",
					"name": "",
					"type": "address"
				}
			],
			"stateMutability": "view",
			"type": "function"
		},
		{
			"inputs": [],
			"name": "usdcOrders",
			"outputs": [
				{
					"internalType": "contract IUSDCorders",
					"name": "",
					"type": "address"
				}
			],
			"stateMutability": "view",
			"type": "function"
		},
		{
			"inputs": [],
			"name": "usdtOrders",
			"outputs": [
				{
					"internalType": "contract IUSDTorders",
					"name": "",
					"type": "address"
				}
			],
			"stateMutability": "view",
			"type": "function"
		},
		{
			"inputs": [
				{
					"internalType": "address",
					"name": "sender",
					"type": "address"
				},
				{
					"internalType": "uint256",
					"name": "orderID",
					"type": "uint256"
				}
			],
			"name": "userRemoveOrder",
			"outputs": [],
			"stateMutability": "nonpayable",
			"type": "function"
		}
	]
}