{
	"data": {
		"bytecode": {
			"linkReferences": {},
			"object": "60806040525f6011553480156012575f5ffd5b505f805460ff19908116825560018080553383526016602052604083208054909216179055615f7d90819061004690395ff3fe60806040526004361061030c575f3560e01c806387ad8f8711610196578063bed69536116100ec578063e113b6ec1161008f578063e113b6ec14610b08578063e2117ebc14610b28578063e2b52fc414610b47578063e9ce848d14610b66578063ebf968a314610b85578063f05d575214610ba5578063f19e207e14610bc4578063fba6cf7b14610bf25761030c565b8063bed69536146109c7578063c3aaea4e146109e6578063c502655514610a1b578063c616e5ea14610a3a578063cd41f0c614610a59578063d287351014610a78578063db5544a614610a97578063dde12d1d14610ab65761030c565b806387ad8f87146107535780638ac7d79c146107725780638c11ed50146107915780638de91b24146107b057806390309ecd14610824578063927e97421461084357806392f8eb94146108b757806393c3a2be146108d657806394f61134146108f557806396366d65146109085780639976273414610936578063a404c1c514610955578063a8143f8514610974578063b48d523814610989578063bcc94d41146109a85761030c565b80632a03e28d11610266578063633a334311610209578063633a33431461066d57806363a599a4146106905780636c40ce73146106a45780636fb485d5146106c357806373688914146106e25780637b7f1c82146107015780637e3e333d146107205780638704b10d146107345761030c565b80632a03e28d1461056f5780632c48e7db1461058e57806348405b49146105ad57806349d601a5146105cc5780634dacea2b146105ee578063527097251461060d57806357b009481461062c5780635c975abb1461064b5761030c565b806302f35a0614610343578063038f3d4f14610378578063046f7da2146103d35780630c101596146103e95780630cf7157914610415578063108e9b2d1461043457806312521b54146104535780631351cf5114610474578063153f0c6f146104935780631b8e2ed9146104b25780631d2e4a2f146104d157806321f65657146104f0578063262b78211461050f57806329878bc41461052e578063299b68781461054d575b60405134815233907f1e57e3bb474320be3d2c77138f75b7c3941292d647f5f9634e33a8e94e0e069b9060200160405180910390a2005b34801561034e575f5ffd5b5061036261035d366004615241565b610c11565b60405161036f919061537c565b60405180910390f35b348015610383575f5ffd5b506103b6610392366004615241565b60196020525f90815260409020805460019091015460ff8082169161010090041683565b60408051938452911515602084015215159082015260600161036f565b3480156103de575f5ffd5b506103e7610d9b565b005b3480156103f4575f5ffd5b50600654610408906001600160a01b031681565b60405161036f9190615395565b348015610420575f5ffd5b50600c54610408906001600160a01b031681565b34801561043f575f5ffd5b506103e761044e366004615241565b610dfe565b34801561045e575f5ffd5b50610467610e75565b60405161036f91906153a9565b34801561047f575f5ffd5b506103e761048e36600461543d565b6112b6565b34801561049e575f5ffd5b506103e76104ad366004615241565b611323565b3480156104bd575f5ffd5b50600754610408906001600160a01b031681565b3480156104dc575f5ffd5b50600d54610408906001600160a01b031681565b3480156104fb575f5ffd5b506103e761050a366004615474565b6114ea565b34801561051a575f5ffd5b506103e7610529366004615494565b611774565b348015610539575f5ffd5b50600a54610408906001600160a01b031681565b348015610558575f5ffd5b506105616118cc565b60405161036f9291906154be565b34801561057a575f5ffd5b506103e7610589366004615572565b611ac0565b348015610599575f5ffd5b506103e76105a8366004615241565b612082565b3480156105b8575f5ffd5b506103e76105c7366004615643565b6121d1565b3480156105d7575f5ffd5b506105e0612248565b60405161036f9291906156f5565b3480156105f9575f5ffd5b506103e7610608366004615798565b612564565b348015610618575f5ffd5b50600354610408906001600160a01b031681565b348015610637575f5ffd5b506103e7610646366004615494565b6127ec565b348015610656575f5ffd5b505f5460ff165b604051901515815260200161036f565b348015610678575f5ffd5b5061068260185481565b60405190815260200161036f565b34801561069b575f5ffd5b506103e7612871565b3480156106af575f5ffd5b506103e76106be366004615241565b6128c8565b3480156106ce575f5ffd5b506103e76106dd3660046157ce565b612970565b3480156106ed575f5ffd5b50600254610408906001600160a01b031681565b34801561070c575f5ffd5b50600954610408906001600160a01b031681565b34801561072b575f5ffd5b50610362612a74565b34801561073f575f5ffd5b506103e761074e366004615494565b612b05565b34801561075e575f5ffd5b50600854610408906001600160a01b031681565b34801561077d575f5ffd5b506103e761078c366004615241565b612b8c565b34801561079c575f5ffd5b506103e76107ab366004615798565b612c43565b3480156107bb575f5ffd5b506108126107ca366004615241565b60146020525f9081526040902080546001820154600283015460039093015460ff808416946101009094048116936001600160a01b03811692600160a01b9091049091169086565b60405161036f969594939291906158ad565b34801561082f575f5ffd5b506103e761083e366004615241565b612d66565b34801561084e575f5ffd5b506108a561085d366004615241565b60136020525f9081526040902080546001820154600283015460039093015460ff808416946101009094048116936001600160a01b03811692600160a01b9091049091169086565b60405161036f969594939291906158f2565b3480156108c2575f5ffd5b506106826108d1366004615241565b612ea8565b3480156108e1575f5ffd5b506103e76108f0366004615241565b612ec7565b6103e7610903366004615241565b612f8a565b348015610913575f5ffd5b5061065d610922366004615926565b60176020525f908152604090205460ff1681565b348015610941575f5ffd5b50600454610408906001600160a01b031681565b348015610960575f5ffd5b506103e761096f366004615494565b6130bc565b34801561097f575f5ffd5b5061068260115481565b348015610994575f5ffd5b506103626109a3366004615241565b6131c3565b3480156109b3575f5ffd5b506103e76109c236600461543d565b6133b5565b3480156109d2575f5ffd5b506103e76109e1366004615241565b61341e565b3480156109f1575f5ffd5b50610a05610a00366004615241565b61356c565b60405161036f9a99989796959493929190615941565b348015610a26575f5ffd5b50600f54610408906001600160a01b031681565b348015610a45575f5ffd5b506103e7610a54366004615474565b613660565b348015610a64575f5ffd5b50600b54610408906001600160a01b031681565b348015610a83575f5ffd5b50600554610408906001600160a01b031681565b348015610aa2575f5ffd5b50600e54610408906001600160a01b031681565b348015610ac1575f5ffd5b50610ad5610ad0366004615241565b613783565b6040805195151586529315156020860152928401919091526001600160a01b03166060830152608082015260a00161036f565b348015610b13575f5ffd5b5060035461065d90600160a81b900460ff1681565b348015610b33575f5ffd5b506103e7610b42366004615474565b613961565b348015610b52575f5ffd5b506103e7610b61366004615798565b613a83565b348015610b71575f5ffd5b50601054610408906001600160a01b031681565b348015610b90575f5ffd5b5060035461065d90600160a01b900460ff1681565b348015610bb0575f5ffd5b506103e7610bbf366004615241565b613ba6565b348015610bcf575f5ffd5b5061065d610bde366004615926565b60166020525f908152604090205460ff1681565b348015610bfd575f5ffd5b506103e7610c0c366004615241565b6142a5565b610c19615131565b5f828152601260209081526040918290208251610140810184528154815260018201546001600160a01b031692810192909252600281015492820192909252600382015460608201526004820154909190608083019060ff168015610c8057610c80615258565b8015610c8e57610c8e615258565b81526020016004820160019054906101000a900460ff166002811115610cb657610cb6615258565b6002811115610cc757610cc7615258565b8152600482015460ff62010000820481161515602084015263010000009091041615156040820152600582018054606090920191610d04906159bd565b80601f0160208091040260200160405190810160405280929190818152602001828054610d30906159bd565b8015610d7b5780601f10610d5257610100808354040283529160200191610d7b565b820191905f5260205f20905b815481529060010190602001808311610d5e57829003601f168201915b50505091835250506006919091015460ff16151560209091015292915050565b6002546001600160a01b0316331480610dbe57506003546001600160a01b031633145b610de35760405162461bcd60e51b8152600401610dda906159f5565b60405180910390fd5b610deb614342565b610df361436c565b610dfc60018055565b565b6002546001600160a01b0316331480610e2157506003546001600160a01b031633145b610e3d5760405162461bcd60e51b8152600401610dda906159f5565b610e45614342565b610e4d6143b7565b5f818152601960205260408120908155600101805461ffff19169055610e7260018055565b50565b60605f805b600b81108015610e8b575060155481105b15611059575f60158281548110610ea457610ea4615a1b565b5f9182526020808320909101548083526012825260408084208151610140810183528154815260018201546001600160a01b03169481019490945260028101549184019190915260038101546060840152600481015491945090608083019060ff168015610f1457610f14615258565b8015610f2257610f22615258565b81526020016004820160019054906101000a900460ff166002811115610f4a57610f4a615258565b6002811115610f5b57610f5b615258565b8152600482015460ff62010000820481161515602084015263010000009091041615156040820152600582018054606090920191610f98906159bd565b80601f0160208091040260200160405190810160405280929190818152602001828054610fc4906159bd565b801561100f5780601f10610fe65761010080835404028352916020019161100f565b820191905f5260205f20905b815481529060010190602001808311610ff257829003601f168201915b50505091835250506006919091015460ff161515602090910152604081015190915015611044578361104081615a43565b9450505b5050808061105190615a43565b915050610e7a565b50806001600160401b038111156110725761107261555e565b6040519080825280602002602001820160405280156110ab57816020015b611098615131565b8152602001906001900390816110905790505b5091505f9050805b600b811080156110c4575060155481105b156112b1575f601582815481106110dd576110dd615a1b565b5f9182526020808320909101548083526012825260408084208151610140810183528154815260018201546001600160a01b03169481019490945260028101549184019190915260038101546060840152600481015491945090608083019060ff16801561114d5761114d615258565b801561115b5761115b615258565b81526020016004820160019054906101000a900460ff16600281111561118357611183615258565b600281111561119457611194615258565b8152600482015460ff620100008204811615156020840152630100000090910416151560408201526005820180546060909201916111d1906159bd565b80601f01602080910402602001604051908101604052809291908181526020018280546111fd906159bd565b80156112485780601f1061121f57610100808354040283529160200191611248565b820191905f5260205f20905b81548152906001019060200180831161122b57829003601f168201915b50505091835250506006919091015460ff16151560209091015260408101519091501561129c578085858151811061128257611282615a1b565b6020026020010181905250838061129890615a43565b9450505b505080806112a990615a43565b9150506110b3565b505090565b335f9081526016602052604090205460ff166112e45760405162461bcd60e51b8152600401610dda90615a5b565b6112ec614342565b6112f46143b7565b6001600160a01b0382165f908152601660205260409020805460ff1916821515179055600180555050565b5050565b6002546001600160a01b031633148061134657506003546001600160a01b031633145b6113625760405162461bcd60e51b8152600401610dda906159f5565b61136a6143b7565b5f80805b6015548110156113ae57836015828154811061138c5761138c615a1b565b905f5260205f200154036113a657809250600191506113ae565b60010161136e565b50806113fa5760405162461bcd60e51b815260206004820152601b60248201527a13dc99195c881b9bdd08199bdd5b99081a5b881d1a19481b1a5cdd602a1b6044820152606401610dda565b5f838152601360209081526040808320805461ffff1990811682556001808301869055600280840180546001600160a81b03199081169091556003948501889055601490965293862080549092168255810185905591820180549093169092550155815b60155461146d90600190615a83565b8110156114c0576015611481826001615a9c565b8154811061149157611491615a1b565b905f5260205f200154601582815481106114ad576114ad615a1b565b5f9182526020909120015560010161145e565b5060158054806114d2576114d2615aaf565b600190038181905f5260205f20015f90559055505050565b6002546001600160a01b031633148061150d57506003546001600160a01b031633145b6115295760405162461bcd60e51b8152600401610dda906159f5565b611531614342565b6115396143b7565b80826115458282615ac3565b61154f9190615ada565b1461156c5760405162461bcd60e51b8152600401610dda90615af9565b600a5460408051630f1ba05360e31b815290515f926001600160a01b0316916378dd0298916004808301926020929190829003018187875af11580156115b4573d5f5f3e3d5ffd5b505050506040513d601f19601f820116820180604052508101906115d89190615b25565b604080516101408101825282815230602082015290810185905260608101849052909150608081015f815260200160025b81525f602080830182905260408084018390528051808201825260038082526242757960e81b82850152606080870192909252608095860185905287855260128452938290208651815592860151600180850180546001600160a01b0319166001600160a01b039093169290921790915591860151600284015585015192820192909255918301516004830180549192909160ff1916908380156116af576116af615258565b021790555060a082015160048201805461ff0019166101008360028111156116d9576116d9615258565b021790555060c082015160048201805460e0850151151563010000000263ff0000001993151562010000029390931663ffff00001990911617919091179055610100820151600582019061172d9082615b87565b5061012091909101516006909101805491151560ff19909216919091179055601580546001810182555f919091525f516020615f285f395f51905f52015561131f60018055565b6002546001600160a01b031633148061179757506003546001600160a01b031633145b6117b35760405162461bcd60e51b8152600401610dda906159f5565b6117bb614342565b6117c36143b7565b6015546040805160c0810182525f80825260208201529081018390526001600160a01b03841660608201526080810160025b815260209081018390525f83815260138252604090819020835181549385015115156101000261ff00199115159190911661ffff199094169390931792909217825582015160018201556060820151600280830180546001600160a01b039093166001600160a01b031984168117825560808601519391926001600160a81b03199092161790600160a01b90849081111561189257611892615258565b021790555060a09190910151600390910155601580546001810182555f919091525f516020615f285f395f51905f52015561131f60018055565b6060805f805b60185481101561192d575f8181526019602052604090206001015460ff16158061191257505f81815260196020526040902060010154610100900460ff16155b15611925578161192181615a43565b9250505b6001016118d2565b505f816001600160401b038111156119475761194761555e565b604051908082528060200260200182016040528015611970578160200160208202803683370190505b5090505f826001600160401b0381111561198c5761198c61555e565b6040519080825280602002602001820160405280156119d557816020015b604080516060810182525f80825260208083018290529282015282525f199092019101816119aa5790505b5090505f805b601854811015611ab4575f8181526019602052604090206001015460ff161580611a1b57505f81815260196020526040902060010154610100900460ff16155b15611aac5780848381518110611a3357611a33615a1b565b6020908102919091018101919091525f8281526019825260409081902081516060810183528154815260019091015460ff80821615159483019490945261010090049092161515908201528351849084908110611a9257611a92615a1b565b60200260200101819052508180611aa890615a43565b9250505b6001016119db565b50919590945092505050565b335f9081526017602052604090205460ff16611b0c5760405162461bcd60e51b815260206004820152600b60248201526a2737ba1030903830bcb2b960a91b6044820152606401610dda565b5f8111611b5b5760405162461bcd60e51b815260206004820152601d60248201527f416d6f756e74206d7573742062652067726561746572207468616e20300000006044820152606401610dda565b80471015611b7b5760405162461bcd60e51b8152600401610dda90615c41565b8260ff16600103611c7357600c546040515f916001600160a01b0316908390611ba8908690602401615c78565b60408051601f198184030181529181526020820180516001600160e01b03166306f7a7cb60e11b17905251611bdd9190615c8a565b5f6040518083038185875af1925050503d805f8114611c17576040519150601f19603f3d011682016040523d82523d5f602084013e611c1c565b606091505b5050905080611c6d5760405162461bcd60e51b815260206004820152601f60248201527f455448207472616e7366657220746f206d696e65314e4654206661696c6564006044820152606401610dda565b50505050565b8260ff16600203611d6557600d546040515f916001600160a01b0316908390611ca0908690602401615c78565b60408051601f198184030181529181526020820180516001600160e01b03166306f7a7cb60e11b17905251611cd59190615c8a565b5f6040518083038185875af1925050503d805f8114611d0f576040519150601f19603f3d011682016040523d82523d5f602084013e611d14565b606091505b5050905080611c6d5760405162461bcd60e51b815260206004820152601f60248201527f455448207472616e7366657220746f206d696e65324e4654206661696c6564006044820152606401610dda565b8260ff16600303611e5757600e546040515f916001600160a01b0316908390611d92908690602401615c78565b60408051601f198184030181529181526020820180516001600160e01b03166306f7a7cb60e11b17905251611dc79190615c8a565b5f6040518083038185875af1925050503d805f8114611e01576040519150601f19603f3d011682016040523d82523d5f602084013e611e06565b606091505b5050905080611c6d5760405162461bcd60e51b815260206004820152601f60248201527f455448207472616e7366657220746f206d696e65334e4654206661696c6564006044820152606401610dda565b8260ff16600403611f4957600f546040515f916001600160a01b0316908390611e84908690602401615c78565b60408051601f198184030181529181526020820180516001600160e01b03166306f7a7cb60e11b17905251611eb99190615c8a565b5f6040518083038185875af1925050503d805f8114611ef3576040519150601f19603f3d011682016040523d82523d5f602084013e611ef8565b606091505b5050905080611c6d5760405162461bcd60e51b815260206004820152601f60248201527f455448207472616e7366657220746f206d696e65344e4654206661696c6564006044820152606401610dda565b8260ff1660050361203b576010546040515f916001600160a01b0316908390611f76908690602401615c78565b60408051601f198184030181529181526020820180516001600160e01b03166306f7a7cb60e11b17905251611fab9190615c8a565b5f6040518083038185875af1925050503d805f8114611fe5576040519150601f19603f3d011682016040523d82523d5f602084013e611fea565b606091505b5050905080611c6d5760405162461bcd60e51b815260206004820152601f60248201527f455448207472616e7366657220746f206d696e65354e4654206661696c6564006044820152606401610dda565b60405162461bcd60e51b8152602060048201526017602482015276496e76616c696420636f6e74726163742063686f69636560481b6044820152606401610dda565b505050565b6002546001600160a01b03163314806120a557506003546001600160a01b031633145b6120c15760405162461bcd60e51b8152600401610dda906159f5565b6120c9614342565b6120d16143b7565b60155481106120f25760405162461bcd60e51b8152600401610dda90615ca0565b5f8181526013602052604090206003015481900361215f575f8181526013602052604090206002546001600160a01b0316330361213957805460ff19166001178155612159565b6003546001600160a01b0316330361215957805461ff0019166101001781555b506121c8565b5f818152601460205260409020600301548190036121c8575f8181526014602052604090206002546001600160a01b031633036121a657805460ff191660011781556121c6565b6003546001600160a01b031633036121c657805461ff0019166101001781555b505b610e7260018055565b335f9081526016602052604090205460ff166121ff5760405162461bcd60e51b8152600401610dda90615a5b565b612207614342565b61220f6143b7565b600280546001600160a01b038085166001600160a01b031992831617909255600380549284169290911691909117905561131f60018055565b6015805460609182915f906001600160401b0381111561226a5761226a61555e565b6040519080825280602002602001820160405280156122a357816020015b612290615195565b8152602001906001900390816122885790505b5082549091505f906001600160401b038111156122c2576122c261555e565b6040519080825280602002602001820160405280156122fb57816020015b6122e86151ca565b8152602001906001900390816122e05790505b5090505f5b83548110156125595783818154811061231b5761231b615a1b565b905f5260205f20015460135f86848154811061233957612339615a1b565b905f5260205f20015481526020019081526020015f2060030154036124325760135f85838154811061236d5761236d615a1b565b5f91825260208083209091015483528281019390935260409182019020815160c081018352815460ff8082161515835261010090910481161515948201949094526001820154928101929092526002808201546001600160a01b0381166060850152929391926080850192600160a01b90910416908111156123f1576123f1615258565b600281111561240257612402615258565b815260200160038201548152505083828151811061242257612422615a1b565b6020026020010181905250612551565b83818154811061244457612444615a1b565b905f5260205f20015460145f86848154811061246257612462615a1b565b905f5260205f20015481526020019081526020015f2060030154036125515760145f85838154811061249657612496615a1b565b5f91825260208083209091015483528281019390935260409182019020815160c081018352815460ff80821615158352610100909104811615159482019490945260018201549281019290925260028101546001600160a01b0381166060840152919290916080840191600160a01b90910416801561251757612517615258565b801561252557612525615258565b815260200160038201548152505082828151811061254557612545615a1b565b60200260200101819052505b600101612300565b509094909350915050565b6002546001600160a01b031633148061258757506003546001600160a01b031633145b6125a35760405162461bcd60e51b8152600401610dda906159f5565b6125ab614342565b6125b36143b7565b81836125bf8282615ac3565b6125c99190615ada565b146125e65760405162461bcd60e51b8152600401610dda90615af9565b600a5460408051630f1ba05360e31b815290515f926001600160a01b0316916378dd0298916004808301926020929190829003018187875af115801561262e573d5f5f3e3d5ffd5b505050506040513d601f19601f820116820180604052508101906126529190615b25565b604080516101408101825282815230602082015290810186905260608101859052909150608081015f81526020015f5b81525f602080830182905260408084018390528051808201825260048082526314d95b1b60e21b8285015260608087019290925288151560809687015287855260128452938290208651815592860151600180850180546001600160a01b0319166001600160a01b039093169290921790915591860151600284015585015160038301559284015191810180549193909160ff19169083801561272757612727615258565b021790555060a082015160048201805461ff00191661010083600281111561275157612751615258565b021790555060c082015160048201805460e0850151151563010000000263ff0000001993151562010000029390931663ffff0000199091161791909117905561010082015160058201906127a59082615b87565b5061012091909101516006909101805491151560ff19909216919091179055601580546001810182555f919091525f516020615f285f395f51905f52015561207d60018055565b6002546001600160a01b031633148061280f57506003546001600160a01b031633145b61282b5760405162461bcd60e51b8152600401610dda906159f5565b612833614342565b61283b6143b7565b6015546040805160c0810182525f80825260208201529081018390526001600160a01b03841660608201526080810160016117f5565b6002546001600160a01b031633148061289457506003546001600160a01b031633145b6128b05760405162461bcd60e51b8152600401610dda906159f5565b6128b8614342565b6128c06143b7565b610df36143fc565b6002546001600160a01b03163314806128eb57506003546001600160a01b031633145b6129075760405162461bcd60e51b8152600401610dda906159f5565b61290f614342565b6129176143b7565b5f8181526012602052604090206002546001600160a01b031633036129495760048101805462ff0000191690556121c6565b6003546001600160a01b031633036121c657600401805463ff000000191690556001805550565b335f9081526016602052604090205460ff1661299e5760405162461bcd60e51b8152600401610dda90615a5b565b6129a6614342565b6129ae6143b7565b600780546001600160a01b03199081166001600160a01b038a81169182179093556006805483169091179055600a80548216898416179055600480548216888416179055600580548216878416179055600880548216868416179055600980548216858416179055600b80548216848416179055600c805482168f8416179055600d805482168e8416179055600e805482168d8416179055600f805482168c841617905560108054909116918a1691909117905560018055505050505050505050505050565b612a7c615131565b5f601560115481548110612a9257612a92615a1b565b5f918252602080832090910154808352601282526040928390208351610140810185528154815260018201546001600160a01b031693810193909352600281015493830193909352600383015460608301526004830154909350909190608083019060ff168015610c8057610c80615258565b6002546001600160a01b0316331480612b2857506003546001600160a01b031633145b612b445760405162461bcd60e51b8152600401610dda906159f5565b612b4c614342565b612b546143b7565b6015546040805160c0810182525f808252602082018190529181018490526001600160a01b03851660608201529060808201906117f5565b6002546001600160a01b0316331480612baf57506003546001600160a01b031633145b612bcb5760405162461bcd60e51b8152600401610dda906159f5565b612bd3614342565b612bdb6143b7565b5f8181526012602052604090206002546001600160a01b03163303612c125760048101805462ff00001916620100001790556121c6565b6003546001600160a01b031633036121c65760048101805463ff0000001916630100000017905550610e7260018055565b6002546001600160a01b0316331480612c6657506003546001600160a01b031633145b612c825760405162461bcd60e51b8152600401610dda906159f5565b612c8a614342565b612c926143b7565b8183612c9e8282615ac3565b612ca89190615ada565b14612cc55760405162461bcd60e51b8152600401610dda90615af9565b600a5460408051630f1ba05360e31b815290515f926001600160a01b0316916378dd0298916004808301926020929190829003018187875af1158015612d0d573d5f5f3e3d5ffd5b505050506040513d601f19601f82011682018060405250810190612d319190615b25565b604080516101408101825282815230602082015290810186905260608101859052909150608081015f81526020016001612682565b6002546001600160a01b0316331480612d8957506003546001600160a01b031633145b612da55760405162461bcd60e51b8152600401610dda906159f5565b612dad614342565b612db56143b7565b5f8181526019602052604081208054909103612de35760405162461bcd60e51b8152600401610dda90615cca565b6002546001600160a01b03163303612e2f57600181015460ff1615612e1a5760405162461bcd60e51b8152600401610dda90615cf9565b6001818101805460ff19169091179055612e7d565b6003546001600160a01b03163303612e7d576001810154610100900460ff1615612e6b5760405162461bcd60e51b8152600401610dda90615cf9565b60018101805461ff0019166101001790555b600181015460ff168015612e9a57506001810154610100900460ff165b156121c6576121c682614438565b60158181548110612eb7575f80fd5b5f91825260209091200154905081565b6002546001600160a01b0316331480612eea57506003546001600160a01b031633145b612f065760405162461bcd60e51b8152600401610dda906159f5565b612f0e614342565b612f166143b7565b601880545f9182612f2683615a43565b90915550604080516060810182528481525f602080830182815283850183815295835260199091529290209051815590516001919091018054925115156101000261ff00199215159290921661ffff199093169290921717905550610e7260018055565b6002546001600160a01b0316331480612fad57506003546001600160a01b031633145b612fc95760405162461bcd60e51b8152600401610dda906159f5565b612fd1614342565b612fd96143b7565b5f818152601260205260409020600481015462010000900460ff16801561300b575060048101546301000000900460ff165b6130275760405162461bcd60e51b8152600401610dda90615d3f565b7f85bc0fdda630693f7eb9d27232dd4b373ff0c495943884038449200ada7d93e6816005016040516130599190615d72565b6040518091039020036130745761306f82614518565b6121c6565b7f2960d925d7f3fc57a6fc5d05aac27fd1ae17fcf2a31a901375f427c5224e3219816005016040516130a69190615d72565b6040518091039020036121c6576121c682614c0b565b6002546001600160a01b03163314806130df57506003546001600160a01b031633145b6130fb5760405162461bcd60e51b8152600401610dda906159f5565b613103614342565b61310b6143b7565b6015546040805160c0810182525f80825260208083018281528385018781526001600160a01b03898116606087019081526080870186815260a088018a905289875260149095529690942085518154935161ffff1990941690151561ff001916176101009315159390930292909217825551600182015593516002850180546001600160a01b031981169290941691821781559151939493926001600160a81b03191617600160a01b83801561189257611892615258565b6131cb615131565b60155482106132125760405162461bcd60e51b8152602060048201526013602482015272496e646578206f7574206f6620626f756e647360681b6044820152606401610dda565b5f6015838154811061322657613226615a1b565b5f918252602080832090910154808352601282526040928390208351610140810185528154815260018201546001600160a01b031693810193909352600281015493830193909352600383015460608301526004830154909350909190608083019060ff16801561329957613299615258565b80156132a7576132a7615258565b81526020016004820160019054906101000a900460ff1660028111156132cf576132cf615258565b60028111156132e0576132e0615258565b8152600482015460ff6201000082048116151560208401526301000000909104161515604082015260058201805460609092019161331d906159bd565b80601f0160208091040260200160405190810160405280929190818152602001828054613349906159bd565b80156133945780601f1061336b57610100808354040283529160200191613394565b820191905f5260205f20905b81548152906001019060200180831161337757829003601f168201915b50505091835250506006919091015460ff1615156020909101529392505050565b335f9081526016602052604090205460ff166133e35760405162461bcd60e51b8152600401610dda90615a5b565b6133eb614342565b6133f36143b7565b6001600160a01b0382165f908152601760205260409020805460ff1916821515179055600180555050565b6002546001600160a01b031633148061344157506003546001600160a01b031633145b61345d5760405162461bcd60e51b8152600401610dda906159f5565b613465614342565b61346d6143b7565b5f8181526012602052604081208181556001810180546001600160a01b0319169055600281018290556003810182905560048101805463ffffffff19169055906134ba60058301826151f7565b50600601805460ff191690555f5b6015548110156121c65781601582815481106134e6576134e6615a1b565b905f5260205f20015403613564576015805461350490600190615a83565b8154811061351457613514615a1b565b905f5260205f2001546015828154811061353057613530615a1b565b5f91825260209091200155601580548061354c5761354c615aaf565b600190038181905f5260205f20015f905590556121c6565b6001016134c8565b60126020525f908152604090208054600182015460028301546003840154600485015460058601805495966001600160a01b03909516959394929360ff8084169461010085048216946201000081048316946301000000909104909216929091906135d6906159bd565b80601f0160208091040260200160405190810160405280929190818152602001828054613602906159bd565b801561364d5780601f106136245761010080835404028352916020019161364d565b820191905f5260205f20905b81548152906001019060200180831161363057829003601f168201915b5050506006909301549192505060ff168a565b6002546001600160a01b031633148061368357506003546001600160a01b031633145b61369f5760405162461bcd60e51b8152600401610dda906159f5565b6136a7614342565b6136af6143b7565b80826136bb8282615ac3565b6136c59190615ada565b146136e25760405162461bcd60e51b8152600401610dda90615af9565b600a5460408051630f1ba05360e31b815290515f926001600160a01b0316916378dd0298916004808301926020929190829003018187875af115801561372a573d5f5f3e3d5ffd5b505050506040513d601f19601f8201168201806040525081019061374e9190615b25565b604080516101408101825282815230602082015290810185905260608101849052909150608081015f81526020016001611609565b5f5f5f5f5f60158054905086106137ac5760405162461bcd60e51b8152600401610dda90615ca0565b5f86815260136020526040902060030154869003613884575f868152601360209081526040808320815160c081018352815460ff8082161515835261010090910481161515948201949094526001820154928101929092526002808201546001600160a01b0381166060850152929391926080850192600160a01b909104169081111561383b5761383b615258565b600281111561384c5761384c615258565b81526020016003820154815250509050805f01518160200151826040015183606001518460a001519550955095509550955050613958565b5f8681526014602052604090206003015486900361391e575f868152601460209081526040808320815160c081018352815460ff80821615158352610100909104811615159482019490945260018201549281019290925260028101546001600160a01b0381166060840152919290916080840191600160a01b90910416801561391057613910615258565b801561384c5761384c615258565b60405162461bcd60e51b815260206004820152600f60248201526e13dc99195c881b9bdd08199bdd5b99608a1b6044820152606401610dda565b91939590929450565b6002546001600160a01b031633148061398457506003546001600160a01b031633145b6139a05760405162461bcd60e51b8152600401610dda906159f5565b6139a8614342565b6139b06143b7565b80826139bc8282615ac3565b6139c69190615ada565b146139e35760405162461bcd60e51b8152600401610dda90615af9565b600a5460408051630f1ba05360e31b815290515f926001600160a01b0316916378dd0298916004808301926020929190829003018187875af1158015613a2b573d5f5f3e3d5ffd5b505050506040513d601f19601f82011682018060405250810190613a4f9190615b25565b604080516101408101825282815230602082015290810185905260608101849052909150608081015f81526020015f611609565b6002546001600160a01b0316331480613aa657506003546001600160a01b031633145b613ac25760405162461bcd60e51b8152600401610dda906159f5565b613aca614342565b613ad26143b7565b8183613ade8282615ac3565b613ae89190615ada565b14613b055760405162461bcd60e51b8152600401610dda90615af9565b600a5460408051630f1ba05360e31b815290515f926001600160a01b0316916378dd0298916004808301926020929190829003018187875af1158015613b4d573d5f5f3e3d5ffd5b505050506040513d601f19601f82011682018060405250810190613b719190615b25565b604080516101408101825282815230602082015290810186905260608101859052909150608081015f81526020016002612682565b6002546001600160a01b0316331480613bc957506003546001600160a01b031633145b613be55760405162461bcd60e51b8152600401610dda906159f5565b613bed614342565b613bf56143b7565b5f818152601360205260409020600201546001600160a01b031615614039575f818152601360205260409020805460ff168015613c3857508054610100900460ff165b613c545760405162461bcd60e51b8152600401610dda90615de3565b5f600282810154600160a01b900460ff1690811115613c7557613c75615258565b03613d0e578060010154471015613ccb5760405162461bcd60e51b815260206004820152601a602482015279496e73756666696369656e742045746865722062616c616e636560301b6044820152606401610dda565b600281015460018201546040516001600160a01b039092169181156108fc0291905f818181858888f19350505050158015613d08573d5f5f3e3d5ffd5b50614000565b6001600282810154600160a01b900460ff1690811115613d3057613d30615258565b03613e5e576001810154600480546040516370a0823160e01b81526001600160a01b03909116916370a0823191613d6991309101615395565b602060405180830381865afa158015613d84573d5f5f3e3d5ffd5b505050506040513d601f19601f82011682018060405250810190613da89190615b25565b1015613df25760405162461bcd60e51b8152602060048201526019602482015278496e73756666696369656e7420555344542062616c616e636560381b6044820152606401610dda565b600480546002830154600184015460405163a9059cbb60e01b81526001600160a01b039384169463a9059cbb94613e2c9416929101615e18565b5f604051808303815f87803b158015613e43575f5ffd5b505af1158015613e55573d5f5f3e3d5ffd5b50505050614000565b60028082810154600160a01b900460ff1690811115613e7f57613e7f615258565b036140005760018101546005546040516370a0823160e01b81526001600160a01b03909116906370a0823190613eb9903090600401615395565b602060405180830381865afa158015613ed4573d5f5f3e3d5ffd5b505050506040513d601f19601f82011682018060405250810190613ef89190615b25565b1015613f425760405162461bcd60e51b8152602060048201526019602482015278496e73756666696369656e7420555344432062616c616e636560381b6044820152606401610dda565b6005546002820154600183015460405163a9059cbb60e01b81526001600160a01b039384169363a9059cbb93613f7d93911691600401615e18565b6020604051808303815f875af1158015613f99573d5f5f3e3d5ffd5b505050506040513d601f19601f82011682018060405250810190613fbd9190615e31565b6140005760405162461bcd60e51b81526020600482015260146024820152731554d110c81d1c985b9cd9995c8819985a5b195960621b6044820152606401610dda565b505f818152601360205260408120805461ffff19168155600181018290556002810180546001600160a81b0319169055600301556121c8565b5f81815260146020526040902060028101546001600160a01b03166140b05760405162461bcd60e51b815260206004820152602760248201527f4e6f204e69636b656c69756d207472616e7366657220776974682074686973206044820152661bdc99195c925160ca1b6064820152608401610dda565b805460ff1680156140c757508054610100900460ff165b6140e35760405162461bcd60e51b8152600401610dda90615de3565b60018101546007546040516370a0823160e01b81526001600160a01b03909116906370a0823190614118903090600401615395565b602060405180830381865afa158015614133573d5f5f3e3d5ffd5b505050506040513d601f19601f820116820180604052508101906141579190615b25565b10156141a55760405162461bcd60e51b815260206004820152601e60248201527f496e73756666696369656e74204e69636b656c69756d2062616c616e636500006044820152606401610dda565b6007546002820154600183015460405163a9059cbb60e01b81526001600160a01b039384169363a9059cbb936141e093911691600401615e18565b6020604051808303815f875af11580156141fc573d5f5f3e3d5ffd5b505050506040513d601f19601f820116820180604052508101906142209190615e31565b6142685760405162461bcd60e51b8152602060048201526019602482015278139a58dad95b1a5d5b481d1c985b9cd9995c8819985a5b1959603a1b6044820152606401610dda565b505f818152601460205260408120805461ffff19168155600181018290556002810180546001600160a81b031916905560030155610e7260018055565b6002546001600160a01b03163314806142c857506003546001600160a01b031633145b6142e45760405162461bcd60e51b8152600401610dda906159f5565b6142ec614342565b6142f46143b7565b5f8181526013602052604090206002546001600160a01b0316330361432057805460ff191681556121c6565b6003546001600160a01b031633036121c657805461ff00191690556001805550565b60026001540361436557604051633ee5aeb560e01b815260040160405180910390fd5b6002600155565b614374615092565b5f805460ff191690557f5db9ee0a495bf2e6ff9c91a7834c1ba4fdd244a5e8aa4e537bd38aeae4b073aa335b6040516143ad9190615395565b60405180910390a1565b5f5460ff1615610dfc5760405162461bcd60e51b815260206004820152601060248201526f14185d5cd8589b194e881c185d5cd95960821b6044820152606401610dda565b6144046143b7565b5f805460ff191660011790557f62e78cea01bee320cd4e420270b5ea74000d11b0c9f74754ebdbfc544b05a2586143a03390565b5f8181526019602090815260408083208151606081018352815480825260019092015460ff80821615159583019590955261010090049093161515918301919091529091036144995760405162461bcd60e51b8152600401610dda90615cca565b60095481516040516351272da360e11b81526001600160a01b039092169163a24e5b46916144cc91309190600401615e18565b5f604051808303815f87803b1580156144e3575f5ffd5b505af11580156144f5573d5f5f3e3d5ffd5b5050505f9283525050601960205260408120908155600101805461ffff19169055565b5f818152601260205260409020600481015462010000900460ff1615156001148015614554575060048101546301000000900460ff1615156001145b6145705760405162461bcd60e51b8152600401610dda90615d3f565b60038101546002820154806145975760405162461bcd60e51b8152600401610dda90615e4c565b305f6103e86145a68585615ac3565b6145b09190615ada565b90505f6004860154610100900460ff1660028111156145d1576145d1615258565b03614648576008546040516342af7a0d60e11b81526001600160a01b039091169063855ef41a9061460d9085905f908690600190600401615e7d565b5f604051808303815f87803b158015614624575f5ffd5b505af1158015614636573d5f5f3e3d5ffd5b50505050614643816150da565b614a6b565b60016004860154610100900460ff16600281111561466857614668615258565b036148f3575f60045f9054906101000a90046001600160a01b03166001600160a01b031663dd644f726040518163ffffffff1660e01b8152600401602060405180830381865afa1580156146be573d5f5f3e3d5ffd5b505050506040513d601f19601f820116820180604052508101906146e29190615b25565b90505f60045f9054906101000a90046001600160a01b03166001600160a01b031663353907146040518163ffffffff1660e01b8152600401602060405180830381865afa158015614735573d5f5f3e3d5ffd5b505050506040513d601f19601f820116820180604052508101906147599190615b25565b9050825f83156147c35761476f84612710615a83565b61477b86612710615ac3565b6147859190615ada565b91506127106147948584615ac3565b61479e9190615ada565b90505f831180156147ae57508281115b156147b65750815b6147c08186615a9c565b91505b6004805460405163095ea7b360e01b81526001600160a01b039091169163095ea7b3916147f4913091879101615e18565b5f604051808303815f87803b15801561480b575f5ffd5b505af115801561481d573d5f5f3e3d5ffd5b5050600480546008546040516323b872dd60e01b81526001600160a01b0392831695506323b872dd9450614859938c9390921691889101615eb1565b5f604051808303815f87803b158015614870575f5ffd5b505af1158015614882573d5f5f3e3d5ffd5b50506008546040516342af7a0d60e11b81526001600160a01b03909116925063855ef41a91506148bd90899060019087908290600401615e7d565b5f604051808303815f87803b1580156148d4575f5ffd5b505af11580156148e6573d5f5f3e3d5ffd5b5050505050505050614a6b565b60026004860154610100900460ff16600281111561491357614913615258565b03614a6b5760055460405163095ea7b360e01b81526001600160a01b039091169063095ea7b39061494a9030908590600401615e18565b6020604051808303815f875af1158015614966573d5f5f3e3d5ffd5b505050506040513d601f19601f8201168201806040525081019061498a9190615e31565b506005546008546040516323b872dd60e01b81526001600160a01b03928316926323b872dd926149c4928792909116908690600401615eb1565b6020604051808303815f875af11580156149e0573d5f5f3e3d5ffd5b505050506040513d601f19601f82011682018060405250810190614a049190615e31565b506008546040516342af7a0d60e11b81526001600160a01b039091169063855ef41a90614a3d9085906002908690600190600401615e7d565b5f604051808303815f87803b158015614a54575f5ffd5b505af1158015614a66573d5f5f3e3d5ffd5b505050505b600b5485546001870154600288015460038901546004808b015460405163ced6f7df60e01b81526001600160a01b039788169763ced6f7df97614ac79790969116949093909260ff8082169361010090920416915f9101615ed5565b5f604051808303815f87803b158015614ade575f5ffd5b505af1158015614af0573d5f5f3e3d5ffd5b50506003805461ffff60a01b191681555f8981526012602052604081208181556001810180546001600160a01b03191690556002810182905591820181905560048201805463ffffffff191690559092509050614b5060058301826151f7565b50600601805460ff191690555f5b601554811015614c02578660158281548110614b7c57614b7c615a1b565b905f5260205f20015403614bfa5760158054614b9a90600190615a83565b81548110614baa57614baa615a1b565b905f5260205f20015460158281548110614bc657614bc6615a1b565b5f918252602090912001556015805480614be257614be2615aaf565b600190038181905f5260205f20015f90559055614c02565b600101614b5e565b50505050505050565b5f818152601260205260409020600481015462010000900460ff1615156001148015614c47575060048101546301000000900460ff1615156001145b614c635760405162461bcd60e51b8152600401610dda90615d3f565b60038101546007546040516370a0823160e01b815282916001600160a01b0316906370a0823190614c98903090600401615395565b602060405180830381865afa158015614cb3573d5f5f3e3d5ffd5b505050506040513d601f19601f82011682018060405250810190614cd79190615b25565b1015614d345760405162461bcd60e51b815260206004820152602660248201527f496e73756666696369656e742062616c616e636520666f7220746865206f70656044820152653930ba34b7b760d11b6064820152608401610dda565b5f826002015411614d575760405162461bcd60e51b8152600401610dda90615e4c565b60075460405163095ea7b360e01b81526001600160a01b039091169063095ea7b390614d899030908590600401615e18565b6020604051808303815f875af1158015614da5573d5f5f3e3d5ffd5b505050506040513d601f19601f82011682018060405250810190614dc99190615e31565b5060075460085460405163095ea7b360e01b81526001600160a01b039283169263095ea7b392614e00929116908590600401615e18565b6020604051808303815f875af1158015614e1c573d5f5f3e3d5ffd5b505050506040513d601f19601f82011682018060405250810190614e409190615e31565b506007546040516323b872dd60e01b81526001600160a01b03909116906323b872dd90614e7590309084908690600401615eb1565b6020604051808303815f875af1158015614e91573d5f5f3e3d5ffd5b505050506040513d601f19601f82011682018060405250810190614eb59190615e31565b614ef95760405162461bcd60e51b8152602060048201526015602482015274151bdad95b881d1c985b9cd9995c8819985a5b1959605a1b6044820152606401610dda565b600b5482546001840154600285015460048087015460068801546040516303518b5160e21b81526001600160a01b0397881697630d462d4497614f5797909691169490938a9360ff8083169461010090930481169391169101615ed5565b5f604051808303815f87803b158015614f6e575f5ffd5b505af1158015614f80573d5f5f3e3d5ffd5b50506003805461ffff60a01b191681555f8681526012602052604081208181556001810180546001600160a01b03191690556002810182905591820181905560048201805463ffffffff191690559092509050614fe060058301826151f7565b50600601805460ff191690555f5b601554811015611c6d57836015828154811061500c5761500c615a1b565b905f5260205f2001540361508a576015805461502a90600190615a83565b8154811061503a5761503a615a1b565b905f5260205f2001546015828154811061505657615056615a1b565b5f91825260209091200155601580548061507257615072615aaf565b600190038181905f5260205f20015f90559055611c6d565b600101614fee565b5f5460ff16610dfc5760405162461bcd60e51b815260206004820152601460248201527314185d5cd8589b194e881b9bdd081c185d5cd95960621b6044820152606401610dda565b804710156150fa5760405162461bcd60e51b8152600401610dda90615c41565b600a546040516001600160a01b039091169082156108fc029083905f818181858888f1935050505015801561131f573d5f5f3e3d5ffd5b6040518061014001604052805f81526020015f6001600160a01b031681526020015f81526020015f81526020015f5f81111561516f5761516f615258565b81526020015f81525f602082018190526040820181905260608083015260809091015290565b6040805160c0810182525f80825260208201819052918101829052606081018290529060808201905b81526020015f81525090565b6040805160c0810182525f80825260208201819052918101829052606081018290529060808201906151be565b508054615203906159bd565b5f825580601f10615212575050565b601f0160209004905f5260205f2090810190610e7291905b8082111561523d575f815560010161522a565b5090565b5f60208284031215615251575f5ffd5b5035919050565b634e487b7160e01b5f52602160045260245ffd5b6001811061527c5761527c615258565b9052565b6003811061527c5761527c615258565b5f81518084528060208401602086015e5f602082860101526020601f19601f83011685010191505092915050565b805182525f60208201516152dd60208501826001600160a01b03169052565b5060408201516040840152606082015160608401526080820151615304608085018261526c565b5060a082015161531760a0850182615280565b5060c082015161532b60c085018215159052565b5060e082015161533f60e085018215159052565b5061010082015161014061010085015261535d610140850182615290565b905061012083015161537461012086018215159052565b509392505050565b602081525f61538e60208301846152be565b9392505050565b6001600160a01b0391909116815260200190565b5f602082016020835280845180835260408501915060408160051b8601019250602086015f5b8281101561540057603f198786030184526153eb8583516152be565b945060209384019391909101906001016153cf565b50929695505050505050565b6001600160a01b0381168114610e72575f5ffd5b803561542b8161540c565b919050565b8015158114610e72575f5ffd5b5f5f6040838503121561544e575f5ffd5b82356154598161540c565b9150602083013561546981615430565b809150509250929050565b5f5f60408385031215615485575f5ffd5b50508035926020909101359150565b5f5f604083850312156154a5575f5ffd5b82356154b08161540c565b946020939093013593505050565b604080825283519082018190525f9060208501906060840190835b818110156154f75783518352602093840193909201916001016154d9565b5050838103602080860191909152855180835291810192508501905f5b818110156155525782518051855260208101511515602086015260408101511515604086015250606084019350602083019250600181019050615514565b50919695505050505050565b634e487b7160e01b5f52604160045260245ffd5b5f5f5f60608486031215615584575f5ffd5b833560ff81168114615594575f5ffd5b925060208401356001600160401b038111156155ae575f5ffd5b8401601f810186136155be575f5ffd5b80356001600160401b038111156155d7576155d761555e565b604051601f8201601f19908116603f011681016001600160401b03811182821017156156055761560561555e565b60405281815282820160200188101561561c575f5ffd5b816020840160208301375f9181016020019190915293969395505050506040919091013590565b5f5f60408385031215615654575f5ffd5b823561565f8161540c565b915060208301356154698161540c565b5f8151808452602084019350602083015f5b828110156156eb5781518051151587526020810151151560208801526040810151604088015260018060a01b03606082015116606088015260808101516156cb608089018261526c565b5060a0908101519087015260c09095019460209190910190600101615681565b5093949350505050565b604080825283519082018190525f9060208501906060840190835b8181101561577a5783518051151584526020810151151560208501526040810151604085015260018060a01b036060820151166060850152608081015161575a6080860182615280565b5060a090810151908401526020939093019260c090920191600101615710565b5050838103602085015261578e818661566f565b9695505050505050565b5f5f5f606084860312156157aa575f5ffd5b833592506020840135915060408401356157c381615430565b809150509250925092565b5f5f5f5f5f5f5f5f5f5f5f5f6101808d8f0312156157ea575f5ffd5b8c356157f58161540c565b9b5060208d01356158058161540c565b9a5060408d01356158158161540c565b995060608d01356158258161540c565b985060808d01356158358161540c565b975061584360a08e01615420565b965061585160c08e01615420565b955061585f60e08e01615420565b945061586e6101008e01615420565b935061587d6101208e01615420565b925061588c6101408e01615420565b915061589b6101608e01615420565b90509295989b509295989b509295989b565b86151581528515156020820152604081018590526001600160a01b038416606082015260c081016158e1608083018561526c565b8260a0830152979650505050505050565b86151581528515156020820152604081018590526001600160a01b038416606082015260c081016158e16080830185615280565b5f60208284031215615936575f5ffd5b813561538e8161540c565b8a81526001600160a01b038a166020820152604081018990526060810188905261596e608082018861526c565b61597b60a0820187615280565b84151560c082015283151560e08201526101406101008201525f6159a3610140830185615290565b90508215156101208301529b9a5050505050505050505050565b600181811c908216806159d157607f821691505b6020821081036159ef57634e487b7160e01b5f52602260045260245ffd5b50919050565b6020808252600c908201526b2737ba1030b71037bbb732b960a11b604082015260600190565b634e487b7160e01b5f52603260045260245ffd5b634e487b7160e01b5f52601160045260245ffd5b5f60018201615a5457615a54615a2f565b5060010190565b6020808252600e908201526d139bdd08185d5d1a1bdc9a5e995960921b604082015260600190565b81810381811115615a9657615a96615a2f565b92915050565b80820180821115615a9657615a96615a2f565b634e487b7160e01b5f52603160045260245ffd5b8082028115828204841417615a9657615a96615a2f565b5f82615af457634e487b7160e01b5f52601260045260245ffd5b500490565b602080825260129082015271506f74656e7469616c206f766572666c6f7760701b604082015260600190565b5f60208284031215615b35575f5ffd5b5051919050565b601f82111561207d57805f5260205f20601f840160051c81016020851015615b615750805b601f840160051c820191505b81811015615b80575f8155600101615b6d565b5050505050565b81516001600160401b03811115615ba057615ba061555e565b615bb481615bae84546159bd565b84615b3c565b6020601f821160018114615be6575f8315615bcf5750848201515b5f19600385901b1c1916600184901b178455615b80565b5f84815260208120601f198516915b82811015615c155787850151825560209485019460019092019101615bf5565b5084821015615c3257868401515f19600387901b60f8161c191681555b50505050600190811b01905550565b6020808252601d908201527f496e73756666696369656e7420636f6e74726163742062616c616e6365000000604082015260600190565b602081525f61538e6020830184615290565b5f82518060208501845e5f920191825250919050565b60208082526010908201526f125b9d985b1a59081bdc99195c88125160821b604082015260600190565b6020808252601590820152741058dd1a5bdb88191bd95cc81b9bdd08195e1a5cdd605a1b604082015260600190565b60208082526026908201527f416374696f6e20616c726561647920636f6e6669726d656420627920746869736040820152651037bbb732b960d11b606082015260800190565b602080825260199082015278426f74682070617274696573206d75737420636f6e6669726d60381b604082015260600190565b5f5f8354615d7f816159bd565b600182168015615d965760018114615dab57615dd8565b60ff1983168652811515820286019350615dd8565b865f5260205f205f5b83811015615dd057815488820152600190910190602001615db4565b505081860193505b509195945050505050565b6020808252601b908201527a109bdd1a0818dbdb999a5c9b585d1a5bdb9cc81c995c5d5a5c9959602a1b604082015260600190565b6001600160a01b03929092168252602082015260400190565b5f60208284031215615e41575f5ffd5b815161538e81615430565b602080825260179082015276151a1a5cc81bdc99195c881a5cc81b9bdd08195e1a5cdd604a1b604082015260600190565b6001600160a01b038516815260808101615e9a6020830186615280565b836040830152821515606083015295945050505050565b6001600160a01b039384168152919092166020820152604081019190915260600190565b8781526001600160a01b0387166020820152604081018690526060810185905260e08101615f06608083018661526c565b615f1360a0830185615280565b82151560c08301529897505050505050505056fe55f448fdea98c4d29eb340757ef0a66cd03dbb9538908a6a81d96026b71ec475a264697066735822122007ee3b4c7a10d2e909a0413725ac860772c724cc6b8dd3f271c0fcf4f9aee09964736f6c634300081e0033",
			"opcodes": "PUSH1 0x80 PUSH1 0x40 MSTORE PUSH0 PUSH1 0x11 SSTORE CALLVALUE DUP1 ISZERO PUSH1 0x12 JUMPI PUSH0 PUSH0 REVERT JUMPDEST POP PUSH0 DUP1 SLOAD PUSH1 0xFF NOT SWAP1 DUP2 AND DUP3 SSTORE PUSH1 0x1 DUP1 DUP1 SSTORE CALLER DUP4 MSTORE PUSH1 0x16 PUSH1 0x20 MSTORE PUSH1 0x40 DUP4 KECCAK256 DUP1 SLOAD SWAP1 SWAP3 AND OR SWAP1 SSTORE PUSH2 0x5F7D SWAP1 DUP2 SWAP1 PUSH2 0x46 SWAP1 CODECOPY PUSH0 RETURN INVALID PUSH1 0x80 PUSH1 0x40 MSTORE PUSH1 0x4 CALLDATASIZE LT PUSH2 0x30C JUMPI PUSH0 CALLDATALOAD PUSH1 0xE0 SHR DUP1 PUSH4 0x87AD8F87 GT PUSH2 0x196 JUMPI DUP1 PUSH4 0xBED69536 GT PUSH2 0xEC JUMPI DUP1 PUSH4 0xE113B6EC GT PUSH2 0x8F JUMPI DUP1 PUSH4 0xE113B6EC EQ PUSH2 0xB08 JUMPI DUP1 PUSH4 0xE2117EBC EQ PUSH2 0xB28 JUMPI DUP1 PUSH4 0xE2B52FC4 EQ PUSH2 0xB47 JUMPI DUP1 PUSH4 0xE9CE848D EQ PUSH2 0xB66 JUMPI DUP1 PUSH4 0xEBF968A3 EQ PUSH2 0xB85 JUMPI DUP1 PUSH4 0xF05D5752 EQ PUSH2 0xBA5 JUMPI DUP1 PUSH4 0xF19E207E EQ PUSH2 0xBC4 JUMPI DUP1 PUSH4 0xFBA6CF7B EQ PUSH2 0xBF2 JUMPI PUSH2 0x30C JUMP JUMPDEST DUP1 PUSH4 0xBED69536 EQ PUSH2 0x9C7 JUMPI DUP1 PUSH4 0xC3AAEA4E EQ PUSH2 0x9E6 JUMPI DUP1 PUSH4 0xC5026555 EQ PUSH2 0xA1B JUMPI DUP1 PUSH4 0xC616E5EA EQ PUSH2 0xA3A JUMPI DUP1 PUSH4 0xCD41F0C6 EQ PUSH2 0xA59 JUMPI DUP1 PUSH4 0xD2873510 EQ PUSH2 0xA78 JUMPI DUP1 PUSH4 0xDB5544A6 EQ PUSH2 0xA97 JUMPI DUP1 PUSH4 0xDDE12D1D EQ PUSH2 0xAB6 JUMPI PUSH2 0x30C JUMP JUMPDEST DUP1 PUSH4 0x87AD8F87 EQ PUSH2 0x753 JUMPI DUP1 PUSH4 0x8AC7D79C EQ PUSH2 0x772 JUMPI DUP1 PUSH4 0x8C11ED50 EQ PUSH2 0x791 JUMPI DUP1 PUSH4 0x8DE91B24 EQ PUSH2 0x7B0 JUMPI DUP1 PUSH4 0x90309ECD EQ PUSH2 0x824 JUMPI DUP1 PUSH4 0x927E9742 EQ PUSH2 0x843 JUMPI DUP1 PUSH4 0x92F8EB94 EQ PUSH2 0x8B7 JUMPI DUP1 PUSH4 0x93C3A2BE EQ PUSH2 0x8D6 JUMPI DUP1 PUSH4 0x94F61134 EQ PUSH2 0x8F5 JUMPI DUP1 PUSH4 0x96366D65 EQ PUSH2 0x908 JUMPI DUP1 PUSH4 0x99762734 EQ PUSH2 0x936 JUMPI DUP1 PUSH4 0xA404C1C5 EQ PUSH2 0x955 JUMPI DUP1 PUSH4 0xA8143F85 EQ PUSH2 0x974 JUMPI DUP1 PUSH4 0xB48D5238 EQ PUSH2 0x989 JUMPI DUP1 PUSH4 0xBCC94D41 EQ PUSH2 0x9A8 JUMPI PUSH2 0x30C JUMP JUMPDEST DUP1 PUSH4 0x2A03E28D GT PUSH2 0x266 JUMPI DUP1 PUSH4 0x633A3343 GT PUSH2 0x209 JUMPI DUP1 PUSH4 0x633A3343 EQ PUSH2 0x66D JUMPI DUP1 PUSH4 0x63A599A4 EQ PUSH2 0x690 JUMPI DUP1 PUSH4 0x6C40CE73 EQ PUSH2 0x6A4 JUMPI DUP1 PUSH4 0x6FB485D5 EQ PUSH2 0x6C3 JUMPI DUP1 PUSH4 0x73688914 EQ PUSH2 0x6E2 JUMPI DUP1 PUSH4 0x7B7F1C82 EQ PUSH2 0x701 JUMPI DUP1 PUSH4 0x7E3E333D EQ PUSH2 0x720 JUMPI DUP1 PUSH4 0x8704B10D EQ PUSH2 0x734 JUMPI PUSH2 0x30C JUMP JUMPDEST DUP1 PUSH4 0x2A03E28D EQ PUSH2 0x56F JUMPI DUP1 PUSH4 0x2C48E7DB EQ PUSH2 0x58E JUMPI DUP1 PUSH4 0x48405B49 EQ PUSH2 0x5AD JUMPI DUP1 PUSH4 0x49D601A5 EQ PUSH2 0x5CC JUMPI DUP1 PUSH4 0x4DACEA2B EQ PUSH2 0x5EE JUMPI DUP1 PUSH4 0x52709725 EQ PUSH2 0x60D JUMPI DUP1 PUSH4 0x57B00948 EQ PUSH2 0x62C JUMPI DUP1 PUSH4 0x5C975ABB EQ PUSH2 0x64B JUMPI PUSH2 0x30C JUMP JUMPDEST DUP1 PUSH4 0x2F35A06 EQ PUSH2 0x343 JUMPI DUP1 PUSH4 0x38F3D4F EQ PUSH2 0x378 JUMPI DUP1 PUSH4 0x46F7DA2 EQ PUSH2 0x3D3 JUMPI DUP1 PUSH4 0xC101596 EQ PUSH2 0x3E9 JUMPI DUP1 PUSH4 0xCF71579 EQ PUSH2 0x415 JUMPI DUP1 PUSH4 0x108E9B2D EQ PUSH2 0x434 JUMPI DUP1 PUSH4 0x12521B54 EQ PUSH2 0x453 JUMPI DUP1 PUSH4 0x1351CF51 EQ PUSH2 0x474 JUMPI DUP1 PUSH4 0x153F0C6F EQ PUSH2 0x493 JUMPI DUP1 PUSH4 0x1B8E2ED9 EQ PUSH2 0x4B2 JUMPI DUP1 PUSH4 0x1D2E4A2F EQ PUSH2 0x4D1 JUMPI DUP1 PUSH4 0x21F65657 EQ PUSH2 0x4F0 JUMPI DUP1 PUSH4 0x262B7821 EQ PUSH2 0x50F JUMPI DUP1 PUSH4 0x29878BC4 EQ PUSH2 0x52E JUMPI DUP1 PUSH4 0x299B6878 EQ PUSH2 0x54D JUMPI JUMPDEST PUSH1 0x40 MLOAD CALLVALUE DUP2 MSTORE CALLER SWAP1 PUSH32 0x1E57E3BB474320BE3D2C77138F75B7C3941292D647F5F9634E33A8E94E0E069B SWAP1 PUSH1 0x20 ADD PUSH1 0x40 MLOAD DUP1 SWAP2 SUB SWAP1 LOG2 STOP JUMPDEST CALLVALUE DUP1 ISZERO PUSH2 0x34E JUMPI PUSH0 PUSH0 REVERT JUMPDEST POP PUSH2 0x362 PUSH2 0x35D CALLDATASIZE PUSH1 0x4 PUSH2 0x5241 JUMP JUMPDEST PUSH2 0xC11 JUMP JUMPDEST PUSH1 0x40 MLOAD PUSH2 0x36F SWAP2 SWAP1 PUSH2 0x537C JUMP JUMPDEST PUSH1 0x40 MLOAD DUP1 SWAP2 SUB SWAP1 RETURN JUMPDEST CALLVALUE DUP1 ISZERO PUSH2 0x383 JUMPI PUSH0 PUSH0 REVERT JUMPDEST POP PUSH2 0x3B6 PUSH2 0x392 CALLDATASIZE PUSH1 0x4 PUSH2 0x5241 JUMP JUMPDEST PUSH1 0x19 PUSH1 0x20 MSTORE PUSH0 SWAP1 DUP2 MSTORE PUSH1 0x40 SWAP1 KECCAK256 DUP1 SLOAD PUSH1 0x1 SWAP1 SWAP2 ADD SLOAD PUSH1 0xFF DUP1 DUP3 AND SWAP2 PUSH2 0x100 SWAP1 DIV AND DUP4 JUMP JUMPDEST PUSH1 0x40 DUP1 MLOAD SWAP4 DUP5 MSTORE SWAP2 ISZERO ISZERO PUSH1 0x20 DUP5 ADD MSTORE ISZERO ISZERO SWAP1 DUP3 ADD MSTORE PUSH1 0x60 ADD PUSH2 0x36F JUMP JUMPDEST CALLVALUE DUP1 ISZERO PUSH2 0x3DE JUMPI PUSH0 PUSH0 REVERT JUMPDEST POP PUSH2 0x3E7 PUSH2 0xD9B JUMP JUMPDEST STOP JUMPDEST CALLVALUE DUP1 ISZERO PUSH2 0x3F4 JUMPI PUSH0 PUSH0 REVERT JUMPDEST POP PUSH1 0x6 SLOAD PUSH2 0x408 SWAP1 PUSH1 0x1 PUSH1 0x1 PUSH1 0xA0 SHL SUB AND DUP2 JUMP JUMPDEST PUSH1 0x40 MLOAD PUSH2 0x36F SWAP2 SWAP1 PUSH2 0x5395 JUMP JUMPDEST CALLVALUE DUP1 ISZERO PUSH2 0x420 JUMPI PUSH0 PUSH0 REVERT JUMPDEST POP PUSH1 0xC SLOAD PUSH2 0x408 SWAP1 PUSH1 0x1 PUSH1 0x1 PUSH1 0xA0 SHL SUB AND DUP2 JUMP JUMPDEST CALLVALUE DUP1 ISZERO PUSH2 0x43F JUMPI PUSH0 PUSH0 REVERT JUMPDEST POP PUSH2 0x3E7 PUSH2 0x44E CALLDATASIZE PUSH1 0x4 PUSH2 0x5241 JUMP JUMPDEST PUSH2 0xDFE JUMP JUMPDEST CALLVALUE DUP1 ISZERO PUSH2 0x45E JUMPI PUSH0 PUSH0 REVERT JUMPDEST POP PUSH2 0x467 PUSH2 0xE75 JUMP JUMPDEST PUSH1 0x40 MLOAD PUSH2 0x36F SWAP2 SWAP1 PUSH2 0x53A9 JUMP JUMPDEST CALLVALUE DUP1 ISZERO PUSH2 0x47F JUMPI PUSH0 PUSH0 REVERT JUMPDEST POP PUSH2 0x3E7 PUSH2 0x48E CALLDATASIZE PUSH1 0x4 PUSH2 0x543D JUMP JUMPDEST PUSH2 0x12B6 JUMP JUMPDEST CALLVALUE DUP1 ISZERO PUSH2 0x49E JUMPI PUSH0 PUSH0 REVERT JUMPDEST POP PUSH2 0x3E7 PUSH2 0x4AD CALLDATASIZE PUSH1 0x4 PUSH2 0x5241 JUMP JUMPDEST PUSH2 0x1323 JUMP JUMPDEST CALLVALUE DUP1 ISZERO PUSH2 0x4BD JUMPI PUSH0 PUSH0 REVERT JUMPDEST POP PUSH1 0x7 SLOAD PUSH2 0x408 SWAP1 PUSH1 0x1 PUSH1 0x1 PUSH1 0xA0 SHL SUB AND DUP2 JUMP JUMPDEST CALLVALUE DUP1 ISZERO PUSH2 0x4DC JUMPI PUSH0 PUSH0 REVERT JUMPDEST POP PUSH1 0xD SLOAD PUSH2 0x408 SWAP1 PUSH1 0x1 PUSH1 0x1 PUSH1 0xA0 SHL SUB AND DUP2 JUMP JUMPDEST CALLVALUE DUP1 ISZERO PUSH2 0x4FB JUMPI PUSH0 PUSH0 REVERT JUMPDEST POP PUSH2 0x3E7 PUSH2 0x50A CALLDATASIZE PUSH1 0x4 PUSH2 0x5474 JUMP JUMPDEST PUSH2 0x14EA JUMP JUMPDEST CALLVALUE DUP1 ISZERO PUSH2 0x51A JUMPI PUSH0 PUSH0 REVERT JUMPDEST POP PUSH2 0x3E7 PUSH2 0x529 CALLDATASIZE PUSH1 0x4 PUSH2 0x5494 JUMP JUMPDEST PUSH2 0x1774 JUMP JUMPDEST CALLVALUE DUP1 ISZERO PUSH2 0x539 JUMPI PUSH0 PUSH0 REVERT JUMPDEST POP PUSH1 0xA SLOAD PUSH2 0x408 SWAP1 PUSH1 0x1 PUSH1 0x1 PUSH1 0xA0 SHL SUB AND DUP2 JUMP JUMPDEST CALLVALUE DUP1 ISZERO PUSH2 0x558 JUMPI PUSH0 PUSH0 REVERT JUMPDEST POP PUSH2 0x561 PUSH2 0x18CC JUMP JUMPDEST PUSH1 0x40 MLOAD PUSH2 0x36F SWAP3 SWAP2 SWAP1 PUSH2 0x54BE JUMP JUMPDEST CALLVALUE DUP1 ISZERO PUSH2 0x57A JUMPI PUSH0 PUSH0 REVERT JUMPDEST POP PUSH2 0x3E7 PUSH2 0x589 CALLDATASIZE PUSH1 0x4 PUSH2 0x5572 JUMP JUMPDEST PUSH2 0x1AC0 JUMP JUMPDEST CALLVALUE DUP1 ISZERO PUSH2 0x599 JUMPI PUSH0 PUSH0 REVERT JUMPDEST POP PUSH2 0x3E7 PUSH2 0x5A8 CALLDATASIZE PUSH1 0x4 PUSH2 0x5241 JUMP JUMPDEST PUSH2 0x2082 JUMP JUMPDEST CALLVALUE DUP1 ISZERO PUSH2 0x5B8 JUMPI PUSH0 PUSH0 REVERT JUMPDEST POP PUSH2 0x3E7 PUSH2 0x5C7 CALLDATASIZE PUSH1 0x4 PUSH2 0x5643 JUMP JUMPDEST PUSH2 0x21D1 JUMP JUMPDEST CALLVALUE DUP1 ISZERO PUSH2 0x5D7 JUMPI PUSH0 PUSH0 REVERT JUMPDEST POP PUSH2 0x5E0 PUSH2 0x2248 JUMP JUMPDEST PUSH1 0x40 MLOAD PUSH2 0x36F SWAP3 SWAP2 SWAP1 PUSH2 0x56F5 JUMP JUMPDEST CALLVALUE DUP1 ISZERO PUSH2 0x5F9 JUMPI PUSH0 PUSH0 REVERT JUMPDEST POP PUSH2 0x3E7 PUSH2 0x608 CALLDATASIZE PUSH1 0x4 PUSH2 0x5798 JUMP JUMPDEST PUSH2 0x2564 JUMP JUMPDEST CALLVALUE DUP1 ISZERO PUSH2 0x618 JUMPI PUSH0 PUSH0 REVERT JUMPDEST POP PUSH1 0x3 SLOAD PUSH2 0x408 SWAP1 PUSH1 0x1 PUSH1 0x1 PUSH1 0xA0 SHL SUB AND DUP2 JUMP JUMPDEST CALLVALUE DUP1 ISZERO PUSH2 0x637 JUMPI PUSH0 PUSH0 REVERT JUMPDEST POP PUSH2 0x3E7 PUSH2 0x646 CALLDATASIZE PUSH1 0x4 PUSH2 0x5494 JUMP JUMPDEST PUSH2 0x27EC JUMP JUMPDEST CALLVALUE DUP1 ISZERO PUSH2 0x656 JUMPI PUSH0 PUSH0 REVERT JUMPDEST POP PUSH0 SLOAD PUSH1 0xFF AND JUMPDEST PUSH1 0x40 MLOAD SWAP1 ISZERO ISZERO DUP2 MSTORE PUSH1 0x20 ADD PUSH2 0x36F JUMP JUMPDEST CALLVALUE DUP1 ISZERO PUSH2 0x678 JUMPI PUSH0 PUSH0 REVERT JUMPDEST POP PUSH2 0x682 PUSH1 0x18 SLOAD DUP2 JUMP JUMPDEST PUSH1 0x40 MLOAD SWAP1 DUP2 MSTORE PUSH1 0x20 ADD PUSH2 0x36F JUMP JUMPDEST CALLVALUE DUP1 ISZERO PUSH2 0x69B JUMPI PUSH0 PUSH0 REVERT JUMPDEST POP PUSH2 0x3E7 PUSH2 0x2871 JUMP JUMPDEST CALLVALUE DUP1 ISZERO PUSH2 0x6AF JUMPI PUSH0 PUSH0 REVERT JUMPDEST POP PUSH2 0x3E7 PUSH2 0x6BE CALLDATASIZE PUSH1 0x4 PUSH2 0x5241 JUMP JUMPDEST PUSH2 0x28C8 JUMP JUMPDEST CALLVALUE DUP1 ISZERO PUSH2 0x6CE JUMPI PUSH0 PUSH0 REVERT JUMPDEST POP PUSH2 0x3E7 PUSH2 0x6DD CALLDATASIZE PUSH1 0x4 PUSH2 0x57CE JUMP JUMPDEST PUSH2 0x2970 JUMP JUMPDEST CALLVALUE DUP1 ISZERO PUSH2 0x6ED JUMPI PUSH0 PUSH0 REVERT JUMPDEST POP PUSH1 0x2 SLOAD PUSH2 0x408 SWAP1 PUSH1 0x1 PUSH1 0x1 PUSH1 0xA0 SHL SUB AND DUP2 JUMP JUMPDEST CALLVALUE DUP1 ISZERO PUSH2 0x70C JUMPI PUSH0 PUSH0 REVERT JUMPDEST POP PUSH1 0x9 SLOAD PUSH2 0x408 SWAP1 PUSH1 0x1 PUSH1 0x1 PUSH1 0xA0 SHL SUB AND DUP2 JUMP JUMPDEST CALLVALUE DUP1 ISZERO PUSH2 0x72B JUMPI PUSH0 PUSH0 REVERT JUMPDEST POP PUSH2 0x362 PUSH2 0x2A74 JUMP JUMPDEST CALLVALUE DUP1 ISZERO PUSH2 0x73F JUMPI PUSH0 PUSH0 REVERT JUMPDEST POP PUSH2 0x3E7 PUSH2 0x74E CALLDATASIZE PUSH1 0x4 PUSH2 0x5494 JUMP JUMPDEST PUSH2 0x2B05 JUMP JUMPDEST CALLVALUE DUP1 ISZERO PUSH2 0x75E JUMPI PUSH0 PUSH0 REVERT JUMPDEST POP PUSH1 0x8 SLOAD PUSH2 0x408 SWAP1 PUSH1 0x1 PUSH1 0x1 PUSH1 0xA0 SHL SUB AND DUP2 JUMP JUMPDEST CALLVALUE DUP1 ISZERO PUSH2 0x77D JUMPI PUSH0 PUSH0 REVERT JUMPDEST POP PUSH2 0x3E7 PUSH2 0x78C CALLDATASIZE PUSH1 0x4 PUSH2 0x5241 JUMP JUMPDEST PUSH2 0x2B8C JUMP JUMPDEST CALLVALUE DUP1 ISZERO PUSH2 0x79C JUMPI PUSH0 PUSH0 REVERT JUMPDEST POP PUSH2 0x3E7 PUSH2 0x7AB CALLDATASIZE PUSH1 0x4 PUSH2 0x5798 JUMP JUMPDEST PUSH2 0x2C43 JUMP JUMPDEST CALLVALUE DUP1 ISZERO PUSH2 0x7BB JUMPI PUSH0 PUSH0 REVERT JUMPDEST POP PUSH2 0x812 PUSH2 0x7CA CALLDATASIZE PUSH1 0x4 PUSH2 0x5241 JUMP JUMPDEST PUSH1 0x14 PUSH1 0x20 MSTORE PUSH0 SWAP1 DUP2 MSTORE PUSH1 0x40 SWAP1 KECCAK256 DUP1 SLOAD PUSH1 0x1 DUP3 ADD SLOAD PUSH1 0x2 DUP4 ADD SLOAD PUSH1 0x3 SWAP1 SWAP4 ADD SLOAD PUSH1 0xFF DUP1 DUP5 AND SWAP5 PUSH2 0x100 SWAP1 SWAP5 DIV DUP2 AND SWAP4 PUSH1 0x1 PUSH1 0x1 PUSH1 0xA0 SHL SUB DUP2 AND SWAP3 PUSH1 0x1 PUSH1 0xA0 SHL SWAP1 SWAP2 DIV SWAP1 SWAP2 AND SWAP1 DUP7 JUMP JUMPDEST PUSH1 0x40 MLOAD PUSH2 0x36F SWAP7 SWAP6 SWAP5 SWAP4 SWAP3 SWAP2 SWAP1 PUSH2 0x58AD JUMP JUMPDEST CALLVALUE DUP1 ISZERO PUSH2 0x82F JUMPI PUSH0 PUSH0 REVERT JUMPDEST POP PUSH2 0x3E7 PUSH2 0x83E CALLDATASIZE PUSH1 0x4 PUSH2 0x5241 JUMP JUMPDEST PUSH2 0x2D66 JUMP JUMPDEST CALLVALUE DUP1 ISZERO PUSH2 0x84E JUMPI PUSH0 PUSH0 REVERT JUMPDEST POP PUSH2 0x8A5 PUSH2 0x85D CALLDATASIZE PUSH1 0x4 PUSH2 0x5241 JUMP JUMPDEST PUSH1 0x13 PUSH1 0x20 MSTORE PUSH0 SWAP1 DUP2 MSTORE PUSH1 0x40 SWAP1 KECCAK256 DUP1 SLOAD PUSH1 0x1 DUP3 ADD SLOAD PUSH1 0x2 DUP4 ADD SLOAD PUSH1 0x3 SWAP1 SWAP4 ADD SLOAD PUSH1 0xFF DUP1 DUP5 AND SWAP5 PUSH2 0x100 SWAP1 SWAP5 DIV DUP2 AND SWAP4 PUSH1 0x1 PUSH1 0x1 PUSH1 0xA0 SHL SUB DUP2 AND SWAP3 PUSH1 0x1 PUSH1 0xA0 SHL SWAP1 SWAP2 DIV SWAP1 SWAP2 AND SWAP1 DUP7 JUMP JUMPDEST PUSH1 0x40 MLOAD PUSH2 0x36F SWAP7 SWAP6 SWAP5 SWAP4 SWAP3 SWAP2 SWAP1 PUSH2 0x58F2 JUMP JUMPDEST CALLVALUE DUP1 ISZERO PUSH2 0x8C2 JUMPI PUSH0 PUSH0 REVERT JUMPDEST POP PUSH2 0x682 PUSH2 0x8D1 CALLDATASIZE PUSH1 0x4 PUSH2 0x5241 JUMP JUMPDEST PUSH2 0x2EA8 JUMP JUMPDEST CALLVALUE DUP1 ISZERO PUSH2 0x8E1 JUMPI PUSH0 PUSH0 REVERT JUMPDEST POP PUSH2 0x3E7 PUSH2 0x8F0 CALLDATASIZE PUSH1 0x4 PUSH2 0x5241 JUMP JUMPDEST PUSH2 0x2EC7 JUMP JUMPDEST PUSH2 0x3E7 PUSH2 0x903 CALLDATASIZE PUSH1 0x4 PUSH2 0x5241 JUMP JUMPDEST PUSH2 0x2F8A JUMP JUMPDEST CALLVALUE DUP1 ISZERO PUSH2 0x913 JUMPI PUSH0 PUSH0 REVERT JUMPDEST POP PUSH2 0x65D PUSH2 0x922 CALLDATASIZE PUSH1 0x4 PUSH2 0x5926 JUMP JUMPDEST PUSH1 0x17 PUSH1 0x20 MSTORE PUSH0 SWAP1 DUP2 MSTORE PUSH1 0x40 SWAP1 KECCAK256 SLOAD PUSH1 0xFF AND DUP2 JUMP JUMPDEST CALLVALUE DUP1 ISZERO PUSH2 0x941 JUMPI PUSH0 PUSH0 REVERT JUMPDEST POP PUSH1 0x4 SLOAD PUSH2 0x408 SWAP1 PUSH1 0x1 PUSH1 0x1 PUSH1 0xA0 SHL SUB AND DUP2 JUMP JUMPDEST CALLVALUE DUP1 ISZERO PUSH2 0x960 JUMPI PUSH0 PUSH0 REVERT JUMPDEST POP PUSH2 0x3E7 PUSH2 0x96F CALLDATASIZE PUSH1 0x4 PUSH2 0x5494 JUMP JUMPDEST PUSH2 0x30BC JUMP JUMPDEST CALLVALUE DUP1 ISZERO PUSH2 0x97F JUMPI PUSH0 PUSH0 REVERT JUMPDEST POP PUSH2 0x682 PUSH1 0x11 SLOAD DUP2 JUMP JUMPDEST CALLVALUE DUP1 ISZERO PUSH2 0x994 JUMPI PUSH0 PUSH0 REVERT JUMPDEST POP PUSH2 0x362 PUSH2 0x9A3 CALLDATASIZE PUSH1 0x4 PUSH2 0x5241 JUMP JUMPDEST PUSH2 0x31C3 JUMP JUMPDEST CALLVALUE DUP1 ISZERO PUSH2 0x9B3 JUMPI PUSH0 PUSH0 REVERT JUMPDEST POP PUSH2 0x3E7 PUSH2 0x9C2 CALLDATASIZE PUSH1 0x4 PUSH2 0x543D JUMP JUMPDEST PUSH2 0x33B5 JUMP JUMPDEST CALLVALUE DUP1 ISZERO PUSH2 0x9D2 JUMPI PUSH0 PUSH0 REVERT JUMPDEST POP PUSH2 0x3E7 PUSH2 0x9E1 CALLDATASIZE PUSH1 0x4 PUSH2 0x5241 JUMP JUMPDEST PUSH2 0x341E JUMP JUMPDEST CALLVALUE DUP1 ISZERO PUSH2 0x9F1 JUMPI PUSH0 PUSH0 REVERT JUMPDEST POP PUSH2 0xA05 PUSH2 0xA00 CALLDATASIZE PUSH1 0x4 PUSH2 0x5241 JUMP JUMPDEST PUSH2 0x356C JUMP JUMPDEST PUSH1 0x40 MLOAD PUSH2 0x36F SWAP11 SWAP10 SWAP9 SWAP8 SWAP7 SWAP6 SWAP5 SWAP4 SWAP3 SWAP2 SWAP1 PUSH2 0x5941 JUMP JUMPDEST CALLVALUE DUP1 ISZERO PUSH2 0xA26 JUMPI PUSH0 PUSH0 REVERT JUMPDEST POP PUSH1 0xF SLOAD PUSH2 0x408 SWAP1 PUSH1 0x1 PUSH1 0x1 PUSH1 0xA0 SHL SUB AND DUP2 JUMP JUMPDEST CALLVALUE DUP1 ISZERO PUSH2 0xA45 JUMPI PUSH0 PUSH0 REVERT JUMPDEST POP PUSH2 0x3E7 PUSH2 0xA54 CALLDATASIZE PUSH1 0x4 PUSH2 0x5474 JUMP JUMPDEST PUSH2 0x3660 JUMP JUMPDEST CALLVALUE DUP1 ISZERO PUSH2 0xA64 JUMPI PUSH0 PUSH0 REVERT JUMPDEST POP PUSH1 0xB SLOAD PUSH2 0x408 SWAP1 PUSH1 0x1 PUSH1 0x1 PUSH1 0xA0 SHL SUB AND DUP2 JUMP JUMPDEST CALLVALUE DUP1 ISZERO PUSH2 0xA83 JUMPI PUSH0 PUSH0 REVERT JUMPDEST POP PUSH1 0x5 SLOAD PUSH2 0x408 SWAP1 PUSH1 0x1 PUSH1 0x1 PUSH1 0xA0 SHL SUB AND DUP2 JUMP JUMPDEST CALLVALUE DUP1 ISZERO PUSH2 0xAA2 JUMPI PUSH0 PUSH0 REVERT JUMPDEST POP PUSH1 0xE SLOAD PUSH2 0x408 SWAP1 PUSH1 0x1 PUSH1 0x1 PUSH1 0xA0 SHL SUB AND DUP2 JUMP JUMPDEST CALLVALUE DUP1 ISZERO PUSH2 0xAC1 JUMPI PUSH0 PUSH0 REVERT JUMPDEST POP PUSH2 0xAD5 PUSH2 0xAD0 CALLDATASIZE PUSH1 0x4 PUSH2 0x5241 JUMP JUMPDEST PUSH2 0x3783 JUMP JUMPDEST PUSH1 0x40 DUP1 MLOAD SWAP6 ISZERO ISZERO DUP7 MSTORE SWAP4 ISZERO ISZERO PUSH1 0x20 DUP7 ADD MSTORE SWAP3 DUP5 ADD SWAP2 SWAP1 SWAP2 MSTORE PUSH1 0x1 PUSH1 0x1 PUSH1 0xA0 SHL SUB AND PUSH1 0x60 DUP4 ADD MSTORE PUSH1 0x80 DUP3 ADD MSTORE PUSH1 0xA0 ADD PUSH2 0x36F JUMP JUMPDEST CALLVALUE DUP1 ISZERO PUSH2 0xB13 JUMPI PUSH0 PUSH0 REVERT JUMPDEST POP PUSH1 0x3 SLOAD PUSH2 0x65D SWAP1 PUSH1 0x1 PUSH1 0xA8 SHL SWAP1 DIV PUSH1 0xFF AND DUP2 JUMP JUMPDEST CALLVALUE DUP1 ISZERO PUSH2 0xB33 JUMPI PUSH0 PUSH0 REVERT JUMPDEST POP PUSH2 0x3E7 PUSH2 0xB42 CALLDATASIZE PUSH1 0x4 PUSH2 0x5474 JUMP JUMPDEST PUSH2 0x3961 JUMP JUMPDEST CALLVALUE DUP1 ISZERO PUSH2 0xB52 JUMPI PUSH0 PUSH0 REVERT JUMPDEST POP PUSH2 0x3E7 PUSH2 0xB61 CALLDATASIZE PUSH1 0x4 PUSH2 0x5798 JUMP JUMPDEST PUSH2 0x3A83 JUMP JUMPDEST CALLVALUE DUP1 ISZERO PUSH2 0xB71 JUMPI PUSH0 PUSH0 REVERT JUMPDEST POP PUSH1 0x10 SLOAD PUSH2 0x408 SWAP1 PUSH1 0x1 PUSH1 0x1 PUSH1 0xA0 SHL SUB AND DUP2 JUMP JUMPDEST CALLVALUE DUP1 ISZERO PUSH2 0xB90 JUMPI PUSH0 PUSH0 REVERT JUMPDEST POP PUSH1 0x3 SLOAD PUSH2 0x65D SWAP1 PUSH1 0x1 PUSH1 0xA0 SHL SWAP1 DIV PUSH1 0xFF AND DUP2 JUMP JUMPDEST CALLVALUE DUP1 ISZERO PUSH2 0xBB0 JUMPI PUSH0 PUSH0 REVERT JUMPDEST POP PUSH2 0x3E7 PUSH2 0xBBF CALLDATASIZE PUSH1 0x4 PUSH2 0x5241 JUMP JUMPDEST PUSH2 0x3BA6 JUMP JUMPDEST CALLVALUE DUP1 ISZERO PUSH2 0xBCF JUMPI PUSH0 PUSH0 REVERT JUMPDEST POP PUSH2 0x65D PUSH2 0xBDE CALLDATASIZE PUSH1 0x4 PUSH2 0x5926 JUMP JUMPDEST PUSH1 0x16 PUSH1 0x20 MSTORE PUSH0 SWAP1 DUP2 MSTORE PUSH1 0x40 SWAP1 KECCAK256 SLOAD PUSH1 0xFF AND DUP2 JUMP JUMPDEST CALLVALUE DUP1 ISZERO PUSH2 0xBFD JUMPI PUSH0 PUSH0 REVERT JUMPDEST POP PUSH2 0x3E7 PUSH2 0xC0C CALLDATASIZE PUSH1 0x4 PUSH2 0x5241 JUMP JUMPDEST PUSH2 0x42A5 JUMP JUMPDEST PUSH2 0xC19 PUSH2 0x5131 JUMP JUMPDEST PUSH0 DUP3 DUP2 MSTORE PUSH1 0x12 PUSH1 0x20 SWAP1 DUP2 MSTORE PUSH1 0x40 SWAP2 DUP3 SWAP1 KECCAK256 DUP3 MLOAD PUSH2 0x140 DUP2 ADD DUP5 MSTORE DUP2 SLOAD DUP2 MSTORE PUSH1 0x1 DUP3 ADD SLOAD PUSH1 0x1 PUSH1 0x1 PUSH1 0xA0 SHL SUB AND SWAP3 DUP2 ADD SWAP3 SWAP1 SWAP3 MSTORE PUSH1 0x2 DUP2 ADD SLOAD SWAP3 DUP3 ADD SWAP3 SWAP1 SWAP3 MSTORE PUSH1 0x3 DUP3 ADD SLOAD PUSH1 0x60 DUP3 ADD MSTORE PUSH1 0x4 DUP3 ADD SLOAD SWAP1 SWAP2 SWAP1 PUSH1 0x80 DUP4 ADD SWAP1 PUSH1 0xFF AND DUP1 ISZERO PUSH2 0xC80 JUMPI PUSH2 0xC80 PUSH2 0x5258 JUMP JUMPDEST DUP1 ISZERO PUSH2 0xC8E JUMPI PUSH2 0xC8E PUSH2 0x5258 JUMP JUMPDEST DUP2 MSTORE PUSH1 0x20 ADD PUSH1 0x4 DUP3 ADD PUSH1 0x1 SWAP1 SLOAD SWAP1 PUSH2 0x100 EXP SWAP1 DIV PUSH1 0xFF AND PUSH1 0x2 DUP2 GT ISZERO PUSH2 0xCB6 JUMPI PUSH2 0xCB6 PUSH2 0x5258 JUMP JUMPDEST PUSH1 0x2 DUP2 GT ISZERO PUSH2 0xCC7 JUMPI PUSH2 0xCC7 PUSH2 0x5258 JUMP JUMPDEST DUP2 MSTORE PUSH1 0x4 DUP3 ADD SLOAD PUSH1 0xFF PUSH3 0x10000 DUP3 DIV DUP2 AND ISZERO ISZERO PUSH1 0x20 DUP5 ADD MSTORE PUSH4 0x1000000 SWAP1 SWAP2 DIV AND ISZERO ISZERO PUSH1 0x40 DUP3 ADD MSTORE PUSH1 0x5 DUP3 ADD DUP1 SLOAD PUSH1 0x60 SWAP1 SWAP3 ADD SWAP2 PUSH2 0xD04 SWAP1 PUSH2 0x59BD JUMP JUMPDEST DUP1 PUSH1 0x1F ADD PUSH1 0x20 DUP1 SWAP2 DIV MUL PUSH1 0x20 ADD PUSH1 0x40 MLOAD SWAP1 DUP2 ADD PUSH1 0x40 MSTORE DUP1 SWAP3 SWAP2 SWAP1 DUP2 DUP2 MSTORE PUSH1 0x20 ADD DUP3 DUP1 SLOAD PUSH2 0xD30 SWAP1 PUSH2 0x59BD JUMP JUMPDEST DUP1 ISZERO PUSH2 0xD7B JUMPI DUP1 PUSH1 0x1F LT PUSH2 0xD52 JUMPI PUSH2 0x100 DUP1 DUP4 SLOAD DIV MUL DUP4 MSTORE SWAP2 PUSH1 0x20 ADD SWAP2 PUSH2 0xD7B JUMP JUMPDEST DUP3 ADD SWAP2 SWAP1 PUSH0 MSTORE PUSH1 0x20 PUSH0 KECCAK256 SWAP1 JUMPDEST DUP2 SLOAD DUP2 MSTORE SWAP1 PUSH1 0x1 ADD SWAP1 PUSH1 0x20 ADD DUP1 DUP4 GT PUSH2 0xD5E JUMPI DUP3 SWAP1 SUB PUSH1 0x1F AND DUP3 ADD SWAP2 JUMPDEST POP POP POP SWAP2 DUP4 MSTORE POP POP PUSH1 0x6 SWAP2 SWAP1 SWAP2 ADD SLOAD PUSH1 0xFF AND ISZERO ISZERO PUSH1 0x20 SWAP1 SWAP2 ADD MSTORE SWAP3 SWAP2 POP POP JUMP JUMPDEST PUSH1 0x2 SLOAD PUSH1 0x1 PUSH1 0x1 PUSH1 0xA0 SHL SUB AND CALLER EQ DUP1 PUSH2 0xDBE JUMPI POP PUSH1 0x3 SLOAD PUSH1 0x1 PUSH1 0x1 PUSH1 0xA0 SHL SUB AND CALLER EQ JUMPDEST PUSH2 0xDE3 JUMPI PUSH1 0x40 MLOAD PUSH3 0x461BCD PUSH1 0xE5 SHL DUP2 MSTORE PUSH1 0x4 ADD PUSH2 0xDDA SWAP1 PUSH2 0x59F5 JUMP JUMPDEST PUSH1 0x40 MLOAD DUP1 SWAP2 SUB SWAP1 REVERT JUMPDEST PUSH2 0xDEB PUSH2 0x4342 JUMP JUMPDEST PUSH2 0xDF3 PUSH2 0x436C JUMP JUMPDEST PUSH2 0xDFC PUSH1 0x1 DUP1 SSTORE JUMP JUMPDEST JUMP JUMPDEST PUSH1 0x2 SLOAD PUSH1 0x1 PUSH1 0x1 PUSH1 0xA0 SHL SUB AND CALLER EQ DUP1 PUSH2 0xE21 JUMPI POP PUSH1 0x3 SLOAD PUSH1 0x1 PUSH1 0x1 PUSH1 0xA0 SHL SUB AND CALLER EQ JUMPDEST PUSH2 0xE3D JUMPI PUSH1 0x40 MLOAD PUSH3 0x461BCD PUSH1 0xE5 SHL DUP2 MSTORE PUSH1 0x4 ADD PUSH2 0xDDA SWAP1 PUSH2 0x59F5 JUMP JUMPDEST PUSH2 0xE45 PUSH2 0x4342 JUMP JUMPDEST PUSH2 0xE4D PUSH2 0x43B7 JUMP JUMPDEST PUSH0 DUP2 DUP2 MSTORE PUSH1 0x19 PUSH1 0x20 MSTORE PUSH1 0x40 DUP2 KECCAK256 SWAP1 DUP2 SSTORE PUSH1 0x1 ADD DUP1 SLOAD PUSH2 0xFFFF NOT AND SWAP1 SSTORE PUSH2 0xE72 PUSH1 0x1 DUP1 SSTORE JUMP JUMPDEST POP JUMP JUMPDEST PUSH1 0x60 PUSH0 DUP1 JUMPDEST PUSH1 0xB DUP2 LT DUP1 ISZERO PUSH2 0xE8B JUMPI POP PUSH1 0x15 SLOAD DUP2 LT JUMPDEST ISZERO PUSH2 0x1059 JUMPI PUSH0 PUSH1 0x15 DUP3 DUP2 SLOAD DUP2 LT PUSH2 0xEA4 JUMPI PUSH2 0xEA4 PUSH2 0x5A1B JUMP JUMPDEST PUSH0 SWAP2 DUP3 MSTORE PUSH1 0x20 DUP1 DUP4 KECCAK256 SWAP1 SWAP2 ADD SLOAD DUP1 DUP4 MSTORE PUSH1 0x12 DUP3 MSTORE PUSH1 0x40 DUP1 DUP5 KECCAK256 DUP2 MLOAD PUSH2 0x140 DUP2 ADD DUP4 MSTORE DUP2 SLOAD DUP2 MSTORE PUSH1 0x1 DUP3 ADD SLOAD PUSH1 0x1 PUSH1 0x1 PUSH1 0xA0 SHL SUB AND SWAP5 DUP2 ADD SWAP5 SWAP1 SWAP5 MSTORE PUSH1 0x2 DUP2 ADD SLOAD SWAP2 DUP5 ADD SWAP2 SWAP1 SWAP2 MSTORE PUSH1 0x3 DUP2 ADD SLOAD PUSH1 0x60 DUP5 ADD MSTORE PUSH1 0x4 DUP2 ADD SLOAD SWAP2 SWAP5 POP SWAP1 PUSH1 0x80 DUP4 ADD SWAP1 PUSH1 0xFF AND DUP1 ISZERO PUSH2 0xF14 JUMPI PUSH2 0xF14 PUSH2 0x5258 JUMP JUMPDEST DUP1 ISZERO PUSH2 0xF22 JUMPI PUSH2 0xF22 PUSH2 0x5258 JUMP JUMPDEST DUP2 MSTORE PUSH1 0x20 ADD PUSH1 0x4 DUP3 ADD PUSH1 0x1 SWAP1 SLOAD SWAP1 PUSH2 0x100 EXP SWAP1 DIV PUSH1 0xFF AND PUSH1 0x2 DUP2 GT ISZERO PUSH2 0xF4A JUMPI PUSH2 0xF4A PUSH2 0x5258 JUMP JUMPDEST PUSH1 0x2 DUP2 GT ISZERO PUSH2 0xF5B JUMPI PUSH2 0xF5B PUSH2 0x5258 JUMP JUMPDEST DUP2 MSTORE PUSH1 0x4 DUP3 ADD SLOAD PUSH1 0xFF PUSH3 0x10000 DUP3 DIV DUP2 AND ISZERO ISZERO PUSH1 0x20 DUP5 ADD MSTORE PUSH4 0x1000000 SWAP1 SWAP2 DIV AND ISZERO ISZERO PUSH1 0x40 DUP3 ADD MSTORE PUSH1 0x5 DUP3 ADD DUP1 SLOAD PUSH1 0x60 SWAP1 SWAP3 ADD SWAP2 PUSH2 0xF98 SWAP1 PUSH2 0x59BD JUMP JUMPDEST DUP1 PUSH1 0x1F ADD PUSH1 0x20 DUP1 SWAP2 DIV MUL PUSH1 0x20 ADD PUSH1 0x40 MLOAD SWAP1 DUP2 ADD PUSH1 0x40 MSTORE DUP1 SWAP3 SWAP2 SWAP1 DUP2 DUP2 MSTORE PUSH1 0x20 ADD DUP3 DUP1 SLOAD PUSH2 0xFC4 SWAP1 PUSH2 0x59BD JUMP JUMPDEST DUP1 ISZERO PUSH2 0x100F JUMPI DUP1 PUSH1 0x1F LT PUSH2 0xFE6 JUMPI PUSH2 0x100 DUP1 DUP4 SLOAD DIV MUL DUP4 MSTORE SWAP2 PUSH1 0x20 ADD SWAP2 PUSH2 0x100F JUMP JUMPDEST DUP3 ADD SWAP2 SWAP1 PUSH0 MSTORE PUSH1 0x20 PUSH0 KECCAK256 SWAP1 JUMPDEST DUP2 SLOAD DUP2 MSTORE SWAP1 PUSH1 0x1 ADD SWAP1 PUSH1 0x20 ADD DUP1 DUP4 GT PUSH2 0xFF2 JUMPI DUP3 SWAP1 SUB PUSH1 0x1F AND DUP3 ADD SWAP2 JUMPDEST POP POP POP SWAP2 DUP4 MSTORE POP POP PUSH1 0x6 SWAP2 SWAP1 SWAP2 ADD SLOAD PUSH1 0xFF AND ISZERO ISZERO PUSH1 0x20 SWAP1 SWAP2 ADD MSTORE PUSH1 0x40 DUP2 ADD MLOAD SWAP1 SWAP2 POP ISZERO PUSH2 0x1044 JUMPI DUP4 PUSH2 0x1040 DUP2 PUSH2 0x5A43 JUMP JUMPDEST SWAP5 POP POP JUMPDEST POP POP DUP1 DUP1 PUSH2 0x1051 SWAP1 PUSH2 0x5A43 JUMP JUMPDEST SWAP2 POP POP PUSH2 0xE7A JUMP JUMPDEST POP DUP1 PUSH1 0x1 PUSH1 0x1 PUSH1 0x40 SHL SUB DUP2 GT ISZERO PUSH2 0x1072 JUMPI PUSH2 0x1072 PUSH2 0x555E JUMP JUMPDEST PUSH1 0x40 MLOAD SWAP1 DUP1 DUP3 MSTORE DUP1 PUSH1 0x20 MUL PUSH1 0x20 ADD DUP3 ADD PUSH1 0x40 MSTORE DUP1 ISZERO PUSH2 0x10AB JUMPI DUP2 PUSH1 0x20 ADD JUMPDEST PUSH2 0x1098 PUSH2 0x5131 JUMP JUMPDEST DUP2 MSTORE PUSH1 0x20 ADD SWAP1 PUSH1 0x1 SWAP1 SUB SWAP1 DUP2 PUSH2 0x1090 JUMPI SWAP1 POP JUMPDEST POP SWAP2 POP PUSH0 SWAP1 POP DUP1 JUMPDEST PUSH1 0xB DUP2 LT DUP1 ISZERO PUSH2 0x10C4 JUMPI POP PUSH1 0x15 SLOAD DUP2 LT JUMPDEST ISZERO PUSH2 0x12B1 JUMPI PUSH0 PUSH1 0x15 DUP3 DUP2 SLOAD DUP2 LT PUSH2 0x10DD JUMPI PUSH2 0x10DD PUSH2 0x5A1B JUMP JUMPDEST PUSH0 SWAP2 DUP3 MSTORE PUSH1 0x20 DUP1 DUP4 KECCAK256 SWAP1 SWAP2 ADD SLOAD DUP1 DUP4 MSTORE PUSH1 0x12 DUP3 MSTORE PUSH1 0x40 DUP1 DUP5 KECCAK256 DUP2 MLOAD PUSH2 0x140 DUP2 ADD DUP4 MSTORE DUP2 SLOAD DUP2 MSTORE PUSH1 0x1 DUP3 ADD SLOAD PUSH1 0x1 PUSH1 0x1 PUSH1 0xA0 SHL SUB AND SWAP5 DUP2 ADD SWAP5 SWAP1 SWAP5 MSTORE PUSH1 0x2 DUP2 ADD SLOAD SWAP2 DUP5 ADD SWAP2 SWAP1 SWAP2 MSTORE PUSH1 0x3 DUP2 ADD SLOAD PUSH1 0x60 DUP5 ADD MSTORE PUSH1 0x4 DUP2 ADD SLOAD SWAP2 SWAP5 POP SWAP1 PUSH1 0x80 DUP4 ADD SWAP1 PUSH1 0xFF AND DUP1 ISZERO PUSH2 0x114D JUMPI PUSH2 0x114D PUSH2 0x5258 JUMP JUMPDEST DUP1 ISZERO PUSH2 0x115B JUMPI PUSH2 0x115B PUSH2 0x5258 JUMP JUMPDEST DUP2 MSTORE PUSH1 0x20 ADD PUSH1 0x4 DUP3 ADD PUSH1 0x1 SWAP1 SLOAD SWAP1 PUSH2 0x100 EXP SWAP1 DIV PUSH1 0xFF AND PUSH1 0x2 DUP2 GT ISZERO PUSH2 0x1183 JUMPI PUSH2 0x1183 PUSH2 0x5258 JUMP JUMPDEST PUSH1 0x2 DUP2 GT ISZERO PUSH2 0x1194 JUMPI PUSH2 0x1194 PUSH2 0x5258 JUMP JUMPDEST DUP2 MSTORE PUSH1 0x4 DUP3 ADD SLOAD PUSH1 0xFF PUSH3 0x10000 DUP3 DIV DUP2 AND ISZERO ISZERO PUSH1 0x20 DUP5 ADD MSTORE PUSH4 0x1000000 SWAP1 SWAP2 DIV AND ISZERO ISZERO PUSH1 0x40 DUP3 ADD MSTORE PUSH1 0x5 DUP3 ADD DUP1 SLOAD PUSH1 0x60 SWAP1 SWAP3 ADD SWAP2 PUSH2 0x11D1 SWAP1 PUSH2 0x59BD JUMP JUMPDEST DUP1 PUSH1 0x1F ADD PUSH1 0x20 DUP1 SWAP2 DIV MUL PUSH1 0x20 ADD PUSH1 0x40 MLOAD SWAP1 DUP2 ADD PUSH1 0x40 MSTORE DUP1 SWAP3 SWAP2 SWAP1 DUP2 DUP2 MSTORE PUSH1 0x20 ADD DUP3 DUP1 SLOAD PUSH2 0x11FD SWAP1 PUSH2 0x59BD JUMP JUMPDEST DUP1 ISZERO PUSH2 0x1248 JUMPI DUP1 PUSH1 0x1F LT PUSH2 0x121F JUMPI PUSH2 0x100 DUP1 DUP4 SLOAD DIV MUL DUP4 MSTORE SWAP2 PUSH1 0x20 ADD SWAP2 PUSH2 0x1248 JUMP JUMPDEST DUP3 ADD SWAP2 SWAP1 PUSH0 MSTORE PUSH1 0x20 PUSH0 KECCAK256 SWAP1 JUMPDEST DUP2 SLOAD DUP2 MSTORE SWAP1 PUSH1 0x1 ADD SWAP1 PUSH1 0x20 ADD DUP1 DUP4 GT PUSH2 0x122B JUMPI DUP3 SWAP1 SUB PUSH1 0x1F AND DUP3 ADD SWAP2 JUMPDEST POP POP POP SWAP2 DUP4 MSTORE POP POP PUSH1 0x6 SWAP2 SWAP1 SWAP2 ADD SLOAD PUSH1 0xFF AND ISZERO ISZERO PUSH1 0x20 SWAP1 SWAP2 ADD MSTORE PUSH1 0x40 DUP2 ADD MLOAD SWAP1 SWAP2 POP ISZERO PUSH2 0x129C JUMPI DUP1 DUP6 DUP6 DUP2 MLOAD DUP2 LT PUSH2 0x1282 JUMPI PUSH2 0x1282 PUSH2 0x5A1B JUMP JUMPDEST PUSH1 0x20 MUL PUSH1 0x20 ADD ADD DUP2 SWAP1 MSTORE POP DUP4 DUP1 PUSH2 0x1298 SWAP1 PUSH2 0x5A43 JUMP JUMPDEST SWAP5 POP POP JUMPDEST POP POP DUP1 DUP1 PUSH2 0x12A9 SWAP1 PUSH2 0x5A43 JUMP JUMPDEST SWAP2 POP POP PUSH2 0x10B3 JUMP JUMPDEST POP POP SWAP1 JUMP JUMPDEST CALLER PUSH0 SWAP1 DUP2 MSTORE PUSH1 0x16 PUSH1 0x20 MSTORE PUSH1 0x40 SWAP1 KECCAK256 SLOAD PUSH1 0xFF AND PUSH2 0x12E4 JUMPI PUSH1 0x40 MLOAD PUSH3 0x461BCD PUSH1 0xE5 SHL DUP2 MSTORE PUSH1 0x4 ADD PUSH2 0xDDA SWAP1 PUSH2 0x5A5B JUMP JUMPDEST PUSH2 0x12EC PUSH2 0x4342 JUMP JUMPDEST PUSH2 0x12F4 PUSH2 0x43B7 JUMP JUMPDEST PUSH1 0x1 PUSH1 0x1 PUSH1 0xA0 SHL SUB DUP3 AND PUSH0 SWAP1 DUP2 MSTORE PUSH1 0x16 PUSH1 0x20 MSTORE PUSH1 0x40 SWAP1 KECCAK256 DUP1 SLOAD PUSH1 0xFF NOT AND DUP3 ISZERO ISZERO OR SWAP1 SSTORE PUSH1 0x1 DUP1 SSTORE POP POP JUMP JUMPDEST POP POP JUMP JUMPDEST PUSH1 0x2 SLOAD PUSH1 0x1 PUSH1 0x1 PUSH1 0xA0 SHL SUB AND CALLER EQ DUP1 PUSH2 0x1346 JUMPI POP PUSH1 0x3 SLOAD PUSH1 0x1 PUSH1 0x1 PUSH1 0xA0 SHL SUB AND CALLER EQ JUMPDEST PUSH2 0x1362 JUMPI PUSH1 0x40 MLOAD PUSH3 0x461BCD PUSH1 0xE5 SHL DUP2 MSTORE PUSH1 0x4 ADD PUSH2 0xDDA SWAP1 PUSH2 0x59F5 JUMP JUMPDEST PUSH2 0x136A PUSH2 0x43B7 JUMP JUMPDEST PUSH0 DUP1 DUP1 JUMPDEST PUSH1 0x15 SLOAD DUP2 LT ISZERO PUSH2 0x13AE JUMPI DUP4 PUSH1 0x15 DUP3 DUP2 SLOAD DUP2 LT PUSH2 0x138C JUMPI PUSH2 0x138C PUSH2 0x5A1B JUMP JUMPDEST SWAP1 PUSH0 MSTORE PUSH1 0x20 PUSH0 KECCAK256 ADD SLOAD SUB PUSH2 0x13A6 JUMPI DUP1 SWAP3 POP PUSH1 0x1 SWAP2 POP PUSH2 0x13AE JUMP JUMPDEST PUSH1 0x1 ADD PUSH2 0x136E JUMP JUMPDEST POP DUP1 PUSH2 0x13FA JUMPI PUSH1 0x40 MLOAD PUSH3 0x461BCD PUSH1 0xE5 SHL DUP2 MSTORE PUSH1 0x20 PUSH1 0x4 DUP3 ADD MSTORE PUSH1 0x1B PUSH1 0x24 DUP3 ADD MSTORE PUSH27 0x13DC99195C881B9BDD08199BDD5B99081A5B881D1A19481B1A5CDD PUSH1 0x2A SHL PUSH1 0x44 DUP3 ADD MSTORE PUSH1 0x64 ADD PUSH2 0xDDA JUMP JUMPDEST PUSH0 DUP4 DUP2 MSTORE PUSH1 0x13 PUSH1 0x20 SWAP1 DUP2 MSTORE PUSH1 0x40 DUP1 DUP4 KECCAK256 DUP1 SLOAD PUSH2 0xFFFF NOT SWAP1 DUP2 AND DUP3 SSTORE PUSH1 0x1 DUP1 DUP4 ADD DUP7 SWAP1 SSTORE PUSH1 0x2 DUP1 DUP5 ADD DUP1 SLOAD PUSH1 0x1 PUSH1 0x1 PUSH1 0xA8 SHL SUB NOT SWAP1 DUP2 AND SWAP1 SWAP2 SSTORE PUSH1 0x3 SWAP5 DUP6 ADD DUP9 SWAP1 SSTORE PUSH1 0x14 SWAP1 SWAP7 MSTORE SWAP4 DUP7 KECCAK256 DUP1 SLOAD SWAP1 SWAP3 AND DUP3 SSTORE DUP2 ADD DUP6 SWAP1 SSTORE SWAP2 DUP3 ADD DUP1 SLOAD SWAP1 SWAP4 AND SWAP1 SWAP3 SSTORE ADD SSTORE DUP2 JUMPDEST PUSH1 0x15 SLOAD PUSH2 0x146D SWAP1 PUSH1 0x1 SWAP1 PUSH2 0x5A83 JUMP JUMPDEST DUP2 LT ISZERO PUSH2 0x14C0 JUMPI PUSH1 0x15 PUSH2 0x1481 DUP3 PUSH1 0x1 PUSH2 0x5A9C JUMP JUMPDEST DUP2 SLOAD DUP2 LT PUSH2 0x1491 JUMPI PUSH2 0x1491 PUSH2 0x5A1B JUMP JUMPDEST SWAP1 PUSH0 MSTORE PUSH1 0x20 PUSH0 KECCAK256 ADD SLOAD PUSH1 0x15 DUP3 DUP2 SLOAD DUP2 LT PUSH2 0x14AD JUMPI PUSH2 0x14AD PUSH2 0x5A1B JUMP JUMPDEST PUSH0 SWAP2 DUP3 MSTORE PUSH1 0x20 SWAP1 SWAP2 KECCAK256 ADD SSTORE PUSH1 0x1 ADD PUSH2 0x145E JUMP JUMPDEST POP PUSH1 0x15 DUP1 SLOAD DUP1 PUSH2 0x14D2 JUMPI PUSH2 0x14D2 PUSH2 0x5AAF JUMP JUMPDEST PUSH1 0x1 SWAP1 SUB DUP2 DUP2 SWAP1 PUSH0 MSTORE PUSH1 0x20 PUSH0 KECCAK256 ADD PUSH0 SWAP1 SSTORE SWAP1 SSTORE POP POP POP JUMP JUMPDEST PUSH1 0x2 SLOAD PUSH1 0x1 PUSH1 0x1 PUSH1 0xA0 SHL SUB AND CALLER EQ DUP1 PUSH2 0x150D JUMPI POP PUSH1 0x3 SLOAD PUSH1 0x1 PUSH1 0x1 PUSH1 0xA0 SHL SUB AND CALLER EQ JUMPDEST PUSH2 0x1529 JUMPI PUSH1 0x40 MLOAD PUSH3 0x461BCD PUSH1 0xE5 SHL DUP2 MSTORE PUSH1 0x4 ADD PUSH2 0xDDA SWAP1 PUSH2 0x59F5 JUMP JUMPDEST PUSH2 0x1531 PUSH2 0x4342 JUMP JUMPDEST PUSH2 0x1539 PUSH2 0x43B7 JUMP JUMPDEST DUP1 DUP3 PUSH2 0x1545 DUP3 DUP3 PUSH2 0x5AC3 JUMP JUMPDEST PUSH2 0x154F SWAP2 SWAP1 PUSH2 0x5ADA JUMP JUMPDEST EQ PUSH2 0x156C JUMPI PUSH1 0x40 MLOAD PUSH3 0x461BCD PUSH1 0xE5 SHL DUP2 MSTORE PUSH1 0x4 ADD PUSH2 0xDDA SWAP1 PUSH2 0x5AF9 JUMP JUMPDEST PUSH1 0xA SLOAD PUSH1 0x40 DUP1 MLOAD PUSH4 0xF1BA053 PUSH1 0xE3 SHL DUP2 MSTORE SWAP1 MLOAD PUSH0 SWAP3 PUSH1 0x1 PUSH1 0x1 PUSH1 0xA0 SHL SUB AND SWAP2 PUSH4 0x78DD0298 SWAP2 PUSH1 0x4 DUP1 DUP4 ADD SWAP3 PUSH1 0x20 SWAP3 SWAP2 SWAP1 DUP3 SWAP1 SUB ADD DUP2 DUP8 DUP8 GAS CALL ISZERO DUP1 ISZERO PUSH2 0x15B4 JUMPI RETURNDATASIZE PUSH0 PUSH0 RETURNDATACOPY RETURNDATASIZE PUSH0 REVERT JUMPDEST POP POP POP POP PUSH1 0x40 MLOAD RETURNDATASIZE PUSH1 0x1F NOT PUSH1 0x1F DUP3 ADD AND DUP3 ADD DUP1 PUSH1 0x40 MSTORE POP DUP2 ADD SWAP1 PUSH2 0x15D8 SWAP2 SWAP1 PUSH2 0x5B25 JUMP JUMPDEST PUSH1 0x40 DUP1 MLOAD PUSH2 0x140 DUP2 ADD DUP3 MSTORE DUP3 DUP2 MSTORE ADDRESS PUSH1 0x20 DUP3 ADD MSTORE SWAP1 DUP2 ADD DUP6 SWAP1 MSTORE PUSH1 0x60 DUP2 ADD DUP5 SWAP1 MSTORE SWAP1 SWAP2 POP PUSH1 0x80 DUP2 ADD PUSH0 DUP2 MSTORE PUSH1 0x20 ADD PUSH1 0x2 JUMPDEST DUP2 MSTORE PUSH0 PUSH1 0x20 DUP1 DUP4 ADD DUP3 SWAP1 MSTORE PUSH1 0x40 DUP1 DUP5 ADD DUP4 SWAP1 MSTORE DUP1 MLOAD DUP1 DUP3 ADD DUP3 MSTORE PUSH1 0x3 DUP1 DUP3 MSTORE PUSH3 0x427579 PUSH1 0xE8 SHL DUP3 DUP6 ADD MSTORE PUSH1 0x60 DUP1 DUP8 ADD SWAP3 SWAP1 SWAP3 MSTORE PUSH1 0x80 SWAP6 DUP7 ADD DUP6 SWAP1 MSTORE DUP8 DUP6 MSTORE PUSH1 0x12 DUP5 MSTORE SWAP4 DUP3 SWAP1 KECCAK256 DUP7 MLOAD DUP2 SSTORE SWAP3 DUP7 ADD MLOAD PUSH1 0x1 DUP1 DUP6 ADD DUP1 SLOAD PUSH1 0x1 PUSH1 0x1 PUSH1 0xA0 SHL SUB NOT AND PUSH1 0x1 PUSH1 0x1 PUSH1 0xA0 SHL SUB SWAP1 SWAP4 AND SWAP3 SWAP1 SWAP3 OR SWAP1 SWAP2 SSTORE SWAP2 DUP7 ADD MLOAD PUSH1 0x2 DUP5 ADD SSTORE DUP6 ADD MLOAD SWAP3 DUP3 ADD SWAP3 SWAP1 SWAP3 SSTORE SWAP2 DUP4 ADD MLOAD PUSH1 0x4 DUP4 ADD DUP1 SLOAD SWAP2 SWAP3 SWAP1 SWAP2 PUSH1 0xFF NOT AND SWAP1 DUP4 DUP1 ISZERO PUSH2 0x16AF JUMPI PUSH2 0x16AF PUSH2 0x5258 JUMP JUMPDEST MUL OR SWAP1 SSTORE POP PUSH1 0xA0 DUP3 ADD MLOAD PUSH1 0x4 DUP3 ADD DUP1 SLOAD PUSH2 0xFF00 NOT AND PUSH2 0x100 DUP4 PUSH1 0x2 DUP2 GT ISZERO PUSH2 0x16D9 JUMPI PUSH2 0x16D9 PUSH2 0x5258 JUMP JUMPDEST MUL OR SWAP1 SSTORE POP PUSH1 0xC0 DUP3 ADD MLOAD PUSH1 0x4 DUP3 ADD DUP1 SLOAD PUSH1 0xE0 DUP6 ADD MLOAD ISZERO ISZERO PUSH4 0x1000000 MUL PUSH4 0xFF000000 NOT SWAP4 ISZERO ISZERO PUSH3 0x10000 MUL SWAP4 SWAP1 SWAP4 AND PUSH4 0xFFFF0000 NOT SWAP1 SWAP2 AND OR SWAP2 SWAP1 SWAP2 OR SWAP1 SSTORE PUSH2 0x100 DUP3 ADD MLOAD PUSH1 0x5 DUP3 ADD SWAP1 PUSH2 0x172D SWAP1 DUP3 PUSH2 0x5B87 JUMP JUMPDEST POP PUSH2 0x120 SWAP2 SWAP1 SWAP2 ADD MLOAD PUSH1 0x6 SWAP1 SWAP2 ADD DUP1 SLOAD SWAP2 ISZERO ISZERO PUSH1 0xFF NOT SWAP1 SWAP3 AND SWAP2 SWAP1 SWAP2 OR SWAP1 SSTORE PUSH1 0x15 DUP1 SLOAD PUSH1 0x1 DUP2 ADD DUP3 SSTORE PUSH0 SWAP2 SWAP1 SWAP2 MSTORE PUSH0 MLOAD PUSH1 0x20 PUSH2 0x5F28 PUSH0 CODECOPY PUSH0 MLOAD SWAP1 PUSH0 MSTORE ADD SSTORE PUSH2 0x131F PUSH1 0x1 DUP1 SSTORE JUMP JUMPDEST PUSH1 0x2 SLOAD PUSH1 0x1 PUSH1 0x1 PUSH1 0xA0 SHL SUB AND CALLER EQ DUP1 PUSH2 0x1797 JUMPI POP PUSH1 0x3 SLOAD PUSH1 0x1 PUSH1 0x1 PUSH1 0xA0 SHL SUB AND CALLER EQ JUMPDEST PUSH2 0x17B3 JUMPI PUSH1 0x40 MLOAD PUSH3 0x461BCD PUSH1 0xE5 SHL DUP2 MSTORE PUSH1 0x4 ADD PUSH2 0xDDA SWAP1 PUSH2 0x59F5 JUMP JUMPDEST PUSH2 0x17BB PUSH2 0x4342 JUMP JUMPDEST PUSH2 0x17C3 PUSH2 0x43B7 JUMP JUMPDEST PUSH1 0x15 SLOAD PUSH1 0x40 DUP1 MLOAD PUSH1 0xC0 DUP2 ADD DUP3 MSTORE PUSH0 DUP1 DUP3 MSTORE PUSH1 0x20 DUP3 ADD MSTORE SWAP1 DUP2 ADD DUP4 SWAP1 MSTORE PUSH1 0x1 PUSH1 0x1 PUSH1 0xA0 SHL SUB DUP5 AND PUSH1 0x60 DUP3 ADD MSTORE PUSH1 0x80 DUP2 ADD PUSH1 0x2 JUMPDEST DUP2 MSTORE PUSH1 0x20 SWAP1 DUP2 ADD DUP4 SWAP1 MSTORE PUSH0 DUP4 DUP2 MSTORE PUSH1 0x13 DUP3 MSTORE PUSH1 0x40 SWAP1 DUP2 SWAP1 KECCAK256 DUP4 MLOAD DUP2 SLOAD SWAP4 DUP6 ADD MLOAD ISZERO ISZERO PUSH2 0x100 MUL PUSH2 0xFF00 NOT SWAP2 ISZERO ISZERO SWAP2 SWAP1 SWAP2 AND PUSH2 0xFFFF NOT SWAP1 SWAP5 AND SWAP4 SWAP1 SWAP4 OR SWAP3 SWAP1 SWAP3 OR DUP3 SSTORE DUP3 ADD MLOAD PUSH1 0x1 DUP3 ADD SSTORE PUSH1 0x60 DUP3 ADD MLOAD PUSH1 0x2 DUP1 DUP4 ADD DUP1 SLOAD PUSH1 0x1 PUSH1 0x1 PUSH1 0xA0 SHL SUB SWAP1 SWAP4 AND PUSH1 0x1 PUSH1 0x1 PUSH1 0xA0 SHL SUB NOT DUP5 AND DUP2 OR DUP3 SSTORE PUSH1 0x80 DUP7 ADD MLOAD SWAP4 SWAP2 SWAP3 PUSH1 0x1 PUSH1 0x1 PUSH1 0xA8 SHL SUB NOT SWAP1 SWAP3 AND OR SWAP1 PUSH1 0x1 PUSH1 0xA0 SHL SWAP1 DUP5 SWAP1 DUP2 GT ISZERO PUSH2 0x1892 JUMPI PUSH2 0x1892 PUSH2 0x5258 JUMP JUMPDEST MUL OR SWAP1 SSTORE POP PUSH1 0xA0 SWAP2 SWAP1 SWAP2 ADD MLOAD PUSH1 0x3 SWAP1 SWAP2 ADD SSTORE PUSH1 0x15 DUP1 SLOAD PUSH1 0x1 DUP2 ADD DUP3 SSTORE PUSH0 SWAP2 SWAP1 SWAP2 MSTORE PUSH0 MLOAD PUSH1 0x20 PUSH2 0x5F28 PUSH0 CODECOPY PUSH0 MLOAD SWAP1 PUSH0 MSTORE ADD SSTORE PUSH2 0x131F PUSH1 0x1 DUP1 SSTORE JUMP JUMPDEST PUSH1 0x60 DUP1 PUSH0 DUP1 JUMPDEST PUSH1 0x18 SLOAD DUP2 LT ISZERO PUSH2 0x192D JUMPI PUSH0 DUP2 DUP2 MSTORE PUSH1 0x19 PUSH1 0x20 MSTORE PUSH1 0x40 SWAP1 KECCAK256 PUSH1 0x1 ADD SLOAD PUSH1 0xFF AND ISZERO DUP1 PUSH2 0x1912 JUMPI POP PUSH0 DUP2 DUP2 MSTORE PUSH1 0x19 PUSH1 0x20 MSTORE PUSH1 0x40 SWAP1 KECCAK256 PUSH1 0x1 ADD SLOAD PUSH2 0x100 SWAP1 DIV PUSH1 0xFF AND ISZERO JUMPDEST ISZERO PUSH2 0x1925 JUMPI DUP2 PUSH2 0x1921 DUP2 PUSH2 0x5A43 JUMP JUMPDEST SWAP3 POP POP JUMPDEST PUSH1 0x1 ADD PUSH2 0x18D2 JUMP JUMPDEST POP PUSH0 DUP2 PUSH1 0x1 PUSH1 0x1 PUSH1 0x40 SHL SUB DUP2 GT ISZERO PUSH2 0x1947 JUMPI PUSH2 0x1947 PUSH2 0x555E JUMP JUMPDEST PUSH1 0x40 MLOAD SWAP1 DUP1 DUP3 MSTORE DUP1 PUSH1 0x20 MUL PUSH1 0x20 ADD DUP3 ADD PUSH1 0x40 MSTORE DUP1 ISZERO PUSH2 0x1970 JUMPI DUP2 PUSH1 0x20 ADD PUSH1 0x20 DUP3 MUL DUP1 CALLDATASIZE DUP4 CALLDATACOPY ADD SWAP1 POP JUMPDEST POP SWAP1 POP PUSH0 DUP3 PUSH1 0x1 PUSH1 0x1 PUSH1 0x40 SHL SUB DUP2 GT ISZERO PUSH2 0x198C JUMPI PUSH2 0x198C PUSH2 0x555E JUMP JUMPDEST PUSH1 0x40 MLOAD SWAP1 DUP1 DUP3 MSTORE DUP1 PUSH1 0x20 MUL PUSH1 0x20 ADD DUP3 ADD PUSH1 0x40 MSTORE DUP1 ISZERO PUSH2 0x19D5 JUMPI DUP2 PUSH1 0x20 ADD JUMPDEST PUSH1 0x40 DUP1 MLOAD PUSH1 0x60 DUP2 ADD DUP3 MSTORE PUSH0 DUP1 DUP3 MSTORE PUSH1 0x20 DUP1 DUP4 ADD DUP3 SWAP1 MSTORE SWAP3 DUP3 ADD MSTORE DUP3 MSTORE PUSH0 NOT SWAP1 SWAP3 ADD SWAP2 ADD DUP2 PUSH2 0x19AA JUMPI SWAP1 POP JUMPDEST POP SWAP1 POP PUSH0 DUP1 JUMPDEST PUSH1 0x18 SLOAD DUP2 LT ISZERO PUSH2 0x1AB4 JUMPI PUSH0 DUP2 DUP2 MSTORE PUSH1 0x19 PUSH1 0x20 MSTORE PUSH1 0x40 SWAP1 KECCAK256 PUSH1 0x1 ADD SLOAD PUSH1 0xFF AND ISZERO DUP1 PUSH2 0x1A1B JUMPI POP PUSH0 DUP2 DUP2 MSTORE PUSH1 0x19 PUSH1 0x20 MSTORE PUSH1 0x40 SWAP1 KECCAK256 PUSH1 0x1 ADD SLOAD PUSH2 0x100 SWAP1 DIV PUSH1 0xFF AND ISZERO JUMPDEST ISZERO PUSH2 0x1AAC JUMPI DUP1 DUP5 DUP4 DUP2 MLOAD DUP2 LT PUSH2 0x1A33 JUMPI PUSH2 0x1A33 PUSH2 0x5A1B JUMP JUMPDEST PUSH1 0x20 SWAP1 DUP2 MUL SWAP2 SWAP1 SWAP2 ADD DUP2 ADD SWAP2 SWAP1 SWAP2 MSTORE PUSH0 DUP3 DUP2 MSTORE PUSH1 0x19 DUP3 MSTORE PUSH1 0x40 SWAP1 DUP2 SWAP1 KECCAK256 DUP2 MLOAD PUSH1 0x60 DUP2 ADD DUP4 MSTORE DUP2 SLOAD DUP2 MSTORE PUSH1 0x1 SWAP1 SWAP2 ADD SLOAD PUSH1 0xFF DUP1 DUP3 AND ISZERO ISZERO SWAP5 DUP4 ADD SWAP5 SWAP1 SWAP5 MSTORE PUSH2 0x100 SWAP1 DIV SWAP1 SWAP3 AND ISZERO ISZERO SWAP1 DUP3 ADD MSTORE DUP4 MLOAD DUP5 SWAP1 DUP5 SWAP1 DUP2 LT PUSH2 0x1A92 JUMPI PUSH2 0x1A92 PUSH2 0x5A1B JUMP JUMPDEST PUSH1 0x20 MUL PUSH1 0x20 ADD ADD DUP2 SWAP1 MSTORE POP DUP2 DUP1 PUSH2 0x1AA8 SWAP1 PUSH2 0x5A43 JUMP JUMPDEST SWAP3 POP POP JUMPDEST PUSH1 0x1 ADD PUSH2 0x19DB JUMP JUMPDEST POP SWAP2 SWAP6 SWAP1 SWAP5 POP SWAP3 POP POP POP JUMP JUMPDEST CALLER PUSH0 SWAP1 DUP2 MSTORE PUSH1 0x17 PUSH1 0x20 MSTORE PUSH1 0x40 SWAP1 KECCAK256 SLOAD PUSH1 0xFF AND PUSH2 0x1B0C JUMPI PUSH1 0x40 MLOAD PUSH3 0x461BCD PUSH1 0xE5 SHL DUP2 MSTORE PUSH1 0x20 PUSH1 0x4 DUP3 ADD MSTORE PUSH1 0xB PUSH1 0x24 DUP3 ADD MSTORE PUSH11 0x2737BA1030903830BCB2B9 PUSH1 0xA9 SHL PUSH1 0x44 DUP3 ADD MSTORE PUSH1 0x64 ADD PUSH2 0xDDA JUMP JUMPDEST PUSH0 DUP2 GT PUSH2 0x1B5B JUMPI PUSH1 0x40 MLOAD PUSH3 0x461BCD PUSH1 0xE5 SHL DUP2 MSTORE PUSH1 0x20 PUSH1 0x4 DUP3 ADD MSTORE PUSH1 0x1D PUSH1 0x24 DUP3 ADD MSTORE PUSH32 0x416D6F756E74206D7573742062652067726561746572207468616E2030000000 PUSH1 0x44 DUP3 ADD MSTORE PUSH1 0x64 ADD PUSH2 0xDDA JUMP JUMPDEST DUP1 SELFBALANCE LT ISZERO PUSH2 0x1B7B JUMPI PUSH1 0x40 MLOAD PUSH3 0x461BCD PUSH1 0xE5 SHL DUP2 MSTORE PUSH1 0x4 ADD PUSH2 0xDDA SWAP1 PUSH2 0x5C41 JUMP JUMPDEST DUP3 PUSH1 0xFF AND PUSH1 0x1 SUB PUSH2 0x1C73 JUMPI PUSH1 0xC SLOAD PUSH1 0x40 MLOAD PUSH0 SWAP2 PUSH1 0x1 PUSH1 0x1 PUSH1 0xA0 SHL SUB AND SWAP1 DUP4 SWAP1 PUSH2 0x1BA8 SWAP1 DUP7 SWAP1 PUSH1 0x24 ADD PUSH2 0x5C78 JUMP JUMPDEST PUSH1 0x40 DUP1 MLOAD PUSH1 0x1F NOT DUP2 DUP5 SUB ADD DUP2 MSTORE SWAP2 DUP2 MSTORE PUSH1 0x20 DUP3 ADD DUP1 MLOAD PUSH1 0x1 PUSH1 0x1 PUSH1 0xE0 SHL SUB AND PUSH4 0x6F7A7CB PUSH1 0xE1 SHL OR SWAP1 MSTORE MLOAD PUSH2 0x1BDD SWAP2 SWAP1 PUSH2 0x5C8A JUMP JUMPDEST PUSH0 PUSH1 0x40 MLOAD DUP1 DUP4 SUB DUP2 DUP6 DUP8 GAS CALL SWAP3 POP POP POP RETURNDATASIZE DUP1 PUSH0 DUP2 EQ PUSH2 0x1C17 JUMPI PUSH1 0x40 MLOAD SWAP2 POP PUSH1 0x1F NOT PUSH1 0x3F RETURNDATASIZE ADD AND DUP3 ADD PUSH1 0x40 MSTORE RETURNDATASIZE DUP3 MSTORE RETURNDATASIZE PUSH0 PUSH1 0x20 DUP5 ADD RETURNDATACOPY PUSH2 0x1C1C JUMP JUMPDEST PUSH1 0x60 SWAP2 POP JUMPDEST POP POP SWAP1 POP DUP1 PUSH2 0x1C6D JUMPI PUSH1 0x40 MLOAD PUSH3 0x461BCD PUSH1 0xE5 SHL DUP2 MSTORE PUSH1 0x20 PUSH1 0x4 DUP3 ADD MSTORE PUSH1 0x1F PUSH1 0x24 DUP3 ADD MSTORE PUSH32 0x455448207472616E7366657220746F206D696E65314E4654206661696C656400 PUSH1 0x44 DUP3 ADD MSTORE PUSH1 0x64 ADD PUSH2 0xDDA JUMP JUMPDEST POP POP POP POP JUMP JUMPDEST DUP3 PUSH1 0xFF AND PUSH1 0x2 SUB PUSH2 0x1D65 JUMPI PUSH1 0xD SLOAD PUSH1 0x40 MLOAD PUSH0 SWAP2 PUSH1 0x1 PUSH1 0x1 PUSH1 0xA0 SHL SUB AND SWAP1 DUP4 SWAP1 PUSH2 0x1CA0 SWAP1 DUP7 SWAP1 PUSH1 0x24 ADD PUSH2 0x5C78 JUMP JUMPDEST PUSH1 0x40 DUP1 MLOAD PUSH1 0x1F NOT DUP2 DUP5 SUB ADD DUP2 MSTORE SWAP2 DUP2 MSTORE PUSH1 0x20 DUP3 ADD DUP1 MLOAD PUSH1 0x1 PUSH1 0x1 PUSH1 0xE0 SHL SUB AND PUSH4 0x6F7A7CB PUSH1 0xE1 SHL OR SWAP1 MSTORE MLOAD PUSH2 0x1CD5 SWAP2 SWAP1 PUSH2 0x5C8A JUMP JUMPDEST PUSH0 PUSH1 0x40 MLOAD DUP1 DUP4 SUB DUP2 DUP6 DUP8 GAS CALL SWAP3 POP POP POP RETURNDATASIZE DUP1 PUSH0 DUP2 EQ PUSH2 0x1D0F JUMPI PUSH1 0x40 MLOAD SWAP2 POP PUSH1 0x1F NOT PUSH1 0x3F RETURNDATASIZE ADD AND DUP3 ADD PUSH1 0x40 MSTORE RETURNDATASIZE DUP3 MSTORE RETURNDATASIZE PUSH0 PUSH1 0x20 DUP5 ADD RETURNDATACOPY PUSH2 0x1D14 JUMP JUMPDEST PUSH1 0x60 SWAP2 POP JUMPDEST POP POP SWAP1 POP DUP1 PUSH2 0x1C6D JUMPI PUSH1 0x40 MLOAD PUSH3 0x461BCD PUSH1 0xE5 SHL DUP2 MSTORE PUSH1 0x20 PUSH1 0x4 DUP3 ADD MSTORE PUSH1 0x1F PUSH1 0x24 DUP3 ADD MSTORE PUSH32 0x455448207472616E7366657220746F206D696E65324E4654206661696C656400 PUSH1 0x44 DUP3 ADD MSTORE PUSH1 0x64 ADD PUSH2 0xDDA JUMP JUMPDEST DUP3 PUSH1 0xFF AND PUSH1 0x3 SUB PUSH2 0x1E57 JUMPI PUSH1 0xE SLOAD PUSH1 0x40 MLOAD PUSH0 SWAP2 PUSH1 0x1 PUSH1 0x1 PUSH1 0xA0 SHL SUB AND SWAP1 DUP4 SWAP1 PUSH2 0x1D92 SWAP1 DUP7 SWAP1 PUSH1 0x24 ADD PUSH2 0x5C78 JUMP JUMPDEST PUSH1 0x40 DUP1 MLOAD PUSH1 0x1F NOT DUP2 DUP5 SUB ADD DUP2 MSTORE SWAP2 DUP2 MSTORE PUSH1 0x20 DUP3 ADD DUP1 MLOAD PUSH1 0x1 PUSH1 0x1 PUSH1 0xE0 SHL SUB AND PUSH4 0x6F7A7CB PUSH1 0xE1 SHL OR SWAP1 MSTORE MLOAD PUSH2 0x1DC7 SWAP2 SWAP1 PUSH2 0x5C8A JUMP JUMPDEST PUSH0 PUSH1 0x40 MLOAD DUP1 DUP4 SUB DUP2 DUP6 DUP8 GAS CALL SWAP3 POP POP POP RETURNDATASIZE DUP1 PUSH0 DUP2 EQ PUSH2 0x1E01 JUMPI PUSH1 0x40 MLOAD SWAP2 POP PUSH1 0x1F NOT PUSH1 0x3F RETURNDATASIZE ADD AND DUP3 ADD PUSH1 0x40 MSTORE RETURNDATASIZE DUP3 MSTORE RETURNDATASIZE PUSH0 PUSH1 0x20 DUP5 ADD RETURNDATACOPY PUSH2 0x1E06 JUMP JUMPDEST PUSH1 0x60 SWAP2 POP JUMPDEST POP POP SWAP1 POP DUP1 PUSH2 0x1C6D JUMPI PUSH1 0x40 MLOAD PUSH3 0x461BCD PUSH1 0xE5 SHL DUP2 MSTORE PUSH1 0x20 PUSH1 0x4 DUP3 ADD MSTORE PUSH1 0x1F PUSH1 0x24 DUP3 ADD MSTORE PUSH32 0x455448207472616E7366657220746F206D696E65334E4654206661696C656400 PUSH1 0x44 DUP3 ADD MSTORE PUSH1 0x64 ADD PUSH2 0xDDA JUMP JUMPDEST DUP3 PUSH1 0xFF AND PUSH1 0x4 SUB PUSH2 0x1F49 JUMPI PUSH1 0xF SLOAD PUSH1 0x40 MLOAD PUSH0 SWAP2 PUSH1 0x1 PUSH1 0x1 PUSH1 0xA0 SHL SUB AND SWAP1 DUP4 SWAP1 PUSH2 0x1E84 SWAP1 DUP7 SWAP1 PUSH1 0x24 ADD PUSH2 0x5C78 JUMP JUMPDEST PUSH1 0x40 DUP1 MLOAD PUSH1 0x1F NOT DUP2 DUP5 SUB ADD DUP2 MSTORE SWAP2 DUP2 MSTORE PUSH1 0x20 DUP3 ADD DUP1 MLOAD PUSH1 0x1 PUSH1 0x1 PUSH1 0xE0 SHL SUB AND PUSH4 0x6F7A7CB PUSH1 0xE1 SHL OR SWAP1 MSTORE MLOAD PUSH2 0x1EB9 SWAP2 SWAP1 PUSH2 0x5C8A JUMP JUMPDEST PUSH0 PUSH1 0x40 MLOAD DUP1 DUP4 SUB DUP2 DUP6 DUP8 GAS CALL SWAP3 POP POP POP RETURNDATASIZE DUP1 PUSH0 DUP2 EQ PUSH2 0x1EF3 JUMPI PUSH1 0x40 MLOAD SWAP2 POP PUSH1 0x1F NOT PUSH1 0x3F RETURNDATASIZE ADD AND DUP3 ADD PUSH1 0x40 MSTORE RETURNDATASIZE DUP3 MSTORE RETURNDATASIZE PUSH0 PUSH1 0x20 DUP5 ADD RETURNDATACOPY PUSH2 0x1EF8 JUMP JUMPDEST PUSH1 0x60 SWAP2 POP JUMPDEST POP POP SWAP1 POP DUP1 PUSH2 0x1C6D JUMPI PUSH1 0x40 MLOAD PUSH3 0x461BCD PUSH1 0xE5 SHL DUP2 MSTORE PUSH1 0x20 PUSH1 0x4 DUP3 ADD MSTORE PUSH1 0x1F PUSH1 0x24 DUP3 ADD MSTORE PUSH32 0x455448207472616E7366657220746F206D696E65344E4654206661696C656400 PUSH1 0x44 DUP3 ADD MSTORE PUSH1 0x64 ADD PUSH2 0xDDA JUMP JUMPDEST DUP3 PUSH1 0xFF AND PUSH1 0x5 SUB PUSH2 0x203B JUMPI PUSH1 0x10 SLOAD PUSH1 0x40 MLOAD PUSH0 SWAP2 PUSH1 0x1 PUSH1 0x1 PUSH1 0xA0 SHL SUB AND SWAP1 DUP4 SWAP1 PUSH2 0x1F76 SWAP1 DUP7 SWAP1 PUSH1 0x24 ADD PUSH2 0x5C78 JUMP JUMPDEST PUSH1 0x40 DUP1 MLOAD PUSH1 0x1F NOT DUP2 DUP5 SUB ADD DUP2 MSTORE SWAP2 DUP2 MSTORE PUSH1 0x20 DUP3 ADD DUP1 MLOAD PUSH1 0x1 PUSH1 0x1 PUSH1 0xE0 SHL SUB AND PUSH4 0x6F7A7CB PUSH1 0xE1 SHL OR SWAP1 MSTORE MLOAD PUSH2 0x1FAB SWAP2 SWAP1 PUSH2 0x5C8A JUMP JUMPDEST PUSH0 PUSH1 0x40 MLOAD DUP1 DUP4 SUB DUP2 DUP6 DUP8 GAS CALL SWAP3 POP POP POP RETURNDATASIZE DUP1 PUSH0 DUP2 EQ PUSH2 0x1FE5 JUMPI PUSH1 0x40 MLOAD SWAP2 POP PUSH1 0x1F NOT PUSH1 0x3F RETURNDATASIZE ADD AND DUP3 ADD PUSH1 0x40 MSTORE RETURNDATASIZE DUP3 MSTORE RETURNDATASIZE PUSH0 PUSH1 0x20 DUP5 ADD RETURNDATACOPY PUSH2 0x1FEA JUMP JUMPDEST PUSH1 0x60 SWAP2 POP JUMPDEST POP POP SWAP1 POP DUP1 PUSH2 0x1C6D JUMPI PUSH1 0x40 MLOAD PUSH3 0x461BCD PUSH1 0xE5 SHL DUP2 MSTORE PUSH1 0x20 PUSH1 0x4 DUP3 ADD MSTORE PUSH1 0x1F PUSH1 0x24 DUP3 ADD MSTORE PUSH32 0x455448207472616E7366657220746F206D696E65354E4654206661696C656400 PUSH1 0x44 DUP3 ADD MSTORE PUSH1 0x64 ADD PUSH2 0xDDA JUMP JUMPDEST PUSH1 0x40 MLOAD PUSH3 0x461BCD PUSH1 0xE5 SHL DUP2 MSTORE PUSH1 0x20 PUSH1 0x4 DUP3 ADD MSTORE PUSH1 0x17 PUSH1 0x24 DUP3 ADD MSTORE PUSH23 0x496E76616C696420636F6E74726163742063686F696365 PUSH1 0x48 SHL PUSH1 0x44 DUP3 ADD MSTORE PUSH1 0x64 ADD PUSH2 0xDDA JUMP JUMPDEST POP POP POP JUMP JUMPDEST PUSH1 0x2 SLOAD PUSH1 0x1 PUSH1 0x1 PUSH1 0xA0 SHL SUB AND CALLER EQ DUP1 PUSH2 0x20A5 JUMPI POP PUSH1 0x3 SLOAD PUSH1 0x1 PUSH1 0x1 PUSH1 0xA0 SHL SUB AND CALLER EQ JUMPDEST PUSH2 0x20C1 JUMPI PUSH1 0x40 MLOAD PUSH3 0x461BCD PUSH1 0xE5 SHL DUP2 MSTORE PUSH1 0x4 ADD PUSH2 0xDDA SWAP1 PUSH2 0x59F5 JUMP JUMPDEST PUSH2 0x20C9 PUSH2 0x4342 JUMP JUMPDEST PUSH2 0x20D1 PUSH2 0x43B7 JUMP JUMPDEST PUSH1 0x15 SLOAD DUP2 LT PUSH2 0x20F2 JUMPI PUSH1 0x40 MLOAD PUSH3 0x461BCD PUSH1 0xE5 SHL DUP2 MSTORE PUSH1 0x4 ADD PUSH2 0xDDA SWAP1 PUSH2 0x5CA0 JUMP JUMPDEST PUSH0 DUP2 DUP2 MSTORE PUSH1 0x13 PUSH1 0x20 MSTORE PUSH1 0x40 SWAP1 KECCAK256 PUSH1 0x3 ADD SLOAD DUP2 SWAP1 SUB PUSH2 0x215F JUMPI PUSH0 DUP2 DUP2 MSTORE PUSH1 0x13 PUSH1 0x20 MSTORE PUSH1 0x40 SWAP1 KECCAK256 PUSH1 0x2 SLOAD PUSH1 0x1 PUSH1 0x1 PUSH1 0xA0 SHL SUB AND CALLER SUB PUSH2 0x2139 JUMPI DUP1 SLOAD PUSH1 0xFF NOT AND PUSH1 0x1 OR DUP2 SSTORE PUSH2 0x2159 JUMP JUMPDEST PUSH1 0x3 SLOAD PUSH1 0x1 PUSH1 0x1 PUSH1 0xA0 SHL SUB AND CALLER SUB PUSH2 0x2159 JUMPI DUP1 SLOAD PUSH2 0xFF00 NOT AND PUSH2 0x100 OR DUP2 SSTORE JUMPDEST POP PUSH2 0x21C8 JUMP JUMPDEST PUSH0 DUP2 DUP2 MSTORE PUSH1 0x14 PUSH1 0x20 MSTORE PUSH1 0x40 SWAP1 KECCAK256 PUSH1 0x3 ADD SLOAD DUP2 SWAP1 SUB PUSH2 0x21C8 JUMPI PUSH0 DUP2 DUP2 MSTORE PUSH1 0x14 PUSH1 0x20 MSTORE PUSH1 0x40 SWAP1 KECCAK256 PUSH1 0x2 SLOAD PUSH1 0x1 PUSH1 0x1 PUSH1 0xA0 SHL SUB AND CALLER SUB PUSH2 0x21A6 JUMPI DUP1 SLOAD PUSH1 0xFF NOT AND PUSH1 0x1 OR DUP2 SSTORE PUSH2 0x21C6 JUMP JUMPDEST PUSH1 0x3 SLOAD PUSH1 0x1 PUSH1 0x1 PUSH1 0xA0 SHL SUB AND CALLER SUB PUSH2 0x21C6 JUMPI DUP1 SLOAD PUSH2 0xFF00 NOT AND PUSH2 0x100 OR DUP2 SSTORE JUMPDEST POP JUMPDEST PUSH2 0xE72 PUSH1 0x1 DUP1 SSTORE JUMP JUMPDEST CALLER PUSH0 SWAP1 DUP2 MSTORE PUSH1 0x16 PUSH1 0x20 MSTORE PUSH1 0x40 SWAP1 KECCAK256 SLOAD PUSH1 0xFF AND PUSH2 0x21FF JUMPI PUSH1 0x40 MLOAD PUSH3 0x461BCD PUSH1 0xE5 SHL DUP2 MSTORE PUSH1 0x4 ADD PUSH2 0xDDA SWAP1 PUSH2 0x5A5B JUMP JUMPDEST PUSH2 0x2207 PUSH2 0x4342 JUMP JUMPDEST PUSH2 0x220F PUSH2 0x43B7 JUMP JUMPDEST PUSH1 0x2 DUP1 SLOAD PUSH1 0x1 PUSH1 0x1 PUSH1 0xA0 SHL SUB DUP1 DUP6 AND PUSH1 0x1 PUSH1 0x1 PUSH1 0xA0 SHL SUB NOT SWAP3 DUP4 AND OR SWAP1 SWAP3 SSTORE PUSH1 0x3 DUP1 SLOAD SWAP3 DUP5 AND SWAP3 SWAP1 SWAP2 AND SWAP2 SWAP1 SWAP2 OR SWAP1 SSTORE PUSH2 0x131F PUSH1 0x1 DUP1 SSTORE JUMP JUMPDEST PUSH1 0x15 DUP1 SLOAD PUSH1 0x60 SWAP2 DUP3 SWAP2 PUSH0 SWAP1 PUSH1 0x1 PUSH1 0x1 PUSH1 0x40 SHL SUB DUP2 GT ISZERO PUSH2 0x226A JUMPI PUSH2 0x226A PUSH2 0x555E JUMP JUMPDEST PUSH1 0x40 MLOAD SWAP1 DUP1 DUP3 MSTORE DUP1 PUSH1 0x20 MUL PUSH1 0x20 ADD DUP3 ADD PUSH1 0x40 MSTORE DUP1 ISZERO PUSH2 0x22A3 JUMPI DUP2 PUSH1 0x20 ADD JUMPDEST PUSH2 0x2290 PUSH2 0x5195 JUMP JUMPDEST DUP2 MSTORE PUSH1 0x20 ADD SWAP1 PUSH1 0x1 SWAP1 SUB SWAP1 DUP2 PUSH2 0x2288 JUMPI SWAP1 POP JUMPDEST POP DUP3 SLOAD SWAP1 SWAP2 POP PUSH0 SWAP1 PUSH1 0x1 PUSH1 0x1 PUSH1 0x40 SHL SUB DUP2 GT ISZERO PUSH2 0x22C2 JUMPI PUSH2 0x22C2 PUSH2 0x555E JUMP JUMPDEST PUSH1 0x40 MLOAD SWAP1 DUP1 DUP3 MSTORE DUP1 PUSH1 0x20 MUL PUSH1 0x20 ADD DUP3 ADD PUSH1 0x40 MSTORE DUP1 ISZERO PUSH2 0x22FB JUMPI DUP2 PUSH1 0x20 ADD JUMPDEST PUSH2 0x22E8 PUSH2 0x51CA JUMP JUMPDEST DUP2 MSTORE PUSH1 0x20 ADD SWAP1 PUSH1 0x1 SWAP1 SUB SWAP1 DUP2 PUSH2 0x22E0 JUMPI SWAP1 POP JUMPDEST POP SWAP1 POP PUSH0 JUMPDEST DUP4 SLOAD DUP2 LT ISZERO PUSH2 0x2559 JUMPI DUP4 DUP2 DUP2 SLOAD DUP2 LT PUSH2 0x231B JUMPI PUSH2 0x231B PUSH2 0x5A1B JUMP JUMPDEST SWAP1 PUSH0 MSTORE PUSH1 0x20 PUSH0 KECCAK256 ADD SLOAD PUSH1 0x13 PUSH0 DUP7 DUP5 DUP2 SLOAD DUP2 LT PUSH2 0x2339 JUMPI PUSH2 0x2339 PUSH2 0x5A1B JUMP JUMPDEST SWAP1 PUSH0 MSTORE PUSH1 0x20 PUSH0 KECCAK256 ADD SLOAD DUP2 MSTORE PUSH1 0x20 ADD SWAP1 DUP2 MSTORE PUSH1 0x20 ADD PUSH0 KECCAK256 PUSH1 0x3 ADD SLOAD SUB PUSH2 0x2432 JUMPI PUSH1 0x13 PUSH0 DUP6 DUP4 DUP2 SLOAD DUP2 LT PUSH2 0x236D JUMPI PUSH2 0x236D PUSH2 0x5A1B JUMP JUMPDEST PUSH0 SWAP2 DUP3 MSTORE PUSH1 0x20 DUP1 DUP4 KECCAK256 SWAP1 SWAP2 ADD SLOAD DUP4 MSTORE DUP3 DUP2 ADD SWAP4 SWAP1 SWAP4 MSTORE PUSH1 0x40 SWAP2 DUP3 ADD SWAP1 KECCAK256 DUP2 MLOAD PUSH1 0xC0 DUP2 ADD DUP4 MSTORE DUP2 SLOAD PUSH1 0xFF DUP1 DUP3 AND ISZERO ISZERO DUP4 MSTORE PUSH2 0x100 SWAP1 SWAP2 DIV DUP2 AND ISZERO ISZERO SWAP5 DUP3 ADD SWAP5 SWAP1 SWAP5 MSTORE PUSH1 0x1 DUP3 ADD SLOAD SWAP3 DUP2 ADD SWAP3 SWAP1 SWAP3 MSTORE PUSH1 0x2 DUP1 DUP3 ADD SLOAD PUSH1 0x1 PUSH1 0x1 PUSH1 0xA0 SHL SUB DUP2 AND PUSH1 0x60 DUP6 ADD MSTORE SWAP3 SWAP4 SWAP2 SWAP3 PUSH1 0x80 DUP6 ADD SWAP3 PUSH1 0x1 PUSH1 0xA0 SHL SWAP1 SWAP2 DIV AND SWAP1 DUP2 GT ISZERO PUSH2 0x23F1 JUMPI PUSH2 0x23F1 PUSH2 0x5258 JUMP JUMPDEST PUSH1 0x2 DUP2 GT ISZERO PUSH2 0x2402 JUMPI PUSH2 0x2402 PUSH2 0x5258 JUMP JUMPDEST DUP2 MSTORE PUSH1 0x20 ADD PUSH1 0x3 DUP3 ADD SLOAD DUP2 MSTORE POP POP DUP4 DUP3 DUP2 MLOAD DUP2 LT PUSH2 0x2422 JUMPI PUSH2 0x2422 PUSH2 0x5A1B JUMP JUMPDEST PUSH1 0x20 MUL PUSH1 0x20 ADD ADD DUP2 SWAP1 MSTORE POP PUSH2 0x2551 JUMP JUMPDEST DUP4 DUP2 DUP2 SLOAD DUP2 LT PUSH2 0x2444 JUMPI PUSH2 0x2444 PUSH2 0x5A1B JUMP JUMPDEST SWAP1 PUSH0 MSTORE PUSH1 0x20 PUSH0 KECCAK256 ADD SLOAD PUSH1 0x14 PUSH0 DUP7 DUP5 DUP2 SLOAD DUP2 LT PUSH2 0x2462 JUMPI PUSH2 0x2462 PUSH2 0x5A1B JUMP JUMPDEST SWAP1 PUSH0 MSTORE PUSH1 0x20 PUSH0 KECCAK256 ADD SLOAD DUP2 MSTORE PUSH1 0x20 ADD SWAP1 DUP2 MSTORE PUSH1 0x20 ADD PUSH0 KECCAK256 PUSH1 0x3 ADD SLOAD SUB PUSH2 0x2551 JUMPI PUSH1 0x14 PUSH0 DUP6 DUP4 DUP2 SLOAD DUP2 LT PUSH2 0x2496 JUMPI PUSH2 0x2496 PUSH2 0x5A1B JUMP JUMPDEST PUSH0 SWAP2 DUP3 MSTORE PUSH1 0x20 DUP1 DUP4 KECCAK256 SWAP1 SWAP2 ADD SLOAD DUP4 MSTORE DUP3 DUP2 ADD SWAP4 SWAP1 SWAP4 MSTORE PUSH1 0x40 SWAP2 DUP3 ADD SWAP1 KECCAK256 DUP2 MLOAD PUSH1 0xC0 DUP2 ADD DUP4 MSTORE DUP2 SLOAD PUSH1 0xFF DUP1 DUP3 AND ISZERO ISZERO DUP4 MSTORE PUSH2 0x100 SWAP1 SWAP2 DIV DUP2 AND ISZERO ISZERO SWAP5 DUP3 ADD SWAP5 SWAP1 SWAP5 MSTORE PUSH1 0x1 DUP3 ADD SLOAD SWAP3 DUP2 ADD SWAP3 SWAP1 SWAP3 MSTORE PUSH1 0x2 DUP2 ADD SLOAD PUSH1 0x1 PUSH1 0x1 PUSH1 0xA0 SHL SUB DUP2 AND PUSH1 0x60 DUP5 ADD MSTORE SWAP2 SWAP3 SWAP1 SWAP2 PUSH1 0x80 DUP5 ADD SWAP2 PUSH1 0x1 PUSH1 0xA0 SHL SWAP1 SWAP2 DIV AND DUP1 ISZERO PUSH2 0x2517 JUMPI PUSH2 0x2517 PUSH2 0x5258 JUMP JUMPDEST DUP1 ISZERO PUSH2 0x2525 JUMPI PUSH2 0x2525 PUSH2 0x5258 JUMP JUMPDEST DUP2 MSTORE PUSH1 0x20 ADD PUSH1 0x3 DUP3 ADD SLOAD DUP2 MSTORE POP POP DUP3 DUP3 DUP2 MLOAD DUP2 LT PUSH2 0x2545 JUMPI PUSH2 0x2545 PUSH2 0x5A1B JUMP JUMPDEST PUSH1 0x20 MUL PUSH1 0x20 ADD ADD DUP2 SWAP1 MSTORE POP JUMPDEST PUSH1 0x1 ADD PUSH2 0x2300 JUMP JUMPDEST POP SWAP1 SWAP5 SWAP1 SWAP4 POP SWAP2 POP POP JUMP JUMPDEST PUSH1 0x2 SLOAD PUSH1 0x1 PUSH1 0x1 PUSH1 0xA0 SHL SUB AND CALLER EQ DUP1 PUSH2 0x2587 JUMPI POP PUSH1 0x3 SLOAD PUSH1 0x1 PUSH1 0x1 PUSH1 0xA0 SHL SUB AND CALLER EQ JUMPDEST PUSH2 0x25A3 JUMPI PUSH1 0x40 MLOAD PUSH3 0x461BCD PUSH1 0xE5 SHL DUP2 MSTORE PUSH1 0x4 ADD PUSH2 0xDDA SWAP1 PUSH2 0x59F5 JUMP JUMPDEST PUSH2 0x25AB PUSH2 0x4342 JUMP JUMPDEST PUSH2 0x25B3 PUSH2 0x43B7 JUMP JUMPDEST DUP2 DUP4 PUSH2 0x25BF DUP3 DUP3 PUSH2 0x5AC3 JUMP JUMPDEST PUSH2 0x25C9 SWAP2 SWAP1 PUSH2 0x5ADA JUMP JUMPDEST EQ PUSH2 0x25E6 JUMPI PUSH1 0x40 MLOAD PUSH3 0x461BCD PUSH1 0xE5 SHL DUP2 MSTORE PUSH1 0x4 ADD PUSH2 0xDDA SWAP1 PUSH2 0x5AF9 JUMP JUMPDEST PUSH1 0xA SLOAD PUSH1 0x40 DUP1 MLOAD PUSH4 0xF1BA053 PUSH1 0xE3 SHL DUP2 MSTORE SWAP1 MLOAD PUSH0 SWAP3 PUSH1 0x1 PUSH1 0x1 PUSH1 0xA0 SHL SUB AND SWAP2 PUSH4 0x78DD0298 SWAP2 PUSH1 0x4 DUP1 DUP4 ADD SWAP3 PUSH1 0x20 SWAP3 SWAP2 SWAP1 DUP3 SWAP1 SUB ADD DUP2 DUP8 DUP8 GAS CALL ISZERO DUP1 ISZERO PUSH2 0x262E JUMPI RETURNDATASIZE PUSH0 PUSH0 RETURNDATACOPY RETURNDATASIZE PUSH0 REVERT JUMPDEST POP POP POP POP PUSH1 0x40 MLOAD RETURNDATASIZE PUSH1 0x1F NOT PUSH1 0x1F DUP3 ADD AND DUP3 ADD DUP1 PUSH1 0x40 MSTORE POP DUP2 ADD SWAP1 PUSH2 0x2652 SWAP2 SWAP1 PUSH2 0x5B25 JUMP JUMPDEST PUSH1 0x40 DUP1 MLOAD PUSH2 0x140 DUP2 ADD DUP3 MSTORE DUP3 DUP2 MSTORE ADDRESS PUSH1 0x20 DUP3 ADD MSTORE SWAP1 DUP2 ADD DUP7 SWAP1 MSTORE PUSH1 0x60 DUP2 ADD DUP6 SWAP1 MSTORE SWAP1 SWAP2 POP PUSH1 0x80 DUP2 ADD PUSH0 DUP2 MSTORE PUSH1 0x20 ADD PUSH0 JUMPDEST DUP2 MSTORE PUSH0 PUSH1 0x20 DUP1 DUP4 ADD DUP3 SWAP1 MSTORE PUSH1 0x40 DUP1 DUP5 ADD DUP4 SWAP1 MSTORE DUP1 MLOAD DUP1 DUP3 ADD DUP3 MSTORE PUSH1 0x4 DUP1 DUP3 MSTORE PUSH4 0x14D95B1B PUSH1 0xE2 SHL DUP3 DUP6 ADD MSTORE PUSH1 0x60 DUP1 DUP8 ADD SWAP3 SWAP1 SWAP3 MSTORE DUP9 ISZERO ISZERO PUSH1 0x80 SWAP7 DUP8 ADD MSTORE DUP8 DUP6 MSTORE PUSH1 0x12 DUP5 MSTORE SWAP4 DUP3 SWAP1 KECCAK256 DUP7 MLOAD DUP2 SSTORE SWAP3 DUP7 ADD MLOAD PUSH1 0x1 DUP1 DUP6 ADD DUP1 SLOAD PUSH1 0x1 PUSH1 0x1 PUSH1 0xA0 SHL SUB NOT AND PUSH1 0x1 PUSH1 0x1 PUSH1 0xA0 SHL SUB SWAP1 SWAP4 AND SWAP3 SWAP1 SWAP3 OR SWAP1 SWAP2 SSTORE SWAP2 DUP7 ADD MLOAD PUSH1 0x2 DUP5 ADD SSTORE DUP6 ADD MLOAD PUSH1 0x3 DUP4 ADD SSTORE SWAP3 DUP5 ADD MLOAD SWAP2 DUP2 ADD DUP1 SLOAD SWAP2 SWAP4 SWAP1 SWAP2 PUSH1 0xFF NOT AND SWAP1 DUP4 DUP1 ISZERO PUSH2 0x2727 JUMPI PUSH2 0x2727 PUSH2 0x5258 JUMP JUMPDEST MUL OR SWAP1 SSTORE POP PUSH1 0xA0 DUP3 ADD MLOAD PUSH1 0x4 DUP3 ADD DUP1 SLOAD PUSH2 0xFF00 NOT AND PUSH2 0x100 DUP4 PUSH1 0x2 DUP2 GT ISZERO PUSH2 0x2751 JUMPI PUSH2 0x2751 PUSH2 0x5258 JUMP JUMPDEST MUL OR SWAP1 SSTORE POP PUSH1 0xC0 DUP3 ADD MLOAD PUSH1 0x4 DUP3 ADD DUP1 SLOAD PUSH1 0xE0 DUP6 ADD MLOAD ISZERO ISZERO PUSH4 0x1000000 MUL PUSH4 0xFF000000 NOT SWAP4 ISZERO ISZERO PUSH3 0x10000 MUL SWAP4 SWAP1 SWAP4 AND PUSH4 0xFFFF0000 NOT SWAP1 SWAP2 AND OR SWAP2 SWAP1 SWAP2 OR SWAP1 SSTORE PUSH2 0x100 DUP3 ADD MLOAD PUSH1 0x5 DUP3 ADD SWAP1 PUSH2 0x27A5 SWAP1 DUP3 PUSH2 0x5B87 JUMP JUMPDEST POP PUSH2 0x120 SWAP2 SWAP1 SWAP2 ADD MLOAD PUSH1 0x6 SWAP1 SWAP2 ADD DUP1 SLOAD SWAP2 ISZERO ISZERO PUSH1 0xFF NOT SWAP1 SWAP3 AND SWAP2 SWAP1 SWAP2 OR SWAP1 SSTORE PUSH1 0x15 DUP1 SLOAD PUSH1 0x1 DUP2 ADD DUP3 SSTORE PUSH0 SWAP2 SWAP1 SWAP2 MSTORE PUSH0 MLOAD PUSH1 0x20 PUSH2 0x5F28 PUSH0 CODECOPY PUSH0 MLOAD SWAP1 PUSH0 MSTORE ADD SSTORE PUSH2 0x207D PUSH1 0x1 DUP1 SSTORE JUMP JUMPDEST PUSH1 0x2 SLOAD PUSH1 0x1 PUSH1 0x1 PUSH1 0xA0 SHL SUB AND CALLER EQ DUP1 PUSH2 0x280F JUMPI POP PUSH1 0x3 SLOAD PUSH1 0x1 PUSH1 0x1 PUSH1 0xA0 SHL SUB AND CALLER EQ JUMPDEST PUSH2 0x282B JUMPI PUSH1 0x40 MLOAD PUSH3 0x461BCD PUSH1 0xE5 SHL DUP2 MSTORE PUSH1 0x4 ADD PUSH2 0xDDA SWAP1 PUSH2 0x59F5 JUMP JUMPDEST PUSH2 0x2833 PUSH2 0x4342 JUMP JUMPDEST PUSH2 0x283B PUSH2 0x43B7 JUMP JUMPDEST PUSH1 0x15 SLOAD PUSH1 0x40 DUP1 MLOAD PUSH1 0xC0 DUP2 ADD DUP3 MSTORE PUSH0 DUP1 DUP3 MSTORE PUSH1 0x20 DUP3 ADD MSTORE SWAP1 DUP2 ADD DUP4 SWAP1 MSTORE PUSH1 0x1 PUSH1 0x1 PUSH1 0xA0 SHL SUB DUP5 AND PUSH1 0x60 DUP3 ADD MSTORE PUSH1 0x80 DUP2 ADD PUSH1 0x1 PUSH2 0x17F5 JUMP JUMPDEST PUSH1 0x2 SLOAD PUSH1 0x1 PUSH1 0x1 PUSH1 0xA0 SHL SUB AND CALLER EQ DUP1 PUSH2 0x2894 JUMPI POP PUSH1 0x3 SLOAD PUSH1 0x1 PUSH1 0x1 PUSH1 0xA0 SHL SUB AND CALLER EQ JUMPDEST PUSH2 0x28B0 JUMPI PUSH1 0x40 MLOAD PUSH3 0x461BCD PUSH1 0xE5 SHL DUP2 MSTORE PUSH1 0x4 ADD PUSH2 0xDDA SWAP1 PUSH2 0x59F5 JUMP JUMPDEST PUSH2 0x28B8 PUSH2 0x4342 JUMP JUMPDEST PUSH2 0x28C0 PUSH2 0x43B7 JUMP JUMPDEST PUSH2 0xDF3 PUSH2 0x43FC JUMP JUMPDEST PUSH1 0x2 SLOAD PUSH1 0x1 PUSH1 0x1 PUSH1 0xA0 SHL SUB AND CALLER EQ DUP1 PUSH2 0x28EB JUMPI POP PUSH1 0x3 SLOAD PUSH1 0x1 PUSH1 0x1 PUSH1 0xA0 SHL SUB AND CALLER EQ JUMPDEST PUSH2 0x2907 JUMPI PUSH1 0x40 MLOAD PUSH3 0x461BCD PUSH1 0xE5 SHL DUP2 MSTORE PUSH1 0x4 ADD PUSH2 0xDDA SWAP1 PUSH2 0x59F5 JUMP JUMPDEST PUSH2 0x290F PUSH2 0x4342 JUMP JUMPDEST PUSH2 0x2917 PUSH2 0x43B7 JUMP JUMPDEST PUSH0 DUP2 DUP2 MSTORE PUSH1 0x12 PUSH1 0x20 MSTORE PUSH1 0x40 SWAP1 KECCAK256 PUSH1 0x2 SLOAD PUSH1 0x1 PUSH1 0x1 PUSH1 0xA0 SHL SUB AND CALLER SUB PUSH2 0x2949 JUMPI PUSH1 0x4 DUP2 ADD DUP1 SLOAD PUSH3 0xFF0000 NOT AND SWAP1 SSTORE PUSH2 0x21C6 JUMP JUMPDEST PUSH1 0x3 SLOAD PUSH1 0x1 PUSH1 0x1 PUSH1 0xA0 SHL SUB AND CALLER SUB PUSH2 0x21C6 JUMPI PUSH1 0x4 ADD DUP1 SLOAD PUSH4 0xFF000000 NOT AND SWAP1 SSTORE PUSH1 0x1 DUP1 SSTORE POP JUMP JUMPDEST CALLER PUSH0 SWAP1 DUP2 MSTORE PUSH1 0x16 PUSH1 0x20 MSTORE PUSH1 0x40 SWAP1 KECCAK256 SLOAD PUSH1 0xFF AND PUSH2 0x299E JUMPI PUSH1 0x40 MLOAD PUSH3 0x461BCD PUSH1 0xE5 SHL DUP2 MSTORE PUSH1 0x4 ADD PUSH2 0xDDA SWAP1 PUSH2 0x5A5B JUMP JUMPDEST PUSH2 0x29A6 PUSH2 0x4342 JUMP JUMPDEST PUSH2 0x29AE PUSH2 0x43B7 JUMP JUMPDEST PUSH1 0x7 DUP1 SLOAD PUSH1 0x1 PUSH1 0x1 PUSH1 0xA0 SHL SUB NOT SWAP1 DUP2 AND PUSH1 0x1 PUSH1 0x1 PUSH1 0xA0 SHL SUB DUP11 DUP2 AND SWAP2 DUP3 OR SWAP1 SWAP4 SSTORE PUSH1 0x6 DUP1 SLOAD DUP4 AND SWAP1 SWAP2 OR SWAP1 SSTORE PUSH1 0xA DUP1 SLOAD DUP3 AND DUP10 DUP5 AND OR SWAP1 SSTORE PUSH1 0x4 DUP1 SLOAD DUP3 AND DUP9 DUP5 AND OR SWAP1 SSTORE PUSH1 0x5 DUP1 SLOAD DUP3 AND DUP8 DUP5 AND OR SWAP1 SSTORE PUSH1 0x8 DUP1 SLOAD DUP3 AND DUP7 DUP5 AND OR SWAP1 SSTORE PUSH1 0x9 DUP1 SLOAD DUP3 AND DUP6 DUP5 AND OR SWAP1 SSTORE PUSH1 0xB DUP1 SLOAD DUP3 AND DUP5 DUP5 AND OR SWAP1 SSTORE PUSH1 0xC DUP1 SLOAD DUP3 AND DUP16 DUP5 AND OR SWAP1 SSTORE PUSH1 0xD DUP1 SLOAD DUP3 AND DUP15 DUP5 AND OR SWAP1 SSTORE PUSH1 0xE DUP1 SLOAD DUP3 AND DUP14 DUP5 AND OR SWAP1 SSTORE PUSH1 0xF DUP1 SLOAD DUP3 AND DUP13 DUP5 AND OR SWAP1 SSTORE PUSH1 0x10 DUP1 SLOAD SWAP1 SWAP2 AND SWAP2 DUP11 AND SWAP2 SWAP1 SWAP2 OR SWAP1 SSTORE PUSH1 0x1 DUP1 SSTORE POP POP POP POP POP POP POP POP POP POP POP POP JUMP JUMPDEST PUSH2 0x2A7C PUSH2 0x5131 JUMP JUMPDEST PUSH0 PUSH1 0x15 PUSH1 0x11 SLOAD DUP2 SLOAD DUP2 LT PUSH2 0x2A92 JUMPI PUSH2 0x2A92 PUSH2 0x5A1B JUMP JUMPDEST PUSH0 SWAP2 DUP3 MSTORE PUSH1 0x20 DUP1 DUP4 KECCAK256 SWAP1 SWAP2 ADD SLOAD DUP1 DUP4 MSTORE PUSH1 0x12 DUP3 MSTORE PUSH1 0x40 SWAP3 DUP4 SWAP1 KECCAK256 DUP4 MLOAD PUSH2 0x140 DUP2 ADD DUP6 MSTORE DUP2 SLOAD DUP2 MSTORE PUSH1 0x1 DUP3 ADD SLOAD PUSH1 0x1 PUSH1 0x1 PUSH1 0xA0 SHL SUB AND SWAP4 DUP2 ADD SWAP4 SWAP1 SWAP4 MSTORE PUSH1 0x2 DUP2 ADD SLOAD SWAP4 DUP4 ADD SWAP4 SWAP1 SWAP4 MSTORE PUSH1 0x3 DUP4 ADD SLOAD PUSH1 0x60 DUP4 ADD MSTORE PUSH1 0x4 DUP4 ADD SLOAD SWAP1 SWAP4 POP SWAP1 SWAP2 SWAP1 PUSH1 0x80 DUP4 ADD SWAP1 PUSH1 0xFF AND DUP1 ISZERO PUSH2 0xC80 JUMPI PUSH2 0xC80 PUSH2 0x5258 JUMP JUMPDEST PUSH1 0x2 SLOAD PUSH1 0x1 PUSH1 0x1 PUSH1 0xA0 SHL SUB AND CALLER EQ DUP1 PUSH2 0x2B28 JUMPI POP PUSH1 0x3 SLOAD PUSH1 0x1 PUSH1 0x1 PUSH1 0xA0 SHL SUB AND CALLER EQ JUMPDEST PUSH2 0x2B44 JUMPI PUSH1 0x40 MLOAD PUSH3 0x461BCD PUSH1 0xE5 SHL DUP2 MSTORE PUSH1 0x4 ADD PUSH2 0xDDA SWAP1 PUSH2 0x59F5 JUMP JUMPDEST PUSH2 0x2B4C PUSH2 0x4342 JUMP JUMPDEST PUSH2 0x2B54 PUSH2 0x43B7 JUMP JUMPDEST PUSH1 0x15 SLOAD PUSH1 0x40 DUP1 MLOAD PUSH1 0xC0 DUP2 ADD DUP3 MSTORE PUSH0 DUP1 DUP3 MSTORE PUSH1 0x20 DUP3 ADD DUP2 SWAP1 MSTORE SWAP2 DUP2 ADD DUP5 SWAP1 MSTORE PUSH1 0x1 PUSH1 0x1 PUSH1 0xA0 SHL SUB DUP6 AND PUSH1 0x60 DUP3 ADD MSTORE SWAP1 PUSH1 0x80 DUP3 ADD SWAP1 PUSH2 0x17F5 JUMP JUMPDEST PUSH1 0x2 SLOAD PUSH1 0x1 PUSH1 0x1 PUSH1 0xA0 SHL SUB AND CALLER EQ DUP1 PUSH2 0x2BAF JUMPI POP PUSH1 0x3 SLOAD PUSH1 0x1 PUSH1 0x1 PUSH1 0xA0 SHL SUB AND CALLER EQ JUMPDEST PUSH2 0x2BCB JUMPI PUSH1 0x40 MLOAD PUSH3 0x461BCD PUSH1 0xE5 SHL DUP2 MSTORE PUSH1 0x4 ADD PUSH2 0xDDA SWAP1 PUSH2 0x59F5 JUMP JUMPDEST PUSH2 0x2BD3 PUSH2 0x4342 JUMP JUMPDEST PUSH2 0x2BDB PUSH2 0x43B7 JUMP JUMPDEST PUSH0 DUP2 DUP2 MSTORE PUSH1 0x12 PUSH1 0x20 MSTORE PUSH1 0x40 SWAP1 KECCAK256 PUSH1 0x2 SLOAD PUSH1 0x1 PUSH1 0x1 PUSH1 0xA0 SHL SUB AND CALLER SUB PUSH2 0x2C12 JUMPI PUSH1 0x4 DUP2 ADD DUP1 SLOAD PUSH3 0xFF0000 NOT AND PUSH3 0x10000 OR SWAP1 SSTORE PUSH2 0x21C6 JUMP JUMPDEST PUSH1 0x3 SLOAD PUSH1 0x1 PUSH1 0x1 PUSH1 0xA0 SHL SUB AND CALLER SUB PUSH2 0x21C6 JUMPI PUSH1 0x4 DUP2 ADD DUP1 SLOAD PUSH4 0xFF000000 NOT AND PUSH4 0x1000000 OR SWAP1 SSTORE POP PUSH2 0xE72 PUSH1 0x1 DUP1 SSTORE JUMP JUMPDEST PUSH1 0x2 SLOAD PUSH1 0x1 PUSH1 0x1 PUSH1 0xA0 SHL SUB AND CALLER EQ DUP1 PUSH2 0x2C66 JUMPI POP PUSH1 0x3 SLOAD PUSH1 0x1 PUSH1 0x1 PUSH1 0xA0 SHL SUB AND CALLER EQ JUMPDEST PUSH2 0x2C82 JUMPI PUSH1 0x40 MLOAD PUSH3 0x461BCD PUSH1 0xE5 SHL DUP2 MSTORE PUSH1 0x4 ADD PUSH2 0xDDA SWAP1 PUSH2 0x59F5 JUMP JUMPDEST PUSH2 0x2C8A PUSH2 0x4342 JUMP JUMPDEST PUSH2 0x2C92 PUSH2 0x43B7 JUMP JUMPDEST DUP2 DUP4 PUSH2 0x2C9E DUP3 DUP3 PUSH2 0x5AC3 JUMP JUMPDEST PUSH2 0x2CA8 SWAP2 SWAP1 PUSH2 0x5ADA JUMP JUMPDEST EQ PUSH2 0x2CC5 JUMPI PUSH1 0x40 MLOAD PUSH3 0x461BCD PUSH1 0xE5 SHL DUP2 MSTORE PUSH1 0x4 ADD PUSH2 0xDDA SWAP1 PUSH2 0x5AF9 JUMP JUMPDEST PUSH1 0xA SLOAD PUSH1 0x40 DUP1 MLOAD PUSH4 0xF1BA053 PUSH1 0xE3 SHL DUP2 MSTORE SWAP1 MLOAD PUSH0 SWAP3 PUSH1 0x1 PUSH1 0x1 PUSH1 0xA0 SHL SUB AND SWAP2 PUSH4 0x78DD0298 SWAP2 PUSH1 0x4 DUP1 DUP4 ADD SWAP3 PUSH1 0x20 SWAP3 SWAP2 SWAP1 DUP3 SWAP1 SUB ADD DUP2 DUP8 DUP8 GAS CALL ISZERO DUP1 ISZERO PUSH2 0x2D0D JUMPI RETURNDATASIZE PUSH0 PUSH0 RETURNDATACOPY RETURNDATASIZE PUSH0 REVERT JUMPDEST POP POP POP POP PUSH1 0x40 MLOAD RETURNDATASIZE PUSH1 0x1F NOT PUSH1 0x1F DUP3 ADD AND DUP3 ADD DUP1 PUSH1 0x40 MSTORE POP DUP2 ADD SWAP1 PUSH2 0x2D31 SWAP2 SWAP1 PUSH2 0x5B25 JUMP JUMPDEST PUSH1 0x40 DUP1 MLOAD PUSH2 0x140 DUP2 ADD DUP3 MSTORE DUP3 DUP2 MSTORE ADDRESS PUSH1 0x20 DUP3 ADD MSTORE SWAP1 DUP2 ADD DUP7 SWAP1 MSTORE PUSH1 0x60 DUP2 ADD DUP6 SWAP1 MSTORE SWAP1 SWAP2 POP PUSH1 0x80 DUP2 ADD PUSH0 DUP2 MSTORE PUSH1 0x20 ADD PUSH1 0x1 PUSH2 0x2682 JUMP JUMPDEST PUSH1 0x2 SLOAD PUSH1 0x1 PUSH1 0x1 PUSH1 0xA0 SHL SUB AND CALLER EQ DUP1 PUSH2 0x2D89 JUMPI POP PUSH1 0x3 SLOAD PUSH1 0x1 PUSH1 0x1 PUSH1 0xA0 SHL SUB AND CALLER EQ JUMPDEST PUSH2 0x2DA5 JUMPI PUSH1 0x40 MLOAD PUSH3 0x461BCD PUSH1 0xE5 SHL DUP2 MSTORE PUSH1 0x4 ADD PUSH2 0xDDA SWAP1 PUSH2 0x59F5 JUMP JUMPDEST PUSH2 0x2DAD PUSH2 0x4342 JUMP JUMPDEST PUSH2 0x2DB5 PUSH2 0x43B7 JUMP JUMPDEST PUSH0 DUP2 DUP2 MSTORE PUSH1 0x19 PUSH1 0x20 MSTORE PUSH1 0x40 DUP2 KECCAK256 DUP1 SLOAD SWAP1 SWAP2 SUB PUSH2 0x2DE3 JUMPI PUSH1 0x40 MLOAD PUSH3 0x461BCD PUSH1 0xE5 SHL DUP2 MSTORE PUSH1 0x4 ADD PUSH2 0xDDA SWAP1 PUSH2 0x5CCA JUMP JUMPDEST PUSH1 0x2 SLOAD PUSH1 0x1 PUSH1 0x1 PUSH1 0xA0 SHL SUB AND CALLER SUB PUSH2 0x2E2F JUMPI PUSH1 0x1 DUP2 ADD SLOAD PUSH1 0xFF AND ISZERO PUSH2 0x2E1A JUMPI PUSH1 0x40 MLOAD PUSH3 0x461BCD PUSH1 0xE5 SHL DUP2 MSTORE PUSH1 0x4 ADD PUSH2 0xDDA SWAP1 PUSH2 0x5CF9 JUMP JUMPDEST PUSH1 0x1 DUP2 DUP2 ADD DUP1 SLOAD PUSH1 0xFF NOT AND SWAP1 SWAP2 OR SWAP1 SSTORE PUSH2 0x2E7D JUMP JUMPDEST PUSH1 0x3 SLOAD PUSH1 0x1 PUSH1 0x1 PUSH1 0xA0 SHL SUB AND CALLER SUB PUSH2 0x2E7D JUMPI PUSH1 0x1 DUP2 ADD SLOAD PUSH2 0x100 SWAP1 DIV PUSH1 0xFF AND ISZERO PUSH2 0x2E6B JUMPI PUSH1 0x40 MLOAD PUSH3 0x461BCD PUSH1 0xE5 SHL DUP2 MSTORE PUSH1 0x4 ADD PUSH2 0xDDA SWAP1 PUSH2 0x5CF9 JUMP JUMPDEST PUSH1 0x1 DUP2 ADD DUP1 SLOAD PUSH2 0xFF00 NOT AND PUSH2 0x100 OR SWAP1 SSTORE JUMPDEST PUSH1 0x1 DUP2 ADD SLOAD PUSH1 0xFF AND DUP1 ISZERO PUSH2 0x2E9A JUMPI POP PUSH1 0x1 DUP2 ADD SLOAD PUSH2 0x100 SWAP1 DIV PUSH1 0xFF AND JUMPDEST ISZERO PUSH2 0x21C6 JUMPI PUSH2 0x21C6 DUP3 PUSH2 0x4438 JUMP JUMPDEST PUSH1 0x15 DUP2 DUP2 SLOAD DUP2 LT PUSH2 0x2EB7 JUMPI PUSH0 DUP1 REVERT JUMPDEST PUSH0 SWAP2 DUP3 MSTORE PUSH1 0x20 SWAP1 SWAP2 KECCAK256 ADD SLOAD SWAP1 POP DUP2 JUMP JUMPDEST PUSH1 0x2 SLOAD PUSH1 0x1 PUSH1 0x1 PUSH1 0xA0 SHL SUB AND CALLER EQ DUP1 PUSH2 0x2EEA JUMPI POP PUSH1 0x3 SLOAD PUSH1 0x1 PUSH1 0x1 PUSH1 0xA0 SHL SUB AND CALLER EQ JUMPDEST PUSH2 0x2F06 JUMPI PUSH1 0x40 MLOAD PUSH3 0x461BCD PUSH1 0xE5 SHL DUP2 MSTORE PUSH1 0x4 ADD PUSH2 0xDDA SWAP1 PUSH2 0x59F5 JUMP JUMPDEST PUSH2 0x2F0E PUSH2 0x4342 JUMP JUMPDEST PUSH2 0x2F16 PUSH2 0x43B7 JUMP JUMPDEST PUSH1 0x18 DUP1 SLOAD PUSH0 SWAP2 DUP3 PUSH2 0x2F26 DUP4 PUSH2 0x5A43 JUMP JUMPDEST SWAP1 SWAP2 SSTORE POP PUSH1 0x40 DUP1 MLOAD PUSH1 0x60 DUP2 ADD DUP3 MSTORE DUP5 DUP2 MSTORE PUSH0 PUSH1 0x20 DUP1 DUP4 ADD DUP3 DUP2 MSTORE DUP4 DUP6 ADD DUP4 DUP2 MSTORE SWAP6 DUP4 MSTORE PUSH1 0x19 SWAP1 SWAP2 MSTORE SWAP3 SWAP1 KECCAK256 SWAP1 MLOAD DUP2 SSTORE SWAP1 MLOAD PUSH1 0x1 SWAP2 SWAP1 SWAP2 ADD DUP1 SLOAD SWAP3 MLOAD ISZERO ISZERO PUSH2 0x100 MUL PUSH2 0xFF00 NOT SWAP3 ISZERO ISZERO SWAP3 SWAP1 SWAP3 AND PUSH2 0xFFFF NOT SWAP1 SWAP4 AND SWAP3 SWAP1 SWAP3 OR OR SWAP1 SSTORE POP PUSH2 0xE72 PUSH1 0x1 DUP1 SSTORE JUMP JUMPDEST PUSH1 0x2 SLOAD PUSH1 0x1 PUSH1 0x1 PUSH1 0xA0 SHL SUB AND CALLER EQ DUP1 PUSH2 0x2FAD JUMPI POP PUSH1 0x3 SLOAD PUSH1 0x1 PUSH1 0x1 PUSH1 0xA0 SHL SUB AND CALLER EQ JUMPDEST PUSH2 0x2FC9 JUMPI PUSH1 0x40 MLOAD PUSH3 0x461BCD PUSH1 0xE5 SHL DUP2 MSTORE PUSH1 0x4 ADD PUSH2 0xDDA SWAP1 PUSH2 0x59F5 JUMP JUMPDEST PUSH2 0x2FD1 PUSH2 0x4342 JUMP JUMPDEST PUSH2 0x2FD9 PUSH2 0x43B7 JUMP JUMPDEST PUSH0 DUP2 DUP2 MSTORE PUSH1 0x12 PUSH1 0x20 MSTORE PUSH1 0x40 SWAP1 KECCAK256 PUSH1 0x4 DUP2 ADD SLOAD PUSH3 0x10000 SWAP1 DIV PUSH1 0xFF AND DUP1 ISZERO PUSH2 0x300B JUMPI POP PUSH1 0x4 DUP2 ADD SLOAD PUSH4 0x1000000 SWAP1 DIV PUSH1 0xFF AND JUMPDEST PUSH2 0x3027 JUMPI PUSH1 0x40 MLOAD PUSH3 0x461BCD PUSH1 0xE5 SHL DUP2 MSTORE PUSH1 0x4 ADD PUSH2 0xDDA SWAP1 PUSH2 0x5D3F JUMP JUMPDEST PUSH32 0x85BC0FDDA630693F7EB9D27232DD4B373FF0C495943884038449200ADA7D93E6 DUP2 PUSH1 0x5 ADD PUSH1 0x40 MLOAD PUSH2 0x3059 SWAP2 SWAP1 PUSH2 0x5D72 JUMP JUMPDEST PUSH1 0x40 MLOAD DUP1 SWAP2 SUB SWAP1 KECCAK256 SUB PUSH2 0x3074 JUMPI PUSH2 0x306F DUP3 PUSH2 0x4518 JUMP JUMPDEST PUSH2 0x21C6 JUMP JUMPDEST PUSH32 0x2960D925D7F3FC57A6FC5D05AAC27FD1AE17FCF2A31A901375F427C5224E3219 DUP2 PUSH1 0x5 ADD PUSH1 0x40 MLOAD PUSH2 0x30A6 SWAP2 SWAP1 PUSH2 0x5D72 JUMP JUMPDEST PUSH1 0x40 MLOAD DUP1 SWAP2 SUB SWAP1 KECCAK256 SUB PUSH2 0x21C6 JUMPI PUSH2 0x21C6 DUP3 PUSH2 0x4C0B JUMP JUMPDEST PUSH1 0x2 SLOAD PUSH1 0x1 PUSH1 0x1 PUSH1 0xA0 SHL SUB AND CALLER EQ DUP1 PUSH2 0x30DF JUMPI POP PUSH1 0x3 SLOAD PUSH1 0x1 PUSH1 0x1 PUSH1 0xA0 SHL SUB AND CALLER EQ JUMPDEST PUSH2 0x30FB JUMPI PUSH1 0x40 MLOAD PUSH3 0x461BCD PUSH1 0xE5 SHL DUP2 MSTORE PUSH1 0x4 ADD PUSH2 0xDDA SWAP1 PUSH2 0x59F5 JUMP JUMPDEST PUSH2 0x3103 PUSH2 0x4342 JUMP JUMPDEST PUSH2 0x310B PUSH2 0x43B7 JUMP JUMPDEST PUSH1 0x15 SLOAD PUSH1 0x40 DUP1 MLOAD PUSH1 0xC0 DUP2 ADD DUP3 MSTORE PUSH0 DUP1 DUP3 MSTORE PUSH1 0x20 DUP1 DUP4 ADD DUP3 DUP2 MSTORE DUP4 DUP6 ADD DUP8 DUP2 MSTORE PUSH1 0x1 PUSH1 0x1 PUSH1 0xA0 SHL SUB DUP10 DUP2 AND PUSH1 0x60 DUP8 ADD SWAP1 DUP2 MSTORE PUSH1 0x80 DUP8 ADD DUP7 DUP2 MSTORE PUSH1 0xA0 DUP9 ADD DUP11 SWAP1 MSTORE DUP10 DUP8 MSTORE PUSH1 0x14 SWAP1 SWAP6 MSTORE SWAP7 SWAP1 SWAP5 KECCAK256 DUP6 MLOAD DUP2 SLOAD SWAP4 MLOAD PUSH2 0xFFFF NOT SWAP1 SWAP5 AND SWAP1 ISZERO ISZERO PUSH2 0xFF00 NOT AND OR PUSH2 0x100 SWAP4 ISZERO ISZERO SWAP4 SWAP1 SWAP4 MUL SWAP3 SWAP1 SWAP3 OR DUP3 SSTORE MLOAD PUSH1 0x1 DUP3 ADD SSTORE SWAP4 MLOAD PUSH1 0x2 DUP6 ADD DUP1 SLOAD PUSH1 0x1 PUSH1 0x1 PUSH1 0xA0 SHL SUB NOT DUP2 AND SWAP3 SWAP1 SWAP5 AND SWAP2 DUP3 OR DUP2 SSTORE SWAP2 MLOAD SWAP4 SWAP5 SWAP4 SWAP3 PUSH1 0x1 PUSH1 0x1 PUSH1 0xA8 SHL SUB NOT AND OR PUSH1 0x1 PUSH1 0xA0 SHL DUP4 DUP1 ISZERO PUSH2 0x1892 JUMPI PUSH2 0x1892 PUSH2 0x5258 JUMP JUMPDEST PUSH2 0x31CB PUSH2 0x5131 JUMP JUMPDEST PUSH1 0x15 SLOAD DUP3 LT PUSH2 0x3212 JUMPI PUSH1 0x40 MLOAD PUSH3 0x461BCD PUSH1 0xE5 SHL DUP2 MSTORE PUSH1 0x20 PUSH1 0x4 DUP3 ADD MSTORE PUSH1 0x13 PUSH1 0x24 DUP3 ADD MSTORE PUSH19 0x496E646578206F7574206F6620626F756E6473 PUSH1 0x68 SHL PUSH1 0x44 DUP3 ADD MSTORE PUSH1 0x64 ADD PUSH2 0xDDA JUMP JUMPDEST PUSH0 PUSH1 0x15 DUP4 DUP2 SLOAD DUP2 LT PUSH2 0x3226 JUMPI PUSH2 0x3226 PUSH2 0x5A1B JUMP JUMPDEST PUSH0 SWAP2 DUP3 MSTORE PUSH1 0x20 DUP1 DUP4 KECCAK256 SWAP1 SWAP2 ADD SLOAD DUP1 DUP4 MSTORE PUSH1 0x12 DUP3 MSTORE PUSH1 0x40 SWAP3 DUP4 SWAP1 KECCAK256 DUP4 MLOAD PUSH2 0x140 DUP2 ADD DUP6 MSTORE DUP2 SLOAD DUP2 MSTORE PUSH1 0x1 DUP3 ADD SLOAD PUSH1 0x1 PUSH1 0x1 PUSH1 0xA0 SHL SUB AND SWAP4 DUP2 ADD SWAP4 SWAP1 SWAP4 MSTORE PUSH1 0x2 DUP2 ADD SLOAD SWAP4 DUP4 ADD SWAP4 SWAP1 SWAP4 MSTORE PUSH1 0x3 DUP4 ADD SLOAD PUSH1 0x60 DUP4 ADD MSTORE PUSH1 0x4 DUP4 ADD SLOAD SWAP1 SWAP4 POP SWAP1 SWAP2 SWAP1 PUSH1 0x80 DUP4 ADD SWAP1 PUSH1 0xFF AND DUP1 ISZERO PUSH2 0x3299 JUMPI PUSH2 0x3299 PUSH2 0x5258 JUMP JUMPDEST DUP1 ISZERO PUSH2 0x32A7 JUMPI PUSH2 0x32A7 PUSH2 0x5258 JUMP JUMPDEST DUP2 MSTORE PUSH1 0x20 ADD PUSH1 0x4 DUP3 ADD PUSH1 0x1 SWAP1 SLOAD SWAP1 PUSH2 0x100 EXP SWAP1 DIV PUSH1 0xFF AND PUSH1 0x2 DUP2 GT ISZERO PUSH2 0x32CF JUMPI PUSH2 0x32CF PUSH2 0x5258 JUMP JUMPDEST PUSH1 0x2 DUP2 GT ISZERO PUSH2 0x32E0 JUMPI PUSH2 0x32E0 PUSH2 0x5258 JUMP JUMPDEST DUP2 MSTORE PUSH1 0x4 DUP3 ADD SLOAD PUSH1 0xFF PUSH3 0x10000 DUP3 DIV DUP2 AND ISZERO ISZERO PUSH1 0x20 DUP5 ADD MSTORE PUSH4 0x1000000 SWAP1 SWAP2 DIV AND ISZERO ISZERO PUSH1 0x40 DUP3 ADD MSTORE PUSH1 0x5 DUP3 ADD DUP1 SLOAD PUSH1 0x60 SWAP1 SWAP3 ADD SWAP2 PUSH2 0x331D SWAP1 PUSH2 0x59BD JUMP JUMPDEST DUP1 PUSH1 0x1F ADD PUSH1 0x20 DUP1 SWAP2 DIV MUL PUSH1 0x20 ADD PUSH1 0x40 MLOAD SWAP1 DUP2 ADD PUSH1 0x40 MSTORE DUP1 SWAP3 SWAP2 SWAP1 DUP2 DUP2 MSTORE PUSH1 0x20 ADD DUP3 DUP1 SLOAD PUSH2 0x3349 SWAP1 PUSH2 0x59BD JUMP JUMPDEST DUP1 ISZERO PUSH2 0x3394 JUMPI DUP1 PUSH1 0x1F LT PUSH2 0x336B JUMPI PUSH2 0x100 DUP1 DUP4 SLOAD DIV MUL DUP4 MSTORE SWAP2 PUSH1 0x20 ADD SWAP2 PUSH2 0x3394 JUMP JUMPDEST DUP3 ADD SWAP2 SWAP1 PUSH0 MSTORE PUSH1 0x20 PUSH0 KECCAK256 SWAP1 JUMPDEST DUP2 SLOAD DUP2 MSTORE SWAP1 PUSH1 0x1 ADD SWAP1 PUSH1 0x20 ADD DUP1 DUP4 GT PUSH2 0x3377 JUMPI DUP3 SWAP1 SUB PUSH1 0x1F AND DUP3 ADD SWAP2 JUMPDEST POP POP POP SWAP2 DUP4 MSTORE POP POP PUSH1 0x6 SWAP2 SWAP1 SWAP2 ADD SLOAD PUSH1 0xFF AND ISZERO ISZERO PUSH1 0x20 SWAP1 SWAP2 ADD MSTORE SWAP4 SWAP3 POP POP POP JUMP JUMPDEST CALLER PUSH0 SWAP1 DUP2 MSTORE PUSH1 0x16 PUSH1 0x20 MSTORE PUSH1 0x40 SWAP1 KECCAK256 SLOAD PUSH1 0xFF AND PUSH2 0x33E3 JUMPI PUSH1 0x40 MLOAD PUSH3 0x461BCD PUSH1 0xE5 SHL DUP2 MSTORE PUSH1 0x4 ADD PUSH2 0xDDA SWAP1 PUSH2 0x5A5B JUMP JUMPDEST PUSH2 0x33EB PUSH2 0x4342 JUMP JUMPDEST PUSH2 0x33F3 PUSH2 0x43B7 JUMP JUMPDEST PUSH1 0x1 PUSH1 0x1 PUSH1 0xA0 SHL SUB DUP3 AND PUSH0 SWAP1 DUP2 MSTORE PUSH1 0x17 PUSH1 0x20 MSTORE PUSH1 0x40 SWAP1 KECCAK256 DUP1 SLOAD PUSH1 0xFF NOT AND DUP3 ISZERO ISZERO OR SWAP1 SSTORE PUSH1 0x1 DUP1 SSTORE POP POP JUMP JUMPDEST PUSH1 0x2 SLOAD PUSH1 0x1 PUSH1 0x1 PUSH1 0xA0 SHL SUB AND CALLER EQ DUP1 PUSH2 0x3441 JUMPI POP PUSH1 0x3 SLOAD PUSH1 0x1 PUSH1 0x1 PUSH1 0xA0 SHL SUB AND CALLER EQ JUMPDEST PUSH2 0x345D JUMPI PUSH1 0x40 MLOAD PUSH3 0x461BCD PUSH1 0xE5 SHL DUP2 MSTORE PUSH1 0x4 ADD PUSH2 0xDDA SWAP1 PUSH2 0x59F5 JUMP JUMPDEST PUSH2 0x3465 PUSH2 0x4342 JUMP JUMPDEST PUSH2 0x346D PUSH2 0x43B7 JUMP JUMPDEST PUSH0 DUP2 DUP2 MSTORE PUSH1 0x12 PUSH1 0x20 MSTORE PUSH1 0x40 DUP2 KECCAK256 DUP2 DUP2 SSTORE PUSH1 0x1 DUP2 ADD DUP1 SLOAD PUSH1 0x1 PUSH1 0x1 PUSH1 0xA0 SHL SUB NOT AND SWAP1 SSTORE PUSH1 0x2 DUP2 ADD DUP3 SWAP1 SSTORE PUSH1 0x3 DUP2 ADD DUP3 SWAP1 SSTORE PUSH1 0x4 DUP2 ADD DUP1 SLOAD PUSH4 0xFFFFFFFF NOT AND SWAP1 SSTORE SWAP1 PUSH2 0x34BA PUSH1 0x5 DUP4 ADD DUP3 PUSH2 0x51F7 JUMP JUMPDEST POP PUSH1 0x6 ADD DUP1 SLOAD PUSH1 0xFF NOT AND SWAP1 SSTORE PUSH0 JUMPDEST PUSH1 0x15 SLOAD DUP2 LT ISZERO PUSH2 0x21C6 JUMPI DUP2 PUSH1 0x15 DUP3 DUP2 SLOAD DUP2 LT PUSH2 0x34E6 JUMPI PUSH2 0x34E6 PUSH2 0x5A1B JUMP JUMPDEST SWAP1 PUSH0 MSTORE PUSH1 0x20 PUSH0 KECCAK256 ADD SLOAD SUB PUSH2 0x3564 JUMPI PUSH1 0x15 DUP1 SLOAD PUSH2 0x3504 SWAP1 PUSH1 0x1 SWAP1 PUSH2 0x5A83 JUMP JUMPDEST DUP2 SLOAD DUP2 LT PUSH2 0x3514 JUMPI PUSH2 0x3514 PUSH2 0x5A1B JUMP JUMPDEST SWAP1 PUSH0 MSTORE PUSH1 0x20 PUSH0 KECCAK256 ADD SLOAD PUSH1 0x15 DUP3 DUP2 SLOAD DUP2 LT PUSH2 0x3530 JUMPI PUSH2 0x3530 PUSH2 0x5A1B JUMP JUMPDEST PUSH0 SWAP2 DUP3 MSTORE PUSH1 0x20 SWAP1 SWAP2 KECCAK256 ADD SSTORE PUSH1 0x15 DUP1 SLOAD DUP1 PUSH2 0x354C JUMPI PUSH2 0x354C PUSH2 0x5AAF JUMP JUMPDEST PUSH1 0x1 SWAP1 SUB DUP2 DUP2 SWAP1 PUSH0 MSTORE PUSH1 0x20 PUSH0 KECCAK256 ADD PUSH0 SWAP1 SSTORE SWAP1 SSTORE PUSH2 0x21C6 JUMP JUMPDEST PUSH1 0x1 ADD PUSH2 0x34C8 JUMP JUMPDEST PUSH1 0x12 PUSH1 0x20 MSTORE PUSH0 SWAP1 DUP2 MSTORE PUSH1 0x40 SWAP1 KECCAK256 DUP1 SLOAD PUSH1 0x1 DUP3 ADD SLOAD PUSH1 0x2 DUP4 ADD SLOAD PUSH1 0x3 DUP5 ADD SLOAD PUSH1 0x4 DUP6 ADD SLOAD PUSH1 0x5 DUP7 ADD DUP1 SLOAD SWAP6 SWAP7 PUSH1 0x1 PUSH1 0x1 PUSH1 0xA0 SHL SUB SWAP1 SWAP6 AND SWAP6 SWAP4 SWAP5 SWAP3 SWAP4 PUSH1 0xFF DUP1 DUP5 AND SWAP5 PUSH2 0x100 DUP6 DIV DUP3 AND SWAP5 PUSH3 0x10000 DUP2 DIV DUP4 AND SWAP5 PUSH4 0x1000000 SWAP1 SWAP2 DIV SWAP1 SWAP3 AND SWAP3 SWAP1 SWAP2 SWAP1 PUSH2 0x35D6 SWAP1 PUSH2 0x59BD JUMP JUMPDEST DUP1 PUSH1 0x1F ADD PUSH1 0x20 DUP1 SWAP2 DIV MUL PUSH1 0x20 ADD PUSH1 0x40 MLOAD SWAP1 DUP2 ADD PUSH1 0x40 MSTORE DUP1 SWAP3 SWAP2 SWAP1 DUP2 DUP2 MSTORE PUSH1 0x20 ADD DUP3 DUP1 SLOAD PUSH2 0x3602 SWAP1 PUSH2 0x59BD JUMP JUMPDEST DUP1 ISZERO PUSH2 0x364D JUMPI DUP1 PUSH1 0x1F LT PUSH2 0x3624 JUMPI PUSH2 0x100 DUP1 DUP4 SLOAD DIV MUL DUP4 MSTORE SWAP2 PUSH1 0x20 ADD SWAP2 PUSH2 0x364D JUMP JUMPDEST DUP3 ADD SWAP2 SWAP1 PUSH0 MSTORE PUSH1 0x20 PUSH0 KECCAK256 SWAP1 JUMPDEST DUP2 SLOAD DUP2 MSTORE SWAP1 PUSH1 0x1 ADD SWAP1 PUSH1 0x20 ADD DUP1 DUP4 GT PUSH2 0x3630 JUMPI DUP3 SWAP1 SUB PUSH1 0x1F AND DUP3 ADD SWAP2 JUMPDEST POP POP POP PUSH1 0x6 SWAP1 SWAP4 ADD SLOAD SWAP2 SWAP3 POP POP PUSH1 0xFF AND DUP11 JUMP JUMPDEST PUSH1 0x2 SLOAD PUSH1 0x1 PUSH1 0x1 PUSH1 0xA0 SHL SUB AND CALLER EQ DUP1 PUSH2 0x3683 JUMPI POP PUSH1 0x3 SLOAD PUSH1 0x1 PUSH1 0x1 PUSH1 0xA0 SHL SUB AND CALLER EQ JUMPDEST PUSH2 0x369F JUMPI PUSH1 0x40 MLOAD PUSH3 0x461BCD PUSH1 0xE5 SHL DUP2 MSTORE PUSH1 0x4 ADD PUSH2 0xDDA SWAP1 PUSH2 0x59F5 JUMP JUMPDEST PUSH2 0x36A7 PUSH2 0x4342 JUMP JUMPDEST PUSH2 0x36AF PUSH2 0x43B7 JUMP JUMPDEST DUP1 DUP3 PUSH2 0x36BB DUP3 DUP3 PUSH2 0x5AC3 JUMP JUMPDEST PUSH2 0x36C5 SWAP2 SWAP1 PUSH2 0x5ADA JUMP JUMPDEST EQ PUSH2 0x36E2 JUMPI PUSH1 0x40 MLOAD PUSH3 0x461BCD PUSH1 0xE5 SHL DUP2 MSTORE PUSH1 0x4 ADD PUSH2 0xDDA SWAP1 PUSH2 0x5AF9 JUMP JUMPDEST PUSH1 0xA SLOAD PUSH1 0x40 DUP1 MLOAD PUSH4 0xF1BA053 PUSH1 0xE3 SHL DUP2 MSTORE SWAP1 MLOAD PUSH0 SWAP3 PUSH1 0x1 PUSH1 0x1 PUSH1 0xA0 SHL SUB AND SWAP2 PUSH4 0x78DD0298 SWAP2 PUSH1 0x4 DUP1 DUP4 ADD SWAP3 PUSH1 0x20 SWAP3 SWAP2 SWAP1 DUP3 SWAP1 SUB ADD DUP2 DUP8 DUP8 GAS CALL ISZERO DUP1 ISZERO PUSH2 0x372A JUMPI RETURNDATASIZE PUSH0 PUSH0 RETURNDATACOPY RETURNDATASIZE PUSH0 REVERT JUMPDEST POP POP POP POP PUSH1 0x40 MLOAD RETURNDATASIZE PUSH1 0x1F NOT PUSH1 0x1F DUP3 ADD AND DUP3 ADD DUP1 PUSH1 0x40 MSTORE POP DUP2 ADD SWAP1 PUSH2 0x374E SWAP2 SWAP1 PUSH2 0x5B25 JUMP JUMPDEST PUSH1 0x40 DUP1 MLOAD PUSH2 0x140 DUP2 ADD DUP3 MSTORE DUP3 DUP2 MSTORE ADDRESS PUSH1 0x20 DUP3 ADD MSTORE SWAP1 DUP2 ADD DUP6 SWAP1 MSTORE PUSH1 0x60 DUP2 ADD DUP5 SWAP1 MSTORE SWAP1 SWAP2 POP PUSH1 0x80 DUP2 ADD PUSH0 DUP2 MSTORE PUSH1 0x20 ADD PUSH1 0x1 PUSH2 0x1609 JUMP JUMPDEST PUSH0 PUSH0 PUSH0 PUSH0 PUSH0 PUSH1 0x15 DUP1 SLOAD SWAP1 POP DUP7 LT PUSH2 0x37AC JUMPI PUSH1 0x40 MLOAD PUSH3 0x461BCD PUSH1 0xE5 SHL DUP2 MSTORE PUSH1 0x4 ADD PUSH2 0xDDA SWAP1 PUSH2 0x5CA0 JUMP JUMPDEST PUSH0 DUP7 DUP2 MSTORE PUSH1 0x13 PUSH1 0x20 MSTORE PUSH1 0x40 SWAP1 KECCAK256 PUSH1 0x3 ADD SLOAD DUP7 SWAP1 SUB PUSH2 0x3884 JUMPI PUSH0 DUP7 DUP2 MSTORE PUSH1 0x13 PUSH1 0x20 SWAP1 DUP2 MSTORE PUSH1 0x40 DUP1 DUP4 KECCAK256 DUP2 MLOAD PUSH1 0xC0 DUP2 ADD DUP4 MSTORE DUP2 SLOAD PUSH1 0xFF DUP1 DUP3 AND ISZERO ISZERO DUP4 MSTORE PUSH2 0x100 SWAP1 SWAP2 DIV DUP2 AND ISZERO ISZERO SWAP5 DUP3 ADD SWAP5 SWAP1 SWAP5 MSTORE PUSH1 0x1 DUP3 ADD SLOAD SWAP3 DUP2 ADD SWAP3 SWAP1 SWAP3 MSTORE PUSH1 0x2 DUP1 DUP3 ADD SLOAD PUSH1 0x1 PUSH1 0x1 PUSH1 0xA0 SHL SUB DUP2 AND PUSH1 0x60 DUP6 ADD MSTORE SWAP3 SWAP4 SWAP2 SWAP3 PUSH1 0x80 DUP6 ADD SWAP3 PUSH1 0x1 PUSH1 0xA0 SHL SWAP1 SWAP2 DIV AND SWAP1 DUP2 GT ISZERO PUSH2 0x383B JUMPI PUSH2 0x383B PUSH2 0x5258 JUMP JUMPDEST PUSH1 0x2 DUP2 GT ISZERO PUSH2 0x384C JUMPI PUSH2 0x384C PUSH2 0x5258 JUMP JUMPDEST DUP2 MSTORE PUSH1 0x20 ADD PUSH1 0x3 DUP3 ADD SLOAD DUP2 MSTORE POP POP SWAP1 POP DUP1 PUSH0 ADD MLOAD DUP2 PUSH1 0x20 ADD MLOAD DUP3 PUSH1 0x40 ADD MLOAD DUP4 PUSH1 0x60 ADD MLOAD DUP5 PUSH1 0xA0 ADD MLOAD SWAP6 POP SWAP6 POP SWAP6 POP SWAP6 POP SWAP6 POP POP PUSH2 0x3958 JUMP JUMPDEST PUSH0 DUP7 DUP2 MSTORE PUSH1 0x14 PUSH1 0x20 MSTORE PUSH1 0x40 SWAP1 KECCAK256 PUSH1 0x3 ADD SLOAD DUP7 SWAP1 SUB PUSH2 0x391E JUMPI PUSH0 DUP7 DUP2 MSTORE PUSH1 0x14 PUSH1 0x20 SWAP1 DUP2 MSTORE PUSH1 0x40 DUP1 DUP4 KECCAK256 DUP2 MLOAD PUSH1 0xC0 DUP2 ADD DUP4 MSTORE DUP2 SLOAD PUSH1 0xFF DUP1 DUP3 AND ISZERO ISZERO DUP4 MSTORE PUSH2 0x100 SWAP1 SWAP2 DIV DUP2 AND ISZERO ISZERO SWAP5 DUP3 ADD SWAP5 SWAP1 SWAP5 MSTORE PUSH1 0x1 DUP3 ADD SLOAD SWAP3 DUP2 ADD SWAP3 SWAP1 SWAP3 MSTORE PUSH1 0x2 DUP2 ADD SLOAD PUSH1 0x1 PUSH1 0x1 PUSH1 0xA0 SHL SUB DUP2 AND PUSH1 0x60 DUP5 ADD MSTORE SWAP2 SWAP3 SWAP1 SWAP2 PUSH1 0x80 DUP5 ADD SWAP2 PUSH1 0x1 PUSH1 0xA0 SHL SWAP1 SWAP2 DIV AND DUP1 ISZERO PUSH2 0x3910 JUMPI PUSH2 0x3910 PUSH2 0x5258 JUMP JUMPDEST DUP1 ISZERO PUSH2 0x384C JUMPI PUSH2 0x384C PUSH2 0x5258 JUMP JUMPDEST PUSH1 0x40 MLOAD PUSH3 0x461BCD PUSH1 0xE5 SHL DUP2 MSTORE PUSH1 0x20 PUSH1 0x4 DUP3 ADD MSTORE PUSH1 0xF PUSH1 0x24 DUP3 ADD MSTORE PUSH15 0x13DC99195C881B9BDD08199BDD5B99 PUSH1 0x8A SHL PUSH1 0x44 DUP3 ADD MSTORE PUSH1 0x64 ADD PUSH2 0xDDA JUMP JUMPDEST SWAP2 SWAP4 SWAP6 SWAP1 SWAP3 SWAP5 POP JUMP JUMPDEST PUSH1 0x2 SLOAD PUSH1 0x1 PUSH1 0x1 PUSH1 0xA0 SHL SUB AND CALLER EQ DUP1 PUSH2 0x3984 JUMPI POP PUSH1 0x3 SLOAD PUSH1 0x1 PUSH1 0x1 PUSH1 0xA0 SHL SUB AND CALLER EQ JUMPDEST PUSH2 0x39A0 JUMPI PUSH1 0x40 MLOAD PUSH3 0x461BCD PUSH1 0xE5 SHL DUP2 MSTORE PUSH1 0x4 ADD PUSH2 0xDDA SWAP1 PUSH2 0x59F5 JUMP JUMPDEST PUSH2 0x39A8 PUSH2 0x4342 JUMP JUMPDEST PUSH2 0x39B0 PUSH2 0x43B7 JUMP JUMPDEST DUP1 DUP3 PUSH2 0x39BC DUP3 DUP3 PUSH2 0x5AC3 JUMP JUMPDEST PUSH2 0x39C6 SWAP2 SWAP1 PUSH2 0x5ADA JUMP JUMPDEST EQ PUSH2 0x39E3 JUMPI PUSH1 0x40 MLOAD PUSH3 0x461BCD PUSH1 0xE5 SHL DUP2 MSTORE PUSH1 0x4 ADD PUSH2 0xDDA SWAP1 PUSH2 0x5AF9 JUMP JUMPDEST PUSH1 0xA SLOAD PUSH1 0x40 DUP1 MLOAD PUSH4 0xF1BA053 PUSH1 0xE3 SHL DUP2 MSTORE SWAP1 MLOAD PUSH0 SWAP3 PUSH1 0x1 PUSH1 0x1 PUSH1 0xA0 SHL SUB AND SWAP2 PUSH4 0x78DD0298 SWAP2 PUSH1 0x4 DUP1 DUP4 ADD SWAP3 PUSH1 0x20 SWAP3 SWAP2 SWAP1 DUP3 SWAP1 SUB ADD DUP2 DUP8 DUP8 GAS CALL ISZERO DUP1 ISZERO PUSH2 0x3A2B JUMPI RETURNDATASIZE PUSH0 PUSH0 RETURNDATACOPY RETURNDATASIZE PUSH0 REVERT JUMPDEST POP POP POP POP PUSH1 0x40 MLOAD RETURNDATASIZE PUSH1 0x1F NOT PUSH1 0x1F DUP3 ADD AND DUP3 ADD DUP1 PUSH1 0x40 MSTORE POP DUP2 ADD SWAP1 PUSH2 0x3A4F SWAP2 SWAP1 PUSH2 0x5B25 JUMP JUMPDEST PUSH1 0x40 DUP1 MLOAD PUSH2 0x140 DUP2 ADD DUP3 MSTORE DUP3 DUP2 MSTORE ADDRESS PUSH1 0x20 DUP3 ADD MSTORE SWAP1 DUP2 ADD DUP6 SWAP1 MSTORE PUSH1 0x60 DUP2 ADD DUP5 SWAP1 MSTORE SWAP1 SWAP2 POP PUSH1 0x80 DUP2 ADD PUSH0 DUP2 MSTORE PUSH1 0x20 ADD PUSH0 PUSH2 0x1609 JUMP JUMPDEST PUSH1 0x2 SLOAD PUSH1 0x1 PUSH1 0x1 PUSH1 0xA0 SHL SUB AND CALLER EQ DUP1 PUSH2 0x3AA6 JUMPI POP PUSH1 0x3 SLOAD PUSH1 0x1 PUSH1 0x1 PUSH1 0xA0 SHL SUB AND CALLER EQ JUMPDEST PUSH2 0x3AC2 JUMPI PUSH1 0x40 MLOAD PUSH3 0x461BCD PUSH1 0xE5 SHL DUP2 MSTORE PUSH1 0x4 ADD PUSH2 0xDDA SWAP1 PUSH2 0x59F5 JUMP JUMPDEST PUSH2 0x3ACA PUSH2 0x4342 JUMP JUMPDEST PUSH2 0x3AD2 PUSH2 0x43B7 JUMP JUMPDEST DUP2 DUP4 PUSH2 0x3ADE DUP3 DUP3 PUSH2 0x5AC3 JUMP JUMPDEST PUSH2 0x3AE8 SWAP2 SWAP1 PUSH2 0x5ADA JUMP JUMPDEST EQ PUSH2 0x3B05 JUMPI PUSH1 0x40 MLOAD PUSH3 0x461BCD PUSH1 0xE5 SHL DUP2 MSTORE PUSH1 0x4 ADD PUSH2 0xDDA SWAP1 PUSH2 0x5AF9 JUMP JUMPDEST PUSH1 0xA SLOAD PUSH1 0x40 DUP1 MLOAD PUSH4 0xF1BA053 PUSH1 0xE3 SHL DUP2 MSTORE SWAP1 MLOAD PUSH0 SWAP3 PUSH1 0x1 PUSH1 0x1 PUSH1 0xA0 SHL SUB AND SWAP2 PUSH4 0x78DD0298 SWAP2 PUSH1 0x4 DUP1 DUP4 ADD SWAP3 PUSH1 0x20 SWAP3 SWAP2 SWAP1 DUP3 SWAP1 SUB ADD DUP2 DUP8 DUP8 GAS CALL ISZERO DUP1 ISZERO PUSH2 0x3B4D JUMPI RETURNDATASIZE PUSH0 PUSH0 RETURNDATACOPY RETURNDATASIZE PUSH0 REVERT JUMPDEST POP POP POP POP PUSH1 0x40 MLOAD RETURNDATASIZE PUSH1 0x1F NOT PUSH1 0x1F DUP3 ADD AND DUP3 ADD DUP1 PUSH1 0x40 MSTORE POP DUP2 ADD SWAP1 PUSH2 0x3B71 SWAP2 SWAP1 PUSH2 0x5B25 JUMP JUMPDEST PUSH1 0x40 DUP1 MLOAD PUSH2 0x140 DUP2 ADD DUP3 MSTORE DUP3 DUP2 MSTORE ADDRESS PUSH1 0x20 DUP3 ADD MSTORE SWAP1 DUP2 ADD DUP7 SWAP1 MSTORE PUSH1 0x60 DUP2 ADD DUP6 SWAP1 MSTORE SWAP1 SWAP2 POP PUSH1 0x80 DUP2 ADD PUSH0 DUP2 MSTORE PUSH1 0x20 ADD PUSH1 0x2 PUSH2 0x2682 JUMP JUMPDEST PUSH1 0x2 SLOAD PUSH1 0x1 PUSH1 0x1 PUSH1 0xA0 SHL SUB AND CALLER EQ DUP1 PUSH2 0x3BC9 JUMPI POP PUSH1 0x3 SLOAD PUSH1 0x1 PUSH1 0x1 PUSH1 0xA0 SHL SUB AND CALLER EQ JUMPDEST PUSH2 0x3BE5 JUMPI PUSH1 0x40 MLOAD PUSH3 0x461BCD PUSH1 0xE5 SHL DUP2 MSTORE PUSH1 0x4 ADD PUSH2 0xDDA SWAP1 PUSH2 0x59F5 JUMP JUMPDEST PUSH2 0x3BED PUSH2 0x4342 JUMP JUMPDEST PUSH2 0x3BF5 PUSH2 0x43B7 JUMP JUMPDEST PUSH0 DUP2 DUP2 MSTORE PUSH1 0x13 PUSH1 0x20 MSTORE PUSH1 0x40 SWAP1 KECCAK256 PUSH1 0x2 ADD SLOAD PUSH1 0x1 PUSH1 0x1 PUSH1 0xA0 SHL SUB AND ISZERO PUSH2 0x4039 JUMPI PUSH0 DUP2 DUP2 MSTORE PUSH1 0x13 PUSH1 0x20 MSTORE PUSH1 0x40 SWAP1 KECCAK256 DUP1 SLOAD PUSH1 0xFF AND DUP1 ISZERO PUSH2 0x3C38 JUMPI POP DUP1 SLOAD PUSH2 0x100 SWAP1 DIV PUSH1 0xFF AND JUMPDEST PUSH2 0x3C54 JUMPI PUSH1 0x40 MLOAD PUSH3 0x461BCD PUSH1 0xE5 SHL DUP2 MSTORE PUSH1 0x4 ADD PUSH2 0xDDA SWAP1 PUSH2 0x5DE3 JUMP JUMPDEST PUSH0 PUSH1 0x2 DUP3 DUP2 ADD SLOAD PUSH1 0x1 PUSH1 0xA0 SHL SWAP1 DIV PUSH1 0xFF AND SWAP1 DUP2 GT ISZERO PUSH2 0x3C75 JUMPI PUSH2 0x3C75 PUSH2 0x5258 JUMP JUMPDEST SUB PUSH2 0x3D0E JUMPI DUP1 PUSH1 0x1 ADD SLOAD SELFBALANCE LT ISZERO PUSH2 0x3CCB JUMPI PUSH1 0x40 MLOAD PUSH3 0x461BCD PUSH1 0xE5 SHL DUP2 MSTORE PUSH1 0x20 PUSH1 0x4 DUP3 ADD MSTORE PUSH1 0x1A PUSH1 0x24 DUP3 ADD MSTORE PUSH26 0x496E73756666696369656E742045746865722062616C616E6365 PUSH1 0x30 SHL PUSH1 0x44 DUP3 ADD MSTORE PUSH1 0x64 ADD PUSH2 0xDDA JUMP JUMPDEST PUSH1 0x2 DUP2 ADD SLOAD PUSH1 0x1 DUP3 ADD SLOAD PUSH1 0x40 MLOAD PUSH1 0x1 PUSH1 0x1 PUSH1 0xA0 SHL SUB SWAP1 SWAP3 AND SWAP2 DUP2 ISZERO PUSH2 0x8FC MUL SWAP2 SWAP1 PUSH0 DUP2 DUP2 DUP2 DUP6 DUP9 DUP9 CALL SWAP4 POP POP POP POP ISZERO DUP1 ISZERO PUSH2 0x3D08 JUMPI RETURNDATASIZE PUSH0 PUSH0 RETURNDATACOPY RETURNDATASIZE PUSH0 REVERT JUMPDEST POP PUSH2 0x4000 JUMP JUMPDEST PUSH1 0x1 PUSH1 0x2 DUP3 DUP2 ADD SLOAD PUSH1 0x1 PUSH1 0xA0 SHL SWAP1 DIV PUSH1 0xFF AND SWAP1 DUP2 GT ISZERO PUSH2 0x3D30 JUMPI PUSH2 0x3D30 PUSH2 0x5258 JUMP JUMPDEST SUB PUSH2 0x3E5E JUMPI PUSH1 0x1 DUP2 ADD SLOAD PUSH1 0x4 DUP1 SLOAD PUSH1 0x40 MLOAD PUSH4 0x70A08231 PUSH1 0xE0 SHL DUP2 MSTORE PUSH1 0x1 PUSH1 0x1 PUSH1 0xA0 SHL SUB SWAP1 SWAP2 AND SWAP2 PUSH4 0x70A08231 SWAP2 PUSH2 0x3D69 SWAP2 ADDRESS SWAP2 ADD PUSH2 0x5395 JUMP JUMPDEST PUSH1 0x20 PUSH1 0x40 MLOAD DUP1 DUP4 SUB DUP2 DUP7 GAS STATICCALL ISZERO DUP1 ISZERO PUSH2 0x3D84 JUMPI RETURNDATASIZE PUSH0 PUSH0 RETURNDATACOPY RETURNDATASIZE PUSH0 REVERT JUMPDEST POP POP POP POP PUSH1 0x40 MLOAD RETURNDATASIZE PUSH1 0x1F NOT PUSH1 0x1F DUP3 ADD AND DUP3 ADD DUP1 PUSH1 0x40 MSTORE POP DUP2 ADD SWAP1 PUSH2 0x3DA8 SWAP2 SWAP1 PUSH2 0x5B25 JUMP JUMPDEST LT ISZERO PUSH2 0x3DF2 JUMPI PUSH1 0x40 MLOAD PUSH3 0x461BCD PUSH1 0xE5 SHL DUP2 MSTORE PUSH1 0x20 PUSH1 0x4 DUP3 ADD MSTORE PUSH1 0x19 PUSH1 0x24 DUP3 ADD MSTORE PUSH25 0x496E73756666696369656E7420555344542062616C616E6365 PUSH1 0x38 SHL PUSH1 0x44 DUP3 ADD MSTORE PUSH1 0x64 ADD PUSH2 0xDDA JUMP JUMPDEST PUSH1 0x4 DUP1 SLOAD PUSH1 0x2 DUP4 ADD SLOAD PUSH1 0x1 DUP5 ADD SLOAD PUSH1 0x40 MLOAD PUSH4 0xA9059CBB PUSH1 0xE0 SHL DUP2 MSTORE PUSH1 0x1 PUSH1 0x1 PUSH1 0xA0 SHL SUB SWAP4 DUP5 AND SWAP5 PUSH4 0xA9059CBB SWAP5 PUSH2 0x3E2C SWAP5 AND SWAP3 SWAP2 ADD PUSH2 0x5E18 JUMP JUMPDEST PUSH0 PUSH1 0x40 MLOAD DUP1 DUP4 SUB DUP2 PUSH0 DUP8 DUP1 EXTCODESIZE ISZERO DUP1 ISZERO PUSH2 0x3E43 JUMPI PUSH0 PUSH0 REVERT JUMPDEST POP GAS CALL ISZERO DUP1 ISZERO PUSH2 0x3E55 JUMPI RETURNDATASIZE PUSH0 PUSH0 RETURNDATACOPY RETURNDATASIZE PUSH0 REVERT JUMPDEST POP POP POP POP PUSH2 0x4000 JUMP JUMPDEST PUSH1 0x2 DUP1 DUP3 DUP2 ADD SLOAD PUSH1 0x1 PUSH1 0xA0 SHL SWAP1 DIV PUSH1 0xFF AND SWAP1 DUP2 GT ISZERO PUSH2 0x3E7F JUMPI PUSH2 0x3E7F PUSH2 0x5258 JUMP JUMPDEST SUB PUSH2 0x4000 JUMPI PUSH1 0x1 DUP2 ADD SLOAD PUSH1 0x5 SLOAD PUSH1 0x40 MLOAD PUSH4 0x70A08231 PUSH1 0xE0 SHL DUP2 MSTORE PUSH1 0x1 PUSH1 0x1 PUSH1 0xA0 SHL SUB SWAP1 SWAP2 AND SWAP1 PUSH4 0x70A08231 SWAP1 PUSH2 0x3EB9 SWAP1 ADDRESS SWAP1 PUSH1 0x4 ADD PUSH2 0x5395 JUMP JUMPDEST PUSH1 0x20 PUSH1 0x40 MLOAD DUP1 DUP4 SUB DUP2 DUP7 GAS STATICCALL ISZERO DUP1 ISZERO PUSH2 0x3ED4 JUMPI RETURNDATASIZE PUSH0 PUSH0 RETURNDATACOPY RETURNDATASIZE PUSH0 REVERT JUMPDEST POP POP POP POP PUSH1 0x40 MLOAD RETURNDATASIZE PUSH1 0x1F NOT PUSH1 0x1F DUP3 ADD AND DUP3 ADD DUP1 PUSH1 0x40 MSTORE POP DUP2 ADD SWAP1 PUSH2 0x3EF8 SWAP2 SWAP1 PUSH2 0x5B25 JUMP JUMPDEST LT ISZERO PUSH2 0x3F42 JUMPI PUSH1 0x40 MLOAD PUSH3 0x461BCD PUSH1 0xE5 SHL DUP2 MSTORE PUSH1 0x20 PUSH1 0x4 DUP3 ADD MSTORE PUSH1 0x19 PUSH1 0x24 DUP3 ADD MSTORE PUSH25 0x496E73756666696369656E7420555344432062616C616E6365 PUSH1 0x38 SHL PUSH1 0x44 DUP3 ADD MSTORE PUSH1 0x64 ADD PUSH2 0xDDA JUMP JUMPDEST PUSH1 0x5 SLOAD PUSH1 0x2 DUP3 ADD SLOAD PUSH1 0x1 DUP4 ADD SLOAD PUSH1 0x40 MLOAD PUSH4 0xA9059CBB PUSH1 0xE0 SHL DUP2 MSTORE PUSH1 0x1 PUSH1 0x1 PUSH1 0xA0 SHL SUB SWAP4 DUP5 AND SWAP4 PUSH4 0xA9059CBB SWAP4 PUSH2 0x3F7D SWAP4 SWAP2 AND SWAP2 PUSH1 0x4 ADD PUSH2 0x5E18 JUMP JUMPDEST PUSH1 0x20 PUSH1 0x40 MLOAD DUP1 DUP4 SUB DUP2 PUSH0 DUP8 GAS CALL ISZERO DUP1 ISZERO PUSH2 0x3F99 JUMPI RETURNDATASIZE PUSH0 PUSH0 RETURNDATACOPY RETURNDATASIZE PUSH0 REVERT JUMPDEST POP POP POP POP PUSH1 0x40 MLOAD RETURNDATASIZE PUSH1 0x1F NOT PUSH1 0x1F DUP3 ADD AND DUP3 ADD DUP1 PUSH1 0x40 MSTORE POP DUP2 ADD SWAP1 PUSH2 0x3FBD SWAP2 SWAP1 PUSH2 0x5E31 JUMP JUMPDEST PUSH2 0x4000 JUMPI PUSH1 0x40 MLOAD PUSH3 0x461BCD PUSH1 0xE5 SHL DUP2 MSTORE PUSH1 0x20 PUSH1 0x4 DUP3 ADD MSTORE PUSH1 0x14 PUSH1 0x24 DUP3 ADD MSTORE PUSH20 0x1554D110C81D1C985B9CD9995C8819985A5B1959 PUSH1 0x62 SHL PUSH1 0x44 DUP3 ADD MSTORE PUSH1 0x64 ADD PUSH2 0xDDA JUMP JUMPDEST POP PUSH0 DUP2 DUP2 MSTORE PUSH1 0x13 PUSH1 0x20 MSTORE PUSH1 0x40 DUP2 KECCAK256 DUP1 SLOAD PUSH2 0xFFFF NOT AND DUP2 SSTORE PUSH1 0x1 DUP2 ADD DUP3 SWAP1 SSTORE PUSH1 0x2 DUP2 ADD DUP1 SLOAD PUSH1 0x1 PUSH1 0x1 PUSH1 0xA8 SHL SUB NOT AND SWAP1 SSTORE PUSH1 0x3 ADD SSTORE PUSH2 0x21C8 JUMP JUMPDEST PUSH0 DUP2 DUP2 MSTORE PUSH1 0x14 PUSH1 0x20 MSTORE PUSH1 0x40 SWAP1 KECCAK256 PUSH1 0x2 DUP2 ADD SLOAD PUSH1 0x1 PUSH1 0x1 PUSH1 0xA0 SHL SUB AND PUSH2 0x40B0 JUMPI PUSH1 0x40 MLOAD PUSH3 0x461BCD PUSH1 0xE5 SHL DUP2 MSTORE PUSH1 0x20 PUSH1 0x4 DUP3 ADD MSTORE PUSH1 0x27 PUSH1 0x24 DUP3 ADD MSTORE PUSH32 0x4E6F204E69636B656C69756D207472616E736665722077697468207468697320 PUSH1 0x44 DUP3 ADD MSTORE PUSH7 0x1BDC99195C9251 PUSH1 0xCA SHL PUSH1 0x64 DUP3 ADD MSTORE PUSH1 0x84 ADD PUSH2 0xDDA JUMP JUMPDEST DUP1 SLOAD PUSH1 0xFF AND DUP1 ISZERO PUSH2 0x40C7 JUMPI POP DUP1 SLOAD PUSH2 0x100 SWAP1 DIV PUSH1 0xFF AND JUMPDEST PUSH2 0x40E3 JUMPI PUSH1 0x40 MLOAD PUSH3 0x461BCD PUSH1 0xE5 SHL DUP2 MSTORE PUSH1 0x4 ADD PUSH2 0xDDA SWAP1 PUSH2 0x5DE3 JUMP JUMPDEST PUSH1 0x1 DUP2 ADD SLOAD PUSH1 0x7 SLOAD PUSH1 0x40 MLOAD PUSH4 0x70A08231 PUSH1 0xE0 SHL DUP2 MSTORE PUSH1 0x1 PUSH1 0x1 PUSH1 0xA0 SHL SUB SWAP1 SWAP2 AND SWAP1 PUSH4 0x70A08231 SWAP1 PUSH2 0x4118 SWAP1 ADDRESS SWAP1 PUSH1 0x4 ADD PUSH2 0x5395 JUMP JUMPDEST PUSH1 0x20 PUSH1 0x40 MLOAD DUP1 DUP4 SUB DUP2 DUP7 GAS STATICCALL ISZERO DUP1 ISZERO PUSH2 0x4133 JUMPI RETURNDATASIZE PUSH0 PUSH0 RETURNDATACOPY RETURNDATASIZE PUSH0 REVERT JUMPDEST POP POP POP POP PUSH1 0x40 MLOAD RETURNDATASIZE PUSH1 0x1F NOT PUSH1 0x1F DUP3 ADD AND DUP3 ADD DUP1 PUSH1 0x40 MSTORE POP DUP2 ADD SWAP1 PUSH2 0x4157 SWAP2 SWAP1 PUSH2 0x5B25 JUMP JUMPDEST LT ISZERO PUSH2 0x41A5 JUMPI PUSH1 0x40 MLOAD PUSH3 0x461BCD PUSH1 0xE5 SHL DUP2 MSTORE PUSH1 0x20 PUSH1 0x4 DUP3 ADD MSTORE PUSH1 0x1E PUSH1 0x24 DUP3 ADD MSTORE PUSH32 0x496E73756666696369656E74204E69636B656C69756D2062616C616E63650000 PUSH1 0x44 DUP3 ADD MSTORE PUSH1 0x64 ADD PUSH2 0xDDA JUMP JUMPDEST PUSH1 0x7 SLOAD PUSH1 0x2 DUP3 ADD SLOAD PUSH1 0x1 DUP4 ADD SLOAD PUSH1 0x40 MLOAD PUSH4 0xA9059CBB PUSH1 0xE0 SHL DUP2 MSTORE PUSH1 0x1 PUSH1 0x1 PUSH1 0xA0 SHL SUB SWAP4 DUP5 AND SWAP4 PUSH4 0xA9059CBB SWAP4 PUSH2 0x41E0 SWAP4 SWAP2 AND SWAP2 PUSH1 0x4 ADD PUSH2 0x5E18 JUMP JUMPDEST PUSH1 0x20 PUSH1 0x40 MLOAD DUP1 DUP4 SUB DUP2 PUSH0 DUP8 GAS CALL ISZERO DUP1 ISZERO PUSH2 0x41FC JUMPI RETURNDATASIZE PUSH0 PUSH0 RETURNDATACOPY RETURNDATASIZE PUSH0 REVERT JUMPDEST POP POP POP POP PUSH1 0x40 MLOAD RETURNDATASIZE PUSH1 0x1F NOT PUSH1 0x1F DUP3 ADD AND DUP3 ADD DUP1 PUSH1 0x40 MSTORE POP DUP2 ADD SWAP1 PUSH2 0x4220 SWAP2 SWAP1 PUSH2 0x5E31 JUMP JUMPDEST PUSH2 0x4268 JUMPI PUSH1 0x40 MLOAD PUSH3 0x461BCD PUSH1 0xE5 SHL DUP2 MSTORE PUSH1 0x20 PUSH1 0x4 DUP3 ADD MSTORE PUSH1 0x19 PUSH1 0x24 DUP3 ADD MSTORE PUSH25 0x139A58DAD95B1A5D5B481D1C985B9CD9995C8819985A5B1959 PUSH1 0x3A SHL PUSH1 0x44 DUP3 ADD MSTORE PUSH1 0x64 ADD PUSH2 0xDDA JUMP JUMPDEST POP PUSH0 DUP2 DUP2 MSTORE PUSH1 0x14 PUSH1 0x20 MSTORE PUSH1 0x40 DUP2 KECCAK256 DUP1 SLOAD PUSH2 0xFFFF NOT AND DUP2 SSTORE PUSH1 0x1 DUP2 ADD DUP3 SWAP1 SSTORE PUSH1 0x2 DUP2 ADD DUP1 SLOAD PUSH1 0x1 PUSH1 0x1 PUSH1 0xA8 SHL SUB NOT AND SWAP1 SSTORE PUSH1 0x3 ADD SSTORE PUSH2 0xE72 PUSH1 0x1 DUP1 SSTORE JUMP JUMPDEST PUSH1 0x2 SLOAD PUSH1 0x1 PUSH1 0x1 PUSH1 0xA0 SHL SUB AND CALLER EQ DUP1 PUSH2 0x42C8 JUMPI POP PUSH1 0x3 SLOAD PUSH1 0x1 PUSH1 0x1 PUSH1 0xA0 SHL SUB AND CALLER EQ JUMPDEST PUSH2 0x42E4 JUMPI PUSH1 0x40 MLOAD PUSH3 0x461BCD PUSH1 0xE5 SHL DUP2 MSTORE PUSH1 0x4 ADD PUSH2 0xDDA SWAP1 PUSH2 0x59F5 JUMP JUMPDEST PUSH2 0x42EC PUSH2 0x4342 JUMP JUMPDEST PUSH2 0x42F4 PUSH2 0x43B7 JUMP JUMPDEST PUSH0 DUP2 DUP2 MSTORE PUSH1 0x13 PUSH1 0x20 MSTORE PUSH1 0x40 SWAP1 KECCAK256 PUSH1 0x2 SLOAD PUSH1 0x1 PUSH1 0x1 PUSH1 0xA0 SHL SUB AND CALLER SUB PUSH2 0x4320 JUMPI DUP1 SLOAD PUSH1 0xFF NOT AND DUP2 SSTORE PUSH2 0x21C6 JUMP JUMPDEST PUSH1 0x3 SLOAD PUSH1 0x1 PUSH1 0x1 PUSH1 0xA0 SHL SUB AND CALLER SUB PUSH2 0x21C6 JUMPI DUP1 SLOAD PUSH2 0xFF00 NOT AND SWAP1 SSTORE PUSH1 0x1 DUP1 SSTORE POP JUMP JUMPDEST PUSH1 0x2 PUSH1 0x1 SLOAD SUB PUSH2 0x4365 JUMPI PUSH1 0x40 MLOAD PUSH4 0x3EE5AEB5 PUSH1 0xE0 SHL DUP2 MSTORE PUSH1 0x4 ADD PUSH1 0x40 MLOAD DUP1 SWAP2 SUB SWAP1 REVERT JUMPDEST PUSH1 0x2 PUSH1 0x1 SSTORE JUMP JUMPDEST PUSH2 0x4374 PUSH2 0x5092 JUMP JUMPDEST PUSH0 DUP1 SLOAD PUSH1 0xFF NOT AND SWAP1 SSTORE PUSH32 0x5DB9EE0A495BF2E6FF9C91A7834C1BA4FDD244A5E8AA4E537BD38AEAE4B073AA CALLER JUMPDEST PUSH1 0x40 MLOAD PUSH2 0x43AD SWAP2 SWAP1 PUSH2 0x5395 JUMP JUMPDEST PUSH1 0x40 MLOAD DUP1 SWAP2 SUB SWAP1 LOG1 JUMP JUMPDEST PUSH0 SLOAD PUSH1 0xFF AND ISZERO PUSH2 0xDFC JUMPI PUSH1 0x40 MLOAD PUSH3 0x461BCD PUSH1 0xE5 SHL DUP2 MSTORE PUSH1 0x20 PUSH1 0x4 DUP3 ADD MSTORE PUSH1 0x10 PUSH1 0x24 DUP3 ADD MSTORE PUSH16 0x14185D5CD8589B194E881C185D5CD959 PUSH1 0x82 SHL PUSH1 0x44 DUP3 ADD MSTORE PUSH1 0x64 ADD PUSH2 0xDDA JUMP JUMPDEST PUSH2 0x4404 PUSH2 0x43B7 JUMP JUMPDEST PUSH0 DUP1 SLOAD PUSH1 0xFF NOT AND PUSH1 0x1 OR SWAP1 SSTORE PUSH32 0x62E78CEA01BEE320CD4E420270B5EA74000D11B0C9F74754EBDBFC544B05A258 PUSH2 0x43A0 CALLER SWAP1 JUMP JUMPDEST PUSH0 DUP2 DUP2 MSTORE PUSH1 0x19 PUSH1 0x20 SWAP1 DUP2 MSTORE PUSH1 0x40 DUP1 DUP4 KECCAK256 DUP2 MLOAD PUSH1 0x60 DUP2 ADD DUP4 MSTORE DUP2 SLOAD DUP1 DUP3 MSTORE PUSH1 0x1 SWAP1 SWAP3 ADD SLOAD PUSH1 0xFF DUP1 DUP3 AND ISZERO ISZERO SWAP6 DUP4 ADD SWAP6 SWAP1 SWAP6 MSTORE PUSH2 0x100 SWAP1 DIV SWAP1 SWAP4 AND ISZERO ISZERO SWAP2 DUP4 ADD SWAP2 SWAP1 SWAP2 MSTORE SWAP1 SWAP2 SUB PUSH2 0x4499 JUMPI PUSH1 0x40 MLOAD PUSH3 0x461BCD PUSH1 0xE5 SHL DUP2 MSTORE PUSH1 0x4 ADD PUSH2 0xDDA SWAP1 PUSH2 0x5CCA JUMP JUMPDEST PUSH1 0x9 SLOAD DUP2 MLOAD PUSH1 0x40 MLOAD PUSH4 0x51272DA3 PUSH1 0xE1 SHL DUP2 MSTORE PUSH1 0x1 PUSH1 0x1 PUSH1 0xA0 SHL SUB SWAP1 SWAP3 AND SWAP2 PUSH4 0xA24E5B46 SWAP2 PUSH2 0x44CC SWAP2 ADDRESS SWAP2 SWAP1 PUSH1 0x4 ADD PUSH2 0x5E18 JUMP JUMPDEST PUSH0 PUSH1 0x40 MLOAD DUP1 DUP4 SUB DUP2 PUSH0 DUP8 DUP1 EXTCODESIZE ISZERO DUP1 ISZERO PUSH2 0x44E3 JUMPI PUSH0 PUSH0 REVERT JUMPDEST POP GAS CALL ISZERO DUP1 ISZERO PUSH2 0x44F5 JUMPI RETURNDATASIZE PUSH0 PUSH0 RETURNDATACOPY RETURNDATASIZE PUSH0 REVERT JUMPDEST POP POP POP PUSH0 SWAP3 DUP4 MSTORE POP POP PUSH1 0x19 PUSH1 0x20 MSTORE PUSH1 0x40 DUP2 KECCAK256 SWAP1 DUP2 SSTORE PUSH1 0x1 ADD DUP1 SLOAD PUSH2 0xFFFF NOT AND SWAP1 SSTORE JUMP JUMPDEST PUSH0 DUP2 DUP2 MSTORE PUSH1 0x12 PUSH1 0x20 MSTORE PUSH1 0x40 SWAP1 KECCAK256 PUSH1 0x4 DUP2 ADD SLOAD PUSH3 0x10000 SWAP1 DIV PUSH1 0xFF AND ISZERO ISZERO PUSH1 0x1 EQ DUP1 ISZERO PUSH2 0x4554 JUMPI POP PUSH1 0x4 DUP2 ADD SLOAD PUSH4 0x1000000 SWAP1 DIV PUSH1 0xFF AND ISZERO ISZERO PUSH1 0x1 EQ JUMPDEST PUSH2 0x4570 JUMPI PUSH1 0x40 MLOAD PUSH3 0x461BCD PUSH1 0xE5 SHL DUP2 MSTORE PUSH1 0x4 ADD PUSH2 0xDDA SWAP1 PUSH2 0x5D3F JUMP JUMPDEST PUSH1 0x3 DUP2 ADD SLOAD PUSH1 0x2 DUP3 ADD SLOAD DUP1 PUSH2 0x4597 JUMPI PUSH1 0x40 MLOAD PUSH3 0x461BCD PUSH1 0xE5 SHL DUP2 MSTORE PUSH1 0x4 ADD PUSH2 0xDDA SWAP1 PUSH2 0x5E4C JUMP JUMPDEST ADDRESS PUSH0 PUSH2 0x3E8 PUSH2 0x45A6 DUP6 DUP6 PUSH2 0x5AC3 JUMP JUMPDEST PUSH2 0x45B0 SWAP2 SWAP1 PUSH2 0x5ADA JUMP JUMPDEST SWAP1 POP PUSH0 PUSH1 0x4 DUP7 ADD SLOAD PUSH2 0x100 SWAP1 DIV PUSH1 0xFF AND PUSH1 0x2 DUP2 GT ISZERO PUSH2 0x45D1 JUMPI PUSH2 0x45D1 PUSH2 0x5258 JUMP JUMPDEST SUB PUSH2 0x4648 JUMPI PUSH1 0x8 SLOAD PUSH1 0x40 MLOAD PUSH4 0x42AF7A0D PUSH1 0xE1 SHL DUP2 MSTORE PUSH1 0x1 PUSH1 0x1 PUSH1 0xA0 SHL SUB SWAP1 SWAP2 AND SWAP1 PUSH4 0x855EF41A SWAP1 PUSH2 0x460D SWAP1 DUP6 SWAP1 PUSH0 SWAP1 DUP7 SWAP1 PUSH1 0x1 SWAP1 PUSH1 0x4 ADD PUSH2 0x5E7D JUMP JUMPDEST PUSH0 PUSH1 0x40 MLOAD DUP1 DUP4 SUB DUP2 PUSH0 DUP8 DUP1 EXTCODESIZE ISZERO DUP1 ISZERO PUSH2 0x4624 JUMPI PUSH0 PUSH0 REVERT JUMPDEST POP GAS CALL ISZERO DUP1 ISZERO PUSH2 0x4636 JUMPI RETURNDATASIZE PUSH0 PUSH0 RETURNDATACOPY RETURNDATASIZE PUSH0 REVERT JUMPDEST POP POP POP POP PUSH2 0x4643 DUP2 PUSH2 0x50DA JUMP JUMPDEST PUSH2 0x4A6B JUMP JUMPDEST PUSH1 0x1 PUSH1 0x4 DUP7 ADD SLOAD PUSH2 0x100 SWAP1 DIV PUSH1 0xFF AND PUSH1 0x2 DUP2 GT ISZERO PUSH2 0x4668 JUMPI PUSH2 0x4668 PUSH2 0x5258 JUMP JUMPDEST SUB PUSH2 0x48F3 JUMPI PUSH0 PUSH1 0x4 PUSH0 SWAP1 SLOAD SWAP1 PUSH2 0x100 EXP SWAP1 DIV PUSH1 0x1 PUSH1 0x1 PUSH1 0xA0 SHL SUB AND PUSH1 0x1 PUSH1 0x1 PUSH1 0xA0 SHL SUB AND PUSH4 0xDD644F72 PUSH1 0x40 MLOAD DUP2 PUSH4 0xFFFFFFFF AND PUSH1 0xE0 SHL DUP2 MSTORE PUSH1 0x4 ADD PUSH1 0x20 PUSH1 0x40 MLOAD DUP1 DUP4 SUB DUP2 DUP7 GAS STATICCALL ISZERO DUP1 ISZERO PUSH2 0x46BE JUMPI RETURNDATASIZE PUSH0 PUSH0 RETURNDATACOPY RETURNDATASIZE PUSH0 REVERT JUMPDEST POP POP POP POP PUSH1 0x40 MLOAD RETURNDATASIZE PUSH1 0x1F NOT PUSH1 0x1F DUP3 ADD AND DUP3 ADD DUP1 PUSH1 0x40 MSTORE POP DUP2 ADD SWAP1 PUSH2 0x46E2 SWAP2 SWAP1 PUSH2 0x5B25 JUMP JUMPDEST SWAP1 POP PUSH0 PUSH1 0x4 PUSH0 SWAP1 SLOAD SWAP1 PUSH2 0x100 EXP SWAP1 DIV PUSH1 0x1 PUSH1 0x1 PUSH1 0xA0 SHL SUB AND PUSH1 0x1 PUSH1 0x1 PUSH1 0xA0 SHL SUB AND PUSH4 0x35390714 PUSH1 0x40 MLOAD DUP2 PUSH4 0xFFFFFFFF AND PUSH1 0xE0 SHL DUP2 MSTORE PUSH1 0x4 ADD PUSH1 0x20 PUSH1 0x40 MLOAD DUP1 DUP4 SUB DUP2 DUP7 GAS STATICCALL ISZERO DUP1 ISZERO PUSH2 0x4735 JUMPI RETURNDATASIZE PUSH0 PUSH0 RETURNDATACOPY RETURNDATASIZE PUSH0 REVERT JUMPDEST POP POP POP POP PUSH1 0x40 MLOAD RETURNDATASIZE PUSH1 0x1F NOT PUSH1 0x1F DUP3 ADD AND DUP3 ADD DUP1 PUSH1 0x40 MSTORE POP DUP2 ADD SWAP1 PUSH2 0x4759 SWAP2 SWAP1 PUSH2 0x5B25 JUMP JUMPDEST SWAP1 POP DUP3 PUSH0 DUP4 ISZERO PUSH2 0x47C3 JUMPI PUSH2 0x476F DUP5 PUSH2 0x2710 PUSH2 0x5A83 JUMP JUMPDEST PUSH2 0x477B DUP7 PUSH2 0x2710 PUSH2 0x5AC3 JUMP JUMPDEST PUSH2 0x4785 SWAP2 SWAP1 PUSH2 0x5ADA JUMP JUMPDEST SWAP2 POP PUSH2 0x2710 PUSH2 0x4794 DUP6 DUP5 PUSH2 0x5AC3 JUMP JUMPDEST PUSH2 0x479E SWAP2 SWAP1 PUSH2 0x5ADA JUMP JUMPDEST SWAP1 POP PUSH0 DUP4 GT DUP1 ISZERO PUSH2 0x47AE JUMPI POP DUP3 DUP2 GT JUMPDEST ISZERO PUSH2 0x47B6 JUMPI POP DUP2 JUMPDEST PUSH2 0x47C0 DUP2 DUP7 PUSH2 0x5A9C JUMP JUMPDEST SWAP2 POP JUMPDEST PUSH1 0x4 DUP1 SLOAD PUSH1 0x40 MLOAD PUSH4 0x95EA7B3 PUSH1 0xE0 SHL DUP2 MSTORE PUSH1 0x1 PUSH1 0x1 PUSH1 0xA0 SHL SUB SWAP1 SWAP2 AND SWAP2 PUSH4 0x95EA7B3 SWAP2 PUSH2 0x47F4 SWAP2 ADDRESS SWAP2 DUP8 SWAP2 ADD PUSH2 0x5E18 JUMP JUMPDEST PUSH0 PUSH1 0x40 MLOAD DUP1 DUP4 SUB DUP2 PUSH0 DUP8 DUP1 EXTCODESIZE ISZERO DUP1 ISZERO PUSH2 0x480B JUMPI PUSH0 PUSH0 REVERT JUMPDEST POP GAS CALL ISZERO DUP1 ISZERO PUSH2 0x481D JUMPI RETURNDATASIZE PUSH0 PUSH0 RETURNDATACOPY RETURNDATASIZE PUSH0 REVERT JUMPDEST POP POP PUSH1 0x4 DUP1 SLOAD PUSH1 0x8 SLOAD PUSH1 0x40 MLOAD PUSH4 0x23B872DD PUSH1 0xE0 SHL DUP2 MSTORE PUSH1 0x1 PUSH1 0x1 PUSH1 0xA0 SHL SUB SWAP3 DUP4 AND SWAP6 POP PUSH4 0x23B872DD SWAP5 POP PUSH2 0x4859 SWAP4 DUP13 SWAP4 SWAP1 SWAP3 AND SWAP2 DUP9 SWAP2 ADD PUSH2 0x5EB1 JUMP JUMPDEST PUSH0 PUSH1 0x40 MLOAD DUP1 DUP4 SUB DUP2 PUSH0 DUP8 DUP1 EXTCODESIZE ISZERO DUP1 ISZERO PUSH2 0x4870 JUMPI PUSH0 PUSH0 REVERT JUMPDEST POP GAS CALL ISZERO DUP1 ISZERO PUSH2 0x4882 JUMPI RETURNDATASIZE PUSH0 PUSH0 RETURNDATACOPY RETURNDATASIZE PUSH0 REVERT JUMPDEST POP POP PUSH1 0x8 SLOAD PUSH1 0x40 MLOAD PUSH4 0x42AF7A0D PUSH1 0xE1 SHL DUP2 MSTORE PUSH1 0x1 PUSH1 0x1 PUSH1 0xA0 SHL SUB SWAP1 SWAP2 AND SWAP3 POP PUSH4 0x855EF41A SWAP2 POP PUSH2 0x48BD SWAP1 DUP10 SWAP1 PUSH1 0x1 SWAP1 DUP8 SWAP1 DUP3 SWAP1 PUSH1 0x4 ADD PUSH2 0x5E7D JUMP JUMPDEST PUSH0 PUSH1 0x40 MLOAD DUP1 DUP4 SUB DUP2 PUSH0 DUP8 DUP1 EXTCODESIZE ISZERO DUP1 ISZERO PUSH2 0x48D4 JUMPI PUSH0 PUSH0 REVERT JUMPDEST POP GAS CALL ISZERO DUP1 ISZERO PUSH2 0x48E6 JUMPI RETURNDATASIZE PUSH0 PUSH0 RETURNDATACOPY RETURNDATASIZE PUSH0 REVERT JUMPDEST POP POP POP POP POP POP POP POP PUSH2 0x4A6B JUMP JUMPDEST PUSH1 0x2 PUSH1 0x4 DUP7 ADD SLOAD PUSH2 0x100 SWAP1 DIV PUSH1 0xFF AND PUSH1 0x2 DUP2 GT ISZERO PUSH2 0x4913 JUMPI PUSH2 0x4913 PUSH2 0x5258 JUMP JUMPDEST SUB PUSH2 0x4A6B JUMPI PUSH1 0x5 SLOAD PUSH1 0x40 MLOAD PUSH4 0x95EA7B3 PUSH1 0xE0 SHL DUP2 MSTORE PUSH1 0x1 PUSH1 0x1 PUSH1 0xA0 SHL SUB SWAP1 SWAP2 AND SWAP1 PUSH4 0x95EA7B3 SWAP1 PUSH2 0x494A SWAP1 ADDRESS SWAP1 DUP6 SWAP1 PUSH1 0x4 ADD PUSH2 0x5E18 JUMP JUMPDEST PUSH1 0x20 PUSH1 0x40 MLOAD DUP1 DUP4 SUB DUP2 PUSH0 DUP8 GAS CALL ISZERO DUP1 ISZERO PUSH2 0x4966 JUMPI RETURNDATASIZE PUSH0 PUSH0 RETURNDATACOPY RETURNDATASIZE PUSH0 REVERT JUMPDEST POP POP POP POP PUSH1 0x40 MLOAD RETURNDATASIZE PUSH1 0x1F NOT PUSH1 0x1F DUP3 ADD AND DUP3 ADD DUP1 PUSH1 0x40 MSTORE POP DUP2 ADD SWAP1 PUSH2 0x498A SWAP2 SWAP1 PUSH2 0x5E31 JUMP JUMPDEST POP PUSH1 0x5 SLOAD PUSH1 0x8 SLOAD PUSH1 0x40 MLOAD PUSH4 0x23B872DD PUSH1 0xE0 SHL DUP2 MSTORE PUSH1 0x1 PUSH1 0x1 PUSH1 0xA0 SHL SUB SWAP3 DUP4 AND SWAP3 PUSH4 0x23B872DD SWAP3 PUSH2 0x49C4 SWAP3 DUP8 SWAP3 SWAP1 SWAP2 AND SWAP1 DUP7 SWAP1 PUSH1 0x4 ADD PUSH2 0x5EB1 JUMP JUMPDEST PUSH1 0x20 PUSH1 0x40 MLOAD DUP1 DUP4 SUB DUP2 PUSH0 DUP8 GAS CALL ISZERO DUP1 ISZERO PUSH2 0x49E0 JUMPI RETURNDATASIZE PUSH0 PUSH0 RETURNDATACOPY RETURNDATASIZE PUSH0 REVERT JUMPDEST POP POP POP POP PUSH1 0x40 MLOAD RETURNDATASIZE PUSH1 0x1F NOT PUSH1 0x1F DUP3 ADD AND DUP3 ADD DUP1 PUSH1 0x40 MSTORE POP DUP2 ADD SWAP1 PUSH2 0x4A04 SWAP2 SWAP1 PUSH2 0x5E31 JUMP JUMPDEST POP PUSH1 0x8 SLOAD PUSH1 0x40 MLOAD PUSH4 0x42AF7A0D PUSH1 0xE1 SHL DUP2 MSTORE PUSH1 0x1 PUSH1 0x1 PUSH1 0xA0 SHL SUB SWAP1 SWAP2 AND SWAP1 PUSH4 0x855EF41A SWAP1 PUSH2 0x4A3D SWAP1 DUP6 SWAP1 PUSH1 0x2 SWAP1 DUP7 SWAP1 PUSH1 0x1 SWAP1 PUSH1 0x4 ADD PUSH2 0x5E7D JUMP JUMPDEST PUSH0 PUSH1 0x40 MLOAD DUP1 DUP4 SUB DUP2 PUSH0 DUP8 DUP1 EXTCODESIZE ISZERO DUP1 ISZERO PUSH2 0x4A54 JUMPI PUSH0 PUSH0 REVERT JUMPDEST POP GAS CALL ISZERO DUP1 ISZERO PUSH2 0x4A66 JUMPI RETURNDATASIZE PUSH0 PUSH0 RETURNDATACOPY RETURNDATASIZE PUSH0 REVERT JUMPDEST POP POP POP POP JUMPDEST PUSH1 0xB SLOAD DUP6 SLOAD PUSH1 0x1 DUP8 ADD SLOAD PUSH1 0x2 DUP9 ADD SLOAD PUSH1 0x3 DUP10 ADD SLOAD PUSH1 0x4 DUP1 DUP12 ADD SLOAD PUSH1 0x40 MLOAD PUSH4 0xCED6F7DF PUSH1 0xE0 SHL DUP2 MSTORE PUSH1 0x1 PUSH1 0x1 PUSH1 0xA0 SHL SUB SWAP8 DUP9 AND SWAP8 PUSH4 0xCED6F7DF SWAP8 PUSH2 0x4AC7 SWAP8 SWAP1 SWAP7 SWAP2 AND SWAP5 SWAP1 SWAP4 SWAP1 SWAP3 PUSH1 0xFF DUP1 DUP3 AND SWAP4 PUSH2 0x100 SWAP1 SWAP3 DIV AND SWAP2 PUSH0 SWAP2 ADD PUSH2 0x5ED5 JUMP JUMPDEST PUSH0 PUSH1 0x40 MLOAD DUP1 DUP4 SUB DUP2 PUSH0 DUP8 DUP1 EXTCODESIZE ISZERO DUP1 ISZERO PUSH2 0x4ADE JUMPI PUSH0 PUSH0 REVERT JUMPDEST POP GAS CALL ISZERO DUP1 ISZERO PUSH2 0x4AF0 JUMPI RETURNDATASIZE PUSH0 PUSH0 RETURNDATACOPY RETURNDATASIZE PUSH0 REVERT JUMPDEST POP POP PUSH1 0x3 DUP1 SLOAD PUSH2 0xFFFF PUSH1 0xA0 SHL NOT AND DUP2 SSTORE PUSH0 DUP10 DUP2 MSTORE PUSH1 0x12 PUSH1 0x20 MSTORE PUSH1 0x40 DUP2 KECCAK256 DUP2 DUP2 SSTORE PUSH1 0x1 DUP2 ADD DUP1 SLOAD PUSH1 0x1 PUSH1 0x1 PUSH1 0xA0 SHL SUB NOT AND SWAP1 SSTORE PUSH1 0x2 DUP2 ADD DUP3 SWAP1 SSTORE SWAP2 DUP3 ADD DUP2 SWAP1 SSTORE PUSH1 0x4 DUP3 ADD DUP1 SLOAD PUSH4 0xFFFFFFFF NOT AND SWAP1 SSTORE SWAP1 SWAP3 POP SWAP1 POP PUSH2 0x4B50 PUSH1 0x5 DUP4 ADD DUP3 PUSH2 0x51F7 JUMP JUMPDEST POP PUSH1 0x6 ADD DUP1 SLOAD PUSH1 0xFF NOT AND SWAP1 SSTORE PUSH0 JUMPDEST PUSH1 0x15 SLOAD DUP2 LT ISZERO PUSH2 0x4C02 JUMPI DUP7 PUSH1 0x15 DUP3 DUP2 SLOAD DUP2 LT PUSH2 0x4B7C JUMPI PUSH2 0x4B7C PUSH2 0x5A1B JUMP JUMPDEST SWAP1 PUSH0 MSTORE PUSH1 0x20 PUSH0 KECCAK256 ADD SLOAD SUB PUSH2 0x4BFA JUMPI PUSH1 0x15 DUP1 SLOAD PUSH2 0x4B9A SWAP1 PUSH1 0x1 SWAP1 PUSH2 0x5A83 JUMP JUMPDEST DUP2 SLOAD DUP2 LT PUSH2 0x4BAA JUMPI PUSH2 0x4BAA PUSH2 0x5A1B JUMP JUMPDEST SWAP1 PUSH0 MSTORE PUSH1 0x20 PUSH0 KECCAK256 ADD SLOAD PUSH1 0x15 DUP3 DUP2 SLOAD DUP2 LT PUSH2 0x4BC6 JUMPI PUSH2 0x4BC6 PUSH2 0x5A1B JUMP JUMPDEST PUSH0 SWAP2 DUP3 MSTORE PUSH1 0x20 SWAP1 SWAP2 KECCAK256 ADD SSTORE PUSH1 0x15 DUP1 SLOAD DUP1 PUSH2 0x4BE2 JUMPI PUSH2 0x4BE2 PUSH2 0x5AAF JUMP JUMPDEST PUSH1 0x1 SWAP1 SUB DUP2 DUP2 SWAP1 PUSH0 MSTORE PUSH1 0x20 PUSH0 KECCAK256 ADD PUSH0 SWAP1 SSTORE SWAP1 SSTORE PUSH2 0x4C02 JUMP JUMPDEST PUSH1 0x1 ADD PUSH2 0x4B5E JUMP JUMPDEST POP POP POP POP POP POP POP JUMP JUMPDEST PUSH0 DUP2 DUP2 MSTORE PUSH1 0x12 PUSH1 0x20 MSTORE PUSH1 0x40 SWAP1 KECCAK256 PUSH1 0x4 DUP2 ADD SLOAD PUSH3 0x10000 SWAP1 DIV PUSH1 0xFF AND ISZERO ISZERO PUSH1 0x1 EQ DUP1 ISZERO PUSH2 0x4C47 JUMPI POP PUSH1 0x4 DUP2 ADD SLOAD PUSH4 0x1000000 SWAP1 DIV PUSH1 0xFF AND ISZERO ISZERO PUSH1 0x1 EQ JUMPDEST PUSH2 0x4C63 JUMPI PUSH1 0x40 MLOAD PUSH3 0x461BCD PUSH1 0xE5 SHL DUP2 MSTORE PUSH1 0x4 ADD PUSH2 0xDDA SWAP1 PUSH2 0x5D3F JUMP JUMPDEST PUSH1 0x3 DUP2 ADD SLOAD PUSH1 0x7 SLOAD PUSH1 0x40 MLOAD PUSH4 0x70A08231 PUSH1 0xE0 SHL DUP2 MSTORE DUP3 SWAP2 PUSH1 0x1 PUSH1 0x1 PUSH1 0xA0 SHL SUB AND SWAP1 PUSH4 0x70A08231 SWAP1 PUSH2 0x4C98 SWAP1 ADDRESS SWAP1 PUSH1 0x4 ADD PUSH2 0x5395 JUMP JUMPDEST PUSH1 0x20 PUSH1 0x40 MLOAD DUP1 DUP4 SUB DUP2 DUP7 GAS STATICCALL ISZERO DUP1 ISZERO PUSH2 0x4CB3 JUMPI RETURNDATASIZE PUSH0 PUSH0 RETURNDATACOPY RETURNDATASIZE PUSH0 REVERT JUMPDEST POP POP POP POP PUSH1 0x40 MLOAD RETURNDATASIZE PUSH1 0x1F NOT PUSH1 0x1F DUP3 ADD AND DUP3 ADD DUP1 PUSH1 0x40 MSTORE POP DUP2 ADD SWAP1 PUSH2 0x4CD7 SWAP2 SWAP1 PUSH2 0x5B25 JUMP JUMPDEST LT ISZERO PUSH2 0x4D34 JUMPI PUSH1 0x40 MLOAD PUSH3 0x461BCD PUSH1 0xE5 SHL DUP2 MSTORE PUSH1 0x20 PUSH1 0x4 DUP3 ADD MSTORE PUSH1 0x26 PUSH1 0x24 DUP3 ADD MSTORE PUSH32 0x496E73756666696369656E742062616C616E636520666F7220746865206F7065 PUSH1 0x44 DUP3 ADD MSTORE PUSH6 0x3930BA34B7B7 PUSH1 0xD1 SHL PUSH1 0x64 DUP3 ADD MSTORE PUSH1 0x84 ADD PUSH2 0xDDA JUMP JUMPDEST PUSH0 DUP3 PUSH1 0x2 ADD SLOAD GT PUSH2 0x4D57 JUMPI PUSH1 0x40 MLOAD PUSH3 0x461BCD PUSH1 0xE5 SHL DUP2 MSTORE PUSH1 0x4 ADD PUSH2 0xDDA SWAP1 PUSH2 0x5E4C JUMP JUMPDEST PUSH1 0x7 SLOAD PUSH1 0x40 MLOAD PUSH4 0x95EA7B3 PUSH1 0xE0 SHL DUP2 MSTORE PUSH1 0x1 PUSH1 0x1 PUSH1 0xA0 SHL SUB SWAP1 SWAP2 AND SWAP1 PUSH4 0x95EA7B3 SWAP1 PUSH2 0x4D89 SWAP1 ADDRESS SWAP1 DUP6 SWAP1 PUSH1 0x4 ADD PUSH2 0x5E18 JUMP JUMPDEST PUSH1 0x20 PUSH1 0x40 MLOAD DUP1 DUP4 SUB DUP2 PUSH0 DUP8 GAS CALL ISZERO DUP1 ISZERO PUSH2 0x4DA5 JUMPI RETURNDATASIZE PUSH0 PUSH0 RETURNDATACOPY RETURNDATASIZE PUSH0 REVERT JUMPDEST POP POP POP POP PUSH1 0x40 MLOAD RETURNDATASIZE PUSH1 0x1F NOT PUSH1 0x1F DUP3 ADD AND DUP3 ADD DUP1 PUSH1 0x40 MSTORE POP DUP2 ADD SWAP1 PUSH2 0x4DC9 SWAP2 SWAP1 PUSH2 0x5E31 JUMP JUMPDEST POP PUSH1 0x7 SLOAD PUSH1 0x8 SLOAD PUSH1 0x40 MLOAD PUSH4 0x95EA7B3 PUSH1 0xE0 SHL DUP2 MSTORE PUSH1 0x1 PUSH1 0x1 PUSH1 0xA0 SHL SUB SWAP3 DUP4 AND SWAP3 PUSH4 0x95EA7B3 SWAP3 PUSH2 0x4E00 SWAP3 SWAP2 AND SWAP1 DUP6 SWAP1 PUSH1 0x4 ADD PUSH2 0x5E18 JUMP JUMPDEST PUSH1 0x20 PUSH1 0x40 MLOAD DUP1 DUP4 SUB DUP2 PUSH0 DUP8 GAS CALL ISZERO DUP1 ISZERO PUSH2 0x4E1C JUMPI RETURNDATASIZE PUSH0 PUSH0 RETURNDATACOPY RETURNDATASIZE PUSH0 REVERT JUMPDEST POP POP POP POP PUSH1 0x40 MLOAD RETURNDATASIZE PUSH1 0x1F NOT PUSH1 0x1F DUP3 ADD AND DUP3 ADD DUP1 PUSH1 0x40 MSTORE POP DUP2 ADD SWAP1 PUSH2 0x4E40 SWAP2 SWAP1 PUSH2 0x5E31 JUMP JUMPDEST POP PUSH1 0x7 SLOAD PUSH1 0x40 MLOAD PUSH4 0x23B872DD PUSH1 0xE0 SHL DUP2 MSTORE PUSH1 0x1 PUSH1 0x1 PUSH1 0xA0 SHL SUB SWAP1 SWAP2 AND SWAP1 PUSH4 0x23B872DD SWAP1 PUSH2 0x4E75 SWAP1 ADDRESS SWAP1 DUP5 SWAP1 DUP7 SWAP1 PUSH1 0x4 ADD PUSH2 0x5EB1 JUMP JUMPDEST PUSH1 0x20 PUSH1 0x40 MLOAD DUP1 DUP4 SUB DUP2 PUSH0 DUP8 GAS CALL ISZERO DUP1 ISZERO PUSH2 0x4E91 JUMPI RETURNDATASIZE PUSH0 PUSH0 RETURNDATACOPY RETURNDATASIZE PUSH0 REVERT JUMPDEST POP POP POP POP PUSH1 0x40 MLOAD RETURNDATASIZE PUSH1 0x1F NOT PUSH1 0x1F DUP3 ADD AND DUP3 ADD DUP1 PUSH1 0x40 MSTORE POP DUP2 ADD SWAP1 PUSH2 0x4EB5 SWAP2 SWAP1 PUSH2 0x5E31 JUMP JUMPDEST PUSH2 0x4EF9 JUMPI PUSH1 0x40 MLOAD PUSH3 0x461BCD PUSH1 0xE5 SHL DUP2 MSTORE PUSH1 0x20 PUSH1 0x4 DUP3 ADD MSTORE PUSH1 0x15 PUSH1 0x24 DUP3 ADD MSTORE PUSH21 0x151BDAD95B881D1C985B9CD9995C8819985A5B1959 PUSH1 0x5A SHL PUSH1 0x44 DUP3 ADD MSTORE PUSH1 0x64 ADD PUSH2 0xDDA JUMP JUMPDEST PUSH1 0xB SLOAD DUP3 SLOAD PUSH1 0x1 DUP5 ADD SLOAD PUSH1 0x2 DUP6 ADD SLOAD PUSH1 0x4 DUP1 DUP8 ADD SLOAD PUSH1 0x6 DUP9 ADD SLOAD PUSH1 0x40 MLOAD PUSH4 0x3518B51 PUSH1 0xE2 SHL DUP2 MSTORE PUSH1 0x1 PUSH1 0x1 PUSH1 0xA0 SHL SUB SWAP8 DUP9 AND SWAP8 PUSH4 0xD462D44 SWAP8 PUSH2 0x4F57 SWAP8 SWAP1 SWAP7 SWAP2 AND SWAP5 SWAP1 SWAP4 DUP11 SWAP4 PUSH1 0xFF DUP1 DUP4 AND SWAP5 PUSH2 0x100 SWAP1 SWAP4 DIV DUP2 AND SWAP4 SWAP2 AND SWAP2 ADD PUSH2 0x5ED5 JUMP JUMPDEST PUSH0 PUSH1 0x40 MLOAD DUP1 DUP4 SUB DUP2 PUSH0 DUP8 DUP1 EXTCODESIZE ISZERO DUP1 ISZERO PUSH2 0x4F6E JUMPI PUSH0 PUSH0 REVERT JUMPDEST POP GAS CALL ISZERO DUP1 ISZERO PUSH2 0x4F80 JUMPI RETURNDATASIZE PUSH0 PUSH0 RETURNDATACOPY RETURNDATASIZE PUSH0 REVERT JUMPDEST POP POP PUSH1 0x3 DUP1 SLOAD PUSH2 0xFFFF PUSH1 0xA0 SHL NOT AND DUP2 SSTORE PUSH0 DUP7 DUP2 MSTORE PUSH1 0x12 PUSH1 0x20 MSTORE PUSH1 0x40 DUP2 KECCAK256 DUP2 DUP2 SSTORE PUSH1 0x1 DUP2 ADD DUP1 SLOAD PUSH1 0x1 PUSH1 0x1 PUSH1 0xA0 SHL SUB NOT AND SWAP1 SSTORE PUSH1 0x2 DUP2 ADD DUP3 SWAP1 SSTORE SWAP2 DUP3 ADD DUP2 SWAP1 SSTORE PUSH1 0x4 DUP3 ADD DUP1 SLOAD PUSH4 0xFFFFFFFF NOT AND SWAP1 SSTORE SWAP1 SWAP3 POP SWAP1 POP PUSH2 0x4FE0 PUSH1 0x5 DUP4 ADD DUP3 PUSH2 0x51F7 JUMP JUMPDEST POP PUSH1 0x6 ADD DUP1 SLOAD PUSH1 0xFF NOT AND SWAP1 SSTORE PUSH0 JUMPDEST PUSH1 0x15 SLOAD DUP2 LT ISZERO PUSH2 0x1C6D JUMPI DUP4 PUSH1 0x15 DUP3 DUP2 SLOAD DUP2 LT PUSH2 0x500C JUMPI PUSH2 0x500C PUSH2 0x5A1B JUMP JUMPDEST SWAP1 PUSH0 MSTORE PUSH1 0x20 PUSH0 KECCAK256 ADD SLOAD SUB PUSH2 0x508A JUMPI PUSH1 0x15 DUP1 SLOAD PUSH2 0x502A SWAP1 PUSH1 0x1 SWAP1 PUSH2 0x5A83 JUMP JUMPDEST DUP2 SLOAD DUP2 LT PUSH2 0x503A JUMPI PUSH2 0x503A PUSH2 0x5A1B JUMP JUMPDEST SWAP1 PUSH0 MSTORE PUSH1 0x20 PUSH0 KECCAK256 ADD SLOAD PUSH1 0x15 DUP3 DUP2 SLOAD DUP2 LT PUSH2 0x5056 JUMPI PUSH2 0x5056 PUSH2 0x5A1B JUMP JUMPDEST PUSH0 SWAP2 DUP3 MSTORE PUSH1 0x20 SWAP1 SWAP2 KECCAK256 ADD SSTORE PUSH1 0x15 DUP1 SLOAD DUP1 PUSH2 0x5072 JUMPI PUSH2 0x5072 PUSH2 0x5AAF JUMP JUMPDEST PUSH1 0x1 SWAP1 SUB DUP2 DUP2 SWAP1 PUSH0 MSTORE PUSH1 0x20 PUSH0 KECCAK256 ADD PUSH0 SWAP1 SSTORE SWAP1 SSTORE PUSH2 0x1C6D JUMP JUMPDEST PUSH1 0x1 ADD PUSH2 0x4FEE JUMP JUMPDEST PUSH0 SLOAD PUSH1 0xFF AND PUSH2 0xDFC JUMPI PUSH1 0x40 MLOAD PUSH3 0x461BCD PUSH1 0xE5 SHL DUP2 MSTORE PUSH1 0x20 PUSH1 0x4 DUP3 ADD MSTORE PUSH1 0x14 PUSH1 0x24 DUP3 ADD MSTORE PUSH20 0x14185D5CD8589B194E881B9BDD081C185D5CD959 PUSH1 0x62 SHL PUSH1 0x44 DUP3 ADD MSTORE PUSH1 0x64 ADD PUSH2 0xDDA JUMP JUMPDEST DUP1 SELFBALANCE LT ISZERO PUSH2 0x50FA JUMPI PUSH1 0x40 MLOAD PUSH3 0x461BCD PUSH1 0xE5 SHL DUP2 MSTORE PUSH1 0x4 ADD PUSH2 0xDDA SWAP1 PUSH2 0x5C41 JUMP JUMPDEST PUSH1 0xA SLOAD PUSH1 0x40 MLOAD PUSH1 0x1 PUSH1 0x1 PUSH1 0xA0 SHL SUB SWAP1 SWAP2 AND SWAP1 DUP3 ISZERO PUSH2 0x8FC MUL SWAP1 DUP4 SWAP1 PUSH0 DUP2 DUP2 DUP2 DUP6 DUP9 DUP9 CALL SWAP4 POP POP POP POP ISZERO DUP1 ISZERO PUSH2 0x131F JUMPI RETURNDATASIZE PUSH0 PUSH0 RETURNDATACOPY RETURNDATASIZE PUSH0 REVERT JUMPDEST PUSH1 0x40 MLOAD DUP1 PUSH2 0x140 ADD PUSH1 0x40 MSTORE DUP1 PUSH0 DUP2 MSTORE PUSH1 0x20 ADD PUSH0 PUSH1 0x1 PUSH1 0x1 PUSH1 0xA0 SHL SUB AND DUP2 MSTORE PUSH1 0x20 ADD PUSH0 DUP2 MSTORE PUSH1 0x20 ADD PUSH0 DUP2 MSTORE PUSH1 0x20 ADD PUSH0 PUSH0 DUP2 GT ISZERO PUSH2 0x516F JUMPI PUSH2 0x516F PUSH2 0x5258 JUMP JUMPDEST DUP2 MSTORE PUSH1 0x20 ADD PUSH0 DUP2 MSTORE PUSH0 PUSH1 0x20 DUP3 ADD DUP2 SWAP1 MSTORE PUSH1 0x40 DUP3 ADD DUP2 SWAP1 MSTORE PUSH1 0x60 DUP1 DUP4 ADD MSTORE PUSH1 0x80 SWAP1 SWAP2 ADD MSTORE SWAP1 JUMP JUMPDEST PUSH1 0x40 DUP1 MLOAD PUSH1 0xC0 DUP2 ADD DUP3 MSTORE PUSH0 DUP1 DUP3 MSTORE PUSH1 0x20 DUP3 ADD DUP2 SWAP1 MSTORE SWAP2 DUP2 ADD DUP3 SWAP1 MSTORE PUSH1 0x60 DUP2 ADD DUP3 SWAP1 MSTORE SWAP1 PUSH1 0x80 DUP3 ADD SWAP1 JUMPDEST DUP2 MSTORE PUSH1 0x20 ADD PUSH0 DUP2 MSTORE POP SWAP1 JUMP JUMPDEST PUSH1 0x40 DUP1 MLOAD PUSH1 0xC0 DUP2 ADD DUP3 MSTORE PUSH0 DUP1 DUP3 MSTORE PUSH1 0x20 DUP3 ADD DUP2 SWAP1 MSTORE SWAP2 DUP2 ADD DUP3 SWAP1 MSTORE PUSH1 0x60 DUP2 ADD DUP3 SWAP1 MSTORE SWAP1 PUSH1 0x80 DUP3 ADD SWAP1 PUSH2 0x51BE JUMP JUMPDEST POP DUP1 SLOAD PUSH2 0x5203 SWAP1 PUSH2 0x59BD JUMP JUMPDEST PUSH0 DUP3 SSTORE DUP1 PUSH1 0x1F LT PUSH2 0x5212 JUMPI POP POP JUMP JUMPDEST PUSH1 0x1F ADD PUSH1 0x20 SWAP1 DIV SWAP1 PUSH0 MSTORE PUSH1 0x20 PUSH0 KECCAK256 SWAP1 DUP2 ADD SWAP1 PUSH2 0xE72 SWAP2 SWAP1 JUMPDEST DUP1 DUP3 GT ISZERO PUSH2 0x523D JUMPI PUSH0 DUP2 SSTORE PUSH1 0x1 ADD PUSH2 0x522A JUMP JUMPDEST POP SWAP1 JUMP JUMPDEST PUSH0 PUSH1 0x20 DUP3 DUP5 SUB SLT ISZERO PUSH2 0x5251 JUMPI PUSH0 PUSH0 REVERT JUMPDEST POP CALLDATALOAD SWAP2 SWAP1 POP JUMP JUMPDEST PUSH4 0x4E487B71 PUSH1 0xE0 SHL PUSH0 MSTORE PUSH1 0x21 PUSH1 0x4 MSTORE PUSH1 0x24 PUSH0 REVERT JUMPDEST PUSH1 0x1 DUP2 LT PUSH2 0x527C JUMPI PUSH2 0x527C PUSH2 0x5258 JUMP JUMPDEST SWAP1 MSTORE JUMP JUMPDEST PUSH1 0x3 DUP2 LT PUSH2 0x527C JUMPI PUSH2 0x527C PUSH2 0x5258 JUMP JUMPDEST PUSH0 DUP2 MLOAD DUP1 DUP5 MSTORE DUP1 PUSH1 0x20 DUP5 ADD PUSH1 0x20 DUP7 ADD MCOPY PUSH0 PUSH1 0x20 DUP3 DUP7 ADD ADD MSTORE PUSH1 0x20 PUSH1 0x1F NOT PUSH1 0x1F DUP4 ADD AND DUP6 ADD ADD SWAP2 POP POP SWAP3 SWAP2 POP POP JUMP JUMPDEST DUP1 MLOAD DUP3 MSTORE PUSH0 PUSH1 0x20 DUP3 ADD MLOAD PUSH2 0x52DD PUSH1 0x20 DUP6 ADD DUP3 PUSH1 0x1 PUSH1 0x1 PUSH1 0xA0 SHL SUB AND SWAP1 MSTORE JUMP JUMPDEST POP PUSH1 0x40 DUP3 ADD MLOAD PUSH1 0x40 DUP5 ADD MSTORE PUSH1 0x60 DUP3 ADD MLOAD PUSH1 0x60 DUP5 ADD MSTORE PUSH1 0x80 DUP3 ADD MLOAD PUSH2 0x5304 PUSH1 0x80 DUP6 ADD DUP3 PUSH2 0x526C JUMP JUMPDEST POP PUSH1 0xA0 DUP3 ADD MLOAD PUSH2 0x5317 PUSH1 0xA0 DUP6 ADD DUP3 PUSH2 0x5280 JUMP JUMPDEST POP PUSH1 0xC0 DUP3 ADD MLOAD PUSH2 0x532B PUSH1 0xC0 DUP6 ADD DUP3 ISZERO ISZERO SWAP1 MSTORE JUMP JUMPDEST POP PUSH1 0xE0 DUP3 ADD MLOAD PUSH2 0x533F PUSH1 0xE0 DUP6 ADD DUP3 ISZERO ISZERO SWAP1 MSTORE JUMP JUMPDEST POP PUSH2 0x100 DUP3 ADD MLOAD PUSH2 0x140 PUSH2 0x100 DUP6 ADD MSTORE PUSH2 0x535D PUSH2 0x140 DUP6 ADD DUP3 PUSH2 0x5290 JUMP JUMPDEST SWAP1 POP PUSH2 0x120 DUP4 ADD MLOAD PUSH2 0x5374 PUSH2 0x120 DUP7 ADD DUP3 ISZERO ISZERO SWAP1 MSTORE JUMP JUMPDEST POP SWAP4 SWAP3 POP POP POP JUMP JUMPDEST PUSH1 0x20 DUP2 MSTORE PUSH0 PUSH2 0x538E PUSH1 0x20 DUP4 ADD DUP5 PUSH2 0x52BE JUMP JUMPDEST SWAP4 SWAP3 POP POP POP JUMP JUMPDEST PUSH1 0x1 PUSH1 0x1 PUSH1 0xA0 SHL SUB SWAP2 SWAP1 SWAP2 AND DUP2 MSTORE PUSH1 0x20 ADD SWAP1 JUMP JUMPDEST PUSH0 PUSH1 0x20 DUP3 ADD PUSH1 0x20 DUP4 MSTORE DUP1 DUP5 MLOAD DUP1 DUP4 MSTORE PUSH1 0x40 DUP6 ADD SWAP2 POP PUSH1 0x40 DUP2 PUSH1 0x5 SHL DUP7 ADD ADD SWAP3 POP PUSH1 0x20 DUP7 ADD PUSH0 JUMPDEST DUP3 DUP2 LT ISZERO PUSH2 0x5400 JUMPI PUSH1 0x3F NOT DUP8 DUP7 SUB ADD DUP5 MSTORE PUSH2 0x53EB DUP6 DUP4 MLOAD PUSH2 0x52BE JUMP JUMPDEST SWAP5 POP PUSH1 0x20 SWAP4 DUP5 ADD SWAP4 SWAP2 SWAP1 SWAP2 ADD SWAP1 PUSH1 0x1 ADD PUSH2 0x53CF JUMP JUMPDEST POP SWAP3 SWAP7 SWAP6 POP POP POP POP POP POP JUMP JUMPDEST PUSH1 0x1 PUSH1 0x1 PUSH1 0xA0 SHL SUB DUP2 AND DUP2 EQ PUSH2 0xE72 JUMPI PUSH0 PUSH0 REVERT JUMPDEST DUP1 CALLDATALOAD PUSH2 0x542B DUP2 PUSH2 0x540C JUMP JUMPDEST SWAP2 SWAP1 POP JUMP JUMPDEST DUP1 ISZERO ISZERO DUP2 EQ PUSH2 0xE72 JUMPI PUSH0 PUSH0 REVERT JUMPDEST PUSH0 PUSH0 PUSH1 0x40 DUP4 DUP6 SUB SLT ISZERO PUSH2 0x544E JUMPI PUSH0 PUSH0 REVERT JUMPDEST DUP3 CALLDATALOAD PUSH2 0x5459 DUP2 PUSH2 0x540C JUMP JUMPDEST SWAP2 POP PUSH1 0x20 DUP4 ADD CALLDATALOAD PUSH2 0x5469 DUP2 PUSH2 0x5430 JUMP JUMPDEST DUP1 SWAP2 POP POP SWAP3 POP SWAP3 SWAP1 POP JUMP JUMPDEST PUSH0 PUSH0 PUSH1 0x40 DUP4 DUP6 SUB SLT ISZERO PUSH2 0x5485 JUMPI PUSH0 PUSH0 REVERT JUMPDEST POP POP DUP1 CALLDATALOAD SWAP3 PUSH1 0x20 SWAP1 SWAP2 ADD CALLDATALOAD SWAP2 POP JUMP JUMPDEST PUSH0 PUSH0 PUSH1 0x40 DUP4 DUP6 SUB SLT ISZERO PUSH2 0x54A5 JUMPI PUSH0 PUSH0 REVERT JUMPDEST DUP3 CALLDATALOAD PUSH2 0x54B0 DUP2 PUSH2 0x540C JUMP JUMPDEST SWAP5 PUSH1 0x20 SWAP4 SWAP1 SWAP4 ADD CALLDATALOAD SWAP4 POP POP POP JUMP JUMPDEST PUSH1 0x40 DUP1 DUP3 MSTORE DUP4 MLOAD SWAP1 DUP3 ADD DUP2 SWAP1 MSTORE PUSH0 SWAP1 PUSH1 0x20 DUP6 ADD SWAP1 PUSH1 0x60 DUP5 ADD SWAP1 DUP4 JUMPDEST DUP2 DUP2 LT ISZERO PUSH2 0x54F7 JUMPI DUP4 MLOAD DUP4 MSTORE PUSH1 0x20 SWAP4 DUP5 ADD SWAP4 SWAP1 SWAP3 ADD SWAP2 PUSH1 0x1 ADD PUSH2 0x54D9 JUMP JUMPDEST POP POP DUP4 DUP2 SUB PUSH1 0x20 DUP1 DUP7 ADD SWAP2 SWAP1 SWAP2 MSTORE DUP6 MLOAD DUP1 DUP4 MSTORE SWAP2 DUP2 ADD SWAP3 POP DUP6 ADD SWAP1 PUSH0 JUMPDEST DUP2 DUP2 LT ISZERO PUSH2 0x5552 JUMPI DUP3 MLOAD DUP1 MLOAD DUP6 MSTORE PUSH1 0x20 DUP2 ADD MLOAD ISZERO ISZERO PUSH1 0x20 DUP7 ADD MSTORE PUSH1 0x40 DUP2 ADD MLOAD ISZERO ISZERO PUSH1 0x40 DUP7 ADD MSTORE POP PUSH1 0x60 DUP5 ADD SWAP4 POP PUSH1 0x20 DUP4 ADD SWAP3 POP PUSH1 0x1 DUP2 ADD SWAP1 POP PUSH2 0x5514 JUMP JUMPDEST POP SWAP2 SWAP7 SWAP6 POP POP POP POP POP POP JUMP JUMPDEST PUSH4 0x4E487B71 PUSH1 0xE0 SHL PUSH0 MSTORE PUSH1 0x41 PUSH1 0x4 MSTORE PUSH1 0x24 PUSH0 REVERT JUMPDEST PUSH0 PUSH0 PUSH0 PUSH1 0x60 DUP5 DUP7 SUB SLT ISZERO PUSH2 0x5584 JUMPI PUSH0 PUSH0 REVERT JUMPDEST DUP4 CALLDATALOAD PUSH1 0xFF DUP2 AND DUP2 EQ PUSH2 0x5594 JUMPI PUSH0 PUSH0 REVERT JUMPDEST SWAP3 POP PUSH1 0x20 DUP5 ADD CALLDATALOAD PUSH1 0x1 PUSH1 0x1 PUSH1 0x40 SHL SUB DUP2 GT ISZERO PUSH2 0x55AE JUMPI PUSH0 PUSH0 REVERT JUMPDEST DUP5 ADD PUSH1 0x1F DUP2 ADD DUP7 SGT PUSH2 0x55BE JUMPI PUSH0 PUSH0 REVERT JUMPDEST DUP1 CALLDATALOAD PUSH1 0x1 PUSH1 0x1 PUSH1 0x40 SHL SUB DUP2 GT ISZERO PUSH2 0x55D7 JUMPI PUSH2 0x55D7 PUSH2 0x555E JUMP JUMPDEST PUSH1 0x40 MLOAD PUSH1 0x1F DUP3 ADD PUSH1 0x1F NOT SWAP1 DUP2 AND PUSH1 0x3F ADD AND DUP2 ADD PUSH1 0x1 PUSH1 0x1 PUSH1 0x40 SHL SUB DUP2 GT DUP3 DUP3 LT OR ISZERO PUSH2 0x5605 JUMPI PUSH2 0x5605 PUSH2 0x555E JUMP JUMPDEST PUSH1 0x40 MSTORE DUP2 DUP2 MSTORE DUP3 DUP3 ADD PUSH1 0x20 ADD DUP9 LT ISZERO PUSH2 0x561C JUMPI PUSH0 PUSH0 REVERT JUMPDEST DUP2 PUSH1 0x20 DUP5 ADD PUSH1 0x20 DUP4 ADD CALLDATACOPY PUSH0 SWAP2 DUP2 ADD PUSH1 0x20 ADD SWAP2 SWAP1 SWAP2 MSTORE SWAP4 SWAP7 SWAP4 SWAP6 POP POP POP POP PUSH1 0x40 SWAP2 SWAP1 SWAP2 ADD CALLDATALOAD SWAP1 JUMP JUMPDEST PUSH0 PUSH0 PUSH1 0x40 DUP4 DUP6 SUB SLT ISZERO PUSH2 0x5654 JUMPI PUSH0 PUSH0 REVERT JUMPDEST DUP3 CALLDATALOAD PUSH2 0x565F DUP2 PUSH2 0x540C JUMP JUMPDEST SWAP2 POP PUSH1 0x20 DUP4 ADD CALLDATALOAD PUSH2 0x5469 DUP2 PUSH2 0x540C JUMP JUMPDEST PUSH0 DUP2 MLOAD DUP1 DUP5 MSTORE PUSH1 0x20 DUP5 ADD SWAP4 POP PUSH1 0x20 DUP4 ADD PUSH0 JUMPDEST DUP3 DUP2 LT ISZERO PUSH2 0x56EB JUMPI DUP2 MLOAD DUP1 MLOAD ISZERO ISZERO DUP8 MSTORE PUSH1 0x20 DUP2 ADD MLOAD ISZERO ISZERO PUSH1 0x20 DUP9 ADD MSTORE PUSH1 0x40 DUP2 ADD MLOAD PUSH1 0x40 DUP9 ADD MSTORE PUSH1 0x1 DUP1 PUSH1 0xA0 SHL SUB PUSH1 0x60 DUP3 ADD MLOAD AND PUSH1 0x60 DUP9 ADD MSTORE PUSH1 0x80 DUP2 ADD MLOAD PUSH2 0x56CB PUSH1 0x80 DUP10 ADD DUP3 PUSH2 0x526C JUMP JUMPDEST POP PUSH1 0xA0 SWAP1 DUP2 ADD MLOAD SWAP1 DUP8 ADD MSTORE PUSH1 0xC0 SWAP1 SWAP6 ADD SWAP5 PUSH1 0x20 SWAP2 SWAP1 SWAP2 ADD SWAP1 PUSH1 0x1 ADD PUSH2 0x5681 JUMP JUMPDEST POP SWAP4 SWAP5 SWAP4 POP POP POP POP JUMP JUMPDEST PUSH1 0x40 DUP1 DUP3 MSTORE DUP4 MLOAD SWAP1 DUP3 ADD DUP2 SWAP1 MSTORE PUSH0 SWAP1 PUSH1 0x20 DUP6 ADD SWAP1 PUSH1 0x60 DUP5 ADD SWAP1 DUP4 JUMPDEST DUP2 DUP2 LT ISZERO PUSH2 0x577A JUMPI DUP4 MLOAD DUP1 MLOAD ISZERO ISZERO DUP5 MSTORE PUSH1 0x20 DUP2 ADD MLOAD ISZERO ISZERO PUSH1 0x20 DUP6 ADD MSTORE PUSH1 0x40 DUP2 ADD MLOAD PUSH1 0x40 DUP6 ADD MSTORE PUSH1 0x1 DUP1 PUSH1 0xA0 SHL SUB PUSH1 0x60 DUP3 ADD MLOAD AND PUSH1 0x60 DUP6 ADD MSTORE PUSH1 0x80 DUP2 ADD MLOAD PUSH2 0x575A PUSH1 0x80 DUP7 ADD DUP3 PUSH2 0x5280 JUMP JUMPDEST POP PUSH1 0xA0 SWAP1 DUP2 ADD MLOAD SWAP1 DUP5 ADD MSTORE PUSH1 0x20 SWAP4 SWAP1 SWAP4 ADD SWAP3 PUSH1 0xC0 SWAP1 SWAP3 ADD SWAP2 PUSH1 0x1 ADD PUSH2 0x5710 JUMP JUMPDEST POP POP DUP4 DUP2 SUB PUSH1 0x20 DUP6 ADD MSTORE PUSH2 0x578E DUP2 DUP7 PUSH2 0x566F JUMP JUMPDEST SWAP7 SWAP6 POP POP POP POP POP POP JUMP JUMPDEST PUSH0 PUSH0 PUSH0 PUSH1 0x60 DUP5 DUP7 SUB SLT ISZERO PUSH2 0x57AA JUMPI PUSH0 PUSH0 REVERT JUMPDEST DUP4 CALLDATALOAD SWAP3 POP PUSH1 0x20 DUP5 ADD CALLDATALOAD SWAP2 POP PUSH1 0x40 DUP5 ADD CALLDATALOAD PUSH2 0x57C3 DUP2 PUSH2 0x5430 JUMP JUMPDEST DUP1 SWAP2 POP POP SWAP3 POP SWAP3 POP SWAP3 JUMP JUMPDEST PUSH0 PUSH0 PUSH0 PUSH0 PUSH0 PUSH0 PUSH0 PUSH0 PUSH0 PUSH0 PUSH0 PUSH0 PUSH2 0x180 DUP14 DUP16 SUB SLT ISZERO PUSH2 0x57EA JUMPI PUSH0 PUSH0 REVERT JUMPDEST DUP13 CALLDATALOAD PUSH2 0x57F5 DUP2 PUSH2 0x540C JUMP JUMPDEST SWAP12 POP PUSH1 0x20 DUP14 ADD CALLDATALOAD PUSH2 0x5805 DUP2 PUSH2 0x540C JUMP JUMPDEST SWAP11 POP PUSH1 0x40 DUP14 ADD CALLDATALOAD PUSH2 0x5815 DUP2 PUSH2 0x540C JUMP JUMPDEST SWAP10 POP PUSH1 0x60 DUP14 ADD CALLDATALOAD PUSH2 0x5825 DUP2 PUSH2 0x540C JUMP JUMPDEST SWAP9 POP PUSH1 0x80 DUP14 ADD CALLDATALOAD PUSH2 0x5835 DUP2 PUSH2 0x540C JUMP JUMPDEST SWAP8 POP PUSH2 0x5843 PUSH1 0xA0 DUP15 ADD PUSH2 0x5420 JUMP JUMPDEST SWAP7 POP PUSH2 0x5851 PUSH1 0xC0 DUP15 ADD PUSH2 0x5420 JUMP JUMPDEST SWAP6 POP PUSH2 0x585F PUSH1 0xE0 DUP15 ADD PUSH2 0x5420 JUMP JUMPDEST SWAP5 POP PUSH2 0x586E PUSH2 0x100 DUP15 ADD PUSH2 0x5420 JUMP JUMPDEST SWAP4 POP PUSH2 0x587D PUSH2 0x120 DUP15 ADD PUSH2 0x5420 JUMP JUMPDEST SWAP3 POP PUSH2 0x588C PUSH2 0x140 DUP15 ADD PUSH2 0x5420 JUMP JUMPDEST SWAP2 POP PUSH2 0x589B PUSH2 0x160 DUP15 ADD PUSH2 0x5420 JUMP JUMPDEST SWAP1 POP SWAP3 SWAP6 SWAP9 SWAP12 POP SWAP3 SWAP6 SWAP9 SWAP12 POP SWAP3 SWAP6 SWAP9 SWAP12 JUMP JUMPDEST DUP7 ISZERO ISZERO DUP2 MSTORE DUP6 ISZERO ISZERO PUSH1 0x20 DUP3 ADD MSTORE PUSH1 0x40 DUP2 ADD DUP6 SWAP1 MSTORE PUSH1 0x1 PUSH1 0x1 PUSH1 0xA0 SHL SUB DUP5 AND PUSH1 0x60 DUP3 ADD MSTORE PUSH1 0xC0 DUP2 ADD PUSH2 0x58E1 PUSH1 0x80 DUP4 ADD DUP6 PUSH2 0x526C JUMP JUMPDEST DUP3 PUSH1 0xA0 DUP4 ADD MSTORE SWAP8 SWAP7 POP POP POP POP POP POP POP JUMP JUMPDEST DUP7 ISZERO ISZERO DUP2 MSTORE DUP6 ISZERO ISZERO PUSH1 0x20 DUP3 ADD MSTORE PUSH1 0x40 DUP2 ADD DUP6 SWAP1 MSTORE PUSH1 0x1 PUSH1 0x1 PUSH1 0xA0 SHL SUB DUP5 AND PUSH1 0x60 DUP3 ADD MSTORE PUSH1 0xC0 DUP2 ADD PUSH2 0x58E1 PUSH1 0x80 DUP4 ADD DUP6 PUSH2 0x5280 JUMP JUMPDEST PUSH0 PUSH1 0x20 DUP3 DUP5 SUB SLT ISZERO PUSH2 0x5936 JUMPI PUSH0 PUSH0 REVERT JUMPDEST DUP2 CALLDATALOAD PUSH2 0x538E DUP2 PUSH2 0x540C JUMP JUMPDEST DUP11 DUP2 MSTORE PUSH1 0x1 PUSH1 0x1 PUSH1 0xA0 SHL SUB DUP11 AND PUSH1 0x20 DUP3 ADD MSTORE PUSH1 0x40 DUP2 ADD DUP10 SWAP1 MSTORE PUSH1 0x60 DUP2 ADD DUP9 SWAP1 MSTORE PUSH2 0x596E PUSH1 0x80 DUP3 ADD DUP9 PUSH2 0x526C JUMP JUMPDEST PUSH2 0x597B PUSH1 0xA0 DUP3 ADD DUP8 PUSH2 0x5280 JUMP JUMPDEST DUP5 ISZERO ISZERO PUSH1 0xC0 DUP3 ADD MSTORE DUP4 ISZERO ISZERO PUSH1 0xE0 DUP3 ADD MSTORE PUSH2 0x140 PUSH2 0x100 DUP3 ADD MSTORE PUSH0 PUSH2 0x59A3 PUSH2 0x140 DUP4 ADD DUP6 PUSH2 0x5290 JUMP JUMPDEST SWAP1 POP DUP3 ISZERO ISZERO PUSH2 0x120 DUP4 ADD MSTORE SWAP12 SWAP11 POP POP POP POP POP POP POP POP POP POP POP JUMP JUMPDEST PUSH1 0x1 DUP2 DUP2 SHR SWAP1 DUP3 AND DUP1 PUSH2 0x59D1 JUMPI PUSH1 0x7F DUP3 AND SWAP2 POP JUMPDEST PUSH1 0x20 DUP3 LT DUP2 SUB PUSH2 0x59EF JUMPI PUSH4 0x4E487B71 PUSH1 0xE0 SHL PUSH0 MSTORE PUSH1 0x22 PUSH1 0x4 MSTORE PUSH1 0x24 PUSH0 REVERT JUMPDEST POP SWAP2 SWAP1 POP JUMP JUMPDEST PUSH1 0x20 DUP1 DUP3 MSTORE PUSH1 0xC SWAP1 DUP3 ADD MSTORE PUSH12 0x2737BA1030B71037BBB732B9 PUSH1 0xA1 SHL PUSH1 0x40 DUP3 ADD MSTORE PUSH1 0x60 ADD SWAP1 JUMP JUMPDEST PUSH4 0x4E487B71 PUSH1 0xE0 SHL PUSH0 MSTORE PUSH1 0x32 PUSH1 0x4 MSTORE PUSH1 0x24 PUSH0 REVERT JUMPDEST PUSH4 0x4E487B71 PUSH1 0xE0 SHL PUSH0 MSTORE PUSH1 0x11 PUSH1 0x4 MSTORE PUSH1 0x24 PUSH0 REVERT JUMPDEST PUSH0 PUSH1 0x1 DUP3 ADD PUSH2 0x5A54 JUMPI PUSH2 0x5A54 PUSH2 0x5A2F JUMP JUMPDEST POP PUSH1 0x1 ADD SWAP1 JUMP JUMPDEST PUSH1 0x20 DUP1 DUP3 MSTORE PUSH1 0xE SWAP1 DUP3 ADD MSTORE PUSH14 0x139BDD08185D5D1A1BDC9A5E9959 PUSH1 0x92 SHL PUSH1 0x40 DUP3 ADD MSTORE PUSH1 0x60 ADD SWAP1 JUMP JUMPDEST DUP2 DUP2 SUB DUP2 DUP2 GT ISZERO PUSH2 0x5A96 JUMPI PUSH2 0x5A96 PUSH2 0x5A2F JUMP JUMPDEST SWAP3 SWAP2 POP POP JUMP JUMPDEST DUP1 DUP3 ADD DUP1 DUP3 GT ISZERO PUSH2 0x5A96 JUMPI PUSH2 0x5A96 PUSH2 0x5A2F JUMP JUMPDEST PUSH4 0x4E487B71 PUSH1 0xE0 SHL PUSH0 MSTORE PUSH1 0x31 PUSH1 0x4 MSTORE PUSH1 0x24 PUSH0 REVERT JUMPDEST DUP1 DUP3 MUL DUP2 ISZERO DUP3 DUP3 DIV DUP5 EQ OR PUSH2 0x5A96 JUMPI PUSH2 0x5A96 PUSH2 0x5A2F JUMP JUMPDEST PUSH0 DUP3 PUSH2 0x5AF4 JUMPI PUSH4 0x4E487B71 PUSH1 0xE0 SHL PUSH0 MSTORE PUSH1 0x12 PUSH1 0x4 MSTORE PUSH1 0x24 PUSH0 REVERT JUMPDEST POP DIV SWAP1 JUMP JUMPDEST PUSH1 0x20 DUP1 DUP3 MSTORE PUSH1 0x12 SWAP1 DUP3 ADD MSTORE PUSH18 0x506F74656E7469616C206F766572666C6F77 PUSH1 0x70 SHL PUSH1 0x40 DUP3 ADD MSTORE PUSH1 0x60 ADD SWAP1 JUMP JUMPDEST PUSH0 PUSH1 0x20 DUP3 DUP5 SUB SLT ISZERO PUSH2 0x5B35 JUMPI PUSH0 PUSH0 REVERT JUMPDEST POP MLOAD SWAP2 SWAP1 POP JUMP JUMPDEST PUSH1 0x1F DUP3 GT ISZERO PUSH2 0x207D JUMPI DUP1 PUSH0 MSTORE PUSH1 0x20 PUSH0 KECCAK256 PUSH1 0x1F DUP5 ADD PUSH1 0x5 SHR DUP2 ADD PUSH1 0x20 DUP6 LT ISZERO PUSH2 0x5B61 JUMPI POP DUP1 JUMPDEST PUSH1 0x1F DUP5 ADD PUSH1 0x5 SHR DUP3 ADD SWAP2 POP JUMPDEST DUP2 DUP2 LT ISZERO PUSH2 0x5B80 JUMPI PUSH0 DUP2 SSTORE PUSH1 0x1 ADD PUSH2 0x5B6D JUMP JUMPDEST POP POP POP POP POP JUMP JUMPDEST DUP2 MLOAD PUSH1 0x1 PUSH1 0x1 PUSH1 0x40 SHL SUB DUP2 GT ISZERO PUSH2 0x5BA0 JUMPI PUSH2 0x5BA0 PUSH2 0x555E JUMP JUMPDEST PUSH2 0x5BB4 DUP2 PUSH2 0x5BAE DUP5 SLOAD PUSH2 0x59BD JUMP JUMPDEST DUP5 PUSH2 0x5B3C JUMP JUMPDEST PUSH1 0x20 PUSH1 0x1F DUP3 GT PUSH1 0x1 DUP2 EQ PUSH2 0x5BE6 JUMPI PUSH0 DUP4 ISZERO PUSH2 0x5BCF JUMPI POP DUP5 DUP3 ADD MLOAD JUMPDEST PUSH0 NOT PUSH1 0x3 DUP6 SWAP1 SHL SHR NOT AND PUSH1 0x1 DUP5 SWAP1 SHL OR DUP5 SSTORE PUSH2 0x5B80 JUMP JUMPDEST PUSH0 DUP5 DUP2 MSTORE PUSH1 0x20 DUP2 KECCAK256 PUSH1 0x1F NOT DUP6 AND SWAP2 JUMPDEST DUP3 DUP2 LT ISZERO PUSH2 0x5C15 JUMPI DUP8 DUP6 ADD MLOAD DUP3 SSTORE PUSH1 0x20 SWAP5 DUP6 ADD SWAP5 PUSH1 0x1 SWAP1 SWAP3 ADD SWAP2 ADD PUSH2 0x5BF5 JUMP JUMPDEST POP DUP5 DUP3 LT ISZERO PUSH2 0x5C32 JUMPI DUP7 DUP5 ADD MLOAD PUSH0 NOT PUSH1 0x3 DUP8 SWAP1 SHL PUSH1 0xF8 AND SHR NOT AND DUP2 SSTORE JUMPDEST POP POP POP POP PUSH1 0x1 SWAP1 DUP2 SHL ADD SWAP1 SSTORE POP JUMP JUMPDEST PUSH1 0x20 DUP1 DUP3 MSTORE PUSH1 0x1D SWAP1 DUP3 ADD MSTORE PUSH32 0x496E73756666696369656E7420636F6E74726163742062616C616E6365000000 PUSH1 0x40 DUP3 ADD MSTORE PUSH1 0x60 ADD SWAP1 JUMP JUMPDEST PUSH1 0x20 DUP2 MSTORE PUSH0 PUSH2 0x538E PUSH1 0x20 DUP4 ADD DUP5 PUSH2 0x5290 JUMP JUMPDEST PUSH0 DUP3 MLOAD DUP1 PUSH1 0x20 DUP6 ADD DUP5 MCOPY PUSH0 SWAP3 ADD SWAP2 DUP3 MSTORE POP SWAP2 SWAP1 POP JUMP JUMPDEST PUSH1 0x20 DUP1 DUP3 MSTORE PUSH1 0x10 SWAP1 DUP3 ADD MSTORE PUSH16 0x125B9D985B1A59081BDC99195C881251 PUSH1 0x82 SHL PUSH1 0x40 DUP3 ADD MSTORE PUSH1 0x60 ADD SWAP1 JUMP JUMPDEST PUSH1 0x20 DUP1 DUP3 MSTORE PUSH1 0x15 SWAP1 DUP3 ADD MSTORE PUSH21 0x1058DD1A5BDB88191BD95CC81B9BDD08195E1A5CDD PUSH1 0x5A SHL PUSH1 0x40 DUP3 ADD MSTORE PUSH1 0x60 ADD SWAP1 JUMP JUMPDEST PUSH1 0x20 DUP1 DUP3 MSTORE PUSH1 0x26 SWAP1 DUP3 ADD MSTORE PUSH32 0x416374696F6E20616C726561647920636F6E6669726D65642062792074686973 PUSH1 0x40 DUP3 ADD MSTORE PUSH6 0x1037BBB732B9 PUSH1 0xD1 SHL PUSH1 0x60 DUP3 ADD MSTORE PUSH1 0x80 ADD SWAP1 JUMP JUMPDEST PUSH1 0x20 DUP1 DUP3 MSTORE PUSH1 0x19 SWAP1 DUP3 ADD MSTORE PUSH25 0x426F74682070617274696573206D75737420636F6E6669726D PUSH1 0x38 SHL PUSH1 0x40 DUP3 ADD MSTORE PUSH1 0x60 ADD SWAP1 JUMP JUMPDEST PUSH0 PUSH0 DUP4 SLOAD PUSH2 0x5D7F DUP2 PUSH2 0x59BD JUMP JUMPDEST PUSH1 0x1 DUP3 AND DUP1 ISZERO PUSH2 0x5D96 JUMPI PUSH1 0x1 DUP2 EQ PUSH2 0x5DAB JUMPI PUSH2 0x5DD8 JUMP JUMPDEST PUSH1 0xFF NOT DUP4 AND DUP7 MSTORE DUP2 ISZERO ISZERO DUP3 MUL DUP7 ADD SWAP4 POP PUSH2 0x5DD8 JUMP JUMPDEST DUP7 PUSH0 MSTORE PUSH1 0x20 PUSH0 KECCAK256 PUSH0 JUMPDEST DUP4 DUP2 LT ISZERO PUSH2 0x5DD0 JUMPI DUP2 SLOAD DUP9 DUP3 ADD MSTORE PUSH1 0x1 SWAP1 SWAP2 ADD SWAP1 PUSH1 0x20 ADD PUSH2 0x5DB4 JUMP JUMPDEST POP POP DUP2 DUP7 ADD SWAP4 POP JUMPDEST POP SWAP2 SWAP6 SWAP5 POP POP POP POP POP JUMP JUMPDEST PUSH1 0x20 DUP1 DUP3 MSTORE PUSH1 0x1B SWAP1 DUP3 ADD MSTORE PUSH27 0x109BDD1A0818DBDB999A5C9B585D1A5BDB9CC81C995C5D5A5C9959 PUSH1 0x2A SHL PUSH1 0x40 DUP3 ADD MSTORE PUSH1 0x60 ADD SWAP1 JUMP JUMPDEST PUSH1 0x1 PUSH1 0x1 PUSH1 0xA0 SHL SUB SWAP3 SWAP1 SWAP3 AND DUP3 MSTORE PUSH1 0x20 DUP3 ADD MSTORE PUSH1 0x40 ADD SWAP1 JUMP JUMPDEST PUSH0 PUSH1 0x20 DUP3 DUP5 SUB SLT ISZERO PUSH2 0x5E41 JUMPI PUSH0 PUSH0 REVERT JUMPDEST DUP2 MLOAD PUSH2 0x538E DUP2 PUSH2 0x5430 JUMP JUMPDEST PUSH1 0x20 DUP1 DUP3 MSTORE PUSH1 0x17 SWAP1 DUP3 ADD MSTORE PUSH23 0x151A1A5CC81BDC99195C881A5CC81B9BDD08195E1A5CDD PUSH1 0x4A SHL PUSH1 0x40 DUP3 ADD MSTORE PUSH1 0x60 ADD SWAP1 JUMP JUMPDEST PUSH1 0x1 PUSH1 0x1 PUSH1 0xA0 SHL SUB DUP6 AND DUP2 MSTORE PUSH1 0x80 DUP2 ADD PUSH2 0x5E9A PUSH1 0x20 DUP4 ADD DUP7 PUSH2 0x5280 JUMP JUMPDEST DUP4 PUSH1 0x40 DUP4 ADD MSTORE DUP3 ISZERO ISZERO PUSH1 0x60 DUP4 ADD MSTORE SWAP6 SWAP5 POP POP POP POP POP JUMP JUMPDEST PUSH1 0x1 PUSH1 0x1 PUSH1 0xA0 SHL SUB SWAP4 DUP5 AND DUP2 MSTORE SWAP2 SWAP1 SWAP3 AND PUSH1 0x20 DUP3 ADD MSTORE PUSH1 0x40 DUP2 ADD SWAP2 SWAP1 SWAP2 MSTORE PUSH1 0x60 ADD SWAP1 JUMP JUMPDEST DUP8 DUP2 MSTORE PUSH1 0x1 PUSH1 0x1 PUSH1 0xA0 SHL SUB DUP8 AND PUSH1 0x20 DUP3 ADD MSTORE PUSH1 0x40 DUP2 ADD DUP7 SWAP1 MSTORE PUSH1 0x60 DUP2 ADD DUP6 SWAP1 MSTORE PUSH1 0xE0 DUP2 ADD PUSH2 0x5F06 PUSH1 0x80 DUP4 ADD DUP7 PUSH2 0x526C JUMP JUMPDEST PUSH2 0x5F13 PUSH1 0xA0 DUP4 ADD DUP6 PUSH2 0x5280 JUMP JUMPDEST DUP3 ISZERO ISZERO PUSH1 0xC0 DUP4 ADD MSTORE SWAP9 SWAP8 POP POP POP POP POP POP POP POP JUMP INVALID SSTORE DELEGATECALL BASEFEE REVERT 0xEA SWAP9 0xC4 0xD2 SWAP15 0xB3 BLOCKHASH PUSH22 0x7EF0A66CD03DBB9538908A6A81D96026B71EC475A264 PUSH10 0x7066735822122007EE3B 0x4C PUSH27 0x10D2E909A0413725AC860772C724CC6B8DD3F271C0FCF4F9AEE099 PUSH5 0x736F6C6343 STOP ADDMOD 0x1E STOP CALLER "
		},
		"gasEstimates": {
			"creation": {
				"codeDepositCost": "4889000",
				"executionCost": "81400",
				"totalCost": "4970400"
			},
			"external": {
				"": "1863",
				"CancelConfirmTransfer(uint256)": "81774",
				"CreateBuyOrderEther(uint256,uint256)": "infinite",
				"CreateBuyOrderUSDC(uint256,uint256)": "infinite",
				"CreateBuyOrderUSDT(uint256,uint256)": "infinite",
				"CreateSellOrderEther(uint256,uint256,bool)": "infinite",
				"CreateSellOrderUSDC(uint256,uint256,bool)": "infinite",
				"CreateSellOrderUSDT(uint256,uint256,bool)": "infinite",
				"DisplayAllOrders()": "infinite",
				"DisplayAllTransfers()": "infinite",
				"DisplayNextOrder()": "infinite",
				"DisplayTransferDetails(uint256)": "16017",
				"ShowOrderByID(uint256)": "infinite",
				"ShowOrderByIndex2(uint256)": "infinite",
				"USDCContract()": "2515",
				"USDTContract()": "2603",
				"adminControlContract()": "2515",
				"authorizedAddresses(address)": "2698",
				"cancelConfirmOrder(uint256)": "81671",
				"centralContract()": "2670",
				"confirmOrder(uint256)": "81650",
				"confirmRemoveOrder(uint256)": "infinite",
				"confirmTransfer(uint256)": "88182",
				"createTransferEther(address,uint256)": "217089",
				"createTransferNickelium(address,uint256)": "217090",
				"createTransferUSDC(address,uint256)": "217158",
				"createTransferUSDT(address,uint256)": "217059",
				"defaultIndex()": "2581",
				"deletePendingOrder(uint256)": "infinite",
				"deleteRemoveOrderAction(uint256)": "82455",
				"deleteTransfer(uint256)": "infinite",
				"emergencyStop()": "infinite",
				"escrowHandler()": "2383",
				"executeOrder(uint256)": "infinite",
				"executeTransfer(uint256)": "infinite",
				"getPendingRemoveOrderActions()": "infinite",
				"indexes(uint256)": "4727",
				"isConfirmedByOwner1()": "2458",
				"isConfirmedByOwner2()": "2370",
				"mine1NFT()": "2472",
				"mine2NFT()": "2604",
				"mine3NFT()": "2537",
				"mine4NFT()": "2449",
				"mine5NFT()": "2470",
				"nextRemoveOrderActionId()": "2339",
				"nickelium()": "2450",
				"nickeliumContract()": "2582",
				"orderRouter()": "2493",
				"owner1()": "2493",
				"owner2()": "2516",
				"paused()": "2491",
				"payForNFTUpgrade(uint8,string,uint256)": "infinite",
				"payerAddresses(address)": "2743",
				"pendingOrders(uint256)": "infinite",
				"proposeRemoveOrder(uint256)": "124058",
				"removeOrderActions(uint256)": "4673",
				"resume()": "infinite",
				"setAuthorizedAddress(address,bool)": "infinite",
				"setContracts(address,address,address,address,address,address,address,address,address,address,address,address)": "infinite",
				"setOwners(address,address)": "infinite",
				"setPayerAddress(address,bool)": "infinite",
				"transferStatus(uint256)": "9224",
				"transferStatusNickelium(uint256)": "9180"
			},
			"internal": {
				"executeBuyOrder(uint256)": "infinite",
				"executeRemoveOrder(uint256)": "infinite",
				"executeSellOrder(uint256)": "infinite",
				"transferEtherToCentral(uint256)": "infinite"
			}
		},
		"methodIdentifiers": {
			"CancelConfirmTransfer(uint256)": "fba6cf7b",
			"CreateBuyOrderEther(uint256,uint256)": "e2117ebc",
			"CreateBuyOrderUSDC(uint256,uint256)": "21f65657",
			"CreateBuyOrderUSDT(uint256,uint256)": "c616e5ea",
			"CreateSellOrderEther(uint256,uint256,bool)": "4dacea2b",
			"CreateSellOrderUSDC(uint256,uint256,bool)": "e2b52fc4",
			"CreateSellOrderUSDT(uint256,uint256,bool)": "8c11ed50",
			"DisplayAllOrders()": "12521b54",
			"DisplayAllTransfers()": "49d601a5",
			"DisplayNextOrder()": "7e3e333d",
			"DisplayTransferDetails(uint256)": "dde12d1d",
			"ShowOrderByID(uint256)": "02f35a06",
			"ShowOrderByIndex2(uint256)": "b48d5238",
			"USDCContract()": "d2873510",
			"USDTContract()": "99762734",
			"adminControlContract()": "7b7f1c82",
			"authorizedAddresses(address)": "f19e207e",
			"cancelConfirmOrder(uint256)": "6c40ce73",
			"centralContract()": "29878bc4",
			"confirmOrder(uint256)": "8ac7d79c",
			"confirmRemoveOrder(uint256)": "90309ecd",
			"confirmTransfer(uint256)": "2c48e7db",
			"createTransferEther(address,uint256)": "8704b10d",
			"createTransferNickelium(address,uint256)": "a404c1c5",
			"createTransferUSDC(address,uint256)": "262b7821",
			"createTransferUSDT(address,uint256)": "57b00948",
			"defaultIndex()": "a8143f85",
			"deletePendingOrder(uint256)": "bed69536",
			"deleteRemoveOrderAction(uint256)": "108e9b2d",
			"deleteTransfer(uint256)": "153f0c6f",
			"emergencyStop()": "63a599a4",
			"escrowHandler()": "87ad8f87",
			"executeOrder(uint256)": "94f61134",
			"executeTransfer(uint256)": "f05d5752",
			"getPendingRemoveOrderActions()": "299b6878",
			"indexes(uint256)": "92f8eb94",
			"isConfirmedByOwner1()": "ebf968a3",
			"isConfirmedByOwner2()": "e113b6ec",
			"mine1NFT()": "0cf71579",
			"mine2NFT()": "1d2e4a2f",
			"mine3NFT()": "db5544a6",
			"mine4NFT()": "c5026555",
			"mine5NFT()": "e9ce848d",
			"nextRemoveOrderActionId()": "633a3343",
			"nickelium()": "0c101596",
			"nickeliumContract()": "1b8e2ed9",
			"orderRouter()": "cd41f0c6",
			"owner1()": "73688914",
			"owner2()": "52709725",
			"paused()": "5c975abb",
			"payForNFTUpgrade(uint8,string,uint256)": "2a03e28d",
			"payerAddresses(address)": "96366d65",
			"pendingOrders(uint256)": "c3aaea4e",
			"proposeRemoveOrder(uint256)": "93c3a2be",
			"removeOrderActions(uint256)": "038f3d4f",
			"resume()": "046f7da2",
			"setAuthorizedAddress(address,bool)": "1351cf51",
			"setContracts(address,address,address,address,address,address,address,address,address,address,address,address)": "6fb485d5",
			"setOwners(address,address)": "48405b49",
			"setPayerAddress(address,bool)": "bcc94d41",
			"transferStatus(uint256)": "927e9742",
			"transferStatusNickelium(uint256)": "8de91b24"
		}
	},
	"abi": [
		{
			"inputs": [],
			"stateMutability": "nonpayable",
			"type": "constructor"
		},
		{
			"inputs": [],
			"name": "ReentrancyGuardReentrantCall",
			"type": "error"
		},
		{
			"anonymous": false,
			"inputs": [
				{
					"indexed": true,
					"internalType": "address",
					"name": "sender",
					"type": "address"
				},
				{
					"indexed": false,
					"internalType": "uint256",
					"name": "amount",
					"type": "uint256"
				}
			],
			"name": "EtherReceived",
			"type": "event"
		},
		{
			"anonymous": false,
			"inputs": [
				{
					"indexed": false,
					"internalType": "address",
					"name": "account",
					"type": "address"
				}
			],
			"name": "Paused",
			"type": "event"
		},
		{
			"anonymous": false,
			"inputs": [
				{
					"indexed": false,
					"internalType": "address",
					"name": "account",
					"type": "address"
				}
			],
			"name": "Unpaused",
			"type": "event"
		},
		{
			"stateMutability": "payable",
			"type": "fallback"
		},
		{
			"inputs": [
				{
					"internalType": "uint256",
					"name": "_orderID",
					"type": "uint256"
				}
			],
			"name": "CancelConfirmTransfer",
			"outputs": [],
			"stateMutability": "nonpayable",
			"type": "function"
		},
		{
			"inputs": [
				{
					"internalType": "uint256",
					"name": "_price",
					"type": "uint256"
				},
				{
					"internalType": "uint256",
					"name": "_amount",
					"type": "uint256"
				}
			],
			"name": "CreateBuyOrderEther",
			"outputs": [],
			"stateMutability": "nonpayable",
			"type": "function"
		},
		{
			"inputs": [
				{
					"internalType": "uint256",
					"name": "_price",
					"type": "uint256"
				},
				{
					"internalType": "uint256",
					"name": "_amount",
					"type": "uint256"
				}
			],
			"name": "CreateBuyOrderUSDC",
			"outputs": [],
			"stateMutability": "nonpayable",
			"type": "function"
		},
		{
			"inputs": [
				{
					"internalType": "uint256",
					"name": "_price",
					"type": "uint256"
				},
				{
					"internalType": "uint256",
					"name": "_amount",
					"type": "uint256"
				}
			],
			"name": "CreateBuyOrderUSDT",
			"outputs": [],
			"stateMutability": "nonpayable",
			"type": "function"
		},
		{
			"inputs": [
				{
					"internalType": "uint256",
					"name": "_price",
					"type": "uint256"
				},
				{
					"internalType": "uint256",
					"name": "_amount",
					"type": "uint256"
				},
				{
					"internalType": "bool",
					"name": "_authorizedBuyersOnly",
					"type": "bool"
				}
			],
			"name": "CreateSellOrderEther",
			"outputs": [],
			"stateMutability": "nonpayable",
			"type": "function"
		},
		{
			"inputs": [
				{
					"internalType": "uint256",
					"name": "_price",
					"type": "uint256"
				},
				{
					"internalType": "uint256",
					"name": "_amount",
					"type": "uint256"
				},
				{
					"internalType": "bool",
					"name": "_authorizedBuyersOnly",
					"type": "bool"
				}
			],
			"name": "CreateSellOrderUSDC",
			"outputs": [],
			"stateMutability": "nonpayable",
			"type": "function"
		},
		{
			"inputs": [
				{
					"internalType": "uint256",
					"name": "_price",
					"type": "uint256"
				},
				{
					"internalType": "uint256",
					"name": "_amount",
					"type": "uint256"
				},
				{
					"internalType": "bool",
					"name": "_authorizedBuyersOnly",
					"type": "bool"
				}
			],
			"name": "CreateSellOrderUSDT",
			"outputs": [],
			"stateMutability": "nonpayable",
			"type": "function"
		},
		{
			"inputs": [],
			"name": "DisplayAllOrders",
			"outputs": [
				{
					"components": [
						{
							"internalType": "uint256",
							"name": "orderID",
							"type": "uint256"
						},
						{
							"internalType": "address payable",
							"name": "user",
							"type": "address"
						},
						{
							"internalType": "uint256",
							"name": "price",
							"type": "uint256"
						},
						{
							"internalType": "uint256",
							"name": "amount",
							"type": "uint256"
						},
						{
							"internalType": "enum SharedStructs.AssetType",
							"name": "assetType",
							"type": "uint8"
						},
						{
							"internalType": "enum SharedStructs.PaymentMethod",
							"name": "priceCurrency",
							"type": "uint8"
						},
						{
							"internalType": "bool",
							"name": "isConfirmedByOwner1",
							"type": "bool"
						},
						{
							"internalType": "bool",
							"name": "isConfirmedByOwner2",
							"type": "bool"
						},
						{
							"internalType": "string",
							"name": "orderType",
							"type": "string"
						},
						{
							"internalType": "bool",
							"name": "authorizedBuyersOnly",
							"type": "bool"
						}
					],
					"internalType": "struct CustomMultisig.PendingOrder[]",
					"name": "orders",
					"type": "tuple[]"
				}
			],
			"stateMutability": "view",
			"type": "function"
		},
		{
			"inputs": [],
			"name": "DisplayAllTransfers",
			"outputs": [
				{
					"components": [
						{
							"internalType": "bool",
							"name": "isConfirmedByOwner1",
							"type": "bool"
						},
						{
							"internalType": "bool",
							"name": "isConfirmedByOwner2",
							"type": "bool"
						},
						{
							"internalType": "uint256",
							"name": "amount",
							"type": "uint256"
						},
						{
							"internalType": "address",
							"name": "recipientAddress",
							"type": "address"
						},
						{
							"internalType": "enum SharedStructs.PaymentMethod",
							"name": "paymentMethod",
							"type": "uint8"
						},
						{
							"internalType": "uint256",
							"name": "orderID",
							"type": "uint256"
						}
					],
					"internalType": "struct CustomMultisig.TransferStatus[]",
					"name": "",
					"type": "tuple[]"
				},
				{
					"components": [
						{
							"internalType": "bool",
							"name": "isConfirmedByOwner1",
							"type": "bool"
						},
						{
							"internalType": "bool",
							"name": "isConfirmedByOwner2",
							"type": "bool"
						},
						{
							"internalType": "uint256",
							"name": "amount",
							"type": "uint256"
						},
						{
							"internalType": "address",
							"name": "recipientAddress",
							"type": "address"
						},
						{
							"internalType": "enum SharedStructs.AssetType",
							"name": "assetType",
							"type": "uint8"
						},
						{
							"internalType": "uint256",
							"name": "orderID",
							"type": "uint256"
						}
					],
					"internalType": "struct CustomMultisig.TransferStatusNickelium[]",
					"name": "",
					"type": "tuple[]"
				}
			],
			"stateMutability": "view",
			"type": "function"
		},
		{
			"inputs": [],
			"name": "DisplayNextOrder",
			"outputs": [
				{
					"components": [
						{
							"internalType": "uint256",
							"name": "orderID",
							"type": "uint256"
						},
						{
							"internalType": "address payable",
							"name": "user",
							"type": "address"
						},
						{
							"internalType": "uint256",
							"name": "price",
							"type": "uint256"
						},
						{
							"internalType": "uint256",
							"name": "amount",
							"type": "uint256"
						},
						{
							"internalType": "enum SharedStructs.AssetType",
							"name": "assetType",
							"type": "uint8"
						},
						{
							"internalType": "enum SharedStructs.PaymentMethod",
							"name": "priceCurrency",
							"type": "uint8"
						},
						{
							"internalType": "bool",
							"name": "isConfirmedByOwner1",
							"type": "bool"
						},
						{
							"internalType": "bool",
							"name": "isConfirmedByOwner2",
							"type": "bool"
						},
						{
							"internalType": "string",
							"name": "orderType",
							"type": "string"
						},
						{
							"internalType": "bool",
							"name": "authorizedBuyersOnly",
							"type": "bool"
						}
					],
					"internalType": "struct CustomMultisig.PendingOrder",
					"name": "",
					"type": "tuple"
				}
			],
			"stateMutability": "view",
			"type": "function"
		},
		{
			"inputs": [
				{
					"internalType": "uint256",
					"name": "_orderID",
					"type": "uint256"
				}
			],
			"name": "DisplayTransferDetails",
			"outputs": [
				{
					"internalType": "bool",
					"name": "ConfirmedByOwner1",
					"type": "bool"
				},
				{
					"internalType": "bool",
					"name": "ConfirmedByOwner2",
					"type": "bool"
				},
				{
					"internalType": "uint256",
					"name": "amount",
					"type": "uint256"
				},
				{
					"internalType": "address",
					"name": "recipientAddress",
					"type": "address"
				},
				{
					"internalType": "uint256",
					"name": "orderID",
					"type": "uint256"
				}
			],
			"stateMutability": "view",
			"type": "function"
		},
		{
			"inputs": [
				{
					"internalType": "uint256",
					"name": "_index",
					"type": "uint256"
				}
			],
			"name": "ShowOrderByID",
			"outputs": [
				{
					"components": [
						{
							"internalType": "uint256",
							"name": "orderID",
							"type": "uint256"
						},
						{
							"internalType": "address payable",
							"name": "user",
							"type": "address"
						},
						{
							"internalType": "uint256",
							"name": "price",
							"type": "uint256"
						},
						{
							"internalType": "uint256",
							"name": "amount",
							"type": "uint256"
						},
						{
							"internalType": "enum SharedStructs.AssetType",
							"name": "assetType",
							"type": "uint8"
						},
						{
							"internalType": "enum SharedStructs.PaymentMethod",
							"name": "priceCurrency",
							"type": "uint8"
						},
						{
							"internalType": "bool",
							"name": "isConfirmedByOwner1",
							"type": "bool"
						},
						{
							"internalType": "bool",
							"name": "isConfirmedByOwner2",
							"type": "bool"
						},
						{
							"internalType": "string",
							"name": "orderType",
							"type": "string"
						},
						{
							"internalType": "bool",
							"name": "authorizedBuyersOnly",
							"type": "bool"
						}
					],
					"internalType": "struct CustomMultisig.PendingOrder",
					"name": "",
					"type": "tuple"
				}
			],
			"stateMutability": "view",
			"type": "function"
		},
		{
			"inputs": [
				{
					"internalType": "uint256",
					"name": "_index",
					"type": "uint256"
				}
			],
			"name": "ShowOrderByIndex2",
			"outputs": [
				{
					"components": [
						{
							"internalType": "uint256",
							"name": "orderID",
							"type": "uint256"
						},
						{
							"internalType": "address payable",
							"name": "user",
							"type": "address"
						},
						{
							"internalType": "uint256",
							"name": "price",
							"type": "uint256"
						},
						{
							"internalType": "uint256",
							"name": "amount",
							"type": "uint256"
						},
						{
							"internalType": "enum SharedStructs.AssetType",
							"name": "assetType",
							"type": "uint8"
						},
						{
							"internalType": "enum SharedStructs.PaymentMethod",
							"name": "priceCurrency",
							"type": "uint8"
						},
						{
							"internalType": "bool",
							"name": "isConfirmedByOwner1",
							"type": "bool"
						},
						{
							"internalType": "bool",
							"name": "isConfirmedByOwner2",
							"type": "bool"
						},
						{
							"internalType": "string",
							"name": "orderType",
							"type": "string"
						},
						{
							"internalType": "bool",
							"name": "authorizedBuyersOnly",
							"type": "bool"
						}
					],
					"internalType": "struct CustomMultisig.PendingOrder",
					"name": "",
					"type": "tuple"
				}
			],
			"stateMutability": "view",
			"type": "function"
		},
		{
			"inputs": [],
			"name": "USDCContract",
			"outputs": [
				{
					"internalType": "contract IERC20",
					"name": "",
					"type": "address"
				}
			],
			"stateMutability": "view",
			"type": "function"
		},
		{
			"inputs": [],
			"name": "USDTContract",
			"outputs": [
				{
					"internalType": "contract ITether",
					"name": "",
					"type": "address"
				}
			],
			"stateMutability": "view",
			"type": "function"
		},
		{
			"inputs": [],
			"name": "adminControlContract",
			"outputs": [
				{
					"internalType": "contract IAdminControl",
					"name": "",
					"type": "address"
				}
			],
			"stateMutability": "view",
			"type": "function"
		},
		{
			"inputs": [
				{
					"internalType": "address",
					"name": "",
					"type": "address"
				}
			],
			"name": "authorizedAddresses",
			"outputs": [
				{
					"internalType": "bool",
					"name": "",
					"type": "bool"
				}
			],
			"stateMutability": "view",
			"type": "function"
		},
		{
			"inputs": [
				{
					"internalType": "uint256",
					"name": "_orderID",
					"type": "uint256"
				}
			],
			"name": "cancelConfirmOrder",
			"outputs": [],
			"stateMutability": "nonpayable",
			"type": "function"
		},
		{
			"inputs": [],
			"name": "centralContract",
			"outputs": [
				{
					"internalType": "contract ICentral",
					"name": "",
					"type": "address"
				}
			],
			"stateMutability": "view",
			"type": "function"
		},
		{
			"inputs": [
				{
					"internalType": "uint256",
					"name": "_orderID",
					"type": "uint256"
				}
			],
			"name": "confirmOrder",
			"outputs": [],
			"stateMutability": "nonpayable",
			"type": "function"
		},
		{
			"inputs": [
				{
					"internalType": "uint256",
					"name": "actionId",
					"type": "uint256"
				}
			],
			"name": "confirmRemoveOrder",
			"outputs": [],
			"stateMutability": "nonpayable",
			"type": "function"
		},
		{
			"inputs": [
				{
					"internalType": "uint256",
					"name": "_orderID",
					"type": "uint256"
				}
			],
			"name": "confirmTransfer",
			"outputs": [],
			"stateMutability": "nonpayable",
			"type": "function"
		},
		{
			"inputs": [
				{
					"internalType": "address",
					"name": "_recipientAddress",
					"type": "address"
				},
				{
					"internalType": "uint256",
					"name": "_amount",
					"type": "uint256"
				}
			],
			"name": "createTransferEther",
			"outputs": [],
			"stateMutability": "nonpayable",
			"type": "function"
		},
		{
			"inputs": [
				{
					"internalType": "address",
					"name": "_recipientAddress",
					"type": "address"
				},
				{
					"internalType": "uint256",
					"name": "_amount",
					"type": "uint256"
				}
			],
			"name": "createTransferNickelium",
			"outputs": [],
			"stateMutability": "nonpayable",
			"type": "function"
		},
		{
			"inputs": [
				{
					"internalType": "address",
					"name": "_recipientAddress",
					"type": "address"
				},
				{
					"internalType": "uint256",
					"name": "_amount",
					"type": "uint256"
				}
			],
			"name": "createTransferUSDC",
			"outputs": [],
			"stateMutability": "nonpayable",
			"type": "function"
		},
		{
			"inputs": [
				{
					"internalType": "address",
					"name": "_recipientAddress",
					"type": "address"
				},
				{
					"internalType": "uint256",
					"name": "_amount",
					"type": "uint256"
				}
			],
			"name": "createTransferUSDT",
			"outputs": [],
			"stateMutability": "nonpayable",
			"type": "function"
		},
		{
			"inputs": [],
			"name": "defaultIndex",
			"outputs": [
				{
					"internalType": "uint256",
					"name": "",
					"type": "uint256"
				}
			],
			"stateMutability": "view",
			"type": "function"
		},
		{
			"inputs": [
				{
					"internalType": "uint256",
					"name": "_orderID",
					"type": "uint256"
				}
			],
			"name": "deletePendingOrder",
			"outputs": [],
			"stateMutability": "nonpayable",
			"type": "function"
		},
		{
			"inputs": [
				{
					"internalType": "uint256",
					"name": "actionId",
					"type": "uint256"
				}
			],
			"name": "deleteRemoveOrderAction",
			"outputs": [],
			"stateMutability": "nonpayable",
			"type": "function"
		},
		{
			"inputs": [
				{
					"internalType": "uint256",
					"name": "_orderID",
					"type": "uint256"
				}
			],
			"name": "deleteTransfer",
			"outputs": [],
			"stateMutability": "nonpayable",
			"type": "function"
		},
		{
			"inputs": [],
			"name": "emergencyStop",
			"outputs": [],
			"stateMutability": "nonpayable",
			"type": "function"
		},
		{
			"inputs": [],
			"name": "escrowHandler",
			"outputs": [
				{
					"internalType": "contract IEscrowHandler",
					"name": "",
					"type": "address"
				}
			],
			"stateMutability": "view",
			"type": "function"
		},
		{
			"inputs": [
				{
					"internalType": "uint256",
					"name": "_orderID",
					"type": "uint256"
				}
			],
			"name": "executeOrder",
			"outputs": [],
			"stateMutability": "payable",
			"type": "function"
		},
		{
			"inputs": [
				{
					"internalType": "uint256",
					"name": "_orderID",
					"type": "uint256"
				}
			],
			"name": "executeTransfer",
			"outputs": [],
			"stateMutability": "nonpayable",
			"type": "function"
		},
		{
			"inputs": [],
			"name": "getPendingRemoveOrderActions",
			"outputs": [
				{
					"internalType": "uint256[]",
					"name": "",
					"type": "uint256[]"
				},
				{
					"components": [
						{
							"internalType": "uint256",
							"name": "orderID",
							"type": "uint256"
						},
						{
							"internalType": "bool",
							"name": "isConfirmedByOwner1",
							"type": "bool"
						},
						{
							"internalType": "bool",
							"name": "isConfirmedByOwner2",
							"type": "bool"
						}
					],
					"internalType": "struct CustomMultisig.RemoveOrderAction[]",
					"name": "",
					"type": "tuple[]"
				}
			],
			"stateMutability": "view",
			"type": "function"
		},
		{
			"inputs": [
				{
					"internalType": "uint256",
					"name": "",
					"type": "uint256"
				}
			],
			"name": "indexes",
			"outputs": [
				{
					"internalType": "uint256",
					"name": "",
					"type": "uint256"
				}
			],
			"stateMutability": "view",
			"type": "function"
		},
		{
			"inputs": [],
			"name": "isConfirmedByOwner1",
			"outputs": [
				{
					"internalType": "bool",
					"name": "",
					"type": "bool"
				}
			],
			"stateMutability": "view",
			"type": "function"
		},
		{
			"inputs": [],
			"name": "isConfirmedByOwner2",
			"outputs": [
				{
					"internalType": "bool",
					"name": "",
					"type": "bool"
				}
			],
			"stateMutability": "view",
			"type": "function"
		},
		{
			"inputs": [],
			"name": "mine1NFT",
			"outputs": [
				{
					"internalType": "contract INFTContract",
					"name": "",
					"type": "address"
				}
			],
			"stateMutability": "view",
			"type": "function"
		},
		{
			"inputs": [],
			"name": "mine2NFT",
			"outputs": [
				{
					"internalType": "contract INFTContract",
					"name": "",
					"type": "address"
				}
			],
			"stateMutability": "view",
			"type": "function"
		},
		{
			"inputs": [],
			"name": "mine3NFT",
			"outputs": [
				{
					"internalType": "contract INFTContract",
					"name": "",
					"type": "address"
				}
			],
			"stateMutability": "view",
			"type": "function"
		},
		{
			"inputs": [],
			"name": "mine4NFT",
			"outputs": [
				{
					"internalType": "contract INFTContract",
					"name": "",
					"type": "address"
				}
			],
			"stateMutability": "view",
			"type": "function"
		},
		{
			"inputs": [],
			"name": "mine5NFT",
			"outputs": [
				{
					"internalType": "contract INFTContract",
					"name": "",
					"type": "address"
				}
			],
			"stateMutability": "view",
			"type": "function"
		},
		{
			"inputs": [],
			"name": "nextRemoveOrderActionId",
			"outputs": [
				{
					"internalType": "uint256",
					"name": "",
					"type": "uint256"
				}
			],
			"stateMutability": "view",
			"type": "function"
		},
		{
			"inputs": [],
			"name": "nickelium",
			"outputs": [
				{
					"internalType": "contract INickelium",
					"name": "",
					"type": "address"
				}
			],
			"stateMutability": "view",
			"type": "function"
		},
		{
			"inputs": [],
			"name": "nickeliumContract",
			"outputs": [
				{
					"internalType": "contract INickelium",
					"name": "",
					"type": "address"
				}
			],
			"stateMutability": "view",
			"type": "function"
		},
		{
			"inputs": [],
			"name": "orderRouter",
			"outputs": [
				{
					"internalType": "contract IOrderRouter",
					"name": "",
					"type": "address"
				}
			],
			"stateMutability": "view",
			"type": "function"
		},
		{
			"inputs": [],
			"name": "owner1",
			"outputs": [
				{
					"internalType": "address",
					"name": "",
					"type": "address"
				}
			],
			"stateMutability": "view",
			"type": "function"
		},
		{
			"inputs": [],
			"name": "owner2",
			"outputs": [
				{
					"internalType": "address",
					"name": "",
					"type": "address"
				}
			],
			"stateMutability": "view",
			"type": "function"
		},
		{
			"inputs": [],
			"name": "paused",
			"outputs": [
				{
					"internalType": "bool",
					"name": "",
					"type": "bool"
				}
			],
			"stateMutability": "view",
			"type": "function"
		},
		{
			"inputs": [
				{
					"internalType": "uint8",
					"name": "contractChoice",
					"type": "uint8"
				},
				{
					"internalType": "string",
					"name": "name",
					"type": "string"
				},
				{
					"internalType": "uint256",
					"name": "amount",
					"type": "uint256"
				}
			],
			"name": "payForNFTUpgrade",
			"outputs": [],
			"stateMutability": "nonpayable",
			"type": "function"
		},
		{
			"inputs": [
				{
					"internalType": "address",
					"name": "",
					"type": "address"
				}
			],
			"name": "payerAddresses",
			"outputs": [
				{
					"internalType": "bool",
					"name": "",
					"type": "bool"
				}
			],
			"stateMutability": "view",
			"type": "function"
		},
		{
			"inputs": [
				{
					"internalType": "uint256",
					"name": "",
					"type": "uint256"
				}
			],
			"name": "pendingOrders",
			"outputs": [
				{
					"internalType": "uint256",
					"name": "orderID",
					"type": "uint256"
				},
				{
					"internalType": "address payable",
					"name": "user",
					"type": "address"
				},
				{
					"internalType": "uint256",
					"name": "price",
					"type": "uint256"
				},
				{
					"internalType": "uint256",
					"name": "amount",
					"type": "uint256"
				},
				{
					"internalType": "enum SharedStructs.AssetType",
					"name": "assetType",
					"type": "uint8"
				},
				{
					"internalType": "enum SharedStructs.PaymentMethod",
					"name": "priceCurrency",
					"type": "uint8"
				},
				{
					"internalType": "bool",
					"name": "isConfirmedByOwner1",
					"type": "bool"
				},
				{
					"internalType": "bool",
					"name": "isConfirmedByOwner2",
					"type": "bool"
				},
				{
					"internalType": "string",
					"name": "orderType",
					"type": "string"
				},
				{
					"internalType": "bool",
					"name": "authorizedBuyersOnly",
					"type": "bool"
				}
			],
			"stateMutability": "view",
			"type": "function"
		},
		{
			"inputs": [
				{
					"internalType": "uint256",
					"name": "orderID",
					"type": "uint256"
				}
			],
			"name": "proposeRemoveOrder",
			"outputs": [],
			"stateMutability": "nonpayable",
			"type": "function"
		},
		{
			"inputs": [
				{
					"internalType": "uint256",
					"name": "",
					"type": "uint256"
				}
			],
			"name": "removeOrderActions",
			"outputs": [
				{
					"internalType": "uint256",
					"name": "orderID",
					"type": "uint256"
				},
				{
					"internalType": "bool",
					"name": "isConfirmedByOwner1",
					"type": "bool"
				},
				{
					"internalType": "bool",
					"name": "isConfirmedByOwner2",
					"type": "bool"
				}
			],
			"stateMutability": "view",
			"type": "function"
		},
		{
			"inputs": [],
			"name": "resume",
			"outputs": [],
			"stateMutability": "nonpayable",
			"type": "function"
		},
		{
			"inputs": [
				{
					"internalType": "address",
					"name": "_address",
					"type": "address"
				},
				{
					"internalType": "bool",
					"name": "_status",
					"type": "bool"
				}
			],
			"name": "setAuthorizedAddress",
			"outputs": [],
			"stateMutability": "nonpayable",
			"type": "function"
		},
		{
			"inputs": [
				{
					"internalType": "address",
					"name": "_mine1NFTAddress",
					"type": "address"
				},
				{
					"internalType": "address",
					"name": "_mine2NFTAddress",
					"type": "address"
				},
				{
					"internalType": "address",
					"name": "_mine3NFTAddress",
					"type": "address"
				},
				{
					"internalType": "address",
					"name": "_mine4NFTAddress",
					"type": "address"
				},
				{
					"internalType": "address",
					"name": "_mine5NFTAddress",
					"type": "address"
				},
				{
					"internalType": "address payable",
					"name": "_nickeliumAddress",
					"type": "address"
				},
				{
					"internalType": "address",
					"name": "_centralAddress",
					"type": "address"
				},
				{
					"internalType": "address",
					"name": "_USDTAddress",
					"type": "address"
				},
				{
					"internalType": "address",
					"name": "_usdcAddress",
					"type": "address"
				},
				{
					"internalType": "address",
					"name": "_escrowHandler",
					"type": "address"
				},
				{
					"internalType": "address",
					"name": "_adminControlAddress",
					"type": "address"
				},
				{
					"internalType": "address",
					"name": "_orderRouterAddress",
					"type": "address"
				}
			],
			"name": "setContracts",
			"outputs": [],
			"stateMutability": "nonpayable",
			"type": "function"
		},
		{
			"inputs": [
				{
					"internalType": "address",
					"name": "_owner1",
					"type": "address"
				},
				{
					"internalType": "address",
					"name": "_owner2",
					"type": "address"
				}
			],
			"name": "setOwners",
			"outputs": [],
			"stateMutability": "nonpayable",
			"type": "function"
		},
		{
			"inputs": [
				{
					"internalType": "address",
					"name": "_address",
					"type": "address"
				},
				{
					"internalType": "bool",
					"name": "_status",
					"type": "bool"
				}
			],
			"name": "setPayerAddress",
			"outputs": [],
			"stateMutability": "nonpayable",
			"type": "function"
		},
		{
			"inputs": [
				{
					"internalType": "uint256",
					"name": "",
					"type": "uint256"
				}
			],
			"name": "transferStatus",
			"outputs": [
				{
					"internalType": "bool",
					"name": "isConfirmedByOwner1",
					"type": "bool"
				},
				{
					"internalType": "bool",
					"name": "isConfirmedByOwner2",
					"type": "bool"
				},
				{
					"internalType": "uint256",
					"name": "amount",
					"type": "uint256"
				},
				{
					"internalType": "address",
					"name": "recipientAddress",
					"type": "address"
				},
				{
					"internalType": "enum SharedStructs.PaymentMethod",
					"name": "paymentMethod",
					"type": "uint8"
				},
				{
					"internalType": "uint256",
					"name": "orderID",
					"type": "uint256"
				}
			],
			"stateMutability": "view",
			"type": "function"
		},
		{
			"inputs": [
				{
					"internalType": "uint256",
					"name": "",
					"type": "uint256"
				}
			],
			"name": "transferStatusNickelium",
			"outputs": [
				{
					"internalType": "bool",
					"name": "isConfirmedByOwner1",
					"type": "bool"
				},
				{
					"internalType": "bool",
					"name": "isConfirmedByOwner2",
					"type": "bool"
				},
				{
					"internalType": "uint256",
					"name": "amount",
					"type": "uint256"
				},
				{
					"internalType": "address",
					"name": "recipientAddress",
					"type": "address"
				},
				{
					"internalType": "enum SharedStructs.AssetType",
					"name": "assetType",
					"type": "uint8"
				},
				{
					"internalType": "uint256",
					"name": "orderID",
					"type": "uint256"
				}
			],
			"stateMutability": "view",
			"type": "function"
		}
	]
}