{
	"data": {
		"bytecode": {
			"linkReferences": {},
			"object": "60806040525f600b553480156012575f5ffd5b505f805460ff1990811682556001808055338352601460205260408320805490921681179091556013805491820181559091525f197f66de8ffda797e3de9c05e8fc57b3bf0ec28a930d40b0d285d93c06501cf6a0909091015561492f806100795f395ff3fe6080604052600436106102d6575f3560e01c806383240f831161017b578063cea7fc3d116100d1578063cea7fc3d14610a25578063d287351014610a44578063d6f455f414610a63578063db5544a614610a82578063dc7a3ee714610aa1578063dde12d1d14610ac0578063df7dfef714610b12578063e113b6ec14610b31578063e2a8c10314610b51578063e9ce848d14610b66578063ebf968a314610b85578063f05d575214610ba5578063f19e207e14610bc4578063f7f6c19f14610bf2578063fba6cf7b14610c14576102d6565b806383240f831461073d5780638704b10d146107c357806387ad8f87146107e25780638de91b2414610801578063927e97421461087557806392f8eb94146108e957806399762734146109085780639a2122f914610927578063a404c1c514610949578063a4eaa16414610968578063a63d914f14610987578063a8143f85146109a6578063b94db859146109bb578063c5026555146109da578063cb7c6da6146109f9576102d6565b806346abe73a1161023057806346abe73a1461054757806348405b491461055c578063499556031461057b57806349d601a5146105d657806352709725146105f857806357b009481461061757806358f82236146106365780635b58ff1d1461064b5780635c975abb1461066c57806363a599a41461068e57806373688914146106a2578063764327a6146106c1578063764dc2f1146106e05780637b7f1c82146106ff5780637e0b989a1461071e576102d6565b8063046f7da21461030d5780630843e3b0146103235780630c101596146103995780630cf71579146103c55780630d83dc18146103e45780631351cf5114610411578063150a358714610430578063153f0c6f1461044f57806315d4c5d51461046e5780631b8e2ed91461048d5780631d2e4a2f146104ac5780632463a55a146104cb578063262b7821146104ea57806329878bc4146105095780632c48e7db14610528575b60405134815233907f1e57e3bb474320be3d2c77138f75b7c3941292d647f5f9634e33a8e94e0e069b9060200160405180910390a2005b348015610318575f5ffd5b50610321610c33565b005b34801561032e575f5ffd5b5061036d61033d36600461412a565b60176020525f90815260409020546001600160a01b0381169060ff600160a01b8204811691600160a81b90041683565b604080516001600160a01b03909416845291151560208401521515908201526060015b60405180910390f35b3480156103a4575f5ffd5b506006546103b8906001600160a01b031681565b6040516103909190614141565b3480156103d0575f5ffd5b50600c546103b8906001600160a01b031681565b3480156103ef575f5ffd5b506104036103fe36600461412a565b610c96565b604051908152602001610390565b34801561041c575f5ffd5b5061032161042b366004614176565b610cb5565b34801561043b575f5ffd5b5061032161044a36600461412a565b610d22565b34801561045a575f5ffd5b5061032161046936600461412a565b610eb7565b348015610479575f5ffd5b506103216104883660046141ad565b61107e565b348015610498575f5ffd5b506007546103b8906001600160a01b031681565b3480156104b7575f5ffd5b50600d546103b8906001600160a01b031681565b3480156104d6575f5ffd5b506103216104e53660046141d7565b6111fd565b3480156104f5575f5ffd5b506103216105043660046141ad565b6112b3565b348015610514575f5ffd5b50600a546103b8906001600160a01b031681565b348015610533575f5ffd5b5061032161054236600461412a565b61141e565b348015610552575f5ffd5b5061040360125481565b348015610567575f5ffd5b50610321610576366004614255565b61156c565b348015610586575f5ffd5b506105b961059536600461412a565b601c6020525f90815260409020805460019091015460ff8082169161010090041683565b604080519384529115156020840152151590820152606001610390565b3480156105e1575f5ffd5b506105ea6115e3565b60405161039092919061433f565b348015610603575f5ffd5b506003546103b8906001600160a01b031681565b348015610622575f5ffd5b506103216106313660046141ad565b611910565b348015610641575f5ffd5b50610403601a5481565b348015610656575f5ffd5b5061065f611995565b6040516103909190614413565b348015610677575f5ffd5b505f5460ff165b6040519015158152602001610390565b348015610699575f5ffd5b50610321611ad2565b3480156106ad575f5ffd5b506002546103b8906001600160a01b031681565b3480156106cc575f5ffd5b506103216106db36600461442c565b611b29565b3480156106eb575f5ffd5b506103216106fa36600461412a565b611c31565b34801561070a575f5ffd5b506009546103b8906001600160a01b031681565b348015610729575f5ffd5b5061032161073836600461412a565b611da5565b348015610748575f5ffd5b506107af61075736600461412a565b60116020525f908152604090208054600182015460028301546003840154600485015460059095015460ff9485169593946001600160a01b03938416949293821691600160a01b8104821691600160a81b9091041688565b604051610390989796959493929190614447565b3480156107ce575f5ffd5b506103216107dd3660046141ad565b611ef4565b3480156107ed575f5ffd5b506008546103b8906001600160a01b031681565b34801561080c575f5ffd5b5061086361081b36600461412a565b60196020525f9081526040902080546001820154600283015460039093015460ff808416946101009094048116936001600160a01b03811692600160a01b9091049091169086565b6040516103909695949392919061449b565b348015610880575f5ffd5b506108d761088f36600461412a565b60186020525f9081526040902080546001820154600283015460039093015460ff808416946101009094048116936001600160a01b03811692600160a01b9091049091169086565b604051610390969594939291906144e0565b3480156108f4575f5ffd5b5061040361090336600461412a565b611f7b565b348015610913575f5ffd5b506004546103b8906001600160a01b031681565b348015610932575f5ffd5b5061093b611f8a565b604051610390929190614524565b348015610954575f5ffd5b506103216109633660046141ad565b6121ca565b348015610973575f5ffd5b5061032161098236600461412a565b6122d1565b348015610992575f5ffd5b506103216109a136600461412a565b61244e565b3480156109b1575f5ffd5b50610403600b5481565b3480156109c6575f5ffd5b506104036109d536600461412a565b6126df565b3480156109e5575f5ffd5b50600f546103b8906001600160a01b031681565b348015610a04575f5ffd5b50610a18610a1336600461412a565b6126ee565b60405161039091906145a2565b348015610a30575f5ffd5b50610321610a3f36600461412a565b612879565b348015610a4f575f5ffd5b506005546103b8906001600160a01b031681565b348015610a6e575f5ffd5b50610321610a7d36600461461f565b612a2e565b348015610a8d575f5ffd5b50600e546103b8906001600160a01b031681565b348015610aac575f5ffd5b50610321610abb36600461412a565b612acd565b348015610acb575f5ffd5b50610adf610ada36600461412a565b612b9e565b6040805195151586529315156020860152928401919091526001600160a01b03166060830152608082015260a001610390565b348015610b1d575f5ffd5b50610321610b2c36600461412a565b612d77565b348015610b3c575f5ffd5b5060035461067e90600160a81b900460ff1681565b348015610b5c575f5ffd5b5061040360155481565b348015610b71575f5ffd5b506010546103b8906001600160a01b031681565b348015610b90575f5ffd5b5060035461067e90600160a01b900460ff1681565b348015610bb0575f5ffd5b50610321610bbf36600461412a565b612f5b565b348015610bcf575f5ffd5b5061067e610bde36600461442c565b60146020525f908152604090205460ff1681565b348015610bfd575f5ffd5b50610c06613651565b60405161039092919061468c565b348015610c1f575f5ffd5b50610321610c2e36600461412a565b61386d565b6002546001600160a01b0316331480610c5657506003546001600160a01b031633145b610c7b5760405162461bcd60e51b8152600401610c72906146f8565b60405180910390fd5b610c8361390a565b610c8b613934565b610c9460018055565b565b601b8181548110610ca5575f80fd5b5f91825260209091200154905081565b335f9081526014602052604090205460ff16610ce35760405162461bcd60e51b8152600401610c729061471e565b610ceb61390a565b610cf361397f565b6001600160a01b0382165f908152601460205260409020805460ff1916821515179055600180555050565b5050565b6002546001600160a01b0316331480610d4557506003546001600160a01b031633145b610d615760405162461bcd60e51b8152600401610c72906146f8565b610d6961390a565b610d7161397f565b601a548110610db65760405162461bcd60e51b8152602060048201526011602482015270125b9d985b1a59081858dd1a5bdb881251607a1b6044820152606401610c72565b5f818152601c602052604090206002546001600160a01b03163303610dea576001818101805460ff19169091179055610e53565b6003546001600160a01b03163303610e125760018101805461ff001916610100179055610e53565b60405162461bcd60e51b815260206004820152601660248201527521b0b63632b91034b9903737ba1030b71037bbb732b960511b6044820152606401610c72565b604051339083907fbef06c93075545c144d4899d9c17a58a12fc6aea907cc6accff0fac848b6226e905f90a3600181015460ff168015610e9c57506001810154610100900460ff165b15610eaa57610eaa826139c4565b50610eb460018055565b50565b6002546001600160a01b0316331480610eda57506003546001600160a01b031633145b610ef65760405162461bcd60e51b8152600401610c72906146f8565b610efe61397f565b5f80805b601354811015610f42578360138281548110610f2057610f20614746565b905f5260205f20015403610f3a5780925060019150610f42565b600101610f02565b5080610f8e5760405162461bcd60e51b815260206004820152601b60248201527a13dc99195c881b9bdd08199bdd5b99081a5b881d1a19481b1a5cdd602a1b6044820152606401610c72565b5f838152601860209081526040808320805461ffff1990811682556001808301869055600280840180546001600160a81b03199081169091556003948501889055601990965293862080549092168255810185905591820180549093169092550155815b6013546110019060019061476e565b811015611054576013611015826001614787565b8154811061102557611025614746565b905f5260205f2001546013828154811061104157611041614746565b5f91825260209091200155600101610ff2565b5060138054806110665761106661479a565b600190038181905f5260205f20015f90559055505050565b6002546001600160a01b03163314806110a157506003546001600160a01b031633145b6110bd5760405162461bcd60e51b8152600401610c72906146f8565b6110c561390a565b6110cd61397f565b601280545f91826110dd836147ae565b9091555060408051610100810190915290915080600181525f60208083018290526001600160a01b038716604080850191909152606084018790526080840183905260a0840183905260c0840183905260e0909301829052848252601190522081518154829060ff1916600183600281111561115b5761115b614281565b02179055506020820151600182015560408201516002820180546001600160a01b039283166001600160a01b0319909116179055606083015160038301556080830151600483015560a08301516005909201805460c085015160e0909501511515600160a81b0260ff60a81b19951515600160a01b026001600160a81b03199092169490931693909317929092179290921691909117905550610d1e60018055565b335f9081526014602052604090205460ff1661122b5760405162461bcd60e51b8152600401610c729061471e565b61123361390a565b61123b61397f565b600780546001600160a01b03199081166001600160a01b038981169182179093556006805483169091179055600a805482168884161790556004805482168784161790556005805482168684161790556008805482168584161790556009805490911691831691909117905560018055505050505050565b6002546001600160a01b03163314806112d657506003546001600160a01b031633145b6112f25760405162461bcd60e51b8152600401610c72906146f8565b6112fa61390a565b61130261397f565b6013546040805160c0810182525f80825260208201529081018390526001600160a01b03841660608201526080810160025b815260209081018390525f83815260188252604090819020835181549385015115156101000261ff00199115159190911661ffff199094169390931792909217825582015160018201556060820151600280830180546001600160a01b039093166001600160a01b031984168117825560808601519391926001600160a81b03199092161790600160a01b9084908111156113d1576113d1614281565b021790555060a09190910151600390910155601380546001810182555f919091527f66de8ffda797e3de9c05e8fc57b3bf0ec28a930d40b0d285d93c06501cf6a0900155610d1e60018055565b6002546001600160a01b031633148061144157506003546001600160a01b031633145b61145d5760405162461bcd60e51b8152600401610c72906146f8565b61146561390a565b61146d61397f565b601354811061148e5760405162461bcd60e51b8152600401610c72906147c6565b5f818152601860205260409020600301548190036114fb575f8181526018602052604090206002546001600160a01b031633036114d557805460ff191660011781556114f5565b6003546001600160a01b031633036114f557805461ff0019166101001781555b50611563565b5f81815260196020526040902060030154819003611563575f8181526019602052604090206002546001600160a01b0316330361154257805460ff19166001178155610eaa565b6003546001600160a01b03163303610eaa57805461ff001916610100178155505b610eb460018055565b335f9081526014602052604090205460ff1661159a5760405162461bcd60e51b8152600401610c729061471e565b6115a261390a565b6115aa61397f565b600280546001600160a01b038085166001600160a01b0319928316179092556003805492841692909116919091179055610d1e60018055565b6060805f80805b60135481101561166f575f6013828154811061160857611608614746565b905f5260205f20015490508060185f8381526020019081526020015f2060030154036116405783611638816147ae565b945050611666565b5f818152601960205260409020600301548190036116665782611662816147ae565b9350505b506001016115ea565b505f826001600160401b03811115611689576116896147f0565b6040519080825280602002602001820160405280156116c257816020015b6116af6140c8565b8152602001906001900390816116a75790505b5090505f826001600160401b038111156116de576116de6147f0565b60405190808252806020026020018201604052801561171757816020015b6117046140fd565b8152602001906001900390816116fc5790505b5090505f80805b601354811015611901575f6013828154811061173c5761173c614746565b905f5260205f20015490508060185f8381526020019081526020015f206003015403611826575f81815260186020908152604091829020825160c081018452815460ff8082161515835261010090910481161515938201939093526001820154938101939093526002808201546001600160a01b038116606086015291926080850192600160a01b900416908111156117d7576117d7614281565b60028111156117e8576117e8614281565b815260200160038201548152505086858151811061180857611808614746565b6020026020010181905250838061181e906147ae565b9450506118f8565b5f818152601960205260409020600301548190036118f8575f81815260196020908152604091829020825160c081018452815460ff80821615158352610100909104811615159382019390935260018201549381019390935260028101546001600160a01b038116606085015290916080840191600160a01b90041680156118b0576118b0614281565b80156118be576118be614281565b81526020016003820154815250508584815181106118de576118de614746565b602002602001018190525082806118f4906147ae565b9350505b5060010161171e565b50929791965090945050505050565b6002546001600160a01b031633148061193357506003546001600160a01b031633145b61194f5760405162461bcd60e51b8152600401610c72906146f8565b61195761390a565b61195f61397f565b6013546040805160c0810182525f80825260208201529081018390526001600160a01b0384166060820152608081016001611334565b60605f805b6012548110156119fe575f81815260116020526040902060050154600160a01b900460ff1615806119e357505f81815260116020526040902060050154600160a81b900460ff16155b156119f657816119f2816147ae565b9250505b60010161199a565b505f816001600160401b03811115611a1857611a186147f0565b604051908082528060200260200182016040528015611a41578160200160208202803683370190505b5090505f805b601254811015611ac9575f81815260116020526040902060050154600160a01b900460ff161580611a9057505f81815260116020526040902060050154600160a81b900460ff16155b15611ac15780838381518110611aa857611aa8614746565b602090810291909101015281611abd816147ae565b9250505b600101611a47565b50909392505050565b6002546001600160a01b0316331480611af557506003546001600160a01b031633145b611b115760405162461bcd60e51b8152600401610c72906146f8565b611b1961390a565b611b2161397f565b610c8b613bf4565b6002546001600160a01b0316331480611b4c57506003546001600160a01b031633145b611b685760405162461bcd60e51b8152600401610c72906146f8565b611b7061390a565b611b7861397f565b601580545f9182611b88836147ae565b90915550604080516060810182526001600160a01b0380861682525f6020808401828152848601838152878452601790925294822093518454955191511515600160a81b0260ff60a81b19921515600160a01b026001600160a81b0319909716919094161794909417939093161790556016805460018101825591527fd833147d7dc355ba459fc788f669e58cfaf9dc25ddcd0702e87d69c7b5124289015550610eb460018055565b6002546001600160a01b0316331480611c5457506003546001600160a01b031633145b611c705760405162461bcd60e51b8152600401610c72906146f8565b611c7861390a565b611c8061397f565b601280545f9182611c90836147ae565b90915550604080516101008101909152909150805f815260208082018590525f6040808401829052606084018290526080840182905260a0840182905260c0840182905260e090930181905284815260119091522081518154829060ff19166001836002811115611d0357611d03614281565b02179055506020820151600182015560408201516002820180546001600160a01b039283166001600160a01b0319909116179055606083015160038301556080830151600483015560a08301516005909201805460c085015160e0909501511515600160a81b0260ff60a81b19951515600160a01b026001600160a81b03199092169490931693909317929092179290921691909117905550610eb460018055565b6002546001600160a01b0316331480611dc857506003546001600160a01b031633145b611de45760405162461bcd60e51b8152600401610c72906146f8565b611dec61390a565b611df461397f565b5f81815260176020526040902080546001600160a01b0316611e285760405162461bcd60e51b8152600401610c7290614804565b6002546001600160a01b03163303611e79578054600160a01b900460ff1615611e635760405162461bcd60e51b8152600401610c7290614833565b805460ff60a01b1916600160a01b178155611ec6565b6003546001600160a01b03163303611ec6578054600160a81b900460ff1615611eb45760405162461bcd60e51b8152600401610c7290614833565b805460ff60a81b1916600160a81b1781555b8054600160a01b900460ff168015611ee657508054600160a81b900460ff165b15610eaa57610eaa82613c30565b6002546001600160a01b0316331480611f1757506003546001600160a01b031633145b611f335760405162461bcd60e51b8152600401610c72906146f8565b611f3b61390a565b611f4361397f565b6013546040805160c0810182525f808252602082018190529181018490526001600160a01b0385166060820152906080820190611334565b60138181548110610ca5575f80fd5b6060805f805b601654811015612031575f60168281548110611fae57611fae614746565b5f91825260208083209091015480835260178252604092839020835160608101855290546001600160a01b038116825260ff600160a01b8204811615801595840195909552600160a81b9091041615159381019390935292508061201457508060400151155b156120275783612023816147ae565b9450505b5050600101611f90565b505f816001600160401b0381111561204b5761204b6147f0565b604051908082528060200260200182016040528015612074578160200160208202803683370190505b5090505f826001600160401b03811115612090576120906147f0565b6040519080825280602002602001820160405280156120d957816020015b604080516060810182525f80825260208083018290529282015282525f199092019101816120ae5790505b5090505f805b6016548110156121be575f601682815481106120fd576120fd614746565b5f91825260208083209091015480835260178252604092839020835160608101855290546001600160a01b038116825260ff600160a01b8204811615801595840195909552600160a81b9091041615159381019390935292508061216357508060400151155b156121b4578186858151811061217b5761217b614746565b6020026020010181815250508085858151811061219a5761219a614746565b602002602001018190525083806121b0906147ae565b9450505b50506001016120df565b50919590945092505050565b6002546001600160a01b03163314806121ed57506003546001600160a01b031633145b6122095760405162461bcd60e51b8152600401610c72906146f8565b61221161390a565b61221961397f565b6013546040805160c0810182525f80825260208083018281528385018781526001600160a01b03898116606087019081526080870186815260a088018a905289875260199095529690942085518154935161ffff1990941690151561ff001916176101009315159390930292909217825551600182015593516002850180546001600160a01b031981169290941691821781559151939493926001600160a81b03191617600160a01b8380156113d1576113d1614281565b6002546001600160a01b03163314806122f457506003546001600160a01b031633145b6123105760405162461bcd60e51b8152600401610c72906146f8565b61231861390a565b61232061397f565b5f811161236f5760405162461bcd60e51b815260206004820181905260248201527f4e6577206c696d6974206d7573742062652067726561746572207468616e20306044820152606401610c72565b601a80545f918261237f836147ae565b90915550604080516060810182528481525f6020808301828152838501838152868452601c909252848320935184555160019384018054925115156101000261ff00199215159290921661ffff1990931692909217179055601b8054928301815590527f3ad8aa4f87544323a9d1e5dd902f40c356527a7955687113db5f9a85ad579dc1018290555190915081907fbbd6dde3cb67245d4b03d4d943ec79e5ffef413f610bfe77e41299df9bcfc2069061243c9085815260200190565b60405180910390a250610eb460018055565b6002546001600160a01b031633148061247157506003546001600160a01b031633145b61248d5760405162461bcd60e51b8152600401610c72906146f8565b805f5f8281526011602052604090205460ff1660028111156124b1576124b1614281565b14806124de575060015f8281526011602052604090205460ff1660028111156124dc576124dc614281565b145b8061250a575060025f8281526011602052604090205460ff16600281111561250857612508614281565b145b6125265760405162461bcd60e51b8152600401610c7290614804565b5f828152601160205260408082208151610100810190925280548593929190829060ff16600281111561255b5761255b614281565b600281111561256c5761256c614281565b8152600182015460208201526002808301546001600160a01b039081166040840152600384015460608401526004840154608084015260059093015480841660a084015260ff600160a01b82048116151560c0850152600160a81b90910416151560e090920191909152549192503391161480156125ec57508060c00151155b8061260e57506003546001600160a01b03163314801561260e57508060e00151155b61262a5760405162461bcd60e51b8152600401610c7290614833565b61263261390a565b61263a61397f565b5f8481526011602052604090206002546001600160a01b031633036126735760058101805460ff60a01b1916600160a01b17905561269b565b6003546001600160a01b0316330361269b5760058101805460ff60a81b1916600160a81b1790555b6005810154600160a01b900460ff1680156126c157506005810154600160a81b900460ff165b156126cf576126cf85613da7565b506126d960018055565b50505050565b60168181548110610ca5575f80fd5b60408051610100810182525f80825260208201819052918101829052606081018290526080810182905260a0810182905260c0810182905260e0810191909152815f5f8281526011602052604090205460ff16600281111561275257612752614281565b148061277f575060015f8281526011602052604090205460ff16600281111561277d5761277d614281565b145b806127ab575060025f8281526011602052604090205460ff1660028111156127a9576127a9614281565b145b6127c75760405162461bcd60e51b8152600401610c7290614804565b5f8381526011602052604090819020815161010081019092528054829060ff1660028111156127f8576127f8614281565b600281111561280957612809614281565b81526001820154602082015260028201546001600160a01b039081166040830152600383015460608301526004830154608083015260059092015491821660a082015260ff600160a01b83048116151560c0830152600160a81b909204909116151560e090910152915050919050565b6002546001600160a01b031633148061289c57506003546001600160a01b031633145b6128b85760405162461bcd60e51b8152600401610c72906146f8565b6128c061390a565b6128c861397f565b5f81815260176020526040902080546001600160a01b03166128fc5760405162461bcd60e51b8152600401610c7290614804565b8054600160a01b900460ff16158061291d57508054600160a81b900460ff16155b6129635760405162461bcd60e51b81526020600482015260176024820152761058dd1a5bdb88185b1c9958591e48195e1958dd5d1959604a1b6044820152606401610c72565b5f82815260176020526040812080546001600160b01b03191690555b601654811015612a2357826016828154811061299d5761299d614746565b905f5260205f20015403612a1b57601680546129bb9060019061476e565b815481106129cb576129cb614746565b905f5260205f200154601682815481106129e7576129e7614746565b5f918252602090912001556016805480612a0357612a0361479a565b600190038181905f5260205f20015f90559055612a23565b60010161297f565b5050610eb460018055565b335f9081526014602052604090205460ff16612a5c5760405162461bcd60e51b8152600401610c729061471e565b612a6461390a565b612a6c61397f565b600c80546001600160a01b03199081166001600160a01b0388811691909117909255600d80548216878416179055600e80548216868416179055600f8054821685841617905560108054909116918316919091179055600180555050505050565b6002546001600160a01b0316331480612af057506003546001600160a01b031633145b612b0c5760405162461bcd60e51b8152600401610c72906146f8565b612b1461390a565b612b1c61397f565b601280545f9182612b2c836147ae565b9091555060408051610100810190915290915080600281525f6020808301829052604080840183905260608401839052608084018790523060a085015260c0840183905260e0909301829052848252601190522081518154829060ff19166001836002811115611d0357611d03614281565b5f5f5f5f5f855f03612bc25760405162461bcd60e51b8152600401610c72906147c6565b5f86815260186020526040902060030154869003612c9a575f868152601860209081526040808320815160c081018352815460ff8082161515835261010090910481161515948201949094526001820154928101929092526002808201546001600160a01b0381166060850152929391926080850192600160a01b9091041690811115612c5157612c51614281565b6002811115612c6257612c62614281565b81526020016003820154815250509050805f01518160200151826040015183606001518460a001519550955095509550955050612d6e565b5f86815260196020526040902060030154869003612d34575f868152601960209081526040808320815160c081018352815460ff80821615158352610100909104811615159482019490945260018201549281019290925260028101546001600160a01b0381166060840152919290916080840191600160a01b909104168015612d2657612d26614281565b8015612c6257612c62614281565b60405162461bcd60e51b815260206004820152600f60248201526e13dc99195c881b9bdd08199bdd5b99608a1b6044820152606401610c72565b91939590929450565b6002546001600160a01b0316331480612d9a57506003546001600160a01b031633145b612db65760405162461bcd60e51b8152600401610c72906146f8565b805f5f8281526011602052604090205460ff166002811115612dda57612dda614281565b1480612e07575060015f8281526011602052604090205460ff166002811115612e0557612e05614281565b145b80612e33575060025f8281526011602052604090205460ff166002811115612e3157612e31614281565b145b612e4f5760405162461bcd60e51b8152600401610c7290614804565b612e5761390a565b612e5f61397f565b5f828152601160205260408120805460ff19168155600181018290556002810180546001600160a01b0319169055600381018290556004810182905560050180546001600160b01b03191690555b601354811015612f51578260138281548110612ecb57612ecb614746565b905f5260205f20015403612f495760138054612ee99060019061476e565b81548110612ef957612ef9614746565b905f5260205f20015460138281548110612f1557612f15614746565b5f918252602090912001556013805480612f3157612f3161479a565b600190038181905f5260205f20015f90559055612f51565b600101612ead565b50610d1e60018055565b6002546001600160a01b0316331480612f7e57506003546001600160a01b031633145b612f9a5760405162461bcd60e51b8152600401610c72906146f8565b612fa261390a565b612faa61397f565b5f818152601860205260409020600301548190036133e7575f818152601860205260409020805460ff168015612fe657508054610100900460ff165b6130025760405162461bcd60e51b8152600401610c7290614879565b5f600282810154600160a01b900460ff169081111561302357613023614281565b036130bc5780600101544710156130795760405162461bcd60e51b815260206004820152601a602482015279496e73756666696369656e742045746865722062616c616e636560301b6044820152606401610c72565b600281015460018201546040516001600160a01b039092169181156108fc0291905f818181858888f193505050501580156130b6573d5f5f3e3d5ffd5b506133ae565b6001600282810154600160a01b900460ff16908111156130de576130de614281565b0361320c576001810154600480546040516370a0823160e01b81526001600160a01b03909116916370a082319161311791309101614141565b602060405180830381865afa158015613132573d5f5f3e3d5ffd5b505050506040513d601f19601f8201168201806040525081019061315691906148ae565b10156131a05760405162461bcd60e51b8152602060048201526019602482015278496e73756666696369656e7420555344542062616c616e636560381b6044820152606401610c72565b600480546002830154600184015460405163a9059cbb60e01b81526001600160a01b039384169463a9059cbb946131da94169291016148c5565b5f604051808303815f87803b1580156131f1575f5ffd5b505af1158015613203573d5f5f3e3d5ffd5b505050506133ae565b60028082810154600160a01b900460ff169081111561322d5761322d614281565b036133ae5760018101546005546040516370a0823160e01b81526001600160a01b03909116906370a0823190613267903090600401614141565b602060405180830381865afa158015613282573d5f5f3e3d5ffd5b505050506040513d601f19601f820116820180604052508101906132a691906148ae565b10156132f05760405162461bcd60e51b8152602060048201526019602482015278496e73756666696369656e7420555344432062616c616e636560381b6044820152606401610c72565b6005546002820154600183015460405163a9059cbb60e01b81526001600160a01b039384169363a9059cbb9361332b939116916004016148c5565b6020604051808303815f875af1158015613347573d5f5f3e3d5ffd5b505050506040513d601f19601f8201168201806040525081019061336b91906148de565b6133ae5760405162461bcd60e51b81526020600482015260146024820152731554d110c81d1c985b9cd9995c8819985a5b195960621b6044820152606401610c72565b505f818152601860205260408120805461ffff19168155600181018290556002810180546001600160a81b031916905560030155611563565b5f818152601960205260409020600301548190036135fd575f818152601960205260409020805460ff16801561342357508054610100900460ff165b61343f5760405162461bcd60e51b8152600401610c7290614879565b60018101546007546040516370a0823160e01b81526001600160a01b03909116906370a0823190613474903090600401614141565b602060405180830381865afa15801561348f573d5f5f3e3d5ffd5b505050506040513d601f19601f820116820180604052508101906134b391906148ae565b10156135015760405162461bcd60e51b815260206004820152601e60248201527f496e73756666696369656e74204e69636b656c69756d2062616c616e636500006044820152606401610c72565b6007546002820154600183015460405163a9059cbb60e01b81526001600160a01b039384169363a9059cbb9361353c939116916004016148c5565b6020604051808303815f875af1158015613558573d5f5f3e3d5ffd5b505050506040513d601f19601f8201168201806040525081019061357c91906148de565b6135c45760405162461bcd60e51b8152602060048201526019602482015278139a58dad95b1a5d5b481d1c985b9cd9995c8819985a5b1959603a1b6044820152606401610c72565b505f818152601960205260408120805461ffff19168155600181018290556002810180546001600160a81b031916905560030155611563565b60405162461bcd60e51b815260206004820152602360248201527f4e6f207472616e7366657220666f756e6420776974682074686973206f7264656044820152621c925160ea1b6064820152608401610c72565b6060805f805b601b548110156136ec575f601b828154811061367557613675614746565b5f918252602080832090910154808352601c825260409283902083516060810185528154815260019091015460ff80821615801595840195909552610100909104161515938101939093529250806136cf57508060400151155b156136e257836136de816147ae565b9450505b5050600101613657565b505f816001600160401b03811115613706576137066147f0565b60405190808252806020026020018201604052801561372f578160200160208202803683370190505b5090505f826001600160401b0381111561374b5761374b6147f0565b60405190808252806020026020018201604052801561379457816020015b604080516060810182525f80825260208083018290529282015282525f199092019101816137695790505b5090505f805b601b548110156121be575f601b82815481106137b8576137b8614746565b5f918252602080832090910154808352601c825260409283902083516060810185528154815260019091015460ff808216158015958401959095526101009091041615159381019390935292508061381257508060400151155b15613863578186858151811061382a5761382a614746565b6020026020010181815250508085858151811061384957613849614746565b6020026020010181905250838061385f906147ae565b9450505b505060010161379a565b6002546001600160a01b031633148061389057506003546001600160a01b031633145b6138ac5760405162461bcd60e51b8152600401610c72906146f8565b6138b461390a565b6138bc61397f565b5f8181526018602052604090206002546001600160a01b031633036138e857805460ff19168155610eaa565b6003546001600160a01b03163303610eaa57805461ff00191690556001805550565b60026001540361392d57604051633ee5aeb560e01b815260040160405180910390fd5b6002600155565b61393c614080565b5f805460ff191690557f5db9ee0a495bf2e6ff9c91a7834c1ba4fdd244a5e8aa4e537bd38aeae4b073aa335b6040516139759190614141565b60405180910390a1565b5f5460ff1615610c945760405162461bcd60e51b815260206004820152601060248201526f14185d5cd8589b194e881c185d5cd95960821b6044820152606401610c72565b5f818152601c602052604090819020600c548154925163ecc97a2960e01b815291926001600160a01b039091169163ecc97a2991613a089160040190815260200190565b5f604051808303815f87803b158015613a1f575f5ffd5b505af1158015613a31573d5f5f3e3d5ffd5b5050600d54835460405163ecc97a2960e01b81526001600160a01b03909216935063ecc97a299250613a699160040190815260200190565b5f604051808303815f87803b158015613a80575f5ffd5b505af1158015613a92573d5f5f3e3d5ffd5b5050600e54835460405163ecc97a2960e01b81526001600160a01b03909216935063ecc97a299250613aca9160040190815260200190565b5f604051808303815f87803b158015613ae1575f5ffd5b505af1158015613af3573d5f5f3e3d5ffd5b5050600f54835460405163ecc97a2960e01b81526001600160a01b03909216935063ecc97a299250613b2b9160040190815260200190565b5f604051808303815f87803b158015613b42575f5ffd5b505af1158015613b54573d5f5f3e3d5ffd5b5050601054835460405163ecc97a2960e01b81526001600160a01b03909216935063ecc97a299250613b8c9160040190815260200190565b5f604051808303815f87803b158015613ba3575f5ffd5b505af1158015613bb5573d5f5f3e3d5ffd5b505082546040519081528492507f259f686e53e5a6d3bf161a01b4580f10d0a5516406cc88b142033018b575c4c8915060200160405180910390a25050565b613bfc61397f565b5f805460ff191660011790557f62e78cea01bee320cd4e420270b5ea74000d11b0c9f74754ebdbfc544b05a2586139683390565b5f81815260176020908152604091829020825160608101845290546001600160a01b03811680835260ff600160a01b83048116151594840194909452600160a81b909104909216151592810192909252613c9c5760405162461bcd60e51b8152600401610c7290614804565b60095481516040516333bf357760e01b81526001600160a01b03909216916333bf357791613ccc91600401614141565b5f604051808303815f87803b158015613ce3575f5ffd5b505af1158015613cf5573d5f5f3e3d5ffd5b5050505f83815260176020526040812080546001600160b01b031916905590505b601654811015613da2578260168281548110613d3457613d34614746565b905f5260205f20015403613d9a5760168054613d529060019061476e565b81548110613d6257613d62614746565b905f5260205f20015460168281548110613d7e57613d7e614746565b5f9182526020909120015560168054806110665761106661479a565b600101613d16565b505050565b5f81815260116020526040808220815161010081019092528054829060ff166002811115613dd757613dd7614281565b6002811115613de857613de8614281565b81526001820154602082015260028201546001600160a01b039081166040830152600383015460608301526004830154608083015260059092015491821660a082015260ff600160a01b83048116151560c0830152600160a81b909204909116151560e09091015290505f81516002811115613e6657613e66614281565b03613ed4576006546020820151604051630f5b801560e11b81526001600160a01b0390921691631eb7002a91613ea29160040190815260200190565b5f604051808303815f87803b158015613eb9575f5ffd5b505af1158015613ecb573d5f5f3e3d5ffd5b50505050613fa6565b600181516002811115613ee957613ee9614281565b03613f2757600654604080830151606084015191516340c10f1960e01b81526001600160a01b03909316926340c10f1992613ea292916004016148c5565b600281516002811115613f3c57613f3c614281565b03613fa6576006546080820151604051630852cd8d60e31b81526001600160a01b03909216916342966c6891613f789160040190815260200190565b5f604051808303815f87803b158015613f8f575f5ffd5b505af1158015613fa1573d5f5f3e3d5ffd5b505050505b5f828152601160205260408120805460ff19168155600181018290556002810180546001600160a01b0319169055600381018290556004810182905560050180546001600160b01b03191690555b601354811015613da257826013828154811061401257614012614746565b905f5260205f2001540361407857601380546140309060019061476e565b8154811061404057614040614746565b905f5260205f2001546013828154811061405c5761405c614746565b5f9182526020909120015560138054806110665761106661479a565b600101613ff4565b5f5460ff16610c945760405162461bcd60e51b815260206004820152601460248201527314185d5cd8589b194e881b9bdd081c185d5cd95960621b6044820152606401610c72565b6040805160c0810182525f80825260208201819052918101829052606081018290529060808201905b81526020015f81525090565b6040805160c0810182525f80825260208201819052918101829052606081018290529060808201906140f1565b5f6020828403121561413a575f5ffd5b5035919050565b6001600160a01b0391909116815260200190565b6001600160a01b0381168114610eb4575f5ffd5b8015158114610eb4575f5ffd5b5f5f60408385031215614187575f5ffd5b823561419281614155565b915060208301356141a281614169565b809150509250929050565b5f5f604083850312156141be575f5ffd5b82356141c981614155565b946020939093013593505050565b5f5f5f5f5f5f60c087890312156141ec575f5ffd5b86356141f781614155565b9550602087013561420781614155565b9450604087013561421781614155565b9350606087013561422781614155565b9250608087013561423781614155565b915060a087013561424781614155565b809150509295509295509295565b5f5f60408385031215614266575f5ffd5b823561427181614155565b915060208301356141a281614155565b634e487b7160e01b5f52602160045260245ffd5b60038110610eb457610eb4614281565b600181106142b5576142b5614281565b9052565b5f8151808452602084019350602083015f5b828110156143355781518051151587526020810151151560208801526040810151604088015260018060a01b036060820151166060880152608081015161431560808901826142a5565b5060a0908101519087015260c090950194602091909101906001016142cb565b5093949350505050565b604080825283519082018190525f9060208501906060840190835b818110156143c5578351805115158452602080820151151590850152604080820151908501526060808201516001600160a01b03169085015260808101516143a181614295565b608085015260a090810151908401526020939093019260c09092019160010161435a565b505083810360208501526143d981866142b9565b9695505050505050565b5f8151808452602084019350602083015f5b828110156143355781518652602095860195909101906001016143f5565b602081525f61442560208301846143e3565b9392505050565b5f6020828403121561443c575f5ffd5b813561442581614155565b61010081016144558a614295565b98815260208101979097526001600160a01b0395861660408801526060870194909452608086019290925290921660a084015290151560c0830152151560e09091015290565b86151581528515156020820152604081018590526001600160a01b038416606082015260c081016144cf60808301856142a5565b8260a0830152979650505050505050565b86151581528515156020820152604081018590526001600160a01b038416606082015260c0810161451084614295565b608082019390935260a00152949350505050565b604081525f61453660408301856143e3565b82810360208401528084518083526020830191506020860192505f5b8181101561459657835180516001600160a01b0316845260208082015115158186015260409182015115159185019190915290930192606090920191600101614552565b50909695505050505050565b81516101008201906145b381614295565b808352506020830151602083015260018060a01b036040840151166040830152606083015160608301526080830151608083015260018060a01b0360a08401511660a083015260c0830151151560c083015260e083015161461860e084018215159052565b5092915050565b5f5f5f5f5f60a08688031215614633575f5ffd5b853561463e81614155565b9450602086013561464e81614155565b9350604086013561465e81614155565b9250606086013561466e81614155565b9150608086013561467e81614155565b809150509295509295909350565b604081525f61469e60408301856143e3565b82810360208401528084518083526020830191506020860192505f5b8181101561459657835180518452602081015115156020850152604081015115156040850152506060830192506020840193506001810190506146ba565b6020808252600c908201526b2737ba1030b71037bbb732b960a11b604082015260600190565b6020808252600e908201526d139bdd08185d5d1a1bdc9a5e995960921b604082015260600190565b634e487b7160e01b5f52603260045260245ffd5b634e487b7160e01b5f52601160045260245ffd5b818103818111156147815761478161475a565b92915050565b808201808211156147815761478161475a565b634e487b7160e01b5f52603160045260245ffd5b5f600182016147bf576147bf61475a565b5060010190565b60208082526010908201526f125b9d985b1a59081bdc99195c88125160821b604082015260600190565b634e487b7160e01b5f52604160045260245ffd5b6020808252601590820152741058dd1a5bdb88191bd95cc81b9bdd08195e1a5cdd605a1b604082015260600190565b60208082526026908201527f416374696f6e20616c726561647920636f6e6669726d656420627920746869736040820152651037bbb732b960d11b606082015260800190565b6020808252601b908201527a109bdd1a0818dbdb999a5c9b585d1a5bdb9cc81c995c5d5a5c9959602a1b604082015260600190565b5f602082840312156148be575f5ffd5b5051919050565b6001600160a01b03929092168252602082015260400190565b5f602082840312156148ee575f5ffd5b81516144258161416956fea2646970667358221220823bac8c8980d3c306bfc91648ddf462141d1608dada5bd2be6cff1fa2da55bd64736f6c634300081e0033",
			"opcodes": "PUSH1 0x80 PUSH1 0x40 MSTORE PUSH0 PUSH1 0xB SSTORE CALLVALUE DUP1 ISZERO PUSH1 0x12 JUMPI PUSH0 PUSH0 REVERT JUMPDEST POP PUSH0 DUP1 SLOAD PUSH1 0xFF NOT SWAP1 DUP2 AND DUP3 SSTORE PUSH1 0x1 DUP1 DUP1 SSTORE CALLER DUP4 MSTORE PUSH1 0x14 PUSH1 0x20 MSTORE PUSH1 0x40 DUP4 KECCAK256 DUP1 SLOAD SWAP1 SWAP3 AND DUP2 OR SWAP1 SWAP2 SSTORE PUSH1 0x13 DUP1 SLOAD SWAP2 DUP3 ADD DUP2 SSTORE SWAP1 SWAP2 MSTORE PUSH0 NOT PUSH32 0x66DE8FFDA797E3DE9C05E8FC57B3BF0EC28A930D40B0D285D93C06501CF6A090 SWAP1 SWAP2 ADD SSTORE PUSH2 0x492F DUP1 PUSH2 0x79 PUSH0 CODECOPY PUSH0 RETURN INVALID PUSH1 0x80 PUSH1 0x40 MSTORE PUSH1 0x4 CALLDATASIZE LT PUSH2 0x2D6 JUMPI PUSH0 CALLDATALOAD PUSH1 0xE0 SHR DUP1 PUSH4 0x83240F83 GT PUSH2 0x17B JUMPI DUP1 PUSH4 0xCEA7FC3D GT PUSH2 0xD1 JUMPI DUP1 PUSH4 0xCEA7FC3D EQ PUSH2 0xA25 JUMPI DUP1 PUSH4 0xD2873510 EQ PUSH2 0xA44 JUMPI DUP1 PUSH4 0xD6F455F4 EQ PUSH2 0xA63 JUMPI DUP1 PUSH4 0xDB5544A6 EQ PUSH2 0xA82 JUMPI DUP1 PUSH4 0xDC7A3EE7 EQ PUSH2 0xAA1 JUMPI DUP1 PUSH4 0xDDE12D1D EQ PUSH2 0xAC0 JUMPI DUP1 PUSH4 0xDF7DFEF7 EQ PUSH2 0xB12 JUMPI DUP1 PUSH4 0xE113B6EC EQ PUSH2 0xB31 JUMPI DUP1 PUSH4 0xE2A8C103 EQ PUSH2 0xB51 JUMPI DUP1 PUSH4 0xE9CE848D EQ PUSH2 0xB66 JUMPI DUP1 PUSH4 0xEBF968A3 EQ PUSH2 0xB85 JUMPI DUP1 PUSH4 0xF05D5752 EQ PUSH2 0xBA5 JUMPI DUP1 PUSH4 0xF19E207E EQ PUSH2 0xBC4 JUMPI DUP1 PUSH4 0xF7F6C19F EQ PUSH2 0xBF2 JUMPI DUP1 PUSH4 0xFBA6CF7B EQ PUSH2 0xC14 JUMPI PUSH2 0x2D6 JUMP JUMPDEST DUP1 PUSH4 0x83240F83 EQ PUSH2 0x73D JUMPI DUP1 PUSH4 0x8704B10D EQ PUSH2 0x7C3 JUMPI DUP1 PUSH4 0x87AD8F87 EQ PUSH2 0x7E2 JUMPI DUP1 PUSH4 0x8DE91B24 EQ PUSH2 0x801 JUMPI DUP1 PUSH4 0x927E9742 EQ PUSH2 0x875 JUMPI DUP1 PUSH4 0x92F8EB94 EQ PUSH2 0x8E9 JUMPI DUP1 PUSH4 0x99762734 EQ PUSH2 0x908 JUMPI DUP1 PUSH4 0x9A2122F9 EQ PUSH2 0x927 JUMPI DUP1 PUSH4 0xA404C1C5 EQ PUSH2 0x949 JUMPI DUP1 PUSH4 0xA4EAA164 EQ PUSH2 0x968 JUMPI DUP1 PUSH4 0xA63D914F EQ PUSH2 0x987 JUMPI DUP1 PUSH4 0xA8143F85 EQ PUSH2 0x9A6 JUMPI DUP1 PUSH4 0xB94DB859 EQ PUSH2 0x9BB JUMPI DUP1 PUSH4 0xC5026555 EQ PUSH2 0x9DA JUMPI DUP1 PUSH4 0xCB7C6DA6 EQ PUSH2 0x9F9 JUMPI PUSH2 0x2D6 JUMP JUMPDEST DUP1 PUSH4 0x46ABE73A GT PUSH2 0x230 JUMPI DUP1 PUSH4 0x46ABE73A EQ PUSH2 0x547 JUMPI DUP1 PUSH4 0x48405B49 EQ PUSH2 0x55C JUMPI DUP1 PUSH4 0x49955603 EQ PUSH2 0x57B JUMPI DUP1 PUSH4 0x49D601A5 EQ PUSH2 0x5D6 JUMPI DUP1 PUSH4 0x52709725 EQ PUSH2 0x5F8 JUMPI DUP1 PUSH4 0x57B00948 EQ PUSH2 0x617 JUMPI DUP1 PUSH4 0x58F82236 EQ PUSH2 0x636 JUMPI DUP1 PUSH4 0x5B58FF1D EQ PUSH2 0x64B JUMPI DUP1 PUSH4 0x5C975ABB EQ PUSH2 0x66C JUMPI DUP1 PUSH4 0x63A599A4 EQ PUSH2 0x68E JUMPI DUP1 PUSH4 0x73688914 EQ PUSH2 0x6A2 JUMPI DUP1 PUSH4 0x764327A6 EQ PUSH2 0x6C1 JUMPI DUP1 PUSH4 0x764DC2F1 EQ PUSH2 0x6E0 JUMPI DUP1 PUSH4 0x7B7F1C82 EQ PUSH2 0x6FF JUMPI DUP1 PUSH4 0x7E0B989A EQ PUSH2 0x71E JUMPI PUSH2 0x2D6 JUMP JUMPDEST DUP1 PUSH4 0x46F7DA2 EQ PUSH2 0x30D JUMPI DUP1 PUSH4 0x843E3B0 EQ PUSH2 0x323 JUMPI DUP1 PUSH4 0xC101596 EQ PUSH2 0x399 JUMPI DUP1 PUSH4 0xCF71579 EQ PUSH2 0x3C5 JUMPI DUP1 PUSH4 0xD83DC18 EQ PUSH2 0x3E4 JUMPI DUP1 PUSH4 0x1351CF51 EQ PUSH2 0x411 JUMPI DUP1 PUSH4 0x150A3587 EQ PUSH2 0x430 JUMPI DUP1 PUSH4 0x153F0C6F EQ PUSH2 0x44F JUMPI DUP1 PUSH4 0x15D4C5D5 EQ PUSH2 0x46E JUMPI DUP1 PUSH4 0x1B8E2ED9 EQ PUSH2 0x48D JUMPI DUP1 PUSH4 0x1D2E4A2F EQ PUSH2 0x4AC JUMPI DUP1 PUSH4 0x2463A55A EQ PUSH2 0x4CB JUMPI DUP1 PUSH4 0x262B7821 EQ PUSH2 0x4EA JUMPI DUP1 PUSH4 0x29878BC4 EQ PUSH2 0x509 JUMPI DUP1 PUSH4 0x2C48E7DB EQ PUSH2 0x528 JUMPI JUMPDEST PUSH1 0x40 MLOAD CALLVALUE DUP2 MSTORE CALLER SWAP1 PUSH32 0x1E57E3BB474320BE3D2C77138F75B7C3941292D647F5F9634E33A8E94E0E069B SWAP1 PUSH1 0x20 ADD PUSH1 0x40 MLOAD DUP1 SWAP2 SUB SWAP1 LOG2 STOP JUMPDEST CALLVALUE DUP1 ISZERO PUSH2 0x318 JUMPI PUSH0 PUSH0 REVERT JUMPDEST POP PUSH2 0x321 PUSH2 0xC33 JUMP JUMPDEST STOP JUMPDEST CALLVALUE DUP1 ISZERO PUSH2 0x32E JUMPI PUSH0 PUSH0 REVERT JUMPDEST POP PUSH2 0x36D PUSH2 0x33D CALLDATASIZE PUSH1 0x4 PUSH2 0x412A JUMP JUMPDEST PUSH1 0x17 PUSH1 0x20 MSTORE PUSH0 SWAP1 DUP2 MSTORE PUSH1 0x40 SWAP1 KECCAK256 SLOAD PUSH1 0x1 PUSH1 0x1 PUSH1 0xA0 SHL SUB DUP2 AND SWAP1 PUSH1 0xFF PUSH1 0x1 PUSH1 0xA0 SHL DUP3 DIV DUP2 AND SWAP2 PUSH1 0x1 PUSH1 0xA8 SHL SWAP1 DIV AND DUP4 JUMP JUMPDEST PUSH1 0x40 DUP1 MLOAD PUSH1 0x1 PUSH1 0x1 PUSH1 0xA0 SHL SUB SWAP1 SWAP5 AND DUP5 MSTORE SWAP2 ISZERO ISZERO PUSH1 0x20 DUP5 ADD MSTORE ISZERO ISZERO SWAP1 DUP3 ADD MSTORE PUSH1 0x60 ADD JUMPDEST PUSH1 0x40 MLOAD DUP1 SWAP2 SUB SWAP1 RETURN JUMPDEST CALLVALUE DUP1 ISZERO PUSH2 0x3A4 JUMPI PUSH0 PUSH0 REVERT JUMPDEST POP PUSH1 0x6 SLOAD PUSH2 0x3B8 SWAP1 PUSH1 0x1 PUSH1 0x1 PUSH1 0xA0 SHL SUB AND DUP2 JUMP JUMPDEST PUSH1 0x40 MLOAD PUSH2 0x390 SWAP2 SWAP1 PUSH2 0x4141 JUMP JUMPDEST CALLVALUE DUP1 ISZERO PUSH2 0x3D0 JUMPI PUSH0 PUSH0 REVERT JUMPDEST POP PUSH1 0xC SLOAD PUSH2 0x3B8 SWAP1 PUSH1 0x1 PUSH1 0x1 PUSH1 0xA0 SHL SUB AND DUP2 JUMP JUMPDEST CALLVALUE DUP1 ISZERO PUSH2 0x3EF JUMPI PUSH0 PUSH0 REVERT JUMPDEST POP PUSH2 0x403 PUSH2 0x3FE CALLDATASIZE PUSH1 0x4 PUSH2 0x412A JUMP JUMPDEST PUSH2 0xC96 JUMP JUMPDEST PUSH1 0x40 MLOAD SWAP1 DUP2 MSTORE PUSH1 0x20 ADD PUSH2 0x390 JUMP JUMPDEST CALLVALUE DUP1 ISZERO PUSH2 0x41C JUMPI PUSH0 PUSH0 REVERT JUMPDEST POP PUSH2 0x321 PUSH2 0x42B CALLDATASIZE PUSH1 0x4 PUSH2 0x4176 JUMP JUMPDEST PUSH2 0xCB5 JUMP JUMPDEST CALLVALUE DUP1 ISZERO PUSH2 0x43B JUMPI PUSH0 PUSH0 REVERT JUMPDEST POP PUSH2 0x321 PUSH2 0x44A CALLDATASIZE PUSH1 0x4 PUSH2 0x412A JUMP JUMPDEST PUSH2 0xD22 JUMP JUMPDEST CALLVALUE DUP1 ISZERO PUSH2 0x45A JUMPI PUSH0 PUSH0 REVERT JUMPDEST POP PUSH2 0x321 PUSH2 0x469 CALLDATASIZE PUSH1 0x4 PUSH2 0x412A JUMP JUMPDEST PUSH2 0xEB7 JUMP JUMPDEST CALLVALUE DUP1 ISZERO PUSH2 0x479 JUMPI PUSH0 PUSH0 REVERT JUMPDEST POP PUSH2 0x321 PUSH2 0x488 CALLDATASIZE PUSH1 0x4 PUSH2 0x41AD JUMP JUMPDEST PUSH2 0x107E JUMP JUMPDEST CALLVALUE DUP1 ISZERO PUSH2 0x498 JUMPI PUSH0 PUSH0 REVERT JUMPDEST POP PUSH1 0x7 SLOAD PUSH2 0x3B8 SWAP1 PUSH1 0x1 PUSH1 0x1 PUSH1 0xA0 SHL SUB AND DUP2 JUMP JUMPDEST CALLVALUE DUP1 ISZERO PUSH2 0x4B7 JUMPI PUSH0 PUSH0 REVERT JUMPDEST POP PUSH1 0xD SLOAD PUSH2 0x3B8 SWAP1 PUSH1 0x1 PUSH1 0x1 PUSH1 0xA0 SHL SUB AND DUP2 JUMP JUMPDEST CALLVALUE DUP1 ISZERO PUSH2 0x4D6 JUMPI PUSH0 PUSH0 REVERT JUMPDEST POP PUSH2 0x321 PUSH2 0x4E5 CALLDATASIZE PUSH1 0x4 PUSH2 0x41D7 JUMP JUMPDEST PUSH2 0x11FD JUMP JUMPDEST CALLVALUE DUP1 ISZERO PUSH2 0x4F5 JUMPI PUSH0 PUSH0 REVERT JUMPDEST POP PUSH2 0x321 PUSH2 0x504 CALLDATASIZE PUSH1 0x4 PUSH2 0x41AD JUMP JUMPDEST PUSH2 0x12B3 JUMP JUMPDEST CALLVALUE DUP1 ISZERO PUSH2 0x514 JUMPI PUSH0 PUSH0 REVERT JUMPDEST POP PUSH1 0xA SLOAD PUSH2 0x3B8 SWAP1 PUSH1 0x1 PUSH1 0x1 PUSH1 0xA0 SHL SUB AND DUP2 JUMP JUMPDEST CALLVALUE DUP1 ISZERO PUSH2 0x533 JUMPI PUSH0 PUSH0 REVERT JUMPDEST POP PUSH2 0x321 PUSH2 0x542 CALLDATASIZE PUSH1 0x4 PUSH2 0x412A JUMP JUMPDEST PUSH2 0x141E JUMP JUMPDEST CALLVALUE DUP1 ISZERO PUSH2 0x552 JUMPI PUSH0 PUSH0 REVERT JUMPDEST POP PUSH2 0x403 PUSH1 0x12 SLOAD DUP2 JUMP JUMPDEST CALLVALUE DUP1 ISZERO PUSH2 0x567 JUMPI PUSH0 PUSH0 REVERT JUMPDEST POP PUSH2 0x321 PUSH2 0x576 CALLDATASIZE PUSH1 0x4 PUSH2 0x4255 JUMP JUMPDEST PUSH2 0x156C JUMP JUMPDEST CALLVALUE DUP1 ISZERO PUSH2 0x586 JUMPI PUSH0 PUSH0 REVERT JUMPDEST POP PUSH2 0x5B9 PUSH2 0x595 CALLDATASIZE PUSH1 0x4 PUSH2 0x412A JUMP JUMPDEST PUSH1 0x1C PUSH1 0x20 MSTORE PUSH0 SWAP1 DUP2 MSTORE PUSH1 0x40 SWAP1 KECCAK256 DUP1 SLOAD PUSH1 0x1 SWAP1 SWAP2 ADD SLOAD PUSH1 0xFF DUP1 DUP3 AND SWAP2 PUSH2 0x100 SWAP1 DIV AND DUP4 JUMP JUMPDEST PUSH1 0x40 DUP1 MLOAD SWAP4 DUP5 MSTORE SWAP2 ISZERO ISZERO PUSH1 0x20 DUP5 ADD MSTORE ISZERO ISZERO SWAP1 DUP3 ADD MSTORE PUSH1 0x60 ADD PUSH2 0x390 JUMP JUMPDEST CALLVALUE DUP1 ISZERO PUSH2 0x5E1 JUMPI PUSH0 PUSH0 REVERT JUMPDEST POP PUSH2 0x5EA PUSH2 0x15E3 JUMP JUMPDEST PUSH1 0x40 MLOAD PUSH2 0x390 SWAP3 SWAP2 SWAP1 PUSH2 0x433F JUMP JUMPDEST CALLVALUE DUP1 ISZERO PUSH2 0x603 JUMPI PUSH0 PUSH0 REVERT JUMPDEST POP PUSH1 0x3 SLOAD PUSH2 0x3B8 SWAP1 PUSH1 0x1 PUSH1 0x1 PUSH1 0xA0 SHL SUB AND DUP2 JUMP JUMPDEST CALLVALUE DUP1 ISZERO PUSH2 0x622 JUMPI PUSH0 PUSH0 REVERT JUMPDEST POP PUSH2 0x321 PUSH2 0x631 CALLDATASIZE PUSH1 0x4 PUSH2 0x41AD JUMP JUMPDEST PUSH2 0x1910 JUMP JUMPDEST CALLVALUE DUP1 ISZERO PUSH2 0x641 JUMPI PUSH0 PUSH0 REVERT JUMPDEST POP PUSH2 0x403 PUSH1 0x1A SLOAD DUP2 JUMP JUMPDEST CALLVALUE DUP1 ISZERO PUSH2 0x656 JUMPI PUSH0 PUSH0 REVERT JUMPDEST POP PUSH2 0x65F PUSH2 0x1995 JUMP JUMPDEST PUSH1 0x40 MLOAD PUSH2 0x390 SWAP2 SWAP1 PUSH2 0x4413 JUMP JUMPDEST CALLVALUE DUP1 ISZERO PUSH2 0x677 JUMPI PUSH0 PUSH0 REVERT JUMPDEST POP PUSH0 SLOAD PUSH1 0xFF AND JUMPDEST PUSH1 0x40 MLOAD SWAP1 ISZERO ISZERO DUP2 MSTORE PUSH1 0x20 ADD PUSH2 0x390 JUMP JUMPDEST CALLVALUE DUP1 ISZERO PUSH2 0x699 JUMPI PUSH0 PUSH0 REVERT JUMPDEST POP PUSH2 0x321 PUSH2 0x1AD2 JUMP JUMPDEST CALLVALUE DUP1 ISZERO PUSH2 0x6AD JUMPI PUSH0 PUSH0 REVERT JUMPDEST POP PUSH1 0x2 SLOAD PUSH2 0x3B8 SWAP1 PUSH1 0x1 PUSH1 0x1 PUSH1 0xA0 SHL SUB AND DUP2 JUMP JUMPDEST CALLVALUE DUP1 ISZERO PUSH2 0x6CC JUMPI PUSH0 PUSH0 REVERT JUMPDEST POP PUSH2 0x321 PUSH2 0x6DB CALLDATASIZE PUSH1 0x4 PUSH2 0x442C JUMP JUMPDEST PUSH2 0x1B29 JUMP JUMPDEST CALLVALUE DUP1 ISZERO PUSH2 0x6EB JUMPI PUSH0 PUSH0 REVERT JUMPDEST POP PUSH2 0x321 PUSH2 0x6FA CALLDATASIZE PUSH1 0x4 PUSH2 0x412A JUMP JUMPDEST PUSH2 0x1C31 JUMP JUMPDEST CALLVALUE DUP1 ISZERO PUSH2 0x70A JUMPI PUSH0 PUSH0 REVERT JUMPDEST POP PUSH1 0x9 SLOAD PUSH2 0x3B8 SWAP1 PUSH1 0x1 PUSH1 0x1 PUSH1 0xA0 SHL SUB AND DUP2 JUMP JUMPDEST CALLVALUE DUP1 ISZERO PUSH2 0x729 JUMPI PUSH0 PUSH0 REVERT JUMPDEST POP PUSH2 0x321 PUSH2 0x738 CALLDATASIZE PUSH1 0x4 PUSH2 0x412A JUMP JUMPDEST PUSH2 0x1DA5 JUMP JUMPDEST CALLVALUE DUP1 ISZERO PUSH2 0x748 JUMPI PUSH0 PUSH0 REVERT JUMPDEST POP PUSH2 0x7AF PUSH2 0x757 CALLDATASIZE PUSH1 0x4 PUSH2 0x412A JUMP JUMPDEST PUSH1 0x11 PUSH1 0x20 MSTORE PUSH0 SWAP1 DUP2 MSTORE PUSH1 0x40 SWAP1 KECCAK256 DUP1 SLOAD PUSH1 0x1 DUP3 ADD SLOAD PUSH1 0x2 DUP4 ADD SLOAD PUSH1 0x3 DUP5 ADD SLOAD PUSH1 0x4 DUP6 ADD SLOAD PUSH1 0x5 SWAP1 SWAP6 ADD SLOAD PUSH1 0xFF SWAP5 DUP6 AND SWAP6 SWAP4 SWAP5 PUSH1 0x1 PUSH1 0x1 PUSH1 0xA0 SHL SUB SWAP4 DUP5 AND SWAP5 SWAP3 SWAP4 DUP3 AND SWAP2 PUSH1 0x1 PUSH1 0xA0 SHL DUP2 DIV DUP3 AND SWAP2 PUSH1 0x1 PUSH1 0xA8 SHL SWAP1 SWAP2 DIV AND DUP9 JUMP JUMPDEST PUSH1 0x40 MLOAD PUSH2 0x390 SWAP9 SWAP8 SWAP7 SWAP6 SWAP5 SWAP4 SWAP3 SWAP2 SWAP1 PUSH2 0x4447 JUMP JUMPDEST CALLVALUE DUP1 ISZERO PUSH2 0x7CE JUMPI PUSH0 PUSH0 REVERT JUMPDEST POP PUSH2 0x321 PUSH2 0x7DD CALLDATASIZE PUSH1 0x4 PUSH2 0x41AD JUMP JUMPDEST PUSH2 0x1EF4 JUMP JUMPDEST CALLVALUE DUP1 ISZERO PUSH2 0x7ED JUMPI PUSH0 PUSH0 REVERT JUMPDEST POP PUSH1 0x8 SLOAD PUSH2 0x3B8 SWAP1 PUSH1 0x1 PUSH1 0x1 PUSH1 0xA0 SHL SUB AND DUP2 JUMP JUMPDEST CALLVALUE DUP1 ISZERO PUSH2 0x80C JUMPI PUSH0 PUSH0 REVERT JUMPDEST POP PUSH2 0x863 PUSH2 0x81B CALLDATASIZE PUSH1 0x4 PUSH2 0x412A JUMP JUMPDEST PUSH1 0x19 PUSH1 0x20 MSTORE PUSH0 SWAP1 DUP2 MSTORE PUSH1 0x40 SWAP1 KECCAK256 DUP1 SLOAD PUSH1 0x1 DUP3 ADD SLOAD PUSH1 0x2 DUP4 ADD SLOAD PUSH1 0x3 SWAP1 SWAP4 ADD SLOAD PUSH1 0xFF DUP1 DUP5 AND SWAP5 PUSH2 0x100 SWAP1 SWAP5 DIV DUP2 AND SWAP4 PUSH1 0x1 PUSH1 0x1 PUSH1 0xA0 SHL SUB DUP2 AND SWAP3 PUSH1 0x1 PUSH1 0xA0 SHL SWAP1 SWAP2 DIV SWAP1 SWAP2 AND SWAP1 DUP7 JUMP JUMPDEST PUSH1 0x40 MLOAD PUSH2 0x390 SWAP7 SWAP6 SWAP5 SWAP4 SWAP3 SWAP2 SWAP1 PUSH2 0x449B JUMP JUMPDEST CALLVALUE DUP1 ISZERO PUSH2 0x880 JUMPI PUSH0 PUSH0 REVERT JUMPDEST POP PUSH2 0x8D7 PUSH2 0x88F CALLDATASIZE PUSH1 0x4 PUSH2 0x412A JUMP JUMPDEST PUSH1 0x18 PUSH1 0x20 MSTORE PUSH0 SWAP1 DUP2 MSTORE PUSH1 0x40 SWAP1 KECCAK256 DUP1 SLOAD PUSH1 0x1 DUP3 ADD SLOAD PUSH1 0x2 DUP4 ADD SLOAD PUSH1 0x3 SWAP1 SWAP4 ADD SLOAD PUSH1 0xFF DUP1 DUP5 AND SWAP5 PUSH2 0x100 SWAP1 SWAP5 DIV DUP2 AND SWAP4 PUSH1 0x1 PUSH1 0x1 PUSH1 0xA0 SHL SUB DUP2 AND SWAP3 PUSH1 0x1 PUSH1 0xA0 SHL SWAP1 SWAP2 DIV SWAP1 SWAP2 AND SWAP1 DUP7 JUMP JUMPDEST PUSH1 0x40 MLOAD PUSH2 0x390 SWAP7 SWAP6 SWAP5 SWAP4 SWAP3 SWAP2 SWAP1 PUSH2 0x44E0 JUMP JUMPDEST CALLVALUE DUP1 ISZERO PUSH2 0x8F4 JUMPI PUSH0 PUSH0 REVERT JUMPDEST POP PUSH2 0x403 PUSH2 0x903 CALLDATASIZE PUSH1 0x4 PUSH2 0x412A JUMP JUMPDEST PUSH2 0x1F7B JUMP JUMPDEST CALLVALUE DUP1 ISZERO PUSH2 0x913 JUMPI PUSH0 PUSH0 REVERT JUMPDEST POP PUSH1 0x4 SLOAD PUSH2 0x3B8 SWAP1 PUSH1 0x1 PUSH1 0x1 PUSH1 0xA0 SHL SUB AND DUP2 JUMP JUMPDEST CALLVALUE DUP1 ISZERO PUSH2 0x932 JUMPI PUSH0 PUSH0 REVERT JUMPDEST POP PUSH2 0x93B PUSH2 0x1F8A JUMP JUMPDEST PUSH1 0x40 MLOAD PUSH2 0x390 SWAP3 SWAP2 SWAP1 PUSH2 0x4524 JUMP JUMPDEST CALLVALUE DUP1 ISZERO PUSH2 0x954 JUMPI PUSH0 PUSH0 REVERT JUMPDEST POP PUSH2 0x321 PUSH2 0x963 CALLDATASIZE PUSH1 0x4 PUSH2 0x41AD JUMP JUMPDEST PUSH2 0x21CA JUMP JUMPDEST CALLVALUE DUP1 ISZERO PUSH2 0x973 JUMPI PUSH0 PUSH0 REVERT JUMPDEST POP PUSH2 0x321 PUSH2 0x982 CALLDATASIZE PUSH1 0x4 PUSH2 0x412A JUMP JUMPDEST PUSH2 0x22D1 JUMP JUMPDEST CALLVALUE DUP1 ISZERO PUSH2 0x992 JUMPI PUSH0 PUSH0 REVERT JUMPDEST POP PUSH2 0x321 PUSH2 0x9A1 CALLDATASIZE PUSH1 0x4 PUSH2 0x412A JUMP JUMPDEST PUSH2 0x244E JUMP JUMPDEST CALLVALUE DUP1 ISZERO PUSH2 0x9B1 JUMPI PUSH0 PUSH0 REVERT JUMPDEST POP PUSH2 0x403 PUSH1 0xB SLOAD DUP2 JUMP JUMPDEST CALLVALUE DUP1 ISZERO PUSH2 0x9C6 JUMPI PUSH0 PUSH0 REVERT JUMPDEST POP PUSH2 0x403 PUSH2 0x9D5 CALLDATASIZE PUSH1 0x4 PUSH2 0x412A JUMP JUMPDEST PUSH2 0x26DF JUMP JUMPDEST CALLVALUE DUP1 ISZERO PUSH2 0x9E5 JUMPI PUSH0 PUSH0 REVERT JUMPDEST POP PUSH1 0xF SLOAD PUSH2 0x3B8 SWAP1 PUSH1 0x1 PUSH1 0x1 PUSH1 0xA0 SHL SUB AND DUP2 JUMP JUMPDEST CALLVALUE DUP1 ISZERO PUSH2 0xA04 JUMPI PUSH0 PUSH0 REVERT JUMPDEST POP PUSH2 0xA18 PUSH2 0xA13 CALLDATASIZE PUSH1 0x4 PUSH2 0x412A JUMP JUMPDEST PUSH2 0x26EE JUMP JUMPDEST PUSH1 0x40 MLOAD PUSH2 0x390 SWAP2 SWAP1 PUSH2 0x45A2 JUMP JUMPDEST CALLVALUE DUP1 ISZERO PUSH2 0xA30 JUMPI PUSH0 PUSH0 REVERT JUMPDEST POP PUSH2 0x321 PUSH2 0xA3F CALLDATASIZE PUSH1 0x4 PUSH2 0x412A JUMP JUMPDEST PUSH2 0x2879 JUMP JUMPDEST CALLVALUE DUP1 ISZERO PUSH2 0xA4F JUMPI PUSH0 PUSH0 REVERT JUMPDEST POP PUSH1 0x5 SLOAD PUSH2 0x3B8 SWAP1 PUSH1 0x1 PUSH1 0x1 PUSH1 0xA0 SHL SUB AND DUP2 JUMP JUMPDEST CALLVALUE DUP1 ISZERO PUSH2 0xA6E JUMPI PUSH0 PUSH0 REVERT JUMPDEST POP PUSH2 0x321 PUSH2 0xA7D CALLDATASIZE PUSH1 0x4 PUSH2 0x461F JUMP JUMPDEST PUSH2 0x2A2E JUMP JUMPDEST CALLVALUE DUP1 ISZERO PUSH2 0xA8D JUMPI PUSH0 PUSH0 REVERT JUMPDEST POP PUSH1 0xE SLOAD PUSH2 0x3B8 SWAP1 PUSH1 0x1 PUSH1 0x1 PUSH1 0xA0 SHL SUB AND DUP2 JUMP JUMPDEST CALLVALUE DUP1 ISZERO PUSH2 0xAAC JUMPI PUSH0 PUSH0 REVERT JUMPDEST POP PUSH2 0x321 PUSH2 0xABB CALLDATASIZE PUSH1 0x4 PUSH2 0x412A JUMP JUMPDEST PUSH2 0x2ACD JUMP JUMPDEST CALLVALUE DUP1 ISZERO PUSH2 0xACB JUMPI PUSH0 PUSH0 REVERT JUMPDEST POP PUSH2 0xADF PUSH2 0xADA CALLDATASIZE PUSH1 0x4 PUSH2 0x412A JUMP JUMPDEST PUSH2 0x2B9E JUMP JUMPDEST PUSH1 0x40 DUP1 MLOAD SWAP6 ISZERO ISZERO DUP7 MSTORE SWAP4 ISZERO ISZERO PUSH1 0x20 DUP7 ADD MSTORE SWAP3 DUP5 ADD SWAP2 SWAP1 SWAP2 MSTORE PUSH1 0x1 PUSH1 0x1 PUSH1 0xA0 SHL SUB AND PUSH1 0x60 DUP4 ADD MSTORE PUSH1 0x80 DUP3 ADD MSTORE PUSH1 0xA0 ADD PUSH2 0x390 JUMP JUMPDEST CALLVALUE DUP1 ISZERO PUSH2 0xB1D JUMPI PUSH0 PUSH0 REVERT JUMPDEST POP PUSH2 0x321 PUSH2 0xB2C CALLDATASIZE PUSH1 0x4 PUSH2 0x412A JUMP JUMPDEST PUSH2 0x2D77 JUMP JUMPDEST CALLVALUE DUP1 ISZERO PUSH2 0xB3C JUMPI PUSH0 PUSH0 REVERT JUMPDEST POP PUSH1 0x3 SLOAD PUSH2 0x67E SWAP1 PUSH1 0x1 PUSH1 0xA8 SHL SWAP1 DIV PUSH1 0xFF AND DUP2 JUMP JUMPDEST CALLVALUE DUP1 ISZERO PUSH2 0xB5C JUMPI PUSH0 PUSH0 REVERT JUMPDEST POP PUSH2 0x403 PUSH1 0x15 SLOAD DUP2 JUMP JUMPDEST CALLVALUE DUP1 ISZERO PUSH2 0xB71 JUMPI PUSH0 PUSH0 REVERT JUMPDEST POP PUSH1 0x10 SLOAD PUSH2 0x3B8 SWAP1 PUSH1 0x1 PUSH1 0x1 PUSH1 0xA0 SHL SUB AND DUP2 JUMP JUMPDEST CALLVALUE DUP1 ISZERO PUSH2 0xB90 JUMPI PUSH0 PUSH0 REVERT JUMPDEST POP PUSH1 0x3 SLOAD PUSH2 0x67E SWAP1 PUSH1 0x1 PUSH1 0xA0 SHL SWAP1 DIV PUSH1 0xFF AND DUP2 JUMP JUMPDEST CALLVALUE DUP1 ISZERO PUSH2 0xBB0 JUMPI PUSH0 PUSH0 REVERT JUMPDEST POP PUSH2 0x321 PUSH2 0xBBF CALLDATASIZE PUSH1 0x4 PUSH2 0x412A JUMP JUMPDEST PUSH2 0x2F5B JUMP JUMPDEST CALLVALUE DUP1 ISZERO PUSH2 0xBCF JUMPI PUSH0 PUSH0 REVERT JUMPDEST POP PUSH2 0x67E PUSH2 0xBDE CALLDATASIZE PUSH1 0x4 PUSH2 0x442C JUMP JUMPDEST PUSH1 0x14 PUSH1 0x20 MSTORE PUSH0 SWAP1 DUP2 MSTORE PUSH1 0x40 SWAP1 KECCAK256 SLOAD PUSH1 0xFF AND DUP2 JUMP JUMPDEST CALLVALUE DUP1 ISZERO PUSH2 0xBFD JUMPI PUSH0 PUSH0 REVERT JUMPDEST POP PUSH2 0xC06 PUSH2 0x3651 JUMP JUMPDEST PUSH1 0x40 MLOAD PUSH2 0x390 SWAP3 SWAP2 SWAP1 PUSH2 0x468C JUMP JUMPDEST CALLVALUE DUP1 ISZERO PUSH2 0xC1F JUMPI PUSH0 PUSH0 REVERT JUMPDEST POP PUSH2 0x321 PUSH2 0xC2E CALLDATASIZE PUSH1 0x4 PUSH2 0x412A JUMP JUMPDEST PUSH2 0x386D JUMP JUMPDEST PUSH1 0x2 SLOAD PUSH1 0x1 PUSH1 0x1 PUSH1 0xA0 SHL SUB AND CALLER EQ DUP1 PUSH2 0xC56 JUMPI POP PUSH1 0x3 SLOAD PUSH1 0x1 PUSH1 0x1 PUSH1 0xA0 SHL SUB AND CALLER EQ JUMPDEST PUSH2 0xC7B JUMPI PUSH1 0x40 MLOAD PUSH3 0x461BCD PUSH1 0xE5 SHL DUP2 MSTORE PUSH1 0x4 ADD PUSH2 0xC72 SWAP1 PUSH2 0x46F8 JUMP JUMPDEST PUSH1 0x40 MLOAD DUP1 SWAP2 SUB SWAP1 REVERT JUMPDEST PUSH2 0xC83 PUSH2 0x390A JUMP JUMPDEST PUSH2 0xC8B PUSH2 0x3934 JUMP JUMPDEST PUSH2 0xC94 PUSH1 0x1 DUP1 SSTORE JUMP JUMPDEST JUMP JUMPDEST PUSH1 0x1B DUP2 DUP2 SLOAD DUP2 LT PUSH2 0xCA5 JUMPI PUSH0 DUP1 REVERT JUMPDEST PUSH0 SWAP2 DUP3 MSTORE PUSH1 0x20 SWAP1 SWAP2 KECCAK256 ADD SLOAD SWAP1 POP DUP2 JUMP JUMPDEST CALLER PUSH0 SWAP1 DUP2 MSTORE PUSH1 0x14 PUSH1 0x20 MSTORE PUSH1 0x40 SWAP1 KECCAK256 SLOAD PUSH1 0xFF AND PUSH2 0xCE3 JUMPI PUSH1 0x40 MLOAD PUSH3 0x461BCD PUSH1 0xE5 SHL DUP2 MSTORE PUSH1 0x4 ADD PUSH2 0xC72 SWAP1 PUSH2 0x471E JUMP JUMPDEST PUSH2 0xCEB PUSH2 0x390A JUMP JUMPDEST PUSH2 0xCF3 PUSH2 0x397F JUMP JUMPDEST PUSH1 0x1 PUSH1 0x1 PUSH1 0xA0 SHL SUB DUP3 AND PUSH0 SWAP1 DUP2 MSTORE PUSH1 0x14 PUSH1 0x20 MSTORE PUSH1 0x40 SWAP1 KECCAK256 DUP1 SLOAD PUSH1 0xFF NOT AND DUP3 ISZERO ISZERO OR SWAP1 SSTORE PUSH1 0x1 DUP1 SSTORE POP POP JUMP JUMPDEST POP POP JUMP JUMPDEST PUSH1 0x2 SLOAD PUSH1 0x1 PUSH1 0x1 PUSH1 0xA0 SHL SUB AND CALLER EQ DUP1 PUSH2 0xD45 JUMPI POP PUSH1 0x3 SLOAD PUSH1 0x1 PUSH1 0x1 PUSH1 0xA0 SHL SUB AND CALLER EQ JUMPDEST PUSH2 0xD61 JUMPI PUSH1 0x40 MLOAD PUSH3 0x461BCD PUSH1 0xE5 SHL DUP2 MSTORE PUSH1 0x4 ADD PUSH2 0xC72 SWAP1 PUSH2 0x46F8 JUMP JUMPDEST PUSH2 0xD69 PUSH2 0x390A JUMP JUMPDEST PUSH2 0xD71 PUSH2 0x397F JUMP JUMPDEST PUSH1 0x1A SLOAD DUP2 LT PUSH2 0xDB6 JUMPI PUSH1 0x40 MLOAD PUSH3 0x461BCD PUSH1 0xE5 SHL DUP2 MSTORE PUSH1 0x20 PUSH1 0x4 DUP3 ADD MSTORE PUSH1 0x11 PUSH1 0x24 DUP3 ADD MSTORE PUSH17 0x125B9D985B1A59081858DD1A5BDB881251 PUSH1 0x7A SHL PUSH1 0x44 DUP3 ADD MSTORE PUSH1 0x64 ADD PUSH2 0xC72 JUMP JUMPDEST PUSH0 DUP2 DUP2 MSTORE PUSH1 0x1C PUSH1 0x20 MSTORE PUSH1 0x40 SWAP1 KECCAK256 PUSH1 0x2 SLOAD PUSH1 0x1 PUSH1 0x1 PUSH1 0xA0 SHL SUB AND CALLER SUB PUSH2 0xDEA JUMPI PUSH1 0x1 DUP2 DUP2 ADD DUP1 SLOAD PUSH1 0xFF NOT AND SWAP1 SWAP2 OR SWAP1 SSTORE PUSH2 0xE53 JUMP JUMPDEST PUSH1 0x3 SLOAD PUSH1 0x1 PUSH1 0x1 PUSH1 0xA0 SHL SUB AND CALLER SUB PUSH2 0xE12 JUMPI PUSH1 0x1 DUP2 ADD DUP1 SLOAD PUSH2 0xFF00 NOT AND PUSH2 0x100 OR SWAP1 SSTORE PUSH2 0xE53 JUMP JUMPDEST PUSH1 0x40 MLOAD PUSH3 0x461BCD PUSH1 0xE5 SHL DUP2 MSTORE PUSH1 0x20 PUSH1 0x4 DUP3 ADD MSTORE PUSH1 0x16 PUSH1 0x24 DUP3 ADD MSTORE PUSH22 0x21B0B63632B91034B9903737BA1030B71037BBB732B9 PUSH1 0x51 SHL PUSH1 0x44 DUP3 ADD MSTORE PUSH1 0x64 ADD PUSH2 0xC72 JUMP JUMPDEST PUSH1 0x40 MLOAD CALLER SWAP1 DUP4 SWAP1 PUSH32 0xBEF06C93075545C144D4899D9C17A58A12FC6AEA907CC6ACCFF0FAC848B6226E SWAP1 PUSH0 SWAP1 LOG3 PUSH1 0x1 DUP2 ADD SLOAD PUSH1 0xFF AND DUP1 ISZERO PUSH2 0xE9C JUMPI POP PUSH1 0x1 DUP2 ADD SLOAD PUSH2 0x100 SWAP1 DIV PUSH1 0xFF AND JUMPDEST ISZERO PUSH2 0xEAA JUMPI PUSH2 0xEAA DUP3 PUSH2 0x39C4 JUMP JUMPDEST POP PUSH2 0xEB4 PUSH1 0x1 DUP1 SSTORE JUMP JUMPDEST POP JUMP JUMPDEST PUSH1 0x2 SLOAD PUSH1 0x1 PUSH1 0x1 PUSH1 0xA0 SHL SUB AND CALLER EQ DUP1 PUSH2 0xEDA JUMPI POP PUSH1 0x3 SLOAD PUSH1 0x1 PUSH1 0x1 PUSH1 0xA0 SHL SUB AND CALLER EQ JUMPDEST PUSH2 0xEF6 JUMPI PUSH1 0x40 MLOAD PUSH3 0x461BCD PUSH1 0xE5 SHL DUP2 MSTORE PUSH1 0x4 ADD PUSH2 0xC72 SWAP1 PUSH2 0x46F8 JUMP JUMPDEST PUSH2 0xEFE PUSH2 0x397F JUMP JUMPDEST PUSH0 DUP1 DUP1 JUMPDEST PUSH1 0x13 SLOAD DUP2 LT ISZERO PUSH2 0xF42 JUMPI DUP4 PUSH1 0x13 DUP3 DUP2 SLOAD DUP2 LT PUSH2 0xF20 JUMPI PUSH2 0xF20 PUSH2 0x4746 JUMP JUMPDEST SWAP1 PUSH0 MSTORE PUSH1 0x20 PUSH0 KECCAK256 ADD SLOAD SUB PUSH2 0xF3A JUMPI DUP1 SWAP3 POP PUSH1 0x1 SWAP2 POP PUSH2 0xF42 JUMP JUMPDEST PUSH1 0x1 ADD PUSH2 0xF02 JUMP JUMPDEST POP DUP1 PUSH2 0xF8E JUMPI PUSH1 0x40 MLOAD PUSH3 0x461BCD PUSH1 0xE5 SHL DUP2 MSTORE PUSH1 0x20 PUSH1 0x4 DUP3 ADD MSTORE PUSH1 0x1B PUSH1 0x24 DUP3 ADD MSTORE PUSH27 0x13DC99195C881B9BDD08199BDD5B99081A5B881D1A19481B1A5CDD PUSH1 0x2A SHL PUSH1 0x44 DUP3 ADD MSTORE PUSH1 0x64 ADD PUSH2 0xC72 JUMP JUMPDEST PUSH0 DUP4 DUP2 MSTORE PUSH1 0x18 PUSH1 0x20 SWAP1 DUP2 MSTORE PUSH1 0x40 DUP1 DUP4 KECCAK256 DUP1 SLOAD PUSH2 0xFFFF NOT SWAP1 DUP2 AND DUP3 SSTORE PUSH1 0x1 DUP1 DUP4 ADD DUP7 SWAP1 SSTORE PUSH1 0x2 DUP1 DUP5 ADD DUP1 SLOAD PUSH1 0x1 PUSH1 0x1 PUSH1 0xA8 SHL SUB NOT SWAP1 DUP2 AND SWAP1 SWAP2 SSTORE PUSH1 0x3 SWAP5 DUP6 ADD DUP9 SWAP1 SSTORE PUSH1 0x19 SWAP1 SWAP7 MSTORE SWAP4 DUP7 KECCAK256 DUP1 SLOAD SWAP1 SWAP3 AND DUP3 SSTORE DUP2 ADD DUP6 SWAP1 SSTORE SWAP2 DUP3 ADD DUP1 SLOAD SWAP1 SWAP4 AND SWAP1 SWAP3 SSTORE ADD SSTORE DUP2 JUMPDEST PUSH1 0x13 SLOAD PUSH2 0x1001 SWAP1 PUSH1 0x1 SWAP1 PUSH2 0x476E JUMP JUMPDEST DUP2 LT ISZERO PUSH2 0x1054 JUMPI PUSH1 0x13 PUSH2 0x1015 DUP3 PUSH1 0x1 PUSH2 0x4787 JUMP JUMPDEST DUP2 SLOAD DUP2 LT PUSH2 0x1025 JUMPI PUSH2 0x1025 PUSH2 0x4746 JUMP JUMPDEST SWAP1 PUSH0 MSTORE PUSH1 0x20 PUSH0 KECCAK256 ADD SLOAD PUSH1 0x13 DUP3 DUP2 SLOAD DUP2 LT PUSH2 0x1041 JUMPI PUSH2 0x1041 PUSH2 0x4746 JUMP JUMPDEST PUSH0 SWAP2 DUP3 MSTORE PUSH1 0x20 SWAP1 SWAP2 KECCAK256 ADD SSTORE PUSH1 0x1 ADD PUSH2 0xFF2 JUMP JUMPDEST POP PUSH1 0x13 DUP1 SLOAD DUP1 PUSH2 0x1066 JUMPI PUSH2 0x1066 PUSH2 0x479A JUMP JUMPDEST PUSH1 0x1 SWAP1 SUB DUP2 DUP2 SWAP1 PUSH0 MSTORE PUSH1 0x20 PUSH0 KECCAK256 ADD PUSH0 SWAP1 SSTORE SWAP1 SSTORE POP POP POP JUMP JUMPDEST PUSH1 0x2 SLOAD PUSH1 0x1 PUSH1 0x1 PUSH1 0xA0 SHL SUB AND CALLER EQ DUP1 PUSH2 0x10A1 JUMPI POP PUSH1 0x3 SLOAD PUSH1 0x1 PUSH1 0x1 PUSH1 0xA0 SHL SUB AND CALLER EQ JUMPDEST PUSH2 0x10BD JUMPI PUSH1 0x40 MLOAD PUSH3 0x461BCD PUSH1 0xE5 SHL DUP2 MSTORE PUSH1 0x4 ADD PUSH2 0xC72 SWAP1 PUSH2 0x46F8 JUMP JUMPDEST PUSH2 0x10C5 PUSH2 0x390A JUMP JUMPDEST PUSH2 0x10CD PUSH2 0x397F JUMP JUMPDEST PUSH1 0x12 DUP1 SLOAD PUSH0 SWAP2 DUP3 PUSH2 0x10DD DUP4 PUSH2 0x47AE JUMP JUMPDEST SWAP1 SWAP2 SSTORE POP PUSH1 0x40 DUP1 MLOAD PUSH2 0x100 DUP2 ADD SWAP1 SWAP2 MSTORE SWAP1 SWAP2 POP DUP1 PUSH1 0x1 DUP2 MSTORE PUSH0 PUSH1 0x20 DUP1 DUP4 ADD DUP3 SWAP1 MSTORE PUSH1 0x1 PUSH1 0x1 PUSH1 0xA0 SHL SUB DUP8 AND PUSH1 0x40 DUP1 DUP6 ADD SWAP2 SWAP1 SWAP2 MSTORE PUSH1 0x60 DUP5 ADD DUP8 SWAP1 MSTORE PUSH1 0x80 DUP5 ADD DUP4 SWAP1 MSTORE PUSH1 0xA0 DUP5 ADD DUP4 SWAP1 MSTORE PUSH1 0xC0 DUP5 ADD DUP4 SWAP1 MSTORE PUSH1 0xE0 SWAP1 SWAP4 ADD DUP3 SWAP1 MSTORE DUP5 DUP3 MSTORE PUSH1 0x11 SWAP1 MSTORE KECCAK256 DUP2 MLOAD DUP2 SLOAD DUP3 SWAP1 PUSH1 0xFF NOT AND PUSH1 0x1 DUP4 PUSH1 0x2 DUP2 GT ISZERO PUSH2 0x115B JUMPI PUSH2 0x115B PUSH2 0x4281 JUMP JUMPDEST MUL OR SWAP1 SSTORE POP PUSH1 0x20 DUP3 ADD MLOAD PUSH1 0x1 DUP3 ADD SSTORE PUSH1 0x40 DUP3 ADD MLOAD PUSH1 0x2 DUP3 ADD DUP1 SLOAD PUSH1 0x1 PUSH1 0x1 PUSH1 0xA0 SHL SUB SWAP3 DUP4 AND PUSH1 0x1 PUSH1 0x1 PUSH1 0xA0 SHL SUB NOT SWAP1 SWAP2 AND OR SWAP1 SSTORE PUSH1 0x60 DUP4 ADD MLOAD PUSH1 0x3 DUP4 ADD SSTORE PUSH1 0x80 DUP4 ADD MLOAD PUSH1 0x4 DUP4 ADD SSTORE PUSH1 0xA0 DUP4 ADD MLOAD PUSH1 0x5 SWAP1 SWAP3 ADD DUP1 SLOAD PUSH1 0xC0 DUP6 ADD MLOAD PUSH1 0xE0 SWAP1 SWAP6 ADD MLOAD ISZERO ISZERO PUSH1 0x1 PUSH1 0xA8 SHL MUL PUSH1 0xFF PUSH1 0xA8 SHL NOT SWAP6 ISZERO ISZERO PUSH1 0x1 PUSH1 0xA0 SHL MUL PUSH1 0x1 PUSH1 0x1 PUSH1 0xA8 SHL SUB NOT SWAP1 SWAP3 AND SWAP5 SWAP1 SWAP4 AND SWAP4 SWAP1 SWAP4 OR SWAP3 SWAP1 SWAP3 OR SWAP3 SWAP1 SWAP3 AND SWAP2 SWAP1 SWAP2 OR SWAP1 SSTORE POP PUSH2 0xD1E PUSH1 0x1 DUP1 SSTORE JUMP JUMPDEST CALLER PUSH0 SWAP1 DUP2 MSTORE PUSH1 0x14 PUSH1 0x20 MSTORE PUSH1 0x40 SWAP1 KECCAK256 SLOAD PUSH1 0xFF AND PUSH2 0x122B JUMPI PUSH1 0x40 MLOAD PUSH3 0x461BCD PUSH1 0xE5 SHL DUP2 MSTORE PUSH1 0x4 ADD PUSH2 0xC72 SWAP1 PUSH2 0x471E JUMP JUMPDEST PUSH2 0x1233 PUSH2 0x390A JUMP JUMPDEST PUSH2 0x123B PUSH2 0x397F JUMP JUMPDEST PUSH1 0x7 DUP1 SLOAD PUSH1 0x1 PUSH1 0x1 PUSH1 0xA0 SHL SUB NOT SWAP1 DUP2 AND PUSH1 0x1 PUSH1 0x1 PUSH1 0xA0 SHL SUB DUP10 DUP2 AND SWAP2 DUP3 OR SWAP1 SWAP4 SSTORE PUSH1 0x6 DUP1 SLOAD DUP4 AND SWAP1 SWAP2 OR SWAP1 SSTORE PUSH1 0xA DUP1 SLOAD DUP3 AND DUP9 DUP5 AND OR SWAP1 SSTORE PUSH1 0x4 DUP1 SLOAD DUP3 AND DUP8 DUP5 AND OR SWAP1 SSTORE PUSH1 0x5 DUP1 SLOAD DUP3 AND DUP7 DUP5 AND OR SWAP1 SSTORE PUSH1 0x8 DUP1 SLOAD DUP3 AND DUP6 DUP5 AND OR SWAP1 SSTORE PUSH1 0x9 DUP1 SLOAD SWAP1 SWAP2 AND SWAP2 DUP4 AND SWAP2 SWAP1 SWAP2 OR SWAP1 SSTORE PUSH1 0x1 DUP1 SSTORE POP POP POP POP POP POP JUMP JUMPDEST PUSH1 0x2 SLOAD PUSH1 0x1 PUSH1 0x1 PUSH1 0xA0 SHL SUB AND CALLER EQ DUP1 PUSH2 0x12D6 JUMPI POP PUSH1 0x3 SLOAD PUSH1 0x1 PUSH1 0x1 PUSH1 0xA0 SHL SUB AND CALLER EQ JUMPDEST PUSH2 0x12F2 JUMPI PUSH1 0x40 MLOAD PUSH3 0x461BCD PUSH1 0xE5 SHL DUP2 MSTORE PUSH1 0x4 ADD PUSH2 0xC72 SWAP1 PUSH2 0x46F8 JUMP JUMPDEST PUSH2 0x12FA PUSH2 0x390A JUMP JUMPDEST PUSH2 0x1302 PUSH2 0x397F JUMP JUMPDEST PUSH1 0x13 SLOAD PUSH1 0x40 DUP1 MLOAD PUSH1 0xC0 DUP2 ADD DUP3 MSTORE PUSH0 DUP1 DUP3 MSTORE PUSH1 0x20 DUP3 ADD MSTORE SWAP1 DUP2 ADD DUP4 SWAP1 MSTORE PUSH1 0x1 PUSH1 0x1 PUSH1 0xA0 SHL SUB DUP5 AND PUSH1 0x60 DUP3 ADD MSTORE PUSH1 0x80 DUP2 ADD PUSH1 0x2 JUMPDEST DUP2 MSTORE PUSH1 0x20 SWAP1 DUP2 ADD DUP4 SWAP1 MSTORE PUSH0 DUP4 DUP2 MSTORE PUSH1 0x18 DUP3 MSTORE PUSH1 0x40 SWAP1 DUP2 SWAP1 KECCAK256 DUP4 MLOAD DUP2 SLOAD SWAP4 DUP6 ADD MLOAD ISZERO ISZERO PUSH2 0x100 MUL PUSH2 0xFF00 NOT SWAP2 ISZERO ISZERO SWAP2 SWAP1 SWAP2 AND PUSH2 0xFFFF NOT SWAP1 SWAP5 AND SWAP4 SWAP1 SWAP4 OR SWAP3 SWAP1 SWAP3 OR DUP3 SSTORE DUP3 ADD MLOAD PUSH1 0x1 DUP3 ADD SSTORE PUSH1 0x60 DUP3 ADD MLOAD PUSH1 0x2 DUP1 DUP4 ADD DUP1 SLOAD PUSH1 0x1 PUSH1 0x1 PUSH1 0xA0 SHL SUB SWAP1 SWAP4 AND PUSH1 0x1 PUSH1 0x1 PUSH1 0xA0 SHL SUB NOT DUP5 AND DUP2 OR DUP3 SSTORE PUSH1 0x80 DUP7 ADD MLOAD SWAP4 SWAP2 SWAP3 PUSH1 0x1 PUSH1 0x1 PUSH1 0xA8 SHL SUB NOT SWAP1 SWAP3 AND OR SWAP1 PUSH1 0x1 PUSH1 0xA0 SHL SWAP1 DUP5 SWAP1 DUP2 GT ISZERO PUSH2 0x13D1 JUMPI PUSH2 0x13D1 PUSH2 0x4281 JUMP JUMPDEST MUL OR SWAP1 SSTORE POP PUSH1 0xA0 SWAP2 SWAP1 SWAP2 ADD MLOAD PUSH1 0x3 SWAP1 SWAP2 ADD SSTORE PUSH1 0x13 DUP1 SLOAD PUSH1 0x1 DUP2 ADD DUP3 SSTORE PUSH0 SWAP2 SWAP1 SWAP2 MSTORE PUSH32 0x66DE8FFDA797E3DE9C05E8FC57B3BF0EC28A930D40B0D285D93C06501CF6A090 ADD SSTORE PUSH2 0xD1E PUSH1 0x1 DUP1 SSTORE JUMP JUMPDEST PUSH1 0x2 SLOAD PUSH1 0x1 PUSH1 0x1 PUSH1 0xA0 SHL SUB AND CALLER EQ DUP1 PUSH2 0x1441 JUMPI POP PUSH1 0x3 SLOAD PUSH1 0x1 PUSH1 0x1 PUSH1 0xA0 SHL SUB AND CALLER EQ JUMPDEST PUSH2 0x145D JUMPI PUSH1 0x40 MLOAD PUSH3 0x461BCD PUSH1 0xE5 SHL DUP2 MSTORE PUSH1 0x4 ADD PUSH2 0xC72 SWAP1 PUSH2 0x46F8 JUMP JUMPDEST PUSH2 0x1465 PUSH2 0x390A JUMP JUMPDEST PUSH2 0x146D PUSH2 0x397F JUMP JUMPDEST PUSH1 0x13 SLOAD DUP2 LT PUSH2 0x148E JUMPI PUSH1 0x40 MLOAD PUSH3 0x461BCD PUSH1 0xE5 SHL DUP2 MSTORE PUSH1 0x4 ADD PUSH2 0xC72 SWAP1 PUSH2 0x47C6 JUMP JUMPDEST PUSH0 DUP2 DUP2 MSTORE PUSH1 0x18 PUSH1 0x20 MSTORE PUSH1 0x40 SWAP1 KECCAK256 PUSH1 0x3 ADD SLOAD DUP2 SWAP1 SUB PUSH2 0x14FB JUMPI PUSH0 DUP2 DUP2 MSTORE PUSH1 0x18 PUSH1 0x20 MSTORE PUSH1 0x40 SWAP1 KECCAK256 PUSH1 0x2 SLOAD PUSH1 0x1 PUSH1 0x1 PUSH1 0xA0 SHL SUB AND CALLER SUB PUSH2 0x14D5 JUMPI DUP1 SLOAD PUSH1 0xFF NOT AND PUSH1 0x1 OR DUP2 SSTORE PUSH2 0x14F5 JUMP JUMPDEST PUSH1 0x3 SLOAD PUSH1 0x1 PUSH1 0x1 PUSH1 0xA0 SHL SUB AND CALLER SUB PUSH2 0x14F5 JUMPI DUP1 SLOAD PUSH2 0xFF00 NOT AND PUSH2 0x100 OR DUP2 SSTORE JUMPDEST POP PUSH2 0x1563 JUMP JUMPDEST PUSH0 DUP2 DUP2 MSTORE PUSH1 0x19 PUSH1 0x20 MSTORE PUSH1 0x40 SWAP1 KECCAK256 PUSH1 0x3 ADD SLOAD DUP2 SWAP1 SUB PUSH2 0x1563 JUMPI PUSH0 DUP2 DUP2 MSTORE PUSH1 0x19 PUSH1 0x20 MSTORE PUSH1 0x40 SWAP1 KECCAK256 PUSH1 0x2 SLOAD PUSH1 0x1 PUSH1 0x1 PUSH1 0xA0 SHL SUB AND CALLER SUB PUSH2 0x1542 JUMPI DUP1 SLOAD PUSH1 0xFF NOT AND PUSH1 0x1 OR DUP2 SSTORE PUSH2 0xEAA JUMP JUMPDEST PUSH1 0x3 SLOAD PUSH1 0x1 PUSH1 0x1 PUSH1 0xA0 SHL SUB AND CALLER SUB PUSH2 0xEAA JUMPI DUP1 SLOAD PUSH2 0xFF00 NOT AND PUSH2 0x100 OR DUP2 SSTORE POP JUMPDEST PUSH2 0xEB4 PUSH1 0x1 DUP1 SSTORE JUMP JUMPDEST CALLER PUSH0 SWAP1 DUP2 MSTORE PUSH1 0x14 PUSH1 0x20 MSTORE PUSH1 0x40 SWAP1 KECCAK256 SLOAD PUSH1 0xFF AND PUSH2 0x159A JUMPI PUSH1 0x40 MLOAD PUSH3 0x461BCD PUSH1 0xE5 SHL DUP2 MSTORE PUSH1 0x4 ADD PUSH2 0xC72 SWAP1 PUSH2 0x471E JUMP JUMPDEST PUSH2 0x15A2 PUSH2 0x390A JUMP JUMPDEST PUSH2 0x15AA PUSH2 0x397F JUMP JUMPDEST PUSH1 0x2 DUP1 SLOAD PUSH1 0x1 PUSH1 0x1 PUSH1 0xA0 SHL SUB DUP1 DUP6 AND PUSH1 0x1 PUSH1 0x1 PUSH1 0xA0 SHL SUB NOT SWAP3 DUP4 AND OR SWAP1 SWAP3 SSTORE PUSH1 0x3 DUP1 SLOAD SWAP3 DUP5 AND SWAP3 SWAP1 SWAP2 AND SWAP2 SWAP1 SWAP2 OR SWAP1 SSTORE PUSH2 0xD1E PUSH1 0x1 DUP1 SSTORE JUMP JUMPDEST PUSH1 0x60 DUP1 PUSH0 DUP1 DUP1 JUMPDEST PUSH1 0x13 SLOAD DUP2 LT ISZERO PUSH2 0x166F JUMPI PUSH0 PUSH1 0x13 DUP3 DUP2 SLOAD DUP2 LT PUSH2 0x1608 JUMPI PUSH2 0x1608 PUSH2 0x4746 JUMP JUMPDEST SWAP1 PUSH0 MSTORE PUSH1 0x20 PUSH0 KECCAK256 ADD SLOAD SWAP1 POP DUP1 PUSH1 0x18 PUSH0 DUP4 DUP2 MSTORE PUSH1 0x20 ADD SWAP1 DUP2 MSTORE PUSH1 0x20 ADD PUSH0 KECCAK256 PUSH1 0x3 ADD SLOAD SUB PUSH2 0x1640 JUMPI DUP4 PUSH2 0x1638 DUP2 PUSH2 0x47AE JUMP JUMPDEST SWAP5 POP POP PUSH2 0x1666 JUMP JUMPDEST PUSH0 DUP2 DUP2 MSTORE PUSH1 0x19 PUSH1 0x20 MSTORE PUSH1 0x40 SWAP1 KECCAK256 PUSH1 0x3 ADD SLOAD DUP2 SWAP1 SUB PUSH2 0x1666 JUMPI DUP3 PUSH2 0x1662 DUP2 PUSH2 0x47AE JUMP JUMPDEST SWAP4 POP POP JUMPDEST POP PUSH1 0x1 ADD PUSH2 0x15EA JUMP JUMPDEST POP PUSH0 DUP3 PUSH1 0x1 PUSH1 0x1 PUSH1 0x40 SHL SUB DUP2 GT ISZERO PUSH2 0x1689 JUMPI PUSH2 0x1689 PUSH2 0x47F0 JUMP JUMPDEST PUSH1 0x40 MLOAD SWAP1 DUP1 DUP3 MSTORE DUP1 PUSH1 0x20 MUL PUSH1 0x20 ADD DUP3 ADD PUSH1 0x40 MSTORE DUP1 ISZERO PUSH2 0x16C2 JUMPI DUP2 PUSH1 0x20 ADD JUMPDEST PUSH2 0x16AF PUSH2 0x40C8 JUMP JUMPDEST DUP2 MSTORE PUSH1 0x20 ADD SWAP1 PUSH1 0x1 SWAP1 SUB SWAP1 DUP2 PUSH2 0x16A7 JUMPI SWAP1 POP JUMPDEST POP SWAP1 POP PUSH0 DUP3 PUSH1 0x1 PUSH1 0x1 PUSH1 0x40 SHL SUB DUP2 GT ISZERO PUSH2 0x16DE JUMPI PUSH2 0x16DE PUSH2 0x47F0 JUMP JUMPDEST PUSH1 0x40 MLOAD SWAP1 DUP1 DUP3 MSTORE DUP1 PUSH1 0x20 MUL PUSH1 0x20 ADD DUP3 ADD PUSH1 0x40 MSTORE DUP1 ISZERO PUSH2 0x1717 JUMPI DUP2 PUSH1 0x20 ADD JUMPDEST PUSH2 0x1704 PUSH2 0x40FD JUMP JUMPDEST DUP2 MSTORE PUSH1 0x20 ADD SWAP1 PUSH1 0x1 SWAP1 SUB SWAP1 DUP2 PUSH2 0x16FC JUMPI SWAP1 POP JUMPDEST POP SWAP1 POP PUSH0 DUP1 DUP1 JUMPDEST PUSH1 0x13 SLOAD DUP2 LT ISZERO PUSH2 0x1901 JUMPI PUSH0 PUSH1 0x13 DUP3 DUP2 SLOAD DUP2 LT PUSH2 0x173C JUMPI PUSH2 0x173C PUSH2 0x4746 JUMP JUMPDEST SWAP1 PUSH0 MSTORE PUSH1 0x20 PUSH0 KECCAK256 ADD SLOAD SWAP1 POP DUP1 PUSH1 0x18 PUSH0 DUP4 DUP2 MSTORE PUSH1 0x20 ADD SWAP1 DUP2 MSTORE PUSH1 0x20 ADD PUSH0 KECCAK256 PUSH1 0x3 ADD SLOAD SUB PUSH2 0x1826 JUMPI PUSH0 DUP2 DUP2 MSTORE PUSH1 0x18 PUSH1 0x20 SWAP1 DUP2 MSTORE PUSH1 0x40 SWAP2 DUP3 SWAP1 KECCAK256 DUP3 MLOAD PUSH1 0xC0 DUP2 ADD DUP5 MSTORE DUP2 SLOAD PUSH1 0xFF DUP1 DUP3 AND ISZERO ISZERO DUP4 MSTORE PUSH2 0x100 SWAP1 SWAP2 DIV DUP2 AND ISZERO ISZERO SWAP4 DUP3 ADD SWAP4 SWAP1 SWAP4 MSTORE PUSH1 0x1 DUP3 ADD SLOAD SWAP4 DUP2 ADD SWAP4 SWAP1 SWAP4 MSTORE PUSH1 0x2 DUP1 DUP3 ADD SLOAD PUSH1 0x1 PUSH1 0x1 PUSH1 0xA0 SHL SUB DUP2 AND PUSH1 0x60 DUP7 ADD MSTORE SWAP2 SWAP3 PUSH1 0x80 DUP6 ADD SWAP3 PUSH1 0x1 PUSH1 0xA0 SHL SWAP1 DIV AND SWAP1 DUP2 GT ISZERO PUSH2 0x17D7 JUMPI PUSH2 0x17D7 PUSH2 0x4281 JUMP JUMPDEST PUSH1 0x2 DUP2 GT ISZERO PUSH2 0x17E8 JUMPI PUSH2 0x17E8 PUSH2 0x4281 JUMP JUMPDEST DUP2 MSTORE PUSH1 0x20 ADD PUSH1 0x3 DUP3 ADD SLOAD DUP2 MSTORE POP POP DUP7 DUP6 DUP2 MLOAD DUP2 LT PUSH2 0x1808 JUMPI PUSH2 0x1808 PUSH2 0x4746 JUMP JUMPDEST PUSH1 0x20 MUL PUSH1 0x20 ADD ADD DUP2 SWAP1 MSTORE POP DUP4 DUP1 PUSH2 0x181E SWAP1 PUSH2 0x47AE JUMP JUMPDEST SWAP5 POP POP PUSH2 0x18F8 JUMP JUMPDEST PUSH0 DUP2 DUP2 MSTORE PUSH1 0x19 PUSH1 0x20 MSTORE PUSH1 0x40 SWAP1 KECCAK256 PUSH1 0x3 ADD SLOAD DUP2 SWAP1 SUB PUSH2 0x18F8 JUMPI PUSH0 DUP2 DUP2 MSTORE PUSH1 0x19 PUSH1 0x20 SWAP1 DUP2 MSTORE PUSH1 0x40 SWAP2 DUP3 SWAP1 KECCAK256 DUP3 MLOAD PUSH1 0xC0 DUP2 ADD DUP5 MSTORE DUP2 SLOAD PUSH1 0xFF DUP1 DUP3 AND ISZERO ISZERO DUP4 MSTORE PUSH2 0x100 SWAP1 SWAP2 DIV DUP2 AND ISZERO ISZERO SWAP4 DUP3 ADD SWAP4 SWAP1 SWAP4 MSTORE PUSH1 0x1 DUP3 ADD SLOAD SWAP4 DUP2 ADD SWAP4 SWAP1 SWAP4 MSTORE PUSH1 0x2 DUP2 ADD SLOAD PUSH1 0x1 PUSH1 0x1 PUSH1 0xA0 SHL SUB DUP2 AND PUSH1 0x60 DUP6 ADD MSTORE SWAP1 SWAP2 PUSH1 0x80 DUP5 ADD SWAP2 PUSH1 0x1 PUSH1 0xA0 SHL SWAP1 DIV AND DUP1 ISZERO PUSH2 0x18B0 JUMPI PUSH2 0x18B0 PUSH2 0x4281 JUMP JUMPDEST DUP1 ISZERO PUSH2 0x18BE JUMPI PUSH2 0x18BE PUSH2 0x4281 JUMP JUMPDEST DUP2 MSTORE PUSH1 0x20 ADD PUSH1 0x3 DUP3 ADD SLOAD DUP2 MSTORE POP POP DUP6 DUP5 DUP2 MLOAD DUP2 LT PUSH2 0x18DE JUMPI PUSH2 0x18DE PUSH2 0x4746 JUMP JUMPDEST PUSH1 0x20 MUL PUSH1 0x20 ADD ADD DUP2 SWAP1 MSTORE POP DUP3 DUP1 PUSH2 0x18F4 SWAP1 PUSH2 0x47AE JUMP JUMPDEST SWAP4 POP POP JUMPDEST POP PUSH1 0x1 ADD PUSH2 0x171E JUMP JUMPDEST POP SWAP3 SWAP8 SWAP2 SWAP7 POP SWAP1 SWAP5 POP POP POP POP POP JUMP JUMPDEST PUSH1 0x2 SLOAD PUSH1 0x1 PUSH1 0x1 PUSH1 0xA0 SHL SUB AND CALLER EQ DUP1 PUSH2 0x1933 JUMPI POP PUSH1 0x3 SLOAD PUSH1 0x1 PUSH1 0x1 PUSH1 0xA0 SHL SUB AND CALLER EQ JUMPDEST PUSH2 0x194F JUMPI PUSH1 0x40 MLOAD PUSH3 0x461BCD PUSH1 0xE5 SHL DUP2 MSTORE PUSH1 0x4 ADD PUSH2 0xC72 SWAP1 PUSH2 0x46F8 JUMP JUMPDEST PUSH2 0x1957 PUSH2 0x390A JUMP JUMPDEST PUSH2 0x195F PUSH2 0x397F JUMP JUMPDEST PUSH1 0x13 SLOAD PUSH1 0x40 DUP1 MLOAD PUSH1 0xC0 DUP2 ADD DUP3 MSTORE PUSH0 DUP1 DUP3 MSTORE PUSH1 0x20 DUP3 ADD MSTORE SWAP1 DUP2 ADD DUP4 SWAP1 MSTORE PUSH1 0x1 PUSH1 0x1 PUSH1 0xA0 SHL SUB DUP5 AND PUSH1 0x60 DUP3 ADD MSTORE PUSH1 0x80 DUP2 ADD PUSH1 0x1 PUSH2 0x1334 JUMP JUMPDEST PUSH1 0x60 PUSH0 DUP1 JUMPDEST PUSH1 0x12 SLOAD DUP2 LT ISZERO PUSH2 0x19FE JUMPI PUSH0 DUP2 DUP2 MSTORE PUSH1 0x11 PUSH1 0x20 MSTORE PUSH1 0x40 SWAP1 KECCAK256 PUSH1 0x5 ADD SLOAD PUSH1 0x1 PUSH1 0xA0 SHL SWAP1 DIV PUSH1 0xFF AND ISZERO DUP1 PUSH2 0x19E3 JUMPI POP PUSH0 DUP2 DUP2 MSTORE PUSH1 0x11 PUSH1 0x20 MSTORE PUSH1 0x40 SWAP1 KECCAK256 PUSH1 0x5 ADD SLOAD PUSH1 0x1 PUSH1 0xA8 SHL SWAP1 DIV PUSH1 0xFF AND ISZERO JUMPDEST ISZERO PUSH2 0x19F6 JUMPI DUP2 PUSH2 0x19F2 DUP2 PUSH2 0x47AE JUMP JUMPDEST SWAP3 POP POP JUMPDEST PUSH1 0x1 ADD PUSH2 0x199A JUMP JUMPDEST POP PUSH0 DUP2 PUSH1 0x1 PUSH1 0x1 PUSH1 0x40 SHL SUB DUP2 GT ISZERO PUSH2 0x1A18 JUMPI PUSH2 0x1A18 PUSH2 0x47F0 JUMP JUMPDEST PUSH1 0x40 MLOAD SWAP1 DUP1 DUP3 MSTORE DUP1 PUSH1 0x20 MUL PUSH1 0x20 ADD DUP3 ADD PUSH1 0x40 MSTORE DUP1 ISZERO PUSH2 0x1A41 JUMPI DUP2 PUSH1 0x20 ADD PUSH1 0x20 DUP3 MUL DUP1 CALLDATASIZE DUP4 CALLDATACOPY ADD SWAP1 POP JUMPDEST POP SWAP1 POP PUSH0 DUP1 JUMPDEST PUSH1 0x12 SLOAD DUP2 LT ISZERO PUSH2 0x1AC9 JUMPI PUSH0 DUP2 DUP2 MSTORE PUSH1 0x11 PUSH1 0x20 MSTORE PUSH1 0x40 SWAP1 KECCAK256 PUSH1 0x5 ADD SLOAD PUSH1 0x1 PUSH1 0xA0 SHL SWAP1 DIV PUSH1 0xFF AND ISZERO DUP1 PUSH2 0x1A90 JUMPI POP PUSH0 DUP2 DUP2 MSTORE PUSH1 0x11 PUSH1 0x20 MSTORE PUSH1 0x40 SWAP1 KECCAK256 PUSH1 0x5 ADD SLOAD PUSH1 0x1 PUSH1 0xA8 SHL SWAP1 DIV PUSH1 0xFF AND ISZERO JUMPDEST ISZERO PUSH2 0x1AC1 JUMPI DUP1 DUP4 DUP4 DUP2 MLOAD DUP2 LT PUSH2 0x1AA8 JUMPI PUSH2 0x1AA8 PUSH2 0x4746 JUMP JUMPDEST PUSH1 0x20 SWAP1 DUP2 MUL SWAP2 SWAP1 SWAP2 ADD ADD MSTORE DUP2 PUSH2 0x1ABD DUP2 PUSH2 0x47AE JUMP JUMPDEST SWAP3 POP POP JUMPDEST PUSH1 0x1 ADD PUSH2 0x1A47 JUMP JUMPDEST POP SWAP1 SWAP4 SWAP3 POP POP POP JUMP JUMPDEST PUSH1 0x2 SLOAD PUSH1 0x1 PUSH1 0x1 PUSH1 0xA0 SHL SUB AND CALLER EQ DUP1 PUSH2 0x1AF5 JUMPI POP PUSH1 0x3 SLOAD PUSH1 0x1 PUSH1 0x1 PUSH1 0xA0 SHL SUB AND CALLER EQ JUMPDEST PUSH2 0x1B11 JUMPI PUSH1 0x40 MLOAD PUSH3 0x461BCD PUSH1 0xE5 SHL DUP2 MSTORE PUSH1 0x4 ADD PUSH2 0xC72 SWAP1 PUSH2 0x46F8 JUMP JUMPDEST PUSH2 0x1B19 PUSH2 0x390A JUMP JUMPDEST PUSH2 0x1B21 PUSH2 0x397F JUMP JUMPDEST PUSH2 0xC8B PUSH2 0x3BF4 JUMP JUMPDEST PUSH1 0x2 SLOAD PUSH1 0x1 PUSH1 0x1 PUSH1 0xA0 SHL SUB AND CALLER EQ DUP1 PUSH2 0x1B4C JUMPI POP PUSH1 0x3 SLOAD PUSH1 0x1 PUSH1 0x1 PUSH1 0xA0 SHL SUB AND CALLER EQ JUMPDEST PUSH2 0x1B68 JUMPI PUSH1 0x40 MLOAD PUSH3 0x461BCD PUSH1 0xE5 SHL DUP2 MSTORE PUSH1 0x4 ADD PUSH2 0xC72 SWAP1 PUSH2 0x46F8 JUMP JUMPDEST PUSH2 0x1B70 PUSH2 0x390A JUMP JUMPDEST PUSH2 0x1B78 PUSH2 0x397F JUMP JUMPDEST PUSH1 0x15 DUP1 SLOAD PUSH0 SWAP2 DUP3 PUSH2 0x1B88 DUP4 PUSH2 0x47AE JUMP JUMPDEST SWAP1 SWAP2 SSTORE POP PUSH1 0x40 DUP1 MLOAD PUSH1 0x60 DUP2 ADD DUP3 MSTORE PUSH1 0x1 PUSH1 0x1 PUSH1 0xA0 SHL SUB DUP1 DUP7 AND DUP3 MSTORE PUSH0 PUSH1 0x20 DUP1 DUP5 ADD DUP3 DUP2 MSTORE DUP5 DUP7 ADD DUP4 DUP2 MSTORE DUP8 DUP5 MSTORE PUSH1 0x17 SWAP1 SWAP3 MSTORE SWAP5 DUP3 KECCAK256 SWAP4 MLOAD DUP5 SLOAD SWAP6 MLOAD SWAP2 MLOAD ISZERO ISZERO PUSH1 0x1 PUSH1 0xA8 SHL MUL PUSH1 0xFF PUSH1 0xA8 SHL NOT SWAP3 ISZERO ISZERO PUSH1 0x1 PUSH1 0xA0 SHL MUL PUSH1 0x1 PUSH1 0x1 PUSH1 0xA8 SHL SUB NOT SWAP1 SWAP8 AND SWAP2 SWAP1 SWAP5 AND OR SWAP5 SWAP1 SWAP5 OR SWAP4 SWAP1 SWAP4 AND OR SWAP1 SSTORE PUSH1 0x16 DUP1 SLOAD PUSH1 0x1 DUP2 ADD DUP3 SSTORE SWAP2 MSTORE PUSH32 0xD833147D7DC355BA459FC788F669E58CFAF9DC25DDCD0702E87D69C7B5124289 ADD SSTORE POP PUSH2 0xEB4 PUSH1 0x1 DUP1 SSTORE JUMP JUMPDEST PUSH1 0x2 SLOAD PUSH1 0x1 PUSH1 0x1 PUSH1 0xA0 SHL SUB AND CALLER EQ DUP1 PUSH2 0x1C54 JUMPI POP PUSH1 0x3 SLOAD PUSH1 0x1 PUSH1 0x1 PUSH1 0xA0 SHL SUB AND CALLER EQ JUMPDEST PUSH2 0x1C70 JUMPI PUSH1 0x40 MLOAD PUSH3 0x461BCD PUSH1 0xE5 SHL DUP2 MSTORE PUSH1 0x4 ADD PUSH2 0xC72 SWAP1 PUSH2 0x46F8 JUMP JUMPDEST PUSH2 0x1C78 PUSH2 0x390A JUMP JUMPDEST PUSH2 0x1C80 PUSH2 0x397F JUMP JUMPDEST PUSH1 0x12 DUP1 SLOAD PUSH0 SWAP2 DUP3 PUSH2 0x1C90 DUP4 PUSH2 0x47AE JUMP JUMPDEST SWAP1 SWAP2 SSTORE POP PUSH1 0x40 DUP1 MLOAD PUSH2 0x100 DUP2 ADD SWAP1 SWAP2 MSTORE SWAP1 SWAP2 POP DUP1 PUSH0 DUP2 MSTORE PUSH1 0x20 DUP1 DUP3 ADD DUP6 SWAP1 MSTORE PUSH0 PUSH1 0x40 DUP1 DUP5 ADD DUP3 SWAP1 MSTORE PUSH1 0x60 DUP5 ADD DUP3 SWAP1 MSTORE PUSH1 0x80 DUP5 ADD DUP3 SWAP1 MSTORE PUSH1 0xA0 DUP5 ADD DUP3 SWAP1 MSTORE PUSH1 0xC0 DUP5 ADD DUP3 SWAP1 MSTORE PUSH1 0xE0 SWAP1 SWAP4 ADD DUP2 SWAP1 MSTORE DUP5 DUP2 MSTORE PUSH1 0x11 SWAP1 SWAP2 MSTORE KECCAK256 DUP2 MLOAD DUP2 SLOAD DUP3 SWAP1 PUSH1 0xFF NOT AND PUSH1 0x1 DUP4 PUSH1 0x2 DUP2 GT ISZERO PUSH2 0x1D03 JUMPI PUSH2 0x1D03 PUSH2 0x4281 JUMP JUMPDEST MUL OR SWAP1 SSTORE POP PUSH1 0x20 DUP3 ADD MLOAD PUSH1 0x1 DUP3 ADD SSTORE PUSH1 0x40 DUP3 ADD MLOAD PUSH1 0x2 DUP3 ADD DUP1 SLOAD PUSH1 0x1 PUSH1 0x1 PUSH1 0xA0 SHL SUB SWAP3 DUP4 AND PUSH1 0x1 PUSH1 0x1 PUSH1 0xA0 SHL SUB NOT SWAP1 SWAP2 AND OR SWAP1 SSTORE PUSH1 0x60 DUP4 ADD MLOAD PUSH1 0x3 DUP4 ADD SSTORE PUSH1 0x80 DUP4 ADD MLOAD PUSH1 0x4 DUP4 ADD SSTORE PUSH1 0xA0 DUP4 ADD MLOAD PUSH1 0x5 SWAP1 SWAP3 ADD DUP1 SLOAD PUSH1 0xC0 DUP6 ADD MLOAD PUSH1 0xE0 SWAP1 SWAP6 ADD MLOAD ISZERO ISZERO PUSH1 0x1 PUSH1 0xA8 SHL MUL PUSH1 0xFF PUSH1 0xA8 SHL NOT SWAP6 ISZERO ISZERO PUSH1 0x1 PUSH1 0xA0 SHL MUL PUSH1 0x1 PUSH1 0x1 PUSH1 0xA8 SHL SUB NOT SWAP1 SWAP3 AND SWAP5 SWAP1 SWAP4 AND SWAP4 SWAP1 SWAP4 OR SWAP3 SWAP1 SWAP3 OR SWAP3 SWAP1 SWAP3 AND SWAP2 SWAP1 SWAP2 OR SWAP1 SSTORE POP PUSH2 0xEB4 PUSH1 0x1 DUP1 SSTORE JUMP JUMPDEST PUSH1 0x2 SLOAD PUSH1 0x1 PUSH1 0x1 PUSH1 0xA0 SHL SUB AND CALLER EQ DUP1 PUSH2 0x1DC8 JUMPI POP PUSH1 0x3 SLOAD PUSH1 0x1 PUSH1 0x1 PUSH1 0xA0 SHL SUB AND CALLER EQ JUMPDEST PUSH2 0x1DE4 JUMPI PUSH1 0x40 MLOAD PUSH3 0x461BCD PUSH1 0xE5 SHL DUP2 MSTORE PUSH1 0x4 ADD PUSH2 0xC72 SWAP1 PUSH2 0x46F8 JUMP JUMPDEST PUSH2 0x1DEC PUSH2 0x390A JUMP JUMPDEST PUSH2 0x1DF4 PUSH2 0x397F JUMP JUMPDEST PUSH0 DUP2 DUP2 MSTORE PUSH1 0x17 PUSH1 0x20 MSTORE PUSH1 0x40 SWAP1 KECCAK256 DUP1 SLOAD PUSH1 0x1 PUSH1 0x1 PUSH1 0xA0 SHL SUB AND PUSH2 0x1E28 JUMPI PUSH1 0x40 MLOAD PUSH3 0x461BCD PUSH1 0xE5 SHL DUP2 MSTORE PUSH1 0x4 ADD PUSH2 0xC72 SWAP1 PUSH2 0x4804 JUMP JUMPDEST PUSH1 0x2 SLOAD PUSH1 0x1 PUSH1 0x1 PUSH1 0xA0 SHL SUB AND CALLER SUB PUSH2 0x1E79 JUMPI DUP1 SLOAD PUSH1 0x1 PUSH1 0xA0 SHL SWAP1 DIV PUSH1 0xFF AND ISZERO PUSH2 0x1E63 JUMPI PUSH1 0x40 MLOAD PUSH3 0x461BCD PUSH1 0xE5 SHL DUP2 MSTORE PUSH1 0x4 ADD PUSH2 0xC72 SWAP1 PUSH2 0x4833 JUMP JUMPDEST DUP1 SLOAD PUSH1 0xFF PUSH1 0xA0 SHL NOT AND PUSH1 0x1 PUSH1 0xA0 SHL OR DUP2 SSTORE PUSH2 0x1EC6 JUMP JUMPDEST PUSH1 0x3 SLOAD PUSH1 0x1 PUSH1 0x1 PUSH1 0xA0 SHL SUB AND CALLER SUB PUSH2 0x1EC6 JUMPI DUP1 SLOAD PUSH1 0x1 PUSH1 0xA8 SHL SWAP1 DIV PUSH1 0xFF AND ISZERO PUSH2 0x1EB4 JUMPI PUSH1 0x40 MLOAD PUSH3 0x461BCD PUSH1 0xE5 SHL DUP2 MSTORE PUSH1 0x4 ADD PUSH2 0xC72 SWAP1 PUSH2 0x4833 JUMP JUMPDEST DUP1 SLOAD PUSH1 0xFF PUSH1 0xA8 SHL NOT AND PUSH1 0x1 PUSH1 0xA8 SHL OR DUP2 SSTORE JUMPDEST DUP1 SLOAD PUSH1 0x1 PUSH1 0xA0 SHL SWAP1 DIV PUSH1 0xFF AND DUP1 ISZERO PUSH2 0x1EE6 JUMPI POP DUP1 SLOAD PUSH1 0x1 PUSH1 0xA8 SHL SWAP1 DIV PUSH1 0xFF AND JUMPDEST ISZERO PUSH2 0xEAA JUMPI PUSH2 0xEAA DUP3 PUSH2 0x3C30 JUMP JUMPDEST PUSH1 0x2 SLOAD PUSH1 0x1 PUSH1 0x1 PUSH1 0xA0 SHL SUB AND CALLER EQ DUP1 PUSH2 0x1F17 JUMPI POP PUSH1 0x3 SLOAD PUSH1 0x1 PUSH1 0x1 PUSH1 0xA0 SHL SUB AND CALLER EQ JUMPDEST PUSH2 0x1F33 JUMPI PUSH1 0x40 MLOAD PUSH3 0x461BCD PUSH1 0xE5 SHL DUP2 MSTORE PUSH1 0x4 ADD PUSH2 0xC72 SWAP1 PUSH2 0x46F8 JUMP JUMPDEST PUSH2 0x1F3B PUSH2 0x390A JUMP JUMPDEST PUSH2 0x1F43 PUSH2 0x397F JUMP JUMPDEST PUSH1 0x13 SLOAD PUSH1 0x40 DUP1 MLOAD PUSH1 0xC0 DUP2 ADD DUP3 MSTORE PUSH0 DUP1 DUP3 MSTORE PUSH1 0x20 DUP3 ADD DUP2 SWAP1 MSTORE SWAP2 DUP2 ADD DUP5 SWAP1 MSTORE PUSH1 0x1 PUSH1 0x1 PUSH1 0xA0 SHL SUB DUP6 AND PUSH1 0x60 DUP3 ADD MSTORE SWAP1 PUSH1 0x80 DUP3 ADD SWAP1 PUSH2 0x1334 JUMP JUMPDEST PUSH1 0x13 DUP2 DUP2 SLOAD DUP2 LT PUSH2 0xCA5 JUMPI PUSH0 DUP1 REVERT JUMPDEST PUSH1 0x60 DUP1 PUSH0 DUP1 JUMPDEST PUSH1 0x16 SLOAD DUP2 LT ISZERO PUSH2 0x2031 JUMPI PUSH0 PUSH1 0x16 DUP3 DUP2 SLOAD DUP2 LT PUSH2 0x1FAE JUMPI PUSH2 0x1FAE PUSH2 0x4746 JUMP JUMPDEST PUSH0 SWAP2 DUP3 MSTORE PUSH1 0x20 DUP1 DUP4 KECCAK256 SWAP1 SWAP2 ADD SLOAD DUP1 DUP4 MSTORE PUSH1 0x17 DUP3 MSTORE PUSH1 0x40 SWAP3 DUP4 SWAP1 KECCAK256 DUP4 MLOAD PUSH1 0x60 DUP2 ADD DUP6 MSTORE SWAP1 SLOAD PUSH1 0x1 PUSH1 0x1 PUSH1 0xA0 SHL SUB DUP2 AND DUP3 MSTORE PUSH1 0xFF PUSH1 0x1 PUSH1 0xA0 SHL DUP3 DIV DUP2 AND ISZERO DUP1 ISZERO SWAP6 DUP5 ADD SWAP6 SWAP1 SWAP6 MSTORE PUSH1 0x1 PUSH1 0xA8 SHL SWAP1 SWAP2 DIV AND ISZERO ISZERO SWAP4 DUP2 ADD SWAP4 SWAP1 SWAP4 MSTORE SWAP3 POP DUP1 PUSH2 0x2014 JUMPI POP DUP1 PUSH1 0x40 ADD MLOAD ISZERO JUMPDEST ISZERO PUSH2 0x2027 JUMPI DUP4 PUSH2 0x2023 DUP2 PUSH2 0x47AE JUMP JUMPDEST SWAP5 POP POP JUMPDEST POP POP PUSH1 0x1 ADD PUSH2 0x1F90 JUMP JUMPDEST POP PUSH0 DUP2 PUSH1 0x1 PUSH1 0x1 PUSH1 0x40 SHL SUB DUP2 GT ISZERO PUSH2 0x204B JUMPI PUSH2 0x204B PUSH2 0x47F0 JUMP JUMPDEST PUSH1 0x40 MLOAD SWAP1 DUP1 DUP3 MSTORE DUP1 PUSH1 0x20 MUL PUSH1 0x20 ADD DUP3 ADD PUSH1 0x40 MSTORE DUP1 ISZERO PUSH2 0x2074 JUMPI DUP2 PUSH1 0x20 ADD PUSH1 0x20 DUP3 MUL DUP1 CALLDATASIZE DUP4 CALLDATACOPY ADD SWAP1 POP JUMPDEST POP SWAP1 POP PUSH0 DUP3 PUSH1 0x1 PUSH1 0x1 PUSH1 0x40 SHL SUB DUP2 GT ISZERO PUSH2 0x2090 JUMPI PUSH2 0x2090 PUSH2 0x47F0 JUMP JUMPDEST PUSH1 0x40 MLOAD SWAP1 DUP1 DUP3 MSTORE DUP1 PUSH1 0x20 MUL PUSH1 0x20 ADD DUP3 ADD PUSH1 0x40 MSTORE DUP1 ISZERO PUSH2 0x20D9 JUMPI DUP2 PUSH1 0x20 ADD JUMPDEST PUSH1 0x40 DUP1 MLOAD PUSH1 0x60 DUP2 ADD DUP3 MSTORE PUSH0 DUP1 DUP3 MSTORE PUSH1 0x20 DUP1 DUP4 ADD DUP3 SWAP1 MSTORE SWAP3 DUP3 ADD MSTORE DUP3 MSTORE PUSH0 NOT SWAP1 SWAP3 ADD SWAP2 ADD DUP2 PUSH2 0x20AE JUMPI SWAP1 POP JUMPDEST POP SWAP1 POP PUSH0 DUP1 JUMPDEST PUSH1 0x16 SLOAD DUP2 LT ISZERO PUSH2 0x21BE JUMPI PUSH0 PUSH1 0x16 DUP3 DUP2 SLOAD DUP2 LT PUSH2 0x20FD JUMPI PUSH2 0x20FD PUSH2 0x4746 JUMP JUMPDEST PUSH0 SWAP2 DUP3 MSTORE PUSH1 0x20 DUP1 DUP4 KECCAK256 SWAP1 SWAP2 ADD SLOAD DUP1 DUP4 MSTORE PUSH1 0x17 DUP3 MSTORE PUSH1 0x40 SWAP3 DUP4 SWAP1 KECCAK256 DUP4 MLOAD PUSH1 0x60 DUP2 ADD DUP6 MSTORE SWAP1 SLOAD PUSH1 0x1 PUSH1 0x1 PUSH1 0xA0 SHL SUB DUP2 AND DUP3 MSTORE PUSH1 0xFF PUSH1 0x1 PUSH1 0xA0 SHL DUP3 DIV DUP2 AND ISZERO DUP1 ISZERO SWAP6 DUP5 ADD SWAP6 SWAP1 SWAP6 MSTORE PUSH1 0x1 PUSH1 0xA8 SHL SWAP1 SWAP2 DIV AND ISZERO ISZERO SWAP4 DUP2 ADD SWAP4 SWAP1 SWAP4 MSTORE SWAP3 POP DUP1 PUSH2 0x2163 JUMPI POP DUP1 PUSH1 0x40 ADD MLOAD ISZERO JUMPDEST ISZERO PUSH2 0x21B4 JUMPI DUP2 DUP7 DUP6 DUP2 MLOAD DUP2 LT PUSH2 0x217B JUMPI PUSH2 0x217B PUSH2 0x4746 JUMP JUMPDEST PUSH1 0x20 MUL PUSH1 0x20 ADD ADD DUP2 DUP2 MSTORE POP POP DUP1 DUP6 DUP6 DUP2 MLOAD DUP2 LT PUSH2 0x219A JUMPI PUSH2 0x219A PUSH2 0x4746 JUMP JUMPDEST PUSH1 0x20 MUL PUSH1 0x20 ADD ADD DUP2 SWAP1 MSTORE POP DUP4 DUP1 PUSH2 0x21B0 SWAP1 PUSH2 0x47AE JUMP JUMPDEST SWAP5 POP POP JUMPDEST POP POP PUSH1 0x1 ADD PUSH2 0x20DF JUMP JUMPDEST POP SWAP2 SWAP6 SWAP1 SWAP5 POP SWAP3 POP POP POP JUMP JUMPDEST PUSH1 0x2 SLOAD PUSH1 0x1 PUSH1 0x1 PUSH1 0xA0 SHL SUB AND CALLER EQ DUP1 PUSH2 0x21ED JUMPI POP PUSH1 0x3 SLOAD PUSH1 0x1 PUSH1 0x1 PUSH1 0xA0 SHL SUB AND CALLER EQ JUMPDEST PUSH2 0x2209 JUMPI PUSH1 0x40 MLOAD PUSH3 0x461BCD PUSH1 0xE5 SHL DUP2 MSTORE PUSH1 0x4 ADD PUSH2 0xC72 SWAP1 PUSH2 0x46F8 JUMP JUMPDEST PUSH2 0x2211 PUSH2 0x390A JUMP JUMPDEST PUSH2 0x2219 PUSH2 0x397F JUMP JUMPDEST PUSH1 0x13 SLOAD PUSH1 0x40 DUP1 MLOAD PUSH1 0xC0 DUP2 ADD DUP3 MSTORE PUSH0 DUP1 DUP3 MSTORE PUSH1 0x20 DUP1 DUP4 ADD DUP3 DUP2 MSTORE DUP4 DUP6 ADD DUP8 DUP2 MSTORE PUSH1 0x1 PUSH1 0x1 PUSH1 0xA0 SHL SUB DUP10 DUP2 AND PUSH1 0x60 DUP8 ADD SWAP1 DUP2 MSTORE PUSH1 0x80 DUP8 ADD DUP7 DUP2 MSTORE PUSH1 0xA0 DUP9 ADD DUP11 SWAP1 MSTORE DUP10 DUP8 MSTORE PUSH1 0x19 SWAP1 SWAP6 MSTORE SWAP7 SWAP1 SWAP5 KECCAK256 DUP6 MLOAD DUP2 SLOAD SWAP4 MLOAD PUSH2 0xFFFF NOT SWAP1 SWAP5 AND SWAP1 ISZERO ISZERO PUSH2 0xFF00 NOT AND OR PUSH2 0x100 SWAP4 ISZERO ISZERO SWAP4 SWAP1 SWAP4 MUL SWAP3 SWAP1 SWAP3 OR DUP3 SSTORE MLOAD PUSH1 0x1 DUP3 ADD SSTORE SWAP4 MLOAD PUSH1 0x2 DUP6 ADD DUP1 SLOAD PUSH1 0x1 PUSH1 0x1 PUSH1 0xA0 SHL SUB NOT DUP2 AND SWAP3 SWAP1 SWAP5 AND SWAP2 DUP3 OR DUP2 SSTORE SWAP2 MLOAD SWAP4 SWAP5 SWAP4 SWAP3 PUSH1 0x1 PUSH1 0x1 PUSH1 0xA8 SHL SUB NOT AND OR PUSH1 0x1 PUSH1 0xA0 SHL DUP4 DUP1 ISZERO PUSH2 0x13D1 JUMPI PUSH2 0x13D1 PUSH2 0x4281 JUMP JUMPDEST PUSH1 0x2 SLOAD PUSH1 0x1 PUSH1 0x1 PUSH1 0xA0 SHL SUB AND CALLER EQ DUP1 PUSH2 0x22F4 JUMPI POP PUSH1 0x3 SLOAD PUSH1 0x1 PUSH1 0x1 PUSH1 0xA0 SHL SUB AND CALLER EQ JUMPDEST PUSH2 0x2310 JUMPI PUSH1 0x40 MLOAD PUSH3 0x461BCD PUSH1 0xE5 SHL DUP2 MSTORE PUSH1 0x4 ADD PUSH2 0xC72 SWAP1 PUSH2 0x46F8 JUMP JUMPDEST PUSH2 0x2318 PUSH2 0x390A JUMP JUMPDEST PUSH2 0x2320 PUSH2 0x397F JUMP JUMPDEST PUSH0 DUP2 GT PUSH2 0x236F JUMPI PUSH1 0x40 MLOAD PUSH3 0x461BCD PUSH1 0xE5 SHL DUP2 MSTORE PUSH1 0x20 PUSH1 0x4 DUP3 ADD DUP2 SWAP1 MSTORE PUSH1 0x24 DUP3 ADD MSTORE PUSH32 0x4E6577206C696D6974206D7573742062652067726561746572207468616E2030 PUSH1 0x44 DUP3 ADD MSTORE PUSH1 0x64 ADD PUSH2 0xC72 JUMP JUMPDEST PUSH1 0x1A DUP1 SLOAD PUSH0 SWAP2 DUP3 PUSH2 0x237F DUP4 PUSH2 0x47AE JUMP JUMPDEST SWAP1 SWAP2 SSTORE POP PUSH1 0x40 DUP1 MLOAD PUSH1 0x60 DUP2 ADD DUP3 MSTORE DUP5 DUP2 MSTORE PUSH0 PUSH1 0x20 DUP1 DUP4 ADD DUP3 DUP2 MSTORE DUP4 DUP6 ADD DUP4 DUP2 MSTORE DUP7 DUP5 MSTORE PUSH1 0x1C SWAP1 SWAP3 MSTORE DUP5 DUP4 KECCAK256 SWAP4 MLOAD DUP5 SSTORE MLOAD PUSH1 0x1 SWAP4 DUP5 ADD DUP1 SLOAD SWAP3 MLOAD ISZERO ISZERO PUSH2 0x100 MUL PUSH2 0xFF00 NOT SWAP3 ISZERO ISZERO SWAP3 SWAP1 SWAP3 AND PUSH2 0xFFFF NOT SWAP1 SWAP4 AND SWAP3 SWAP1 SWAP3 OR OR SWAP1 SSTORE PUSH1 0x1B DUP1 SLOAD SWAP3 DUP4 ADD DUP2 SSTORE SWAP1 MSTORE PUSH32 0x3AD8AA4F87544323A9D1E5DD902F40C356527A7955687113DB5F9A85AD579DC1 ADD DUP3 SWAP1 SSTORE MLOAD SWAP1 SWAP2 POP DUP2 SWAP1 PUSH32 0xBBD6DDE3CB67245D4B03D4D943EC79E5FFEF413F610BFE77E41299DF9BCFC206 SWAP1 PUSH2 0x243C SWAP1 DUP6 DUP2 MSTORE PUSH1 0x20 ADD SWAP1 JUMP JUMPDEST PUSH1 0x40 MLOAD DUP1 SWAP2 SUB SWAP1 LOG2 POP PUSH2 0xEB4 PUSH1 0x1 DUP1 SSTORE JUMP JUMPDEST PUSH1 0x2 SLOAD PUSH1 0x1 PUSH1 0x1 PUSH1 0xA0 SHL SUB AND CALLER EQ DUP1 PUSH2 0x2471 JUMPI POP PUSH1 0x3 SLOAD PUSH1 0x1 PUSH1 0x1 PUSH1 0xA0 SHL SUB AND CALLER EQ JUMPDEST PUSH2 0x248D JUMPI PUSH1 0x40 MLOAD PUSH3 0x461BCD PUSH1 0xE5 SHL DUP2 MSTORE PUSH1 0x4 ADD PUSH2 0xC72 SWAP1 PUSH2 0x46F8 JUMP JUMPDEST DUP1 PUSH0 PUSH0 DUP3 DUP2 MSTORE PUSH1 0x11 PUSH1 0x20 MSTORE PUSH1 0x40 SWAP1 KECCAK256 SLOAD PUSH1 0xFF AND PUSH1 0x2 DUP2 GT ISZERO PUSH2 0x24B1 JUMPI PUSH2 0x24B1 PUSH2 0x4281 JUMP JUMPDEST EQ DUP1 PUSH2 0x24DE JUMPI POP PUSH1 0x1 PUSH0 DUP3 DUP2 MSTORE PUSH1 0x11 PUSH1 0x20 MSTORE PUSH1 0x40 SWAP1 KECCAK256 SLOAD PUSH1 0xFF AND PUSH1 0x2 DUP2 GT ISZERO PUSH2 0x24DC JUMPI PUSH2 0x24DC PUSH2 0x4281 JUMP JUMPDEST EQ JUMPDEST DUP1 PUSH2 0x250A JUMPI POP PUSH1 0x2 PUSH0 DUP3 DUP2 MSTORE PUSH1 0x11 PUSH1 0x20 MSTORE PUSH1 0x40 SWAP1 KECCAK256 SLOAD PUSH1 0xFF AND PUSH1 0x2 DUP2 GT ISZERO PUSH2 0x2508 JUMPI PUSH2 0x2508 PUSH2 0x4281 JUMP JUMPDEST EQ JUMPDEST PUSH2 0x2526 JUMPI PUSH1 0x40 MLOAD PUSH3 0x461BCD PUSH1 0xE5 SHL DUP2 MSTORE PUSH1 0x4 ADD PUSH2 0xC72 SWAP1 PUSH2 0x4804 JUMP JUMPDEST PUSH0 DUP3 DUP2 MSTORE PUSH1 0x11 PUSH1 0x20 MSTORE PUSH1 0x40 DUP1 DUP3 KECCAK256 DUP2 MLOAD PUSH2 0x100 DUP2 ADD SWAP1 SWAP3 MSTORE DUP1 SLOAD DUP6 SWAP4 SWAP3 SWAP2 SWAP1 DUP3 SWAP1 PUSH1 0xFF AND PUSH1 0x2 DUP2 GT ISZERO PUSH2 0x255B JUMPI PUSH2 0x255B PUSH2 0x4281 JUMP JUMPDEST PUSH1 0x2 DUP2 GT ISZERO PUSH2 0x256C JUMPI PUSH2 0x256C PUSH2 0x4281 JUMP JUMPDEST DUP2 MSTORE PUSH1 0x1 DUP3 ADD SLOAD PUSH1 0x20 DUP3 ADD MSTORE PUSH1 0x2 DUP1 DUP4 ADD SLOAD PUSH1 0x1 PUSH1 0x1 PUSH1 0xA0 SHL SUB SWAP1 DUP2 AND PUSH1 0x40 DUP5 ADD MSTORE PUSH1 0x3 DUP5 ADD SLOAD PUSH1 0x60 DUP5 ADD MSTORE PUSH1 0x4 DUP5 ADD SLOAD PUSH1 0x80 DUP5 ADD MSTORE PUSH1 0x5 SWAP1 SWAP4 ADD SLOAD DUP1 DUP5 AND PUSH1 0xA0 DUP5 ADD MSTORE PUSH1 0xFF PUSH1 0x1 PUSH1 0xA0 SHL DUP3 DIV DUP2 AND ISZERO ISZERO PUSH1 0xC0 DUP6 ADD MSTORE PUSH1 0x1 PUSH1 0xA8 SHL SWAP1 SWAP2 DIV AND ISZERO ISZERO PUSH1 0xE0 SWAP1 SWAP3 ADD SWAP2 SWAP1 SWAP2 MSTORE SLOAD SWAP2 SWAP3 POP CALLER SWAP2 AND EQ DUP1 ISZERO PUSH2 0x25EC JUMPI POP DUP1 PUSH1 0xC0 ADD MLOAD ISZERO JUMPDEST DUP1 PUSH2 0x260E JUMPI POP PUSH1 0x3 SLOAD PUSH1 0x1 PUSH1 0x1 PUSH1 0xA0 SHL SUB AND CALLER EQ DUP1 ISZERO PUSH2 0x260E JUMPI POP DUP1 PUSH1 0xE0 ADD MLOAD ISZERO JUMPDEST PUSH2 0x262A JUMPI PUSH1 0x40 MLOAD PUSH3 0x461BCD PUSH1 0xE5 SHL DUP2 MSTORE PUSH1 0x4 ADD PUSH2 0xC72 SWAP1 PUSH2 0x4833 JUMP JUMPDEST PUSH2 0x2632 PUSH2 0x390A JUMP JUMPDEST PUSH2 0x263A PUSH2 0x397F JUMP JUMPDEST PUSH0 DUP5 DUP2 MSTORE PUSH1 0x11 PUSH1 0x20 MSTORE PUSH1 0x40 SWAP1 KECCAK256 PUSH1 0x2 SLOAD PUSH1 0x1 PUSH1 0x1 PUSH1 0xA0 SHL SUB AND CALLER SUB PUSH2 0x2673 JUMPI PUSH1 0x5 DUP2 ADD DUP1 SLOAD PUSH1 0xFF PUSH1 0xA0 SHL NOT AND PUSH1 0x1 PUSH1 0xA0 SHL OR SWAP1 SSTORE PUSH2 0x269B JUMP JUMPDEST PUSH1 0x3 SLOAD PUSH1 0x1 PUSH1 0x1 PUSH1 0xA0 SHL SUB AND CALLER SUB PUSH2 0x269B JUMPI PUSH1 0x5 DUP2 ADD DUP1 SLOAD PUSH1 0xFF PUSH1 0xA8 SHL NOT AND PUSH1 0x1 PUSH1 0xA8 SHL OR SWAP1 SSTORE JUMPDEST PUSH1 0x5 DUP2 ADD SLOAD PUSH1 0x1 PUSH1 0xA0 SHL SWAP1 DIV PUSH1 0xFF AND DUP1 ISZERO PUSH2 0x26C1 JUMPI POP PUSH1 0x5 DUP2 ADD SLOAD PUSH1 0x1 PUSH1 0xA8 SHL SWAP1 DIV PUSH1 0xFF AND JUMPDEST ISZERO PUSH2 0x26CF JUMPI PUSH2 0x26CF DUP6 PUSH2 0x3DA7 JUMP JUMPDEST POP PUSH2 0x26D9 PUSH1 0x1 DUP1 SSTORE JUMP JUMPDEST POP POP POP POP JUMP JUMPDEST PUSH1 0x16 DUP2 DUP2 SLOAD DUP2 LT PUSH2 0xCA5 JUMPI PUSH0 DUP1 REVERT JUMPDEST PUSH1 0x40 DUP1 MLOAD PUSH2 0x100 DUP2 ADD DUP3 MSTORE PUSH0 DUP1 DUP3 MSTORE PUSH1 0x20 DUP3 ADD DUP2 SWAP1 MSTORE SWAP2 DUP2 ADD DUP3 SWAP1 MSTORE PUSH1 0x60 DUP2 ADD DUP3 SWAP1 MSTORE PUSH1 0x80 DUP2 ADD DUP3 SWAP1 MSTORE PUSH1 0xA0 DUP2 ADD DUP3 SWAP1 MSTORE PUSH1 0xC0 DUP2 ADD DUP3 SWAP1 MSTORE PUSH1 0xE0 DUP2 ADD SWAP2 SWAP1 SWAP2 MSTORE DUP2 PUSH0 PUSH0 DUP3 DUP2 MSTORE PUSH1 0x11 PUSH1 0x20 MSTORE PUSH1 0x40 SWAP1 KECCAK256 SLOAD PUSH1 0xFF AND PUSH1 0x2 DUP2 GT ISZERO PUSH2 0x2752 JUMPI PUSH2 0x2752 PUSH2 0x4281 JUMP JUMPDEST EQ DUP1 PUSH2 0x277F JUMPI POP PUSH1 0x1 PUSH0 DUP3 DUP2 MSTORE PUSH1 0x11 PUSH1 0x20 MSTORE PUSH1 0x40 SWAP1 KECCAK256 SLOAD PUSH1 0xFF AND PUSH1 0x2 DUP2 GT ISZERO PUSH2 0x277D JUMPI PUSH2 0x277D PUSH2 0x4281 JUMP JUMPDEST EQ JUMPDEST DUP1 PUSH2 0x27AB JUMPI POP PUSH1 0x2 PUSH0 DUP3 DUP2 MSTORE PUSH1 0x11 PUSH1 0x20 MSTORE PUSH1 0x40 SWAP1 KECCAK256 SLOAD PUSH1 0xFF AND PUSH1 0x2 DUP2 GT ISZERO PUSH2 0x27A9 JUMPI PUSH2 0x27A9 PUSH2 0x4281 JUMP JUMPDEST EQ JUMPDEST PUSH2 0x27C7 JUMPI PUSH1 0x40 MLOAD PUSH3 0x461BCD PUSH1 0xE5 SHL DUP2 MSTORE PUSH1 0x4 ADD PUSH2 0xC72 SWAP1 PUSH2 0x4804 JUMP JUMPDEST PUSH0 DUP4 DUP2 MSTORE PUSH1 0x11 PUSH1 0x20 MSTORE PUSH1 0x40 SWAP1 DUP2 SWAP1 KECCAK256 DUP2 MLOAD PUSH2 0x100 DUP2 ADD SWAP1 SWAP3 MSTORE DUP1 SLOAD DUP3 SWAP1 PUSH1 0xFF AND PUSH1 0x2 DUP2 GT ISZERO PUSH2 0x27F8 JUMPI PUSH2 0x27F8 PUSH2 0x4281 JUMP JUMPDEST PUSH1 0x2 DUP2 GT ISZERO PUSH2 0x2809 JUMPI PUSH2 0x2809 PUSH2 0x4281 JUMP JUMPDEST DUP2 MSTORE PUSH1 0x1 DUP3 ADD SLOAD PUSH1 0x20 DUP3 ADD MSTORE PUSH1 0x2 DUP3 ADD SLOAD PUSH1 0x1 PUSH1 0x1 PUSH1 0xA0 SHL SUB SWAP1 DUP2 AND PUSH1 0x40 DUP4 ADD MSTORE PUSH1 0x3 DUP4 ADD SLOAD PUSH1 0x60 DUP4 ADD MSTORE PUSH1 0x4 DUP4 ADD SLOAD PUSH1 0x80 DUP4 ADD MSTORE PUSH1 0x5 SWAP1 SWAP3 ADD SLOAD SWAP2 DUP3 AND PUSH1 0xA0 DUP3 ADD MSTORE PUSH1 0xFF PUSH1 0x1 PUSH1 0xA0 SHL DUP4 DIV DUP2 AND ISZERO ISZERO PUSH1 0xC0 DUP4 ADD MSTORE PUSH1 0x1 PUSH1 0xA8 SHL SWAP1 SWAP3 DIV SWAP1 SWAP2 AND ISZERO ISZERO PUSH1 0xE0 SWAP1 SWAP2 ADD MSTORE SWAP2 POP POP SWAP2 SWAP1 POP JUMP JUMPDEST PUSH1 0x2 SLOAD PUSH1 0x1 PUSH1 0x1 PUSH1 0xA0 SHL SUB AND CALLER EQ DUP1 PUSH2 0x289C JUMPI POP PUSH1 0x3 SLOAD PUSH1 0x1 PUSH1 0x1 PUSH1 0xA0 SHL SUB AND CALLER EQ JUMPDEST PUSH2 0x28B8 JUMPI PUSH1 0x40 MLOAD PUSH3 0x461BCD PUSH1 0xE5 SHL DUP2 MSTORE PUSH1 0x4 ADD PUSH2 0xC72 SWAP1 PUSH2 0x46F8 JUMP JUMPDEST PUSH2 0x28C0 PUSH2 0x390A JUMP JUMPDEST PUSH2 0x28C8 PUSH2 0x397F JUMP JUMPDEST PUSH0 DUP2 DUP2 MSTORE PUSH1 0x17 PUSH1 0x20 MSTORE PUSH1 0x40 SWAP1 KECCAK256 DUP1 SLOAD PUSH1 0x1 PUSH1 0x1 PUSH1 0xA0 SHL SUB AND PUSH2 0x28FC JUMPI PUSH1 0x40 MLOAD PUSH3 0x461BCD PUSH1 0xE5 SHL DUP2 MSTORE PUSH1 0x4 ADD PUSH2 0xC72 SWAP1 PUSH2 0x4804 JUMP JUMPDEST DUP1 SLOAD PUSH1 0x1 PUSH1 0xA0 SHL SWAP1 DIV PUSH1 0xFF AND ISZERO DUP1 PUSH2 0x291D JUMPI POP DUP1 SLOAD PUSH1 0x1 PUSH1 0xA8 SHL SWAP1 DIV PUSH1 0xFF AND ISZERO JUMPDEST PUSH2 0x2963 JUMPI PUSH1 0x40 MLOAD PUSH3 0x461BCD PUSH1 0xE5 SHL DUP2 MSTORE PUSH1 0x20 PUSH1 0x4 DUP3 ADD MSTORE PUSH1 0x17 PUSH1 0x24 DUP3 ADD MSTORE PUSH23 0x1058DD1A5BDB88185B1C9958591E48195E1958DD5D1959 PUSH1 0x4A SHL PUSH1 0x44 DUP3 ADD MSTORE PUSH1 0x64 ADD PUSH2 0xC72 JUMP JUMPDEST PUSH0 DUP3 DUP2 MSTORE PUSH1 0x17 PUSH1 0x20 MSTORE PUSH1 0x40 DUP2 KECCAK256 DUP1 SLOAD PUSH1 0x1 PUSH1 0x1 PUSH1 0xB0 SHL SUB NOT AND SWAP1 SSTORE JUMPDEST PUSH1 0x16 SLOAD DUP2 LT ISZERO PUSH2 0x2A23 JUMPI DUP3 PUSH1 0x16 DUP3 DUP2 SLOAD DUP2 LT PUSH2 0x299D JUMPI PUSH2 0x299D PUSH2 0x4746 JUMP JUMPDEST SWAP1 PUSH0 MSTORE PUSH1 0x20 PUSH0 KECCAK256 ADD SLOAD SUB PUSH2 0x2A1B JUMPI PUSH1 0x16 DUP1 SLOAD PUSH2 0x29BB SWAP1 PUSH1 0x1 SWAP1 PUSH2 0x476E JUMP JUMPDEST DUP2 SLOAD DUP2 LT PUSH2 0x29CB JUMPI PUSH2 0x29CB PUSH2 0x4746 JUMP JUMPDEST SWAP1 PUSH0 MSTORE PUSH1 0x20 PUSH0 KECCAK256 ADD SLOAD PUSH1 0x16 DUP3 DUP2 SLOAD DUP2 LT PUSH2 0x29E7 JUMPI PUSH2 0x29E7 PUSH2 0x4746 JUMP JUMPDEST PUSH0 SWAP2 DUP3 MSTORE PUSH1 0x20 SWAP1 SWAP2 KECCAK256 ADD SSTORE PUSH1 0x16 DUP1 SLOAD DUP1 PUSH2 0x2A03 JUMPI PUSH2 0x2A03 PUSH2 0x479A JUMP JUMPDEST PUSH1 0x1 SWAP1 SUB DUP2 DUP2 SWAP1 PUSH0 MSTORE PUSH1 0x20 PUSH0 KECCAK256 ADD PUSH0 SWAP1 SSTORE SWAP1 SSTORE PUSH2 0x2A23 JUMP JUMPDEST PUSH1 0x1 ADD PUSH2 0x297F JUMP JUMPDEST POP POP PUSH2 0xEB4 PUSH1 0x1 DUP1 SSTORE JUMP JUMPDEST CALLER PUSH0 SWAP1 DUP2 MSTORE PUSH1 0x14 PUSH1 0x20 MSTORE PUSH1 0x40 SWAP1 KECCAK256 SLOAD PUSH1 0xFF AND PUSH2 0x2A5C JUMPI PUSH1 0x40 MLOAD PUSH3 0x461BCD PUSH1 0xE5 SHL DUP2 MSTORE PUSH1 0x4 ADD PUSH2 0xC72 SWAP1 PUSH2 0x471E JUMP JUMPDEST PUSH2 0x2A64 PUSH2 0x390A JUMP JUMPDEST PUSH2 0x2A6C PUSH2 0x397F JUMP JUMPDEST PUSH1 0xC DUP1 SLOAD PUSH1 0x1 PUSH1 0x1 PUSH1 0xA0 SHL SUB NOT SWAP1 DUP2 AND PUSH1 0x1 PUSH1 0x1 PUSH1 0xA0 SHL SUB DUP9 DUP2 AND SWAP2 SWAP1 SWAP2 OR SWAP1 SWAP3 SSTORE PUSH1 0xD DUP1 SLOAD DUP3 AND DUP8 DUP5 AND OR SWAP1 SSTORE PUSH1 0xE DUP1 SLOAD DUP3 AND DUP7 DUP5 AND OR SWAP1 SSTORE PUSH1 0xF DUP1 SLOAD DUP3 AND DUP6 DUP5 AND OR SWAP1 SSTORE PUSH1 0x10 DUP1 SLOAD SWAP1 SWAP2 AND SWAP2 DUP4 AND SWAP2 SWAP1 SWAP2 OR SWAP1 SSTORE PUSH1 0x1 DUP1 SSTORE POP POP POP POP POP JUMP JUMPDEST PUSH1 0x2 SLOAD PUSH1 0x1 PUSH1 0x1 PUSH1 0xA0 SHL SUB AND CALLER EQ DUP1 PUSH2 0x2AF0 JUMPI POP PUSH1 0x3 SLOAD PUSH1 0x1 PUSH1 0x1 PUSH1 0xA0 SHL SUB AND CALLER EQ JUMPDEST PUSH2 0x2B0C JUMPI PUSH1 0x40 MLOAD PUSH3 0x461BCD PUSH1 0xE5 SHL DUP2 MSTORE PUSH1 0x4 ADD PUSH2 0xC72 SWAP1 PUSH2 0x46F8 JUMP JUMPDEST PUSH2 0x2B14 PUSH2 0x390A JUMP JUMPDEST PUSH2 0x2B1C PUSH2 0x397F JUMP JUMPDEST PUSH1 0x12 DUP1 SLOAD PUSH0 SWAP2 DUP3 PUSH2 0x2B2C DUP4 PUSH2 0x47AE JUMP JUMPDEST SWAP1 SWAP2 SSTORE POP PUSH1 0x40 DUP1 MLOAD PUSH2 0x100 DUP2 ADD SWAP1 SWAP2 MSTORE SWAP1 SWAP2 POP DUP1 PUSH1 0x2 DUP2 MSTORE PUSH0 PUSH1 0x20 DUP1 DUP4 ADD DUP3 SWAP1 MSTORE PUSH1 0x40 DUP1 DUP5 ADD DUP4 SWAP1 MSTORE PUSH1 0x60 DUP5 ADD DUP4 SWAP1 MSTORE PUSH1 0x80 DUP5 ADD DUP8 SWAP1 MSTORE ADDRESS PUSH1 0xA0 DUP6 ADD MSTORE PUSH1 0xC0 DUP5 ADD DUP4 SWAP1 MSTORE PUSH1 0xE0 SWAP1 SWAP4 ADD DUP3 SWAP1 MSTORE DUP5 DUP3 MSTORE PUSH1 0x11 SWAP1 MSTORE KECCAK256 DUP2 MLOAD DUP2 SLOAD DUP3 SWAP1 PUSH1 0xFF NOT AND PUSH1 0x1 DUP4 PUSH1 0x2 DUP2 GT ISZERO PUSH2 0x1D03 JUMPI PUSH2 0x1D03 PUSH2 0x4281 JUMP JUMPDEST PUSH0 PUSH0 PUSH0 PUSH0 PUSH0 DUP6 PUSH0 SUB PUSH2 0x2BC2 JUMPI PUSH1 0x40 MLOAD PUSH3 0x461BCD PUSH1 0xE5 SHL DUP2 MSTORE PUSH1 0x4 ADD PUSH2 0xC72 SWAP1 PUSH2 0x47C6 JUMP JUMPDEST PUSH0 DUP7 DUP2 MSTORE PUSH1 0x18 PUSH1 0x20 MSTORE PUSH1 0x40 SWAP1 KECCAK256 PUSH1 0x3 ADD SLOAD DUP7 SWAP1 SUB PUSH2 0x2C9A JUMPI PUSH0 DUP7 DUP2 MSTORE PUSH1 0x18 PUSH1 0x20 SWAP1 DUP2 MSTORE PUSH1 0x40 DUP1 DUP4 KECCAK256 DUP2 MLOAD PUSH1 0xC0 DUP2 ADD DUP4 MSTORE DUP2 SLOAD PUSH1 0xFF DUP1 DUP3 AND ISZERO ISZERO DUP4 MSTORE PUSH2 0x100 SWAP1 SWAP2 DIV DUP2 AND ISZERO ISZERO SWAP5 DUP3 ADD SWAP5 SWAP1 SWAP5 MSTORE PUSH1 0x1 DUP3 ADD SLOAD SWAP3 DUP2 ADD SWAP3 SWAP1 SWAP3 MSTORE PUSH1 0x2 DUP1 DUP3 ADD SLOAD PUSH1 0x1 PUSH1 0x1 PUSH1 0xA0 SHL SUB DUP2 AND PUSH1 0x60 DUP6 ADD MSTORE SWAP3 SWAP4 SWAP2 SWAP3 PUSH1 0x80 DUP6 ADD SWAP3 PUSH1 0x1 PUSH1 0xA0 SHL SWAP1 SWAP2 DIV AND SWAP1 DUP2 GT ISZERO PUSH2 0x2C51 JUMPI PUSH2 0x2C51 PUSH2 0x4281 JUMP JUMPDEST PUSH1 0x2 DUP2 GT ISZERO PUSH2 0x2C62 JUMPI PUSH2 0x2C62 PUSH2 0x4281 JUMP JUMPDEST DUP2 MSTORE PUSH1 0x20 ADD PUSH1 0x3 DUP3 ADD SLOAD DUP2 MSTORE POP POP SWAP1 POP DUP1 PUSH0 ADD MLOAD DUP2 PUSH1 0x20 ADD MLOAD DUP3 PUSH1 0x40 ADD MLOAD DUP4 PUSH1 0x60 ADD MLOAD DUP5 PUSH1 0xA0 ADD MLOAD SWAP6 POP SWAP6 POP SWAP6 POP SWAP6 POP SWAP6 POP POP PUSH2 0x2D6E JUMP JUMPDEST PUSH0 DUP7 DUP2 MSTORE PUSH1 0x19 PUSH1 0x20 MSTORE PUSH1 0x40 SWAP1 KECCAK256 PUSH1 0x3 ADD SLOAD DUP7 SWAP1 SUB PUSH2 0x2D34 JUMPI PUSH0 DUP7 DUP2 MSTORE PUSH1 0x19 PUSH1 0x20 SWAP1 DUP2 MSTORE PUSH1 0x40 DUP1 DUP4 KECCAK256 DUP2 MLOAD PUSH1 0xC0 DUP2 ADD DUP4 MSTORE DUP2 SLOAD PUSH1 0xFF DUP1 DUP3 AND ISZERO ISZERO DUP4 MSTORE PUSH2 0x100 SWAP1 SWAP2 DIV DUP2 AND ISZERO ISZERO SWAP5 DUP3 ADD SWAP5 SWAP1 SWAP5 MSTORE PUSH1 0x1 DUP3 ADD SLOAD SWAP3 DUP2 ADD SWAP3 SWAP1 SWAP3 MSTORE PUSH1 0x2 DUP2 ADD SLOAD PUSH1 0x1 PUSH1 0x1 PUSH1 0xA0 SHL SUB DUP2 AND PUSH1 0x60 DUP5 ADD MSTORE SWAP2 SWAP3 SWAP1 SWAP2 PUSH1 0x80 DUP5 ADD SWAP2 PUSH1 0x1 PUSH1 0xA0 SHL SWAP1 SWAP2 DIV AND DUP1 ISZERO PUSH2 0x2D26 JUMPI PUSH2 0x2D26 PUSH2 0x4281 JUMP JUMPDEST DUP1 ISZERO PUSH2 0x2C62 JUMPI PUSH2 0x2C62 PUSH2 0x4281 JUMP JUMPDEST PUSH1 0x40 MLOAD PUSH3 0x461BCD PUSH1 0xE5 SHL DUP2 MSTORE PUSH1 0x20 PUSH1 0x4 DUP3 ADD MSTORE PUSH1 0xF PUSH1 0x24 DUP3 ADD MSTORE PUSH15 0x13DC99195C881B9BDD08199BDD5B99 PUSH1 0x8A SHL PUSH1 0x44 DUP3 ADD MSTORE PUSH1 0x64 ADD PUSH2 0xC72 JUMP JUMPDEST SWAP2 SWAP4 SWAP6 SWAP1 SWAP3 SWAP5 POP JUMP JUMPDEST PUSH1 0x2 SLOAD PUSH1 0x1 PUSH1 0x1 PUSH1 0xA0 SHL SUB AND CALLER EQ DUP1 PUSH2 0x2D9A JUMPI POP PUSH1 0x3 SLOAD PUSH1 0x1 PUSH1 0x1 PUSH1 0xA0 SHL SUB AND CALLER EQ JUMPDEST PUSH2 0x2DB6 JUMPI PUSH1 0x40 MLOAD PUSH3 0x461BCD PUSH1 0xE5 SHL DUP2 MSTORE PUSH1 0x4 ADD PUSH2 0xC72 SWAP1 PUSH2 0x46F8 JUMP JUMPDEST DUP1 PUSH0 PUSH0 DUP3 DUP2 MSTORE PUSH1 0x11 PUSH1 0x20 MSTORE PUSH1 0x40 SWAP1 KECCAK256 SLOAD PUSH1 0xFF AND PUSH1 0x2 DUP2 GT ISZERO PUSH2 0x2DDA JUMPI PUSH2 0x2DDA PUSH2 0x4281 JUMP JUMPDEST EQ DUP1 PUSH2 0x2E07 JUMPI POP PUSH1 0x1 PUSH0 DUP3 DUP2 MSTORE PUSH1 0x11 PUSH1 0x20 MSTORE PUSH1 0x40 SWAP1 KECCAK256 SLOAD PUSH1 0xFF AND PUSH1 0x2 DUP2 GT ISZERO PUSH2 0x2E05 JUMPI PUSH2 0x2E05 PUSH2 0x4281 JUMP JUMPDEST EQ JUMPDEST DUP1 PUSH2 0x2E33 JUMPI POP PUSH1 0x2 PUSH0 DUP3 DUP2 MSTORE PUSH1 0x11 PUSH1 0x20 MSTORE PUSH1 0x40 SWAP1 KECCAK256 SLOAD PUSH1 0xFF AND PUSH1 0x2 DUP2 GT ISZERO PUSH2 0x2E31 JUMPI PUSH2 0x2E31 PUSH2 0x4281 JUMP JUMPDEST EQ JUMPDEST PUSH2 0x2E4F JUMPI PUSH1 0x40 MLOAD PUSH3 0x461BCD PUSH1 0xE5 SHL DUP2 MSTORE PUSH1 0x4 ADD PUSH2 0xC72 SWAP1 PUSH2 0x4804 JUMP JUMPDEST PUSH2 0x2E57 PUSH2 0x390A JUMP JUMPDEST PUSH2 0x2E5F PUSH2 0x397F JUMP JUMPDEST PUSH0 DUP3 DUP2 MSTORE PUSH1 0x11 PUSH1 0x20 MSTORE PUSH1 0x40 DUP2 KECCAK256 DUP1 SLOAD PUSH1 0xFF NOT AND DUP2 SSTORE PUSH1 0x1 DUP2 ADD DUP3 SWAP1 SSTORE PUSH1 0x2 DUP2 ADD DUP1 SLOAD PUSH1 0x1 PUSH1 0x1 PUSH1 0xA0 SHL SUB NOT AND SWAP1 SSTORE PUSH1 0x3 DUP2 ADD DUP3 SWAP1 SSTORE PUSH1 0x4 DUP2 ADD DUP3 SWAP1 SSTORE PUSH1 0x5 ADD DUP1 SLOAD PUSH1 0x1 PUSH1 0x1 PUSH1 0xB0 SHL SUB NOT AND SWAP1 SSTORE JUMPDEST PUSH1 0x13 SLOAD DUP2 LT ISZERO PUSH2 0x2F51 JUMPI DUP3 PUSH1 0x13 DUP3 DUP2 SLOAD DUP2 LT PUSH2 0x2ECB JUMPI PUSH2 0x2ECB PUSH2 0x4746 JUMP JUMPDEST SWAP1 PUSH0 MSTORE PUSH1 0x20 PUSH0 KECCAK256 ADD SLOAD SUB PUSH2 0x2F49 JUMPI PUSH1 0x13 DUP1 SLOAD PUSH2 0x2EE9 SWAP1 PUSH1 0x1 SWAP1 PUSH2 0x476E JUMP JUMPDEST DUP2 SLOAD DUP2 LT PUSH2 0x2EF9 JUMPI PUSH2 0x2EF9 PUSH2 0x4746 JUMP JUMPDEST SWAP1 PUSH0 MSTORE PUSH1 0x20 PUSH0 KECCAK256 ADD SLOAD PUSH1 0x13 DUP3 DUP2 SLOAD DUP2 LT PUSH2 0x2F15 JUMPI PUSH2 0x2F15 PUSH2 0x4746 JUMP JUMPDEST PUSH0 SWAP2 DUP3 MSTORE PUSH1 0x20 SWAP1 SWAP2 KECCAK256 ADD SSTORE PUSH1 0x13 DUP1 SLOAD DUP1 PUSH2 0x2F31 JUMPI PUSH2 0x2F31 PUSH2 0x479A JUMP JUMPDEST PUSH1 0x1 SWAP1 SUB DUP2 DUP2 SWAP1 PUSH0 MSTORE PUSH1 0x20 PUSH0 KECCAK256 ADD PUSH0 SWAP1 SSTORE SWAP1 SSTORE PUSH2 0x2F51 JUMP JUMPDEST PUSH1 0x1 ADD PUSH2 0x2EAD JUMP JUMPDEST POP PUSH2 0xD1E PUSH1 0x1 DUP1 SSTORE JUMP JUMPDEST PUSH1 0x2 SLOAD PUSH1 0x1 PUSH1 0x1 PUSH1 0xA0 SHL SUB AND CALLER EQ DUP1 PUSH2 0x2F7E JUMPI POP PUSH1 0x3 SLOAD PUSH1 0x1 PUSH1 0x1 PUSH1 0xA0 SHL SUB AND CALLER EQ JUMPDEST PUSH2 0x2F9A JUMPI PUSH1 0x40 MLOAD PUSH3 0x461BCD PUSH1 0xE5 SHL DUP2 MSTORE PUSH1 0x4 ADD PUSH2 0xC72 SWAP1 PUSH2 0x46F8 JUMP JUMPDEST PUSH2 0x2FA2 PUSH2 0x390A JUMP JUMPDEST PUSH2 0x2FAA PUSH2 0x397F JUMP JUMPDEST PUSH0 DUP2 DUP2 MSTORE PUSH1 0x18 PUSH1 0x20 MSTORE PUSH1 0x40 SWAP1 KECCAK256 PUSH1 0x3 ADD SLOAD DUP2 SWAP1 SUB PUSH2 0x33E7 JUMPI PUSH0 DUP2 DUP2 MSTORE PUSH1 0x18 PUSH1 0x20 MSTORE PUSH1 0x40 SWAP1 KECCAK256 DUP1 SLOAD PUSH1 0xFF AND DUP1 ISZERO PUSH2 0x2FE6 JUMPI POP DUP1 SLOAD PUSH2 0x100 SWAP1 DIV PUSH1 0xFF AND JUMPDEST PUSH2 0x3002 JUMPI PUSH1 0x40 MLOAD PUSH3 0x461BCD PUSH1 0xE5 SHL DUP2 MSTORE PUSH1 0x4 ADD PUSH2 0xC72 SWAP1 PUSH2 0x4879 JUMP JUMPDEST PUSH0 PUSH1 0x2 DUP3 DUP2 ADD SLOAD PUSH1 0x1 PUSH1 0xA0 SHL SWAP1 DIV PUSH1 0xFF AND SWAP1 DUP2 GT ISZERO PUSH2 0x3023 JUMPI PUSH2 0x3023 PUSH2 0x4281 JUMP JUMPDEST SUB PUSH2 0x30BC JUMPI DUP1 PUSH1 0x1 ADD SLOAD SELFBALANCE LT ISZERO PUSH2 0x3079 JUMPI PUSH1 0x40 MLOAD PUSH3 0x461BCD PUSH1 0xE5 SHL DUP2 MSTORE PUSH1 0x20 PUSH1 0x4 DUP3 ADD MSTORE PUSH1 0x1A PUSH1 0x24 DUP3 ADD MSTORE PUSH26 0x496E73756666696369656E742045746865722062616C616E6365 PUSH1 0x30 SHL PUSH1 0x44 DUP3 ADD MSTORE PUSH1 0x64 ADD PUSH2 0xC72 JUMP JUMPDEST PUSH1 0x2 DUP2 ADD SLOAD PUSH1 0x1 DUP3 ADD SLOAD PUSH1 0x40 MLOAD PUSH1 0x1 PUSH1 0x1 PUSH1 0xA0 SHL SUB SWAP1 SWAP3 AND SWAP2 DUP2 ISZERO PUSH2 0x8FC MUL SWAP2 SWAP1 PUSH0 DUP2 DUP2 DUP2 DUP6 DUP9 DUP9 CALL SWAP4 POP POP POP POP ISZERO DUP1 ISZERO PUSH2 0x30B6 JUMPI RETURNDATASIZE PUSH0 PUSH0 RETURNDATACOPY RETURNDATASIZE PUSH0 REVERT JUMPDEST POP PUSH2 0x33AE JUMP JUMPDEST PUSH1 0x1 PUSH1 0x2 DUP3 DUP2 ADD SLOAD PUSH1 0x1 PUSH1 0xA0 SHL SWAP1 DIV PUSH1 0xFF AND SWAP1 DUP2 GT ISZERO PUSH2 0x30DE JUMPI PUSH2 0x30DE PUSH2 0x4281 JUMP JUMPDEST SUB PUSH2 0x320C JUMPI PUSH1 0x1 DUP2 ADD SLOAD PUSH1 0x4 DUP1 SLOAD PUSH1 0x40 MLOAD PUSH4 0x70A08231 PUSH1 0xE0 SHL DUP2 MSTORE PUSH1 0x1 PUSH1 0x1 PUSH1 0xA0 SHL SUB SWAP1 SWAP2 AND SWAP2 PUSH4 0x70A08231 SWAP2 PUSH2 0x3117 SWAP2 ADDRESS SWAP2 ADD PUSH2 0x4141 JUMP JUMPDEST PUSH1 0x20 PUSH1 0x40 MLOAD DUP1 DUP4 SUB DUP2 DUP7 GAS STATICCALL ISZERO DUP1 ISZERO PUSH2 0x3132 JUMPI RETURNDATASIZE PUSH0 PUSH0 RETURNDATACOPY RETURNDATASIZE PUSH0 REVERT JUMPDEST POP POP POP POP PUSH1 0x40 MLOAD RETURNDATASIZE PUSH1 0x1F NOT PUSH1 0x1F DUP3 ADD AND DUP3 ADD DUP1 PUSH1 0x40 MSTORE POP DUP2 ADD SWAP1 PUSH2 0x3156 SWAP2 SWAP1 PUSH2 0x48AE JUMP JUMPDEST LT ISZERO PUSH2 0x31A0 JUMPI PUSH1 0x40 MLOAD PUSH3 0x461BCD PUSH1 0xE5 SHL DUP2 MSTORE PUSH1 0x20 PUSH1 0x4 DUP3 ADD MSTORE PUSH1 0x19 PUSH1 0x24 DUP3 ADD MSTORE PUSH25 0x496E73756666696369656E7420555344542062616C616E6365 PUSH1 0x38 SHL PUSH1 0x44 DUP3 ADD MSTORE PUSH1 0x64 ADD PUSH2 0xC72 JUMP JUMPDEST PUSH1 0x4 DUP1 SLOAD PUSH1 0x2 DUP4 ADD SLOAD PUSH1 0x1 DUP5 ADD SLOAD PUSH1 0x40 MLOAD PUSH4 0xA9059CBB PUSH1 0xE0 SHL DUP2 MSTORE PUSH1 0x1 PUSH1 0x1 PUSH1 0xA0 SHL SUB SWAP4 DUP5 AND SWAP5 PUSH4 0xA9059CBB SWAP5 PUSH2 0x31DA SWAP5 AND SWAP3 SWAP2 ADD PUSH2 0x48C5 JUMP JUMPDEST PUSH0 PUSH1 0x40 MLOAD DUP1 DUP4 SUB DUP2 PUSH0 DUP8 DUP1 EXTCODESIZE ISZERO DUP1 ISZERO PUSH2 0x31F1 JUMPI PUSH0 PUSH0 REVERT JUMPDEST POP GAS CALL ISZERO DUP1 ISZERO PUSH2 0x3203 JUMPI RETURNDATASIZE PUSH0 PUSH0 RETURNDATACOPY RETURNDATASIZE PUSH0 REVERT JUMPDEST POP POP POP POP PUSH2 0x33AE JUMP JUMPDEST PUSH1 0x2 DUP1 DUP3 DUP2 ADD SLOAD PUSH1 0x1 PUSH1 0xA0 SHL SWAP1 DIV PUSH1 0xFF AND SWAP1 DUP2 GT ISZERO PUSH2 0x322D JUMPI PUSH2 0x322D PUSH2 0x4281 JUMP JUMPDEST SUB PUSH2 0x33AE JUMPI PUSH1 0x1 DUP2 ADD SLOAD PUSH1 0x5 SLOAD PUSH1 0x40 MLOAD PUSH4 0x70A08231 PUSH1 0xE0 SHL DUP2 MSTORE PUSH1 0x1 PUSH1 0x1 PUSH1 0xA0 SHL SUB SWAP1 SWAP2 AND SWAP1 PUSH4 0x70A08231 SWAP1 PUSH2 0x3267 SWAP1 ADDRESS SWAP1 PUSH1 0x4 ADD PUSH2 0x4141 JUMP JUMPDEST PUSH1 0x20 PUSH1 0x40 MLOAD DUP1 DUP4 SUB DUP2 DUP7 GAS STATICCALL ISZERO DUP1 ISZERO PUSH2 0x3282 JUMPI RETURNDATASIZE PUSH0 PUSH0 RETURNDATACOPY RETURNDATASIZE PUSH0 REVERT JUMPDEST POP POP POP POP PUSH1 0x40 MLOAD RETURNDATASIZE PUSH1 0x1F NOT PUSH1 0x1F DUP3 ADD AND DUP3 ADD DUP1 PUSH1 0x40 MSTORE POP DUP2 ADD SWAP1 PUSH2 0x32A6 SWAP2 SWAP1 PUSH2 0x48AE JUMP JUMPDEST LT ISZERO PUSH2 0x32F0 JUMPI PUSH1 0x40 MLOAD PUSH3 0x461BCD PUSH1 0xE5 SHL DUP2 MSTORE PUSH1 0x20 PUSH1 0x4 DUP3 ADD MSTORE PUSH1 0x19 PUSH1 0x24 DUP3 ADD MSTORE PUSH25 0x496E73756666696369656E7420555344432062616C616E6365 PUSH1 0x38 SHL PUSH1 0x44 DUP3 ADD MSTORE PUSH1 0x64 ADD PUSH2 0xC72 JUMP JUMPDEST PUSH1 0x5 SLOAD PUSH1 0x2 DUP3 ADD SLOAD PUSH1 0x1 DUP4 ADD SLOAD PUSH1 0x40 MLOAD PUSH4 0xA9059CBB PUSH1 0xE0 SHL DUP2 MSTORE PUSH1 0x1 PUSH1 0x1 PUSH1 0xA0 SHL SUB SWAP4 DUP5 AND SWAP4 PUSH4 0xA9059CBB SWAP4 PUSH2 0x332B SWAP4 SWAP2 AND SWAP2 PUSH1 0x4 ADD PUSH2 0x48C5 JUMP JUMPDEST PUSH1 0x20 PUSH1 0x40 MLOAD DUP1 DUP4 SUB DUP2 PUSH0 DUP8 GAS CALL ISZERO DUP1 ISZERO PUSH2 0x3347 JUMPI RETURNDATASIZE PUSH0 PUSH0 RETURNDATACOPY RETURNDATASIZE PUSH0 REVERT JUMPDEST POP POP POP POP PUSH1 0x40 MLOAD RETURNDATASIZE PUSH1 0x1F NOT PUSH1 0x1F DUP3 ADD AND DUP3 ADD DUP1 PUSH1 0x40 MSTORE POP DUP2 ADD SWAP1 PUSH2 0x336B SWAP2 SWAP1 PUSH2 0x48DE JUMP JUMPDEST PUSH2 0x33AE JUMPI PUSH1 0x40 MLOAD PUSH3 0x461BCD PUSH1 0xE5 SHL DUP2 MSTORE PUSH1 0x20 PUSH1 0x4 DUP3 ADD MSTORE PUSH1 0x14 PUSH1 0x24 DUP3 ADD MSTORE PUSH20 0x1554D110C81D1C985B9CD9995C8819985A5B1959 PUSH1 0x62 SHL PUSH1 0x44 DUP3 ADD MSTORE PUSH1 0x64 ADD PUSH2 0xC72 JUMP JUMPDEST POP PUSH0 DUP2 DUP2 MSTORE PUSH1 0x18 PUSH1 0x20 MSTORE PUSH1 0x40 DUP2 KECCAK256 DUP1 SLOAD PUSH2 0xFFFF NOT AND DUP2 SSTORE PUSH1 0x1 DUP2 ADD DUP3 SWAP1 SSTORE PUSH1 0x2 DUP2 ADD DUP1 SLOAD PUSH1 0x1 PUSH1 0x1 PUSH1 0xA8 SHL SUB NOT AND SWAP1 SSTORE PUSH1 0x3 ADD SSTORE PUSH2 0x1563 JUMP JUMPDEST PUSH0 DUP2 DUP2 MSTORE PUSH1 0x19 PUSH1 0x20 MSTORE PUSH1 0x40 SWAP1 KECCAK256 PUSH1 0x3 ADD SLOAD DUP2 SWAP1 SUB PUSH2 0x35FD JUMPI PUSH0 DUP2 DUP2 MSTORE PUSH1 0x19 PUSH1 0x20 MSTORE PUSH1 0x40 SWAP1 KECCAK256 DUP1 SLOAD PUSH1 0xFF AND DUP1 ISZERO PUSH2 0x3423 JUMPI POP DUP1 SLOAD PUSH2 0x100 SWAP1 DIV PUSH1 0xFF AND JUMPDEST PUSH2 0x343F JUMPI PUSH1 0x40 MLOAD PUSH3 0x461BCD PUSH1 0xE5 SHL DUP2 MSTORE PUSH1 0x4 ADD PUSH2 0xC72 SWAP1 PUSH2 0x4879 JUMP JUMPDEST PUSH1 0x1 DUP2 ADD SLOAD PUSH1 0x7 SLOAD PUSH1 0x40 MLOAD PUSH4 0x70A08231 PUSH1 0xE0 SHL DUP2 MSTORE PUSH1 0x1 PUSH1 0x1 PUSH1 0xA0 SHL SUB SWAP1 SWAP2 AND SWAP1 PUSH4 0x70A08231 SWAP1 PUSH2 0x3474 SWAP1 ADDRESS SWAP1 PUSH1 0x4 ADD PUSH2 0x4141 JUMP JUMPDEST PUSH1 0x20 PUSH1 0x40 MLOAD DUP1 DUP4 SUB DUP2 DUP7 GAS STATICCALL ISZERO DUP1 ISZERO PUSH2 0x348F JUMPI RETURNDATASIZE PUSH0 PUSH0 RETURNDATACOPY RETURNDATASIZE PUSH0 REVERT JUMPDEST POP POP POP POP PUSH1 0x40 MLOAD RETURNDATASIZE PUSH1 0x1F NOT PUSH1 0x1F DUP3 ADD AND DUP3 ADD DUP1 PUSH1 0x40 MSTORE POP DUP2 ADD SWAP1 PUSH2 0x34B3 SWAP2 SWAP1 PUSH2 0x48AE JUMP JUMPDEST LT ISZERO PUSH2 0x3501 JUMPI PUSH1 0x40 MLOAD PUSH3 0x461BCD PUSH1 0xE5 SHL DUP2 MSTORE PUSH1 0x20 PUSH1 0x4 DUP3 ADD MSTORE PUSH1 0x1E PUSH1 0x24 DUP3 ADD MSTORE PUSH32 0x496E73756666696369656E74204E69636B656C69756D2062616C616E63650000 PUSH1 0x44 DUP3 ADD MSTORE PUSH1 0x64 ADD PUSH2 0xC72 JUMP JUMPDEST PUSH1 0x7 SLOAD PUSH1 0x2 DUP3 ADD SLOAD PUSH1 0x1 DUP4 ADD SLOAD PUSH1 0x40 MLOAD PUSH4 0xA9059CBB PUSH1 0xE0 SHL DUP2 MSTORE PUSH1 0x1 PUSH1 0x1 PUSH1 0xA0 SHL SUB SWAP4 DUP5 AND SWAP4 PUSH4 0xA9059CBB SWAP4 PUSH2 0x353C SWAP4 SWAP2 AND SWAP2 PUSH1 0x4 ADD PUSH2 0x48C5 JUMP JUMPDEST PUSH1 0x20 PUSH1 0x40 MLOAD DUP1 DUP4 SUB DUP2 PUSH0 DUP8 GAS CALL ISZERO DUP1 ISZERO PUSH2 0x3558 JUMPI RETURNDATASIZE PUSH0 PUSH0 RETURNDATACOPY RETURNDATASIZE PUSH0 REVERT JUMPDEST POP POP POP POP PUSH1 0x40 MLOAD RETURNDATASIZE PUSH1 0x1F NOT PUSH1 0x1F DUP3 ADD AND DUP3 ADD DUP1 PUSH1 0x40 MSTORE POP DUP2 ADD SWAP1 PUSH2 0x357C SWAP2 SWAP1 PUSH2 0x48DE JUMP JUMPDEST PUSH2 0x35C4 JUMPI PUSH1 0x40 MLOAD PUSH3 0x461BCD PUSH1 0xE5 SHL DUP2 MSTORE PUSH1 0x20 PUSH1 0x4 DUP3 ADD MSTORE PUSH1 0x19 PUSH1 0x24 DUP3 ADD MSTORE PUSH25 0x139A58DAD95B1A5D5B481D1C985B9CD9995C8819985A5B1959 PUSH1 0x3A SHL PUSH1 0x44 DUP3 ADD MSTORE PUSH1 0x64 ADD PUSH2 0xC72 JUMP JUMPDEST POP PUSH0 DUP2 DUP2 MSTORE PUSH1 0x19 PUSH1 0x20 MSTORE PUSH1 0x40 DUP2 KECCAK256 DUP1 SLOAD PUSH2 0xFFFF NOT AND DUP2 SSTORE PUSH1 0x1 DUP2 ADD DUP3 SWAP1 SSTORE PUSH1 0x2 DUP2 ADD DUP1 SLOAD PUSH1 0x1 PUSH1 0x1 PUSH1 0xA8 SHL SUB NOT AND SWAP1 SSTORE PUSH1 0x3 ADD SSTORE PUSH2 0x1563 JUMP JUMPDEST PUSH1 0x40 MLOAD PUSH3 0x461BCD PUSH1 0xE5 SHL DUP2 MSTORE PUSH1 0x20 PUSH1 0x4 DUP3 ADD MSTORE PUSH1 0x23 PUSH1 0x24 DUP3 ADD MSTORE PUSH32 0x4E6F207472616E7366657220666F756E6420776974682074686973206F726465 PUSH1 0x44 DUP3 ADD MSTORE PUSH3 0x1C9251 PUSH1 0xEA SHL PUSH1 0x64 DUP3 ADD MSTORE PUSH1 0x84 ADD PUSH2 0xC72 JUMP JUMPDEST PUSH1 0x60 DUP1 PUSH0 DUP1 JUMPDEST PUSH1 0x1B SLOAD DUP2 LT ISZERO PUSH2 0x36EC JUMPI PUSH0 PUSH1 0x1B DUP3 DUP2 SLOAD DUP2 LT PUSH2 0x3675 JUMPI PUSH2 0x3675 PUSH2 0x4746 JUMP JUMPDEST PUSH0 SWAP2 DUP3 MSTORE PUSH1 0x20 DUP1 DUP4 KECCAK256 SWAP1 SWAP2 ADD SLOAD DUP1 DUP4 MSTORE PUSH1 0x1C DUP3 MSTORE PUSH1 0x40 SWAP3 DUP4 SWAP1 KECCAK256 DUP4 MLOAD PUSH1 0x60 DUP2 ADD DUP6 MSTORE DUP2 SLOAD DUP2 MSTORE PUSH1 0x1 SWAP1 SWAP2 ADD SLOAD PUSH1 0xFF DUP1 DUP3 AND ISZERO DUP1 ISZERO SWAP6 DUP5 ADD SWAP6 SWAP1 SWAP6 MSTORE PUSH2 0x100 SWAP1 SWAP2 DIV AND ISZERO ISZERO SWAP4 DUP2 ADD SWAP4 SWAP1 SWAP4 MSTORE SWAP3 POP DUP1 PUSH2 0x36CF JUMPI POP DUP1 PUSH1 0x40 ADD MLOAD ISZERO JUMPDEST ISZERO PUSH2 0x36E2 JUMPI DUP4 PUSH2 0x36DE DUP2 PUSH2 0x47AE JUMP JUMPDEST SWAP5 POP POP JUMPDEST POP POP PUSH1 0x1 ADD PUSH2 0x3657 JUMP JUMPDEST POP PUSH0 DUP2 PUSH1 0x1 PUSH1 0x1 PUSH1 0x40 SHL SUB DUP2 GT ISZERO PUSH2 0x3706 JUMPI PUSH2 0x3706 PUSH2 0x47F0 JUMP JUMPDEST PUSH1 0x40 MLOAD SWAP1 DUP1 DUP3 MSTORE DUP1 PUSH1 0x20 MUL PUSH1 0x20 ADD DUP3 ADD PUSH1 0x40 MSTORE DUP1 ISZERO PUSH2 0x372F JUMPI DUP2 PUSH1 0x20 ADD PUSH1 0x20 DUP3 MUL DUP1 CALLDATASIZE DUP4 CALLDATACOPY ADD SWAP1 POP JUMPDEST POP SWAP1 POP PUSH0 DUP3 PUSH1 0x1 PUSH1 0x1 PUSH1 0x40 SHL SUB DUP2 GT ISZERO PUSH2 0x374B JUMPI PUSH2 0x374B PUSH2 0x47F0 JUMP JUMPDEST PUSH1 0x40 MLOAD SWAP1 DUP1 DUP3 MSTORE DUP1 PUSH1 0x20 MUL PUSH1 0x20 ADD DUP3 ADD PUSH1 0x40 MSTORE DUP1 ISZERO PUSH2 0x3794 JUMPI DUP2 PUSH1 0x20 ADD JUMPDEST PUSH1 0x40 DUP1 MLOAD PUSH1 0x60 DUP2 ADD DUP3 MSTORE PUSH0 DUP1 DUP3 MSTORE PUSH1 0x20 DUP1 DUP4 ADD DUP3 SWAP1 MSTORE SWAP3 DUP3 ADD MSTORE DUP3 MSTORE PUSH0 NOT SWAP1 SWAP3 ADD SWAP2 ADD DUP2 PUSH2 0x3769 JUMPI SWAP1 POP JUMPDEST POP SWAP1 POP PUSH0 DUP1 JUMPDEST PUSH1 0x1B SLOAD DUP2 LT ISZERO PUSH2 0x21BE JUMPI PUSH0 PUSH1 0x1B DUP3 DUP2 SLOAD DUP2 LT PUSH2 0x37B8 JUMPI PUSH2 0x37B8 PUSH2 0x4746 JUMP JUMPDEST PUSH0 SWAP2 DUP3 MSTORE PUSH1 0x20 DUP1 DUP4 KECCAK256 SWAP1 SWAP2 ADD SLOAD DUP1 DUP4 MSTORE PUSH1 0x1C DUP3 MSTORE PUSH1 0x40 SWAP3 DUP4 SWAP1 KECCAK256 DUP4 MLOAD PUSH1 0x60 DUP2 ADD DUP6 MSTORE DUP2 SLOAD DUP2 MSTORE PUSH1 0x1 SWAP1 SWAP2 ADD SLOAD PUSH1 0xFF DUP1 DUP3 AND ISZERO DUP1 ISZERO SWAP6 DUP5 ADD SWAP6 SWAP1 SWAP6 MSTORE PUSH2 0x100 SWAP1 SWAP2 DIV AND ISZERO ISZERO SWAP4 DUP2 ADD SWAP4 SWAP1 SWAP4 MSTORE SWAP3 POP DUP1 PUSH2 0x3812 JUMPI POP DUP1 PUSH1 0x40 ADD MLOAD ISZERO JUMPDEST ISZERO PUSH2 0x3863 JUMPI DUP2 DUP7 DUP6 DUP2 MLOAD DUP2 LT PUSH2 0x382A JUMPI PUSH2 0x382A PUSH2 0x4746 JUMP JUMPDEST PUSH1 0x20 MUL PUSH1 0x20 ADD ADD DUP2 DUP2 MSTORE POP POP DUP1 DUP6 DUP6 DUP2 MLOAD DUP2 LT PUSH2 0x3849 JUMPI PUSH2 0x3849 PUSH2 0x4746 JUMP JUMPDEST PUSH1 0x20 MUL PUSH1 0x20 ADD ADD DUP2 SWAP1 MSTORE POP DUP4 DUP1 PUSH2 0x385F SWAP1 PUSH2 0x47AE JUMP JUMPDEST SWAP5 POP POP JUMPDEST POP POP PUSH1 0x1 ADD PUSH2 0x379A JUMP JUMPDEST PUSH1 0x2 SLOAD PUSH1 0x1 PUSH1 0x1 PUSH1 0xA0 SHL SUB AND CALLER EQ DUP1 PUSH2 0x3890 JUMPI POP PUSH1 0x3 SLOAD PUSH1 0x1 PUSH1 0x1 PUSH1 0xA0 SHL SUB AND CALLER EQ JUMPDEST PUSH2 0x38AC JUMPI PUSH1 0x40 MLOAD PUSH3 0x461BCD PUSH1 0xE5 SHL DUP2 MSTORE PUSH1 0x4 ADD PUSH2 0xC72 SWAP1 PUSH2 0x46F8 JUMP JUMPDEST PUSH2 0x38B4 PUSH2 0x390A JUMP JUMPDEST PUSH2 0x38BC PUSH2 0x397F JUMP JUMPDEST PUSH0 DUP2 DUP2 MSTORE PUSH1 0x18 PUSH1 0x20 MSTORE PUSH1 0x40 SWAP1 KECCAK256 PUSH1 0x2 SLOAD PUSH1 0x1 PUSH1 0x1 PUSH1 0xA0 SHL SUB AND CALLER SUB PUSH2 0x38E8 JUMPI DUP1 SLOAD PUSH1 0xFF NOT AND DUP2 SSTORE PUSH2 0xEAA JUMP JUMPDEST PUSH1 0x3 SLOAD PUSH1 0x1 PUSH1 0x1 PUSH1 0xA0 SHL SUB AND CALLER SUB PUSH2 0xEAA JUMPI DUP1 SLOAD PUSH2 0xFF00 NOT AND SWAP1 SSTORE PUSH1 0x1 DUP1 SSTORE POP JUMP JUMPDEST PUSH1 0x2 PUSH1 0x1 SLOAD SUB PUSH2 0x392D JUMPI PUSH1 0x40 MLOAD PUSH4 0x3EE5AEB5 PUSH1 0xE0 SHL DUP2 MSTORE PUSH1 0x4 ADD PUSH1 0x40 MLOAD DUP1 SWAP2 SUB SWAP1 REVERT JUMPDEST PUSH1 0x2 PUSH1 0x1 SSTORE JUMP JUMPDEST PUSH2 0x393C PUSH2 0x4080 JUMP JUMPDEST PUSH0 DUP1 SLOAD PUSH1 0xFF NOT AND SWAP1 SSTORE PUSH32 0x5DB9EE0A495BF2E6FF9C91A7834C1BA4FDD244A5E8AA4E537BD38AEAE4B073AA CALLER JUMPDEST PUSH1 0x40 MLOAD PUSH2 0x3975 SWAP2 SWAP1 PUSH2 0x4141 JUMP JUMPDEST PUSH1 0x40 MLOAD DUP1 SWAP2 SUB SWAP1 LOG1 JUMP JUMPDEST PUSH0 SLOAD PUSH1 0xFF AND ISZERO PUSH2 0xC94 JUMPI PUSH1 0x40 MLOAD PUSH3 0x461BCD PUSH1 0xE5 SHL DUP2 MSTORE PUSH1 0x20 PUSH1 0x4 DUP3 ADD MSTORE PUSH1 0x10 PUSH1 0x24 DUP3 ADD MSTORE PUSH16 0x14185D5CD8589B194E881C185D5CD959 PUSH1 0x82 SHL PUSH1 0x44 DUP3 ADD MSTORE PUSH1 0x64 ADD PUSH2 0xC72 JUMP JUMPDEST PUSH0 DUP2 DUP2 MSTORE PUSH1 0x1C PUSH1 0x20 MSTORE PUSH1 0x40 SWAP1 DUP2 SWAP1 KECCAK256 PUSH1 0xC SLOAD DUP2 SLOAD SWAP3 MLOAD PUSH4 0xECC97A29 PUSH1 0xE0 SHL DUP2 MSTORE SWAP2 SWAP3 PUSH1 0x1 PUSH1 0x1 PUSH1 0xA0 SHL SUB SWAP1 SWAP2 AND SWAP2 PUSH4 0xECC97A29 SWAP2 PUSH2 0x3A08 SWAP2 PUSH1 0x4 ADD SWAP1 DUP2 MSTORE PUSH1 0x20 ADD SWAP1 JUMP JUMPDEST PUSH0 PUSH1 0x40 MLOAD DUP1 DUP4 SUB DUP2 PUSH0 DUP8 DUP1 EXTCODESIZE ISZERO DUP1 ISZERO PUSH2 0x3A1F JUMPI PUSH0 PUSH0 REVERT JUMPDEST POP GAS CALL ISZERO DUP1 ISZERO PUSH2 0x3A31 JUMPI RETURNDATASIZE PUSH0 PUSH0 RETURNDATACOPY RETURNDATASIZE PUSH0 REVERT JUMPDEST POP POP PUSH1 0xD SLOAD DUP4 SLOAD PUSH1 0x40 MLOAD PUSH4 0xECC97A29 PUSH1 0xE0 SHL DUP2 MSTORE PUSH1 0x1 PUSH1 0x1 PUSH1 0xA0 SHL SUB SWAP1 SWAP3 AND SWAP4 POP PUSH4 0xECC97A29 SWAP3 POP PUSH2 0x3A69 SWAP2 PUSH1 0x4 ADD SWAP1 DUP2 MSTORE PUSH1 0x20 ADD SWAP1 JUMP JUMPDEST PUSH0 PUSH1 0x40 MLOAD DUP1 DUP4 SUB DUP2 PUSH0 DUP8 DUP1 EXTCODESIZE ISZERO DUP1 ISZERO PUSH2 0x3A80 JUMPI PUSH0 PUSH0 REVERT JUMPDEST POP GAS CALL ISZERO DUP1 ISZERO PUSH2 0x3A92 JUMPI RETURNDATASIZE PUSH0 PUSH0 RETURNDATACOPY RETURNDATASIZE PUSH0 REVERT JUMPDEST POP POP PUSH1 0xE SLOAD DUP4 SLOAD PUSH1 0x40 MLOAD PUSH4 0xECC97A29 PUSH1 0xE0 SHL DUP2 MSTORE PUSH1 0x1 PUSH1 0x1 PUSH1 0xA0 SHL SUB SWAP1 SWAP3 AND SWAP4 POP PUSH4 0xECC97A29 SWAP3 POP PUSH2 0x3ACA SWAP2 PUSH1 0x4 ADD SWAP1 DUP2 MSTORE PUSH1 0x20 ADD SWAP1 JUMP JUMPDEST PUSH0 PUSH1 0x40 MLOAD DUP1 DUP4 SUB DUP2 PUSH0 DUP8 DUP1 EXTCODESIZE ISZERO DUP1 ISZERO PUSH2 0x3AE1 JUMPI PUSH0 PUSH0 REVERT JUMPDEST POP GAS CALL ISZERO DUP1 ISZERO PUSH2 0x3AF3 JUMPI RETURNDATASIZE PUSH0 PUSH0 RETURNDATACOPY RETURNDATASIZE PUSH0 REVERT JUMPDEST POP POP PUSH1 0xF SLOAD DUP4 SLOAD PUSH1 0x40 MLOAD PUSH4 0xECC97A29 PUSH1 0xE0 SHL DUP2 MSTORE PUSH1 0x1 PUSH1 0x1 PUSH1 0xA0 SHL SUB SWAP1 SWAP3 AND SWAP4 POP PUSH4 0xECC97A29 SWAP3 POP PUSH2 0x3B2B SWAP2 PUSH1 0x4 ADD SWAP1 DUP2 MSTORE PUSH1 0x20 ADD SWAP1 JUMP JUMPDEST PUSH0 PUSH1 0x40 MLOAD DUP1 DUP4 SUB DUP2 PUSH0 DUP8 DUP1 EXTCODESIZE ISZERO DUP1 ISZERO PUSH2 0x3B42 JUMPI PUSH0 PUSH0 REVERT JUMPDEST POP GAS CALL ISZERO DUP1 ISZERO PUSH2 0x3B54 JUMPI RETURNDATASIZE PUSH0 PUSH0 RETURNDATACOPY RETURNDATASIZE PUSH0 REVERT JUMPDEST POP POP PUSH1 0x10 SLOAD DUP4 SLOAD PUSH1 0x40 MLOAD PUSH4 0xECC97A29 PUSH1 0xE0 SHL DUP2 MSTORE PUSH1 0x1 PUSH1 0x1 PUSH1 0xA0 SHL SUB SWAP1 SWAP3 AND SWAP4 POP PUSH4 0xECC97A29 SWAP3 POP PUSH2 0x3B8C SWAP2 PUSH1 0x4 ADD SWAP1 DUP2 MSTORE PUSH1 0x20 ADD SWAP1 JUMP JUMPDEST PUSH0 PUSH1 0x40 MLOAD DUP1 DUP4 SUB DUP2 PUSH0 DUP8 DUP1 EXTCODESIZE ISZERO DUP1 ISZERO PUSH2 0x3BA3 JUMPI PUSH0 PUSH0 REVERT JUMPDEST POP GAS CALL ISZERO DUP1 ISZERO PUSH2 0x3BB5 JUMPI RETURNDATASIZE PUSH0 PUSH0 RETURNDATACOPY RETURNDATASIZE PUSH0 REVERT JUMPDEST POP POP DUP3 SLOAD PUSH1 0x40 MLOAD SWAP1 DUP2 MSTORE DUP5 SWAP3 POP PUSH32 0x259F686E53E5A6D3BF161A01B4580F10D0A5516406CC88B142033018B575C4C8 SWAP2 POP PUSH1 0x20 ADD PUSH1 0x40 MLOAD DUP1 SWAP2 SUB SWAP1 LOG2 POP POP JUMP JUMPDEST PUSH2 0x3BFC PUSH2 0x397F JUMP JUMPDEST PUSH0 DUP1 SLOAD PUSH1 0xFF NOT AND PUSH1 0x1 OR SWAP1 SSTORE PUSH32 0x62E78CEA01BEE320CD4E420270B5EA74000D11B0C9F74754EBDBFC544B05A258 PUSH2 0x3968 CALLER SWAP1 JUMP JUMPDEST PUSH0 DUP2 DUP2 MSTORE PUSH1 0x17 PUSH1 0x20 SWAP1 DUP2 MSTORE PUSH1 0x40 SWAP2 DUP3 SWAP1 KECCAK256 DUP3 MLOAD PUSH1 0x60 DUP2 ADD DUP5 MSTORE SWAP1 SLOAD PUSH1 0x1 PUSH1 0x1 PUSH1 0xA0 SHL SUB DUP2 AND DUP1 DUP4 MSTORE PUSH1 0xFF PUSH1 0x1 PUSH1 0xA0 SHL DUP4 DIV DUP2 AND ISZERO ISZERO SWAP5 DUP5 ADD SWAP5 SWAP1 SWAP5 MSTORE PUSH1 0x1 PUSH1 0xA8 SHL SWAP1 SWAP2 DIV SWAP1 SWAP3 AND ISZERO ISZERO SWAP3 DUP2 ADD SWAP3 SWAP1 SWAP3 MSTORE PUSH2 0x3C9C JUMPI PUSH1 0x40 MLOAD PUSH3 0x461BCD PUSH1 0xE5 SHL DUP2 MSTORE PUSH1 0x4 ADD PUSH2 0xC72 SWAP1 PUSH2 0x4804 JUMP JUMPDEST PUSH1 0x9 SLOAD DUP2 MLOAD PUSH1 0x40 MLOAD PUSH4 0x33BF3577 PUSH1 0xE0 SHL DUP2 MSTORE PUSH1 0x1 PUSH1 0x1 PUSH1 0xA0 SHL SUB SWAP1 SWAP3 AND SWAP2 PUSH4 0x33BF3577 SWAP2 PUSH2 0x3CCC SWAP2 PUSH1 0x4 ADD PUSH2 0x4141 JUMP JUMPDEST PUSH0 PUSH1 0x40 MLOAD DUP1 DUP4 SUB DUP2 PUSH0 DUP8 DUP1 EXTCODESIZE ISZERO DUP1 ISZERO PUSH2 0x3CE3 JUMPI PUSH0 PUSH0 REVERT JUMPDEST POP GAS CALL ISZERO DUP1 ISZERO PUSH2 0x3CF5 JUMPI RETURNDATASIZE PUSH0 PUSH0 RETURNDATACOPY RETURNDATASIZE PUSH0 REVERT JUMPDEST POP POP POP PUSH0 DUP4 DUP2 MSTORE PUSH1 0x17 PUSH1 0x20 MSTORE PUSH1 0x40 DUP2 KECCAK256 DUP1 SLOAD PUSH1 0x1 PUSH1 0x1 PUSH1 0xB0 SHL SUB NOT AND SWAP1 SSTORE SWAP1 POP JUMPDEST PUSH1 0x16 SLOAD DUP2 LT ISZERO PUSH2 0x3DA2 JUMPI DUP3 PUSH1 0x16 DUP3 DUP2 SLOAD DUP2 LT PUSH2 0x3D34 JUMPI PUSH2 0x3D34 PUSH2 0x4746 JUMP JUMPDEST SWAP1 PUSH0 MSTORE PUSH1 0x20 PUSH0 KECCAK256 ADD SLOAD SUB PUSH2 0x3D9A JUMPI PUSH1 0x16 DUP1 SLOAD PUSH2 0x3D52 SWAP1 PUSH1 0x1 SWAP1 PUSH2 0x476E JUMP JUMPDEST DUP2 SLOAD DUP2 LT PUSH2 0x3D62 JUMPI PUSH2 0x3D62 PUSH2 0x4746 JUMP JUMPDEST SWAP1 PUSH0 MSTORE PUSH1 0x20 PUSH0 KECCAK256 ADD SLOAD PUSH1 0x16 DUP3 DUP2 SLOAD DUP2 LT PUSH2 0x3D7E JUMPI PUSH2 0x3D7E PUSH2 0x4746 JUMP JUMPDEST PUSH0 SWAP2 DUP3 MSTORE PUSH1 0x20 SWAP1 SWAP2 KECCAK256 ADD SSTORE PUSH1 0x16 DUP1 SLOAD DUP1 PUSH2 0x1066 JUMPI PUSH2 0x1066 PUSH2 0x479A JUMP JUMPDEST PUSH1 0x1 ADD PUSH2 0x3D16 JUMP JUMPDEST POP POP POP JUMP JUMPDEST PUSH0 DUP2 DUP2 MSTORE PUSH1 0x11 PUSH1 0x20 MSTORE PUSH1 0x40 DUP1 DUP3 KECCAK256 DUP2 MLOAD PUSH2 0x100 DUP2 ADD SWAP1 SWAP3 MSTORE DUP1 SLOAD DUP3 SWAP1 PUSH1 0xFF AND PUSH1 0x2 DUP2 GT ISZERO PUSH2 0x3DD7 JUMPI PUSH2 0x3DD7 PUSH2 0x4281 JUMP JUMPDEST PUSH1 0x2 DUP2 GT ISZERO PUSH2 0x3DE8 JUMPI PUSH2 0x3DE8 PUSH2 0x4281 JUMP JUMPDEST DUP2 MSTORE PUSH1 0x1 DUP3 ADD SLOAD PUSH1 0x20 DUP3 ADD MSTORE PUSH1 0x2 DUP3 ADD SLOAD PUSH1 0x1 PUSH1 0x1 PUSH1 0xA0 SHL SUB SWAP1 DUP2 AND PUSH1 0x40 DUP4 ADD MSTORE PUSH1 0x3 DUP4 ADD SLOAD PUSH1 0x60 DUP4 ADD MSTORE PUSH1 0x4 DUP4 ADD SLOAD PUSH1 0x80 DUP4 ADD MSTORE PUSH1 0x5 SWAP1 SWAP3 ADD SLOAD SWAP2 DUP3 AND PUSH1 0xA0 DUP3 ADD MSTORE PUSH1 0xFF PUSH1 0x1 PUSH1 0xA0 SHL DUP4 DIV DUP2 AND ISZERO ISZERO PUSH1 0xC0 DUP4 ADD MSTORE PUSH1 0x1 PUSH1 0xA8 SHL SWAP1 SWAP3 DIV SWAP1 SWAP2 AND ISZERO ISZERO PUSH1 0xE0 SWAP1 SWAP2 ADD MSTORE SWAP1 POP PUSH0 DUP2 MLOAD PUSH1 0x2 DUP2 GT ISZERO PUSH2 0x3E66 JUMPI PUSH2 0x3E66 PUSH2 0x4281 JUMP JUMPDEST SUB PUSH2 0x3ED4 JUMPI PUSH1 0x6 SLOAD PUSH1 0x20 DUP3 ADD MLOAD PUSH1 0x40 MLOAD PUSH4 0xF5B8015 PUSH1 0xE1 SHL DUP2 MSTORE PUSH1 0x1 PUSH1 0x1 PUSH1 0xA0 SHL SUB SWAP1 SWAP3 AND SWAP2 PUSH4 0x1EB7002A SWAP2 PUSH2 0x3EA2 SWAP2 PUSH1 0x4 ADD SWAP1 DUP2 MSTORE PUSH1 0x20 ADD SWAP1 JUMP JUMPDEST PUSH0 PUSH1 0x40 MLOAD DUP1 DUP4 SUB DUP2 PUSH0 DUP8 DUP1 EXTCODESIZE ISZERO DUP1 ISZERO PUSH2 0x3EB9 JUMPI PUSH0 PUSH0 REVERT JUMPDEST POP GAS CALL ISZERO DUP1 ISZERO PUSH2 0x3ECB JUMPI RETURNDATASIZE PUSH0 PUSH0 RETURNDATACOPY RETURNDATASIZE PUSH0 REVERT JUMPDEST POP POP POP POP PUSH2 0x3FA6 JUMP JUMPDEST PUSH1 0x1 DUP2 MLOAD PUSH1 0x2 DUP2 GT ISZERO PUSH2 0x3EE9 JUMPI PUSH2 0x3EE9 PUSH2 0x4281 JUMP JUMPDEST SUB PUSH2 0x3F27 JUMPI PUSH1 0x6 SLOAD PUSH1 0x40 DUP1 DUP4 ADD MLOAD PUSH1 0x60 DUP5 ADD MLOAD SWAP2 MLOAD PUSH4 0x40C10F19 PUSH1 0xE0 SHL DUP2 MSTORE PUSH1 0x1 PUSH1 0x1 PUSH1 0xA0 SHL SUB SWAP1 SWAP4 AND SWAP3 PUSH4 0x40C10F19 SWAP3 PUSH2 0x3EA2 SWAP3 SWAP2 PUSH1 0x4 ADD PUSH2 0x48C5 JUMP JUMPDEST PUSH1 0x2 DUP2 MLOAD PUSH1 0x2 DUP2 GT ISZERO PUSH2 0x3F3C JUMPI PUSH2 0x3F3C PUSH2 0x4281 JUMP JUMPDEST SUB PUSH2 0x3FA6 JUMPI PUSH1 0x6 SLOAD PUSH1 0x80 DUP3 ADD MLOAD PUSH1 0x40 MLOAD PUSH4 0x852CD8D PUSH1 0xE3 SHL DUP2 MSTORE PUSH1 0x1 PUSH1 0x1 PUSH1 0xA0 SHL SUB SWAP1 SWAP3 AND SWAP2 PUSH4 0x42966C68 SWAP2 PUSH2 0x3F78 SWAP2 PUSH1 0x4 ADD SWAP1 DUP2 MSTORE PUSH1 0x20 ADD SWAP1 JUMP JUMPDEST PUSH0 PUSH1 0x40 MLOAD DUP1 DUP4 SUB DUP2 PUSH0 DUP8 DUP1 EXTCODESIZE ISZERO DUP1 ISZERO PUSH2 0x3F8F JUMPI PUSH0 PUSH0 REVERT JUMPDEST POP GAS CALL ISZERO DUP1 ISZERO PUSH2 0x3FA1 JUMPI RETURNDATASIZE PUSH0 PUSH0 RETURNDATACOPY RETURNDATASIZE PUSH0 REVERT JUMPDEST POP POP POP POP JUMPDEST PUSH0 DUP3 DUP2 MSTORE PUSH1 0x11 PUSH1 0x20 MSTORE PUSH1 0x40 DUP2 KECCAK256 DUP1 SLOAD PUSH1 0xFF NOT AND DUP2 SSTORE PUSH1 0x1 DUP2 ADD DUP3 SWAP1 SSTORE PUSH1 0x2 DUP2 ADD DUP1 SLOAD PUSH1 0x1 PUSH1 0x1 PUSH1 0xA0 SHL SUB NOT AND SWAP1 SSTORE PUSH1 0x3 DUP2 ADD DUP3 SWAP1 SSTORE PUSH1 0x4 DUP2 ADD DUP3 SWAP1 SSTORE PUSH1 0x5 ADD DUP1 SLOAD PUSH1 0x1 PUSH1 0x1 PUSH1 0xB0 SHL SUB NOT AND SWAP1 SSTORE JUMPDEST PUSH1 0x13 SLOAD DUP2 LT ISZERO PUSH2 0x3DA2 JUMPI DUP3 PUSH1 0x13 DUP3 DUP2 SLOAD DUP2 LT PUSH2 0x4012 JUMPI PUSH2 0x4012 PUSH2 0x4746 JUMP JUMPDEST SWAP1 PUSH0 MSTORE PUSH1 0x20 PUSH0 KECCAK256 ADD SLOAD SUB PUSH2 0x4078 JUMPI PUSH1 0x13 DUP1 SLOAD PUSH2 0x4030 SWAP1 PUSH1 0x1 SWAP1 PUSH2 0x476E JUMP JUMPDEST DUP2 SLOAD DUP2 LT PUSH2 0x4040 JUMPI PUSH2 0x4040 PUSH2 0x4746 JUMP JUMPDEST SWAP1 PUSH0 MSTORE PUSH1 0x20 PUSH0 KECCAK256 ADD SLOAD PUSH1 0x13 DUP3 DUP2 SLOAD DUP2 LT PUSH2 0x405C JUMPI PUSH2 0x405C PUSH2 0x4746 JUMP JUMPDEST PUSH0 SWAP2 DUP3 MSTORE PUSH1 0x20 SWAP1 SWAP2 KECCAK256 ADD SSTORE PUSH1 0x13 DUP1 SLOAD DUP1 PUSH2 0x1066 JUMPI PUSH2 0x1066 PUSH2 0x479A JUMP JUMPDEST PUSH1 0x1 ADD PUSH2 0x3FF4 JUMP JUMPDEST PUSH0 SLOAD PUSH1 0xFF AND PUSH2 0xC94 JUMPI PUSH1 0x40 MLOAD PUSH3 0x461BCD PUSH1 0xE5 SHL DUP2 MSTORE PUSH1 0x20 PUSH1 0x4 DUP3 ADD MSTORE PUSH1 0x14 PUSH1 0x24 DUP3 ADD MSTORE PUSH20 0x14185D5CD8589B194E881B9BDD081C185D5CD959 PUSH1 0x62 SHL PUSH1 0x44 DUP3 ADD MSTORE PUSH1 0x64 ADD PUSH2 0xC72 JUMP JUMPDEST PUSH1 0x40 DUP1 MLOAD PUSH1 0xC0 DUP2 ADD DUP3 MSTORE PUSH0 DUP1 DUP3 MSTORE PUSH1 0x20 DUP3 ADD DUP2 SWAP1 MSTORE SWAP2 DUP2 ADD DUP3 SWAP1 MSTORE PUSH1 0x60 DUP2 ADD DUP3 SWAP1 MSTORE SWAP1 PUSH1 0x80 DUP3 ADD SWAP1 JUMPDEST DUP2 MSTORE PUSH1 0x20 ADD PUSH0 DUP2 MSTORE POP SWAP1 JUMP JUMPDEST PUSH1 0x40 DUP1 MLOAD PUSH1 0xC0 DUP2 ADD DUP3 MSTORE PUSH0 DUP1 DUP3 MSTORE PUSH1 0x20 DUP3 ADD DUP2 SWAP1 MSTORE SWAP2 DUP2 ADD DUP3 SWAP1 MSTORE PUSH1 0x60 DUP2 ADD DUP3 SWAP1 MSTORE SWAP1 PUSH1 0x80 DUP3 ADD SWAP1 PUSH2 0x40F1 JUMP JUMPDEST PUSH0 PUSH1 0x20 DUP3 DUP5 SUB SLT ISZERO PUSH2 0x413A JUMPI PUSH0 PUSH0 REVERT JUMPDEST POP CALLDATALOAD SWAP2 SWAP1 POP JUMP JUMPDEST PUSH1 0x1 PUSH1 0x1 PUSH1 0xA0 SHL SUB SWAP2 SWAP1 SWAP2 AND DUP2 MSTORE PUSH1 0x20 ADD SWAP1 JUMP JUMPDEST PUSH1 0x1 PUSH1 0x1 PUSH1 0xA0 SHL SUB DUP2 AND DUP2 EQ PUSH2 0xEB4 JUMPI PUSH0 PUSH0 REVERT JUMPDEST DUP1 ISZERO ISZERO DUP2 EQ PUSH2 0xEB4 JUMPI PUSH0 PUSH0 REVERT JUMPDEST PUSH0 PUSH0 PUSH1 0x40 DUP4 DUP6 SUB SLT ISZERO PUSH2 0x4187 JUMPI PUSH0 PUSH0 REVERT JUMPDEST DUP3 CALLDATALOAD PUSH2 0x4192 DUP2 PUSH2 0x4155 JUMP JUMPDEST SWAP2 POP PUSH1 0x20 DUP4 ADD CALLDATALOAD PUSH2 0x41A2 DUP2 PUSH2 0x4169 JUMP JUMPDEST DUP1 SWAP2 POP POP SWAP3 POP SWAP3 SWAP1 POP JUMP JUMPDEST PUSH0 PUSH0 PUSH1 0x40 DUP4 DUP6 SUB SLT ISZERO PUSH2 0x41BE JUMPI PUSH0 PUSH0 REVERT JUMPDEST DUP3 CALLDATALOAD PUSH2 0x41C9 DUP2 PUSH2 0x4155 JUMP JUMPDEST SWAP5 PUSH1 0x20 SWAP4 SWAP1 SWAP4 ADD CALLDATALOAD SWAP4 POP POP POP JUMP JUMPDEST PUSH0 PUSH0 PUSH0 PUSH0 PUSH0 PUSH0 PUSH1 0xC0 DUP8 DUP10 SUB SLT ISZERO PUSH2 0x41EC JUMPI PUSH0 PUSH0 REVERT JUMPDEST DUP7 CALLDATALOAD PUSH2 0x41F7 DUP2 PUSH2 0x4155 JUMP JUMPDEST SWAP6 POP PUSH1 0x20 DUP8 ADD CALLDATALOAD PUSH2 0x4207 DUP2 PUSH2 0x4155 JUMP JUMPDEST SWAP5 POP PUSH1 0x40 DUP8 ADD CALLDATALOAD PUSH2 0x4217 DUP2 PUSH2 0x4155 JUMP JUMPDEST SWAP4 POP PUSH1 0x60 DUP8 ADD CALLDATALOAD PUSH2 0x4227 DUP2 PUSH2 0x4155 JUMP JUMPDEST SWAP3 POP PUSH1 0x80 DUP8 ADD CALLDATALOAD PUSH2 0x4237 DUP2 PUSH2 0x4155 JUMP JUMPDEST SWAP2 POP PUSH1 0xA0 DUP8 ADD CALLDATALOAD PUSH2 0x4247 DUP2 PUSH2 0x4155 JUMP JUMPDEST DUP1 SWAP2 POP POP SWAP3 SWAP6 POP SWAP3 SWAP6 POP SWAP3 SWAP6 JUMP JUMPDEST PUSH0 PUSH0 PUSH1 0x40 DUP4 DUP6 SUB SLT ISZERO PUSH2 0x4266 JUMPI PUSH0 PUSH0 REVERT JUMPDEST DUP3 CALLDATALOAD PUSH2 0x4271 DUP2 PUSH2 0x4155 JUMP JUMPDEST SWAP2 POP PUSH1 0x20 DUP4 ADD CALLDATALOAD PUSH2 0x41A2 DUP2 PUSH2 0x4155 JUMP JUMPDEST PUSH4 0x4E487B71 PUSH1 0xE0 SHL PUSH0 MSTORE PUSH1 0x21 PUSH1 0x4 MSTORE PUSH1 0x24 PUSH0 REVERT JUMPDEST PUSH1 0x3 DUP2 LT PUSH2 0xEB4 JUMPI PUSH2 0xEB4 PUSH2 0x4281 JUMP JUMPDEST PUSH1 0x1 DUP2 LT PUSH2 0x42B5 JUMPI PUSH2 0x42B5 PUSH2 0x4281 JUMP JUMPDEST SWAP1 MSTORE JUMP JUMPDEST PUSH0 DUP2 MLOAD DUP1 DUP5 MSTORE PUSH1 0x20 DUP5 ADD SWAP4 POP PUSH1 0x20 DUP4 ADD PUSH0 JUMPDEST DUP3 DUP2 LT ISZERO PUSH2 0x4335 JUMPI DUP2 MLOAD DUP1 MLOAD ISZERO ISZERO DUP8 MSTORE PUSH1 0x20 DUP2 ADD MLOAD ISZERO ISZERO PUSH1 0x20 DUP9 ADD MSTORE PUSH1 0x40 DUP2 ADD MLOAD PUSH1 0x40 DUP9 ADD MSTORE PUSH1 0x1 DUP1 PUSH1 0xA0 SHL SUB PUSH1 0x60 DUP3 ADD MLOAD AND PUSH1 0x60 DUP9 ADD MSTORE PUSH1 0x80 DUP2 ADD MLOAD PUSH2 0x4315 PUSH1 0x80 DUP10 ADD DUP3 PUSH2 0x42A5 JUMP JUMPDEST POP PUSH1 0xA0 SWAP1 DUP2 ADD MLOAD SWAP1 DUP8 ADD MSTORE PUSH1 0xC0 SWAP1 SWAP6 ADD SWAP5 PUSH1 0x20 SWAP2 SWAP1 SWAP2 ADD SWAP1 PUSH1 0x1 ADD PUSH2 0x42CB JUMP JUMPDEST POP SWAP4 SWAP5 SWAP4 POP POP POP POP JUMP JUMPDEST PUSH1 0x40 DUP1 DUP3 MSTORE DUP4 MLOAD SWAP1 DUP3 ADD DUP2 SWAP1 MSTORE PUSH0 SWAP1 PUSH1 0x20 DUP6 ADD SWAP1 PUSH1 0x60 DUP5 ADD SWAP1 DUP4 JUMPDEST DUP2 DUP2 LT ISZERO PUSH2 0x43C5 JUMPI DUP4 MLOAD DUP1 MLOAD ISZERO ISZERO DUP5 MSTORE PUSH1 0x20 DUP1 DUP3 ADD MLOAD ISZERO ISZERO SWAP1 DUP6 ADD MSTORE PUSH1 0x40 DUP1 DUP3 ADD MLOAD SWAP1 DUP6 ADD MSTORE PUSH1 0x60 DUP1 DUP3 ADD MLOAD PUSH1 0x1 PUSH1 0x1 PUSH1 0xA0 SHL SUB AND SWAP1 DUP6 ADD MSTORE PUSH1 0x80 DUP2 ADD MLOAD PUSH2 0x43A1 DUP2 PUSH2 0x4295 JUMP JUMPDEST PUSH1 0x80 DUP6 ADD MSTORE PUSH1 0xA0 SWAP1 DUP2 ADD MLOAD SWAP1 DUP5 ADD MSTORE PUSH1 0x20 SWAP4 SWAP1 SWAP4 ADD SWAP3 PUSH1 0xC0 SWAP1 SWAP3 ADD SWAP2 PUSH1 0x1 ADD PUSH2 0x435A JUMP JUMPDEST POP POP DUP4 DUP2 SUB PUSH1 0x20 DUP6 ADD MSTORE PUSH2 0x43D9 DUP2 DUP7 PUSH2 0x42B9 JUMP JUMPDEST SWAP7 SWAP6 POP POP POP POP POP POP JUMP JUMPDEST PUSH0 DUP2 MLOAD DUP1 DUP5 MSTORE PUSH1 0x20 DUP5 ADD SWAP4 POP PUSH1 0x20 DUP4 ADD PUSH0 JUMPDEST DUP3 DUP2 LT ISZERO PUSH2 0x4335 JUMPI DUP2 MLOAD DUP7 MSTORE PUSH1 0x20 SWAP6 DUP7 ADD SWAP6 SWAP1 SWAP2 ADD SWAP1 PUSH1 0x1 ADD PUSH2 0x43F5 JUMP JUMPDEST PUSH1 0x20 DUP2 MSTORE PUSH0 PUSH2 0x4425 PUSH1 0x20 DUP4 ADD DUP5 PUSH2 0x43E3 JUMP JUMPDEST SWAP4 SWAP3 POP POP POP JUMP JUMPDEST PUSH0 PUSH1 0x20 DUP3 DUP5 SUB SLT ISZERO PUSH2 0x443C JUMPI PUSH0 PUSH0 REVERT JUMPDEST DUP2 CALLDATALOAD PUSH2 0x4425 DUP2 PUSH2 0x4155 JUMP JUMPDEST PUSH2 0x100 DUP2 ADD PUSH2 0x4455 DUP11 PUSH2 0x4295 JUMP JUMPDEST SWAP9 DUP2 MSTORE PUSH1 0x20 DUP2 ADD SWAP8 SWAP1 SWAP8 MSTORE PUSH1 0x1 PUSH1 0x1 PUSH1 0xA0 SHL SUB SWAP6 DUP7 AND PUSH1 0x40 DUP9 ADD MSTORE PUSH1 0x60 DUP8 ADD SWAP5 SWAP1 SWAP5 MSTORE PUSH1 0x80 DUP7 ADD SWAP3 SWAP1 SWAP3 MSTORE SWAP1 SWAP3 AND PUSH1 0xA0 DUP5 ADD MSTORE SWAP1 ISZERO ISZERO PUSH1 0xC0 DUP4 ADD MSTORE ISZERO ISZERO PUSH1 0xE0 SWAP1 SWAP2 ADD MSTORE SWAP1 JUMP JUMPDEST DUP7 ISZERO ISZERO DUP2 MSTORE DUP6 ISZERO ISZERO PUSH1 0x20 DUP3 ADD MSTORE PUSH1 0x40 DUP2 ADD DUP6 SWAP1 MSTORE PUSH1 0x1 PUSH1 0x1 PUSH1 0xA0 SHL SUB DUP5 AND PUSH1 0x60 DUP3 ADD MSTORE PUSH1 0xC0 DUP2 ADD PUSH2 0x44CF PUSH1 0x80 DUP4 ADD DUP6 PUSH2 0x42A5 JUMP JUMPDEST DUP3 PUSH1 0xA0 DUP4 ADD MSTORE SWAP8 SWAP7 POP POP POP POP POP POP POP JUMP JUMPDEST DUP7 ISZERO ISZERO DUP2 MSTORE DUP6 ISZERO ISZERO PUSH1 0x20 DUP3 ADD MSTORE PUSH1 0x40 DUP2 ADD DUP6 SWAP1 MSTORE PUSH1 0x1 PUSH1 0x1 PUSH1 0xA0 SHL SUB DUP5 AND PUSH1 0x60 DUP3 ADD MSTORE PUSH1 0xC0 DUP2 ADD PUSH2 0x4510 DUP5 PUSH2 0x4295 JUMP JUMPDEST PUSH1 0x80 DUP3 ADD SWAP4 SWAP1 SWAP4 MSTORE PUSH1 0xA0 ADD MSTORE SWAP5 SWAP4 POP POP POP POP JUMP JUMPDEST PUSH1 0x40 DUP2 MSTORE PUSH0 PUSH2 0x4536 PUSH1 0x40 DUP4 ADD DUP6 PUSH2 0x43E3 JUMP JUMPDEST DUP3 DUP2 SUB PUSH1 0x20 DUP5 ADD MSTORE DUP1 DUP5 MLOAD DUP1 DUP4 MSTORE PUSH1 0x20 DUP4 ADD SWAP2 POP PUSH1 0x20 DUP7 ADD SWAP3 POP PUSH0 JUMPDEST DUP2 DUP2 LT ISZERO PUSH2 0x4596 JUMPI DUP4 MLOAD DUP1 MLOAD PUSH1 0x1 PUSH1 0x1 PUSH1 0xA0 SHL SUB AND DUP5 MSTORE PUSH1 0x20 DUP1 DUP3 ADD MLOAD ISZERO ISZERO DUP2 DUP7 ADD MSTORE PUSH1 0x40 SWAP2 DUP3 ADD MLOAD ISZERO ISZERO SWAP2 DUP6 ADD SWAP2 SWAP1 SWAP2 MSTORE SWAP1 SWAP4 ADD SWAP3 PUSH1 0x60 SWAP1 SWAP3 ADD SWAP2 PUSH1 0x1 ADD PUSH2 0x4552 JUMP JUMPDEST POP SWAP1 SWAP7 SWAP6 POP POP POP POP POP POP JUMP JUMPDEST DUP2 MLOAD PUSH2 0x100 DUP3 ADD SWAP1 PUSH2 0x45B3 DUP2 PUSH2 0x4295 JUMP JUMPDEST DUP1 DUP4 MSTORE POP PUSH1 0x20 DUP4 ADD MLOAD PUSH1 0x20 DUP4 ADD MSTORE PUSH1 0x1 DUP1 PUSH1 0xA0 SHL SUB PUSH1 0x40 DUP5 ADD MLOAD AND PUSH1 0x40 DUP4 ADD MSTORE PUSH1 0x60 DUP4 ADD MLOAD PUSH1 0x60 DUP4 ADD MSTORE PUSH1 0x80 DUP4 ADD MLOAD PUSH1 0x80 DUP4 ADD MSTORE PUSH1 0x1 DUP1 PUSH1 0xA0 SHL SUB PUSH1 0xA0 DUP5 ADD MLOAD AND PUSH1 0xA0 DUP4 ADD MSTORE PUSH1 0xC0 DUP4 ADD MLOAD ISZERO ISZERO PUSH1 0xC0 DUP4 ADD MSTORE PUSH1 0xE0 DUP4 ADD MLOAD PUSH2 0x4618 PUSH1 0xE0 DUP5 ADD DUP3 ISZERO ISZERO SWAP1 MSTORE JUMP JUMPDEST POP SWAP3 SWAP2 POP POP JUMP JUMPDEST PUSH0 PUSH0 PUSH0 PUSH0 PUSH0 PUSH1 0xA0 DUP7 DUP9 SUB SLT ISZERO PUSH2 0x4633 JUMPI PUSH0 PUSH0 REVERT JUMPDEST DUP6 CALLDATALOAD PUSH2 0x463E DUP2 PUSH2 0x4155 JUMP JUMPDEST SWAP5 POP PUSH1 0x20 DUP7 ADD CALLDATALOAD PUSH2 0x464E DUP2 PUSH2 0x4155 JUMP JUMPDEST SWAP4 POP PUSH1 0x40 DUP7 ADD CALLDATALOAD PUSH2 0x465E DUP2 PUSH2 0x4155 JUMP JUMPDEST SWAP3 POP PUSH1 0x60 DUP7 ADD CALLDATALOAD PUSH2 0x466E DUP2 PUSH2 0x4155 JUMP JUMPDEST SWAP2 POP PUSH1 0x80 DUP7 ADD CALLDATALOAD PUSH2 0x467E DUP2 PUSH2 0x4155 JUMP JUMPDEST DUP1 SWAP2 POP POP SWAP3 SWAP6 POP SWAP3 SWAP6 SWAP1 SWAP4 POP JUMP JUMPDEST PUSH1 0x40 DUP2 MSTORE PUSH0 PUSH2 0x469E PUSH1 0x40 DUP4 ADD DUP6 PUSH2 0x43E3 JUMP JUMPDEST DUP3 DUP2 SUB PUSH1 0x20 DUP5 ADD MSTORE DUP1 DUP5 MLOAD DUP1 DUP4 MSTORE PUSH1 0x20 DUP4 ADD SWAP2 POP PUSH1 0x20 DUP7 ADD SWAP3 POP PUSH0 JUMPDEST DUP2 DUP2 LT ISZERO PUSH2 0x4596 JUMPI DUP4 MLOAD DUP1 MLOAD DUP5 MSTORE PUSH1 0x20 DUP2 ADD MLOAD ISZERO ISZERO PUSH1 0x20 DUP6 ADD MSTORE PUSH1 0x40 DUP2 ADD MLOAD ISZERO ISZERO PUSH1 0x40 DUP6 ADD MSTORE POP PUSH1 0x60 DUP4 ADD SWAP3 POP PUSH1 0x20 DUP5 ADD SWAP4 POP PUSH1 0x1 DUP2 ADD SWAP1 POP PUSH2 0x46BA JUMP JUMPDEST PUSH1 0x20 DUP1 DUP3 MSTORE PUSH1 0xC SWAP1 DUP3 ADD MSTORE PUSH12 0x2737BA1030B71037BBB732B9 PUSH1 0xA1 SHL PUSH1 0x40 DUP3 ADD MSTORE PUSH1 0x60 ADD SWAP1 JUMP JUMPDEST PUSH1 0x20 DUP1 DUP3 MSTORE PUSH1 0xE SWAP1 DUP3 ADD MSTORE PUSH14 0x139BDD08185D5D1A1BDC9A5E9959 PUSH1 0x92 SHL PUSH1 0x40 DUP3 ADD MSTORE PUSH1 0x60 ADD SWAP1 JUMP JUMPDEST PUSH4 0x4E487B71 PUSH1 0xE0 SHL PUSH0 MSTORE PUSH1 0x32 PUSH1 0x4 MSTORE PUSH1 0x24 PUSH0 REVERT JUMPDEST PUSH4 0x4E487B71 PUSH1 0xE0 SHL PUSH0 MSTORE PUSH1 0x11 PUSH1 0x4 MSTORE PUSH1 0x24 PUSH0 REVERT JUMPDEST DUP2 DUP2 SUB DUP2 DUP2 GT ISZERO PUSH2 0x4781 JUMPI PUSH2 0x4781 PUSH2 0x475A JUMP JUMPDEST SWAP3 SWAP2 POP POP JUMP JUMPDEST DUP1 DUP3 ADD DUP1 DUP3 GT ISZERO PUSH2 0x4781 JUMPI PUSH2 0x4781 PUSH2 0x475A JUMP JUMPDEST PUSH4 0x4E487B71 PUSH1 0xE0 SHL PUSH0 MSTORE PUSH1 0x31 PUSH1 0x4 MSTORE PUSH1 0x24 PUSH0 REVERT JUMPDEST PUSH0 PUSH1 0x1 DUP3 ADD PUSH2 0x47BF JUMPI PUSH2 0x47BF PUSH2 0x475A JUMP JUMPDEST POP PUSH1 0x1 ADD SWAP1 JUMP JUMPDEST PUSH1 0x20 DUP1 DUP3 MSTORE PUSH1 0x10 SWAP1 DUP3 ADD MSTORE PUSH16 0x125B9D985B1A59081BDC99195C881251 PUSH1 0x82 SHL PUSH1 0x40 DUP3 ADD MSTORE PUSH1 0x60 ADD SWAP1 JUMP JUMPDEST PUSH4 0x4E487B71 PUSH1 0xE0 SHL PUSH0 MSTORE PUSH1 0x41 PUSH1 0x4 MSTORE PUSH1 0x24 PUSH0 REVERT JUMPDEST PUSH1 0x20 DUP1 DUP3 MSTORE PUSH1 0x15 SWAP1 DUP3 ADD MSTORE PUSH21 0x1058DD1A5BDB88191BD95CC81B9BDD08195E1A5CDD PUSH1 0x5A SHL PUSH1 0x40 DUP3 ADD MSTORE PUSH1 0x60 ADD SWAP1 JUMP JUMPDEST PUSH1 0x20 DUP1 DUP3 MSTORE PUSH1 0x26 SWAP1 DUP3 ADD MSTORE PUSH32 0x416374696F6E20616C726561647920636F6E6669726D65642062792074686973 PUSH1 0x40 DUP3 ADD MSTORE PUSH6 0x1037BBB732B9 PUSH1 0xD1 SHL PUSH1 0x60 DUP3 ADD MSTORE PUSH1 0x80 ADD SWAP1 JUMP JUMPDEST PUSH1 0x20 DUP1 DUP3 MSTORE PUSH1 0x1B SWAP1 DUP3 ADD MSTORE PUSH27 0x109BDD1A0818DBDB999A5C9B585D1A5BDB9CC81C995C5D5A5C9959 PUSH1 0x2A SHL PUSH1 0x40 DUP3 ADD MSTORE PUSH1 0x60 ADD SWAP1 JUMP JUMPDEST PUSH0 PUSH1 0x20 DUP3 DUP5 SUB SLT ISZERO PUSH2 0x48BE JUMPI PUSH0 PUSH0 REVERT JUMPDEST POP MLOAD SWAP2 SWAP1 POP JUMP JUMPDEST PUSH1 0x1 PUSH1 0x1 PUSH1 0xA0 SHL SUB SWAP3 SWAP1 SWAP3 AND DUP3 MSTORE PUSH1 0x20 DUP3 ADD MSTORE PUSH1 0x40 ADD SWAP1 JUMP JUMPDEST PUSH0 PUSH1 0x20 DUP3 DUP5 SUB SLT ISZERO PUSH2 0x48EE JUMPI PUSH0 PUSH0 REVERT JUMPDEST DUP2 MLOAD PUSH2 0x4425 DUP2 PUSH2 0x4169 JUMP INVALID LOG2 PUSH5 0x6970667358 0x22 SLT KECCAK256 DUP3 EXTCODESIZE 0xAC DUP13 DUP10 DUP1 0xD3 0xC3 MOD 0xBF 0xC9 AND BASEFEE 0xDD DELEGATECALL PUSH3 0x141D16 ADDMOD 0xDA 0xDA JUMPDEST 0xD2 0xBE PUSH13 0xFF1FA2DA55BD64736F6C634300 ADDMOD 0x1E STOP CALLER "
		},
		"gasEstimates": {
			"creation": {
				"codeDepositCost": "3747000",
				"executionCost": "126205",
				"totalCost": "3873205"
			},
			"external": {
				"": "1863",
				"CancelConfirmTransfer(uint256)": "81906",
				"DisplayAllTransfers()": "infinite",
				"DisplayTransferDetails(uint256)": "13841",
				"USDCContract()": "2404",
				"USDTContract()": "2515",
				"actions(uint256)": "13401",
				"adminControlContract()": "2669",
				"authorizedAddresses(address)": "2808",
				"centralContract()": "2670",
				"confirmAction(uint256)": "infinite",
				"confirmRemoveAllOrders(uint256)": "infinite",
				"confirmSetStockLimit(uint256)": "infinite",
				"confirmTransfer(uint256)": "88445",
				"createTransferEther(address,uint256)": "216906",
				"createTransferNickelium(address,uint256)": "216995",
				"createTransferUSDC(address,uint256)": "217129",
				"createTransferUSDT(address,uint256)": "216985",
				"defaultIndex()": "2559",
				"deleteAction(uint256)": "infinite",
				"deleteRemoveAllOrdersAction(uint256)": "infinite",
				"deleteTransfer(uint256)": "infinite",
				"emergencyStop()": "infinite",
				"escrowHandler()": "2427",
				"executeTransfer(uint256)": "infinite",
				"getActionDetails(uint256)": "20864",
				"getPendingActions()": "infinite",
				"getPendingRemoveAllOrdersActions()": "infinite",
				"getPendingSetStockLimitActions()": "infinite",
				"indexes(uint256)": "4705",
				"isConfirmedByOwner1()": "2568",
				"isConfirmedByOwner2()": "2502",
				"mine1NFT()": "2450",
				"mine2NFT()": "2604",
				"mine3NFT()": "2448",
				"mine4NFT()": "2669",
				"mine5NFT()": "2580",
				"nextActionId()": "2317",
				"nextRemoveAllOrdersActionId()": "2492",
				"nextSetStockLimitActionId()": "2449",
				"nickelium()": "2428",
				"nickeliumContract()": "2582",
				"owner1()": "2603",
				"owner2()": "2471",
				"paused()": "2490",
				"proposeAddNickelToStock(uint256)": "182985",
				"proposeBurn(uint256)": "182802",
				"proposeMint(address,uint256)": "183017",
				"proposeRemoveAllOrders(address)": "infinite",
				"proposeSetStockLimit(uint256)": "171912",
				"removeAllOrdersActions(uint256)": "2612",
				"removeAllOrdersIndexes(uint256)": "4859",
				"resume()": "infinite",
				"setAuthorizedAddress(address,bool)": "infinite",
				"setContracts(address,address,address,address,address,address)": "infinite",
				"setNFTContracts(address,address,address,address,address)": "infinite",
				"setOwners(address,address)": "infinite",
				"setStockLimitActions(uint256)": "4694",
				"setStockLimitIndexes(uint256)": "4684",
				"transferStatus(uint256)": "9198",
				"transferStatusNickelium(uint256)": "9180"
			},
			"internal": {
				"RemoveAllOrders(address)": "infinite",
				"_executeSetStockLimit(uint256)": "infinite",
				"addNickelToStock(uint256)": "infinite",
				"executeAction(uint256)": "infinite",
				"executeRemoveAllOrders(uint256)": "infinite"
			}
		},
		"methodIdentifiers": {
			"CancelConfirmTransfer(uint256)": "fba6cf7b",
			"DisplayAllTransfers()": "49d601a5",
			"DisplayTransferDetails(uint256)": "dde12d1d",
			"USDCContract()": "d2873510",
			"USDTContract()": "99762734",
			"actions(uint256)": "83240f83",
			"adminControlContract()": "7b7f1c82",
			"authorizedAddresses(address)": "f19e207e",
			"centralContract()": "29878bc4",
			"confirmAction(uint256)": "a63d914f",
			"confirmRemoveAllOrders(uint256)": "7e0b989a",
			"confirmSetStockLimit(uint256)": "150a3587",
			"confirmTransfer(uint256)": "2c48e7db",
			"createTransferEther(address,uint256)": "8704b10d",
			"createTransferNickelium(address,uint256)": "a404c1c5",
			"createTransferUSDC(address,uint256)": "262b7821",
			"createTransferUSDT(address,uint256)": "57b00948",
			"defaultIndex()": "a8143f85",
			"deleteAction(uint256)": "df7dfef7",
			"deleteRemoveAllOrdersAction(uint256)": "cea7fc3d",
			"deleteTransfer(uint256)": "153f0c6f",
			"emergencyStop()": "63a599a4",
			"escrowHandler()": "87ad8f87",
			"executeTransfer(uint256)": "f05d5752",
			"getActionDetails(uint256)": "cb7c6da6",
			"getPendingActions()": "5b58ff1d",
			"getPendingRemoveAllOrdersActions()": "9a2122f9",
			"getPendingSetStockLimitActions()": "f7f6c19f",
			"indexes(uint256)": "92f8eb94",
			"isConfirmedByOwner1()": "ebf968a3",
			"isConfirmedByOwner2()": "e113b6ec",
			"mine1NFT()": "0cf71579",
			"mine2NFT()": "1d2e4a2f",
			"mine3NFT()": "db5544a6",
			"mine4NFT()": "c5026555",
			"mine5NFT()": "e9ce848d",
			"nextActionId()": "46abe73a",
			"nextRemoveAllOrdersActionId()": "e2a8c103",
			"nextSetStockLimitActionId()": "58f82236",
			"nickelium()": "0c101596",
			"nickeliumContract()": "1b8e2ed9",
			"owner1()": "73688914",
			"owner2()": "52709725",
			"paused()": "5c975abb",
			"proposeAddNickelToStock(uint256)": "764dc2f1",
			"proposeBurn(uint256)": "dc7a3ee7",
			"proposeMint(address,uint256)": "15d4c5d5",
			"proposeRemoveAllOrders(address)": "764327a6",
			"proposeSetStockLimit(uint256)": "a4eaa164",
			"removeAllOrdersActions(uint256)": "0843e3b0",
			"removeAllOrdersIndexes(uint256)": "b94db859",
			"resume()": "046f7da2",
			"setAuthorizedAddress(address,bool)": "1351cf51",
			"setContracts(address,address,address,address,address,address)": "2463a55a",
			"setNFTContracts(address,address,address,address,address)": "d6f455f4",
			"setOwners(address,address)": "48405b49",
			"setStockLimitActions(uint256)": "49955603",
			"setStockLimitIndexes(uint256)": "0d83dc18",
			"transferStatus(uint256)": "927e9742",
			"transferStatusNickelium(uint256)": "8de91b24"
		}
	},
	"abi": [
		{
			"inputs": [],
			"stateMutability": "nonpayable",
			"type": "constructor"
		},
		{
			"inputs": [],
			"name": "ReentrancyGuardReentrantCall",
			"type": "error"
		},
		{
			"anonymous": false,
			"inputs": [
				{
					"indexed": true,
					"internalType": "address",
					"name": "sender",
					"type": "address"
				},
				{
					"indexed": false,
					"internalType": "uint256",
					"name": "amount",
					"type": "uint256"
				}
			],
			"name": "EtherReceived",
			"type": "event"
		},
		{
			"anonymous": false,
			"inputs": [
				{
					"indexed": false,
					"internalType": "address",
					"name": "account",
					"type": "address"
				}
			],
			"name": "Paused",
			"type": "event"
		},
		{
			"anonymous": false,
			"inputs": [
				{
					"indexed": true,
					"internalType": "uint256",
					"name": "actionId",
					"type": "uint256"
				},
				{
					"indexed": true,
					"internalType": "address",
					"name": "owner",
					"type": "address"
				}
			],
			"name": "SetStockLimitConfirmed",
			"type": "event"
		},
		{
			"anonymous": false,
			"inputs": [
				{
					"indexed": true,
					"internalType": "uint256",
					"name": "actionId",
					"type": "uint256"
				},
				{
					"indexed": false,
					"internalType": "uint256",
					"name": "newLimit",
					"type": "uint256"
				}
			],
			"name": "SetStockLimitExecuted",
			"type": "event"
		},
		{
			"anonymous": false,
			"inputs": [
				{
					"indexed": true,
					"internalType": "uint256",
					"name": "actionId",
					"type": "uint256"
				},
				{
					"indexed": false,
					"internalType": "uint256",
					"name": "newLimit",
					"type": "uint256"
				}
			],
			"name": "SetStockLimitProposed",
			"type": "event"
		},
		{
			"anonymous": false,
			"inputs": [
				{
					"indexed": false,
					"internalType": "address",
					"name": "account",
					"type": "address"
				}
			],
			"name": "Unpaused",
			"type": "event"
		},
		{
			"stateMutability": "payable",
			"type": "fallback"
		},
		{
			"inputs": [
				{
					"internalType": "uint256",
					"name": "_orderID",
					"type": "uint256"
				}
			],
			"name": "CancelConfirmTransfer",
			"outputs": [],
			"stateMutability": "nonpayable",
			"type": "function"
		},
		{
			"inputs": [],
			"name": "DisplayAllTransfers",
			"outputs": [
				{
					"components": [
						{
							"internalType": "bool",
							"name": "isConfirmedByOwner1",
							"type": "bool"
						},
						{
							"internalType": "bool",
							"name": "isConfirmedByOwner2",
							"type": "bool"
						},
						{
							"internalType": "uint256",
							"name": "amount",
							"type": "uint256"
						},
						{
							"internalType": "address",
							"name": "recipientAddress",
							"type": "address"
						},
						{
							"internalType": "enum SharedStructs.PaymentMethod",
							"name": "paymentMethod",
							"type": "uint8"
						},
						{
							"internalType": "uint256",
							"name": "orderID",
							"type": "uint256"
						}
					],
					"internalType": "struct CustomMultisigSupport.TransferStatus[]",
					"name": "",
					"type": "tuple[]"
				},
				{
					"components": [
						{
							"internalType": "bool",
							"name": "isConfirmedByOwner1",
							"type": "bool"
						},
						{
							"internalType": "bool",
							"name": "isConfirmedByOwner2",
							"type": "bool"
						},
						{
							"internalType": "uint256",
							"name": "amount",
							"type": "uint256"
						},
						{
							"internalType": "address",
							"name": "recipientAddress",
							"type": "address"
						},
						{
							"internalType": "enum SharedStructs.AssetType",
							"name": "assetType",
							"type": "uint8"
						},
						{
							"internalType": "uint256",
							"name": "orderID",
							"type": "uint256"
						}
					],
					"internalType": "struct CustomMultisigSupport.TransferStatusNickelium[]",
					"name": "",
					"type": "tuple[]"
				}
			],
			"stateMutability": "view",
			"type": "function"
		},
		{
			"inputs": [
				{
					"internalType": "uint256",
					"name": "_orderID",
					"type": "uint256"
				}
			],
			"name": "DisplayTransferDetails",
			"outputs": [
				{
					"internalType": "bool",
					"name": "ConfirmedByOwner1",
					"type": "bool"
				},
				{
					"internalType": "bool",
					"name": "ConfirmedByOwner2",
					"type": "bool"
				},
				{
					"internalType": "uint256",
					"name": "amount",
					"type": "uint256"
				},
				{
					"internalType": "address",
					"name": "recipientAddress",
					"type": "address"
				},
				{
					"internalType": "uint256",
					"name": "orderID",
					"type": "uint256"
				}
			],
			"stateMutability": "view",
			"type": "function"
		},
		{
			"inputs": [],
			"name": "USDCContract",
			"outputs": [
				{
					"internalType": "contract IERC20",
					"name": "",
					"type": "address"
				}
			],
			"stateMutability": "view",
			"type": "function"
		},
		{
			"inputs": [],
			"name": "USDTContract",
			"outputs": [
				{
					"internalType": "contract ITether",
					"name": "",
					"type": "address"
				}
			],
			"stateMutability": "view",
			"type": "function"
		},
		{
			"inputs": [
				{
					"internalType": "uint256",
					"name": "",
					"type": "uint256"
				}
			],
			"name": "actions",
			"outputs": [
				{
					"internalType": "enum CustomMultisigSupport.ActionType",
					"name": "actionType",
					"type": "uint8"
				},
				{
					"internalType": "uint256",
					"name": "amountGrams",
					"type": "uint256"
				},
				{
					"internalType": "address",
					"name": "account",
					"type": "address"
				},
				{
					"internalType": "uint256",
					"name": "tokenUnits",
					"type": "uint256"
				},
				{
					"internalType": "uint256",
					"name": "burnAmount",
					"type": "uint256"
				},
				{
					"internalType": "address",
					"name": "tokenOwner",
					"type": "address"
				},
				{
					"internalType": "bool",
					"name": "isConfirmedByOwner1",
					"type": "bool"
				},
				{
					"internalType": "bool",
					"name": "isConfirmedByOwner2",
					"type": "bool"
				}
			],
			"stateMutability": "view",
			"type": "function"
		},
		{
			"inputs": [],
			"name": "adminControlContract",
			"outputs": [
				{
					"internalType": "contract IAdminControl",
					"name": "",
					"type": "address"
				}
			],
			"stateMutability": "view",
			"type": "function"
		},
		{
			"inputs": [
				{
					"internalType": "address",
					"name": "",
					"type": "address"
				}
			],
			"name": "authorizedAddresses",
			"outputs": [
				{
					"internalType": "bool",
					"name": "",
					"type": "bool"
				}
			],
			"stateMutability": "view",
			"type": "function"
		},
		{
			"inputs": [],
			"name": "centralContract",
			"outputs": [
				{
					"internalType": "contract ICentral",
					"name": "",
					"type": "address"
				}
			],
			"stateMutability": "view",
			"type": "function"
		},
		{
			"inputs": [
				{
					"internalType": "uint256",
					"name": "actionId",
					"type": "uint256"
				}
			],
			"name": "confirmAction",
			"outputs": [],
			"stateMutability": "nonpayable",
			"type": "function"
		},
		{
			"inputs": [
				{
					"internalType": "uint256",
					"name": "actionId",
					"type": "uint256"
				}
			],
			"name": "confirmRemoveAllOrders",
			"outputs": [],
			"stateMutability": "nonpayable",
			"type": "function"
		},
		{
			"inputs": [
				{
					"internalType": "uint256",
					"name": "actionId",
					"type": "uint256"
				}
			],
			"name": "confirmSetStockLimit",
			"outputs": [],
			"stateMutability": "nonpayable",
			"type": "function"
		},
		{
			"inputs": [
				{
					"internalType": "uint256",
					"name": "_orderID",
					"type": "uint256"
				}
			],
			"name": "confirmTransfer",
			"outputs": [],
			"stateMutability": "nonpayable",
			"type": "function"
		},
		{
			"inputs": [
				{
					"internalType": "address",
					"name": "_recipientAddress",
					"type": "address"
				},
				{
					"internalType": "uint256",
					"name": "_amount",
					"type": "uint256"
				}
			],
			"name": "createTransferEther",
			"outputs": [],
			"stateMutability": "nonpayable",
			"type": "function"
		},
		{
			"inputs": [
				{
					"internalType": "address",
					"name": "_recipientAddress",
					"type": "address"
				},
				{
					"internalType": "uint256",
					"name": "_amount",
					"type": "uint256"
				}
			],
			"name": "createTransferNickelium",
			"outputs": [],
			"stateMutability": "nonpayable",
			"type": "function"
		},
		{
			"inputs": [
				{
					"internalType": "address",
					"name": "_recipientAddress",
					"type": "address"
				},
				{
					"internalType": "uint256",
					"name": "_amount",
					"type": "uint256"
				}
			],
			"name": "createTransferUSDC",
			"outputs": [],
			"stateMutability": "nonpayable",
			"type": "function"
		},
		{
			"inputs": [
				{
					"internalType": "address",
					"name": "_recipientAddress",
					"type": "address"
				},
				{
					"internalType": "uint256",
					"name": "_amount",
					"type": "uint256"
				}
			],
			"name": "createTransferUSDT",
			"outputs": [],
			"stateMutability": "nonpayable",
			"type": "function"
		},
		{
			"inputs": [],
			"name": "defaultIndex",
			"outputs": [
				{
					"internalType": "uint256",
					"name": "",
					"type": "uint256"
				}
			],
			"stateMutability": "view",
			"type": "function"
		},
		{
			"inputs": [
				{
					"internalType": "uint256",
					"name": "actionId",
					"type": "uint256"
				}
			],
			"name": "deleteAction",
			"outputs": [],
			"stateMutability": "nonpayable",
			"type": "function"
		},
		{
			"inputs": [
				{
					"internalType": "uint256",
					"name": "actionId",
					"type": "uint256"
				}
			],
			"name": "deleteRemoveAllOrdersAction",
			"outputs": [],
			"stateMutability": "nonpayable",
			"type": "function"
		},
		{
			"inputs": [
				{
					"internalType": "uint256",
					"name": "_orderID",
					"type": "uint256"
				}
			],
			"name": "deleteTransfer",
			"outputs": [],
			"stateMutability": "nonpayable",
			"type": "function"
		},
		{
			"inputs": [],
			"name": "emergencyStop",
			"outputs": [],
			"stateMutability": "nonpayable",
			"type": "function"
		},
		{
			"inputs": [],
			"name": "escrowHandler",
			"outputs": [
				{
					"internalType": "contract IEscrowHandler",
					"name": "",
					"type": "address"
				}
			],
			"stateMutability": "view",
			"type": "function"
		},
		{
			"inputs": [
				{
					"internalType": "uint256",
					"name": "_orderID",
					"type": "uint256"
				}
			],
			"name": "executeTransfer",
			"outputs": [],
			"stateMutability": "nonpayable",
			"type": "function"
		},
		{
			"inputs": [
				{
					"internalType": "uint256",
					"name": "actionId",
					"type": "uint256"
				}
			],
			"name": "getActionDetails",
			"outputs": [
				{
					"components": [
						{
							"internalType": "enum CustomMultisigSupport.ActionType",
							"name": "actionType",
							"type": "uint8"
						},
						{
							"internalType": "uint256",
							"name": "amountGrams",
							"type": "uint256"
						},
						{
							"internalType": "address",
							"name": "account",
							"type": "address"
						},
						{
							"internalType": "uint256",
							"name": "tokenUnits",
							"type": "uint256"
						},
						{
							"internalType": "uint256",
							"name": "burnAmount",
							"type": "uint256"
						},
						{
							"internalType": "address",
							"name": "tokenOwner",
							"type": "address"
						},
						{
							"internalType": "bool",
							"name": "isConfirmedByOwner1",
							"type": "bool"
						},
						{
							"internalType": "bool",
							"name": "isConfirmedByOwner2",
							"type": "bool"
						}
					],
					"internalType": "struct CustomMultisigSupport.Action",
					"name": "",
					"type": "tuple"
				}
			],
			"stateMutability": "view",
			"type": "function"
		},
		{
			"inputs": [],
			"name": "getPendingActions",
			"outputs": [
				{
					"internalType": "uint256[]",
					"name": "",
					"type": "uint256[]"
				}
			],
			"stateMutability": "view",
			"type": "function"
		},
		{
			"inputs": [],
			"name": "getPendingRemoveAllOrdersActions",
			"outputs": [
				{
					"internalType": "uint256[]",
					"name": "",
					"type": "uint256[]"
				},
				{
					"components": [
						{
							"internalType": "address",
							"name": "user",
							"type": "address"
						},
						{
							"internalType": "bool",
							"name": "isConfirmedByOwner1",
							"type": "bool"
						},
						{
							"internalType": "bool",
							"name": "isConfirmedByOwner2",
							"type": "bool"
						}
					],
					"internalType": "struct CustomMultisigSupport.RemoveAllOrdersAction[]",
					"name": "",
					"type": "tuple[]"
				}
			],
			"stateMutability": "view",
			"type": "function"
		},
		{
			"inputs": [],
			"name": "getPendingSetStockLimitActions",
			"outputs": [
				{
					"internalType": "uint256[]",
					"name": "",
					"type": "uint256[]"
				},
				{
					"components": [
						{
							"internalType": "uint256",
							"name": "newLimit",
							"type": "uint256"
						},
						{
							"internalType": "bool",
							"name": "isConfirmedByOwner1",
							"type": "bool"
						},
						{
							"internalType": "bool",
							"name": "isConfirmedByOwner2",
							"type": "bool"
						}
					],
					"internalType": "struct CustomMultisigSupport.SetStockLimitAction[]",
					"name": "",
					"type": "tuple[]"
				}
			],
			"stateMutability": "view",
			"type": "function"
		},
		{
			"inputs": [
				{
					"internalType": "uint256",
					"name": "",
					"type": "uint256"
				}
			],
			"name": "indexes",
			"outputs": [
				{
					"internalType": "uint256",
					"name": "",
					"type": "uint256"
				}
			],
			"stateMutability": "view",
			"type": "function"
		},
		{
			"inputs": [],
			"name": "isConfirmedByOwner1",
			"outputs": [
				{
					"internalType": "bool",
					"name": "",
					"type": "bool"
				}
			],
			"stateMutability": "view",
			"type": "function"
		},
		{
			"inputs": [],
			"name": "isConfirmedByOwner2",
			"outputs": [
				{
					"internalType": "bool",
					"name": "",
					"type": "bool"
				}
			],
			"stateMutability": "view",
			"type": "function"
		},
		{
			"inputs": [],
			"name": "mine1NFT",
			"outputs": [
				{
					"internalType": "contract INFTContract",
					"name": "",
					"type": "address"
				}
			],
			"stateMutability": "view",
			"type": "function"
		},
		{
			"inputs": [],
			"name": "mine2NFT",
			"outputs": [
				{
					"internalType": "contract INFTContract",
					"name": "",
					"type": "address"
				}
			],
			"stateMutability": "view",
			"type": "function"
		},
		{
			"inputs": [],
			"name": "mine3NFT",
			"outputs": [
				{
					"internalType": "contract INFTContract",
					"name": "",
					"type": "address"
				}
			],
			"stateMutability": "view",
			"type": "function"
		},
		{
			"inputs": [],
			"name": "mine4NFT",
			"outputs": [
				{
					"internalType": "contract INFTContract",
					"name": "",
					"type": "address"
				}
			],
			"stateMutability": "view",
			"type": "function"
		},
		{
			"inputs": [],
			"name": "mine5NFT",
			"outputs": [
				{
					"internalType": "contract INFTContract",
					"name": "",
					"type": "address"
				}
			],
			"stateMutability": "view",
			"type": "function"
		},
		{
			"inputs": [],
			"name": "nextActionId",
			"outputs": [
				{
					"internalType": "uint256",
					"name": "",
					"type": "uint256"
				}
			],
			"stateMutability": "view",
			"type": "function"
		},
		{
			"inputs": [],
			"name": "nextRemoveAllOrdersActionId",
			"outputs": [
				{
					"internalType": "uint256",
					"name": "",
					"type": "uint256"
				}
			],
			"stateMutability": "view",
			"type": "function"
		},
		{
			"inputs": [],
			"name": "nextSetStockLimitActionId",
			"outputs": [
				{
					"internalType": "uint256",
					"name": "",
					"type": "uint256"
				}
			],
			"stateMutability": "view",
			"type": "function"
		},
		{
			"inputs": [],
			"name": "nickelium",
			"outputs": [
				{
					"internalType": "contract INickelium",
					"name": "",
					"type": "address"
				}
			],
			"stateMutability": "view",
			"type": "function"
		},
		{
			"inputs": [],
			"name": "nickeliumContract",
			"outputs": [
				{
					"internalType": "contract INickelium",
					"name": "",
					"type": "address"
				}
			],
			"stateMutability": "view",
			"type": "function"
		},
		{
			"inputs": [],
			"name": "owner1",
			"outputs": [
				{
					"internalType": "address",
					"name": "",
					"type": "address"
				}
			],
			"stateMutability": "view",
			"type": "function"
		},
		{
			"inputs": [],
			"name": "owner2",
			"outputs": [
				{
					"internalType": "address",
					"name": "",
					"type": "address"
				}
			],
			"stateMutability": "view",
			"type": "function"
		},
		{
			"inputs": [],
			"name": "paused",
			"outputs": [
				{
					"internalType": "bool",
					"name": "",
					"type": "bool"
				}
			],
			"stateMutability": "view",
			"type": "function"
		},
		{
			"inputs": [
				{
					"internalType": "uint256",
					"name": "amountGrams",
					"type": "uint256"
				}
			],
			"name": "proposeAddNickelToStock",
			"outputs": [],
			"stateMutability": "nonpayable",
			"type": "function"
		},
		{
			"inputs": [
				{
					"internalType": "uint256",
					"name": "amount",
					"type": "uint256"
				}
			],
			"name": "proposeBurn",
			"outputs": [],
			"stateMutability": "nonpayable",
			"type": "function"
		},
		{
			"inputs": [
				{
					"internalType": "address",
					"name": "account",
					"type": "address"
				},
				{
					"internalType": "uint256",
					"name": "tokenUnits",
					"type": "uint256"
				}
			],
			"name": "proposeMint",
			"outputs": [],
			"stateMutability": "nonpayable",
			"type": "function"
		},
		{
			"inputs": [
				{
					"internalType": "address",
					"name": "_user",
					"type": "address"
				}
			],
			"name": "proposeRemoveAllOrders",
			"outputs": [],
			"stateMutability": "nonpayable",
			"type": "function"
		},
		{
			"inputs": [
				{
					"internalType": "uint256",
					"name": "newLimit",
					"type": "uint256"
				}
			],
			"name": "proposeSetStockLimit",
			"outputs": [],
			"stateMutability": "nonpayable",
			"type": "function"
		},
		{
			"inputs": [
				{
					"internalType": "uint256",
					"name": "",
					"type": "uint256"
				}
			],
			"name": "removeAllOrdersActions",
			"outputs": [
				{
					"internalType": "address",
					"name": "user",
					"type": "address"
				},
				{
					"internalType": "bool",
					"name": "isConfirmedByOwner1",
					"type": "bool"
				},
				{
					"internalType": "bool",
					"name": "isConfirmedByOwner2",
					"type": "bool"
				}
			],
			"stateMutability": "view",
			"type": "function"
		},
		{
			"inputs": [
				{
					"internalType": "uint256",
					"name": "",
					"type": "uint256"
				}
			],
			"name": "removeAllOrdersIndexes",
			"outputs": [
				{
					"internalType": "uint256",
					"name": "",
					"type": "uint256"
				}
			],
			"stateMutability": "view",
			"type": "function"
		},
		{
			"inputs": [],
			"name": "resume",
			"outputs": [],
			"stateMutability": "nonpayable",
			"type": "function"
		},
		{
			"inputs": [
				{
					"internalType": "address",
					"name": "_address",
					"type": "address"
				},
				{
					"internalType": "bool",
					"name": "_status",
					"type": "bool"
				}
			],
			"name": "setAuthorizedAddress",
			"outputs": [],
			"stateMutability": "nonpayable",
			"type": "function"
		},
		{
			"inputs": [
				{
					"internalType": "address payable",
					"name": "_nickeliumAddress",
					"type": "address"
				},
				{
					"internalType": "address",
					"name": "_centralAddress",
					"type": "address"
				},
				{
					"internalType": "address",
					"name": "_USDTAddress",
					"type": "address"
				},
				{
					"internalType": "address",
					"name": "_usdcAddress",
					"type": "address"
				},
				{
					"internalType": "address",
					"name": "_escrowHandler",
					"type": "address"
				},
				{
					"internalType": "address",
					"name": "_adminControlAddress",
					"type": "address"
				}
			],
			"name": "setContracts",
			"outputs": [],
			"stateMutability": "nonpayable",
			"type": "function"
		},
		{
			"inputs": [
				{
					"internalType": "address",
					"name": "_mine1NFTAddress",
					"type": "address"
				},
				{
					"internalType": "address",
					"name": "_mine2NFTAddress",
					"type": "address"
				},
				{
					"internalType": "address",
					"name": "_mine3NFTAddress",
					"type": "address"
				},
				{
					"internalType": "address",
					"name": "_mine4NFTAddress",
					"type": "address"
				},
				{
					"internalType": "address",
					"name": "_mine5NFTAddress",
					"type": "address"
				}
			],
			"name": "setNFTContracts",
			"outputs": [],
			"stateMutability": "nonpayable",
			"type": "function"
		},
		{
			"inputs": [
				{
					"internalType": "address",
					"name": "_owner1",
					"type": "address"
				},
				{
					"internalType": "address",
					"name": "_owner2",
					"type": "address"
				}
			],
			"name": "setOwners",
			"outputs": [],
			"stateMutability": "nonpayable",
			"type": "function"
		},
		{
			"inputs": [
				{
					"internalType": "uint256",
					"name": "",
					"type": "uint256"
				}
			],
			"name": "setStockLimitActions",
			"outputs": [
				{
					"internalType": "uint256",
					"name": "newLimit",
					"type": "uint256"
				},
				{
					"internalType": "bool",
					"name": "isConfirmedByOwner1",
					"type": "bool"
				},
				{
					"internalType": "bool",
					"name": "isConfirmedByOwner2",
					"type": "bool"
				}
			],
			"stateMutability": "view",
			"type": "function"
		},
		{
			"inputs": [
				{
					"internalType": "uint256",
					"name": "",
					"type": "uint256"
				}
			],
			"name": "setStockLimitIndexes",
			"outputs": [
				{
					"internalType": "uint256",
					"name": "",
					"type": "uint256"
				}
			],
			"stateMutability": "view",
			"type": "function"
		},
		{
			"inputs": [
				{
					"internalType": "uint256",
					"name": "",
					"type": "uint256"
				}
			],
			"name": "transferStatus",
			"outputs": [
				{
					"internalType": "bool",
					"name": "isConfirmedByOwner1",
					"type": "bool"
				},
				{
					"internalType": "bool",
					"name": "isConfirmedByOwner2",
					"type": "bool"
				},
				{
					"internalType": "uint256",
					"name": "amount",
					"type": "uint256"
				},
				{
					"internalType": "address",
					"name": "recipientAddress",
					"type": "address"
				},
				{
					"internalType": "enum SharedStructs.PaymentMethod",
					"name": "paymentMethod",
					"type": "uint8"
				},
				{
					"internalType": "uint256",
					"name": "orderID",
					"type": "uint256"
				}
			],
			"stateMutability": "view",
			"type": "function"
		},
		{
			"inputs": [
				{
					"internalType": "uint256",
					"name": "",
					"type": "uint256"
				}
			],
			"name": "transferStatusNickelium",
			"outputs": [
				{
					"internalType": "bool",
					"name": "isConfirmedByOwner1",
					"type": "bool"
				},
				{
					"internalType": "bool",
					"name": "isConfirmedByOwner2",
					"type": "bool"
				},
				{
					"internalType": "uint256",
					"name": "amount",
					"type": "uint256"
				},
				{
					"internalType": "address",
					"name": "recipientAddress",
					"type": "address"
				},
				{
					"internalType": "enum SharedStructs.AssetType",
					"name": "assetType",
					"type": "uint8"
				},
				{
					"internalType": "uint256",
					"name": "orderID",
					"type": "uint256"
				}
			],
			"stateMutability": "view",
			"type": "function"
		}
	]
}