{
	"data": {
		"bytecode": {
			"linkReferences": {},
			"object": "608060409081525f805460ff1990811682556001808055600d80546001600160a01b03191633908117909155835260046020529290912080549091169091179055614d028061004d5f395ff3fe6080604052600436106101e1575f3560e01c806366b8ca5211610100578063a3a84f0111610099578063a3a84f0114610565578063ca33337214610584578063d2873510146105a3578063e30cc987146105c2578063e80b146d146105f8578063e8107c1d14610617578063f19e207e14610636578063f5cba18514610664578063f63bf8bd14610683578063f87825ef146106a2575f5ffd5b806366b8ca521461045b5780636e6d19ff1461048e57806375d924a9146104a25780637e8843d0146104c1578063855ef41a146104e05780638c65a498146104ff5780638da5cb5b1461051357806397318f98146105325780639976273414610546575f5ffd5b80632b20dac41161017d5780632b20dac4146103355780632e0155841461035457806339d730f61461037357806347db8591146103875780634ba7c2f4146103a65780634c3095a9146103b957806351479e01146103da578063555d3e63146103fb5780635c975abb1461041a5780635f80a9cf1461043c575f5ffd5b8063065c9be0146101e5578063075457261461022e578063109573a81461024f57806310df52b91461026e5780631351cf511461028d57806313af4035146102ac5780631b8e2ed9146102cb57806320cdb427146102f757806329878bc414610316575b5f5ffd5b3480156101f0575f5ffd5b5061021b6101ff36600461467d565b600360209081525f928352604080842090915290825290205481565b6040519081526020015b60405180910390f35b348015610239575f5ffd5b5061024d6102483660046146cb565b6106c1565b005b34801561025a575f5ffd5b5061024d61026936600461473d565b610892565b348015610279575f5ffd5b5061021b61028836600461477b565b610963565b348015610298575f5ffd5b5061024d6102a73660046147a5565b6109af565b3480156102b7575f5ffd5b5061024d6102c63660046147dc565b610a1c565b3480156102d6575f5ffd5b506008546102ea906001600160a01b031681565b60405161022591906147f7565b348015610302575f5ffd5b5061024d61031136600461480b565b610a6c565b348015610321575f5ffd5b50600c546102ea906001600160a01b031681565b348015610340575f5ffd5b5061024d61034f36600461480b565b610c7b565b34801561035f575f5ffd5b50600a546102ea906001600160a01b031681565b34801561037e575f5ffd5b5060065461021b565b348015610392575f5ffd5b5061021b6103a136600461467d565b610e67565b61024d6103b4366004614822565b610ea2565b3480156103c4575f5ffd5b506103cd6113fc565b60405161022591906148f3565b3480156103e5575f5ffd5b506103ee611511565b6040516102259190614941565b348015610406575f5ffd5b50600b546102ea906001600160a01b031681565b348015610425575f5ffd5b505f5460ff165b6040519015158152602001610225565b348015610447575f5ffd5b5061024d61045636600461480b565b611603565b348015610466575f5ffd5b5061047a61047536600461480b565b6116ab565b604051610225989796959493929190614950565b348015610499575f5ffd5b5060055461021b565b3480156104ad575f5ffd5b5061024d6104bc36600461480b565b61170f565b3480156104cc575f5ffd5b5061024d6104db3660046146cb565b6118ab565b3480156104eb575f5ffd5b5061024d6104fa3660046149ab565b611a42565b34801561050a575f5ffd5b506103cd611bd2565b34801561051e575f5ffd5b50600d546102ea906001600160a01b031681565b34801561053d575f5ffd5b506103ee611cde565b348015610551575f5ffd5b506007546102ea906001600160a01b031681565b348015610570575f5ffd5b5061024d61057f3660046149f9565b611cf9565b34801561058f575f5ffd5b506103ee61059e36600461480b565b611d8c565b3480156105ae575f5ffd5b506009546102ea906001600160a01b031681565b3480156105cd575f5ffd5b5061021b6105dc36600461477b565b600260209081525f928352604080842090915290825290205481565b348015610603575f5ffd5b5061024d610612366004614a24565b611e7f565b348015610622575f5ffd5b506103ee61063136600461480b565b611ef3565b348015610641575f5ffd5b5061042c6106503660046147dc565b60046020525f908152604090205460ff1681565b34801561066f575f5ffd5b5061047a61067e36600461480b565b611f0e565b34801561068e575f5ffd5b5061024d61069d366004614a4f565b611f1d565b3480156106ad575f5ffd5b5061024d6106bc366004614822565b611fcf565b335f9081526004602052604090205460ff166106f85760405162461bcd60e51b81526004016106ef90614abc565b60405180910390fd5b61070061224e565b6001600160a01b0386165f90815260026020908152604080832083805290915281208054869290610732908490614af8565b925050819055505f604051806101000160405280898152602001886001600160a01b031681526020018781526020018681526020015f8152602001855f81111561077e5761077e614854565b815260200184600281111561079557610795614854565b8152831515602091820152600c546040805162e36de360e01b815290519394506001600160a01b039091169262e36de3926004808401939192918290030181865afa1580156107e6573d5f5f3e3d5ffd5b505050506040513d601f19601f8201168201806040525081019061080a9190614b0b565b8610156108295760405162461bcd60e51b81526004016106ef90614b22565b6006545f036108435761083e815f6001612295565b610888565b60065f8154811061085657610856614b74565b905f5260205f209060060201600201548160400151101561087d5761083e815f6001612295565b61088860068261295f565b5050505050505050565b335f9081526004602052604090205460ff166108c05760405162461bcd60e51b81526004016106ef90614abc565b6108c861224e565b6001600160a01b0383165f908152600260209081526040808320838052909152812080548392906108fa908490614b88565b9091555050600854604051630d44798360e11b81526001600160a01b0390911690631a88f306906109319085908590600401614b9b565b5f604051808303815f87803b158015610948575f5ffd5b505af115801561095a573d5f5f3e3d5ffd5b50505050505050565b6001600160a01b0382165f9081526002602052604081208183801561098a5761098a614854565b801561099857610998614854565b81526020019081526020015f205490505b92915050565b335f9081526004602052604090205460ff166109dd5760405162461bcd60e51b81526004016106ef90614abc565b6109e5612e46565b6109ed61224e565b6001600160a01b0382165f908152600460205260409020805460ff1916821515179055600180555050565b5050565b335f9081526004602052604090205460ff16610a4a5760405162461bcd60e51b81526004016106ef90614abc565b600d80546001600160a01b0319166001600160a01b0392909216919091179055565b335f9081526004602052604090205460ff16610a9a5760405162461bcd60e51b81526004016106ef90614abc565b610aa261224e565b600754604080513360248201525f604480830182905283518084039091018152606490920183526020820180516001600160e01b031663095ea7b360e01b179052915191926001600160a01b031691610afb9190614bb4565b5f604051808303815f865af19150503d805f8114610b34576040519150601f19603f3d011682016040523d82523d5f602084013e610b39565b606091505b5050905080610b875760405162461bcd60e51b815260206004820152601a6024820152791554d115081c995cd95d08185c1c1c9bdd985b0819985a5b195960321b60448201526064016106ef565b6007546040515f916001600160a01b03169063095ea7b360e01b90610bb29033908790602401614b9b565b60408051601f198184030181529181526020820180516001600160e01b03166001600160e01b0319909416939093179092529051610bf09190614bb4565b5f604051808303815f865af19150503d805f8114610c29576040519150601f19603f3d011682016040523d82523d5f602084013e610c2e565b606091505b5050905080610c765760405162461bcd60e51b81526020600482015260146024820152731554d11508185c1c1c9bdd985b0819985a5b195960621b60448201526064016106ef565b505050565b335f9081526004602052604090205460ff16610ca95760405162461bcd60e51b81526004016106ef90614abc565b6006548110610cca5760405162461bcd60e51b81526004016106ef90614bca565b805b600654610cdb90600190614b88565b811015610e05576006610cef826001614af8565b81548110610cff57610cff614b74565b905f5260205f20906006020160068281548110610d1e57610d1e614b74565b5f9182526020909120825460069092020190815560018083015481830180546001600160a01b0319166001600160a01b03909216919091179055600280840154908301556003808401549083015560048084015490830155600580840154908301805460ff90921692909160ff191690838015610d9d57610d9d614854565b0217905550600582810154908201805460ff61010093849004169261ff001990911690836002811115610dd257610dd2614854565b02179055506005918201549101805462ff00001916620100009283900460ff161515909202919091179055600101610ccc565b506006805480610e1757610e17614bf7565b5f8281526020812060065f19909301928302018181556001810180546001600160a01b031916905560028101829055600381018290556004810191909155600501805462ffffff19169055905550565b6001600160a01b0382165f90815260036020526040812081836002811115610e9157610e91614854565b600281111561099857610998614854565b335f9081526004602052604090205460ff16610ed05760405162461bcd60e51b81526004016106ef90614abc565b610ed8612e46565b610ee061224e565b600c5f9054906101000a90046001600160a01b03166001600160a01b031662e36de36040518163ffffffff1660e01b8152600401602060405180830381865afa158015610f2f573d5f5f3e3d5ffd5b505050506040513d601f19601f82011682018060405250810190610f539190614b0b565b811015610f725760405162461bcd60e51b81526004016106ef90614b22565b5f5b6005548110156113b8578260058281548110610f9257610f92614b74565b905f5260205f2090600602015f0154036113b0575f60058281548110610fba57610fba614b74565b5f918252602090912060069091020160018101549091506001600160a01b03868116911614610ffb5760405162461bcd60e51b81526004016106ef90614c0b565b600381015460028201545f906103e890611016908490614c4e565b6110209190614c65565b90505f6103e86110308488614c4e565b61103a9190614c65565b905081811115611170575f61104f8383614b88565b9050803410156110ad5760405162461bcd60e51b815260206004820152602360248201527f496e73756666696369656e7420457468657220666f72207072696365206368616044820152626e676560e81b60648201526084016106ef565b5f6110b88234614b88565b905080156110f5576040516001600160a01b038b169082156108fc029083905f818181858888f193505050501580156110f3573d5f5f3e3d5ffd5b505b600c546040516001600160a01b039091169083156108fc029084905f818181858888f1935050505015801561112c573d5f5f3e3d5ffd5b5060018601546001600160a01b03165f90815260036020908152604080832083805290915281208054849290611163908490614af8565b9091555061129092505050565b5f61117b8284614b88565b6001600160a01b038a165f9081526003602090815260408083208380529091529020549091508111156111ee5760405162461bcd60e51b815260206004820152601b60248201527a496e73756666696369656e7420657363726f772062616c616e636560281b60448201526064016106ef565b600c546001860154604051632d6d980f60e21b81526001600160a01b039283169263b5b6603c92611226929116908590600401614b9b565b5f604051808303815f87803b15801561123d575f5ffd5b505af115801561124f573d5f5f3e3d5ffd5b5050505060018501546001600160a01b03165f90815260036020908152604080832083805290915281208054839290611289908490614b88565b9091555050505b6002840186905560408051610100810182528554815260018601546001600160a01b03166020820152908101879052600385015460608201526004850154608082015260058501545f9190869060a083019060ff1680156112f3576112f3614854565b801561130157611301614854565b81526020016005820160019054906101000a900460ff16600281111561132957611329614854565b600281111561133a5761133a614854565b815260059182015462010000900460ff16151560209091015290915061136190875f612e70565b60065415801590611394575060065f8154811061138057611380614b74565b905f5260205f209060060201600201548710155b156113a5576113a58160015f612295565b5050505050506113f3565b600101610f74565b5060405162461bcd60e51b815260206004820152600f60248201526e13dc99195c881b9bdd08199bdd5b99608a1b60448201526064016106ef565b610c7660018055565b60606005805480602002602001604051908101604052809291908181526020015f905b82821015611508575f8481526020908190206040805161010081018252600686029092018054835260018101546001600160a01b0316938301939093526002830154908201526003820154606082015260048201546080820152600582015490919060a083019060ff16801561149757611497614854565b80156114a5576114a5614854565b81526020016005820160019054906101000a900460ff1660028111156114cd576114cd614854565b60028111156114de576114de614854565b81526005919091015460ff620100009091041615156020918201529082526001909201910161141f565b50505050905090565b6115196145fd565b60055f8154811061152c5761152c614b74565b5f918252602091829020604080516101008101825260069093029091018054835260018101546001600160a01b0316938301939093526002830154908201526003820154606082015260048201546080820152600582015490919060a083019060ff16801561159d5761159d614854565b80156115ab576115ab614854565b81526020016005820160019054906101000a900460ff1660028111156115d3576115d3614854565b60028111156115e4576115e4614854565b81526005919091015462010000900460ff161515602090910152919050565b335f9081526004602052604090205460ff166116315760405162461bcd60e51b81526004016106ef90614abc565b61163961224e565b60095460405163095ea7b360e01b81526001600160a01b039091169063095ea7b39061166b9033908590600401614b9b565b6020604051808303815f875af1158015611687573d5f5f3e3d5ffd5b505050506040513d601f19601f82011682018060405250810190610a189190614c84565b600581815481106116ba575f80fd5b5f9182526020909120600690910201805460018201546002830154600384015460048501546005909501549395506001600160a01b0390921693909260ff808216916101008104821691620100009091041688565b335f9081526004602052604090205460ff1661173d5760405162461bcd60e51b81526004016106ef90614abc565b600554811061175e5760405162461bcd60e51b81526004016106ef90614bca565b805b60055461176f90600190614b88565b811015611899576005611783826001614af8565b8154811061179357611793614b74565b905f5260205f209060060201600582815481106117b2576117b2614b74565b5f9182526020909120825460069092020190815560018083015481830180546001600160a01b0319166001600160a01b03909216919091179055600280840154908301556003808401549083015560048084015490830155600580840154908301805460ff90921692909160ff19169083801561183157611831614854565b0217905550600582810154908201805460ff61010093849004169261ff00199091169083600281111561186657611866614854565b02179055506005918201549101805462ff00001916620100009283900460ff161515909202919091179055600101611760565b506005805480610e1757610e17614bf7565b335f9081526004602052604090205460ff166118d95760405162461bcd60e51b81526004016106ef90614abc565b6118e1612e46565b6118e961224e565b5f604051806101000160405280898152602001886001600160a01b031681526020018781526020018681526020015f8152602001855f81111561192e5761192e614854565b815260200184600281111561194557611945614854565b8152831515602091820152600c546040805162e36de360e01b815290519394506001600160a01b039091169262e36de3926004808401939192918290030181865afa158015611996573d5f5f3e3d5ffd5b505050506040513d601f19601f820116820180604052508101906119ba9190614b0b565b8610156119d95760405162461bcd60e51b81526004016106ef90614b22565b6005545f036119f3576119ee81600180612295565b611a38565b60055f81548110611a0657611a06614b74565b905f5260205f2090600602016002015481604001511115611a2d576119ee81600180612295565b611a386005826139ae565b5061095a60018055565b335f9081526004602052604090205460ff16611a705760405162461bcd60e51b81526004016106ef90614abc565b611a7861224e565b8015611ae0576001600160a01b0384165f9081526003602052604081208391856002811115611aa957611aa9614854565b6002811115611aba57611aba614854565b81526020019081526020015f205f828254611ad59190614af8565b90915550611bcc9050565b6001600160a01b0384165f9081526003602052604081208391856002811115611b0b57611b0b614854565b6002811115611b1c57611b1c614854565b81526020019081526020015f20541015611b6f5760405162461bcd60e51b8152602060048201526014602482015273496e73756666696369656e742062616c616e636560601b60448201526064016106ef565b6001600160a01b0384165f9081526003602052604081208391856002811115611b9a57611b9a614854565b6002811115611bab57611bab614854565b81526020019081526020015f205f828254611bc69190614b88565b90915550505b50505050565b60606006805480602002602001604051908101604052809291908181526020015f905b82821015611508575f8481526020908190206040805161010081018252600686029092018054835260018101546001600160a01b0316938301939093526002830154908201526003820154606082015260048201546080820152600582015490919060a083019060ff168015611c6d57611c6d614854565b8015611c7b57611c7b614854565b81526020016005820160019054906101000a900460ff166002811115611ca357611ca3614854565b6002811115611cb457611cb4614854565b81526005919091015460ff6201000090910416151560209182015290825260019092019101611bf5565b611ce66145fd565b60065f8154811061152c5761152c614b74565b335f9081526004602052604090205460ff16611d275760405162461bcd60e51b81526004016106ef90614abc565b611d2f612e46565b611d3761224e565b6001600160a01b0383165f9081526003602052604081208291846002811115611d6257611d62614854565b6002811115611d7357611d73614854565b815260208101919091526040015f2055610c7660018055565b611d946145fd565b60068281548110611da757611da7614b74565b5f918252602091829020604080516101008101825260069093029091018054835260018101546001600160a01b0316938301939093526002830154908201526003820154606082015260048201546080820152600582015490919060a083019060ff168015611e1857611e18614854565b8015611e2657611e26614854565b81526020016005820160019054906101000a900460ff166002811115611e4e57611e4e614854565b6002811115611e5f57611e5f614854565b81526005919091015462010000900460ff16151560209091015292915050565b335f9081526004602052604090205460ff16611ead5760405162461bcd60e51b81526004016106ef90614abc565b611eb5612e46565b611ebd61224e565b6001600160a01b0383165f9081526002602052604081208291848015611ee557611ee5614854565b8015611d7357611d73614854565b611efb6145fd565b60058281548110611da757611da7614b74565b600681815481106116ba575f80fd5b335f9081526004602052604090205460ff16611f4b5760405162461bcd60e51b81526004016106ef90614abc565b611f53612e46565b611f5b61224e565b600780546001600160a01b038087166001600160a01b031992831617909255600980548684169083168117909155600a80548316909117905560088054858416908316179055600b8054848416908316179055600c805492881692909116919091179055611fc860018055565b5050505050565b335f9081526004602052604090205460ff16611ffd5760405162461bcd60e51b81526004016106ef90614abc565b612005612e46565b61200d61224e565b600c5f9054906101000a90046001600160a01b03166001600160a01b031662e36de36040518163ffffffff1660e01b8152600401602060405180830381865afa15801561205c573d5f5f3e3d5ffd5b505050506040513d601f19601f820116820180604052508101906120809190614b0b565b81101561209f5760405162461bcd60e51b81526004016106ef90614b22565b5f5b6006548110156113b85782600682815481106120bf576120bf614b74565b905f5260205f2090600602015f015403612246575f600682815481106120e7576120e7614b74565b5f918252602090912060069091020160018101549091506001600160a01b038681169116146121285760405162461bcd60e51b81526004016106ef90614c0b565b6002810183905560408051610100810182528254815260018301546001600160a01b03166020820152908101849052600382015460608201526004820154608082015260058201545f9190839060a083019060ff16801561218b5761218b614854565b801561219957612199614854565b81526020016005820160019054906101000a900460ff1660028111156121c1576121c1614854565b60028111156121d2576121d2614854565b81526005919091015462010000900460ff16151560209091015290506121fb6006846001612e70565b6005541580159061222e575060055f8154811061221a5761221a614b74565b905f5260205f209060060201600201548411155b1561223e5761223e815f5f612295565b5050506113f3565b6001016120a1565b5f5460ff16156122935760405162461bcd60e51b815260206004820152601060248201526f14185d5cd8589b194e881c185d5cd95960821b60448201526064016106ef565b565b61229d61224e565b60608301515f9081846122b15760056122b4565b60065b90505f5b8154811015612437575f8282815481106122d4576122d4614b74565b905f5260205f2090600602019050861580156122fa5750600581015462010000900460ff165b1561238857600c54602089015160405163237b64ef60e11b81526001600160a01b03909216916346f6c9de91612332916004016147f7565b602060405180830381865afa15801561234d573d5f5f3e3d5ffd5b505050506040513d601f19601f820116820180604052508101906123719190614c84565b612388578161237f81614c9f565b925050506122b8565b5f8761239f578160020154896040015111156123ac565b8160020154896040015110155b9050806123ba575050612437565b6123c8858360030154613dab565b95506123d68983888b613dbd565b6123e08686614b88565b945085826003015f8282546123f59190614b88565b909155505060038201545f036124145761240f8484613faa565b612422565b8261241e81614c9f565b9350505b845f03612430575050612437565b50506122b8565b5f86612444576006612447565b60055b9050831561295057606088018490525f805b825481101561258157895f015183828154811061247857612478614b74565b905f5260205f2090600602015f015403612579578983828154811061249f5761249f614b74565b5f91825260209182902083516006929092020190815590820151600180830180546001600160a01b0319166001600160a01b039093169290921790915560408301516002830155606083015160038301556080830151600483015560a08301516005830180549192909160ff19169083801561251d5761251d614854565b021790555060c082015160058201805461ff00191661010083600281111561254757612547614854565b021790555060e0919091015160059091018054911515620100000262ff00001990921691909117905560019150612581565b600101612459565b50801561259357505050505050505050565b81546014116125bf5787156125b1576125ac825f614164565b6125bf565b6125bf828a60a00151614376565b81545f9015612648575b825481108015612631575088612607578281815481106125eb576125eb614b74565b905f5260205f209060060201600201548a604001511015612631565b82818154811061261957612619614b74565b905f5260205f209060060201600201548a6040015111155b15612648578061264081614c9f565b9150506125c9565b8254600180820185555f8581526020908190208d516006909402019283558c015182820180546001600160a01b0319166001600160a01b0390921691909117905560408c0151600283015560608c0151600383015560808c0151600483015560a08c01516005830180548e949360ff19909116908380156126cb576126cb614854565b021790555060c082015160058201805461ff0019166101008360028111156126f5576126f5614854565b021790555060e0919091015160059091018054911515620100000262ff00001990921691909117905582545f9061272e90600190614b88565b90505b818111156128645783612745600183614b88565b8154811061275557612755614b74565b905f5260205f20906006020184828154811061277357612773614b74565b5f9182526020909120825460069092020190815560018083015481830180546001600160a01b0319166001600160a01b03909216919091179055600280840154908301556003808401549083015560048084015490830155600580840154908301805460ff90921692909160ff1916908380156127f2576127f2614854565b0217905550600582810154908201805460ff61010093849004169261ff00199091169083600281111561282757612827614854565b02179055506005918201549101805462ff00001916620100009283900460ff1615159092029190911790558061285c81614cb7565b915050612731565b508983828154811061287857612878614b74565b5f91825260209182902083516006929092020190815590820151600180830180546001600160a01b0319166001600160a01b039093169290921790915560408301516002830155606083015160038301556080830151600483015560a08301516005830180549192909160ff1916908380156128f6576128f6614854565b021790555060c082015160058201805461ff00191661010083600281111561292057612920614854565b021790555060e0919091015160059091018054911515620100000262ff0000199092169190911790555050610888565b85610888576108888183613faa565b81545f5b81811080156129975750826040015184828154811061298457612984614b74565b905f5260205f2090600602016002015411155b156129ae57806129a681614c9f565b915050612963565b60148210612b3f575f846129c3600185614b88565b815481106129d3576129d3614b74565b5f918252602091829020604080516101008101825260069093029091018054835260018101546001600160a01b0316938301939093526002830154908201526003820154606082015260048201546080820152600582015490919060a083019060ff168015612a4457612a44614854565b8015612a5257612a52614854565b81526020016005820160019054906101000a900460ff166002811115612a7a57612a7a614854565b6002811115612a8b57612a8b614854565b81526005919091015462010000900460ff161515602090910152604081810151908601519192501115612adb57612ac6858560a00151614376565b8454925082821115612ad6578291505b612b3d565b60405162461bcd60e51b815260206004820152603160248201527f4e6577206f72646572207072696365206973206e6f74206c6f7720656e6f756760448201527034103a379031329034b739b2b93a32b21760791b60648201526084016106ef565b505b8354600180820186555f868152602090819020865160069094020192835585015182820180546001600160a01b0319166001600160a01b0390921691909117905560408501516002830155606085015160038301556080850151600483015560a085015160058301805487949360ff1990911690838015612bc257612bc2614854565b021790555060c082015160058201805461ff001916610100836002811115612bec57612bec614854565b021790555060e0919091015160059091018054911515620100000262ff00001990921691909117905583545f90612c2590600190614b88565b90505b81811115612d5b5784612c3c600183614b88565b81548110612c4c57612c4c614b74565b905f5260205f209060060201858281548110612c6a57612c6a614b74565b5f9182526020909120825460069092020190815560018083015481830180546001600160a01b0319166001600160a01b03909216919091179055600280840154908301556003808401549083015560048084015490830155600580840154908301805460ff90921692909160ff191690838015612ce957612ce9614854565b0217905550600582810154908201805460ff61010093849004169261ff001990911690836002811115612d1e57612d1e614854565b02179055506005918201549101805462ff00001916620100009283900460ff16151590920291909117905580612d5381614cb7565b915050612c28565b5082848281548110612d6f57612d6f614b74565b5f91825260209182902083516006929092020190815590820151600180830180546001600160a01b0319166001600160a01b039093169290921790915560408301516002830155606083015160038301556080830151600483015560a08301516005830180549192909160ff191690838015612ded57612ded614854565b021790555060c082015160058201805461ff001916610100836002811115612e1757612e17614854565b021790555060e0919091015160059091018054911515620100000262ff00001990921691909117905550505050565b600260015403612e6957604051633ee5aeb560e01b815260040160405180910390fd5b6002600155565b82548210612e905760405162461bcd60e51b81526004016106ef90614bca565b5f838381548110612ea357612ea3614b74565b5f918252602091829020604080516101008101825260069093029091018054835260018101546001600160a01b0316938301939093526002830154908201526003820154606082015260048201546080820152600582015490919060a083019060ff168015612f1457612f14614854565b8015612f2257612f22614854565b81526020016005820160019054906101000a900460ff166002811115612f4a57612f4a614854565b6002811115612f5b57612f5b614854565b81526005919091015462010000900460ff16151560209091015290505f821561342057835b5f81118015612fbd575085612f96600183614b88565b81548110612fa657612fa6614b74565b905f5260205f209060060201600201548360400151105b156130fa5785612fce600183614b88565b81548110612fde57612fde614b74565b905f5260205f209060060201868281548110612ffc57612ffc614b74565b5f9182526020909120825460069092020190815560018083015481830180546001600160a01b0319166001600160a01b03909216919091179055600280840154908301556003808401549083015560048084015490830155600580840154908301805460ff90921692909160ff19169083801561307b5761307b614854565b0217905550600582810154908201805460ff61010093849004169261ff0019909116908360028111156130b0576130b0614854565b02179055506005918201549101805462ff00001916620100009283900460ff1615159092029190911790556130e6600182614b88565b9450806130f281614cb7565b915050612f80565b50835b855461310b90600190614b88565b81108015613147575085613120826001614af8565b8154811061313057613130614b74565b905f5260205f209060060201600201548360400151115b1561328a5781613278578561315d826001614af8565b8154811061316d5761316d614b74565b905f5260205f20906006020186828154811061318b5761318b614b74565b5f9182526020909120825460069092020190815560018083015481830180546001600160a01b0319166001600160a01b03909216919091179055600280840154908301556003808401549083015560048084015490830155600580840154908301805460ff90921692909160ff19169083801561320a5761320a614854565b0217905550600582810154908201805460ff61010093849004169261ff00199091169083600281111561323f5761323f614854565b02179055506005918201549101805462ff00001916620100009283900460ff161515909202919091179055613275816001614af8565b94505b8061328281614c9f565b9150506130fd565b50835b855461329b90600190614b88565b811080156132d75750856132b0826001614af8565b815481106132c0576132c0614b74565b905f5260205f209060060201600201548360400151145b1561341a578161340857856132ed826001614af8565b815481106132fd576132fd614b74565b905f5260205f20906006020186828154811061331b5761331b614b74565b5f9182526020909120825460069092020190815560018083015481830180546001600160a01b0319166001600160a01b03909216919091179055600280840154908301556003808401549083015560048084015490830155600580840154908301805460ff90921692909160ff19169083801561339a5761339a614854565b0217905550600582810154908201805460ff61010093849004169261ff0019909116908360028111156133cf576133cf614854565b02179055506005918201549101805462ff00001916620100009283900460ff161515909202919091179055613405816001614af8565b94505b8061341281614c9f565b91505061328d565b506138be565b835b5f8111801561345f575085613438600183614b88565b8154811061344857613448614b74565b905f5260205f209060060201600201548360400151115b1561359c5785613470600183614b88565b8154811061348057613480614b74565b905f5260205f20906006020186828154811061349e5761349e614b74565b5f9182526020909120825460069092020190815560018083015481830180546001600160a01b0319166001600160a01b03909216919091179055600280840154908301556003808401549083015560048084015490830155600580840154908301805460ff90921692909160ff19169083801561351d5761351d614854565b0217905550600582810154908201805460ff61010093849004169261ff00199091169083600281111561355257613552614854565b02179055506005918201549101805462ff00001916620100009283900460ff161515909202919091179055613588600182614b88565b94508061359481614cb7565b915050613422565b50835b85546135ad90600190614b88565b811080156135e95750856135c2826001614af8565b815481106135d2576135d2614b74565b905f5260205f209060060201600201548360400151105b1561372c578161371a57856135ff826001614af8565b8154811061360f5761360f614b74565b905f5260205f20906006020186828154811061362d5761362d614b74565b5f9182526020909120825460069092020190815560018083015481830180546001600160a01b0319166001600160a01b03909216919091179055600280840154908301556003808401549083015560048084015490830155600580840154908301805460ff90921692909160ff1916908380156136ac576136ac614854565b0217905550600582810154908201805460ff61010093849004169261ff0019909116908360028111156136e1576136e1614854565b02179055506005918201549101805462ff00001916620100009283900460ff161515909202919091179055613717816001614af8565b94505b8061372481614c9f565b91505061359f565b50835b855461373d90600190614b88565b81108015613779575085613752826001614af8565b8154811061376257613762614b74565b905f5260205f209060060201600201548360400151145b156138bc57816138aa578561378f826001614af8565b8154811061379f5761379f614b74565b905f5260205f2090600602018682815481106137bd576137bd614b74565b5f9182526020909120825460069092020190815560018083015481830180546001600160a01b0319166001600160a01b03909216919091179055600280840154908301556003808401549083015560048084015490830155600580840154908301805460ff90921692909160ff19169083801561383c5761383c614854565b0217905550600582810154908201805460ff61010093849004169261ff00199091169083600281111561387157613871614854565b02179055506005918201549101805462ff00001916620100009283900460ff1615159092029190911790556138a7816001614af8565b94505b806138b481614c9f565b91505061372f565b505b80611fc857818585815481106138d6576138d6614b74565b5f91825260209182902083516006929092020190815590820151600180830180546001600160a01b0319166001600160a01b039093169290921790915560408301516002830155606083015160038301556080830151600483015560a08301516005830180549192909160ff19169083801561395457613954614854565b021790555060c082015160058201805461ff00191661010083600281111561397e5761397e614854565b021790555060e0919091015160059091018054911515620100000262ff0000199092169190911790555050505050565b81545f5b81811080156139e6575082604001518482815481106139d3576139d3614b74565b905f5260205f2090600602016002015410155b156139fd57806139f581614c9f565b9150506139b2565b60148210613b8f575f84613a12600185614b88565b81548110613a2257613a22614b74565b5f918252602091829020604080516101008101825260069093029091018054835260018101546001600160a01b0316938301939093526002830154908201526003820154606082015260048201546080820152600582015490919060a083019060ff168015613a9357613a93614854565b8015613aa157613aa1614854565b81526020016005820160019054906101000a900460ff166002811115613ac957613ac9614854565b6002811115613ada57613ada614854565b81526005919091015462010000900460ff161515602090910152604081810151908601519192501015613b2a57613b15858560c00151614164565b8454925082821115613b25578291505b613b8d565b60405162461bcd60e51b815260206004820152603260248201527f4e6577206f72646572207072696365206973206e6f74206869676820656e6f7560448201527133b4103a379031329034b739b2b93a32b21760711b60648201526084016106ef565b505b8354600180820186555f868152602090819020865160069094020192835585015182820180546001600160a01b0319166001600160a01b0390921691909117905560408501516002830155606085015160038301556080850151600483015560a085015160058301805487949360ff1990911690838015613c1257613c12614854565b021790555060c082015160058201805461ff001916610100836002811115613c3c57613c3c614854565b021790555060e0919091015160059091018054911515620100000262ff00001990921691909117905583545f90613c7590600190614b88565b90505b81811115612d5b5784613c8c600183614b88565b81548110613c9c57613c9c614b74565b905f5260205f209060060201858281548110613cba57613cba614b74565b5f9182526020909120825460069092020190815560018083015481830180546001600160a01b0319166001600160a01b03909216919091179055600280840154908301556003808401549083015560048084015490830155600580840154908301805460ff90921692909160ff191690838015613d3957613d39614854565b0217905550600582810154908201805460ff61010093849004169261ff001990911690836002811115613d6e57613d6e614854565b02179055506005918201549101805462ff00001916620100009283900460ff16151590920291909117905580613da381614cb7565b915050613c78565b5f8282188284100282185b9392505050565b5f5f5f8315613de9575050506020840151600184015460408601516001600160a01b0390911690613e08565b5050506001830154602085015160028501546001600160a01b03909216915b5f6103e8613e168388614c4e565b613e209190614c65565b9050613e32848960c00151835f611a42565b6001600160a01b0383165f908152600260209081526040808320838052909152902054861115613ebc5760405162461bcd60e51b815260206004820152602f60248201527f53656c6c657220646f6573206e6f74206861766520656e6f756768204e69636b60448201526e656c69756d20696e20657363726f7760881b60648201526084016106ef565b60085460405163da3e339760e01b81526001600160a01b0390911660048201819052306024830152604482018890529063da3e3397906064016020604051808303815f875af1158015613f11573d5f5f3e3d5ffd5b505050506040513d601f19601f82011682018060405250810190613f359190614c84565b50613f41838588610892565b600c5460405163ba0bbd9560e01b81526001600160a01b039091169063ba0bbd9590613f739086908590600401614b9b565b5f604051808303815f87803b158015613f8a575f5ffd5b505af1158015613f9c573d5f5f3e3d5ffd5b505050505050505050505050565b81548110613fca5760405162461bcd60e51b81526004016106ef90614bca565b805b8254613fda90600190614b88565b8110156141025782613fed826001614af8565b81548110613ffd57613ffd614b74565b905f5260205f20906006020183828154811061401b5761401b614b74565b5f9182526020909120825460069092020190815560018083015481830180546001600160a01b0319166001600160a01b03909216919091179055600280840154908301556003808401549083015560048084015490830155600580840154908301805460ff90921692909160ff19169083801561409a5761409a614854565b0217905550600582810154908201805460ff61010093849004169261ff0019909116908360028111156140cf576140cf614854565b02179055506005918201549101805462ff00001916620100009283900460ff161515909202919091179055600101613fcc565b508180548061411357614113614bf7565b5f8281526020812060065f19909301928302018181556001810180546001600160a01b031916905560028101829055600381018290556004810191909155600501805462ffffff1916905590555050565b81545f9061417490600190614b88565b90505f83828154811061418957614189614b74565b5f918252602091829020604080516101008101825260069093029091018054835260018101546001600160a01b0316938301939093526002830154908201526003820154606082015260048201546080820152600582015490919060a083019060ff1680156141fa576141fa614854565b801561420857614208614854565b81526020016005820160019054906101000a900460ff16600281111561423057614230614854565b600281111561424157614241614854565b81526005919091015462010000900460ff161515602090910152845490915084908061426f5761426f614bf7565b5f8281526020812060065f19909301928302018181556001810180546001600160a01b0319169055600281018290556003810182905560048101829055600501805462ffffff191690559155606082015160408301519091906103e8906142d7908490614c4e565b6142e19190614c65565b90505f8560028111156142f6576142f6614854565b0361436e5761430b836020015186835f611a42565b600c546020840151604051632d6d980f60e21b81526001600160a01b039092169163b5b6603c91614340918590600401614b9b565b5f604051808303815f87803b158015614357575f5ffd5b505af1158015614369573d5f5f3e3d5ffd5b505050505b505050505050565b81545f9061438690600190614b88565b90505f83828154811061439b5761439b614b74565b5f918252602091829020604080516101008101825260069093029091018054835260018101546001600160a01b0316938301939093526002830154908201526003820154606082015260048201546080820152600582015490919060a083019060ff16801561440c5761440c614854565b801561441a5761441a614854565b81526020016005820160019054906101000a900460ff16600281111561444257614442614854565b600281111561445357614453614854565b81526005919091015462010000900460ff16151560209182015281015185549192509085908061448557614485614bf7565b5f828152602080822060065f19909401938402018281556001810180546001600160a01b0319169055600280820184905560038201849055600482018490556005909101805462ffffff191690559290935560608501516001600160a01b038516825291909252604082209091908187801561450357614503614854565b801561451157614511614854565b81526020019081526020015f205490505f82821061452f5782614531565b815b90508082101561458d5760405162461bcd60e51b815260206004820152602160248201527f496e73756666696369656e7420746f6b656e20657363726f772062616c616e636044820152606560f81b60648201526084016106ef565b600854604051630d44798360e11b81526001600160a01b0390911690631a88f306906145bf9087908590600401614b9b565b5f604051808303815f87803b1580156145d6575f5ffd5b505af11580156145e8573d5f5f3e3d5ffd5b50505050610888848883856106129190614b88565b6040518061010001604052805f81526020015f6001600160a01b031681526020015f81526020015f81526020015f81526020015f5f81111561464157614641614854565b81526020015f81525f60209091015290565b6001600160a01b0381168114614667575f5ffd5b50565b803560038110614678575f5ffd5b919050565b5f5f6040838503121561468e575f5ffd5b823561469981614653565b91506146a76020840161466a565b90509250929050565b803560018110614678575f5ffd5b8015158114614667575f5ffd5b5f5f5f5f5f5f5f60e0888a0312156146e1575f5ffd5b8735965060208801356146f381614653565b9550604088013594506060880135935061470f608089016146b0565b925061471d60a0890161466a565b915060c088013561472d816146be565b8091505092959891949750929550565b5f5f5f6060848603121561474f575f5ffd5b833561475a81614653565b9250602084013561476a81614653565b929592945050506040919091013590565b5f5f6040838503121561478c575f5ffd5b823561479781614653565b91506146a7602084016146b0565b5f5f604083850312156147b6575f5ffd5b82356147c181614653565b915060208301356147d1816146be565b809150509250929050565b5f602082840312156147ec575f5ffd5b8135613db681614653565b6001600160a01b0391909116815260200190565b5f6020828403121561481b575f5ffd5b5035919050565b5f5f5f60608486031215614834575f5ffd5b833561483f81614653565b95602085013595506040909401359392505050565b634e487b7160e01b5f52602160045260245ffd5b6001811061487857614878614854565b9052565b6003811061487857614878614854565b8051825260018060a01b03602082015116602083015260408101516040830152606081015160608301526080810151608083015260a08101516148d260a0840182614868565b5060c08101516148e560c084018261487c565b5060e0908101511515910152565b602080825282518282018190525f918401906040840190835b818110156149365761491f83855161488c565b60209390930192610100929092019160010161490c565b509095945050505050565b61010081016109a9828461488c565b8881526001600160a01b0388166020820152604081018790526060810186905260808101859052610100810161498960a0830186614868565b61499660c083018561487c565b82151560e08301529998505050505050505050565b5f5f5f5f608085870312156149be575f5ffd5b84356149c981614653565b93506149d76020860161466a565b92506040850135915060608501356149ee816146be565b939692955090935050565b5f5f5f60608486031215614a0b575f5ffd5b8335614a1681614653565b925061476a6020850161466a565b5f5f5f60608486031215614a36575f5ffd5b8335614a4181614653565b925061476a602085016146b0565b5f5f5f5f5f60a08688031215614a63575f5ffd5b8535614a6e81614653565b94506020860135614a7e81614653565b93506040860135614a8e81614653565b92506060860135614a9e81614653565b91506080860135614aae81614653565b809150509295509295909350565b6020808252600e908201526d139bdd08185d5d1a1bdc9a5e995960921b604082015260600190565b634e487b7160e01b5f52601160045260245ffd5b808201808211156109a9576109a9614ae4565b5f60208284031215614b1b575f5ffd5b5051919050565b60208082526032908201527f4f72646572207072696365206d757374206265206174206c65617374207468656040820152712063757272656e74204c4d4520707269636560701b606082015260800190565b634e487b7160e01b5f52603260045260245ffd5b818103818111156109a9576109a9614ae4565b6001600160a01b03929092168252602082015260400190565b5f82518060208501845e5f920191825250919050565b602080825260139082015272496e646578206f7574206f6620626f756e647360681b604082015260600190565b634e487b7160e01b5f52603160045260245ffd5b60208082526023908201527f4f6e6c7920746865206f776e65722063616e206368616e67652074686520707260408201526269636560e81b606082015260800190565b80820281158282048414176109a9576109a9614ae4565b5f82614c7f57634e487b7160e01b5f52601260045260245ffd5b500490565b5f60208284031215614c94575f5ffd5b8151613db6816146be565b5f60018201614cb057614cb0614ae4565b5060010190565b5f81614cc557614cc5614ae4565b505f19019056fea2646970667358221220ef060e06b0fb5baa618c1e61aadcc66954f875ffa6048cc767e2057c5936606964736f6c634300081e0033",
			"opcodes": "PUSH1 0x80 PUSH1 0x40 SWAP1 DUP2 MSTORE PUSH0 DUP1 SLOAD PUSH1 0xFF NOT SWAP1 DUP2 AND DUP3 SSTORE PUSH1 0x1 DUP1 DUP1 SSTORE PUSH1 0xD DUP1 SLOAD PUSH1 0x1 PUSH1 0x1 PUSH1 0xA0 SHL SUB NOT AND CALLER SWAP1 DUP2 OR SWAP1 SWAP2 SSTORE DUP4 MSTORE PUSH1 0x4 PUSH1 0x20 MSTORE SWAP3 SWAP1 SWAP2 KECCAK256 DUP1 SLOAD SWAP1 SWAP2 AND SWAP1 SWAP2 OR SWAP1 SSTORE PUSH2 0x4D02 DUP1 PUSH2 0x4D PUSH0 CODECOPY PUSH0 RETURN INVALID PUSH1 0x80 PUSH1 0x40 MSTORE PUSH1 0x4 CALLDATASIZE LT PUSH2 0x1E1 JUMPI PUSH0 CALLDATALOAD PUSH1 0xE0 SHR DUP1 PUSH4 0x66B8CA52 GT PUSH2 0x100 JUMPI DUP1 PUSH4 0xA3A84F01 GT PUSH2 0x99 JUMPI DUP1 PUSH4 0xA3A84F01 EQ PUSH2 0x565 JUMPI DUP1 PUSH4 0xCA333372 EQ PUSH2 0x584 JUMPI DUP1 PUSH4 0xD2873510 EQ PUSH2 0x5A3 JUMPI DUP1 PUSH4 0xE30CC987 EQ PUSH2 0x5C2 JUMPI DUP1 PUSH4 0xE80B146D EQ PUSH2 0x5F8 JUMPI DUP1 PUSH4 0xE8107C1D EQ PUSH2 0x617 JUMPI DUP1 PUSH4 0xF19E207E EQ PUSH2 0x636 JUMPI DUP1 PUSH4 0xF5CBA185 EQ PUSH2 0x664 JUMPI DUP1 PUSH4 0xF63BF8BD EQ PUSH2 0x683 JUMPI DUP1 PUSH4 0xF87825EF EQ PUSH2 0x6A2 JUMPI PUSH0 PUSH0 REVERT JUMPDEST DUP1 PUSH4 0x66B8CA52 EQ PUSH2 0x45B JUMPI DUP1 PUSH4 0x6E6D19FF EQ PUSH2 0x48E JUMPI DUP1 PUSH4 0x75D924A9 EQ PUSH2 0x4A2 JUMPI DUP1 PUSH4 0x7E8843D0 EQ PUSH2 0x4C1 JUMPI DUP1 PUSH4 0x855EF41A EQ PUSH2 0x4E0 JUMPI DUP1 PUSH4 0x8C65A498 EQ PUSH2 0x4FF JUMPI DUP1 PUSH4 0x8DA5CB5B EQ PUSH2 0x513 JUMPI DUP1 PUSH4 0x97318F98 EQ PUSH2 0x532 JUMPI DUP1 PUSH4 0x99762734 EQ PUSH2 0x546 JUMPI PUSH0 PUSH0 REVERT JUMPDEST DUP1 PUSH4 0x2B20DAC4 GT PUSH2 0x17D JUMPI DUP1 PUSH4 0x2B20DAC4 EQ PUSH2 0x335 JUMPI DUP1 PUSH4 0x2E015584 EQ PUSH2 0x354 JUMPI DUP1 PUSH4 0x39D730F6 EQ PUSH2 0x373 JUMPI DUP1 PUSH4 0x47DB8591 EQ PUSH2 0x387 JUMPI DUP1 PUSH4 0x4BA7C2F4 EQ PUSH2 0x3A6 JUMPI DUP1 PUSH4 0x4C3095A9 EQ PUSH2 0x3B9 JUMPI DUP1 PUSH4 0x51479E01 EQ PUSH2 0x3DA JUMPI DUP1 PUSH4 0x555D3E63 EQ PUSH2 0x3FB JUMPI DUP1 PUSH4 0x5C975ABB EQ PUSH2 0x41A JUMPI DUP1 PUSH4 0x5F80A9CF EQ PUSH2 0x43C JUMPI PUSH0 PUSH0 REVERT JUMPDEST DUP1 PUSH4 0x65C9BE0 EQ PUSH2 0x1E5 JUMPI DUP1 PUSH4 0x7545726 EQ PUSH2 0x22E JUMPI DUP1 PUSH4 0x109573A8 EQ PUSH2 0x24F JUMPI DUP1 PUSH4 0x10DF52B9 EQ PUSH2 0x26E JUMPI DUP1 PUSH4 0x1351CF51 EQ PUSH2 0x28D JUMPI DUP1 PUSH4 0x13AF4035 EQ PUSH2 0x2AC JUMPI DUP1 PUSH4 0x1B8E2ED9 EQ PUSH2 0x2CB JUMPI DUP1 PUSH4 0x20CDB427 EQ PUSH2 0x2F7 JUMPI DUP1 PUSH4 0x29878BC4 EQ PUSH2 0x316 JUMPI JUMPDEST PUSH0 PUSH0 REVERT JUMPDEST CALLVALUE DUP1 ISZERO PUSH2 0x1F0 JUMPI PUSH0 PUSH0 REVERT JUMPDEST POP PUSH2 0x21B PUSH2 0x1FF CALLDATASIZE PUSH1 0x4 PUSH2 0x467D JUMP JUMPDEST PUSH1 0x3 PUSH1 0x20 SWAP1 DUP2 MSTORE PUSH0 SWAP3 DUP4 MSTORE PUSH1 0x40 DUP1 DUP5 KECCAK256 SWAP1 SWAP2 MSTORE SWAP1 DUP3 MSTORE SWAP1 KECCAK256 SLOAD DUP2 JUMP JUMPDEST PUSH1 0x40 MLOAD SWAP1 DUP2 MSTORE PUSH1 0x20 ADD JUMPDEST PUSH1 0x40 MLOAD DUP1 SWAP2 SUB SWAP1 RETURN JUMPDEST CALLVALUE DUP1 ISZERO PUSH2 0x239 JUMPI PUSH0 PUSH0 REVERT JUMPDEST POP PUSH2 0x24D PUSH2 0x248 CALLDATASIZE PUSH1 0x4 PUSH2 0x46CB JUMP JUMPDEST PUSH2 0x6C1 JUMP JUMPDEST STOP JUMPDEST CALLVALUE DUP1 ISZERO PUSH2 0x25A JUMPI PUSH0 PUSH0 REVERT JUMPDEST POP PUSH2 0x24D PUSH2 0x269 CALLDATASIZE PUSH1 0x4 PUSH2 0x473D JUMP JUMPDEST PUSH2 0x892 JUMP JUMPDEST CALLVALUE DUP1 ISZERO PUSH2 0x279 JUMPI PUSH0 PUSH0 REVERT JUMPDEST POP PUSH2 0x21B PUSH2 0x288 CALLDATASIZE PUSH1 0x4 PUSH2 0x477B JUMP JUMPDEST PUSH2 0x963 JUMP JUMPDEST CALLVALUE DUP1 ISZERO PUSH2 0x298 JUMPI PUSH0 PUSH0 REVERT JUMPDEST POP PUSH2 0x24D PUSH2 0x2A7 CALLDATASIZE PUSH1 0x4 PUSH2 0x47A5 JUMP JUMPDEST PUSH2 0x9AF JUMP JUMPDEST CALLVALUE DUP1 ISZERO PUSH2 0x2B7 JUMPI PUSH0 PUSH0 REVERT JUMPDEST POP PUSH2 0x24D PUSH2 0x2C6 CALLDATASIZE PUSH1 0x4 PUSH2 0x47DC JUMP JUMPDEST PUSH2 0xA1C JUMP JUMPDEST CALLVALUE DUP1 ISZERO PUSH2 0x2D6 JUMPI PUSH0 PUSH0 REVERT JUMPDEST POP PUSH1 0x8 SLOAD PUSH2 0x2EA SWAP1 PUSH1 0x1 PUSH1 0x1 PUSH1 0xA0 SHL SUB AND DUP2 JUMP JUMPDEST PUSH1 0x40 MLOAD PUSH2 0x225 SWAP2 SWAP1 PUSH2 0x47F7 JUMP JUMPDEST CALLVALUE DUP1 ISZERO PUSH2 0x302 JUMPI PUSH0 PUSH0 REVERT JUMPDEST POP PUSH2 0x24D PUSH2 0x311 CALLDATASIZE PUSH1 0x4 PUSH2 0x480B JUMP JUMPDEST PUSH2 0xA6C JUMP JUMPDEST CALLVALUE DUP1 ISZERO PUSH2 0x321 JUMPI PUSH0 PUSH0 REVERT JUMPDEST POP PUSH1 0xC SLOAD PUSH2 0x2EA SWAP1 PUSH1 0x1 PUSH1 0x1 PUSH1 0xA0 SHL SUB AND DUP2 JUMP JUMPDEST CALLVALUE DUP1 ISZERO PUSH2 0x340 JUMPI PUSH0 PUSH0 REVERT JUMPDEST POP PUSH2 0x24D PUSH2 0x34F CALLDATASIZE PUSH1 0x4 PUSH2 0x480B JUMP JUMPDEST PUSH2 0xC7B JUMP JUMPDEST CALLVALUE DUP1 ISZERO PUSH2 0x35F JUMPI PUSH0 PUSH0 REVERT JUMPDEST POP PUSH1 0xA SLOAD PUSH2 0x2EA SWAP1 PUSH1 0x1 PUSH1 0x1 PUSH1 0xA0 SHL SUB AND DUP2 JUMP JUMPDEST CALLVALUE DUP1 ISZERO PUSH2 0x37E JUMPI PUSH0 PUSH0 REVERT JUMPDEST POP PUSH1 0x6 SLOAD PUSH2 0x21B JUMP JUMPDEST CALLVALUE DUP1 ISZERO PUSH2 0x392 JUMPI PUSH0 PUSH0 REVERT JUMPDEST POP PUSH2 0x21B PUSH2 0x3A1 CALLDATASIZE PUSH1 0x4 PUSH2 0x467D JUMP JUMPDEST PUSH2 0xE67 JUMP JUMPDEST PUSH2 0x24D PUSH2 0x3B4 CALLDATASIZE PUSH1 0x4 PUSH2 0x4822 JUMP JUMPDEST PUSH2 0xEA2 JUMP JUMPDEST CALLVALUE DUP1 ISZERO PUSH2 0x3C4 JUMPI PUSH0 PUSH0 REVERT JUMPDEST POP PUSH2 0x3CD PUSH2 0x13FC JUMP JUMPDEST PUSH1 0x40 MLOAD PUSH2 0x225 SWAP2 SWAP1 PUSH2 0x48F3 JUMP JUMPDEST CALLVALUE DUP1 ISZERO PUSH2 0x3E5 JUMPI PUSH0 PUSH0 REVERT JUMPDEST POP PUSH2 0x3EE PUSH2 0x1511 JUMP JUMPDEST PUSH1 0x40 MLOAD PUSH2 0x225 SWAP2 SWAP1 PUSH2 0x4941 JUMP JUMPDEST CALLVALUE DUP1 ISZERO PUSH2 0x406 JUMPI PUSH0 PUSH0 REVERT JUMPDEST POP PUSH1 0xB SLOAD PUSH2 0x2EA SWAP1 PUSH1 0x1 PUSH1 0x1 PUSH1 0xA0 SHL SUB AND DUP2 JUMP JUMPDEST CALLVALUE DUP1 ISZERO PUSH2 0x425 JUMPI PUSH0 PUSH0 REVERT JUMPDEST POP PUSH0 SLOAD PUSH1 0xFF AND JUMPDEST PUSH1 0x40 MLOAD SWAP1 ISZERO ISZERO DUP2 MSTORE PUSH1 0x20 ADD PUSH2 0x225 JUMP JUMPDEST CALLVALUE DUP1 ISZERO PUSH2 0x447 JUMPI PUSH0 PUSH0 REVERT JUMPDEST POP PUSH2 0x24D PUSH2 0x456 CALLDATASIZE PUSH1 0x4 PUSH2 0x480B JUMP JUMPDEST PUSH2 0x1603 JUMP JUMPDEST CALLVALUE DUP1 ISZERO PUSH2 0x466 JUMPI PUSH0 PUSH0 REVERT JUMPDEST POP PUSH2 0x47A PUSH2 0x475 CALLDATASIZE PUSH1 0x4 PUSH2 0x480B JUMP JUMPDEST PUSH2 0x16AB JUMP JUMPDEST PUSH1 0x40 MLOAD PUSH2 0x225 SWAP9 SWAP8 SWAP7 SWAP6 SWAP5 SWAP4 SWAP3 SWAP2 SWAP1 PUSH2 0x4950 JUMP JUMPDEST CALLVALUE DUP1 ISZERO PUSH2 0x499 JUMPI PUSH0 PUSH0 REVERT JUMPDEST POP PUSH1 0x5 SLOAD PUSH2 0x21B JUMP JUMPDEST CALLVALUE DUP1 ISZERO PUSH2 0x4AD JUMPI PUSH0 PUSH0 REVERT JUMPDEST POP PUSH2 0x24D PUSH2 0x4BC CALLDATASIZE PUSH1 0x4 PUSH2 0x480B JUMP JUMPDEST PUSH2 0x170F JUMP JUMPDEST CALLVALUE DUP1 ISZERO PUSH2 0x4CC JUMPI PUSH0 PUSH0 REVERT JUMPDEST POP PUSH2 0x24D PUSH2 0x4DB CALLDATASIZE PUSH1 0x4 PUSH2 0x46CB JUMP JUMPDEST PUSH2 0x18AB JUMP JUMPDEST CALLVALUE DUP1 ISZERO PUSH2 0x4EB JUMPI PUSH0 PUSH0 REVERT JUMPDEST POP PUSH2 0x24D PUSH2 0x4FA CALLDATASIZE PUSH1 0x4 PUSH2 0x49AB JUMP JUMPDEST PUSH2 0x1A42 JUMP JUMPDEST CALLVALUE DUP1 ISZERO PUSH2 0x50A JUMPI PUSH0 PUSH0 REVERT JUMPDEST POP PUSH2 0x3CD PUSH2 0x1BD2 JUMP JUMPDEST CALLVALUE DUP1 ISZERO PUSH2 0x51E JUMPI PUSH0 PUSH0 REVERT JUMPDEST POP PUSH1 0xD SLOAD PUSH2 0x2EA SWAP1 PUSH1 0x1 PUSH1 0x1 PUSH1 0xA0 SHL SUB AND DUP2 JUMP JUMPDEST CALLVALUE DUP1 ISZERO PUSH2 0x53D JUMPI PUSH0 PUSH0 REVERT JUMPDEST POP PUSH2 0x3EE PUSH2 0x1CDE JUMP JUMPDEST CALLVALUE DUP1 ISZERO PUSH2 0x551 JUMPI PUSH0 PUSH0 REVERT JUMPDEST POP PUSH1 0x7 SLOAD PUSH2 0x2EA SWAP1 PUSH1 0x1 PUSH1 0x1 PUSH1 0xA0 SHL SUB AND DUP2 JUMP JUMPDEST CALLVALUE DUP1 ISZERO PUSH2 0x570 JUMPI PUSH0 PUSH0 REVERT JUMPDEST POP PUSH2 0x24D PUSH2 0x57F CALLDATASIZE PUSH1 0x4 PUSH2 0x49F9 JUMP JUMPDEST PUSH2 0x1CF9 JUMP JUMPDEST CALLVALUE DUP1 ISZERO PUSH2 0x58F JUMPI PUSH0 PUSH0 REVERT JUMPDEST POP PUSH2 0x3EE PUSH2 0x59E CALLDATASIZE PUSH1 0x4 PUSH2 0x480B JUMP JUMPDEST PUSH2 0x1D8C JUMP JUMPDEST CALLVALUE DUP1 ISZERO PUSH2 0x5AE JUMPI PUSH0 PUSH0 REVERT JUMPDEST POP PUSH1 0x9 SLOAD PUSH2 0x2EA SWAP1 PUSH1 0x1 PUSH1 0x1 PUSH1 0xA0 SHL SUB AND DUP2 JUMP JUMPDEST CALLVALUE DUP1 ISZERO PUSH2 0x5CD JUMPI PUSH0 PUSH0 REVERT JUMPDEST POP PUSH2 0x21B PUSH2 0x5DC CALLDATASIZE PUSH1 0x4 PUSH2 0x477B JUMP JUMPDEST PUSH1 0x2 PUSH1 0x20 SWAP1 DUP2 MSTORE PUSH0 SWAP3 DUP4 MSTORE PUSH1 0x40 DUP1 DUP5 KECCAK256 SWAP1 SWAP2 MSTORE SWAP1 DUP3 MSTORE SWAP1 KECCAK256 SLOAD DUP2 JUMP JUMPDEST CALLVALUE DUP1 ISZERO PUSH2 0x603 JUMPI PUSH0 PUSH0 REVERT JUMPDEST POP PUSH2 0x24D PUSH2 0x612 CALLDATASIZE PUSH1 0x4 PUSH2 0x4A24 JUMP JUMPDEST PUSH2 0x1E7F JUMP JUMPDEST CALLVALUE DUP1 ISZERO PUSH2 0x622 JUMPI PUSH0 PUSH0 REVERT JUMPDEST POP PUSH2 0x3EE PUSH2 0x631 CALLDATASIZE PUSH1 0x4 PUSH2 0x480B JUMP JUMPDEST PUSH2 0x1EF3 JUMP JUMPDEST CALLVALUE DUP1 ISZERO PUSH2 0x641 JUMPI PUSH0 PUSH0 REVERT JUMPDEST POP PUSH2 0x42C PUSH2 0x650 CALLDATASIZE PUSH1 0x4 PUSH2 0x47DC JUMP JUMPDEST PUSH1 0x4 PUSH1 0x20 MSTORE PUSH0 SWAP1 DUP2 MSTORE PUSH1 0x40 SWAP1 KECCAK256 SLOAD PUSH1 0xFF AND DUP2 JUMP JUMPDEST CALLVALUE DUP1 ISZERO PUSH2 0x66F JUMPI PUSH0 PUSH0 REVERT JUMPDEST POP PUSH2 0x47A PUSH2 0x67E CALLDATASIZE PUSH1 0x4 PUSH2 0x480B JUMP JUMPDEST PUSH2 0x1F0E JUMP JUMPDEST CALLVALUE DUP1 ISZERO PUSH2 0x68E JUMPI PUSH0 PUSH0 REVERT JUMPDEST POP PUSH2 0x24D PUSH2 0x69D CALLDATASIZE PUSH1 0x4 PUSH2 0x4A4F JUMP JUMPDEST PUSH2 0x1F1D JUMP JUMPDEST CALLVALUE DUP1 ISZERO PUSH2 0x6AD JUMPI PUSH0 PUSH0 REVERT JUMPDEST POP PUSH2 0x24D PUSH2 0x6BC CALLDATASIZE PUSH1 0x4 PUSH2 0x4822 JUMP JUMPDEST PUSH2 0x1FCF JUMP JUMPDEST CALLER PUSH0 SWAP1 DUP2 MSTORE PUSH1 0x4 PUSH1 0x20 MSTORE PUSH1 0x40 SWAP1 KECCAK256 SLOAD PUSH1 0xFF AND PUSH2 0x6F8 JUMPI PUSH1 0x40 MLOAD PUSH3 0x461BCD PUSH1 0xE5 SHL DUP2 MSTORE PUSH1 0x4 ADD PUSH2 0x6EF SWAP1 PUSH2 0x4ABC JUMP JUMPDEST PUSH1 0x40 MLOAD DUP1 SWAP2 SUB SWAP1 REVERT JUMPDEST PUSH2 0x700 PUSH2 0x224E JUMP JUMPDEST PUSH1 0x1 PUSH1 0x1 PUSH1 0xA0 SHL SUB DUP7 AND PUSH0 SWAP1 DUP2 MSTORE PUSH1 0x2 PUSH1 0x20 SWAP1 DUP2 MSTORE PUSH1 0x40 DUP1 DUP4 KECCAK256 DUP4 DUP1 MSTORE SWAP1 SWAP2 MSTORE DUP2 KECCAK256 DUP1 SLOAD DUP7 SWAP3 SWAP1 PUSH2 0x732 SWAP1 DUP5 SWAP1 PUSH2 0x4AF8 JUMP JUMPDEST SWAP3 POP POP DUP2 SWAP1 SSTORE POP PUSH0 PUSH1 0x40 MLOAD DUP1 PUSH2 0x100 ADD PUSH1 0x40 MSTORE DUP1 DUP10 DUP2 MSTORE PUSH1 0x20 ADD DUP9 PUSH1 0x1 PUSH1 0x1 PUSH1 0xA0 SHL SUB AND DUP2 MSTORE PUSH1 0x20 ADD DUP8 DUP2 MSTORE PUSH1 0x20 ADD DUP7 DUP2 MSTORE PUSH1 0x20 ADD PUSH0 DUP2 MSTORE PUSH1 0x20 ADD DUP6 PUSH0 DUP2 GT ISZERO PUSH2 0x77E JUMPI PUSH2 0x77E PUSH2 0x4854 JUMP JUMPDEST DUP2 MSTORE PUSH1 0x20 ADD DUP5 PUSH1 0x2 DUP2 GT ISZERO PUSH2 0x795 JUMPI PUSH2 0x795 PUSH2 0x4854 JUMP JUMPDEST DUP2 MSTORE DUP4 ISZERO ISZERO PUSH1 0x20 SWAP2 DUP3 ADD MSTORE PUSH1 0xC SLOAD PUSH1 0x40 DUP1 MLOAD PUSH3 0xE36DE3 PUSH1 0xE0 SHL DUP2 MSTORE SWAP1 MLOAD SWAP4 SWAP5 POP PUSH1 0x1 PUSH1 0x1 PUSH1 0xA0 SHL SUB SWAP1 SWAP2 AND SWAP3 PUSH3 0xE36DE3 SWAP3 PUSH1 0x4 DUP1 DUP5 ADD SWAP4 SWAP2 SWAP3 SWAP2 DUP3 SWAP1 SUB ADD DUP2 DUP7 GAS STATICCALL ISZERO DUP1 ISZERO PUSH2 0x7E6 JUMPI RETURNDATASIZE PUSH0 PUSH0 RETURNDATACOPY RETURNDATASIZE PUSH0 REVERT JUMPDEST POP POP POP POP PUSH1 0x40 MLOAD RETURNDATASIZE PUSH1 0x1F NOT PUSH1 0x1F DUP3 ADD AND DUP3 ADD DUP1 PUSH1 0x40 MSTORE POP DUP2 ADD SWAP1 PUSH2 0x80A SWAP2 SWAP1 PUSH2 0x4B0B JUMP JUMPDEST DUP7 LT ISZERO PUSH2 0x829 JUMPI PUSH1 0x40 MLOAD PUSH3 0x461BCD PUSH1 0xE5 SHL DUP2 MSTORE PUSH1 0x4 ADD PUSH2 0x6EF SWAP1 PUSH2 0x4B22 JUMP JUMPDEST PUSH1 0x6 SLOAD PUSH0 SUB PUSH2 0x843 JUMPI PUSH2 0x83E DUP2 PUSH0 PUSH1 0x1 PUSH2 0x2295 JUMP JUMPDEST PUSH2 0x888 JUMP JUMPDEST PUSH1 0x6 PUSH0 DUP2 SLOAD DUP2 LT PUSH2 0x856 JUMPI PUSH2 0x856 PUSH2 0x4B74 JUMP JUMPDEST SWAP1 PUSH0 MSTORE PUSH1 0x20 PUSH0 KECCAK256 SWAP1 PUSH1 0x6 MUL ADD PUSH1 0x2 ADD SLOAD DUP2 PUSH1 0x40 ADD MLOAD LT ISZERO PUSH2 0x87D JUMPI PUSH2 0x83E DUP2 PUSH0 PUSH1 0x1 PUSH2 0x2295 JUMP JUMPDEST PUSH2 0x888 PUSH1 0x6 DUP3 PUSH2 0x295F JUMP JUMPDEST POP POP POP POP POP POP POP POP JUMP JUMPDEST CALLER PUSH0 SWAP1 DUP2 MSTORE PUSH1 0x4 PUSH1 0x20 MSTORE PUSH1 0x40 SWAP1 KECCAK256 SLOAD PUSH1 0xFF AND PUSH2 0x8C0 JUMPI PUSH1 0x40 MLOAD PUSH3 0x461BCD PUSH1 0xE5 SHL DUP2 MSTORE PUSH1 0x4 ADD PUSH2 0x6EF SWAP1 PUSH2 0x4ABC JUMP JUMPDEST PUSH2 0x8C8 PUSH2 0x224E JUMP JUMPDEST PUSH1 0x1 PUSH1 0x1 PUSH1 0xA0 SHL SUB DUP4 AND PUSH0 SWAP1 DUP2 MSTORE PUSH1 0x2 PUSH1 0x20 SWAP1 DUP2 MSTORE PUSH1 0x40 DUP1 DUP4 KECCAK256 DUP4 DUP1 MSTORE SWAP1 SWAP2 MSTORE DUP2 KECCAK256 DUP1 SLOAD DUP4 SWAP3 SWAP1 PUSH2 0x8FA SWAP1 DUP5 SWAP1 PUSH2 0x4B88 JUMP JUMPDEST SWAP1 SWAP2 SSTORE POP POP PUSH1 0x8 SLOAD PUSH1 0x40 MLOAD PUSH4 0xD447983 PUSH1 0xE1 SHL DUP2 MSTORE PUSH1 0x1 PUSH1 0x1 PUSH1 0xA0 SHL SUB SWAP1 SWAP2 AND SWAP1 PUSH4 0x1A88F306 SWAP1 PUSH2 0x931 SWAP1 DUP6 SWAP1 DUP6 SWAP1 PUSH1 0x4 ADD PUSH2 0x4B9B JUMP JUMPDEST PUSH0 PUSH1 0x40 MLOAD DUP1 DUP4 SUB DUP2 PUSH0 DUP8 DUP1 EXTCODESIZE ISZERO DUP1 ISZERO PUSH2 0x948 JUMPI PUSH0 PUSH0 REVERT JUMPDEST POP GAS CALL ISZERO DUP1 ISZERO PUSH2 0x95A JUMPI RETURNDATASIZE PUSH0 PUSH0 RETURNDATACOPY RETURNDATASIZE PUSH0 REVERT JUMPDEST POP POP POP POP POP POP POP JUMP JUMPDEST PUSH1 0x1 PUSH1 0x1 PUSH1 0xA0 SHL SUB DUP3 AND PUSH0 SWAP1 DUP2 MSTORE PUSH1 0x2 PUSH1 0x20 MSTORE PUSH1 0x40 DUP2 KECCAK256 DUP2 DUP4 DUP1 ISZERO PUSH2 0x98A JUMPI PUSH2 0x98A PUSH2 0x4854 JUMP JUMPDEST DUP1 ISZERO PUSH2 0x998 JUMPI PUSH2 0x998 PUSH2 0x4854 JUMP JUMPDEST DUP2 MSTORE PUSH1 0x20 ADD SWAP1 DUP2 MSTORE PUSH1 0x20 ADD PUSH0 KECCAK256 SLOAD SWAP1 POP JUMPDEST SWAP3 SWAP2 POP POP JUMP JUMPDEST CALLER PUSH0 SWAP1 DUP2 MSTORE PUSH1 0x4 PUSH1 0x20 MSTORE PUSH1 0x40 SWAP1 KECCAK256 SLOAD PUSH1 0xFF AND PUSH2 0x9DD JUMPI PUSH1 0x40 MLOAD PUSH3 0x461BCD PUSH1 0xE5 SHL DUP2 MSTORE PUSH1 0x4 ADD PUSH2 0x6EF SWAP1 PUSH2 0x4ABC JUMP JUMPDEST PUSH2 0x9E5 PUSH2 0x2E46 JUMP JUMPDEST PUSH2 0x9ED PUSH2 0x224E JUMP JUMPDEST PUSH1 0x1 PUSH1 0x1 PUSH1 0xA0 SHL SUB DUP3 AND PUSH0 SWAP1 DUP2 MSTORE PUSH1 0x4 PUSH1 0x20 MSTORE PUSH1 0x40 SWAP1 KECCAK256 DUP1 SLOAD PUSH1 0xFF NOT AND DUP3 ISZERO ISZERO OR SWAP1 SSTORE PUSH1 0x1 DUP1 SSTORE POP POP JUMP JUMPDEST POP POP JUMP JUMPDEST CALLER PUSH0 SWAP1 DUP2 MSTORE PUSH1 0x4 PUSH1 0x20 MSTORE PUSH1 0x40 SWAP1 KECCAK256 SLOAD PUSH1 0xFF AND PUSH2 0xA4A JUMPI PUSH1 0x40 MLOAD PUSH3 0x461BCD PUSH1 0xE5 SHL DUP2 MSTORE PUSH1 0x4 ADD PUSH2 0x6EF SWAP1 PUSH2 0x4ABC JUMP JUMPDEST PUSH1 0xD DUP1 SLOAD PUSH1 0x1 PUSH1 0x1 PUSH1 0xA0 SHL SUB NOT AND PUSH1 0x1 PUSH1 0x1 PUSH1 0xA0 SHL SUB SWAP3 SWAP1 SWAP3 AND SWAP2 SWAP1 SWAP2 OR SWAP1 SSTORE JUMP JUMPDEST CALLER PUSH0 SWAP1 DUP2 MSTORE PUSH1 0x4 PUSH1 0x20 MSTORE PUSH1 0x40 SWAP1 KECCAK256 SLOAD PUSH1 0xFF AND PUSH2 0xA9A JUMPI PUSH1 0x40 MLOAD PUSH3 0x461BCD PUSH1 0xE5 SHL DUP2 MSTORE PUSH1 0x4 ADD PUSH2 0x6EF SWAP1 PUSH2 0x4ABC JUMP JUMPDEST PUSH2 0xAA2 PUSH2 0x224E JUMP JUMPDEST PUSH1 0x7 SLOAD PUSH1 0x40 DUP1 MLOAD CALLER PUSH1 0x24 DUP3 ADD MSTORE PUSH0 PUSH1 0x44 DUP1 DUP4 ADD DUP3 SWAP1 MSTORE DUP4 MLOAD DUP1 DUP5 SUB SWAP1 SWAP2 ADD DUP2 MSTORE PUSH1 0x64 SWAP1 SWAP3 ADD DUP4 MSTORE PUSH1 0x20 DUP3 ADD DUP1 MLOAD PUSH1 0x1 PUSH1 0x1 PUSH1 0xE0 SHL SUB AND PUSH4 0x95EA7B3 PUSH1 0xE0 SHL OR SWAP1 MSTORE SWAP2 MLOAD SWAP2 SWAP3 PUSH1 0x1 PUSH1 0x1 PUSH1 0xA0 SHL SUB AND SWAP2 PUSH2 0xAFB SWAP2 SWAP1 PUSH2 0x4BB4 JUMP JUMPDEST PUSH0 PUSH1 0x40 MLOAD DUP1 DUP4 SUB DUP2 PUSH0 DUP7 GAS CALL SWAP2 POP POP RETURNDATASIZE DUP1 PUSH0 DUP2 EQ PUSH2 0xB34 JUMPI PUSH1 0x40 MLOAD SWAP2 POP PUSH1 0x1F NOT PUSH1 0x3F RETURNDATASIZE ADD AND DUP3 ADD PUSH1 0x40 MSTORE RETURNDATASIZE DUP3 MSTORE RETURNDATASIZE PUSH0 PUSH1 0x20 DUP5 ADD RETURNDATACOPY PUSH2 0xB39 JUMP JUMPDEST PUSH1 0x60 SWAP2 POP JUMPDEST POP POP SWAP1 POP DUP1 PUSH2 0xB87 JUMPI PUSH1 0x40 MLOAD PUSH3 0x461BCD PUSH1 0xE5 SHL DUP2 MSTORE PUSH1 0x20 PUSH1 0x4 DUP3 ADD MSTORE PUSH1 0x1A PUSH1 0x24 DUP3 ADD MSTORE PUSH26 0x1554D115081C995CD95D08185C1C1C9BDD985B0819985A5B1959 PUSH1 0x32 SHL PUSH1 0x44 DUP3 ADD MSTORE PUSH1 0x64 ADD PUSH2 0x6EF JUMP JUMPDEST PUSH1 0x7 SLOAD PUSH1 0x40 MLOAD PUSH0 SWAP2 PUSH1 0x1 PUSH1 0x1 PUSH1 0xA0 SHL SUB AND SWAP1 PUSH4 0x95EA7B3 PUSH1 0xE0 SHL SWAP1 PUSH2 0xBB2 SWAP1 CALLER SWAP1 DUP8 SWAP1 PUSH1 0x24 ADD PUSH2 0x4B9B JUMP JUMPDEST PUSH1 0x40 DUP1 MLOAD PUSH1 0x1F NOT DUP2 DUP5 SUB ADD DUP2 MSTORE SWAP2 DUP2 MSTORE PUSH1 0x20 DUP3 ADD DUP1 MLOAD PUSH1 0x1 PUSH1 0x1 PUSH1 0xE0 SHL SUB AND PUSH1 0x1 PUSH1 0x1 PUSH1 0xE0 SHL SUB NOT SWAP1 SWAP5 AND SWAP4 SWAP1 SWAP4 OR SWAP1 SWAP3 MSTORE SWAP1 MLOAD PUSH2 0xBF0 SWAP2 SWAP1 PUSH2 0x4BB4 JUMP JUMPDEST PUSH0 PUSH1 0x40 MLOAD DUP1 DUP4 SUB DUP2 PUSH0 DUP7 GAS CALL SWAP2 POP POP RETURNDATASIZE DUP1 PUSH0 DUP2 EQ PUSH2 0xC29 JUMPI PUSH1 0x40 MLOAD SWAP2 POP PUSH1 0x1F NOT PUSH1 0x3F RETURNDATASIZE ADD AND DUP3 ADD PUSH1 0x40 MSTORE RETURNDATASIZE DUP3 MSTORE RETURNDATASIZE PUSH0 PUSH1 0x20 DUP5 ADD RETURNDATACOPY PUSH2 0xC2E JUMP JUMPDEST PUSH1 0x60 SWAP2 POP JUMPDEST POP POP SWAP1 POP DUP1 PUSH2 0xC76 JUMPI PUSH1 0x40 MLOAD PUSH3 0x461BCD PUSH1 0xE5 SHL DUP2 MSTORE PUSH1 0x20 PUSH1 0x4 DUP3 ADD MSTORE PUSH1 0x14 PUSH1 0x24 DUP3 ADD MSTORE PUSH20 0x1554D11508185C1C1C9BDD985B0819985A5B1959 PUSH1 0x62 SHL PUSH1 0x44 DUP3 ADD MSTORE PUSH1 0x64 ADD PUSH2 0x6EF JUMP JUMPDEST POP POP POP JUMP JUMPDEST CALLER PUSH0 SWAP1 DUP2 MSTORE PUSH1 0x4 PUSH1 0x20 MSTORE PUSH1 0x40 SWAP1 KECCAK256 SLOAD PUSH1 0xFF AND PUSH2 0xCA9 JUMPI PUSH1 0x40 MLOAD PUSH3 0x461BCD PUSH1 0xE5 SHL DUP2 MSTORE PUSH1 0x4 ADD PUSH2 0x6EF SWAP1 PUSH2 0x4ABC JUMP JUMPDEST PUSH1 0x6 SLOAD DUP2 LT PUSH2 0xCCA JUMPI PUSH1 0x40 MLOAD PUSH3 0x461BCD PUSH1 0xE5 SHL DUP2 MSTORE PUSH1 0x4 ADD PUSH2 0x6EF SWAP1 PUSH2 0x4BCA JUMP JUMPDEST DUP1 JUMPDEST PUSH1 0x6 SLOAD PUSH2 0xCDB SWAP1 PUSH1 0x1 SWAP1 PUSH2 0x4B88 JUMP JUMPDEST DUP2 LT ISZERO PUSH2 0xE05 JUMPI PUSH1 0x6 PUSH2 0xCEF DUP3 PUSH1 0x1 PUSH2 0x4AF8 JUMP JUMPDEST DUP2 SLOAD DUP2 LT PUSH2 0xCFF JUMPI PUSH2 0xCFF PUSH2 0x4B74 JUMP JUMPDEST SWAP1 PUSH0 MSTORE PUSH1 0x20 PUSH0 KECCAK256 SWAP1 PUSH1 0x6 MUL ADD PUSH1 0x6 DUP3 DUP2 SLOAD DUP2 LT PUSH2 0xD1E JUMPI PUSH2 0xD1E PUSH2 0x4B74 JUMP JUMPDEST PUSH0 SWAP2 DUP3 MSTORE PUSH1 0x20 SWAP1 SWAP2 KECCAK256 DUP3 SLOAD PUSH1 0x6 SWAP1 SWAP3 MUL ADD SWAP1 DUP2 SSTORE PUSH1 0x1 DUP1 DUP4 ADD SLOAD DUP2 DUP4 ADD DUP1 SLOAD PUSH1 0x1 PUSH1 0x1 PUSH1 0xA0 SHL SUB NOT AND PUSH1 0x1 PUSH1 0x1 PUSH1 0xA0 SHL SUB SWAP1 SWAP3 AND SWAP2 SWAP1 SWAP2 OR SWAP1 SSTORE PUSH1 0x2 DUP1 DUP5 ADD SLOAD SWAP1 DUP4 ADD SSTORE PUSH1 0x3 DUP1 DUP5 ADD SLOAD SWAP1 DUP4 ADD SSTORE PUSH1 0x4 DUP1 DUP5 ADD SLOAD SWAP1 DUP4 ADD SSTORE PUSH1 0x5 DUP1 DUP5 ADD SLOAD SWAP1 DUP4 ADD DUP1 SLOAD PUSH1 0xFF SWAP1 SWAP3 AND SWAP3 SWAP1 SWAP2 PUSH1 0xFF NOT AND SWAP1 DUP4 DUP1 ISZERO PUSH2 0xD9D JUMPI PUSH2 0xD9D PUSH2 0x4854 JUMP JUMPDEST MUL OR SWAP1 SSTORE POP PUSH1 0x5 DUP3 DUP2 ADD SLOAD SWAP1 DUP3 ADD DUP1 SLOAD PUSH1 0xFF PUSH2 0x100 SWAP4 DUP5 SWAP1 DIV AND SWAP3 PUSH2 0xFF00 NOT SWAP1 SWAP2 AND SWAP1 DUP4 PUSH1 0x2 DUP2 GT ISZERO PUSH2 0xDD2 JUMPI PUSH2 0xDD2 PUSH2 0x4854 JUMP JUMPDEST MUL OR SWAP1 SSTORE POP PUSH1 0x5 SWAP2 DUP3 ADD SLOAD SWAP2 ADD DUP1 SLOAD PUSH3 0xFF0000 NOT AND PUSH3 0x10000 SWAP3 DUP4 SWAP1 DIV PUSH1 0xFF AND ISZERO ISZERO SWAP1 SWAP3 MUL SWAP2 SWAP1 SWAP2 OR SWAP1 SSTORE PUSH1 0x1 ADD PUSH2 0xCCC JUMP JUMPDEST POP PUSH1 0x6 DUP1 SLOAD DUP1 PUSH2 0xE17 JUMPI PUSH2 0xE17 PUSH2 0x4BF7 JUMP JUMPDEST PUSH0 DUP3 DUP2 MSTORE PUSH1 0x20 DUP2 KECCAK256 PUSH1 0x6 PUSH0 NOT SWAP1 SWAP4 ADD SWAP3 DUP4 MUL ADD DUP2 DUP2 SSTORE PUSH1 0x1 DUP2 ADD DUP1 SLOAD PUSH1 0x1 PUSH1 0x1 PUSH1 0xA0 SHL SUB NOT AND SWAP1 SSTORE PUSH1 0x2 DUP2 ADD DUP3 SWAP1 SSTORE PUSH1 0x3 DUP2 ADD DUP3 SWAP1 SSTORE PUSH1 0x4 DUP2 ADD SWAP2 SWAP1 SWAP2 SSTORE PUSH1 0x5 ADD DUP1 SLOAD PUSH3 0xFFFFFF NOT AND SWAP1 SSTORE SWAP1 SSTORE POP JUMP JUMPDEST PUSH1 0x1 PUSH1 0x1 PUSH1 0xA0 SHL SUB DUP3 AND PUSH0 SWAP1 DUP2 MSTORE PUSH1 0x3 PUSH1 0x20 MSTORE PUSH1 0x40 DUP2 KECCAK256 DUP2 DUP4 PUSH1 0x2 DUP2 GT ISZERO PUSH2 0xE91 JUMPI PUSH2 0xE91 PUSH2 0x4854 JUMP JUMPDEST PUSH1 0x2 DUP2 GT ISZERO PUSH2 0x998 JUMPI PUSH2 0x998 PUSH2 0x4854 JUMP JUMPDEST CALLER PUSH0 SWAP1 DUP2 MSTORE PUSH1 0x4 PUSH1 0x20 MSTORE PUSH1 0x40 SWAP1 KECCAK256 SLOAD PUSH1 0xFF AND PUSH2 0xED0 JUMPI PUSH1 0x40 MLOAD PUSH3 0x461BCD PUSH1 0xE5 SHL DUP2 MSTORE PUSH1 0x4 ADD PUSH2 0x6EF SWAP1 PUSH2 0x4ABC JUMP JUMPDEST PUSH2 0xED8 PUSH2 0x2E46 JUMP JUMPDEST PUSH2 0xEE0 PUSH2 0x224E JUMP JUMPDEST PUSH1 0xC PUSH0 SWAP1 SLOAD SWAP1 PUSH2 0x100 EXP SWAP1 DIV PUSH1 0x1 PUSH1 0x1 PUSH1 0xA0 SHL SUB AND PUSH1 0x1 PUSH1 0x1 PUSH1 0xA0 SHL SUB AND PUSH3 0xE36DE3 PUSH1 0x40 MLOAD DUP2 PUSH4 0xFFFFFFFF AND PUSH1 0xE0 SHL DUP2 MSTORE PUSH1 0x4 ADD PUSH1 0x20 PUSH1 0x40 MLOAD DUP1 DUP4 SUB DUP2 DUP7 GAS STATICCALL ISZERO DUP1 ISZERO PUSH2 0xF2F JUMPI RETURNDATASIZE PUSH0 PUSH0 RETURNDATACOPY RETURNDATASIZE PUSH0 REVERT JUMPDEST POP POP POP POP PUSH1 0x40 MLOAD RETURNDATASIZE PUSH1 0x1F NOT PUSH1 0x1F DUP3 ADD AND DUP3 ADD DUP1 PUSH1 0x40 MSTORE POP DUP2 ADD SWAP1 PUSH2 0xF53 SWAP2 SWAP1 PUSH2 0x4B0B JUMP JUMPDEST DUP2 LT ISZERO PUSH2 0xF72 JUMPI PUSH1 0x40 MLOAD PUSH3 0x461BCD PUSH1 0xE5 SHL DUP2 MSTORE PUSH1 0x4 ADD PUSH2 0x6EF SWAP1 PUSH2 0x4B22 JUMP JUMPDEST PUSH0 JUMPDEST PUSH1 0x5 SLOAD DUP2 LT ISZERO PUSH2 0x13B8 JUMPI DUP3 PUSH1 0x5 DUP3 DUP2 SLOAD DUP2 LT PUSH2 0xF92 JUMPI PUSH2 0xF92 PUSH2 0x4B74 JUMP JUMPDEST SWAP1 PUSH0 MSTORE PUSH1 0x20 PUSH0 KECCAK256 SWAP1 PUSH1 0x6 MUL ADD PUSH0 ADD SLOAD SUB PUSH2 0x13B0 JUMPI PUSH0 PUSH1 0x5 DUP3 DUP2 SLOAD DUP2 LT PUSH2 0xFBA JUMPI PUSH2 0xFBA PUSH2 0x4B74 JUMP JUMPDEST PUSH0 SWAP2 DUP3 MSTORE PUSH1 0x20 SWAP1 SWAP2 KECCAK256 PUSH1 0x6 SWAP1 SWAP2 MUL ADD PUSH1 0x1 DUP2 ADD SLOAD SWAP1 SWAP2 POP PUSH1 0x1 PUSH1 0x1 PUSH1 0xA0 SHL SUB DUP7 DUP2 AND SWAP2 AND EQ PUSH2 0xFFB JUMPI PUSH1 0x40 MLOAD PUSH3 0x461BCD PUSH1 0xE5 SHL DUP2 MSTORE PUSH1 0x4 ADD PUSH2 0x6EF SWAP1 PUSH2 0x4C0B JUMP JUMPDEST PUSH1 0x3 DUP2 ADD SLOAD PUSH1 0x2 DUP3 ADD SLOAD PUSH0 SWAP1 PUSH2 0x3E8 SWAP1 PUSH2 0x1016 SWAP1 DUP5 SWAP1 PUSH2 0x4C4E JUMP JUMPDEST PUSH2 0x1020 SWAP2 SWAP1 PUSH2 0x4C65 JUMP JUMPDEST SWAP1 POP PUSH0 PUSH2 0x3E8 PUSH2 0x1030 DUP5 DUP9 PUSH2 0x4C4E JUMP JUMPDEST PUSH2 0x103A SWAP2 SWAP1 PUSH2 0x4C65 JUMP JUMPDEST SWAP1 POP DUP2 DUP2 GT ISZERO PUSH2 0x1170 JUMPI PUSH0 PUSH2 0x104F DUP4 DUP4 PUSH2 0x4B88 JUMP JUMPDEST SWAP1 POP DUP1 CALLVALUE LT ISZERO PUSH2 0x10AD JUMPI PUSH1 0x40 MLOAD PUSH3 0x461BCD PUSH1 0xE5 SHL DUP2 MSTORE PUSH1 0x20 PUSH1 0x4 DUP3 ADD MSTORE PUSH1 0x23 PUSH1 0x24 DUP3 ADD MSTORE PUSH32 0x496E73756666696369656E7420457468657220666F7220707269636520636861 PUSH1 0x44 DUP3 ADD MSTORE PUSH3 0x6E6765 PUSH1 0xE8 SHL PUSH1 0x64 DUP3 ADD MSTORE PUSH1 0x84 ADD PUSH2 0x6EF JUMP JUMPDEST PUSH0 PUSH2 0x10B8 DUP3 CALLVALUE PUSH2 0x4B88 JUMP JUMPDEST SWAP1 POP DUP1 ISZERO PUSH2 0x10F5 JUMPI PUSH1 0x40 MLOAD PUSH1 0x1 PUSH1 0x1 PUSH1 0xA0 SHL SUB DUP12 AND SWAP1 DUP3 ISZERO PUSH2 0x8FC MUL SWAP1 DUP4 SWAP1 PUSH0 DUP2 DUP2 DUP2 DUP6 DUP9 DUP9 CALL SWAP4 POP POP POP POP ISZERO DUP1 ISZERO PUSH2 0x10F3 JUMPI RETURNDATASIZE PUSH0 PUSH0 RETURNDATACOPY RETURNDATASIZE PUSH0 REVERT JUMPDEST POP JUMPDEST PUSH1 0xC SLOAD PUSH1 0x40 MLOAD PUSH1 0x1 PUSH1 0x1 PUSH1 0xA0 SHL SUB SWAP1 SWAP2 AND SWAP1 DUP4 ISZERO PUSH2 0x8FC MUL SWAP1 DUP5 SWAP1 PUSH0 DUP2 DUP2 DUP2 DUP6 DUP9 DUP9 CALL SWAP4 POP POP POP POP ISZERO DUP1 ISZERO PUSH2 0x112C JUMPI RETURNDATASIZE PUSH0 PUSH0 RETURNDATACOPY RETURNDATASIZE PUSH0 REVERT JUMPDEST POP PUSH1 0x1 DUP7 ADD SLOAD PUSH1 0x1 PUSH1 0x1 PUSH1 0xA0 SHL SUB AND PUSH0 SWAP1 DUP2 MSTORE PUSH1 0x3 PUSH1 0x20 SWAP1 DUP2 MSTORE PUSH1 0x40 DUP1 DUP4 KECCAK256 DUP4 DUP1 MSTORE SWAP1 SWAP2 MSTORE DUP2 KECCAK256 DUP1 SLOAD DUP5 SWAP3 SWAP1 PUSH2 0x1163 SWAP1 DUP5 SWAP1 PUSH2 0x4AF8 JUMP JUMPDEST SWAP1 SWAP2 SSTORE POP PUSH2 0x1290 SWAP3 POP POP POP JUMP JUMPDEST PUSH0 PUSH2 0x117B DUP3 DUP5 PUSH2 0x4B88 JUMP JUMPDEST PUSH1 0x1 PUSH1 0x1 PUSH1 0xA0 SHL SUB DUP11 AND PUSH0 SWAP1 DUP2 MSTORE PUSH1 0x3 PUSH1 0x20 SWAP1 DUP2 MSTORE PUSH1 0x40 DUP1 DUP4 KECCAK256 DUP4 DUP1 MSTORE SWAP1 SWAP2 MSTORE SWAP1 KECCAK256 SLOAD SWAP1 SWAP2 POP DUP2 GT ISZERO PUSH2 0x11EE JUMPI PUSH1 0x40 MLOAD PUSH3 0x461BCD PUSH1 0xE5 SHL DUP2 MSTORE PUSH1 0x20 PUSH1 0x4 DUP3 ADD MSTORE PUSH1 0x1B PUSH1 0x24 DUP3 ADD MSTORE PUSH27 0x496E73756666696369656E7420657363726F772062616C616E6365 PUSH1 0x28 SHL PUSH1 0x44 DUP3 ADD MSTORE PUSH1 0x64 ADD PUSH2 0x6EF JUMP JUMPDEST PUSH1 0xC SLOAD PUSH1 0x1 DUP7 ADD SLOAD PUSH1 0x40 MLOAD PUSH4 0x2D6D980F PUSH1 0xE2 SHL DUP2 MSTORE PUSH1 0x1 PUSH1 0x1 PUSH1 0xA0 SHL SUB SWAP3 DUP4 AND SWAP3 PUSH4 0xB5B6603C SWAP3 PUSH2 0x1226 SWAP3 SWAP2 AND SWAP1 DUP6 SWAP1 PUSH1 0x4 ADD PUSH2 0x4B9B JUMP JUMPDEST PUSH0 PUSH1 0x40 MLOAD DUP1 DUP4 SUB DUP2 PUSH0 DUP8 DUP1 EXTCODESIZE ISZERO DUP1 ISZERO PUSH2 0x123D JUMPI PUSH0 PUSH0 REVERT JUMPDEST POP GAS CALL ISZERO DUP1 ISZERO PUSH2 0x124F JUMPI RETURNDATASIZE PUSH0 PUSH0 RETURNDATACOPY RETURNDATASIZE PUSH0 REVERT JUMPDEST POP POP POP POP PUSH1 0x1 DUP6 ADD SLOAD PUSH1 0x1 PUSH1 0x1 PUSH1 0xA0 SHL SUB AND PUSH0 SWAP1 DUP2 MSTORE PUSH1 0x3 PUSH1 0x20 SWAP1 DUP2 MSTORE PUSH1 0x40 DUP1 DUP4 KECCAK256 DUP4 DUP1 MSTORE SWAP1 SWAP2 MSTORE DUP2 KECCAK256 DUP1 SLOAD DUP4 SWAP3 SWAP1 PUSH2 0x1289 SWAP1 DUP5 SWAP1 PUSH2 0x4B88 JUMP JUMPDEST SWAP1 SWAP2 SSTORE POP POP POP JUMPDEST PUSH1 0x2 DUP5 ADD DUP7 SWAP1 SSTORE PUSH1 0x40 DUP1 MLOAD PUSH2 0x100 DUP2 ADD DUP3 MSTORE DUP6 SLOAD DUP2 MSTORE PUSH1 0x1 DUP7 ADD SLOAD PUSH1 0x1 PUSH1 0x1 PUSH1 0xA0 SHL SUB AND PUSH1 0x20 DUP3 ADD MSTORE SWAP1 DUP2 ADD DUP8 SWAP1 MSTORE PUSH1 0x3 DUP6 ADD SLOAD PUSH1 0x60 DUP3 ADD MSTORE PUSH1 0x4 DUP6 ADD SLOAD PUSH1 0x80 DUP3 ADD MSTORE PUSH1 0x5 DUP6 ADD SLOAD PUSH0 SWAP2 SWAP1 DUP7 SWAP1 PUSH1 0xA0 DUP4 ADD SWAP1 PUSH1 0xFF AND DUP1 ISZERO PUSH2 0x12F3 JUMPI PUSH2 0x12F3 PUSH2 0x4854 JUMP JUMPDEST DUP1 ISZERO PUSH2 0x1301 JUMPI PUSH2 0x1301 PUSH2 0x4854 JUMP JUMPDEST DUP2 MSTORE PUSH1 0x20 ADD PUSH1 0x5 DUP3 ADD PUSH1 0x1 SWAP1 SLOAD SWAP1 PUSH2 0x100 EXP SWAP1 DIV PUSH1 0xFF AND PUSH1 0x2 DUP2 GT ISZERO PUSH2 0x1329 JUMPI PUSH2 0x1329 PUSH2 0x4854 JUMP JUMPDEST PUSH1 0x2 DUP2 GT ISZERO PUSH2 0x133A JUMPI PUSH2 0x133A PUSH2 0x4854 JUMP JUMPDEST DUP2 MSTORE PUSH1 0x5 SWAP2 DUP3 ADD SLOAD PUSH3 0x10000 SWAP1 DIV PUSH1 0xFF AND ISZERO ISZERO PUSH1 0x20 SWAP1 SWAP2 ADD MSTORE SWAP1 SWAP2 POP PUSH2 0x1361 SWAP1 DUP8 PUSH0 PUSH2 0x2E70 JUMP JUMPDEST PUSH1 0x6 SLOAD ISZERO DUP1 ISZERO SWAP1 PUSH2 0x1394 JUMPI POP PUSH1 0x6 PUSH0 DUP2 SLOAD DUP2 LT PUSH2 0x1380 JUMPI PUSH2 0x1380 PUSH2 0x4B74 JUMP JUMPDEST SWAP1 PUSH0 MSTORE PUSH1 0x20 PUSH0 KECCAK256 SWAP1 PUSH1 0x6 MUL ADD PUSH1 0x2 ADD SLOAD DUP8 LT ISZERO JUMPDEST ISZERO PUSH2 0x13A5 JUMPI PUSH2 0x13A5 DUP2 PUSH1 0x1 PUSH0 PUSH2 0x2295 JUMP JUMPDEST POP POP POP POP POP POP PUSH2 0x13F3 JUMP JUMPDEST PUSH1 0x1 ADD PUSH2 0xF74 JUMP JUMPDEST POP PUSH1 0x40 MLOAD PUSH3 0x461BCD PUSH1 0xE5 SHL DUP2 MSTORE PUSH1 0x20 PUSH1 0x4 DUP3 ADD MSTORE PUSH1 0xF PUSH1 0x24 DUP3 ADD MSTORE PUSH15 0x13DC99195C881B9BDD08199BDD5B99 PUSH1 0x8A SHL PUSH1 0x44 DUP3 ADD MSTORE PUSH1 0x64 ADD PUSH2 0x6EF JUMP JUMPDEST PUSH2 0xC76 PUSH1 0x1 DUP1 SSTORE JUMP JUMPDEST PUSH1 0x60 PUSH1 0x5 DUP1 SLOAD DUP1 PUSH1 0x20 MUL PUSH1 0x20 ADD PUSH1 0x40 MLOAD SWAP1 DUP2 ADD PUSH1 0x40 MSTORE DUP1 SWAP3 SWAP2 SWAP1 DUP2 DUP2 MSTORE PUSH1 0x20 ADD PUSH0 SWAP1 JUMPDEST DUP3 DUP3 LT ISZERO PUSH2 0x1508 JUMPI PUSH0 DUP5 DUP2 MSTORE PUSH1 0x20 SWAP1 DUP2 SWAP1 KECCAK256 PUSH1 0x40 DUP1 MLOAD PUSH2 0x100 DUP2 ADD DUP3 MSTORE PUSH1 0x6 DUP7 MUL SWAP1 SWAP3 ADD DUP1 SLOAD DUP4 MSTORE PUSH1 0x1 DUP2 ADD SLOAD PUSH1 0x1 PUSH1 0x1 PUSH1 0xA0 SHL SUB AND SWAP4 DUP4 ADD SWAP4 SWAP1 SWAP4 MSTORE PUSH1 0x2 DUP4 ADD SLOAD SWAP1 DUP3 ADD MSTORE PUSH1 0x3 DUP3 ADD SLOAD PUSH1 0x60 DUP3 ADD MSTORE PUSH1 0x4 DUP3 ADD SLOAD PUSH1 0x80 DUP3 ADD MSTORE PUSH1 0x5 DUP3 ADD SLOAD SWAP1 SWAP2 SWAP1 PUSH1 0xA0 DUP4 ADD SWAP1 PUSH1 0xFF AND DUP1 ISZERO PUSH2 0x1497 JUMPI PUSH2 0x1497 PUSH2 0x4854 JUMP JUMPDEST DUP1 ISZERO PUSH2 0x14A5 JUMPI PUSH2 0x14A5 PUSH2 0x4854 JUMP JUMPDEST DUP2 MSTORE PUSH1 0x20 ADD PUSH1 0x5 DUP3 ADD PUSH1 0x1 SWAP1 SLOAD SWAP1 PUSH2 0x100 EXP SWAP1 DIV PUSH1 0xFF AND PUSH1 0x2 DUP2 GT ISZERO PUSH2 0x14CD JUMPI PUSH2 0x14CD PUSH2 0x4854 JUMP JUMPDEST PUSH1 0x2 DUP2 GT ISZERO PUSH2 0x14DE JUMPI PUSH2 0x14DE PUSH2 0x4854 JUMP JUMPDEST DUP2 MSTORE PUSH1 0x5 SWAP2 SWAP1 SWAP2 ADD SLOAD PUSH1 0xFF PUSH3 0x10000 SWAP1 SWAP2 DIV AND ISZERO ISZERO PUSH1 0x20 SWAP2 DUP3 ADD MSTORE SWAP1 DUP3 MSTORE PUSH1 0x1 SWAP1 SWAP3 ADD SWAP2 ADD PUSH2 0x141F JUMP JUMPDEST POP POP POP POP SWAP1 POP SWAP1 JUMP JUMPDEST PUSH2 0x1519 PUSH2 0x45FD JUMP JUMPDEST PUSH1 0x5 PUSH0 DUP2 SLOAD DUP2 LT PUSH2 0x152C JUMPI PUSH2 0x152C PUSH2 0x4B74 JUMP JUMPDEST PUSH0 SWAP2 DUP3 MSTORE PUSH1 0x20 SWAP2 DUP3 SWAP1 KECCAK256 PUSH1 0x40 DUP1 MLOAD PUSH2 0x100 DUP2 ADD DUP3 MSTORE PUSH1 0x6 SWAP1 SWAP4 MUL SWAP1 SWAP2 ADD DUP1 SLOAD DUP4 MSTORE PUSH1 0x1 DUP2 ADD SLOAD PUSH1 0x1 PUSH1 0x1 PUSH1 0xA0 SHL SUB AND SWAP4 DUP4 ADD SWAP4 SWAP1 SWAP4 MSTORE PUSH1 0x2 DUP4 ADD SLOAD SWAP1 DUP3 ADD MSTORE PUSH1 0x3 DUP3 ADD SLOAD PUSH1 0x60 DUP3 ADD MSTORE PUSH1 0x4 DUP3 ADD SLOAD PUSH1 0x80 DUP3 ADD MSTORE PUSH1 0x5 DUP3 ADD SLOAD SWAP1 SWAP2 SWAP1 PUSH1 0xA0 DUP4 ADD SWAP1 PUSH1 0xFF AND DUP1 ISZERO PUSH2 0x159D JUMPI PUSH2 0x159D PUSH2 0x4854 JUMP JUMPDEST DUP1 ISZERO PUSH2 0x15AB JUMPI PUSH2 0x15AB PUSH2 0x4854 JUMP JUMPDEST DUP2 MSTORE PUSH1 0x20 ADD PUSH1 0x5 DUP3 ADD PUSH1 0x1 SWAP1 SLOAD SWAP1 PUSH2 0x100 EXP SWAP1 DIV PUSH1 0xFF AND PUSH1 0x2 DUP2 GT ISZERO PUSH2 0x15D3 JUMPI PUSH2 0x15D3 PUSH2 0x4854 JUMP JUMPDEST PUSH1 0x2 DUP2 GT ISZERO PUSH2 0x15E4 JUMPI PUSH2 0x15E4 PUSH2 0x4854 JUMP JUMPDEST DUP2 MSTORE PUSH1 0x5 SWAP2 SWAP1 SWAP2 ADD SLOAD PUSH3 0x10000 SWAP1 DIV PUSH1 0xFF AND ISZERO ISZERO PUSH1 0x20 SWAP1 SWAP2 ADD MSTORE SWAP2 SWAP1 POP JUMP JUMPDEST CALLER PUSH0 SWAP1 DUP2 MSTORE PUSH1 0x4 PUSH1 0x20 MSTORE PUSH1 0x40 SWAP1 KECCAK256 SLOAD PUSH1 0xFF AND PUSH2 0x1631 JUMPI PUSH1 0x40 MLOAD PUSH3 0x461BCD PUSH1 0xE5 SHL DUP2 MSTORE PUSH1 0x4 ADD PUSH2 0x6EF SWAP1 PUSH2 0x4ABC JUMP JUMPDEST PUSH2 0x1639 PUSH2 0x224E JUMP JUMPDEST PUSH1 0x9 SLOAD PUSH1 0x40 MLOAD PUSH4 0x95EA7B3 PUSH1 0xE0 SHL DUP2 MSTORE PUSH1 0x1 PUSH1 0x1 PUSH1 0xA0 SHL SUB SWAP1 SWAP2 AND SWAP1 PUSH4 0x95EA7B3 SWAP1 PUSH2 0x166B SWAP1 CALLER SWAP1 DUP6 SWAP1 PUSH1 0x4 ADD PUSH2 0x4B9B JUMP JUMPDEST PUSH1 0x20 PUSH1 0x40 MLOAD DUP1 DUP4 SUB DUP2 PUSH0 DUP8 GAS CALL ISZERO DUP1 ISZERO PUSH2 0x1687 JUMPI RETURNDATASIZE PUSH0 PUSH0 RETURNDATACOPY RETURNDATASIZE PUSH0 REVERT JUMPDEST POP POP POP POP PUSH1 0x40 MLOAD RETURNDATASIZE PUSH1 0x1F NOT PUSH1 0x1F DUP3 ADD AND DUP3 ADD DUP1 PUSH1 0x40 MSTORE POP DUP2 ADD SWAP1 PUSH2 0xA18 SWAP2 SWAP1 PUSH2 0x4C84 JUMP JUMPDEST PUSH1 0x5 DUP2 DUP2 SLOAD DUP2 LT PUSH2 0x16BA JUMPI PUSH0 DUP1 REVERT JUMPDEST PUSH0 SWAP2 DUP3 MSTORE PUSH1 0x20 SWAP1 SWAP2 KECCAK256 PUSH1 0x6 SWAP1 SWAP2 MUL ADD DUP1 SLOAD PUSH1 0x1 DUP3 ADD SLOAD PUSH1 0x2 DUP4 ADD SLOAD PUSH1 0x3 DUP5 ADD SLOAD PUSH1 0x4 DUP6 ADD SLOAD PUSH1 0x5 SWAP1 SWAP6 ADD SLOAD SWAP4 SWAP6 POP PUSH1 0x1 PUSH1 0x1 PUSH1 0xA0 SHL SUB SWAP1 SWAP3 AND SWAP4 SWAP1 SWAP3 PUSH1 0xFF DUP1 DUP3 AND SWAP2 PUSH2 0x100 DUP2 DIV DUP3 AND SWAP2 PUSH3 0x10000 SWAP1 SWAP2 DIV AND DUP9 JUMP JUMPDEST CALLER PUSH0 SWAP1 DUP2 MSTORE PUSH1 0x4 PUSH1 0x20 MSTORE PUSH1 0x40 SWAP1 KECCAK256 SLOAD PUSH1 0xFF AND PUSH2 0x173D JUMPI PUSH1 0x40 MLOAD PUSH3 0x461BCD PUSH1 0xE5 SHL DUP2 MSTORE PUSH1 0x4 ADD PUSH2 0x6EF SWAP1 PUSH2 0x4ABC JUMP JUMPDEST PUSH1 0x5 SLOAD DUP2 LT PUSH2 0x175E JUMPI PUSH1 0x40 MLOAD PUSH3 0x461BCD PUSH1 0xE5 SHL DUP2 MSTORE PUSH1 0x4 ADD PUSH2 0x6EF SWAP1 PUSH2 0x4BCA JUMP JUMPDEST DUP1 JUMPDEST PUSH1 0x5 SLOAD PUSH2 0x176F SWAP1 PUSH1 0x1 SWAP1 PUSH2 0x4B88 JUMP JUMPDEST DUP2 LT ISZERO PUSH2 0x1899 JUMPI PUSH1 0x5 PUSH2 0x1783 DUP3 PUSH1 0x1 PUSH2 0x4AF8 JUMP JUMPDEST DUP2 SLOAD DUP2 LT PUSH2 0x1793 JUMPI PUSH2 0x1793 PUSH2 0x4B74 JUMP JUMPDEST SWAP1 PUSH0 MSTORE PUSH1 0x20 PUSH0 KECCAK256 SWAP1 PUSH1 0x6 MUL ADD PUSH1 0x5 DUP3 DUP2 SLOAD DUP2 LT PUSH2 0x17B2 JUMPI PUSH2 0x17B2 PUSH2 0x4B74 JUMP JUMPDEST PUSH0 SWAP2 DUP3 MSTORE PUSH1 0x20 SWAP1 SWAP2 KECCAK256 DUP3 SLOAD PUSH1 0x6 SWAP1 SWAP3 MUL ADD SWAP1 DUP2 SSTORE PUSH1 0x1 DUP1 DUP4 ADD SLOAD DUP2 DUP4 ADD DUP1 SLOAD PUSH1 0x1 PUSH1 0x1 PUSH1 0xA0 SHL SUB NOT AND PUSH1 0x1 PUSH1 0x1 PUSH1 0xA0 SHL SUB SWAP1 SWAP3 AND SWAP2 SWAP1 SWAP2 OR SWAP1 SSTORE PUSH1 0x2 DUP1 DUP5 ADD SLOAD SWAP1 DUP4 ADD SSTORE PUSH1 0x3 DUP1 DUP5 ADD SLOAD SWAP1 DUP4 ADD SSTORE PUSH1 0x4 DUP1 DUP5 ADD SLOAD SWAP1 DUP4 ADD SSTORE PUSH1 0x5 DUP1 DUP5 ADD SLOAD SWAP1 DUP4 ADD DUP1 SLOAD PUSH1 0xFF SWAP1 SWAP3 AND SWAP3 SWAP1 SWAP2 PUSH1 0xFF NOT AND SWAP1 DUP4 DUP1 ISZERO PUSH2 0x1831 JUMPI PUSH2 0x1831 PUSH2 0x4854 JUMP JUMPDEST MUL OR SWAP1 SSTORE POP PUSH1 0x5 DUP3 DUP2 ADD SLOAD SWAP1 DUP3 ADD DUP1 SLOAD PUSH1 0xFF PUSH2 0x100 SWAP4 DUP5 SWAP1 DIV AND SWAP3 PUSH2 0xFF00 NOT SWAP1 SWAP2 AND SWAP1 DUP4 PUSH1 0x2 DUP2 GT ISZERO PUSH2 0x1866 JUMPI PUSH2 0x1866 PUSH2 0x4854 JUMP JUMPDEST MUL OR SWAP1 SSTORE POP PUSH1 0x5 SWAP2 DUP3 ADD SLOAD SWAP2 ADD DUP1 SLOAD PUSH3 0xFF0000 NOT AND PUSH3 0x10000 SWAP3 DUP4 SWAP1 DIV PUSH1 0xFF AND ISZERO ISZERO SWAP1 SWAP3 MUL SWAP2 SWAP1 SWAP2 OR SWAP1 SSTORE PUSH1 0x1 ADD PUSH2 0x1760 JUMP JUMPDEST POP PUSH1 0x5 DUP1 SLOAD DUP1 PUSH2 0xE17 JUMPI PUSH2 0xE17 PUSH2 0x4BF7 JUMP JUMPDEST CALLER PUSH0 SWAP1 DUP2 MSTORE PUSH1 0x4 PUSH1 0x20 MSTORE PUSH1 0x40 SWAP1 KECCAK256 SLOAD PUSH1 0xFF AND PUSH2 0x18D9 JUMPI PUSH1 0x40 MLOAD PUSH3 0x461BCD PUSH1 0xE5 SHL DUP2 MSTORE PUSH1 0x4 ADD PUSH2 0x6EF SWAP1 PUSH2 0x4ABC JUMP JUMPDEST PUSH2 0x18E1 PUSH2 0x2E46 JUMP JUMPDEST PUSH2 0x18E9 PUSH2 0x224E JUMP JUMPDEST PUSH0 PUSH1 0x40 MLOAD DUP1 PUSH2 0x100 ADD PUSH1 0x40 MSTORE DUP1 DUP10 DUP2 MSTORE PUSH1 0x20 ADD DUP9 PUSH1 0x1 PUSH1 0x1 PUSH1 0xA0 SHL SUB AND DUP2 MSTORE PUSH1 0x20 ADD DUP8 DUP2 MSTORE PUSH1 0x20 ADD DUP7 DUP2 MSTORE PUSH1 0x20 ADD PUSH0 DUP2 MSTORE PUSH1 0x20 ADD DUP6 PUSH0 DUP2 GT ISZERO PUSH2 0x192E JUMPI PUSH2 0x192E PUSH2 0x4854 JUMP JUMPDEST DUP2 MSTORE PUSH1 0x20 ADD DUP5 PUSH1 0x2 DUP2 GT ISZERO PUSH2 0x1945 JUMPI PUSH2 0x1945 PUSH2 0x4854 JUMP JUMPDEST DUP2 MSTORE DUP4 ISZERO ISZERO PUSH1 0x20 SWAP2 DUP3 ADD MSTORE PUSH1 0xC SLOAD PUSH1 0x40 DUP1 MLOAD PUSH3 0xE36DE3 PUSH1 0xE0 SHL DUP2 MSTORE SWAP1 MLOAD SWAP4 SWAP5 POP PUSH1 0x1 PUSH1 0x1 PUSH1 0xA0 SHL SUB SWAP1 SWAP2 AND SWAP3 PUSH3 0xE36DE3 SWAP3 PUSH1 0x4 DUP1 DUP5 ADD SWAP4 SWAP2 SWAP3 SWAP2 DUP3 SWAP1 SUB ADD DUP2 DUP7 GAS STATICCALL ISZERO DUP1 ISZERO PUSH2 0x1996 JUMPI RETURNDATASIZE PUSH0 PUSH0 RETURNDATACOPY RETURNDATASIZE PUSH0 REVERT JUMPDEST POP POP POP POP PUSH1 0x40 MLOAD RETURNDATASIZE PUSH1 0x1F NOT PUSH1 0x1F DUP3 ADD AND DUP3 ADD DUP1 PUSH1 0x40 MSTORE POP DUP2 ADD SWAP1 PUSH2 0x19BA SWAP2 SWAP1 PUSH2 0x4B0B JUMP JUMPDEST DUP7 LT ISZERO PUSH2 0x19D9 JUMPI PUSH1 0x40 MLOAD PUSH3 0x461BCD PUSH1 0xE5 SHL DUP2 MSTORE PUSH1 0x4 ADD PUSH2 0x6EF SWAP1 PUSH2 0x4B22 JUMP JUMPDEST PUSH1 0x5 SLOAD PUSH0 SUB PUSH2 0x19F3 JUMPI PUSH2 0x19EE DUP2 PUSH1 0x1 DUP1 PUSH2 0x2295 JUMP JUMPDEST PUSH2 0x1A38 JUMP JUMPDEST PUSH1 0x5 PUSH0 DUP2 SLOAD DUP2 LT PUSH2 0x1A06 JUMPI PUSH2 0x1A06 PUSH2 0x4B74 JUMP JUMPDEST SWAP1 PUSH0 MSTORE PUSH1 0x20 PUSH0 KECCAK256 SWAP1 PUSH1 0x6 MUL ADD PUSH1 0x2 ADD SLOAD DUP2 PUSH1 0x40 ADD MLOAD GT ISZERO PUSH2 0x1A2D JUMPI PUSH2 0x19EE DUP2 PUSH1 0x1 DUP1 PUSH2 0x2295 JUMP JUMPDEST PUSH2 0x1A38 PUSH1 0x5 DUP3 PUSH2 0x39AE JUMP JUMPDEST POP PUSH2 0x95A PUSH1 0x1 DUP1 SSTORE JUMP JUMPDEST CALLER PUSH0 SWAP1 DUP2 MSTORE PUSH1 0x4 PUSH1 0x20 MSTORE PUSH1 0x40 SWAP1 KECCAK256 SLOAD PUSH1 0xFF AND PUSH2 0x1A70 JUMPI PUSH1 0x40 MLOAD PUSH3 0x461BCD PUSH1 0xE5 SHL DUP2 MSTORE PUSH1 0x4 ADD PUSH2 0x6EF SWAP1 PUSH2 0x4ABC JUMP JUMPDEST PUSH2 0x1A78 PUSH2 0x224E JUMP JUMPDEST DUP1 ISZERO PUSH2 0x1AE0 JUMPI PUSH1 0x1 PUSH1 0x1 PUSH1 0xA0 SHL SUB DUP5 AND PUSH0 SWAP1 DUP2 MSTORE PUSH1 0x3 PUSH1 0x20 MSTORE PUSH1 0x40 DUP2 KECCAK256 DUP4 SWAP2 DUP6 PUSH1 0x2 DUP2 GT ISZERO PUSH2 0x1AA9 JUMPI PUSH2 0x1AA9 PUSH2 0x4854 JUMP JUMPDEST PUSH1 0x2 DUP2 GT ISZERO PUSH2 0x1ABA JUMPI PUSH2 0x1ABA PUSH2 0x4854 JUMP JUMPDEST DUP2 MSTORE PUSH1 0x20 ADD SWAP1 DUP2 MSTORE PUSH1 0x20 ADD PUSH0 KECCAK256 PUSH0 DUP3 DUP3 SLOAD PUSH2 0x1AD5 SWAP2 SWAP1 PUSH2 0x4AF8 JUMP JUMPDEST SWAP1 SWAP2 SSTORE POP PUSH2 0x1BCC SWAP1 POP JUMP JUMPDEST PUSH1 0x1 PUSH1 0x1 PUSH1 0xA0 SHL SUB DUP5 AND PUSH0 SWAP1 DUP2 MSTORE PUSH1 0x3 PUSH1 0x20 MSTORE PUSH1 0x40 DUP2 KECCAK256 DUP4 SWAP2 DUP6 PUSH1 0x2 DUP2 GT ISZERO PUSH2 0x1B0B JUMPI PUSH2 0x1B0B PUSH2 0x4854 JUMP JUMPDEST PUSH1 0x2 DUP2 GT ISZERO PUSH2 0x1B1C JUMPI PUSH2 0x1B1C PUSH2 0x4854 JUMP JUMPDEST DUP2 MSTORE PUSH1 0x20 ADD SWAP1 DUP2 MSTORE PUSH1 0x20 ADD PUSH0 KECCAK256 SLOAD LT ISZERO PUSH2 0x1B6F JUMPI PUSH1 0x40 MLOAD PUSH3 0x461BCD PUSH1 0xE5 SHL DUP2 MSTORE PUSH1 0x20 PUSH1 0x4 DUP3 ADD MSTORE PUSH1 0x14 PUSH1 0x24 DUP3 ADD MSTORE PUSH20 0x496E73756666696369656E742062616C616E6365 PUSH1 0x60 SHL PUSH1 0x44 DUP3 ADD MSTORE PUSH1 0x64 ADD PUSH2 0x6EF JUMP JUMPDEST PUSH1 0x1 PUSH1 0x1 PUSH1 0xA0 SHL SUB DUP5 AND PUSH0 SWAP1 DUP2 MSTORE PUSH1 0x3 PUSH1 0x20 MSTORE PUSH1 0x40 DUP2 KECCAK256 DUP4 SWAP2 DUP6 PUSH1 0x2 DUP2 GT ISZERO PUSH2 0x1B9A JUMPI PUSH2 0x1B9A PUSH2 0x4854 JUMP JUMPDEST PUSH1 0x2 DUP2 GT ISZERO PUSH2 0x1BAB JUMPI PUSH2 0x1BAB PUSH2 0x4854 JUMP JUMPDEST DUP2 MSTORE PUSH1 0x20 ADD SWAP1 DUP2 MSTORE PUSH1 0x20 ADD PUSH0 KECCAK256 PUSH0 DUP3 DUP3 SLOAD PUSH2 0x1BC6 SWAP2 SWAP1 PUSH2 0x4B88 JUMP JUMPDEST SWAP1 SWAP2 SSTORE POP POP JUMPDEST POP POP POP POP JUMP JUMPDEST PUSH1 0x60 PUSH1 0x6 DUP1 SLOAD DUP1 PUSH1 0x20 MUL PUSH1 0x20 ADD PUSH1 0x40 MLOAD SWAP1 DUP2 ADD PUSH1 0x40 MSTORE DUP1 SWAP3 SWAP2 SWAP1 DUP2 DUP2 MSTORE PUSH1 0x20 ADD PUSH0 SWAP1 JUMPDEST DUP3 DUP3 LT ISZERO PUSH2 0x1508 JUMPI PUSH0 DUP5 DUP2 MSTORE PUSH1 0x20 SWAP1 DUP2 SWAP1 KECCAK256 PUSH1 0x40 DUP1 MLOAD PUSH2 0x100 DUP2 ADD DUP3 MSTORE PUSH1 0x6 DUP7 MUL SWAP1 SWAP3 ADD DUP1 SLOAD DUP4 MSTORE PUSH1 0x1 DUP2 ADD SLOAD PUSH1 0x1 PUSH1 0x1 PUSH1 0xA0 SHL SUB AND SWAP4 DUP4 ADD SWAP4 SWAP1 SWAP4 MSTORE PUSH1 0x2 DUP4 ADD SLOAD SWAP1 DUP3 ADD MSTORE PUSH1 0x3 DUP3 ADD SLOAD PUSH1 0x60 DUP3 ADD MSTORE PUSH1 0x4 DUP3 ADD SLOAD PUSH1 0x80 DUP3 ADD MSTORE PUSH1 0x5 DUP3 ADD SLOAD SWAP1 SWAP2 SWAP1 PUSH1 0xA0 DUP4 ADD SWAP1 PUSH1 0xFF AND DUP1 ISZERO PUSH2 0x1C6D JUMPI PUSH2 0x1C6D PUSH2 0x4854 JUMP JUMPDEST DUP1 ISZERO PUSH2 0x1C7B JUMPI PUSH2 0x1C7B PUSH2 0x4854 JUMP JUMPDEST DUP2 MSTORE PUSH1 0x20 ADD PUSH1 0x5 DUP3 ADD PUSH1 0x1 SWAP1 SLOAD SWAP1 PUSH2 0x100 EXP SWAP1 DIV PUSH1 0xFF AND PUSH1 0x2 DUP2 GT ISZERO PUSH2 0x1CA3 JUMPI PUSH2 0x1CA3 PUSH2 0x4854 JUMP JUMPDEST PUSH1 0x2 DUP2 GT ISZERO PUSH2 0x1CB4 JUMPI PUSH2 0x1CB4 PUSH2 0x4854 JUMP JUMPDEST DUP2 MSTORE PUSH1 0x5 SWAP2 SWAP1 SWAP2 ADD SLOAD PUSH1 0xFF PUSH3 0x10000 SWAP1 SWAP2 DIV AND ISZERO ISZERO PUSH1 0x20 SWAP2 DUP3 ADD MSTORE SWAP1 DUP3 MSTORE PUSH1 0x1 SWAP1 SWAP3 ADD SWAP2 ADD PUSH2 0x1BF5 JUMP JUMPDEST PUSH2 0x1CE6 PUSH2 0x45FD JUMP JUMPDEST PUSH1 0x6 PUSH0 DUP2 SLOAD DUP2 LT PUSH2 0x152C JUMPI PUSH2 0x152C PUSH2 0x4B74 JUMP JUMPDEST CALLER PUSH0 SWAP1 DUP2 MSTORE PUSH1 0x4 PUSH1 0x20 MSTORE PUSH1 0x40 SWAP1 KECCAK256 SLOAD PUSH1 0xFF AND PUSH2 0x1D27 JUMPI PUSH1 0x40 MLOAD PUSH3 0x461BCD PUSH1 0xE5 SHL DUP2 MSTORE PUSH1 0x4 ADD PUSH2 0x6EF SWAP1 PUSH2 0x4ABC JUMP JUMPDEST PUSH2 0x1D2F PUSH2 0x2E46 JUMP JUMPDEST PUSH2 0x1D37 PUSH2 0x224E JUMP JUMPDEST PUSH1 0x1 PUSH1 0x1 PUSH1 0xA0 SHL SUB DUP4 AND PUSH0 SWAP1 DUP2 MSTORE PUSH1 0x3 PUSH1 0x20 MSTORE PUSH1 0x40 DUP2 KECCAK256 DUP3 SWAP2 DUP5 PUSH1 0x2 DUP2 GT ISZERO PUSH2 0x1D62 JUMPI PUSH2 0x1D62 PUSH2 0x4854 JUMP JUMPDEST PUSH1 0x2 DUP2 GT ISZERO PUSH2 0x1D73 JUMPI PUSH2 0x1D73 PUSH2 0x4854 JUMP JUMPDEST DUP2 MSTORE PUSH1 0x20 DUP2 ADD SWAP2 SWAP1 SWAP2 MSTORE PUSH1 0x40 ADD PUSH0 KECCAK256 SSTORE PUSH2 0xC76 PUSH1 0x1 DUP1 SSTORE JUMP JUMPDEST PUSH2 0x1D94 PUSH2 0x45FD JUMP JUMPDEST PUSH1 0x6 DUP3 DUP2 SLOAD DUP2 LT PUSH2 0x1DA7 JUMPI PUSH2 0x1DA7 PUSH2 0x4B74 JUMP JUMPDEST PUSH0 SWAP2 DUP3 MSTORE PUSH1 0x20 SWAP2 DUP3 SWAP1 KECCAK256 PUSH1 0x40 DUP1 MLOAD PUSH2 0x100 DUP2 ADD DUP3 MSTORE PUSH1 0x6 SWAP1 SWAP4 MUL SWAP1 SWAP2 ADD DUP1 SLOAD DUP4 MSTORE PUSH1 0x1 DUP2 ADD SLOAD PUSH1 0x1 PUSH1 0x1 PUSH1 0xA0 SHL SUB AND SWAP4 DUP4 ADD SWAP4 SWAP1 SWAP4 MSTORE PUSH1 0x2 DUP4 ADD SLOAD SWAP1 DUP3 ADD MSTORE PUSH1 0x3 DUP3 ADD SLOAD PUSH1 0x60 DUP3 ADD MSTORE PUSH1 0x4 DUP3 ADD SLOAD PUSH1 0x80 DUP3 ADD MSTORE PUSH1 0x5 DUP3 ADD SLOAD SWAP1 SWAP2 SWAP1 PUSH1 0xA0 DUP4 ADD SWAP1 PUSH1 0xFF AND DUP1 ISZERO PUSH2 0x1E18 JUMPI PUSH2 0x1E18 PUSH2 0x4854 JUMP JUMPDEST DUP1 ISZERO PUSH2 0x1E26 JUMPI PUSH2 0x1E26 PUSH2 0x4854 JUMP JUMPDEST DUP2 MSTORE PUSH1 0x20 ADD PUSH1 0x5 DUP3 ADD PUSH1 0x1 SWAP1 SLOAD SWAP1 PUSH2 0x100 EXP SWAP1 DIV PUSH1 0xFF AND PUSH1 0x2 DUP2 GT ISZERO PUSH2 0x1E4E JUMPI PUSH2 0x1E4E PUSH2 0x4854 JUMP JUMPDEST PUSH1 0x2 DUP2 GT ISZERO PUSH2 0x1E5F JUMPI PUSH2 0x1E5F PUSH2 0x4854 JUMP JUMPDEST DUP2 MSTORE PUSH1 0x5 SWAP2 SWAP1 SWAP2 ADD SLOAD PUSH3 0x10000 SWAP1 DIV PUSH1 0xFF AND ISZERO ISZERO PUSH1 0x20 SWAP1 SWAP2 ADD MSTORE SWAP3 SWAP2 POP POP JUMP JUMPDEST CALLER PUSH0 SWAP1 DUP2 MSTORE PUSH1 0x4 PUSH1 0x20 MSTORE PUSH1 0x40 SWAP1 KECCAK256 SLOAD PUSH1 0xFF AND PUSH2 0x1EAD JUMPI PUSH1 0x40 MLOAD PUSH3 0x461BCD PUSH1 0xE5 SHL DUP2 MSTORE PUSH1 0x4 ADD PUSH2 0x6EF SWAP1 PUSH2 0x4ABC JUMP JUMPDEST PUSH2 0x1EB5 PUSH2 0x2E46 JUMP JUMPDEST PUSH2 0x1EBD PUSH2 0x224E JUMP JUMPDEST PUSH1 0x1 PUSH1 0x1 PUSH1 0xA0 SHL SUB DUP4 AND PUSH0 SWAP1 DUP2 MSTORE PUSH1 0x2 PUSH1 0x20 MSTORE PUSH1 0x40 DUP2 KECCAK256 DUP3 SWAP2 DUP5 DUP1 ISZERO PUSH2 0x1EE5 JUMPI PUSH2 0x1EE5 PUSH2 0x4854 JUMP JUMPDEST DUP1 ISZERO PUSH2 0x1D73 JUMPI PUSH2 0x1D73 PUSH2 0x4854 JUMP JUMPDEST PUSH2 0x1EFB PUSH2 0x45FD JUMP JUMPDEST PUSH1 0x5 DUP3 DUP2 SLOAD DUP2 LT PUSH2 0x1DA7 JUMPI PUSH2 0x1DA7 PUSH2 0x4B74 JUMP JUMPDEST PUSH1 0x6 DUP2 DUP2 SLOAD DUP2 LT PUSH2 0x16BA JUMPI PUSH0 DUP1 REVERT JUMPDEST CALLER PUSH0 SWAP1 DUP2 MSTORE PUSH1 0x4 PUSH1 0x20 MSTORE PUSH1 0x40 SWAP1 KECCAK256 SLOAD PUSH1 0xFF AND PUSH2 0x1F4B JUMPI PUSH1 0x40 MLOAD PUSH3 0x461BCD PUSH1 0xE5 SHL DUP2 MSTORE PUSH1 0x4 ADD PUSH2 0x6EF SWAP1 PUSH2 0x4ABC JUMP JUMPDEST PUSH2 0x1F53 PUSH2 0x2E46 JUMP JUMPDEST PUSH2 0x1F5B PUSH2 0x224E JUMP JUMPDEST PUSH1 0x7 DUP1 SLOAD PUSH1 0x1 PUSH1 0x1 PUSH1 0xA0 SHL SUB DUP1 DUP8 AND PUSH1 0x1 PUSH1 0x1 PUSH1 0xA0 SHL SUB NOT SWAP3 DUP4 AND OR SWAP1 SWAP3 SSTORE PUSH1 0x9 DUP1 SLOAD DUP7 DUP5 AND SWAP1 DUP4 AND DUP2 OR SWAP1 SWAP2 SSTORE PUSH1 0xA DUP1 SLOAD DUP4 AND SWAP1 SWAP2 OR SWAP1 SSTORE PUSH1 0x8 DUP1 SLOAD DUP6 DUP5 AND SWAP1 DUP4 AND OR SWAP1 SSTORE PUSH1 0xB DUP1 SLOAD DUP5 DUP5 AND SWAP1 DUP4 AND OR SWAP1 SSTORE PUSH1 0xC DUP1 SLOAD SWAP3 DUP9 AND SWAP3 SWAP1 SWAP2 AND SWAP2 SWAP1 SWAP2 OR SWAP1 SSTORE PUSH2 0x1FC8 PUSH1 0x1 DUP1 SSTORE JUMP JUMPDEST POP POP POP POP POP JUMP JUMPDEST CALLER PUSH0 SWAP1 DUP2 MSTORE PUSH1 0x4 PUSH1 0x20 MSTORE PUSH1 0x40 SWAP1 KECCAK256 SLOAD PUSH1 0xFF AND PUSH2 0x1FFD JUMPI PUSH1 0x40 MLOAD PUSH3 0x461BCD PUSH1 0xE5 SHL DUP2 MSTORE PUSH1 0x4 ADD PUSH2 0x6EF SWAP1 PUSH2 0x4ABC JUMP JUMPDEST PUSH2 0x2005 PUSH2 0x2E46 JUMP JUMPDEST PUSH2 0x200D PUSH2 0x224E JUMP JUMPDEST PUSH1 0xC PUSH0 SWAP1 SLOAD SWAP1 PUSH2 0x100 EXP SWAP1 DIV PUSH1 0x1 PUSH1 0x1 PUSH1 0xA0 SHL SUB AND PUSH1 0x1 PUSH1 0x1 PUSH1 0xA0 SHL SUB AND PUSH3 0xE36DE3 PUSH1 0x40 MLOAD DUP2 PUSH4 0xFFFFFFFF AND PUSH1 0xE0 SHL DUP2 MSTORE PUSH1 0x4 ADD PUSH1 0x20 PUSH1 0x40 MLOAD DUP1 DUP4 SUB DUP2 DUP7 GAS STATICCALL ISZERO DUP1 ISZERO PUSH2 0x205C JUMPI RETURNDATASIZE PUSH0 PUSH0 RETURNDATACOPY RETURNDATASIZE PUSH0 REVERT JUMPDEST POP POP POP POP PUSH1 0x40 MLOAD RETURNDATASIZE PUSH1 0x1F NOT PUSH1 0x1F DUP3 ADD AND DUP3 ADD DUP1 PUSH1 0x40 MSTORE POP DUP2 ADD SWAP1 PUSH2 0x2080 SWAP2 SWAP1 PUSH2 0x4B0B JUMP JUMPDEST DUP2 LT ISZERO PUSH2 0x209F JUMPI PUSH1 0x40 MLOAD PUSH3 0x461BCD PUSH1 0xE5 SHL DUP2 MSTORE PUSH1 0x4 ADD PUSH2 0x6EF SWAP1 PUSH2 0x4B22 JUMP JUMPDEST PUSH0 JUMPDEST PUSH1 0x6 SLOAD DUP2 LT ISZERO PUSH2 0x13B8 JUMPI DUP3 PUSH1 0x6 DUP3 DUP2 SLOAD DUP2 LT PUSH2 0x20BF JUMPI PUSH2 0x20BF PUSH2 0x4B74 JUMP JUMPDEST SWAP1 PUSH0 MSTORE PUSH1 0x20 PUSH0 KECCAK256 SWAP1 PUSH1 0x6 MUL ADD PUSH0 ADD SLOAD SUB PUSH2 0x2246 JUMPI PUSH0 PUSH1 0x6 DUP3 DUP2 SLOAD DUP2 LT PUSH2 0x20E7 JUMPI PUSH2 0x20E7 PUSH2 0x4B74 JUMP JUMPDEST PUSH0 SWAP2 DUP3 MSTORE PUSH1 0x20 SWAP1 SWAP2 KECCAK256 PUSH1 0x6 SWAP1 SWAP2 MUL ADD PUSH1 0x1 DUP2 ADD SLOAD SWAP1 SWAP2 POP PUSH1 0x1 PUSH1 0x1 PUSH1 0xA0 SHL SUB DUP7 DUP2 AND SWAP2 AND EQ PUSH2 0x2128 JUMPI PUSH1 0x40 MLOAD PUSH3 0x461BCD PUSH1 0xE5 SHL DUP2 MSTORE PUSH1 0x4 ADD PUSH2 0x6EF SWAP1 PUSH2 0x4C0B JUMP JUMPDEST PUSH1 0x2 DUP2 ADD DUP4 SWAP1 SSTORE PUSH1 0x40 DUP1 MLOAD PUSH2 0x100 DUP2 ADD DUP3 MSTORE DUP3 SLOAD DUP2 MSTORE PUSH1 0x1 DUP4 ADD SLOAD PUSH1 0x1 PUSH1 0x1 PUSH1 0xA0 SHL SUB AND PUSH1 0x20 DUP3 ADD MSTORE SWAP1 DUP2 ADD DUP5 SWAP1 MSTORE PUSH1 0x3 DUP3 ADD SLOAD PUSH1 0x60 DUP3 ADD MSTORE PUSH1 0x4 DUP3 ADD SLOAD PUSH1 0x80 DUP3 ADD MSTORE PUSH1 0x5 DUP3 ADD SLOAD PUSH0 SWAP2 SWAP1 DUP4 SWAP1 PUSH1 0xA0 DUP4 ADD SWAP1 PUSH1 0xFF AND DUP1 ISZERO PUSH2 0x218B JUMPI PUSH2 0x218B PUSH2 0x4854 JUMP JUMPDEST DUP1 ISZERO PUSH2 0x2199 JUMPI PUSH2 0x2199 PUSH2 0x4854 JUMP JUMPDEST DUP2 MSTORE PUSH1 0x20 ADD PUSH1 0x5 DUP3 ADD PUSH1 0x1 SWAP1 SLOAD SWAP1 PUSH2 0x100 EXP SWAP1 DIV PUSH1 0xFF AND PUSH1 0x2 DUP2 GT ISZERO PUSH2 0x21C1 JUMPI PUSH2 0x21C1 PUSH2 0x4854 JUMP JUMPDEST PUSH1 0x2 DUP2 GT ISZERO PUSH2 0x21D2 JUMPI PUSH2 0x21D2 PUSH2 0x4854 JUMP JUMPDEST DUP2 MSTORE PUSH1 0x5 SWAP2 SWAP1 SWAP2 ADD SLOAD PUSH3 0x10000 SWAP1 DIV PUSH1 0xFF AND ISZERO ISZERO PUSH1 0x20 SWAP1 SWAP2 ADD MSTORE SWAP1 POP PUSH2 0x21FB PUSH1 0x6 DUP5 PUSH1 0x1 PUSH2 0x2E70 JUMP JUMPDEST PUSH1 0x5 SLOAD ISZERO DUP1 ISZERO SWAP1 PUSH2 0x222E JUMPI POP PUSH1 0x5 PUSH0 DUP2 SLOAD DUP2 LT PUSH2 0x221A JUMPI PUSH2 0x221A PUSH2 0x4B74 JUMP JUMPDEST SWAP1 PUSH0 MSTORE PUSH1 0x20 PUSH0 KECCAK256 SWAP1 PUSH1 0x6 MUL ADD PUSH1 0x2 ADD SLOAD DUP5 GT ISZERO JUMPDEST ISZERO PUSH2 0x223E JUMPI PUSH2 0x223E DUP2 PUSH0 PUSH0 PUSH2 0x2295 JUMP JUMPDEST POP POP POP PUSH2 0x13F3 JUMP JUMPDEST PUSH1 0x1 ADD PUSH2 0x20A1 JUMP JUMPDEST PUSH0 SLOAD PUSH1 0xFF AND ISZERO PUSH2 0x2293 JUMPI PUSH1 0x40 MLOAD PUSH3 0x461BCD PUSH1 0xE5 SHL DUP2 MSTORE PUSH1 0x20 PUSH1 0x4 DUP3 ADD MSTORE PUSH1 0x10 PUSH1 0x24 DUP3 ADD MSTORE PUSH16 0x14185D5CD8589B194E881C185D5CD959 PUSH1 0x82 SHL PUSH1 0x44 DUP3 ADD MSTORE PUSH1 0x64 ADD PUSH2 0x6EF JUMP JUMPDEST JUMP JUMPDEST PUSH2 0x229D PUSH2 0x224E JUMP JUMPDEST PUSH1 0x60 DUP4 ADD MLOAD PUSH0 SWAP1 DUP2 DUP5 PUSH2 0x22B1 JUMPI PUSH1 0x5 PUSH2 0x22B4 JUMP JUMPDEST PUSH1 0x6 JUMPDEST SWAP1 POP PUSH0 JUMPDEST DUP2 SLOAD DUP2 LT ISZERO PUSH2 0x2437 JUMPI PUSH0 DUP3 DUP3 DUP2 SLOAD DUP2 LT PUSH2 0x22D4 JUMPI PUSH2 0x22D4 PUSH2 0x4B74 JUMP JUMPDEST SWAP1 PUSH0 MSTORE PUSH1 0x20 PUSH0 KECCAK256 SWAP1 PUSH1 0x6 MUL ADD SWAP1 POP DUP7 ISZERO DUP1 ISZERO PUSH2 0x22FA JUMPI POP PUSH1 0x5 DUP2 ADD SLOAD PUSH3 0x10000 SWAP1 DIV PUSH1 0xFF AND JUMPDEST ISZERO PUSH2 0x2388 JUMPI PUSH1 0xC SLOAD PUSH1 0x20 DUP10 ADD MLOAD PUSH1 0x40 MLOAD PUSH4 0x237B64EF PUSH1 0xE1 SHL DUP2 MSTORE PUSH1 0x1 PUSH1 0x1 PUSH1 0xA0 SHL SUB SWAP1 SWAP3 AND SWAP2 PUSH4 0x46F6C9DE SWAP2 PUSH2 0x2332 SWAP2 PUSH1 0x4 ADD PUSH2 0x47F7 JUMP JUMPDEST PUSH1 0x20 PUSH1 0x40 MLOAD DUP1 DUP4 SUB DUP2 DUP7 GAS STATICCALL ISZERO DUP1 ISZERO PUSH2 0x234D JUMPI RETURNDATASIZE PUSH0 PUSH0 RETURNDATACOPY RETURNDATASIZE PUSH0 REVERT JUMPDEST POP POP POP POP PUSH1 0x40 MLOAD RETURNDATASIZE PUSH1 0x1F NOT PUSH1 0x1F DUP3 ADD AND DUP3 ADD DUP1 PUSH1 0x40 MSTORE POP DUP2 ADD SWAP1 PUSH2 0x2371 SWAP2 SWAP1 PUSH2 0x4C84 JUMP JUMPDEST PUSH2 0x2388 JUMPI DUP2 PUSH2 0x237F DUP2 PUSH2 0x4C9F JUMP JUMPDEST SWAP3 POP POP POP PUSH2 0x22B8 JUMP JUMPDEST PUSH0 DUP8 PUSH2 0x239F JUMPI DUP2 PUSH1 0x2 ADD SLOAD DUP10 PUSH1 0x40 ADD MLOAD GT ISZERO PUSH2 0x23AC JUMP JUMPDEST DUP2 PUSH1 0x2 ADD SLOAD DUP10 PUSH1 0x40 ADD MLOAD LT ISZERO JUMPDEST SWAP1 POP DUP1 PUSH2 0x23BA JUMPI POP POP PUSH2 0x2437 JUMP JUMPDEST PUSH2 0x23C8 DUP6 DUP4 PUSH1 0x3 ADD SLOAD PUSH2 0x3DAB JUMP JUMPDEST SWAP6 POP PUSH2 0x23D6 DUP10 DUP4 DUP9 DUP12 PUSH2 0x3DBD JUMP JUMPDEST PUSH2 0x23E0 DUP7 DUP7 PUSH2 0x4B88 JUMP JUMPDEST SWAP5 POP DUP6 DUP3 PUSH1 0x3 ADD PUSH0 DUP3 DUP3 SLOAD PUSH2 0x23F5 SWAP2 SWAP1 PUSH2 0x4B88 JUMP JUMPDEST SWAP1 SWAP2 SSTORE POP POP PUSH1 0x3 DUP3 ADD SLOAD PUSH0 SUB PUSH2 0x2414 JUMPI PUSH2 0x240F DUP5 DUP5 PUSH2 0x3FAA JUMP JUMPDEST PUSH2 0x2422 JUMP JUMPDEST DUP3 PUSH2 0x241E DUP2 PUSH2 0x4C9F JUMP JUMPDEST SWAP4 POP POP JUMPDEST DUP5 PUSH0 SUB PUSH2 0x2430 JUMPI POP POP PUSH2 0x2437 JUMP JUMPDEST POP POP PUSH2 0x22B8 JUMP JUMPDEST PUSH0 DUP7 PUSH2 0x2444 JUMPI PUSH1 0x6 PUSH2 0x2447 JUMP JUMPDEST PUSH1 0x5 JUMPDEST SWAP1 POP DUP4 ISZERO PUSH2 0x2950 JUMPI PUSH1 0x60 DUP9 ADD DUP5 SWAP1 MSTORE PUSH0 DUP1 JUMPDEST DUP3 SLOAD DUP2 LT ISZERO PUSH2 0x2581 JUMPI DUP10 PUSH0 ADD MLOAD DUP4 DUP3 DUP2 SLOAD DUP2 LT PUSH2 0x2478 JUMPI PUSH2 0x2478 PUSH2 0x4B74 JUMP JUMPDEST SWAP1 PUSH0 MSTORE PUSH1 0x20 PUSH0 KECCAK256 SWAP1 PUSH1 0x6 MUL ADD PUSH0 ADD SLOAD SUB PUSH2 0x2579 JUMPI DUP10 DUP4 DUP3 DUP2 SLOAD DUP2 LT PUSH2 0x249F JUMPI PUSH2 0x249F PUSH2 0x4B74 JUMP JUMPDEST PUSH0 SWAP2 DUP3 MSTORE PUSH1 0x20 SWAP2 DUP3 SWAP1 KECCAK256 DUP4 MLOAD PUSH1 0x6 SWAP3 SWAP1 SWAP3 MUL ADD SWAP1 DUP2 SSTORE SWAP1 DUP3 ADD MLOAD PUSH1 0x1 DUP1 DUP4 ADD DUP1 SLOAD PUSH1 0x1 PUSH1 0x1 PUSH1 0xA0 SHL SUB NOT AND PUSH1 0x1 PUSH1 0x1 PUSH1 0xA0 SHL SUB SWAP1 SWAP4 AND SWAP3 SWAP1 SWAP3 OR SWAP1 SWAP2 SSTORE PUSH1 0x40 DUP4 ADD MLOAD PUSH1 0x2 DUP4 ADD SSTORE PUSH1 0x60 DUP4 ADD MLOAD PUSH1 0x3 DUP4 ADD SSTORE PUSH1 0x80 DUP4 ADD MLOAD PUSH1 0x4 DUP4 ADD SSTORE PUSH1 0xA0 DUP4 ADD MLOAD PUSH1 0x5 DUP4 ADD DUP1 SLOAD SWAP2 SWAP3 SWAP1 SWAP2 PUSH1 0xFF NOT AND SWAP1 DUP4 DUP1 ISZERO PUSH2 0x251D JUMPI PUSH2 0x251D PUSH2 0x4854 JUMP JUMPDEST MUL OR SWAP1 SSTORE POP PUSH1 0xC0 DUP3 ADD MLOAD PUSH1 0x5 DUP3 ADD DUP1 SLOAD PUSH2 0xFF00 NOT AND PUSH2 0x100 DUP4 PUSH1 0x2 DUP2 GT ISZERO PUSH2 0x2547 JUMPI PUSH2 0x2547 PUSH2 0x4854 JUMP JUMPDEST MUL OR SWAP1 SSTORE POP PUSH1 0xE0 SWAP2 SWAP1 SWAP2 ADD MLOAD PUSH1 0x5 SWAP1 SWAP2 ADD DUP1 SLOAD SWAP2 ISZERO ISZERO PUSH3 0x10000 MUL PUSH3 0xFF0000 NOT SWAP1 SWAP3 AND SWAP2 SWAP1 SWAP2 OR SWAP1 SSTORE PUSH1 0x1 SWAP2 POP PUSH2 0x2581 JUMP JUMPDEST PUSH1 0x1 ADD PUSH2 0x2459 JUMP JUMPDEST POP DUP1 ISZERO PUSH2 0x2593 JUMPI POP POP POP POP POP POP POP POP POP JUMP JUMPDEST DUP2 SLOAD PUSH1 0x14 GT PUSH2 0x25BF JUMPI DUP8 ISZERO PUSH2 0x25B1 JUMPI PUSH2 0x25AC DUP3 PUSH0 PUSH2 0x4164 JUMP JUMPDEST PUSH2 0x25BF JUMP JUMPDEST PUSH2 0x25BF DUP3 DUP11 PUSH1 0xA0 ADD MLOAD PUSH2 0x4376 JUMP JUMPDEST DUP2 SLOAD PUSH0 SWAP1 ISZERO PUSH2 0x2648 JUMPI JUMPDEST DUP3 SLOAD DUP2 LT DUP1 ISZERO PUSH2 0x2631 JUMPI POP DUP9 PUSH2 0x2607 JUMPI DUP3 DUP2 DUP2 SLOAD DUP2 LT PUSH2 0x25EB JUMPI PUSH2 0x25EB PUSH2 0x4B74 JUMP JUMPDEST SWAP1 PUSH0 MSTORE PUSH1 0x20 PUSH0 KECCAK256 SWAP1 PUSH1 0x6 MUL ADD PUSH1 0x2 ADD SLOAD DUP11 PUSH1 0x40 ADD MLOAD LT ISZERO PUSH2 0x2631 JUMP JUMPDEST DUP3 DUP2 DUP2 SLOAD DUP2 LT PUSH2 0x2619 JUMPI PUSH2 0x2619 PUSH2 0x4B74 JUMP JUMPDEST SWAP1 PUSH0 MSTORE PUSH1 0x20 PUSH0 KECCAK256 SWAP1 PUSH1 0x6 MUL ADD PUSH1 0x2 ADD SLOAD DUP11 PUSH1 0x40 ADD MLOAD GT ISZERO JUMPDEST ISZERO PUSH2 0x2648 JUMPI DUP1 PUSH2 0x2640 DUP2 PUSH2 0x4C9F JUMP JUMPDEST SWAP2 POP POP PUSH2 0x25C9 JUMP JUMPDEST DUP3 SLOAD PUSH1 0x1 DUP1 DUP3 ADD DUP6 SSTORE PUSH0 DUP6 DUP2 MSTORE PUSH1 0x20 SWAP1 DUP2 SWAP1 KECCAK256 DUP14 MLOAD PUSH1 0x6 SWAP1 SWAP5 MUL ADD SWAP3 DUP4 SSTORE DUP13 ADD MLOAD DUP3 DUP3 ADD DUP1 SLOAD PUSH1 0x1 PUSH1 0x1 PUSH1 0xA0 SHL SUB NOT AND PUSH1 0x1 PUSH1 0x1 PUSH1 0xA0 SHL SUB SWAP1 SWAP3 AND SWAP2 SWAP1 SWAP2 OR SWAP1 SSTORE PUSH1 0x40 DUP13 ADD MLOAD PUSH1 0x2 DUP4 ADD SSTORE PUSH1 0x60 DUP13 ADD MLOAD PUSH1 0x3 DUP4 ADD SSTORE PUSH1 0x80 DUP13 ADD MLOAD PUSH1 0x4 DUP4 ADD SSTORE PUSH1 0xA0 DUP13 ADD MLOAD PUSH1 0x5 DUP4 ADD DUP1 SLOAD DUP15 SWAP5 SWAP4 PUSH1 0xFF NOT SWAP1 SWAP2 AND SWAP1 DUP4 DUP1 ISZERO PUSH2 0x26CB JUMPI PUSH2 0x26CB PUSH2 0x4854 JUMP JUMPDEST MUL OR SWAP1 SSTORE POP PUSH1 0xC0 DUP3 ADD MLOAD PUSH1 0x5 DUP3 ADD DUP1 SLOAD PUSH2 0xFF00 NOT AND PUSH2 0x100 DUP4 PUSH1 0x2 DUP2 GT ISZERO PUSH2 0x26F5 JUMPI PUSH2 0x26F5 PUSH2 0x4854 JUMP JUMPDEST MUL OR SWAP1 SSTORE POP PUSH1 0xE0 SWAP2 SWAP1 SWAP2 ADD MLOAD PUSH1 0x5 SWAP1 SWAP2 ADD DUP1 SLOAD SWAP2 ISZERO ISZERO PUSH3 0x10000 MUL PUSH3 0xFF0000 NOT SWAP1 SWAP3 AND SWAP2 SWAP1 SWAP2 OR SWAP1 SSTORE DUP3 SLOAD PUSH0 SWAP1 PUSH2 0x272E SWAP1 PUSH1 0x1 SWAP1 PUSH2 0x4B88 JUMP JUMPDEST SWAP1 POP JUMPDEST DUP2 DUP2 GT ISZERO PUSH2 0x2864 JUMPI DUP4 PUSH2 0x2745 PUSH1 0x1 DUP4 PUSH2 0x4B88 JUMP JUMPDEST DUP2 SLOAD DUP2 LT PUSH2 0x2755 JUMPI PUSH2 0x2755 PUSH2 0x4B74 JUMP JUMPDEST SWAP1 PUSH0 MSTORE PUSH1 0x20 PUSH0 KECCAK256 SWAP1 PUSH1 0x6 MUL ADD DUP5 DUP3 DUP2 SLOAD DUP2 LT PUSH2 0x2773 JUMPI PUSH2 0x2773 PUSH2 0x4B74 JUMP JUMPDEST PUSH0 SWAP2 DUP3 MSTORE PUSH1 0x20 SWAP1 SWAP2 KECCAK256 DUP3 SLOAD PUSH1 0x6 SWAP1 SWAP3 MUL ADD SWAP1 DUP2 SSTORE PUSH1 0x1 DUP1 DUP4 ADD SLOAD DUP2 DUP4 ADD DUP1 SLOAD PUSH1 0x1 PUSH1 0x1 PUSH1 0xA0 SHL SUB NOT AND PUSH1 0x1 PUSH1 0x1 PUSH1 0xA0 SHL SUB SWAP1 SWAP3 AND SWAP2 SWAP1 SWAP2 OR SWAP1 SSTORE PUSH1 0x2 DUP1 DUP5 ADD SLOAD SWAP1 DUP4 ADD SSTORE PUSH1 0x3 DUP1 DUP5 ADD SLOAD SWAP1 DUP4 ADD SSTORE PUSH1 0x4 DUP1 DUP5 ADD SLOAD SWAP1 DUP4 ADD SSTORE PUSH1 0x5 DUP1 DUP5 ADD SLOAD SWAP1 DUP4 ADD DUP1 SLOAD PUSH1 0xFF SWAP1 SWAP3 AND SWAP3 SWAP1 SWAP2 PUSH1 0xFF NOT AND SWAP1 DUP4 DUP1 ISZERO PUSH2 0x27F2 JUMPI PUSH2 0x27F2 PUSH2 0x4854 JUMP JUMPDEST MUL OR SWAP1 SSTORE POP PUSH1 0x5 DUP3 DUP2 ADD SLOAD SWAP1 DUP3 ADD DUP1 SLOAD PUSH1 0xFF PUSH2 0x100 SWAP4 DUP5 SWAP1 DIV AND SWAP3 PUSH2 0xFF00 NOT SWAP1 SWAP2 AND SWAP1 DUP4 PUSH1 0x2 DUP2 GT ISZERO PUSH2 0x2827 JUMPI PUSH2 0x2827 PUSH2 0x4854 JUMP JUMPDEST MUL OR SWAP1 SSTORE POP PUSH1 0x5 SWAP2 DUP3 ADD SLOAD SWAP2 ADD DUP1 SLOAD PUSH3 0xFF0000 NOT AND PUSH3 0x10000 SWAP3 DUP4 SWAP1 DIV PUSH1 0xFF AND ISZERO ISZERO SWAP1 SWAP3 MUL SWAP2 SWAP1 SWAP2 OR SWAP1 SSTORE DUP1 PUSH2 0x285C DUP2 PUSH2 0x4CB7 JUMP JUMPDEST SWAP2 POP POP PUSH2 0x2731 JUMP JUMPDEST POP DUP10 DUP4 DUP3 DUP2 SLOAD DUP2 LT PUSH2 0x2878 JUMPI PUSH2 0x2878 PUSH2 0x4B74 JUMP JUMPDEST PUSH0 SWAP2 DUP3 MSTORE PUSH1 0x20 SWAP2 DUP3 SWAP1 KECCAK256 DUP4 MLOAD PUSH1 0x6 SWAP3 SWAP1 SWAP3 MUL ADD SWAP1 DUP2 SSTORE SWAP1 DUP3 ADD MLOAD PUSH1 0x1 DUP1 DUP4 ADD DUP1 SLOAD PUSH1 0x1 PUSH1 0x1 PUSH1 0xA0 SHL SUB NOT AND PUSH1 0x1 PUSH1 0x1 PUSH1 0xA0 SHL SUB SWAP1 SWAP4 AND SWAP3 SWAP1 SWAP3 OR SWAP1 SWAP2 SSTORE PUSH1 0x40 DUP4 ADD MLOAD PUSH1 0x2 DUP4 ADD SSTORE PUSH1 0x60 DUP4 ADD MLOAD PUSH1 0x3 DUP4 ADD SSTORE PUSH1 0x80 DUP4 ADD MLOAD PUSH1 0x4 DUP4 ADD SSTORE PUSH1 0xA0 DUP4 ADD MLOAD PUSH1 0x5 DUP4 ADD DUP1 SLOAD SWAP2 SWAP3 SWAP1 SWAP2 PUSH1 0xFF NOT AND SWAP1 DUP4 DUP1 ISZERO PUSH2 0x28F6 JUMPI PUSH2 0x28F6 PUSH2 0x4854 JUMP JUMPDEST MUL OR SWAP1 SSTORE POP PUSH1 0xC0 DUP3 ADD MLOAD PUSH1 0x5 DUP3 ADD DUP1 SLOAD PUSH2 0xFF00 NOT AND PUSH2 0x100 DUP4 PUSH1 0x2 DUP2 GT ISZERO PUSH2 0x2920 JUMPI PUSH2 0x2920 PUSH2 0x4854 JUMP JUMPDEST MUL OR SWAP1 SSTORE POP PUSH1 0xE0 SWAP2 SWAP1 SWAP2 ADD MLOAD PUSH1 0x5 SWAP1 SWAP2 ADD DUP1 SLOAD SWAP2 ISZERO ISZERO PUSH3 0x10000 MUL PUSH3 0xFF0000 NOT SWAP1 SWAP3 AND SWAP2 SWAP1 SWAP2 OR SWAP1 SSTORE POP POP PUSH2 0x888 JUMP JUMPDEST DUP6 PUSH2 0x888 JUMPI PUSH2 0x888 DUP2 DUP4 PUSH2 0x3FAA JUMP JUMPDEST DUP2 SLOAD PUSH0 JUMPDEST DUP2 DUP2 LT DUP1 ISZERO PUSH2 0x2997 JUMPI POP DUP3 PUSH1 0x40 ADD MLOAD DUP5 DUP3 DUP2 SLOAD DUP2 LT PUSH2 0x2984 JUMPI PUSH2 0x2984 PUSH2 0x4B74 JUMP JUMPDEST SWAP1 PUSH0 MSTORE PUSH1 0x20 PUSH0 KECCAK256 SWAP1 PUSH1 0x6 MUL ADD PUSH1 0x2 ADD SLOAD GT ISZERO JUMPDEST ISZERO PUSH2 0x29AE JUMPI DUP1 PUSH2 0x29A6 DUP2 PUSH2 0x4C9F JUMP JUMPDEST SWAP2 POP POP PUSH2 0x2963 JUMP JUMPDEST PUSH1 0x14 DUP3 LT PUSH2 0x2B3F JUMPI PUSH0 DUP5 PUSH2 0x29C3 PUSH1 0x1 DUP6 PUSH2 0x4B88 JUMP JUMPDEST DUP2 SLOAD DUP2 LT PUSH2 0x29D3 JUMPI PUSH2 0x29D3 PUSH2 0x4B74 JUMP JUMPDEST PUSH0 SWAP2 DUP3 MSTORE PUSH1 0x20 SWAP2 DUP3 SWAP1 KECCAK256 PUSH1 0x40 DUP1 MLOAD PUSH2 0x100 DUP2 ADD DUP3 MSTORE PUSH1 0x6 SWAP1 SWAP4 MUL SWAP1 SWAP2 ADD DUP1 SLOAD DUP4 MSTORE PUSH1 0x1 DUP2 ADD SLOAD PUSH1 0x1 PUSH1 0x1 PUSH1 0xA0 SHL SUB AND SWAP4 DUP4 ADD SWAP4 SWAP1 SWAP4 MSTORE PUSH1 0x2 DUP4 ADD SLOAD SWAP1 DUP3 ADD MSTORE PUSH1 0x3 DUP3 ADD SLOAD PUSH1 0x60 DUP3 ADD MSTORE PUSH1 0x4 DUP3 ADD SLOAD PUSH1 0x80 DUP3 ADD MSTORE PUSH1 0x5 DUP3 ADD SLOAD SWAP1 SWAP2 SWAP1 PUSH1 0xA0 DUP4 ADD SWAP1 PUSH1 0xFF AND DUP1 ISZERO PUSH2 0x2A44 JUMPI PUSH2 0x2A44 PUSH2 0x4854 JUMP JUMPDEST DUP1 ISZERO PUSH2 0x2A52 JUMPI PUSH2 0x2A52 PUSH2 0x4854 JUMP JUMPDEST DUP2 MSTORE PUSH1 0x20 ADD PUSH1 0x5 DUP3 ADD PUSH1 0x1 SWAP1 SLOAD SWAP1 PUSH2 0x100 EXP SWAP1 DIV PUSH1 0xFF AND PUSH1 0x2 DUP2 GT ISZERO PUSH2 0x2A7A JUMPI PUSH2 0x2A7A PUSH2 0x4854 JUMP JUMPDEST PUSH1 0x2 DUP2 GT ISZERO PUSH2 0x2A8B JUMPI PUSH2 0x2A8B PUSH2 0x4854 JUMP JUMPDEST DUP2 MSTORE PUSH1 0x5 SWAP2 SWAP1 SWAP2 ADD SLOAD PUSH3 0x10000 SWAP1 DIV PUSH1 0xFF AND ISZERO ISZERO PUSH1 0x20 SWAP1 SWAP2 ADD MSTORE PUSH1 0x40 DUP2 DUP2 ADD MLOAD SWAP1 DUP7 ADD MLOAD SWAP2 SWAP3 POP GT ISZERO PUSH2 0x2ADB JUMPI PUSH2 0x2AC6 DUP6 DUP6 PUSH1 0xA0 ADD MLOAD PUSH2 0x4376 JUMP JUMPDEST DUP5 SLOAD SWAP3 POP DUP3 DUP3 GT ISZERO PUSH2 0x2AD6 JUMPI DUP3 SWAP2 POP JUMPDEST PUSH2 0x2B3D JUMP JUMPDEST PUSH1 0x40 MLOAD PUSH3 0x461BCD PUSH1 0xE5 SHL DUP2 MSTORE PUSH1 0x20 PUSH1 0x4 DUP3 ADD MSTORE PUSH1 0x31 PUSH1 0x24 DUP3 ADD MSTORE PUSH32 0x4E6577206F72646572207072696365206973206E6F74206C6F7720656E6F7567 PUSH1 0x44 DUP3 ADD MSTORE PUSH17 0x34103A379031329034B739B2B93A32B217 PUSH1 0x79 SHL PUSH1 0x64 DUP3 ADD MSTORE PUSH1 0x84 ADD PUSH2 0x6EF JUMP JUMPDEST POP JUMPDEST DUP4 SLOAD PUSH1 0x1 DUP1 DUP3 ADD DUP7 SSTORE PUSH0 DUP7 DUP2 MSTORE PUSH1 0x20 SWAP1 DUP2 SWAP1 KECCAK256 DUP7 MLOAD PUSH1 0x6 SWAP1 SWAP5 MUL ADD SWAP3 DUP4 SSTORE DUP6 ADD MLOAD DUP3 DUP3 ADD DUP1 SLOAD PUSH1 0x1 PUSH1 0x1 PUSH1 0xA0 SHL SUB NOT AND PUSH1 0x1 PUSH1 0x1 PUSH1 0xA0 SHL SUB SWAP1 SWAP3 AND SWAP2 SWAP1 SWAP2 OR SWAP1 SSTORE PUSH1 0x40 DUP6 ADD MLOAD PUSH1 0x2 DUP4 ADD SSTORE PUSH1 0x60 DUP6 ADD MLOAD PUSH1 0x3 DUP4 ADD SSTORE PUSH1 0x80 DUP6 ADD MLOAD PUSH1 0x4 DUP4 ADD SSTORE PUSH1 0xA0 DUP6 ADD MLOAD PUSH1 0x5 DUP4 ADD DUP1 SLOAD DUP8 SWAP5 SWAP4 PUSH1 0xFF NOT SWAP1 SWAP2 AND SWAP1 DUP4 DUP1 ISZERO PUSH2 0x2BC2 JUMPI PUSH2 0x2BC2 PUSH2 0x4854 JUMP JUMPDEST MUL OR SWAP1 SSTORE POP PUSH1 0xC0 DUP3 ADD MLOAD PUSH1 0x5 DUP3 ADD DUP1 SLOAD PUSH2 0xFF00 NOT AND PUSH2 0x100 DUP4 PUSH1 0x2 DUP2 GT ISZERO PUSH2 0x2BEC JUMPI PUSH2 0x2BEC PUSH2 0x4854 JUMP JUMPDEST MUL OR SWAP1 SSTORE POP PUSH1 0xE0 SWAP2 SWAP1 SWAP2 ADD MLOAD PUSH1 0x5 SWAP1 SWAP2 ADD DUP1 SLOAD SWAP2 ISZERO ISZERO PUSH3 0x10000 MUL PUSH3 0xFF0000 NOT SWAP1 SWAP3 AND SWAP2 SWAP1 SWAP2 OR SWAP1 SSTORE DUP4 SLOAD PUSH0 SWAP1 PUSH2 0x2C25 SWAP1 PUSH1 0x1 SWAP1 PUSH2 0x4B88 JUMP JUMPDEST SWAP1 POP JUMPDEST DUP2 DUP2 GT ISZERO PUSH2 0x2D5B JUMPI DUP5 PUSH2 0x2C3C PUSH1 0x1 DUP4 PUSH2 0x4B88 JUMP JUMPDEST DUP2 SLOAD DUP2 LT PUSH2 0x2C4C JUMPI PUSH2 0x2C4C PUSH2 0x4B74 JUMP JUMPDEST SWAP1 PUSH0 MSTORE PUSH1 0x20 PUSH0 KECCAK256 SWAP1 PUSH1 0x6 MUL ADD DUP6 DUP3 DUP2 SLOAD DUP2 LT PUSH2 0x2C6A JUMPI PUSH2 0x2C6A PUSH2 0x4B74 JUMP JUMPDEST PUSH0 SWAP2 DUP3 MSTORE PUSH1 0x20 SWAP1 SWAP2 KECCAK256 DUP3 SLOAD PUSH1 0x6 SWAP1 SWAP3 MUL ADD SWAP1 DUP2 SSTORE PUSH1 0x1 DUP1 DUP4 ADD SLOAD DUP2 DUP4 ADD DUP1 SLOAD PUSH1 0x1 PUSH1 0x1 PUSH1 0xA0 SHL SUB NOT AND PUSH1 0x1 PUSH1 0x1 PUSH1 0xA0 SHL SUB SWAP1 SWAP3 AND SWAP2 SWAP1 SWAP2 OR SWAP1 SSTORE PUSH1 0x2 DUP1 DUP5 ADD SLOAD SWAP1 DUP4 ADD SSTORE PUSH1 0x3 DUP1 DUP5 ADD SLOAD SWAP1 DUP4 ADD SSTORE PUSH1 0x4 DUP1 DUP5 ADD SLOAD SWAP1 DUP4 ADD SSTORE PUSH1 0x5 DUP1 DUP5 ADD SLOAD SWAP1 DUP4 ADD DUP1 SLOAD PUSH1 0xFF SWAP1 SWAP3 AND SWAP3 SWAP1 SWAP2 PUSH1 0xFF NOT AND SWAP1 DUP4 DUP1 ISZERO PUSH2 0x2CE9 JUMPI PUSH2 0x2CE9 PUSH2 0x4854 JUMP JUMPDEST MUL OR SWAP1 SSTORE POP PUSH1 0x5 DUP3 DUP2 ADD SLOAD SWAP1 DUP3 ADD DUP1 SLOAD PUSH1 0xFF PUSH2 0x100 SWAP4 DUP5 SWAP1 DIV AND SWAP3 PUSH2 0xFF00 NOT SWAP1 SWAP2 AND SWAP1 DUP4 PUSH1 0x2 DUP2 GT ISZERO PUSH2 0x2D1E JUMPI PUSH2 0x2D1E PUSH2 0x4854 JUMP JUMPDEST MUL OR SWAP1 SSTORE POP PUSH1 0x5 SWAP2 DUP3 ADD SLOAD SWAP2 ADD DUP1 SLOAD PUSH3 0xFF0000 NOT AND PUSH3 0x10000 SWAP3 DUP4 SWAP1 DIV PUSH1 0xFF AND ISZERO ISZERO SWAP1 SWAP3 MUL SWAP2 SWAP1 SWAP2 OR SWAP1 SSTORE DUP1 PUSH2 0x2D53 DUP2 PUSH2 0x4CB7 JUMP JUMPDEST SWAP2 POP POP PUSH2 0x2C28 JUMP JUMPDEST POP DUP3 DUP5 DUP3 DUP2 SLOAD DUP2 LT PUSH2 0x2D6F JUMPI PUSH2 0x2D6F PUSH2 0x4B74 JUMP JUMPDEST PUSH0 SWAP2 DUP3 MSTORE PUSH1 0x20 SWAP2 DUP3 SWAP1 KECCAK256 DUP4 MLOAD PUSH1 0x6 SWAP3 SWAP1 SWAP3 MUL ADD SWAP1 DUP2 SSTORE SWAP1 DUP3 ADD MLOAD PUSH1 0x1 DUP1 DUP4 ADD DUP1 SLOAD PUSH1 0x1 PUSH1 0x1 PUSH1 0xA0 SHL SUB NOT AND PUSH1 0x1 PUSH1 0x1 PUSH1 0xA0 SHL SUB SWAP1 SWAP4 AND SWAP3 SWAP1 SWAP3 OR SWAP1 SWAP2 SSTORE PUSH1 0x40 DUP4 ADD MLOAD PUSH1 0x2 DUP4 ADD SSTORE PUSH1 0x60 DUP4 ADD MLOAD PUSH1 0x3 DUP4 ADD SSTORE PUSH1 0x80 DUP4 ADD MLOAD PUSH1 0x4 DUP4 ADD SSTORE PUSH1 0xA0 DUP4 ADD MLOAD PUSH1 0x5 DUP4 ADD DUP1 SLOAD SWAP2 SWAP3 SWAP1 SWAP2 PUSH1 0xFF NOT AND SWAP1 DUP4 DUP1 ISZERO PUSH2 0x2DED JUMPI PUSH2 0x2DED PUSH2 0x4854 JUMP JUMPDEST MUL OR SWAP1 SSTORE POP PUSH1 0xC0 DUP3 ADD MLOAD PUSH1 0x5 DUP3 ADD DUP1 SLOAD PUSH2 0xFF00 NOT AND PUSH2 0x100 DUP4 PUSH1 0x2 DUP2 GT ISZERO PUSH2 0x2E17 JUMPI PUSH2 0x2E17 PUSH2 0x4854 JUMP JUMPDEST MUL OR SWAP1 SSTORE POP PUSH1 0xE0 SWAP2 SWAP1 SWAP2 ADD MLOAD PUSH1 0x5 SWAP1 SWAP2 ADD DUP1 SLOAD SWAP2 ISZERO ISZERO PUSH3 0x10000 MUL PUSH3 0xFF0000 NOT SWAP1 SWAP3 AND SWAP2 SWAP1 SWAP2 OR SWAP1 SSTORE POP POP POP POP JUMP JUMPDEST PUSH1 0x2 PUSH1 0x1 SLOAD SUB PUSH2 0x2E69 JUMPI PUSH1 0x40 MLOAD PUSH4 0x3EE5AEB5 PUSH1 0xE0 SHL DUP2 MSTORE PUSH1 0x4 ADD PUSH1 0x40 MLOAD DUP1 SWAP2 SUB SWAP1 REVERT JUMPDEST PUSH1 0x2 PUSH1 0x1 SSTORE JUMP JUMPDEST DUP3 SLOAD DUP3 LT PUSH2 0x2E90 JUMPI PUSH1 0x40 MLOAD PUSH3 0x461BCD PUSH1 0xE5 SHL DUP2 MSTORE PUSH1 0x4 ADD PUSH2 0x6EF SWAP1 PUSH2 0x4BCA JUMP JUMPDEST PUSH0 DUP4 DUP4 DUP2 SLOAD DUP2 LT PUSH2 0x2EA3 JUMPI PUSH2 0x2EA3 PUSH2 0x4B74 JUMP JUMPDEST PUSH0 SWAP2 DUP3 MSTORE PUSH1 0x20 SWAP2 DUP3 SWAP1 KECCAK256 PUSH1 0x40 DUP1 MLOAD PUSH2 0x100 DUP2 ADD DUP3 MSTORE PUSH1 0x6 SWAP1 SWAP4 MUL SWAP1 SWAP2 ADD DUP1 SLOAD DUP4 MSTORE PUSH1 0x1 DUP2 ADD SLOAD PUSH1 0x1 PUSH1 0x1 PUSH1 0xA0 SHL SUB AND SWAP4 DUP4 ADD SWAP4 SWAP1 SWAP4 MSTORE PUSH1 0x2 DUP4 ADD SLOAD SWAP1 DUP3 ADD MSTORE PUSH1 0x3 DUP3 ADD SLOAD PUSH1 0x60 DUP3 ADD MSTORE PUSH1 0x4 DUP3 ADD SLOAD PUSH1 0x80 DUP3 ADD MSTORE PUSH1 0x5 DUP3 ADD SLOAD SWAP1 SWAP2 SWAP1 PUSH1 0xA0 DUP4 ADD SWAP1 PUSH1 0xFF AND DUP1 ISZERO PUSH2 0x2F14 JUMPI PUSH2 0x2F14 PUSH2 0x4854 JUMP JUMPDEST DUP1 ISZERO PUSH2 0x2F22 JUMPI PUSH2 0x2F22 PUSH2 0x4854 JUMP JUMPDEST DUP2 MSTORE PUSH1 0x20 ADD PUSH1 0x5 DUP3 ADD PUSH1 0x1 SWAP1 SLOAD SWAP1 PUSH2 0x100 EXP SWAP1 DIV PUSH1 0xFF AND PUSH1 0x2 DUP2 GT ISZERO PUSH2 0x2F4A JUMPI PUSH2 0x2F4A PUSH2 0x4854 JUMP JUMPDEST PUSH1 0x2 DUP2 GT ISZERO PUSH2 0x2F5B JUMPI PUSH2 0x2F5B PUSH2 0x4854 JUMP JUMPDEST DUP2 MSTORE PUSH1 0x5 SWAP2 SWAP1 SWAP2 ADD SLOAD PUSH3 0x10000 SWAP1 DIV PUSH1 0xFF AND ISZERO ISZERO PUSH1 0x20 SWAP1 SWAP2 ADD MSTORE SWAP1 POP PUSH0 DUP3 ISZERO PUSH2 0x3420 JUMPI DUP4 JUMPDEST PUSH0 DUP2 GT DUP1 ISZERO PUSH2 0x2FBD JUMPI POP DUP6 PUSH2 0x2F96 PUSH1 0x1 DUP4 PUSH2 0x4B88 JUMP JUMPDEST DUP2 SLOAD DUP2 LT PUSH2 0x2FA6 JUMPI PUSH2 0x2FA6 PUSH2 0x4B74 JUMP JUMPDEST SWAP1 PUSH0 MSTORE PUSH1 0x20 PUSH0 KECCAK256 SWAP1 PUSH1 0x6 MUL ADD PUSH1 0x2 ADD SLOAD DUP4 PUSH1 0x40 ADD MLOAD LT JUMPDEST ISZERO PUSH2 0x30FA JUMPI DUP6 PUSH2 0x2FCE PUSH1 0x1 DUP4 PUSH2 0x4B88 JUMP JUMPDEST DUP2 SLOAD DUP2 LT PUSH2 0x2FDE JUMPI PUSH2 0x2FDE PUSH2 0x4B74 JUMP JUMPDEST SWAP1 PUSH0 MSTORE PUSH1 0x20 PUSH0 KECCAK256 SWAP1 PUSH1 0x6 MUL ADD DUP7 DUP3 DUP2 SLOAD DUP2 LT PUSH2 0x2FFC JUMPI PUSH2 0x2FFC PUSH2 0x4B74 JUMP JUMPDEST PUSH0 SWAP2 DUP3 MSTORE PUSH1 0x20 SWAP1 SWAP2 KECCAK256 DUP3 SLOAD PUSH1 0x6 SWAP1 SWAP3 MUL ADD SWAP1 DUP2 SSTORE PUSH1 0x1 DUP1 DUP4 ADD SLOAD DUP2 DUP4 ADD DUP1 SLOAD PUSH1 0x1 PUSH1 0x1 PUSH1 0xA0 SHL SUB NOT AND PUSH1 0x1 PUSH1 0x1 PUSH1 0xA0 SHL SUB SWAP1 SWAP3 AND SWAP2 SWAP1 SWAP2 OR SWAP1 SSTORE PUSH1 0x2 DUP1 DUP5 ADD SLOAD SWAP1 DUP4 ADD SSTORE PUSH1 0x3 DUP1 DUP5 ADD SLOAD SWAP1 DUP4 ADD SSTORE PUSH1 0x4 DUP1 DUP5 ADD SLOAD SWAP1 DUP4 ADD SSTORE PUSH1 0x5 DUP1 DUP5 ADD SLOAD SWAP1 DUP4 ADD DUP1 SLOAD PUSH1 0xFF SWAP1 SWAP3 AND SWAP3 SWAP1 SWAP2 PUSH1 0xFF NOT AND SWAP1 DUP4 DUP1 ISZERO PUSH2 0x307B JUMPI PUSH2 0x307B PUSH2 0x4854 JUMP JUMPDEST MUL OR SWAP1 SSTORE POP PUSH1 0x5 DUP3 DUP2 ADD SLOAD SWAP1 DUP3 ADD DUP1 SLOAD PUSH1 0xFF PUSH2 0x100 SWAP4 DUP5 SWAP1 DIV AND SWAP3 PUSH2 0xFF00 NOT SWAP1 SWAP2 AND SWAP1 DUP4 PUSH1 0x2 DUP2 GT ISZERO PUSH2 0x30B0 JUMPI PUSH2 0x30B0 PUSH2 0x4854 JUMP JUMPDEST MUL OR SWAP1 SSTORE POP PUSH1 0x5 SWAP2 DUP3 ADD SLOAD SWAP2 ADD DUP1 SLOAD PUSH3 0xFF0000 NOT AND PUSH3 0x10000 SWAP3 DUP4 SWAP1 DIV PUSH1 0xFF AND ISZERO ISZERO SWAP1 SWAP3 MUL SWAP2 SWAP1 SWAP2 OR SWAP1 SSTORE PUSH2 0x30E6 PUSH1 0x1 DUP3 PUSH2 0x4B88 JUMP JUMPDEST SWAP5 POP DUP1 PUSH2 0x30F2 DUP2 PUSH2 0x4CB7 JUMP JUMPDEST SWAP2 POP POP PUSH2 0x2F80 JUMP JUMPDEST POP DUP4 JUMPDEST DUP6 SLOAD PUSH2 0x310B SWAP1 PUSH1 0x1 SWAP1 PUSH2 0x4B88 JUMP JUMPDEST DUP2 LT DUP1 ISZERO PUSH2 0x3147 JUMPI POP DUP6 PUSH2 0x3120 DUP3 PUSH1 0x1 PUSH2 0x4AF8 JUMP JUMPDEST DUP2 SLOAD DUP2 LT PUSH2 0x3130 JUMPI PUSH2 0x3130 PUSH2 0x4B74 JUMP JUMPDEST SWAP1 PUSH0 MSTORE PUSH1 0x20 PUSH0 KECCAK256 SWAP1 PUSH1 0x6 MUL ADD PUSH1 0x2 ADD SLOAD DUP4 PUSH1 0x40 ADD MLOAD GT JUMPDEST ISZERO PUSH2 0x328A JUMPI DUP2 PUSH2 0x3278 JUMPI DUP6 PUSH2 0x315D DUP3 PUSH1 0x1 PUSH2 0x4AF8 JUMP JUMPDEST DUP2 SLOAD DUP2 LT PUSH2 0x316D JUMPI PUSH2 0x316D PUSH2 0x4B74 JUMP JUMPDEST SWAP1 PUSH0 MSTORE PUSH1 0x20 PUSH0 KECCAK256 SWAP1 PUSH1 0x6 MUL ADD DUP7 DUP3 DUP2 SLOAD DUP2 LT PUSH2 0x318B JUMPI PUSH2 0x318B PUSH2 0x4B74 JUMP JUMPDEST PUSH0 SWAP2 DUP3 MSTORE PUSH1 0x20 SWAP1 SWAP2 KECCAK256 DUP3 SLOAD PUSH1 0x6 SWAP1 SWAP3 MUL ADD SWAP1 DUP2 SSTORE PUSH1 0x1 DUP1 DUP4 ADD SLOAD DUP2 DUP4 ADD DUP1 SLOAD PUSH1 0x1 PUSH1 0x1 PUSH1 0xA0 SHL SUB NOT AND PUSH1 0x1 PUSH1 0x1 PUSH1 0xA0 SHL SUB SWAP1 SWAP3 AND SWAP2 SWAP1 SWAP2 OR SWAP1 SSTORE PUSH1 0x2 DUP1 DUP5 ADD SLOAD SWAP1 DUP4 ADD SSTORE PUSH1 0x3 DUP1 DUP5 ADD SLOAD SWAP1 DUP4 ADD SSTORE PUSH1 0x4 DUP1 DUP5 ADD SLOAD SWAP1 DUP4 ADD SSTORE PUSH1 0x5 DUP1 DUP5 ADD SLOAD SWAP1 DUP4 ADD DUP1 SLOAD PUSH1 0xFF SWAP1 SWAP3 AND SWAP3 SWAP1 SWAP2 PUSH1 0xFF NOT AND SWAP1 DUP4 DUP1 ISZERO PUSH2 0x320A JUMPI PUSH2 0x320A PUSH2 0x4854 JUMP JUMPDEST MUL OR SWAP1 SSTORE POP PUSH1 0x5 DUP3 DUP2 ADD SLOAD SWAP1 DUP3 ADD DUP1 SLOAD PUSH1 0xFF PUSH2 0x100 SWAP4 DUP5 SWAP1 DIV AND SWAP3 PUSH2 0xFF00 NOT SWAP1 SWAP2 AND SWAP1 DUP4 PUSH1 0x2 DUP2 GT ISZERO PUSH2 0x323F JUMPI PUSH2 0x323F PUSH2 0x4854 JUMP JUMPDEST MUL OR SWAP1 SSTORE POP PUSH1 0x5 SWAP2 DUP3 ADD SLOAD SWAP2 ADD DUP1 SLOAD PUSH3 0xFF0000 NOT AND PUSH3 0x10000 SWAP3 DUP4 SWAP1 DIV PUSH1 0xFF AND ISZERO ISZERO SWAP1 SWAP3 MUL SWAP2 SWAP1 SWAP2 OR SWAP1 SSTORE PUSH2 0x3275 DUP2 PUSH1 0x1 PUSH2 0x4AF8 JUMP JUMPDEST SWAP5 POP JUMPDEST DUP1 PUSH2 0x3282 DUP2 PUSH2 0x4C9F JUMP JUMPDEST SWAP2 POP POP PUSH2 0x30FD JUMP JUMPDEST POP DUP4 JUMPDEST DUP6 SLOAD PUSH2 0x329B SWAP1 PUSH1 0x1 SWAP1 PUSH2 0x4B88 JUMP JUMPDEST DUP2 LT DUP1 ISZERO PUSH2 0x32D7 JUMPI POP DUP6 PUSH2 0x32B0 DUP3 PUSH1 0x1 PUSH2 0x4AF8 JUMP JUMPDEST DUP2 SLOAD DUP2 LT PUSH2 0x32C0 JUMPI PUSH2 0x32C0 PUSH2 0x4B74 JUMP JUMPDEST SWAP1 PUSH0 MSTORE PUSH1 0x20 PUSH0 KECCAK256 SWAP1 PUSH1 0x6 MUL ADD PUSH1 0x2 ADD SLOAD DUP4 PUSH1 0x40 ADD MLOAD EQ JUMPDEST ISZERO PUSH2 0x341A JUMPI DUP2 PUSH2 0x3408 JUMPI DUP6 PUSH2 0x32ED DUP3 PUSH1 0x1 PUSH2 0x4AF8 JUMP JUMPDEST DUP2 SLOAD DUP2 LT PUSH2 0x32FD JUMPI PUSH2 0x32FD PUSH2 0x4B74 JUMP JUMPDEST SWAP1 PUSH0 MSTORE PUSH1 0x20 PUSH0 KECCAK256 SWAP1 PUSH1 0x6 MUL ADD DUP7 DUP3 DUP2 SLOAD DUP2 LT PUSH2 0x331B JUMPI PUSH2 0x331B PUSH2 0x4B74 JUMP JUMPDEST PUSH0 SWAP2 DUP3 MSTORE PUSH1 0x20 SWAP1 SWAP2 KECCAK256 DUP3 SLOAD PUSH1 0x6 SWAP1 SWAP3 MUL ADD SWAP1 DUP2 SSTORE PUSH1 0x1 DUP1 DUP4 ADD SLOAD DUP2 DUP4 ADD DUP1 SLOAD PUSH1 0x1 PUSH1 0x1 PUSH1 0xA0 SHL SUB NOT AND PUSH1 0x1 PUSH1 0x1 PUSH1 0xA0 SHL SUB SWAP1 SWAP3 AND SWAP2 SWAP1 SWAP2 OR SWAP1 SSTORE PUSH1 0x2 DUP1 DUP5 ADD SLOAD SWAP1 DUP4 ADD SSTORE PUSH1 0x3 DUP1 DUP5 ADD SLOAD SWAP1 DUP4 ADD SSTORE PUSH1 0x4 DUP1 DUP5 ADD SLOAD SWAP1 DUP4 ADD SSTORE PUSH1 0x5 DUP1 DUP5 ADD SLOAD SWAP1 DUP4 ADD DUP1 SLOAD PUSH1 0xFF SWAP1 SWAP3 AND SWAP3 SWAP1 SWAP2 PUSH1 0xFF NOT AND SWAP1 DUP4 DUP1 ISZERO PUSH2 0x339A JUMPI PUSH2 0x339A PUSH2 0x4854 JUMP JUMPDEST MUL OR SWAP1 SSTORE POP PUSH1 0x5 DUP3 DUP2 ADD SLOAD SWAP1 DUP3 ADD DUP1 SLOAD PUSH1 0xFF PUSH2 0x100 SWAP4 DUP5 SWAP1 DIV AND SWAP3 PUSH2 0xFF00 NOT SWAP1 SWAP2 AND SWAP1 DUP4 PUSH1 0x2 DUP2 GT ISZERO PUSH2 0x33CF JUMPI PUSH2 0x33CF PUSH2 0x4854 JUMP JUMPDEST MUL OR SWAP1 SSTORE POP PUSH1 0x5 SWAP2 DUP3 ADD SLOAD SWAP2 ADD DUP1 SLOAD PUSH3 0xFF0000 NOT AND PUSH3 0x10000 SWAP3 DUP4 SWAP1 DIV PUSH1 0xFF AND ISZERO ISZERO SWAP1 SWAP3 MUL SWAP2 SWAP1 SWAP2 OR SWAP1 SSTORE PUSH2 0x3405 DUP2 PUSH1 0x1 PUSH2 0x4AF8 JUMP JUMPDEST SWAP5 POP JUMPDEST DUP1 PUSH2 0x3412 DUP2 PUSH2 0x4C9F JUMP JUMPDEST SWAP2 POP POP PUSH2 0x328D JUMP JUMPDEST POP PUSH2 0x38BE JUMP JUMPDEST DUP4 JUMPDEST PUSH0 DUP2 GT DUP1 ISZERO PUSH2 0x345F JUMPI POP DUP6 PUSH2 0x3438 PUSH1 0x1 DUP4 PUSH2 0x4B88 JUMP JUMPDEST DUP2 SLOAD DUP2 LT PUSH2 0x3448 JUMPI PUSH2 0x3448 PUSH2 0x4B74 JUMP JUMPDEST SWAP1 PUSH0 MSTORE PUSH1 0x20 PUSH0 KECCAK256 SWAP1 PUSH1 0x6 MUL ADD PUSH1 0x2 ADD SLOAD DUP4 PUSH1 0x40 ADD MLOAD GT JUMPDEST ISZERO PUSH2 0x359C JUMPI DUP6 PUSH2 0x3470 PUSH1 0x1 DUP4 PUSH2 0x4B88 JUMP JUMPDEST DUP2 SLOAD DUP2 LT PUSH2 0x3480 JUMPI PUSH2 0x3480 PUSH2 0x4B74 JUMP JUMPDEST SWAP1 PUSH0 MSTORE PUSH1 0x20 PUSH0 KECCAK256 SWAP1 PUSH1 0x6 MUL ADD DUP7 DUP3 DUP2 SLOAD DUP2 LT PUSH2 0x349E JUMPI PUSH2 0x349E PUSH2 0x4B74 JUMP JUMPDEST PUSH0 SWAP2 DUP3 MSTORE PUSH1 0x20 SWAP1 SWAP2 KECCAK256 DUP3 SLOAD PUSH1 0x6 SWAP1 SWAP3 MUL ADD SWAP1 DUP2 SSTORE PUSH1 0x1 DUP1 DUP4 ADD SLOAD DUP2 DUP4 ADD DUP1 SLOAD PUSH1 0x1 PUSH1 0x1 PUSH1 0xA0 SHL SUB NOT AND PUSH1 0x1 PUSH1 0x1 PUSH1 0xA0 SHL SUB SWAP1 SWAP3 AND SWAP2 SWAP1 SWAP2 OR SWAP1 SSTORE PUSH1 0x2 DUP1 DUP5 ADD SLOAD SWAP1 DUP4 ADD SSTORE PUSH1 0x3 DUP1 DUP5 ADD SLOAD SWAP1 DUP4 ADD SSTORE PUSH1 0x4 DUP1 DUP5 ADD SLOAD SWAP1 DUP4 ADD SSTORE PUSH1 0x5 DUP1 DUP5 ADD SLOAD SWAP1 DUP4 ADD DUP1 SLOAD PUSH1 0xFF SWAP1 SWAP3 AND SWAP3 SWAP1 SWAP2 PUSH1 0xFF NOT AND SWAP1 DUP4 DUP1 ISZERO PUSH2 0x351D JUMPI PUSH2 0x351D PUSH2 0x4854 JUMP JUMPDEST MUL OR SWAP1 SSTORE POP PUSH1 0x5 DUP3 DUP2 ADD SLOAD SWAP1 DUP3 ADD DUP1 SLOAD PUSH1 0xFF PUSH2 0x100 SWAP4 DUP5 SWAP1 DIV AND SWAP3 PUSH2 0xFF00 NOT SWAP1 SWAP2 AND SWAP1 DUP4 PUSH1 0x2 DUP2 GT ISZERO PUSH2 0x3552 JUMPI PUSH2 0x3552 PUSH2 0x4854 JUMP JUMPDEST MUL OR SWAP1 SSTORE POP PUSH1 0x5 SWAP2 DUP3 ADD SLOAD SWAP2 ADD DUP1 SLOAD PUSH3 0xFF0000 NOT AND PUSH3 0x10000 SWAP3 DUP4 SWAP1 DIV PUSH1 0xFF AND ISZERO ISZERO SWAP1 SWAP3 MUL SWAP2 SWAP1 SWAP2 OR SWAP1 SSTORE PUSH2 0x3588 PUSH1 0x1 DUP3 PUSH2 0x4B88 JUMP JUMPDEST SWAP5 POP DUP1 PUSH2 0x3594 DUP2 PUSH2 0x4CB7 JUMP JUMPDEST SWAP2 POP POP PUSH2 0x3422 JUMP JUMPDEST POP DUP4 JUMPDEST DUP6 SLOAD PUSH2 0x35AD SWAP1 PUSH1 0x1 SWAP1 PUSH2 0x4B88 JUMP JUMPDEST DUP2 LT DUP1 ISZERO PUSH2 0x35E9 JUMPI POP DUP6 PUSH2 0x35C2 DUP3 PUSH1 0x1 PUSH2 0x4AF8 JUMP JUMPDEST DUP2 SLOAD DUP2 LT PUSH2 0x35D2 JUMPI PUSH2 0x35D2 PUSH2 0x4B74 JUMP JUMPDEST SWAP1 PUSH0 MSTORE PUSH1 0x20 PUSH0 KECCAK256 SWAP1 PUSH1 0x6 MUL ADD PUSH1 0x2 ADD SLOAD DUP4 PUSH1 0x40 ADD MLOAD LT JUMPDEST ISZERO PUSH2 0x372C JUMPI DUP2 PUSH2 0x371A JUMPI DUP6 PUSH2 0x35FF DUP3 PUSH1 0x1 PUSH2 0x4AF8 JUMP JUMPDEST DUP2 SLOAD DUP2 LT PUSH2 0x360F JUMPI PUSH2 0x360F PUSH2 0x4B74 JUMP JUMPDEST SWAP1 PUSH0 MSTORE PUSH1 0x20 PUSH0 KECCAK256 SWAP1 PUSH1 0x6 MUL ADD DUP7 DUP3 DUP2 SLOAD DUP2 LT PUSH2 0x362D JUMPI PUSH2 0x362D PUSH2 0x4B74 JUMP JUMPDEST PUSH0 SWAP2 DUP3 MSTORE PUSH1 0x20 SWAP1 SWAP2 KECCAK256 DUP3 SLOAD PUSH1 0x6 SWAP1 SWAP3 MUL ADD SWAP1 DUP2 SSTORE PUSH1 0x1 DUP1 DUP4 ADD SLOAD DUP2 DUP4 ADD DUP1 SLOAD PUSH1 0x1 PUSH1 0x1 PUSH1 0xA0 SHL SUB NOT AND PUSH1 0x1 PUSH1 0x1 PUSH1 0xA0 SHL SUB SWAP1 SWAP3 AND SWAP2 SWAP1 SWAP2 OR SWAP1 SSTORE PUSH1 0x2 DUP1 DUP5 ADD SLOAD SWAP1 DUP4 ADD SSTORE PUSH1 0x3 DUP1 DUP5 ADD SLOAD SWAP1 DUP4 ADD SSTORE PUSH1 0x4 DUP1 DUP5 ADD SLOAD SWAP1 DUP4 ADD SSTORE PUSH1 0x5 DUP1 DUP5 ADD SLOAD SWAP1 DUP4 ADD DUP1 SLOAD PUSH1 0xFF SWAP1 SWAP3 AND SWAP3 SWAP1 SWAP2 PUSH1 0xFF NOT AND SWAP1 DUP4 DUP1 ISZERO PUSH2 0x36AC JUMPI PUSH2 0x36AC PUSH2 0x4854 JUMP JUMPDEST MUL OR SWAP1 SSTORE POP PUSH1 0x5 DUP3 DUP2 ADD SLOAD SWAP1 DUP3 ADD DUP1 SLOAD PUSH1 0xFF PUSH2 0x100 SWAP4 DUP5 SWAP1 DIV AND SWAP3 PUSH2 0xFF00 NOT SWAP1 SWAP2 AND SWAP1 DUP4 PUSH1 0x2 DUP2 GT ISZERO PUSH2 0x36E1 JUMPI PUSH2 0x36E1 PUSH2 0x4854 JUMP JUMPDEST MUL OR SWAP1 SSTORE POP PUSH1 0x5 SWAP2 DUP3 ADD SLOAD SWAP2 ADD DUP1 SLOAD PUSH3 0xFF0000 NOT AND PUSH3 0x10000 SWAP3 DUP4 SWAP1 DIV PUSH1 0xFF AND ISZERO ISZERO SWAP1 SWAP3 MUL SWAP2 SWAP1 SWAP2 OR SWAP1 SSTORE PUSH2 0x3717 DUP2 PUSH1 0x1 PUSH2 0x4AF8 JUMP JUMPDEST SWAP5 POP JUMPDEST DUP1 PUSH2 0x3724 DUP2 PUSH2 0x4C9F JUMP JUMPDEST SWAP2 POP POP PUSH2 0x359F JUMP JUMPDEST POP DUP4 JUMPDEST DUP6 SLOAD PUSH2 0x373D SWAP1 PUSH1 0x1 SWAP1 PUSH2 0x4B88 JUMP JUMPDEST DUP2 LT DUP1 ISZERO PUSH2 0x3779 JUMPI POP DUP6 PUSH2 0x3752 DUP3 PUSH1 0x1 PUSH2 0x4AF8 JUMP JUMPDEST DUP2 SLOAD DUP2 LT PUSH2 0x3762 JUMPI PUSH2 0x3762 PUSH2 0x4B74 JUMP JUMPDEST SWAP1 PUSH0 MSTORE PUSH1 0x20 PUSH0 KECCAK256 SWAP1 PUSH1 0x6 MUL ADD PUSH1 0x2 ADD SLOAD DUP4 PUSH1 0x40 ADD MLOAD EQ JUMPDEST ISZERO PUSH2 0x38BC JUMPI DUP2 PUSH2 0x38AA JUMPI DUP6 PUSH2 0x378F DUP3 PUSH1 0x1 PUSH2 0x4AF8 JUMP JUMPDEST DUP2 SLOAD DUP2 LT PUSH2 0x379F JUMPI PUSH2 0x379F PUSH2 0x4B74 JUMP JUMPDEST SWAP1 PUSH0 MSTORE PUSH1 0x20 PUSH0 KECCAK256 SWAP1 PUSH1 0x6 MUL ADD DUP7 DUP3 DUP2 SLOAD DUP2 LT PUSH2 0x37BD JUMPI PUSH2 0x37BD PUSH2 0x4B74 JUMP JUMPDEST PUSH0 SWAP2 DUP3 MSTORE PUSH1 0x20 SWAP1 SWAP2 KECCAK256 DUP3 SLOAD PUSH1 0x6 SWAP1 SWAP3 MUL ADD SWAP1 DUP2 SSTORE PUSH1 0x1 DUP1 DUP4 ADD SLOAD DUP2 DUP4 ADD DUP1 SLOAD PUSH1 0x1 PUSH1 0x1 PUSH1 0xA0 SHL SUB NOT AND PUSH1 0x1 PUSH1 0x1 PUSH1 0xA0 SHL SUB SWAP1 SWAP3 AND SWAP2 SWAP1 SWAP2 OR SWAP1 SSTORE PUSH1 0x2 DUP1 DUP5 ADD SLOAD SWAP1 DUP4 ADD SSTORE PUSH1 0x3 DUP1 DUP5 ADD SLOAD SWAP1 DUP4 ADD SSTORE PUSH1 0x4 DUP1 DUP5 ADD SLOAD SWAP1 DUP4 ADD SSTORE PUSH1 0x5 DUP1 DUP5 ADD SLOAD SWAP1 DUP4 ADD DUP1 SLOAD PUSH1 0xFF SWAP1 SWAP3 AND SWAP3 SWAP1 SWAP2 PUSH1 0xFF NOT AND SWAP1 DUP4 DUP1 ISZERO PUSH2 0x383C JUMPI PUSH2 0x383C PUSH2 0x4854 JUMP JUMPDEST MUL OR SWAP1 SSTORE POP PUSH1 0x5 DUP3 DUP2 ADD SLOAD SWAP1 DUP3 ADD DUP1 SLOAD PUSH1 0xFF PUSH2 0x100 SWAP4 DUP5 SWAP1 DIV AND SWAP3 PUSH2 0xFF00 NOT SWAP1 SWAP2 AND SWAP1 DUP4 PUSH1 0x2 DUP2 GT ISZERO PUSH2 0x3871 JUMPI PUSH2 0x3871 PUSH2 0x4854 JUMP JUMPDEST MUL OR SWAP1 SSTORE POP PUSH1 0x5 SWAP2 DUP3 ADD SLOAD SWAP2 ADD DUP1 SLOAD PUSH3 0xFF0000 NOT AND PUSH3 0x10000 SWAP3 DUP4 SWAP1 DIV PUSH1 0xFF AND ISZERO ISZERO SWAP1 SWAP3 MUL SWAP2 SWAP1 SWAP2 OR SWAP1 SSTORE PUSH2 0x38A7 DUP2 PUSH1 0x1 PUSH2 0x4AF8 JUMP JUMPDEST SWAP5 POP JUMPDEST DUP1 PUSH2 0x38B4 DUP2 PUSH2 0x4C9F JUMP JUMPDEST SWAP2 POP POP PUSH2 0x372F JUMP JUMPDEST POP JUMPDEST DUP1 PUSH2 0x1FC8 JUMPI DUP2 DUP6 DUP6 DUP2 SLOAD DUP2 LT PUSH2 0x38D6 JUMPI PUSH2 0x38D6 PUSH2 0x4B74 JUMP JUMPDEST PUSH0 SWAP2 DUP3 MSTORE PUSH1 0x20 SWAP2 DUP3 SWAP1 KECCAK256 DUP4 MLOAD PUSH1 0x6 SWAP3 SWAP1 SWAP3 MUL ADD SWAP1 DUP2 SSTORE SWAP1 DUP3 ADD MLOAD PUSH1 0x1 DUP1 DUP4 ADD DUP1 SLOAD PUSH1 0x1 PUSH1 0x1 PUSH1 0xA0 SHL SUB NOT AND PUSH1 0x1 PUSH1 0x1 PUSH1 0xA0 SHL SUB SWAP1 SWAP4 AND SWAP3 SWAP1 SWAP3 OR SWAP1 SWAP2 SSTORE PUSH1 0x40 DUP4 ADD MLOAD PUSH1 0x2 DUP4 ADD SSTORE PUSH1 0x60 DUP4 ADD MLOAD PUSH1 0x3 DUP4 ADD SSTORE PUSH1 0x80 DUP4 ADD MLOAD PUSH1 0x4 DUP4 ADD SSTORE PUSH1 0xA0 DUP4 ADD MLOAD PUSH1 0x5 DUP4 ADD DUP1 SLOAD SWAP2 SWAP3 SWAP1 SWAP2 PUSH1 0xFF NOT AND SWAP1 DUP4 DUP1 ISZERO PUSH2 0x3954 JUMPI PUSH2 0x3954 PUSH2 0x4854 JUMP JUMPDEST MUL OR SWAP1 SSTORE POP PUSH1 0xC0 DUP3 ADD MLOAD PUSH1 0x5 DUP3 ADD DUP1 SLOAD PUSH2 0xFF00 NOT AND PUSH2 0x100 DUP4 PUSH1 0x2 DUP2 GT ISZERO PUSH2 0x397E JUMPI PUSH2 0x397E PUSH2 0x4854 JUMP JUMPDEST MUL OR SWAP1 SSTORE POP PUSH1 0xE0 SWAP2 SWAP1 SWAP2 ADD MLOAD PUSH1 0x5 SWAP1 SWAP2 ADD DUP1 SLOAD SWAP2 ISZERO ISZERO PUSH3 0x10000 MUL PUSH3 0xFF0000 NOT SWAP1 SWAP3 AND SWAP2 SWAP1 SWAP2 OR SWAP1 SSTORE POP POP POP POP POP JUMP JUMPDEST DUP2 SLOAD PUSH0 JUMPDEST DUP2 DUP2 LT DUP1 ISZERO PUSH2 0x39E6 JUMPI POP DUP3 PUSH1 0x40 ADD MLOAD DUP5 DUP3 DUP2 SLOAD DUP2 LT PUSH2 0x39D3 JUMPI PUSH2 0x39D3 PUSH2 0x4B74 JUMP JUMPDEST SWAP1 PUSH0 MSTORE PUSH1 0x20 PUSH0 KECCAK256 SWAP1 PUSH1 0x6 MUL ADD PUSH1 0x2 ADD SLOAD LT ISZERO JUMPDEST ISZERO PUSH2 0x39FD JUMPI DUP1 PUSH2 0x39F5 DUP2 PUSH2 0x4C9F JUMP JUMPDEST SWAP2 POP POP PUSH2 0x39B2 JUMP JUMPDEST PUSH1 0x14 DUP3 LT PUSH2 0x3B8F JUMPI PUSH0 DUP5 PUSH2 0x3A12 PUSH1 0x1 DUP6 PUSH2 0x4B88 JUMP JUMPDEST DUP2 SLOAD DUP2 LT PUSH2 0x3A22 JUMPI PUSH2 0x3A22 PUSH2 0x4B74 JUMP JUMPDEST PUSH0 SWAP2 DUP3 MSTORE PUSH1 0x20 SWAP2 DUP3 SWAP1 KECCAK256 PUSH1 0x40 DUP1 MLOAD PUSH2 0x100 DUP2 ADD DUP3 MSTORE PUSH1 0x6 SWAP1 SWAP4 MUL SWAP1 SWAP2 ADD DUP1 SLOAD DUP4 MSTORE PUSH1 0x1 DUP2 ADD SLOAD PUSH1 0x1 PUSH1 0x1 PUSH1 0xA0 SHL SUB AND SWAP4 DUP4 ADD SWAP4 SWAP1 SWAP4 MSTORE PUSH1 0x2 DUP4 ADD SLOAD SWAP1 DUP3 ADD MSTORE PUSH1 0x3 DUP3 ADD SLOAD PUSH1 0x60 DUP3 ADD MSTORE PUSH1 0x4 DUP3 ADD SLOAD PUSH1 0x80 DUP3 ADD MSTORE PUSH1 0x5 DUP3 ADD SLOAD SWAP1 SWAP2 SWAP1 PUSH1 0xA0 DUP4 ADD SWAP1 PUSH1 0xFF AND DUP1 ISZERO PUSH2 0x3A93 JUMPI PUSH2 0x3A93 PUSH2 0x4854 JUMP JUMPDEST DUP1 ISZERO PUSH2 0x3AA1 JUMPI PUSH2 0x3AA1 PUSH2 0x4854 JUMP JUMPDEST DUP2 MSTORE PUSH1 0x20 ADD PUSH1 0x5 DUP3 ADD PUSH1 0x1 SWAP1 SLOAD SWAP1 PUSH2 0x100 EXP SWAP1 DIV PUSH1 0xFF AND PUSH1 0x2 DUP2 GT ISZERO PUSH2 0x3AC9 JUMPI PUSH2 0x3AC9 PUSH2 0x4854 JUMP JUMPDEST PUSH1 0x2 DUP2 GT ISZERO PUSH2 0x3ADA JUMPI PUSH2 0x3ADA PUSH2 0x4854 JUMP JUMPDEST DUP2 MSTORE PUSH1 0x5 SWAP2 SWAP1 SWAP2 ADD SLOAD PUSH3 0x10000 SWAP1 DIV PUSH1 0xFF AND ISZERO ISZERO PUSH1 0x20 SWAP1 SWAP2 ADD MSTORE PUSH1 0x40 DUP2 DUP2 ADD MLOAD SWAP1 DUP7 ADD MLOAD SWAP2 SWAP3 POP LT ISZERO PUSH2 0x3B2A JUMPI PUSH2 0x3B15 DUP6 DUP6 PUSH1 0xC0 ADD MLOAD PUSH2 0x4164 JUMP JUMPDEST DUP5 SLOAD SWAP3 POP DUP3 DUP3 GT ISZERO PUSH2 0x3B25 JUMPI DUP3 SWAP2 POP JUMPDEST PUSH2 0x3B8D JUMP JUMPDEST PUSH1 0x40 MLOAD PUSH3 0x461BCD PUSH1 0xE5 SHL DUP2 MSTORE PUSH1 0x20 PUSH1 0x4 DUP3 ADD MSTORE PUSH1 0x32 PUSH1 0x24 DUP3 ADD MSTORE PUSH32 0x4E6577206F72646572207072696365206973206E6F74206869676820656E6F75 PUSH1 0x44 DUP3 ADD MSTORE PUSH18 0x33B4103A379031329034B739B2B93A32B217 PUSH1 0x71 SHL PUSH1 0x64 DUP3 ADD MSTORE PUSH1 0x84 ADD PUSH2 0x6EF JUMP JUMPDEST POP JUMPDEST DUP4 SLOAD PUSH1 0x1 DUP1 DUP3 ADD DUP7 SSTORE PUSH0 DUP7 DUP2 MSTORE PUSH1 0x20 SWAP1 DUP2 SWAP1 KECCAK256 DUP7 MLOAD PUSH1 0x6 SWAP1 SWAP5 MUL ADD SWAP3 DUP4 SSTORE DUP6 ADD MLOAD DUP3 DUP3 ADD DUP1 SLOAD PUSH1 0x1 PUSH1 0x1 PUSH1 0xA0 SHL SUB NOT AND PUSH1 0x1 PUSH1 0x1 PUSH1 0xA0 SHL SUB SWAP1 SWAP3 AND SWAP2 SWAP1 SWAP2 OR SWAP1 SSTORE PUSH1 0x40 DUP6 ADD MLOAD PUSH1 0x2 DUP4 ADD SSTORE PUSH1 0x60 DUP6 ADD MLOAD PUSH1 0x3 DUP4 ADD SSTORE PUSH1 0x80 DUP6 ADD MLOAD PUSH1 0x4 DUP4 ADD SSTORE PUSH1 0xA0 DUP6 ADD MLOAD PUSH1 0x5 DUP4 ADD DUP1 SLOAD DUP8 SWAP5 SWAP4 PUSH1 0xFF NOT SWAP1 SWAP2 AND SWAP1 DUP4 DUP1 ISZERO PUSH2 0x3C12 JUMPI PUSH2 0x3C12 PUSH2 0x4854 JUMP JUMPDEST MUL OR SWAP1 SSTORE POP PUSH1 0xC0 DUP3 ADD MLOAD PUSH1 0x5 DUP3 ADD DUP1 SLOAD PUSH2 0xFF00 NOT AND PUSH2 0x100 DUP4 PUSH1 0x2 DUP2 GT ISZERO PUSH2 0x3C3C JUMPI PUSH2 0x3C3C PUSH2 0x4854 JUMP JUMPDEST MUL OR SWAP1 SSTORE POP PUSH1 0xE0 SWAP2 SWAP1 SWAP2 ADD MLOAD PUSH1 0x5 SWAP1 SWAP2 ADD DUP1 SLOAD SWAP2 ISZERO ISZERO PUSH3 0x10000 MUL PUSH3 0xFF0000 NOT SWAP1 SWAP3 AND SWAP2 SWAP1 SWAP2 OR SWAP1 SSTORE DUP4 SLOAD PUSH0 SWAP1 PUSH2 0x3C75 SWAP1 PUSH1 0x1 SWAP1 PUSH2 0x4B88 JUMP JUMPDEST SWAP1 POP JUMPDEST DUP2 DUP2 GT ISZERO PUSH2 0x2D5B JUMPI DUP5 PUSH2 0x3C8C PUSH1 0x1 DUP4 PUSH2 0x4B88 JUMP JUMPDEST DUP2 SLOAD DUP2 LT PUSH2 0x3C9C JUMPI PUSH2 0x3C9C PUSH2 0x4B74 JUMP JUMPDEST SWAP1 PUSH0 MSTORE PUSH1 0x20 PUSH0 KECCAK256 SWAP1 PUSH1 0x6 MUL ADD DUP6 DUP3 DUP2 SLOAD DUP2 LT PUSH2 0x3CBA JUMPI PUSH2 0x3CBA PUSH2 0x4B74 JUMP JUMPDEST PUSH0 SWAP2 DUP3 MSTORE PUSH1 0x20 SWAP1 SWAP2 KECCAK256 DUP3 SLOAD PUSH1 0x6 SWAP1 SWAP3 MUL ADD SWAP1 DUP2 SSTORE PUSH1 0x1 DUP1 DUP4 ADD SLOAD DUP2 DUP4 ADD DUP1 SLOAD PUSH1 0x1 PUSH1 0x1 PUSH1 0xA0 SHL SUB NOT AND PUSH1 0x1 PUSH1 0x1 PUSH1 0xA0 SHL SUB SWAP1 SWAP3 AND SWAP2 SWAP1 SWAP2 OR SWAP1 SSTORE PUSH1 0x2 DUP1 DUP5 ADD SLOAD SWAP1 DUP4 ADD SSTORE PUSH1 0x3 DUP1 DUP5 ADD SLOAD SWAP1 DUP4 ADD SSTORE PUSH1 0x4 DUP1 DUP5 ADD SLOAD SWAP1 DUP4 ADD SSTORE PUSH1 0x5 DUP1 DUP5 ADD SLOAD SWAP1 DUP4 ADD DUP1 SLOAD PUSH1 0xFF SWAP1 SWAP3 AND SWAP3 SWAP1 SWAP2 PUSH1 0xFF NOT AND SWAP1 DUP4 DUP1 ISZERO PUSH2 0x3D39 JUMPI PUSH2 0x3D39 PUSH2 0x4854 JUMP JUMPDEST MUL OR SWAP1 SSTORE POP PUSH1 0x5 DUP3 DUP2 ADD SLOAD SWAP1 DUP3 ADD DUP1 SLOAD PUSH1 0xFF PUSH2 0x100 SWAP4 DUP5 SWAP1 DIV AND SWAP3 PUSH2 0xFF00 NOT SWAP1 SWAP2 AND SWAP1 DUP4 PUSH1 0x2 DUP2 GT ISZERO PUSH2 0x3D6E JUMPI PUSH2 0x3D6E PUSH2 0x4854 JUMP JUMPDEST MUL OR SWAP1 SSTORE POP PUSH1 0x5 SWAP2 DUP3 ADD SLOAD SWAP2 ADD DUP1 SLOAD PUSH3 0xFF0000 NOT AND PUSH3 0x10000 SWAP3 DUP4 SWAP1 DIV PUSH1 0xFF AND ISZERO ISZERO SWAP1 SWAP3 MUL SWAP2 SWAP1 SWAP2 OR SWAP1 SSTORE DUP1 PUSH2 0x3DA3 DUP2 PUSH2 0x4CB7 JUMP JUMPDEST SWAP2 POP POP PUSH2 0x3C78 JUMP JUMPDEST PUSH0 DUP3 DUP3 XOR DUP3 DUP5 LT MUL DUP3 XOR JUMPDEST SWAP4 SWAP3 POP POP POP JUMP JUMPDEST PUSH0 PUSH0 PUSH0 DUP4 ISZERO PUSH2 0x3DE9 JUMPI POP POP POP PUSH1 0x20 DUP5 ADD MLOAD PUSH1 0x1 DUP5 ADD SLOAD PUSH1 0x40 DUP7 ADD MLOAD PUSH1 0x1 PUSH1 0x1 PUSH1 0xA0 SHL SUB SWAP1 SWAP2 AND SWAP1 PUSH2 0x3E08 JUMP JUMPDEST POP POP POP PUSH1 0x1 DUP4 ADD SLOAD PUSH1 0x20 DUP6 ADD MLOAD PUSH1 0x2 DUP6 ADD SLOAD PUSH1 0x1 PUSH1 0x1 PUSH1 0xA0 SHL SUB SWAP1 SWAP3 AND SWAP2 JUMPDEST PUSH0 PUSH2 0x3E8 PUSH2 0x3E16 DUP4 DUP9 PUSH2 0x4C4E JUMP JUMPDEST PUSH2 0x3E20 SWAP2 SWAP1 PUSH2 0x4C65 JUMP JUMPDEST SWAP1 POP PUSH2 0x3E32 DUP5 DUP10 PUSH1 0xC0 ADD MLOAD DUP4 PUSH0 PUSH2 0x1A42 JUMP JUMPDEST PUSH1 0x1 PUSH1 0x1 PUSH1 0xA0 SHL SUB DUP4 AND PUSH0 SWAP1 DUP2 MSTORE PUSH1 0x2 PUSH1 0x20 SWAP1 DUP2 MSTORE PUSH1 0x40 DUP1 DUP4 KECCAK256 DUP4 DUP1 MSTORE SWAP1 SWAP2 MSTORE SWAP1 KECCAK256 SLOAD DUP7 GT ISZERO PUSH2 0x3EBC JUMPI PUSH1 0x40 MLOAD PUSH3 0x461BCD PUSH1 0xE5 SHL DUP2 MSTORE PUSH1 0x20 PUSH1 0x4 DUP3 ADD MSTORE PUSH1 0x2F PUSH1 0x24 DUP3 ADD MSTORE PUSH32 0x53656C6C657220646F6573206E6F74206861766520656E6F756768204E69636B PUSH1 0x44 DUP3 ADD MSTORE PUSH15 0x656C69756D20696E20657363726F77 PUSH1 0x88 SHL PUSH1 0x64 DUP3 ADD MSTORE PUSH1 0x84 ADD PUSH2 0x6EF JUMP JUMPDEST PUSH1 0x8 SLOAD PUSH1 0x40 MLOAD PUSH4 0xDA3E3397 PUSH1 0xE0 SHL DUP2 MSTORE PUSH1 0x1 PUSH1 0x1 PUSH1 0xA0 SHL SUB SWAP1 SWAP2 AND PUSH1 0x4 DUP3 ADD DUP2 SWAP1 MSTORE ADDRESS PUSH1 0x24 DUP4 ADD MSTORE PUSH1 0x44 DUP3 ADD DUP9 SWAP1 MSTORE SWAP1 PUSH4 0xDA3E3397 SWAP1 PUSH1 0x64 ADD PUSH1 0x20 PUSH1 0x40 MLOAD DUP1 DUP4 SUB DUP2 PUSH0 DUP8 GAS CALL ISZERO DUP1 ISZERO PUSH2 0x3F11 JUMPI RETURNDATASIZE PUSH0 PUSH0 RETURNDATACOPY RETURNDATASIZE PUSH0 REVERT JUMPDEST POP POP POP POP PUSH1 0x40 MLOAD RETURNDATASIZE PUSH1 0x1F NOT PUSH1 0x1F DUP3 ADD AND DUP3 ADD DUP1 PUSH1 0x40 MSTORE POP DUP2 ADD SWAP1 PUSH2 0x3F35 SWAP2 SWAP1 PUSH2 0x4C84 JUMP JUMPDEST POP PUSH2 0x3F41 DUP4 DUP6 DUP9 PUSH2 0x892 JUMP JUMPDEST PUSH1 0xC SLOAD PUSH1 0x40 MLOAD PUSH4 0xBA0BBD95 PUSH1 0xE0 SHL DUP2 MSTORE PUSH1 0x1 PUSH1 0x1 PUSH1 0xA0 SHL SUB SWAP1 SWAP2 AND SWAP1 PUSH4 0xBA0BBD95 SWAP1 PUSH2 0x3F73 SWAP1 DUP7 SWAP1 DUP6 SWAP1 PUSH1 0x4 ADD PUSH2 0x4B9B JUMP JUMPDEST PUSH0 PUSH1 0x40 MLOAD DUP1 DUP4 SUB DUP2 PUSH0 DUP8 DUP1 EXTCODESIZE ISZERO DUP1 ISZERO PUSH2 0x3F8A JUMPI PUSH0 PUSH0 REVERT JUMPDEST POP GAS CALL ISZERO DUP1 ISZERO PUSH2 0x3F9C JUMPI RETURNDATASIZE PUSH0 PUSH0 RETURNDATACOPY RETURNDATASIZE PUSH0 REVERT JUMPDEST POP POP POP POP POP POP POP POP POP POP POP POP JUMP JUMPDEST DUP2 SLOAD DUP2 LT PUSH2 0x3FCA JUMPI PUSH1 0x40 MLOAD PUSH3 0x461BCD PUSH1 0xE5 SHL DUP2 MSTORE PUSH1 0x4 ADD PUSH2 0x6EF SWAP1 PUSH2 0x4BCA JUMP JUMPDEST DUP1 JUMPDEST DUP3 SLOAD PUSH2 0x3FDA SWAP1 PUSH1 0x1 SWAP1 PUSH2 0x4B88 JUMP JUMPDEST DUP2 LT ISZERO PUSH2 0x4102 JUMPI DUP3 PUSH2 0x3FED DUP3 PUSH1 0x1 PUSH2 0x4AF8 JUMP JUMPDEST DUP2 SLOAD DUP2 LT PUSH2 0x3FFD JUMPI PUSH2 0x3FFD PUSH2 0x4B74 JUMP JUMPDEST SWAP1 PUSH0 MSTORE PUSH1 0x20 PUSH0 KECCAK256 SWAP1 PUSH1 0x6 MUL ADD DUP4 DUP3 DUP2 SLOAD DUP2 LT PUSH2 0x401B JUMPI PUSH2 0x401B PUSH2 0x4B74 JUMP JUMPDEST PUSH0 SWAP2 DUP3 MSTORE PUSH1 0x20 SWAP1 SWAP2 KECCAK256 DUP3 SLOAD PUSH1 0x6 SWAP1 SWAP3 MUL ADD SWAP1 DUP2 SSTORE PUSH1 0x1 DUP1 DUP4 ADD SLOAD DUP2 DUP4 ADD DUP1 SLOAD PUSH1 0x1 PUSH1 0x1 PUSH1 0xA0 SHL SUB NOT AND PUSH1 0x1 PUSH1 0x1 PUSH1 0xA0 SHL SUB SWAP1 SWAP3 AND SWAP2 SWAP1 SWAP2 OR SWAP1 SSTORE PUSH1 0x2 DUP1 DUP5 ADD SLOAD SWAP1 DUP4 ADD SSTORE PUSH1 0x3 DUP1 DUP5 ADD SLOAD SWAP1 DUP4 ADD SSTORE PUSH1 0x4 DUP1 DUP5 ADD SLOAD SWAP1 DUP4 ADD SSTORE PUSH1 0x5 DUP1 DUP5 ADD SLOAD SWAP1 DUP4 ADD DUP1 SLOAD PUSH1 0xFF SWAP1 SWAP3 AND SWAP3 SWAP1 SWAP2 PUSH1 0xFF NOT AND SWAP1 DUP4 DUP1 ISZERO PUSH2 0x409A JUMPI PUSH2 0x409A PUSH2 0x4854 JUMP JUMPDEST MUL OR SWAP1 SSTORE POP PUSH1 0x5 DUP3 DUP2 ADD SLOAD SWAP1 DUP3 ADD DUP1 SLOAD PUSH1 0xFF PUSH2 0x100 SWAP4 DUP5 SWAP1 DIV AND SWAP3 PUSH2 0xFF00 NOT SWAP1 SWAP2 AND SWAP1 DUP4 PUSH1 0x2 DUP2 GT ISZERO PUSH2 0x40CF JUMPI PUSH2 0x40CF PUSH2 0x4854 JUMP JUMPDEST MUL OR SWAP1 SSTORE POP PUSH1 0x5 SWAP2 DUP3 ADD SLOAD SWAP2 ADD DUP1 SLOAD PUSH3 0xFF0000 NOT AND PUSH3 0x10000 SWAP3 DUP4 SWAP1 DIV PUSH1 0xFF AND ISZERO ISZERO SWAP1 SWAP3 MUL SWAP2 SWAP1 SWAP2 OR SWAP1 SSTORE PUSH1 0x1 ADD PUSH2 0x3FCC JUMP JUMPDEST POP DUP2 DUP1 SLOAD DUP1 PUSH2 0x4113 JUMPI PUSH2 0x4113 PUSH2 0x4BF7 JUMP JUMPDEST PUSH0 DUP3 DUP2 MSTORE PUSH1 0x20 DUP2 KECCAK256 PUSH1 0x6 PUSH0 NOT SWAP1 SWAP4 ADD SWAP3 DUP4 MUL ADD DUP2 DUP2 SSTORE PUSH1 0x1 DUP2 ADD DUP1 SLOAD PUSH1 0x1 PUSH1 0x1 PUSH1 0xA0 SHL SUB NOT AND SWAP1 SSTORE PUSH1 0x2 DUP2 ADD DUP3 SWAP1 SSTORE PUSH1 0x3 DUP2 ADD DUP3 SWAP1 SSTORE PUSH1 0x4 DUP2 ADD SWAP2 SWAP1 SWAP2 SSTORE PUSH1 0x5 ADD DUP1 SLOAD PUSH3 0xFFFFFF NOT AND SWAP1 SSTORE SWAP1 SSTORE POP POP JUMP JUMPDEST DUP2 SLOAD PUSH0 SWAP1 PUSH2 0x4174 SWAP1 PUSH1 0x1 SWAP1 PUSH2 0x4B88 JUMP JUMPDEST SWAP1 POP PUSH0 DUP4 DUP3 DUP2 SLOAD DUP2 LT PUSH2 0x4189 JUMPI PUSH2 0x4189 PUSH2 0x4B74 JUMP JUMPDEST PUSH0 SWAP2 DUP3 MSTORE PUSH1 0x20 SWAP2 DUP3 SWAP1 KECCAK256 PUSH1 0x40 DUP1 MLOAD PUSH2 0x100 DUP2 ADD DUP3 MSTORE PUSH1 0x6 SWAP1 SWAP4 MUL SWAP1 SWAP2 ADD DUP1 SLOAD DUP4 MSTORE PUSH1 0x1 DUP2 ADD SLOAD PUSH1 0x1 PUSH1 0x1 PUSH1 0xA0 SHL SUB AND SWAP4 DUP4 ADD SWAP4 SWAP1 SWAP4 MSTORE PUSH1 0x2 DUP4 ADD SLOAD SWAP1 DUP3 ADD MSTORE PUSH1 0x3 DUP3 ADD SLOAD PUSH1 0x60 DUP3 ADD MSTORE PUSH1 0x4 DUP3 ADD SLOAD PUSH1 0x80 DUP3 ADD MSTORE PUSH1 0x5 DUP3 ADD SLOAD SWAP1 SWAP2 SWAP1 PUSH1 0xA0 DUP4 ADD SWAP1 PUSH1 0xFF AND DUP1 ISZERO PUSH2 0x41FA JUMPI PUSH2 0x41FA PUSH2 0x4854 JUMP JUMPDEST DUP1 ISZERO PUSH2 0x4208 JUMPI PUSH2 0x4208 PUSH2 0x4854 JUMP JUMPDEST DUP2 MSTORE PUSH1 0x20 ADD PUSH1 0x5 DUP3 ADD PUSH1 0x1 SWAP1 SLOAD SWAP1 PUSH2 0x100 EXP SWAP1 DIV PUSH1 0xFF AND PUSH1 0x2 DUP2 GT ISZERO PUSH2 0x4230 JUMPI PUSH2 0x4230 PUSH2 0x4854 JUMP JUMPDEST PUSH1 0x2 DUP2 GT ISZERO PUSH2 0x4241 JUMPI PUSH2 0x4241 PUSH2 0x4854 JUMP JUMPDEST DUP2 MSTORE PUSH1 0x5 SWAP2 SWAP1 SWAP2 ADD SLOAD PUSH3 0x10000 SWAP1 DIV PUSH1 0xFF AND ISZERO ISZERO PUSH1 0x20 SWAP1 SWAP2 ADD MSTORE DUP5 SLOAD SWAP1 SWAP2 POP DUP5 SWAP1 DUP1 PUSH2 0x426F JUMPI PUSH2 0x426F PUSH2 0x4BF7 JUMP JUMPDEST PUSH0 DUP3 DUP2 MSTORE PUSH1 0x20 DUP2 KECCAK256 PUSH1 0x6 PUSH0 NOT SWAP1 SWAP4 ADD SWAP3 DUP4 MUL ADD DUP2 DUP2 SSTORE PUSH1 0x1 DUP2 ADD DUP1 SLOAD PUSH1 0x1 PUSH1 0x1 PUSH1 0xA0 SHL SUB NOT AND SWAP1 SSTORE PUSH1 0x2 DUP2 ADD DUP3 SWAP1 SSTORE PUSH1 0x3 DUP2 ADD DUP3 SWAP1 SSTORE PUSH1 0x4 DUP2 ADD DUP3 SWAP1 SSTORE PUSH1 0x5 ADD DUP1 SLOAD PUSH3 0xFFFFFF NOT AND SWAP1 SSTORE SWAP2 SSTORE PUSH1 0x60 DUP3 ADD MLOAD PUSH1 0x40 DUP4 ADD MLOAD SWAP1 SWAP2 SWAP1 PUSH2 0x3E8 SWAP1 PUSH2 0x42D7 SWAP1 DUP5 SWAP1 PUSH2 0x4C4E JUMP JUMPDEST PUSH2 0x42E1 SWAP2 SWAP1 PUSH2 0x4C65 JUMP JUMPDEST SWAP1 POP PUSH0 DUP6 PUSH1 0x2 DUP2 GT ISZERO PUSH2 0x42F6 JUMPI PUSH2 0x42F6 PUSH2 0x4854 JUMP JUMPDEST SUB PUSH2 0x436E JUMPI PUSH2 0x430B DUP4 PUSH1 0x20 ADD MLOAD DUP7 DUP4 PUSH0 PUSH2 0x1A42 JUMP JUMPDEST PUSH1 0xC SLOAD PUSH1 0x20 DUP5 ADD MLOAD PUSH1 0x40 MLOAD PUSH4 0x2D6D980F PUSH1 0xE2 SHL DUP2 MSTORE PUSH1 0x1 PUSH1 0x1 PUSH1 0xA0 SHL SUB SWAP1 SWAP3 AND SWAP2 PUSH4 0xB5B6603C SWAP2 PUSH2 0x4340 SWAP2 DUP6 SWAP1 PUSH1 0x4 ADD PUSH2 0x4B9B JUMP JUMPDEST PUSH0 PUSH1 0x40 MLOAD DUP1 DUP4 SUB DUP2 PUSH0 DUP8 DUP1 EXTCODESIZE ISZERO DUP1 ISZERO PUSH2 0x4357 JUMPI PUSH0 PUSH0 REVERT JUMPDEST POP GAS CALL ISZERO DUP1 ISZERO PUSH2 0x4369 JUMPI RETURNDATASIZE PUSH0 PUSH0 RETURNDATACOPY RETURNDATASIZE PUSH0 REVERT JUMPDEST POP POP POP POP JUMPDEST POP POP POP POP POP POP JUMP JUMPDEST DUP2 SLOAD PUSH0 SWAP1 PUSH2 0x4386 SWAP1 PUSH1 0x1 SWAP1 PUSH2 0x4B88 JUMP JUMPDEST SWAP1 POP PUSH0 DUP4 DUP3 DUP2 SLOAD DUP2 LT PUSH2 0x439B JUMPI PUSH2 0x439B PUSH2 0x4B74 JUMP JUMPDEST PUSH0 SWAP2 DUP3 MSTORE PUSH1 0x20 SWAP2 DUP3 SWAP1 KECCAK256 PUSH1 0x40 DUP1 MLOAD PUSH2 0x100 DUP2 ADD DUP3 MSTORE PUSH1 0x6 SWAP1 SWAP4 MUL SWAP1 SWAP2 ADD DUP1 SLOAD DUP4 MSTORE PUSH1 0x1 DUP2 ADD SLOAD PUSH1 0x1 PUSH1 0x1 PUSH1 0xA0 SHL SUB AND SWAP4 DUP4 ADD SWAP4 SWAP1 SWAP4 MSTORE PUSH1 0x2 DUP4 ADD SLOAD SWAP1 DUP3 ADD MSTORE PUSH1 0x3 DUP3 ADD SLOAD PUSH1 0x60 DUP3 ADD MSTORE PUSH1 0x4 DUP3 ADD SLOAD PUSH1 0x80 DUP3 ADD MSTORE PUSH1 0x5 DUP3 ADD SLOAD SWAP1 SWAP2 SWAP1 PUSH1 0xA0 DUP4 ADD SWAP1 PUSH1 0xFF AND DUP1 ISZERO PUSH2 0x440C JUMPI PUSH2 0x440C PUSH2 0x4854 JUMP JUMPDEST DUP1 ISZERO PUSH2 0x441A JUMPI PUSH2 0x441A PUSH2 0x4854 JUMP JUMPDEST DUP2 MSTORE PUSH1 0x20 ADD PUSH1 0x5 DUP3 ADD PUSH1 0x1 SWAP1 SLOAD SWAP1 PUSH2 0x100 EXP SWAP1 DIV PUSH1 0xFF AND PUSH1 0x2 DUP2 GT ISZERO PUSH2 0x4442 JUMPI PUSH2 0x4442 PUSH2 0x4854 JUMP JUMPDEST PUSH1 0x2 DUP2 GT ISZERO PUSH2 0x4453 JUMPI PUSH2 0x4453 PUSH2 0x4854 JUMP JUMPDEST DUP2 MSTORE PUSH1 0x5 SWAP2 SWAP1 SWAP2 ADD SLOAD PUSH3 0x10000 SWAP1 DIV PUSH1 0xFF AND ISZERO ISZERO PUSH1 0x20 SWAP2 DUP3 ADD MSTORE DUP2 ADD MLOAD DUP6 SLOAD SWAP2 SWAP3 POP SWAP1 DUP6 SWAP1 DUP1 PUSH2 0x4485 JUMPI PUSH2 0x4485 PUSH2 0x4BF7 JUMP JUMPDEST PUSH0 DUP3 DUP2 MSTORE PUSH1 0x20 DUP1 DUP3 KECCAK256 PUSH1 0x6 PUSH0 NOT SWAP1 SWAP5 ADD SWAP4 DUP5 MUL ADD DUP3 DUP2 SSTORE PUSH1 0x1 DUP2 ADD DUP1 SLOAD PUSH1 0x1 PUSH1 0x1 PUSH1 0xA0 SHL SUB NOT AND SWAP1 SSTORE PUSH1 0x2 DUP1 DUP3 ADD DUP5 SWAP1 SSTORE PUSH1 0x3 DUP3 ADD DUP5 SWAP1 SSTORE PUSH1 0x4 DUP3 ADD DUP5 SWAP1 SSTORE PUSH1 0x5 SWAP1 SWAP2 ADD DUP1 SLOAD PUSH3 0xFFFFFF NOT AND SWAP1 SSTORE SWAP3 SWAP1 SWAP4 SSTORE PUSH1 0x60 DUP6 ADD MLOAD PUSH1 0x1 PUSH1 0x1 PUSH1 0xA0 SHL SUB DUP6 AND DUP3 MSTORE SWAP2 SWAP1 SWAP3 MSTORE PUSH1 0x40 DUP3 KECCAK256 SWAP1 SWAP2 SWAP1 DUP2 DUP8 DUP1 ISZERO PUSH2 0x4503 JUMPI PUSH2 0x4503 PUSH2 0x4854 JUMP JUMPDEST DUP1 ISZERO PUSH2 0x4511 JUMPI PUSH2 0x4511 PUSH2 0x4854 JUMP JUMPDEST DUP2 MSTORE PUSH1 0x20 ADD SWAP1 DUP2 MSTORE PUSH1 0x20 ADD PUSH0 KECCAK256 SLOAD SWAP1 POP PUSH0 DUP3 DUP3 LT PUSH2 0x452F JUMPI DUP3 PUSH2 0x4531 JUMP JUMPDEST DUP2 JUMPDEST SWAP1 POP DUP1 DUP3 LT ISZERO PUSH2 0x458D JUMPI PUSH1 0x40 MLOAD PUSH3 0x461BCD PUSH1 0xE5 SHL DUP2 MSTORE PUSH1 0x20 PUSH1 0x4 DUP3 ADD MSTORE PUSH1 0x21 PUSH1 0x24 DUP3 ADD MSTORE PUSH32 0x496E73756666696369656E7420746F6B656E20657363726F772062616C616E63 PUSH1 0x44 DUP3 ADD MSTORE PUSH1 0x65 PUSH1 0xF8 SHL PUSH1 0x64 DUP3 ADD MSTORE PUSH1 0x84 ADD PUSH2 0x6EF JUMP JUMPDEST PUSH1 0x8 SLOAD PUSH1 0x40 MLOAD PUSH4 0xD447983 PUSH1 0xE1 SHL DUP2 MSTORE PUSH1 0x1 PUSH1 0x1 PUSH1 0xA0 SHL SUB SWAP1 SWAP2 AND SWAP1 PUSH4 0x1A88F306 SWAP1 PUSH2 0x45BF SWAP1 DUP8 SWAP1 DUP6 SWAP1 PUSH1 0x4 ADD PUSH2 0x4B9B JUMP JUMPDEST PUSH0 PUSH1 0x40 MLOAD DUP1 DUP4 SUB DUP2 PUSH0 DUP8 DUP1 EXTCODESIZE ISZERO DUP1 ISZERO PUSH2 0x45D6 JUMPI PUSH0 PUSH0 REVERT JUMPDEST POP GAS CALL ISZERO DUP1 ISZERO PUSH2 0x45E8 JUMPI RETURNDATASIZE PUSH0 PUSH0 RETURNDATACOPY RETURNDATASIZE PUSH0 REVERT JUMPDEST POP POP POP POP PUSH2 0x888 DUP5 DUP9 DUP4 DUP6 PUSH2 0x612 SWAP2 SWAP1 PUSH2 0x4B88 JUMP JUMPDEST PUSH1 0x40 MLOAD DUP1 PUSH2 0x100 ADD PUSH1 0x40 MSTORE DUP1 PUSH0 DUP2 MSTORE PUSH1 0x20 ADD PUSH0 PUSH1 0x1 PUSH1 0x1 PUSH1 0xA0 SHL SUB AND DUP2 MSTORE PUSH1 0x20 ADD PUSH0 DUP2 MSTORE PUSH1 0x20 ADD PUSH0 DUP2 MSTORE PUSH1 0x20 ADD PUSH0 DUP2 MSTORE PUSH1 0x20 ADD PUSH0 PUSH0 DUP2 GT ISZERO PUSH2 0x4641 JUMPI PUSH2 0x4641 PUSH2 0x4854 JUMP JUMPDEST DUP2 MSTORE PUSH1 0x20 ADD PUSH0 DUP2 MSTORE PUSH0 PUSH1 0x20 SWAP1 SWAP2 ADD MSTORE SWAP1 JUMP JUMPDEST PUSH1 0x1 PUSH1 0x1 PUSH1 0xA0 SHL SUB DUP2 AND DUP2 EQ PUSH2 0x4667 JUMPI PUSH0 PUSH0 REVERT JUMPDEST POP JUMP JUMPDEST DUP1 CALLDATALOAD PUSH1 0x3 DUP2 LT PUSH2 0x4678 JUMPI PUSH0 PUSH0 REVERT JUMPDEST SWAP2 SWAP1 POP JUMP JUMPDEST PUSH0 PUSH0 PUSH1 0x40 DUP4 DUP6 SUB SLT ISZERO PUSH2 0x468E JUMPI PUSH0 PUSH0 REVERT JUMPDEST DUP3 CALLDATALOAD PUSH2 0x4699 DUP2 PUSH2 0x4653 JUMP JUMPDEST SWAP2 POP PUSH2 0x46A7 PUSH1 0x20 DUP5 ADD PUSH2 0x466A JUMP JUMPDEST SWAP1 POP SWAP3 POP SWAP3 SWAP1 POP JUMP JUMPDEST DUP1 CALLDATALOAD PUSH1 0x1 DUP2 LT PUSH2 0x4678 JUMPI PUSH0 PUSH0 REVERT JUMPDEST DUP1 ISZERO ISZERO DUP2 EQ PUSH2 0x4667 JUMPI PUSH0 PUSH0 REVERT JUMPDEST PUSH0 PUSH0 PUSH0 PUSH0 PUSH0 PUSH0 PUSH0 PUSH1 0xE0 DUP9 DUP11 SUB SLT ISZERO PUSH2 0x46E1 JUMPI PUSH0 PUSH0 REVERT JUMPDEST DUP8 CALLDATALOAD SWAP7 POP PUSH1 0x20 DUP9 ADD CALLDATALOAD PUSH2 0x46F3 DUP2 PUSH2 0x4653 JUMP JUMPDEST SWAP6 POP PUSH1 0x40 DUP9 ADD CALLDATALOAD SWAP5 POP PUSH1 0x60 DUP9 ADD CALLDATALOAD SWAP4 POP PUSH2 0x470F PUSH1 0x80 DUP10 ADD PUSH2 0x46B0 JUMP JUMPDEST SWAP3 POP PUSH2 0x471D PUSH1 0xA0 DUP10 ADD PUSH2 0x466A JUMP JUMPDEST SWAP2 POP PUSH1 0xC0 DUP9 ADD CALLDATALOAD PUSH2 0x472D DUP2 PUSH2 0x46BE JUMP JUMPDEST DUP1 SWAP2 POP POP SWAP3 SWAP6 SWAP9 SWAP2 SWAP5 SWAP8 POP SWAP3 SWAP6 POP JUMP JUMPDEST PUSH0 PUSH0 PUSH0 PUSH1 0x60 DUP5 DUP7 SUB SLT ISZERO PUSH2 0x474F JUMPI PUSH0 PUSH0 REVERT JUMPDEST DUP4 CALLDATALOAD PUSH2 0x475A DUP2 PUSH2 0x4653 JUMP JUMPDEST SWAP3 POP PUSH1 0x20 DUP5 ADD CALLDATALOAD PUSH2 0x476A DUP2 PUSH2 0x4653 JUMP JUMPDEST SWAP3 SWAP6 SWAP3 SWAP5 POP POP POP PUSH1 0x40 SWAP2 SWAP1 SWAP2 ADD CALLDATALOAD SWAP1 JUMP JUMPDEST PUSH0 PUSH0 PUSH1 0x40 DUP4 DUP6 SUB SLT ISZERO PUSH2 0x478C JUMPI PUSH0 PUSH0 REVERT JUMPDEST DUP3 CALLDATALOAD PUSH2 0x4797 DUP2 PUSH2 0x4653 JUMP JUMPDEST SWAP2 POP PUSH2 0x46A7 PUSH1 0x20 DUP5 ADD PUSH2 0x46B0 JUMP JUMPDEST PUSH0 PUSH0 PUSH1 0x40 DUP4 DUP6 SUB SLT ISZERO PUSH2 0x47B6 JUMPI PUSH0 PUSH0 REVERT JUMPDEST DUP3 CALLDATALOAD PUSH2 0x47C1 DUP2 PUSH2 0x4653 JUMP JUMPDEST SWAP2 POP PUSH1 0x20 DUP4 ADD CALLDATALOAD PUSH2 0x47D1 DUP2 PUSH2 0x46BE JUMP JUMPDEST DUP1 SWAP2 POP POP SWAP3 POP SWAP3 SWAP1 POP JUMP JUMPDEST PUSH0 PUSH1 0x20 DUP3 DUP5 SUB SLT ISZERO PUSH2 0x47EC JUMPI PUSH0 PUSH0 REVERT JUMPDEST DUP2 CALLDATALOAD PUSH2 0x3DB6 DUP2 PUSH2 0x4653 JUMP JUMPDEST PUSH1 0x1 PUSH1 0x1 PUSH1 0xA0 SHL SUB SWAP2 SWAP1 SWAP2 AND DUP2 MSTORE PUSH1 0x20 ADD SWAP1 JUMP JUMPDEST PUSH0 PUSH1 0x20 DUP3 DUP5 SUB SLT ISZERO PUSH2 0x481B JUMPI PUSH0 PUSH0 REVERT JUMPDEST POP CALLDATALOAD SWAP2 SWAP1 POP JUMP JUMPDEST PUSH0 PUSH0 PUSH0 PUSH1 0x60 DUP5 DUP7 SUB SLT ISZERO PUSH2 0x4834 JUMPI PUSH0 PUSH0 REVERT JUMPDEST DUP4 CALLDATALOAD PUSH2 0x483F DUP2 PUSH2 0x4653 JUMP JUMPDEST SWAP6 PUSH1 0x20 DUP6 ADD CALLDATALOAD SWAP6 POP PUSH1 0x40 SWAP1 SWAP5 ADD CALLDATALOAD SWAP4 SWAP3 POP POP POP JUMP JUMPDEST PUSH4 0x4E487B71 PUSH1 0xE0 SHL PUSH0 MSTORE PUSH1 0x21 PUSH1 0x4 MSTORE PUSH1 0x24 PUSH0 REVERT JUMPDEST PUSH1 0x1 DUP2 LT PUSH2 0x4878 JUMPI PUSH2 0x4878 PUSH2 0x4854 JUMP JUMPDEST SWAP1 MSTORE JUMP JUMPDEST PUSH1 0x3 DUP2 LT PUSH2 0x4878 JUMPI PUSH2 0x4878 PUSH2 0x4854 JUMP JUMPDEST DUP1 MLOAD DUP3 MSTORE PUSH1 0x1 DUP1 PUSH1 0xA0 SHL SUB PUSH1 0x20 DUP3 ADD MLOAD AND PUSH1 0x20 DUP4 ADD MSTORE PUSH1 0x40 DUP2 ADD MLOAD PUSH1 0x40 DUP4 ADD MSTORE PUSH1 0x60 DUP2 ADD MLOAD PUSH1 0x60 DUP4 ADD MSTORE PUSH1 0x80 DUP2 ADD MLOAD PUSH1 0x80 DUP4 ADD MSTORE PUSH1 0xA0 DUP2 ADD MLOAD PUSH2 0x48D2 PUSH1 0xA0 DUP5 ADD DUP3 PUSH2 0x4868 JUMP JUMPDEST POP PUSH1 0xC0 DUP2 ADD MLOAD PUSH2 0x48E5 PUSH1 0xC0 DUP5 ADD DUP3 PUSH2 0x487C JUMP JUMPDEST POP PUSH1 0xE0 SWAP1 DUP2 ADD MLOAD ISZERO ISZERO SWAP2 ADD MSTORE JUMP JUMPDEST PUSH1 0x20 DUP1 DUP3 MSTORE DUP3 MLOAD DUP3 DUP3 ADD DUP2 SWAP1 MSTORE PUSH0 SWAP2 DUP5 ADD SWAP1 PUSH1 0x40 DUP5 ADD SWAP1 DUP4 JUMPDEST DUP2 DUP2 LT ISZERO PUSH2 0x4936 JUMPI PUSH2 0x491F DUP4 DUP6 MLOAD PUSH2 0x488C JUMP JUMPDEST PUSH1 0x20 SWAP4 SWAP1 SWAP4 ADD SWAP3 PUSH2 0x100 SWAP3 SWAP1 SWAP3 ADD SWAP2 PUSH1 0x1 ADD PUSH2 0x490C JUMP JUMPDEST POP SWAP1 SWAP6 SWAP5 POP POP POP POP POP JUMP JUMPDEST PUSH2 0x100 DUP2 ADD PUSH2 0x9A9 DUP3 DUP5 PUSH2 0x488C JUMP JUMPDEST DUP9 DUP2 MSTORE PUSH1 0x1 PUSH1 0x1 PUSH1 0xA0 SHL SUB DUP9 AND PUSH1 0x20 DUP3 ADD MSTORE PUSH1 0x40 DUP2 ADD DUP8 SWAP1 MSTORE PUSH1 0x60 DUP2 ADD DUP7 SWAP1 MSTORE PUSH1 0x80 DUP2 ADD DUP6 SWAP1 MSTORE PUSH2 0x100 DUP2 ADD PUSH2 0x4989 PUSH1 0xA0 DUP4 ADD DUP7 PUSH2 0x4868 JUMP JUMPDEST PUSH2 0x4996 PUSH1 0xC0 DUP4 ADD DUP6 PUSH2 0x487C JUMP JUMPDEST DUP3 ISZERO ISZERO PUSH1 0xE0 DUP4 ADD MSTORE SWAP10 SWAP9 POP POP POP POP POP POP POP POP POP JUMP JUMPDEST PUSH0 PUSH0 PUSH0 PUSH0 PUSH1 0x80 DUP6 DUP8 SUB SLT ISZERO PUSH2 0x49BE JUMPI PUSH0 PUSH0 REVERT JUMPDEST DUP5 CALLDATALOAD PUSH2 0x49C9 DUP2 PUSH2 0x4653 JUMP JUMPDEST SWAP4 POP PUSH2 0x49D7 PUSH1 0x20 DUP7 ADD PUSH2 0x466A JUMP JUMPDEST SWAP3 POP PUSH1 0x40 DUP6 ADD CALLDATALOAD SWAP2 POP PUSH1 0x60 DUP6 ADD CALLDATALOAD PUSH2 0x49EE DUP2 PUSH2 0x46BE JUMP JUMPDEST SWAP4 SWAP7 SWAP3 SWAP6 POP SWAP1 SWAP4 POP POP JUMP JUMPDEST PUSH0 PUSH0 PUSH0 PUSH1 0x60 DUP5 DUP7 SUB SLT ISZERO PUSH2 0x4A0B JUMPI PUSH0 PUSH0 REVERT JUMPDEST DUP4 CALLDATALOAD PUSH2 0x4A16 DUP2 PUSH2 0x4653 JUMP JUMPDEST SWAP3 POP PUSH2 0x476A PUSH1 0x20 DUP6 ADD PUSH2 0x466A JUMP JUMPDEST PUSH0 PUSH0 PUSH0 PUSH1 0x60 DUP5 DUP7 SUB SLT ISZERO PUSH2 0x4A36 JUMPI PUSH0 PUSH0 REVERT JUMPDEST DUP4 CALLDATALOAD PUSH2 0x4A41 DUP2 PUSH2 0x4653 JUMP JUMPDEST SWAP3 POP PUSH2 0x476A PUSH1 0x20 DUP6 ADD PUSH2 0x46B0 JUMP JUMPDEST PUSH0 PUSH0 PUSH0 PUSH0 PUSH0 PUSH1 0xA0 DUP7 DUP9 SUB SLT ISZERO PUSH2 0x4A63 JUMPI PUSH0 PUSH0 REVERT JUMPDEST DUP6 CALLDATALOAD PUSH2 0x4A6E DUP2 PUSH2 0x4653 JUMP JUMPDEST SWAP5 POP PUSH1 0x20 DUP7 ADD CALLDATALOAD PUSH2 0x4A7E DUP2 PUSH2 0x4653 JUMP JUMPDEST SWAP4 POP PUSH1 0x40 DUP7 ADD CALLDATALOAD PUSH2 0x4A8E DUP2 PUSH2 0x4653 JUMP JUMPDEST SWAP3 POP PUSH1 0x60 DUP7 ADD CALLDATALOAD PUSH2 0x4A9E DUP2 PUSH2 0x4653 JUMP JUMPDEST SWAP2 POP PUSH1 0x80 DUP7 ADD CALLDATALOAD PUSH2 0x4AAE DUP2 PUSH2 0x4653 JUMP JUMPDEST DUP1 SWAP2 POP POP SWAP3 SWAP6 POP SWAP3 SWAP6 SWAP1 SWAP4 POP JUMP JUMPDEST PUSH1 0x20 DUP1 DUP3 MSTORE PUSH1 0xE SWAP1 DUP3 ADD MSTORE PUSH14 0x139BDD08185D5D1A1BDC9A5E9959 PUSH1 0x92 SHL PUSH1 0x40 DUP3 ADD MSTORE PUSH1 0x60 ADD SWAP1 JUMP JUMPDEST PUSH4 0x4E487B71 PUSH1 0xE0 SHL PUSH0 MSTORE PUSH1 0x11 PUSH1 0x4 MSTORE PUSH1 0x24 PUSH0 REVERT JUMPDEST DUP1 DUP3 ADD DUP1 DUP3 GT ISZERO PUSH2 0x9A9 JUMPI PUSH2 0x9A9 PUSH2 0x4AE4 JUMP JUMPDEST PUSH0 PUSH1 0x20 DUP3 DUP5 SUB SLT ISZERO PUSH2 0x4B1B JUMPI PUSH0 PUSH0 REVERT JUMPDEST POP MLOAD SWAP2 SWAP1 POP JUMP JUMPDEST PUSH1 0x20 DUP1 DUP3 MSTORE PUSH1 0x32 SWAP1 DUP3 ADD MSTORE PUSH32 0x4F72646572207072696365206D757374206265206174206C6561737420746865 PUSH1 0x40 DUP3 ADD MSTORE PUSH18 0x2063757272656E74204C4D45207072696365 PUSH1 0x70 SHL PUSH1 0x60 DUP3 ADD MSTORE PUSH1 0x80 ADD SWAP1 JUMP JUMPDEST PUSH4 0x4E487B71 PUSH1 0xE0 SHL PUSH0 MSTORE PUSH1 0x32 PUSH1 0x4 MSTORE PUSH1 0x24 PUSH0 REVERT JUMPDEST DUP2 DUP2 SUB DUP2 DUP2 GT ISZERO PUSH2 0x9A9 JUMPI PUSH2 0x9A9 PUSH2 0x4AE4 JUMP JUMPDEST PUSH1 0x1 PUSH1 0x1 PUSH1 0xA0 SHL SUB SWAP3 SWAP1 SWAP3 AND DUP3 MSTORE PUSH1 0x20 DUP3 ADD MSTORE PUSH1 0x40 ADD SWAP1 JUMP JUMPDEST PUSH0 DUP3 MLOAD DUP1 PUSH1 0x20 DUP6 ADD DUP5 MCOPY PUSH0 SWAP3 ADD SWAP2 DUP3 MSTORE POP SWAP2 SWAP1 POP JUMP JUMPDEST PUSH1 0x20 DUP1 DUP3 MSTORE PUSH1 0x13 SWAP1 DUP3 ADD MSTORE PUSH19 0x496E646578206F7574206F6620626F756E6473 PUSH1 0x68 SHL PUSH1 0x40 DUP3 ADD MSTORE PUSH1 0x60 ADD SWAP1 JUMP JUMPDEST PUSH4 0x4E487B71 PUSH1 0xE0 SHL PUSH0 MSTORE PUSH1 0x31 PUSH1 0x4 MSTORE PUSH1 0x24 PUSH0 REVERT JUMPDEST PUSH1 0x20 DUP1 DUP3 MSTORE PUSH1 0x23 SWAP1 DUP3 ADD MSTORE PUSH32 0x4F6E6C7920746865206F776E65722063616E206368616E676520746865207072 PUSH1 0x40 DUP3 ADD MSTORE PUSH3 0x696365 PUSH1 0xE8 SHL PUSH1 0x60 DUP3 ADD MSTORE PUSH1 0x80 ADD SWAP1 JUMP JUMPDEST DUP1 DUP3 MUL DUP2 ISZERO DUP3 DUP3 DIV DUP5 EQ OR PUSH2 0x9A9 JUMPI PUSH2 0x9A9 PUSH2 0x4AE4 JUMP JUMPDEST PUSH0 DUP3 PUSH2 0x4C7F JUMPI PUSH4 0x4E487B71 PUSH1 0xE0 SHL PUSH0 MSTORE PUSH1 0x12 PUSH1 0x4 MSTORE PUSH1 0x24 PUSH0 REVERT JUMPDEST POP DIV SWAP1 JUMP JUMPDEST PUSH0 PUSH1 0x20 DUP3 DUP5 SUB SLT ISZERO PUSH2 0x4C94 JUMPI PUSH0 PUSH0 REVERT JUMPDEST DUP2 MLOAD PUSH2 0x3DB6 DUP2 PUSH2 0x46BE JUMP JUMPDEST PUSH0 PUSH1 0x1 DUP3 ADD PUSH2 0x4CB0 JUMPI PUSH2 0x4CB0 PUSH2 0x4AE4 JUMP JUMPDEST POP PUSH1 0x1 ADD SWAP1 JUMP JUMPDEST PUSH0 DUP2 PUSH2 0x4CC5 JUMPI PUSH2 0x4CC5 PUSH2 0x4AE4 JUMP JUMPDEST POP PUSH0 NOT ADD SWAP1 JUMP INVALID LOG2 PUSH5 0x6970667358 0x22 SLT KECCAK256 0xEF MOD 0xE MOD 0xB0 EXTSTATICCALL JUMPDEST 0xAA PUSH2 0x8C1E PUSH2 0xAADC 0xC6 PUSH10 0x54F875FFA6048CC767E2 SDIV PUSH29 0x5936606964736F6C634300081E00330000000000000000000000000000 "
		},
		"gasEstimates": {
			"creation": {
				"codeDepositCost": "3942800",
				"executionCost": "99342",
				"totalCost": "4042142"
			},
			"external": {
				"USDCContract()": "2426",
				"USDTContract()": "2559",
				"addBuyOrder(uint256,address,uint256,uint256,uint8,uint8,bool)": "infinite",
				"addSellOrder(uint256,address,uint256,uint256,uint8,uint8,bool)": "infinite",
				"adminControl()": "2537",
				"approveUSDC(uint256)": "infinite",
				"approveUSDT(uint256)": "infinite",
				"assetBalances(address,uint8)": "2742",
				"authorizedAddresses(address)": "2676",
				"buyOrdersEther(uint256)": "infinite",
				"buyOrdersEtherLength()": "2325",
				"centralContract()": "2560",
				"changeBuyOrderPriceEther(address,uint256,uint256)": "infinite",
				"changeSellOrderPriceEther(address,uint256,uint256)": "infinite",
				"escrowBalances(address,uint8)": "2678",
				"getAssetBalance(address,uint8)": "2835",
				"getBuyOrdersEther()": "infinite",
				"getBuyOrdersEther(uint256)": "infinite",
				"getEscrowBalance(address,uint8)": "2846",
				"getHighestBuyOrderEther()": "infinite",
				"getLowestSellOrderEther()": "infinite",
				"getSellOrdersEther()": "infinite",
				"getSellOrdersEther(uint256)": "infinite",
				"nickeliumContract()": "2516",
				"owner()": "2515",
				"paused()": "2490",
				"removeBuyOrderEther(uint256)": "infinite",
				"removeSellOrderEther(uint256)": "infinite",
				"sellOrdersEther(uint256)": "infinite",
				"sellOrdersEtherLength()": "2347",
				"setAssetBalance(address,uint8,uint256)": "73541",
				"setAuthorizedAddress(address,bool)": "infinite",
				"setContracts(address,address,address,address,address)": "infinite",
				"setEscrowBalance(address,uint8,uint256)": "73465",
				"setOwner(address)": "26887",
				"transferFromAsset(address,address,uint256)": "infinite",
				"updateEscrowBalance(address,uint8,uint256,bool)": "infinite",
				"usdcContractAddress()": "2405"
			},
			"internal": {
				"executeTradeEther(struct SharedStructs.Order memory,struct SharedStructs.Order storage pointer,uint256,bool)": "infinite",
				"insertOrderInSortedPosition(struct SharedStructs.Order storage ref[] storage pointer,struct SharedStructs.Order memory)": "infinite",
				"insertSellOrderInSortedPosition(struct SharedStructs.Order storage ref[] storage pointer,struct SharedStructs.Order memory)": "infinite",
				"matchNewOrderEther(struct SharedStructs.Order memory,bool,bool)": "infinite",
				"removeOrderFromList(struct SharedStructs.Order storage ref[] storage pointer,uint256)": "infinite",
				"removeWorstPricedOrder(struct SharedStructs.Order storage ref[] storage pointer,enum SharedStructs.PaymentMethod)": "infinite",
				"removeWorstPricedSellOrder(struct SharedStructs.Order storage ref[] storage pointer,enum SharedStructs.AssetType)": "infinite",
				"repositionOrder(struct SharedStructs.Order storage ref[] storage pointer,uint256,bool)": "infinite"
			}
		},
		"methodIdentifiers": {
			"USDCContract()": "d2873510",
			"USDTContract()": "99762734",
			"addBuyOrder(uint256,address,uint256,uint256,uint8,uint8,bool)": "7e8843d0",
			"addSellOrder(uint256,address,uint256,uint256,uint8,uint8,bool)": "07545726",
			"adminControl()": "555d3e63",
			"approveUSDC(uint256)": "5f80a9cf",
			"approveUSDT(uint256)": "20cdb427",
			"assetBalances(address,uint8)": "e30cc987",
			"authorizedAddresses(address)": "f19e207e",
			"buyOrdersEther(uint256)": "66b8ca52",
			"buyOrdersEtherLength()": "6e6d19ff",
			"centralContract()": "29878bc4",
			"changeBuyOrderPriceEther(address,uint256,uint256)": "4ba7c2f4",
			"changeSellOrderPriceEther(address,uint256,uint256)": "f87825ef",
			"escrowBalances(address,uint8)": "065c9be0",
			"getAssetBalance(address,uint8)": "10df52b9",
			"getBuyOrdersEther()": "4c3095a9",
			"getBuyOrdersEther(uint256)": "e8107c1d",
			"getEscrowBalance(address,uint8)": "47db8591",
			"getHighestBuyOrderEther()": "51479e01",
			"getLowestSellOrderEther()": "97318f98",
			"getSellOrdersEther()": "8c65a498",
			"getSellOrdersEther(uint256)": "ca333372",
			"nickeliumContract()": "1b8e2ed9",
			"owner()": "8da5cb5b",
			"paused()": "5c975abb",
			"removeBuyOrderEther(uint256)": "75d924a9",
			"removeSellOrderEther(uint256)": "2b20dac4",
			"sellOrdersEther(uint256)": "f5cba185",
			"sellOrdersEtherLength()": "39d730f6",
			"setAssetBalance(address,uint8,uint256)": "e80b146d",
			"setAuthorizedAddress(address,bool)": "1351cf51",
			"setContracts(address,address,address,address,address)": "f63bf8bd",
			"setEscrowBalance(address,uint8,uint256)": "a3a84f01",
			"setOwner(address)": "13af4035",
			"transferFromAsset(address,address,uint256)": "109573a8",
			"updateEscrowBalance(address,uint8,uint256,bool)": "855ef41a",
			"usdcContractAddress()": "2e015584"
		}
	},
	"abi": [
		{
			"inputs": [],
			"stateMutability": "payable",
			"type": "constructor"
		},
		{
			"inputs": [],
			"name": "ReentrancyGuardReentrantCall",
			"type": "error"
		},
		{
			"anonymous": false,
			"inputs": [
				{
					"indexed": false,
					"internalType": "address",
					"name": "account",
					"type": "address"
				}
			],
			"name": "Paused",
			"type": "event"
		},
		{
			"anonymous": false,
			"inputs": [
				{
					"indexed": false,
					"internalType": "address",
					"name": "account",
					"type": "address"
				}
			],
			"name": "Unpaused",
			"type": "event"
		},
		{
			"inputs": [],
			"name": "USDCContract",
			"outputs": [
				{
					"internalType": "contract IERC20",
					"name": "",
					"type": "address"
				}
			],
			"stateMutability": "view",
			"type": "function"
		},
		{
			"inputs": [],
			"name": "USDTContract",
			"outputs": [
				{
					"internalType": "contract ITether",
					"name": "",
					"type": "address"
				}
			],
			"stateMutability": "view",
			"type": "function"
		},
		{
			"inputs": [
				{
					"internalType": "uint256",
					"name": "_orderID",
					"type": "uint256"
				},
				{
					"internalType": "address",
					"name": "buyer",
					"type": "address"
				},
				{
					"internalType": "uint256",
					"name": "_price",
					"type": "uint256"
				},
				{
					"internalType": "uint256",
					"name": "_amount",
					"type": "uint256"
				},
				{
					"internalType": "enum SharedStructs.AssetType",
					"name": "_assetType",
					"type": "uint8"
				},
				{
					"internalType": "enum SharedStructs.PaymentMethod",
					"name": "_priceCurrency",
					"type": "uint8"
				},
				{
					"internalType": "bool",
					"name": "authorizedBuyersOnly",
					"type": "bool"
				}
			],
			"name": "addBuyOrder",
			"outputs": [],
			"stateMutability": "nonpayable",
			"type": "function"
		},
		{
			"inputs": [
				{
					"internalType": "uint256",
					"name": "_orderID",
					"type": "uint256"
				},
				{
					"internalType": "address",
					"name": "seller",
					"type": "address"
				},
				{
					"internalType": "uint256",
					"name": "_price",
					"type": "uint256"
				},
				{
					"internalType": "uint256",
					"name": "_amount",
					"type": "uint256"
				},
				{
					"internalType": "enum SharedStructs.AssetType",
					"name": "_assetType",
					"type": "uint8"
				},
				{
					"internalType": "enum SharedStructs.PaymentMethod",
					"name": "_priceCurrency",
					"type": "uint8"
				},
				{
					"internalType": "bool",
					"name": "authorizedBuyersOnly",
					"type": "bool"
				}
			],
			"name": "addSellOrder",
			"outputs": [],
			"stateMutability": "nonpayable",
			"type": "function"
		},
		{
			"inputs": [],
			"name": "adminControl",
			"outputs": [
				{
					"internalType": "contract IAdminControl",
					"name": "",
					"type": "address"
				}
			],
			"stateMutability": "view",
			"type": "function"
		},
		{
			"inputs": [
				{
					"internalType": "uint256",
					"name": "transferAmount",
					"type": "uint256"
				}
			],
			"name": "approveUSDC",
			"outputs": [],
			"stateMutability": "nonpayable",
			"type": "function"
		},
		{
			"inputs": [
				{
					"internalType": "uint256",
					"name": "transferAmount",
					"type": "uint256"
				}
			],
			"name": "approveUSDT",
			"outputs": [],
			"stateMutability": "nonpayable",
			"type": "function"
		},
		{
			"inputs": [
				{
					"internalType": "address",
					"name": "",
					"type": "address"
				},
				{
					"internalType": "enum SharedStructs.AssetType",
					"name": "",
					"type": "uint8"
				}
			],
			"name": "assetBalances",
			"outputs": [
				{
					"internalType": "uint256",
					"name": "",
					"type": "uint256"
				}
			],
			"stateMutability": "view",
			"type": "function"
		},
		{
			"inputs": [
				{
					"internalType": "address",
					"name": "",
					"type": "address"
				}
			],
			"name": "authorizedAddresses",
			"outputs": [
				{
					"internalType": "bool",
					"name": "",
					"type": "bool"
				}
			],
			"stateMutability": "view",
			"type": "function"
		},
		{
			"inputs": [
				{
					"internalType": "uint256",
					"name": "",
					"type": "uint256"
				}
			],
			"name": "buyOrdersEther",
			"outputs": [
				{
					"internalType": "uint256",
					"name": "orderID",
					"type": "uint256"
				},
				{
					"internalType": "address payable",
					"name": "user",
					"type": "address"
				},
				{
					"internalType": "uint256",
					"name": "price",
					"type": "uint256"
				},
				{
					"internalType": "uint256",
					"name": "amount",
					"type": "uint256"
				},
				{
					"internalType": "uint256",
					"name": "fulfilledAmount",
					"type": "uint256"
				},
				{
					"internalType": "enum SharedStructs.AssetType",
					"name": "assetType",
					"type": "uint8"
				},
				{
					"internalType": "enum SharedStructs.PaymentMethod",
					"name": "priceCurrency",
					"type": "uint8"
				},
				{
					"internalType": "bool",
					"name": "authorizedBuyersOnly",
					"type": "bool"
				}
			],
			"stateMutability": "view",
			"type": "function"
		},
		{
			"inputs": [],
			"name": "buyOrdersEtherLength",
			"outputs": [
				{
					"internalType": "uint256",
					"name": "",
					"type": "uint256"
				}
			],
			"stateMutability": "view",
			"type": "function"
		},
		{
			"inputs": [],
			"name": "centralContract",
			"outputs": [
				{
					"internalType": "contract ICentral",
					"name": "",
					"type": "address"
				}
			],
			"stateMutability": "view",
			"type": "function"
		},
		{
			"inputs": [
				{
					"internalType": "address",
					"name": "buyer",
					"type": "address"
				},
				{
					"internalType": "uint256",
					"name": "orderID",
					"type": "uint256"
				},
				{
					"internalType": "uint256",
					"name": "newPrice",
					"type": "uint256"
				}
			],
			"name": "changeBuyOrderPriceEther",
			"outputs": [],
			"stateMutability": "payable",
			"type": "function"
		},
		{
			"inputs": [
				{
					"internalType": "address",
					"name": "seller",
					"type": "address"
				},
				{
					"internalType": "uint256",
					"name": "orderID",
					"type": "uint256"
				},
				{
					"internalType": "uint256",
					"name": "newPrice",
					"type": "uint256"
				}
			],
			"name": "changeSellOrderPriceEther",
			"outputs": [],
			"stateMutability": "nonpayable",
			"type": "function"
		},
		{
			"inputs": [
				{
					"internalType": "address",
					"name": "",
					"type": "address"
				},
				{
					"internalType": "enum SharedStructs.PaymentMethod",
					"name": "",
					"type": "uint8"
				}
			],
			"name": "escrowBalances",
			"outputs": [
				{
					"internalType": "uint256",
					"name": "",
					"type": "uint256"
				}
			],
			"stateMutability": "view",
			"type": "function"
		},
		{
			"inputs": [
				{
					"internalType": "address",
					"name": "user",
					"type": "address"
				},
				{
					"internalType": "enum SharedStructs.AssetType",
					"name": "assetType",
					"type": "uint8"
				}
			],
			"name": "getAssetBalance",
			"outputs": [
				{
					"internalType": "uint256",
					"name": "",
					"type": "uint256"
				}
			],
			"stateMutability": "view",
			"type": "function"
		},
		{
			"inputs": [],
			"name": "getBuyOrdersEther",
			"outputs": [
				{
					"components": [
						{
							"internalType": "uint256",
							"name": "orderID",
							"type": "uint256"
						},
						{
							"internalType": "address payable",
							"name": "user",
							"type": "address"
						},
						{
							"internalType": "uint256",
							"name": "price",
							"type": "uint256"
						},
						{
							"internalType": "uint256",
							"name": "amount",
							"type": "uint256"
						},
						{
							"internalType": "uint256",
							"name": "fulfilledAmount",
							"type": "uint256"
						},
						{
							"internalType": "enum SharedStructs.AssetType",
							"name": "assetType",
							"type": "uint8"
						},
						{
							"internalType": "enum SharedStructs.PaymentMethod",
							"name": "priceCurrency",
							"type": "uint8"
						},
						{
							"internalType": "bool",
							"name": "authorizedBuyersOnly",
							"type": "bool"
						}
					],
					"internalType": "struct SharedStructs.Order[]",
					"name": "",
					"type": "tuple[]"
				}
			],
			"stateMutability": "view",
			"type": "function"
		},
		{
			"inputs": [
				{
					"internalType": "uint256",
					"name": "index",
					"type": "uint256"
				}
			],
			"name": "getBuyOrdersEther",
			"outputs": [
				{
					"components": [
						{
							"internalType": "uint256",
							"name": "orderID",
							"type": "uint256"
						},
						{
							"internalType": "address payable",
							"name": "user",
							"type": "address"
						},
						{
							"internalType": "uint256",
							"name": "price",
							"type": "uint256"
						},
						{
							"internalType": "uint256",
							"name": "amount",
							"type": "uint256"
						},
						{
							"internalType": "uint256",
							"name": "fulfilledAmount",
							"type": "uint256"
						},
						{
							"internalType": "enum SharedStructs.AssetType",
							"name": "assetType",
							"type": "uint8"
						},
						{
							"internalType": "enum SharedStructs.PaymentMethod",
							"name": "priceCurrency",
							"type": "uint8"
						},
						{
							"internalType": "bool",
							"name": "authorizedBuyersOnly",
							"type": "bool"
						}
					],
					"internalType": "struct SharedStructs.Order",
					"name": "",
					"type": "tuple"
				}
			],
			"stateMutability": "view",
			"type": "function"
		},
		{
			"inputs": [
				{
					"internalType": "address",
					"name": "user",
					"type": "address"
				},
				{
					"internalType": "enum SharedStructs.PaymentMethod",
					"name": "method",
					"type": "uint8"
				}
			],
			"name": "getEscrowBalance",
			"outputs": [
				{
					"internalType": "uint256",
					"name": "",
					"type": "uint256"
				}
			],
			"stateMutability": "view",
			"type": "function"
		},
		{
			"inputs": [],
			"name": "getHighestBuyOrderEther",
			"outputs": [
				{
					"components": [
						{
							"internalType": "uint256",
							"name": "orderID",
							"type": "uint256"
						},
						{
							"internalType": "address payable",
							"name": "user",
							"type": "address"
						},
						{
							"internalType": "uint256",
							"name": "price",
							"type": "uint256"
						},
						{
							"internalType": "uint256",
							"name": "amount",
							"type": "uint256"
						},
						{
							"internalType": "uint256",
							"name": "fulfilledAmount",
							"type": "uint256"
						},
						{
							"internalType": "enum SharedStructs.AssetType",
							"name": "assetType",
							"type": "uint8"
						},
						{
							"internalType": "enum SharedStructs.PaymentMethod",
							"name": "priceCurrency",
							"type": "uint8"
						},
						{
							"internalType": "bool",
							"name": "authorizedBuyersOnly",
							"type": "bool"
						}
					],
					"internalType": "struct SharedStructs.Order",
					"name": "",
					"type": "tuple"
				}
			],
			"stateMutability": "view",
			"type": "function"
		},
		{
			"inputs": [],
			"name": "getLowestSellOrderEther",
			"outputs": [
				{
					"components": [
						{
							"internalType": "uint256",
							"name": "orderID",
							"type": "uint256"
						},
						{
							"internalType": "address payable",
							"name": "user",
							"type": "address"
						},
						{
							"internalType": "uint256",
							"name": "price",
							"type": "uint256"
						},
						{
							"internalType": "uint256",
							"name": "amount",
							"type": "uint256"
						},
						{
							"internalType": "uint256",
							"name": "fulfilledAmount",
							"type": "uint256"
						},
						{
							"internalType": "enum SharedStructs.AssetType",
							"name": "assetType",
							"type": "uint8"
						},
						{
							"internalType": "enum SharedStructs.PaymentMethod",
							"name": "priceCurrency",
							"type": "uint8"
						},
						{
							"internalType": "bool",
							"name": "authorizedBuyersOnly",
							"type": "bool"
						}
					],
					"internalType": "struct SharedStructs.Order",
					"name": "",
					"type": "tuple"
				}
			],
			"stateMutability": "view",
			"type": "function"
		},
		{
			"inputs": [],
			"name": "getSellOrdersEther",
			"outputs": [
				{
					"components": [
						{
							"internalType": "uint256",
							"name": "orderID",
							"type": "uint256"
						},
						{
							"internalType": "address payable",
							"name": "user",
							"type": "address"
						},
						{
							"internalType": "uint256",
							"name": "price",
							"type": "uint256"
						},
						{
							"internalType": "uint256",
							"name": "amount",
							"type": "uint256"
						},
						{
							"internalType": "uint256",
							"name": "fulfilledAmount",
							"type": "uint256"
						},
						{
							"internalType": "enum SharedStructs.AssetType",
							"name": "assetType",
							"type": "uint8"
						},
						{
							"internalType": "enum SharedStructs.PaymentMethod",
							"name": "priceCurrency",
							"type": "uint8"
						},
						{
							"internalType": "bool",
							"name": "authorizedBuyersOnly",
							"type": "bool"
						}
					],
					"internalType": "struct SharedStructs.Order[]",
					"name": "",
					"type": "tuple[]"
				}
			],
			"stateMutability": "view",
			"type": "function"
		},
		{
			"inputs": [
				{
					"internalType": "uint256",
					"name": "index",
					"type": "uint256"
				}
			],
			"name": "getSellOrdersEther",
			"outputs": [
				{
					"components": [
						{
							"internalType": "uint256",
							"name": "orderID",
							"type": "uint256"
						},
						{
							"internalType": "address payable",
							"name": "user",
							"type": "address"
						},
						{
							"internalType": "uint256",
							"name": "price",
							"type": "uint256"
						},
						{
							"internalType": "uint256",
							"name": "amount",
							"type": "uint256"
						},
						{
							"internalType": "uint256",
							"name": "fulfilledAmount",
							"type": "uint256"
						},
						{
							"internalType": "enum SharedStructs.AssetType",
							"name": "assetType",
							"type": "uint8"
						},
						{
							"internalType": "enum SharedStructs.PaymentMethod",
							"name": "priceCurrency",
							"type": "uint8"
						},
						{
							"internalType": "bool",
							"name": "authorizedBuyersOnly",
							"type": "bool"
						}
					],
					"internalType": "struct SharedStructs.Order",
					"name": "",
					"type": "tuple"
				}
			],
			"stateMutability": "view",
			"type": "function"
		},
		{
			"inputs": [],
			"name": "nickeliumContract",
			"outputs": [
				{
					"internalType": "contract INickelium",
					"name": "",
					"type": "address"
				}
			],
			"stateMutability": "view",
			"type": "function"
		},
		{
			"inputs": [],
			"name": "owner",
			"outputs": [
				{
					"internalType": "address",
					"name": "",
					"type": "address"
				}
			],
			"stateMutability": "view",
			"type": "function"
		},
		{
			"inputs": [],
			"name": "paused",
			"outputs": [
				{
					"internalType": "bool",
					"name": "",
					"type": "bool"
				}
			],
			"stateMutability": "view",
			"type": "function"
		},
		{
			"inputs": [
				{
					"internalType": "uint256",
					"name": "index",
					"type": "uint256"
				}
			],
			"name": "removeBuyOrderEther",
			"outputs": [],
			"stateMutability": "nonpayable",
			"type": "function"
		},
		{
			"inputs": [
				{
					"internalType": "uint256",
					"name": "index",
					"type": "uint256"
				}
			],
			"name": "removeSellOrderEther",
			"outputs": [],
			"stateMutability": "nonpayable",
			"type": "function"
		},
		{
			"inputs": [
				{
					"internalType": "uint256",
					"name": "",
					"type": "uint256"
				}
			],
			"name": "sellOrdersEther",
			"outputs": [
				{
					"internalType": "uint256",
					"name": "orderID",
					"type": "uint256"
				},
				{
					"internalType": "address payable",
					"name": "user",
					"type": "address"
				},
				{
					"internalType": "uint256",
					"name": "price",
					"type": "uint256"
				},
				{
					"internalType": "uint256",
					"name": "amount",
					"type": "uint256"
				},
				{
					"internalType": "uint256",
					"name": "fulfilledAmount",
					"type": "uint256"
				},
				{
					"internalType": "enum SharedStructs.AssetType",
					"name": "assetType",
					"type": "uint8"
				},
				{
					"internalType": "enum SharedStructs.PaymentMethod",
					"name": "priceCurrency",
					"type": "uint8"
				},
				{
					"internalType": "bool",
					"name": "authorizedBuyersOnly",
					"type": "bool"
				}
			],
			"stateMutability": "view",
			"type": "function"
		},
		{
			"inputs": [],
			"name": "sellOrdersEtherLength",
			"outputs": [
				{
					"internalType": "uint256",
					"name": "",
					"type": "uint256"
				}
			],
			"stateMutability": "view",
			"type": "function"
		},
		{
			"inputs": [
				{
					"internalType": "address",
					"name": "_user",
					"type": "address"
				},
				{
					"internalType": "enum SharedStructs.AssetType",
					"name": "_assetType",
					"type": "uint8"
				},
				{
					"internalType": "uint256",
					"name": "_amount",
					"type": "uint256"
				}
			],
			"name": "setAssetBalance",
			"outputs": [],
			"stateMutability": "nonpayable",
			"type": "function"
		},
		{
			"inputs": [
				{
					"internalType": "address",
					"name": "_address",
					"type": "address"
				},
				{
					"internalType": "bool",
					"name": "_status",
					"type": "bool"
				}
			],
			"name": "setAuthorizedAddress",
			"outputs": [],
			"stateMutability": "nonpayable",
			"type": "function"
		},
		{
			"inputs": [
				{
					"internalType": "address",
					"name": "_centralAddress",
					"type": "address"
				},
				{
					"internalType": "address",
					"name": "_USDTAddress",
					"type": "address"
				},
				{
					"internalType": "address",
					"name": "_usdcAddress",
					"type": "address"
				},
				{
					"internalType": "address",
					"name": "_nickeliumAddress",
					"type": "address"
				},
				{
					"internalType": "address",
					"name": "_adminControl",
					"type": "address"
				}
			],
			"name": "setContracts",
			"outputs": [],
			"stateMutability": "nonpayable",
			"type": "function"
		},
		{
			"inputs": [
				{
					"internalType": "address",
					"name": "_user",
					"type": "address"
				},
				{
					"internalType": "enum SharedStructs.PaymentMethod",
					"name": "_paymentMethod",
					"type": "uint8"
				},
				{
					"internalType": "uint256",
					"name": "_amount",
					"type": "uint256"
				}
			],
			"name": "setEscrowBalance",
			"outputs": [],
			"stateMutability": "nonpayable",
			"type": "function"
		},
		{
			"inputs": [
				{
					"internalType": "address",
					"name": "newOwner",
					"type": "address"
				}
			],
			"name": "setOwner",
			"outputs": [],
			"stateMutability": "nonpayable",
			"type": "function"
		},
		{
			"inputs": [
				{
					"internalType": "address",
					"name": "seller",
					"type": "address"
				},
				{
					"internalType": "address payable",
					"name": "buyer",
					"type": "address"
				},
				{
					"internalType": "uint256",
					"name": "amount",
					"type": "uint256"
				}
			],
			"name": "transferFromAsset",
			"outputs": [],
			"stateMutability": "nonpayable",
			"type": "function"
		},
		{
			"inputs": [
				{
					"internalType": "address",
					"name": "user",
					"type": "address"
				},
				{
					"internalType": "enum SharedStructs.PaymentMethod",
					"name": "method",
					"type": "uint8"
				},
				{
					"internalType": "uint256",
					"name": "cost",
					"type": "uint256"
				},
				{
					"internalType": "bool",
					"name": "increase",
					"type": "bool"
				}
			],
			"name": "updateEscrowBalance",
			"outputs": [],
			"stateMutability": "nonpayable",
			"type": "function"
		},
		{
			"inputs": [],
			"name": "usdcContractAddress",
			"outputs": [
				{
					"internalType": "address",
					"name": "",
					"type": "address"
				}
			],
			"stateMutability": "view",
			"type": "function"
		}
	]
}