{
	"data": {
		"bytecode": {
			"linkReferences": {},
			"object": "608060409081525f805460ff199081168255600180805533835260026020529290912080549091169091179055614896806100395f395ff3fe608060405234801561000f575f5ffd5b5060043610610177575f3560e01c80637e8843d0116100d15780637e8843d0146102ac5780638456cb59146102bf57806387ad8f87146102c75780638da5cb5b146102da578063a2b34805146102ed578063a795729a146102ff578063a95767b914610307578063aacc7b901461031a578063bb2fc69c14610322578063bf5915d114610349578063cc92b7591461035c578063d28735101461036f578063ebe4e82f14610382578063f19e207e1461038a578063f63bf8bd146103ac575f5ffd5b8063075457261461017b5780630de6d7a2146101905780631351cf51146101b957806313af4035146101cc5780631af0159a146101df5780631b8e2ed9146101f257806328953ee81461021257806328e073421461022557806329878bc41461022d5780633e725a11146102405780633f4ba83a14610253578063505b304d1461025b57806350b5576614610270578063555d3e63146102835780635c975abb14610296575b5f5ffd5b61018e6101893660046142a6565b6103bf565b005b6101a361019e366004614320565b610636565b6040516101b091906143d6565b60405180910390f35b61018e6101c73660046143e5565b610729565b61018e6101da36600461441a565b610792565b61018e6101ed366004614320565b6107e2565b600754610205906001600160a01b031681565b6040516101b09190614433565b61018e610220366004614447565b6109ce565b6101a3610f91565b600954610205906001600160a01b031681565b61018e61024e366004614477565b611083565b61018e61112b565b610263611174565b6040516101b0919061449f565b6101a361027e366004614320565b611289565b600854610205906001600160a01b031681565b5f5460ff165b60405190151581526020016101b0565b61018e6102ba3660046142a6565b6112a4565b61018e611446565b600554610205906001600160a01b031681565b600a54610205906001600160a01b031681565b6003545b6040519081526020016101b0565b6101a361148c565b61018e610315366004614447565b6114a7565b6004546102f1565b610335610330366004614320565b611727565b6040516101b09897969594939291906144ed565b61018e610357366004614320565b61178b565b61033561036a366004614320565b611927565b600654610205906001600160a01b031681565b610263611936565b61029c61039836600461441a565b60026020525f908152604090205460ff1681565b61018e6103ba366004614548565b611a42565b335f9081526002602052604090205460ff166103f65760405162461bcd60e51b81526004016103ed906145a9565b60405180910390fd5b6103fe611ae2565b6005546040516310df52b960e01b81525f916001600160a01b0316906310df52b990610430908a9088906004016145d1565b602060405180830381865afa15801561044b573d5f5f3e3d5ffd5b505050506040513d601f19601f8201168201806040525081019061046f91906145ee565b6005549091506001600160a01b031663e80b146d888661048f8986614619565b6040518463ffffffff1660e01b81526004016104ad9392919061462c565b5f604051808303815f87803b1580156104c4575f5ffd5b505af11580156104d6573d5f5f3e3d5ffd5b505050505f6040518061010001604052808a8152602001896001600160a01b031681526020018881526020018781526020015f8152602001865f81111561051f5761051f614337565b815260200185600281111561053657610536614337565b8152841515602091820152600954604080516363ba5df760e01b815290519394506001600160a01b03909116926363ba5df7926004808401939192918290030181865afa158015610589573d5f5f3e3d5ffd5b505050506040513d601f19601f820116820180604052508101906105ad91906145ee565b8710156105cc5760405162461bcd60e51b81526004016103ed90614657565b6004545f036105e6576105e1815f6001611b27565b61062b565b60045f815481106105f9576105f96146a9565b905f5260205f2090600602016002015481604001511015610620576105e1815f6001611b27565b61062b6004826121fc565b505050505050505050565b61063e614225565b60038281548110610651576106516146a9565b5f918252602091829020604080516101008101825260069093029091018054835260018101546001600160a01b0316938301939093526002830154908201526003820154606082015260048201546080820152600582015490919060a083019060ff1680156106c2576106c2614337565b80156106d0576106d0614337565b81526020016005820160019054906101000a900460ff1660028111156106f8576106f8614337565b600281111561070957610709614337565b81526005919091015462010000900460ff16151560209091015292915050565b335f9081526002602052604090205460ff166107575760405162461bcd60e51b81526004016103ed906145a9565b61075f6126e3565b610767611ae2565b6001600160a01b0382165f908152600260205260409020805460ff1916821515179055600180555050565b335f9081526002602052604090205460ff166107c05760405162461bcd60e51b81526004016103ed906145a9565b600a80546001600160a01b0319166001600160a01b0392909216919091179055565b335f9081526002602052604090205460ff166108105760405162461bcd60e51b81526004016103ed906145a9565b60035481106108315760405162461bcd60e51b81526004016103ed906146bd565b805b600354610842906001906146ea565b81101561096c576003610856826001614619565b81548110610866576108666146a9565b905f5260205f20906006020160038281548110610885576108856146a9565b5f9182526020909120825460069092020190815560018083015481830180546001600160a01b0319166001600160a01b03909216919091179055600280840154908301556003808401549083015560048084015490830155600580840154908301805460ff90921692909160ff19169083801561090457610904614337565b0217905550600582810154908201805460ff61010093849004169261ff00199091169083600281111561093957610939614337565b02179055506005918201549101805462ff00001916620100009283900460ff161515909202919091179055600101610833565b50600380548061097e5761097e6146fd565b5f8281526020812060065f19909301928302018181556001810180546001600160a01b031916905560028101829055600381018290556004810191909155600501805462ffffff19169055905550565b335f9081526002602052604090205460ff166109fc5760405162461bcd60e51b81526004016103ed906145a9565b610a046126e3565b610a0c611ae2565b60095f9054906101000a90046001600160a01b03166001600160a01b03166363ba5df76040518163ffffffff1660e01b8152600401602060405180830381865afa158015610a5c573d5f5f3e3d5ffd5b505050506040513d601f19601f82011682018060405250810190610a8091906145ee565b811015610a9f5760405162461bcd60e51b81526004016103ed90614657565b5f5b600354811015610f48578260038281548110610abf57610abf6146a9565b905f5260205f2090600602015f015403610f40575f60038281548110610ae757610ae76146a9565b5f918252602090912060069091020160018101549091506001600160a01b03868116911614610b285760405162461bcd60e51b81526004016103ed90614711565b600381015460028201545f906103e890610b43908490614754565b610b4d919061476b565b90505f6103e8610b5d8488614754565b610b67919061476b565b905081811115610bef575f610b7c83836146ea565b6005546001878101546040516342af7a0d60e11b81529394506001600160a01b039283169363855ef41a93610bbc9392169160029187919060040161478a565b5f604051808303815f87803b158015610bd3575f5ffd5b505af1158015610be5573d5f5f3e3d5ffd5b5050505050610e1f565b5f610bfa82846146ea565b60055460018701546040516347db859160e01b81529293505f926001600160a01b03928316926347db859192610c38929116906002906004016147be565b602060405180830381865afa158015610c53573d5f5f3e3d5ffd5b505050506040513d601f19601f82011682018060405250810190610c7791906145ee565b905081811015610cd85760405162461bcd60e51b815260206004820152602660248201527f496e73756666696369656e7420657363726f772062616c616e636520666f72206044820152651c99599d5b9960d21b60648201526084016103ed565b600554604051635f80a9cf60e01b8152600481018490526001600160a01b0390911690635f80a9cf906024015f604051808303815f87803b158015610d1b575f5ffd5b505af1158015610d2d573d5f5f3e3d5ffd5b505060065460055460018a01546040516323b872dd60e01b81526001600160a01b0393841695506323b872dd9450610d7193928316929091169087906004016147db565b6020604051808303815f875af1158015610d8d573d5f5f3e3d5ffd5b505050506040513d601f19601f82011682018060405250810190610db191906147ff565b5060055460018701546040516342af7a0d60e11b81526001600160a01b039283169263855ef41a92610def9291169060029087905f9060040161478a565b5f604051808303815f87803b158015610e06575f5ffd5b505af1158015610e18573d5f5f3e3d5ffd5b5050505050505b6002840186905560408051610100810182528554815260018601546001600160a01b03166020820152908101879052600385015460608201526004850154608082015260058501545f9190869060a083019060ff168015610e8257610e82614337565b8015610e9057610e90614337565b81526020016005820160019054906101000a900460ff166002811115610eb857610eb8614337565b6002811115610ec957610ec9614337565b81526005919091015462010000900460ff1615156020909101529050610ef16003875f61270d565b60045415801590610f24575060045f81548110610f1057610f106146a9565b905f5260205f209060060201600201548710155b15610f3557610f358160015f611b27565b505050505050610f83565b600101610aa1565b5060405162461bcd60e51b815260206004820152600f60248201526e13dc99195c881b9bdd08199bdd5b99608a1b60448201526064016103ed565b610f8c60018055565b505050565b610f99614225565b60045f81548110610fac57610fac6146a9565b5f918252602091829020604080516101008101825260069093029091018054835260018101546001600160a01b0316938301939093526002830154908201526003820154606082015260048201546080820152600582015490919060a083019060ff16801561101d5761101d614337565b801561102b5761102b614337565b81526020016005820160019054906101000a900460ff16600281111561105357611053614337565b600281111561106457611064614337565b81526005919091015462010000900460ff161515602090910152919050565b335f9081526002602052604090205460ff166110b15760405162461bcd60e51b81526004016103ed906145a9565b6110b9611ae2565b60065460405163095ea7b360e01b81526001600160a01b039091169063095ea7b3906110eb908590859060040161481a565b6020604051808303815f875af1158015611107573d5f5f3e3d5ffd5b505050506040513d601f19601f82011682018060405250810190610f8c91906147ff565b335f9081526002602052604090205460ff166111595760405162461bcd60e51b81526004016103ed906145a9565b6111616126e3565b61116961324b565b61117260018055565b565b60606003805480602002602001604051908101604052809291908181526020015f905b82821015611280575f8481526020908190206040805161010081018252600686029092018054835260018101546001600160a01b0316938301939093526002830154908201526003820154606082015260048201546080820152600582015490919060a083019060ff16801561120f5761120f614337565b801561121d5761121d614337565b81526020016005820160019054906101000a900460ff16600281111561124557611245614337565b600281111561125657611256614337565b81526005919091015460ff6201000090910416151560209182015290825260019092019101611197565b50505050905090565b611291614225565b60048281548110610651576106516146a9565b335f9081526002602052604090205460ff166112d25760405162461bcd60e51b81526004016103ed906145a9565b6112da6126e3565b6112e2611ae2565b5f604051806101000160405280898152602001886001600160a01b031681526020018781526020018681526020015f8152602001855f81111561132757611327614337565b815260200184600281111561133e5761133e614337565b8152831515602091820152600954604080516363ba5df760e01b815290519394506001600160a01b03909116926363ba5df7926004808401939192918290030181865afa158015611391573d5f5f3e3d5ffd5b505050506040513d601f19601f820116820180604052508101906113b591906145ee565b8610156113d45760405162461bcd60e51b81526004016103ed90614657565b6003545f036113ee576113e981600180611b27565b611433565b60035f81548110611401576114016146a9565b905f5260205f2090600602016002015481604001511115611428576113e981600180611b27565b611433600382613296565b5061143d60018055565b50505050505050565b335f9081526002602052604090205460ff166114745760405162461bcd60e51b81526004016103ed906145a9565b61147c6126e3565b611484611ae2565b611169613693565b611494614225565b60035f81548110610fac57610fac6146a9565b335f9081526002602052604090205460ff166114d55760405162461bcd60e51b81526004016103ed906145a9565b6114dd6126e3565b6114e5611ae2565b60095f9054906101000a90046001600160a01b03166001600160a01b03166363ba5df76040518163ffffffff1660e01b8152600401602060405180830381865afa158015611535573d5f5f3e3d5ffd5b505050506040513d601f19601f8201168201806040525081019061155991906145ee565b8110156115785760405162461bcd60e51b81526004016103ed90614657565b5f5b600454811015610f48578260048281548110611598576115986146a9565b905f5260205f2090600602015f01540361171f575f600482815481106115c0576115c06146a9565b5f918252602090912060069091020160018101549091506001600160a01b038681169116146116015760405162461bcd60e51b81526004016103ed90614711565b6002810183905560408051610100810182528254815260018301546001600160a01b03166020820152908101849052600382015460608201526004820154608082015260058201545f9190839060a083019060ff16801561166457611664614337565b801561167257611672614337565b81526020016005820160019054906101000a900460ff16600281111561169a5761169a614337565b60028111156116ab576116ab614337565b81526005919091015462010000900460ff16151560209091015290506116d4600484600161270d565b60035415801590611707575060035f815481106116f3576116f36146a9565b905f5260205f209060060201600201548411155b1561171757611717815f5f611b27565b505050610f83565b60010161157a565b60048181548110611736575f80fd5b5f9182526020909120600690910201805460018201546002830154600384015460048501546005909501549395506001600160a01b0390921693909260ff808216916101008104821691620100009091041688565b335f9081526002602052604090205460ff166117b95760405162461bcd60e51b81526004016103ed906145a9565b60045481106117da5760405162461bcd60e51b81526004016103ed906146bd565b805b6004546117eb906001906146ea565b8110156119155760046117ff826001614619565b8154811061180f5761180f6146a9565b905f5260205f2090600602016004828154811061182e5761182e6146a9565b5f9182526020909120825460069092020190815560018083015481830180546001600160a01b0319166001600160a01b03909216919091179055600280840154908301556003808401549083015560048084015490830155600580840154908301805460ff90921692909160ff1916908380156118ad576118ad614337565b0217905550600582810154908201805460ff61010093849004169261ff0019909116908360028111156118e2576118e2614337565b02179055506005918201549101805462ff00001916620100009283900460ff1615159092029190911790556001016117dc565b50600480548061097e5761097e6146fd565b60038181548110611736575f80fd5b60606004805480602002602001604051908101604052809291908181526020015f905b82821015611280575f8481526020908190206040805161010081018252600686029092018054835260018101546001600160a01b0316938301939093526002830154908201526003820154606082015260048201546080820152600582015490919060a083019060ff1680156119d1576119d1614337565b80156119df576119df614337565b81526020016005820160019054906101000a900460ff166002811115611a0757611a07614337565b6002811115611a1857611a18614337565b81526005919091015460ff6201000090910416151560209182015290825260019092019101611959565b335f9081526002602052604090205460ff16611a705760405162461bcd60e51b81526004016103ed906145a9565b611a786126e3565b611a80611ae2565b600680546001600160a01b03199081166001600160a01b038881169190911790925560078054821687841617905560088054821686841617905560098054821685841617905560058054909116918316919091179055600180555b5050505050565b5f5460ff16156111725760405162461bcd60e51b815260206004820152601060248201526f14185d5cd8589b194e881c185d5cd95960821b60448201526064016103ed565b611b2f611ae2565b60608301515f908184611b43576003611b46565b60045b90505f5b8154811015611cc9575f828281548110611b6657611b666146a9565b905f5260205f209060060201905086158015611b8c5750600581015462010000900460ff165b15611c1a57600954602089015160405163237b64ef60e11b81526001600160a01b03909216916346f6c9de91611bc491600401614433565b602060405180830381865afa158015611bdf573d5f5f3e3d5ffd5b505050506040513d601f19601f82011682018060405250810190611c0391906147ff565b611c1a5781611c1181614833565b92505050611b4a565b5f87611c3157816002015489604001511115611c3e565b8160020154896040015110155b905080611c4c575050611cc9565b611c5a8583600301546136cf565b9550611c688983888b6136e6565b611c7286866146ea565b945085826003015f828254611c8791906146ea565b909155505060038201545f03611ca657611ca18484613a39565b611cb4565b82611cb081614833565b9350505b845f03611cc2575050611cc9565b5050611b4a565b5f86611cd6576004611cd9565b60035b905083156121e357606088018490525f805b8254811015611e1357895f0151838281548110611d0a57611d0a6146a9565b905f5260205f2090600602015f015403611e0b5789838281548110611d3157611d316146a9565b5f91825260209182902083516006929092020190815590820151600180830180546001600160a01b0319166001600160a01b039093169290921790915560408301516002830155606083015160038301556080830151600483015560a08301516005830180549192909160ff191690838015611daf57611daf614337565b021790555060c082015160058201805461ff001916610100836002811115611dd957611dd9614337565b021790555060e0919091015160059091018054911515620100000262ff00001990921691909117905560019150611e13565b600101611ceb565b508015611e2557505050505050505050565b8154601411611e52578715611e4457611e3f826002613bf3565b611e52565b611e52828a60a00151613eb5565b81545f9015611edb575b825481108015611ec4575088611e9a57828181548110611e7e57611e7e6146a9565b905f5260205f209060060201600201548a604001511015611ec4565b828181548110611eac57611eac6146a9565b905f5260205f209060060201600201548a6040015111155b15611edb5780611ed381614833565b915050611e5c565b8254600180820185555f8581526020908190208d516006909402019283558c015182820180546001600160a01b0319166001600160a01b0390921691909117905560408c0151600283015560608c0151600383015560808c0151600483015560a08c01516005830180548e949360ff1990911690838015611f5e57611f5e614337565b021790555060c082015160058201805461ff001916610100836002811115611f8857611f88614337565b021790555060e0919091015160059091018054911515620100000262ff00001990921691909117905582545f90611fc1906001906146ea565b90505b818111156120f75783611fd86001836146ea565b81548110611fe857611fe86146a9565b905f5260205f209060060201848281548110612006576120066146a9565b5f9182526020909120825460069092020190815560018083015481830180546001600160a01b0319166001600160a01b03909216919091179055600280840154908301556003808401549083015560048084015490830155600580840154908301805460ff90921692909160ff19169083801561208557612085614337565b0217905550600582810154908201805460ff61010093849004169261ff0019909116908360028111156120ba576120ba614337565b02179055506005918201549101805462ff00001916620100009283900460ff161515909202919091179055806120ef8161484b565b915050611fc4565b508983828154811061210b5761210b6146a9565b5f91825260209182902083516006929092020190815590820151600180830180546001600160a01b0319166001600160a01b039093169290921790915560408301516002830155606083015160038301556080830151600483015560a08301516005830180549192909160ff19169083801561218957612189614337565b021790555060c082015160058201805461ff0019166101008360028111156121b3576121b3614337565b021790555060e0919091015160059091018054911515620100000262ff00001990921691909117905550506121f2565b856121f2576121f28183613a39565b5050505050505050565b81545f5b818110801561223457508260400151848281548110612221576122216146a9565b905f5260205f2090600602016002015411155b1561224b578061224381614833565b915050612200565b601482106123dc575f846122606001856146ea565b81548110612270576122706146a9565b5f918252602091829020604080516101008101825260069093029091018054835260018101546001600160a01b0316938301939093526002830154908201526003820154606082015260048201546080820152600582015490919060a083019060ff1680156122e1576122e1614337565b80156122ef576122ef614337565b81526020016005820160019054906101000a900460ff16600281111561231757612317614337565b600281111561232857612328614337565b81526005919091015462010000900460ff16151560209091015260408181015190860151919250111561237857612363858560a00151613eb5565b8454925082821115612373578291505b6123da565b60405162461bcd60e51b815260206004820152603160248201527f4e6577206f72646572207072696365206973206e6f74206c6f7720656e6f756760448201527034103a379031329034b739b2b93a32b21760791b60648201526084016103ed565b505b8354600180820186555f868152602090819020865160069094020192835585015182820180546001600160a01b0319166001600160a01b0390921691909117905560408501516002830155606085015160038301556080850151600483015560a085015160058301805487949360ff199091169083801561245f5761245f614337565b021790555060c082015160058201805461ff00191661010083600281111561248957612489614337565b021790555060e0919091015160059091018054911515620100000262ff00001990921691909117905583545f906124c2906001906146ea565b90505b818111156125f857846124d96001836146ea565b815481106124e9576124e96146a9565b905f5260205f209060060201858281548110612507576125076146a9565b5f9182526020909120825460069092020190815560018083015481830180546001600160a01b0319166001600160a01b03909216919091179055600280840154908301556003808401549083015560048084015490830155600580840154908301805460ff90921692909160ff19169083801561258657612586614337565b0217905550600582810154908201805460ff61010093849004169261ff0019909116908360028111156125bb576125bb614337565b02179055506005918201549101805462ff00001916620100009283900460ff161515909202919091179055806125f08161484b565b9150506124c5565b508284828154811061260c5761260c6146a9565b5f91825260209182902083516006929092020190815590820151600180830180546001600160a01b0319166001600160a01b039093169290921790915560408301516002830155606083015160038301556080830151600483015560a08301516005830180549192909160ff19169083801561268a5761268a614337565b021790555060c082015160058201805461ff0019166101008360028111156126b4576126b4614337565b021790555060e0919091015160059091018054911515620100000262ff00001990921691909117905550505050565b60026001540361270657604051633ee5aeb560e01b815260040160405180910390fd5b6002600155565b8254821061272d5760405162461bcd60e51b81526004016103ed906146bd565b5f838381548110612740576127406146a9565b5f918252602091829020604080516101008101825260069093029091018054835260018101546001600160a01b0316938301939093526002830154908201526003820154606082015260048201546080820152600582015490919060a083019060ff1680156127b1576127b1614337565b80156127bf576127bf614337565b81526020016005820160019054906101000a900460ff1660028111156127e7576127e7614337565b60028111156127f8576127f8614337565b81526005919091015462010000900460ff16151560209091015290505f8215612cbd57835b5f8111801561285a5750856128336001836146ea565b81548110612843576128436146a9565b905f5260205f209060060201600201548360400151105b15612997578561286b6001836146ea565b8154811061287b5761287b6146a9565b905f5260205f209060060201868281548110612899576128996146a9565b5f9182526020909120825460069092020190815560018083015481830180546001600160a01b0319166001600160a01b03909216919091179055600280840154908301556003808401549083015560048084015490830155600580840154908301805460ff90921692909160ff19169083801561291857612918614337565b0217905550600582810154908201805460ff61010093849004169261ff00199091169083600281111561294d5761294d614337565b02179055506005918201549101805462ff00001916620100009283900460ff1615159092029190911790556129836001826146ea565b94508061298f8161484b565b91505061281d565b50835b85546129a8906001906146ea565b811080156129e45750856129bd826001614619565b815481106129cd576129cd6146a9565b905f5260205f209060060201600201548360400151115b15612b275781612b1557856129fa826001614619565b81548110612a0a57612a0a6146a9565b905f5260205f209060060201868281548110612a2857612a286146a9565b5f9182526020909120825460069092020190815560018083015481830180546001600160a01b0319166001600160a01b03909216919091179055600280840154908301556003808401549083015560048084015490830155600580840154908301805460ff90921692909160ff191690838015612aa757612aa7614337565b0217905550600582810154908201805460ff61010093849004169261ff001990911690836002811115612adc57612adc614337565b02179055506005918201549101805462ff00001916620100009283900460ff161515909202919091179055612b12816001614619565b94505b80612b1f81614833565b91505061299a565b50835b8554612b38906001906146ea565b81108015612b74575085612b4d826001614619565b81548110612b5d57612b5d6146a9565b905f5260205f209060060201600201548360400151145b15612cb75781612ca55785612b8a826001614619565b81548110612b9a57612b9a6146a9565b905f5260205f209060060201868281548110612bb857612bb86146a9565b5f9182526020909120825460069092020190815560018083015481830180546001600160a01b0319166001600160a01b03909216919091179055600280840154908301556003808401549083015560048084015490830155600580840154908301805460ff90921692909160ff191690838015612c3757612c37614337565b0217905550600582810154908201805460ff61010093849004169261ff001990911690836002811115612c6c57612c6c614337565b02179055506005918201549101805462ff00001916620100009283900460ff161515909202919091179055612ca2816001614619565b94505b80612caf81614833565b915050612b2a565b5061315b565b835b5f81118015612cfc575085612cd56001836146ea565b81548110612ce557612ce56146a9565b905f5260205f209060060201600201548360400151115b15612e395785612d0d6001836146ea565b81548110612d1d57612d1d6146a9565b905f5260205f209060060201868281548110612d3b57612d3b6146a9565b5f9182526020909120825460069092020190815560018083015481830180546001600160a01b0319166001600160a01b03909216919091179055600280840154908301556003808401549083015560048084015490830155600580840154908301805460ff90921692909160ff191690838015612dba57612dba614337565b0217905550600582810154908201805460ff61010093849004169261ff001990911690836002811115612def57612def614337565b02179055506005918201549101805462ff00001916620100009283900460ff161515909202919091179055612e256001826146ea565b945080612e318161484b565b915050612cbf565b50835b8554612e4a906001906146ea565b81108015612e86575085612e5f826001614619565b81548110612e6f57612e6f6146a9565b905f5260205f209060060201600201548360400151105b15612fc95781612fb75785612e9c826001614619565b81548110612eac57612eac6146a9565b905f5260205f209060060201868281548110612eca57612eca6146a9565b5f9182526020909120825460069092020190815560018083015481830180546001600160a01b0319166001600160a01b03909216919091179055600280840154908301556003808401549083015560048084015490830155600580840154908301805460ff90921692909160ff191690838015612f4957612f49614337565b0217905550600582810154908201805460ff61010093849004169261ff001990911690836002811115612f7e57612f7e614337565b02179055506005918201549101805462ff00001916620100009283900460ff161515909202919091179055612fb4816001614619565b94505b80612fc181614833565b915050612e3c565b50835b8554612fda906001906146ea565b81108015613016575085612fef826001614619565b81548110612fff57612fff6146a9565b905f5260205f209060060201600201548360400151145b156131595781613147578561302c826001614619565b8154811061303c5761303c6146a9565b905f5260205f20906006020186828154811061305a5761305a6146a9565b5f9182526020909120825460069092020190815560018083015481830180546001600160a01b0319166001600160a01b03909216919091179055600280840154908301556003808401549083015560048084015490830155600580840154908301805460ff90921692909160ff1916908380156130d9576130d9614337565b0217905550600582810154908201805460ff61010093849004169261ff00199091169083600281111561310e5761310e614337565b02179055506005918201549101805462ff00001916620100009283900460ff161515909202919091179055613144816001614619565b94505b8061315181614833565b915050612fcc565b505b80611adb5781858581548110613173576131736146a9565b5f91825260209182902083516006929092020190815590820151600180830180546001600160a01b0319166001600160a01b039093169290921790915560408301516002830155606083015160038301556080830151600483015560a08301516005830180549192909160ff1916908380156131f1576131f1614337565b021790555060c082015160058201805461ff00191661010083600281111561321b5761321b614337565b021790555060e0919091015160059091018054911515620100000262ff0000199092169190911790555050505050565b6132536141cc565b5f805460ff191690557f5db9ee0a495bf2e6ff9c91a7834c1ba4fdd244a5e8aa4e537bd38aeae4b073aa335b60405161328c9190614433565b60405180910390a1565b81545f5b81811080156132ce575082604001518482815481106132bb576132bb6146a9565b905f5260205f2090600602016002015410155b156132e557806132dd81614833565b91505061329a565b60148210613477575f846132fa6001856146ea565b8154811061330a5761330a6146a9565b5f918252602091829020604080516101008101825260069093029091018054835260018101546001600160a01b0316938301939093526002830154908201526003820154606082015260048201546080820152600582015490919060a083019060ff16801561337b5761337b614337565b801561338957613389614337565b81526020016005820160019054906101000a900460ff1660028111156133b1576133b1614337565b60028111156133c2576133c2614337565b81526005919091015462010000900460ff161515602090910152604081810151908601519192501015613412576133fd858560c00151613bf3565b845492508282111561340d578291505b613475565b60405162461bcd60e51b815260206004820152603260248201527f4e6577206f72646572207072696365206973206e6f74206869676820656e6f7560448201527133b4103a379031329034b739b2b93a32b21760711b60648201526084016103ed565b505b8354600180820186555f868152602090819020865160069094020192835585015182820180546001600160a01b0319166001600160a01b0390921691909117905560408501516002830155606085015160038301556080850151600483015560a085015160058301805487949360ff19909116908380156134fa576134fa614337565b021790555060c082015160058201805461ff00191661010083600281111561352457613524614337565b021790555060e0919091015160059091018054911515620100000262ff00001990921691909117905583545f9061355d906001906146ea565b90505b818111156125f857846135746001836146ea565b81548110613584576135846146a9565b905f5260205f2090600602018582815481106135a2576135a26146a9565b5f9182526020909120825460069092020190815560018083015481830180546001600160a01b0319166001600160a01b03909216919091179055600280840154908301556003808401549083015560048084015490830155600580840154908301805460ff90921692909160ff19169083801561362157613621614337565b0217905550600582810154908201805460ff61010093849004169261ff00199091169083600281111561365657613656614337565b02179055506005918201549101805462ff00001916620100009283900460ff1615159092029190911790558061368b8161484b565b915050613560565b61369b611ae2565b5f805460ff191660011790557f62e78cea01bee320cd4e420270b5ea74000d11b0c9f74754ebdbfc544b05a25861327f3390565b5f6136dd8284108484614214565b90505b92915050565b5f5f5f8315613712575050506020840151600184015460408601516001600160a01b0390911690613731565b5050506001830154602085015160028501546001600160a01b03909216915b5f6103e861373f8388614754565b613749919061476b565b60055460c08a01516040516342af7a0d60e11b81529293506001600160a01b039091169163855ef41a916137869188919086905f9060040161478a565b5f604051808303815f87803b15801561379d575f5ffd5b505af11580156137af573d5f5f3e3d5ffd5b50506005546040516310df52b960e01b81528993506001600160a01b0390911691506310df52b9906137e79087905f906004016145d1565b602060405180830381865afa158015613802573d5f5f3e3d5ffd5b505050506040513d601f19601f8201168201806040525081019061382691906145ee565b101561388c5760405162461bcd60e51b815260206004820152602f60248201527f53656c6c657220646f6573206e6f74206861766520656e6f756768204e69636b60448201526e656c69756d20696e20657363726f7760881b60648201526084016103ed565b60075460055460405163da3e339760e01b81526001600160a01b039283169263da3e3397926138c5928592909116908b906004016147db565b6020604051808303815f875af11580156138e1573d5f5f3e3d5ffd5b505050506040513d601f19601f8201168201806040525081019061390591906147ff565b50600554604051630212ae7560e31b81526001600160a01b039091169063109573a89061393a90869088908b906004016147db565b5f604051808303815f87803b158015613951575f5ffd5b505af1158015613963573d5f5f3e3d5ffd5b5050600554604051635f80a9cf60e01b8152600481018590526001600160a01b039091169250635f80a9cf91506024015f604051808303815f87803b1580156139aa575f5ffd5b505af11580156139bc573d5f5f3e3d5ffd5b50506006546005546040516323b872dd60e01b81526001600160a01b0392831694506323b872dd93506139f99290911690879086906004016147db565b6020604051808303815f875af1158015613a15573d5f5f3e3d5ffd5b505050506040513d601f19601f8201168201806040525081019061062b91906147ff565b81548110613a595760405162461bcd60e51b81526004016103ed906146bd565b805b8254613a69906001906146ea565b811015613b915782613a7c826001614619565b81548110613a8c57613a8c6146a9565b905f5260205f209060060201838281548110613aaa57613aaa6146a9565b5f9182526020909120825460069092020190815560018083015481830180546001600160a01b0319166001600160a01b03909216919091179055600280840154908301556003808401549083015560048084015490830155600580840154908301805460ff90921692909160ff191690838015613b2957613b29614337565b0217905550600582810154908201805460ff61010093849004169261ff001990911690836002811115613b5e57613b5e614337565b02179055506005918201549101805462ff00001916620100009283900460ff161515909202919091179055600101613a5b565b5081805480613ba257613ba26146fd565b5f8281526020812060065f19909301928302018181556001810180546001600160a01b031916905560028101829055600381018290556004810191909155600501805462ffffff1916905590555050565b81545f90613c03906001906146ea565b90505f838281548110613c1857613c186146a9565b5f918252602091829020604080516101008101825260069093029091018054835260018101546001600160a01b0316938301939093526002830154908201526003820154606082015260048201546080820152600582015490919060a083019060ff168015613c8957613c89614337565b8015613c9757613c97614337565b81526020016005820160019054906101000a900460ff166002811115613cbf57613cbf614337565b6002811115613cd057613cd0614337565b81526005919091015462010000900460ff1615156020909101528454909150849080613cfe57613cfe6146fd565b5f8281526020812060065f19909301928302018181556001810180546001600160a01b0319169055600281018290556003810182905560048101829055600501805462ffffff191690559155606082015160408301519091906103e890613d66908490614754565b613d70919061476b565b600554604051635f80a9cf60e01b8152600481018390529192506001600160a01b031690635f80a9cf906024015f604051808303815f87803b158015613db4575f5ffd5b505af1158015613dc6573d5f5f3e3d5ffd5b505060065460055460208701516040516323b872dd60e01b81526001600160a01b0393841695506323b872dd9450613e06939092169186906004016147db565b6020604051808303815f875af1158015613e22573d5f5f3e3d5ffd5b505050506040513d601f19601f82011682018060405250810190613e4691906147ff565b5060055460208401516040516342af7a0d60e11b81526001600160a01b039092169163855ef41a91613e8091899086905f9060040161478a565b5f604051808303815f87803b158015613e97575f5ffd5b505af1158015613ea9573d5f5f3e3d5ffd5b50505050505050505050565b81545f90613ec5906001906146ea565b90505f838281548110613eda57613eda6146a9565b5f918252602091829020604080516101008101825260069093029091018054835260018101546001600160a01b0316938301939093526002830154908201526003820154606082015260048201546080820152600582015490919060a083019060ff168015613f4b57613f4b614337565b8015613f5957613f59614337565b81526020016005820160019054906101000a900460ff166002811115613f8157613f81614337565b6002811115613f9257613f92614337565b81526005919091015462010000900460ff161515602091820152810151855491925090859080613fc457613fc46146fd565b5f8281526020812060065f19909301928302018181556001810180546001600160a01b0319169055600281018290556003810182905560048082018390556005918201805462ffffff1916905592909355606085015192546040516310df52b960e01b815291926001600160a01b0391909116916310df52b99161404c9187918b91016145d1565b602060405180830381865afa158015614067573d5f5f3e3d5ffd5b505050506040513d601f19601f8201168201806040525081019061408b91906145ee565b90505f82821061409b578261409d565b815b9050808210156140f95760405162461bcd60e51b815260206004820152602160248201527f496e73756666696369656e7420746f6b656e20657363726f772062616c616e636044820152606560f81b60648201526084016103ed565b600754604051630d44798360e11b81526001600160a01b0390911690631a88f3069061412b908790859060040161481a565b5f604051808303815f87803b158015614142575f5ffd5b505af1158015614154573d5f5f3e3d5ffd5b50506005546001600160a01b0316915063e80b146d9050858961417785876146ea565b6040518463ffffffff1660e01b81526004016141959392919061462c565b5f604051808303815f87803b1580156141ac575f5ffd5b505af11580156141be573d5f5f3e3d5ffd5b505050505050505050505050565b5f5460ff166111725760405162461bcd60e51b815260206004820152601460248201527314185d5cd8589b194e881b9bdd081c185d5cd95960621b60448201526064016103ed565b8181188315150281185b9392505050565b6040518061010001604052805f81526020015f6001600160a01b031681526020015f81526020015f81526020015f81526020015f5f81111561426957614269614337565b81526020015f81525f60209091015290565b80356001600160a01b0381168114614291575f5ffd5b919050565b80151581146142a3575f5ffd5b50565b5f5f5f5f5f5f5f60e0888a0312156142bc575f5ffd5b873596506142cc6020890161427b565b955060408801359450606088013593506080880135600181106142ed575f5ffd5b925060a088013560038110614300575f5ffd5b915060c088013561431081614296565b8091505092959891949750929550565b5f60208284031215614330575f5ffd5b5035919050565b634e487b7160e01b5f52602160045260245ffd5b6001811061435b5761435b614337565b9052565b6003811061435b5761435b614337565b8051825260018060a01b03602082015116602083015260408101516040830152606081015160608301526080810151608083015260a08101516143b560a084018261434b565b5060c08101516143c860c084018261435f565b5060e0908101511515910152565b61010081016136e0828461436f565b5f5f604083850312156143f6575f5ffd5b6143ff8361427b565b9150602083013561440f81614296565b809150509250929050565b5f6020828403121561442a575f5ffd5b6136dd8261427b565b6001600160a01b0391909116815260200190565b5f5f5f60608486031215614459575f5ffd5b6144628461427b565b95602085013595506040909401359392505050565b5f5f60408385031215614488575f5ffd5b6144918361427b565b946020939093013593505050565b602080825282518282018190525f918401906040840190835b818110156144e2576144cb83855161436f565b6020939093019261010092909201916001016144b8565b509095945050505050565b8881526001600160a01b0388166020820152604081018790526060810186905260808101859052610100810161452660a083018661434b565b61453360c083018561435f565b82151560e08301529998505050505050505050565b5f5f5f5f5f60a0868803121561455c575f5ffd5b6145658661427b565b94506145736020870161427b565b93506145816040870161427b565b925061458f6060870161427b565b915061459d6080870161427b565b90509295509295909350565b6020808252600e908201526d139bdd08185d5d1a1bdc9a5e995960921b604082015260600190565b6001600160a01b03831681526040810161421e602083018461434b565b5f602082840312156145fe575f5ffd5b5051919050565b634e487b7160e01b5f52601160045260245ffd5b808201808211156136e0576136e0614605565b6001600160a01b038416815260608101614649602083018561434b565b826040830152949350505050565b60208082526032908201527f4f72646572207072696365206d757374206265206174206c65617374207468656040820152712063757272656e74204c4d4520707269636560701b606082015260800190565b634e487b7160e01b5f52603260045260245ffd5b602080825260139082015272496e646578206f7574206f6620626f756e647360681b604082015260600190565b818103818111156136e0576136e0614605565b634e487b7160e01b5f52603160045260245ffd5b60208082526023908201527f4f6e6c7920746865206f776e65722063616e206368616e67652074686520707260408201526269636560e81b606082015260800190565b80820281158282048414176136e0576136e0614605565b5f8261478557634e487b7160e01b5f52601260045260245ffd5b500490565b6001600160a01b0385168152608081016147a7602083018661435f565b836040830152821515606083015295945050505050565b6001600160a01b03831681526040810161421e602083018461435f565b6001600160a01b039384168152919092166020820152604081019190915260600190565b5f6020828403121561480f575f5ffd5b815161421e81614296565b6001600160a01b03929092168252602082015260400190565b5f6001820161484457614844614605565b5060010190565b5f8161485957614859614605565b505f19019056fea2646970667358221220457b60d1721ec26ff5ec2b61b8320449be16437078aea5c41527c5b7dc7987d364736f6c634300081e0033",
			"opcodes": "PUSH1 0x80 PUSH1 0x40 SWAP1 DUP2 MSTORE PUSH0 DUP1 SLOAD PUSH1 0xFF NOT SWAP1 DUP2 AND DUP3 SSTORE PUSH1 0x1 DUP1 DUP1 SSTORE CALLER DUP4 MSTORE PUSH1 0x2 PUSH1 0x20 MSTORE SWAP3 SWAP1 SWAP2 KECCAK256 DUP1 SLOAD SWAP1 SWAP2 AND SWAP1 SWAP2 OR SWAP1 SSTORE PUSH2 0x4896 DUP1 PUSH2 0x39 PUSH0 CODECOPY PUSH0 RETURN INVALID PUSH1 0x80 PUSH1 0x40 MSTORE CALLVALUE DUP1 ISZERO PUSH2 0xF JUMPI PUSH0 PUSH0 REVERT JUMPDEST POP PUSH1 0x4 CALLDATASIZE LT PUSH2 0x177 JUMPI PUSH0 CALLDATALOAD PUSH1 0xE0 SHR DUP1 PUSH4 0x7E8843D0 GT PUSH2 0xD1 JUMPI DUP1 PUSH4 0x7E8843D0 EQ PUSH2 0x2AC JUMPI DUP1 PUSH4 0x8456CB59 EQ PUSH2 0x2BF JUMPI DUP1 PUSH4 0x87AD8F87 EQ PUSH2 0x2C7 JUMPI DUP1 PUSH4 0x8DA5CB5B EQ PUSH2 0x2DA JUMPI DUP1 PUSH4 0xA2B34805 EQ PUSH2 0x2ED JUMPI DUP1 PUSH4 0xA795729A EQ PUSH2 0x2FF JUMPI DUP1 PUSH4 0xA95767B9 EQ PUSH2 0x307 JUMPI DUP1 PUSH4 0xAACC7B90 EQ PUSH2 0x31A JUMPI DUP1 PUSH4 0xBB2FC69C EQ PUSH2 0x322 JUMPI DUP1 PUSH4 0xBF5915D1 EQ PUSH2 0x349 JUMPI DUP1 PUSH4 0xCC92B759 EQ PUSH2 0x35C JUMPI DUP1 PUSH4 0xD2873510 EQ PUSH2 0x36F JUMPI DUP1 PUSH4 0xEBE4E82F EQ PUSH2 0x382 JUMPI DUP1 PUSH4 0xF19E207E EQ PUSH2 0x38A JUMPI DUP1 PUSH4 0xF63BF8BD EQ PUSH2 0x3AC JUMPI PUSH0 PUSH0 REVERT JUMPDEST DUP1 PUSH4 0x7545726 EQ PUSH2 0x17B JUMPI DUP1 PUSH4 0xDE6D7A2 EQ PUSH2 0x190 JUMPI DUP1 PUSH4 0x1351CF51 EQ PUSH2 0x1B9 JUMPI DUP1 PUSH4 0x13AF4035 EQ PUSH2 0x1CC JUMPI DUP1 PUSH4 0x1AF0159A EQ PUSH2 0x1DF JUMPI DUP1 PUSH4 0x1B8E2ED9 EQ PUSH2 0x1F2 JUMPI DUP1 PUSH4 0x28953EE8 EQ PUSH2 0x212 JUMPI DUP1 PUSH4 0x28E07342 EQ PUSH2 0x225 JUMPI DUP1 PUSH4 0x29878BC4 EQ PUSH2 0x22D JUMPI DUP1 PUSH4 0x3E725A11 EQ PUSH2 0x240 JUMPI DUP1 PUSH4 0x3F4BA83A EQ PUSH2 0x253 JUMPI DUP1 PUSH4 0x505B304D EQ PUSH2 0x25B JUMPI DUP1 PUSH4 0x50B55766 EQ PUSH2 0x270 JUMPI DUP1 PUSH4 0x555D3E63 EQ PUSH2 0x283 JUMPI DUP1 PUSH4 0x5C975ABB EQ PUSH2 0x296 JUMPI JUMPDEST PUSH0 PUSH0 REVERT JUMPDEST PUSH2 0x18E PUSH2 0x189 CALLDATASIZE PUSH1 0x4 PUSH2 0x42A6 JUMP JUMPDEST PUSH2 0x3BF JUMP JUMPDEST STOP JUMPDEST PUSH2 0x1A3 PUSH2 0x19E CALLDATASIZE PUSH1 0x4 PUSH2 0x4320 JUMP JUMPDEST PUSH2 0x636 JUMP JUMPDEST PUSH1 0x40 MLOAD PUSH2 0x1B0 SWAP2 SWAP1 PUSH2 0x43D6 JUMP JUMPDEST PUSH1 0x40 MLOAD DUP1 SWAP2 SUB SWAP1 RETURN JUMPDEST PUSH2 0x18E PUSH2 0x1C7 CALLDATASIZE PUSH1 0x4 PUSH2 0x43E5 JUMP JUMPDEST PUSH2 0x729 JUMP JUMPDEST PUSH2 0x18E PUSH2 0x1DA CALLDATASIZE PUSH1 0x4 PUSH2 0x441A JUMP JUMPDEST PUSH2 0x792 JUMP JUMPDEST PUSH2 0x18E PUSH2 0x1ED CALLDATASIZE PUSH1 0x4 PUSH2 0x4320 JUMP JUMPDEST PUSH2 0x7E2 JUMP JUMPDEST PUSH1 0x7 SLOAD PUSH2 0x205 SWAP1 PUSH1 0x1 PUSH1 0x1 PUSH1 0xA0 SHL SUB AND DUP2 JUMP JUMPDEST PUSH1 0x40 MLOAD PUSH2 0x1B0 SWAP2 SWAP1 PUSH2 0x4433 JUMP JUMPDEST PUSH2 0x18E PUSH2 0x220 CALLDATASIZE PUSH1 0x4 PUSH2 0x4447 JUMP JUMPDEST PUSH2 0x9CE JUMP JUMPDEST PUSH2 0x1A3 PUSH2 0xF91 JUMP JUMPDEST PUSH1 0x9 SLOAD PUSH2 0x205 SWAP1 PUSH1 0x1 PUSH1 0x1 PUSH1 0xA0 SHL SUB AND DUP2 JUMP JUMPDEST PUSH2 0x18E PUSH2 0x24E CALLDATASIZE PUSH1 0x4 PUSH2 0x4477 JUMP JUMPDEST PUSH2 0x1083 JUMP JUMPDEST PUSH2 0x18E PUSH2 0x112B JUMP JUMPDEST PUSH2 0x263 PUSH2 0x1174 JUMP JUMPDEST PUSH1 0x40 MLOAD PUSH2 0x1B0 SWAP2 SWAP1 PUSH2 0x449F JUMP JUMPDEST PUSH2 0x1A3 PUSH2 0x27E CALLDATASIZE PUSH1 0x4 PUSH2 0x4320 JUMP JUMPDEST PUSH2 0x1289 JUMP JUMPDEST PUSH1 0x8 SLOAD PUSH2 0x205 SWAP1 PUSH1 0x1 PUSH1 0x1 PUSH1 0xA0 SHL SUB AND DUP2 JUMP JUMPDEST PUSH0 SLOAD PUSH1 0xFF AND JUMPDEST PUSH1 0x40 MLOAD SWAP1 ISZERO ISZERO DUP2 MSTORE PUSH1 0x20 ADD PUSH2 0x1B0 JUMP JUMPDEST PUSH2 0x18E PUSH2 0x2BA CALLDATASIZE PUSH1 0x4 PUSH2 0x42A6 JUMP JUMPDEST PUSH2 0x12A4 JUMP JUMPDEST PUSH2 0x18E PUSH2 0x1446 JUMP JUMPDEST PUSH1 0x5 SLOAD PUSH2 0x205 SWAP1 PUSH1 0x1 PUSH1 0x1 PUSH1 0xA0 SHL SUB AND DUP2 JUMP JUMPDEST PUSH1 0xA SLOAD PUSH2 0x205 SWAP1 PUSH1 0x1 PUSH1 0x1 PUSH1 0xA0 SHL SUB AND DUP2 JUMP JUMPDEST PUSH1 0x3 SLOAD JUMPDEST PUSH1 0x40 MLOAD SWAP1 DUP2 MSTORE PUSH1 0x20 ADD PUSH2 0x1B0 JUMP JUMPDEST PUSH2 0x1A3 PUSH2 0x148C JUMP JUMPDEST PUSH2 0x18E PUSH2 0x315 CALLDATASIZE PUSH1 0x4 PUSH2 0x4447 JUMP JUMPDEST PUSH2 0x14A7 JUMP JUMPDEST PUSH1 0x4 SLOAD PUSH2 0x2F1 JUMP JUMPDEST PUSH2 0x335 PUSH2 0x330 CALLDATASIZE PUSH1 0x4 PUSH2 0x4320 JUMP JUMPDEST PUSH2 0x1727 JUMP JUMPDEST PUSH1 0x40 MLOAD PUSH2 0x1B0 SWAP9 SWAP8 SWAP7 SWAP6 SWAP5 SWAP4 SWAP3 SWAP2 SWAP1 PUSH2 0x44ED JUMP JUMPDEST PUSH2 0x18E PUSH2 0x357 CALLDATASIZE PUSH1 0x4 PUSH2 0x4320 JUMP JUMPDEST PUSH2 0x178B JUMP JUMPDEST PUSH2 0x335 PUSH2 0x36A CALLDATASIZE PUSH1 0x4 PUSH2 0x4320 JUMP JUMPDEST PUSH2 0x1927 JUMP JUMPDEST PUSH1 0x6 SLOAD PUSH2 0x205 SWAP1 PUSH1 0x1 PUSH1 0x1 PUSH1 0xA0 SHL SUB AND DUP2 JUMP JUMPDEST PUSH2 0x263 PUSH2 0x1936 JUMP JUMPDEST PUSH2 0x29C PUSH2 0x398 CALLDATASIZE PUSH1 0x4 PUSH2 0x441A JUMP JUMPDEST PUSH1 0x2 PUSH1 0x20 MSTORE PUSH0 SWAP1 DUP2 MSTORE PUSH1 0x40 SWAP1 KECCAK256 SLOAD PUSH1 0xFF AND DUP2 JUMP JUMPDEST PUSH2 0x18E PUSH2 0x3BA CALLDATASIZE PUSH1 0x4 PUSH2 0x4548 JUMP JUMPDEST PUSH2 0x1A42 JUMP JUMPDEST CALLER PUSH0 SWAP1 DUP2 MSTORE PUSH1 0x2 PUSH1 0x20 MSTORE PUSH1 0x40 SWAP1 KECCAK256 SLOAD PUSH1 0xFF AND PUSH2 0x3F6 JUMPI PUSH1 0x40 MLOAD PUSH3 0x461BCD PUSH1 0xE5 SHL DUP2 MSTORE PUSH1 0x4 ADD PUSH2 0x3ED SWAP1 PUSH2 0x45A9 JUMP JUMPDEST PUSH1 0x40 MLOAD DUP1 SWAP2 SUB SWAP1 REVERT JUMPDEST PUSH2 0x3FE PUSH2 0x1AE2 JUMP JUMPDEST PUSH1 0x5 SLOAD PUSH1 0x40 MLOAD PUSH4 0x10DF52B9 PUSH1 0xE0 SHL DUP2 MSTORE PUSH0 SWAP2 PUSH1 0x1 PUSH1 0x1 PUSH1 0xA0 SHL SUB AND SWAP1 PUSH4 0x10DF52B9 SWAP1 PUSH2 0x430 SWAP1 DUP11 SWAP1 DUP9 SWAP1 PUSH1 0x4 ADD PUSH2 0x45D1 JUMP JUMPDEST PUSH1 0x20 PUSH1 0x40 MLOAD DUP1 DUP4 SUB DUP2 DUP7 GAS STATICCALL ISZERO DUP1 ISZERO PUSH2 0x44B JUMPI RETURNDATASIZE PUSH0 PUSH0 RETURNDATACOPY RETURNDATASIZE PUSH0 REVERT JUMPDEST POP POP POP POP PUSH1 0x40 MLOAD RETURNDATASIZE PUSH1 0x1F NOT PUSH1 0x1F DUP3 ADD AND DUP3 ADD DUP1 PUSH1 0x40 MSTORE POP DUP2 ADD SWAP1 PUSH2 0x46F SWAP2 SWAP1 PUSH2 0x45EE JUMP JUMPDEST PUSH1 0x5 SLOAD SWAP1 SWAP2 POP PUSH1 0x1 PUSH1 0x1 PUSH1 0xA0 SHL SUB AND PUSH4 0xE80B146D DUP9 DUP7 PUSH2 0x48F DUP10 DUP7 PUSH2 0x4619 JUMP JUMPDEST PUSH1 0x40 MLOAD DUP5 PUSH4 0xFFFFFFFF AND PUSH1 0xE0 SHL DUP2 MSTORE PUSH1 0x4 ADD PUSH2 0x4AD SWAP4 SWAP3 SWAP2 SWAP1 PUSH2 0x462C JUMP JUMPDEST PUSH0 PUSH1 0x40 MLOAD DUP1 DUP4 SUB DUP2 PUSH0 DUP8 DUP1 EXTCODESIZE ISZERO DUP1 ISZERO PUSH2 0x4C4 JUMPI PUSH0 PUSH0 REVERT JUMPDEST POP GAS CALL ISZERO DUP1 ISZERO PUSH2 0x4D6 JUMPI RETURNDATASIZE PUSH0 PUSH0 RETURNDATACOPY RETURNDATASIZE PUSH0 REVERT JUMPDEST POP POP POP POP PUSH0 PUSH1 0x40 MLOAD DUP1 PUSH2 0x100 ADD PUSH1 0x40 MSTORE DUP1 DUP11 DUP2 MSTORE PUSH1 0x20 ADD DUP10 PUSH1 0x1 PUSH1 0x1 PUSH1 0xA0 SHL SUB AND DUP2 MSTORE PUSH1 0x20 ADD DUP9 DUP2 MSTORE PUSH1 0x20 ADD DUP8 DUP2 MSTORE PUSH1 0x20 ADD PUSH0 DUP2 MSTORE PUSH1 0x20 ADD DUP7 PUSH0 DUP2 GT ISZERO PUSH2 0x51F JUMPI PUSH2 0x51F PUSH2 0x4337 JUMP JUMPDEST DUP2 MSTORE PUSH1 0x20 ADD DUP6 PUSH1 0x2 DUP2 GT ISZERO PUSH2 0x536 JUMPI PUSH2 0x536 PUSH2 0x4337 JUMP JUMPDEST DUP2 MSTORE DUP5 ISZERO ISZERO PUSH1 0x20 SWAP2 DUP3 ADD MSTORE PUSH1 0x9 SLOAD PUSH1 0x40 DUP1 MLOAD PUSH4 0x63BA5DF7 PUSH1 0xE0 SHL DUP2 MSTORE SWAP1 MLOAD SWAP4 SWAP5 POP PUSH1 0x1 PUSH1 0x1 PUSH1 0xA0 SHL SUB SWAP1 SWAP2 AND SWAP3 PUSH4 0x63BA5DF7 SWAP3 PUSH1 0x4 DUP1 DUP5 ADD SWAP4 SWAP2 SWAP3 SWAP2 DUP3 SWAP1 SUB ADD DUP2 DUP7 GAS STATICCALL ISZERO DUP1 ISZERO PUSH2 0x589 JUMPI RETURNDATASIZE PUSH0 PUSH0 RETURNDATACOPY RETURNDATASIZE PUSH0 REVERT JUMPDEST POP POP POP POP PUSH1 0x40 MLOAD RETURNDATASIZE PUSH1 0x1F NOT PUSH1 0x1F DUP3 ADD AND DUP3 ADD DUP1 PUSH1 0x40 MSTORE POP DUP2 ADD SWAP1 PUSH2 0x5AD SWAP2 SWAP1 PUSH2 0x45EE JUMP JUMPDEST DUP8 LT ISZERO PUSH2 0x5CC JUMPI PUSH1 0x40 MLOAD PUSH3 0x461BCD PUSH1 0xE5 SHL DUP2 MSTORE PUSH1 0x4 ADD PUSH2 0x3ED SWAP1 PUSH2 0x4657 JUMP JUMPDEST PUSH1 0x4 SLOAD PUSH0 SUB PUSH2 0x5E6 JUMPI PUSH2 0x5E1 DUP2 PUSH0 PUSH1 0x1 PUSH2 0x1B27 JUMP JUMPDEST PUSH2 0x62B JUMP JUMPDEST PUSH1 0x4 PUSH0 DUP2 SLOAD DUP2 LT PUSH2 0x5F9 JUMPI PUSH2 0x5F9 PUSH2 0x46A9 JUMP JUMPDEST SWAP1 PUSH0 MSTORE PUSH1 0x20 PUSH0 KECCAK256 SWAP1 PUSH1 0x6 MUL ADD PUSH1 0x2 ADD SLOAD DUP2 PUSH1 0x40 ADD MLOAD LT ISZERO PUSH2 0x620 JUMPI PUSH2 0x5E1 DUP2 PUSH0 PUSH1 0x1 PUSH2 0x1B27 JUMP JUMPDEST PUSH2 0x62B PUSH1 0x4 DUP3 PUSH2 0x21FC JUMP JUMPDEST POP POP POP POP POP POP POP POP POP JUMP JUMPDEST PUSH2 0x63E PUSH2 0x4225 JUMP JUMPDEST PUSH1 0x3 DUP3 DUP2 SLOAD DUP2 LT PUSH2 0x651 JUMPI PUSH2 0x651 PUSH2 0x46A9 JUMP JUMPDEST PUSH0 SWAP2 DUP3 MSTORE PUSH1 0x20 SWAP2 DUP3 SWAP1 KECCAK256 PUSH1 0x40 DUP1 MLOAD PUSH2 0x100 DUP2 ADD DUP3 MSTORE PUSH1 0x6 SWAP1 SWAP4 MUL SWAP1 SWAP2 ADD DUP1 SLOAD DUP4 MSTORE PUSH1 0x1 DUP2 ADD SLOAD PUSH1 0x1 PUSH1 0x1 PUSH1 0xA0 SHL SUB AND SWAP4 DUP4 ADD SWAP4 SWAP1 SWAP4 MSTORE PUSH1 0x2 DUP4 ADD SLOAD SWAP1 DUP3 ADD MSTORE PUSH1 0x3 DUP3 ADD SLOAD PUSH1 0x60 DUP3 ADD MSTORE PUSH1 0x4 DUP3 ADD SLOAD PUSH1 0x80 DUP3 ADD MSTORE PUSH1 0x5 DUP3 ADD SLOAD SWAP1 SWAP2 SWAP1 PUSH1 0xA0 DUP4 ADD SWAP1 PUSH1 0xFF AND DUP1 ISZERO PUSH2 0x6C2 JUMPI PUSH2 0x6C2 PUSH2 0x4337 JUMP JUMPDEST DUP1 ISZERO PUSH2 0x6D0 JUMPI PUSH2 0x6D0 PUSH2 0x4337 JUMP JUMPDEST DUP2 MSTORE PUSH1 0x20 ADD PUSH1 0x5 DUP3 ADD PUSH1 0x1 SWAP1 SLOAD SWAP1 PUSH2 0x100 EXP SWAP1 DIV PUSH1 0xFF AND PUSH1 0x2 DUP2 GT ISZERO PUSH2 0x6F8 JUMPI PUSH2 0x6F8 PUSH2 0x4337 JUMP JUMPDEST PUSH1 0x2 DUP2 GT ISZERO PUSH2 0x709 JUMPI PUSH2 0x709 PUSH2 0x4337 JUMP JUMPDEST DUP2 MSTORE PUSH1 0x5 SWAP2 SWAP1 SWAP2 ADD SLOAD PUSH3 0x10000 SWAP1 DIV PUSH1 0xFF AND ISZERO ISZERO PUSH1 0x20 SWAP1 SWAP2 ADD MSTORE SWAP3 SWAP2 POP POP JUMP JUMPDEST CALLER PUSH0 SWAP1 DUP2 MSTORE PUSH1 0x2 PUSH1 0x20 MSTORE PUSH1 0x40 SWAP1 KECCAK256 SLOAD PUSH1 0xFF AND PUSH2 0x757 JUMPI PUSH1 0x40 MLOAD PUSH3 0x461BCD PUSH1 0xE5 SHL DUP2 MSTORE PUSH1 0x4 ADD PUSH2 0x3ED SWAP1 PUSH2 0x45A9 JUMP JUMPDEST PUSH2 0x75F PUSH2 0x26E3 JUMP JUMPDEST PUSH2 0x767 PUSH2 0x1AE2 JUMP JUMPDEST PUSH1 0x1 PUSH1 0x1 PUSH1 0xA0 SHL SUB DUP3 AND PUSH0 SWAP1 DUP2 MSTORE PUSH1 0x2 PUSH1 0x20 MSTORE PUSH1 0x40 SWAP1 KECCAK256 DUP1 SLOAD PUSH1 0xFF NOT AND DUP3 ISZERO ISZERO OR SWAP1 SSTORE PUSH1 0x1 DUP1 SSTORE POP POP JUMP JUMPDEST CALLER PUSH0 SWAP1 DUP2 MSTORE PUSH1 0x2 PUSH1 0x20 MSTORE PUSH1 0x40 SWAP1 KECCAK256 SLOAD PUSH1 0xFF AND PUSH2 0x7C0 JUMPI PUSH1 0x40 MLOAD PUSH3 0x461BCD PUSH1 0xE5 SHL DUP2 MSTORE PUSH1 0x4 ADD PUSH2 0x3ED SWAP1 PUSH2 0x45A9 JUMP JUMPDEST PUSH1 0xA DUP1 SLOAD PUSH1 0x1 PUSH1 0x1 PUSH1 0xA0 SHL SUB NOT AND PUSH1 0x1 PUSH1 0x1 PUSH1 0xA0 SHL SUB SWAP3 SWAP1 SWAP3 AND SWAP2 SWAP1 SWAP2 OR SWAP1 SSTORE JUMP JUMPDEST CALLER PUSH0 SWAP1 DUP2 MSTORE PUSH1 0x2 PUSH1 0x20 MSTORE PUSH1 0x40 SWAP1 KECCAK256 SLOAD PUSH1 0xFF AND PUSH2 0x810 JUMPI PUSH1 0x40 MLOAD PUSH3 0x461BCD PUSH1 0xE5 SHL DUP2 MSTORE PUSH1 0x4 ADD PUSH2 0x3ED SWAP1 PUSH2 0x45A9 JUMP JUMPDEST PUSH1 0x3 SLOAD DUP2 LT PUSH2 0x831 JUMPI PUSH1 0x40 MLOAD PUSH3 0x461BCD PUSH1 0xE5 SHL DUP2 MSTORE PUSH1 0x4 ADD PUSH2 0x3ED SWAP1 PUSH2 0x46BD JUMP JUMPDEST DUP1 JUMPDEST PUSH1 0x3 SLOAD PUSH2 0x842 SWAP1 PUSH1 0x1 SWAP1 PUSH2 0x46EA JUMP JUMPDEST DUP2 LT ISZERO PUSH2 0x96C JUMPI PUSH1 0x3 PUSH2 0x856 DUP3 PUSH1 0x1 PUSH2 0x4619 JUMP JUMPDEST DUP2 SLOAD DUP2 LT PUSH2 0x866 JUMPI PUSH2 0x866 PUSH2 0x46A9 JUMP JUMPDEST SWAP1 PUSH0 MSTORE PUSH1 0x20 PUSH0 KECCAK256 SWAP1 PUSH1 0x6 MUL ADD PUSH1 0x3 DUP3 DUP2 SLOAD DUP2 LT PUSH2 0x885 JUMPI PUSH2 0x885 PUSH2 0x46A9 JUMP JUMPDEST PUSH0 SWAP2 DUP3 MSTORE PUSH1 0x20 SWAP1 SWAP2 KECCAK256 DUP3 SLOAD PUSH1 0x6 SWAP1 SWAP3 MUL ADD SWAP1 DUP2 SSTORE PUSH1 0x1 DUP1 DUP4 ADD SLOAD DUP2 DUP4 ADD DUP1 SLOAD PUSH1 0x1 PUSH1 0x1 PUSH1 0xA0 SHL SUB NOT AND PUSH1 0x1 PUSH1 0x1 PUSH1 0xA0 SHL SUB SWAP1 SWAP3 AND SWAP2 SWAP1 SWAP2 OR SWAP1 SSTORE PUSH1 0x2 DUP1 DUP5 ADD SLOAD SWAP1 DUP4 ADD SSTORE PUSH1 0x3 DUP1 DUP5 ADD SLOAD SWAP1 DUP4 ADD SSTORE PUSH1 0x4 DUP1 DUP5 ADD SLOAD SWAP1 DUP4 ADD SSTORE PUSH1 0x5 DUP1 DUP5 ADD SLOAD SWAP1 DUP4 ADD DUP1 SLOAD PUSH1 0xFF SWAP1 SWAP3 AND SWAP3 SWAP1 SWAP2 PUSH1 0xFF NOT AND SWAP1 DUP4 DUP1 ISZERO PUSH2 0x904 JUMPI PUSH2 0x904 PUSH2 0x4337 JUMP JUMPDEST MUL OR SWAP1 SSTORE POP PUSH1 0x5 DUP3 DUP2 ADD SLOAD SWAP1 DUP3 ADD DUP1 SLOAD PUSH1 0xFF PUSH2 0x100 SWAP4 DUP5 SWAP1 DIV AND SWAP3 PUSH2 0xFF00 NOT SWAP1 SWAP2 AND SWAP1 DUP4 PUSH1 0x2 DUP2 GT ISZERO PUSH2 0x939 JUMPI PUSH2 0x939 PUSH2 0x4337 JUMP JUMPDEST MUL OR SWAP1 SSTORE POP PUSH1 0x5 SWAP2 DUP3 ADD SLOAD SWAP2 ADD DUP1 SLOAD PUSH3 0xFF0000 NOT AND PUSH3 0x10000 SWAP3 DUP4 SWAP1 DIV PUSH1 0xFF AND ISZERO ISZERO SWAP1 SWAP3 MUL SWAP2 SWAP1 SWAP2 OR SWAP1 SSTORE PUSH1 0x1 ADD PUSH2 0x833 JUMP JUMPDEST POP PUSH1 0x3 DUP1 SLOAD DUP1 PUSH2 0x97E JUMPI PUSH2 0x97E PUSH2 0x46FD JUMP JUMPDEST PUSH0 DUP3 DUP2 MSTORE PUSH1 0x20 DUP2 KECCAK256 PUSH1 0x6 PUSH0 NOT SWAP1 SWAP4 ADD SWAP3 DUP4 MUL ADD DUP2 DUP2 SSTORE PUSH1 0x1 DUP2 ADD DUP1 SLOAD PUSH1 0x1 PUSH1 0x1 PUSH1 0xA0 SHL SUB NOT AND SWAP1 SSTORE PUSH1 0x2 DUP2 ADD DUP3 SWAP1 SSTORE PUSH1 0x3 DUP2 ADD DUP3 SWAP1 SSTORE PUSH1 0x4 DUP2 ADD SWAP2 SWAP1 SWAP2 SSTORE PUSH1 0x5 ADD DUP1 SLOAD PUSH3 0xFFFFFF NOT AND SWAP1 SSTORE SWAP1 SSTORE POP JUMP JUMPDEST CALLER PUSH0 SWAP1 DUP2 MSTORE PUSH1 0x2 PUSH1 0x20 MSTORE PUSH1 0x40 SWAP1 KECCAK256 SLOAD PUSH1 0xFF AND PUSH2 0x9FC JUMPI PUSH1 0x40 MLOAD PUSH3 0x461BCD PUSH1 0xE5 SHL DUP2 MSTORE PUSH1 0x4 ADD PUSH2 0x3ED SWAP1 PUSH2 0x45A9 JUMP JUMPDEST PUSH2 0xA04 PUSH2 0x26E3 JUMP JUMPDEST PUSH2 0xA0C PUSH2 0x1AE2 JUMP JUMPDEST PUSH1 0x9 PUSH0 SWAP1 SLOAD SWAP1 PUSH2 0x100 EXP SWAP1 DIV PUSH1 0x1 PUSH1 0x1 PUSH1 0xA0 SHL SUB AND PUSH1 0x1 PUSH1 0x1 PUSH1 0xA0 SHL SUB AND PUSH4 0x63BA5DF7 PUSH1 0x40 MLOAD DUP2 PUSH4 0xFFFFFFFF AND PUSH1 0xE0 SHL DUP2 MSTORE PUSH1 0x4 ADD PUSH1 0x20 PUSH1 0x40 MLOAD DUP1 DUP4 SUB DUP2 DUP7 GAS STATICCALL ISZERO DUP1 ISZERO PUSH2 0xA5C JUMPI RETURNDATASIZE PUSH0 PUSH0 RETURNDATACOPY RETURNDATASIZE PUSH0 REVERT JUMPDEST POP POP POP POP PUSH1 0x40 MLOAD RETURNDATASIZE PUSH1 0x1F NOT PUSH1 0x1F DUP3 ADD AND DUP3 ADD DUP1 PUSH1 0x40 MSTORE POP DUP2 ADD SWAP1 PUSH2 0xA80 SWAP2 SWAP1 PUSH2 0x45EE JUMP JUMPDEST DUP2 LT ISZERO PUSH2 0xA9F JUMPI PUSH1 0x40 MLOAD PUSH3 0x461BCD PUSH1 0xE5 SHL DUP2 MSTORE PUSH1 0x4 ADD PUSH2 0x3ED SWAP1 PUSH2 0x4657 JUMP JUMPDEST PUSH0 JUMPDEST PUSH1 0x3 SLOAD DUP2 LT ISZERO PUSH2 0xF48 JUMPI DUP3 PUSH1 0x3 DUP3 DUP2 SLOAD DUP2 LT PUSH2 0xABF JUMPI PUSH2 0xABF PUSH2 0x46A9 JUMP JUMPDEST SWAP1 PUSH0 MSTORE PUSH1 0x20 PUSH0 KECCAK256 SWAP1 PUSH1 0x6 MUL ADD PUSH0 ADD SLOAD SUB PUSH2 0xF40 JUMPI PUSH0 PUSH1 0x3 DUP3 DUP2 SLOAD DUP2 LT PUSH2 0xAE7 JUMPI PUSH2 0xAE7 PUSH2 0x46A9 JUMP JUMPDEST PUSH0 SWAP2 DUP3 MSTORE PUSH1 0x20 SWAP1 SWAP2 KECCAK256 PUSH1 0x6 SWAP1 SWAP2 MUL ADD PUSH1 0x1 DUP2 ADD SLOAD SWAP1 SWAP2 POP PUSH1 0x1 PUSH1 0x1 PUSH1 0xA0 SHL SUB DUP7 DUP2 AND SWAP2 AND EQ PUSH2 0xB28 JUMPI PUSH1 0x40 MLOAD PUSH3 0x461BCD PUSH1 0xE5 SHL DUP2 MSTORE PUSH1 0x4 ADD PUSH2 0x3ED SWAP1 PUSH2 0x4711 JUMP JUMPDEST PUSH1 0x3 DUP2 ADD SLOAD PUSH1 0x2 DUP3 ADD SLOAD PUSH0 SWAP1 PUSH2 0x3E8 SWAP1 PUSH2 0xB43 SWAP1 DUP5 SWAP1 PUSH2 0x4754 JUMP JUMPDEST PUSH2 0xB4D SWAP2 SWAP1 PUSH2 0x476B JUMP JUMPDEST SWAP1 POP PUSH0 PUSH2 0x3E8 PUSH2 0xB5D DUP5 DUP9 PUSH2 0x4754 JUMP JUMPDEST PUSH2 0xB67 SWAP2 SWAP1 PUSH2 0x476B JUMP JUMPDEST SWAP1 POP DUP2 DUP2 GT ISZERO PUSH2 0xBEF JUMPI PUSH0 PUSH2 0xB7C DUP4 DUP4 PUSH2 0x46EA JUMP JUMPDEST PUSH1 0x5 SLOAD PUSH1 0x1 DUP8 DUP2 ADD SLOAD PUSH1 0x40 MLOAD PUSH4 0x42AF7A0D PUSH1 0xE1 SHL DUP2 MSTORE SWAP4 SWAP5 POP PUSH1 0x1 PUSH1 0x1 PUSH1 0xA0 SHL SUB SWAP3 DUP4 AND SWAP4 PUSH4 0x855EF41A SWAP4 PUSH2 0xBBC SWAP4 SWAP3 AND SWAP2 PUSH1 0x2 SWAP2 DUP8 SWAP2 SWAP1 PUSH1 0x4 ADD PUSH2 0x478A JUMP JUMPDEST PUSH0 PUSH1 0x40 MLOAD DUP1 DUP4 SUB DUP2 PUSH0 DUP8 DUP1 EXTCODESIZE ISZERO DUP1 ISZERO PUSH2 0xBD3 JUMPI PUSH0 PUSH0 REVERT JUMPDEST POP GAS CALL ISZERO DUP1 ISZERO PUSH2 0xBE5 JUMPI RETURNDATASIZE PUSH0 PUSH0 RETURNDATACOPY RETURNDATASIZE PUSH0 REVERT JUMPDEST POP POP POP POP POP PUSH2 0xE1F JUMP JUMPDEST PUSH0 PUSH2 0xBFA DUP3 DUP5 PUSH2 0x46EA JUMP JUMPDEST PUSH1 0x5 SLOAD PUSH1 0x1 DUP8 ADD SLOAD PUSH1 0x40 MLOAD PUSH4 0x47DB8591 PUSH1 0xE0 SHL DUP2 MSTORE SWAP3 SWAP4 POP PUSH0 SWAP3 PUSH1 0x1 PUSH1 0x1 PUSH1 0xA0 SHL SUB SWAP3 DUP4 AND SWAP3 PUSH4 0x47DB8591 SWAP3 PUSH2 0xC38 SWAP3 SWAP2 AND SWAP1 PUSH1 0x2 SWAP1 PUSH1 0x4 ADD PUSH2 0x47BE JUMP JUMPDEST PUSH1 0x20 PUSH1 0x40 MLOAD DUP1 DUP4 SUB DUP2 DUP7 GAS STATICCALL ISZERO DUP1 ISZERO PUSH2 0xC53 JUMPI RETURNDATASIZE PUSH0 PUSH0 RETURNDATACOPY RETURNDATASIZE PUSH0 REVERT JUMPDEST POP POP POP POP PUSH1 0x40 MLOAD RETURNDATASIZE PUSH1 0x1F NOT PUSH1 0x1F DUP3 ADD AND DUP3 ADD DUP1 PUSH1 0x40 MSTORE POP DUP2 ADD SWAP1 PUSH2 0xC77 SWAP2 SWAP1 PUSH2 0x45EE JUMP JUMPDEST SWAP1 POP DUP2 DUP2 LT ISZERO PUSH2 0xCD8 JUMPI PUSH1 0x40 MLOAD PUSH3 0x461BCD PUSH1 0xE5 SHL DUP2 MSTORE PUSH1 0x20 PUSH1 0x4 DUP3 ADD MSTORE PUSH1 0x26 PUSH1 0x24 DUP3 ADD MSTORE PUSH32 0x496E73756666696369656E7420657363726F772062616C616E636520666F7220 PUSH1 0x44 DUP3 ADD MSTORE PUSH6 0x1C99599D5B99 PUSH1 0xD2 SHL PUSH1 0x64 DUP3 ADD MSTORE PUSH1 0x84 ADD PUSH2 0x3ED JUMP JUMPDEST PUSH1 0x5 SLOAD PUSH1 0x40 MLOAD PUSH4 0x5F80A9CF PUSH1 0xE0 SHL DUP2 MSTORE PUSH1 0x4 DUP2 ADD DUP5 SWAP1 MSTORE PUSH1 0x1 PUSH1 0x1 PUSH1 0xA0 SHL SUB SWAP1 SWAP2 AND SWAP1 PUSH4 0x5F80A9CF SWAP1 PUSH1 0x24 ADD PUSH0 PUSH1 0x40 MLOAD DUP1 DUP4 SUB DUP2 PUSH0 DUP8 DUP1 EXTCODESIZE ISZERO DUP1 ISZERO PUSH2 0xD1B JUMPI PUSH0 PUSH0 REVERT JUMPDEST POP GAS CALL ISZERO DUP1 ISZERO PUSH2 0xD2D JUMPI RETURNDATASIZE PUSH0 PUSH0 RETURNDATACOPY RETURNDATASIZE PUSH0 REVERT JUMPDEST POP POP PUSH1 0x6 SLOAD PUSH1 0x5 SLOAD PUSH1 0x1 DUP11 ADD SLOAD PUSH1 0x40 MLOAD PUSH4 0x23B872DD PUSH1 0xE0 SHL DUP2 MSTORE PUSH1 0x1 PUSH1 0x1 PUSH1 0xA0 SHL SUB SWAP4 DUP5 AND SWAP6 POP PUSH4 0x23B872DD SWAP5 POP PUSH2 0xD71 SWAP4 SWAP3 DUP4 AND SWAP3 SWAP1 SWAP2 AND SWAP1 DUP8 SWAP1 PUSH1 0x4 ADD PUSH2 0x47DB JUMP JUMPDEST PUSH1 0x20 PUSH1 0x40 MLOAD DUP1 DUP4 SUB DUP2 PUSH0 DUP8 GAS CALL ISZERO DUP1 ISZERO PUSH2 0xD8D JUMPI RETURNDATASIZE PUSH0 PUSH0 RETURNDATACOPY RETURNDATASIZE PUSH0 REVERT JUMPDEST POP POP POP POP PUSH1 0x40 MLOAD RETURNDATASIZE PUSH1 0x1F NOT PUSH1 0x1F DUP3 ADD AND DUP3 ADD DUP1 PUSH1 0x40 MSTORE POP DUP2 ADD SWAP1 PUSH2 0xDB1 SWAP2 SWAP1 PUSH2 0x47FF JUMP JUMPDEST POP PUSH1 0x5 SLOAD PUSH1 0x1 DUP8 ADD SLOAD PUSH1 0x40 MLOAD PUSH4 0x42AF7A0D PUSH1 0xE1 SHL DUP2 MSTORE PUSH1 0x1 PUSH1 0x1 PUSH1 0xA0 SHL SUB SWAP3 DUP4 AND SWAP3 PUSH4 0x855EF41A SWAP3 PUSH2 0xDEF SWAP3 SWAP2 AND SWAP1 PUSH1 0x2 SWAP1 DUP8 SWAP1 PUSH0 SWAP1 PUSH1 0x4 ADD PUSH2 0x478A JUMP JUMPDEST PUSH0 PUSH1 0x40 MLOAD DUP1 DUP4 SUB DUP2 PUSH0 DUP8 DUP1 EXTCODESIZE ISZERO DUP1 ISZERO PUSH2 0xE06 JUMPI PUSH0 PUSH0 REVERT JUMPDEST POP GAS CALL ISZERO DUP1 ISZERO PUSH2 0xE18 JUMPI RETURNDATASIZE PUSH0 PUSH0 RETURNDATACOPY RETURNDATASIZE PUSH0 REVERT JUMPDEST POP POP POP POP POP POP JUMPDEST PUSH1 0x2 DUP5 ADD DUP7 SWAP1 SSTORE PUSH1 0x40 DUP1 MLOAD PUSH2 0x100 DUP2 ADD DUP3 MSTORE DUP6 SLOAD DUP2 MSTORE PUSH1 0x1 DUP7 ADD SLOAD PUSH1 0x1 PUSH1 0x1 PUSH1 0xA0 SHL SUB AND PUSH1 0x20 DUP3 ADD MSTORE SWAP1 DUP2 ADD DUP8 SWAP1 MSTORE PUSH1 0x3 DUP6 ADD SLOAD PUSH1 0x60 DUP3 ADD MSTORE PUSH1 0x4 DUP6 ADD SLOAD PUSH1 0x80 DUP3 ADD MSTORE PUSH1 0x5 DUP6 ADD SLOAD PUSH0 SWAP2 SWAP1 DUP7 SWAP1 PUSH1 0xA0 DUP4 ADD SWAP1 PUSH1 0xFF AND DUP1 ISZERO PUSH2 0xE82 JUMPI PUSH2 0xE82 PUSH2 0x4337 JUMP JUMPDEST DUP1 ISZERO PUSH2 0xE90 JUMPI PUSH2 0xE90 PUSH2 0x4337 JUMP JUMPDEST DUP2 MSTORE PUSH1 0x20 ADD PUSH1 0x5 DUP3 ADD PUSH1 0x1 SWAP1 SLOAD SWAP1 PUSH2 0x100 EXP SWAP1 DIV PUSH1 0xFF AND PUSH1 0x2 DUP2 GT ISZERO PUSH2 0xEB8 JUMPI PUSH2 0xEB8 PUSH2 0x4337 JUMP JUMPDEST PUSH1 0x2 DUP2 GT ISZERO PUSH2 0xEC9 JUMPI PUSH2 0xEC9 PUSH2 0x4337 JUMP JUMPDEST DUP2 MSTORE PUSH1 0x5 SWAP2 SWAP1 SWAP2 ADD SLOAD PUSH3 0x10000 SWAP1 DIV PUSH1 0xFF AND ISZERO ISZERO PUSH1 0x20 SWAP1 SWAP2 ADD MSTORE SWAP1 POP PUSH2 0xEF1 PUSH1 0x3 DUP8 PUSH0 PUSH2 0x270D JUMP JUMPDEST PUSH1 0x4 SLOAD ISZERO DUP1 ISZERO SWAP1 PUSH2 0xF24 JUMPI POP PUSH1 0x4 PUSH0 DUP2 SLOAD DUP2 LT PUSH2 0xF10 JUMPI PUSH2 0xF10 PUSH2 0x46A9 JUMP JUMPDEST SWAP1 PUSH0 MSTORE PUSH1 0x20 PUSH0 KECCAK256 SWAP1 PUSH1 0x6 MUL ADD PUSH1 0x2 ADD SLOAD DUP8 LT ISZERO JUMPDEST ISZERO PUSH2 0xF35 JUMPI PUSH2 0xF35 DUP2 PUSH1 0x1 PUSH0 PUSH2 0x1B27 JUMP JUMPDEST POP POP POP POP POP POP PUSH2 0xF83 JUMP JUMPDEST PUSH1 0x1 ADD PUSH2 0xAA1 JUMP JUMPDEST POP PUSH1 0x40 MLOAD PUSH3 0x461BCD PUSH1 0xE5 SHL DUP2 MSTORE PUSH1 0x20 PUSH1 0x4 DUP3 ADD MSTORE PUSH1 0xF PUSH1 0x24 DUP3 ADD MSTORE PUSH15 0x13DC99195C881B9BDD08199BDD5B99 PUSH1 0x8A SHL PUSH1 0x44 DUP3 ADD MSTORE PUSH1 0x64 ADD PUSH2 0x3ED JUMP JUMPDEST PUSH2 0xF8C PUSH1 0x1 DUP1 SSTORE JUMP JUMPDEST POP POP POP JUMP JUMPDEST PUSH2 0xF99 PUSH2 0x4225 JUMP JUMPDEST PUSH1 0x4 PUSH0 DUP2 SLOAD DUP2 LT PUSH2 0xFAC JUMPI PUSH2 0xFAC PUSH2 0x46A9 JUMP JUMPDEST PUSH0 SWAP2 DUP3 MSTORE PUSH1 0x20 SWAP2 DUP3 SWAP1 KECCAK256 PUSH1 0x40 DUP1 MLOAD PUSH2 0x100 DUP2 ADD DUP3 MSTORE PUSH1 0x6 SWAP1 SWAP4 MUL SWAP1 SWAP2 ADD DUP1 SLOAD DUP4 MSTORE PUSH1 0x1 DUP2 ADD SLOAD PUSH1 0x1 PUSH1 0x1 PUSH1 0xA0 SHL SUB AND SWAP4 DUP4 ADD SWAP4 SWAP1 SWAP4 MSTORE PUSH1 0x2 DUP4 ADD SLOAD SWAP1 DUP3 ADD MSTORE PUSH1 0x3 DUP3 ADD SLOAD PUSH1 0x60 DUP3 ADD MSTORE PUSH1 0x4 DUP3 ADD SLOAD PUSH1 0x80 DUP3 ADD MSTORE PUSH1 0x5 DUP3 ADD SLOAD SWAP1 SWAP2 SWAP1 PUSH1 0xA0 DUP4 ADD SWAP1 PUSH1 0xFF AND DUP1 ISZERO PUSH2 0x101D JUMPI PUSH2 0x101D PUSH2 0x4337 JUMP JUMPDEST DUP1 ISZERO PUSH2 0x102B JUMPI PUSH2 0x102B PUSH2 0x4337 JUMP JUMPDEST DUP2 MSTORE PUSH1 0x20 ADD PUSH1 0x5 DUP3 ADD PUSH1 0x1 SWAP1 SLOAD SWAP1 PUSH2 0x100 EXP SWAP1 DIV PUSH1 0xFF AND PUSH1 0x2 DUP2 GT ISZERO PUSH2 0x1053 JUMPI PUSH2 0x1053 PUSH2 0x4337 JUMP JUMPDEST PUSH1 0x2 DUP2 GT ISZERO PUSH2 0x1064 JUMPI PUSH2 0x1064 PUSH2 0x4337 JUMP JUMPDEST DUP2 MSTORE PUSH1 0x5 SWAP2 SWAP1 SWAP2 ADD SLOAD PUSH3 0x10000 SWAP1 DIV PUSH1 0xFF AND ISZERO ISZERO PUSH1 0x20 SWAP1 SWAP2 ADD MSTORE SWAP2 SWAP1 POP JUMP JUMPDEST CALLER PUSH0 SWAP1 DUP2 MSTORE PUSH1 0x2 PUSH1 0x20 MSTORE PUSH1 0x40 SWAP1 KECCAK256 SLOAD PUSH1 0xFF AND PUSH2 0x10B1 JUMPI PUSH1 0x40 MLOAD PUSH3 0x461BCD PUSH1 0xE5 SHL DUP2 MSTORE PUSH1 0x4 ADD PUSH2 0x3ED SWAP1 PUSH2 0x45A9 JUMP JUMPDEST PUSH2 0x10B9 PUSH2 0x1AE2 JUMP JUMPDEST PUSH1 0x6 SLOAD PUSH1 0x40 MLOAD PUSH4 0x95EA7B3 PUSH1 0xE0 SHL DUP2 MSTORE PUSH1 0x1 PUSH1 0x1 PUSH1 0xA0 SHL SUB SWAP1 SWAP2 AND SWAP1 PUSH4 0x95EA7B3 SWAP1 PUSH2 0x10EB SWAP1 DUP6 SWAP1 DUP6 SWAP1 PUSH1 0x4 ADD PUSH2 0x481A JUMP JUMPDEST PUSH1 0x20 PUSH1 0x40 MLOAD DUP1 DUP4 SUB DUP2 PUSH0 DUP8 GAS CALL ISZERO DUP1 ISZERO PUSH2 0x1107 JUMPI RETURNDATASIZE PUSH0 PUSH0 RETURNDATACOPY RETURNDATASIZE PUSH0 REVERT JUMPDEST POP POP POP POP PUSH1 0x40 MLOAD RETURNDATASIZE PUSH1 0x1F NOT PUSH1 0x1F DUP3 ADD AND DUP3 ADD DUP1 PUSH1 0x40 MSTORE POP DUP2 ADD SWAP1 PUSH2 0xF8C SWAP2 SWAP1 PUSH2 0x47FF JUMP JUMPDEST CALLER PUSH0 SWAP1 DUP2 MSTORE PUSH1 0x2 PUSH1 0x20 MSTORE PUSH1 0x40 SWAP1 KECCAK256 SLOAD PUSH1 0xFF AND PUSH2 0x1159 JUMPI PUSH1 0x40 MLOAD PUSH3 0x461BCD PUSH1 0xE5 SHL DUP2 MSTORE PUSH1 0x4 ADD PUSH2 0x3ED SWAP1 PUSH2 0x45A9 JUMP JUMPDEST PUSH2 0x1161 PUSH2 0x26E3 JUMP JUMPDEST PUSH2 0x1169 PUSH2 0x324B JUMP JUMPDEST PUSH2 0x1172 PUSH1 0x1 DUP1 SSTORE JUMP JUMPDEST JUMP JUMPDEST PUSH1 0x60 PUSH1 0x3 DUP1 SLOAD DUP1 PUSH1 0x20 MUL PUSH1 0x20 ADD PUSH1 0x40 MLOAD SWAP1 DUP2 ADD PUSH1 0x40 MSTORE DUP1 SWAP3 SWAP2 SWAP1 DUP2 DUP2 MSTORE PUSH1 0x20 ADD PUSH0 SWAP1 JUMPDEST DUP3 DUP3 LT ISZERO PUSH2 0x1280 JUMPI PUSH0 DUP5 DUP2 MSTORE PUSH1 0x20 SWAP1 DUP2 SWAP1 KECCAK256 PUSH1 0x40 DUP1 MLOAD PUSH2 0x100 DUP2 ADD DUP3 MSTORE PUSH1 0x6 DUP7 MUL SWAP1 SWAP3 ADD DUP1 SLOAD DUP4 MSTORE PUSH1 0x1 DUP2 ADD SLOAD PUSH1 0x1 PUSH1 0x1 PUSH1 0xA0 SHL SUB AND SWAP4 DUP4 ADD SWAP4 SWAP1 SWAP4 MSTORE PUSH1 0x2 DUP4 ADD SLOAD SWAP1 DUP3 ADD MSTORE PUSH1 0x3 DUP3 ADD SLOAD PUSH1 0x60 DUP3 ADD MSTORE PUSH1 0x4 DUP3 ADD SLOAD PUSH1 0x80 DUP3 ADD MSTORE PUSH1 0x5 DUP3 ADD SLOAD SWAP1 SWAP2 SWAP1 PUSH1 0xA0 DUP4 ADD SWAP1 PUSH1 0xFF AND DUP1 ISZERO PUSH2 0x120F JUMPI PUSH2 0x120F PUSH2 0x4337 JUMP JUMPDEST DUP1 ISZERO PUSH2 0x121D JUMPI PUSH2 0x121D PUSH2 0x4337 JUMP JUMPDEST DUP2 MSTORE PUSH1 0x20 ADD PUSH1 0x5 DUP3 ADD PUSH1 0x1 SWAP1 SLOAD SWAP1 PUSH2 0x100 EXP SWAP1 DIV PUSH1 0xFF AND PUSH1 0x2 DUP2 GT ISZERO PUSH2 0x1245 JUMPI PUSH2 0x1245 PUSH2 0x4337 JUMP JUMPDEST PUSH1 0x2 DUP2 GT ISZERO PUSH2 0x1256 JUMPI PUSH2 0x1256 PUSH2 0x4337 JUMP JUMPDEST DUP2 MSTORE PUSH1 0x5 SWAP2 SWAP1 SWAP2 ADD SLOAD PUSH1 0xFF PUSH3 0x10000 SWAP1 SWAP2 DIV AND ISZERO ISZERO PUSH1 0x20 SWAP2 DUP3 ADD MSTORE SWAP1 DUP3 MSTORE PUSH1 0x1 SWAP1 SWAP3 ADD SWAP2 ADD PUSH2 0x1197 JUMP JUMPDEST POP POP POP POP SWAP1 POP SWAP1 JUMP JUMPDEST PUSH2 0x1291 PUSH2 0x4225 JUMP JUMPDEST PUSH1 0x4 DUP3 DUP2 SLOAD DUP2 LT PUSH2 0x651 JUMPI PUSH2 0x651 PUSH2 0x46A9 JUMP JUMPDEST CALLER PUSH0 SWAP1 DUP2 MSTORE PUSH1 0x2 PUSH1 0x20 MSTORE PUSH1 0x40 SWAP1 KECCAK256 SLOAD PUSH1 0xFF AND PUSH2 0x12D2 JUMPI PUSH1 0x40 MLOAD PUSH3 0x461BCD PUSH1 0xE5 SHL DUP2 MSTORE PUSH1 0x4 ADD PUSH2 0x3ED SWAP1 PUSH2 0x45A9 JUMP JUMPDEST PUSH2 0x12DA PUSH2 0x26E3 JUMP JUMPDEST PUSH2 0x12E2 PUSH2 0x1AE2 JUMP JUMPDEST PUSH0 PUSH1 0x40 MLOAD DUP1 PUSH2 0x100 ADD PUSH1 0x40 MSTORE DUP1 DUP10 DUP2 MSTORE PUSH1 0x20 ADD DUP9 PUSH1 0x1 PUSH1 0x1 PUSH1 0xA0 SHL SUB AND DUP2 MSTORE PUSH1 0x20 ADD DUP8 DUP2 MSTORE PUSH1 0x20 ADD DUP7 DUP2 MSTORE PUSH1 0x20 ADD PUSH0 DUP2 MSTORE PUSH1 0x20 ADD DUP6 PUSH0 DUP2 GT ISZERO PUSH2 0x1327 JUMPI PUSH2 0x1327 PUSH2 0x4337 JUMP JUMPDEST DUP2 MSTORE PUSH1 0x20 ADD DUP5 PUSH1 0x2 DUP2 GT ISZERO PUSH2 0x133E JUMPI PUSH2 0x133E PUSH2 0x4337 JUMP JUMPDEST DUP2 MSTORE DUP4 ISZERO ISZERO PUSH1 0x20 SWAP2 DUP3 ADD MSTORE PUSH1 0x9 SLOAD PUSH1 0x40 DUP1 MLOAD PUSH4 0x63BA5DF7 PUSH1 0xE0 SHL DUP2 MSTORE SWAP1 MLOAD SWAP4 SWAP5 POP PUSH1 0x1 PUSH1 0x1 PUSH1 0xA0 SHL SUB SWAP1 SWAP2 AND SWAP3 PUSH4 0x63BA5DF7 SWAP3 PUSH1 0x4 DUP1 DUP5 ADD SWAP4 SWAP2 SWAP3 SWAP2 DUP3 SWAP1 SUB ADD DUP2 DUP7 GAS STATICCALL ISZERO DUP1 ISZERO PUSH2 0x1391 JUMPI RETURNDATASIZE PUSH0 PUSH0 RETURNDATACOPY RETURNDATASIZE PUSH0 REVERT JUMPDEST POP POP POP POP PUSH1 0x40 MLOAD RETURNDATASIZE PUSH1 0x1F NOT PUSH1 0x1F DUP3 ADD AND DUP3 ADD DUP1 PUSH1 0x40 MSTORE POP DUP2 ADD SWAP1 PUSH2 0x13B5 SWAP2 SWAP1 PUSH2 0x45EE JUMP JUMPDEST DUP7 LT ISZERO PUSH2 0x13D4 JUMPI PUSH1 0x40 MLOAD PUSH3 0x461BCD PUSH1 0xE5 SHL DUP2 MSTORE PUSH1 0x4 ADD PUSH2 0x3ED SWAP1 PUSH2 0x4657 JUMP JUMPDEST PUSH1 0x3 SLOAD PUSH0 SUB PUSH2 0x13EE JUMPI PUSH2 0x13E9 DUP2 PUSH1 0x1 DUP1 PUSH2 0x1B27 JUMP JUMPDEST PUSH2 0x1433 JUMP JUMPDEST PUSH1 0x3 PUSH0 DUP2 SLOAD DUP2 LT PUSH2 0x1401 JUMPI PUSH2 0x1401 PUSH2 0x46A9 JUMP JUMPDEST SWAP1 PUSH0 MSTORE PUSH1 0x20 PUSH0 KECCAK256 SWAP1 PUSH1 0x6 MUL ADD PUSH1 0x2 ADD SLOAD DUP2 PUSH1 0x40 ADD MLOAD GT ISZERO PUSH2 0x1428 JUMPI PUSH2 0x13E9 DUP2 PUSH1 0x1 DUP1 PUSH2 0x1B27 JUMP JUMPDEST PUSH2 0x1433 PUSH1 0x3 DUP3 PUSH2 0x3296 JUMP JUMPDEST POP PUSH2 0x143D PUSH1 0x1 DUP1 SSTORE JUMP JUMPDEST POP POP POP POP POP POP POP JUMP JUMPDEST CALLER PUSH0 SWAP1 DUP2 MSTORE PUSH1 0x2 PUSH1 0x20 MSTORE PUSH1 0x40 SWAP1 KECCAK256 SLOAD PUSH1 0xFF AND PUSH2 0x1474 JUMPI PUSH1 0x40 MLOAD PUSH3 0x461BCD PUSH1 0xE5 SHL DUP2 MSTORE PUSH1 0x4 ADD PUSH2 0x3ED SWAP1 PUSH2 0x45A9 JUMP JUMPDEST PUSH2 0x147C PUSH2 0x26E3 JUMP JUMPDEST PUSH2 0x1484 PUSH2 0x1AE2 JUMP JUMPDEST PUSH2 0x1169 PUSH2 0x3693 JUMP JUMPDEST PUSH2 0x1494 PUSH2 0x4225 JUMP JUMPDEST PUSH1 0x3 PUSH0 DUP2 SLOAD DUP2 LT PUSH2 0xFAC JUMPI PUSH2 0xFAC PUSH2 0x46A9 JUMP JUMPDEST CALLER PUSH0 SWAP1 DUP2 MSTORE PUSH1 0x2 PUSH1 0x20 MSTORE PUSH1 0x40 SWAP1 KECCAK256 SLOAD PUSH1 0xFF AND PUSH2 0x14D5 JUMPI PUSH1 0x40 MLOAD PUSH3 0x461BCD PUSH1 0xE5 SHL DUP2 MSTORE PUSH1 0x4 ADD PUSH2 0x3ED SWAP1 PUSH2 0x45A9 JUMP JUMPDEST PUSH2 0x14DD PUSH2 0x26E3 JUMP JUMPDEST PUSH2 0x14E5 PUSH2 0x1AE2 JUMP JUMPDEST PUSH1 0x9 PUSH0 SWAP1 SLOAD SWAP1 PUSH2 0x100 EXP SWAP1 DIV PUSH1 0x1 PUSH1 0x1 PUSH1 0xA0 SHL SUB AND PUSH1 0x1 PUSH1 0x1 PUSH1 0xA0 SHL SUB AND PUSH4 0x63BA5DF7 PUSH1 0x40 MLOAD DUP2 PUSH4 0xFFFFFFFF AND PUSH1 0xE0 SHL DUP2 MSTORE PUSH1 0x4 ADD PUSH1 0x20 PUSH1 0x40 MLOAD DUP1 DUP4 SUB DUP2 DUP7 GAS STATICCALL ISZERO DUP1 ISZERO PUSH2 0x1535 JUMPI RETURNDATASIZE PUSH0 PUSH0 RETURNDATACOPY RETURNDATASIZE PUSH0 REVERT JUMPDEST POP POP POP POP PUSH1 0x40 MLOAD RETURNDATASIZE PUSH1 0x1F NOT PUSH1 0x1F DUP3 ADD AND DUP3 ADD DUP1 PUSH1 0x40 MSTORE POP DUP2 ADD SWAP1 PUSH2 0x1559 SWAP2 SWAP1 PUSH2 0x45EE JUMP JUMPDEST DUP2 LT ISZERO PUSH2 0x1578 JUMPI PUSH1 0x40 MLOAD PUSH3 0x461BCD PUSH1 0xE5 SHL DUP2 MSTORE PUSH1 0x4 ADD PUSH2 0x3ED SWAP1 PUSH2 0x4657 JUMP JUMPDEST PUSH0 JUMPDEST PUSH1 0x4 SLOAD DUP2 LT ISZERO PUSH2 0xF48 JUMPI DUP3 PUSH1 0x4 DUP3 DUP2 SLOAD DUP2 LT PUSH2 0x1598 JUMPI PUSH2 0x1598 PUSH2 0x46A9 JUMP JUMPDEST SWAP1 PUSH0 MSTORE PUSH1 0x20 PUSH0 KECCAK256 SWAP1 PUSH1 0x6 MUL ADD PUSH0 ADD SLOAD SUB PUSH2 0x171F JUMPI PUSH0 PUSH1 0x4 DUP3 DUP2 SLOAD DUP2 LT PUSH2 0x15C0 JUMPI PUSH2 0x15C0 PUSH2 0x46A9 JUMP JUMPDEST PUSH0 SWAP2 DUP3 MSTORE PUSH1 0x20 SWAP1 SWAP2 KECCAK256 PUSH1 0x6 SWAP1 SWAP2 MUL ADD PUSH1 0x1 DUP2 ADD SLOAD SWAP1 SWAP2 POP PUSH1 0x1 PUSH1 0x1 PUSH1 0xA0 SHL SUB DUP7 DUP2 AND SWAP2 AND EQ PUSH2 0x1601 JUMPI PUSH1 0x40 MLOAD PUSH3 0x461BCD PUSH1 0xE5 SHL DUP2 MSTORE PUSH1 0x4 ADD PUSH2 0x3ED SWAP1 PUSH2 0x4711 JUMP JUMPDEST PUSH1 0x2 DUP2 ADD DUP4 SWAP1 SSTORE PUSH1 0x40 DUP1 MLOAD PUSH2 0x100 DUP2 ADD DUP3 MSTORE DUP3 SLOAD DUP2 MSTORE PUSH1 0x1 DUP4 ADD SLOAD PUSH1 0x1 PUSH1 0x1 PUSH1 0xA0 SHL SUB AND PUSH1 0x20 DUP3 ADD MSTORE SWAP1 DUP2 ADD DUP5 SWAP1 MSTORE PUSH1 0x3 DUP3 ADD SLOAD PUSH1 0x60 DUP3 ADD MSTORE PUSH1 0x4 DUP3 ADD SLOAD PUSH1 0x80 DUP3 ADD MSTORE PUSH1 0x5 DUP3 ADD SLOAD PUSH0 SWAP2 SWAP1 DUP4 SWAP1 PUSH1 0xA0 DUP4 ADD SWAP1 PUSH1 0xFF AND DUP1 ISZERO PUSH2 0x1664 JUMPI PUSH2 0x1664 PUSH2 0x4337 JUMP JUMPDEST DUP1 ISZERO PUSH2 0x1672 JUMPI PUSH2 0x1672 PUSH2 0x4337 JUMP JUMPDEST DUP2 MSTORE PUSH1 0x20 ADD PUSH1 0x5 DUP3 ADD PUSH1 0x1 SWAP1 SLOAD SWAP1 PUSH2 0x100 EXP SWAP1 DIV PUSH1 0xFF AND PUSH1 0x2 DUP2 GT ISZERO PUSH2 0x169A JUMPI PUSH2 0x169A PUSH2 0x4337 JUMP JUMPDEST PUSH1 0x2 DUP2 GT ISZERO PUSH2 0x16AB JUMPI PUSH2 0x16AB PUSH2 0x4337 JUMP JUMPDEST DUP2 MSTORE PUSH1 0x5 SWAP2 SWAP1 SWAP2 ADD SLOAD PUSH3 0x10000 SWAP1 DIV PUSH1 0xFF AND ISZERO ISZERO PUSH1 0x20 SWAP1 SWAP2 ADD MSTORE SWAP1 POP PUSH2 0x16D4 PUSH1 0x4 DUP5 PUSH1 0x1 PUSH2 0x270D JUMP JUMPDEST PUSH1 0x3 SLOAD ISZERO DUP1 ISZERO SWAP1 PUSH2 0x1707 JUMPI POP PUSH1 0x3 PUSH0 DUP2 SLOAD DUP2 LT PUSH2 0x16F3 JUMPI PUSH2 0x16F3 PUSH2 0x46A9 JUMP JUMPDEST SWAP1 PUSH0 MSTORE PUSH1 0x20 PUSH0 KECCAK256 SWAP1 PUSH1 0x6 MUL ADD PUSH1 0x2 ADD SLOAD DUP5 GT ISZERO JUMPDEST ISZERO PUSH2 0x1717 JUMPI PUSH2 0x1717 DUP2 PUSH0 PUSH0 PUSH2 0x1B27 JUMP JUMPDEST POP POP POP PUSH2 0xF83 JUMP JUMPDEST PUSH1 0x1 ADD PUSH2 0x157A JUMP JUMPDEST PUSH1 0x4 DUP2 DUP2 SLOAD DUP2 LT PUSH2 0x1736 JUMPI PUSH0 DUP1 REVERT JUMPDEST PUSH0 SWAP2 DUP3 MSTORE PUSH1 0x20 SWAP1 SWAP2 KECCAK256 PUSH1 0x6 SWAP1 SWAP2 MUL ADD DUP1 SLOAD PUSH1 0x1 DUP3 ADD SLOAD PUSH1 0x2 DUP4 ADD SLOAD PUSH1 0x3 DUP5 ADD SLOAD PUSH1 0x4 DUP6 ADD SLOAD PUSH1 0x5 SWAP1 SWAP6 ADD SLOAD SWAP4 SWAP6 POP PUSH1 0x1 PUSH1 0x1 PUSH1 0xA0 SHL SUB SWAP1 SWAP3 AND SWAP4 SWAP1 SWAP3 PUSH1 0xFF DUP1 DUP3 AND SWAP2 PUSH2 0x100 DUP2 DIV DUP3 AND SWAP2 PUSH3 0x10000 SWAP1 SWAP2 DIV AND DUP9 JUMP JUMPDEST CALLER PUSH0 SWAP1 DUP2 MSTORE PUSH1 0x2 PUSH1 0x20 MSTORE PUSH1 0x40 SWAP1 KECCAK256 SLOAD PUSH1 0xFF AND PUSH2 0x17B9 JUMPI PUSH1 0x40 MLOAD PUSH3 0x461BCD PUSH1 0xE5 SHL DUP2 MSTORE PUSH1 0x4 ADD PUSH2 0x3ED SWAP1 PUSH2 0x45A9 JUMP JUMPDEST PUSH1 0x4 SLOAD DUP2 LT PUSH2 0x17DA JUMPI PUSH1 0x40 MLOAD PUSH3 0x461BCD PUSH1 0xE5 SHL DUP2 MSTORE PUSH1 0x4 ADD PUSH2 0x3ED SWAP1 PUSH2 0x46BD JUMP JUMPDEST DUP1 JUMPDEST PUSH1 0x4 SLOAD PUSH2 0x17EB SWAP1 PUSH1 0x1 SWAP1 PUSH2 0x46EA JUMP JUMPDEST DUP2 LT ISZERO PUSH2 0x1915 JUMPI PUSH1 0x4 PUSH2 0x17FF DUP3 PUSH1 0x1 PUSH2 0x4619 JUMP JUMPDEST DUP2 SLOAD DUP2 LT PUSH2 0x180F JUMPI PUSH2 0x180F PUSH2 0x46A9 JUMP JUMPDEST SWAP1 PUSH0 MSTORE PUSH1 0x20 PUSH0 KECCAK256 SWAP1 PUSH1 0x6 MUL ADD PUSH1 0x4 DUP3 DUP2 SLOAD DUP2 LT PUSH2 0x182E JUMPI PUSH2 0x182E PUSH2 0x46A9 JUMP JUMPDEST PUSH0 SWAP2 DUP3 MSTORE PUSH1 0x20 SWAP1 SWAP2 KECCAK256 DUP3 SLOAD PUSH1 0x6 SWAP1 SWAP3 MUL ADD SWAP1 DUP2 SSTORE PUSH1 0x1 DUP1 DUP4 ADD SLOAD DUP2 DUP4 ADD DUP1 SLOAD PUSH1 0x1 PUSH1 0x1 PUSH1 0xA0 SHL SUB NOT AND PUSH1 0x1 PUSH1 0x1 PUSH1 0xA0 SHL SUB SWAP1 SWAP3 AND SWAP2 SWAP1 SWAP2 OR SWAP1 SSTORE PUSH1 0x2 DUP1 DUP5 ADD SLOAD SWAP1 DUP4 ADD SSTORE PUSH1 0x3 DUP1 DUP5 ADD SLOAD SWAP1 DUP4 ADD SSTORE PUSH1 0x4 DUP1 DUP5 ADD SLOAD SWAP1 DUP4 ADD SSTORE PUSH1 0x5 DUP1 DUP5 ADD SLOAD SWAP1 DUP4 ADD DUP1 SLOAD PUSH1 0xFF SWAP1 SWAP3 AND SWAP3 SWAP1 SWAP2 PUSH1 0xFF NOT AND SWAP1 DUP4 DUP1 ISZERO PUSH2 0x18AD JUMPI PUSH2 0x18AD PUSH2 0x4337 JUMP JUMPDEST MUL OR SWAP1 SSTORE POP PUSH1 0x5 DUP3 DUP2 ADD SLOAD SWAP1 DUP3 ADD DUP1 SLOAD PUSH1 0xFF PUSH2 0x100 SWAP4 DUP5 SWAP1 DIV AND SWAP3 PUSH2 0xFF00 NOT SWAP1 SWAP2 AND SWAP1 DUP4 PUSH1 0x2 DUP2 GT ISZERO PUSH2 0x18E2 JUMPI PUSH2 0x18E2 PUSH2 0x4337 JUMP JUMPDEST MUL OR SWAP1 SSTORE POP PUSH1 0x5 SWAP2 DUP3 ADD SLOAD SWAP2 ADD DUP1 SLOAD PUSH3 0xFF0000 NOT AND PUSH3 0x10000 SWAP3 DUP4 SWAP1 DIV PUSH1 0xFF AND ISZERO ISZERO SWAP1 SWAP3 MUL SWAP2 SWAP1 SWAP2 OR SWAP1 SSTORE PUSH1 0x1 ADD PUSH2 0x17DC JUMP JUMPDEST POP PUSH1 0x4 DUP1 SLOAD DUP1 PUSH2 0x97E JUMPI PUSH2 0x97E PUSH2 0x46FD JUMP JUMPDEST PUSH1 0x3 DUP2 DUP2 SLOAD DUP2 LT PUSH2 0x1736 JUMPI PUSH0 DUP1 REVERT JUMPDEST PUSH1 0x60 PUSH1 0x4 DUP1 SLOAD DUP1 PUSH1 0x20 MUL PUSH1 0x20 ADD PUSH1 0x40 MLOAD SWAP1 DUP2 ADD PUSH1 0x40 MSTORE DUP1 SWAP3 SWAP2 SWAP1 DUP2 DUP2 MSTORE PUSH1 0x20 ADD PUSH0 SWAP1 JUMPDEST DUP3 DUP3 LT ISZERO PUSH2 0x1280 JUMPI PUSH0 DUP5 DUP2 MSTORE PUSH1 0x20 SWAP1 DUP2 SWAP1 KECCAK256 PUSH1 0x40 DUP1 MLOAD PUSH2 0x100 DUP2 ADD DUP3 MSTORE PUSH1 0x6 DUP7 MUL SWAP1 SWAP3 ADD DUP1 SLOAD DUP4 MSTORE PUSH1 0x1 DUP2 ADD SLOAD PUSH1 0x1 PUSH1 0x1 PUSH1 0xA0 SHL SUB AND SWAP4 DUP4 ADD SWAP4 SWAP1 SWAP4 MSTORE PUSH1 0x2 DUP4 ADD SLOAD SWAP1 DUP3 ADD MSTORE PUSH1 0x3 DUP3 ADD SLOAD PUSH1 0x60 DUP3 ADD MSTORE PUSH1 0x4 DUP3 ADD SLOAD PUSH1 0x80 DUP3 ADD MSTORE PUSH1 0x5 DUP3 ADD SLOAD SWAP1 SWAP2 SWAP1 PUSH1 0xA0 DUP4 ADD SWAP1 PUSH1 0xFF AND DUP1 ISZERO PUSH2 0x19D1 JUMPI PUSH2 0x19D1 PUSH2 0x4337 JUMP JUMPDEST DUP1 ISZERO PUSH2 0x19DF JUMPI PUSH2 0x19DF PUSH2 0x4337 JUMP JUMPDEST DUP2 MSTORE PUSH1 0x20 ADD PUSH1 0x5 DUP3 ADD PUSH1 0x1 SWAP1 SLOAD SWAP1 PUSH2 0x100 EXP SWAP1 DIV PUSH1 0xFF AND PUSH1 0x2 DUP2 GT ISZERO PUSH2 0x1A07 JUMPI PUSH2 0x1A07 PUSH2 0x4337 JUMP JUMPDEST PUSH1 0x2 DUP2 GT ISZERO PUSH2 0x1A18 JUMPI PUSH2 0x1A18 PUSH2 0x4337 JUMP JUMPDEST DUP2 MSTORE PUSH1 0x5 SWAP2 SWAP1 SWAP2 ADD SLOAD PUSH1 0xFF PUSH3 0x10000 SWAP1 SWAP2 DIV AND ISZERO ISZERO PUSH1 0x20 SWAP2 DUP3 ADD MSTORE SWAP1 DUP3 MSTORE PUSH1 0x1 SWAP1 SWAP3 ADD SWAP2 ADD PUSH2 0x1959 JUMP JUMPDEST CALLER PUSH0 SWAP1 DUP2 MSTORE PUSH1 0x2 PUSH1 0x20 MSTORE PUSH1 0x40 SWAP1 KECCAK256 SLOAD PUSH1 0xFF AND PUSH2 0x1A70 JUMPI PUSH1 0x40 MLOAD PUSH3 0x461BCD PUSH1 0xE5 SHL DUP2 MSTORE PUSH1 0x4 ADD PUSH2 0x3ED SWAP1 PUSH2 0x45A9 JUMP JUMPDEST PUSH2 0x1A78 PUSH2 0x26E3 JUMP JUMPDEST PUSH2 0x1A80 PUSH2 0x1AE2 JUMP JUMPDEST PUSH1 0x6 DUP1 SLOAD PUSH1 0x1 PUSH1 0x1 PUSH1 0xA0 SHL SUB NOT SWAP1 DUP2 AND PUSH1 0x1 PUSH1 0x1 PUSH1 0xA0 SHL SUB DUP9 DUP2 AND SWAP2 SWAP1 SWAP2 OR SWAP1 SWAP3 SSTORE PUSH1 0x7 DUP1 SLOAD DUP3 AND DUP8 DUP5 AND OR SWAP1 SSTORE PUSH1 0x8 DUP1 SLOAD DUP3 AND DUP7 DUP5 AND OR SWAP1 SSTORE PUSH1 0x9 DUP1 SLOAD DUP3 AND DUP6 DUP5 AND OR SWAP1 SSTORE PUSH1 0x5 DUP1 SLOAD SWAP1 SWAP2 AND SWAP2 DUP4 AND SWAP2 SWAP1 SWAP2 OR SWAP1 SSTORE PUSH1 0x1 DUP1 SSTORE JUMPDEST POP POP POP POP POP JUMP JUMPDEST PUSH0 SLOAD PUSH1 0xFF AND ISZERO PUSH2 0x1172 JUMPI PUSH1 0x40 MLOAD PUSH3 0x461BCD PUSH1 0xE5 SHL DUP2 MSTORE PUSH1 0x20 PUSH1 0x4 DUP3 ADD MSTORE PUSH1 0x10 PUSH1 0x24 DUP3 ADD MSTORE PUSH16 0x14185D5CD8589B194E881C185D5CD959 PUSH1 0x82 SHL PUSH1 0x44 DUP3 ADD MSTORE PUSH1 0x64 ADD PUSH2 0x3ED JUMP JUMPDEST PUSH2 0x1B2F PUSH2 0x1AE2 JUMP JUMPDEST PUSH1 0x60 DUP4 ADD MLOAD PUSH0 SWAP1 DUP2 DUP5 PUSH2 0x1B43 JUMPI PUSH1 0x3 PUSH2 0x1B46 JUMP JUMPDEST PUSH1 0x4 JUMPDEST SWAP1 POP PUSH0 JUMPDEST DUP2 SLOAD DUP2 LT ISZERO PUSH2 0x1CC9 JUMPI PUSH0 DUP3 DUP3 DUP2 SLOAD DUP2 LT PUSH2 0x1B66 JUMPI PUSH2 0x1B66 PUSH2 0x46A9 JUMP JUMPDEST SWAP1 PUSH0 MSTORE PUSH1 0x20 PUSH0 KECCAK256 SWAP1 PUSH1 0x6 MUL ADD SWAP1 POP DUP7 ISZERO DUP1 ISZERO PUSH2 0x1B8C JUMPI POP PUSH1 0x5 DUP2 ADD SLOAD PUSH3 0x10000 SWAP1 DIV PUSH1 0xFF AND JUMPDEST ISZERO PUSH2 0x1C1A JUMPI PUSH1 0x9 SLOAD PUSH1 0x20 DUP10 ADD MLOAD PUSH1 0x40 MLOAD PUSH4 0x237B64EF PUSH1 0xE1 SHL DUP2 MSTORE PUSH1 0x1 PUSH1 0x1 PUSH1 0xA0 SHL SUB SWAP1 SWAP3 AND SWAP2 PUSH4 0x46F6C9DE SWAP2 PUSH2 0x1BC4 SWAP2 PUSH1 0x4 ADD PUSH2 0x4433 JUMP JUMPDEST PUSH1 0x20 PUSH1 0x40 MLOAD DUP1 DUP4 SUB DUP2 DUP7 GAS STATICCALL ISZERO DUP1 ISZERO PUSH2 0x1BDF JUMPI RETURNDATASIZE PUSH0 PUSH0 RETURNDATACOPY RETURNDATASIZE PUSH0 REVERT JUMPDEST POP POP POP POP PUSH1 0x40 MLOAD RETURNDATASIZE PUSH1 0x1F NOT PUSH1 0x1F DUP3 ADD AND DUP3 ADD DUP1 PUSH1 0x40 MSTORE POP DUP2 ADD SWAP1 PUSH2 0x1C03 SWAP2 SWAP1 PUSH2 0x47FF JUMP JUMPDEST PUSH2 0x1C1A JUMPI DUP2 PUSH2 0x1C11 DUP2 PUSH2 0x4833 JUMP JUMPDEST SWAP3 POP POP POP PUSH2 0x1B4A JUMP JUMPDEST PUSH0 DUP8 PUSH2 0x1C31 JUMPI DUP2 PUSH1 0x2 ADD SLOAD DUP10 PUSH1 0x40 ADD MLOAD GT ISZERO PUSH2 0x1C3E JUMP JUMPDEST DUP2 PUSH1 0x2 ADD SLOAD DUP10 PUSH1 0x40 ADD MLOAD LT ISZERO JUMPDEST SWAP1 POP DUP1 PUSH2 0x1C4C JUMPI POP POP PUSH2 0x1CC9 JUMP JUMPDEST PUSH2 0x1C5A DUP6 DUP4 PUSH1 0x3 ADD SLOAD PUSH2 0x36CF JUMP JUMPDEST SWAP6 POP PUSH2 0x1C68 DUP10 DUP4 DUP9 DUP12 PUSH2 0x36E6 JUMP JUMPDEST PUSH2 0x1C72 DUP7 DUP7 PUSH2 0x46EA JUMP JUMPDEST SWAP5 POP DUP6 DUP3 PUSH1 0x3 ADD PUSH0 DUP3 DUP3 SLOAD PUSH2 0x1C87 SWAP2 SWAP1 PUSH2 0x46EA JUMP JUMPDEST SWAP1 SWAP2 SSTORE POP POP PUSH1 0x3 DUP3 ADD SLOAD PUSH0 SUB PUSH2 0x1CA6 JUMPI PUSH2 0x1CA1 DUP5 DUP5 PUSH2 0x3A39 JUMP JUMPDEST PUSH2 0x1CB4 JUMP JUMPDEST DUP3 PUSH2 0x1CB0 DUP2 PUSH2 0x4833 JUMP JUMPDEST SWAP4 POP POP JUMPDEST DUP5 PUSH0 SUB PUSH2 0x1CC2 JUMPI POP POP PUSH2 0x1CC9 JUMP JUMPDEST POP POP PUSH2 0x1B4A JUMP JUMPDEST PUSH0 DUP7 PUSH2 0x1CD6 JUMPI PUSH1 0x4 PUSH2 0x1CD9 JUMP JUMPDEST PUSH1 0x3 JUMPDEST SWAP1 POP DUP4 ISZERO PUSH2 0x21E3 JUMPI PUSH1 0x60 DUP9 ADD DUP5 SWAP1 MSTORE PUSH0 DUP1 JUMPDEST DUP3 SLOAD DUP2 LT ISZERO PUSH2 0x1E13 JUMPI DUP10 PUSH0 ADD MLOAD DUP4 DUP3 DUP2 SLOAD DUP2 LT PUSH2 0x1D0A JUMPI PUSH2 0x1D0A PUSH2 0x46A9 JUMP JUMPDEST SWAP1 PUSH0 MSTORE PUSH1 0x20 PUSH0 KECCAK256 SWAP1 PUSH1 0x6 MUL ADD PUSH0 ADD SLOAD SUB PUSH2 0x1E0B JUMPI DUP10 DUP4 DUP3 DUP2 SLOAD DUP2 LT PUSH2 0x1D31 JUMPI PUSH2 0x1D31 PUSH2 0x46A9 JUMP JUMPDEST PUSH0 SWAP2 DUP3 MSTORE PUSH1 0x20 SWAP2 DUP3 SWAP1 KECCAK256 DUP4 MLOAD PUSH1 0x6 SWAP3 SWAP1 SWAP3 MUL ADD SWAP1 DUP2 SSTORE SWAP1 DUP3 ADD MLOAD PUSH1 0x1 DUP1 DUP4 ADD DUP1 SLOAD PUSH1 0x1 PUSH1 0x1 PUSH1 0xA0 SHL SUB NOT AND PUSH1 0x1 PUSH1 0x1 PUSH1 0xA0 SHL SUB SWAP1 SWAP4 AND SWAP3 SWAP1 SWAP3 OR SWAP1 SWAP2 SSTORE PUSH1 0x40 DUP4 ADD MLOAD PUSH1 0x2 DUP4 ADD SSTORE PUSH1 0x60 DUP4 ADD MLOAD PUSH1 0x3 DUP4 ADD SSTORE PUSH1 0x80 DUP4 ADD MLOAD PUSH1 0x4 DUP4 ADD SSTORE PUSH1 0xA0 DUP4 ADD MLOAD PUSH1 0x5 DUP4 ADD DUP1 SLOAD SWAP2 SWAP3 SWAP1 SWAP2 PUSH1 0xFF NOT AND SWAP1 DUP4 DUP1 ISZERO PUSH2 0x1DAF JUMPI PUSH2 0x1DAF PUSH2 0x4337 JUMP JUMPDEST MUL OR SWAP1 SSTORE POP PUSH1 0xC0 DUP3 ADD MLOAD PUSH1 0x5 DUP3 ADD DUP1 SLOAD PUSH2 0xFF00 NOT AND PUSH2 0x100 DUP4 PUSH1 0x2 DUP2 GT ISZERO PUSH2 0x1DD9 JUMPI PUSH2 0x1DD9 PUSH2 0x4337 JUMP JUMPDEST MUL OR SWAP1 SSTORE POP PUSH1 0xE0 SWAP2 SWAP1 SWAP2 ADD MLOAD PUSH1 0x5 SWAP1 SWAP2 ADD DUP1 SLOAD SWAP2 ISZERO ISZERO PUSH3 0x10000 MUL PUSH3 0xFF0000 NOT SWAP1 SWAP3 AND SWAP2 SWAP1 SWAP2 OR SWAP1 SSTORE PUSH1 0x1 SWAP2 POP PUSH2 0x1E13 JUMP JUMPDEST PUSH1 0x1 ADD PUSH2 0x1CEB JUMP JUMPDEST POP DUP1 ISZERO PUSH2 0x1E25 JUMPI POP POP POP POP POP POP POP POP POP JUMP JUMPDEST DUP2 SLOAD PUSH1 0x14 GT PUSH2 0x1E52 JUMPI DUP8 ISZERO PUSH2 0x1E44 JUMPI PUSH2 0x1E3F DUP3 PUSH1 0x2 PUSH2 0x3BF3 JUMP JUMPDEST PUSH2 0x1E52 JUMP JUMPDEST PUSH2 0x1E52 DUP3 DUP11 PUSH1 0xA0 ADD MLOAD PUSH2 0x3EB5 JUMP JUMPDEST DUP2 SLOAD PUSH0 SWAP1 ISZERO PUSH2 0x1EDB JUMPI JUMPDEST DUP3 SLOAD DUP2 LT DUP1 ISZERO PUSH2 0x1EC4 JUMPI POP DUP9 PUSH2 0x1E9A JUMPI DUP3 DUP2 DUP2 SLOAD DUP2 LT PUSH2 0x1E7E JUMPI PUSH2 0x1E7E PUSH2 0x46A9 JUMP JUMPDEST SWAP1 PUSH0 MSTORE PUSH1 0x20 PUSH0 KECCAK256 SWAP1 PUSH1 0x6 MUL ADD PUSH1 0x2 ADD SLOAD DUP11 PUSH1 0x40 ADD MLOAD LT ISZERO PUSH2 0x1EC4 JUMP JUMPDEST DUP3 DUP2 DUP2 SLOAD DUP2 LT PUSH2 0x1EAC JUMPI PUSH2 0x1EAC PUSH2 0x46A9 JUMP JUMPDEST SWAP1 PUSH0 MSTORE PUSH1 0x20 PUSH0 KECCAK256 SWAP1 PUSH1 0x6 MUL ADD PUSH1 0x2 ADD SLOAD DUP11 PUSH1 0x40 ADD MLOAD GT ISZERO JUMPDEST ISZERO PUSH2 0x1EDB JUMPI DUP1 PUSH2 0x1ED3 DUP2 PUSH2 0x4833 JUMP JUMPDEST SWAP2 POP POP PUSH2 0x1E5C JUMP JUMPDEST DUP3 SLOAD PUSH1 0x1 DUP1 DUP3 ADD DUP6 SSTORE PUSH0 DUP6 DUP2 MSTORE PUSH1 0x20 SWAP1 DUP2 SWAP1 KECCAK256 DUP14 MLOAD PUSH1 0x6 SWAP1 SWAP5 MUL ADD SWAP3 DUP4 SSTORE DUP13 ADD MLOAD DUP3 DUP3 ADD DUP1 SLOAD PUSH1 0x1 PUSH1 0x1 PUSH1 0xA0 SHL SUB NOT AND PUSH1 0x1 PUSH1 0x1 PUSH1 0xA0 SHL SUB SWAP1 SWAP3 AND SWAP2 SWAP1 SWAP2 OR SWAP1 SSTORE PUSH1 0x40 DUP13 ADD MLOAD PUSH1 0x2 DUP4 ADD SSTORE PUSH1 0x60 DUP13 ADD MLOAD PUSH1 0x3 DUP4 ADD SSTORE PUSH1 0x80 DUP13 ADD MLOAD PUSH1 0x4 DUP4 ADD SSTORE PUSH1 0xA0 DUP13 ADD MLOAD PUSH1 0x5 DUP4 ADD DUP1 SLOAD DUP15 SWAP5 SWAP4 PUSH1 0xFF NOT SWAP1 SWAP2 AND SWAP1 DUP4 DUP1 ISZERO PUSH2 0x1F5E JUMPI PUSH2 0x1F5E PUSH2 0x4337 JUMP JUMPDEST MUL OR SWAP1 SSTORE POP PUSH1 0xC0 DUP3 ADD MLOAD PUSH1 0x5 DUP3 ADD DUP1 SLOAD PUSH2 0xFF00 NOT AND PUSH2 0x100 DUP4 PUSH1 0x2 DUP2 GT ISZERO PUSH2 0x1F88 JUMPI PUSH2 0x1F88 PUSH2 0x4337 JUMP JUMPDEST MUL OR SWAP1 SSTORE POP PUSH1 0xE0 SWAP2 SWAP1 SWAP2 ADD MLOAD PUSH1 0x5 SWAP1 SWAP2 ADD DUP1 SLOAD SWAP2 ISZERO ISZERO PUSH3 0x10000 MUL PUSH3 0xFF0000 NOT SWAP1 SWAP3 AND SWAP2 SWAP1 SWAP2 OR SWAP1 SSTORE DUP3 SLOAD PUSH0 SWAP1 PUSH2 0x1FC1 SWAP1 PUSH1 0x1 SWAP1 PUSH2 0x46EA JUMP JUMPDEST SWAP1 POP JUMPDEST DUP2 DUP2 GT ISZERO PUSH2 0x20F7 JUMPI DUP4 PUSH2 0x1FD8 PUSH1 0x1 DUP4 PUSH2 0x46EA JUMP JUMPDEST DUP2 SLOAD DUP2 LT PUSH2 0x1FE8 JUMPI PUSH2 0x1FE8 PUSH2 0x46A9 JUMP JUMPDEST SWAP1 PUSH0 MSTORE PUSH1 0x20 PUSH0 KECCAK256 SWAP1 PUSH1 0x6 MUL ADD DUP5 DUP3 DUP2 SLOAD DUP2 LT PUSH2 0x2006 JUMPI PUSH2 0x2006 PUSH2 0x46A9 JUMP JUMPDEST PUSH0 SWAP2 DUP3 MSTORE PUSH1 0x20 SWAP1 SWAP2 KECCAK256 DUP3 SLOAD PUSH1 0x6 SWAP1 SWAP3 MUL ADD SWAP1 DUP2 SSTORE PUSH1 0x1 DUP1 DUP4 ADD SLOAD DUP2 DUP4 ADD DUP1 SLOAD PUSH1 0x1 PUSH1 0x1 PUSH1 0xA0 SHL SUB NOT AND PUSH1 0x1 PUSH1 0x1 PUSH1 0xA0 SHL SUB SWAP1 SWAP3 AND SWAP2 SWAP1 SWAP2 OR SWAP1 SSTORE PUSH1 0x2 DUP1 DUP5 ADD SLOAD SWAP1 DUP4 ADD SSTORE PUSH1 0x3 DUP1 DUP5 ADD SLOAD SWAP1 DUP4 ADD SSTORE PUSH1 0x4 DUP1 DUP5 ADD SLOAD SWAP1 DUP4 ADD SSTORE PUSH1 0x5 DUP1 DUP5 ADD SLOAD SWAP1 DUP4 ADD DUP1 SLOAD PUSH1 0xFF SWAP1 SWAP3 AND SWAP3 SWAP1 SWAP2 PUSH1 0xFF NOT AND SWAP1 DUP4 DUP1 ISZERO PUSH2 0x2085 JUMPI PUSH2 0x2085 PUSH2 0x4337 JUMP JUMPDEST MUL OR SWAP1 SSTORE POP PUSH1 0x5 DUP3 DUP2 ADD SLOAD SWAP1 DUP3 ADD DUP1 SLOAD PUSH1 0xFF PUSH2 0x100 SWAP4 DUP5 SWAP1 DIV AND SWAP3 PUSH2 0xFF00 NOT SWAP1 SWAP2 AND SWAP1 DUP4 PUSH1 0x2 DUP2 GT ISZERO PUSH2 0x20BA JUMPI PUSH2 0x20BA PUSH2 0x4337 JUMP JUMPDEST MUL OR SWAP1 SSTORE POP PUSH1 0x5 SWAP2 DUP3 ADD SLOAD SWAP2 ADD DUP1 SLOAD PUSH3 0xFF0000 NOT AND PUSH3 0x10000 SWAP3 DUP4 SWAP1 DIV PUSH1 0xFF AND ISZERO ISZERO SWAP1 SWAP3 MUL SWAP2 SWAP1 SWAP2 OR SWAP1 SSTORE DUP1 PUSH2 0x20EF DUP2 PUSH2 0x484B JUMP JUMPDEST SWAP2 POP POP PUSH2 0x1FC4 JUMP JUMPDEST POP DUP10 DUP4 DUP3 DUP2 SLOAD DUP2 LT PUSH2 0x210B JUMPI PUSH2 0x210B PUSH2 0x46A9 JUMP JUMPDEST PUSH0 SWAP2 DUP3 MSTORE PUSH1 0x20 SWAP2 DUP3 SWAP1 KECCAK256 DUP4 MLOAD PUSH1 0x6 SWAP3 SWAP1 SWAP3 MUL ADD SWAP1 DUP2 SSTORE SWAP1 DUP3 ADD MLOAD PUSH1 0x1 DUP1 DUP4 ADD DUP1 SLOAD PUSH1 0x1 PUSH1 0x1 PUSH1 0xA0 SHL SUB NOT AND PUSH1 0x1 PUSH1 0x1 PUSH1 0xA0 SHL SUB SWAP1 SWAP4 AND SWAP3 SWAP1 SWAP3 OR SWAP1 SWAP2 SSTORE PUSH1 0x40 DUP4 ADD MLOAD PUSH1 0x2 DUP4 ADD SSTORE PUSH1 0x60 DUP4 ADD MLOAD PUSH1 0x3 DUP4 ADD SSTORE PUSH1 0x80 DUP4 ADD MLOAD PUSH1 0x4 DUP4 ADD SSTORE PUSH1 0xA0 DUP4 ADD MLOAD PUSH1 0x5 DUP4 ADD DUP1 SLOAD SWAP2 SWAP3 SWAP1 SWAP2 PUSH1 0xFF NOT AND SWAP1 DUP4 DUP1 ISZERO PUSH2 0x2189 JUMPI PUSH2 0x2189 PUSH2 0x4337 JUMP JUMPDEST MUL OR SWAP1 SSTORE POP PUSH1 0xC0 DUP3 ADD MLOAD PUSH1 0x5 DUP3 ADD DUP1 SLOAD PUSH2 0xFF00 NOT AND PUSH2 0x100 DUP4 PUSH1 0x2 DUP2 GT ISZERO PUSH2 0x21B3 JUMPI PUSH2 0x21B3 PUSH2 0x4337 JUMP JUMPDEST MUL OR SWAP1 SSTORE POP PUSH1 0xE0 SWAP2 SWAP1 SWAP2 ADD MLOAD PUSH1 0x5 SWAP1 SWAP2 ADD DUP1 SLOAD SWAP2 ISZERO ISZERO PUSH3 0x10000 MUL PUSH3 0xFF0000 NOT SWAP1 SWAP3 AND SWAP2 SWAP1 SWAP2 OR SWAP1 SSTORE POP POP PUSH2 0x21F2 JUMP JUMPDEST DUP6 PUSH2 0x21F2 JUMPI PUSH2 0x21F2 DUP2 DUP4 PUSH2 0x3A39 JUMP JUMPDEST POP POP POP POP POP POP POP POP JUMP JUMPDEST DUP2 SLOAD PUSH0 JUMPDEST DUP2 DUP2 LT DUP1 ISZERO PUSH2 0x2234 JUMPI POP DUP3 PUSH1 0x40 ADD MLOAD DUP5 DUP3 DUP2 SLOAD DUP2 LT PUSH2 0x2221 JUMPI PUSH2 0x2221 PUSH2 0x46A9 JUMP JUMPDEST SWAP1 PUSH0 MSTORE PUSH1 0x20 PUSH0 KECCAK256 SWAP1 PUSH1 0x6 MUL ADD PUSH1 0x2 ADD SLOAD GT ISZERO JUMPDEST ISZERO PUSH2 0x224B JUMPI DUP1 PUSH2 0x2243 DUP2 PUSH2 0x4833 JUMP JUMPDEST SWAP2 POP POP PUSH2 0x2200 JUMP JUMPDEST PUSH1 0x14 DUP3 LT PUSH2 0x23DC JUMPI PUSH0 DUP5 PUSH2 0x2260 PUSH1 0x1 DUP6 PUSH2 0x46EA JUMP JUMPDEST DUP2 SLOAD DUP2 LT PUSH2 0x2270 JUMPI PUSH2 0x2270 PUSH2 0x46A9 JUMP JUMPDEST PUSH0 SWAP2 DUP3 MSTORE PUSH1 0x20 SWAP2 DUP3 SWAP1 KECCAK256 PUSH1 0x40 DUP1 MLOAD PUSH2 0x100 DUP2 ADD DUP3 MSTORE PUSH1 0x6 SWAP1 SWAP4 MUL SWAP1 SWAP2 ADD DUP1 SLOAD DUP4 MSTORE PUSH1 0x1 DUP2 ADD SLOAD PUSH1 0x1 PUSH1 0x1 PUSH1 0xA0 SHL SUB AND SWAP4 DUP4 ADD SWAP4 SWAP1 SWAP4 MSTORE PUSH1 0x2 DUP4 ADD SLOAD SWAP1 DUP3 ADD MSTORE PUSH1 0x3 DUP3 ADD SLOAD PUSH1 0x60 DUP3 ADD MSTORE PUSH1 0x4 DUP3 ADD SLOAD PUSH1 0x80 DUP3 ADD MSTORE PUSH1 0x5 DUP3 ADD SLOAD SWAP1 SWAP2 SWAP1 PUSH1 0xA0 DUP4 ADD SWAP1 PUSH1 0xFF AND DUP1 ISZERO PUSH2 0x22E1 JUMPI PUSH2 0x22E1 PUSH2 0x4337 JUMP JUMPDEST DUP1 ISZERO PUSH2 0x22EF JUMPI PUSH2 0x22EF PUSH2 0x4337 JUMP JUMPDEST DUP2 MSTORE PUSH1 0x20 ADD PUSH1 0x5 DUP3 ADD PUSH1 0x1 SWAP1 SLOAD SWAP1 PUSH2 0x100 EXP SWAP1 DIV PUSH1 0xFF AND PUSH1 0x2 DUP2 GT ISZERO PUSH2 0x2317 JUMPI PUSH2 0x2317 PUSH2 0x4337 JUMP JUMPDEST PUSH1 0x2 DUP2 GT ISZERO PUSH2 0x2328 JUMPI PUSH2 0x2328 PUSH2 0x4337 JUMP JUMPDEST DUP2 MSTORE PUSH1 0x5 SWAP2 SWAP1 SWAP2 ADD SLOAD PUSH3 0x10000 SWAP1 DIV PUSH1 0xFF AND ISZERO ISZERO PUSH1 0x20 SWAP1 SWAP2 ADD MSTORE PUSH1 0x40 DUP2 DUP2 ADD MLOAD SWAP1 DUP7 ADD MLOAD SWAP2 SWAP3 POP GT ISZERO PUSH2 0x2378 JUMPI PUSH2 0x2363 DUP6 DUP6 PUSH1 0xA0 ADD MLOAD PUSH2 0x3EB5 JUMP JUMPDEST DUP5 SLOAD SWAP3 POP DUP3 DUP3 GT ISZERO PUSH2 0x2373 JUMPI DUP3 SWAP2 POP JUMPDEST PUSH2 0x23DA JUMP JUMPDEST PUSH1 0x40 MLOAD PUSH3 0x461BCD PUSH1 0xE5 SHL DUP2 MSTORE PUSH1 0x20 PUSH1 0x4 DUP3 ADD MSTORE PUSH1 0x31 PUSH1 0x24 DUP3 ADD MSTORE PUSH32 0x4E6577206F72646572207072696365206973206E6F74206C6F7720656E6F7567 PUSH1 0x44 DUP3 ADD MSTORE PUSH17 0x34103A379031329034B739B2B93A32B217 PUSH1 0x79 SHL PUSH1 0x64 DUP3 ADD MSTORE PUSH1 0x84 ADD PUSH2 0x3ED JUMP JUMPDEST POP JUMPDEST DUP4 SLOAD PUSH1 0x1 DUP1 DUP3 ADD DUP7 SSTORE PUSH0 DUP7 DUP2 MSTORE PUSH1 0x20 SWAP1 DUP2 SWAP1 KECCAK256 DUP7 MLOAD PUSH1 0x6 SWAP1 SWAP5 MUL ADD SWAP3 DUP4 SSTORE DUP6 ADD MLOAD DUP3 DUP3 ADD DUP1 SLOAD PUSH1 0x1 PUSH1 0x1 PUSH1 0xA0 SHL SUB NOT AND PUSH1 0x1 PUSH1 0x1 PUSH1 0xA0 SHL SUB SWAP1 SWAP3 AND SWAP2 SWAP1 SWAP2 OR SWAP1 SSTORE PUSH1 0x40 DUP6 ADD MLOAD PUSH1 0x2 DUP4 ADD SSTORE PUSH1 0x60 DUP6 ADD MLOAD PUSH1 0x3 DUP4 ADD SSTORE PUSH1 0x80 DUP6 ADD MLOAD PUSH1 0x4 DUP4 ADD SSTORE PUSH1 0xA0 DUP6 ADD MLOAD PUSH1 0x5 DUP4 ADD DUP1 SLOAD DUP8 SWAP5 SWAP4 PUSH1 0xFF NOT SWAP1 SWAP2 AND SWAP1 DUP4 DUP1 ISZERO PUSH2 0x245F JUMPI PUSH2 0x245F PUSH2 0x4337 JUMP JUMPDEST MUL OR SWAP1 SSTORE POP PUSH1 0xC0 DUP3 ADD MLOAD PUSH1 0x5 DUP3 ADD DUP1 SLOAD PUSH2 0xFF00 NOT AND PUSH2 0x100 DUP4 PUSH1 0x2 DUP2 GT ISZERO PUSH2 0x2489 JUMPI PUSH2 0x2489 PUSH2 0x4337 JUMP JUMPDEST MUL OR SWAP1 SSTORE POP PUSH1 0xE0 SWAP2 SWAP1 SWAP2 ADD MLOAD PUSH1 0x5 SWAP1 SWAP2 ADD DUP1 SLOAD SWAP2 ISZERO ISZERO PUSH3 0x10000 MUL PUSH3 0xFF0000 NOT SWAP1 SWAP3 AND SWAP2 SWAP1 SWAP2 OR SWAP1 SSTORE DUP4 SLOAD PUSH0 SWAP1 PUSH2 0x24C2 SWAP1 PUSH1 0x1 SWAP1 PUSH2 0x46EA JUMP JUMPDEST SWAP1 POP JUMPDEST DUP2 DUP2 GT ISZERO PUSH2 0x25F8 JUMPI DUP5 PUSH2 0x24D9 PUSH1 0x1 DUP4 PUSH2 0x46EA JUMP JUMPDEST DUP2 SLOAD DUP2 LT PUSH2 0x24E9 JUMPI PUSH2 0x24E9 PUSH2 0x46A9 JUMP JUMPDEST SWAP1 PUSH0 MSTORE PUSH1 0x20 PUSH0 KECCAK256 SWAP1 PUSH1 0x6 MUL ADD DUP6 DUP3 DUP2 SLOAD DUP2 LT PUSH2 0x2507 JUMPI PUSH2 0x2507 PUSH2 0x46A9 JUMP JUMPDEST PUSH0 SWAP2 DUP3 MSTORE PUSH1 0x20 SWAP1 SWAP2 KECCAK256 DUP3 SLOAD PUSH1 0x6 SWAP1 SWAP3 MUL ADD SWAP1 DUP2 SSTORE PUSH1 0x1 DUP1 DUP4 ADD SLOAD DUP2 DUP4 ADD DUP1 SLOAD PUSH1 0x1 PUSH1 0x1 PUSH1 0xA0 SHL SUB NOT AND PUSH1 0x1 PUSH1 0x1 PUSH1 0xA0 SHL SUB SWAP1 SWAP3 AND SWAP2 SWAP1 SWAP2 OR SWAP1 SSTORE PUSH1 0x2 DUP1 DUP5 ADD SLOAD SWAP1 DUP4 ADD SSTORE PUSH1 0x3 DUP1 DUP5 ADD SLOAD SWAP1 DUP4 ADD SSTORE PUSH1 0x4 DUP1 DUP5 ADD SLOAD SWAP1 DUP4 ADD SSTORE PUSH1 0x5 DUP1 DUP5 ADD SLOAD SWAP1 DUP4 ADD DUP1 SLOAD PUSH1 0xFF SWAP1 SWAP3 AND SWAP3 SWAP1 SWAP2 PUSH1 0xFF NOT AND SWAP1 DUP4 DUP1 ISZERO PUSH2 0x2586 JUMPI PUSH2 0x2586 PUSH2 0x4337 JUMP JUMPDEST MUL OR SWAP1 SSTORE POP PUSH1 0x5 DUP3 DUP2 ADD SLOAD SWAP1 DUP3 ADD DUP1 SLOAD PUSH1 0xFF PUSH2 0x100 SWAP4 DUP5 SWAP1 DIV AND SWAP3 PUSH2 0xFF00 NOT SWAP1 SWAP2 AND SWAP1 DUP4 PUSH1 0x2 DUP2 GT ISZERO PUSH2 0x25BB JUMPI PUSH2 0x25BB PUSH2 0x4337 JUMP JUMPDEST MUL OR SWAP1 SSTORE POP PUSH1 0x5 SWAP2 DUP3 ADD SLOAD SWAP2 ADD DUP1 SLOAD PUSH3 0xFF0000 NOT AND PUSH3 0x10000 SWAP3 DUP4 SWAP1 DIV PUSH1 0xFF AND ISZERO ISZERO SWAP1 SWAP3 MUL SWAP2 SWAP1 SWAP2 OR SWAP1 SSTORE DUP1 PUSH2 0x25F0 DUP2 PUSH2 0x484B JUMP JUMPDEST SWAP2 POP POP PUSH2 0x24C5 JUMP JUMPDEST POP DUP3 DUP5 DUP3 DUP2 SLOAD DUP2 LT PUSH2 0x260C JUMPI PUSH2 0x260C PUSH2 0x46A9 JUMP JUMPDEST PUSH0 SWAP2 DUP3 MSTORE PUSH1 0x20 SWAP2 DUP3 SWAP1 KECCAK256 DUP4 MLOAD PUSH1 0x6 SWAP3 SWAP1 SWAP3 MUL ADD SWAP1 DUP2 SSTORE SWAP1 DUP3 ADD MLOAD PUSH1 0x1 DUP1 DUP4 ADD DUP1 SLOAD PUSH1 0x1 PUSH1 0x1 PUSH1 0xA0 SHL SUB NOT AND PUSH1 0x1 PUSH1 0x1 PUSH1 0xA0 SHL SUB SWAP1 SWAP4 AND SWAP3 SWAP1 SWAP3 OR SWAP1 SWAP2 SSTORE PUSH1 0x40 DUP4 ADD MLOAD PUSH1 0x2 DUP4 ADD SSTORE PUSH1 0x60 DUP4 ADD MLOAD PUSH1 0x3 DUP4 ADD SSTORE PUSH1 0x80 DUP4 ADD MLOAD PUSH1 0x4 DUP4 ADD SSTORE PUSH1 0xA0 DUP4 ADD MLOAD PUSH1 0x5 DUP4 ADD DUP1 SLOAD SWAP2 SWAP3 SWAP1 SWAP2 PUSH1 0xFF NOT AND SWAP1 DUP4 DUP1 ISZERO PUSH2 0x268A JUMPI PUSH2 0x268A PUSH2 0x4337 JUMP JUMPDEST MUL OR SWAP1 SSTORE POP PUSH1 0xC0 DUP3 ADD MLOAD PUSH1 0x5 DUP3 ADD DUP1 SLOAD PUSH2 0xFF00 NOT AND PUSH2 0x100 DUP4 PUSH1 0x2 DUP2 GT ISZERO PUSH2 0x26B4 JUMPI PUSH2 0x26B4 PUSH2 0x4337 JUMP JUMPDEST MUL OR SWAP1 SSTORE POP PUSH1 0xE0 SWAP2 SWAP1 SWAP2 ADD MLOAD PUSH1 0x5 SWAP1 SWAP2 ADD DUP1 SLOAD SWAP2 ISZERO ISZERO PUSH3 0x10000 MUL PUSH3 0xFF0000 NOT SWAP1 SWAP3 AND SWAP2 SWAP1 SWAP2 OR SWAP1 SSTORE POP POP POP POP JUMP JUMPDEST PUSH1 0x2 PUSH1 0x1 SLOAD SUB PUSH2 0x2706 JUMPI PUSH1 0x40 MLOAD PUSH4 0x3EE5AEB5 PUSH1 0xE0 SHL DUP2 MSTORE PUSH1 0x4 ADD PUSH1 0x40 MLOAD DUP1 SWAP2 SUB SWAP1 REVERT JUMPDEST PUSH1 0x2 PUSH1 0x1 SSTORE JUMP JUMPDEST DUP3 SLOAD DUP3 LT PUSH2 0x272D JUMPI PUSH1 0x40 MLOAD PUSH3 0x461BCD PUSH1 0xE5 SHL DUP2 MSTORE PUSH1 0x4 ADD PUSH2 0x3ED SWAP1 PUSH2 0x46BD JUMP JUMPDEST PUSH0 DUP4 DUP4 DUP2 SLOAD DUP2 LT PUSH2 0x2740 JUMPI PUSH2 0x2740 PUSH2 0x46A9 JUMP JUMPDEST PUSH0 SWAP2 DUP3 MSTORE PUSH1 0x20 SWAP2 DUP3 SWAP1 KECCAK256 PUSH1 0x40 DUP1 MLOAD PUSH2 0x100 DUP2 ADD DUP3 MSTORE PUSH1 0x6 SWAP1 SWAP4 MUL SWAP1 SWAP2 ADD DUP1 SLOAD DUP4 MSTORE PUSH1 0x1 DUP2 ADD SLOAD PUSH1 0x1 PUSH1 0x1 PUSH1 0xA0 SHL SUB AND SWAP4 DUP4 ADD SWAP4 SWAP1 SWAP4 MSTORE PUSH1 0x2 DUP4 ADD SLOAD SWAP1 DUP3 ADD MSTORE PUSH1 0x3 DUP3 ADD SLOAD PUSH1 0x60 DUP3 ADD MSTORE PUSH1 0x4 DUP3 ADD SLOAD PUSH1 0x80 DUP3 ADD MSTORE PUSH1 0x5 DUP3 ADD SLOAD SWAP1 SWAP2 SWAP1 PUSH1 0xA0 DUP4 ADD SWAP1 PUSH1 0xFF AND DUP1 ISZERO PUSH2 0x27B1 JUMPI PUSH2 0x27B1 PUSH2 0x4337 JUMP JUMPDEST DUP1 ISZERO PUSH2 0x27BF JUMPI PUSH2 0x27BF PUSH2 0x4337 JUMP JUMPDEST DUP2 MSTORE PUSH1 0x20 ADD PUSH1 0x5 DUP3 ADD PUSH1 0x1 SWAP1 SLOAD SWAP1 PUSH2 0x100 EXP SWAP1 DIV PUSH1 0xFF AND PUSH1 0x2 DUP2 GT ISZERO PUSH2 0x27E7 JUMPI PUSH2 0x27E7 PUSH2 0x4337 JUMP JUMPDEST PUSH1 0x2 DUP2 GT ISZERO PUSH2 0x27F8 JUMPI PUSH2 0x27F8 PUSH2 0x4337 JUMP JUMPDEST DUP2 MSTORE PUSH1 0x5 SWAP2 SWAP1 SWAP2 ADD SLOAD PUSH3 0x10000 SWAP1 DIV PUSH1 0xFF AND ISZERO ISZERO PUSH1 0x20 SWAP1 SWAP2 ADD MSTORE SWAP1 POP PUSH0 DUP3 ISZERO PUSH2 0x2CBD JUMPI DUP4 JUMPDEST PUSH0 DUP2 GT DUP1 ISZERO PUSH2 0x285A JUMPI POP DUP6 PUSH2 0x2833 PUSH1 0x1 DUP4 PUSH2 0x46EA JUMP JUMPDEST DUP2 SLOAD DUP2 LT PUSH2 0x2843 JUMPI PUSH2 0x2843 PUSH2 0x46A9 JUMP JUMPDEST SWAP1 PUSH0 MSTORE PUSH1 0x20 PUSH0 KECCAK256 SWAP1 PUSH1 0x6 MUL ADD PUSH1 0x2 ADD SLOAD DUP4 PUSH1 0x40 ADD MLOAD LT JUMPDEST ISZERO PUSH2 0x2997 JUMPI DUP6 PUSH2 0x286B PUSH1 0x1 DUP4 PUSH2 0x46EA JUMP JUMPDEST DUP2 SLOAD DUP2 LT PUSH2 0x287B JUMPI PUSH2 0x287B PUSH2 0x46A9 JUMP JUMPDEST SWAP1 PUSH0 MSTORE PUSH1 0x20 PUSH0 KECCAK256 SWAP1 PUSH1 0x6 MUL ADD DUP7 DUP3 DUP2 SLOAD DUP2 LT PUSH2 0x2899 JUMPI PUSH2 0x2899 PUSH2 0x46A9 JUMP JUMPDEST PUSH0 SWAP2 DUP3 MSTORE PUSH1 0x20 SWAP1 SWAP2 KECCAK256 DUP3 SLOAD PUSH1 0x6 SWAP1 SWAP3 MUL ADD SWAP1 DUP2 SSTORE PUSH1 0x1 DUP1 DUP4 ADD SLOAD DUP2 DUP4 ADD DUP1 SLOAD PUSH1 0x1 PUSH1 0x1 PUSH1 0xA0 SHL SUB NOT AND PUSH1 0x1 PUSH1 0x1 PUSH1 0xA0 SHL SUB SWAP1 SWAP3 AND SWAP2 SWAP1 SWAP2 OR SWAP1 SSTORE PUSH1 0x2 DUP1 DUP5 ADD SLOAD SWAP1 DUP4 ADD SSTORE PUSH1 0x3 DUP1 DUP5 ADD SLOAD SWAP1 DUP4 ADD SSTORE PUSH1 0x4 DUP1 DUP5 ADD SLOAD SWAP1 DUP4 ADD SSTORE PUSH1 0x5 DUP1 DUP5 ADD SLOAD SWAP1 DUP4 ADD DUP1 SLOAD PUSH1 0xFF SWAP1 SWAP3 AND SWAP3 SWAP1 SWAP2 PUSH1 0xFF NOT AND SWAP1 DUP4 DUP1 ISZERO PUSH2 0x2918 JUMPI PUSH2 0x2918 PUSH2 0x4337 JUMP JUMPDEST MUL OR SWAP1 SSTORE POP PUSH1 0x5 DUP3 DUP2 ADD SLOAD SWAP1 DUP3 ADD DUP1 SLOAD PUSH1 0xFF PUSH2 0x100 SWAP4 DUP5 SWAP1 DIV AND SWAP3 PUSH2 0xFF00 NOT SWAP1 SWAP2 AND SWAP1 DUP4 PUSH1 0x2 DUP2 GT ISZERO PUSH2 0x294D JUMPI PUSH2 0x294D PUSH2 0x4337 JUMP JUMPDEST MUL OR SWAP1 SSTORE POP PUSH1 0x5 SWAP2 DUP3 ADD SLOAD SWAP2 ADD DUP1 SLOAD PUSH3 0xFF0000 NOT AND PUSH3 0x10000 SWAP3 DUP4 SWAP1 DIV PUSH1 0xFF AND ISZERO ISZERO SWAP1 SWAP3 MUL SWAP2 SWAP1 SWAP2 OR SWAP1 SSTORE PUSH2 0x2983 PUSH1 0x1 DUP3 PUSH2 0x46EA JUMP JUMPDEST SWAP5 POP DUP1 PUSH2 0x298F DUP2 PUSH2 0x484B JUMP JUMPDEST SWAP2 POP POP PUSH2 0x281D JUMP JUMPDEST POP DUP4 JUMPDEST DUP6 SLOAD PUSH2 0x29A8 SWAP1 PUSH1 0x1 SWAP1 PUSH2 0x46EA JUMP JUMPDEST DUP2 LT DUP1 ISZERO PUSH2 0x29E4 JUMPI POP DUP6 PUSH2 0x29BD DUP3 PUSH1 0x1 PUSH2 0x4619 JUMP JUMPDEST DUP2 SLOAD DUP2 LT PUSH2 0x29CD JUMPI PUSH2 0x29CD PUSH2 0x46A9 JUMP JUMPDEST SWAP1 PUSH0 MSTORE PUSH1 0x20 PUSH0 KECCAK256 SWAP1 PUSH1 0x6 MUL ADD PUSH1 0x2 ADD SLOAD DUP4 PUSH1 0x40 ADD MLOAD GT JUMPDEST ISZERO PUSH2 0x2B27 JUMPI DUP2 PUSH2 0x2B15 JUMPI DUP6 PUSH2 0x29FA DUP3 PUSH1 0x1 PUSH2 0x4619 JUMP JUMPDEST DUP2 SLOAD DUP2 LT PUSH2 0x2A0A JUMPI PUSH2 0x2A0A PUSH2 0x46A9 JUMP JUMPDEST SWAP1 PUSH0 MSTORE PUSH1 0x20 PUSH0 KECCAK256 SWAP1 PUSH1 0x6 MUL ADD DUP7 DUP3 DUP2 SLOAD DUP2 LT PUSH2 0x2A28 JUMPI PUSH2 0x2A28 PUSH2 0x46A9 JUMP JUMPDEST PUSH0 SWAP2 DUP3 MSTORE PUSH1 0x20 SWAP1 SWAP2 KECCAK256 DUP3 SLOAD PUSH1 0x6 SWAP1 SWAP3 MUL ADD SWAP1 DUP2 SSTORE PUSH1 0x1 DUP1 DUP4 ADD SLOAD DUP2 DUP4 ADD DUP1 SLOAD PUSH1 0x1 PUSH1 0x1 PUSH1 0xA0 SHL SUB NOT AND PUSH1 0x1 PUSH1 0x1 PUSH1 0xA0 SHL SUB SWAP1 SWAP3 AND SWAP2 SWAP1 SWAP2 OR SWAP1 SSTORE PUSH1 0x2 DUP1 DUP5 ADD SLOAD SWAP1 DUP4 ADD SSTORE PUSH1 0x3 DUP1 DUP5 ADD SLOAD SWAP1 DUP4 ADD SSTORE PUSH1 0x4 DUP1 DUP5 ADD SLOAD SWAP1 DUP4 ADD SSTORE PUSH1 0x5 DUP1 DUP5 ADD SLOAD SWAP1 DUP4 ADD DUP1 SLOAD PUSH1 0xFF SWAP1 SWAP3 AND SWAP3 SWAP1 SWAP2 PUSH1 0xFF NOT AND SWAP1 DUP4 DUP1 ISZERO PUSH2 0x2AA7 JUMPI PUSH2 0x2AA7 PUSH2 0x4337 JUMP JUMPDEST MUL OR SWAP1 SSTORE POP PUSH1 0x5 DUP3 DUP2 ADD SLOAD SWAP1 DUP3 ADD DUP1 SLOAD PUSH1 0xFF PUSH2 0x100 SWAP4 DUP5 SWAP1 DIV AND SWAP3 PUSH2 0xFF00 NOT SWAP1 SWAP2 AND SWAP1 DUP4 PUSH1 0x2 DUP2 GT ISZERO PUSH2 0x2ADC JUMPI PUSH2 0x2ADC PUSH2 0x4337 JUMP JUMPDEST MUL OR SWAP1 SSTORE POP PUSH1 0x5 SWAP2 DUP3 ADD SLOAD SWAP2 ADD DUP1 SLOAD PUSH3 0xFF0000 NOT AND PUSH3 0x10000 SWAP3 DUP4 SWAP1 DIV PUSH1 0xFF AND ISZERO ISZERO SWAP1 SWAP3 MUL SWAP2 SWAP1 SWAP2 OR SWAP1 SSTORE PUSH2 0x2B12 DUP2 PUSH1 0x1 PUSH2 0x4619 JUMP JUMPDEST SWAP5 POP JUMPDEST DUP1 PUSH2 0x2B1F DUP2 PUSH2 0x4833 JUMP JUMPDEST SWAP2 POP POP PUSH2 0x299A JUMP JUMPDEST POP DUP4 JUMPDEST DUP6 SLOAD PUSH2 0x2B38 SWAP1 PUSH1 0x1 SWAP1 PUSH2 0x46EA JUMP JUMPDEST DUP2 LT DUP1 ISZERO PUSH2 0x2B74 JUMPI POP DUP6 PUSH2 0x2B4D DUP3 PUSH1 0x1 PUSH2 0x4619 JUMP JUMPDEST DUP2 SLOAD DUP2 LT PUSH2 0x2B5D JUMPI PUSH2 0x2B5D PUSH2 0x46A9 JUMP JUMPDEST SWAP1 PUSH0 MSTORE PUSH1 0x20 PUSH0 KECCAK256 SWAP1 PUSH1 0x6 MUL ADD PUSH1 0x2 ADD SLOAD DUP4 PUSH1 0x40 ADD MLOAD EQ JUMPDEST ISZERO PUSH2 0x2CB7 JUMPI DUP2 PUSH2 0x2CA5 JUMPI DUP6 PUSH2 0x2B8A DUP3 PUSH1 0x1 PUSH2 0x4619 JUMP JUMPDEST DUP2 SLOAD DUP2 LT PUSH2 0x2B9A JUMPI PUSH2 0x2B9A PUSH2 0x46A9 JUMP JUMPDEST SWAP1 PUSH0 MSTORE PUSH1 0x20 PUSH0 KECCAK256 SWAP1 PUSH1 0x6 MUL ADD DUP7 DUP3 DUP2 SLOAD DUP2 LT PUSH2 0x2BB8 JUMPI PUSH2 0x2BB8 PUSH2 0x46A9 JUMP JUMPDEST PUSH0 SWAP2 DUP3 MSTORE PUSH1 0x20 SWAP1 SWAP2 KECCAK256 DUP3 SLOAD PUSH1 0x6 SWAP1 SWAP3 MUL ADD SWAP1 DUP2 SSTORE PUSH1 0x1 DUP1 DUP4 ADD SLOAD DUP2 DUP4 ADD DUP1 SLOAD PUSH1 0x1 PUSH1 0x1 PUSH1 0xA0 SHL SUB NOT AND PUSH1 0x1 PUSH1 0x1 PUSH1 0xA0 SHL SUB SWAP1 SWAP3 AND SWAP2 SWAP1 SWAP2 OR SWAP1 SSTORE PUSH1 0x2 DUP1 DUP5 ADD SLOAD SWAP1 DUP4 ADD SSTORE PUSH1 0x3 DUP1 DUP5 ADD SLOAD SWAP1 DUP4 ADD SSTORE PUSH1 0x4 DUP1 DUP5 ADD SLOAD SWAP1 DUP4 ADD SSTORE PUSH1 0x5 DUP1 DUP5 ADD SLOAD SWAP1 DUP4 ADD DUP1 SLOAD PUSH1 0xFF SWAP1 SWAP3 AND SWAP3 SWAP1 SWAP2 PUSH1 0xFF NOT AND SWAP1 DUP4 DUP1 ISZERO PUSH2 0x2C37 JUMPI PUSH2 0x2C37 PUSH2 0x4337 JUMP JUMPDEST MUL OR SWAP1 SSTORE POP PUSH1 0x5 DUP3 DUP2 ADD SLOAD SWAP1 DUP3 ADD DUP1 SLOAD PUSH1 0xFF PUSH2 0x100 SWAP4 DUP5 SWAP1 DIV AND SWAP3 PUSH2 0xFF00 NOT SWAP1 SWAP2 AND SWAP1 DUP4 PUSH1 0x2 DUP2 GT ISZERO PUSH2 0x2C6C JUMPI PUSH2 0x2C6C PUSH2 0x4337 JUMP JUMPDEST MUL OR SWAP1 SSTORE POP PUSH1 0x5 SWAP2 DUP3 ADD SLOAD SWAP2 ADD DUP1 SLOAD PUSH3 0xFF0000 NOT AND PUSH3 0x10000 SWAP3 DUP4 SWAP1 DIV PUSH1 0xFF AND ISZERO ISZERO SWAP1 SWAP3 MUL SWAP2 SWAP1 SWAP2 OR SWAP1 SSTORE PUSH2 0x2CA2 DUP2 PUSH1 0x1 PUSH2 0x4619 JUMP JUMPDEST SWAP5 POP JUMPDEST DUP1 PUSH2 0x2CAF DUP2 PUSH2 0x4833 JUMP JUMPDEST SWAP2 POP POP PUSH2 0x2B2A JUMP JUMPDEST POP PUSH2 0x315B JUMP JUMPDEST DUP4 JUMPDEST PUSH0 DUP2 GT DUP1 ISZERO PUSH2 0x2CFC JUMPI POP DUP6 PUSH2 0x2CD5 PUSH1 0x1 DUP4 PUSH2 0x46EA JUMP JUMPDEST DUP2 SLOAD DUP2 LT PUSH2 0x2CE5 JUMPI PUSH2 0x2CE5 PUSH2 0x46A9 JUMP JUMPDEST SWAP1 PUSH0 MSTORE PUSH1 0x20 PUSH0 KECCAK256 SWAP1 PUSH1 0x6 MUL ADD PUSH1 0x2 ADD SLOAD DUP4 PUSH1 0x40 ADD MLOAD GT JUMPDEST ISZERO PUSH2 0x2E39 JUMPI DUP6 PUSH2 0x2D0D PUSH1 0x1 DUP4 PUSH2 0x46EA JUMP JUMPDEST DUP2 SLOAD DUP2 LT PUSH2 0x2D1D JUMPI PUSH2 0x2D1D PUSH2 0x46A9 JUMP JUMPDEST SWAP1 PUSH0 MSTORE PUSH1 0x20 PUSH0 KECCAK256 SWAP1 PUSH1 0x6 MUL ADD DUP7 DUP3 DUP2 SLOAD DUP2 LT PUSH2 0x2D3B JUMPI PUSH2 0x2D3B PUSH2 0x46A9 JUMP JUMPDEST PUSH0 SWAP2 DUP3 MSTORE PUSH1 0x20 SWAP1 SWAP2 KECCAK256 DUP3 SLOAD PUSH1 0x6 SWAP1 SWAP3 MUL ADD SWAP1 DUP2 SSTORE PUSH1 0x1 DUP1 DUP4 ADD SLOAD DUP2 DUP4 ADD DUP1 SLOAD PUSH1 0x1 PUSH1 0x1 PUSH1 0xA0 SHL SUB NOT AND PUSH1 0x1 PUSH1 0x1 PUSH1 0xA0 SHL SUB SWAP1 SWAP3 AND SWAP2 SWAP1 SWAP2 OR SWAP1 SSTORE PUSH1 0x2 DUP1 DUP5 ADD SLOAD SWAP1 DUP4 ADD SSTORE PUSH1 0x3 DUP1 DUP5 ADD SLOAD SWAP1 DUP4 ADD SSTORE PUSH1 0x4 DUP1 DUP5 ADD SLOAD SWAP1 DUP4 ADD SSTORE PUSH1 0x5 DUP1 DUP5 ADD SLOAD SWAP1 DUP4 ADD DUP1 SLOAD PUSH1 0xFF SWAP1 SWAP3 AND SWAP3 SWAP1 SWAP2 PUSH1 0xFF NOT AND SWAP1 DUP4 DUP1 ISZERO PUSH2 0x2DBA JUMPI PUSH2 0x2DBA PUSH2 0x4337 JUMP JUMPDEST MUL OR SWAP1 SSTORE POP PUSH1 0x5 DUP3 DUP2 ADD SLOAD SWAP1 DUP3 ADD DUP1 SLOAD PUSH1 0xFF PUSH2 0x100 SWAP4 DUP5 SWAP1 DIV AND SWAP3 PUSH2 0xFF00 NOT SWAP1 SWAP2 AND SWAP1 DUP4 PUSH1 0x2 DUP2 GT ISZERO PUSH2 0x2DEF JUMPI PUSH2 0x2DEF PUSH2 0x4337 JUMP JUMPDEST MUL OR SWAP1 SSTORE POP PUSH1 0x5 SWAP2 DUP3 ADD SLOAD SWAP2 ADD DUP1 SLOAD PUSH3 0xFF0000 NOT AND PUSH3 0x10000 SWAP3 DUP4 SWAP1 DIV PUSH1 0xFF AND ISZERO ISZERO SWAP1 SWAP3 MUL SWAP2 SWAP1 SWAP2 OR SWAP1 SSTORE PUSH2 0x2E25 PUSH1 0x1 DUP3 PUSH2 0x46EA JUMP JUMPDEST SWAP5 POP DUP1 PUSH2 0x2E31 DUP2 PUSH2 0x484B JUMP JUMPDEST SWAP2 POP POP PUSH2 0x2CBF JUMP JUMPDEST POP DUP4 JUMPDEST DUP6 SLOAD PUSH2 0x2E4A SWAP1 PUSH1 0x1 SWAP1 PUSH2 0x46EA JUMP JUMPDEST DUP2 LT DUP1 ISZERO PUSH2 0x2E86 JUMPI POP DUP6 PUSH2 0x2E5F DUP3 PUSH1 0x1 PUSH2 0x4619 JUMP JUMPDEST DUP2 SLOAD DUP2 LT PUSH2 0x2E6F JUMPI PUSH2 0x2E6F PUSH2 0x46A9 JUMP JUMPDEST SWAP1 PUSH0 MSTORE PUSH1 0x20 PUSH0 KECCAK256 SWAP1 PUSH1 0x6 MUL ADD PUSH1 0x2 ADD SLOAD DUP4 PUSH1 0x40 ADD MLOAD LT JUMPDEST ISZERO PUSH2 0x2FC9 JUMPI DUP2 PUSH2 0x2FB7 JUMPI DUP6 PUSH2 0x2E9C DUP3 PUSH1 0x1 PUSH2 0x4619 JUMP JUMPDEST DUP2 SLOAD DUP2 LT PUSH2 0x2EAC JUMPI PUSH2 0x2EAC PUSH2 0x46A9 JUMP JUMPDEST SWAP1 PUSH0 MSTORE PUSH1 0x20 PUSH0 KECCAK256 SWAP1 PUSH1 0x6 MUL ADD DUP7 DUP3 DUP2 SLOAD DUP2 LT PUSH2 0x2ECA JUMPI PUSH2 0x2ECA PUSH2 0x46A9 JUMP JUMPDEST PUSH0 SWAP2 DUP3 MSTORE PUSH1 0x20 SWAP1 SWAP2 KECCAK256 DUP3 SLOAD PUSH1 0x6 SWAP1 SWAP3 MUL ADD SWAP1 DUP2 SSTORE PUSH1 0x1 DUP1 DUP4 ADD SLOAD DUP2 DUP4 ADD DUP1 SLOAD PUSH1 0x1 PUSH1 0x1 PUSH1 0xA0 SHL SUB NOT AND PUSH1 0x1 PUSH1 0x1 PUSH1 0xA0 SHL SUB SWAP1 SWAP3 AND SWAP2 SWAP1 SWAP2 OR SWAP1 SSTORE PUSH1 0x2 DUP1 DUP5 ADD SLOAD SWAP1 DUP4 ADD SSTORE PUSH1 0x3 DUP1 DUP5 ADD SLOAD SWAP1 DUP4 ADD SSTORE PUSH1 0x4 DUP1 DUP5 ADD SLOAD SWAP1 DUP4 ADD SSTORE PUSH1 0x5 DUP1 DUP5 ADD SLOAD SWAP1 DUP4 ADD DUP1 SLOAD PUSH1 0xFF SWAP1 SWAP3 AND SWAP3 SWAP1 SWAP2 PUSH1 0xFF NOT AND SWAP1 DUP4 DUP1 ISZERO PUSH2 0x2F49 JUMPI PUSH2 0x2F49 PUSH2 0x4337 JUMP JUMPDEST MUL OR SWAP1 SSTORE POP PUSH1 0x5 DUP3 DUP2 ADD SLOAD SWAP1 DUP3 ADD DUP1 SLOAD PUSH1 0xFF PUSH2 0x100 SWAP4 DUP5 SWAP1 DIV AND SWAP3 PUSH2 0xFF00 NOT SWAP1 SWAP2 AND SWAP1 DUP4 PUSH1 0x2 DUP2 GT ISZERO PUSH2 0x2F7E JUMPI PUSH2 0x2F7E PUSH2 0x4337 JUMP JUMPDEST MUL OR SWAP1 SSTORE POP PUSH1 0x5 SWAP2 DUP3 ADD SLOAD SWAP2 ADD DUP1 SLOAD PUSH3 0xFF0000 NOT AND PUSH3 0x10000 SWAP3 DUP4 SWAP1 DIV PUSH1 0xFF AND ISZERO ISZERO SWAP1 SWAP3 MUL SWAP2 SWAP1 SWAP2 OR SWAP1 SSTORE PUSH2 0x2FB4 DUP2 PUSH1 0x1 PUSH2 0x4619 JUMP JUMPDEST SWAP5 POP JUMPDEST DUP1 PUSH2 0x2FC1 DUP2 PUSH2 0x4833 JUMP JUMPDEST SWAP2 POP POP PUSH2 0x2E3C JUMP JUMPDEST POP DUP4 JUMPDEST DUP6 SLOAD PUSH2 0x2FDA SWAP1 PUSH1 0x1 SWAP1 PUSH2 0x46EA JUMP JUMPDEST DUP2 LT DUP1 ISZERO PUSH2 0x3016 JUMPI POP DUP6 PUSH2 0x2FEF DUP3 PUSH1 0x1 PUSH2 0x4619 JUMP JUMPDEST DUP2 SLOAD DUP2 LT PUSH2 0x2FFF JUMPI PUSH2 0x2FFF PUSH2 0x46A9 JUMP JUMPDEST SWAP1 PUSH0 MSTORE PUSH1 0x20 PUSH0 KECCAK256 SWAP1 PUSH1 0x6 MUL ADD PUSH1 0x2 ADD SLOAD DUP4 PUSH1 0x40 ADD MLOAD EQ JUMPDEST ISZERO PUSH2 0x3159 JUMPI DUP2 PUSH2 0x3147 JUMPI DUP6 PUSH2 0x302C DUP3 PUSH1 0x1 PUSH2 0x4619 JUMP JUMPDEST DUP2 SLOAD DUP2 LT PUSH2 0x303C JUMPI PUSH2 0x303C PUSH2 0x46A9 JUMP JUMPDEST SWAP1 PUSH0 MSTORE PUSH1 0x20 PUSH0 KECCAK256 SWAP1 PUSH1 0x6 MUL ADD DUP7 DUP3 DUP2 SLOAD DUP2 LT PUSH2 0x305A JUMPI PUSH2 0x305A PUSH2 0x46A9 JUMP JUMPDEST PUSH0 SWAP2 DUP3 MSTORE PUSH1 0x20 SWAP1 SWAP2 KECCAK256 DUP3 SLOAD PUSH1 0x6 SWAP1 SWAP3 MUL ADD SWAP1 DUP2 SSTORE PUSH1 0x1 DUP1 DUP4 ADD SLOAD DUP2 DUP4 ADD DUP1 SLOAD PUSH1 0x1 PUSH1 0x1 PUSH1 0xA0 SHL SUB NOT AND PUSH1 0x1 PUSH1 0x1 PUSH1 0xA0 SHL SUB SWAP1 SWAP3 AND SWAP2 SWAP1 SWAP2 OR SWAP1 SSTORE PUSH1 0x2 DUP1 DUP5 ADD SLOAD SWAP1 DUP4 ADD SSTORE PUSH1 0x3 DUP1 DUP5 ADD SLOAD SWAP1 DUP4 ADD SSTORE PUSH1 0x4 DUP1 DUP5 ADD SLOAD SWAP1 DUP4 ADD SSTORE PUSH1 0x5 DUP1 DUP5 ADD SLOAD SWAP1 DUP4 ADD DUP1 SLOAD PUSH1 0xFF SWAP1 SWAP3 AND SWAP3 SWAP1 SWAP2 PUSH1 0xFF NOT AND SWAP1 DUP4 DUP1 ISZERO PUSH2 0x30D9 JUMPI PUSH2 0x30D9 PUSH2 0x4337 JUMP JUMPDEST MUL OR SWAP1 SSTORE POP PUSH1 0x5 DUP3 DUP2 ADD SLOAD SWAP1 DUP3 ADD DUP1 SLOAD PUSH1 0xFF PUSH2 0x100 SWAP4 DUP5 SWAP1 DIV AND SWAP3 PUSH2 0xFF00 NOT SWAP1 SWAP2 AND SWAP1 DUP4 PUSH1 0x2 DUP2 GT ISZERO PUSH2 0x310E JUMPI PUSH2 0x310E PUSH2 0x4337 JUMP JUMPDEST MUL OR SWAP1 SSTORE POP PUSH1 0x5 SWAP2 DUP3 ADD SLOAD SWAP2 ADD DUP1 SLOAD PUSH3 0xFF0000 NOT AND PUSH3 0x10000 SWAP3 DUP4 SWAP1 DIV PUSH1 0xFF AND ISZERO ISZERO SWAP1 SWAP3 MUL SWAP2 SWAP1 SWAP2 OR SWAP1 SSTORE PUSH2 0x3144 DUP2 PUSH1 0x1 PUSH2 0x4619 JUMP JUMPDEST SWAP5 POP JUMPDEST DUP1 PUSH2 0x3151 DUP2 PUSH2 0x4833 JUMP JUMPDEST SWAP2 POP POP PUSH2 0x2FCC JUMP JUMPDEST POP JUMPDEST DUP1 PUSH2 0x1ADB JUMPI DUP2 DUP6 DUP6 DUP2 SLOAD DUP2 LT PUSH2 0x3173 JUMPI PUSH2 0x3173 PUSH2 0x46A9 JUMP JUMPDEST PUSH0 SWAP2 DUP3 MSTORE PUSH1 0x20 SWAP2 DUP3 SWAP1 KECCAK256 DUP4 MLOAD PUSH1 0x6 SWAP3 SWAP1 SWAP3 MUL ADD SWAP1 DUP2 SSTORE SWAP1 DUP3 ADD MLOAD PUSH1 0x1 DUP1 DUP4 ADD DUP1 SLOAD PUSH1 0x1 PUSH1 0x1 PUSH1 0xA0 SHL SUB NOT AND PUSH1 0x1 PUSH1 0x1 PUSH1 0xA0 SHL SUB SWAP1 SWAP4 AND SWAP3 SWAP1 SWAP3 OR SWAP1 SWAP2 SSTORE PUSH1 0x40 DUP4 ADD MLOAD PUSH1 0x2 DUP4 ADD SSTORE PUSH1 0x60 DUP4 ADD MLOAD PUSH1 0x3 DUP4 ADD SSTORE PUSH1 0x80 DUP4 ADD MLOAD PUSH1 0x4 DUP4 ADD SSTORE PUSH1 0xA0 DUP4 ADD MLOAD PUSH1 0x5 DUP4 ADD DUP1 SLOAD SWAP2 SWAP3 SWAP1 SWAP2 PUSH1 0xFF NOT AND SWAP1 DUP4 DUP1 ISZERO PUSH2 0x31F1 JUMPI PUSH2 0x31F1 PUSH2 0x4337 JUMP JUMPDEST MUL OR SWAP1 SSTORE POP PUSH1 0xC0 DUP3 ADD MLOAD PUSH1 0x5 DUP3 ADD DUP1 SLOAD PUSH2 0xFF00 NOT AND PUSH2 0x100 DUP4 PUSH1 0x2 DUP2 GT ISZERO PUSH2 0x321B JUMPI PUSH2 0x321B PUSH2 0x4337 JUMP JUMPDEST MUL OR SWAP1 SSTORE POP PUSH1 0xE0 SWAP2 SWAP1 SWAP2 ADD MLOAD PUSH1 0x5 SWAP1 SWAP2 ADD DUP1 SLOAD SWAP2 ISZERO ISZERO PUSH3 0x10000 MUL PUSH3 0xFF0000 NOT SWAP1 SWAP3 AND SWAP2 SWAP1 SWAP2 OR SWAP1 SSTORE POP POP POP POP POP JUMP JUMPDEST PUSH2 0x3253 PUSH2 0x41CC JUMP JUMPDEST PUSH0 DUP1 SLOAD PUSH1 0xFF NOT AND SWAP1 SSTORE PUSH32 0x5DB9EE0A495BF2E6FF9C91A7834C1BA4FDD244A5E8AA4E537BD38AEAE4B073AA CALLER JUMPDEST PUSH1 0x40 MLOAD PUSH2 0x328C SWAP2 SWAP1 PUSH2 0x4433 JUMP JUMPDEST PUSH1 0x40 MLOAD DUP1 SWAP2 SUB SWAP1 LOG1 JUMP JUMPDEST DUP2 SLOAD PUSH0 JUMPDEST DUP2 DUP2 LT DUP1 ISZERO PUSH2 0x32CE JUMPI POP DUP3 PUSH1 0x40 ADD MLOAD DUP5 DUP3 DUP2 SLOAD DUP2 LT PUSH2 0x32BB JUMPI PUSH2 0x32BB PUSH2 0x46A9 JUMP JUMPDEST SWAP1 PUSH0 MSTORE PUSH1 0x20 PUSH0 KECCAK256 SWAP1 PUSH1 0x6 MUL ADD PUSH1 0x2 ADD SLOAD LT ISZERO JUMPDEST ISZERO PUSH2 0x32E5 JUMPI DUP1 PUSH2 0x32DD DUP2 PUSH2 0x4833 JUMP JUMPDEST SWAP2 POP POP PUSH2 0x329A JUMP JUMPDEST PUSH1 0x14 DUP3 LT PUSH2 0x3477 JUMPI PUSH0 DUP5 PUSH2 0x32FA PUSH1 0x1 DUP6 PUSH2 0x46EA JUMP JUMPDEST DUP2 SLOAD DUP2 LT PUSH2 0x330A JUMPI PUSH2 0x330A PUSH2 0x46A9 JUMP JUMPDEST PUSH0 SWAP2 DUP3 MSTORE PUSH1 0x20 SWAP2 DUP3 SWAP1 KECCAK256 PUSH1 0x40 DUP1 MLOAD PUSH2 0x100 DUP2 ADD DUP3 MSTORE PUSH1 0x6 SWAP1 SWAP4 MUL SWAP1 SWAP2 ADD DUP1 SLOAD DUP4 MSTORE PUSH1 0x1 DUP2 ADD SLOAD PUSH1 0x1 PUSH1 0x1 PUSH1 0xA0 SHL SUB AND SWAP4 DUP4 ADD SWAP4 SWAP1 SWAP4 MSTORE PUSH1 0x2 DUP4 ADD SLOAD SWAP1 DUP3 ADD MSTORE PUSH1 0x3 DUP3 ADD SLOAD PUSH1 0x60 DUP3 ADD MSTORE PUSH1 0x4 DUP3 ADD SLOAD PUSH1 0x80 DUP3 ADD MSTORE PUSH1 0x5 DUP3 ADD SLOAD SWAP1 SWAP2 SWAP1 PUSH1 0xA0 DUP4 ADD SWAP1 PUSH1 0xFF AND DUP1 ISZERO PUSH2 0x337B JUMPI PUSH2 0x337B PUSH2 0x4337 JUMP JUMPDEST DUP1 ISZERO PUSH2 0x3389 JUMPI PUSH2 0x3389 PUSH2 0x4337 JUMP JUMPDEST DUP2 MSTORE PUSH1 0x20 ADD PUSH1 0x5 DUP3 ADD PUSH1 0x1 SWAP1 SLOAD SWAP1 PUSH2 0x100 EXP SWAP1 DIV PUSH1 0xFF AND PUSH1 0x2 DUP2 GT ISZERO PUSH2 0x33B1 JUMPI PUSH2 0x33B1 PUSH2 0x4337 JUMP JUMPDEST PUSH1 0x2 DUP2 GT ISZERO PUSH2 0x33C2 JUMPI PUSH2 0x33C2 PUSH2 0x4337 JUMP JUMPDEST DUP2 MSTORE PUSH1 0x5 SWAP2 SWAP1 SWAP2 ADD SLOAD PUSH3 0x10000 SWAP1 DIV PUSH1 0xFF AND ISZERO ISZERO PUSH1 0x20 SWAP1 SWAP2 ADD MSTORE PUSH1 0x40 DUP2 DUP2 ADD MLOAD SWAP1 DUP7 ADD MLOAD SWAP2 SWAP3 POP LT ISZERO PUSH2 0x3412 JUMPI PUSH2 0x33FD DUP6 DUP6 PUSH1 0xC0 ADD MLOAD PUSH2 0x3BF3 JUMP JUMPDEST DUP5 SLOAD SWAP3 POP DUP3 DUP3 GT ISZERO PUSH2 0x340D JUMPI DUP3 SWAP2 POP JUMPDEST PUSH2 0x3475 JUMP JUMPDEST PUSH1 0x40 MLOAD PUSH3 0x461BCD PUSH1 0xE5 SHL DUP2 MSTORE PUSH1 0x20 PUSH1 0x4 DUP3 ADD MSTORE PUSH1 0x32 PUSH1 0x24 DUP3 ADD MSTORE PUSH32 0x4E6577206F72646572207072696365206973206E6F74206869676820656E6F75 PUSH1 0x44 DUP3 ADD MSTORE PUSH18 0x33B4103A379031329034B739B2B93A32B217 PUSH1 0x71 SHL PUSH1 0x64 DUP3 ADD MSTORE PUSH1 0x84 ADD PUSH2 0x3ED JUMP JUMPDEST POP JUMPDEST DUP4 SLOAD PUSH1 0x1 DUP1 DUP3 ADD DUP7 SSTORE PUSH0 DUP7 DUP2 MSTORE PUSH1 0x20 SWAP1 DUP2 SWAP1 KECCAK256 DUP7 MLOAD PUSH1 0x6 SWAP1 SWAP5 MUL ADD SWAP3 DUP4 SSTORE DUP6 ADD MLOAD DUP3 DUP3 ADD DUP1 SLOAD PUSH1 0x1 PUSH1 0x1 PUSH1 0xA0 SHL SUB NOT AND PUSH1 0x1 PUSH1 0x1 PUSH1 0xA0 SHL SUB SWAP1 SWAP3 AND SWAP2 SWAP1 SWAP2 OR SWAP1 SSTORE PUSH1 0x40 DUP6 ADD MLOAD PUSH1 0x2 DUP4 ADD SSTORE PUSH1 0x60 DUP6 ADD MLOAD PUSH1 0x3 DUP4 ADD SSTORE PUSH1 0x80 DUP6 ADD MLOAD PUSH1 0x4 DUP4 ADD SSTORE PUSH1 0xA0 DUP6 ADD MLOAD PUSH1 0x5 DUP4 ADD DUP1 SLOAD DUP8 SWAP5 SWAP4 PUSH1 0xFF NOT SWAP1 SWAP2 AND SWAP1 DUP4 DUP1 ISZERO PUSH2 0x34FA JUMPI PUSH2 0x34FA PUSH2 0x4337 JUMP JUMPDEST MUL OR SWAP1 SSTORE POP PUSH1 0xC0 DUP3 ADD MLOAD PUSH1 0x5 DUP3 ADD DUP1 SLOAD PUSH2 0xFF00 NOT AND PUSH2 0x100 DUP4 PUSH1 0x2 DUP2 GT ISZERO PUSH2 0x3524 JUMPI PUSH2 0x3524 PUSH2 0x4337 JUMP JUMPDEST MUL OR SWAP1 SSTORE POP PUSH1 0xE0 SWAP2 SWAP1 SWAP2 ADD MLOAD PUSH1 0x5 SWAP1 SWAP2 ADD DUP1 SLOAD SWAP2 ISZERO ISZERO PUSH3 0x10000 MUL PUSH3 0xFF0000 NOT SWAP1 SWAP3 AND SWAP2 SWAP1 SWAP2 OR SWAP1 SSTORE DUP4 SLOAD PUSH0 SWAP1 PUSH2 0x355D SWAP1 PUSH1 0x1 SWAP1 PUSH2 0x46EA JUMP JUMPDEST SWAP1 POP JUMPDEST DUP2 DUP2 GT ISZERO PUSH2 0x25F8 JUMPI DUP5 PUSH2 0x3574 PUSH1 0x1 DUP4 PUSH2 0x46EA JUMP JUMPDEST DUP2 SLOAD DUP2 LT PUSH2 0x3584 JUMPI PUSH2 0x3584 PUSH2 0x46A9 JUMP JUMPDEST SWAP1 PUSH0 MSTORE PUSH1 0x20 PUSH0 KECCAK256 SWAP1 PUSH1 0x6 MUL ADD DUP6 DUP3 DUP2 SLOAD DUP2 LT PUSH2 0x35A2 JUMPI PUSH2 0x35A2 PUSH2 0x46A9 JUMP JUMPDEST PUSH0 SWAP2 DUP3 MSTORE PUSH1 0x20 SWAP1 SWAP2 KECCAK256 DUP3 SLOAD PUSH1 0x6 SWAP1 SWAP3 MUL ADD SWAP1 DUP2 SSTORE PUSH1 0x1 DUP1 DUP4 ADD SLOAD DUP2 DUP4 ADD DUP1 SLOAD PUSH1 0x1 PUSH1 0x1 PUSH1 0xA0 SHL SUB NOT AND PUSH1 0x1 PUSH1 0x1 PUSH1 0xA0 SHL SUB SWAP1 SWAP3 AND SWAP2 SWAP1 SWAP2 OR SWAP1 SSTORE PUSH1 0x2 DUP1 DUP5 ADD SLOAD SWAP1 DUP4 ADD SSTORE PUSH1 0x3 DUP1 DUP5 ADD SLOAD SWAP1 DUP4 ADD SSTORE PUSH1 0x4 DUP1 DUP5 ADD SLOAD SWAP1 DUP4 ADD SSTORE PUSH1 0x5 DUP1 DUP5 ADD SLOAD SWAP1 DUP4 ADD DUP1 SLOAD PUSH1 0xFF SWAP1 SWAP3 AND SWAP3 SWAP1 SWAP2 PUSH1 0xFF NOT AND SWAP1 DUP4 DUP1 ISZERO PUSH2 0x3621 JUMPI PUSH2 0x3621 PUSH2 0x4337 JUMP JUMPDEST MUL OR SWAP1 SSTORE POP PUSH1 0x5 DUP3 DUP2 ADD SLOAD SWAP1 DUP3 ADD DUP1 SLOAD PUSH1 0xFF PUSH2 0x100 SWAP4 DUP5 SWAP1 DIV AND SWAP3 PUSH2 0xFF00 NOT SWAP1 SWAP2 AND SWAP1 DUP4 PUSH1 0x2 DUP2 GT ISZERO PUSH2 0x3656 JUMPI PUSH2 0x3656 PUSH2 0x4337 JUMP JUMPDEST MUL OR SWAP1 SSTORE POP PUSH1 0x5 SWAP2 DUP3 ADD SLOAD SWAP2 ADD DUP1 SLOAD PUSH3 0xFF0000 NOT AND PUSH3 0x10000 SWAP3 DUP4 SWAP1 DIV PUSH1 0xFF AND ISZERO ISZERO SWAP1 SWAP3 MUL SWAP2 SWAP1 SWAP2 OR SWAP1 SSTORE DUP1 PUSH2 0x368B DUP2 PUSH2 0x484B JUMP JUMPDEST SWAP2 POP POP PUSH2 0x3560 JUMP JUMPDEST PUSH2 0x369B PUSH2 0x1AE2 JUMP JUMPDEST PUSH0 DUP1 SLOAD PUSH1 0xFF NOT AND PUSH1 0x1 OR SWAP1 SSTORE PUSH32 0x62E78CEA01BEE320CD4E420270B5EA74000D11B0C9F74754EBDBFC544B05A258 PUSH2 0x327F CALLER SWAP1 JUMP JUMPDEST PUSH0 PUSH2 0x36DD DUP3 DUP5 LT DUP5 DUP5 PUSH2 0x4214 JUMP JUMPDEST SWAP1 POP JUMPDEST SWAP3 SWAP2 POP POP JUMP JUMPDEST PUSH0 PUSH0 PUSH0 DUP4 ISZERO PUSH2 0x3712 JUMPI POP POP POP PUSH1 0x20 DUP5 ADD MLOAD PUSH1 0x1 DUP5 ADD SLOAD PUSH1 0x40 DUP7 ADD MLOAD PUSH1 0x1 PUSH1 0x1 PUSH1 0xA0 SHL SUB SWAP1 SWAP2 AND SWAP1 PUSH2 0x3731 JUMP JUMPDEST POP POP POP PUSH1 0x1 DUP4 ADD SLOAD PUSH1 0x20 DUP6 ADD MLOAD PUSH1 0x2 DUP6 ADD SLOAD PUSH1 0x1 PUSH1 0x1 PUSH1 0xA0 SHL SUB SWAP1 SWAP3 AND SWAP2 JUMPDEST PUSH0 PUSH2 0x3E8 PUSH2 0x373F DUP4 DUP9 PUSH2 0x4754 JUMP JUMPDEST PUSH2 0x3749 SWAP2 SWAP1 PUSH2 0x476B JUMP JUMPDEST PUSH1 0x5 SLOAD PUSH1 0xC0 DUP11 ADD MLOAD PUSH1 0x40 MLOAD PUSH4 0x42AF7A0D PUSH1 0xE1 SHL DUP2 MSTORE SWAP3 SWAP4 POP PUSH1 0x1 PUSH1 0x1 PUSH1 0xA0 SHL SUB SWAP1 SWAP2 AND SWAP2 PUSH4 0x855EF41A SWAP2 PUSH2 0x3786 SWAP2 DUP9 SWAP2 SWAP1 DUP7 SWAP1 PUSH0 SWAP1 PUSH1 0x4 ADD PUSH2 0x478A JUMP JUMPDEST PUSH0 PUSH1 0x40 MLOAD DUP1 DUP4 SUB DUP2 PUSH0 DUP8 DUP1 EXTCODESIZE ISZERO DUP1 ISZERO PUSH2 0x379D JUMPI PUSH0 PUSH0 REVERT JUMPDEST POP GAS CALL ISZERO DUP1 ISZERO PUSH2 0x37AF JUMPI RETURNDATASIZE PUSH0 PUSH0 RETURNDATACOPY RETURNDATASIZE PUSH0 REVERT JUMPDEST POP POP PUSH1 0x5 SLOAD PUSH1 0x40 MLOAD PUSH4 0x10DF52B9 PUSH1 0xE0 SHL DUP2 MSTORE DUP10 SWAP4 POP PUSH1 0x1 PUSH1 0x1 PUSH1 0xA0 SHL SUB SWAP1 SWAP2 AND SWAP2 POP PUSH4 0x10DF52B9 SWAP1 PUSH2 0x37E7 SWAP1 DUP8 SWAP1 PUSH0 SWAP1 PUSH1 0x4 ADD PUSH2 0x45D1 JUMP JUMPDEST PUSH1 0x20 PUSH1 0x40 MLOAD DUP1 DUP4 SUB DUP2 DUP7 GAS STATICCALL ISZERO DUP1 ISZERO PUSH2 0x3802 JUMPI RETURNDATASIZE PUSH0 PUSH0 RETURNDATACOPY RETURNDATASIZE PUSH0 REVERT JUMPDEST POP POP POP POP PUSH1 0x40 MLOAD RETURNDATASIZE PUSH1 0x1F NOT PUSH1 0x1F DUP3 ADD AND DUP3 ADD DUP1 PUSH1 0x40 MSTORE POP DUP2 ADD SWAP1 PUSH2 0x3826 SWAP2 SWAP1 PUSH2 0x45EE JUMP JUMPDEST LT ISZERO PUSH2 0x388C JUMPI PUSH1 0x40 MLOAD PUSH3 0x461BCD PUSH1 0xE5 SHL DUP2 MSTORE PUSH1 0x20 PUSH1 0x4 DUP3 ADD MSTORE PUSH1 0x2F PUSH1 0x24 DUP3 ADD MSTORE PUSH32 0x53656C6C657220646F6573206E6F74206861766520656E6F756768204E69636B PUSH1 0x44 DUP3 ADD MSTORE PUSH15 0x656C69756D20696E20657363726F77 PUSH1 0x88 SHL PUSH1 0x64 DUP3 ADD MSTORE PUSH1 0x84 ADD PUSH2 0x3ED JUMP JUMPDEST PUSH1 0x7 SLOAD PUSH1 0x5 SLOAD PUSH1 0x40 MLOAD PUSH4 0xDA3E3397 PUSH1 0xE0 SHL DUP2 MSTORE PUSH1 0x1 PUSH1 0x1 PUSH1 0xA0 SHL SUB SWAP3 DUP4 AND SWAP3 PUSH4 0xDA3E3397 SWAP3 PUSH2 0x38C5 SWAP3 DUP6 SWAP3 SWAP1 SWAP2 AND SWAP1 DUP12 SWAP1 PUSH1 0x4 ADD PUSH2 0x47DB JUMP JUMPDEST PUSH1 0x20 PUSH1 0x40 MLOAD DUP1 DUP4 SUB DUP2 PUSH0 DUP8 GAS CALL ISZERO DUP1 ISZERO PUSH2 0x38E1 JUMPI RETURNDATASIZE PUSH0 PUSH0 RETURNDATACOPY RETURNDATASIZE PUSH0 REVERT JUMPDEST POP POP POP POP PUSH1 0x40 MLOAD RETURNDATASIZE PUSH1 0x1F NOT PUSH1 0x1F DUP3 ADD AND DUP3 ADD DUP1 PUSH1 0x40 MSTORE POP DUP2 ADD SWAP1 PUSH2 0x3905 SWAP2 SWAP1 PUSH2 0x47FF JUMP JUMPDEST POP PUSH1 0x5 SLOAD PUSH1 0x40 MLOAD PUSH4 0x212AE75 PUSH1 0xE3 SHL DUP2 MSTORE PUSH1 0x1 PUSH1 0x1 PUSH1 0xA0 SHL SUB SWAP1 SWAP2 AND SWAP1 PUSH4 0x109573A8 SWAP1 PUSH2 0x393A SWAP1 DUP7 SWAP1 DUP9 SWAP1 DUP12 SWAP1 PUSH1 0x4 ADD PUSH2 0x47DB JUMP JUMPDEST PUSH0 PUSH1 0x40 MLOAD DUP1 DUP4 SUB DUP2 PUSH0 DUP8 DUP1 EXTCODESIZE ISZERO DUP1 ISZERO PUSH2 0x3951 JUMPI PUSH0 PUSH0 REVERT JUMPDEST POP GAS CALL ISZERO DUP1 ISZERO PUSH2 0x3963 JUMPI RETURNDATASIZE PUSH0 PUSH0 RETURNDATACOPY RETURNDATASIZE PUSH0 REVERT JUMPDEST POP POP PUSH1 0x5 SLOAD PUSH1 0x40 MLOAD PUSH4 0x5F80A9CF PUSH1 0xE0 SHL DUP2 MSTORE PUSH1 0x4 DUP2 ADD DUP6 SWAP1 MSTORE PUSH1 0x1 PUSH1 0x1 PUSH1 0xA0 SHL SUB SWAP1 SWAP2 AND SWAP3 POP PUSH4 0x5F80A9CF SWAP2 POP PUSH1 0x24 ADD PUSH0 PUSH1 0x40 MLOAD DUP1 DUP4 SUB DUP2 PUSH0 DUP8 DUP1 EXTCODESIZE ISZERO DUP1 ISZERO PUSH2 0x39AA JUMPI PUSH0 PUSH0 REVERT JUMPDEST POP GAS CALL ISZERO DUP1 ISZERO PUSH2 0x39BC JUMPI RETURNDATASIZE PUSH0 PUSH0 RETURNDATACOPY RETURNDATASIZE PUSH0 REVERT JUMPDEST POP POP PUSH1 0x6 SLOAD PUSH1 0x5 SLOAD PUSH1 0x40 MLOAD PUSH4 0x23B872DD PUSH1 0xE0 SHL DUP2 MSTORE PUSH1 0x1 PUSH1 0x1 PUSH1 0xA0 SHL SUB SWAP3 DUP4 AND SWAP5 POP PUSH4 0x23B872DD SWAP4 POP PUSH2 0x39F9 SWAP3 SWAP1 SWAP2 AND SWAP1 DUP8 SWAP1 DUP7 SWAP1 PUSH1 0x4 ADD PUSH2 0x47DB JUMP JUMPDEST PUSH1 0x20 PUSH1 0x40 MLOAD DUP1 DUP4 SUB DUP2 PUSH0 DUP8 GAS CALL ISZERO DUP1 ISZERO PUSH2 0x3A15 JUMPI RETURNDATASIZE PUSH0 PUSH0 RETURNDATACOPY RETURNDATASIZE PUSH0 REVERT JUMPDEST POP POP POP POP PUSH1 0x40 MLOAD RETURNDATASIZE PUSH1 0x1F NOT PUSH1 0x1F DUP3 ADD AND DUP3 ADD DUP1 PUSH1 0x40 MSTORE POP DUP2 ADD SWAP1 PUSH2 0x62B SWAP2 SWAP1 PUSH2 0x47FF JUMP JUMPDEST DUP2 SLOAD DUP2 LT PUSH2 0x3A59 JUMPI PUSH1 0x40 MLOAD PUSH3 0x461BCD PUSH1 0xE5 SHL DUP2 MSTORE PUSH1 0x4 ADD PUSH2 0x3ED SWAP1 PUSH2 0x46BD JUMP JUMPDEST DUP1 JUMPDEST DUP3 SLOAD PUSH2 0x3A69 SWAP1 PUSH1 0x1 SWAP1 PUSH2 0x46EA JUMP JUMPDEST DUP2 LT ISZERO PUSH2 0x3B91 JUMPI DUP3 PUSH2 0x3A7C DUP3 PUSH1 0x1 PUSH2 0x4619 JUMP JUMPDEST DUP2 SLOAD DUP2 LT PUSH2 0x3A8C JUMPI PUSH2 0x3A8C PUSH2 0x46A9 JUMP JUMPDEST SWAP1 PUSH0 MSTORE PUSH1 0x20 PUSH0 KECCAK256 SWAP1 PUSH1 0x6 MUL ADD DUP4 DUP3 DUP2 SLOAD DUP2 LT PUSH2 0x3AAA JUMPI PUSH2 0x3AAA PUSH2 0x46A9 JUMP JUMPDEST PUSH0 SWAP2 DUP3 MSTORE PUSH1 0x20 SWAP1 SWAP2 KECCAK256 DUP3 SLOAD PUSH1 0x6 SWAP1 SWAP3 MUL ADD SWAP1 DUP2 SSTORE PUSH1 0x1 DUP1 DUP4 ADD SLOAD DUP2 DUP4 ADD DUP1 SLOAD PUSH1 0x1 PUSH1 0x1 PUSH1 0xA0 SHL SUB NOT AND PUSH1 0x1 PUSH1 0x1 PUSH1 0xA0 SHL SUB SWAP1 SWAP3 AND SWAP2 SWAP1 SWAP2 OR SWAP1 SSTORE PUSH1 0x2 DUP1 DUP5 ADD SLOAD SWAP1 DUP4 ADD SSTORE PUSH1 0x3 DUP1 DUP5 ADD SLOAD SWAP1 DUP4 ADD SSTORE PUSH1 0x4 DUP1 DUP5 ADD SLOAD SWAP1 DUP4 ADD SSTORE PUSH1 0x5 DUP1 DUP5 ADD SLOAD SWAP1 DUP4 ADD DUP1 SLOAD PUSH1 0xFF SWAP1 SWAP3 AND SWAP3 SWAP1 SWAP2 PUSH1 0xFF NOT AND SWAP1 DUP4 DUP1 ISZERO PUSH2 0x3B29 JUMPI PUSH2 0x3B29 PUSH2 0x4337 JUMP JUMPDEST MUL OR SWAP1 SSTORE POP PUSH1 0x5 DUP3 DUP2 ADD SLOAD SWAP1 DUP3 ADD DUP1 SLOAD PUSH1 0xFF PUSH2 0x100 SWAP4 DUP5 SWAP1 DIV AND SWAP3 PUSH2 0xFF00 NOT SWAP1 SWAP2 AND SWAP1 DUP4 PUSH1 0x2 DUP2 GT ISZERO PUSH2 0x3B5E JUMPI PUSH2 0x3B5E PUSH2 0x4337 JUMP JUMPDEST MUL OR SWAP1 SSTORE POP PUSH1 0x5 SWAP2 DUP3 ADD SLOAD SWAP2 ADD DUP1 SLOAD PUSH3 0xFF0000 NOT AND PUSH3 0x10000 SWAP3 DUP4 SWAP1 DIV PUSH1 0xFF AND ISZERO ISZERO SWAP1 SWAP3 MUL SWAP2 SWAP1 SWAP2 OR SWAP1 SSTORE PUSH1 0x1 ADD PUSH2 0x3A5B JUMP JUMPDEST POP DUP2 DUP1 SLOAD DUP1 PUSH2 0x3BA2 JUMPI PUSH2 0x3BA2 PUSH2 0x46FD JUMP JUMPDEST PUSH0 DUP3 DUP2 MSTORE PUSH1 0x20 DUP2 KECCAK256 PUSH1 0x6 PUSH0 NOT SWAP1 SWAP4 ADD SWAP3 DUP4 MUL ADD DUP2 DUP2 SSTORE PUSH1 0x1 DUP2 ADD DUP1 SLOAD PUSH1 0x1 PUSH1 0x1 PUSH1 0xA0 SHL SUB NOT AND SWAP1 SSTORE PUSH1 0x2 DUP2 ADD DUP3 SWAP1 SSTORE PUSH1 0x3 DUP2 ADD DUP3 SWAP1 SSTORE PUSH1 0x4 DUP2 ADD SWAP2 SWAP1 SWAP2 SSTORE PUSH1 0x5 ADD DUP1 SLOAD PUSH3 0xFFFFFF NOT AND SWAP1 SSTORE SWAP1 SSTORE POP POP JUMP JUMPDEST DUP2 SLOAD PUSH0 SWAP1 PUSH2 0x3C03 SWAP1 PUSH1 0x1 SWAP1 PUSH2 0x46EA JUMP JUMPDEST SWAP1 POP PUSH0 DUP4 DUP3 DUP2 SLOAD DUP2 LT PUSH2 0x3C18 JUMPI PUSH2 0x3C18 PUSH2 0x46A9 JUMP JUMPDEST PUSH0 SWAP2 DUP3 MSTORE PUSH1 0x20 SWAP2 DUP3 SWAP1 KECCAK256 PUSH1 0x40 DUP1 MLOAD PUSH2 0x100 DUP2 ADD DUP3 MSTORE PUSH1 0x6 SWAP1 SWAP4 MUL SWAP1 SWAP2 ADD DUP1 SLOAD DUP4 MSTORE PUSH1 0x1 DUP2 ADD SLOAD PUSH1 0x1 PUSH1 0x1 PUSH1 0xA0 SHL SUB AND SWAP4 DUP4 ADD SWAP4 SWAP1 SWAP4 MSTORE PUSH1 0x2 DUP4 ADD SLOAD SWAP1 DUP3 ADD MSTORE PUSH1 0x3 DUP3 ADD SLOAD PUSH1 0x60 DUP3 ADD MSTORE PUSH1 0x4 DUP3 ADD SLOAD PUSH1 0x80 DUP3 ADD MSTORE PUSH1 0x5 DUP3 ADD SLOAD SWAP1 SWAP2 SWAP1 PUSH1 0xA0 DUP4 ADD SWAP1 PUSH1 0xFF AND DUP1 ISZERO PUSH2 0x3C89 JUMPI PUSH2 0x3C89 PUSH2 0x4337 JUMP JUMPDEST DUP1 ISZERO PUSH2 0x3C97 JUMPI PUSH2 0x3C97 PUSH2 0x4337 JUMP JUMPDEST DUP2 MSTORE PUSH1 0x20 ADD PUSH1 0x5 DUP3 ADD PUSH1 0x1 SWAP1 SLOAD SWAP1 PUSH2 0x100 EXP SWAP1 DIV PUSH1 0xFF AND PUSH1 0x2 DUP2 GT ISZERO PUSH2 0x3CBF JUMPI PUSH2 0x3CBF PUSH2 0x4337 JUMP JUMPDEST PUSH1 0x2 DUP2 GT ISZERO PUSH2 0x3CD0 JUMPI PUSH2 0x3CD0 PUSH2 0x4337 JUMP JUMPDEST DUP2 MSTORE PUSH1 0x5 SWAP2 SWAP1 SWAP2 ADD SLOAD PUSH3 0x10000 SWAP1 DIV PUSH1 0xFF AND ISZERO ISZERO PUSH1 0x20 SWAP1 SWAP2 ADD MSTORE DUP5 SLOAD SWAP1 SWAP2 POP DUP5 SWAP1 DUP1 PUSH2 0x3CFE JUMPI PUSH2 0x3CFE PUSH2 0x46FD JUMP JUMPDEST PUSH0 DUP3 DUP2 MSTORE PUSH1 0x20 DUP2 KECCAK256 PUSH1 0x6 PUSH0 NOT SWAP1 SWAP4 ADD SWAP3 DUP4 MUL ADD DUP2 DUP2 SSTORE PUSH1 0x1 DUP2 ADD DUP1 SLOAD PUSH1 0x1 PUSH1 0x1 PUSH1 0xA0 SHL SUB NOT AND SWAP1 SSTORE PUSH1 0x2 DUP2 ADD DUP3 SWAP1 SSTORE PUSH1 0x3 DUP2 ADD DUP3 SWAP1 SSTORE PUSH1 0x4 DUP2 ADD DUP3 SWAP1 SSTORE PUSH1 0x5 ADD DUP1 SLOAD PUSH3 0xFFFFFF NOT AND SWAP1 SSTORE SWAP2 SSTORE PUSH1 0x60 DUP3 ADD MLOAD PUSH1 0x40 DUP4 ADD MLOAD SWAP1 SWAP2 SWAP1 PUSH2 0x3E8 SWAP1 PUSH2 0x3D66 SWAP1 DUP5 SWAP1 PUSH2 0x4754 JUMP JUMPDEST PUSH2 0x3D70 SWAP2 SWAP1 PUSH2 0x476B JUMP JUMPDEST PUSH1 0x5 SLOAD PUSH1 0x40 MLOAD PUSH4 0x5F80A9CF PUSH1 0xE0 SHL DUP2 MSTORE PUSH1 0x4 DUP2 ADD DUP4 SWAP1 MSTORE SWAP2 SWAP3 POP PUSH1 0x1 PUSH1 0x1 PUSH1 0xA0 SHL SUB AND SWAP1 PUSH4 0x5F80A9CF SWAP1 PUSH1 0x24 ADD PUSH0 PUSH1 0x40 MLOAD DUP1 DUP4 SUB DUP2 PUSH0 DUP8 DUP1 EXTCODESIZE ISZERO DUP1 ISZERO PUSH2 0x3DB4 JUMPI PUSH0 PUSH0 REVERT JUMPDEST POP GAS CALL ISZERO DUP1 ISZERO PUSH2 0x3DC6 JUMPI RETURNDATASIZE PUSH0 PUSH0 RETURNDATACOPY RETURNDATASIZE PUSH0 REVERT JUMPDEST POP POP PUSH1 0x6 SLOAD PUSH1 0x5 SLOAD PUSH1 0x20 DUP8 ADD MLOAD PUSH1 0x40 MLOAD PUSH4 0x23B872DD PUSH1 0xE0 SHL DUP2 MSTORE PUSH1 0x1 PUSH1 0x1 PUSH1 0xA0 SHL SUB SWAP4 DUP5 AND SWAP6 POP PUSH4 0x23B872DD SWAP5 POP PUSH2 0x3E06 SWAP4 SWAP1 SWAP3 AND SWAP2 DUP7 SWAP1 PUSH1 0x4 ADD PUSH2 0x47DB JUMP JUMPDEST PUSH1 0x20 PUSH1 0x40 MLOAD DUP1 DUP4 SUB DUP2 PUSH0 DUP8 GAS CALL ISZERO DUP1 ISZERO PUSH2 0x3E22 JUMPI RETURNDATASIZE PUSH0 PUSH0 RETURNDATACOPY RETURNDATASIZE PUSH0 REVERT JUMPDEST POP POP POP POP PUSH1 0x40 MLOAD RETURNDATASIZE PUSH1 0x1F NOT PUSH1 0x1F DUP3 ADD AND DUP3 ADD DUP1 PUSH1 0x40 MSTORE POP DUP2 ADD SWAP1 PUSH2 0x3E46 SWAP2 SWAP1 PUSH2 0x47FF JUMP JUMPDEST POP PUSH1 0x5 SLOAD PUSH1 0x20 DUP5 ADD MLOAD PUSH1 0x40 MLOAD PUSH4 0x42AF7A0D PUSH1 0xE1 SHL DUP2 MSTORE PUSH1 0x1 PUSH1 0x1 PUSH1 0xA0 SHL SUB SWAP1 SWAP3 AND SWAP2 PUSH4 0x855EF41A SWAP2 PUSH2 0x3E80 SWAP2 DUP10 SWAP1 DUP7 SWAP1 PUSH0 SWAP1 PUSH1 0x4 ADD PUSH2 0x478A JUMP JUMPDEST PUSH0 PUSH1 0x40 MLOAD DUP1 DUP4 SUB DUP2 PUSH0 DUP8 DUP1 EXTCODESIZE ISZERO DUP1 ISZERO PUSH2 0x3E97 JUMPI PUSH0 PUSH0 REVERT JUMPDEST POP GAS CALL ISZERO DUP1 ISZERO PUSH2 0x3EA9 JUMPI RETURNDATASIZE PUSH0 PUSH0 RETURNDATACOPY RETURNDATASIZE PUSH0 REVERT JUMPDEST POP POP POP POP POP POP POP POP POP POP JUMP JUMPDEST DUP2 SLOAD PUSH0 SWAP1 PUSH2 0x3EC5 SWAP1 PUSH1 0x1 SWAP1 PUSH2 0x46EA JUMP JUMPDEST SWAP1 POP PUSH0 DUP4 DUP3 DUP2 SLOAD DUP2 LT PUSH2 0x3EDA JUMPI PUSH2 0x3EDA PUSH2 0x46A9 JUMP JUMPDEST PUSH0 SWAP2 DUP3 MSTORE PUSH1 0x20 SWAP2 DUP3 SWAP1 KECCAK256 PUSH1 0x40 DUP1 MLOAD PUSH2 0x100 DUP2 ADD DUP3 MSTORE PUSH1 0x6 SWAP1 SWAP4 MUL SWAP1 SWAP2 ADD DUP1 SLOAD DUP4 MSTORE PUSH1 0x1 DUP2 ADD SLOAD PUSH1 0x1 PUSH1 0x1 PUSH1 0xA0 SHL SUB AND SWAP4 DUP4 ADD SWAP4 SWAP1 SWAP4 MSTORE PUSH1 0x2 DUP4 ADD SLOAD SWAP1 DUP3 ADD MSTORE PUSH1 0x3 DUP3 ADD SLOAD PUSH1 0x60 DUP3 ADD MSTORE PUSH1 0x4 DUP3 ADD SLOAD PUSH1 0x80 DUP3 ADD MSTORE PUSH1 0x5 DUP3 ADD SLOAD SWAP1 SWAP2 SWAP1 PUSH1 0xA0 DUP4 ADD SWAP1 PUSH1 0xFF AND DUP1 ISZERO PUSH2 0x3F4B JUMPI PUSH2 0x3F4B PUSH2 0x4337 JUMP JUMPDEST DUP1 ISZERO PUSH2 0x3F59 JUMPI PUSH2 0x3F59 PUSH2 0x4337 JUMP JUMPDEST DUP2 MSTORE PUSH1 0x20 ADD PUSH1 0x5 DUP3 ADD PUSH1 0x1 SWAP1 SLOAD SWAP1 PUSH2 0x100 EXP SWAP1 DIV PUSH1 0xFF AND PUSH1 0x2 DUP2 GT ISZERO PUSH2 0x3F81 JUMPI PUSH2 0x3F81 PUSH2 0x4337 JUMP JUMPDEST PUSH1 0x2 DUP2 GT ISZERO PUSH2 0x3F92 JUMPI PUSH2 0x3F92 PUSH2 0x4337 JUMP JUMPDEST DUP2 MSTORE PUSH1 0x5 SWAP2 SWAP1 SWAP2 ADD SLOAD PUSH3 0x10000 SWAP1 DIV PUSH1 0xFF AND ISZERO ISZERO PUSH1 0x20 SWAP2 DUP3 ADD MSTORE DUP2 ADD MLOAD DUP6 SLOAD SWAP2 SWAP3 POP SWAP1 DUP6 SWAP1 DUP1 PUSH2 0x3FC4 JUMPI PUSH2 0x3FC4 PUSH2 0x46FD JUMP JUMPDEST PUSH0 DUP3 DUP2 MSTORE PUSH1 0x20 DUP2 KECCAK256 PUSH1 0x6 PUSH0 NOT SWAP1 SWAP4 ADD SWAP3 DUP4 MUL ADD DUP2 DUP2 SSTORE PUSH1 0x1 DUP2 ADD DUP1 SLOAD PUSH1 0x1 PUSH1 0x1 PUSH1 0xA0 SHL SUB NOT AND SWAP1 SSTORE PUSH1 0x2 DUP2 ADD DUP3 SWAP1 SSTORE PUSH1 0x3 DUP2 ADD DUP3 SWAP1 SSTORE PUSH1 0x4 DUP1 DUP3 ADD DUP4 SWAP1 SSTORE PUSH1 0x5 SWAP2 DUP3 ADD DUP1 SLOAD PUSH3 0xFFFFFF NOT AND SWAP1 SSTORE SWAP3 SWAP1 SWAP4 SSTORE PUSH1 0x60 DUP6 ADD MLOAD SWAP3 SLOAD PUSH1 0x40 MLOAD PUSH4 0x10DF52B9 PUSH1 0xE0 SHL DUP2 MSTORE SWAP2 SWAP3 PUSH1 0x1 PUSH1 0x1 PUSH1 0xA0 SHL SUB SWAP2 SWAP1 SWAP2 AND SWAP2 PUSH4 0x10DF52B9 SWAP2 PUSH2 0x404C SWAP2 DUP8 SWAP2 DUP12 SWAP2 ADD PUSH2 0x45D1 JUMP JUMPDEST PUSH1 0x20 PUSH1 0x40 MLOAD DUP1 DUP4 SUB DUP2 DUP7 GAS STATICCALL ISZERO DUP1 ISZERO PUSH2 0x4067 JUMPI RETURNDATASIZE PUSH0 PUSH0 RETURNDATACOPY RETURNDATASIZE PUSH0 REVERT JUMPDEST POP POP POP POP PUSH1 0x40 MLOAD RETURNDATASIZE PUSH1 0x1F NOT PUSH1 0x1F DUP3 ADD AND DUP3 ADD DUP1 PUSH1 0x40 MSTORE POP DUP2 ADD SWAP1 PUSH2 0x408B SWAP2 SWAP1 PUSH2 0x45EE JUMP JUMPDEST SWAP1 POP PUSH0 DUP3 DUP3 LT PUSH2 0x409B JUMPI DUP3 PUSH2 0x409D JUMP JUMPDEST DUP2 JUMPDEST SWAP1 POP DUP1 DUP3 LT ISZERO PUSH2 0x40F9 JUMPI PUSH1 0x40 MLOAD PUSH3 0x461BCD PUSH1 0xE5 SHL DUP2 MSTORE PUSH1 0x20 PUSH1 0x4 DUP3 ADD MSTORE PUSH1 0x21 PUSH1 0x24 DUP3 ADD MSTORE PUSH32 0x496E73756666696369656E7420746F6B656E20657363726F772062616C616E63 PUSH1 0x44 DUP3 ADD MSTORE PUSH1 0x65 PUSH1 0xF8 SHL PUSH1 0x64 DUP3 ADD MSTORE PUSH1 0x84 ADD PUSH2 0x3ED JUMP JUMPDEST PUSH1 0x7 SLOAD PUSH1 0x40 MLOAD PUSH4 0xD447983 PUSH1 0xE1 SHL DUP2 MSTORE PUSH1 0x1 PUSH1 0x1 PUSH1 0xA0 SHL SUB SWAP1 SWAP2 AND SWAP1 PUSH4 0x1A88F306 SWAP1 PUSH2 0x412B SWAP1 DUP8 SWAP1 DUP6 SWAP1 PUSH1 0x4 ADD PUSH2 0x481A JUMP JUMPDEST PUSH0 PUSH1 0x40 MLOAD DUP1 DUP4 SUB DUP2 PUSH0 DUP8 DUP1 EXTCODESIZE ISZERO DUP1 ISZERO PUSH2 0x4142 JUMPI PUSH0 PUSH0 REVERT JUMPDEST POP GAS CALL ISZERO DUP1 ISZERO PUSH2 0x4154 JUMPI RETURNDATASIZE PUSH0 PUSH0 RETURNDATACOPY RETURNDATASIZE PUSH0 REVERT JUMPDEST POP POP PUSH1 0x5 SLOAD PUSH1 0x1 PUSH1 0x1 PUSH1 0xA0 SHL SUB AND SWAP2 POP PUSH4 0xE80B146D SWAP1 POP DUP6 DUP10 PUSH2 0x4177 DUP6 DUP8 PUSH2 0x46EA JUMP JUMPDEST PUSH1 0x40 MLOAD DUP5 PUSH4 0xFFFFFFFF AND PUSH1 0xE0 SHL DUP2 MSTORE PUSH1 0x4 ADD PUSH2 0x4195 SWAP4 SWAP3 SWAP2 SWAP1 PUSH2 0x462C JUMP JUMPDEST PUSH0 PUSH1 0x40 MLOAD DUP1 DUP4 SUB DUP2 PUSH0 DUP8 DUP1 EXTCODESIZE ISZERO DUP1 ISZERO PUSH2 0x41AC JUMPI PUSH0 PUSH0 REVERT JUMPDEST POP GAS CALL ISZERO DUP1 ISZERO PUSH2 0x41BE JUMPI RETURNDATASIZE PUSH0 PUSH0 RETURNDATACOPY RETURNDATASIZE PUSH0 REVERT JUMPDEST POP POP POP POP POP POP POP POP POP POP POP POP JUMP JUMPDEST PUSH0 SLOAD PUSH1 0xFF AND PUSH2 0x1172 JUMPI PUSH1 0x40 MLOAD PUSH3 0x461BCD PUSH1 0xE5 SHL DUP2 MSTORE PUSH1 0x20 PUSH1 0x4 DUP3 ADD MSTORE PUSH1 0x14 PUSH1 0x24 DUP3 ADD MSTORE PUSH20 0x14185D5CD8589B194E881B9BDD081C185D5CD959 PUSH1 0x62 SHL PUSH1 0x44 DUP3 ADD MSTORE PUSH1 0x64 ADD PUSH2 0x3ED JUMP JUMPDEST DUP2 DUP2 XOR DUP4 ISZERO ISZERO MUL DUP2 XOR JUMPDEST SWAP4 SWAP3 POP POP POP JUMP JUMPDEST PUSH1 0x40 MLOAD DUP1 PUSH2 0x100 ADD PUSH1 0x40 MSTORE DUP1 PUSH0 DUP2 MSTORE PUSH1 0x20 ADD PUSH0 PUSH1 0x1 PUSH1 0x1 PUSH1 0xA0 SHL SUB AND DUP2 MSTORE PUSH1 0x20 ADD PUSH0 DUP2 MSTORE PUSH1 0x20 ADD PUSH0 DUP2 MSTORE PUSH1 0x20 ADD PUSH0 DUP2 MSTORE PUSH1 0x20 ADD PUSH0 PUSH0 DUP2 GT ISZERO PUSH2 0x4269 JUMPI PUSH2 0x4269 PUSH2 0x4337 JUMP JUMPDEST DUP2 MSTORE PUSH1 0x20 ADD PUSH0 DUP2 MSTORE PUSH0 PUSH1 0x20 SWAP1 SWAP2 ADD MSTORE SWAP1 JUMP JUMPDEST DUP1 CALLDATALOAD PUSH1 0x1 PUSH1 0x1 PUSH1 0xA0 SHL SUB DUP2 AND DUP2 EQ PUSH2 0x4291 JUMPI PUSH0 PUSH0 REVERT JUMPDEST SWAP2 SWAP1 POP JUMP JUMPDEST DUP1 ISZERO ISZERO DUP2 EQ PUSH2 0x42A3 JUMPI PUSH0 PUSH0 REVERT JUMPDEST POP JUMP JUMPDEST PUSH0 PUSH0 PUSH0 PUSH0 PUSH0 PUSH0 PUSH0 PUSH1 0xE0 DUP9 DUP11 SUB SLT ISZERO PUSH2 0x42BC JUMPI PUSH0 PUSH0 REVERT JUMPDEST DUP8 CALLDATALOAD SWAP7 POP PUSH2 0x42CC PUSH1 0x20 DUP10 ADD PUSH2 0x427B JUMP JUMPDEST SWAP6 POP PUSH1 0x40 DUP9 ADD CALLDATALOAD SWAP5 POP PUSH1 0x60 DUP9 ADD CALLDATALOAD SWAP4 POP PUSH1 0x80 DUP9 ADD CALLDATALOAD PUSH1 0x1 DUP2 LT PUSH2 0x42ED JUMPI PUSH0 PUSH0 REVERT JUMPDEST SWAP3 POP PUSH1 0xA0 DUP9 ADD CALLDATALOAD PUSH1 0x3 DUP2 LT PUSH2 0x4300 JUMPI PUSH0 PUSH0 REVERT JUMPDEST SWAP2 POP PUSH1 0xC0 DUP9 ADD CALLDATALOAD PUSH2 0x4310 DUP2 PUSH2 0x4296 JUMP JUMPDEST DUP1 SWAP2 POP POP SWAP3 SWAP6 SWAP9 SWAP2 SWAP5 SWAP8 POP SWAP3 SWAP6 POP JUMP JUMPDEST PUSH0 PUSH1 0x20 DUP3 DUP5 SUB SLT ISZERO PUSH2 0x4330 JUMPI PUSH0 PUSH0 REVERT JUMPDEST POP CALLDATALOAD SWAP2 SWAP1 POP JUMP JUMPDEST PUSH4 0x4E487B71 PUSH1 0xE0 SHL PUSH0 MSTORE PUSH1 0x21 PUSH1 0x4 MSTORE PUSH1 0x24 PUSH0 REVERT JUMPDEST PUSH1 0x1 DUP2 LT PUSH2 0x435B JUMPI PUSH2 0x435B PUSH2 0x4337 JUMP JUMPDEST SWAP1 MSTORE JUMP JUMPDEST PUSH1 0x3 DUP2 LT PUSH2 0x435B JUMPI PUSH2 0x435B PUSH2 0x4337 JUMP JUMPDEST DUP1 MLOAD DUP3 MSTORE PUSH1 0x1 DUP1 PUSH1 0xA0 SHL SUB PUSH1 0x20 DUP3 ADD MLOAD AND PUSH1 0x20 DUP4 ADD MSTORE PUSH1 0x40 DUP2 ADD MLOAD PUSH1 0x40 DUP4 ADD MSTORE PUSH1 0x60 DUP2 ADD MLOAD PUSH1 0x60 DUP4 ADD MSTORE PUSH1 0x80 DUP2 ADD MLOAD PUSH1 0x80 DUP4 ADD MSTORE PUSH1 0xA0 DUP2 ADD MLOAD PUSH2 0x43B5 PUSH1 0xA0 DUP5 ADD DUP3 PUSH2 0x434B JUMP JUMPDEST POP PUSH1 0xC0 DUP2 ADD MLOAD PUSH2 0x43C8 PUSH1 0xC0 DUP5 ADD DUP3 PUSH2 0x435F JUMP JUMPDEST POP PUSH1 0xE0 SWAP1 DUP2 ADD MLOAD ISZERO ISZERO SWAP2 ADD MSTORE JUMP JUMPDEST PUSH2 0x100 DUP2 ADD PUSH2 0x36E0 DUP3 DUP5 PUSH2 0x436F JUMP JUMPDEST PUSH0 PUSH0 PUSH1 0x40 DUP4 DUP6 SUB SLT ISZERO PUSH2 0x43F6 JUMPI PUSH0 PUSH0 REVERT JUMPDEST PUSH2 0x43FF DUP4 PUSH2 0x427B JUMP JUMPDEST SWAP2 POP PUSH1 0x20 DUP4 ADD CALLDATALOAD PUSH2 0x440F DUP2 PUSH2 0x4296 JUMP JUMPDEST DUP1 SWAP2 POP POP SWAP3 POP SWAP3 SWAP1 POP JUMP JUMPDEST PUSH0 PUSH1 0x20 DUP3 DUP5 SUB SLT ISZERO PUSH2 0x442A JUMPI PUSH0 PUSH0 REVERT JUMPDEST PUSH2 0x36DD DUP3 PUSH2 0x427B JUMP JUMPDEST PUSH1 0x1 PUSH1 0x1 PUSH1 0xA0 SHL SUB SWAP2 SWAP1 SWAP2 AND DUP2 MSTORE PUSH1 0x20 ADD SWAP1 JUMP JUMPDEST PUSH0 PUSH0 PUSH0 PUSH1 0x60 DUP5 DUP7 SUB SLT ISZERO PUSH2 0x4459 JUMPI PUSH0 PUSH0 REVERT JUMPDEST PUSH2 0x4462 DUP5 PUSH2 0x427B JUMP JUMPDEST SWAP6 PUSH1 0x20 DUP6 ADD CALLDATALOAD SWAP6 POP PUSH1 0x40 SWAP1 SWAP5 ADD CALLDATALOAD SWAP4 SWAP3 POP POP POP JUMP JUMPDEST PUSH0 PUSH0 PUSH1 0x40 DUP4 DUP6 SUB SLT ISZERO PUSH2 0x4488 JUMPI PUSH0 PUSH0 REVERT JUMPDEST PUSH2 0x4491 DUP4 PUSH2 0x427B JUMP JUMPDEST SWAP5 PUSH1 0x20 SWAP4 SWAP1 SWAP4 ADD CALLDATALOAD SWAP4 POP POP POP JUMP JUMPDEST PUSH1 0x20 DUP1 DUP3 MSTORE DUP3 MLOAD DUP3 DUP3 ADD DUP2 SWAP1 MSTORE PUSH0 SWAP2 DUP5 ADD SWAP1 PUSH1 0x40 DUP5 ADD SWAP1 DUP4 JUMPDEST DUP2 DUP2 LT ISZERO PUSH2 0x44E2 JUMPI PUSH2 0x44CB DUP4 DUP6 MLOAD PUSH2 0x436F JUMP JUMPDEST PUSH1 0x20 SWAP4 SWAP1 SWAP4 ADD SWAP3 PUSH2 0x100 SWAP3 SWAP1 SWAP3 ADD SWAP2 PUSH1 0x1 ADD PUSH2 0x44B8 JUMP JUMPDEST POP SWAP1 SWAP6 SWAP5 POP POP POP POP POP JUMP JUMPDEST DUP9 DUP2 MSTORE PUSH1 0x1 PUSH1 0x1 PUSH1 0xA0 SHL SUB DUP9 AND PUSH1 0x20 DUP3 ADD MSTORE PUSH1 0x40 DUP2 ADD DUP8 SWAP1 MSTORE PUSH1 0x60 DUP2 ADD DUP7 SWAP1 MSTORE PUSH1 0x80 DUP2 ADD DUP6 SWAP1 MSTORE PUSH2 0x100 DUP2 ADD PUSH2 0x4526 PUSH1 0xA0 DUP4 ADD DUP7 PUSH2 0x434B JUMP JUMPDEST PUSH2 0x4533 PUSH1 0xC0 DUP4 ADD DUP6 PUSH2 0x435F JUMP JUMPDEST DUP3 ISZERO ISZERO PUSH1 0xE0 DUP4 ADD MSTORE SWAP10 SWAP9 POP POP POP POP POP POP POP POP POP JUMP JUMPDEST PUSH0 PUSH0 PUSH0 PUSH0 PUSH0 PUSH1 0xA0 DUP7 DUP9 SUB SLT ISZERO PUSH2 0x455C JUMPI PUSH0 PUSH0 REVERT JUMPDEST PUSH2 0x4565 DUP7 PUSH2 0x427B JUMP JUMPDEST SWAP5 POP PUSH2 0x4573 PUSH1 0x20 DUP8 ADD PUSH2 0x427B JUMP JUMPDEST SWAP4 POP PUSH2 0x4581 PUSH1 0x40 DUP8 ADD PUSH2 0x427B JUMP JUMPDEST SWAP3 POP PUSH2 0x458F PUSH1 0x60 DUP8 ADD PUSH2 0x427B JUMP JUMPDEST SWAP2 POP PUSH2 0x459D PUSH1 0x80 DUP8 ADD PUSH2 0x427B JUMP JUMPDEST SWAP1 POP SWAP3 SWAP6 POP SWAP3 SWAP6 SWAP1 SWAP4 POP JUMP JUMPDEST PUSH1 0x20 DUP1 DUP3 MSTORE PUSH1 0xE SWAP1 DUP3 ADD MSTORE PUSH14 0x139BDD08185D5D1A1BDC9A5E9959 PUSH1 0x92 SHL PUSH1 0x40 DUP3 ADD MSTORE PUSH1 0x60 ADD SWAP1 JUMP JUMPDEST PUSH1 0x1 PUSH1 0x1 PUSH1 0xA0 SHL SUB DUP4 AND DUP2 MSTORE PUSH1 0x40 DUP2 ADD PUSH2 0x421E PUSH1 0x20 DUP4 ADD DUP5 PUSH2 0x434B JUMP JUMPDEST PUSH0 PUSH1 0x20 DUP3 DUP5 SUB SLT ISZERO PUSH2 0x45FE JUMPI PUSH0 PUSH0 REVERT JUMPDEST POP MLOAD SWAP2 SWAP1 POP JUMP JUMPDEST PUSH4 0x4E487B71 PUSH1 0xE0 SHL PUSH0 MSTORE PUSH1 0x11 PUSH1 0x4 MSTORE PUSH1 0x24 PUSH0 REVERT JUMPDEST DUP1 DUP3 ADD DUP1 DUP3 GT ISZERO PUSH2 0x36E0 JUMPI PUSH2 0x36E0 PUSH2 0x4605 JUMP JUMPDEST PUSH1 0x1 PUSH1 0x1 PUSH1 0xA0 SHL SUB DUP5 AND DUP2 MSTORE PUSH1 0x60 DUP2 ADD PUSH2 0x4649 PUSH1 0x20 DUP4 ADD DUP6 PUSH2 0x434B JUMP JUMPDEST DUP3 PUSH1 0x40 DUP4 ADD MSTORE SWAP5 SWAP4 POP POP POP POP JUMP JUMPDEST PUSH1 0x20 DUP1 DUP3 MSTORE PUSH1 0x32 SWAP1 DUP3 ADD MSTORE PUSH32 0x4F72646572207072696365206D757374206265206174206C6561737420746865 PUSH1 0x40 DUP3 ADD MSTORE PUSH18 0x2063757272656E74204C4D45207072696365 PUSH1 0x70 SHL PUSH1 0x60 DUP3 ADD MSTORE PUSH1 0x80 ADD SWAP1 JUMP JUMPDEST PUSH4 0x4E487B71 PUSH1 0xE0 SHL PUSH0 MSTORE PUSH1 0x32 PUSH1 0x4 MSTORE PUSH1 0x24 PUSH0 REVERT JUMPDEST PUSH1 0x20 DUP1 DUP3 MSTORE PUSH1 0x13 SWAP1 DUP3 ADD MSTORE PUSH19 0x496E646578206F7574206F6620626F756E6473 PUSH1 0x68 SHL PUSH1 0x40 DUP3 ADD MSTORE PUSH1 0x60 ADD SWAP1 JUMP JUMPDEST DUP2 DUP2 SUB DUP2 DUP2 GT ISZERO PUSH2 0x36E0 JUMPI PUSH2 0x36E0 PUSH2 0x4605 JUMP JUMPDEST PUSH4 0x4E487B71 PUSH1 0xE0 SHL PUSH0 MSTORE PUSH1 0x31 PUSH1 0x4 MSTORE PUSH1 0x24 PUSH0 REVERT JUMPDEST PUSH1 0x20 DUP1 DUP3 MSTORE PUSH1 0x23 SWAP1 DUP3 ADD MSTORE PUSH32 0x4F6E6C7920746865206F776E65722063616E206368616E676520746865207072 PUSH1 0x40 DUP3 ADD MSTORE PUSH3 0x696365 PUSH1 0xE8 SHL PUSH1 0x60 DUP3 ADD MSTORE PUSH1 0x80 ADD SWAP1 JUMP JUMPDEST DUP1 DUP3 MUL DUP2 ISZERO DUP3 DUP3 DIV DUP5 EQ OR PUSH2 0x36E0 JUMPI PUSH2 0x36E0 PUSH2 0x4605 JUMP JUMPDEST PUSH0 DUP3 PUSH2 0x4785 JUMPI PUSH4 0x4E487B71 PUSH1 0xE0 SHL PUSH0 MSTORE PUSH1 0x12 PUSH1 0x4 MSTORE PUSH1 0x24 PUSH0 REVERT JUMPDEST POP DIV SWAP1 JUMP JUMPDEST PUSH1 0x1 PUSH1 0x1 PUSH1 0xA0 SHL SUB DUP6 AND DUP2 MSTORE PUSH1 0x80 DUP2 ADD PUSH2 0x47A7 PUSH1 0x20 DUP4 ADD DUP7 PUSH2 0x435F JUMP JUMPDEST DUP4 PUSH1 0x40 DUP4 ADD MSTORE DUP3 ISZERO ISZERO PUSH1 0x60 DUP4 ADD MSTORE SWAP6 SWAP5 POP POP POP POP POP JUMP JUMPDEST PUSH1 0x1 PUSH1 0x1 PUSH1 0xA0 SHL SUB DUP4 AND DUP2 MSTORE PUSH1 0x40 DUP2 ADD PUSH2 0x421E PUSH1 0x20 DUP4 ADD DUP5 PUSH2 0x435F JUMP JUMPDEST PUSH1 0x1 PUSH1 0x1 PUSH1 0xA0 SHL SUB SWAP4 DUP5 AND DUP2 MSTORE SWAP2 SWAP1 SWAP3 AND PUSH1 0x20 DUP3 ADD MSTORE PUSH1 0x40 DUP2 ADD SWAP2 SWAP1 SWAP2 MSTORE PUSH1 0x60 ADD SWAP1 JUMP JUMPDEST PUSH0 PUSH1 0x20 DUP3 DUP5 SUB SLT ISZERO PUSH2 0x480F JUMPI PUSH0 PUSH0 REVERT JUMPDEST DUP2 MLOAD PUSH2 0x421E DUP2 PUSH2 0x4296 JUMP JUMPDEST PUSH1 0x1 PUSH1 0x1 PUSH1 0xA0 SHL SUB SWAP3 SWAP1 SWAP3 AND DUP3 MSTORE PUSH1 0x20 DUP3 ADD MSTORE PUSH1 0x40 ADD SWAP1 JUMP JUMPDEST PUSH0 PUSH1 0x1 DUP3 ADD PUSH2 0x4844 JUMPI PUSH2 0x4844 PUSH2 0x4605 JUMP JUMPDEST POP PUSH1 0x1 ADD SWAP1 JUMP JUMPDEST PUSH0 DUP2 PUSH2 0x4859 JUMPI PUSH2 0x4859 PUSH2 0x4605 JUMP JUMPDEST POP PUSH0 NOT ADD SWAP1 JUMP INVALID LOG2 PUSH5 0x6970667358 0x22 SLT KECCAK256 GASLIMIT PUSH28 0x60D1721EC26FF5EC2B61B8320449BE16437078AEA5C41527C5B7DC79 DUP8 0xD3 PUSH5 0x736F6C6343 STOP ADDMOD 0x1E STOP CALLER "
		},
		"gasEstimates": {
			"creation": {
				"codeDepositCost": "3716400",
				"executionCost": "74800",
				"totalCost": "3791200"
			},
			"external": {
				"USDCContract()": "2602",
				"addBuyOrder(uint256,address,uint256,uint256,uint8,uint8,bool)": "infinite",
				"addSellOrder(uint256,address,uint256,uint256,uint8,uint8,bool)": "infinite",
				"adminControl()": "2647",
				"approveUSDC(address,uint256)": "infinite",
				"authorizedAddresses(address)": "2818",
				"buyOrdersUSDC(uint256)": "infinite",
				"buyOrdersUSDCLength()": "2368",
				"centralContract()": "2537",
				"changeBuyOrderPriceUSDC(address,uint256,uint256)": "infinite",
				"changeSellOrderPriceUSDC(address,uint256,uint256)": "infinite",
				"escrowHandler()": "2404",
				"getBuyOrdersUSDC()": "infinite",
				"getBuyOrdersUSDC(uint256)": "infinite",
				"getHighestBuyOrderUSDC()": "infinite",
				"getLowestSellOrderUSDC()": "infinite",
				"getSellOrdersUSDC()": "infinite",
				"getSellOrdersUSDC(uint256)": "infinite",
				"nickeliumContract()": "2471",
				"owner()": "2426",
				"pause()": "infinite",
				"paused()": "2600",
				"removeBuyOrderUSDC(uint256)": "infinite",
				"removeSellOrderUSDC(uint256)": "infinite",
				"sellOrdersUSDC(uint256)": "infinite",
				"sellOrdersUSDCLength()": "2445",
				"setAuthorizedAddress(address,bool)": "75451",
				"setContracts(address,address,address,address,address)": "infinite",
				"setOwner(address)": "26830",
				"unpause()": "infinite"
			},
			"internal": {
				"executeTradeUSDC(struct SharedStructs.Order memory,struct SharedStructs.Order storage pointer,uint256,bool)": "infinite",
				"findInsertPosition(struct SharedStructs.Order storage ref[] storage pointer,uint256,bool)": "infinite",
				"insertOrderInSortedPosition(struct SharedStructs.Order storage ref[] storage pointer,struct SharedStructs.Order memory)": "infinite",
				"insertSellOrderInSortedPosition(struct SharedStructs.Order storage ref[] storage pointer,struct SharedStructs.Order memory)": "infinite",
				"matchNewOrderUSDC(struct SharedStructs.Order memory,bool,bool)": "infinite",
				"removeOrderFromList(struct SharedStructs.Order storage ref[] storage pointer,uint256)": "infinite",
				"removeWorstPricedOrder(struct SharedStructs.Order storage ref[] storage pointer,enum SharedStructs.PaymentMethod)": "infinite",
				"removeWorstPricedSellOrder(struct SharedStructs.Order storage ref[] storage pointer,enum SharedStructs.AssetType)": "infinite",
				"repositionOrder(struct SharedStructs.Order storage ref[] storage pointer,uint256,bool)": "infinite"
			}
		},
		"methodIdentifiers": {
			"USDCContract()": "d2873510",
			"addBuyOrder(uint256,address,uint256,uint256,uint8,uint8,bool)": "7e8843d0",
			"addSellOrder(uint256,address,uint256,uint256,uint8,uint8,bool)": "07545726",
			"adminControl()": "555d3e63",
			"approveUSDC(address,uint256)": "3e725a11",
			"authorizedAddresses(address)": "f19e207e",
			"buyOrdersUSDC(uint256)": "cc92b759",
			"buyOrdersUSDCLength()": "a2b34805",
			"centralContract()": "29878bc4",
			"changeBuyOrderPriceUSDC(address,uint256,uint256)": "28953ee8",
			"changeSellOrderPriceUSDC(address,uint256,uint256)": "a95767b9",
			"escrowHandler()": "87ad8f87",
			"getBuyOrdersUSDC()": "505b304d",
			"getBuyOrdersUSDC(uint256)": "0de6d7a2",
			"getHighestBuyOrderUSDC()": "a795729a",
			"getLowestSellOrderUSDC()": "28e07342",
			"getSellOrdersUSDC()": "ebe4e82f",
			"getSellOrdersUSDC(uint256)": "50b55766",
			"nickeliumContract()": "1b8e2ed9",
			"owner()": "8da5cb5b",
			"pause()": "8456cb59",
			"paused()": "5c975abb",
			"removeBuyOrderUSDC(uint256)": "1af0159a",
			"removeSellOrderUSDC(uint256)": "bf5915d1",
			"sellOrdersUSDC(uint256)": "bb2fc69c",
			"sellOrdersUSDCLength()": "aacc7b90",
			"setAuthorizedAddress(address,bool)": "1351cf51",
			"setContracts(address,address,address,address,address)": "f63bf8bd",
			"setOwner(address)": "13af4035",
			"unpause()": "3f4ba83a"
		}
	},
	"abi": [
		{
			"inputs": [],
			"stateMutability": "payable",
			"type": "constructor"
		},
		{
			"inputs": [],
			"name": "ReentrancyGuardReentrantCall",
			"type": "error"
		},
		{
			"anonymous": false,
			"inputs": [
				{
					"indexed": false,
					"internalType": "address",
					"name": "account",
					"type": "address"
				}
			],
			"name": "Paused",
			"type": "event"
		},
		{
			"anonymous": false,
			"inputs": [
				{
					"indexed": false,
					"internalType": "address",
					"name": "account",
					"type": "address"
				}
			],
			"name": "Unpaused",
			"type": "event"
		},
		{
			"inputs": [],
			"name": "USDCContract",
			"outputs": [
				{
					"internalType": "contract IERC20",
					"name": "",
					"type": "address"
				}
			],
			"stateMutability": "view",
			"type": "function"
		},
		{
			"inputs": [
				{
					"internalType": "uint256",
					"name": "_orderID",
					"type": "uint256"
				},
				{
					"internalType": "address",
					"name": "buyer",
					"type": "address"
				},
				{
					"internalType": "uint256",
					"name": "_price",
					"type": "uint256"
				},
				{
					"internalType": "uint256",
					"name": "_amount",
					"type": "uint256"
				},
				{
					"internalType": "enum SharedStructs.AssetType",
					"name": "_assetType",
					"type": "uint8"
				},
				{
					"internalType": "enum SharedStructs.PaymentMethod",
					"name": "_priceCurrency",
					"type": "uint8"
				},
				{
					"internalType": "bool",
					"name": "authorizedBuyersOnly",
					"type": "bool"
				}
			],
			"name": "addBuyOrder",
			"outputs": [],
			"stateMutability": "nonpayable",
			"type": "function"
		},
		{
			"inputs": [
				{
					"internalType": "uint256",
					"name": "_orderID",
					"type": "uint256"
				},
				{
					"internalType": "address",
					"name": "seller",
					"type": "address"
				},
				{
					"internalType": "uint256",
					"name": "_price",
					"type": "uint256"
				},
				{
					"internalType": "uint256",
					"name": "_amount",
					"type": "uint256"
				},
				{
					"internalType": "enum SharedStructs.AssetType",
					"name": "_assetType",
					"type": "uint8"
				},
				{
					"internalType": "enum SharedStructs.PaymentMethod",
					"name": "_priceCurrency",
					"type": "uint8"
				},
				{
					"internalType": "bool",
					"name": "authorizedBuyersOnly",
					"type": "bool"
				}
			],
			"name": "addSellOrder",
			"outputs": [],
			"stateMutability": "nonpayable",
			"type": "function"
		},
		{
			"inputs": [],
			"name": "adminControl",
			"outputs": [
				{
					"internalType": "contract IAdminControl",
					"name": "",
					"type": "address"
				}
			],
			"stateMutability": "view",
			"type": "function"
		},
		{
			"inputs": [
				{
					"internalType": "address",
					"name": "adminControlAddress",
					"type": "address"
				},
				{
					"internalType": "uint256",
					"name": "transferAmount",
					"type": "uint256"
				}
			],
			"name": "approveUSDC",
			"outputs": [],
			"stateMutability": "nonpayable",
			"type": "function"
		},
		{
			"inputs": [
				{
					"internalType": "address",
					"name": "",
					"type": "address"
				}
			],
			"name": "authorizedAddresses",
			"outputs": [
				{
					"internalType": "bool",
					"name": "",
					"type": "bool"
				}
			],
			"stateMutability": "view",
			"type": "function"
		},
		{
			"inputs": [
				{
					"internalType": "uint256",
					"name": "",
					"type": "uint256"
				}
			],
			"name": "buyOrdersUSDC",
			"outputs": [
				{
					"internalType": "uint256",
					"name": "orderID",
					"type": "uint256"
				},
				{
					"internalType": "address payable",
					"name": "user",
					"type": "address"
				},
				{
					"internalType": "uint256",
					"name": "price",
					"type": "uint256"
				},
				{
					"internalType": "uint256",
					"name": "amount",
					"type": "uint256"
				},
				{
					"internalType": "uint256",
					"name": "fulfilledAmount",
					"type": "uint256"
				},
				{
					"internalType": "enum SharedStructs.AssetType",
					"name": "assetType",
					"type": "uint8"
				},
				{
					"internalType": "enum SharedStructs.PaymentMethod",
					"name": "priceCurrency",
					"type": "uint8"
				},
				{
					"internalType": "bool",
					"name": "authorizedBuyersOnly",
					"type": "bool"
				}
			],
			"stateMutability": "view",
			"type": "function"
		},
		{
			"inputs": [],
			"name": "buyOrdersUSDCLength",
			"outputs": [
				{
					"internalType": "uint256",
					"name": "",
					"type": "uint256"
				}
			],
			"stateMutability": "view",
			"type": "function"
		},
		{
			"inputs": [],
			"name": "centralContract",
			"outputs": [
				{
					"internalType": "contract ICentral",
					"name": "",
					"type": "address"
				}
			],
			"stateMutability": "view",
			"type": "function"
		},
		{
			"inputs": [
				{
					"internalType": "address",
					"name": "buyer",
					"type": "address"
				},
				{
					"internalType": "uint256",
					"name": "orderID",
					"type": "uint256"
				},
				{
					"internalType": "uint256",
					"name": "newPrice",
					"type": "uint256"
				}
			],
			"name": "changeBuyOrderPriceUSDC",
			"outputs": [],
			"stateMutability": "nonpayable",
			"type": "function"
		},
		{
			"inputs": [
				{
					"internalType": "address",
					"name": "seller",
					"type": "address"
				},
				{
					"internalType": "uint256",
					"name": "orderID",
					"type": "uint256"
				},
				{
					"internalType": "uint256",
					"name": "newPrice",
					"type": "uint256"
				}
			],
			"name": "changeSellOrderPriceUSDC",
			"outputs": [],
			"stateMutability": "nonpayable",
			"type": "function"
		},
		{
			"inputs": [],
			"name": "escrowHandler",
			"outputs": [
				{
					"internalType": "contract IEscrowHandler",
					"name": "",
					"type": "address"
				}
			],
			"stateMutability": "view",
			"type": "function"
		},
		{
			"inputs": [
				{
					"internalType": "uint256",
					"name": "index",
					"type": "uint256"
				}
			],
			"name": "getBuyOrdersUSDC",
			"outputs": [
				{
					"components": [
						{
							"internalType": "uint256",
							"name": "orderID",
							"type": "uint256"
						},
						{
							"internalType": "address payable",
							"name": "user",
							"type": "address"
						},
						{
							"internalType": "uint256",
							"name": "price",
							"type": "uint256"
						},
						{
							"internalType": "uint256",
							"name": "amount",
							"type": "uint256"
						},
						{
							"internalType": "uint256",
							"name": "fulfilledAmount",
							"type": "uint256"
						},
						{
							"internalType": "enum SharedStructs.AssetType",
							"name": "assetType",
							"type": "uint8"
						},
						{
							"internalType": "enum SharedStructs.PaymentMethod",
							"name": "priceCurrency",
							"type": "uint8"
						},
						{
							"internalType": "bool",
							"name": "authorizedBuyersOnly",
							"type": "bool"
						}
					],
					"internalType": "struct SharedStructs.Order",
					"name": "",
					"type": "tuple"
				}
			],
			"stateMutability": "view",
			"type": "function"
		},
		{
			"inputs": [],
			"name": "getBuyOrdersUSDC",
			"outputs": [
				{
					"components": [
						{
							"internalType": "uint256",
							"name": "orderID",
							"type": "uint256"
						},
						{
							"internalType": "address payable",
							"name": "user",
							"type": "address"
						},
						{
							"internalType": "uint256",
							"name": "price",
							"type": "uint256"
						},
						{
							"internalType": "uint256",
							"name": "amount",
							"type": "uint256"
						},
						{
							"internalType": "uint256",
							"name": "fulfilledAmount",
							"type": "uint256"
						},
						{
							"internalType": "enum SharedStructs.AssetType",
							"name": "assetType",
							"type": "uint8"
						},
						{
							"internalType": "enum SharedStructs.PaymentMethod",
							"name": "priceCurrency",
							"type": "uint8"
						},
						{
							"internalType": "bool",
							"name": "authorizedBuyersOnly",
							"type": "bool"
						}
					],
					"internalType": "struct SharedStructs.Order[]",
					"name": "",
					"type": "tuple[]"
				}
			],
			"stateMutability": "view",
			"type": "function"
		},
		{
			"inputs": [],
			"name": "getHighestBuyOrderUSDC",
			"outputs": [
				{
					"components": [
						{
							"internalType": "uint256",
							"name": "orderID",
							"type": "uint256"
						},
						{
							"internalType": "address payable",
							"name": "user",
							"type": "address"
						},
						{
							"internalType": "uint256",
							"name": "price",
							"type": "uint256"
						},
						{
							"internalType": "uint256",
							"name": "amount",
							"type": "uint256"
						},
						{
							"internalType": "uint256",
							"name": "fulfilledAmount",
							"type": "uint256"
						},
						{
							"internalType": "enum SharedStructs.AssetType",
							"name": "assetType",
							"type": "uint8"
						},
						{
							"internalType": "enum SharedStructs.PaymentMethod",
							"name": "priceCurrency",
							"type": "uint8"
						},
						{
							"internalType": "bool",
							"name": "authorizedBuyersOnly",
							"type": "bool"
						}
					],
					"internalType": "struct SharedStructs.Order",
					"name": "",
					"type": "tuple"
				}
			],
			"stateMutability": "view",
			"type": "function"
		},
		{
			"inputs": [],
			"name": "getLowestSellOrderUSDC",
			"outputs": [
				{
					"components": [
						{
							"internalType": "uint256",
							"name": "orderID",
							"type": "uint256"
						},
						{
							"internalType": "address payable",
							"name": "user",
							"type": "address"
						},
						{
							"internalType": "uint256",
							"name": "price",
							"type": "uint256"
						},
						{
							"internalType": "uint256",
							"name": "amount",
							"type": "uint256"
						},
						{
							"internalType": "uint256",
							"name": "fulfilledAmount",
							"type": "uint256"
						},
						{
							"internalType": "enum SharedStructs.AssetType",
							"name": "assetType",
							"type": "uint8"
						},
						{
							"internalType": "enum SharedStructs.PaymentMethod",
							"name": "priceCurrency",
							"type": "uint8"
						},
						{
							"internalType": "bool",
							"name": "authorizedBuyersOnly",
							"type": "bool"
						}
					],
					"internalType": "struct SharedStructs.Order",
					"name": "",
					"type": "tuple"
				}
			],
			"stateMutability": "view",
			"type": "function"
		},
		{
			"inputs": [
				{
					"internalType": "uint256",
					"name": "index",
					"type": "uint256"
				}
			],
			"name": "getSellOrdersUSDC",
			"outputs": [
				{
					"components": [
						{
							"internalType": "uint256",
							"name": "orderID",
							"type": "uint256"
						},
						{
							"internalType": "address payable",
							"name": "user",
							"type": "address"
						},
						{
							"internalType": "uint256",
							"name": "price",
							"type": "uint256"
						},
						{
							"internalType": "uint256",
							"name": "amount",
							"type": "uint256"
						},
						{
							"internalType": "uint256",
							"name": "fulfilledAmount",
							"type": "uint256"
						},
						{
							"internalType": "enum SharedStructs.AssetType",
							"name": "assetType",
							"type": "uint8"
						},
						{
							"internalType": "enum SharedStructs.PaymentMethod",
							"name": "priceCurrency",
							"type": "uint8"
						},
						{
							"internalType": "bool",
							"name": "authorizedBuyersOnly",
							"type": "bool"
						}
					],
					"internalType": "struct SharedStructs.Order",
					"name": "",
					"type": "tuple"
				}
			],
			"stateMutability": "view",
			"type": "function"
		},
		{
			"inputs": [],
			"name": "getSellOrdersUSDC",
			"outputs": [
				{
					"components": [
						{
							"internalType": "uint256",
							"name": "orderID",
							"type": "uint256"
						},
						{
							"internalType": "address payable",
							"name": "user",
							"type": "address"
						},
						{
							"internalType": "uint256",
							"name": "price",
							"type": "uint256"
						},
						{
							"internalType": "uint256",
							"name": "amount",
							"type": "uint256"
						},
						{
							"internalType": "uint256",
							"name": "fulfilledAmount",
							"type": "uint256"
						},
						{
							"internalType": "enum SharedStructs.AssetType",
							"name": "assetType",
							"type": "uint8"
						},
						{
							"internalType": "enum SharedStructs.PaymentMethod",
							"name": "priceCurrency",
							"type": "uint8"
						},
						{
							"internalType": "bool",
							"name": "authorizedBuyersOnly",
							"type": "bool"
						}
					],
					"internalType": "struct SharedStructs.Order[]",
					"name": "",
					"type": "tuple[]"
				}
			],
			"stateMutability": "view",
			"type": "function"
		},
		{
			"inputs": [],
			"name": "nickeliumContract",
			"outputs": [
				{
					"internalType": "contract INickelium",
					"name": "",
					"type": "address"
				}
			],
			"stateMutability": "view",
			"type": "function"
		},
		{
			"inputs": [],
			"name": "owner",
			"outputs": [
				{
					"internalType": "address",
					"name": "",
					"type": "address"
				}
			],
			"stateMutability": "view",
			"type": "function"
		},
		{
			"inputs": [],
			"name": "pause",
			"outputs": [],
			"stateMutability": "nonpayable",
			"type": "function"
		},
		{
			"inputs": [],
			"name": "paused",
			"outputs": [
				{
					"internalType": "bool",
					"name": "",
					"type": "bool"
				}
			],
			"stateMutability": "view",
			"type": "function"
		},
		{
			"inputs": [
				{
					"internalType": "uint256",
					"name": "index",
					"type": "uint256"
				}
			],
			"name": "removeBuyOrderUSDC",
			"outputs": [],
			"stateMutability": "nonpayable",
			"type": "function"
		},
		{
			"inputs": [
				{
					"internalType": "uint256",
					"name": "index",
					"type": "uint256"
				}
			],
			"name": "removeSellOrderUSDC",
			"outputs": [],
			"stateMutability": "nonpayable",
			"type": "function"
		},
		{
			"inputs": [
				{
					"internalType": "uint256",
					"name": "",
					"type": "uint256"
				}
			],
			"name": "sellOrdersUSDC",
			"outputs": [
				{
					"internalType": "uint256",
					"name": "orderID",
					"type": "uint256"
				},
				{
					"internalType": "address payable",
					"name": "user",
					"type": "address"
				},
				{
					"internalType": "uint256",
					"name": "price",
					"type": "uint256"
				},
				{
					"internalType": "uint256",
					"name": "amount",
					"type": "uint256"
				},
				{
					"internalType": "uint256",
					"name": "fulfilledAmount",
					"type": "uint256"
				},
				{
					"internalType": "enum SharedStructs.AssetType",
					"name": "assetType",
					"type": "uint8"
				},
				{
					"internalType": "enum SharedStructs.PaymentMethod",
					"name": "priceCurrency",
					"type": "uint8"
				},
				{
					"internalType": "bool",
					"name": "authorizedBuyersOnly",
					"type": "bool"
				}
			],
			"stateMutability": "view",
			"type": "function"
		},
		{
			"inputs": [],
			"name": "sellOrdersUSDCLength",
			"outputs": [
				{
					"internalType": "uint256",
					"name": "",
					"type": "uint256"
				}
			],
			"stateMutability": "view",
			"type": "function"
		},
		{
			"inputs": [
				{
					"internalType": "address",
					"name": "_address",
					"type": "address"
				},
				{
					"internalType": "bool",
					"name": "_status",
					"type": "bool"
				}
			],
			"name": "setAuthorizedAddress",
			"outputs": [],
			"stateMutability": "nonpayable",
			"type": "function"
		},
		{
			"inputs": [
				{
					"internalType": "address",
					"name": "_USDCAddress",
					"type": "address"
				},
				{
					"internalType": "address",
					"name": "_nickeliumAddress",
					"type": "address"
				},
				{
					"internalType": "address",
					"name": "_adminControl",
					"type": "address"
				},
				{
					"internalType": "address",
					"name": "_centralAddress",
					"type": "address"
				},
				{
					"internalType": "address",
					"name": "_escrowHandler",
					"type": "address"
				}
			],
			"name": "setContracts",
			"outputs": [],
			"stateMutability": "nonpayable",
			"type": "function"
		},
		{
			"inputs": [
				{
					"internalType": "address",
					"name": "newOwner",
					"type": "address"
				}
			],
			"name": "setOwner",
			"outputs": [],
			"stateMutability": "nonpayable",
			"type": "function"
		},
		{
			"inputs": [],
			"name": "unpause",
			"outputs": [],
			"stateMutability": "nonpayable",
			"type": "function"
		}
	]
}