{
	"contracts/OrderRouter.sol": {
		"OrderRouter": {
			"abi": [
				{
					"inputs": [],
					"stateMutability": "nonpayable",
					"type": "constructor"
				},
				{
					"inputs": [],
					"name": "ReentrancyGuardReentrantCall",
					"type": "error"
				},
				{
					"anonymous": false,
					"inputs": [
						{
							"indexed": false,
							"internalType": "address",
							"name": "account",
							"type": "address"
						}
					],
					"name": "Paused",
					"type": "event"
				},
				{
					"anonymous": false,
					"inputs": [
						{
							"indexed": false,
							"internalType": "address",
							"name": "account",
							"type": "address"
						}
					],
					"name": "Unpaused",
					"type": "event"
				},
				{
					"inputs": [
						{
							"internalType": "address",
							"name": "",
							"type": "address"
						}
					],
					"name": "authorizedAddresses",
					"outputs": [
						{
							"internalType": "bool",
							"name": "",
							"type": "bool"
						}
					],
					"stateMutability": "view",
					"type": "function"
				},
				{
					"inputs": [],
					"name": "escrowHandler",
					"outputs": [
						{
							"internalType": "contract IEscrowHandler",
							"name": "",
							"type": "address"
						}
					],
					"stateMutability": "view",
					"type": "function"
				},
				{
					"inputs": [],
					"name": "owner",
					"outputs": [
						{
							"internalType": "address",
							"name": "",
							"type": "address"
						}
					],
					"stateMutability": "view",
					"type": "function"
				},
				{
					"inputs": [],
					"name": "pause",
					"outputs": [],
					"stateMutability": "nonpayable",
					"type": "function"
				},
				{
					"inputs": [],
					"name": "paused",
					"outputs": [
						{
							"internalType": "bool",
							"name": "",
							"type": "bool"
						}
					],
					"stateMutability": "view",
					"type": "function"
				},
				{
					"inputs": [
						{
							"internalType": "uint256",
							"name": "_orderID",
							"type": "uint256"
						},
						{
							"internalType": "address",
							"name": "buyer",
							"type": "address"
						},
						{
							"internalType": "uint256",
							"name": "_price",
							"type": "uint256"
						},
						{
							"internalType": "uint256",
							"name": "_amount",
							"type": "uint256"
						},
						{
							"internalType": "enum SharedStructs.AssetType",
							"name": "_assetType",
							"type": "uint8"
						},
						{
							"internalType": "enum SharedStructs.PaymentMethod",
							"name": "_priceCurrency",
							"type": "uint8"
						},
						{
							"internalType": "bool",
							"name": "authorizedBuyersOnly",
							"type": "bool"
						}
					],
					"name": "routeBuyOrder",
					"outputs": [],
					"stateMutability": "nonpayable",
					"type": "function"
				},
				{
					"inputs": [
						{
							"internalType": "uint256",
							"name": "_orderID",
							"type": "uint256"
						},
						{
							"internalType": "address",
							"name": "seller",
							"type": "address"
						},
						{
							"internalType": "uint256",
							"name": "_price",
							"type": "uint256"
						},
						{
							"internalType": "uint256",
							"name": "_amount",
							"type": "uint256"
						},
						{
							"internalType": "enum SharedStructs.AssetType",
							"name": "_assetType",
							"type": "uint8"
						},
						{
							"internalType": "enum SharedStructs.PaymentMethod",
							"name": "_priceCurrency",
							"type": "uint8"
						},
						{
							"internalType": "bool",
							"name": "authorizedBuyersOnly",
							"type": "bool"
						}
					],
					"name": "routeSellOrder",
					"outputs": [],
					"stateMutability": "nonpayable",
					"type": "function"
				},
				{
					"inputs": [
						{
							"internalType": "address",
							"name": "_address",
							"type": "address"
						},
						{
							"internalType": "bool",
							"name": "_status",
							"type": "bool"
						}
					],
					"name": "setAuthorizedAddress",
					"outputs": [],
					"stateMutability": "nonpayable",
					"type": "function"
				},
				{
					"inputs": [
						{
							"internalType": "address",
							"name": "_escrowHandler",
							"type": "address"
						},
						{
							"internalType": "address",
							"name": "_usdtOrders",
							"type": "address"
						},
						{
							"internalType": "address",
							"name": "_usdcOrders",
							"type": "address"
						}
					],
					"name": "setContracts",
					"outputs": [],
					"stateMutability": "nonpayable",
					"type": "function"
				},
				{
					"inputs": [
						{
							"internalType": "address",
							"name": "newOwner",
							"type": "address"
						}
					],
					"name": "setOwner",
					"outputs": [],
					"stateMutability": "nonpayable",
					"type": "function"
				},
				{
					"inputs": [],
					"name": "unpause",
					"outputs": [],
					"stateMutability": "nonpayable",
					"type": "function"
				},
				{
					"inputs": [],
					"name": "usdcOrders",
					"outputs": [
						{
							"internalType": "contract IUSDCorders",
							"name": "",
							"type": "address"
						}
					],
					"stateMutability": "view",
					"type": "function"
				},
				{
					"inputs": [],
					"name": "usdtOrders",
					"outputs": [
						{
							"internalType": "contract IUSDTorders",
							"name": "",
							"type": "address"
						}
					],
					"stateMutability": "view",
					"type": "function"
				}
			],
			"devdoc": {
				"errors": {
					"ReentrancyGuardReentrantCall()": [
						{
							"details": "Unauthorized reentrant call."
						}
					]
				},
				"events": {
					"Paused(address)": {
						"details": "Emitted when the pause is triggered by `account`."
					},
					"Unpaused(address)": {
						"details": "Emitted when the pause is lifted by `account`."
					}
				},
				"kind": "dev",
				"methods": {
					"paused()": {
						"details": "Returns true if the contract is paused, and false otherwise."
					}
				},
				"version": 1
			},
			"evm": {
				"assembly": "    /* \"contracts/OrderRouter.sol\":658:5070  contract OrderRouter is ReentrancyGuard, Pausable {... */\n  mstore(0x40, 0x80)\n    /* \"contracts/OrderRouter.sol\":916:1016  constructor() {... */\n  callvalue\n  dup1\n  iszero\n  tag_1\n  jumpi\n  revert(0x00, 0x00)\ntag_1:\n  pop\n    /* \"@openzeppelin/contracts/utils/ReentrancyGuard.sol\":1857:1858  1 */\n  0x01\n    /* \"@openzeppelin/contracts/utils/ReentrancyGuard.sol\":2061:2068  _status */\n  0x00\n    /* \"@openzeppelin/contracts/utils/ReentrancyGuard.sol\":2061:2082  _status = NOT_ENTERED */\n  dup2\n  dup2\n  sstore\n    /* \"@openzeppelin/contracts/security/Pausable.sol\":996:1011  _paused = false */\n  dup2\n  sload\n  not(0xff)\n  swap1\n  dup2\n  and\n  dup4\n  sstore\n    /* \"contracts/OrderRouter.sol\":961:971  msg.sender */\n  caller\n    /* \"contracts/OrderRouter.sol\":941:972  authorizedAddresses[msg.sender] */\n  dup1\n  dup4\n  mstore\n    /* \"contracts/OrderRouter.sol\":941:960  authorizedAddresses */\n  0x04\n    /* \"contracts/OrderRouter.sol\":941:972  authorizedAddresses[msg.sender] */\n  0x20\n  mstore\n  0x40\n  swap1\n  swap3\n  keccak256\n    /* \"contracts/OrderRouter.sol\":941:979  authorizedAddresses[msg.sender] = true */\n  dup1\n  sload\n  swap1\n  swap2\n  and\n  swap1\n  swap3\n  or\n  swap1\n  swap2\n  sstore\n    /* \"contracts/OrderRouter.sol\":990:995  owner */\n  0x05\n    /* \"contracts/OrderRouter.sol\":990:1008  owner = msg.sender */\n  dup1\n  sload\n  not(sub(shl(0xa0, 0x01), 0x01))\n  and\n  swap1\n  swap2\n  or\n  swap1\n  sstore\n    /* \"contracts/OrderRouter.sol\":658:5070  contract OrderRouter is ReentrancyGuard, Pausable {... */\n  dataSize(sub_0)\n  dup1\n  dataOffset(sub_0)\n  0x00\n  codecopy\n  0x00\n  return\nstop\n\nsub_0: assembly {\n        /* \"contracts/OrderRouter.sol\":658:5070  contract OrderRouter is ReentrancyGuard, Pausable {... */\n      mstore(0x40, 0x80)\n      callvalue\n      dup1\n      iszero\n      tag_1\n      jumpi\n      revert(0x00, 0x00)\n    tag_1:\n      pop\n      jumpi(tag_2, lt(calldatasize, 0x04))\n      shr(0xe0, calldataload(0x00))\n      dup1\n      0x0d462d44\n      eq\n      tag_3\n      jumpi\n      dup1\n      0x1351cf51\n      eq\n      tag_4\n      jumpi\n      dup1\n      0x13af4035\n      eq\n      tag_5\n      jumpi\n      dup1\n      0x3f4ba83a\n      eq\n      tag_6\n      jumpi\n      dup1\n      0x5c975abb\n      eq\n      tag_7\n      jumpi\n      dup1\n      0x71dc7725\n      eq\n      tag_8\n      jumpi\n      dup1\n      0x8456cb59\n      eq\n      tag_9\n      jumpi\n      dup1\n      0x87ad8f87\n      eq\n      tag_10\n      jumpi\n      dup1\n      0x8da5cb5b\n      eq\n      tag_11\n      jumpi\n      dup1\n      0x9c5338a5\n      eq\n      tag_12\n      jumpi\n      dup1\n      0xb3066d49\n      eq\n      tag_13\n      jumpi\n      dup1\n      0xced6f7df\n      eq\n      tag_14\n      jumpi\n      dup1\n      0xf19e207e\n      eq\n      tag_15\n      jumpi\n    tag_2:\n      revert(0x00, 0x00)\n        /* \"contracts/OrderRouter.sol\":3397:4794  function routeSellOrder(... */\n    tag_3:\n      tag_16\n      tag_17\n      calldatasize\n      0x04\n      tag_18\n      jump\t// in\n    tag_17:\n      tag_19\n      jump\t// in\n    tag_16:\n      stop\n        /* \"contracts/OrderRouter.sol\":1147:1316  function setAuthorizedAddress(address _address, bool _status) public onlyAuthorized nonReentrant whenNotPaused {... */\n    tag_4:\n      tag_16\n      tag_21\n      calldatasize\n      0x04\n      tag_22\n      jump\t// in\n    tag_21:\n      tag_23\n      jump\t// in\n        /* \"contracts/OrderRouter.sol\":1324:1417  function setOwner(address newOwner) public onlyAuthorized {... */\n    tag_5:\n      tag_16\n      tag_25\n      calldatasize\n      0x04\n      tag_26\n      jump\t// in\n    tag_25:\n      tag_27\n      jump\t// in\n        /* \"contracts/OrderRouter.sol\":4982:5067  function unpause() external onlyAuthorized nonReentrant {... */\n    tag_6:\n      tag_16\n      tag_29\n      jump\t// in\n        /* \"@openzeppelin/contracts/security/Pausable.sol\":1615:1699  function paused() public view virtual returns (bool) {... */\n    tag_7:\n        /* \"@openzeppelin/contracts/security/Pausable.sol\":1685:1692  _paused */\n      and(0xff, sload(0x01))\n        /* \"@openzeppelin/contracts/security/Pausable.sol\":1615:1699  function paused() public view virtual returns (bool) {... */\n    tag_30:\n      mload(0x40)\n        /* \"#utility.yul\":1921:1935   */\n      swap1\n      iszero\n        /* \"#utility.yul\":1914:1936   */\n      iszero\n        /* \"#utility.yul\":1896:1937   */\n      dup2\n      mstore\n        /* \"#utility.yul\":1884:1886   */\n      0x20\n        /* \"#utility.yul\":1869:1887   */\n      add\n        /* \"@openzeppelin/contracts/security/Pausable.sol\":1615:1699  function paused() public view virtual returns (bool) {... */\n    tag_32:\n      mload(0x40)\n      dup1\n      swap2\n      sub\n      swap1\n      return\n        /* \"contracts/OrderRouter.sol\":757:786  IUSDTorders public usdtOrders */\n    tag_8:\n      sload(0x02)\n      tag_34\n      swap1\n      sub(shl(0xa0, 0x01), 0x01)\n      and\n      dup2\n      jump\n    tag_34:\n      mload(0x40)\n      tag_32\n      swap2\n      swap1\n      tag_37\n      jump\t// in\n        /* \"contracts/OrderRouter.sol\":4879:4974  function pause() external whenNotPaused onlyAuthorized nonReentrant {... */\n    tag_9:\n      tag_16\n      tag_39\n      jump\t// in\n        /* \"contracts/OrderRouter.sol\":715:750  IEscrowHandler public escrowHandler */\n    tag_10:\n      sload(0x01)\n      tag_34\n      swap1\n      0x0100\n      swap1\n      div\n      sub(shl(0xa0, 0x01), 0x01)\n      and\n      dup2\n      jump\n        /* \"contracts/OrderRouter.sol\":887:907  address public owner */\n    tag_11:\n      sload(0x05)\n      tag_34\n      swap1\n      sub(shl(0xa0, 0x01), 0x01)\n      and\n      dup2\n      jump\n        /* \"contracts/OrderRouter.sol\":793:822  IUSDCorders public usdcOrders */\n    tag_12:\n      sload(0x03)\n      tag_34\n      swap1\n      sub(shl(0xa0, 0x01), 0x01)\n      and\n      dup2\n      jump\n        /* \"contracts/OrderRouter.sol\":1425:1992  function setContracts(... */\n    tag_13:\n      tag_16\n      tag_53\n      calldatasize\n      0x04\n      tag_54\n      jump\t// in\n    tag_53:\n      tag_55\n      jump\t// in\n        /* \"contracts/OrderRouter.sol\":2000:3389  function routeBuyOrder(... */\n    tag_14:\n      tag_16\n      tag_57\n      calldatasize\n      0x04\n      tag_18\n      jump\t// in\n    tag_57:\n      tag_58\n      jump\t// in\n        /* \"contracts/OrderRouter.sol\":829:880  mapping(address => bool) public authorizedAddresses */\n    tag_15:\n      tag_30\n      tag_60\n      calldatasize\n      0x04\n      tag_26\n      jump\t// in\n    tag_60:\n      mstore(0x20, 0x04)\n      0x00\n      swap1\n      dup2\n      mstore\n      0x40\n      swap1\n      keccak256\n      sload\n      0xff\n      and\n      dup2\n      jump\n        /* \"contracts/OrderRouter.sol\":3397:4794  function routeSellOrder(... */\n    tag_19:\n        /* \"contracts/OrderRouter.sol\":1089:1099  msg.sender */\n      caller\n        /* \"contracts/OrderRouter.sol\":1069:1100  authorizedAddresses[msg.sender] */\n      0x00\n      swap1\n      dup2\n      mstore\n        /* \"contracts/OrderRouter.sol\":1069:1088  authorizedAddresses */\n      0x04\n        /* \"contracts/OrderRouter.sol\":1069:1100  authorizedAddresses[msg.sender] */\n      0x20\n      mstore\n      0x40\n      swap1\n      keccak256\n      sload\n      0xff\n      and\n        /* \"contracts/OrderRouter.sol\":1061:1119  require(authorizedAddresses[msg.sender], \"Not authorized\") */\n      tag_64\n      jumpi\n      mload(0x40)\n      shl(0xe5, 0x461bcd)\n      dup2\n      mstore\n      0x04\n      add\n      tag_65\n      swap1\n      tag_66\n      jump\t// in\n    tag_65:\n      mload(0x40)\n      dup1\n      swap2\n      sub\n      swap1\n      revert\n    tag_64:\n        /* \"@openzeppelin/contracts/utils/ReentrancyGuard.sol\":2500:2521  _nonReentrantBefore() */\n      tag_68\n        /* \"@openzeppelin/contracts/utils/ReentrancyGuard.sol\":2500:2519  _nonReentrantBefore */\n      tag_69\n        /* \"@openzeppelin/contracts/utils/ReentrancyGuard.sol\":2500:2521  _nonReentrantBefore() */\n      jump\t// in\n    tag_68:\n        /* \"@openzeppelin/contracts/security/Pausable.sol\":1239:1258  _requireNotPaused() */\n      tag_71\n        /* \"@openzeppelin/contracts/security/Pausable.sol\":1239:1256  _requireNotPaused */\n      tag_72\n        /* \"@openzeppelin/contracts/security/Pausable.sol\":1239:1258  _requireNotPaused() */\n      jump\t// in\n    tag_71:\n        /* \"contracts/OrderRouter.sol\":3749:3782  SharedStructs.PaymentMethod.Ether */\n      0x00\n        /* \"contracts/OrderRouter.sol\":3731:3745  _priceCurrency */\n      dup3\n        /* \"contracts/OrderRouter.sol\":3731:3782  _priceCurrency == SharedStructs.PaymentMethod.Ether */\n      0x02\n      dup2\n      gt\n      iszero\n      tag_78\n      jumpi\n      tag_78\n      tag_76\n      jump\t// in\n    tag_78:\n      sub\n        /* \"contracts/OrderRouter.sol\":3727:4787  if (_priceCurrency == SharedStructs.PaymentMethod.Ether) {... */\n      tag_79\n      jumpi\n        /* \"contracts/OrderRouter.sol\":3799:3812  escrowHandler */\n      sload(0x01)\n        /* \"contracts/OrderRouter.sol\":3799:4044  escrowHandler.addSellOrder(... */\n      mload(0x40)\n      shl(0xe1, 0x03aa2b93)\n      dup2\n      mstore\n        /* \"contracts/OrderRouter.sol\":3799:3812  escrowHandler */\n      0x0100\n      swap1\n      swap2\n      div\n      sub(shl(0xa0, 0x01), 0x01)\n      and\n      swap1\n        /* \"contracts/OrderRouter.sol\":3799:3825  escrowHandler.addSellOrder */\n      0x07545726\n      swap1\n        /* \"contracts/OrderRouter.sol\":3799:4044  escrowHandler.addSellOrder(... */\n      tag_80\n      swap1\n        /* \"contracts/OrderRouter.sol\":3844:3852  _orderID */\n      dup11\n      swap1\n        /* \"contracts/OrderRouter.sol\":3871:3877  seller */\n      dup11\n      swap1\n        /* \"contracts/OrderRouter.sol\":3896:3902  _price */\n      dup11\n      swap1\n        /* \"contracts/OrderRouter.sol\":3921:3928  _amount */\n      dup11\n      swap1\n        /* \"contracts/OrderRouter.sol\":3947:3957  _assetType */\n      dup11\n      swap1\n        /* \"contracts/OrderRouter.sol\":3976:3990  _priceCurrency */\n      dup11\n      swap1\n        /* \"contracts/OrderRouter.sol\":4009:4029  authorizedBuyersOnly */\n      dup11\n      swap1\n        /* \"contracts/OrderRouter.sol\":3799:4044  escrowHandler.addSellOrder(... */\n      0x04\n      add\n      tag_81\n      jump\t// in\n    tag_80:\n      0x00\n      mload(0x40)\n      dup1\n      dup4\n      sub\n      dup2\n      0x00\n      dup8\n      dup1\n      extcodesize\n      iszero\n      dup1\n      iszero\n      tag_82\n      jumpi\n      revert(0x00, 0x00)\n    tag_82:\n      pop\n      gas\n      call\n      iszero\n      dup1\n      iszero\n      tag_84\n      jumpi\n      returndatacopy(0x00, 0x00, returndatasize)\n      revert(0x00, returndatasize)\n    tag_84:\n      pop\n      pop\n      pop\n      pop\n        /* \"contracts/OrderRouter.sol\":3727:4787  if (_priceCurrency == SharedStructs.PaymentMethod.Ether) {... */\n      jump(tag_105)\n    tag_79:\n        /* \"contracts/OrderRouter.sol\":4084:4116  SharedStructs.PaymentMethod.USDT */\n      0x01\n        /* \"contracts/OrderRouter.sol\":4066:4080  _priceCurrency */\n      dup3\n        /* \"contracts/OrderRouter.sol\":4066:4116  _priceCurrency == SharedStructs.PaymentMethod.USDT */\n      0x02\n      dup2\n      gt\n      iszero\n      tag_89\n      jumpi\n      tag_89\n      tag_76\n      jump\t// in\n    tag_89:\n      sub\n        /* \"contracts/OrderRouter.sol\":4062:4787  if (_priceCurrency == SharedStructs.PaymentMethod.USDT) {... */\n      tag_90\n      jumpi\n        /* \"contracts/OrderRouter.sol\":4133:4143  usdtOrders */\n      sload(0x02)\n        /* \"contracts/OrderRouter.sol\":4133:4375  usdtOrders.addSellOrder(... */\n      mload(0x40)\n      shl(0xe1, 0x03aa2b93)\n      dup2\n      mstore\n      sub(shl(0xa0, 0x01), 0x01)\n        /* \"contracts/OrderRouter.sol\":4133:4143  usdtOrders */\n      swap1\n      swap2\n      and\n      swap1\n        /* \"contracts/OrderRouter.sol\":4133:4156  usdtOrders.addSellOrder */\n      0x07545726\n      swap1\n        /* \"contracts/OrderRouter.sol\":4133:4375  usdtOrders.addSellOrder(... */\n      tag_80\n      swap1\n        /* \"contracts/OrderRouter.sol\":4175:4183  _orderID */\n      dup11\n      swap1\n        /* \"contracts/OrderRouter.sol\":4202:4208  seller */\n      dup11\n      swap1\n        /* \"contracts/OrderRouter.sol\":4227:4233  _price */\n      dup11\n      swap1\n        /* \"contracts/OrderRouter.sol\":4252:4259  _amount */\n      dup11\n      swap1\n        /* \"contracts/OrderRouter.sol\":4278:4288  _assetType */\n      dup11\n      swap1\n        /* \"contracts/OrderRouter.sol\":4307:4321  _priceCurrency */\n      dup11\n      swap1\n        /* \"contracts/OrderRouter.sol\":4340:4360  authorizedBuyersOnly */\n      dup11\n      swap1\n        /* \"contracts/OrderRouter.sol\":4133:4375  usdtOrders.addSellOrder(... */\n      0x04\n      add\n      tag_81\n      jump\t// in\n        /* \"contracts/OrderRouter.sol\":4062:4787  if (_priceCurrency == SharedStructs.PaymentMethod.USDT) {... */\n    tag_90:\n        /* \"contracts/OrderRouter.sol\":4415:4447  SharedStructs.PaymentMethod.USDC */\n      0x02\n        /* \"contracts/OrderRouter.sol\":4397:4411  _priceCurrency */\n      dup3\n        /* \"contracts/OrderRouter.sol\":4397:4447  _priceCurrency == SharedStructs.PaymentMethod.USDC */\n      0x02\n      dup2\n      gt\n      iszero\n      tag_99\n      jumpi\n      tag_99\n      tag_76\n      jump\t// in\n    tag_99:\n      sub\n        /* \"contracts/OrderRouter.sol\":4393:4787  if (_priceCurrency == SharedStructs.PaymentMethod.USDC) {... */\n      tag_100\n      jumpi\n        /* \"contracts/OrderRouter.sol\":4464:4474  usdcOrders */\n      sload(0x03)\n        /* \"contracts/OrderRouter.sol\":4464:4706  usdcOrders.addSellOrder(... */\n      mload(0x40)\n      shl(0xe1, 0x03aa2b93)\n      dup2\n      mstore\n      sub(shl(0xa0, 0x01), 0x01)\n        /* \"contracts/OrderRouter.sol\":4464:4474  usdcOrders */\n      swap1\n      swap2\n      and\n      swap1\n        /* \"contracts/OrderRouter.sol\":4464:4487  usdcOrders.addSellOrder */\n      0x07545726\n      swap1\n        /* \"contracts/OrderRouter.sol\":4464:4706  usdcOrders.addSellOrder(... */\n      tag_80\n      swap1\n        /* \"contracts/OrderRouter.sol\":4506:4514  _orderID */\n      dup11\n      swap1\n        /* \"contracts/OrderRouter.sol\":4533:4539  seller */\n      dup11\n      swap1\n        /* \"contracts/OrderRouter.sol\":4558:4564  _price */\n      dup11\n      swap1\n        /* \"contracts/OrderRouter.sol\":4583:4590  _amount */\n      dup11\n      swap1\n        /* \"contracts/OrderRouter.sol\":4609:4619  _assetType */\n      dup11\n      swap1\n        /* \"contracts/OrderRouter.sol\":4638:4652  _priceCurrency */\n      dup11\n      swap1\n        /* \"contracts/OrderRouter.sol\":4671:4691  authorizedBuyersOnly */\n      dup11\n      swap1\n        /* \"contracts/OrderRouter.sol\":4464:4706  usdcOrders.addSellOrder(... */\n      0x04\n      add\n      tag_81\n      jump\t// in\n        /* \"contracts/OrderRouter.sol\":4393:4787  if (_priceCurrency == SharedStructs.PaymentMethod.USDC) {... */\n    tag_100:\n        /* \"contracts/OrderRouter.sol\":4739:4775  revert(\"Unsupported payment method\") */\n      mload(0x40)\n      shl(0xe5, 0x461bcd)\n      dup2\n      mstore\n        /* \"#utility.yul\":4644:4646   */\n      0x20\n        /* \"contracts/OrderRouter.sol\":4739:4775  revert(\"Unsupported payment method\") */\n      0x04\n      dup3\n      add\n        /* \"#utility.yul\":4626:4647   */\n      mstore\n        /* \"#utility.yul\":4683:4685   */\n      0x1a\n        /* \"#utility.yul\":4663:4681   */\n      0x24\n      dup3\n      add\n        /* \"#utility.yul\":4656:4686   */\n      mstore\n      shl(0x32, 0x155b9cdd5c1c1bdc9d1959081c185e5b595b9d081b595d1a1bd9)\n        /* \"#utility.yul\":4702:4720   */\n      0x44\n      dup3\n      add\n        /* \"#utility.yul\":4695:4751   */\n      mstore\n        /* \"#utility.yul\":4768:4786   */\n      0x64\n      add\n        /* \"contracts/OrderRouter.sol\":4739:4775  revert(\"Unsupported payment method\") */\n      tag_65\n        /* \"#utility.yul\":4442:4792   */\n      jump\n        /* \"contracts/OrderRouter.sol\":4393:4787  if (_priceCurrency == SharedStructs.PaymentMethod.USDC) {... */\n    tag_105:\n        /* \"@openzeppelin/contracts/utils/ReentrancyGuard.sol\":2542:2562  _nonReentrantAfter() */\n      tag_108\n        /* \"@openzeppelin/contracts/utils/ReentrancyGuard.sol\":1857:1858  1 */\n      0x01\n        /* \"@openzeppelin/contracts/utils/ReentrancyGuard.sol\":3068:3075  _status */\n      0x00\n        /* \"@openzeppelin/contracts/utils/ReentrancyGuard.sol\":3068:3089  _status = NOT_ENTERED */\n      sstore\n        /* \"@openzeppelin/contracts/utils/ReentrancyGuard.sol\":2888:3096  function _nonReentrantAfter() private {... */\n      jump\n        /* \"@openzeppelin/contracts/utils/ReentrancyGuard.sol\":2542:2562  _nonReentrantAfter() */\n    tag_108:\n        /* \"contracts/OrderRouter.sol\":3397:4794  function routeSellOrder(... */\n      pop\n      pop\n      pop\n      pop\n      pop\n      pop\n      pop\n      jump\t// out\n        /* \"contracts/OrderRouter.sol\":1147:1316  function setAuthorizedAddress(address _address, bool _status) public onlyAuthorized nonReentrant whenNotPaused {... */\n    tag_23:\n        /* \"contracts/OrderRouter.sol\":1089:1099  msg.sender */\n      caller\n        /* \"contracts/OrderRouter.sol\":1069:1100  authorizedAddresses[msg.sender] */\n      0x00\n      swap1\n      dup2\n      mstore\n        /* \"contracts/OrderRouter.sol\":1069:1088  authorizedAddresses */\n      0x04\n        /* \"contracts/OrderRouter.sol\":1069:1100  authorizedAddresses[msg.sender] */\n      0x20\n      mstore\n      0x40\n      swap1\n      keccak256\n      sload\n      0xff\n      and\n        /* \"contracts/OrderRouter.sol\":1061:1119  require(authorizedAddresses[msg.sender], \"Not authorized\") */\n      tag_111\n      jumpi\n      mload(0x40)\n      shl(0xe5, 0x461bcd)\n      dup2\n      mstore\n      0x04\n      add\n      tag_65\n      swap1\n      tag_66\n      jump\t// in\n    tag_111:\n        /* \"@openzeppelin/contracts/utils/ReentrancyGuard.sol\":2500:2521  _nonReentrantBefore() */\n      tag_114\n        /* \"@openzeppelin/contracts/utils/ReentrancyGuard.sol\":2500:2519  _nonReentrantBefore */\n      tag_69\n        /* \"@openzeppelin/contracts/utils/ReentrancyGuard.sol\":2500:2521  _nonReentrantBefore() */\n      jump\t// in\n    tag_114:\n        /* \"@openzeppelin/contracts/security/Pausable.sol\":1239:1258  _requireNotPaused() */\n      tag_116\n        /* \"@openzeppelin/contracts/security/Pausable.sol\":1239:1256  _requireNotPaused */\n      tag_72\n        /* \"@openzeppelin/contracts/security/Pausable.sol\":1239:1258  _requireNotPaused() */\n      jump\t// in\n    tag_116:\n      sub(shl(0xa0, 0x01), 0x01)\n        /* \"contracts/OrderRouter.sol\":1269:1298  authorizedAddresses[_address] */\n      dup3\n      and\n      0x00\n      swap1\n      dup2\n      mstore\n        /* \"contracts/OrderRouter.sol\":1269:1288  authorizedAddresses */\n      0x04\n        /* \"contracts/OrderRouter.sol\":1269:1298  authorizedAddresses[_address] */\n      0x20\n      mstore\n      0x40\n      dup2\n      keccak256\n        /* \"contracts/OrderRouter.sol\":1269:1308  authorizedAddresses[_address] = _status */\n      dup1\n      sload\n      not(0xff)\n      and\n      dup4\n      iszero\n      iszero\n      or\n      swap1\n      sstore\n      0x01\n        /* \"@openzeppelin/contracts/utils/ReentrancyGuard.sol\":3068:3089  _status = NOT_ENTERED */\n      swap1\n      sstore\n        /* \"contracts/OrderRouter.sol\":1147:1316  function setAuthorizedAddress(address _address, bool _status) public onlyAuthorized nonReentrant whenNotPaused {... */\n      pop\n      pop\n      jump\t// out\n        /* \"contracts/OrderRouter.sol\":1324:1417  function setOwner(address newOwner) public onlyAuthorized {... */\n    tag_27:\n        /* \"contracts/OrderRouter.sol\":1089:1099  msg.sender */\n      caller\n        /* \"contracts/OrderRouter.sol\":1069:1100  authorizedAddresses[msg.sender] */\n      0x00\n      swap1\n      dup2\n      mstore\n        /* \"contracts/OrderRouter.sol\":1069:1088  authorizedAddresses */\n      0x04\n        /* \"contracts/OrderRouter.sol\":1069:1100  authorizedAddresses[msg.sender] */\n      0x20\n      mstore\n      0x40\n      swap1\n      keccak256\n      sload\n      0xff\n      and\n        /* \"contracts/OrderRouter.sol\":1061:1119  require(authorizedAddresses[msg.sender], \"Not authorized\") */\n      tag_120\n      jumpi\n      mload(0x40)\n      shl(0xe5, 0x461bcd)\n      dup2\n      mstore\n      0x04\n      add\n      tag_65\n      swap1\n      tag_66\n      jump\t// in\n    tag_120:\n        /* \"contracts/OrderRouter.sol\":1393:1398  owner */\n      0x05\n        /* \"contracts/OrderRouter.sol\":1393:1409  owner = newOwner */\n      dup1\n      sload\n      not(sub(shl(0xa0, 0x01), 0x01))\n      and\n      sub(shl(0xa0, 0x01), 0x01)\n      swap3\n      swap1\n      swap3\n      and\n      swap2\n      swap1\n      swap2\n      or\n      swap1\n      sstore\n        /* \"contracts/OrderRouter.sol\":1324:1417  function setOwner(address newOwner) public onlyAuthorized {... */\n      jump\t// out\n        /* \"contracts/OrderRouter.sol\":4982:5067  function unpause() external onlyAuthorized nonReentrant {... */\n    tag_29:\n        /* \"contracts/OrderRouter.sol\":1089:1099  msg.sender */\n      caller\n        /* \"contracts/OrderRouter.sol\":1069:1100  authorizedAddresses[msg.sender] */\n      0x00\n      swap1\n      dup2\n      mstore\n        /* \"contracts/OrderRouter.sol\":1069:1088  authorizedAddresses */\n      0x04\n        /* \"contracts/OrderRouter.sol\":1069:1100  authorizedAddresses[msg.sender] */\n      0x20\n      mstore\n      0x40\n      swap1\n      keccak256\n      sload\n      0xff\n      and\n        /* \"contracts/OrderRouter.sol\":1061:1119  require(authorizedAddresses[msg.sender], \"Not authorized\") */\n      tag_124\n      jumpi\n      mload(0x40)\n      shl(0xe5, 0x461bcd)\n      dup2\n      mstore\n      0x04\n      add\n      tag_65\n      swap1\n      tag_66\n      jump\t// in\n    tag_124:\n        /* \"@openzeppelin/contracts/utils/ReentrancyGuard.sol\":2500:2521  _nonReentrantBefore() */\n      tag_127\n        /* \"@openzeppelin/contracts/utils/ReentrancyGuard.sol\":2500:2519  _nonReentrantBefore */\n      tag_69\n        /* \"@openzeppelin/contracts/utils/ReentrancyGuard.sol\":2500:2521  _nonReentrantBefore() */\n      jump\t// in\n    tag_127:\n        /* \"contracts/OrderRouter.sol\":5049:5059  _unpause() */\n      tag_129\n        /* \"contracts/OrderRouter.sol\":5049:5057  _unpause */\n      tag_130\n        /* \"contracts/OrderRouter.sol\":5049:5059  _unpause() */\n      jump\t// in\n    tag_129:\n        /* \"@openzeppelin/contracts/utils/ReentrancyGuard.sol\":2542:2562  _nonReentrantAfter() */\n      tag_131\n        /* \"@openzeppelin/contracts/utils/ReentrancyGuard.sol\":1857:1858  1 */\n      0x01\n        /* \"@openzeppelin/contracts/utils/ReentrancyGuard.sol\":3068:3075  _status */\n      0x00\n        /* \"@openzeppelin/contracts/utils/ReentrancyGuard.sol\":3068:3089  _status = NOT_ENTERED */\n      sstore\n        /* \"@openzeppelin/contracts/utils/ReentrancyGuard.sol\":2888:3096  function _nonReentrantAfter() private {... */\n      jump\n        /* \"@openzeppelin/contracts/utils/ReentrancyGuard.sol\":2542:2562  _nonReentrantAfter() */\n    tag_131:\n        /* \"contracts/OrderRouter.sol\":4982:5067  function unpause() external onlyAuthorized nonReentrant {... */\n      jump\t// out\n        /* \"contracts/OrderRouter.sol\":4879:4974  function pause() external whenNotPaused onlyAuthorized nonReentrant {... */\n    tag_39:\n        /* \"@openzeppelin/contracts/security/Pausable.sol\":1239:1258  _requireNotPaused() */\n      tag_134\n        /* \"@openzeppelin/contracts/security/Pausable.sol\":1239:1256  _requireNotPaused */\n      tag_72\n        /* \"@openzeppelin/contracts/security/Pausable.sol\":1239:1258  _requireNotPaused() */\n      jump\t// in\n    tag_134:\n        /* \"contracts/OrderRouter.sol\":1089:1099  msg.sender */\n      caller\n        /* \"contracts/OrderRouter.sol\":1069:1100  authorizedAddresses[msg.sender] */\n      0x00\n      swap1\n      dup2\n      mstore\n        /* \"contracts/OrderRouter.sol\":1069:1088  authorizedAddresses */\n      0x04\n        /* \"contracts/OrderRouter.sol\":1069:1100  authorizedAddresses[msg.sender] */\n      0x20\n      mstore\n      0x40\n      swap1\n      keccak256\n      sload\n      0xff\n      and\n        /* \"contracts/OrderRouter.sol\":1061:1119  require(authorizedAddresses[msg.sender], \"Not authorized\") */\n      tag_136\n      jumpi\n      mload(0x40)\n      shl(0xe5, 0x461bcd)\n      dup2\n      mstore\n      0x04\n      add\n      tag_65\n      swap1\n      tag_66\n      jump\t// in\n    tag_136:\n        /* \"@openzeppelin/contracts/utils/ReentrancyGuard.sol\":2500:2521  _nonReentrantBefore() */\n      tag_139\n        /* \"@openzeppelin/contracts/utils/ReentrancyGuard.sol\":2500:2519  _nonReentrantBefore */\n      tag_69\n        /* \"@openzeppelin/contracts/utils/ReentrancyGuard.sol\":2500:2521  _nonReentrantBefore() */\n      jump\t// in\n    tag_139:\n        /* \"contracts/OrderRouter.sol\":4958:4966  _pause() */\n      tag_129\n        /* \"contracts/OrderRouter.sol\":4958:4964  _pause */\n      tag_142\n        /* \"contracts/OrderRouter.sol\":4958:4966  _pause() */\n      jump\t// in\n        /* \"contracts/OrderRouter.sol\":1425:1992  function setContracts(... */\n    tag_55:\n        /* \"contracts/OrderRouter.sol\":1089:1099  msg.sender */\n      caller\n        /* \"contracts/OrderRouter.sol\":1069:1100  authorizedAddresses[msg.sender] */\n      0x00\n      swap1\n      dup2\n      mstore\n        /* \"contracts/OrderRouter.sol\":1069:1088  authorizedAddresses */\n      0x04\n        /* \"contracts/OrderRouter.sol\":1069:1100  authorizedAddresses[msg.sender] */\n      0x20\n      mstore\n      0x40\n      swap1\n      keccak256\n      sload\n      0xff\n      and\n        /* \"contracts/OrderRouter.sol\":1061:1119  require(authorizedAddresses[msg.sender], \"Not authorized\") */\n      tag_145\n      jumpi\n      mload(0x40)\n      shl(0xe5, 0x461bcd)\n      dup2\n      mstore\n      0x04\n      add\n      tag_65\n      swap1\n      tag_66\n      jump\t// in\n    tag_145:\n        /* \"@openzeppelin/contracts/utils/ReentrancyGuard.sol\":2500:2521  _nonReentrantBefore() */\n      tag_148\n        /* \"@openzeppelin/contracts/utils/ReentrancyGuard.sol\":2500:2519  _nonReentrantBefore */\n      tag_69\n        /* \"@openzeppelin/contracts/utils/ReentrancyGuard.sol\":2500:2521  _nonReentrantBefore() */\n      jump\t// in\n    tag_148:\n        /* \"@openzeppelin/contracts/security/Pausable.sol\":1239:1258  _requireNotPaused() */\n      tag_150\n        /* \"@openzeppelin/contracts/security/Pausable.sol\":1239:1256  _requireNotPaused */\n      tag_72\n        /* \"@openzeppelin/contracts/security/Pausable.sol\":1239:1258  _requireNotPaused() */\n      jump\t// in\n    tag_150:\n      sub(shl(0xa0, 0x01), 0x01)\n        /* \"contracts/OrderRouter.sol\":1617:1645  _escrowHandler != address(0) */\n      dup4\n      and\n        /* \"contracts/OrderRouter.sol\":1609:1679  require(_escrowHandler != address(0), \"Invalid escrowHandler address\") */\n      tag_152\n      jumpi\n      mload(0x40)\n      shl(0xe5, 0x461bcd)\n      dup2\n      mstore\n        /* \"#utility.yul\":4999:5001   */\n      0x20\n        /* \"contracts/OrderRouter.sol\":1609:1679  require(_escrowHandler != address(0), \"Invalid escrowHandler address\") */\n      0x04\n      dup3\n      add\n        /* \"#utility.yul\":4981:5002   */\n      mstore\n        /* \"#utility.yul\":5038:5040   */\n      0x1d\n        /* \"#utility.yul\":5018:5036   */\n      0x24\n      dup3\n      add\n        /* \"#utility.yul\":5011:5041   */\n      mstore\n        /* \"#utility.yul\":5077:5108   */\n      0x496e76616c696420657363726f7748616e646c65722061646472657373000000\n        /* \"#utility.yul\":5057:5075   */\n      0x44\n      dup3\n      add\n        /* \"#utility.yul\":5050:5109   */\n      mstore\n        /* \"#utility.yul\":5126:5144   */\n      0x64\n      add\n        /* \"contracts/OrderRouter.sol\":1609:1679  require(_escrowHandler != address(0), \"Invalid escrowHandler address\") */\n      tag_65\n        /* \"#utility.yul\":4797:5150   */\n      jump\n        /* \"contracts/OrderRouter.sol\":1609:1679  require(_escrowHandler != address(0), \"Invalid escrowHandler address\") */\n    tag_152:\n      sub(shl(0xa0, 0x01), 0x01)\n        /* \"contracts/OrderRouter.sol\":1698:1723  _usdtOrders != address(0) */\n      dup3\n      and\n        /* \"contracts/OrderRouter.sol\":1690:1754  require(_usdtOrders != address(0), \"Invalid usdtOrders address\") */\n      tag_155\n      jumpi\n      mload(0x40)\n      shl(0xe5, 0x461bcd)\n      dup2\n      mstore\n        /* \"#utility.yul\":5357:5359   */\n      0x20\n        /* \"contracts/OrderRouter.sol\":1690:1754  require(_usdtOrders != address(0), \"Invalid usdtOrders address\") */\n      0x04\n      dup3\n      add\n        /* \"#utility.yul\":5339:5360   */\n      mstore\n        /* \"#utility.yul\":5396:5398   */\n      0x1a\n        /* \"#utility.yul\":5376:5394   */\n      0x24\n      dup3\n      add\n        /* \"#utility.yul\":5369:5399   */\n      mstore\n      shl(0x30, 0x496e76616c696420757364744f72646572732061646472657373)\n        /* \"#utility.yul\":5415:5433   */\n      0x44\n      dup3\n      add\n        /* \"#utility.yul\":5408:5464   */\n      mstore\n        /* \"#utility.yul\":5481:5499   */\n      0x64\n      add\n        /* \"contracts/OrderRouter.sol\":1690:1754  require(_usdtOrders != address(0), \"Invalid usdtOrders address\") */\n      tag_65\n        /* \"#utility.yul\":5155:5505   */\n      jump\n        /* \"contracts/OrderRouter.sol\":1690:1754  require(_usdtOrders != address(0), \"Invalid usdtOrders address\") */\n    tag_155:\n      sub(shl(0xa0, 0x01), 0x01)\n        /* \"contracts/OrderRouter.sol\":1773:1798  _usdcOrders != address(0) */\n      dup2\n      and\n        /* \"contracts/OrderRouter.sol\":1765:1829  require(_usdcOrders != address(0), \"Invalid usdcOrders address\") */\n      tag_158\n      jumpi\n      mload(0x40)\n      shl(0xe5, 0x461bcd)\n      dup2\n      mstore\n        /* \"#utility.yul\":5712:5714   */\n      0x20\n        /* \"contracts/OrderRouter.sol\":1765:1829  require(_usdcOrders != address(0), \"Invalid usdcOrders address\") */\n      0x04\n      dup3\n      add\n        /* \"#utility.yul\":5694:5715   */\n      mstore\n        /* \"#utility.yul\":5751:5753   */\n      0x1a\n        /* \"#utility.yul\":5731:5749   */\n      0x24\n      dup3\n      add\n        /* \"#utility.yul\":5724:5754   */\n      mstore\n      shl(0x30, 0x496e76616c696420757364634f72646572732061646472657373)\n        /* \"#utility.yul\":5770:5788   */\n      0x44\n      dup3\n      add\n        /* \"#utility.yul\":5763:5819   */\n      mstore\n        /* \"#utility.yul\":5836:5854   */\n      0x64\n      add\n        /* \"contracts/OrderRouter.sol\":1765:1829  require(_usdcOrders != address(0), \"Invalid usdcOrders address\") */\n      tag_65\n        /* \"#utility.yul\":5510:5860   */\n      jump\n        /* \"contracts/OrderRouter.sol\":1765:1829  require(_usdcOrders != address(0), \"Invalid usdcOrders address\") */\n    tag_158:\n        /* \"contracts/OrderRouter.sol\":1842:1855  escrowHandler */\n      0x01\n        /* \"contracts/OrderRouter.sol\":1842:1888  escrowHandler = IEscrowHandler(_escrowHandler) */\n      dup1\n      sload\n      not(sub(shl(0xa8, 0x01), 0x0100))\n      and\n      0x0100\n      sub(shl(0xa0, 0x01), 0x01)\n      swap6\n      dup7\n      and\n      mul\n      or\n      dup2\n      sstore\n        /* \"contracts/OrderRouter.sol\":1899:1909  usdtOrders */\n      0x02\n        /* \"contracts/OrderRouter.sol\":1899:1936  usdtOrders = IUSDTorders(_usdtOrders) */\n      dup1\n      sload\n      not(sub(shl(0xa0, 0x01), 0x01))\n      swap1\n      dup2\n      and\n      swap5\n      dup7\n      and\n      swap5\n      swap1\n      swap5\n      or\n      swap1\n      sstore\n        /* \"contracts/OrderRouter.sol\":1947:1957  usdcOrders */\n      0x03\n        /* \"contracts/OrderRouter.sol\":1947:1984  usdcOrders = IUSDCorders(_usdcOrders) */\n      dup1\n      sload\n      swap1\n      swap4\n      and\n      swap2\n      swap1\n      swap4\n      and\n      or\n      swap1\n      sstore\n      0x00\n        /* \"@openzeppelin/contracts/utils/ReentrancyGuard.sol\":3068:3089  _status = NOT_ENTERED */\n      sstore\n        /* \"contracts/OrderRouter.sol\":1425:1992  function setContracts(... */\n      jump\t// out\n        /* \"contracts/OrderRouter.sol\":2000:3389  function routeBuyOrder(... */\n    tag_58:\n        /* \"contracts/OrderRouter.sol\":1089:1099  msg.sender */\n      caller\n        /* \"contracts/OrderRouter.sol\":1069:1100  authorizedAddresses[msg.sender] */\n      0x00\n      swap1\n      dup2\n      mstore\n        /* \"contracts/OrderRouter.sol\":1069:1088  authorizedAddresses */\n      0x04\n        /* \"contracts/OrderRouter.sol\":1069:1100  authorizedAddresses[msg.sender] */\n      0x20\n      mstore\n      0x40\n      swap1\n      keccak256\n      sload\n      0xff\n      and\n        /* \"contracts/OrderRouter.sol\":1061:1119  require(authorizedAddresses[msg.sender], \"Not authorized\") */\n      tag_163\n      jumpi\n      mload(0x40)\n      shl(0xe5, 0x461bcd)\n      dup2\n      mstore\n      0x04\n      add\n      tag_65\n      swap1\n      tag_66\n      jump\t// in\n    tag_163:\n        /* \"@openzeppelin/contracts/utils/ReentrancyGuard.sol\":2500:2521  _nonReentrantBefore() */\n      tag_166\n        /* \"@openzeppelin/contracts/utils/ReentrancyGuard.sol\":2500:2519  _nonReentrantBefore */\n      tag_69\n        /* \"@openzeppelin/contracts/utils/ReentrancyGuard.sol\":2500:2521  _nonReentrantBefore() */\n      jump\t// in\n    tag_166:\n        /* \"@openzeppelin/contracts/security/Pausable.sol\":1239:1258  _requireNotPaused() */\n      tag_168\n        /* \"@openzeppelin/contracts/security/Pausable.sol\":1239:1256  _requireNotPaused */\n      tag_72\n        /* \"@openzeppelin/contracts/security/Pausable.sol\":1239:1258  _requireNotPaused() */\n      jump\t// in\n    tag_168:\n        /* \"contracts/OrderRouter.sol\":2350:2383  SharedStructs.PaymentMethod.Ether */\n      0x00\n        /* \"contracts/OrderRouter.sol\":2332:2346  _priceCurrency */\n      dup3\n        /* \"contracts/OrderRouter.sol\":2332:2383  _priceCurrency == SharedStructs.PaymentMethod.Ether */\n      0x02\n      dup2\n      gt\n      iszero\n      tag_173\n      jumpi\n      tag_173\n      tag_76\n      jump\t// in\n    tag_173:\n      sub\n        /* \"contracts/OrderRouter.sol\":2328:3382  if (_priceCurrency == SharedStructs.PaymentMethod.Ether) {... */\n      tag_174\n      jumpi\n        /* \"contracts/OrderRouter.sol\":2400:2413  escrowHandler */\n      sload(0x01)\n        /* \"contracts/OrderRouter.sol\":2400:2643  escrowHandler.addBuyOrder(... */\n      mload(0x40)\n      shl(0xe4, 0x07e8843d)\n      dup2\n      mstore\n        /* \"contracts/OrderRouter.sol\":2400:2413  escrowHandler */\n      0x0100\n      swap1\n      swap2\n      div\n      sub(shl(0xa0, 0x01), 0x01)\n      and\n      swap1\n        /* \"contracts/OrderRouter.sol\":2400:2425  escrowHandler.addBuyOrder */\n      0x7e8843d0\n      swap1\n        /* \"contracts/OrderRouter.sol\":2400:2643  escrowHandler.addBuyOrder(... */\n      tag_80\n      swap1\n        /* \"contracts/OrderRouter.sol\":2444:2452  _orderID */\n      dup11\n      swap1\n        /* \"contracts/OrderRouter.sol\":2471:2476  buyer */\n      dup11\n      swap1\n        /* \"contracts/OrderRouter.sol\":2495:2501  _price */\n      dup11\n      swap1\n        /* \"contracts/OrderRouter.sol\":2520:2527  _amount */\n      dup11\n      swap1\n        /* \"contracts/OrderRouter.sol\":2546:2556  _assetType */\n      dup11\n      swap1\n        /* \"contracts/OrderRouter.sol\":2575:2589  _priceCurrency */\n      dup11\n      swap1\n        /* \"contracts/OrderRouter.sol\":2608:2628  authorizedBuyersOnly */\n      dup11\n      swap1\n        /* \"contracts/OrderRouter.sol\":2400:2643  escrowHandler.addBuyOrder(... */\n      0x04\n      add\n      tag_81\n      jump\t// in\n        /* \"contracts/OrderRouter.sol\":2328:3382  if (_priceCurrency == SharedStructs.PaymentMethod.Ether) {... */\n    tag_174:\n        /* \"contracts/OrderRouter.sol\":2683:2715  SharedStructs.PaymentMethod.USDT */\n      0x01\n        /* \"contracts/OrderRouter.sol\":2665:2679  _priceCurrency */\n      dup3\n        /* \"contracts/OrderRouter.sol\":2665:2715  _priceCurrency == SharedStructs.PaymentMethod.USDT */\n      0x02\n      dup2\n      gt\n      iszero\n      tag_183\n      jumpi\n      tag_183\n      tag_76\n      jump\t// in\n    tag_183:\n      sub\n        /* \"contracts/OrderRouter.sol\":2661:3382  if (_priceCurrency == SharedStructs.PaymentMethod.USDT) {... */\n      tag_184\n      jumpi\n        /* \"contracts/OrderRouter.sol\":2732:2742  usdtOrders */\n      sload(0x02)\n        /* \"contracts/OrderRouter.sol\":2732:2972  usdtOrders.addBuyOrder(... */\n      mload(0x40)\n      shl(0xe4, 0x07e8843d)\n      dup2\n      mstore\n      sub(shl(0xa0, 0x01), 0x01)\n        /* \"contracts/OrderRouter.sol\":2732:2742  usdtOrders */\n      swap1\n      swap2\n      and\n      swap1\n        /* \"contracts/OrderRouter.sol\":2732:2754  usdtOrders.addBuyOrder */\n      0x7e8843d0\n      swap1\n        /* \"contracts/OrderRouter.sol\":2732:2972  usdtOrders.addBuyOrder(... */\n      tag_80\n      swap1\n        /* \"contracts/OrderRouter.sol\":2773:2781  _orderID */\n      dup11\n      swap1\n        /* \"contracts/OrderRouter.sol\":2800:2805  buyer */\n      dup11\n      swap1\n        /* \"contracts/OrderRouter.sol\":2824:2830  _price */\n      dup11\n      swap1\n        /* \"contracts/OrderRouter.sol\":2849:2856  _amount */\n      dup11\n      swap1\n        /* \"contracts/OrderRouter.sol\":2875:2885  _assetType */\n      dup11\n      swap1\n        /* \"contracts/OrderRouter.sol\":2904:2918  _priceCurrency */\n      dup11\n      swap1\n        /* \"contracts/OrderRouter.sol\":2937:2957  authorizedBuyersOnly */\n      dup11\n      swap1\n        /* \"contracts/OrderRouter.sol\":2732:2972  usdtOrders.addBuyOrder(... */\n      0x04\n      add\n      tag_81\n      jump\t// in\n        /* \"contracts/OrderRouter.sol\":2661:3382  if (_priceCurrency == SharedStructs.PaymentMethod.USDT) {... */\n    tag_184:\n        /* \"contracts/OrderRouter.sol\":3012:3044  SharedStructs.PaymentMethod.USDC */\n      0x02\n        /* \"contracts/OrderRouter.sol\":2994:3008  _priceCurrency */\n      dup3\n        /* \"contracts/OrderRouter.sol\":2994:3044  _priceCurrency == SharedStructs.PaymentMethod.USDC */\n      0x02\n      dup2\n      gt\n      iszero\n      tag_193\n      jumpi\n      tag_193\n      tag_76\n      jump\t// in\n    tag_193:\n      sub\n        /* \"contracts/OrderRouter.sol\":2990:3382  if (_priceCurrency == SharedStructs.PaymentMethod.USDC) {... */\n      tag_100\n      jumpi\n        /* \"contracts/OrderRouter.sol\":3061:3071  usdcOrders */\n      sload(0x03)\n        /* \"contracts/OrderRouter.sol\":3061:3301  usdcOrders.addBuyOrder(... */\n      mload(0x40)\n      shl(0xe4, 0x07e8843d)\n      dup2\n      mstore\n      sub(shl(0xa0, 0x01), 0x01)\n        /* \"contracts/OrderRouter.sol\":3061:3071  usdcOrders */\n      swap1\n      swap2\n      and\n      swap1\n        /* \"contracts/OrderRouter.sol\":3061:3083  usdcOrders.addBuyOrder */\n      0x7e8843d0\n      swap1\n        /* \"contracts/OrderRouter.sol\":3061:3301  usdcOrders.addBuyOrder(... */\n      tag_80\n      swap1\n        /* \"contracts/OrderRouter.sol\":3102:3110  _orderID */\n      dup11\n      swap1\n        /* \"contracts/OrderRouter.sol\":3129:3134  buyer */\n      dup11\n      swap1\n        /* \"contracts/OrderRouter.sol\":3153:3159  _price */\n      dup11\n      swap1\n        /* \"contracts/OrderRouter.sol\":3178:3185  _amount */\n      dup11\n      swap1\n        /* \"contracts/OrderRouter.sol\":3204:3214  _assetType */\n      dup11\n      swap1\n        /* \"contracts/OrderRouter.sol\":3233:3247  _priceCurrency */\n      dup11\n      swap1\n        /* \"contracts/OrderRouter.sol\":3266:3286  authorizedBuyersOnly */\n      dup11\n      swap1\n        /* \"contracts/OrderRouter.sol\":3061:3301  usdcOrders.addBuyOrder(... */\n      0x04\n      add\n      tag_81\n      jump\t// in\n        /* \"@openzeppelin/contracts/utils/ReentrancyGuard.sol\":2575:2882  function _nonReentrantBefore() private {... */\n    tag_69:\n        /* \"@openzeppelin/contracts/utils/ReentrancyGuard.sol\":1899:1900  2 */\n      0x02\n        /* \"@openzeppelin/contracts/utils/ReentrancyGuard.sol\":2702:2709  _status */\n      sload(0x00)\n        /* \"@openzeppelin/contracts/utils/ReentrancyGuard.sol\":2702:2720  _status == ENTERED */\n      sub\n        /* \"@openzeppelin/contracts/utils/ReentrancyGuard.sol\":2698:2784  if (_status == ENTERED) {... */\n      tag_203\n      jumpi\n        /* \"@openzeppelin/contracts/utils/ReentrancyGuard.sol\":2743:2773  ReentrancyGuardReentrantCall() */\n      mload(0x40)\n      shl(0xe0, 0x3ee5aeb5)\n      dup2\n      mstore\n      0x04\n      add\n      mload(0x40)\n      dup1\n      swap2\n      sub\n      swap1\n      revert\n        /* \"@openzeppelin/contracts/utils/ReentrancyGuard.sol\":2698:2784  if (_status == ENTERED) {... */\n    tag_203:\n        /* \"@openzeppelin/contracts/utils/ReentrancyGuard.sol\":1899:1900  2 */\n      0x02\n        /* \"@openzeppelin/contracts/utils/ReentrancyGuard.sol\":2858:2865  _status */\n      0x00\n        /* \"@openzeppelin/contracts/utils/ReentrancyGuard.sol\":2858:2875  _status = ENTERED */\n      sstore\n        /* \"@openzeppelin/contracts/utils/ReentrancyGuard.sol\":2575:2882  function _nonReentrantBefore() private {... */\n      jump\t// out\n        /* \"@openzeppelin/contracts/security/Pausable.sol\":1767:1873  function _requireNotPaused() internal view virtual {... */\n    tag_72:\n        /* \"@openzeppelin/contracts/security/Pausable.sol\":1685:1692  _paused */\n      and(0xff, sload(0x01))\n        /* \"@openzeppelin/contracts/security/Pausable.sol\":1836:1845  !paused() */\n      iszero\n        /* \"@openzeppelin/contracts/security/Pausable.sol\":1828:1866  require(!paused(), \"Pausable: paused\") */\n      tag_131\n      jumpi\n      mload(0x40)\n      shl(0xe5, 0x461bcd)\n      dup2\n      mstore\n        /* \"#utility.yul\":6067:6069   */\n      0x20\n        /* \"@openzeppelin/contracts/security/Pausable.sol\":1828:1866  require(!paused(), \"Pausable: paused\") */\n      0x04\n      dup3\n      add\n        /* \"#utility.yul\":6049:6070   */\n      mstore\n        /* \"#utility.yul\":6106:6108   */\n      0x10\n        /* \"#utility.yul\":6086:6104   */\n      0x24\n      dup3\n      add\n        /* \"#utility.yul\":6079:6109   */\n      mstore\n      shl(0x82, 0x14185d5cd8589b194e881c185d5cd959)\n        /* \"#utility.yul\":6125:6143   */\n      0x44\n      dup3\n      add\n        /* \"#utility.yul\":6118:6164   */\n      mstore\n        /* \"#utility.yul\":6181:6199   */\n      0x64\n      add\n        /* \"@openzeppelin/contracts/security/Pausable.sol\":1828:1866  require(!paused(), \"Pausable: paused\") */\n      tag_65\n        /* \"#utility.yul\":5865:6205   */\n      jump\n        /* \"@openzeppelin/contracts/security/Pausable.sol\":2433:2550  function _unpause() internal virtual whenPaused {... */\n    tag_130:\n        /* \"@openzeppelin/contracts/security/Pausable.sol\":1486:1502  _requirePaused() */\n      tag_211\n        /* \"@openzeppelin/contracts/security/Pausable.sol\":1486:1500  _requirePaused */\n      tag_212\n        /* \"@openzeppelin/contracts/security/Pausable.sol\":1486:1502  _requirePaused() */\n      jump\t// in\n    tag_211:\n        /* \"@openzeppelin/contracts/security/Pausable.sol\":2491:2498  _paused */\n      0x01\n        /* \"@openzeppelin/contracts/security/Pausable.sol\":2491:2506  _paused = false */\n      dup1\n      sload\n      not(0xff)\n      and\n      swap1\n      sstore\n        /* \"@openzeppelin/contracts/security/Pausable.sol\":2521:2543  Unpaused(_msgSender()) */\n      0x5db9ee0a495bf2e6ff9c91a7834c1ba4fdd244a5e8aa4e537bd38aeae4b073aa\n        /* \"@openzeppelin/contracts/utils/Context.sol\":735:745  msg.sender */\n      caller\n        /* \"@openzeppelin/contracts/security/Pausable.sol\":2530:2542  _msgSender() */\n    tag_214:\n        /* \"@openzeppelin/contracts/security/Pausable.sol\":2521:2543  Unpaused(_msgSender()) */\n      mload(0x40)\n      tag_216\n      swap2\n      swap1\n      tag_37\n      jump\t// in\n    tag_216:\n      mload(0x40)\n      dup1\n      swap2\n      sub\n      swap1\n      log1\n        /* \"@openzeppelin/contracts/security/Pausable.sol\":2433:2550  function _unpause() internal virtual whenPaused {... */\n      jump\t// out\n        /* \"@openzeppelin/contracts/security/Pausable.sol\":2186:2301  function _pause() internal virtual whenNotPaused {... */\n    tag_142:\n        /* \"@openzeppelin/contracts/security/Pausable.sol\":1239:1258  _requireNotPaused() */\n      tag_218\n        /* \"@openzeppelin/contracts/security/Pausable.sol\":1239:1256  _requireNotPaused */\n      tag_72\n        /* \"@openzeppelin/contracts/security/Pausable.sol\":1239:1258  _requireNotPaused() */\n      jump\t// in\n    tag_218:\n        /* \"@openzeppelin/contracts/security/Pausable.sol\":2255:2259  true */\n      0x01\n        /* \"@openzeppelin/contracts/security/Pausable.sol\":2245:2259  _paused = true */\n      dup1\n      sload\n      not(0xff)\n      and\n      dup2\n      or\n      swap1\n      sstore\n        /* \"@openzeppelin/contracts/security/Pausable.sol\":2274:2294  Paused(_msgSender()) */\n      0x62e78cea01bee320cd4e420270b5ea74000d11b0c9f74754ebdbfc544b05a258\n        /* \"@openzeppelin/contracts/utils/Context.sol\":735:745  msg.sender */\n      caller\n        /* \"@openzeppelin/contracts/security/Pausable.sol\":2281:2293  _msgSender() */\n      tag_214\n        /* \"@openzeppelin/contracts/utils/Context.sol\":656:752  function _msgSender() internal view virtual returns (address) {... */\n      jump\n        /* \"@openzeppelin/contracts/security/Pausable.sol\":1945:2051  function _requirePaused() internal view virtual {... */\n    tag_212:\n        /* \"@openzeppelin/contracts/security/Pausable.sol\":1685:1692  _paused */\n      and(0xff, sload(0x01))\n        /* \"@openzeppelin/contracts/security/Pausable.sol\":2003:2044  require(paused(), \"Pausable: not paused\") */\n      tag_131\n      jumpi\n      mload(0x40)\n      shl(0xe5, 0x461bcd)\n      dup2\n      mstore\n        /* \"#utility.yul\":6412:6414   */\n      0x20\n        /* \"@openzeppelin/contracts/security/Pausable.sol\":2003:2044  require(paused(), \"Pausable: not paused\") */\n      0x04\n      dup3\n      add\n        /* \"#utility.yul\":6394:6415   */\n      mstore\n        /* \"#utility.yul\":6451:6453   */\n      0x14\n        /* \"#utility.yul\":6431:6449   */\n      0x24\n      dup3\n      add\n        /* \"#utility.yul\":6424:6454   */\n      mstore\n      shl(0x62, 0x14185d5cd8589b194e881b9bdd081c185d5cd959)\n        /* \"#utility.yul\":6470:6488   */\n      0x44\n      dup3\n      add\n        /* \"#utility.yul\":6463:6513   */\n      mstore\n        /* \"#utility.yul\":6530:6548   */\n      0x64\n      add\n        /* \"@openzeppelin/contracts/security/Pausable.sol\":2003:2044  require(paused(), \"Pausable: not paused\") */\n      tag_65\n        /* \"#utility.yul\":6210:6554   */\n      jump\n        /* \"#utility.yul\":14:187   */\n    tag_228:\n        /* \"#utility.yul\":82:102   */\n      dup1\n      calldataload\n      sub(shl(0xa0, 0x01), 0x01)\n        /* \"#utility.yul\":131:162   */\n      dup2\n      and\n        /* \"#utility.yul\":121:163   */\n      dup2\n      eq\n        /* \"#utility.yul\":111:181   */\n      tag_232\n      jumpi\n        /* \"#utility.yul\":177:178   */\n      0x00\n        /* \"#utility.yul\":174:175   */\n      0x00\n        /* \"#utility.yul\":167:179   */\n      revert\n        /* \"#utility.yul\":111:181   */\n    tag_232:\n        /* \"#utility.yul\":14:187   */\n      swap2\n      swap1\n      pop\n      jump\t// out\n        /* \"#utility.yul\":192:352   */\n    tag_229:\n        /* \"#utility.yul\":257:277   */\n      dup1\n      calldataload\n        /* \"#utility.yul\":313:326   */\n      dup1\n      iszero\n        /* \"#utility.yul\":306:327   */\n      iszero\n        /* \"#utility.yul\":296:328   */\n      dup2\n      eq\n        /* \"#utility.yul\":286:346   */\n      tag_232\n      jumpi\n        /* \"#utility.yul\":342:343   */\n      0x00\n        /* \"#utility.yul\":339:340   */\n      0x00\n        /* \"#utility.yul\":332:344   */\n      revert\n        /* \"#utility.yul\":357:1301   */\n    tag_18:\n        /* \"#utility.yul\":499:505   */\n      0x00\n        /* \"#utility.yul\":507:513   */\n      0x00\n        /* \"#utility.yul\":515:521   */\n      0x00\n        /* \"#utility.yul\":523:529   */\n      0x00\n        /* \"#utility.yul\":531:537   */\n      0x00\n        /* \"#utility.yul\":539:545   */\n      0x00\n        /* \"#utility.yul\":547:553   */\n      0x00\n        /* \"#utility.yul\":600:603   */\n      0xe0\n        /* \"#utility.yul\":588:597   */\n      dup9\n        /* \"#utility.yul\":579:586   */\n      dup11\n        /* \"#utility.yul\":575:598   */\n      sub\n        /* \"#utility.yul\":571:604   */\n      slt\n        /* \"#utility.yul\":568:621   */\n      iszero\n      tag_236\n      jumpi\n        /* \"#utility.yul\":617:618   */\n      0x00\n        /* \"#utility.yul\":614:615   */\n      0x00\n        /* \"#utility.yul\":607:619   */\n      revert\n        /* \"#utility.yul\":568:621   */\n    tag_236:\n        /* \"#utility.yul\":662:685   */\n      dup8\n      calldataload\n      swap7\n      pop\n        /* \"#utility.yul\":728:766   */\n      tag_237\n        /* \"#utility.yul\":762:764   */\n      0x20\n        /* \"#utility.yul\":747:765   */\n      dup10\n      add\n        /* \"#utility.yul\":728:766   */\n      tag_228\n      jump\t// in\n    tag_237:\n        /* \"#utility.yul\":718:766   */\n      swap6\n      pop\n        /* \"#utility.yul\":839:841   */\n      0x40\n        /* \"#utility.yul\":824:842   */\n      dup9\n      add\n        /* \"#utility.yul\":811:843   */\n      calldataload\n      swap5\n      pop\n        /* \"#utility.yul\":942:944   */\n      0x60\n        /* \"#utility.yul\":927:945   */\n      dup9\n      add\n        /* \"#utility.yul\":914:946   */\n      calldataload\n      swap4\n      pop\n        /* \"#utility.yul\":1024:1027   */\n      0x80\n        /* \"#utility.yul\":1009:1028   */\n      dup9\n      add\n        /* \"#utility.yul\":996:1029   */\n      calldataload\n        /* \"#utility.yul\":1060:1061   */\n      0x01\n        /* \"#utility.yul\":1048:1062   */\n      dup2\n      lt\n        /* \"#utility.yul\":1038:1080   */\n      tag_238\n      jumpi\n        /* \"#utility.yul\":1076:1077   */\n      0x00\n        /* \"#utility.yul\":1073:1074   */\n      0x00\n        /* \"#utility.yul\":1066:1078   */\n      revert\n        /* \"#utility.yul\":1038:1080   */\n    tag_238:\n        /* \"#utility.yul\":1099:1106   */\n      swap3\n      pop\n        /* \"#utility.yul\":1158:1161   */\n      0xa0\n        /* \"#utility.yul\":1143:1162   */\n      dup9\n      add\n        /* \"#utility.yul\":1130:1163   */\n      calldataload\n        /* \"#utility.yul\":1194:1195   */\n      0x03\n        /* \"#utility.yul\":1182:1196   */\n      dup2\n      lt\n        /* \"#utility.yul\":1172:1214   */\n      tag_239\n      jumpi\n        /* \"#utility.yul\":1210:1211   */\n      0x00\n        /* \"#utility.yul\":1207:1208   */\n      0x00\n        /* \"#utility.yul\":1200:1212   */\n      revert\n        /* \"#utility.yul\":1172:1214   */\n    tag_239:\n        /* \"#utility.yul\":1233:1240   */\n      swap2\n      pop\n        /* \"#utility.yul\":1259:1295   */\n      tag_240\n        /* \"#utility.yul\":1290:1293   */\n      0xc0\n        /* \"#utility.yul\":1275:1294   */\n      dup10\n      add\n        /* \"#utility.yul\":1259:1295   */\n      tag_229\n      jump\t// in\n    tag_240:\n        /* \"#utility.yul\":1249:1295   */\n      swap1\n      pop\n        /* \"#utility.yul\":357:1301   */\n      swap3\n      swap6\n      swap9\n      swap2\n      swap5\n      swap8\n      pop\n      swap3\n      swap6\n      pop\n      jump\t// out\n        /* \"#utility.yul\":1306:1560   */\n    tag_22:\n        /* \"#utility.yul\":1371:1377   */\n      0x00\n        /* \"#utility.yul\":1379:1385   */\n      0x00\n        /* \"#utility.yul\":1432:1434   */\n      0x40\n        /* \"#utility.yul\":1420:1429   */\n      dup4\n        /* \"#utility.yul\":1411:1418   */\n      dup6\n        /* \"#utility.yul\":1407:1430   */\n      sub\n        /* \"#utility.yul\":1403:1435   */\n      slt\n        /* \"#utility.yul\":1400:1452   */\n      iszero\n      tag_242\n      jumpi\n        /* \"#utility.yul\":1448:1449   */\n      0x00\n        /* \"#utility.yul\":1445:1446   */\n      0x00\n        /* \"#utility.yul\":1438:1450   */\n      revert\n        /* \"#utility.yul\":1400:1452   */\n    tag_242:\n        /* \"#utility.yul\":1471:1500   */\n      tag_243\n        /* \"#utility.yul\":1490:1499   */\n      dup4\n        /* \"#utility.yul\":1471:1500   */\n      tag_228\n      jump\t// in\n    tag_243:\n        /* \"#utility.yul\":1461:1500   */\n      swap2\n      pop\n        /* \"#utility.yul\":1519:1554   */\n      tag_244\n        /* \"#utility.yul\":1550:1552   */\n      0x20\n        /* \"#utility.yul\":1539:1548   */\n      dup5\n        /* \"#utility.yul\":1535:1553   */\n      add\n        /* \"#utility.yul\":1519:1554   */\n      tag_229\n      jump\t// in\n    tag_244:\n        /* \"#utility.yul\":1509:1554   */\n      swap1\n      pop\n        /* \"#utility.yul\":1306:1560   */\n      swap3\n      pop\n      swap3\n      swap1\n      pop\n      jump\t// out\n        /* \"#utility.yul\":1565:1751   */\n    tag_26:\n        /* \"#utility.yul\":1624:1630   */\n      0x00\n        /* \"#utility.yul\":1677:1679   */\n      0x20\n        /* \"#utility.yul\":1665:1674   */\n      dup3\n        /* \"#utility.yul\":1656:1663   */\n      dup5\n        /* \"#utility.yul\":1652:1675   */\n      sub\n        /* \"#utility.yul\":1648:1680   */\n      slt\n        /* \"#utility.yul\":1645:1697   */\n      iszero\n      tag_246\n      jumpi\n        /* \"#utility.yul\":1693:1694   */\n      0x00\n        /* \"#utility.yul\":1690:1691   */\n      0x00\n        /* \"#utility.yul\":1683:1695   */\n      revert\n        /* \"#utility.yul\":1645:1697   */\n    tag_246:\n        /* \"#utility.yul\":1716:1745   */\n      tag_247\n        /* \"#utility.yul\":1735:1744   */\n      dup3\n        /* \"#utility.yul\":1716:1745   */\n      tag_228\n      jump\t// in\n    tag_247:\n        /* \"#utility.yul\":1706:1745   */\n      swap4\n        /* \"#utility.yul\":1565:1751   */\n      swap3\n      pop\n      pop\n      pop\n      jump\t// out\n        /* \"#utility.yul\":1948:2170   */\n    tag_37:\n      sub(shl(0xa0, 0x01), 0x01)\n        /* \"#utility.yul\":2131:2163   */\n      swap2\n      swap1\n      swap2\n      and\n        /* \"#utility.yul\":2113:2164   */\n      dup2\n      mstore\n        /* \"#utility.yul\":2101:2103   */\n      0x20\n        /* \"#utility.yul\":2086:2104   */\n      add\n      swap1\n        /* \"#utility.yul\":1948:2170   */\n      jump\t// out\n        /* \"#utility.yul\":2840:3174   */\n    tag_54:\n        /* \"#utility.yul\":2917:2923   */\n      0x00\n        /* \"#utility.yul\":2925:2931   */\n      0x00\n        /* \"#utility.yul\":2933:2939   */\n      0x00\n        /* \"#utility.yul\":2986:2988   */\n      0x60\n        /* \"#utility.yul\":2974:2983   */\n      dup5\n        /* \"#utility.yul\":2965:2972   */\n      dup7\n        /* \"#utility.yul\":2961:2984   */\n      sub\n        /* \"#utility.yul\":2957:2989   */\n      slt\n        /* \"#utility.yul\":2954:3006   */\n      iszero\n      tag_254\n      jumpi\n        /* \"#utility.yul\":3002:3003   */\n      0x00\n        /* \"#utility.yul\":2999:3000   */\n      0x00\n        /* \"#utility.yul\":2992:3004   */\n      revert\n        /* \"#utility.yul\":2954:3006   */\n    tag_254:\n        /* \"#utility.yul\":3025:3054   */\n      tag_255\n        /* \"#utility.yul\":3044:3053   */\n      dup5\n        /* \"#utility.yul\":3025:3054   */\n      tag_228\n      jump\t// in\n    tag_255:\n        /* \"#utility.yul\":3015:3054   */\n      swap3\n      pop\n        /* \"#utility.yul\":3073:3111   */\n      tag_256\n        /* \"#utility.yul\":3107:3109   */\n      0x20\n        /* \"#utility.yul\":3096:3105   */\n      dup6\n        /* \"#utility.yul\":3092:3110   */\n      add\n        /* \"#utility.yul\":3073:3111   */\n      tag_228\n      jump\t// in\n    tag_256:\n        /* \"#utility.yul\":3063:3111   */\n      swap2\n      pop\n        /* \"#utility.yul\":3130:3168   */\n      tag_257\n        /* \"#utility.yul\":3164:3166   */\n      0x40\n        /* \"#utility.yul\":3153:3162   */\n      dup6\n        /* \"#utility.yul\":3149:3167   */\n      add\n        /* \"#utility.yul\":3130:3168   */\n      tag_228\n      jump\t// in\n    tag_257:\n        /* \"#utility.yul\":3120:3168   */\n      swap1\n      pop\n        /* \"#utility.yul\":2840:3174   */\n      swap3\n      pop\n      swap3\n      pop\n      swap3\n      jump\t// out\n        /* \"#utility.yul\":3179:3517   */\n    tag_66:\n        /* \"#utility.yul\":3381:3383   */\n      0x20\n        /* \"#utility.yul\":3363:3384   */\n      dup1\n      dup3\n      mstore\n        /* \"#utility.yul\":3420:3422   */\n      0x0e\n        /* \"#utility.yul\":3400:3418   */\n      swap1\n      dup3\n      add\n        /* \"#utility.yul\":3393:3423   */\n      mstore\n      shl(0x92, 0x139bdd08185d5d1a1bdc9a5e9959)\n        /* \"#utility.yul\":3454:3456   */\n      0x40\n        /* \"#utility.yul\":3439:3457   */\n      dup3\n      add\n        /* \"#utility.yul\":3432:3476   */\n      mstore\n        /* \"#utility.yul\":3508:3510   */\n      0x60\n        /* \"#utility.yul\":3493:3511   */\n      add\n      swap1\n        /* \"#utility.yul\":3179:3517   */\n      jump\t// out\n        /* \"#utility.yul\":3522:3649   */\n    tag_76:\n        /* \"#utility.yul\":3583:3593   */\n      0x4e487b71\n        /* \"#utility.yul\":3578:3581   */\n      0xe0\n        /* \"#utility.yul\":3574:3594   */\n      shl\n        /* \"#utility.yul\":3571:3572   */\n      0x00\n        /* \"#utility.yul\":3564:3595   */\n      mstore\n        /* \"#utility.yul\":3614:3618   */\n      0x21\n        /* \"#utility.yul\":3611:3612   */\n      0x04\n        /* \"#utility.yul\":3604:3619   */\n      mstore\n        /* \"#utility.yul\":3638:3642   */\n      0x24\n        /* \"#utility.yul\":3635:3636   */\n      0x00\n        /* \"#utility.yul\":3628:3643   */\n      revert\n        /* \"#utility.yul\":3654:4437   */\n    tag_81:\n        /* \"#utility.yul\":3991:4016   */\n      dup8\n      dup2\n      mstore\n      sub(shl(0xa0, 0x01), 0x01)\n        /* \"#utility.yul\":4052:4084   */\n      dup8\n      and\n        /* \"#utility.yul\":4047:4049   */\n      0x20\n        /* \"#utility.yul\":4032:4050   */\n      dup3\n      add\n        /* \"#utility.yul\":4025:4085   */\n      mstore\n        /* \"#utility.yul\":4116:4118   */\n      0x40\n        /* \"#utility.yul\":4101:4119   */\n      dup2\n      add\n        /* \"#utility.yul\":4094:4128   */\n      dup7\n      swap1\n      mstore\n        /* \"#utility.yul\":4159:4161   */\n      0x60\n        /* \"#utility.yul\":4144:4162   */\n      dup2\n      add\n        /* \"#utility.yul\":4137:4171   */\n      dup6\n      swap1\n      mstore\n        /* \"#utility.yul\":3978:3981   */\n      0xe0\n        /* \"#utility.yul\":3963:3982   */\n      dup2\n      add\n        /* \"#utility.yul\":4081:4082   */\n      0x01\n        /* \"#utility.yul\":4190:4203   */\n      dup6\n      lt\n        /* \"#utility.yul\":4180:4227   */\n      tag_262\n      jumpi\n        /* \"#utility.yul\":4207:4225   */\n      tag_262\n      tag_76\n      jump\t// in\n    tag_262:\n        /* \"#utility.yul\":4264:4270   */\n      dup5\n        /* \"#utility.yul\":4258:4261   */\n      0x80\n        /* \"#utility.yul\":4247:4256   */\n      dup4\n        /* \"#utility.yul\":4243:4262   */\n      add\n        /* \"#utility.yul\":4236:4271   */\n      mstore\n        /* \"#utility.yul\":4301:4302   */\n      0x03\n        /* \"#utility.yul\":4293:4299   */\n      dup5\n        /* \"#utility.yul\":4290:4303   */\n      lt\n        /* \"#utility.yul\":4280:4327   */\n      tag_264\n      jumpi\n        /* \"#utility.yul\":4307:4325   */\n      tag_264\n      tag_76\n      jump\t// in\n    tag_264:\n        /* \"#utility.yul\":4364:4370   */\n      dup4\n        /* \"#utility.yul\":4358:4361   */\n      0xa0\n        /* \"#utility.yul\":4347:4356   */\n      dup4\n        /* \"#utility.yul\":4343:4362   */\n      add\n        /* \"#utility.yul\":4336:4371   */\n      mstore\n        /* \"#utility.yul\":4422:4428   */\n      dup3\n        /* \"#utility.yul\":4415:4429   */\n      iszero\n        /* \"#utility.yul\":4408:4430   */\n      iszero\n        /* \"#utility.yul\":4402:4405   */\n      0xc0\n        /* \"#utility.yul\":4391:4400   */\n      dup4\n        /* \"#utility.yul\":4387:4406   */\n      add\n        /* \"#utility.yul\":4380:4431   */\n      mstore\n        /* \"#utility.yul\":3654:4437   */\n      swap9\n      swap8\n      pop\n      pop\n      pop\n      pop\n      pop\n      pop\n      pop\n      pop\n      jump\t// out\n\n    auxdata: 0xa2646970667358221220c64ca476657fb71061d3281abdf174fc1d84694de67bd0b32f6fdd96a22b835564736f6c634300081e0033\n}\n",
				"bytecode": {
					"linkReferences": {},
					"object": "6080604052348015600e575f5ffd5b5060015f818155815460ff19908116835533808352600460205260409092208054909116909217909155600580546001600160a01b0319169091179055610af7806100585f395ff3fe608060405234801561000f575f5ffd5b50600436106100ad575f3560e01c80630d462d44146100b15780631351cf51146100c657806313af4035146100d95780633f4ba83a146100ec5780635c975abb146100f457806371dc7725146101105780638456cb591461013057806387ad8f87146101385780638da5cb5b146101505780639c5338a514610163578063b3066d4914610176578063ced6f7df14610189578063f19e207e1461019c575b5f5ffd5b6100c46100bf366004610906565b6101be565b005b6100c46100d436600461097c565b610390565b6100c46100e73660046109ad565b6103f9565b6100c4610449565b60015460ff165b60405190151581526020015b60405180910390f35b600254610123906001600160a01b031681565b60405161010791906109cd565b6100c4610492565b6001546101239061010090046001600160a01b031681565b600554610123906001600160a01b031681565b600354610123906001600160a01b031681565b6100c46101843660046109e1565b6104d8565b6100c4610197366004610906565b61065e565b6100fb6101aa3660046109ad565b60046020525f908152604090205460ff1681565b335f9081526004602052604090205460ff166101f55760405162461bcd60e51b81526004016101ec90610a21565b60405180910390fd5b6101fd61079e565b6102056107c6565b5f82600281111561021857610218610a49565b0361028f576001546040516303aa2b9360e11b81526101009091046001600160a01b03169063075457269061025d908a908a908a908a908a908a908a90600401610a5d565b5f604051808303815f87803b158015610274575f5ffd5b505af1158015610286573d5f5f3e3d5ffd5b5050505061037e565b60018260028111156102a3576102a3610a49565b036102e4576002546040516303aa2b9360e11b81526001600160a01b039091169063075457269061025d908a908a908a908a908a908a908a90600401610a5d565b60028260028111156102f8576102f8610a49565b03610339576003546040516303aa2b9360e11b81526001600160a01b039091169063075457269061025d908a908a908a908a908a908a908a90600401610a5d565b60405162461bcd60e51b815260206004820152601a602482015279155b9cdd5c1c1bdc9d1959081c185e5b595b9d081b595d1a1bd960321b60448201526064016101ec565b61038760015f55565b50505050505050565b335f9081526004602052604090205460ff166103be5760405162461bcd60e51b81526004016101ec90610a21565b6103c661079e565b6103ce6107c6565b6001600160a01b0382165f908152600460205260408120805460ff1916831515179055600190555050565b335f9081526004602052604090205460ff166104275760405162461bcd60e51b81526004016101ec90610a21565b600580546001600160a01b0319166001600160a01b0392909216919091179055565b335f9081526004602052604090205460ff166104775760405162461bcd60e51b81526004016101ec90610a21565b61047f61079e565b61048761080c565b61049060015f55565b565b61049a6107c6565b335f9081526004602052604090205460ff166104c85760405162461bcd60e51b81526004016101ec90610a21565b6104d061079e565b610487610858565b335f9081526004602052604090205460ff166105065760405162461bcd60e51b81526004016101ec90610a21565b61050e61079e565b6105166107c6565b6001600160a01b03831661056c5760405162461bcd60e51b815260206004820152601d60248201527f496e76616c696420657363726f7748616e646c6572206164647265737300000060448201526064016101ec565b6001600160a01b0382166105bf5760405162461bcd60e51b815260206004820152601a602482015279496e76616c696420757364744f7264657273206164647265737360301b60448201526064016101ec565b6001600160a01b0381166106125760405162461bcd60e51b815260206004820152601a602482015279496e76616c696420757364634f7264657273206164647265737360301b60448201526064016101ec565b60018054610100600160a81b0319166101006001600160a01b0395861602178155600280546001600160a01b031990811694861694909417905560038054909316919093161790555f55565b335f9081526004602052604090205460ff1661068c5760405162461bcd60e51b81526004016101ec90610a21565b61069461079e565b61069c6107c6565b5f8260028111156106af576106af610a49565b036106f4576001546040516307e8843d60e41b81526101009091046001600160a01b031690637e8843d09061025d908a908a908a908a908a908a908a90600401610a5d565b600182600281111561070857610708610a49565b03610749576002546040516307e8843d60e41b81526001600160a01b0390911690637e8843d09061025d908a908a908a908a908a908a908a90600401610a5d565b600282600281111561075d5761075d610a49565b03610339576003546040516307e8843d60e41b81526001600160a01b0390911690637e8843d09061025d908a908a908a908a908a908a908a90600401610a5d565b60025f54036107c057604051633ee5aeb560e01b815260040160405180910390fd5b60025f55565b60015460ff16156104905760405162461bcd60e51b815260206004820152601060248201526f14185d5cd8589b194e881c185d5cd95960821b60448201526064016101ec565b610814610893565b6001805460ff191690557f5db9ee0a495bf2e6ff9c91a7834c1ba4fdd244a5e8aa4e537bd38aeae4b073aa335b60405161084e91906109cd565b60405180910390a1565b6108606107c6565b6001805460ff1916811790557f62e78cea01bee320cd4e420270b5ea74000d11b0c9f74754ebdbfc544b05a25833610841565b60015460ff166104905760405162461bcd60e51b815260206004820152601460248201527314185d5cd8589b194e881b9bdd081c185d5cd95960621b60448201526064016101ec565b80356001600160a01b03811681146108f2575f5ffd5b919050565b803580151581146108f2575f5ffd5b5f5f5f5f5f5f5f60e0888a03121561091c575f5ffd5b8735965061092c602089016108dc565b9550604088013594506060880135935060808801356001811061094d575f5ffd5b925060a088013560038110610960575f5ffd5b915061096e60c089016108f7565b905092959891949750929550565b5f5f6040838503121561098d575f5ffd5b610996836108dc565b91506109a4602084016108f7565b90509250929050565b5f602082840312156109bd575f5ffd5b6109c6826108dc565b9392505050565b6001600160a01b0391909116815260200190565b5f5f5f606084860312156109f3575f5ffd5b6109fc846108dc565b9250610a0a602085016108dc565b9150610a18604085016108dc565b90509250925092565b6020808252600e908201526d139bdd08185d5d1a1bdc9a5e995960921b604082015260600190565b634e487b7160e01b5f52602160045260245ffd5b8781526001600160a01b0387166020820152604081018690526060810185905260e0810160018510610a9157610a91610a49565b84608083015260038410610aa757610aa7610a49565b8360a083015282151560c08301529897505050505050505056fea2646970667358221220c64ca476657fb71061d3281abdf174fc1d84694de67bd0b32f6fdd96a22b835564736f6c634300081e0033",
					"opcodes": "PUSH1 0x80 PUSH1 0x40 MSTORE CALLVALUE DUP1 ISZERO PUSH1 0xE JUMPI PUSH0 PUSH0 REVERT JUMPDEST POP PUSH1 0x1 PUSH0 DUP2 DUP2 SSTORE DUP2 SLOAD PUSH1 0xFF NOT SWAP1 DUP2 AND DUP4 SSTORE CALLER DUP1 DUP4 MSTORE PUSH1 0x4 PUSH1 0x20 MSTORE PUSH1 0x40 SWAP1 SWAP3 KECCAK256 DUP1 SLOAD SWAP1 SWAP2 AND SWAP1 SWAP3 OR SWAP1 SWAP2 SSTORE PUSH1 0x5 DUP1 SLOAD PUSH1 0x1 PUSH1 0x1 PUSH1 0xA0 SHL SUB NOT AND SWAP1 SWAP2 OR SWAP1 SSTORE PUSH2 0xAF7 DUP1 PUSH2 0x58 PUSH0 CODECOPY PUSH0 RETURN INVALID PUSH1 0x80 PUSH1 0x40 MSTORE CALLVALUE DUP1 ISZERO PUSH2 0xF JUMPI PUSH0 PUSH0 REVERT JUMPDEST POP PUSH1 0x4 CALLDATASIZE LT PUSH2 0xAD JUMPI PUSH0 CALLDATALOAD PUSH1 0xE0 SHR DUP1 PUSH4 0xD462D44 EQ PUSH2 0xB1 JUMPI DUP1 PUSH4 0x1351CF51 EQ PUSH2 0xC6 JUMPI DUP1 PUSH4 0x13AF4035 EQ PUSH2 0xD9 JUMPI DUP1 PUSH4 0x3F4BA83A EQ PUSH2 0xEC JUMPI DUP1 PUSH4 0x5C975ABB EQ PUSH2 0xF4 JUMPI DUP1 PUSH4 0x71DC7725 EQ PUSH2 0x110 JUMPI DUP1 PUSH4 0x8456CB59 EQ PUSH2 0x130 JUMPI DUP1 PUSH4 0x87AD8F87 EQ PUSH2 0x138 JUMPI DUP1 PUSH4 0x8DA5CB5B EQ PUSH2 0x150 JUMPI DUP1 PUSH4 0x9C5338A5 EQ PUSH2 0x163 JUMPI DUP1 PUSH4 0xB3066D49 EQ PUSH2 0x176 JUMPI DUP1 PUSH4 0xCED6F7DF EQ PUSH2 0x189 JUMPI DUP1 PUSH4 0xF19E207E EQ PUSH2 0x19C JUMPI JUMPDEST PUSH0 PUSH0 REVERT JUMPDEST PUSH2 0xC4 PUSH2 0xBF CALLDATASIZE PUSH1 0x4 PUSH2 0x906 JUMP JUMPDEST PUSH2 0x1BE JUMP JUMPDEST STOP JUMPDEST PUSH2 0xC4 PUSH2 0xD4 CALLDATASIZE PUSH1 0x4 PUSH2 0x97C JUMP JUMPDEST PUSH2 0x390 JUMP JUMPDEST PUSH2 0xC4 PUSH2 0xE7 CALLDATASIZE PUSH1 0x4 PUSH2 0x9AD JUMP JUMPDEST PUSH2 0x3F9 JUMP JUMPDEST PUSH2 0xC4 PUSH2 0x449 JUMP JUMPDEST PUSH1 0x1 SLOAD PUSH1 0xFF AND JUMPDEST PUSH1 0x40 MLOAD SWAP1 ISZERO ISZERO DUP2 MSTORE PUSH1 0x20 ADD JUMPDEST PUSH1 0x40 MLOAD DUP1 SWAP2 SUB SWAP1 RETURN JUMPDEST PUSH1 0x2 SLOAD PUSH2 0x123 SWAP1 PUSH1 0x1 PUSH1 0x1 PUSH1 0xA0 SHL SUB AND DUP2 JUMP JUMPDEST PUSH1 0x40 MLOAD PUSH2 0x107 SWAP2 SWAP1 PUSH2 0x9CD JUMP JUMPDEST PUSH2 0xC4 PUSH2 0x492 JUMP JUMPDEST PUSH1 0x1 SLOAD PUSH2 0x123 SWAP1 PUSH2 0x100 SWAP1 DIV PUSH1 0x1 PUSH1 0x1 PUSH1 0xA0 SHL SUB AND DUP2 JUMP JUMPDEST PUSH1 0x5 SLOAD PUSH2 0x123 SWAP1 PUSH1 0x1 PUSH1 0x1 PUSH1 0xA0 SHL SUB AND DUP2 JUMP JUMPDEST PUSH1 0x3 SLOAD PUSH2 0x123 SWAP1 PUSH1 0x1 PUSH1 0x1 PUSH1 0xA0 SHL SUB AND DUP2 JUMP JUMPDEST PUSH2 0xC4 PUSH2 0x184 CALLDATASIZE PUSH1 0x4 PUSH2 0x9E1 JUMP JUMPDEST PUSH2 0x4D8 JUMP JUMPDEST PUSH2 0xC4 PUSH2 0x197 CALLDATASIZE PUSH1 0x4 PUSH2 0x906 JUMP JUMPDEST PUSH2 0x65E JUMP JUMPDEST PUSH2 0xFB PUSH2 0x1AA CALLDATASIZE PUSH1 0x4 PUSH2 0x9AD JUMP JUMPDEST PUSH1 0x4 PUSH1 0x20 MSTORE PUSH0 SWAP1 DUP2 MSTORE PUSH1 0x40 SWAP1 KECCAK256 SLOAD PUSH1 0xFF AND DUP2 JUMP JUMPDEST CALLER PUSH0 SWAP1 DUP2 MSTORE PUSH1 0x4 PUSH1 0x20 MSTORE PUSH1 0x40 SWAP1 KECCAK256 SLOAD PUSH1 0xFF AND PUSH2 0x1F5 JUMPI PUSH1 0x40 MLOAD PUSH3 0x461BCD PUSH1 0xE5 SHL DUP2 MSTORE PUSH1 0x4 ADD PUSH2 0x1EC SWAP1 PUSH2 0xA21 JUMP JUMPDEST PUSH1 0x40 MLOAD DUP1 SWAP2 SUB SWAP1 REVERT JUMPDEST PUSH2 0x1FD PUSH2 0x79E JUMP JUMPDEST PUSH2 0x205 PUSH2 0x7C6 JUMP JUMPDEST PUSH0 DUP3 PUSH1 0x2 DUP2 GT ISZERO PUSH2 0x218 JUMPI PUSH2 0x218 PUSH2 0xA49 JUMP JUMPDEST SUB PUSH2 0x28F JUMPI PUSH1 0x1 SLOAD PUSH1 0x40 MLOAD PUSH4 0x3AA2B93 PUSH1 0xE1 SHL DUP2 MSTORE PUSH2 0x100 SWAP1 SWAP2 DIV PUSH1 0x1 PUSH1 0x1 PUSH1 0xA0 SHL SUB AND SWAP1 PUSH4 0x7545726 SWAP1 PUSH2 0x25D SWAP1 DUP11 SWAP1 DUP11 SWAP1 DUP11 SWAP1 DUP11 SWAP1 DUP11 SWAP1 DUP11 SWAP1 DUP11 SWAP1 PUSH1 0x4 ADD PUSH2 0xA5D JUMP JUMPDEST PUSH0 PUSH1 0x40 MLOAD DUP1 DUP4 SUB DUP2 PUSH0 DUP8 DUP1 EXTCODESIZE ISZERO DUP1 ISZERO PUSH2 0x274 JUMPI PUSH0 PUSH0 REVERT JUMPDEST POP GAS CALL ISZERO DUP1 ISZERO PUSH2 0x286 JUMPI RETURNDATASIZE PUSH0 PUSH0 RETURNDATACOPY RETURNDATASIZE PUSH0 REVERT JUMPDEST POP POP POP POP PUSH2 0x37E JUMP JUMPDEST PUSH1 0x1 DUP3 PUSH1 0x2 DUP2 GT ISZERO PUSH2 0x2A3 JUMPI PUSH2 0x2A3 PUSH2 0xA49 JUMP JUMPDEST SUB PUSH2 0x2E4 JUMPI PUSH1 0x2 SLOAD PUSH1 0x40 MLOAD PUSH4 0x3AA2B93 PUSH1 0xE1 SHL DUP2 MSTORE PUSH1 0x1 PUSH1 0x1 PUSH1 0xA0 SHL SUB SWAP1 SWAP2 AND SWAP1 PUSH4 0x7545726 SWAP1 PUSH2 0x25D SWAP1 DUP11 SWAP1 DUP11 SWAP1 DUP11 SWAP1 DUP11 SWAP1 DUP11 SWAP1 DUP11 SWAP1 DUP11 SWAP1 PUSH1 0x4 ADD PUSH2 0xA5D JUMP JUMPDEST PUSH1 0x2 DUP3 PUSH1 0x2 DUP2 GT ISZERO PUSH2 0x2F8 JUMPI PUSH2 0x2F8 PUSH2 0xA49 JUMP JUMPDEST SUB PUSH2 0x339 JUMPI PUSH1 0x3 SLOAD PUSH1 0x40 MLOAD PUSH4 0x3AA2B93 PUSH1 0xE1 SHL DUP2 MSTORE PUSH1 0x1 PUSH1 0x1 PUSH1 0xA0 SHL SUB SWAP1 SWAP2 AND SWAP1 PUSH4 0x7545726 SWAP1 PUSH2 0x25D SWAP1 DUP11 SWAP1 DUP11 SWAP1 DUP11 SWAP1 DUP11 SWAP1 DUP11 SWAP1 DUP11 SWAP1 DUP11 SWAP1 PUSH1 0x4 ADD PUSH2 0xA5D JUMP JUMPDEST PUSH1 0x40 MLOAD PUSH3 0x461BCD PUSH1 0xE5 SHL DUP2 MSTORE PUSH1 0x20 PUSH1 0x4 DUP3 ADD MSTORE PUSH1 0x1A PUSH1 0x24 DUP3 ADD MSTORE PUSH26 0x155B9CDD5C1C1BDC9D1959081C185E5B595B9D081B595D1A1BD9 PUSH1 0x32 SHL PUSH1 0x44 DUP3 ADD MSTORE PUSH1 0x64 ADD PUSH2 0x1EC JUMP JUMPDEST PUSH2 0x387 PUSH1 0x1 PUSH0 SSTORE JUMP JUMPDEST POP POP POP POP POP POP POP JUMP JUMPDEST CALLER PUSH0 SWAP1 DUP2 MSTORE PUSH1 0x4 PUSH1 0x20 MSTORE PUSH1 0x40 SWAP1 KECCAK256 SLOAD PUSH1 0xFF AND PUSH2 0x3BE JUMPI PUSH1 0x40 MLOAD PUSH3 0x461BCD PUSH1 0xE5 SHL DUP2 MSTORE PUSH1 0x4 ADD PUSH2 0x1EC SWAP1 PUSH2 0xA21 JUMP JUMPDEST PUSH2 0x3C6 PUSH2 0x79E JUMP JUMPDEST PUSH2 0x3CE PUSH2 0x7C6 JUMP JUMPDEST PUSH1 0x1 PUSH1 0x1 PUSH1 0xA0 SHL SUB DUP3 AND PUSH0 SWAP1 DUP2 MSTORE PUSH1 0x4 PUSH1 0x20 MSTORE PUSH1 0x40 DUP2 KECCAK256 DUP1 SLOAD PUSH1 0xFF NOT AND DUP4 ISZERO ISZERO OR SWAP1 SSTORE PUSH1 0x1 SWAP1 SSTORE POP POP JUMP JUMPDEST CALLER PUSH0 SWAP1 DUP2 MSTORE PUSH1 0x4 PUSH1 0x20 MSTORE PUSH1 0x40 SWAP1 KECCAK256 SLOAD PUSH1 0xFF AND PUSH2 0x427 JUMPI PUSH1 0x40 MLOAD PUSH3 0x461BCD PUSH1 0xE5 SHL DUP2 MSTORE PUSH1 0x4 ADD PUSH2 0x1EC SWAP1 PUSH2 0xA21 JUMP JUMPDEST PUSH1 0x5 DUP1 SLOAD PUSH1 0x1 PUSH1 0x1 PUSH1 0xA0 SHL SUB NOT AND PUSH1 0x1 PUSH1 0x1 PUSH1 0xA0 SHL SUB SWAP3 SWAP1 SWAP3 AND SWAP2 SWAP1 SWAP2 OR SWAP1 SSTORE JUMP JUMPDEST CALLER PUSH0 SWAP1 DUP2 MSTORE PUSH1 0x4 PUSH1 0x20 MSTORE PUSH1 0x40 SWAP1 KECCAK256 SLOAD PUSH1 0xFF AND PUSH2 0x477 JUMPI PUSH1 0x40 MLOAD PUSH3 0x461BCD PUSH1 0xE5 SHL DUP2 MSTORE PUSH1 0x4 ADD PUSH2 0x1EC SWAP1 PUSH2 0xA21 JUMP JUMPDEST PUSH2 0x47F PUSH2 0x79E JUMP JUMPDEST PUSH2 0x487 PUSH2 0x80C JUMP JUMPDEST PUSH2 0x490 PUSH1 0x1 PUSH0 SSTORE JUMP JUMPDEST JUMP JUMPDEST PUSH2 0x49A PUSH2 0x7C6 JUMP JUMPDEST CALLER PUSH0 SWAP1 DUP2 MSTORE PUSH1 0x4 PUSH1 0x20 MSTORE PUSH1 0x40 SWAP1 KECCAK256 SLOAD PUSH1 0xFF AND PUSH2 0x4C8 JUMPI PUSH1 0x40 MLOAD PUSH3 0x461BCD PUSH1 0xE5 SHL DUP2 MSTORE PUSH1 0x4 ADD PUSH2 0x1EC SWAP1 PUSH2 0xA21 JUMP JUMPDEST PUSH2 0x4D0 PUSH2 0x79E JUMP JUMPDEST PUSH2 0x487 PUSH2 0x858 JUMP JUMPDEST CALLER PUSH0 SWAP1 DUP2 MSTORE PUSH1 0x4 PUSH1 0x20 MSTORE PUSH1 0x40 SWAP1 KECCAK256 SLOAD PUSH1 0xFF AND PUSH2 0x506 JUMPI PUSH1 0x40 MLOAD PUSH3 0x461BCD PUSH1 0xE5 SHL DUP2 MSTORE PUSH1 0x4 ADD PUSH2 0x1EC SWAP1 PUSH2 0xA21 JUMP JUMPDEST PUSH2 0x50E PUSH2 0x79E JUMP JUMPDEST PUSH2 0x516 PUSH2 0x7C6 JUMP JUMPDEST PUSH1 0x1 PUSH1 0x1 PUSH1 0xA0 SHL SUB DUP4 AND PUSH2 0x56C JUMPI PUSH1 0x40 MLOAD PUSH3 0x461BCD PUSH1 0xE5 SHL DUP2 MSTORE PUSH1 0x20 PUSH1 0x4 DUP3 ADD MSTORE PUSH1 0x1D PUSH1 0x24 DUP3 ADD MSTORE PUSH32 0x496E76616C696420657363726F7748616E646C65722061646472657373000000 PUSH1 0x44 DUP3 ADD MSTORE PUSH1 0x64 ADD PUSH2 0x1EC JUMP JUMPDEST PUSH1 0x1 PUSH1 0x1 PUSH1 0xA0 SHL SUB DUP3 AND PUSH2 0x5BF JUMPI PUSH1 0x40 MLOAD PUSH3 0x461BCD PUSH1 0xE5 SHL DUP2 MSTORE PUSH1 0x20 PUSH1 0x4 DUP3 ADD MSTORE PUSH1 0x1A PUSH1 0x24 DUP3 ADD MSTORE PUSH26 0x496E76616C696420757364744F72646572732061646472657373 PUSH1 0x30 SHL PUSH1 0x44 DUP3 ADD MSTORE PUSH1 0x64 ADD PUSH2 0x1EC JUMP JUMPDEST PUSH1 0x1 PUSH1 0x1 PUSH1 0xA0 SHL SUB DUP2 AND PUSH2 0x612 JUMPI PUSH1 0x40 MLOAD PUSH3 0x461BCD PUSH1 0xE5 SHL DUP2 MSTORE PUSH1 0x20 PUSH1 0x4 DUP3 ADD MSTORE PUSH1 0x1A PUSH1 0x24 DUP3 ADD MSTORE PUSH26 0x496E76616C696420757364634F72646572732061646472657373 PUSH1 0x30 SHL PUSH1 0x44 DUP3 ADD MSTORE PUSH1 0x64 ADD PUSH2 0x1EC JUMP JUMPDEST PUSH1 0x1 DUP1 SLOAD PUSH2 0x100 PUSH1 0x1 PUSH1 0xA8 SHL SUB NOT AND PUSH2 0x100 PUSH1 0x1 PUSH1 0x1 PUSH1 0xA0 SHL SUB SWAP6 DUP7 AND MUL OR DUP2 SSTORE PUSH1 0x2 DUP1 SLOAD PUSH1 0x1 PUSH1 0x1 PUSH1 0xA0 SHL SUB NOT SWAP1 DUP2 AND SWAP5 DUP7 AND SWAP5 SWAP1 SWAP5 OR SWAP1 SSTORE PUSH1 0x3 DUP1 SLOAD SWAP1 SWAP4 AND SWAP2 SWAP1 SWAP4 AND OR SWAP1 SSTORE PUSH0 SSTORE JUMP JUMPDEST CALLER PUSH0 SWAP1 DUP2 MSTORE PUSH1 0x4 PUSH1 0x20 MSTORE PUSH1 0x40 SWAP1 KECCAK256 SLOAD PUSH1 0xFF AND PUSH2 0x68C JUMPI PUSH1 0x40 MLOAD PUSH3 0x461BCD PUSH1 0xE5 SHL DUP2 MSTORE PUSH1 0x4 ADD PUSH2 0x1EC SWAP1 PUSH2 0xA21 JUMP JUMPDEST PUSH2 0x694 PUSH2 0x79E JUMP JUMPDEST PUSH2 0x69C PUSH2 0x7C6 JUMP JUMPDEST PUSH0 DUP3 PUSH1 0x2 DUP2 GT ISZERO PUSH2 0x6AF JUMPI PUSH2 0x6AF PUSH2 0xA49 JUMP JUMPDEST SUB PUSH2 0x6F4 JUMPI PUSH1 0x1 SLOAD PUSH1 0x40 MLOAD PUSH4 0x7E8843D PUSH1 0xE4 SHL DUP2 MSTORE PUSH2 0x100 SWAP1 SWAP2 DIV PUSH1 0x1 PUSH1 0x1 PUSH1 0xA0 SHL SUB AND SWAP1 PUSH4 0x7E8843D0 SWAP1 PUSH2 0x25D SWAP1 DUP11 SWAP1 DUP11 SWAP1 DUP11 SWAP1 DUP11 SWAP1 DUP11 SWAP1 DUP11 SWAP1 DUP11 SWAP1 PUSH1 0x4 ADD PUSH2 0xA5D JUMP JUMPDEST PUSH1 0x1 DUP3 PUSH1 0x2 DUP2 GT ISZERO PUSH2 0x708 JUMPI PUSH2 0x708 PUSH2 0xA49 JUMP JUMPDEST SUB PUSH2 0x749 JUMPI PUSH1 0x2 SLOAD PUSH1 0x40 MLOAD PUSH4 0x7E8843D PUSH1 0xE4 SHL DUP2 MSTORE PUSH1 0x1 PUSH1 0x1 PUSH1 0xA0 SHL SUB SWAP1 SWAP2 AND SWAP1 PUSH4 0x7E8843D0 SWAP1 PUSH2 0x25D SWAP1 DUP11 SWAP1 DUP11 SWAP1 DUP11 SWAP1 DUP11 SWAP1 DUP11 SWAP1 DUP11 SWAP1 DUP11 SWAP1 PUSH1 0x4 ADD PUSH2 0xA5D JUMP JUMPDEST PUSH1 0x2 DUP3 PUSH1 0x2 DUP2 GT ISZERO PUSH2 0x75D JUMPI PUSH2 0x75D PUSH2 0xA49 JUMP JUMPDEST SUB PUSH2 0x339 JUMPI PUSH1 0x3 SLOAD PUSH1 0x40 MLOAD PUSH4 0x7E8843D PUSH1 0xE4 SHL DUP2 MSTORE PUSH1 0x1 PUSH1 0x1 PUSH1 0xA0 SHL SUB SWAP1 SWAP2 AND SWAP1 PUSH4 0x7E8843D0 SWAP1 PUSH2 0x25D SWAP1 DUP11 SWAP1 DUP11 SWAP1 DUP11 SWAP1 DUP11 SWAP1 DUP11 SWAP1 DUP11 SWAP1 DUP11 SWAP1 PUSH1 0x4 ADD PUSH2 0xA5D JUMP JUMPDEST PUSH1 0x2 PUSH0 SLOAD SUB PUSH2 0x7C0 JUMPI PUSH1 0x40 MLOAD PUSH4 0x3EE5AEB5 PUSH1 0xE0 SHL DUP2 MSTORE PUSH1 0x4 ADD PUSH1 0x40 MLOAD DUP1 SWAP2 SUB SWAP1 REVERT JUMPDEST PUSH1 0x2 PUSH0 SSTORE JUMP JUMPDEST PUSH1 0x1 SLOAD PUSH1 0xFF AND ISZERO PUSH2 0x490 JUMPI PUSH1 0x40 MLOAD PUSH3 0x461BCD PUSH1 0xE5 SHL DUP2 MSTORE PUSH1 0x20 PUSH1 0x4 DUP3 ADD MSTORE PUSH1 0x10 PUSH1 0x24 DUP3 ADD MSTORE PUSH16 0x14185D5CD8589B194E881C185D5CD959 PUSH1 0x82 SHL PUSH1 0x44 DUP3 ADD MSTORE PUSH1 0x64 ADD PUSH2 0x1EC JUMP JUMPDEST PUSH2 0x814 PUSH2 0x893 JUMP JUMPDEST PUSH1 0x1 DUP1 SLOAD PUSH1 0xFF NOT AND SWAP1 SSTORE PUSH32 0x5DB9EE0A495BF2E6FF9C91A7834C1BA4FDD244A5E8AA4E537BD38AEAE4B073AA CALLER JUMPDEST PUSH1 0x40 MLOAD PUSH2 0x84E SWAP2 SWAP1 PUSH2 0x9CD JUMP JUMPDEST PUSH1 0x40 MLOAD DUP1 SWAP2 SUB SWAP1 LOG1 JUMP JUMPDEST PUSH2 0x860 PUSH2 0x7C6 JUMP JUMPDEST PUSH1 0x1 DUP1 SLOAD PUSH1 0xFF NOT AND DUP2 OR SWAP1 SSTORE PUSH32 0x62E78CEA01BEE320CD4E420270B5EA74000D11B0C9F74754EBDBFC544B05A258 CALLER PUSH2 0x841 JUMP JUMPDEST PUSH1 0x1 SLOAD PUSH1 0xFF AND PUSH2 0x490 JUMPI PUSH1 0x40 MLOAD PUSH3 0x461BCD PUSH1 0xE5 SHL DUP2 MSTORE PUSH1 0x20 PUSH1 0x4 DUP3 ADD MSTORE PUSH1 0x14 PUSH1 0x24 DUP3 ADD MSTORE PUSH20 0x14185D5CD8589B194E881B9BDD081C185D5CD959 PUSH1 0x62 SHL PUSH1 0x44 DUP3 ADD MSTORE PUSH1 0x64 ADD PUSH2 0x1EC JUMP JUMPDEST DUP1 CALLDATALOAD PUSH1 0x1 PUSH1 0x1 PUSH1 0xA0 SHL SUB DUP2 AND DUP2 EQ PUSH2 0x8F2 JUMPI PUSH0 PUSH0 REVERT JUMPDEST SWAP2 SWAP1 POP JUMP JUMPDEST DUP1 CALLDATALOAD DUP1 ISZERO ISZERO DUP2 EQ PUSH2 0x8F2 JUMPI PUSH0 PUSH0 REVERT JUMPDEST PUSH0 PUSH0 PUSH0 PUSH0 PUSH0 PUSH0 PUSH0 PUSH1 0xE0 DUP9 DUP11 SUB SLT ISZERO PUSH2 0x91C JUMPI PUSH0 PUSH0 REVERT JUMPDEST DUP8 CALLDATALOAD SWAP7 POP PUSH2 0x92C PUSH1 0x20 DUP10 ADD PUSH2 0x8DC JUMP JUMPDEST SWAP6 POP PUSH1 0x40 DUP9 ADD CALLDATALOAD SWAP5 POP PUSH1 0x60 DUP9 ADD CALLDATALOAD SWAP4 POP PUSH1 0x80 DUP9 ADD CALLDATALOAD PUSH1 0x1 DUP2 LT PUSH2 0x94D JUMPI PUSH0 PUSH0 REVERT JUMPDEST SWAP3 POP PUSH1 0xA0 DUP9 ADD CALLDATALOAD PUSH1 0x3 DUP2 LT PUSH2 0x960 JUMPI PUSH0 PUSH0 REVERT JUMPDEST SWAP2 POP PUSH2 0x96E PUSH1 0xC0 DUP10 ADD PUSH2 0x8F7 JUMP JUMPDEST SWAP1 POP SWAP3 SWAP6 SWAP9 SWAP2 SWAP5 SWAP8 POP SWAP3 SWAP6 POP JUMP JUMPDEST PUSH0 PUSH0 PUSH1 0x40 DUP4 DUP6 SUB SLT ISZERO PUSH2 0x98D JUMPI PUSH0 PUSH0 REVERT JUMPDEST PUSH2 0x996 DUP4 PUSH2 0x8DC JUMP JUMPDEST SWAP2 POP PUSH2 0x9A4 PUSH1 0x20 DUP5 ADD PUSH2 0x8F7 JUMP JUMPDEST SWAP1 POP SWAP3 POP SWAP3 SWAP1 POP JUMP JUMPDEST PUSH0 PUSH1 0x20 DUP3 DUP5 SUB SLT ISZERO PUSH2 0x9BD JUMPI PUSH0 PUSH0 REVERT JUMPDEST PUSH2 0x9C6 DUP3 PUSH2 0x8DC JUMP JUMPDEST SWAP4 SWAP3 POP POP POP JUMP JUMPDEST PUSH1 0x1 PUSH1 0x1 PUSH1 0xA0 SHL SUB SWAP2 SWAP1 SWAP2 AND DUP2 MSTORE PUSH1 0x20 ADD SWAP1 JUMP JUMPDEST PUSH0 PUSH0 PUSH0 PUSH1 0x60 DUP5 DUP7 SUB SLT ISZERO PUSH2 0x9F3 JUMPI PUSH0 PUSH0 REVERT JUMPDEST PUSH2 0x9FC DUP5 PUSH2 0x8DC JUMP JUMPDEST SWAP3 POP PUSH2 0xA0A PUSH1 0x20 DUP6 ADD PUSH2 0x8DC JUMP JUMPDEST SWAP2 POP PUSH2 0xA18 PUSH1 0x40 DUP6 ADD PUSH2 0x8DC JUMP JUMPDEST SWAP1 POP SWAP3 POP SWAP3 POP SWAP3 JUMP JUMPDEST PUSH1 0x20 DUP1 DUP3 MSTORE PUSH1 0xE SWAP1 DUP3 ADD MSTORE PUSH14 0x139BDD08185D5D1A1BDC9A5E9959 PUSH1 0x92 SHL PUSH1 0x40 DUP3 ADD MSTORE PUSH1 0x60 ADD SWAP1 JUMP JUMPDEST PUSH4 0x4E487B71 PUSH1 0xE0 SHL PUSH0 MSTORE PUSH1 0x21 PUSH1 0x4 MSTORE PUSH1 0x24 PUSH0 REVERT JUMPDEST DUP8 DUP2 MSTORE PUSH1 0x1 PUSH1 0x1 PUSH1 0xA0 SHL SUB DUP8 AND PUSH1 0x20 DUP3 ADD MSTORE PUSH1 0x40 DUP2 ADD DUP7 SWAP1 MSTORE PUSH1 0x60 DUP2 ADD DUP6 SWAP1 MSTORE PUSH1 0xE0 DUP2 ADD PUSH1 0x1 DUP6 LT PUSH2 0xA91 JUMPI PUSH2 0xA91 PUSH2 0xA49 JUMP JUMPDEST DUP5 PUSH1 0x80 DUP4 ADD MSTORE PUSH1 0x3 DUP5 LT PUSH2 0xAA7 JUMPI PUSH2 0xAA7 PUSH2 0xA49 JUMP JUMPDEST DUP4 PUSH1 0xA0 DUP4 ADD MSTORE DUP3 ISZERO ISZERO PUSH1 0xC0 DUP4 ADD MSTORE SWAP9 SWAP8 POP POP POP POP POP POP POP POP JUMP INVALID LOG2 PUSH5 0x6970667358 0x22 SLT KECCAK256 0xC6 0x4C LOG4 PUSH23 0x657FB71061D3281ABDF174FC1D84694DE67BD0B32F6FDD SWAP7 LOG2 0x2B DUP4 SSTORE PUSH5 0x736F6C6343 STOP ADDMOD 0x1E STOP CALLER "
				},
				"gasEstimates": {
					"creation": {
						"codeDepositCost": "561400",
						"executionCost": "95461",
						"totalCost": "656861"
					},
					"external": {
						"authorizedAddresses(address)": "2759",
						"escrowHandler()": "2503",
						"owner()": "2514",
						"pause()": "infinite",
						"paused()": "2347",
						"routeBuyOrder(uint256,address,uint256,uint256,uint8,uint8,bool)": "infinite",
						"routeSellOrder(uint256,address,uint256,uint256,uint8,uint8,bool)": "infinite",
						"setAuthorizedAddress(address,bool)": "infinite",
						"setContracts(address,address,address)": "infinite",
						"setOwner(address)": "26781",
						"unpause()": "infinite",
						"usdcOrders()": "2536",
						"usdtOrders()": "2448"
					}
				},
				"methodIdentifiers": {
					"authorizedAddresses(address)": "f19e207e",
					"escrowHandler()": "87ad8f87",
					"owner()": "8da5cb5b",
					"pause()": "8456cb59",
					"paused()": "5c975abb",
					"routeBuyOrder(uint256,address,uint256,uint256,uint8,uint8,bool)": "ced6f7df",
					"routeSellOrder(uint256,address,uint256,uint256,uint8,uint8,bool)": "0d462d44",
					"setAuthorizedAddress(address,bool)": "1351cf51",
					"setContracts(address,address,address)": "b3066d49",
					"setOwner(address)": "13af4035",
					"unpause()": "3f4ba83a",
					"usdcOrders()": "9c5338a5",
					"usdtOrders()": "71dc7725"
				}
			},
			"storageLayout": {
				"storage": [
					{
						"astId": 148,
						"contract": "contracts/OrderRouter.sol:OrderRouter",
						"label": "_status",
						"offset": 0,
						"slot": "0",
						"type": "t_uint256"
					},
					{
						"astId": 17,
						"contract": "contracts/OrderRouter.sol:OrderRouter",
						"label": "_paused",
						"offset": 0,
						"slot": "1",
						"type": "t_bool"
					},
					{
						"astId": 933,
						"contract": "contracts/OrderRouter.sol:OrderRouter",
						"label": "escrowHandler",
						"offset": 1,
						"slot": "1",
						"type": "t_contract(IEscrowHandler)484"
					},
					{
						"astId": 936,
						"contract": "contracts/OrderRouter.sol:OrderRouter",
						"label": "usdtOrders",
						"offset": 0,
						"slot": "2",
						"type": "t_contract(IUSDTorders)918"
					},
					{
						"astId": 939,
						"contract": "contracts/OrderRouter.sol:OrderRouter",
						"label": "usdcOrders",
						"offset": 0,
						"slot": "3",
						"type": "t_contract(IUSDCorders)701"
					},
					{
						"astId": 943,
						"contract": "contracts/OrderRouter.sol:OrderRouter",
						"label": "authorizedAddresses",
						"offset": 0,
						"slot": "4",
						"type": "t_mapping(t_address,t_bool)"
					},
					{
						"astId": 945,
						"contract": "contracts/OrderRouter.sol:OrderRouter",
						"label": "owner",
						"offset": 0,
						"slot": "5",
						"type": "t_address"
					}
				],
				"types": {
					"t_address": {
						"encoding": "inplace",
						"label": "address",
						"numberOfBytes": "20"
					},
					"t_bool": {
						"encoding": "inplace",
						"label": "bool",
						"numberOfBytes": "1"
					},
					"t_contract(IEscrowHandler)484": {
						"encoding": "inplace",
						"label": "contract IEscrowHandler",
						"numberOfBytes": "20"
					},
					"t_contract(IUSDCorders)701": {
						"encoding": "inplace",
						"label": "contract IUSDCorders",
						"numberOfBytes": "20"
					},
					"t_contract(IUSDTorders)918": {
						"encoding": "inplace",
						"label": "contract IUSDTorders",
						"numberOfBytes": "20"
					},
					"t_mapping(t_address,t_bool)": {
						"encoding": "mapping",
						"key": "t_address",
						"label": "mapping(address => bool)",
						"numberOfBytes": "32",
						"value": "t_bool"
					},
					"t_uint256": {
						"encoding": "inplace",
						"label": "uint256",
						"numberOfBytes": "32"
					}
				}
			},
			"userdoc": {
				"kind": "user",
				"methods": {},
				"version": 1
			}
		}
	}
}