{
	"contracts/Balances_flattened.sol": {
		"Balances": {
			"abi": [
				{
					"inputs": [],
					"stateMutability": "nonpayable",
					"type": "constructor"
				},
				{
					"inputs": [],
					"name": "ReentrancyGuardReentrantCall",
					"type": "error"
				},
				{
					"anonymous": false,
					"inputs": [
						{
							"indexed": false,
							"internalType": "address",
							"name": "account",
							"type": "address"
						}
					],
					"name": "Paused",
					"type": "event"
				},
				{
					"anonymous": false,
					"inputs": [
						{
							"indexed": false,
							"internalType": "address",
							"name": "account",
							"type": "address"
						}
					],
					"name": "Unpaused",
					"type": "event"
				},
				{
					"inputs": [
						{
							"internalType": "address",
							"name": "",
							"type": "address"
						}
					],
					"name": "authorizedAddresses",
					"outputs": [
						{
							"internalType": "bool",
							"name": "",
							"type": "bool"
						}
					],
					"stateMutability": "view",
					"type": "function"
				},
				{
					"inputs": [
						{
							"internalType": "uint256",
							"name": "",
							"type": "uint256"
						}
					],
					"name": "authorizedBuyersBackupList",
					"outputs": [
						{
							"internalType": "address",
							"name": "",
							"type": "address"
						}
					],
					"stateMutability": "view",
					"type": "function"
				},
				{
					"inputs": [
						{
							"internalType": "address",
							"name": "",
							"type": "address"
						}
					],
					"name": "authorizedBuyersBackupMap",
					"outputs": [
						{
							"internalType": "bool",
							"name": "",
							"type": "bool"
						}
					],
					"stateMutability": "view",
					"type": "function"
				},
				{
					"inputs": [
						{
							"internalType": "address",
							"name": "",
							"type": "address"
						}
					],
					"name": "balances",
					"outputs": [
						{
							"internalType": "uint256",
							"name": "",
							"type": "uint256"
						}
					],
					"stateMutability": "view",
					"type": "function"
				},
				{
					"inputs": [],
					"name": "getAllBalances",
					"outputs": [
						{
							"internalType": "address[]",
							"name": "",
							"type": "address[]"
						},
						{
							"internalType": "uint256[]",
							"name": "",
							"type": "uint256[]"
						}
					],
					"stateMutability": "view",
					"type": "function"
				},
				{
					"inputs": [],
					"name": "getAllUserBalances",
					"outputs": [
						{
							"internalType": "address[]",
							"name": "",
							"type": "address[]"
						},
						{
							"internalType": "uint256[]",
							"name": "",
							"type": "uint256[]"
						}
					],
					"stateMutability": "view",
					"type": "function"
				},
				{
					"inputs": [
						{
							"internalType": "uint256",
							"name": "index",
							"type": "uint256"
						}
					],
					"name": "getAuthorizedBuyerAtIndex",
					"outputs": [
						{
							"internalType": "address",
							"name": "",
							"type": "address"
						}
					],
					"stateMutability": "view",
					"type": "function"
				},
				{
					"inputs": [],
					"name": "getAuthorizedBuyersCount",
					"outputs": [
						{
							"internalType": "uint256",
							"name": "",
							"type": "uint256"
						}
					],
					"stateMutability": "view",
					"type": "function"
				},
				{
					"inputs": [
						{
							"internalType": "address",
							"name": "user",
							"type": "address"
						}
					],
					"name": "getBalance",
					"outputs": [
						{
							"internalType": "uint256",
							"name": "",
							"type": "uint256"
						}
					],
					"stateMutability": "view",
					"type": "function"
				},
				{
					"inputs": [
						{
							"internalType": "address",
							"name": "buyer",
							"type": "address"
						}
					],
					"name": "isAuthorizedBuyer",
					"outputs": [
						{
							"internalType": "bool",
							"name": "",
							"type": "bool"
						}
					],
					"stateMutability": "view",
					"type": "function"
				},
				{
					"inputs": [
						{
							"internalType": "address",
							"name": "newContract",
							"type": "address"
						}
					],
					"name": "migrateBalances",
					"outputs": [],
					"stateMutability": "nonpayable",
					"type": "function"
				},
				{
					"inputs": [],
					"name": "owner",
					"outputs": [
						{
							"internalType": "address",
							"name": "",
							"type": "address"
						}
					],
					"stateMutability": "view",
					"type": "function"
				},
				{
					"inputs": [],
					"name": "pause",
					"outputs": [],
					"stateMutability": "nonpayable",
					"type": "function"
				},
				{
					"inputs": [],
					"name": "paused",
					"outputs": [
						{
							"internalType": "bool",
							"name": "",
							"type": "bool"
						}
					],
					"stateMutability": "view",
					"type": "function"
				},
				{
					"inputs": [
						{
							"internalType": "address",
							"name": "_address",
							"type": "address"
						},
						{
							"internalType": "bool",
							"name": "_status",
							"type": "bool"
						}
					],
					"name": "setAuthorizedAddress",
					"outputs": [],
					"stateMutability": "nonpayable",
					"type": "function"
				},
				{
					"inputs": [
						{
							"internalType": "address",
							"name": "buyer",
							"type": "address"
						},
						{
							"internalType": "bool",
							"name": "_status",
							"type": "bool"
						}
					],
					"name": "setAuthorizedBuyerBackup",
					"outputs": [],
					"stateMutability": "nonpayable",
					"type": "function"
				},
				{
					"inputs": [
						{
							"internalType": "address",
							"name": "user",
							"type": "address"
						},
						{
							"internalType": "uint256",
							"name": "balance",
							"type": "uint256"
						}
					],
					"name": "setBalance",
					"outputs": [],
					"stateMutability": "nonpayable",
					"type": "function"
				},
				{
					"inputs": [
						{
							"internalType": "address",
							"name": "newOwner",
							"type": "address"
						}
					],
					"name": "setOwner",
					"outputs": [],
					"stateMutability": "nonpayable",
					"type": "function"
				},
				{
					"inputs": [],
					"name": "unpause",
					"outputs": [],
					"stateMutability": "nonpayable",
					"type": "function"
				},
				{
					"inputs": [
						{
							"internalType": "address",
							"name": "user",
							"type": "address"
						},
						{
							"internalType": "uint256",
							"name": "balance",
							"type": "uint256"
						}
					],
					"name": "updateBalance",
					"outputs": [],
					"stateMutability": "nonpayable",
					"type": "function"
				},
				{
					"inputs": [
						{
							"internalType": "address",
							"name": "",
							"type": "address"
						}
					],
					"name": "userExists",
					"outputs": [
						{
							"internalType": "bool",
							"name": "",
							"type": "bool"
						}
					],
					"stateMutability": "view",
					"type": "function"
				},
				{
					"inputs": [
						{
							"internalType": "uint256",
							"name": "",
							"type": "uint256"
						}
					],
					"name": "users",
					"outputs": [
						{
							"internalType": "address",
							"name": "",
							"type": "address"
						}
					],
					"stateMutability": "view",
					"type": "function"
				}
			],
			"devdoc": {
				"errors": {
					"ReentrancyGuardReentrantCall()": [
						{
							"details": "Unauthorized reentrant call."
						}
					]
				},
				"events": {
					"Paused(address)": {
						"details": "Emitted when the pause is triggered by `account`."
					},
					"Unpaused(address)": {
						"details": "Emitted when the pause is lifted by `account`."
					}
				},
				"kind": "dev",
				"methods": {
					"paused()": {
						"details": "Returns true if the contract is paused, and false otherwise."
					}
				},
				"version": 1
			},
			"evm": {
				"assembly": "    /* \"contracts/Balances_flattened.sol\":7552:12001  contract Balances is ReentrancyGuard, Pausable{... */\n  mstore(0x40, 0x80)\n    /* \"contracts/Balances_flattened.sol\":7905:8018  constructor() {... */\n  callvalue\n  dup1\n  iszero\n  tag_1\n  jumpi\n  revert(0x00, 0x00)\ntag_1:\n  pop\n    /* \"contracts/Balances_flattened.sol\":5420:5421  1 */\n  0x01\n    /* \"contracts/Balances_flattened.sol\":5624:5631  _status */\n  0x00\n    /* \"contracts/Balances_flattened.sol\":5624:5645  _status = NOT_ENTERED */\n  dup2\n  dup2\n  sstore\n    /* \"contracts/Balances_flattened.sol\":1976:1991  _paused = false */\n  dup2\n  sload\n  not(0xff)\n  swap1\n  dup2\n  and\n  dup4\n  sstore\n    /* \"contracts/Balances_flattened.sol\":7957:7967  msg.sender */\n  caller\n    /* \"contracts/Balances_flattened.sol\":7937:7968  authorizedAddresses[msg.sender] */\n  dup1\n  dup4\n  mstore\n    /* \"contracts/Balances_flattened.sol\":7937:7956  authorizedAddresses */\n  0x02\n    /* \"contracts/Balances_flattened.sol\":7937:7968  authorizedAddresses[msg.sender] */\n  0x20\n  mstore\n  0x40\n  swap1\n  swap3\n  keccak256\n    /* \"contracts/Balances_flattened.sol\":7937:7975  authorizedAddresses[msg.sender] = true */\n  dup1\n  sload\n  swap1\n  swap2\n  and\n  swap1\n  swap3\n  or\n  swap1\n  swap2\n  sstore\n    /* \"contracts/Balances_flattened.sol\":7993:7998  owner */\n  0x08\n    /* \"contracts/Balances_flattened.sol\":7993:8011  owner = msg.sender */\n  dup1\n  sload\n  not(sub(shl(0xa0, 0x01), 0x01))\n  and\n  swap1\n  swap2\n  or\n  swap1\n  sstore\n    /* \"contracts/Balances_flattened.sol\":7552:12001  contract Balances is ReentrancyGuard, Pausable{... */\n  dataSize(sub_0)\n  dup1\n  dataOffset(sub_0)\n  0x00\n  codecopy\n  0x00\n  return\nstop\n\nsub_0: assembly {\n        /* \"contracts/Balances_flattened.sol\":7552:12001  contract Balances is ReentrancyGuard, Pausable{... */\n      mstore(0x40, 0x80)\n      callvalue\n      dup1\n      iszero\n      tag_1\n      jumpi\n      revert(0x00, 0x00)\n    tag_1:\n      pop\n      jumpi(tag_2, lt(calldatasize, 0x04))\n      shr(0xe0, calldataload(0x00))\n      dup1\n      0x66fdd888\n      gt\n      tag_25\n      jumpi\n      dup1\n      0x66fdd888\n      eq\n      tag_14\n      jumpi\n      dup1\n      0x8456cb59\n      eq\n      tag_15\n      jumpi\n      dup1\n      0x867e7c27\n      eq\n      tag_16\n      jumpi\n      dup1\n      0x8da5cb5b\n      eq\n      tag_17\n      jumpi\n      dup1\n      0x9d63b499\n      eq\n      tag_18\n      jumpi\n      dup1\n      0xe0b1cccb\n      eq\n      tag_19\n      jumpi\n      dup1\n      0xe24b62e0\n      eq\n      tag_20\n      jumpi\n      dup1\n      0xe30443bc\n      eq\n      tag_21\n      jumpi\n      dup1\n      0xf19e207e\n      eq\n      tag_22\n      jumpi\n      dup1\n      0xf7314bc9\n      eq\n      tag_23\n      jumpi\n      dup1\n      0xf8b2cb4f\n      eq\n      tag_24\n      jumpi\n      revert(0x00, 0x00)\n    tag_25:\n      dup1\n      0x0e666e49\n      eq\n      tag_3\n      jumpi\n      dup1\n      0x1351cf51\n      eq\n      tag_4\n      jumpi\n      dup1\n      0x13af4035\n      eq\n      tag_5\n      jumpi\n      dup1\n      0x1f56c9e3\n      eq\n      tag_6\n      jumpi\n      dup1\n      0x27e235e3\n      eq\n      tag_7\n      jumpi\n      dup1\n      0x365b98b2\n      eq\n      tag_8\n      jumpi\n      dup1\n      0x3f4ba83a\n      eq\n      tag_9\n      jumpi\n      dup1\n      0x46f6c9de\n      eq\n      tag_10\n      jumpi\n      dup1\n      0x574b17cd\n      eq\n      tag_11\n      jumpi\n      dup1\n      0x5c975abb\n      eq\n      tag_12\n      jumpi\n      dup1\n      0x6348e35d\n      eq\n      tag_13\n      jumpi\n    tag_2:\n      revert(0x00, 0x00)\n        /* \"contracts/Balances_flattened.sol\":7714:7756  mapping(address => bool) public userExists */\n    tag_3:\n      tag_26\n      tag_27\n      calldatasize\n      0x04\n      tag_28\n      jump\t// in\n    tag_27:\n      mstore(0x20, 0x04)\n      0x00\n      swap1\n      dup2\n      mstore\n      0x40\n      swap1\n      keccak256\n      sload\n      0xff\n      and\n      dup2\n      jump\n    tag_26:\n      mload(0x40)\n        /* \"#utility.yul\":548:562   */\n      swap1\n      iszero\n        /* \"#utility.yul\":541:563   */\n      iszero\n        /* \"#utility.yul\":523:564   */\n      dup2\n      mstore\n        /* \"#utility.yul\":511:513   */\n      0x20\n        /* \"#utility.yul\":496:514   */\n      add\n        /* \"contracts/Balances_flattened.sol\":7714:7756  mapping(address => bool) public userExists */\n    tag_30:\n      mload(0x40)\n      dup1\n      swap2\n      sub\n      swap1\n      return\n        /* \"contracts/Balances_flattened.sol\":8268:8421  function setAuthorizedAddress(address _address, bool _status) public onlyAuthorized nonReentrant {... */\n    tag_4:\n      tag_32\n      tag_33\n      calldatasize\n      0x04\n      tag_34\n      jump\t// in\n    tag_33:\n      tag_35\n      jump\t// in\n    tag_32:\n      stop\n        /* \"contracts/Balances_flattened.sol\":8171:8262  function setOwner(address newOwner) public onlyAuthorized {... */\n    tag_5:\n      tag_32\n      tag_37\n      calldatasize\n      0x04\n      tag_28\n      jump\t// in\n    tag_37:\n      tag_38\n      jump\t// in\n        /* \"contracts/Balances_flattened.sol\":11282:11399  function getAuthorizedBuyersCount() external view returns (uint256) {... */\n    tag_6:\n        /* \"contracts/Balances_flattened.sol\":11363:11389  authorizedBuyersBackupList */\n      0x07\n        /* \"contracts/Balances_flattened.sol\":11363:11396  authorizedBuyersBackupList.length */\n      sload\n        /* \"contracts/Balances_flattened.sol\":11282:11399  function getAuthorizedBuyersCount() external view returns (uint256) {... */\n    tag_39:\n      mload(0x40)\n        /* \"#utility.yul\":1073:1098   */\n      swap1\n      dup2\n      mstore\n        /* \"#utility.yul\":1061:1063   */\n      0x20\n        /* \"#utility.yul\":1046:1064   */\n      add\n        /* \"contracts/Balances_flattened.sol\":11282:11399  function getAuthorizedBuyersCount() external view returns (uint256) {... */\n      tag_30\n        /* \"#utility.yul\":927:1104   */\n      jump\n        /* \"contracts/Balances_flattened.sol\":7665:7708  mapping(address => uint256) public balances */\n    tag_7:\n      tag_39\n      tag_44\n      calldatasize\n      0x04\n      tag_28\n      jump\t// in\n    tag_44:\n      mstore(0x20, 0x03)\n      0x00\n      swap1\n      dup2\n      mstore\n      0x40\n      swap1\n      keccak256\n      sload\n      dup2\n      jump\n        /* \"contracts/Balances_flattened.sol\":7762:7784  address[] public users */\n    tag_8:\n      tag_47\n      tag_48\n      calldatasize\n      0x04\n      tag_49\n      jump\t// in\n    tag_48:\n      tag_50\n      jump\t// in\n    tag_47:\n      mload(0x40)\n      tag_30\n      swap2\n      swap1\n      tag_52\n      jump\t// in\n        /* \"contracts/Balances_flattened.sol\":11915:11998  function unpause() external onlyAuthorized nonReentrant {... */\n    tag_9:\n      tag_32\n      tag_54\n      jump\t// in\n        /* \"contracts/Balances_flattened.sol\":11613:11732  function isAuthorizedBuyer(address buyer) external view returns (bool) {... */\n    tag_10:\n      tag_26\n      tag_56\n      calldatasize\n      0x04\n      tag_28\n      jump\t// in\n    tag_56:\n      sub(shl(0xa0, 0x01), 0x01)\n        /* \"contracts/Balances_flattened.sol\":11697:11729  authorizedBuyersBackupMap[buyer] */\n      and\n        /* \"contracts/Balances_flattened.sol\":11678:11682  bool */\n      0x00\n        /* \"contracts/Balances_flattened.sol\":11697:11729  authorizedBuyersBackupMap[buyer] */\n      swap1\n      dup2\n      mstore\n        /* \"contracts/Balances_flattened.sol\":11697:11722  authorizedBuyersBackupMap */\n      0x06\n        /* \"contracts/Balances_flattened.sol\":11697:11729  authorizedBuyersBackupMap[buyer] */\n      0x20\n      mstore\n      0x40\n      swap1\n      keccak256\n      sload\n      0xff\n      and\n      swap1\n        /* \"contracts/Balances_flattened.sol\":11613:11732  function isAuthorizedBuyer(address buyer) external view returns (bool) {... */\n      jump\n        /* \"contracts/Balances_flattened.sol\":7853:7896  address[] public authorizedBuyersBackupList */\n    tag_11:\n      tag_47\n      tag_60\n      calldatasize\n      0x04\n      tag_49\n      jump\t// in\n    tag_60:\n      tag_61\n      jump\t// in\n        /* \"contracts/Balances_flattened.sol\":2595:2679  function paused() public view virtual returns (bool) {... */\n    tag_12:\n        /* \"contracts/Balances_flattened.sol\":2665:2672  _paused */\n      and(0xff, sload(0x01))\n        /* \"contracts/Balances_flattened.sol\":2595:2679  function paused() public view virtual returns (bool) {... */\n      jump(tag_26)\n        /* \"contracts/Balances_flattened.sol\":9718:10156  function getAllUserBalances() external view returns (address[] memory, uint256[] memory) {... */\n    tag_13:\n      tag_66\n      tag_67\n      jump\t// in\n    tag_66:\n      mload(0x40)\n      tag_30\n      swap3\n      swap2\n      swap1\n      tag_69\n      jump\t// in\n        /* \"contracts/Balances_flattened.sol\":9077:9377  function migrateBalances(address newContract) external onlyAuthorized nonReentrant {... */\n    tag_14:\n      tag_32\n      tag_71\n      calldatasize\n      0x04\n      tag_28\n      jump\t// in\n    tag_71:\n      tag_72\n      jump\t// in\n        /* \"contracts/Balances_flattened.sol\":11816:11909  function pause() external whenNotPaused onlyAuthorized nonReentrant {... */\n    tag_15:\n      tag_32\n      tag_74\n      jump\t// in\n        /* \"contracts/Balances_flattened.sol\":9383:9713  function getAllBalances() external view returns (address[] memory, uint256[] memory) {... */\n    tag_16:\n      tag_66\n      tag_76\n      jump\t// in\n        /* \"contracts/Balances_flattened.sol\":8145:8165  address public owner */\n    tag_17:\n      sload(0x08)\n      tag_47\n      swap1\n      sub(shl(0xa0, 0x01), 0x01)\n      and\n      dup2\n      jump\n        /* \"contracts/Balances_flattened.sol\":11401:11611  function getAuthorizedBuyerAtIndex(uint256 index) external view returns (address) {... */\n    tag_18:\n      tag_47\n      tag_82\n      calldatasize\n      0x04\n      tag_49\n      jump\t// in\n    tag_82:\n      tag_83\n      jump\t// in\n        /* \"contracts/Balances_flattened.sol\":8624:8850  function updateBalance(address user, uint256 balance) external onlyAuthorized {... */\n    tag_19:\n      tag_32\n      tag_86\n      calldatasize\n      0x04\n      tag_87\n      jump\t// in\n    tag_86:\n      tag_88\n      jump\t// in\n        /* \"contracts/Balances_flattened.sol\":7790:7847  mapping(address => bool) public authorizedBuyersBackupMap */\n    tag_20:\n      tag_26\n      tag_90\n      calldatasize\n      0x04\n      tag_28\n      jump\t// in\n    tag_90:\n      mstore(0x20, 0x06)\n      0x00\n      swap1\n      dup2\n      mstore\n      0x40\n      swap1\n      keccak256\n      sload\n      0xff\n      and\n      dup2\n      jump\n        /* \"contracts/Balances_flattened.sol\":8888:9017  function setBalance(address user, uint256 balance) external onlyAuthorized nonReentrant {... */\n    tag_21:\n      tag_32\n      tag_94\n      calldatasize\n      0x04\n      tag_87\n      jump\t// in\n    tag_94:\n      tag_95\n      jump\t// in\n        /* \"contracts/Balances_flattened.sol\":7608:7659  mapping(address => bool) public authorizedAddresses */\n    tag_22:\n      tag_26\n      tag_97\n      calldatasize\n      0x04\n      tag_28\n      jump\t// in\n    tag_97:\n      mstore(0x20, 0x02)\n      0x00\n      swap1\n      dup2\n      mstore\n      0x40\n      swap1\n      keccak256\n      sload\n      0xff\n      and\n      dup2\n      jump\n        /* \"contracts/Balances_flattened.sol\":10272:11269  function setAuthorizedBuyerBackup(address buyer, bool _status) external onlyAuthorized nonReentrant {... */\n    tag_23:\n      tag_32\n      tag_101\n      calldatasize\n      0x04\n      tag_34\n      jump\t// in\n    tag_101:\n      tag_102\n      jump\t// in\n        /* \"contracts/Balances_flattened.sol\":10162:10266  function getBalance(address user) external view returns (uint256) {... */\n    tag_24:\n      tag_39\n      tag_104\n      calldatasize\n      0x04\n      tag_28\n      jump\t// in\n    tag_104:\n      sub(shl(0xa0, 0x01), 0x01)\n        /* \"contracts/Balances_flattened.sol\":10245:10259  balances[user] */\n      and\n        /* \"contracts/Balances_flattened.sol\":10219:10226  uint256 */\n      0x00\n        /* \"contracts/Balances_flattened.sol\":10245:10259  balances[user] */\n      swap1\n      dup2\n      mstore\n        /* \"contracts/Balances_flattened.sol\":10245:10253  balances */\n      0x03\n        /* \"contracts/Balances_flattened.sol\":10245:10259  balances[user] */\n      0x20\n      mstore\n      0x40\n      swap1\n      keccak256\n      sload\n      swap1\n        /* \"contracts/Balances_flattened.sol\":10162:10266  function getBalance(address user) external view returns (uint256) {... */\n      jump\n        /* \"contracts/Balances_flattened.sol\":8268:8421  function setAuthorizedAddress(address _address, bool _status) public onlyAuthorized nonReentrant {... */\n    tag_35:\n        /* \"contracts/Balances_flattened.sol\":8092:8102  msg.sender */\n      caller\n        /* \"contracts/Balances_flattened.sol\":8072:8103  authorizedAddresses[msg.sender] */\n      0x00\n      swap1\n      dup2\n      mstore\n        /* \"contracts/Balances_flattened.sol\":8072:8091  authorizedAddresses */\n      0x02\n        /* \"contracts/Balances_flattened.sol\":8072:8103  authorizedAddresses[msg.sender] */\n      0x20\n      mstore\n      0x40\n      swap1\n      keccak256\n      sload\n      0xff\n      and\n        /* \"contracts/Balances_flattened.sol\":8064:8122  require(authorizedAddresses[msg.sender], \"Not authorized\") */\n      tag_108\n      jumpi\n      mload(0x40)\n      shl(0xe5, 0x461bcd)\n      dup2\n      mstore\n      0x04\n      add\n      tag_109\n      swap1\n      tag_110\n      jump\t// in\n    tag_109:\n      mload(0x40)\n      dup1\n      swap2\n      sub\n      swap1\n      revert\n    tag_108:\n        /* \"contracts/Balances_flattened.sol\":6063:6084  _nonReentrantBefore() */\n      tag_112\n        /* \"contracts/Balances_flattened.sol\":6063:6082  _nonReentrantBefore */\n      tag_113\n        /* \"contracts/Balances_flattened.sol\":6063:6084  _nonReentrantBefore() */\n      jump\t// in\n    tag_112:\n      sub(shl(0xa0, 0x01), 0x01)\n        /* \"contracts/Balances_flattened.sol\":8375:8404  authorizedAddresses[_address] */\n      dup3\n      and\n      0x00\n      swap1\n      dup2\n      mstore\n        /* \"contracts/Balances_flattened.sol\":8375:8394  authorizedAddresses */\n      0x02\n        /* \"contracts/Balances_flattened.sol\":8375:8404  authorizedAddresses[_address] */\n      0x20\n      mstore\n      0x40\n      dup2\n      keccak256\n        /* \"contracts/Balances_flattened.sol\":8375:8414  authorizedAddresses[_address] = _status */\n      dup1\n      sload\n      not(0xff)\n      and\n      dup4\n      iszero\n      iszero\n      or\n      swap1\n      sstore\n      0x01\n        /* \"contracts/Balances_flattened.sol\":6631:6652  _status = NOT_ENTERED */\n      swap1\n      sstore\n        /* \"contracts/Balances_flattened.sol\":8268:8421  function setAuthorizedAddress(address _address, bool _status) public onlyAuthorized nonReentrant {... */\n      pop\n      pop\n      jump\t// out\n        /* \"contracts/Balances_flattened.sol\":6105:6125  _nonReentrantAfter() */\n    tag_115:\n        /* \"contracts/Balances_flattened.sol\":8268:8421  function setAuthorizedAddress(address _address, bool _status) public onlyAuthorized nonReentrant {... */\n      pop\n      pop\n      jump\t// out\n        /* \"contracts/Balances_flattened.sol\":8171:8262  function setOwner(address newOwner) public onlyAuthorized {... */\n    tag_38:\n        /* \"contracts/Balances_flattened.sol\":8092:8102  msg.sender */\n      caller\n        /* \"contracts/Balances_flattened.sol\":8072:8103  authorizedAddresses[msg.sender] */\n      0x00\n      swap1\n      dup2\n      mstore\n        /* \"contracts/Balances_flattened.sol\":8072:8091  authorizedAddresses */\n      0x02\n        /* \"contracts/Balances_flattened.sol\":8072:8103  authorizedAddresses[msg.sender] */\n      0x20\n      mstore\n      0x40\n      swap1\n      keccak256\n      sload\n      0xff\n      and\n        /* \"contracts/Balances_flattened.sol\":8064:8122  require(authorizedAddresses[msg.sender], \"Not authorized\") */\n      tag_118\n      jumpi\n      mload(0x40)\n      shl(0xe5, 0x461bcd)\n      dup2\n      mstore\n      0x04\n      add\n      tag_109\n      swap1\n      tag_110\n      jump\t// in\n    tag_118:\n        /* \"contracts/Balances_flattened.sol\":8239:8244  owner */\n      0x08\n        /* \"contracts/Balances_flattened.sol\":8239:8255  owner = newOwner */\n      dup1\n      sload\n      not(sub(shl(0xa0, 0x01), 0x01))\n      and\n      sub(shl(0xa0, 0x01), 0x01)\n      swap3\n      swap1\n      swap3\n      and\n      swap2\n      swap1\n      swap2\n      or\n      swap1\n      sstore\n        /* \"contracts/Balances_flattened.sol\":8171:8262  function setOwner(address newOwner) public onlyAuthorized {... */\n      jump\t// out\n        /* \"contracts/Balances_flattened.sol\":7762:7784  address[] public users */\n    tag_50:\n      0x05\n      dup2\n      dup2\n      sload\n      dup2\n      lt\n      tag_122\n      jumpi\n      0x00\n      dup1\n      revert\n    tag_122:\n      0x00\n      swap2\n      dup3\n      mstore\n      0x20\n      swap1\n      swap2\n      keccak256\n      add\n      sload\n      sub(shl(0xa0, 0x01), 0x01)\n      and\n      swap1\n      pop\n      dup2\n      jump\t// out\n        /* \"contracts/Balances_flattened.sol\":11915:11998  function unpause() external onlyAuthorized nonReentrant {... */\n    tag_54:\n        /* \"contracts/Balances_flattened.sol\":8092:8102  msg.sender */\n      caller\n        /* \"contracts/Balances_flattened.sol\":8072:8103  authorizedAddresses[msg.sender] */\n      0x00\n      swap1\n      dup2\n      mstore\n        /* \"contracts/Balances_flattened.sol\":8072:8091  authorizedAddresses */\n      0x02\n        /* \"contracts/Balances_flattened.sol\":8072:8103  authorizedAddresses[msg.sender] */\n      0x20\n      mstore\n      0x40\n      swap1\n      keccak256\n      sload\n      0xff\n      and\n        /* \"contracts/Balances_flattened.sol\":8064:8122  require(authorizedAddresses[msg.sender], \"Not authorized\") */\n      tag_125\n      jumpi\n      mload(0x40)\n      shl(0xe5, 0x461bcd)\n      dup2\n      mstore\n      0x04\n      add\n      tag_109\n      swap1\n      tag_110\n      jump\t// in\n    tag_125:\n        /* \"contracts/Balances_flattened.sol\":6063:6084  _nonReentrantBefore() */\n      tag_128\n        /* \"contracts/Balances_flattened.sol\":6063:6082  _nonReentrantBefore */\n      tag_113\n        /* \"contracts/Balances_flattened.sol\":6063:6084  _nonReentrantBefore() */\n      jump\t// in\n    tag_128:\n        /* \"contracts/Balances_flattened.sol\":11981:11991  _unpause() */\n      tag_130\n        /* \"contracts/Balances_flattened.sol\":11981:11989  _unpause */\n      tag_131\n        /* \"contracts/Balances_flattened.sol\":11981:11991  _unpause() */\n      jump\t// in\n    tag_130:\n        /* \"contracts/Balances_flattened.sol\":6105:6125  _nonReentrantAfter() */\n      tag_132\n        /* \"contracts/Balances_flattened.sol\":5420:5421  1 */\n      0x01\n        /* \"contracts/Balances_flattened.sol\":6631:6638  _status */\n      0x00\n        /* \"contracts/Balances_flattened.sol\":6631:6652  _status = NOT_ENTERED */\n      sstore\n        /* \"contracts/Balances_flattened.sol\":6451:6659  function _nonReentrantAfter() private {... */\n      jump\n        /* \"contracts/Balances_flattened.sol\":6105:6125  _nonReentrantAfter() */\n    tag_132:\n        /* \"contracts/Balances_flattened.sol\":11915:11998  function unpause() external onlyAuthorized nonReentrant {... */\n      jump\t// out\n        /* \"contracts/Balances_flattened.sol\":7853:7896  address[] public authorizedBuyersBackupList */\n    tag_61:\n      0x07\n      dup2\n      dup2\n      sload\n      dup2\n      lt\n      tag_122\n      jumpi\n      0x00\n      dup1\n      revert\n        /* \"contracts/Balances_flattened.sol\":9718:10156  function getAllUserBalances() external view returns (address[] memory, uint256[] memory) {... */\n    tag_67:\n        /* \"contracts/Balances_flattened.sol\":9833:9838  users */\n      0x05\n        /* \"contracts/Balances_flattened.sol\":9833:9845  users.length */\n      sload\n        /* \"contracts/Balances_flattened.sol\":9771:9787  address[] memory */\n      0x60\n      swap1\n      dup2\n      swap1\n        /* \"contracts/Balances_flattened.sol\":9813:9830  uint256 userCount */\n      0x00\n        /* \"contracts/Balances_flattened.sol\":9833:9845  users.length */\n      dup2\n        /* \"contracts/Balances_flattened.sol\":9884:9908  new address[](userCount) */\n      0xffffffffffffffff\n      dup2\n      gt\n      iszero\n      tag_139\n      jumpi\n      tag_139\n      tag_140\n      jump\t// in\n    tag_139:\n      mload(0x40)\n      swap1\n      dup1\n      dup3\n      mstore\n      dup1\n      0x20\n      mul\n      0x20\n      add\n      dup3\n      add\n      0x40\n      mstore\n      dup1\n      iszero\n      tag_141\n      jumpi\n      dup2\n      0x20\n      add\n      0x20\n      dup3\n      mul\n      dup1\n      calldatasize\n      dup4\n      calldatacopy\n      add\n      swap1\n      pop\n    tag_141:\n      pop\n        /* \"contracts/Balances_flattened.sol\":9851:9908  address[] memory userAddresses = new address[](userCount) */\n      swap1\n      pop\n        /* \"contracts/Balances_flattened.sol\":9914:9943  uint256[] memory userBalances */\n      0x00\n        /* \"contracts/Balances_flattened.sol\":9960:9969  userCount */\n      dup3\n        /* \"contracts/Balances_flattened.sol\":9946:9970  new uint256[](userCount) */\n      0xffffffffffffffff\n      dup2\n      gt\n      iszero\n      tag_143\n      jumpi\n      tag_143\n      tag_140\n      jump\t// in\n    tag_143:\n      mload(0x40)\n      swap1\n      dup1\n      dup3\n      mstore\n      dup1\n      0x20\n      mul\n      0x20\n      add\n      dup3\n      add\n      0x40\n      mstore\n      dup1\n      iszero\n      tag_144\n      jumpi\n      dup2\n      0x20\n      add\n      0x20\n      dup3\n      mul\n      dup1\n      calldatasize\n      dup4\n      calldatacopy\n      add\n      swap1\n      pop\n    tag_144:\n      pop\n        /* \"contracts/Balances_flattened.sol\":9914:9970  uint256[] memory userBalances = new uint256[](userCount) */\n      swap1\n      pop\n        /* \"contracts/Balances_flattened.sol\":9982:9991  uint256 i */\n      0x00\n        /* \"contracts/Balances_flattened.sol\":9977:10107  for (uint256 i = 0; i < userCount; i++) {... */\n    tag_145:\n        /* \"contracts/Balances_flattened.sol\":10001:10010  userCount */\n      dup4\n        /* \"contracts/Balances_flattened.sol\":9997:9998  i */\n      dup2\n        /* \"contracts/Balances_flattened.sol\":9997:10010  i < userCount */\n      lt\n        /* \"contracts/Balances_flattened.sol\":9977:10107  for (uint256 i = 0; i < userCount; i++) {... */\n      iszero\n      tag_146\n      jumpi\n        /* \"contracts/Balances_flattened.sol\":10046:10051  users */\n      0x05\n        /* \"contracts/Balances_flattened.sol\":10052:10053  i */\n      dup2\n        /* \"contracts/Balances_flattened.sol\":10046:10054  users[i] */\n      dup2\n      sload\n      dup2\n      lt\n      tag_149\n      jumpi\n      tag_149\n      tag_150\n      jump\t// in\n    tag_149:\n      swap1\n      0x00\n      mstore\n      keccak256(0x00, 0x20)\n      add\n      0x00\n      swap1\n      sload\n      swap1\n      0x0100\n      exp\n      swap1\n      div\n      sub(shl(0xa0, 0x01), 0x01)\n      and\n        /* \"contracts/Balances_flattened.sol\":10027:10040  userAddresses */\n      dup4\n        /* \"contracts/Balances_flattened.sol\":10041:10042  i */\n      dup3\n        /* \"contracts/Balances_flattened.sol\":10027:10043  userAddresses[i] */\n      dup2\n      mload\n      dup2\n      lt\n      tag_153\n      jumpi\n      tag_153\n      tag_150\n      jump\t// in\n    tag_153:\n      0x20\n      mul\n      0x20\n      add\n      add\n        /* \"contracts/Balances_flattened.sol\":10027:10054  userAddresses[i] = users[i] */\n      swap1\n      sub(shl(0xa0, 0x01), 0x01)\n      and\n      swap1\n      dup2\n      sub(shl(0xa0, 0x01), 0x01)\n      and\n      dup2\n      mstore\n      pop\n      pop\n        /* \"contracts/Balances_flattened.sol\":10082:10090  balances */\n      0x03\n        /* \"contracts/Balances_flattened.sol\":10082:10100  balances[users[i]] */\n      0x00\n        /* \"contracts/Balances_flattened.sol\":10091:10096  users */\n      0x05\n        /* \"contracts/Balances_flattened.sol\":10097:10098  i */\n      dup4\n        /* \"contracts/Balances_flattened.sol\":10091:10099  users[i] */\n      dup2\n      sload\n      dup2\n      lt\n      tag_155\n      jumpi\n      tag_155\n      tag_150\n      jump\t// in\n    tag_155:\n      0x00\n      swap2\n      dup3\n      mstore\n      0x20\n      dup1\n      dup4\n      keccak256\n      swap1\n      swap2\n      add\n      sload\n      sub(shl(0xa0, 0x01), 0x01)\n      and\n        /* \"contracts/Balances_flattened.sol\":10082:10100  balances[users[i]] */\n      dup4\n      mstore\n      dup3\n      add\n      swap3\n      swap1\n      swap3\n      mstore\n      0x40\n      add\n      swap1\n      keccak256\n      sload\n        /* \"contracts/Balances_flattened.sol\":10064:10079  userBalances[i] */\n      dup3\n      mload\n        /* \"contracts/Balances_flattened.sol\":10064:10076  userBalances */\n      dup4\n      swap1\n        /* \"contracts/Balances_flattened.sol\":10077:10078  i */\n      dup4\n      swap1\n        /* \"contracts/Balances_flattened.sol\":10064:10079  userBalances[i] */\n      dup2\n      lt\n      tag_158\n      jumpi\n      tag_158\n      tag_150\n      jump\t// in\n    tag_158:\n      0x20\n      swap1\n      dup2\n      mul\n      swap2\n      swap1\n      swap2\n      add\n      add\n        /* \"contracts/Balances_flattened.sol\":10064:10100  userBalances[i] = balances[users[i]] */\n      mstore\n        /* \"contracts/Balances_flattened.sol\":10012:10015  i++ */\n      0x01\n      add\n        /* \"contracts/Balances_flattened.sol\":9977:10107  for (uint256 i = 0; i < userCount; i++) {... */\n      jump(tag_145)\n    tag_146:\n      pop\n        /* \"contracts/Balances_flattened.sol\":10121:10134  userAddresses */\n      swap1\n      swap5\n        /* \"contracts/Balances_flattened.sol\":10136:10148  userBalances */\n      swap1\n      swap4\n      pop\n        /* \"contracts/Balances_flattened.sol\":9718:10156  function getAllUserBalances() external view returns (address[] memory, uint256[] memory) {... */\n      swap2\n      pop\n      pop\n      jump\t// out\n        /* \"contracts/Balances_flattened.sol\":9077:9377  function migrateBalances(address newContract) external onlyAuthorized nonReentrant {... */\n    tag_72:\n        /* \"contracts/Balances_flattened.sol\":8092:8102  msg.sender */\n      caller\n        /* \"contracts/Balances_flattened.sol\":8072:8103  authorizedAddresses[msg.sender] */\n      0x00\n      swap1\n      dup2\n      mstore\n        /* \"contracts/Balances_flattened.sol\":8072:8091  authorizedAddresses */\n      0x02\n        /* \"contracts/Balances_flattened.sol\":8072:8103  authorizedAddresses[msg.sender] */\n      0x20\n      mstore\n      0x40\n      swap1\n      keccak256\n      sload\n      0xff\n      and\n        /* \"contracts/Balances_flattened.sol\":8064:8122  require(authorizedAddresses[msg.sender], \"Not authorized\") */\n      tag_160\n      jumpi\n      mload(0x40)\n      shl(0xe5, 0x461bcd)\n      dup2\n      mstore\n      0x04\n      add\n      tag_109\n      swap1\n      tag_110\n      jump\t// in\n    tag_160:\n        /* \"contracts/Balances_flattened.sol\":6063:6084  _nonReentrantBefore() */\n      tag_163\n        /* \"contracts/Balances_flattened.sol\":6063:6082  _nonReentrantBefore */\n      tag_113\n        /* \"contracts/Balances_flattened.sol\":6063:6084  _nonReentrantBefore() */\n      jump\t// in\n    tag_163:\n        /* \"contracts/Balances_flattened.sol\":9175:9184  uint256 i */\n      0x00\n        /* \"contracts/Balances_flattened.sol\":9170:9371  for (uint256 i = 0; i < users.length; i++) {... */\n    tag_165:\n        /* \"contracts/Balances_flattened.sol\":9194:9199  users */\n      0x05\n        /* \"contracts/Balances_flattened.sol\":9194:9206  users.length */\n      sload\n        /* \"contracts/Balances_flattened.sol\":9190:9206  i < users.length */\n      dup2\n      lt\n        /* \"contracts/Balances_flattened.sol\":9170:9371  for (uint256 i = 0; i < users.length; i++) {... */\n      iszero\n      tag_166\n      jumpi\n        /* \"contracts/Balances_flattened.sol\":9227:9239  address user */\n      0x00\n        /* \"contracts/Balances_flattened.sol\":9242:9247  users */\n      0x05\n        /* \"contracts/Balances_flattened.sol\":9248:9249  i */\n      dup3\n        /* \"contracts/Balances_flattened.sol\":9242:9250  users[i] */\n      dup2\n      sload\n      dup2\n      lt\n      tag_169\n      jumpi\n      tag_169\n      tag_150\n      jump\t// in\n    tag_169:\n      0x00\n      swap2\n      dup3\n      mstore\n      0x20\n      dup1\n      dup4\n      keccak256\n      swap2\n      swap1\n      swap2\n      add\n      sload\n      sub(shl(0xa0, 0x01), 0x01)\n      swap1\n      dup2\n      and\n        /* \"contracts/Balances_flattened.sol\":9282:9296  balances[user] */\n      dup1\n      dup5\n      mstore\n        /* \"contracts/Balances_flattened.sol\":9282:9290  balances */\n      0x03\n        /* \"contracts/Balances_flattened.sol\":9282:9296  balances[user] */\n      swap1\n      swap3\n      mstore\n      0x40\n      swap3\n      dup4\n      swap1\n      keccak256\n      sload\n        /* \"contracts/Balances_flattened.sol\":9310:9360  NewBalances(newContract).setBalance(user, balance) */\n      swap3\n      mload\n      shl(0xe2, 0x38c110ef)\n      dup2\n      mstore\n      0x04\n      dup2\n      add\n        /* \"#utility.yul\":3810:3861   */\n      dup4\n      swap1\n      mstore\n        /* \"#utility.yul\":3877:3895   */\n      0x24\n      dup2\n      add\n        /* \"#utility.yul\":3870:3904   */\n      dup5\n      swap1\n      mstore\n        /* \"contracts/Balances_flattened.sol\":9242:9250  users[i] */\n      swap2\n      swap4\n      pop\n        /* \"contracts/Balances_flattened.sol\":9310:9345  NewBalances(newContract).setBalance */\n      dup6\n      and\n      swap1\n      0xe30443bc\n      swap1\n        /* \"#utility.yul\":3783:3801   */\n      0x44\n      add\n        /* \"contracts/Balances_flattened.sol\":9310:9360  NewBalances(newContract).setBalance(user, balance) */\n      0x00\n      mload(0x40)\n      dup1\n      dup4\n      sub\n      dup2\n      0x00\n      dup8\n      dup1\n      extcodesize\n      iszero\n      dup1\n      iszero\n      tag_173\n      jumpi\n      revert(0x00, 0x00)\n    tag_173:\n      pop\n      gas\n      call\n      iszero\n      dup1\n      iszero\n      tag_175\n      jumpi\n      returndatacopy(0x00, 0x00, returndatasize)\n      revert(0x00, returndatasize)\n    tag_175:\n      pop\n      pop\n        /* \"contracts/Balances_flattened.sol\":9208:9211  i++ */\n      0x01\n      swap1\n      swap5\n      add\n      swap4\n      pop\n        /* \"contracts/Balances_flattened.sol\":9170:9371  for (uint256 i = 0; i < users.length; i++) {... */\n      tag_165\n      swap3\n      pop\n      pop\n      pop\n      jump\n    tag_166:\n      pop\n        /* \"contracts/Balances_flattened.sol\":6105:6125  _nonReentrantAfter() */\n      tag_176\n        /* \"contracts/Balances_flattened.sol\":5420:5421  1 */\n      0x01\n        /* \"contracts/Balances_flattened.sol\":6631:6638  _status */\n      0x00\n        /* \"contracts/Balances_flattened.sol\":6631:6652  _status = NOT_ENTERED */\n      sstore\n        /* \"contracts/Balances_flattened.sol\":6451:6659  function _nonReentrantAfter() private {... */\n      jump\n        /* \"contracts/Balances_flattened.sol\":6105:6125  _nonReentrantAfter() */\n    tag_176:\n        /* \"contracts/Balances_flattened.sol\":9077:9377  function migrateBalances(address newContract) external onlyAuthorized nonReentrant {... */\n      pop\n      jump\t// out\n        /* \"contracts/Balances_flattened.sol\":11816:11909  function pause() external whenNotPaused onlyAuthorized nonReentrant {... */\n    tag_74:\n        /* \"contracts/Balances_flattened.sol\":2219:2238  _requireNotPaused() */\n      tag_178\n        /* \"contracts/Balances_flattened.sol\":2219:2236  _requireNotPaused */\n      tag_179\n        /* \"contracts/Balances_flattened.sol\":2219:2238  _requireNotPaused() */\n      jump\t// in\n    tag_178:\n        /* \"contracts/Balances_flattened.sol\":8092:8102  msg.sender */\n      caller\n        /* \"contracts/Balances_flattened.sol\":8072:8103  authorizedAddresses[msg.sender] */\n      0x00\n      swap1\n      dup2\n      mstore\n        /* \"contracts/Balances_flattened.sol\":8072:8091  authorizedAddresses */\n      0x02\n        /* \"contracts/Balances_flattened.sol\":8072:8103  authorizedAddresses[msg.sender] */\n      0x20\n      mstore\n      0x40\n      swap1\n      keccak256\n      sload\n      0xff\n      and\n        /* \"contracts/Balances_flattened.sol\":8064:8122  require(authorizedAddresses[msg.sender], \"Not authorized\") */\n      tag_181\n      jumpi\n      mload(0x40)\n      shl(0xe5, 0x461bcd)\n      dup2\n      mstore\n      0x04\n      add\n      tag_109\n      swap1\n      tag_110\n      jump\t// in\n    tag_181:\n        /* \"contracts/Balances_flattened.sol\":6063:6084  _nonReentrantBefore() */\n      tag_184\n        /* \"contracts/Balances_flattened.sol\":6063:6082  _nonReentrantBefore */\n      tag_113\n        /* \"contracts/Balances_flattened.sol\":6063:6084  _nonReentrantBefore() */\n      jump\t// in\n    tag_184:\n        /* \"contracts/Balances_flattened.sol\":11894:11902  _pause() */\n      tag_130\n        /* \"contracts/Balances_flattened.sol\":11894:11900  _pause */\n      tag_187\n        /* \"contracts/Balances_flattened.sol\":11894:11902  _pause() */\n      jump\t// in\n        /* \"contracts/Balances_flattened.sol\":9383:9713  function getAllBalances() external view returns (address[] memory, uint256[] memory) {... */\n    tag_76:\n        /* \"contracts/Balances_flattened.sol\":9494:9499  users */\n      0x05\n        /* \"contracts/Balances_flattened.sol\":9494:9506  users.length */\n      sload\n        /* \"contracts/Balances_flattened.sol\":9432:9448  address[] memory */\n      0x60\n      swap1\n      dup2\n      swap1\n        /* \"contracts/Balances_flattened.sol\":9474:9491  uint256 userCount */\n      0x00\n        /* \"contracts/Balances_flattened.sol\":9494:9506  users.length */\n      dup2\n        /* \"contracts/Balances_flattened.sol\":9544:9568  new uint256[](userCount) */\n      0xffffffffffffffff\n      dup2\n      gt\n      iszero\n      tag_191\n      jumpi\n      tag_191\n      tag_140\n      jump\t// in\n    tag_191:\n      mload(0x40)\n      swap1\n      dup1\n      dup3\n      mstore\n      dup1\n      0x20\n      mul\n      0x20\n      add\n      dup3\n      add\n      0x40\n      mstore\n      dup1\n      iszero\n      tag_192\n      jumpi\n      dup2\n      0x20\n      add\n      0x20\n      dup3\n      mul\n      dup1\n      calldatasize\n      dup4\n      calldatacopy\n      add\n      swap1\n      pop\n    tag_192:\n      pop\n        /* \"contracts/Balances_flattened.sol\":9512:9568  uint256[] memory userBalances = new uint256[](userCount) */\n      swap1\n      pop\n        /* \"contracts/Balances_flattened.sol\":9584:9593  uint256 i */\n      0x00\n        /* \"contracts/Balances_flattened.sol\":9579:9672  for (uint256 i = 0; i < userCount; i++) {... */\n    tag_193:\n        /* \"contracts/Balances_flattened.sol\":9603:9612  userCount */\n      dup3\n        /* \"contracts/Balances_flattened.sol\":9599:9600  i */\n      dup2\n        /* \"contracts/Balances_flattened.sol\":9599:9612  i < userCount */\n      lt\n        /* \"contracts/Balances_flattened.sol\":9579:9672  for (uint256 i = 0; i < userCount; i++) {... */\n      iszero\n      tag_194\n      jumpi\n        /* \"contracts/Balances_flattened.sol\":9647:9655  balances */\n      0x03\n        /* \"contracts/Balances_flattened.sol\":9647:9665  balances[users[i]] */\n      0x00\n        /* \"contracts/Balances_flattened.sol\":9656:9661  users */\n      0x05\n        /* \"contracts/Balances_flattened.sol\":9662:9663  i */\n      dup4\n        /* \"contracts/Balances_flattened.sol\":9656:9664  users[i] */\n      dup2\n      sload\n      dup2\n      lt\n      tag_197\n      jumpi\n      tag_197\n      tag_150\n      jump\t// in\n    tag_197:\n      0x00\n      swap2\n      dup3\n      mstore\n      0x20\n      dup1\n      dup4\n      keccak256\n      swap1\n      swap2\n      add\n      sload\n      sub(shl(0xa0, 0x01), 0x01)\n      and\n        /* \"contracts/Balances_flattened.sol\":9647:9665  balances[users[i]] */\n      dup4\n      mstore\n      dup3\n      add\n      swap3\n      swap1\n      swap3\n      mstore\n      0x40\n      add\n      swap1\n      keccak256\n      sload\n        /* \"contracts/Balances_flattened.sol\":9629:9644  userBalances[i] */\n      dup3\n      mload\n        /* \"contracts/Balances_flattened.sol\":9629:9641  userBalances */\n      dup4\n      swap1\n        /* \"contracts/Balances_flattened.sol\":9642:9643  i */\n      dup4\n      swap1\n        /* \"contracts/Balances_flattened.sol\":9629:9644  userBalances[i] */\n      dup2\n      lt\n      tag_200\n      jumpi\n      tag_200\n      tag_150\n      jump\t// in\n    tag_200:\n      0x20\n      swap1\n      dup2\n      mul\n      swap2\n      swap1\n      swap2\n      add\n      add\n        /* \"contracts/Balances_flattened.sol\":9629:9665  userBalances[i] = balances[users[i]] */\n      mstore\n        /* \"contracts/Balances_flattened.sol\":9614:9617  i++ */\n      0x01\n      add\n        /* \"contracts/Balances_flattened.sol\":9579:9672  for (uint256 i = 0; i < userCount; i++) {... */\n      jump(tag_193)\n    tag_194:\n      pop\n        /* \"contracts/Balances_flattened.sol\":9690:9695  users */\n      0x05\n        /* \"contracts/Balances_flattened.sol\":9697:9709  userBalances */\n      dup2\n        /* \"contracts/Balances_flattened.sol\":9682:9710  return (users, userBalances) */\n      dup2\n      dup1\n      sload\n      dup1\n      0x20\n      mul\n      0x20\n      add\n      mload(0x40)\n      swap1\n      dup2\n      add\n      0x40\n      mstore\n      dup1\n      swap3\n      swap2\n      swap1\n      dup2\n      dup2\n      mstore\n      0x20\n      add\n      dup3\n      dup1\n      sload\n      dup1\n      iszero\n      tag_201\n      jumpi\n      0x20\n      mul\n      dup3\n      add\n      swap2\n      swap1\n      0x00\n      mstore\n      keccak256(0x00, 0x20)\n      swap1\n    tag_202:\n      dup2\n      sload\n      sub(shl(0xa0, 0x01), 0x01)\n      and\n      dup2\n      mstore\n      0x01\n      swap1\n      swap2\n      add\n      swap1\n      0x20\n      add\n      dup1\n      dup4\n      gt\n      tag_202\n      jumpi\n    tag_201:\n      pop\n      pop\n      pop\n      pop\n      pop\n      swap2\n      pop\n      swap4\n      pop\n      swap4\n      pop\n      pop\n      pop\n        /* \"contracts/Balances_flattened.sol\":9383:9713  function getAllBalances() external view returns (address[] memory, uint256[] memory) {... */\n      swap1\n      swap2\n      jump\t// out\n        /* \"contracts/Balances_flattened.sol\":11401:11611  function getAuthorizedBuyerAtIndex(uint256 index) external view returns (address) {... */\n    tag_83:\n        /* \"contracts/Balances_flattened.sol\":11505:11531  authorizedBuyersBackupList */\n      0x07\n        /* \"contracts/Balances_flattened.sol\":11505:11538  authorizedBuyersBackupList.length */\n      sload\n        /* \"contracts/Balances_flattened.sol\":11474:11481  address */\n      0x00\n      swap1\n        /* \"contracts/Balances_flattened.sol\":11497:11538  index < authorizedBuyersBackupList.length */\n      dup3\n      lt\n        /* \"contracts/Balances_flattened.sol\":11489:11562  require(index < authorizedBuyersBackupList.length, \"Index out of bounds\") */\n      tag_204\n      jumpi\n      mload(0x40)\n      shl(0xe5, 0x461bcd)\n      dup2\n      mstore\n        /* \"#utility.yul\":4117:4119   */\n      0x20\n        /* \"contracts/Balances_flattened.sol\":11489:11562  require(index < authorizedBuyersBackupList.length, \"Index out of bounds\") */\n      0x04\n      dup3\n      add\n        /* \"#utility.yul\":4099:4120   */\n      mstore\n        /* \"#utility.yul\":4156:4158   */\n      0x13\n        /* \"#utility.yul\":4136:4154   */\n      0x24\n      dup3\n      add\n        /* \"#utility.yul\":4129:4159   */\n      mstore\n      shl(0x68, 0x496e646578206f7574206f6620626f756e6473)\n        /* \"#utility.yul\":4175:4193   */\n      0x44\n      dup3\n      add\n        /* \"#utility.yul\":4168:4217   */\n      mstore\n        /* \"#utility.yul\":4234:4252   */\n      0x64\n      add\n        /* \"contracts/Balances_flattened.sol\":11489:11562  require(index < authorizedBuyersBackupList.length, \"Index out of bounds\") */\n      tag_109\n        /* \"#utility.yul\":3915:4258   */\n      jump\n        /* \"contracts/Balances_flattened.sol\":11489:11562  require(index < authorizedBuyersBackupList.length, \"Index out of bounds\") */\n    tag_204:\n        /* \"contracts/Balances_flattened.sol\":11575:11601  authorizedBuyersBackupList */\n      0x07\n        /* \"contracts/Balances_flattened.sol\":11602:11607  index */\n      dup3\n        /* \"contracts/Balances_flattened.sol\":11575:11608  authorizedBuyersBackupList[index] */\n      dup2\n      sload\n      dup2\n      lt\n      tag_208\n      jumpi\n      tag_208\n      tag_150\n      jump\t// in\n    tag_208:\n      0x00\n      swap2\n      dup3\n      mstore\n      0x20\n      swap1\n      swap2\n      keccak256\n      add\n      sload\n      sub(shl(0xa0, 0x01), 0x01)\n      and\n      swap3\n        /* \"contracts/Balances_flattened.sol\":11401:11611  function getAuthorizedBuyerAtIndex(uint256 index) external view returns (address) {... */\n      swap2\n      pop\n      pop\n      jump\t// out\n        /* \"contracts/Balances_flattened.sol\":8624:8850  function updateBalance(address user, uint256 balance) external onlyAuthorized {... */\n    tag_88:\n        /* \"contracts/Balances_flattened.sol\":8092:8102  msg.sender */\n      caller\n        /* \"contracts/Balances_flattened.sol\":8072:8103  authorizedAddresses[msg.sender] */\n      0x00\n      swap1\n      dup2\n      mstore\n        /* \"contracts/Balances_flattened.sol\":8072:8091  authorizedAddresses */\n      0x02\n        /* \"contracts/Balances_flattened.sol\":8072:8103  authorizedAddresses[msg.sender] */\n      0x20\n      mstore\n      0x40\n      swap1\n      keccak256\n      sload\n      0xff\n      and\n        /* \"contracts/Balances_flattened.sol\":8064:8122  require(authorizedAddresses[msg.sender], \"Not authorized\") */\n      tag_211\n      jumpi\n      mload(0x40)\n      shl(0xe5, 0x461bcd)\n      dup2\n      mstore\n      0x04\n      add\n      tag_109\n      swap1\n      tag_110\n      jump\t// in\n    tag_211:\n      sub(shl(0xa0, 0x01), 0x01)\n        /* \"contracts/Balances_flattened.sol\":8717:8733  userExists[user] */\n      dup3\n      and\n      0x00\n      swap1\n      dup2\n      mstore\n        /* \"contracts/Balances_flattened.sol\":8717:8727  userExists */\n      0x04\n        /* \"contracts/Balances_flattened.sol\":8717:8733  userExists[user] */\n      0x20\n      mstore\n      0x40\n      swap1\n      keccak256\n      sload\n      0xff\n      and\n        /* \"contracts/Balances_flattened.sol\":8712:8810  if (!userExists[user]) {... */\n      tag_214\n      jumpi\n        /* \"contracts/Balances_flattened.sol\":8526:8531  users */\n      0x05\n        /* \"contracts/Balances_flattened.sol\":8526:8542  users.push(user) */\n      dup1\n      sload\n      0x01\n      dup1\n      dup3\n      add\n      swap1\n      swap3\n      sstore\n      0x036b6384b5eca791c62761152d0c79bb0604c104a5fb6f4eb0703f3154bb3db0\n      add\n      dup1\n      sload\n      not(sub(shl(0xa0, 0x01), 0x01))\n      and\n      sub(shl(0xa0, 0x01), 0x01)\n      dup6\n      and\n      swap1\n      dup2\n      or\n      swap1\n      swap2\n      sstore\n      0x00\n        /* \"contracts/Balances_flattened.sol\":8776:8792  userExists[user] */\n      swap1\n      dup2\n      mstore\n        /* \"contracts/Balances_flattened.sol\":8776:8786  userExists */\n      0x04\n        /* \"contracts/Balances_flattened.sol\":8776:8792  userExists[user] */\n      0x20\n      mstore\n      0x40\n      swap1\n      keccak256\n        /* \"contracts/Balances_flattened.sol\":8776:8799  userExists[user] = true */\n      dup1\n      sload\n      not(0xff)\n      and\n      swap1\n      swap2\n      or\n      swap1\n      sstore\n        /* \"contracts/Balances_flattened.sol\":8712:8810  if (!userExists[user]) {... */\n    tag_214:\n      sub(shl(0xa0, 0x01), 0x01)\n        /* \"contracts/Balances_flattened.sol\":8819:8833  balances[user] */\n      swap1\n      swap2\n      and\n      0x00\n      swap1\n      dup2\n      mstore\n        /* \"contracts/Balances_flattened.sol\":8819:8827  balances */\n      0x03\n        /* \"contracts/Balances_flattened.sol\":8819:8833  balances[user] */\n      0x20\n      mstore\n      0x40\n      swap1\n      keccak256\n        /* \"contracts/Balances_flattened.sol\":8819:8843  balances[user] = balance */\n      sstore\n        /* \"contracts/Balances_flattened.sol\":8624:8850  function updateBalance(address user, uint256 balance) external onlyAuthorized {... */\n      jump\t// out\n        /* \"contracts/Balances_flattened.sol\":8888:9017  function setBalance(address user, uint256 balance) external onlyAuthorized nonReentrant {... */\n    tag_95:\n        /* \"contracts/Balances_flattened.sol\":8092:8102  msg.sender */\n      caller\n        /* \"contracts/Balances_flattened.sol\":8072:8103  authorizedAddresses[msg.sender] */\n      0x00\n      swap1\n      dup2\n      mstore\n        /* \"contracts/Balances_flattened.sol\":8072:8091  authorizedAddresses */\n      0x02\n        /* \"contracts/Balances_flattened.sol\":8072:8103  authorizedAddresses[msg.sender] */\n      0x20\n      mstore\n      0x40\n      swap1\n      keccak256\n      sload\n      0xff\n      and\n        /* \"contracts/Balances_flattened.sol\":8064:8122  require(authorizedAddresses[msg.sender], \"Not authorized\") */\n      tag_218\n      jumpi\n      mload(0x40)\n      shl(0xe5, 0x461bcd)\n      dup2\n      mstore\n      0x04\n      add\n      tag_109\n      swap1\n      tag_110\n      jump\t// in\n    tag_218:\n        /* \"contracts/Balances_flattened.sol\":6063:6084  _nonReentrantBefore() */\n      tag_221\n        /* \"contracts/Balances_flattened.sol\":6063:6082  _nonReentrantBefore */\n      tag_113\n        /* \"contracts/Balances_flattened.sol\":6063:6084  _nonReentrantBefore() */\n      jump\t// in\n    tag_221:\n      sub(shl(0xa0, 0x01), 0x01)\n        /* \"contracts/Balances_flattened.sol\":8986:9000  balances[user] */\n      dup3\n      and\n      0x00\n      swap1\n      dup2\n      mstore\n        /* \"contracts/Balances_flattened.sol\":8986:8994  balances */\n      0x03\n        /* \"contracts/Balances_flattened.sol\":8986:9000  balances[user] */\n      0x20\n      mstore\n      0x40\n      swap1\n      keccak256\n        /* \"contracts/Balances_flattened.sol\":8986:9010  balances[user] = balance */\n      dup2\n      swap1\n      sstore\n        /* \"contracts/Balances_flattened.sol\":6105:6125  _nonReentrantAfter() */\n      tag_115\n        /* \"contracts/Balances_flattened.sol\":5420:5421  1 */\n      0x01\n        /* \"contracts/Balances_flattened.sol\":6631:6638  _status */\n      0x00\n        /* \"contracts/Balances_flattened.sol\":6631:6652  _status = NOT_ENTERED */\n      sstore\n        /* \"contracts/Balances_flattened.sol\":6451:6659  function _nonReentrantAfter() private {... */\n      jump\n        /* \"contracts/Balances_flattened.sol\":10272:11269  function setAuthorizedBuyerBackup(address buyer, bool _status) external onlyAuthorized nonReentrant {... */\n    tag_102:\n        /* \"contracts/Balances_flattened.sol\":8092:8102  msg.sender */\n      caller\n        /* \"contracts/Balances_flattened.sol\":8072:8103  authorizedAddresses[msg.sender] */\n      0x00\n      swap1\n      dup2\n      mstore\n        /* \"contracts/Balances_flattened.sol\":8072:8091  authorizedAddresses */\n      0x02\n        /* \"contracts/Balances_flattened.sol\":8072:8103  authorizedAddresses[msg.sender] */\n      0x20\n      mstore\n      0x40\n      swap1\n      keccak256\n      sload\n      0xff\n      and\n        /* \"contracts/Balances_flattened.sol\":8064:8122  require(authorizedAddresses[msg.sender], \"Not authorized\") */\n      tag_225\n      jumpi\n      mload(0x40)\n      shl(0xe5, 0x461bcd)\n      dup2\n      mstore\n      0x04\n      add\n      tag_109\n      swap1\n      tag_110\n      jump\t// in\n    tag_225:\n        /* \"contracts/Balances_flattened.sol\":6063:6084  _nonReentrantBefore() */\n      tag_228\n        /* \"contracts/Balances_flattened.sol\":6063:6082  _nonReentrantBefore */\n      tag_113\n        /* \"contracts/Balances_flattened.sol\":6063:6084  _nonReentrantBefore() */\n      jump\t// in\n    tag_228:\n      sub(shl(0xa0, 0x01), 0x01)\n        /* \"contracts/Balances_flattened.sol\":10386:10405  buyer != address(0) */\n      dup3\n      and\n        /* \"contracts/Balances_flattened.sol\":10378:10438  require(buyer != address(0), \"Buyer address cannot be zero\") */\n      tag_230\n      jumpi\n      mload(0x40)\n      shl(0xe5, 0x461bcd)\n      dup2\n      mstore\n        /* \"#utility.yul\":4465:4467   */\n      0x20\n        /* \"contracts/Balances_flattened.sol\":10378:10438  require(buyer != address(0), \"Buyer address cannot be zero\") */\n      0x04\n      dup3\n      add\n        /* \"#utility.yul\":4447:4468   */\n      mstore\n        /* \"#utility.yul\":4504:4506   */\n      0x1c\n        /* \"#utility.yul\":4484:4502   */\n      0x24\n      dup3\n      add\n        /* \"#utility.yul\":4477:4507   */\n      mstore\n        /* \"#utility.yul\":4543:4573   */\n      0x427579657220616464726573732063616e6e6f74206265207a65726f00000000\n        /* \"#utility.yul\":4523:4541   */\n      0x44\n      dup3\n      add\n        /* \"#utility.yul\":4516:4574   */\n      mstore\n        /* \"#utility.yul\":4591:4609   */\n      0x64\n      add\n        /* \"contracts/Balances_flattened.sol\":10378:10438  require(buyer != address(0), \"Buyer address cannot be zero\") */\n      tag_109\n        /* \"#utility.yul\":4263:4615   */\n      jump\n        /* \"contracts/Balances_flattened.sol\":10378:10438  require(buyer != address(0), \"Buyer address cannot be zero\") */\n    tag_230:\n        /* \"contracts/Balances_flattened.sol\":10449:10456  _status */\n      dup1\n        /* \"contracts/Balances_flattened.sol\":10445:11267  if (_status) {... */\n      iszero\n      tag_233\n      jumpi\n      sub(shl(0xa0, 0x01), 0x01)\n        /* \"contracts/Balances_flattened.sol\":10552:10584  authorizedBuyersBackupMap[buyer] */\n      dup3\n      and\n      0x00\n      swap1\n      dup2\n      mstore\n        /* \"contracts/Balances_flattened.sol\":10552:10577  authorizedBuyersBackupMap */\n      0x06\n        /* \"contracts/Balances_flattened.sol\":10552:10584  authorizedBuyersBackupMap[buyer] */\n      0x20\n      mstore\n      0x40\n      swap1\n      keccak256\n      sload\n      0xff\n      and\n        /* \"contracts/Balances_flattened.sol\":10547:10702  if (!authorizedBuyersBackupMap[buyer]) {... */\n      tag_234\n      jumpi\n      sub(shl(0xa0, 0x01), 0x01)\n        /* \"contracts/Balances_flattened.sol\":10600:10632  authorizedBuyersBackupMap[buyer] */\n      dup3\n      and\n      0x00\n      dup2\n      dup2\n      mstore\n        /* \"contracts/Balances_flattened.sol\":10600:10625  authorizedBuyersBackupMap */\n      0x06\n        /* \"contracts/Balances_flattened.sol\":10600:10632  authorizedBuyersBackupMap[buyer] */\n      0x20\n      mstore\n      0x40\n      dup2\n      keccak256\n        /* \"contracts/Balances_flattened.sol\":10600:10639  authorizedBuyersBackupMap[buyer] = true */\n      dup1\n      sload\n      not(0xff)\n      and\n        /* \"contracts/Balances_flattened.sol\":10635:10639  true */\n      0x01\n        /* \"contracts/Balances_flattened.sol\":10600:10639  authorizedBuyersBackupMap[buyer] = true */\n      swap1\n      dup2\n      or\n      swap1\n      swap2\n      sstore\n        /* \"contracts/Balances_flattened.sol\":10653:10679  authorizedBuyersBackupList */\n      0x07\n        /* \"contracts/Balances_flattened.sol\":10653:10691  authorizedBuyersBackupList.push(buyer) */\n      dup1\n      sload\n      swap2\n      dup3\n      add\n      dup2\n      sstore\n      swap1\n      swap2\n      mstore\n      0xa66cc928b5edb82af9bd49922954155ab7b0942694bea4ce44661d9a8736c688\n      add\n      dup1\n      sload\n      not(sub(shl(0xa0, 0x01), 0x01))\n      and\n      swap1\n      swap2\n      or\n      swap1\n      sstore\n        /* \"contracts/Balances_flattened.sol\":10547:10702  if (!authorizedBuyersBackupMap[buyer]) {... */\n    tag_234:\n        /* \"contracts/Balances_flattened.sol\":10445:11267  if (_status) {... */\n      jump(tag_237)\n    tag_233:\n      sub(shl(0xa0, 0x01), 0x01)\n        /* \"contracts/Balances_flattened.sol\":10790:10822  authorizedBuyersBackupMap[buyer] */\n      dup3\n      and\n      0x00\n      swap1\n      dup2\n      mstore\n        /* \"contracts/Balances_flattened.sol\":10790:10815  authorizedBuyersBackupMap */\n      0x06\n        /* \"contracts/Balances_flattened.sol\":10790:10822  authorizedBuyersBackupMap[buyer] */\n      0x20\n      mstore\n      0x40\n      swap1\n      keccak256\n      sload\n      0xff\n      and\n        /* \"contracts/Balances_flattened.sol\":10786:11261  if (authorizedBuyersBackupMap[buyer]) {... */\n      iszero\n      tag_237\n      jumpi\n      sub(shl(0xa0, 0x01), 0x01)\n        /* \"contracts/Balances_flattened.sol\":10838:10870  authorizedBuyersBackupMap[buyer] */\n      dup3\n      and\n        /* \"contracts/Balances_flattened.sol\":10873:10878  false */\n      0x00\n        /* \"contracts/Balances_flattened.sol\":10838:10870  authorizedBuyersBackupMap[buyer] */\n      swap1\n      dup2\n      mstore\n        /* \"contracts/Balances_flattened.sol\":10838:10863  authorizedBuyersBackupMap */\n      0x06\n        /* \"contracts/Balances_flattened.sol\":10838:10870  authorizedBuyersBackupMap[buyer] */\n      0x20\n      mstore\n      0x40\n      dup2\n      keccak256\n        /* \"contracts/Balances_flattened.sol\":10838:10878  authorizedBuyersBackupMap[buyer] = false */\n      dup1\n      sload\n      not(0xff)\n      and\n      swap1\n      sstore\n        /* \"contracts/Balances_flattened.sol\":10892:11251  for (uint256 i = 0; i < authorizedBuyersBackupList.length; i++) {... */\n    tag_238:\n        /* \"contracts/Balances_flattened.sol\":10916:10942  authorizedBuyersBackupList */\n      0x07\n        /* \"contracts/Balances_flattened.sol\":10916:10949  authorizedBuyersBackupList.length */\n      sload\n        /* \"contracts/Balances_flattened.sol\":10912:10949  i < authorizedBuyersBackupList.length */\n      dup2\n      lt\n        /* \"contracts/Balances_flattened.sol\":10892:11251  for (uint256 i = 0; i < authorizedBuyersBackupList.length; i++) {... */\n      iszero\n      tag_239\n      jumpi\n        /* \"contracts/Balances_flattened.sol\":11011:11016  buyer */\n      dup3\n      sub(shl(0xa0, 0x01), 0x01)\n        /* \"contracts/Balances_flattened.sol\":10978:11016  authorizedBuyersBackupList[i] == buyer */\n      and\n        /* \"contracts/Balances_flattened.sol\":10978:11004  authorizedBuyersBackupList */\n      0x07\n        /* \"contracts/Balances_flattened.sol\":11005:11006  i */\n      dup3\n        /* \"contracts/Balances_flattened.sol\":10978:11007  authorizedBuyersBackupList[i] */\n      dup2\n      sload\n      dup2\n      lt\n      tag_242\n      jumpi\n      tag_242\n      tag_150\n      jump\t// in\n    tag_242:\n      0x00\n      swap2\n      dup3\n      mstore\n      0x20\n      swap1\n      swap2\n      keccak256\n      add\n      sload\n      sub(shl(0xa0, 0x01), 0x01)\n      and\n        /* \"contracts/Balances_flattened.sol\":10978:11016  authorizedBuyersBackupList[i] == buyer */\n      sub\n        /* \"contracts/Balances_flattened.sol\":10974:11237  if (authorizedBuyersBackupList[i] == buyer) {... */\n      tag_244\n      jumpi\n        /* \"contracts/Balances_flattened.sol\":11072:11098  authorizedBuyersBackupList */\n      0x07\n        /* \"contracts/Balances_flattened.sol\":11099:11132  authorizedBuyersBackupList.length */\n      dup1\n      sload\n        /* \"contracts/Balances_flattened.sol\":11099:11136  authorizedBuyersBackupList.length - 1 */\n      tag_245\n      swap1\n        /* \"contracts/Balances_flattened.sol\":11135:11136  1 */\n      0x01\n      swap1\n        /* \"contracts/Balances_flattened.sol\":11099:11136  authorizedBuyersBackupList.length - 1 */\n      tag_246\n      jump\t// in\n    tag_245:\n        /* \"contracts/Balances_flattened.sol\":11072:11137  authorizedBuyersBackupList[authorizedBuyersBackupList.length - 1] */\n      dup2\n      sload\n      dup2\n      lt\n      tag_248\n      jumpi\n      tag_248\n      tag_150\n      jump\t// in\n    tag_248:\n      0x00\n      swap2\n      dup3\n      mstore\n      0x20\n      swap1\n      swap2\n      keccak256\n      add\n      sload\n        /* \"contracts/Balances_flattened.sol\":11040:11066  authorizedBuyersBackupList */\n      0x07\n        /* \"contracts/Balances_flattened.sol\":11040:11069  authorizedBuyersBackupList[i] */\n      dup1\n      sload\n      sub(shl(0xa0, 0x01), 0x01)\n        /* \"contracts/Balances_flattened.sol\":11072:11137  authorizedBuyersBackupList[authorizedBuyersBackupList.length - 1] */\n      swap1\n      swap3\n      and\n      swap2\n        /* \"contracts/Balances_flattened.sol\":11067:11068  i */\n      dup4\n      swap1\n        /* \"contracts/Balances_flattened.sol\":11040:11069  authorizedBuyersBackupList[i] */\n      dup2\n      lt\n      tag_251\n      jumpi\n      tag_251\n      tag_150\n      jump\t// in\n    tag_251:\n      swap1\n      0x00\n      mstore\n      keccak256(0x00, 0x20)\n      add\n      0x00\n        /* \"contracts/Balances_flattened.sol\":11040:11137  authorizedBuyersBackupList[i] = authorizedBuyersBackupList[authorizedBuyersBackupList.length - 1] */\n      0x0100\n      exp\n      dup2\n      sload\n      dup2\n      sub(shl(0xa0, 0x01), 0x01)\n      mul\n      not\n      and\n      swap1\n      dup4\n      sub(shl(0xa0, 0x01), 0x01)\n      and\n      mul\n      or\n      swap1\n      sstore\n      pop\n        /* \"contracts/Balances_flattened.sol\":11159:11185  authorizedBuyersBackupList */\n      0x07\n        /* \"contracts/Balances_flattened.sol\":11159:11191  authorizedBuyersBackupList.pop() */\n      dup1\n      sload\n      dup1\n      tag_254\n      jumpi\n      tag_254\n      tag_255\n      jump\t// in\n    tag_254:\n      0x00\n      dup3\n      dup2\n      mstore\n      0x20\n      swap1\n      keccak256\n      dup2\n      add\n      not(0x00)\n      swap1\n      dup2\n      add\n      dup1\n      sload\n      not(sub(shl(0xa0, 0x01), 0x01))\n      and\n      swap1\n      sstore\n      add\n      swap1\n      sstore\n        /* \"contracts/Balances_flattened.sol\":11213:11218  break */\n      jump(tag_239)\n        /* \"contracts/Balances_flattened.sol\":10974:11237  if (authorizedBuyersBackupList[i] == buyer) {... */\n    tag_244:\n        /* \"contracts/Balances_flattened.sol\":10951:10954  i++ */\n      0x01\n      add\n        /* \"contracts/Balances_flattened.sol\":10892:11251  for (uint256 i = 0; i < authorizedBuyersBackupList.length; i++) {... */\n      jump(tag_238)\n    tag_239:\n      pop\n        /* \"contracts/Balances_flattened.sol\":10786:11261  if (authorizedBuyersBackupMap[buyer]) {... */\n    tag_237:\n        /* \"contracts/Balances_flattened.sol\":6105:6125  _nonReentrantAfter() */\n      tag_115\n        /* \"contracts/Balances_flattened.sol\":5420:5421  1 */\n      0x01\n        /* \"contracts/Balances_flattened.sol\":6631:6638  _status */\n      0x00\n        /* \"contracts/Balances_flattened.sol\":6631:6652  _status = NOT_ENTERED */\n      sstore\n        /* \"contracts/Balances_flattened.sol\":6451:6659  function _nonReentrantAfter() private {... */\n      jump\n        /* \"contracts/Balances_flattened.sol\":6138:6445  function _nonReentrantBefore() private {... */\n    tag_113:\n        /* \"contracts/Balances_flattened.sol\":5462:5463  2 */\n      0x02\n        /* \"contracts/Balances_flattened.sol\":6265:6272  _status */\n      sload(0x00)\n        /* \"contracts/Balances_flattened.sol\":6265:6283  _status == ENTERED */\n      sub\n        /* \"contracts/Balances_flattened.sol\":6261:6347  if (_status == ENTERED) {... */\n      tag_260\n      jumpi\n        /* \"contracts/Balances_flattened.sol\":6306:6336  ReentrancyGuardReentrantCall() */\n      mload(0x40)\n      shl(0xe0, 0x3ee5aeb5)\n      dup2\n      mstore\n      0x04\n      add\n      mload(0x40)\n      dup1\n      swap2\n      sub\n      swap1\n      revert\n        /* \"contracts/Balances_flattened.sol\":6261:6347  if (_status == ENTERED) {... */\n    tag_260:\n        /* \"contracts/Balances_flattened.sol\":5462:5463  2 */\n      0x02\n        /* \"contracts/Balances_flattened.sol\":6421:6428  _status */\n      0x00\n        /* \"contracts/Balances_flattened.sol\":6421:6438  _status = ENTERED */\n      sstore\n        /* \"contracts/Balances_flattened.sol\":6138:6445  function _nonReentrantBefore() private {... */\n      jump\t// out\n        /* \"contracts/Balances_flattened.sol\":3413:3530  function _unpause() internal virtual whenPaused {... */\n    tag_131:\n        /* \"contracts/Balances_flattened.sol\":2466:2482  _requirePaused() */\n      tag_263\n        /* \"contracts/Balances_flattened.sol\":2466:2480  _requirePaused */\n      tag_264\n        /* \"contracts/Balances_flattened.sol\":2466:2482  _requirePaused() */\n      jump\t// in\n    tag_263:\n        /* \"contracts/Balances_flattened.sol\":3471:3478  _paused */\n      0x01\n        /* \"contracts/Balances_flattened.sol\":3471:3486  _paused = false */\n      dup1\n      sload\n      not(0xff)\n      and\n      swap1\n      sstore\n        /* \"contracts/Balances_flattened.sol\":3501:3523  Unpaused(_msgSender()) */\n      0x5db9ee0a495bf2e6ff9c91a7834c1ba4fdd244a5e8aa4e537bd38aeae4b073aa\n        /* \"contracts/Balances_flattened.sol\":757:767  msg.sender */\n      caller\n        /* \"contracts/Balances_flattened.sol\":3510:3522  _msgSender() */\n    tag_266:\n        /* \"contracts/Balances_flattened.sol\":3501:3523  Unpaused(_msgSender()) */\n      mload(0x40)\n      tag_268\n      swap2\n      swap1\n      tag_52\n      jump\t// in\n    tag_268:\n      mload(0x40)\n      dup1\n      swap2\n      sub\n      swap1\n      log1\n        /* \"contracts/Balances_flattened.sol\":3413:3530  function _unpause() internal virtual whenPaused {... */\n      jump\t// out\n        /* \"contracts/Balances_flattened.sol\":2747:2853  function _requireNotPaused() internal view virtual {... */\n    tag_179:\n        /* \"contracts/Balances_flattened.sol\":2665:2672  _paused */\n      and(0xff, sload(0x01))\n        /* \"contracts/Balances_flattened.sol\":2816:2825  !paused() */\n      iszero\n        /* \"contracts/Balances_flattened.sol\":2808:2846  require(!paused(), \"Pausable: paused\") */\n      tag_132\n      jumpi\n      mload(0x40)\n      shl(0xe5, 0x461bcd)\n      dup2\n      mstore\n        /* \"#utility.yul\":5184:5186   */\n      0x20\n        /* \"contracts/Balances_flattened.sol\":2808:2846  require(!paused(), \"Pausable: paused\") */\n      0x04\n      dup3\n      add\n        /* \"#utility.yul\":5166:5187   */\n      mstore\n        /* \"#utility.yul\":5223:5225   */\n      0x10\n        /* \"#utility.yul\":5203:5221   */\n      0x24\n      dup3\n      add\n        /* \"#utility.yul\":5196:5226   */\n      mstore\n      shl(0x82, 0x14185d5cd8589b194e881c185d5cd959)\n        /* \"#utility.yul\":5242:5260   */\n      0x44\n      dup3\n      add\n        /* \"#utility.yul\":5235:5281   */\n      mstore\n        /* \"#utility.yul\":5298:5316   */\n      0x64\n      add\n        /* \"contracts/Balances_flattened.sol\":2808:2846  require(!paused(), \"Pausable: paused\") */\n      tag_109\n        /* \"#utility.yul\":4982:5322   */\n      jump\n        /* \"contracts/Balances_flattened.sol\":3166:3281  function _pause() internal virtual whenNotPaused {... */\n    tag_187:\n        /* \"contracts/Balances_flattened.sol\":2219:2238  _requireNotPaused() */\n      tag_275\n        /* \"contracts/Balances_flattened.sol\":2219:2236  _requireNotPaused */\n      tag_179\n        /* \"contracts/Balances_flattened.sol\":2219:2238  _requireNotPaused() */\n      jump\t// in\n    tag_275:\n        /* \"contracts/Balances_flattened.sol\":3235:3239  true */\n      0x01\n        /* \"contracts/Balances_flattened.sol\":3225:3239  _paused = true */\n      dup1\n      sload\n      not(0xff)\n      and\n      dup2\n      or\n      swap1\n      sstore\n        /* \"contracts/Balances_flattened.sol\":3254:3274  Paused(_msgSender()) */\n      0x62e78cea01bee320cd4e420270b5ea74000d11b0c9f74754ebdbfc544b05a258\n        /* \"contracts/Balances_flattened.sol\":757:767  msg.sender */\n      caller\n        /* \"contracts/Balances_flattened.sol\":3261:3273  _msgSender() */\n      tag_266\n        /* \"contracts/Balances_flattened.sol\":678:774  function _msgSender() internal view virtual returns (address) {... */\n      jump\n        /* \"contracts/Balances_flattened.sol\":2925:3031  function _requirePaused() internal view virtual {... */\n    tag_264:\n        /* \"contracts/Balances_flattened.sol\":2665:2672  _paused */\n      and(0xff, sload(0x01))\n        /* \"contracts/Balances_flattened.sol\":2983:3024  require(paused(), \"Pausable: not paused\") */\n      tag_132\n      jumpi\n      mload(0x40)\n      shl(0xe5, 0x461bcd)\n      dup2\n      mstore\n        /* \"#utility.yul\":5529:5531   */\n      0x20\n        /* \"contracts/Balances_flattened.sol\":2983:3024  require(paused(), \"Pausable: not paused\") */\n      0x04\n      dup3\n      add\n        /* \"#utility.yul\":5511:5532   */\n      mstore\n        /* \"#utility.yul\":5568:5570   */\n      0x14\n        /* \"#utility.yul\":5548:5566   */\n      0x24\n      dup3\n      add\n        /* \"#utility.yul\":5541:5571   */\n      mstore\n      shl(0x62, 0x14185d5cd8589b194e881b9bdd081c185d5cd959)\n        /* \"#utility.yul\":5587:5605   */\n      0x44\n      dup3\n      add\n        /* \"#utility.yul\":5580:5630   */\n      mstore\n        /* \"#utility.yul\":5647:5665   */\n      0x64\n      add\n        /* \"contracts/Balances_flattened.sol\":2983:3024  require(paused(), \"Pausable: not paused\") */\n      tag_109\n        /* \"#utility.yul\":5327:5671   */\n      jump\n        /* \"#utility.yul\":14:187   */\n    tag_287:\n        /* \"#utility.yul\":82:102   */\n      dup1\n      calldataload\n      sub(shl(0xa0, 0x01), 0x01)\n        /* \"#utility.yul\":131:162   */\n      dup2\n      and\n        /* \"#utility.yul\":121:163   */\n      dup2\n      eq\n        /* \"#utility.yul\":111:181   */\n      tag_290\n      jumpi\n        /* \"#utility.yul\":177:178   */\n      0x00\n        /* \"#utility.yul\":174:175   */\n      0x00\n        /* \"#utility.yul\":167:179   */\n      revert\n        /* \"#utility.yul\":111:181   */\n    tag_290:\n        /* \"#utility.yul\":14:187   */\n      swap2\n      swap1\n      pop\n      jump\t// out\n        /* \"#utility.yul\":192:378   */\n    tag_28:\n        /* \"#utility.yul\":251:257   */\n      0x00\n        /* \"#utility.yul\":304:306   */\n      0x20\n        /* \"#utility.yul\":292:301   */\n      dup3\n        /* \"#utility.yul\":283:290   */\n      dup5\n        /* \"#utility.yul\":279:302   */\n      sub\n        /* \"#utility.yul\":275:307   */\n      slt\n        /* \"#utility.yul\":272:324   */\n      iszero\n      tag_292\n      jumpi\n        /* \"#utility.yul\":320:321   */\n      0x00\n        /* \"#utility.yul\":317:318   */\n      0x00\n        /* \"#utility.yul\":310:322   */\n      revert\n        /* \"#utility.yul\":272:324   */\n    tag_292:\n        /* \"#utility.yul\":343:372   */\n      tag_293\n        /* \"#utility.yul\":362:371   */\n      dup3\n        /* \"#utility.yul\":343:372   */\n      tag_287\n      jump\t// in\n    tag_293:\n        /* \"#utility.yul\":333:372   */\n      swap4\n        /* \"#utility.yul\":192:378   */\n      swap3\n      pop\n      pop\n      pop\n      jump\t// out\n        /* \"#utility.yul\":575:922   */\n    tag_34:\n        /* \"#utility.yul\":640:646   */\n      0x00\n        /* \"#utility.yul\":648:654   */\n      0x00\n        /* \"#utility.yul\":701:703   */\n      0x40\n        /* \"#utility.yul\":689:698   */\n      dup4\n        /* \"#utility.yul\":680:687   */\n      dup6\n        /* \"#utility.yul\":676:699   */\n      sub\n        /* \"#utility.yul\":672:704   */\n      slt\n        /* \"#utility.yul\":669:721   */\n      iszero\n      tag_296\n      jumpi\n        /* \"#utility.yul\":717:718   */\n      0x00\n        /* \"#utility.yul\":714:715   */\n      0x00\n        /* \"#utility.yul\":707:719   */\n      revert\n        /* \"#utility.yul\":669:721   */\n    tag_296:\n        /* \"#utility.yul\":740:769   */\n      tag_297\n        /* \"#utility.yul\":759:768   */\n      dup4\n        /* \"#utility.yul\":740:769   */\n      tag_287\n      jump\t// in\n    tag_297:\n        /* \"#utility.yul\":730:769   */\n      swap2\n      pop\n        /* \"#utility.yul\":819:821   */\n      0x20\n        /* \"#utility.yul\":808:817   */\n      dup4\n        /* \"#utility.yul\":804:822   */\n      add\n        /* \"#utility.yul\":791:823   */\n      calldataload\n        /* \"#utility.yul\":866:871   */\n      dup1\n        /* \"#utility.yul\":859:872   */\n      iszero\n        /* \"#utility.yul\":852:873   */\n      iszero\n        /* \"#utility.yul\":845:850   */\n      dup2\n        /* \"#utility.yul\":842:874   */\n      eq\n        /* \"#utility.yul\":832:892   */\n      tag_298\n      jumpi\n        /* \"#utility.yul\":888:889   */\n      0x00\n        /* \"#utility.yul\":885:886   */\n      0x00\n        /* \"#utility.yul\":878:890   */\n      revert\n        /* \"#utility.yul\":832:892   */\n    tag_298:\n        /* \"#utility.yul\":911:916   */\n      dup1\n        /* \"#utility.yul\":901:916   */\n      swap2\n      pop\n      pop\n        /* \"#utility.yul\":575:922   */\n      swap3\n      pop\n      swap3\n      swap1\n      pop\n      jump\t// out\n        /* \"#utility.yul\":1109:1335   */\n    tag_49:\n        /* \"#utility.yul\":1168:1174   */\n      0x00\n        /* \"#utility.yul\":1221:1223   */\n      0x20\n        /* \"#utility.yul\":1209:1218   */\n      dup3\n        /* \"#utility.yul\":1200:1207   */\n      dup5\n        /* \"#utility.yul\":1196:1219   */\n      sub\n        /* \"#utility.yul\":1192:1224   */\n      slt\n        /* \"#utility.yul\":1189:1241   */\n      iszero\n      tag_301\n      jumpi\n        /* \"#utility.yul\":1237:1238   */\n      0x00\n        /* \"#utility.yul\":1234:1235   */\n      0x00\n        /* \"#utility.yul\":1227:1239   */\n      revert\n        /* \"#utility.yul\":1189:1241   */\n    tag_301:\n      pop\n        /* \"#utility.yul\":1282:1305   */\n      calldataload\n      swap2\n        /* \"#utility.yul\":1109:1335   */\n      swap1\n      pop\n      jump\t// out\n        /* \"#utility.yul\":1340:1543   */\n    tag_52:\n      sub(shl(0xa0, 0x01), 0x01)\n        /* \"#utility.yul\":1504:1536   */\n      swap2\n      swap1\n      swap2\n      and\n        /* \"#utility.yul\":1486:1537   */\n      dup2\n      mstore\n        /* \"#utility.yul\":1474:1476   */\n      0x20\n        /* \"#utility.yul\":1459:1477   */\n      add\n      swap1\n        /* \"#utility.yul\":1340:1543   */\n      jump\t// out\n        /* \"#utility.yul\":1548:2719   */\n    tag_69:\n        /* \"#utility.yul\":1816:1818   */\n      0x40\n        /* \"#utility.yul\":1828:1849   */\n      dup1\n      dup3\n      mstore\n        /* \"#utility.yul\":1898:1911   */\n      dup4\n      mload\n        /* \"#utility.yul\":1801:1819   */\n      swap1\n      dup3\n      add\n        /* \"#utility.yul\":1920:1942   */\n      dup2\n      swap1\n      mstore\n        /* \"#utility.yul\":1768:1772   */\n      0x00\n      swap1\n        /* \"#utility.yul\":2011:2015   */\n      0x20\n        /* \"#utility.yul\":1999:2016   */\n      dup6\n      add\n      swap1\n        /* \"#utility.yul\":1973:1975   */\n      0x60\n        /* \"#utility.yul\":1958:1976   */\n      dup5\n      add\n      swap1\n        /* \"#utility.yul\":1768:1772   */\n      dup4\n        /* \"#utility.yul\":2044:2243   */\n    tag_304:\n        /* \"#utility.yul\":2058:2064   */\n      dup2\n        /* \"#utility.yul\":2055:2056   */\n      dup2\n        /* \"#utility.yul\":2052:2065   */\n      lt\n        /* \"#utility.yul\":2044:2243   */\n      iszero\n      tag_306\n      jumpi\n        /* \"#utility.yul\":2123:2136   */\n      dup4\n      mload\n      sub(shl(0xa0, 0x01), 0x01)\n        /* \"#utility.yul\":2119:2158   */\n      and\n        /* \"#utility.yul\":2107:2159   */\n      dup4\n      mstore\n        /* \"#utility.yul\":2188:2192   */\n      0x20\n        /* \"#utility.yul\":2216:2233   */\n      swap4\n      dup5\n      add\n      swap4\n        /* \"#utility.yul\":2179:2193   */\n      swap1\n      swap3\n      add\n      swap2\n        /* \"#utility.yul\":2155:2156   */\n      0x01\n        /* \"#utility.yul\":2073:2082   */\n      add\n        /* \"#utility.yul\":2044:2243   */\n      jump(tag_304)\n    tag_306:\n      pop\n      pop\n        /* \"#utility.yul\":2281:2300   */\n      dup4\n      dup2\n      sub\n        /* \"#utility.yul\":2274:2278   */\n      0x20\n        /* \"#utility.yul\":2259:2279   */\n      dup1\n      dup7\n      add\n        /* \"#utility.yul\":2252:2301   */\n      swap2\n      swap1\n      swap2\n      mstore\n        /* \"#utility.yul\":2351:2364   */\n      dup6\n      mload\n        /* \"#utility.yul\":2373:2394   */\n      dup1\n      dup4\n      mstore\n        /* \"#utility.yul\":2412:2426   */\n      swap2\n      dup2\n      add\n      swap3\n      pop\n        /* \"#utility.yul\":2451:2468   */\n      dup6\n      add\n      swap1\n        /* \"#utility.yul\":2488:2489   */\n      0x00\n        /* \"#utility.yul\":2498:2691   */\n    tag_307:\n        /* \"#utility.yul\":2514:2522   */\n      dup2\n        /* \"#utility.yul\":2509:2512   */\n      dup2\n        /* \"#utility.yul\":2506:2523   */\n      lt\n        /* \"#utility.yul\":2498:2691   */\n      iszero\n      tag_309\n      jumpi\n        /* \"#utility.yul\":2583:2598   */\n      dup3\n      mload\n        /* \"#utility.yul\":2569:2599   */\n      dup5\n      mstore\n        /* \"#utility.yul\":2632:2636   */\n      0x20\n        /* \"#utility.yul\":2621:2637   */\n      swap4\n      dup5\n      add\n      swap4\n        /* \"#utility.yul\":2662:2681   */\n      swap1\n      swap3\n      add\n      swap2\n        /* \"#utility.yul\":2542:2543   */\n      0x01\n        /* \"#utility.yul\":2533:2544   */\n      add\n        /* \"#utility.yul\":2498:2691   */\n      jump(tag_307)\n    tag_309:\n      pop\n        /* \"#utility.yul\":2708:2713   */\n      swap2\n      swap7\n        /* \"#utility.yul\":1548:2719   */\n      swap6\n      pop\n      pop\n      pop\n      pop\n      pop\n      pop\n      jump\t// out\n        /* \"#utility.yul\":2724:3024   */\n    tag_87:\n        /* \"#utility.yul\":2792:2798   */\n      0x00\n        /* \"#utility.yul\":2800:2806   */\n      0x00\n        /* \"#utility.yul\":2853:2855   */\n      0x40\n        /* \"#utility.yul\":2841:2850   */\n      dup4\n        /* \"#utility.yul\":2832:2839   */\n      dup6\n        /* \"#utility.yul\":2828:2851   */\n      sub\n        /* \"#utility.yul\":2824:2856   */\n      slt\n        /* \"#utility.yul\":2821:2873   */\n      iszero\n      tag_311\n      jumpi\n        /* \"#utility.yul\":2869:2870   */\n      0x00\n        /* \"#utility.yul\":2866:2867   */\n      0x00\n        /* \"#utility.yul\":2859:2871   */\n      revert\n        /* \"#utility.yul\":2821:2873   */\n    tag_311:\n        /* \"#utility.yul\":2892:2921   */\n      tag_312\n        /* \"#utility.yul\":2911:2920   */\n      dup4\n        /* \"#utility.yul\":2892:2921   */\n      tag_287\n      jump\t// in\n    tag_312:\n        /* \"#utility.yul\":2882:2921   */\n      swap5\n        /* \"#utility.yul\":2990:2992   */\n      0x20\n        /* \"#utility.yul\":2975:2993   */\n      swap4\n      swap1\n      swap4\n      add\n        /* \"#utility.yul\":2962:2994   */\n      calldataload\n      swap4\n      pop\n      pop\n      pop\n        /* \"#utility.yul\":2724:3024   */\n      jump\t// out\n        /* \"#utility.yul\":3029:3367   */\n    tag_110:\n        /* \"#utility.yul\":3231:3233   */\n      0x20\n        /* \"#utility.yul\":3213:3234   */\n      dup1\n      dup3\n      mstore\n        /* \"#utility.yul\":3270:3272   */\n      0x0e\n        /* \"#utility.yul\":3250:3268   */\n      swap1\n      dup3\n      add\n        /* \"#utility.yul\":3243:3273   */\n      mstore\n      shl(0x92, 0x139bdd08185d5d1a1bdc9a5e9959)\n        /* \"#utility.yul\":3304:3306   */\n      0x40\n        /* \"#utility.yul\":3289:3307   */\n      dup3\n      add\n        /* \"#utility.yul\":3282:3326   */\n      mstore\n        /* \"#utility.yul\":3358:3360   */\n      0x60\n        /* \"#utility.yul\":3343:3361   */\n      add\n      swap1\n        /* \"#utility.yul\":3029:3367   */\n      jump\t// out\n        /* \"#utility.yul\":3372:3499   */\n    tag_140:\n        /* \"#utility.yul\":3433:3443   */\n      0x4e487b71\n        /* \"#utility.yul\":3428:3431   */\n      0xe0\n        /* \"#utility.yul\":3424:3444   */\n      shl\n        /* \"#utility.yul\":3421:3422   */\n      0x00\n        /* \"#utility.yul\":3414:3445   */\n      mstore\n        /* \"#utility.yul\":3464:3468   */\n      0x41\n        /* \"#utility.yul\":3461:3462   */\n      0x04\n        /* \"#utility.yul\":3454:3469   */\n      mstore\n        /* \"#utility.yul\":3488:3492   */\n      0x24\n        /* \"#utility.yul\":3485:3486   */\n      0x00\n        /* \"#utility.yul\":3478:3493   */\n      revert\n        /* \"#utility.yul\":3504:3631   */\n    tag_150:\n        /* \"#utility.yul\":3565:3575   */\n      0x4e487b71\n        /* \"#utility.yul\":3560:3563   */\n      0xe0\n        /* \"#utility.yul\":3556:3576   */\n      shl\n        /* \"#utility.yul\":3553:3554   */\n      0x00\n        /* \"#utility.yul\":3546:3577   */\n      mstore\n        /* \"#utility.yul\":3596:3600   */\n      0x32\n        /* \"#utility.yul\":3593:3594   */\n      0x04\n        /* \"#utility.yul\":3586:3601   */\n      mstore\n        /* \"#utility.yul\":3620:3624   */\n      0x24\n        /* \"#utility.yul\":3617:3618   */\n      0x00\n        /* \"#utility.yul\":3610:3625   */\n      revert\n        /* \"#utility.yul\":4620:4845   */\n    tag_246:\n        /* \"#utility.yul\":4687:4696   */\n      dup2\n      dup2\n      sub\n        /* \"#utility.yul\":4708:4719   */\n      dup2\n      dup2\n      gt\n        /* \"#utility.yul\":4705:4839   */\n      iszero\n      tag_320\n      jumpi\n        /* \"#utility.yul\":4761:4771   */\n      0x4e487b71\n        /* \"#utility.yul\":4756:4759   */\n      0xe0\n        /* \"#utility.yul\":4752:4772   */\n      shl\n        /* \"#utility.yul\":4749:4750   */\n      0x00\n        /* \"#utility.yul\":4742:4773   */\n      mstore\n        /* \"#utility.yul\":4796:4800   */\n      0x11\n        /* \"#utility.yul\":4793:4794   */\n      0x04\n        /* \"#utility.yul\":4786:4801   */\n      mstore\n        /* \"#utility.yul\":4824:4828   */\n      0x24\n        /* \"#utility.yul\":4821:4822   */\n      0x00\n        /* \"#utility.yul\":4814:4829   */\n      revert\n        /* \"#utility.yul\":4705:4839   */\n    tag_320:\n        /* \"#utility.yul\":4620:4845   */\n      swap3\n      swap2\n      pop\n      pop\n      jump\t// out\n        /* \"#utility.yul\":4850:4977   */\n    tag_255:\n        /* \"#utility.yul\":4911:4921   */\n      0x4e487b71\n        /* \"#utility.yul\":4906:4909   */\n      0xe0\n        /* \"#utility.yul\":4902:4922   */\n      shl\n        /* \"#utility.yul\":4899:4900   */\n      0x00\n        /* \"#utility.yul\":4892:4923   */\n      mstore\n        /* \"#utility.yul\":4942:4946   */\n      0x31\n        /* \"#utility.yul\":4939:4940   */\n      0x04\n        /* \"#utility.yul\":4932:4947   */\n      mstore\n        /* \"#utility.yul\":4966:4970   */\n      0x24\n        /* \"#utility.yul\":4963:4964   */\n      0x00\n        /* \"#utility.yul\":4956:4971   */\n      revert\n\n    auxdata: 0xa264697066735822122070211410ee360e9264b9d7fe062270119a91696c421c20268dd96e67dc69eee064736f6c634300081e0033\n}\n",
				"bytecode": {
					"linkReferences": {},
					"object": "6080604052348015600e575f5ffd5b5060015f818155815460ff19908116835533808352600260205260409092208054909116909217909155600880546001600160a01b0319169091179055610f67806100585f395ff3fe608060405234801561000f575f5ffd5b506004361061011f575f3560e01c806366fdd888116100a557806366fdd8881461023a5780638456cb591461024d578063867e7c27146102555780638da5cb5b1461025d5780639d63b49914610270578063e0b1cccb14610283578063e24b62e014610296578063e30443bc146102b8578063f19e207e146102cb578063f7314bc9146102ed578063f8b2cb4f14610300575f5ffd5b80630e666e49146101235780631351cf511461015a57806313af40351461016f5780631f56c9e31461018257806327e235e314610194578063365b98b2146101b35780633f4ba83a146101d357806346f6c9de146101db578063574b17cd146102065780635c975abb146102195780636348e35d14610224575b5f5ffd5b610145610131366004610d73565b60046020525f908152604090205460ff1681565b60405190151581526020015b60405180910390f35b61016d610168366004610d93565b610328565b005b61016d61017d366004610d73565b610396565b6007545b604051908152602001610151565b6101866101a2366004610d73565b60036020525f908152604090205481565b6101c66101c1366004610dcc565b6103e6565b6040516101519190610de3565b61016d61040e565b6101456101e9366004610d73565b6001600160a01b03165f9081526006602052604090205460ff1690565b6101c6610214366004610dcc565b610457565b60015460ff16610145565b61022c610466565b604051610151929190610df7565b61016d610248366004610d73565b6105d0565b61016d6106bf565b61022c610705565b6008546101c6906001600160a01b031681565b6101c661027e366004610dcc565b610826565b61016d610291366004610e80565b61089c565b6101456102a4366004610d73565b60066020525f908152604090205460ff1681565b61016d6102c6366004610e80565b610967565b6101456102d9366004610d73565b60026020525f908152604090205460ff1681565b61016d6102fb366004610d93565b6109c0565b61018661030e366004610d73565b6001600160a01b03165f9081526003602052604090205490565b335f9081526002602052604090205460ff1661035f5760405162461bcd60e51b815260040161035690610ea8565b60405180910390fd5b610367610c1a565b6001600160a01b0382165f908152600260205260408120805460ff1916831515179055600190555050565b5050565b335f9081526002602052604090205460ff166103c45760405162461bcd60e51b815260040161035690610ea8565b600880546001600160a01b0319166001600160a01b0392909216919091179055565b600581815481106103f5575f80fd5b5f918252602090912001546001600160a01b0316905081565b335f9081526002602052604090205460ff1661043c5760405162461bcd60e51b815260040161035690610ea8565b610444610c1a565b61044c610c42565b61045560015f55565b565b600781815481106103f5575f80fd5b60055460609081905f8167ffffffffffffffff81111561048857610488610ed0565b6040519080825280602002602001820160405280156104b1578160200160208202803683370190505b5090505f8267ffffffffffffffff8111156104ce576104ce610ed0565b6040519080825280602002602001820160405280156104f7578160200160208202803683370190505b5090505f5b838110156105c5576005818154811061051757610517610ee4565b905f5260205f20015f9054906101000a90046001600160a01b031683828151811061054457610544610ee4565b60200260200101906001600160a01b031690816001600160a01b03168152505060035f6005838154811061057a5761057a610ee4565b5f9182526020808320909101546001600160a01b0316835282019290925260400190205482518390839081106105b2576105b2610ee4565b60209081029190910101526001016104fc565b509094909350915050565b335f9081526002602052604090205460ff166105fe5760405162461bcd60e51b815260040161035690610ea8565b610606610c1a565b5f5b6005548110156106b2575f6005828154811061062657610626610ee4565b5f918252602080832091909101546001600160a01b0390811680845260039092526040928390205492516338c110ef60e21b8152600481018390526024810184905291935085169063e30443bc906044015f604051808303815f87803b15801561068e575f5ffd5b505af11580156106a0573d5f5f3e3d5ffd5b50506001909401935061060892505050565b506106bc60015f55565b50565b6106c7610c8e565b335f9081526002602052604090205460ff166106f55760405162461bcd60e51b815260040161035690610ea8565b6106fd610c1a565b61044c610cd4565b60055460609081905f8167ffffffffffffffff81111561072757610727610ed0565b604051908082528060200260200182016040528015610750578160200160208202803683370190505b5090505f5b828110156107be5760035f6005838154811061077357610773610ee4565b5f9182526020808320909101546001600160a01b0316835282019290925260400190205482518390839081106107ab576107ab610ee4565b6020908102919091010152600101610755565b506005818180548060200260200160405190810160405280929190818152602001828054801561081557602002820191905f5260205f20905b81546001600160a01b031681526001909101906020018083116107f7575b505050505091509350935050509091565b6007545f90821061086f5760405162461bcd60e51b8152602060048201526013602482015272496e646578206f7574206f6620626f756e647360681b6044820152606401610356565b6007828154811061088257610882610ee4565b5f918252602090912001546001600160a01b031692915050565b335f9081526002602052604090205460ff166108ca5760405162461bcd60e51b815260040161035690610ea8565b6001600160a01b0382165f9081526004602052604090205460ff1661094c576005805460018082019092557f036b6384b5eca791c62761152d0c79bb0604c104a5fb6f4eb0703f3154bb3db00180546001600160a01b0319166001600160a01b0385169081179091555f908152600460205260409020805460ff191690911790555b6001600160a01b039091165f90815260036020526040902055565b335f9081526002602052604090205460ff166109955760405162461bcd60e51b815260040161035690610ea8565b61099d610c1a565b6001600160a01b0382165f90815260036020526040902081905561039260015f55565b335f9081526002602052604090205460ff166109ee5760405162461bcd60e51b815260040161035690610ea8565b6109f6610c1a565b6001600160a01b038216610a4c5760405162461bcd60e51b815260206004820152601c60248201527f427579657220616464726573732063616e6e6f74206265207a65726f000000006044820152606401610356565b8015610adb576001600160a01b0382165f9081526006602052604090205460ff16610ad6576001600160a01b0382165f818152600660205260408120805460ff191660019081179091556007805491820181559091527fa66cc928b5edb82af9bd49922954155ab7b0942694bea4ce44661d9a8736c6880180546001600160a01b03191690911790555b610c11565b6001600160a01b0382165f9081526006602052604090205460ff1615610c11576001600160a01b0382165f908152600660205260408120805460ff191690555b600754811015610c0f57826001600160a01b031660078281548110610b4257610b42610ee4565b5f918252602090912001546001600160a01b031603610c075760078054610b6b90600190610ef8565b81548110610b7b57610b7b610ee4565b5f91825260209091200154600780546001600160a01b039092169183908110610ba657610ba6610ee4565b905f5260205f20015f6101000a8154816001600160a01b0302191690836001600160a01b031602179055506007805480610be257610be2610f1d565b5f8281526020902081015f1990810180546001600160a01b0319169055019055610c0f565b600101610b1b565b505b61039260015f55565b60025f5403610c3c57604051633ee5aeb560e01b815260040160405180910390fd5b60025f55565b610c4a610d0f565b6001805460ff191690557f5db9ee0a495bf2e6ff9c91a7834c1ba4fdd244a5e8aa4e537bd38aeae4b073aa335b604051610c849190610de3565b60405180910390a1565b60015460ff16156104555760405162461bcd60e51b815260206004820152601060248201526f14185d5cd8589b194e881c185d5cd95960821b6044820152606401610356565b610cdc610c8e565b6001805460ff1916811790557f62e78cea01bee320cd4e420270b5ea74000d11b0c9f74754ebdbfc544b05a25833610c77565b60015460ff166104555760405162461bcd60e51b815260206004820152601460248201527314185d5cd8589b194e881b9bdd081c185d5cd95960621b6044820152606401610356565b80356001600160a01b0381168114610d6e575f5ffd5b919050565b5f60208284031215610d83575f5ffd5b610d8c82610d58565b9392505050565b5f5f60408385031215610da4575f5ffd5b610dad83610d58565b915060208301358015158114610dc1575f5ffd5b809150509250929050565b5f60208284031215610ddc575f5ffd5b5035919050565b6001600160a01b0391909116815260200190565b604080825283519082018190525f9060208501906060840190835b81811015610e395783516001600160a01b0316835260209384019390920191600101610e12565b5050838103602080860191909152855180835291810192508501905f5b81811015610e74578251845260209384019390920191600101610e56565b50919695505050505050565b5f5f60408385031215610e91575f5ffd5b610e9a83610d58565b946020939093013593505050565b6020808252600e908201526d139bdd08185d5d1a1bdc9a5e995960921b604082015260600190565b634e487b7160e01b5f52604160045260245ffd5b634e487b7160e01b5f52603260045260245ffd5b81810381811115610f1757634e487b7160e01b5f52601160045260245ffd5b92915050565b634e487b7160e01b5f52603160045260245ffdfea264697066735822122070211410ee360e9264b9d7fe062270119a91696c421c20268dd96e67dc69eee064736f6c634300081e0033",
					"opcodes": "PUSH1 0x80 PUSH1 0x40 MSTORE CALLVALUE DUP1 ISZERO PUSH1 0xE JUMPI PUSH0 PUSH0 REVERT JUMPDEST POP PUSH1 0x1 PUSH0 DUP2 DUP2 SSTORE DUP2 SLOAD PUSH1 0xFF NOT SWAP1 DUP2 AND DUP4 SSTORE CALLER DUP1 DUP4 MSTORE PUSH1 0x2 PUSH1 0x20 MSTORE PUSH1 0x40 SWAP1 SWAP3 KECCAK256 DUP1 SLOAD SWAP1 SWAP2 AND SWAP1 SWAP3 OR SWAP1 SWAP2 SSTORE PUSH1 0x8 DUP1 SLOAD PUSH1 0x1 PUSH1 0x1 PUSH1 0xA0 SHL SUB NOT AND SWAP1 SWAP2 OR SWAP1 SSTORE PUSH2 0xF67 DUP1 PUSH2 0x58 PUSH0 CODECOPY PUSH0 RETURN INVALID PUSH1 0x80 PUSH1 0x40 MSTORE CALLVALUE DUP1 ISZERO PUSH2 0xF JUMPI PUSH0 PUSH0 REVERT JUMPDEST POP PUSH1 0x4 CALLDATASIZE LT PUSH2 0x11F JUMPI PUSH0 CALLDATALOAD PUSH1 0xE0 SHR DUP1 PUSH4 0x66FDD888 GT PUSH2 0xA5 JUMPI DUP1 PUSH4 0x66FDD888 EQ PUSH2 0x23A JUMPI DUP1 PUSH4 0x8456CB59 EQ PUSH2 0x24D JUMPI DUP1 PUSH4 0x867E7C27 EQ PUSH2 0x255 JUMPI DUP1 PUSH4 0x8DA5CB5B EQ PUSH2 0x25D JUMPI DUP1 PUSH4 0x9D63B499 EQ PUSH2 0x270 JUMPI DUP1 PUSH4 0xE0B1CCCB EQ PUSH2 0x283 JUMPI DUP1 PUSH4 0xE24B62E0 EQ PUSH2 0x296 JUMPI DUP1 PUSH4 0xE30443BC EQ PUSH2 0x2B8 JUMPI DUP1 PUSH4 0xF19E207E EQ PUSH2 0x2CB JUMPI DUP1 PUSH4 0xF7314BC9 EQ PUSH2 0x2ED JUMPI DUP1 PUSH4 0xF8B2CB4F EQ PUSH2 0x300 JUMPI PUSH0 PUSH0 REVERT JUMPDEST DUP1 PUSH4 0xE666E49 EQ PUSH2 0x123 JUMPI DUP1 PUSH4 0x1351CF51 EQ PUSH2 0x15A JUMPI DUP1 PUSH4 0x13AF4035 EQ PUSH2 0x16F JUMPI DUP1 PUSH4 0x1F56C9E3 EQ PUSH2 0x182 JUMPI DUP1 PUSH4 0x27E235E3 EQ PUSH2 0x194 JUMPI DUP1 PUSH4 0x365B98B2 EQ PUSH2 0x1B3 JUMPI DUP1 PUSH4 0x3F4BA83A EQ PUSH2 0x1D3 JUMPI DUP1 PUSH4 0x46F6C9DE EQ PUSH2 0x1DB JUMPI DUP1 PUSH4 0x574B17CD EQ PUSH2 0x206 JUMPI DUP1 PUSH4 0x5C975ABB EQ PUSH2 0x219 JUMPI DUP1 PUSH4 0x6348E35D EQ PUSH2 0x224 JUMPI JUMPDEST PUSH0 PUSH0 REVERT JUMPDEST PUSH2 0x145 PUSH2 0x131 CALLDATASIZE PUSH1 0x4 PUSH2 0xD73 JUMP JUMPDEST PUSH1 0x4 PUSH1 0x20 MSTORE PUSH0 SWAP1 DUP2 MSTORE PUSH1 0x40 SWAP1 KECCAK256 SLOAD PUSH1 0xFF AND DUP2 JUMP JUMPDEST PUSH1 0x40 MLOAD SWAP1 ISZERO ISZERO DUP2 MSTORE PUSH1 0x20 ADD JUMPDEST PUSH1 0x40 MLOAD DUP1 SWAP2 SUB SWAP1 RETURN JUMPDEST PUSH2 0x16D PUSH2 0x168 CALLDATASIZE PUSH1 0x4 PUSH2 0xD93 JUMP JUMPDEST PUSH2 0x328 JUMP JUMPDEST STOP JUMPDEST PUSH2 0x16D PUSH2 0x17D CALLDATASIZE PUSH1 0x4 PUSH2 0xD73 JUMP JUMPDEST PUSH2 0x396 JUMP JUMPDEST PUSH1 0x7 SLOAD JUMPDEST PUSH1 0x40 MLOAD SWAP1 DUP2 MSTORE PUSH1 0x20 ADD PUSH2 0x151 JUMP JUMPDEST PUSH2 0x186 PUSH2 0x1A2 CALLDATASIZE PUSH1 0x4 PUSH2 0xD73 JUMP JUMPDEST PUSH1 0x3 PUSH1 0x20 MSTORE PUSH0 SWAP1 DUP2 MSTORE PUSH1 0x40 SWAP1 KECCAK256 SLOAD DUP2 JUMP JUMPDEST PUSH2 0x1C6 PUSH2 0x1C1 CALLDATASIZE PUSH1 0x4 PUSH2 0xDCC JUMP JUMPDEST PUSH2 0x3E6 JUMP JUMPDEST PUSH1 0x40 MLOAD PUSH2 0x151 SWAP2 SWAP1 PUSH2 0xDE3 JUMP JUMPDEST PUSH2 0x16D PUSH2 0x40E JUMP JUMPDEST PUSH2 0x145 PUSH2 0x1E9 CALLDATASIZE PUSH1 0x4 PUSH2 0xD73 JUMP JUMPDEST PUSH1 0x1 PUSH1 0x1 PUSH1 0xA0 SHL SUB AND PUSH0 SWAP1 DUP2 MSTORE PUSH1 0x6 PUSH1 0x20 MSTORE PUSH1 0x40 SWAP1 KECCAK256 SLOAD PUSH1 0xFF AND SWAP1 JUMP JUMPDEST PUSH2 0x1C6 PUSH2 0x214 CALLDATASIZE PUSH1 0x4 PUSH2 0xDCC JUMP JUMPDEST PUSH2 0x457 JUMP JUMPDEST PUSH1 0x1 SLOAD PUSH1 0xFF AND PUSH2 0x145 JUMP JUMPDEST PUSH2 0x22C PUSH2 0x466 JUMP JUMPDEST PUSH1 0x40 MLOAD PUSH2 0x151 SWAP3 SWAP2 SWAP1 PUSH2 0xDF7 JUMP JUMPDEST PUSH2 0x16D PUSH2 0x248 CALLDATASIZE PUSH1 0x4 PUSH2 0xD73 JUMP JUMPDEST PUSH2 0x5D0 JUMP JUMPDEST PUSH2 0x16D PUSH2 0x6BF JUMP JUMPDEST PUSH2 0x22C PUSH2 0x705 JUMP JUMPDEST PUSH1 0x8 SLOAD PUSH2 0x1C6 SWAP1 PUSH1 0x1 PUSH1 0x1 PUSH1 0xA0 SHL SUB AND DUP2 JUMP JUMPDEST PUSH2 0x1C6 PUSH2 0x27E CALLDATASIZE PUSH1 0x4 PUSH2 0xDCC JUMP JUMPDEST PUSH2 0x826 JUMP JUMPDEST PUSH2 0x16D PUSH2 0x291 CALLDATASIZE PUSH1 0x4 PUSH2 0xE80 JUMP JUMPDEST PUSH2 0x89C JUMP JUMPDEST PUSH2 0x145 PUSH2 0x2A4 CALLDATASIZE PUSH1 0x4 PUSH2 0xD73 JUMP JUMPDEST PUSH1 0x6 PUSH1 0x20 MSTORE PUSH0 SWAP1 DUP2 MSTORE PUSH1 0x40 SWAP1 KECCAK256 SLOAD PUSH1 0xFF AND DUP2 JUMP JUMPDEST PUSH2 0x16D PUSH2 0x2C6 CALLDATASIZE PUSH1 0x4 PUSH2 0xE80 JUMP JUMPDEST PUSH2 0x967 JUMP JUMPDEST PUSH2 0x145 PUSH2 0x2D9 CALLDATASIZE PUSH1 0x4 PUSH2 0xD73 JUMP JUMPDEST PUSH1 0x2 PUSH1 0x20 MSTORE PUSH0 SWAP1 DUP2 MSTORE PUSH1 0x40 SWAP1 KECCAK256 SLOAD PUSH1 0xFF AND DUP2 JUMP JUMPDEST PUSH2 0x16D PUSH2 0x2FB CALLDATASIZE PUSH1 0x4 PUSH2 0xD93 JUMP JUMPDEST PUSH2 0x9C0 JUMP JUMPDEST PUSH2 0x186 PUSH2 0x30E CALLDATASIZE PUSH1 0x4 PUSH2 0xD73 JUMP JUMPDEST PUSH1 0x1 PUSH1 0x1 PUSH1 0xA0 SHL SUB AND PUSH0 SWAP1 DUP2 MSTORE PUSH1 0x3 PUSH1 0x20 MSTORE PUSH1 0x40 SWAP1 KECCAK256 SLOAD SWAP1 JUMP JUMPDEST CALLER PUSH0 SWAP1 DUP2 MSTORE PUSH1 0x2 PUSH1 0x20 MSTORE PUSH1 0x40 SWAP1 KECCAK256 SLOAD PUSH1 0xFF AND PUSH2 0x35F JUMPI PUSH1 0x40 MLOAD PUSH3 0x461BCD PUSH1 0xE5 SHL DUP2 MSTORE PUSH1 0x4 ADD PUSH2 0x356 SWAP1 PUSH2 0xEA8 JUMP JUMPDEST PUSH1 0x40 MLOAD DUP1 SWAP2 SUB SWAP1 REVERT JUMPDEST PUSH2 0x367 PUSH2 0xC1A JUMP JUMPDEST PUSH1 0x1 PUSH1 0x1 PUSH1 0xA0 SHL SUB DUP3 AND PUSH0 SWAP1 DUP2 MSTORE PUSH1 0x2 PUSH1 0x20 MSTORE PUSH1 0x40 DUP2 KECCAK256 DUP1 SLOAD PUSH1 0xFF NOT AND DUP4 ISZERO ISZERO OR SWAP1 SSTORE PUSH1 0x1 SWAP1 SSTORE POP POP JUMP JUMPDEST POP POP JUMP JUMPDEST CALLER PUSH0 SWAP1 DUP2 MSTORE PUSH1 0x2 PUSH1 0x20 MSTORE PUSH1 0x40 SWAP1 KECCAK256 SLOAD PUSH1 0xFF AND PUSH2 0x3C4 JUMPI PUSH1 0x40 MLOAD PUSH3 0x461BCD PUSH1 0xE5 SHL DUP2 MSTORE PUSH1 0x4 ADD PUSH2 0x356 SWAP1 PUSH2 0xEA8 JUMP JUMPDEST PUSH1 0x8 DUP1 SLOAD PUSH1 0x1 PUSH1 0x1 PUSH1 0xA0 SHL SUB NOT AND PUSH1 0x1 PUSH1 0x1 PUSH1 0xA0 SHL SUB SWAP3 SWAP1 SWAP3 AND SWAP2 SWAP1 SWAP2 OR SWAP1 SSTORE JUMP JUMPDEST PUSH1 0x5 DUP2 DUP2 SLOAD DUP2 LT PUSH2 0x3F5 JUMPI PUSH0 DUP1 REVERT JUMPDEST PUSH0 SWAP2 DUP3 MSTORE PUSH1 0x20 SWAP1 SWAP2 KECCAK256 ADD SLOAD PUSH1 0x1 PUSH1 0x1 PUSH1 0xA0 SHL SUB AND SWAP1 POP DUP2 JUMP JUMPDEST CALLER PUSH0 SWAP1 DUP2 MSTORE PUSH1 0x2 PUSH1 0x20 MSTORE PUSH1 0x40 SWAP1 KECCAK256 SLOAD PUSH1 0xFF AND PUSH2 0x43C JUMPI PUSH1 0x40 MLOAD PUSH3 0x461BCD PUSH1 0xE5 SHL DUP2 MSTORE PUSH1 0x4 ADD PUSH2 0x356 SWAP1 PUSH2 0xEA8 JUMP JUMPDEST PUSH2 0x444 PUSH2 0xC1A JUMP JUMPDEST PUSH2 0x44C PUSH2 0xC42 JUMP JUMPDEST PUSH2 0x455 PUSH1 0x1 PUSH0 SSTORE JUMP JUMPDEST JUMP JUMPDEST PUSH1 0x7 DUP2 DUP2 SLOAD DUP2 LT PUSH2 0x3F5 JUMPI PUSH0 DUP1 REVERT JUMPDEST PUSH1 0x5 SLOAD PUSH1 0x60 SWAP1 DUP2 SWAP1 PUSH0 DUP2 PUSH8 0xFFFFFFFFFFFFFFFF DUP2 GT ISZERO PUSH2 0x488 JUMPI PUSH2 0x488 PUSH2 0xED0 JUMP JUMPDEST PUSH1 0x40 MLOAD SWAP1 DUP1 DUP3 MSTORE DUP1 PUSH1 0x20 MUL PUSH1 0x20 ADD DUP3 ADD PUSH1 0x40 MSTORE DUP1 ISZERO PUSH2 0x4B1 JUMPI DUP2 PUSH1 0x20 ADD PUSH1 0x20 DUP3 MUL DUP1 CALLDATASIZE DUP4 CALLDATACOPY ADD SWAP1 POP JUMPDEST POP SWAP1 POP PUSH0 DUP3 PUSH8 0xFFFFFFFFFFFFFFFF DUP2 GT ISZERO PUSH2 0x4CE JUMPI PUSH2 0x4CE PUSH2 0xED0 JUMP JUMPDEST PUSH1 0x40 MLOAD SWAP1 DUP1 DUP3 MSTORE DUP1 PUSH1 0x20 MUL PUSH1 0x20 ADD DUP3 ADD PUSH1 0x40 MSTORE DUP1 ISZERO PUSH2 0x4F7 JUMPI DUP2 PUSH1 0x20 ADD PUSH1 0x20 DUP3 MUL DUP1 CALLDATASIZE DUP4 CALLDATACOPY ADD SWAP1 POP JUMPDEST POP SWAP1 POP PUSH0 JUMPDEST DUP4 DUP2 LT ISZERO PUSH2 0x5C5 JUMPI PUSH1 0x5 DUP2 DUP2 SLOAD DUP2 LT PUSH2 0x517 JUMPI PUSH2 0x517 PUSH2 0xEE4 JUMP JUMPDEST SWAP1 PUSH0 MSTORE PUSH1 0x20 PUSH0 KECCAK256 ADD PUSH0 SWAP1 SLOAD SWAP1 PUSH2 0x100 EXP SWAP1 DIV PUSH1 0x1 PUSH1 0x1 PUSH1 0xA0 SHL SUB AND DUP4 DUP3 DUP2 MLOAD DUP2 LT PUSH2 0x544 JUMPI PUSH2 0x544 PUSH2 0xEE4 JUMP JUMPDEST PUSH1 0x20 MUL PUSH1 0x20 ADD ADD SWAP1 PUSH1 0x1 PUSH1 0x1 PUSH1 0xA0 SHL SUB AND SWAP1 DUP2 PUSH1 0x1 PUSH1 0x1 PUSH1 0xA0 SHL SUB AND DUP2 MSTORE POP POP PUSH1 0x3 PUSH0 PUSH1 0x5 DUP4 DUP2 SLOAD DUP2 LT PUSH2 0x57A JUMPI PUSH2 0x57A PUSH2 0xEE4 JUMP JUMPDEST PUSH0 SWAP2 DUP3 MSTORE PUSH1 0x20 DUP1 DUP4 KECCAK256 SWAP1 SWAP2 ADD SLOAD PUSH1 0x1 PUSH1 0x1 PUSH1 0xA0 SHL SUB AND DUP4 MSTORE DUP3 ADD SWAP3 SWAP1 SWAP3 MSTORE PUSH1 0x40 ADD SWAP1 KECCAK256 SLOAD DUP3 MLOAD DUP4 SWAP1 DUP4 SWAP1 DUP2 LT PUSH2 0x5B2 JUMPI PUSH2 0x5B2 PUSH2 0xEE4 JUMP JUMPDEST PUSH1 0x20 SWAP1 DUP2 MUL SWAP2 SWAP1 SWAP2 ADD ADD MSTORE PUSH1 0x1 ADD PUSH2 0x4FC JUMP JUMPDEST POP SWAP1 SWAP5 SWAP1 SWAP4 POP SWAP2 POP POP JUMP JUMPDEST CALLER PUSH0 SWAP1 DUP2 MSTORE PUSH1 0x2 PUSH1 0x20 MSTORE PUSH1 0x40 SWAP1 KECCAK256 SLOAD PUSH1 0xFF AND PUSH2 0x5FE JUMPI PUSH1 0x40 MLOAD PUSH3 0x461BCD PUSH1 0xE5 SHL DUP2 MSTORE PUSH1 0x4 ADD PUSH2 0x356 SWAP1 PUSH2 0xEA8 JUMP JUMPDEST PUSH2 0x606 PUSH2 0xC1A JUMP JUMPDEST PUSH0 JUMPDEST PUSH1 0x5 SLOAD DUP2 LT ISZERO PUSH2 0x6B2 JUMPI PUSH0 PUSH1 0x5 DUP3 DUP2 SLOAD DUP2 LT PUSH2 0x626 JUMPI PUSH2 0x626 PUSH2 0xEE4 JUMP JUMPDEST PUSH0 SWAP2 DUP3 MSTORE PUSH1 0x20 DUP1 DUP4 KECCAK256 SWAP2 SWAP1 SWAP2 ADD SLOAD PUSH1 0x1 PUSH1 0x1 PUSH1 0xA0 SHL SUB SWAP1 DUP2 AND DUP1 DUP5 MSTORE PUSH1 0x3 SWAP1 SWAP3 MSTORE PUSH1 0x40 SWAP3 DUP4 SWAP1 KECCAK256 SLOAD SWAP3 MLOAD PUSH4 0x38C110EF PUSH1 0xE2 SHL DUP2 MSTORE PUSH1 0x4 DUP2 ADD DUP4 SWAP1 MSTORE PUSH1 0x24 DUP2 ADD DUP5 SWAP1 MSTORE SWAP2 SWAP4 POP DUP6 AND SWAP1 PUSH4 0xE30443BC SWAP1 PUSH1 0x44 ADD PUSH0 PUSH1 0x40 MLOAD DUP1 DUP4 SUB DUP2 PUSH0 DUP8 DUP1 EXTCODESIZE ISZERO DUP1 ISZERO PUSH2 0x68E JUMPI PUSH0 PUSH0 REVERT JUMPDEST POP GAS CALL ISZERO DUP1 ISZERO PUSH2 0x6A0 JUMPI RETURNDATASIZE PUSH0 PUSH0 RETURNDATACOPY RETURNDATASIZE PUSH0 REVERT JUMPDEST POP POP PUSH1 0x1 SWAP1 SWAP5 ADD SWAP4 POP PUSH2 0x608 SWAP3 POP POP POP JUMP JUMPDEST POP PUSH2 0x6BC PUSH1 0x1 PUSH0 SSTORE JUMP JUMPDEST POP JUMP JUMPDEST PUSH2 0x6C7 PUSH2 0xC8E JUMP JUMPDEST CALLER PUSH0 SWAP1 DUP2 MSTORE PUSH1 0x2 PUSH1 0x20 MSTORE PUSH1 0x40 SWAP1 KECCAK256 SLOAD PUSH1 0xFF AND PUSH2 0x6F5 JUMPI PUSH1 0x40 MLOAD PUSH3 0x461BCD PUSH1 0xE5 SHL DUP2 MSTORE PUSH1 0x4 ADD PUSH2 0x356 SWAP1 PUSH2 0xEA8 JUMP JUMPDEST PUSH2 0x6FD PUSH2 0xC1A JUMP JUMPDEST PUSH2 0x44C PUSH2 0xCD4 JUMP JUMPDEST PUSH1 0x5 SLOAD PUSH1 0x60 SWAP1 DUP2 SWAP1 PUSH0 DUP2 PUSH8 0xFFFFFFFFFFFFFFFF DUP2 GT ISZERO PUSH2 0x727 JUMPI PUSH2 0x727 PUSH2 0xED0 JUMP JUMPDEST PUSH1 0x40 MLOAD SWAP1 DUP1 DUP3 MSTORE DUP1 PUSH1 0x20 MUL PUSH1 0x20 ADD DUP3 ADD PUSH1 0x40 MSTORE DUP1 ISZERO PUSH2 0x750 JUMPI DUP2 PUSH1 0x20 ADD PUSH1 0x20 DUP3 MUL DUP1 CALLDATASIZE DUP4 CALLDATACOPY ADD SWAP1 POP JUMPDEST POP SWAP1 POP PUSH0 JUMPDEST DUP3 DUP2 LT ISZERO PUSH2 0x7BE JUMPI PUSH1 0x3 PUSH0 PUSH1 0x5 DUP4 DUP2 SLOAD DUP2 LT PUSH2 0x773 JUMPI PUSH2 0x773 PUSH2 0xEE4 JUMP JUMPDEST PUSH0 SWAP2 DUP3 MSTORE PUSH1 0x20 DUP1 DUP4 KECCAK256 SWAP1 SWAP2 ADD SLOAD PUSH1 0x1 PUSH1 0x1 PUSH1 0xA0 SHL SUB AND DUP4 MSTORE DUP3 ADD SWAP3 SWAP1 SWAP3 MSTORE PUSH1 0x40 ADD SWAP1 KECCAK256 SLOAD DUP3 MLOAD DUP4 SWAP1 DUP4 SWAP1 DUP2 LT PUSH2 0x7AB JUMPI PUSH2 0x7AB PUSH2 0xEE4 JUMP JUMPDEST PUSH1 0x20 SWAP1 DUP2 MUL SWAP2 SWAP1 SWAP2 ADD ADD MSTORE PUSH1 0x1 ADD PUSH2 0x755 JUMP JUMPDEST POP PUSH1 0x5 DUP2 DUP2 DUP1 SLOAD DUP1 PUSH1 0x20 MUL PUSH1 0x20 ADD PUSH1 0x40 MLOAD SWAP1 DUP2 ADD PUSH1 0x40 MSTORE DUP1 SWAP3 SWAP2 SWAP1 DUP2 DUP2 MSTORE PUSH1 0x20 ADD DUP3 DUP1 SLOAD DUP1 ISZERO PUSH2 0x815 JUMPI PUSH1 0x20 MUL DUP3 ADD SWAP2 SWAP1 PUSH0 MSTORE PUSH1 0x20 PUSH0 KECCAK256 SWAP1 JUMPDEST DUP2 SLOAD PUSH1 0x1 PUSH1 0x1 PUSH1 0xA0 SHL SUB AND DUP2 MSTORE PUSH1 0x1 SWAP1 SWAP2 ADD SWAP1 PUSH1 0x20 ADD DUP1 DUP4 GT PUSH2 0x7F7 JUMPI JUMPDEST POP POP POP POP POP SWAP2 POP SWAP4 POP SWAP4 POP POP POP SWAP1 SWAP2 JUMP JUMPDEST PUSH1 0x7 SLOAD PUSH0 SWAP1 DUP3 LT PUSH2 0x86F JUMPI PUSH1 0x40 MLOAD PUSH3 0x461BCD PUSH1 0xE5 SHL DUP2 MSTORE PUSH1 0x20 PUSH1 0x4 DUP3 ADD MSTORE PUSH1 0x13 PUSH1 0x24 DUP3 ADD MSTORE PUSH19 0x496E646578206F7574206F6620626F756E6473 PUSH1 0x68 SHL PUSH1 0x44 DUP3 ADD MSTORE PUSH1 0x64 ADD PUSH2 0x356 JUMP JUMPDEST PUSH1 0x7 DUP3 DUP2 SLOAD DUP2 LT PUSH2 0x882 JUMPI PUSH2 0x882 PUSH2 0xEE4 JUMP JUMPDEST PUSH0 SWAP2 DUP3 MSTORE PUSH1 0x20 SWAP1 SWAP2 KECCAK256 ADD SLOAD PUSH1 0x1 PUSH1 0x1 PUSH1 0xA0 SHL SUB AND SWAP3 SWAP2 POP POP JUMP JUMPDEST CALLER PUSH0 SWAP1 DUP2 MSTORE PUSH1 0x2 PUSH1 0x20 MSTORE PUSH1 0x40 SWAP1 KECCAK256 SLOAD PUSH1 0xFF AND PUSH2 0x8CA JUMPI PUSH1 0x40 MLOAD PUSH3 0x461BCD PUSH1 0xE5 SHL DUP2 MSTORE PUSH1 0x4 ADD PUSH2 0x356 SWAP1 PUSH2 0xEA8 JUMP JUMPDEST PUSH1 0x1 PUSH1 0x1 PUSH1 0xA0 SHL SUB DUP3 AND PUSH0 SWAP1 DUP2 MSTORE PUSH1 0x4 PUSH1 0x20 MSTORE PUSH1 0x40 SWAP1 KECCAK256 SLOAD PUSH1 0xFF AND PUSH2 0x94C JUMPI PUSH1 0x5 DUP1 SLOAD PUSH1 0x1 DUP1 DUP3 ADD SWAP1 SWAP3 SSTORE PUSH32 0x36B6384B5ECA791C62761152D0C79BB0604C104A5FB6F4EB0703F3154BB3DB0 ADD DUP1 SLOAD PUSH1 0x1 PUSH1 0x1 PUSH1 0xA0 SHL SUB NOT AND PUSH1 0x1 PUSH1 0x1 PUSH1 0xA0 SHL SUB DUP6 AND SWAP1 DUP2 OR SWAP1 SWAP2 SSTORE PUSH0 SWAP1 DUP2 MSTORE PUSH1 0x4 PUSH1 0x20 MSTORE PUSH1 0x40 SWAP1 KECCAK256 DUP1 SLOAD PUSH1 0xFF NOT AND SWAP1 SWAP2 OR SWAP1 SSTORE JUMPDEST PUSH1 0x1 PUSH1 0x1 PUSH1 0xA0 SHL SUB SWAP1 SWAP2 AND PUSH0 SWAP1 DUP2 MSTORE PUSH1 0x3 PUSH1 0x20 MSTORE PUSH1 0x40 SWAP1 KECCAK256 SSTORE JUMP JUMPDEST CALLER PUSH0 SWAP1 DUP2 MSTORE PUSH1 0x2 PUSH1 0x20 MSTORE PUSH1 0x40 SWAP1 KECCAK256 SLOAD PUSH1 0xFF AND PUSH2 0x995 JUMPI PUSH1 0x40 MLOAD PUSH3 0x461BCD PUSH1 0xE5 SHL DUP2 MSTORE PUSH1 0x4 ADD PUSH2 0x356 SWAP1 PUSH2 0xEA8 JUMP JUMPDEST PUSH2 0x99D PUSH2 0xC1A JUMP JUMPDEST PUSH1 0x1 PUSH1 0x1 PUSH1 0xA0 SHL SUB DUP3 AND PUSH0 SWAP1 DUP2 MSTORE PUSH1 0x3 PUSH1 0x20 MSTORE PUSH1 0x40 SWAP1 KECCAK256 DUP2 SWAP1 SSTORE PUSH2 0x392 PUSH1 0x1 PUSH0 SSTORE JUMP JUMPDEST CALLER PUSH0 SWAP1 DUP2 MSTORE PUSH1 0x2 PUSH1 0x20 MSTORE PUSH1 0x40 SWAP1 KECCAK256 SLOAD PUSH1 0xFF AND PUSH2 0x9EE JUMPI PUSH1 0x40 MLOAD PUSH3 0x461BCD PUSH1 0xE5 SHL DUP2 MSTORE PUSH1 0x4 ADD PUSH2 0x356 SWAP1 PUSH2 0xEA8 JUMP JUMPDEST PUSH2 0x9F6 PUSH2 0xC1A JUMP JUMPDEST PUSH1 0x1 PUSH1 0x1 PUSH1 0xA0 SHL SUB DUP3 AND PUSH2 0xA4C JUMPI PUSH1 0x40 MLOAD PUSH3 0x461BCD PUSH1 0xE5 SHL DUP2 MSTORE PUSH1 0x20 PUSH1 0x4 DUP3 ADD MSTORE PUSH1 0x1C PUSH1 0x24 DUP3 ADD MSTORE PUSH32 0x427579657220616464726573732063616E6E6F74206265207A65726F00000000 PUSH1 0x44 DUP3 ADD MSTORE PUSH1 0x64 ADD PUSH2 0x356 JUMP JUMPDEST DUP1 ISZERO PUSH2 0xADB JUMPI PUSH1 0x1 PUSH1 0x1 PUSH1 0xA0 SHL SUB DUP3 AND PUSH0 SWAP1 DUP2 MSTORE PUSH1 0x6 PUSH1 0x20 MSTORE PUSH1 0x40 SWAP1 KECCAK256 SLOAD PUSH1 0xFF AND PUSH2 0xAD6 JUMPI PUSH1 0x1 PUSH1 0x1 PUSH1 0xA0 SHL SUB DUP3 AND PUSH0 DUP2 DUP2 MSTORE PUSH1 0x6 PUSH1 0x20 MSTORE PUSH1 0x40 DUP2 KECCAK256 DUP1 SLOAD PUSH1 0xFF NOT AND PUSH1 0x1 SWAP1 DUP2 OR SWAP1 SWAP2 SSTORE PUSH1 0x7 DUP1 SLOAD SWAP2 DUP3 ADD DUP2 SSTORE SWAP1 SWAP2 MSTORE PUSH32 0xA66CC928B5EDB82AF9BD49922954155AB7B0942694BEA4CE44661D9A8736C688 ADD DUP1 SLOAD PUSH1 0x1 PUSH1 0x1 PUSH1 0xA0 SHL SUB NOT AND SWAP1 SWAP2 OR SWAP1 SSTORE JUMPDEST PUSH2 0xC11 JUMP JUMPDEST PUSH1 0x1 PUSH1 0x1 PUSH1 0xA0 SHL SUB DUP3 AND PUSH0 SWAP1 DUP2 MSTORE PUSH1 0x6 PUSH1 0x20 MSTORE PUSH1 0x40 SWAP1 KECCAK256 SLOAD PUSH1 0xFF AND ISZERO PUSH2 0xC11 JUMPI PUSH1 0x1 PUSH1 0x1 PUSH1 0xA0 SHL SUB DUP3 AND PUSH0 SWAP1 DUP2 MSTORE PUSH1 0x6 PUSH1 0x20 MSTORE PUSH1 0x40 DUP2 KECCAK256 DUP1 SLOAD PUSH1 0xFF NOT AND SWAP1 SSTORE JUMPDEST PUSH1 0x7 SLOAD DUP2 LT ISZERO PUSH2 0xC0F JUMPI DUP3 PUSH1 0x1 PUSH1 0x1 PUSH1 0xA0 SHL SUB AND PUSH1 0x7 DUP3 DUP2 SLOAD DUP2 LT PUSH2 0xB42 JUMPI PUSH2 0xB42 PUSH2 0xEE4 JUMP JUMPDEST PUSH0 SWAP2 DUP3 MSTORE PUSH1 0x20 SWAP1 SWAP2 KECCAK256 ADD SLOAD PUSH1 0x1 PUSH1 0x1 PUSH1 0xA0 SHL SUB AND SUB PUSH2 0xC07 JUMPI PUSH1 0x7 DUP1 SLOAD PUSH2 0xB6B SWAP1 PUSH1 0x1 SWAP1 PUSH2 0xEF8 JUMP JUMPDEST DUP2 SLOAD DUP2 LT PUSH2 0xB7B JUMPI PUSH2 0xB7B PUSH2 0xEE4 JUMP JUMPDEST PUSH0 SWAP2 DUP3 MSTORE PUSH1 0x20 SWAP1 SWAP2 KECCAK256 ADD SLOAD PUSH1 0x7 DUP1 SLOAD PUSH1 0x1 PUSH1 0x1 PUSH1 0xA0 SHL SUB SWAP1 SWAP3 AND SWAP2 DUP4 SWAP1 DUP2 LT PUSH2 0xBA6 JUMPI PUSH2 0xBA6 PUSH2 0xEE4 JUMP JUMPDEST SWAP1 PUSH0 MSTORE PUSH1 0x20 PUSH0 KECCAK256 ADD PUSH0 PUSH2 0x100 EXP DUP2 SLOAD DUP2 PUSH1 0x1 PUSH1 0x1 PUSH1 0xA0 SHL SUB MUL NOT AND SWAP1 DUP4 PUSH1 0x1 PUSH1 0x1 PUSH1 0xA0 SHL SUB AND MUL OR SWAP1 SSTORE POP PUSH1 0x7 DUP1 SLOAD DUP1 PUSH2 0xBE2 JUMPI PUSH2 0xBE2 PUSH2 0xF1D JUMP JUMPDEST PUSH0 DUP3 DUP2 MSTORE PUSH1 0x20 SWAP1 KECCAK256 DUP2 ADD PUSH0 NOT SWAP1 DUP2 ADD DUP1 SLOAD PUSH1 0x1 PUSH1 0x1 PUSH1 0xA0 SHL SUB NOT AND SWAP1 SSTORE ADD SWAP1 SSTORE PUSH2 0xC0F JUMP JUMPDEST PUSH1 0x1 ADD PUSH2 0xB1B JUMP JUMPDEST POP JUMPDEST PUSH2 0x392 PUSH1 0x1 PUSH0 SSTORE JUMP JUMPDEST PUSH1 0x2 PUSH0 SLOAD SUB PUSH2 0xC3C JUMPI PUSH1 0x40 MLOAD PUSH4 0x3EE5AEB5 PUSH1 0xE0 SHL DUP2 MSTORE PUSH1 0x4 ADD PUSH1 0x40 MLOAD DUP1 SWAP2 SUB SWAP1 REVERT JUMPDEST PUSH1 0x2 PUSH0 SSTORE JUMP JUMPDEST PUSH2 0xC4A PUSH2 0xD0F JUMP JUMPDEST PUSH1 0x1 DUP1 SLOAD PUSH1 0xFF NOT AND SWAP1 SSTORE PUSH32 0x5DB9EE0A495BF2E6FF9C91A7834C1BA4FDD244A5E8AA4E537BD38AEAE4B073AA CALLER JUMPDEST PUSH1 0x40 MLOAD PUSH2 0xC84 SWAP2 SWAP1 PUSH2 0xDE3 JUMP JUMPDEST PUSH1 0x40 MLOAD DUP1 SWAP2 SUB SWAP1 LOG1 JUMP JUMPDEST PUSH1 0x1 SLOAD PUSH1 0xFF AND ISZERO PUSH2 0x455 JUMPI PUSH1 0x40 MLOAD PUSH3 0x461BCD PUSH1 0xE5 SHL DUP2 MSTORE PUSH1 0x20 PUSH1 0x4 DUP3 ADD MSTORE PUSH1 0x10 PUSH1 0x24 DUP3 ADD MSTORE PUSH16 0x14185D5CD8589B194E881C185D5CD959 PUSH1 0x82 SHL PUSH1 0x44 DUP3 ADD MSTORE PUSH1 0x64 ADD PUSH2 0x356 JUMP JUMPDEST PUSH2 0xCDC PUSH2 0xC8E JUMP JUMPDEST PUSH1 0x1 DUP1 SLOAD PUSH1 0xFF NOT AND DUP2 OR SWAP1 SSTORE PUSH32 0x62E78CEA01BEE320CD4E420270B5EA74000D11B0C9F74754EBDBFC544B05A258 CALLER PUSH2 0xC77 JUMP JUMPDEST PUSH1 0x1 SLOAD PUSH1 0xFF AND PUSH2 0x455 JUMPI PUSH1 0x40 MLOAD PUSH3 0x461BCD PUSH1 0xE5 SHL DUP2 MSTORE PUSH1 0x20 PUSH1 0x4 DUP3 ADD MSTORE PUSH1 0x14 PUSH1 0x24 DUP3 ADD MSTORE PUSH20 0x14185D5CD8589B194E881B9BDD081C185D5CD959 PUSH1 0x62 SHL PUSH1 0x44 DUP3 ADD MSTORE PUSH1 0x64 ADD PUSH2 0x356 JUMP JUMPDEST DUP1 CALLDATALOAD PUSH1 0x1 PUSH1 0x1 PUSH1 0xA0 SHL SUB DUP2 AND DUP2 EQ PUSH2 0xD6E JUMPI PUSH0 PUSH0 REVERT JUMPDEST SWAP2 SWAP1 POP JUMP JUMPDEST PUSH0 PUSH1 0x20 DUP3 DUP5 SUB SLT ISZERO PUSH2 0xD83 JUMPI PUSH0 PUSH0 REVERT JUMPDEST PUSH2 0xD8C DUP3 PUSH2 0xD58 JUMP JUMPDEST SWAP4 SWAP3 POP POP POP JUMP JUMPDEST PUSH0 PUSH0 PUSH1 0x40 DUP4 DUP6 SUB SLT ISZERO PUSH2 0xDA4 JUMPI PUSH0 PUSH0 REVERT JUMPDEST PUSH2 0xDAD DUP4 PUSH2 0xD58 JUMP JUMPDEST SWAP2 POP PUSH1 0x20 DUP4 ADD CALLDATALOAD DUP1 ISZERO ISZERO DUP2 EQ PUSH2 0xDC1 JUMPI PUSH0 PUSH0 REVERT JUMPDEST DUP1 SWAP2 POP POP SWAP3 POP SWAP3 SWAP1 POP JUMP JUMPDEST PUSH0 PUSH1 0x20 DUP3 DUP5 SUB SLT ISZERO PUSH2 0xDDC JUMPI PUSH0 PUSH0 REVERT JUMPDEST POP CALLDATALOAD SWAP2 SWAP1 POP JUMP JUMPDEST PUSH1 0x1 PUSH1 0x1 PUSH1 0xA0 SHL SUB SWAP2 SWAP1 SWAP2 AND DUP2 MSTORE PUSH1 0x20 ADD SWAP1 JUMP JUMPDEST PUSH1 0x40 DUP1 DUP3 MSTORE DUP4 MLOAD SWAP1 DUP3 ADD DUP2 SWAP1 MSTORE PUSH0 SWAP1 PUSH1 0x20 DUP6 ADD SWAP1 PUSH1 0x60 DUP5 ADD SWAP1 DUP4 JUMPDEST DUP2 DUP2 LT ISZERO PUSH2 0xE39 JUMPI DUP4 MLOAD PUSH1 0x1 PUSH1 0x1 PUSH1 0xA0 SHL SUB AND DUP4 MSTORE PUSH1 0x20 SWAP4 DUP5 ADD SWAP4 SWAP1 SWAP3 ADD SWAP2 PUSH1 0x1 ADD PUSH2 0xE12 JUMP JUMPDEST POP POP DUP4 DUP2 SUB PUSH1 0x20 DUP1 DUP7 ADD SWAP2 SWAP1 SWAP2 MSTORE DUP6 MLOAD DUP1 DUP4 MSTORE SWAP2 DUP2 ADD SWAP3 POP DUP6 ADD SWAP1 PUSH0 JUMPDEST DUP2 DUP2 LT ISZERO PUSH2 0xE74 JUMPI DUP3 MLOAD DUP5 MSTORE PUSH1 0x20 SWAP4 DUP5 ADD SWAP4 SWAP1 SWAP3 ADD SWAP2 PUSH1 0x1 ADD PUSH2 0xE56 JUMP JUMPDEST POP SWAP2 SWAP7 SWAP6 POP POP POP POP POP POP JUMP JUMPDEST PUSH0 PUSH0 PUSH1 0x40 DUP4 DUP6 SUB SLT ISZERO PUSH2 0xE91 JUMPI PUSH0 PUSH0 REVERT JUMPDEST PUSH2 0xE9A DUP4 PUSH2 0xD58 JUMP JUMPDEST SWAP5 PUSH1 0x20 SWAP4 SWAP1 SWAP4 ADD CALLDATALOAD SWAP4 POP POP POP JUMP JUMPDEST PUSH1 0x20 DUP1 DUP3 MSTORE PUSH1 0xE SWAP1 DUP3 ADD MSTORE PUSH14 0x139BDD08185D5D1A1BDC9A5E9959 PUSH1 0x92 SHL PUSH1 0x40 DUP3 ADD MSTORE PUSH1 0x60 ADD SWAP1 JUMP JUMPDEST PUSH4 0x4E487B71 PUSH1 0xE0 SHL PUSH0 MSTORE PUSH1 0x41 PUSH1 0x4 MSTORE PUSH1 0x24 PUSH0 REVERT JUMPDEST PUSH4 0x4E487B71 PUSH1 0xE0 SHL PUSH0 MSTORE PUSH1 0x32 PUSH1 0x4 MSTORE PUSH1 0x24 PUSH0 REVERT JUMPDEST DUP2 DUP2 SUB DUP2 DUP2 GT ISZERO PUSH2 0xF17 JUMPI PUSH4 0x4E487B71 PUSH1 0xE0 SHL PUSH0 MSTORE PUSH1 0x11 PUSH1 0x4 MSTORE PUSH1 0x24 PUSH0 REVERT JUMPDEST SWAP3 SWAP2 POP POP JUMP JUMPDEST PUSH4 0x4E487B71 PUSH1 0xE0 SHL PUSH0 MSTORE PUSH1 0x31 PUSH1 0x4 MSTORE PUSH1 0x24 PUSH0 REVERT INVALID LOG2 PUSH5 0x6970667358 0x22 SLT KECCAK256 PUSH17 0x211410EE360E9264B9D7FE062270119A91 PUSH10 0x6C421C20268DD96E67DC PUSH10 0xEEE064736F6C63430008 0x1E STOP CALLER "
				},
				"gasEstimates": {
					"creation": {
						"codeDepositCost": "788600",
						"executionCost": "95692",
						"totalCost": "884292"
					},
					"external": {
						"authorizedAddresses(address)": "2693",
						"authorizedBuyersBackupList(uint256)": "4812",
						"authorizedBuyersBackupMap(address)": "2649",
						"balances(address)": "2605",
						"getAllBalances()": "infinite",
						"getAllUserBalances()": "infinite",
						"getAuthorizedBuyerAtIndex(uint256)": "6853",
						"getAuthorizedBuyersCount()": "2347",
						"getBalance(address)": "2754",
						"isAuthorizedBuyer(address)": "2690",
						"migrateBalances(address)": "infinite",
						"owner()": "2426",
						"pause()": "infinite",
						"paused()": "2491",
						"setAuthorizedAddress(address,bool)": "73249",
						"setAuthorizedBuyerBackup(address,bool)": "infinite",
						"setBalance(address,uint256)": "71231",
						"setOwner(address)": "26804",
						"unpause()": "infinite",
						"updateBalance(address,uint256)": "99803",
						"userExists(address)": "2518",
						"users(uint256)": "4746"
					},
					"internal": {
						"addUser(address)": "infinite"
					}
				},
				"methodIdentifiers": {
					"authorizedAddresses(address)": "f19e207e",
					"authorizedBuyersBackupList(uint256)": "574b17cd",
					"authorizedBuyersBackupMap(address)": "e24b62e0",
					"balances(address)": "27e235e3",
					"getAllBalances()": "867e7c27",
					"getAllUserBalances()": "6348e35d",
					"getAuthorizedBuyerAtIndex(uint256)": "9d63b499",
					"getAuthorizedBuyersCount()": "1f56c9e3",
					"getBalance(address)": "f8b2cb4f",
					"isAuthorizedBuyer(address)": "46f6c9de",
					"migrateBalances(address)": "66fdd888",
					"owner()": "8da5cb5b",
					"pause()": "8456cb59",
					"paused()": "5c975abb",
					"setAuthorizedAddress(address,bool)": "1351cf51",
					"setAuthorizedBuyerBackup(address,bool)": "f7314bc9",
					"setBalance(address,uint256)": "e30443bc",
					"setOwner(address)": "13af4035",
					"unpause()": "3f4ba83a",
					"updateBalance(address,uint256)": "e0b1cccb",
					"userExists(address)": "0e666e49",
					"users(uint256)": "365b98b2"
				}
			},
			"storageLayout": {
				"storage": [
					{
						"astId": 145,
						"contract": "contracts/Balances_flattened.sol:Balances",
						"label": "_status",
						"offset": 0,
						"slot": "0",
						"type": "t_uint256"
					},
					{
						"astId": 45,
						"contract": "contracts/Balances_flattened.sol:Balances",
						"label": "_paused",
						"offset": 0,
						"slot": "1",
						"type": "t_bool"
					},
					{
						"astId": 227,
						"contract": "contracts/Balances_flattened.sol:Balances",
						"label": "authorizedAddresses",
						"offset": 0,
						"slot": "2",
						"type": "t_mapping(t_address,t_bool)"
					},
					{
						"astId": 231,
						"contract": "contracts/Balances_flattened.sol:Balances",
						"label": "balances",
						"offset": 0,
						"slot": "3",
						"type": "t_mapping(t_address,t_uint256)"
					},
					{
						"astId": 235,
						"contract": "contracts/Balances_flattened.sol:Balances",
						"label": "userExists",
						"offset": 0,
						"slot": "4",
						"type": "t_mapping(t_address,t_bool)"
					},
					{
						"astId": 238,
						"contract": "contracts/Balances_flattened.sol:Balances",
						"label": "users",
						"offset": 0,
						"slot": "5",
						"type": "t_array(t_address)dyn_storage"
					},
					{
						"astId": 242,
						"contract": "contracts/Balances_flattened.sol:Balances",
						"label": "authorizedBuyersBackupMap",
						"offset": 0,
						"slot": "6",
						"type": "t_mapping(t_address,t_bool)"
					},
					{
						"astId": 245,
						"contract": "contracts/Balances_flattened.sol:Balances",
						"label": "authorizedBuyersBackupList",
						"offset": 0,
						"slot": "7",
						"type": "t_array(t_address)dyn_storage"
					},
					{
						"astId": 275,
						"contract": "contracts/Balances_flattened.sol:Balances",
						"label": "owner",
						"offset": 0,
						"slot": "8",
						"type": "t_address"
					}
				],
				"types": {
					"t_address": {
						"encoding": "inplace",
						"label": "address",
						"numberOfBytes": "20"
					},
					"t_array(t_address)dyn_storage": {
						"base": "t_address",
						"encoding": "dynamic_array",
						"label": "address[]",
						"numberOfBytes": "32"
					},
					"t_bool": {
						"encoding": "inplace",
						"label": "bool",
						"numberOfBytes": "1"
					},
					"t_mapping(t_address,t_bool)": {
						"encoding": "mapping",
						"key": "t_address",
						"label": "mapping(address => bool)",
						"numberOfBytes": "32",
						"value": "t_bool"
					},
					"t_mapping(t_address,t_uint256)": {
						"encoding": "mapping",
						"key": "t_address",
						"label": "mapping(address => uint256)",
						"numberOfBytes": "32",
						"value": "t_uint256"
					},
					"t_uint256": {
						"encoding": "inplace",
						"label": "uint256",
						"numberOfBytes": "32"
					}
				}
			},
			"userdoc": {
				"kind": "user",
				"methods": {},
				"version": 1
			}
		}
	}
}