{
	"contracts/OrderRouter_flattened.sol": {
		"OrderRouter": {
			"abi": [
				{
					"inputs": [],
					"stateMutability": "nonpayable",
					"type": "constructor"
				},
				{
					"inputs": [],
					"name": "ReentrancyGuardReentrantCall",
					"type": "error"
				},
				{
					"anonymous": false,
					"inputs": [
						{
							"indexed": false,
							"internalType": "address",
							"name": "account",
							"type": "address"
						}
					],
					"name": "Paused",
					"type": "event"
				},
				{
					"anonymous": false,
					"inputs": [
						{
							"indexed": false,
							"internalType": "address",
							"name": "account",
							"type": "address"
						}
					],
					"name": "Unpaused",
					"type": "event"
				},
				{
					"inputs": [
						{
							"internalType": "address",
							"name": "",
							"type": "address"
						}
					],
					"name": "authorizedAddresses",
					"outputs": [
						{
							"internalType": "bool",
							"name": "",
							"type": "bool"
						}
					],
					"stateMutability": "view",
					"type": "function"
				},
				{
					"inputs": [],
					"name": "escrowHandler",
					"outputs": [
						{
							"internalType": "contract IEscrowHandler",
							"name": "",
							"type": "address"
						}
					],
					"stateMutability": "view",
					"type": "function"
				},
				{
					"inputs": [],
					"name": "owner",
					"outputs": [
						{
							"internalType": "address",
							"name": "",
							"type": "address"
						}
					],
					"stateMutability": "view",
					"type": "function"
				},
				{
					"inputs": [],
					"name": "pause",
					"outputs": [],
					"stateMutability": "nonpayable",
					"type": "function"
				},
				{
					"inputs": [],
					"name": "paused",
					"outputs": [
						{
							"internalType": "bool",
							"name": "",
							"type": "bool"
						}
					],
					"stateMutability": "view",
					"type": "function"
				},
				{
					"inputs": [
						{
							"internalType": "uint256",
							"name": "_orderID",
							"type": "uint256"
						},
						{
							"internalType": "address",
							"name": "buyer",
							"type": "address"
						},
						{
							"internalType": "uint256",
							"name": "_price",
							"type": "uint256"
						},
						{
							"internalType": "uint256",
							"name": "_amount",
							"type": "uint256"
						},
						{
							"internalType": "enum SharedStructs.AssetType",
							"name": "_assetType",
							"type": "uint8"
						},
						{
							"internalType": "enum SharedStructs.PaymentMethod",
							"name": "_priceCurrency",
							"type": "uint8"
						},
						{
							"internalType": "bool",
							"name": "authorizedBuyersOnly",
							"type": "bool"
						}
					],
					"name": "routeBuyOrder",
					"outputs": [],
					"stateMutability": "nonpayable",
					"type": "function"
				},
				{
					"inputs": [
						{
							"internalType": "uint256",
							"name": "_orderID",
							"type": "uint256"
						},
						{
							"internalType": "address",
							"name": "seller",
							"type": "address"
						},
						{
							"internalType": "uint256",
							"name": "_price",
							"type": "uint256"
						},
						{
							"internalType": "uint256",
							"name": "_amount",
							"type": "uint256"
						},
						{
							"internalType": "enum SharedStructs.AssetType",
							"name": "_assetType",
							"type": "uint8"
						},
						{
							"internalType": "enum SharedStructs.PaymentMethod",
							"name": "_priceCurrency",
							"type": "uint8"
						},
						{
							"internalType": "bool",
							"name": "authorizedBuyersOnly",
							"type": "bool"
						}
					],
					"name": "routeSellOrder",
					"outputs": [],
					"stateMutability": "nonpayable",
					"type": "function"
				},
				{
					"inputs": [
						{
							"internalType": "address",
							"name": "_address",
							"type": "address"
						},
						{
							"internalType": "bool",
							"name": "_status",
							"type": "bool"
						}
					],
					"name": "setAuthorizedAddress",
					"outputs": [],
					"stateMutability": "nonpayable",
					"type": "function"
				},
				{
					"inputs": [
						{
							"internalType": "address",
							"name": "_escrowHandler",
							"type": "address"
						},
						{
							"internalType": "address",
							"name": "_usdtOrders",
							"type": "address"
						},
						{
							"internalType": "address",
							"name": "_usdcOrders",
							"type": "address"
						}
					],
					"name": "setContracts",
					"outputs": [],
					"stateMutability": "nonpayable",
					"type": "function"
				},
				{
					"inputs": [
						{
							"internalType": "address",
							"name": "newOwner",
							"type": "address"
						}
					],
					"name": "setOwner",
					"outputs": [],
					"stateMutability": "nonpayable",
					"type": "function"
				},
				{
					"inputs": [],
					"name": "unpause",
					"outputs": [],
					"stateMutability": "nonpayable",
					"type": "function"
				},
				{
					"inputs": [],
					"name": "usdcOrders",
					"outputs": [
						{
							"internalType": "contract IUSDCorders",
							"name": "",
							"type": "address"
						}
					],
					"stateMutability": "view",
					"type": "function"
				},
				{
					"inputs": [],
					"name": "usdtOrders",
					"outputs": [
						{
							"internalType": "contract IUSDTorders",
							"name": "",
							"type": "address"
						}
					],
					"stateMutability": "view",
					"type": "function"
				}
			],
			"devdoc": {
				"errors": {
					"ReentrancyGuardReentrantCall()": [
						{
							"details": "Unauthorized reentrant call."
						}
					]
				},
				"events": {
					"Paused(address)": {
						"details": "Emitted when the pause is triggered by `account`."
					},
					"Unpaused(address)": {
						"details": "Emitted when the pause is lifted by `account`."
					}
				},
				"kind": "dev",
				"methods": {
					"paused()": {
						"details": "Returns true if the contract is paused, and false otherwise."
					}
				},
				"version": 1
			},
			"evm": {
				"assembly": "    /* \"contracts/OrderRouter_flattened.sol\":17399:21811  contract OrderRouter is ReentrancyGuard, Pausable {... */\n  mstore(0x40, 0x80)\n    /* \"contracts/OrderRouter_flattened.sol\":17657:17757  constructor() {... */\n  callvalue\n  dup1\n  iszero\n  tag_1\n  jumpi\n  revert(0x00, 0x00)\ntag_1:\n  pop\n    /* \"contracts/OrderRouter_flattened.sol\":12069:12070  1 */\n  0x01\n    /* \"contracts/OrderRouter_flattened.sol\":12284:12291  _status */\n  0x00\n    /* \"contracts/OrderRouter_flattened.sol\":12284:12305  _status = NOT_ENTERED */\n  dup2\n  dup2\n  sstore\n    /* \"contracts/OrderRouter_flattened.sol\":15689:15704  _paused = false */\n  dup2\n  sload\n  not(0xff)\n  swap1\n  dup2\n  and\n  dup4\n  sstore\n    /* \"contracts/OrderRouter_flattened.sol\":17702:17712  msg.sender */\n  caller\n    /* \"contracts/OrderRouter_flattened.sol\":17682:17713  authorizedAddresses[msg.sender] */\n  dup1\n  dup4\n  mstore\n    /* \"contracts/OrderRouter_flattened.sol\":17682:17701  authorizedAddresses */\n  0x04\n    /* \"contracts/OrderRouter_flattened.sol\":17682:17713  authorizedAddresses[msg.sender] */\n  0x20\n  mstore\n  0x40\n  swap1\n  swap3\n  keccak256\n    /* \"contracts/OrderRouter_flattened.sol\":17682:17720  authorizedAddresses[msg.sender] = true */\n  dup1\n  sload\n  swap1\n  swap2\n  and\n  swap1\n  swap3\n  or\n  swap1\n  swap2\n  sstore\n    /* \"contracts/OrderRouter_flattened.sol\":17731:17736  owner */\n  0x05\n    /* \"contracts/OrderRouter_flattened.sol\":17731:17749  owner = msg.sender */\n  dup1\n  sload\n  not(sub(shl(0xa0, 0x01), 0x01))\n  and\n  swap1\n  swap2\n  or\n  swap1\n  sstore\n    /* \"contracts/OrderRouter_flattened.sol\":17399:21811  contract OrderRouter is ReentrancyGuard, Pausable {... */\n  dataSize(sub_0)\n  dup1\n  dataOffset(sub_0)\n  0x00\n  codecopy\n  0x00\n  return\nstop\n\nsub_0: assembly {\n        /* \"contracts/OrderRouter_flattened.sol\":17399:21811  contract OrderRouter is ReentrancyGuard, Pausable {... */\n      mstore(0x40, 0x80)\n      callvalue\n      dup1\n      iszero\n      tag_1\n      jumpi\n      revert(0x00, 0x00)\n    tag_1:\n      pop\n      jumpi(tag_2, lt(calldatasize, 0x04))\n      shr(0xe0, calldataload(0x00))\n      dup1\n      0x0d462d44\n      eq\n      tag_3\n      jumpi\n      dup1\n      0x1351cf51\n      eq\n      tag_4\n      jumpi\n      dup1\n      0x13af4035\n      eq\n      tag_5\n      jumpi\n      dup1\n      0x3f4ba83a\n      eq\n      tag_6\n      jumpi\n      dup1\n      0x5c975abb\n      eq\n      tag_7\n      jumpi\n      dup1\n      0x71dc7725\n      eq\n      tag_8\n      jumpi\n      dup1\n      0x8456cb59\n      eq\n      tag_9\n      jumpi\n      dup1\n      0x87ad8f87\n      eq\n      tag_10\n      jumpi\n      dup1\n      0x8da5cb5b\n      eq\n      tag_11\n      jumpi\n      dup1\n      0x9c5338a5\n      eq\n      tag_12\n      jumpi\n      dup1\n      0xb3066d49\n      eq\n      tag_13\n      jumpi\n      dup1\n      0xced6f7df\n      eq\n      tag_14\n      jumpi\n      dup1\n      0xf19e207e\n      eq\n      tag_15\n      jumpi\n    tag_2:\n      revert(0x00, 0x00)\n        /* \"contracts/OrderRouter_flattened.sol\":20138:21535  function routeSellOrder(... */\n    tag_3:\n      tag_16\n      tag_17\n      calldatasize\n      0x04\n      tag_18\n      jump\t// in\n    tag_17:\n      tag_19\n      jump\t// in\n    tag_16:\n      stop\n        /* \"contracts/OrderRouter_flattened.sol\":17888:18057  function setAuthorizedAddress(address _address, bool _status) public onlyAuthorized nonReentrant whenNotPaused {... */\n    tag_4:\n      tag_16\n      tag_21\n      calldatasize\n      0x04\n      tag_22\n      jump\t// in\n    tag_21:\n      tag_23\n      jump\t// in\n        /* \"contracts/OrderRouter_flattened.sol\":18065:18158  function setOwner(address newOwner) public onlyAuthorized {... */\n    tag_5:\n      tag_16\n      tag_25\n      calldatasize\n      0x04\n      tag_26\n      jump\t// in\n    tag_25:\n      tag_27\n      jump\t// in\n        /* \"contracts/OrderRouter_flattened.sol\":21723:21808  function unpause() external onlyAuthorized nonReentrant {... */\n    tag_6:\n      tag_16\n      tag_29\n      jump\t// in\n        /* \"contracts/OrderRouter_flattened.sol\":16338:16424  function paused() public view virtual returns (bool) {... */\n    tag_7:\n        /* \"contracts/OrderRouter_flattened.sol\":16409:16416  _paused */\n      and(0xff, sload(0x01))\n        /* \"contracts/OrderRouter_flattened.sol\":16338:16424  function paused() public view virtual returns (bool) {... */\n    tag_30:\n      mload(0x40)\n        /* \"#utility.yul\":1915:1929   */\n      swap1\n      iszero\n        /* \"#utility.yul\":1908:1930   */\n      iszero\n        /* \"#utility.yul\":1890:1931   */\n      dup2\n      mstore\n        /* \"#utility.yul\":1878:1880   */\n      0x20\n        /* \"#utility.yul\":1863:1881   */\n      add\n        /* \"contracts/OrderRouter_flattened.sol\":16338:16424  function paused() public view virtual returns (bool) {... */\n    tag_32:\n      mload(0x40)\n      dup1\n      swap2\n      sub\n      swap1\n      return\n        /* \"contracts/OrderRouter_flattened.sol\":17498:17527  IUSDTorders public usdtOrders */\n    tag_8:\n      sload(0x02)\n      tag_34\n      swap1\n      sub(shl(0xa0, 0x01), 0x01)\n      and\n      dup2\n      jump\n    tag_34:\n      mload(0x40)\n      tag_32\n      swap2\n      swap1\n      tag_37\n      jump\t// in\n        /* \"contracts/OrderRouter_flattened.sol\":21620:21715  function pause() external whenNotPaused onlyAuthorized nonReentrant {... */\n    tag_9:\n      tag_16\n      tag_39\n      jump\t// in\n        /* \"contracts/OrderRouter_flattened.sol\":17456:17491  IEscrowHandler public escrowHandler */\n    tag_10:\n      sload(0x01)\n      tag_34\n      swap1\n      0x0100\n      swap1\n      div\n      sub(shl(0xa0, 0x01), 0x01)\n      and\n      dup2\n      jump\n        /* \"contracts/OrderRouter_flattened.sol\":17628:17648  address public owner */\n    tag_11:\n      sload(0x05)\n      tag_34\n      swap1\n      sub(shl(0xa0, 0x01), 0x01)\n      and\n      dup2\n      jump\n        /* \"contracts/OrderRouter_flattened.sol\":17534:17563  IUSDCorders public usdcOrders */\n    tag_12:\n      sload(0x03)\n      tag_34\n      swap1\n      sub(shl(0xa0, 0x01), 0x01)\n      and\n      dup2\n      jump\n        /* \"contracts/OrderRouter_flattened.sol\":18166:18733  function setContracts(... */\n    tag_13:\n      tag_16\n      tag_53\n      calldatasize\n      0x04\n      tag_54\n      jump\t// in\n    tag_53:\n      tag_55\n      jump\t// in\n        /* \"contracts/OrderRouter_flattened.sol\":18741:20130  function routeBuyOrder(... */\n    tag_14:\n      tag_16\n      tag_57\n      calldatasize\n      0x04\n      tag_18\n      jump\t// in\n    tag_57:\n      tag_58\n      jump\t// in\n        /* \"contracts/OrderRouter_flattened.sol\":17570:17621  mapping(address => bool) public authorizedAddresses */\n    tag_15:\n      tag_30\n      tag_60\n      calldatasize\n      0x04\n      tag_26\n      jump\t// in\n    tag_60:\n      mstore(0x20, 0x04)\n      0x00\n      swap1\n      dup2\n      mstore\n      0x40\n      swap1\n      keccak256\n      sload\n      0xff\n      and\n      dup2\n      jump\n        /* \"contracts/OrderRouter_flattened.sol\":20138:21535  function routeSellOrder(... */\n    tag_19:\n        /* \"contracts/OrderRouter_flattened.sol\":17830:17840  msg.sender */\n      caller\n        /* \"contracts/OrderRouter_flattened.sol\":17810:17841  authorizedAddresses[msg.sender] */\n      0x00\n      swap1\n      dup2\n      mstore\n        /* \"contracts/OrderRouter_flattened.sol\":17810:17829  authorizedAddresses */\n      0x04\n        /* \"contracts/OrderRouter_flattened.sol\":17810:17841  authorizedAddresses[msg.sender] */\n      0x20\n      mstore\n      0x40\n      swap1\n      keccak256\n      sload\n      0xff\n      and\n        /* \"contracts/OrderRouter_flattened.sol\":17802:17860  require(authorizedAddresses[msg.sender], \"Not authorized\") */\n      tag_64\n      jumpi\n      mload(0x40)\n      shl(0xe5, 0x461bcd)\n      dup2\n      mstore\n      0x04\n      add\n      tag_65\n      swap1\n      tag_66\n      jump\t// in\n    tag_65:\n      mload(0x40)\n      dup1\n      swap2\n      sub\n      swap1\n      revert\n    tag_64:\n        /* \"contracts/OrderRouter_flattened.sol\":12734:12755  _nonReentrantBefore() */\n      tag_68\n        /* \"contracts/OrderRouter_flattened.sol\":12734:12753  _nonReentrantBefore */\n      tag_69\n        /* \"contracts/OrderRouter_flattened.sol\":12734:12755  _nonReentrantBefore() */\n      jump\t// in\n    tag_68:\n        /* \"contracts/OrderRouter_flattened.sol\":15943:15962  _requireNotPaused() */\n      tag_71\n        /* \"contracts/OrderRouter_flattened.sol\":15943:15960  _requireNotPaused */\n      tag_72\n        /* \"contracts/OrderRouter_flattened.sol\":15943:15962  _requireNotPaused() */\n      jump\t// in\n    tag_71:\n        /* \"contracts/OrderRouter_flattened.sol\":20490:20523  SharedStructs.PaymentMethod.Ether */\n      0x00\n        /* \"contracts/OrderRouter_flattened.sol\":20472:20486  _priceCurrency */\n      dup3\n        /* \"contracts/OrderRouter_flattened.sol\":20472:20523  _priceCurrency == SharedStructs.PaymentMethod.Ether */\n      0x02\n      dup2\n      gt\n      iszero\n      tag_78\n      jumpi\n      tag_78\n      tag_76\n      jump\t// in\n    tag_78:\n      sub\n        /* \"contracts/OrderRouter_flattened.sol\":20468:21528  if (_priceCurrency == SharedStructs.PaymentMethod.Ether) {... */\n      tag_79\n      jumpi\n        /* \"contracts/OrderRouter_flattened.sol\":20540:20553  escrowHandler */\n      sload(0x01)\n        /* \"contracts/OrderRouter_flattened.sol\":20540:20785  escrowHandler.addSellOrder(... */\n      mload(0x40)\n      shl(0xe1, 0x03aa2b93)\n      dup2\n      mstore\n        /* \"contracts/OrderRouter_flattened.sol\":20540:20553  escrowHandler */\n      0x0100\n      swap1\n      swap2\n      div\n      sub(shl(0xa0, 0x01), 0x01)\n      and\n      swap1\n        /* \"contracts/OrderRouter_flattened.sol\":20540:20566  escrowHandler.addSellOrder */\n      0x07545726\n      swap1\n        /* \"contracts/OrderRouter_flattened.sol\":20540:20785  escrowHandler.addSellOrder(... */\n      tag_80\n      swap1\n        /* \"contracts/OrderRouter_flattened.sol\":20585:20593  _orderID */\n      dup11\n      swap1\n        /* \"contracts/OrderRouter_flattened.sol\":20612:20618  seller */\n      dup11\n      swap1\n        /* \"contracts/OrderRouter_flattened.sol\":20637:20643  _price */\n      dup11\n      swap1\n        /* \"contracts/OrderRouter_flattened.sol\":20662:20669  _amount */\n      dup11\n      swap1\n        /* \"contracts/OrderRouter_flattened.sol\":20688:20698  _assetType */\n      dup11\n      swap1\n        /* \"contracts/OrderRouter_flattened.sol\":20717:20731  _priceCurrency */\n      dup11\n      swap1\n        /* \"contracts/OrderRouter_flattened.sol\":20750:20770  authorizedBuyersOnly */\n      dup11\n      swap1\n        /* \"contracts/OrderRouter_flattened.sol\":20540:20785  escrowHandler.addSellOrder(... */\n      0x04\n      add\n      tag_81\n      jump\t// in\n    tag_80:\n      0x00\n      mload(0x40)\n      dup1\n      dup4\n      sub\n      dup2\n      0x00\n      dup8\n      dup1\n      extcodesize\n      iszero\n      dup1\n      iszero\n      tag_82\n      jumpi\n      revert(0x00, 0x00)\n    tag_82:\n      pop\n      gas\n      call\n      iszero\n      dup1\n      iszero\n      tag_84\n      jumpi\n      returndatacopy(0x00, 0x00, returndatasize)\n      revert(0x00, returndatasize)\n    tag_84:\n      pop\n      pop\n      pop\n      pop\n        /* \"contracts/OrderRouter_flattened.sol\":20468:21528  if (_priceCurrency == SharedStructs.PaymentMethod.Ether) {... */\n      jump(tag_105)\n    tag_79:\n        /* \"contracts/OrderRouter_flattened.sol\":20825:20857  SharedStructs.PaymentMethod.USDT */\n      0x01\n        /* \"contracts/OrderRouter_flattened.sol\":20807:20821  _priceCurrency */\n      dup3\n        /* \"contracts/OrderRouter_flattened.sol\":20807:20857  _priceCurrency == SharedStructs.PaymentMethod.USDT */\n      0x02\n      dup2\n      gt\n      iszero\n      tag_89\n      jumpi\n      tag_89\n      tag_76\n      jump\t// in\n    tag_89:\n      sub\n        /* \"contracts/OrderRouter_flattened.sol\":20803:21528  if (_priceCurrency == SharedStructs.PaymentMethod.USDT) {... */\n      tag_90\n      jumpi\n        /* \"contracts/OrderRouter_flattened.sol\":20874:20884  usdtOrders */\n      sload(0x02)\n        /* \"contracts/OrderRouter_flattened.sol\":20874:21116  usdtOrders.addSellOrder(... */\n      mload(0x40)\n      shl(0xe1, 0x03aa2b93)\n      dup2\n      mstore\n      sub(shl(0xa0, 0x01), 0x01)\n        /* \"contracts/OrderRouter_flattened.sol\":20874:20884  usdtOrders */\n      swap1\n      swap2\n      and\n      swap1\n        /* \"contracts/OrderRouter_flattened.sol\":20874:20897  usdtOrders.addSellOrder */\n      0x07545726\n      swap1\n        /* \"contracts/OrderRouter_flattened.sol\":20874:21116  usdtOrders.addSellOrder(... */\n      tag_80\n      swap1\n        /* \"contracts/OrderRouter_flattened.sol\":20916:20924  _orderID */\n      dup11\n      swap1\n        /* \"contracts/OrderRouter_flattened.sol\":20943:20949  seller */\n      dup11\n      swap1\n        /* \"contracts/OrderRouter_flattened.sol\":20968:20974  _price */\n      dup11\n      swap1\n        /* \"contracts/OrderRouter_flattened.sol\":20993:21000  _amount */\n      dup11\n      swap1\n        /* \"contracts/OrderRouter_flattened.sol\":21019:21029  _assetType */\n      dup11\n      swap1\n        /* \"contracts/OrderRouter_flattened.sol\":21048:21062  _priceCurrency */\n      dup11\n      swap1\n        /* \"contracts/OrderRouter_flattened.sol\":21081:21101  authorizedBuyersOnly */\n      dup11\n      swap1\n        /* \"contracts/OrderRouter_flattened.sol\":20874:21116  usdtOrders.addSellOrder(... */\n      0x04\n      add\n      tag_81\n      jump\t// in\n        /* \"contracts/OrderRouter_flattened.sol\":20803:21528  if (_priceCurrency == SharedStructs.PaymentMethod.USDT) {... */\n    tag_90:\n        /* \"contracts/OrderRouter_flattened.sol\":21156:21188  SharedStructs.PaymentMethod.USDC */\n      0x02\n        /* \"contracts/OrderRouter_flattened.sol\":21138:21152  _priceCurrency */\n      dup3\n        /* \"contracts/OrderRouter_flattened.sol\":21138:21188  _priceCurrency == SharedStructs.PaymentMethod.USDC */\n      0x02\n      dup2\n      gt\n      iszero\n      tag_99\n      jumpi\n      tag_99\n      tag_76\n      jump\t// in\n    tag_99:\n      sub\n        /* \"contracts/OrderRouter_flattened.sol\":21134:21528  if (_priceCurrency == SharedStructs.PaymentMethod.USDC) {... */\n      tag_100\n      jumpi\n        /* \"contracts/OrderRouter_flattened.sol\":21205:21215  usdcOrders */\n      sload(0x03)\n        /* \"contracts/OrderRouter_flattened.sol\":21205:21447  usdcOrders.addSellOrder(... */\n      mload(0x40)\n      shl(0xe1, 0x03aa2b93)\n      dup2\n      mstore\n      sub(shl(0xa0, 0x01), 0x01)\n        /* \"contracts/OrderRouter_flattened.sol\":21205:21215  usdcOrders */\n      swap1\n      swap2\n      and\n      swap1\n        /* \"contracts/OrderRouter_flattened.sol\":21205:21228  usdcOrders.addSellOrder */\n      0x07545726\n      swap1\n        /* \"contracts/OrderRouter_flattened.sol\":21205:21447  usdcOrders.addSellOrder(... */\n      tag_80\n      swap1\n        /* \"contracts/OrderRouter_flattened.sol\":21247:21255  _orderID */\n      dup11\n      swap1\n        /* \"contracts/OrderRouter_flattened.sol\":21274:21280  seller */\n      dup11\n      swap1\n        /* \"contracts/OrderRouter_flattened.sol\":21299:21305  _price */\n      dup11\n      swap1\n        /* \"contracts/OrderRouter_flattened.sol\":21324:21331  _amount */\n      dup11\n      swap1\n        /* \"contracts/OrderRouter_flattened.sol\":21350:21360  _assetType */\n      dup11\n      swap1\n        /* \"contracts/OrderRouter_flattened.sol\":21379:21393  _priceCurrency */\n      dup11\n      swap1\n        /* \"contracts/OrderRouter_flattened.sol\":21412:21432  authorizedBuyersOnly */\n      dup11\n      swap1\n        /* \"contracts/OrderRouter_flattened.sol\":21205:21447  usdcOrders.addSellOrder(... */\n      0x04\n      add\n      tag_81\n      jump\t// in\n        /* \"contracts/OrderRouter_flattened.sol\":21134:21528  if (_priceCurrency == SharedStructs.PaymentMethod.USDC) {... */\n    tag_100:\n        /* \"contracts/OrderRouter_flattened.sol\":21480:21516  revert(\"Unsupported payment method\") */\n      mload(0x40)\n      shl(0xe5, 0x461bcd)\n      dup2\n      mstore\n        /* \"#utility.yul\":4632:4634   */\n      0x20\n        /* \"contracts/OrderRouter_flattened.sol\":21480:21516  revert(\"Unsupported payment method\") */\n      0x04\n      dup3\n      add\n        /* \"#utility.yul\":4614:4635   */\n      mstore\n        /* \"#utility.yul\":4671:4673   */\n      0x1a\n        /* \"#utility.yul\":4651:4669   */\n      0x24\n      dup3\n      add\n        /* \"#utility.yul\":4644:4674   */\n      mstore\n      shl(0x32, 0x155b9cdd5c1c1bdc9d1959081c185e5b595b9d081b595d1a1bd9)\n        /* \"#utility.yul\":4690:4708   */\n      0x44\n      dup3\n      add\n        /* \"#utility.yul\":4683:4739   */\n      mstore\n        /* \"#utility.yul\":4756:4774   */\n      0x64\n      add\n        /* \"contracts/OrderRouter_flattened.sol\":21480:21516  revert(\"Unsupported payment method\") */\n      tag_65\n        /* \"#utility.yul\":4430:4780   */\n      jump\n        /* \"contracts/OrderRouter_flattened.sol\":21134:21528  if (_priceCurrency == SharedStructs.PaymentMethod.USDC) {... */\n    tag_105:\n        /* \"contracts/OrderRouter_flattened.sol\":12778:12798  _nonReentrantAfter() */\n      tag_108\n        /* \"contracts/OrderRouter_flattened.sol\":12069:12070  1 */\n      0x01\n        /* \"contracts/OrderRouter_flattened.sol\":13320:13327  _status */\n      0x00\n        /* \"contracts/OrderRouter_flattened.sol\":13320:13341  _status = NOT_ENTERED */\n      sstore\n        /* \"contracts/OrderRouter_flattened.sol\":13137:13349  function _nonReentrantAfter() private {... */\n      jump\n        /* \"contracts/OrderRouter_flattened.sol\":12778:12798  _nonReentrantAfter() */\n    tag_108:\n        /* \"contracts/OrderRouter_flattened.sol\":20138:21535  function routeSellOrder(... */\n      pop\n      pop\n      pop\n      pop\n      pop\n      pop\n      pop\n      jump\t// out\n        /* \"contracts/OrderRouter_flattened.sol\":17888:18057  function setAuthorizedAddress(address _address, bool _status) public onlyAuthorized nonReentrant whenNotPaused {... */\n    tag_23:\n        /* \"contracts/OrderRouter_flattened.sol\":17830:17840  msg.sender */\n      caller\n        /* \"contracts/OrderRouter_flattened.sol\":17810:17841  authorizedAddresses[msg.sender] */\n      0x00\n      swap1\n      dup2\n      mstore\n        /* \"contracts/OrderRouter_flattened.sol\":17810:17829  authorizedAddresses */\n      0x04\n        /* \"contracts/OrderRouter_flattened.sol\":17810:17841  authorizedAddresses[msg.sender] */\n      0x20\n      mstore\n      0x40\n      swap1\n      keccak256\n      sload\n      0xff\n      and\n        /* \"contracts/OrderRouter_flattened.sol\":17802:17860  require(authorizedAddresses[msg.sender], \"Not authorized\") */\n      tag_111\n      jumpi\n      mload(0x40)\n      shl(0xe5, 0x461bcd)\n      dup2\n      mstore\n      0x04\n      add\n      tag_65\n      swap1\n      tag_66\n      jump\t// in\n    tag_111:\n        /* \"contracts/OrderRouter_flattened.sol\":12734:12755  _nonReentrantBefore() */\n      tag_114\n        /* \"contracts/OrderRouter_flattened.sol\":12734:12753  _nonReentrantBefore */\n      tag_69\n        /* \"contracts/OrderRouter_flattened.sol\":12734:12755  _nonReentrantBefore() */\n      jump\t// in\n    tag_114:\n        /* \"contracts/OrderRouter_flattened.sol\":15943:15962  _requireNotPaused() */\n      tag_116\n        /* \"contracts/OrderRouter_flattened.sol\":15943:15960  _requireNotPaused */\n      tag_72\n        /* \"contracts/OrderRouter_flattened.sol\":15943:15962  _requireNotPaused() */\n      jump\t// in\n    tag_116:\n      sub(shl(0xa0, 0x01), 0x01)\n        /* \"contracts/OrderRouter_flattened.sol\":18010:18039  authorizedAddresses[_address] */\n      dup3\n      and\n      0x00\n      swap1\n      dup2\n      mstore\n        /* \"contracts/OrderRouter_flattened.sol\":18010:18029  authorizedAddresses */\n      0x04\n        /* \"contracts/OrderRouter_flattened.sol\":18010:18039  authorizedAddresses[_address] */\n      0x20\n      mstore\n      0x40\n      dup2\n      keccak256\n        /* \"contracts/OrderRouter_flattened.sol\":18010:18049  authorizedAddresses[_address] = _status */\n      dup1\n      sload\n      not(0xff)\n      and\n      dup4\n      iszero\n      iszero\n      or\n      swap1\n      sstore\n      0x01\n        /* \"contracts/OrderRouter_flattened.sol\":13320:13341  _status = NOT_ENTERED */\n      swap1\n      sstore\n        /* \"contracts/OrderRouter_flattened.sol\":17888:18057  function setAuthorizedAddress(address _address, bool _status) public onlyAuthorized nonReentrant whenNotPaused {... */\n      pop\n      pop\n      jump\t// out\n        /* \"contracts/OrderRouter_flattened.sol\":18065:18158  function setOwner(address newOwner) public onlyAuthorized {... */\n    tag_27:\n        /* \"contracts/OrderRouter_flattened.sol\":17830:17840  msg.sender */\n      caller\n        /* \"contracts/OrderRouter_flattened.sol\":17810:17841  authorizedAddresses[msg.sender] */\n      0x00\n      swap1\n      dup2\n      mstore\n        /* \"contracts/OrderRouter_flattened.sol\":17810:17829  authorizedAddresses */\n      0x04\n        /* \"contracts/OrderRouter_flattened.sol\":17810:17841  authorizedAddresses[msg.sender] */\n      0x20\n      mstore\n      0x40\n      swap1\n      keccak256\n      sload\n      0xff\n      and\n        /* \"contracts/OrderRouter_flattened.sol\":17802:17860  require(authorizedAddresses[msg.sender], \"Not authorized\") */\n      tag_120\n      jumpi\n      mload(0x40)\n      shl(0xe5, 0x461bcd)\n      dup2\n      mstore\n      0x04\n      add\n      tag_65\n      swap1\n      tag_66\n      jump\t// in\n    tag_120:\n        /* \"contracts/OrderRouter_flattened.sol\":18134:18139  owner */\n      0x05\n        /* \"contracts/OrderRouter_flattened.sol\":18134:18150  owner = newOwner */\n      dup1\n      sload\n      not(sub(shl(0xa0, 0x01), 0x01))\n      and\n      sub(shl(0xa0, 0x01), 0x01)\n      swap3\n      swap1\n      swap3\n      and\n      swap2\n      swap1\n      swap2\n      or\n      swap1\n      sstore\n        /* \"contracts/OrderRouter_flattened.sol\":18065:18158  function setOwner(address newOwner) public onlyAuthorized {... */\n      jump\t// out\n        /* \"contracts/OrderRouter_flattened.sol\":21723:21808  function unpause() external onlyAuthorized nonReentrant {... */\n    tag_29:\n        /* \"contracts/OrderRouter_flattened.sol\":17830:17840  msg.sender */\n      caller\n        /* \"contracts/OrderRouter_flattened.sol\":17810:17841  authorizedAddresses[msg.sender] */\n      0x00\n      swap1\n      dup2\n      mstore\n        /* \"contracts/OrderRouter_flattened.sol\":17810:17829  authorizedAddresses */\n      0x04\n        /* \"contracts/OrderRouter_flattened.sol\":17810:17841  authorizedAddresses[msg.sender] */\n      0x20\n      mstore\n      0x40\n      swap1\n      keccak256\n      sload\n      0xff\n      and\n        /* \"contracts/OrderRouter_flattened.sol\":17802:17860  require(authorizedAddresses[msg.sender], \"Not authorized\") */\n      tag_124\n      jumpi\n      mload(0x40)\n      shl(0xe5, 0x461bcd)\n      dup2\n      mstore\n      0x04\n      add\n      tag_65\n      swap1\n      tag_66\n      jump\t// in\n    tag_124:\n        /* \"contracts/OrderRouter_flattened.sol\":12734:12755  _nonReentrantBefore() */\n      tag_127\n        /* \"contracts/OrderRouter_flattened.sol\":12734:12753  _nonReentrantBefore */\n      tag_69\n        /* \"contracts/OrderRouter_flattened.sol\":12734:12755  _nonReentrantBefore() */\n      jump\t// in\n    tag_127:\n        /* \"contracts/OrderRouter_flattened.sol\":21790:21800  _unpause() */\n      tag_129\n        /* \"contracts/OrderRouter_flattened.sol\":21790:21798  _unpause */\n      tag_130\n        /* \"contracts/OrderRouter_flattened.sol\":21790:21800  _unpause() */\n      jump\t// in\n    tag_129:\n        /* \"contracts/OrderRouter_flattened.sol\":12778:12798  _nonReentrantAfter() */\n      tag_131\n        /* \"contracts/OrderRouter_flattened.sol\":12069:12070  1 */\n      0x01\n        /* \"contracts/OrderRouter_flattened.sol\":13320:13327  _status */\n      0x00\n        /* \"contracts/OrderRouter_flattened.sol\":13320:13341  _status = NOT_ENTERED */\n      sstore\n        /* \"contracts/OrderRouter_flattened.sol\":13137:13349  function _nonReentrantAfter() private {... */\n      jump\n        /* \"contracts/OrderRouter_flattened.sol\":12778:12798  _nonReentrantAfter() */\n    tag_131:\n        /* \"contracts/OrderRouter_flattened.sol\":21723:21808  function unpause() external onlyAuthorized nonReentrant {... */\n      jump\t// out\n        /* \"contracts/OrderRouter_flattened.sol\":21620:21715  function pause() external whenNotPaused onlyAuthorized nonReentrant {... */\n    tag_39:\n        /* \"contracts/OrderRouter_flattened.sol\":15943:15962  _requireNotPaused() */\n      tag_134\n        /* \"contracts/OrderRouter_flattened.sol\":15943:15960  _requireNotPaused */\n      tag_72\n        /* \"contracts/OrderRouter_flattened.sol\":15943:15962  _requireNotPaused() */\n      jump\t// in\n    tag_134:\n        /* \"contracts/OrderRouter_flattened.sol\":17830:17840  msg.sender */\n      caller\n        /* \"contracts/OrderRouter_flattened.sol\":17810:17841  authorizedAddresses[msg.sender] */\n      0x00\n      swap1\n      dup2\n      mstore\n        /* \"contracts/OrderRouter_flattened.sol\":17810:17829  authorizedAddresses */\n      0x04\n        /* \"contracts/OrderRouter_flattened.sol\":17810:17841  authorizedAddresses[msg.sender] */\n      0x20\n      mstore\n      0x40\n      swap1\n      keccak256\n      sload\n      0xff\n      and\n        /* \"contracts/OrderRouter_flattened.sol\":17802:17860  require(authorizedAddresses[msg.sender], \"Not authorized\") */\n      tag_136\n      jumpi\n      mload(0x40)\n      shl(0xe5, 0x461bcd)\n      dup2\n      mstore\n      0x04\n      add\n      tag_65\n      swap1\n      tag_66\n      jump\t// in\n    tag_136:\n        /* \"contracts/OrderRouter_flattened.sol\":12734:12755  _nonReentrantBefore() */\n      tag_139\n        /* \"contracts/OrderRouter_flattened.sol\":12734:12753  _nonReentrantBefore */\n      tag_69\n        /* \"contracts/OrderRouter_flattened.sol\":12734:12755  _nonReentrantBefore() */\n      jump\t// in\n    tag_139:\n        /* \"contracts/OrderRouter_flattened.sol\":21699:21707  _pause() */\n      tag_129\n        /* \"contracts/OrderRouter_flattened.sol\":21699:21705  _pause */\n      tag_142\n        /* \"contracts/OrderRouter_flattened.sol\":21699:21707  _pause() */\n      jump\t// in\n        /* \"contracts/OrderRouter_flattened.sol\":18166:18733  function setContracts(... */\n    tag_55:\n        /* \"contracts/OrderRouter_flattened.sol\":17830:17840  msg.sender */\n      caller\n        /* \"contracts/OrderRouter_flattened.sol\":17810:17841  authorizedAddresses[msg.sender] */\n      0x00\n      swap1\n      dup2\n      mstore\n        /* \"contracts/OrderRouter_flattened.sol\":17810:17829  authorizedAddresses */\n      0x04\n        /* \"contracts/OrderRouter_flattened.sol\":17810:17841  authorizedAddresses[msg.sender] */\n      0x20\n      mstore\n      0x40\n      swap1\n      keccak256\n      sload\n      0xff\n      and\n        /* \"contracts/OrderRouter_flattened.sol\":17802:17860  require(authorizedAddresses[msg.sender], \"Not authorized\") */\n      tag_145\n      jumpi\n      mload(0x40)\n      shl(0xe5, 0x461bcd)\n      dup2\n      mstore\n      0x04\n      add\n      tag_65\n      swap1\n      tag_66\n      jump\t// in\n    tag_145:\n        /* \"contracts/OrderRouter_flattened.sol\":12734:12755  _nonReentrantBefore() */\n      tag_148\n        /* \"contracts/OrderRouter_flattened.sol\":12734:12753  _nonReentrantBefore */\n      tag_69\n        /* \"contracts/OrderRouter_flattened.sol\":12734:12755  _nonReentrantBefore() */\n      jump\t// in\n    tag_148:\n        /* \"contracts/OrderRouter_flattened.sol\":15943:15962  _requireNotPaused() */\n      tag_150\n        /* \"contracts/OrderRouter_flattened.sol\":15943:15960  _requireNotPaused */\n      tag_72\n        /* \"contracts/OrderRouter_flattened.sol\":15943:15962  _requireNotPaused() */\n      jump\t// in\n    tag_150:\n      sub(shl(0xa0, 0x01), 0x01)\n        /* \"contracts/OrderRouter_flattened.sol\":18358:18386  _escrowHandler != address(0) */\n      dup4\n      and\n        /* \"contracts/OrderRouter_flattened.sol\":18350:18420  require(_escrowHandler != address(0), \"Invalid escrowHandler address\") */\n      tag_152\n      jumpi\n      mload(0x40)\n      shl(0xe5, 0x461bcd)\n      dup2\n      mstore\n        /* \"#utility.yul\":4987:4989   */\n      0x20\n        /* \"contracts/OrderRouter_flattened.sol\":18350:18420  require(_escrowHandler != address(0), \"Invalid escrowHandler address\") */\n      0x04\n      dup3\n      add\n        /* \"#utility.yul\":4969:4990   */\n      mstore\n        /* \"#utility.yul\":5026:5028   */\n      0x1d\n        /* \"#utility.yul\":5006:5024   */\n      0x24\n      dup3\n      add\n        /* \"#utility.yul\":4999:5029   */\n      mstore\n        /* \"#utility.yul\":5065:5096   */\n      0x496e76616c696420657363726f7748616e646c65722061646472657373000000\n        /* \"#utility.yul\":5045:5063   */\n      0x44\n      dup3\n      add\n        /* \"#utility.yul\":5038:5097   */\n      mstore\n        /* \"#utility.yul\":5114:5132   */\n      0x64\n      add\n        /* \"contracts/OrderRouter_flattened.sol\":18350:18420  require(_escrowHandler != address(0), \"Invalid escrowHandler address\") */\n      tag_65\n        /* \"#utility.yul\":4785:5138   */\n      jump\n        /* \"contracts/OrderRouter_flattened.sol\":18350:18420  require(_escrowHandler != address(0), \"Invalid escrowHandler address\") */\n    tag_152:\n      sub(shl(0xa0, 0x01), 0x01)\n        /* \"contracts/OrderRouter_flattened.sol\":18439:18464  _usdtOrders != address(0) */\n      dup3\n      and\n        /* \"contracts/OrderRouter_flattened.sol\":18431:18495  require(_usdtOrders != address(0), \"Invalid usdtOrders address\") */\n      tag_155\n      jumpi\n      mload(0x40)\n      shl(0xe5, 0x461bcd)\n      dup2\n      mstore\n        /* \"#utility.yul\":5345:5347   */\n      0x20\n        /* \"contracts/OrderRouter_flattened.sol\":18431:18495  require(_usdtOrders != address(0), \"Invalid usdtOrders address\") */\n      0x04\n      dup3\n      add\n        /* \"#utility.yul\":5327:5348   */\n      mstore\n        /* \"#utility.yul\":5384:5386   */\n      0x1a\n        /* \"#utility.yul\":5364:5382   */\n      0x24\n      dup3\n      add\n        /* \"#utility.yul\":5357:5387   */\n      mstore\n      shl(0x30, 0x496e76616c696420757364744f72646572732061646472657373)\n        /* \"#utility.yul\":5403:5421   */\n      0x44\n      dup3\n      add\n        /* \"#utility.yul\":5396:5452   */\n      mstore\n        /* \"#utility.yul\":5469:5487   */\n      0x64\n      add\n        /* \"contracts/OrderRouter_flattened.sol\":18431:18495  require(_usdtOrders != address(0), \"Invalid usdtOrders address\") */\n      tag_65\n        /* \"#utility.yul\":5143:5493   */\n      jump\n        /* \"contracts/OrderRouter_flattened.sol\":18431:18495  require(_usdtOrders != address(0), \"Invalid usdtOrders address\") */\n    tag_155:\n      sub(shl(0xa0, 0x01), 0x01)\n        /* \"contracts/OrderRouter_flattened.sol\":18514:18539  _usdcOrders != address(0) */\n      dup2\n      and\n        /* \"contracts/OrderRouter_flattened.sol\":18506:18570  require(_usdcOrders != address(0), \"Invalid usdcOrders address\") */\n      tag_158\n      jumpi\n      mload(0x40)\n      shl(0xe5, 0x461bcd)\n      dup2\n      mstore\n        /* \"#utility.yul\":5700:5702   */\n      0x20\n        /* \"contracts/OrderRouter_flattened.sol\":18506:18570  require(_usdcOrders != address(0), \"Invalid usdcOrders address\") */\n      0x04\n      dup3\n      add\n        /* \"#utility.yul\":5682:5703   */\n      mstore\n        /* \"#utility.yul\":5739:5741   */\n      0x1a\n        /* \"#utility.yul\":5719:5737   */\n      0x24\n      dup3\n      add\n        /* \"#utility.yul\":5712:5742   */\n      mstore\n      shl(0x30, 0x496e76616c696420757364634f72646572732061646472657373)\n        /* \"#utility.yul\":5758:5776   */\n      0x44\n      dup3\n      add\n        /* \"#utility.yul\":5751:5807   */\n      mstore\n        /* \"#utility.yul\":5824:5842   */\n      0x64\n      add\n        /* \"contracts/OrderRouter_flattened.sol\":18506:18570  require(_usdcOrders != address(0), \"Invalid usdcOrders address\") */\n      tag_65\n        /* \"#utility.yul\":5498:5848   */\n      jump\n        /* \"contracts/OrderRouter_flattened.sol\":18506:18570  require(_usdcOrders != address(0), \"Invalid usdcOrders address\") */\n    tag_158:\n        /* \"contracts/OrderRouter_flattened.sol\":18583:18596  escrowHandler */\n      0x01\n        /* \"contracts/OrderRouter_flattened.sol\":18583:18629  escrowHandler = IEscrowHandler(_escrowHandler) */\n      dup1\n      sload\n      not(sub(shl(0xa8, 0x01), 0x0100))\n      and\n      0x0100\n      sub(shl(0xa0, 0x01), 0x01)\n      swap6\n      dup7\n      and\n      mul\n      or\n      dup2\n      sstore\n        /* \"contracts/OrderRouter_flattened.sol\":18640:18650  usdtOrders */\n      0x02\n        /* \"contracts/OrderRouter_flattened.sol\":18640:18677  usdtOrders = IUSDTorders(_usdtOrders) */\n      dup1\n      sload\n      not(sub(shl(0xa0, 0x01), 0x01))\n      swap1\n      dup2\n      and\n      swap5\n      dup7\n      and\n      swap5\n      swap1\n      swap5\n      or\n      swap1\n      sstore\n        /* \"contracts/OrderRouter_flattened.sol\":18688:18698  usdcOrders */\n      0x03\n        /* \"contracts/OrderRouter_flattened.sol\":18688:18725  usdcOrders = IUSDCorders(_usdcOrders) */\n      dup1\n      sload\n      swap1\n      swap4\n      and\n      swap2\n      swap1\n      swap4\n      and\n      or\n      swap1\n      sstore\n      0x00\n        /* \"contracts/OrderRouter_flattened.sol\":13320:13341  _status = NOT_ENTERED */\n      sstore\n        /* \"contracts/OrderRouter_flattened.sol\":18166:18733  function setContracts(... */\n      jump\t// out\n        /* \"contracts/OrderRouter_flattened.sol\":18741:20130  function routeBuyOrder(... */\n    tag_58:\n        /* \"contracts/OrderRouter_flattened.sol\":17830:17840  msg.sender */\n      caller\n        /* \"contracts/OrderRouter_flattened.sol\":17810:17841  authorizedAddresses[msg.sender] */\n      0x00\n      swap1\n      dup2\n      mstore\n        /* \"contracts/OrderRouter_flattened.sol\":17810:17829  authorizedAddresses */\n      0x04\n        /* \"contracts/OrderRouter_flattened.sol\":17810:17841  authorizedAddresses[msg.sender] */\n      0x20\n      mstore\n      0x40\n      swap1\n      keccak256\n      sload\n      0xff\n      and\n        /* \"contracts/OrderRouter_flattened.sol\":17802:17860  require(authorizedAddresses[msg.sender], \"Not authorized\") */\n      tag_163\n      jumpi\n      mload(0x40)\n      shl(0xe5, 0x461bcd)\n      dup2\n      mstore\n      0x04\n      add\n      tag_65\n      swap1\n      tag_66\n      jump\t// in\n    tag_163:\n        /* \"contracts/OrderRouter_flattened.sol\":12734:12755  _nonReentrantBefore() */\n      tag_166\n        /* \"contracts/OrderRouter_flattened.sol\":12734:12753  _nonReentrantBefore */\n      tag_69\n        /* \"contracts/OrderRouter_flattened.sol\":12734:12755  _nonReentrantBefore() */\n      jump\t// in\n    tag_166:\n        /* \"contracts/OrderRouter_flattened.sol\":15943:15962  _requireNotPaused() */\n      tag_168\n        /* \"contracts/OrderRouter_flattened.sol\":15943:15960  _requireNotPaused */\n      tag_72\n        /* \"contracts/OrderRouter_flattened.sol\":15943:15962  _requireNotPaused() */\n      jump\t// in\n    tag_168:\n        /* \"contracts/OrderRouter_flattened.sol\":19091:19124  SharedStructs.PaymentMethod.Ether */\n      0x00\n        /* \"contracts/OrderRouter_flattened.sol\":19073:19087  _priceCurrency */\n      dup3\n        /* \"contracts/OrderRouter_flattened.sol\":19073:19124  _priceCurrency == SharedStructs.PaymentMethod.Ether */\n      0x02\n      dup2\n      gt\n      iszero\n      tag_173\n      jumpi\n      tag_173\n      tag_76\n      jump\t// in\n    tag_173:\n      sub\n        /* \"contracts/OrderRouter_flattened.sol\":19069:20123  if (_priceCurrency == SharedStructs.PaymentMethod.Ether) {... */\n      tag_174\n      jumpi\n        /* \"contracts/OrderRouter_flattened.sol\":19141:19154  escrowHandler */\n      sload(0x01)\n        /* \"contracts/OrderRouter_flattened.sol\":19141:19384  escrowHandler.addBuyOrder(... */\n      mload(0x40)\n      shl(0xe4, 0x07e8843d)\n      dup2\n      mstore\n        /* \"contracts/OrderRouter_flattened.sol\":19141:19154  escrowHandler */\n      0x0100\n      swap1\n      swap2\n      div\n      sub(shl(0xa0, 0x01), 0x01)\n      and\n      swap1\n        /* \"contracts/OrderRouter_flattened.sol\":19141:19166  escrowHandler.addBuyOrder */\n      0x7e8843d0\n      swap1\n        /* \"contracts/OrderRouter_flattened.sol\":19141:19384  escrowHandler.addBuyOrder(... */\n      tag_80\n      swap1\n        /* \"contracts/OrderRouter_flattened.sol\":19185:19193  _orderID */\n      dup11\n      swap1\n        /* \"contracts/OrderRouter_flattened.sol\":19212:19217  buyer */\n      dup11\n      swap1\n        /* \"contracts/OrderRouter_flattened.sol\":19236:19242  _price */\n      dup11\n      swap1\n        /* \"contracts/OrderRouter_flattened.sol\":19261:19268  _amount */\n      dup11\n      swap1\n        /* \"contracts/OrderRouter_flattened.sol\":19287:19297  _assetType */\n      dup11\n      swap1\n        /* \"contracts/OrderRouter_flattened.sol\":19316:19330  _priceCurrency */\n      dup11\n      swap1\n        /* \"contracts/OrderRouter_flattened.sol\":19349:19369  authorizedBuyersOnly */\n      dup11\n      swap1\n        /* \"contracts/OrderRouter_flattened.sol\":19141:19384  escrowHandler.addBuyOrder(... */\n      0x04\n      add\n      tag_81\n      jump\t// in\n        /* \"contracts/OrderRouter_flattened.sol\":19069:20123  if (_priceCurrency == SharedStructs.PaymentMethod.Ether) {... */\n    tag_174:\n        /* \"contracts/OrderRouter_flattened.sol\":19424:19456  SharedStructs.PaymentMethod.USDT */\n      0x01\n        /* \"contracts/OrderRouter_flattened.sol\":19406:19420  _priceCurrency */\n      dup3\n        /* \"contracts/OrderRouter_flattened.sol\":19406:19456  _priceCurrency == SharedStructs.PaymentMethod.USDT */\n      0x02\n      dup2\n      gt\n      iszero\n      tag_183\n      jumpi\n      tag_183\n      tag_76\n      jump\t// in\n    tag_183:\n      sub\n        /* \"contracts/OrderRouter_flattened.sol\":19402:20123  if (_priceCurrency == SharedStructs.PaymentMethod.USDT) {... */\n      tag_184\n      jumpi\n        /* \"contracts/OrderRouter_flattened.sol\":19473:19483  usdtOrders */\n      sload(0x02)\n        /* \"contracts/OrderRouter_flattened.sol\":19473:19713  usdtOrders.addBuyOrder(... */\n      mload(0x40)\n      shl(0xe4, 0x07e8843d)\n      dup2\n      mstore\n      sub(shl(0xa0, 0x01), 0x01)\n        /* \"contracts/OrderRouter_flattened.sol\":19473:19483  usdtOrders */\n      swap1\n      swap2\n      and\n      swap1\n        /* \"contracts/OrderRouter_flattened.sol\":19473:19495  usdtOrders.addBuyOrder */\n      0x7e8843d0\n      swap1\n        /* \"contracts/OrderRouter_flattened.sol\":19473:19713  usdtOrders.addBuyOrder(... */\n      tag_80\n      swap1\n        /* \"contracts/OrderRouter_flattened.sol\":19514:19522  _orderID */\n      dup11\n      swap1\n        /* \"contracts/OrderRouter_flattened.sol\":19541:19546  buyer */\n      dup11\n      swap1\n        /* \"contracts/OrderRouter_flattened.sol\":19565:19571  _price */\n      dup11\n      swap1\n        /* \"contracts/OrderRouter_flattened.sol\":19590:19597  _amount */\n      dup11\n      swap1\n        /* \"contracts/OrderRouter_flattened.sol\":19616:19626  _assetType */\n      dup11\n      swap1\n        /* \"contracts/OrderRouter_flattened.sol\":19645:19659  _priceCurrency */\n      dup11\n      swap1\n        /* \"contracts/OrderRouter_flattened.sol\":19678:19698  authorizedBuyersOnly */\n      dup11\n      swap1\n        /* \"contracts/OrderRouter_flattened.sol\":19473:19713  usdtOrders.addBuyOrder(... */\n      0x04\n      add\n      tag_81\n      jump\t// in\n        /* \"contracts/OrderRouter_flattened.sol\":19402:20123  if (_priceCurrency == SharedStructs.PaymentMethod.USDT) {... */\n    tag_184:\n        /* \"contracts/OrderRouter_flattened.sol\":19753:19785  SharedStructs.PaymentMethod.USDC */\n      0x02\n        /* \"contracts/OrderRouter_flattened.sol\":19735:19749  _priceCurrency */\n      dup3\n        /* \"contracts/OrderRouter_flattened.sol\":19735:19785  _priceCurrency == SharedStructs.PaymentMethod.USDC */\n      0x02\n      dup2\n      gt\n      iszero\n      tag_193\n      jumpi\n      tag_193\n      tag_76\n      jump\t// in\n    tag_193:\n      sub\n        /* \"contracts/OrderRouter_flattened.sol\":19731:20123  if (_priceCurrency == SharedStructs.PaymentMethod.USDC) {... */\n      tag_100\n      jumpi\n        /* \"contracts/OrderRouter_flattened.sol\":19802:19812  usdcOrders */\n      sload(0x03)\n        /* \"contracts/OrderRouter_flattened.sol\":19802:20042  usdcOrders.addBuyOrder(... */\n      mload(0x40)\n      shl(0xe4, 0x07e8843d)\n      dup2\n      mstore\n      sub(shl(0xa0, 0x01), 0x01)\n        /* \"contracts/OrderRouter_flattened.sol\":19802:19812  usdcOrders */\n      swap1\n      swap2\n      and\n      swap1\n        /* \"contracts/OrderRouter_flattened.sol\":19802:19824  usdcOrders.addBuyOrder */\n      0x7e8843d0\n      swap1\n        /* \"contracts/OrderRouter_flattened.sol\":19802:20042  usdcOrders.addBuyOrder(... */\n      tag_80\n      swap1\n        /* \"contracts/OrderRouter_flattened.sol\":19843:19851  _orderID */\n      dup11\n      swap1\n        /* \"contracts/OrderRouter_flattened.sol\":19870:19875  buyer */\n      dup11\n      swap1\n        /* \"contracts/OrderRouter_flattened.sol\":19894:19900  _price */\n      dup11\n      swap1\n        /* \"contracts/OrderRouter_flattened.sol\":19919:19926  _amount */\n      dup11\n      swap1\n        /* \"contracts/OrderRouter_flattened.sol\":19945:19955  _assetType */\n      dup11\n      swap1\n        /* \"contracts/OrderRouter_flattened.sol\":19974:19988  _priceCurrency */\n      dup11\n      swap1\n        /* \"contracts/OrderRouter_flattened.sol\":20007:20027  authorizedBuyersOnly */\n      dup11\n      swap1\n        /* \"contracts/OrderRouter_flattened.sol\":19802:20042  usdcOrders.addBuyOrder(... */\n      0x04\n      add\n      tag_81\n      jump\t// in\n        /* \"contracts/OrderRouter_flattened.sol\":12814:13129  function _nonReentrantBefore() private {... */\n    tag_69:\n        /* \"contracts/OrderRouter_flattened.sol\":12112:12113  2 */\n      0x02\n        /* \"contracts/OrderRouter_flattened.sol\":12943:12950  _status */\n      sload(0x00)\n        /* \"contracts/OrderRouter_flattened.sol\":12943:12961  _status == ENTERED */\n      sub\n        /* \"contracts/OrderRouter_flattened.sol\":12939:13027  if (_status == ENTERED) {... */\n      tag_203\n      jumpi\n        /* \"contracts/OrderRouter_flattened.sol\":12985:13015  ReentrancyGuardReentrantCall() */\n      mload(0x40)\n      shl(0xe0, 0x3ee5aeb5)\n      dup2\n      mstore\n      0x04\n      add\n      mload(0x40)\n      dup1\n      swap2\n      sub\n      swap1\n      revert\n        /* \"contracts/OrderRouter_flattened.sol\":12939:13027  if (_status == ENTERED) {... */\n    tag_203:\n        /* \"contracts/OrderRouter_flattened.sol\":12112:12113  2 */\n      0x02\n        /* \"contracts/OrderRouter_flattened.sol\":13104:13111  _status */\n      0x00\n        /* \"contracts/OrderRouter_flattened.sol\":13104:13121  _status = ENTERED */\n      sstore\n        /* \"contracts/OrderRouter_flattened.sol\":12814:13129  function _nonReentrantBefore() private {... */\n      jump\t// out\n        /* \"contracts/OrderRouter_flattened.sol\":16497:16605  function _requireNotPaused() internal view virtual {... */\n    tag_72:\n        /* \"contracts/OrderRouter_flattened.sol\":16409:16416  _paused */\n      and(0xff, sload(0x01))\n        /* \"contracts/OrderRouter_flattened.sol\":16567:16576  !paused() */\n      iszero\n        /* \"contracts/OrderRouter_flattened.sol\":16559:16597  require(!paused(), \"Pausable: paused\") */\n      tag_131\n      jumpi\n      mload(0x40)\n      shl(0xe5, 0x461bcd)\n      dup2\n      mstore\n        /* \"#utility.yul\":6055:6057   */\n      0x20\n        /* \"contracts/OrderRouter_flattened.sol\":16559:16597  require(!paused(), \"Pausable: paused\") */\n      0x04\n      dup3\n      add\n        /* \"#utility.yul\":6037:6058   */\n      mstore\n        /* \"#utility.yul\":6094:6096   */\n      0x10\n        /* \"#utility.yul\":6074:6092   */\n      0x24\n      dup3\n      add\n        /* \"#utility.yul\":6067:6097   */\n      mstore\n      shl(0x82, 0x14185d5cd8589b194e881c185d5cd959)\n        /* \"#utility.yul\":6113:6131   */\n      0x44\n      dup3\n      add\n        /* \"#utility.yul\":6106:6152   */\n      mstore\n        /* \"#utility.yul\":6169:6187   */\n      0x64\n      add\n        /* \"contracts/OrderRouter_flattened.sol\":16559:16597  require(!paused(), \"Pausable: paused\") */\n      tag_65\n        /* \"#utility.yul\":5853:6193   */\n      jump\n        /* \"contracts/OrderRouter_flattened.sol\":17193:17313  function _unpause() internal virtual whenPaused {... */\n    tag_130:\n        /* \"contracts/OrderRouter_flattened.sol\":16202:16218  _requirePaused() */\n      tag_211\n        /* \"contracts/OrderRouter_flattened.sol\":16202:16216  _requirePaused */\n      tag_212\n        /* \"contracts/OrderRouter_flattened.sol\":16202:16218  _requirePaused() */\n      jump\t// in\n    tag_211:\n        /* \"contracts/OrderRouter_flattened.sol\":17252:17259  _paused */\n      0x01\n        /* \"contracts/OrderRouter_flattened.sol\":17252:17267  _paused = false */\n      dup1\n      sload\n      not(0xff)\n      and\n      swap1\n      sstore\n        /* \"contracts/OrderRouter_flattened.sol\":17283:17305  Unpaused(_msgSender()) */\n      0x5db9ee0a495bf2e6ff9c91a7834c1ba4fdd244a5e8aa4e537bd38aeae4b073aa\n        /* \"contracts/OrderRouter_flattened.sol\":14424:14434  msg.sender */\n      caller\n        /* \"contracts/OrderRouter_flattened.sol\":17292:17304  _msgSender() */\n    tag_214:\n        /* \"contracts/OrderRouter_flattened.sol\":17283:17305  Unpaused(_msgSender()) */\n      mload(0x40)\n      tag_216\n      swap2\n      swap1\n      tag_37\n      jump\t// in\n    tag_216:\n      mload(0x40)\n      dup1\n      swap2\n      sub\n      swap1\n      log1\n        /* \"contracts/OrderRouter_flattened.sol\":17193:17313  function _unpause() internal virtual whenPaused {... */\n      jump\t// out\n        /* \"contracts/OrderRouter_flattened.sol\":16934:17052  function _pause() internal virtual whenNotPaused {... */\n    tag_142:\n        /* \"contracts/OrderRouter_flattened.sol\":15943:15962  _requireNotPaused() */\n      tag_218\n        /* \"contracts/OrderRouter_flattened.sol\":15943:15960  _requireNotPaused */\n      tag_72\n        /* \"contracts/OrderRouter_flattened.sol\":15943:15962  _requireNotPaused() */\n      jump\t// in\n    tag_218:\n        /* \"contracts/OrderRouter_flattened.sol\":17004:17008  true */\n      0x01\n        /* \"contracts/OrderRouter_flattened.sol\":16994:17008  _paused = true */\n      dup1\n      sload\n      not(0xff)\n      and\n      dup2\n      or\n      swap1\n      sstore\n        /* \"contracts/OrderRouter_flattened.sol\":17024:17044  Paused(_msgSender()) */\n      0x62e78cea01bee320cd4e420270b5ea74000d11b0c9f74754ebdbfc544b05a258\n        /* \"contracts/OrderRouter_flattened.sol\":14424:14434  msg.sender */\n      caller\n        /* \"contracts/OrderRouter_flattened.sol\":17031:17043  _msgSender() */\n      tag_214\n        /* \"contracts/OrderRouter_flattened.sol\":14344:14442  function _msgSender() internal view virtual returns (address) {... */\n      jump\n        /* \"contracts/OrderRouter_flattened.sol\":16682:16790  function _requirePaused() internal view virtual {... */\n    tag_212:\n        /* \"contracts/OrderRouter_flattened.sol\":16409:16416  _paused */\n      and(0xff, sload(0x01))\n        /* \"contracts/OrderRouter_flattened.sol\":16741:16782  require(paused(), \"Pausable: not paused\") */\n      tag_131\n      jumpi\n      mload(0x40)\n      shl(0xe5, 0x461bcd)\n      dup2\n      mstore\n        /* \"#utility.yul\":6400:6402   */\n      0x20\n        /* \"contracts/OrderRouter_flattened.sol\":16741:16782  require(paused(), \"Pausable: not paused\") */\n      0x04\n      dup3\n      add\n        /* \"#utility.yul\":6382:6403   */\n      mstore\n        /* \"#utility.yul\":6439:6441   */\n      0x14\n        /* \"#utility.yul\":6419:6437   */\n      0x24\n      dup3\n      add\n        /* \"#utility.yul\":6412:6442   */\n      mstore\n      shl(0x62, 0x14185d5cd8589b194e881b9bdd081c185d5cd959)\n        /* \"#utility.yul\":6458:6476   */\n      0x44\n      dup3\n      add\n        /* \"#utility.yul\":6451:6501   */\n      mstore\n        /* \"#utility.yul\":6518:6536   */\n      0x64\n      add\n        /* \"contracts/OrderRouter_flattened.sol\":16741:16782  require(paused(), \"Pausable: not paused\") */\n      tag_65\n        /* \"#utility.yul\":6198:6542   */\n      jump\n        /* \"#utility.yul\":14:187   */\n    tag_228:\n        /* \"#utility.yul\":82:102   */\n      dup1\n      calldataload\n      sub(shl(0xa0, 0x01), 0x01)\n        /* \"#utility.yul\":131:162   */\n      dup2\n      and\n        /* \"#utility.yul\":121:163   */\n      dup2\n      eq\n        /* \"#utility.yul\":111:181   */\n      tag_232\n      jumpi\n        /* \"#utility.yul\":177:178   */\n      0x00\n        /* \"#utility.yul\":174:175   */\n      0x00\n        /* \"#utility.yul\":167:179   */\n      revert\n        /* \"#utility.yul\":111:181   */\n    tag_232:\n        /* \"#utility.yul\":14:187   */\n      swap2\n      swap1\n      pop\n      jump\t// out\n        /* \"#utility.yul\":192:352   */\n    tag_229:\n        /* \"#utility.yul\":257:277   */\n      dup1\n      calldataload\n        /* \"#utility.yul\":313:326   */\n      dup1\n      iszero\n        /* \"#utility.yul\":306:327   */\n      iszero\n        /* \"#utility.yul\":296:328   */\n      dup2\n      eq\n        /* \"#utility.yul\":286:346   */\n      tag_232\n      jumpi\n        /* \"#utility.yul\":342:343   */\n      0x00\n        /* \"#utility.yul\":339:340   */\n      0x00\n        /* \"#utility.yul\":332:344   */\n      revert\n        /* \"#utility.yul\":357:1295   */\n    tag_18:\n        /* \"#utility.yul\":493:499   */\n      0x00\n        /* \"#utility.yul\":501:507   */\n      0x00\n        /* \"#utility.yul\":509:515   */\n      0x00\n        /* \"#utility.yul\":517:523   */\n      0x00\n        /* \"#utility.yul\":525:531   */\n      0x00\n        /* \"#utility.yul\":533:539   */\n      0x00\n        /* \"#utility.yul\":541:547   */\n      0x00\n        /* \"#utility.yul\":594:597   */\n      0xe0\n        /* \"#utility.yul\":582:591   */\n      dup9\n        /* \"#utility.yul\":573:580   */\n      dup11\n        /* \"#utility.yul\":569:592   */\n      sub\n        /* \"#utility.yul\":565:598   */\n      slt\n        /* \"#utility.yul\":562:615   */\n      iszero\n      tag_236\n      jumpi\n        /* \"#utility.yul\":611:612   */\n      0x00\n        /* \"#utility.yul\":608:609   */\n      0x00\n        /* \"#utility.yul\":601:613   */\n      revert\n        /* \"#utility.yul\":562:615   */\n    tag_236:\n        /* \"#utility.yul\":656:679   */\n      dup8\n      calldataload\n      swap7\n      pop\n        /* \"#utility.yul\":722:760   */\n      tag_237\n        /* \"#utility.yul\":756:758   */\n      0x20\n        /* \"#utility.yul\":741:759   */\n      dup10\n      add\n        /* \"#utility.yul\":722:760   */\n      tag_228\n      jump\t// in\n    tag_237:\n        /* \"#utility.yul\":712:760   */\n      swap6\n      pop\n        /* \"#utility.yul\":833:835   */\n      0x40\n        /* \"#utility.yul\":818:836   */\n      dup9\n      add\n        /* \"#utility.yul\":805:837   */\n      calldataload\n      swap5\n      pop\n        /* \"#utility.yul\":936:938   */\n      0x60\n        /* \"#utility.yul\":921:939   */\n      dup9\n      add\n        /* \"#utility.yul\":908:940   */\n      calldataload\n      swap4\n      pop\n        /* \"#utility.yul\":1018:1021   */\n      0x80\n        /* \"#utility.yul\":1003:1022   */\n      dup9\n      add\n        /* \"#utility.yul\":990:1023   */\n      calldataload\n        /* \"#utility.yul\":1054:1055   */\n      0x01\n        /* \"#utility.yul\":1042:1056   */\n      dup2\n      lt\n        /* \"#utility.yul\":1032:1074   */\n      tag_238\n      jumpi\n        /* \"#utility.yul\":1070:1071   */\n      0x00\n        /* \"#utility.yul\":1067:1068   */\n      0x00\n        /* \"#utility.yul\":1060:1072   */\n      revert\n        /* \"#utility.yul\":1032:1074   */\n    tag_238:\n        /* \"#utility.yul\":1093:1100   */\n      swap3\n      pop\n        /* \"#utility.yul\":1152:1155   */\n      0xa0\n        /* \"#utility.yul\":1137:1156   */\n      dup9\n      add\n        /* \"#utility.yul\":1124:1157   */\n      calldataload\n        /* \"#utility.yul\":1188:1189   */\n      0x03\n        /* \"#utility.yul\":1176:1190   */\n      dup2\n      lt\n        /* \"#utility.yul\":1166:1208   */\n      tag_239\n      jumpi\n        /* \"#utility.yul\":1204:1205   */\n      0x00\n        /* \"#utility.yul\":1201:1202   */\n      0x00\n        /* \"#utility.yul\":1194:1206   */\n      revert\n        /* \"#utility.yul\":1166:1208   */\n    tag_239:\n        /* \"#utility.yul\":1227:1234   */\n      swap2\n      pop\n        /* \"#utility.yul\":1253:1289   */\n      tag_240\n        /* \"#utility.yul\":1284:1287   */\n      0xc0\n        /* \"#utility.yul\":1269:1288   */\n      dup10\n      add\n        /* \"#utility.yul\":1253:1289   */\n      tag_229\n      jump\t// in\n    tag_240:\n        /* \"#utility.yul\":1243:1289   */\n      swap1\n      pop\n        /* \"#utility.yul\":357:1295   */\n      swap3\n      swap6\n      swap9\n      swap2\n      swap5\n      swap8\n      pop\n      swap3\n      swap6\n      pop\n      jump\t// out\n        /* \"#utility.yul\":1300:1554   */\n    tag_22:\n        /* \"#utility.yul\":1365:1371   */\n      0x00\n        /* \"#utility.yul\":1373:1379   */\n      0x00\n        /* \"#utility.yul\":1426:1428   */\n      0x40\n        /* \"#utility.yul\":1414:1423   */\n      dup4\n        /* \"#utility.yul\":1405:1412   */\n      dup6\n        /* \"#utility.yul\":1401:1424   */\n      sub\n        /* \"#utility.yul\":1397:1429   */\n      slt\n        /* \"#utility.yul\":1394:1446   */\n      iszero\n      tag_242\n      jumpi\n        /* \"#utility.yul\":1442:1443   */\n      0x00\n        /* \"#utility.yul\":1439:1440   */\n      0x00\n        /* \"#utility.yul\":1432:1444   */\n      revert\n        /* \"#utility.yul\":1394:1446   */\n    tag_242:\n        /* \"#utility.yul\":1465:1494   */\n      tag_243\n        /* \"#utility.yul\":1484:1493   */\n      dup4\n        /* \"#utility.yul\":1465:1494   */\n      tag_228\n      jump\t// in\n    tag_243:\n        /* \"#utility.yul\":1455:1494   */\n      swap2\n      pop\n        /* \"#utility.yul\":1513:1548   */\n      tag_244\n        /* \"#utility.yul\":1544:1546   */\n      0x20\n        /* \"#utility.yul\":1533:1542   */\n      dup5\n        /* \"#utility.yul\":1529:1547   */\n      add\n        /* \"#utility.yul\":1513:1548   */\n      tag_229\n      jump\t// in\n    tag_244:\n        /* \"#utility.yul\":1503:1548   */\n      swap1\n      pop\n        /* \"#utility.yul\":1300:1554   */\n      swap3\n      pop\n      swap3\n      swap1\n      pop\n      jump\t// out\n        /* \"#utility.yul\":1559:1745   */\n    tag_26:\n        /* \"#utility.yul\":1618:1624   */\n      0x00\n        /* \"#utility.yul\":1671:1673   */\n      0x20\n        /* \"#utility.yul\":1659:1668   */\n      dup3\n        /* \"#utility.yul\":1650:1657   */\n      dup5\n        /* \"#utility.yul\":1646:1669   */\n      sub\n        /* \"#utility.yul\":1642:1674   */\n      slt\n        /* \"#utility.yul\":1639:1691   */\n      iszero\n      tag_246\n      jumpi\n        /* \"#utility.yul\":1687:1688   */\n      0x00\n        /* \"#utility.yul\":1684:1685   */\n      0x00\n        /* \"#utility.yul\":1677:1689   */\n      revert\n        /* \"#utility.yul\":1639:1691   */\n    tag_246:\n        /* \"#utility.yul\":1710:1739   */\n      tag_247\n        /* \"#utility.yul\":1729:1738   */\n      dup3\n        /* \"#utility.yul\":1710:1739   */\n      tag_228\n      jump\t// in\n    tag_247:\n        /* \"#utility.yul\":1700:1739   */\n      swap4\n        /* \"#utility.yul\":1559:1745   */\n      swap3\n      pop\n      pop\n      pop\n      jump\t// out\n        /* \"#utility.yul\":1942:2164   */\n    tag_37:\n      sub(shl(0xa0, 0x01), 0x01)\n        /* \"#utility.yul\":2125:2157   */\n      swap2\n      swap1\n      swap2\n      and\n        /* \"#utility.yul\":2107:2158   */\n      dup2\n      mstore\n        /* \"#utility.yul\":2095:2097   */\n      0x20\n        /* \"#utility.yul\":2080:2098   */\n      add\n      swap1\n        /* \"#utility.yul\":1942:2164   */\n      jump\t// out\n        /* \"#utility.yul\":2834:3168   */\n    tag_54:\n        /* \"#utility.yul\":2911:2917   */\n      0x00\n        /* \"#utility.yul\":2919:2925   */\n      0x00\n        /* \"#utility.yul\":2927:2933   */\n      0x00\n        /* \"#utility.yul\":2980:2982   */\n      0x60\n        /* \"#utility.yul\":2968:2977   */\n      dup5\n        /* \"#utility.yul\":2959:2966   */\n      dup7\n        /* \"#utility.yul\":2955:2978   */\n      sub\n        /* \"#utility.yul\":2951:2983   */\n      slt\n        /* \"#utility.yul\":2948:3000   */\n      iszero\n      tag_254\n      jumpi\n        /* \"#utility.yul\":2996:2997   */\n      0x00\n        /* \"#utility.yul\":2993:2994   */\n      0x00\n        /* \"#utility.yul\":2986:2998   */\n      revert\n        /* \"#utility.yul\":2948:3000   */\n    tag_254:\n        /* \"#utility.yul\":3019:3048   */\n      tag_255\n        /* \"#utility.yul\":3038:3047   */\n      dup5\n        /* \"#utility.yul\":3019:3048   */\n      tag_228\n      jump\t// in\n    tag_255:\n        /* \"#utility.yul\":3009:3048   */\n      swap3\n      pop\n        /* \"#utility.yul\":3067:3105   */\n      tag_256\n        /* \"#utility.yul\":3101:3103   */\n      0x20\n        /* \"#utility.yul\":3090:3099   */\n      dup6\n        /* \"#utility.yul\":3086:3104   */\n      add\n        /* \"#utility.yul\":3067:3105   */\n      tag_228\n      jump\t// in\n    tag_256:\n        /* \"#utility.yul\":3057:3105   */\n      swap2\n      pop\n        /* \"#utility.yul\":3124:3162   */\n      tag_257\n        /* \"#utility.yul\":3158:3160   */\n      0x40\n        /* \"#utility.yul\":3147:3156   */\n      dup6\n        /* \"#utility.yul\":3143:3161   */\n      add\n        /* \"#utility.yul\":3124:3162   */\n      tag_228\n      jump\t// in\n    tag_257:\n        /* \"#utility.yul\":3114:3162   */\n      swap1\n      pop\n        /* \"#utility.yul\":2834:3168   */\n      swap3\n      pop\n      swap3\n      pop\n      swap3\n      jump\t// out\n        /* \"#utility.yul\":3173:3511   */\n    tag_66:\n        /* \"#utility.yul\":3375:3377   */\n      0x20\n        /* \"#utility.yul\":3357:3378   */\n      dup1\n      dup3\n      mstore\n        /* \"#utility.yul\":3414:3416   */\n      0x0e\n        /* \"#utility.yul\":3394:3412   */\n      swap1\n      dup3\n      add\n        /* \"#utility.yul\":3387:3417   */\n      mstore\n      shl(0x92, 0x139bdd08185d5d1a1bdc9a5e9959)\n        /* \"#utility.yul\":3448:3450   */\n      0x40\n        /* \"#utility.yul\":3433:3451   */\n      dup3\n      add\n        /* \"#utility.yul\":3426:3470   */\n      mstore\n        /* \"#utility.yul\":3502:3504   */\n      0x60\n        /* \"#utility.yul\":3487:3505   */\n      add\n      swap1\n        /* \"#utility.yul\":3173:3511   */\n      jump\t// out\n        /* \"#utility.yul\":3516:3643   */\n    tag_76:\n        /* \"#utility.yul\":3577:3587   */\n      0x4e487b71\n        /* \"#utility.yul\":3572:3575   */\n      0xe0\n        /* \"#utility.yul\":3568:3588   */\n      shl\n        /* \"#utility.yul\":3565:3566   */\n      0x00\n        /* \"#utility.yul\":3558:3589   */\n      mstore\n        /* \"#utility.yul\":3608:3612   */\n      0x21\n        /* \"#utility.yul\":3605:3606   */\n      0x04\n        /* \"#utility.yul\":3598:3613   */\n      mstore\n        /* \"#utility.yul\":3632:3636   */\n      0x24\n        /* \"#utility.yul\":3629:3630   */\n      0x00\n        /* \"#utility.yul\":3622:3637   */\n      revert\n        /* \"#utility.yul\":3648:4425   */\n    tag_81:\n        /* \"#utility.yul\":3979:4004   */\n      dup8\n      dup2\n      mstore\n      sub(shl(0xa0, 0x01), 0x01)\n        /* \"#utility.yul\":4040:4072   */\n      dup8\n      and\n        /* \"#utility.yul\":4035:4037   */\n      0x20\n        /* \"#utility.yul\":4020:4038   */\n      dup3\n      add\n        /* \"#utility.yul\":4013:4073   */\n      mstore\n        /* \"#utility.yul\":4104:4106   */\n      0x40\n        /* \"#utility.yul\":4089:4107   */\n      dup2\n      add\n        /* \"#utility.yul\":4082:4116   */\n      dup7\n      swap1\n      mstore\n        /* \"#utility.yul\":4147:4149   */\n      0x60\n        /* \"#utility.yul\":4132:4150   */\n      dup2\n      add\n        /* \"#utility.yul\":4125:4159   */\n      dup6\n      swap1\n      mstore\n        /* \"#utility.yul\":3966:3969   */\n      0xe0\n        /* \"#utility.yul\":3951:3970   */\n      dup2\n      add\n        /* \"#utility.yul\":4069:4070   */\n      0x01\n        /* \"#utility.yul\":4178:4191   */\n      dup6\n      lt\n        /* \"#utility.yul\":4168:4215   */\n      tag_262\n      jumpi\n        /* \"#utility.yul\":4195:4213   */\n      tag_262\n      tag_76\n      jump\t// in\n    tag_262:\n        /* \"#utility.yul\":4252:4258   */\n      dup5\n        /* \"#utility.yul\":4246:4249   */\n      0x80\n        /* \"#utility.yul\":4235:4244   */\n      dup4\n        /* \"#utility.yul\":4231:4250   */\n      add\n        /* \"#utility.yul\":4224:4259   */\n      mstore\n        /* \"#utility.yul\":4289:4290   */\n      0x03\n        /* \"#utility.yul\":4281:4287   */\n      dup5\n        /* \"#utility.yul\":4278:4291   */\n      lt\n        /* \"#utility.yul\":4268:4315   */\n      tag_264\n      jumpi\n        /* \"#utility.yul\":4295:4313   */\n      tag_264\n      tag_76\n      jump\t// in\n    tag_264:\n        /* \"#utility.yul\":4352:4358   */\n      dup4\n        /* \"#utility.yul\":4346:4349   */\n      0xa0\n        /* \"#utility.yul\":4335:4344   */\n      dup4\n        /* \"#utility.yul\":4331:4350   */\n      add\n        /* \"#utility.yul\":4324:4359   */\n      mstore\n        /* \"#utility.yul\":4410:4416   */\n      dup3\n        /* \"#utility.yul\":4403:4417   */\n      iszero\n        /* \"#utility.yul\":4396:4418   */\n      iszero\n        /* \"#utility.yul\":4390:4393   */\n      0xc0\n        /* \"#utility.yul\":4379:4388   */\n      dup4\n        /* \"#utility.yul\":4375:4394   */\n      add\n        /* \"#utility.yul\":4368:4419   */\n      mstore\n        /* \"#utility.yul\":3648:4425   */\n      swap9\n      swap8\n      pop\n      pop\n      pop\n      pop\n      pop\n      pop\n      pop\n      pop\n      jump\t// out\n\n    auxdata: 0xa26469706673582212205d9dc772aa9f6621fb5c3382e175e16fe117de8a12410c16c1a5155f0f10d63e64736f6c634300081e0033\n}\n",
				"bytecode": {
					"linkReferences": {},
					"object": "6080604052348015600e575f5ffd5b5060015f818155815460ff19908116835533808352600460205260409092208054909116909217909155600580546001600160a01b0319169091179055610af7806100585f395ff3fe608060405234801561000f575f5ffd5b50600436106100ad575f3560e01c80630d462d44146100b15780631351cf51146100c657806313af4035146100d95780633f4ba83a146100ec5780635c975abb146100f457806371dc7725146101105780638456cb591461013057806387ad8f87146101385780638da5cb5b146101505780639c5338a514610163578063b3066d4914610176578063ced6f7df14610189578063f19e207e1461019c575b5f5ffd5b6100c46100bf366004610906565b6101be565b005b6100c46100d436600461097c565b610390565b6100c46100e73660046109ad565b6103f9565b6100c4610449565b60015460ff165b60405190151581526020015b60405180910390f35b600254610123906001600160a01b031681565b60405161010791906109cd565b6100c4610492565b6001546101239061010090046001600160a01b031681565b600554610123906001600160a01b031681565b600354610123906001600160a01b031681565b6100c46101843660046109e1565b6104d8565b6100c4610197366004610906565b61065e565b6100fb6101aa3660046109ad565b60046020525f908152604090205460ff1681565b335f9081526004602052604090205460ff166101f55760405162461bcd60e51b81526004016101ec90610a21565b60405180910390fd5b6101fd61079e565b6102056107c6565b5f82600281111561021857610218610a49565b0361028f576001546040516303aa2b9360e11b81526101009091046001600160a01b03169063075457269061025d908a908a908a908a908a908a908a90600401610a5d565b5f604051808303815f87803b158015610274575f5ffd5b505af1158015610286573d5f5f3e3d5ffd5b5050505061037e565b60018260028111156102a3576102a3610a49565b036102e4576002546040516303aa2b9360e11b81526001600160a01b039091169063075457269061025d908a908a908a908a908a908a908a90600401610a5d565b60028260028111156102f8576102f8610a49565b03610339576003546040516303aa2b9360e11b81526001600160a01b039091169063075457269061025d908a908a908a908a908a908a908a90600401610a5d565b60405162461bcd60e51b815260206004820152601a602482015279155b9cdd5c1c1bdc9d1959081c185e5b595b9d081b595d1a1bd960321b60448201526064016101ec565b61038760015f55565b50505050505050565b335f9081526004602052604090205460ff166103be5760405162461bcd60e51b81526004016101ec90610a21565b6103c661079e565b6103ce6107c6565b6001600160a01b0382165f908152600460205260408120805460ff1916831515179055600190555050565b335f9081526004602052604090205460ff166104275760405162461bcd60e51b81526004016101ec90610a21565b600580546001600160a01b0319166001600160a01b0392909216919091179055565b335f9081526004602052604090205460ff166104775760405162461bcd60e51b81526004016101ec90610a21565b61047f61079e565b61048761080c565b61049060015f55565b565b61049a6107c6565b335f9081526004602052604090205460ff166104c85760405162461bcd60e51b81526004016101ec90610a21565b6104d061079e565b610487610858565b335f9081526004602052604090205460ff166105065760405162461bcd60e51b81526004016101ec90610a21565b61050e61079e565b6105166107c6565b6001600160a01b03831661056c5760405162461bcd60e51b815260206004820152601d60248201527f496e76616c696420657363726f7748616e646c6572206164647265737300000060448201526064016101ec565b6001600160a01b0382166105bf5760405162461bcd60e51b815260206004820152601a602482015279496e76616c696420757364744f7264657273206164647265737360301b60448201526064016101ec565b6001600160a01b0381166106125760405162461bcd60e51b815260206004820152601a602482015279496e76616c696420757364634f7264657273206164647265737360301b60448201526064016101ec565b60018054610100600160a81b0319166101006001600160a01b0395861602178155600280546001600160a01b031990811694861694909417905560038054909316919093161790555f55565b335f9081526004602052604090205460ff1661068c5760405162461bcd60e51b81526004016101ec90610a21565b61069461079e565b61069c6107c6565b5f8260028111156106af576106af610a49565b036106f4576001546040516307e8843d60e41b81526101009091046001600160a01b031690637e8843d09061025d908a908a908a908a908a908a908a90600401610a5d565b600182600281111561070857610708610a49565b03610749576002546040516307e8843d60e41b81526001600160a01b0390911690637e8843d09061025d908a908a908a908a908a908a908a90600401610a5d565b600282600281111561075d5761075d610a49565b03610339576003546040516307e8843d60e41b81526001600160a01b0390911690637e8843d09061025d908a908a908a908a908a908a908a90600401610a5d565b60025f54036107c057604051633ee5aeb560e01b815260040160405180910390fd5b60025f55565b60015460ff16156104905760405162461bcd60e51b815260206004820152601060248201526f14185d5cd8589b194e881c185d5cd95960821b60448201526064016101ec565b610814610893565b6001805460ff191690557f5db9ee0a495bf2e6ff9c91a7834c1ba4fdd244a5e8aa4e537bd38aeae4b073aa335b60405161084e91906109cd565b60405180910390a1565b6108606107c6565b6001805460ff1916811790557f62e78cea01bee320cd4e420270b5ea74000d11b0c9f74754ebdbfc544b05a25833610841565b60015460ff166104905760405162461bcd60e51b815260206004820152601460248201527314185d5cd8589b194e881b9bdd081c185d5cd95960621b60448201526064016101ec565b80356001600160a01b03811681146108f2575f5ffd5b919050565b803580151581146108f2575f5ffd5b5f5f5f5f5f5f5f60e0888a03121561091c575f5ffd5b8735965061092c602089016108dc565b9550604088013594506060880135935060808801356001811061094d575f5ffd5b925060a088013560038110610960575f5ffd5b915061096e60c089016108f7565b905092959891949750929550565b5f5f6040838503121561098d575f5ffd5b610996836108dc565b91506109a4602084016108f7565b90509250929050565b5f602082840312156109bd575f5ffd5b6109c6826108dc565b9392505050565b6001600160a01b0391909116815260200190565b5f5f5f606084860312156109f3575f5ffd5b6109fc846108dc565b9250610a0a602085016108dc565b9150610a18604085016108dc565b90509250925092565b6020808252600e908201526d139bdd08185d5d1a1bdc9a5e995960921b604082015260600190565b634e487b7160e01b5f52602160045260245ffd5b8781526001600160a01b0387166020820152604081018690526060810185905260e0810160018510610a9157610a91610a49565b84608083015260038410610aa757610aa7610a49565b8360a083015282151560c08301529897505050505050505056fea26469706673582212205d9dc772aa9f6621fb5c3382e175e16fe117de8a12410c16c1a5155f0f10d63e64736f6c634300081e0033",
					"opcodes": "PUSH1 0x80 PUSH1 0x40 MSTORE CALLVALUE DUP1 ISZERO PUSH1 0xE JUMPI PUSH0 PUSH0 REVERT JUMPDEST POP PUSH1 0x1 PUSH0 DUP2 DUP2 SSTORE DUP2 SLOAD PUSH1 0xFF NOT SWAP1 DUP2 AND DUP4 SSTORE CALLER DUP1 DUP4 MSTORE PUSH1 0x4 PUSH1 0x20 MSTORE PUSH1 0x40 SWAP1 SWAP3 KECCAK256 DUP1 SLOAD SWAP1 SWAP2 AND SWAP1 SWAP3 OR SWAP1 SWAP2 SSTORE PUSH1 0x5 DUP1 SLOAD PUSH1 0x1 PUSH1 0x1 PUSH1 0xA0 SHL SUB NOT AND SWAP1 SWAP2 OR SWAP1 SSTORE PUSH2 0xAF7 DUP1 PUSH2 0x58 PUSH0 CODECOPY PUSH0 RETURN INVALID PUSH1 0x80 PUSH1 0x40 MSTORE CALLVALUE DUP1 ISZERO PUSH2 0xF JUMPI PUSH0 PUSH0 REVERT JUMPDEST POP PUSH1 0x4 CALLDATASIZE LT PUSH2 0xAD JUMPI PUSH0 CALLDATALOAD PUSH1 0xE0 SHR DUP1 PUSH4 0xD462D44 EQ PUSH2 0xB1 JUMPI DUP1 PUSH4 0x1351CF51 EQ PUSH2 0xC6 JUMPI DUP1 PUSH4 0x13AF4035 EQ PUSH2 0xD9 JUMPI DUP1 PUSH4 0x3F4BA83A EQ PUSH2 0xEC JUMPI DUP1 PUSH4 0x5C975ABB EQ PUSH2 0xF4 JUMPI DUP1 PUSH4 0x71DC7725 EQ PUSH2 0x110 JUMPI DUP1 PUSH4 0x8456CB59 EQ PUSH2 0x130 JUMPI DUP1 PUSH4 0x87AD8F87 EQ PUSH2 0x138 JUMPI DUP1 PUSH4 0x8DA5CB5B EQ PUSH2 0x150 JUMPI DUP1 PUSH4 0x9C5338A5 EQ PUSH2 0x163 JUMPI DUP1 PUSH4 0xB3066D49 EQ PUSH2 0x176 JUMPI DUP1 PUSH4 0xCED6F7DF EQ PUSH2 0x189 JUMPI DUP1 PUSH4 0xF19E207E EQ PUSH2 0x19C JUMPI JUMPDEST PUSH0 PUSH0 REVERT JUMPDEST PUSH2 0xC4 PUSH2 0xBF CALLDATASIZE PUSH1 0x4 PUSH2 0x906 JUMP JUMPDEST PUSH2 0x1BE JUMP JUMPDEST STOP JUMPDEST PUSH2 0xC4 PUSH2 0xD4 CALLDATASIZE PUSH1 0x4 PUSH2 0x97C JUMP JUMPDEST PUSH2 0x390 JUMP JUMPDEST PUSH2 0xC4 PUSH2 0xE7 CALLDATASIZE PUSH1 0x4 PUSH2 0x9AD JUMP JUMPDEST PUSH2 0x3F9 JUMP JUMPDEST PUSH2 0xC4 PUSH2 0x449 JUMP JUMPDEST PUSH1 0x1 SLOAD PUSH1 0xFF AND JUMPDEST PUSH1 0x40 MLOAD SWAP1 ISZERO ISZERO DUP2 MSTORE PUSH1 0x20 ADD JUMPDEST PUSH1 0x40 MLOAD DUP1 SWAP2 SUB SWAP1 RETURN JUMPDEST PUSH1 0x2 SLOAD PUSH2 0x123 SWAP1 PUSH1 0x1 PUSH1 0x1 PUSH1 0xA0 SHL SUB AND DUP2 JUMP JUMPDEST PUSH1 0x40 MLOAD PUSH2 0x107 SWAP2 SWAP1 PUSH2 0x9CD JUMP JUMPDEST PUSH2 0xC4 PUSH2 0x492 JUMP JUMPDEST PUSH1 0x1 SLOAD PUSH2 0x123 SWAP1 PUSH2 0x100 SWAP1 DIV PUSH1 0x1 PUSH1 0x1 PUSH1 0xA0 SHL SUB AND DUP2 JUMP JUMPDEST PUSH1 0x5 SLOAD PUSH2 0x123 SWAP1 PUSH1 0x1 PUSH1 0x1 PUSH1 0xA0 SHL SUB AND DUP2 JUMP JUMPDEST PUSH1 0x3 SLOAD PUSH2 0x123 SWAP1 PUSH1 0x1 PUSH1 0x1 PUSH1 0xA0 SHL SUB AND DUP2 JUMP JUMPDEST PUSH2 0xC4 PUSH2 0x184 CALLDATASIZE PUSH1 0x4 PUSH2 0x9E1 JUMP JUMPDEST PUSH2 0x4D8 JUMP JUMPDEST PUSH2 0xC4 PUSH2 0x197 CALLDATASIZE PUSH1 0x4 PUSH2 0x906 JUMP JUMPDEST PUSH2 0x65E JUMP JUMPDEST PUSH2 0xFB PUSH2 0x1AA CALLDATASIZE PUSH1 0x4 PUSH2 0x9AD JUMP JUMPDEST PUSH1 0x4 PUSH1 0x20 MSTORE PUSH0 SWAP1 DUP2 MSTORE PUSH1 0x40 SWAP1 KECCAK256 SLOAD PUSH1 0xFF AND DUP2 JUMP JUMPDEST CALLER PUSH0 SWAP1 DUP2 MSTORE PUSH1 0x4 PUSH1 0x20 MSTORE PUSH1 0x40 SWAP1 KECCAK256 SLOAD PUSH1 0xFF AND PUSH2 0x1F5 JUMPI PUSH1 0x40 MLOAD PUSH3 0x461BCD PUSH1 0xE5 SHL DUP2 MSTORE PUSH1 0x4 ADD PUSH2 0x1EC SWAP1 PUSH2 0xA21 JUMP JUMPDEST PUSH1 0x40 MLOAD DUP1 SWAP2 SUB SWAP1 REVERT JUMPDEST PUSH2 0x1FD PUSH2 0x79E JUMP JUMPDEST PUSH2 0x205 PUSH2 0x7C6 JUMP JUMPDEST PUSH0 DUP3 PUSH1 0x2 DUP2 GT ISZERO PUSH2 0x218 JUMPI PUSH2 0x218 PUSH2 0xA49 JUMP JUMPDEST SUB PUSH2 0x28F JUMPI PUSH1 0x1 SLOAD PUSH1 0x40 MLOAD PUSH4 0x3AA2B93 PUSH1 0xE1 SHL DUP2 MSTORE PUSH2 0x100 SWAP1 SWAP2 DIV PUSH1 0x1 PUSH1 0x1 PUSH1 0xA0 SHL SUB AND SWAP1 PUSH4 0x7545726 SWAP1 PUSH2 0x25D SWAP1 DUP11 SWAP1 DUP11 SWAP1 DUP11 SWAP1 DUP11 SWAP1 DUP11 SWAP1 DUP11 SWAP1 DUP11 SWAP1 PUSH1 0x4 ADD PUSH2 0xA5D JUMP JUMPDEST PUSH0 PUSH1 0x40 MLOAD DUP1 DUP4 SUB DUP2 PUSH0 DUP8 DUP1 EXTCODESIZE ISZERO DUP1 ISZERO PUSH2 0x274 JUMPI PUSH0 PUSH0 REVERT JUMPDEST POP GAS CALL ISZERO DUP1 ISZERO PUSH2 0x286 JUMPI RETURNDATASIZE PUSH0 PUSH0 RETURNDATACOPY RETURNDATASIZE PUSH0 REVERT JUMPDEST POP POP POP POP PUSH2 0x37E JUMP JUMPDEST PUSH1 0x1 DUP3 PUSH1 0x2 DUP2 GT ISZERO PUSH2 0x2A3 JUMPI PUSH2 0x2A3 PUSH2 0xA49 JUMP JUMPDEST SUB PUSH2 0x2E4 JUMPI PUSH1 0x2 SLOAD PUSH1 0x40 MLOAD PUSH4 0x3AA2B93 PUSH1 0xE1 SHL DUP2 MSTORE PUSH1 0x1 PUSH1 0x1 PUSH1 0xA0 SHL SUB SWAP1 SWAP2 AND SWAP1 PUSH4 0x7545726 SWAP1 PUSH2 0x25D SWAP1 DUP11 SWAP1 DUP11 SWAP1 DUP11 SWAP1 DUP11 SWAP1 DUP11 SWAP1 DUP11 SWAP1 DUP11 SWAP1 PUSH1 0x4 ADD PUSH2 0xA5D JUMP JUMPDEST PUSH1 0x2 DUP3 PUSH1 0x2 DUP2 GT ISZERO PUSH2 0x2F8 JUMPI PUSH2 0x2F8 PUSH2 0xA49 JUMP JUMPDEST SUB PUSH2 0x339 JUMPI PUSH1 0x3 SLOAD PUSH1 0x40 MLOAD PUSH4 0x3AA2B93 PUSH1 0xE1 SHL DUP2 MSTORE PUSH1 0x1 PUSH1 0x1 PUSH1 0xA0 SHL SUB SWAP1 SWAP2 AND SWAP1 PUSH4 0x7545726 SWAP1 PUSH2 0x25D SWAP1 DUP11 SWAP1 DUP11 SWAP1 DUP11 SWAP1 DUP11 SWAP1 DUP11 SWAP1 DUP11 SWAP1 DUP11 SWAP1 PUSH1 0x4 ADD PUSH2 0xA5D JUMP JUMPDEST PUSH1 0x40 MLOAD PUSH3 0x461BCD PUSH1 0xE5 SHL DUP2 MSTORE PUSH1 0x20 PUSH1 0x4 DUP3 ADD MSTORE PUSH1 0x1A PUSH1 0x24 DUP3 ADD MSTORE PUSH26 0x155B9CDD5C1C1BDC9D1959081C185E5B595B9D081B595D1A1BD9 PUSH1 0x32 SHL PUSH1 0x44 DUP3 ADD MSTORE PUSH1 0x64 ADD PUSH2 0x1EC JUMP JUMPDEST PUSH2 0x387 PUSH1 0x1 PUSH0 SSTORE JUMP JUMPDEST POP POP POP POP POP POP POP JUMP JUMPDEST CALLER PUSH0 SWAP1 DUP2 MSTORE PUSH1 0x4 PUSH1 0x20 MSTORE PUSH1 0x40 SWAP1 KECCAK256 SLOAD PUSH1 0xFF AND PUSH2 0x3BE JUMPI PUSH1 0x40 MLOAD PUSH3 0x461BCD PUSH1 0xE5 SHL DUP2 MSTORE PUSH1 0x4 ADD PUSH2 0x1EC SWAP1 PUSH2 0xA21 JUMP JUMPDEST PUSH2 0x3C6 PUSH2 0x79E JUMP JUMPDEST PUSH2 0x3CE PUSH2 0x7C6 JUMP JUMPDEST PUSH1 0x1 PUSH1 0x1 PUSH1 0xA0 SHL SUB DUP3 AND PUSH0 SWAP1 DUP2 MSTORE PUSH1 0x4 PUSH1 0x20 MSTORE PUSH1 0x40 DUP2 KECCAK256 DUP1 SLOAD PUSH1 0xFF NOT AND DUP4 ISZERO ISZERO OR SWAP1 SSTORE PUSH1 0x1 SWAP1 SSTORE POP POP JUMP JUMPDEST CALLER PUSH0 SWAP1 DUP2 MSTORE PUSH1 0x4 PUSH1 0x20 MSTORE PUSH1 0x40 SWAP1 KECCAK256 SLOAD PUSH1 0xFF AND PUSH2 0x427 JUMPI PUSH1 0x40 MLOAD PUSH3 0x461BCD PUSH1 0xE5 SHL DUP2 MSTORE PUSH1 0x4 ADD PUSH2 0x1EC SWAP1 PUSH2 0xA21 JUMP JUMPDEST PUSH1 0x5 DUP1 SLOAD PUSH1 0x1 PUSH1 0x1 PUSH1 0xA0 SHL SUB NOT AND PUSH1 0x1 PUSH1 0x1 PUSH1 0xA0 SHL SUB SWAP3 SWAP1 SWAP3 AND SWAP2 SWAP1 SWAP2 OR SWAP1 SSTORE JUMP JUMPDEST CALLER PUSH0 SWAP1 DUP2 MSTORE PUSH1 0x4 PUSH1 0x20 MSTORE PUSH1 0x40 SWAP1 KECCAK256 SLOAD PUSH1 0xFF AND PUSH2 0x477 JUMPI PUSH1 0x40 MLOAD PUSH3 0x461BCD PUSH1 0xE5 SHL DUP2 MSTORE PUSH1 0x4 ADD PUSH2 0x1EC SWAP1 PUSH2 0xA21 JUMP JUMPDEST PUSH2 0x47F PUSH2 0x79E JUMP JUMPDEST PUSH2 0x487 PUSH2 0x80C JUMP JUMPDEST PUSH2 0x490 PUSH1 0x1 PUSH0 SSTORE JUMP JUMPDEST JUMP JUMPDEST PUSH2 0x49A PUSH2 0x7C6 JUMP JUMPDEST CALLER PUSH0 SWAP1 DUP2 MSTORE PUSH1 0x4 PUSH1 0x20 MSTORE PUSH1 0x40 SWAP1 KECCAK256 SLOAD PUSH1 0xFF AND PUSH2 0x4C8 JUMPI PUSH1 0x40 MLOAD PUSH3 0x461BCD PUSH1 0xE5 SHL DUP2 MSTORE PUSH1 0x4 ADD PUSH2 0x1EC SWAP1 PUSH2 0xA21 JUMP JUMPDEST PUSH2 0x4D0 PUSH2 0x79E JUMP JUMPDEST PUSH2 0x487 PUSH2 0x858 JUMP JUMPDEST CALLER PUSH0 SWAP1 DUP2 MSTORE PUSH1 0x4 PUSH1 0x20 MSTORE PUSH1 0x40 SWAP1 KECCAK256 SLOAD PUSH1 0xFF AND PUSH2 0x506 JUMPI PUSH1 0x40 MLOAD PUSH3 0x461BCD PUSH1 0xE5 SHL DUP2 MSTORE PUSH1 0x4 ADD PUSH2 0x1EC SWAP1 PUSH2 0xA21 JUMP JUMPDEST PUSH2 0x50E PUSH2 0x79E JUMP JUMPDEST PUSH2 0x516 PUSH2 0x7C6 JUMP JUMPDEST PUSH1 0x1 PUSH1 0x1 PUSH1 0xA0 SHL SUB DUP4 AND PUSH2 0x56C JUMPI PUSH1 0x40 MLOAD PUSH3 0x461BCD PUSH1 0xE5 SHL DUP2 MSTORE PUSH1 0x20 PUSH1 0x4 DUP3 ADD MSTORE PUSH1 0x1D PUSH1 0x24 DUP3 ADD MSTORE PUSH32 0x496E76616C696420657363726F7748616E646C65722061646472657373000000 PUSH1 0x44 DUP3 ADD MSTORE PUSH1 0x64 ADD PUSH2 0x1EC JUMP JUMPDEST PUSH1 0x1 PUSH1 0x1 PUSH1 0xA0 SHL SUB DUP3 AND PUSH2 0x5BF JUMPI PUSH1 0x40 MLOAD PUSH3 0x461BCD PUSH1 0xE5 SHL DUP2 MSTORE PUSH1 0x20 PUSH1 0x4 DUP3 ADD MSTORE PUSH1 0x1A PUSH1 0x24 DUP3 ADD MSTORE PUSH26 0x496E76616C696420757364744F72646572732061646472657373 PUSH1 0x30 SHL PUSH1 0x44 DUP3 ADD MSTORE PUSH1 0x64 ADD PUSH2 0x1EC JUMP JUMPDEST PUSH1 0x1 PUSH1 0x1 PUSH1 0xA0 SHL SUB DUP2 AND PUSH2 0x612 JUMPI PUSH1 0x40 MLOAD PUSH3 0x461BCD PUSH1 0xE5 SHL DUP2 MSTORE PUSH1 0x20 PUSH1 0x4 DUP3 ADD MSTORE PUSH1 0x1A PUSH1 0x24 DUP3 ADD MSTORE PUSH26 0x496E76616C696420757364634F72646572732061646472657373 PUSH1 0x30 SHL PUSH1 0x44 DUP3 ADD MSTORE PUSH1 0x64 ADD PUSH2 0x1EC JUMP JUMPDEST PUSH1 0x1 DUP1 SLOAD PUSH2 0x100 PUSH1 0x1 PUSH1 0xA8 SHL SUB NOT AND PUSH2 0x100 PUSH1 0x1 PUSH1 0x1 PUSH1 0xA0 SHL SUB SWAP6 DUP7 AND MUL OR DUP2 SSTORE PUSH1 0x2 DUP1 SLOAD PUSH1 0x1 PUSH1 0x1 PUSH1 0xA0 SHL SUB NOT SWAP1 DUP2 AND SWAP5 DUP7 AND SWAP5 SWAP1 SWAP5 OR SWAP1 SSTORE PUSH1 0x3 DUP1 SLOAD SWAP1 SWAP4 AND SWAP2 SWAP1 SWAP4 AND OR SWAP1 SSTORE PUSH0 SSTORE JUMP JUMPDEST CALLER PUSH0 SWAP1 DUP2 MSTORE PUSH1 0x4 PUSH1 0x20 MSTORE PUSH1 0x40 SWAP1 KECCAK256 SLOAD PUSH1 0xFF AND PUSH2 0x68C JUMPI PUSH1 0x40 MLOAD PUSH3 0x461BCD PUSH1 0xE5 SHL DUP2 MSTORE PUSH1 0x4 ADD PUSH2 0x1EC SWAP1 PUSH2 0xA21 JUMP JUMPDEST PUSH2 0x694 PUSH2 0x79E JUMP JUMPDEST PUSH2 0x69C PUSH2 0x7C6 JUMP JUMPDEST PUSH0 DUP3 PUSH1 0x2 DUP2 GT ISZERO PUSH2 0x6AF JUMPI PUSH2 0x6AF PUSH2 0xA49 JUMP JUMPDEST SUB PUSH2 0x6F4 JUMPI PUSH1 0x1 SLOAD PUSH1 0x40 MLOAD PUSH4 0x7E8843D PUSH1 0xE4 SHL DUP2 MSTORE PUSH2 0x100 SWAP1 SWAP2 DIV PUSH1 0x1 PUSH1 0x1 PUSH1 0xA0 SHL SUB AND SWAP1 PUSH4 0x7E8843D0 SWAP1 PUSH2 0x25D SWAP1 DUP11 SWAP1 DUP11 SWAP1 DUP11 SWAP1 DUP11 SWAP1 DUP11 SWAP1 DUP11 SWAP1 DUP11 SWAP1 PUSH1 0x4 ADD PUSH2 0xA5D JUMP JUMPDEST PUSH1 0x1 DUP3 PUSH1 0x2 DUP2 GT ISZERO PUSH2 0x708 JUMPI PUSH2 0x708 PUSH2 0xA49 JUMP JUMPDEST SUB PUSH2 0x749 JUMPI PUSH1 0x2 SLOAD PUSH1 0x40 MLOAD PUSH4 0x7E8843D PUSH1 0xE4 SHL DUP2 MSTORE PUSH1 0x1 PUSH1 0x1 PUSH1 0xA0 SHL SUB SWAP1 SWAP2 AND SWAP1 PUSH4 0x7E8843D0 SWAP1 PUSH2 0x25D SWAP1 DUP11 SWAP1 DUP11 SWAP1 DUP11 SWAP1 DUP11 SWAP1 DUP11 SWAP1 DUP11 SWAP1 DUP11 SWAP1 PUSH1 0x4 ADD PUSH2 0xA5D JUMP JUMPDEST PUSH1 0x2 DUP3 PUSH1 0x2 DUP2 GT ISZERO PUSH2 0x75D JUMPI PUSH2 0x75D PUSH2 0xA49 JUMP JUMPDEST SUB PUSH2 0x339 JUMPI PUSH1 0x3 SLOAD PUSH1 0x40 MLOAD PUSH4 0x7E8843D PUSH1 0xE4 SHL DUP2 MSTORE PUSH1 0x1 PUSH1 0x1 PUSH1 0xA0 SHL SUB SWAP1 SWAP2 AND SWAP1 PUSH4 0x7E8843D0 SWAP1 PUSH2 0x25D SWAP1 DUP11 SWAP1 DUP11 SWAP1 DUP11 SWAP1 DUP11 SWAP1 DUP11 SWAP1 DUP11 SWAP1 DUP11 SWAP1 PUSH1 0x4 ADD PUSH2 0xA5D JUMP JUMPDEST PUSH1 0x2 PUSH0 SLOAD SUB PUSH2 0x7C0 JUMPI PUSH1 0x40 MLOAD PUSH4 0x3EE5AEB5 PUSH1 0xE0 SHL DUP2 MSTORE PUSH1 0x4 ADD PUSH1 0x40 MLOAD DUP1 SWAP2 SUB SWAP1 REVERT JUMPDEST PUSH1 0x2 PUSH0 SSTORE JUMP JUMPDEST PUSH1 0x1 SLOAD PUSH1 0xFF AND ISZERO PUSH2 0x490 JUMPI PUSH1 0x40 MLOAD PUSH3 0x461BCD PUSH1 0xE5 SHL DUP2 MSTORE PUSH1 0x20 PUSH1 0x4 DUP3 ADD MSTORE PUSH1 0x10 PUSH1 0x24 DUP3 ADD MSTORE PUSH16 0x14185D5CD8589B194E881C185D5CD959 PUSH1 0x82 SHL PUSH1 0x44 DUP3 ADD MSTORE PUSH1 0x64 ADD PUSH2 0x1EC JUMP JUMPDEST PUSH2 0x814 PUSH2 0x893 JUMP JUMPDEST PUSH1 0x1 DUP1 SLOAD PUSH1 0xFF NOT AND SWAP1 SSTORE PUSH32 0x5DB9EE0A495BF2E6FF9C91A7834C1BA4FDD244A5E8AA4E537BD38AEAE4B073AA CALLER JUMPDEST PUSH1 0x40 MLOAD PUSH2 0x84E SWAP2 SWAP1 PUSH2 0x9CD JUMP JUMPDEST PUSH1 0x40 MLOAD DUP1 SWAP2 SUB SWAP1 LOG1 JUMP JUMPDEST PUSH2 0x860 PUSH2 0x7C6 JUMP JUMPDEST PUSH1 0x1 DUP1 SLOAD PUSH1 0xFF NOT AND DUP2 OR SWAP1 SSTORE PUSH32 0x62E78CEA01BEE320CD4E420270B5EA74000D11B0C9F74754EBDBFC544B05A258 CALLER PUSH2 0x841 JUMP JUMPDEST PUSH1 0x1 SLOAD PUSH1 0xFF AND PUSH2 0x490 JUMPI PUSH1 0x40 MLOAD PUSH3 0x461BCD PUSH1 0xE5 SHL DUP2 MSTORE PUSH1 0x20 PUSH1 0x4 DUP3 ADD MSTORE PUSH1 0x14 PUSH1 0x24 DUP3 ADD MSTORE PUSH20 0x14185D5CD8589B194E881B9BDD081C185D5CD959 PUSH1 0x62 SHL PUSH1 0x44 DUP3 ADD MSTORE PUSH1 0x64 ADD PUSH2 0x1EC JUMP JUMPDEST DUP1 CALLDATALOAD PUSH1 0x1 PUSH1 0x1 PUSH1 0xA0 SHL SUB DUP2 AND DUP2 EQ PUSH2 0x8F2 JUMPI PUSH0 PUSH0 REVERT JUMPDEST SWAP2 SWAP1 POP JUMP JUMPDEST DUP1 CALLDATALOAD DUP1 ISZERO ISZERO DUP2 EQ PUSH2 0x8F2 JUMPI PUSH0 PUSH0 REVERT JUMPDEST PUSH0 PUSH0 PUSH0 PUSH0 PUSH0 PUSH0 PUSH0 PUSH1 0xE0 DUP9 DUP11 SUB SLT ISZERO PUSH2 0x91C JUMPI PUSH0 PUSH0 REVERT JUMPDEST DUP8 CALLDATALOAD SWAP7 POP PUSH2 0x92C PUSH1 0x20 DUP10 ADD PUSH2 0x8DC JUMP JUMPDEST SWAP6 POP PUSH1 0x40 DUP9 ADD CALLDATALOAD SWAP5 POP PUSH1 0x60 DUP9 ADD CALLDATALOAD SWAP4 POP PUSH1 0x80 DUP9 ADD CALLDATALOAD PUSH1 0x1 DUP2 LT PUSH2 0x94D JUMPI PUSH0 PUSH0 REVERT JUMPDEST SWAP3 POP PUSH1 0xA0 DUP9 ADD CALLDATALOAD PUSH1 0x3 DUP2 LT PUSH2 0x960 JUMPI PUSH0 PUSH0 REVERT JUMPDEST SWAP2 POP PUSH2 0x96E PUSH1 0xC0 DUP10 ADD PUSH2 0x8F7 JUMP JUMPDEST SWAP1 POP SWAP3 SWAP6 SWAP9 SWAP2 SWAP5 SWAP8 POP SWAP3 SWAP6 POP JUMP JUMPDEST PUSH0 PUSH0 PUSH1 0x40 DUP4 DUP6 SUB SLT ISZERO PUSH2 0x98D JUMPI PUSH0 PUSH0 REVERT JUMPDEST PUSH2 0x996 DUP4 PUSH2 0x8DC JUMP JUMPDEST SWAP2 POP PUSH2 0x9A4 PUSH1 0x20 DUP5 ADD PUSH2 0x8F7 JUMP JUMPDEST SWAP1 POP SWAP3 POP SWAP3 SWAP1 POP JUMP JUMPDEST PUSH0 PUSH1 0x20 DUP3 DUP5 SUB SLT ISZERO PUSH2 0x9BD JUMPI PUSH0 PUSH0 REVERT JUMPDEST PUSH2 0x9C6 DUP3 PUSH2 0x8DC JUMP JUMPDEST SWAP4 SWAP3 POP POP POP JUMP JUMPDEST PUSH1 0x1 PUSH1 0x1 PUSH1 0xA0 SHL SUB SWAP2 SWAP1 SWAP2 AND DUP2 MSTORE PUSH1 0x20 ADD SWAP1 JUMP JUMPDEST PUSH0 PUSH0 PUSH0 PUSH1 0x60 DUP5 DUP7 SUB SLT ISZERO PUSH2 0x9F3 JUMPI PUSH0 PUSH0 REVERT JUMPDEST PUSH2 0x9FC DUP5 PUSH2 0x8DC JUMP JUMPDEST SWAP3 POP PUSH2 0xA0A PUSH1 0x20 DUP6 ADD PUSH2 0x8DC JUMP JUMPDEST SWAP2 POP PUSH2 0xA18 PUSH1 0x40 DUP6 ADD PUSH2 0x8DC JUMP JUMPDEST SWAP1 POP SWAP3 POP SWAP3 POP SWAP3 JUMP JUMPDEST PUSH1 0x20 DUP1 DUP3 MSTORE PUSH1 0xE SWAP1 DUP3 ADD MSTORE PUSH14 0x139BDD08185D5D1A1BDC9A5E9959 PUSH1 0x92 SHL PUSH1 0x40 DUP3 ADD MSTORE PUSH1 0x60 ADD SWAP1 JUMP JUMPDEST PUSH4 0x4E487B71 PUSH1 0xE0 SHL PUSH0 MSTORE PUSH1 0x21 PUSH1 0x4 MSTORE PUSH1 0x24 PUSH0 REVERT JUMPDEST DUP8 DUP2 MSTORE PUSH1 0x1 PUSH1 0x1 PUSH1 0xA0 SHL SUB DUP8 AND PUSH1 0x20 DUP3 ADD MSTORE PUSH1 0x40 DUP2 ADD DUP7 SWAP1 MSTORE PUSH1 0x60 DUP2 ADD DUP6 SWAP1 MSTORE PUSH1 0xE0 DUP2 ADD PUSH1 0x1 DUP6 LT PUSH2 0xA91 JUMPI PUSH2 0xA91 PUSH2 0xA49 JUMP JUMPDEST DUP5 PUSH1 0x80 DUP4 ADD MSTORE PUSH1 0x3 DUP5 LT PUSH2 0xAA7 JUMPI PUSH2 0xAA7 PUSH2 0xA49 JUMP JUMPDEST DUP4 PUSH1 0xA0 DUP4 ADD MSTORE DUP3 ISZERO ISZERO PUSH1 0xC0 DUP4 ADD MSTORE SWAP9 SWAP8 POP POP POP POP POP POP POP POP JUMP INVALID LOG2 PUSH5 0x6970667358 0x22 SLT KECCAK256 TSTORE SWAP14 0xC7 PUSH19 0xAA9F6621FB5C3382E175E16FE117DE8A12410C AND 0xC1 0xA5 ISZERO PUSH0 0xF LT 0xD6 RETURNDATACOPY PUSH5 0x736F6C6343 STOP ADDMOD 0x1E STOP CALLER "
				},
				"gasEstimates": {
					"creation": {
						"codeDepositCost": "561400",
						"executionCost": "95461",
						"totalCost": "656861"
					},
					"external": {
						"authorizedAddresses(address)": "2759",
						"escrowHandler()": "2503",
						"owner()": "2514",
						"pause()": "infinite",
						"paused()": "2347",
						"routeBuyOrder(uint256,address,uint256,uint256,uint8,uint8,bool)": "infinite",
						"routeSellOrder(uint256,address,uint256,uint256,uint8,uint8,bool)": "infinite",
						"setAuthorizedAddress(address,bool)": "infinite",
						"setContracts(address,address,address)": "infinite",
						"setOwner(address)": "26781",
						"unpause()": "infinite",
						"usdcOrders()": "2536",
						"usdtOrders()": "2448"
					}
				},
				"methodIdentifiers": {
					"authorizedAddresses(address)": "f19e207e",
					"escrowHandler()": "87ad8f87",
					"owner()": "8da5cb5b",
					"pause()": "8456cb59",
					"paused()": "5c975abb",
					"routeBuyOrder(uint256,address,uint256,uint256,uint8,uint8,bool)": "ced6f7df",
					"routeSellOrder(uint256,address,uint256,uint256,uint8,uint8,bool)": "0d462d44",
					"setAuthorizedAddress(address,bool)": "1351cf51",
					"setContracts(address,address,address)": "b3066d49",
					"setOwner(address)": "13af4035",
					"unpause()": "3f4ba83a",
					"usdcOrders()": "9c5338a5",
					"usdtOrders()": "71dc7725"
				}
			},
			"storageLayout": {
				"storage": [
					{
						"astId": 743,
						"contract": "contracts/OrderRouter_flattened.sol:OrderRouter",
						"label": "_status",
						"offset": 0,
						"slot": "0",
						"type": "t_uint256"
					},
					{
						"astId": 846,
						"contract": "contracts/OrderRouter_flattened.sol:OrderRouter",
						"label": "_paused",
						"offset": 0,
						"slot": "1",
						"type": "t_bool"
					},
					{
						"astId": 944,
						"contract": "contracts/OrderRouter_flattened.sol:OrderRouter",
						"label": "escrowHandler",
						"offset": 1,
						"slot": "1",
						"type": "t_contract(IEscrowHandler)303"
					},
					{
						"astId": 947,
						"contract": "contracts/OrderRouter_flattened.sol:OrderRouter",
						"label": "usdtOrders",
						"offset": 0,
						"slot": "2",
						"type": "t_contract(IUSDTorders)518"
					},
					{
						"astId": 950,
						"contract": "contracts/OrderRouter_flattened.sol:OrderRouter",
						"label": "usdcOrders",
						"offset": 0,
						"slot": "3",
						"type": "t_contract(IUSDCorders)733"
					},
					{
						"astId": 954,
						"contract": "contracts/OrderRouter_flattened.sol:OrderRouter",
						"label": "authorizedAddresses",
						"offset": 0,
						"slot": "4",
						"type": "t_mapping(t_address,t_bool)"
					},
					{
						"astId": 956,
						"contract": "contracts/OrderRouter_flattened.sol:OrderRouter",
						"label": "owner",
						"offset": 0,
						"slot": "5",
						"type": "t_address"
					}
				],
				"types": {
					"t_address": {
						"encoding": "inplace",
						"label": "address",
						"numberOfBytes": "20"
					},
					"t_bool": {
						"encoding": "inplace",
						"label": "bool",
						"numberOfBytes": "1"
					},
					"t_contract(IEscrowHandler)303": {
						"encoding": "inplace",
						"label": "contract IEscrowHandler",
						"numberOfBytes": "20"
					},
					"t_contract(IUSDCorders)733": {
						"encoding": "inplace",
						"label": "contract IUSDCorders",
						"numberOfBytes": "20"
					},
					"t_contract(IUSDTorders)518": {
						"encoding": "inplace",
						"label": "contract IUSDTorders",
						"numberOfBytes": "20"
					},
					"t_mapping(t_address,t_bool)": {
						"encoding": "mapping",
						"key": "t_address",
						"label": "mapping(address => bool)",
						"numberOfBytes": "32",
						"value": "t_bool"
					},
					"t_uint256": {
						"encoding": "inplace",
						"label": "uint256",
						"numberOfBytes": "32"
					}
				}
			},
			"userdoc": {
				"kind": "user",
				"methods": {},
				"version": 1
			}
		}
	}
}