{
	"data": {
		"bytecode": {
			"linkReferences": {},
			"object": "608060405260016016553480156013575f5ffd5b506040516134eb3803806134eb8339810160408190526030916084565b60015f818155815460ff199081168355600280546001600160a01b0319163390811790915582526004602090815260408084208054841686179055600a95909555600790529290208054909216179055609a565b5f602082840312156093575f5ffd5b5051919050565b613444806100a75f395ff3fe608060405260043610610271575f3560e01c806371dc77251161014f578063b5b6603c116100bb578063b5b6603c14610706578063ba0bbd9514610725578063c071360114610744578063d3ff95c714610763578063d695bf8614610782578063d842875914610796578063dc45d08e146107ca578063e74b981b146107f1578063f19e207e14610810578063f343ebed1461083e578063f47a0acc14610850578063fa66a5f414610865578063fcf99b161461087a57610271565b806371dc7725146105c257806378dd0298146105e15780637bb009d9146105f55780638456cb591461061457806387ad8f87146106285780638da5cb5b146106475780639815005f146106665780639c5338a514610679578063a001ecdd14610698578063a0aabd57146106ad578063ab16d155146106c0578063ab48570d146106df578063ae7b7bd2146106f357610271565b806346904840116101ee578063469048401461044257806346f6c9de146104615780634783c35b146104985780634a3d72a1146104bc57806352b459cc146104db57806352f7c988146104fa578063555d3e6314610519578063566d5d0e146105385780635a2fe45a146105595780635c975abb1461056c578063604554101461058357806363ba5df7146105985780636f726dda146105ad57610271565b8062dfa778146102a8578062e36de3146102eb578063075b6e331461030e57806311508beb1461032357806311c0a582146103445780631351cf511461035857806313af403514610377578063176bff03146103965780631b8e2ed9146103c457806327e235e3146103f05780633772525c1461041b5780633f4ba83a1461042e575b60405134815233907f1e57e3bb474320be3d2c77138f75b7c3941292d647f5f9634e33a8e94e0e069b9060200160405180910390a2005b3480156102b3575f5ffd5b506102d66102c2366004612faf565b60076020525f908152604090205460ff1681565b60405190151581526020015b60405180910390f35b3480156102f6575f5ffd5b5061030060095481565b6040519081526020016102e2565b348015610319575f5ffd5b50610300600c5481565b34801561032e575f5ffd5b5061034261033d366004612fca565b61088d565b005b34801561034f575f5ffd5b50600d54610300565b348015610363575f5ffd5b50610342610372366004612fee565b6108ff565b348015610382575f5ffd5b50610342610391366004612faf565b61096c565b3480156103a1575f5ffd5b506102d66103b0366004612faf565b60056020525f908152604090205460ff1681565b3480156103cf575f5ffd5b506014546103e3906001600160a01b031681565b6040516102e29190613025565b3480156103fb575f5ffd5b5061030061040a366004612faf565b60176020525f908152604090205481565b610342610429366004613039565b6109bc565b348015610439575f5ffd5b50610342610b98565b34801561044d575f5ffd5b506003546103e3906001600160a01b031681565b34801561046c575f5ffd5b506102d661047b366004612faf565b6001600160a01b03165f9081526005602052604090205460ff1690565b3480156104a3575f5ffd5b506001546103e39061010090046001600160a01b031681565b3480156104c7575f5ffd5b50600f546103e3906001600160a01b031681565b3480156104e6575f5ffd5b506103426104f5366004612fee565b610be1565b348015610505575f5ffd5b5061034261051436600461306b565b610c4a565b348015610524575f5ffd5b506011546103e3906001600160a01b031681565b348015610543575f5ffd5b5061054c610d22565b6040516102e2919061308b565b610342610567366004613039565b610d82565b348015610577575f5ffd5b5060015460ff166102d6565b34801561058e575f5ffd5b50610300600d5481565b3480156105a3575f5ffd5b5061030060085481565b3480156105b8575f5ffd5b50610300600a5481565b3480156105cd575f5ffd5b506013546103e3906001600160a01b031681565b3480156105ec575f5ffd5b50610300610f1d565b348015610600575f5ffd5b506103e361060f366004612fca565b610f3a565b34801561061f575f5ffd5b50610342610f62565b348015610633575f5ffd5b506010546103e3906001600160a01b031681565b348015610652575f5ffd5b506002546103e3906001600160a01b031681565b610342610674366004613039565b610fa8565b348015610684575f5ffd5b506012546103e3906001600160a01b031681565b3480156106a3575f5ffd5b50610300600b5481565b6103426106bb366004613039565b6111a7565b3480156106cb575f5ffd5b506103426106da366004612fee565b6113a7565b3480156106ea575f5ffd5b506103426116b9565b610342610701366004613039565b6118ac565b348015610711575f5ffd5b506103426107203660046130cb565b611a61565b348015610730575f5ffd5b5061034261073f3660046130cb565b611b19565b34801561074f575f5ffd5b5061034261075e366004612fca565b611b4f565b34801561076e575f5ffd5b5061034261077d3660046130f5565b611b95565b34801561078d575f5ffd5b50610342611c5c565b3480156107a1575f5ffd5b506107b56107b0366004612faf565b611da5565b604080519283529015156020830152016102e2565b3480156107d5575f5ffd5b506103006107e4366004612faf565b6001600160a01b03163190565b3480156107fc575f5ffd5b5061034261080b366004612faf565b611db9565b34801561081b575f5ffd5b506102d661082a366004612faf565b60046020525f908152604090205460ff1681565b348015610849575f5ffd5b5047610300565b34801561085b575f5ffd5b5061030060165481565b348015610870575f5ffd5b50610300600e5481565b610342610888366004613039565b611e6b565b335f9081526007602052604090205460ff166108c45760405162461bcd60e51b81526004016108bb90613186565b60405180910390fd5b600d8190556040518181527f66cbca4f3c64fecf1dcb9ce094abcf7f68c3450a1d4e3a8e917dd621edb4ebe09060200160405180910390a150565b335f9081526004602052604090205460ff1661092d5760405162461bcd60e51b81526004016108bb90613186565b610935612053565b61093d61207b565b6001600160a01b0382165f908152600460205260408120805460ff1916831515179055600190555050565b5050565b335f9081526004602052604090205460ff1661099a5760405162461bcd60e51b81526004016108bb90613186565b600280546001600160a01b0319166001600160a01b0392909216919091179055565b335f9081526004602052604090205460ff166109ea5760405162461bcd60e51b81526004016108bb90613186565b6109f2612053565b6109fa61207b565b5f6103e8610a0883856131c2565b610a1291906131ed565b90505f612710600b5483610a2691906131c2565b610a3091906131ed565b90505f600d5482670de0b6b3a7640000610a4a91906131c2565b610a5491906131ed565b90505f610a6382600c546120c1565b905080341015610a855760405162461bcd60e51b81526004016108bb9061320c565b6003546040516001600160a01b039091169082156108fc029083905f818181858888f19350505050158015610abc573d5f5f3e3d5ffd5b505f610ac88234613240565b90508015610b05576040516001600160a01b0389169082156108fc029083905f818181858888f19350505050158015610b03573d5f5f3e3d5ffd5b505b601680545f9182610b1583613253565b909155506012546040516303aa2b9360e11b81529192506001600160a01b031690630754572690610b579084908d908d908d905f906002908290600401613293565b5f604051808303815f87803b158015610b6e575f5ffd5b505af1158015610b80573d5f5f3e3d5ffd5b50505050505050505050610b9360015f55565b505050565b335f9081526004602052604090205460ff16610bc65760405162461bcd60e51b81526004016108bb90613186565b610bce612053565b610bd66120d5565b610bdf60015f55565b565b335f9081526004602052604090205460ff16610c0f5760405162461bcd60e51b81526004016108bb90613186565b610c17612053565b610c1f61207b565b6001600160a01b0382165f908152600760205260408120805460ff1916831515179055600190555050565b335f9081526004602052604090205460ff16610c785760405162461bcd60e51b81526004016108bb90613186565b610bb8821115610cdb5760405162461bcd60e51b815260206004820152602860248201527f4665652063616e6e6f742065786365656420332520283330303020626173697360448201526720706f696e74732960c01b60648201526084016108bb565b600b829055600c81905560408051838152602081018390527f528d9479e9f9889a87a3c30c7f7ba537e5e59c4c85a37733b16e57c62df61302910160405180910390a15050565b60606006805480602002602001604051908101604052809291908181526020018280548015610d7857602002820191905f5260205f20905b81546001600160a01b03168152600190910190602001808311610d5a575b5050505050905090565b335f9081526004602052604090205460ff16610db05760405162461bcd60e51b81526004016108bb90613186565b610db8612053565b610dc061207b565b5f6103e8610dce83856131c2565b610dd891906131ed565b90505f612710600b5483610dec91906131c2565b610df691906131ed565b90505f600d5482670de0b6b3a7640000610e1091906131c2565b610e1a91906131ed565b90505f610e2982600c546120c1565b905080341015610e4b5760405162461bcd60e51b81526004016108bb9061320c565b6003546040516001600160a01b039091169082156108fc029083905f818181858888f19350505050158015610e82573d5f5f3e3d5ffd5b505f610e8e8234613240565b90508015610ecb576040516001600160a01b0389169082156108fc029083905f818181858888f19350505050158015610ec9573d5f5f3e3d5ffd5b505b601680545f9182610edb83613253565b909155506013546040516303aa2b9360e11b81529192506001600160a01b031690630754572690610b579084908d908d908d905f906001908290600401613293565b601680545f91819083610f2f83613253565b909155509092915050565b60068181548110610f49575f80fd5b5f918252602090912001546001600160a01b0316905081565b335f9081526004602052604090205460ff16610f905760405162461bcd60e51b81526004016108bb90613186565b610f98612053565b610fa061207b565b610bd6612121565b335f9081526004602052604090205460ff16610fd65760405162461bcd60e51b81526004016108bb90613186565b610fde612053565b610fe661207b565b5f6103e8610ff483856131c2565b610ffe91906131ed565b90505f612710600b548361101291906131c2565b61101c91906131ed565b90505f600d5482670de0b6b3a764000061103691906131c2565b61104091906131ed565b90505f61104f82600c546120c1565b9050803410156110715760405162461bcd60e51b81526004016108bb9061320c565b6003546040516001600160a01b039091169082156108fc029083905f818181858888f193505050501580156110a8573d5f5f3e3d5ffd5b505f6110b48234613240565b905080156110f1576040516001600160a01b0389169082156108fc029083905f818181858888f193505050501580156110ef573d5f5f3e3d5ffd5b505b601680545f918261110183613253565b909155506010546040516342af7a0d60e11b81529192506001600160a01b03169063855ef41a9061113d908c906001908b9082906004016132ee565b5f604051808303815f87803b158015611154575f5ffd5b505af1158015611166573d5f5f3e3d5ffd5b50506013546040516307e8843d60e41b81526001600160a01b039091169250637e8843d09150610b579084908d908d908d905f906001908290600401613293565b335f9081526004602052604090205460ff166111d55760405162461bcd60e51b81526004016108bb90613186565b6111dd612053565b6111e561207b565b5f6103e86111f383856131c2565b6111fd91906131ed565b90505f612710600b548361121191906131c2565b61121b91906131ed565b90505f600d5482670de0b6b3a764000061123591906131c2565b61123f91906131ed565b90505f61124e82600c546120c1565b9050803410156112705760405162461bcd60e51b81526004016108bb9061320c565b6003546040516001600160a01b039091169082156108fc029083905f818181858888f193505050501580156112a7573d5f5f3e3d5ffd5b505f6112b38234613240565b905080156112f0576040516001600160a01b0389169082156108fc029083905f818181858888f193505050501580156112ee573d5f5f3e3d5ffd5b505b601680545f918261130083613253565b909155506010546040516342af7a0d60e11b81529192506001600160a01b03169063855ef41a9061133d908c906002908b906001906004016132ee565b5f604051808303815f87803b158015611354575f5ffd5b505af1158015611366573d5f5f3e3d5ffd5b50506012546040516307e8843d60e41b81526001600160a01b039091169250637e8843d09150610b579084908d908d908d905f906002908290600401613293565b335f9081526004602052604090205460ff166113d55760405162461bcd60e51b81526004016108bb90613186565b6113dd612053565b6001600160a01b0382166114335760405162461bcd60e51b815260206004820152601c60248201527f427579657220616464726573732063616e6e6f74206265207a65726f0000000060448201526064016108bb565b801561151b576001600160a01b0382165f9081526005602052604090205460ff16611516576001600160a01b038083165f81815260056020526040808220805460ff1916600190811790915560068054808301825593527ff652222313e28459528d920b65115c16c04f3efc82aaedc97be59f3f377c0d3f90920180546001600160a01b031916909317909255600f54915163f7314bc960e01b8152919092169163f7314bc9916114e8918691600401613322565b5f604051808303815f87803b1580156114ff575f5ffd5b505af1158015611511573d5f5f3e3d5ffd5b505050505b6116b0565b6001600160a01b0382165f9081526005602052604090205460ff16156116b0576001600160a01b0382165f908152600560205260408120805460ff191690555b60065481101561164f57826001600160a01b0316600682815481106115825761158261333d565b5f918252602090912001546001600160a01b03160361164757600680546115ab90600190613240565b815481106115bb576115bb61333d565b5f91825260209091200154600680546001600160a01b0390921691839081106115e6576115e661333d565b905f5260205f20015f6101000a8154816001600160a01b0302191690836001600160a01b03160217905550600680548061162257611622613351565b5f8281526020902081015f1990810180546001600160a01b031916905501905561164f565b60010161155b565b50600f5460405163f7314bc960e01b81526001600160a01b039091169063f7314bc9906116829085905f90600401613322565b5f604051808303815f87803b158015611699575f5ffd5b505af11580156116ab573d5f5f3e3d5ffd5b505050505b61096860015f55565b335f9081526004602052604090205460ff166116e75760405162461bcd60e51b81526004016108bb90613186565b600f5460408051631f56c9e360e01b815290515f926001600160a01b031691631f56c9e39160048083019260209291908290030181865afa15801561172e573d5f5f3e3d5ffd5b505050506040513d601f19601f820116820180604052508101906117529190613365565b90505f5b8181101561096857600f54604051639d63b49960e01b8152600481018390525f916001600160a01b031690639d63b49990602401602060405180830381865afa1580156117a5573d5f5f3e3d5ffd5b505050506040513d601f19601f820116820180604052508101906117c9919061337c565b600f5460405163237b64ef60e11b81529192506001600160a01b0316906346f6c9de906117fa908490600401613025565b602060405180830381865afa158015611815573d5f5f3e3d5ffd5b505050506040513d601f19601f820116820180604052508101906118399190613397565b156118a3576001600160a01b0381165f818152600560205260408120805460ff191660019081179091556006805491820181559091527ff652222313e28459528d920b65115c16c04f3efc82aaedc97be59f3f377c0d3f0180546001600160a01b03191690911790555b50600101611756565b335f9081526004602052604090205460ff166118da5760405162461bcd60e51b81526004016108bb90613186565b6118e2612053565b6118ea61207b565b5f6103e86118f883856131c2565b61190291906131ed565b90505f612710600b548361191691906131c2565b61192091906131ed565b90505f61192f82600c546120c1565b905080348111156119525760405162461bcd60e51b81526004016108bb906133b2565b6003546040516001600160a01b039091169083156108fc029084905f818181858888f19350505050158015611989573d5f5f3e3d5ffd5b505f6119958234613240565b90508781156119d3576040516001600160a01b0382169083156108fc029084905f818181858888f193505050501580156119d1573d5f5f3e3d5ffd5b505b601680545f91826119e383613253565b909155506010546040516303aa2b9360e11b81529192506001600160a01b031690630754572690611a249084908e908e908e905f9081908190600401613293565b5f604051808303815f87803b158015611a3b575f5ffd5b505af1158015611a4d573d5f5f3e3d5ffd5b5050505050505050505050610b9360015f55565b335f9081526004602052604090205460ff16611a8f5760405162461bcd60e51b81526004016108bb90613186565b611a9761207b565b6001600160a01b038216611ae65760405162461bcd60e51b8152602060048201526016602482015275496e76616c69642073656e646572206164647265737360501b60448201526064016108bb565b6040516001600160a01b0383169082156108fc029083905f818181858888f19350505050158015610b93573d5f5f3e3d5ffd5b335f9081526004602052604090205460ff16611b475760405162461bcd60e51b81526004016108bb90613186565b611ae661207b565b335f9081526007602052604090205460ff16611b7d5760405162461bcd60e51b81526004016108bb90613186565b600e819055600a54811015611b9257600a8190555b50565b335f9081526004602052604090205460ff16611bc35760405162461bcd60e51b81526004016108bb90613186565b611bcb612053565b611bd361207b565b601280546001600160a01b03199081166001600160a01b038a811691909117909255601380548216898416179055601480548216858416179055601080548216888416179055601180548216878416179055600f805490911685831617905560018054610100600160a81b031916610100928416929092029190911781555f5550505050505050565b335f9081526007602052604090205460ff16611c8a5760405162461bcd60e51b81526004016108bb90613186565b5f600a54600e5403611c9f5750612710611d0b565b5f611cb8600a54600e54611cb39190613240565b61215c565b90505f611cc96106526103e8612178565b90505f611cd5836121ad565b90505f611ce282846121e5565b90505f611cee8261221a565b9050611cf98161226a565b67ffffffffffffffff16955050505050505b5f611d1861271083612284565b90505f61271082600e54611d2c91906133fb565b611d3990620f42406131c2565b611d4391906131ed565b6008819055600d54909150611d6082670de0b6b3a76400006131c2565b611d6a91906131ed565b6009556040518181527f66cbca4f3c64fecf1dcb9ce094abcf7f68c3450a1d4e3a8e917dd621edb4ebe09060200160405180910390a1505050565b5f5f611db083612293565b91509150915091565b335f9081526004602052604090205460ff16611de75760405162461bcd60e51b81526004016108bb90613186565b6001600160a01b038116611e495760405162461bcd60e51b8152602060048201526024808201527f46656520726563697069656e742063616e6e6f74206265207a65726f206164646044820152637265737360e01b60648201526084016108bb565b600380546001600160a01b0319166001600160a01b0392909216919091179055565b335f9081526004602052604090205460ff16611e995760405162461bcd60e51b81526004016108bb90613186565b611ea1612053565b611ea961207b565b5f6103e8611eb783856131c2565b611ec191906131ed565b90505f612710600b5483611ed591906131c2565b611edf91906131ed565b90505f611eee82600c546120c1565b90505f611efb82856133fb565b905080341015611f1d5760405162461bcd60e51b81526004016108bb906133b2565b6003546040516001600160a01b039091169083156108fc029084905f818181858888f19350505050158015611f54573d5f5f3e3d5ffd5b505f611f608234613240565b9050878115611f9e576040516001600160a01b0382169083156108fc029084905f818181858888f19350505050158015611f9c573d5f5f3e3d5ffd5b505b601680545f9182611fae83613253565b909155506010546040516342af7a0d60e11b81529192506001600160a01b03169063855ef41a90611fea908d905f908c906001906004016132ee565b5f604051808303815f87803b158015612001575f5ffd5b505af1158015612013573d5f5f3e3d5ffd5b50506010546040516307e8843d60e41b81526001600160a01b039091169250637e8843d09150611a249084908e908e908e905f9081908190600401613293565b60025f540361207557604051633ee5aeb560e01b815260040160405180910390fd5b60025f55565b60015460ff1615610bdf5760405162461bcd60e51b815260206004820152601060248201526f14185d5cd8589b194e881c185d5cd95960821b60448201526064016108bb565b5f8282188284100282185b90505b92915050565b6120dd6122f4565b6001805460ff191690557f5db9ee0a495bf2e6ff9c91a7834c1ba4fdd244a5e8aa4e537bd38aeae4b073aa335b6040516121179190613025565b60405180910390a1565b61212961207b565b6001805460ff1916811790557f62e78cea01bee320cd4e420270b5ea74000d11b0c9f74754ebdbfc544b05a2583361210a565b5f677fffffffffffffff821115612171575f5ffd5b5060401b90565b5f815f03612184575f5ffd5b5f61218f848461233d565b905060016001607f1b036001600160801b03821611156120cc575f5ffd5b5f5f82600f0b136121bc575f5ffd5b60806121c78361249b565b600f0b6fb17217f7d1cf79abc9e3b39803f2f6af02901c9050919050565b5f600f83810b9083900b0260401d60016001607f1b03198112801590612212575060016001607f1b038113155b6120cc575f5ffd5b5f600160461b82600f0b1261222d575f5ffd5b6001600160461b031982600f0b121561224757505f919050565b6120cf608083600f0b700171547652b82fe1777d0ffda0d23a7d1202901d612571565b5f5f82600f0b121561227a575f5ffd5b50600f0b60401d90565b5f8282188284110282186120cc565b5f80805b6006548110156122e957836001600160a01b0316600682815481106122be576122be61333d565b5f918252602090912001546001600160a01b0316036122e1579360019350915050565b600101612297565b505f93849350915050565b60015460ff16610bdf5760405162461bcd60e51b815260206004820152601460248201527314185d5cd8589b194e881b9bdd081c185d5cd95960621b60448201526064016108bb565b5f815f03612349575f5ffd5b5f6001600160c01b0384116123735782604085901b8161236b5761236b6131d9565b049050612488565b60c084811c600160201b811061238b576020918201911c5b62010000811061239d576010918201911c5b61010081106123ae576008918201911c5b601081106123be576004918201911c5b600481106123ce576002918201911c5b600281106123dd576001820191505b60bf820360018603901c6001018260ff0387901b816123fe576123fe6131d9565b0492506001600160801b03831115612414575f5ffd5b608085901c83026001600160801b038616840260c088901c604089901b82811015612440576001820391505b608084901b92900382811015612457576001820391505b829003608084901c821461246c57600161247d565b88818161247b5761247b6131d9565b045b870196505050505050505b6001600160801b038111156120cc575f5ffd5b5f5f82600f0b136124aa575f5ffd5b5f600f83900b600160401b81126124c3576040918201911d5b600160201b81126124d6576020918201911d5b6201000081126124e8576010918201911d5b61010081126124f9576008918201911d5b60108112612509576004918201911d5b60048112612519576002918201911d5b60028112612528576001820191505b603f19820160401b600f85900b607f8490031b6001603f1b5b5f8113156125665790800260ff81901c8281029390930192607f011c9060011d612541565b509095945050505050565b5f600160461b82600f0b12612584575f5ffd5b6001600160461b031982600f0b121561259e57505f919050565b6001607f1b5f6001603f1b8416600f0b13156125cb5770016a09e667f3bcc908b2fb1366ea957d3e0260801c5b5f836001603e1b16600f0b13156125f3577001306fe0a31b7152de8d5a46305c85edec0260801c5b5f836001603d1b16600f0b131561261b577001172b83c7d517adcdf7c8c50eb14a791f0260801c5b5f836001603c1b16600f0b13156126435770010b5586cf9890f6298b92b71842a983630260801c5b5f836001603b1b16600f0b131561266b577001059b0d31585743ae7c548eb68ca417fd0260801c5b5f836001603a1b16600f0b131561269357700102c9a3e778060ee6f7caca4f7a29bde80260801c5b5f83600160391b16600f0b13156126bb5770010163da9fb33356d84a66ae336dcdfa3f0260801c5b5f83600160381b16600f0b13156126e357700100b1afa5abcbed6129ab13ec11dc95430260801c5b5f83600160371b16600f0b131561270b5770010058c86da1c09ea1ff19d294cf2f679b0260801c5b5f83600160361b16600f0b1315612733577001002c605e2e8cec506d21bfc89a23a00f0260801c5b5f83600160351b16600f0b131561275b57700100162f3904051fa128bca9c55c31e5df0260801c5b5f83600160341b16600f0b1315612783577001000b175effdc76ba38e31671ca9397250260801c5b5f83600160331b16600f0b13156127ab57700100058ba01fb9f96d6cacd4b180917c3d0260801c5b5f83600160321b16600f0b13156127d35770010002c5cc37da9491d0985c348c68e7b30260801c5b5f83600160311b16600f0b13156127fb577001000162e525ee054754457d59952920260260801c5b5f83600160301b16600f0b13156128235770010000b17255775c040618bf4a4ade83fc0260801c5b5f836001602f1b16600f0b131561284b577001000058b91b5bc9ae2eed81e9b7d4cfab0260801c5b5f836001602e1b16600f0b131561287357700100002c5c89d5ec6ca4d7c8acc017b7c90260801c5b5f836001602d1b16600f0b131561289b5770010000162e43f4f831060e02d839a9d16d0260801c5b5f836001602c1b16600f0b13156128c357700100000b1721bcfc99d9f890ea069117630260801c5b5f836001602b1b16600f0b13156128eb5770010000058b90cf1e6d97f9ca14dbcc16280260801c5b5f836001602a1b16600f0b1315612913577001000002c5c863b73f016468f6bac5ca2b0260801c5b5f83600160291b16600f0b131561293b57700100000162e430e5a18f6119e3c02282a50260801c5b5f83600160281b16600f0b1315612963577001000000b1721835514b86e6d96efd1bfe0260801c5b5f8364800000000016600f0b131561298c57700100000058b90c0b48c6be5df846c5b2ef0260801c5b5f8364400000000016600f0b13156129b55770010000002c5c8601cc6b9e94213c72737a0260801c5b5f8364200000000016600f0b13156129de577001000000162e42fff037df38aa2b219f060260801c5b5f8364100000000016600f0b1315612a075770010000000b17217fba9c739aa5819f44f90260801c5b5f8364080000000016600f0b1315612a30577001000000058b90bfcdee5acd3c1cedc8230260801c5b5f8364040000000016600f0b1315612a5957700100000002c5c85fe31f35a6a30da1be500260801c5b5f8364020000000016600f0b1315612a825770010000000162e42ff0999ce3541b9fffcf0260801c5b5f83600160201b16600f0b1315612aaa57700100000000b17217f80f4ef5aadda455540260801c5b5f83638000000016600f0b1315612ad25770010000000058b90bfbf8479bd5a81b51ad0260801c5b5f83634000000016600f0b1315612afa577001000000002c5c85fdf84bd62ae30a74cc0260801c5b5f83632000000016600f0b1315612b2257700100000000162e42fefb2fed257559bdaa0260801c5b5f83631000000016600f0b1315612b4a577001000000000b17217f7d5a7716bba4a9ae0260801c5b5f83630800000016600f0b1315612b7257700100000000058b90bfbe9ddbac5e109cce0260801c5b5f83630400000016600f0b1315612b9a5770010000000002c5c85fdf4b15de6f17eb0d0260801c5b5f83630200000016600f0b1315612bc2577001000000000162e42fefa494f1478fde050260801c5b5f83630100000016600f0b1315612bea5770010000000000b17217f7d20cf927c8e94c0260801c5b5f836280000016600f0b1315612c11577001000000000058b90bfbe8f71cb4e4b33d0260801c5b5f836240000016600f0b1315612c3857700100000000002c5c85fdf477b662b269450260801c5b5f836220000016600f0b1315612c5f5770010000000000162e42fefa3ae53369388c0260801c5b5f836210000016600f0b1315612c8657700100000000000b17217f7d1d351a389d400260801c5b5f836208000016600f0b1315612cad5770010000000000058b90bfbe8e8b2d3d4ede0260801c5b5f836204000016600f0b1315612cd4577001000000000002c5c85fdf4741bea6e77e0260801c5b5f836202000016600f0b1315612cfb57700100000000000162e42fefa39fe95583c20260801c5b5f836201000016600f0b1315612d22577001000000000000b17217f7d1cfb72b45e10260801c5b5f8361800016600f0b1315612d4857700100000000000058b90bfbe8e7cc35c3f00260801c5b5f8361400016600f0b1315612d6e5770010000000000002c5c85fdf473e242ea380260801c5b5f8361200016600f0b1315612d94577001000000000000162e42fefa39f02b772c0260801c5b5f8361100016600f0b1315612dba5770010000000000000b17217f7d1cf7d83c1a0260801c5b5f8361080016600f0b1315612de0577001000000000000058b90bfbe8e7bdcbe2e0260801c5b5f8361040016600f0b1315612e0657700100000000000002c5c85fdf473dea871f0260801c5b5f8361020016600f0b1315612e2c5770010000000000000162e42fefa39ef44d910260801c5b5f8361010016600f0b1315612e5257700100000000000000b17217f7d1cf79e9490260801c5b5f83608016600f0b1315612e775770010000000000000058b90bfbe8e7bce5440260801c5b5f83604016600f0b1315612e9c577001000000000000002c5c85fdf473de6eca0260801c5b5f83602016600f0b1315612ec157700100000000000000162e42fefa39ef366f0260801c5b5f83601016600f0b1315612ee6577001000000000000000b17217f7d1cf79afa0260801c5b5f83600816600f0b1315612f0b57700100000000000000058b90bfbe8e7bcd6d0260801c5b5f83600416600f0b1315612f305770010000000000000002c5c85fdf473de6b20260801c5b5f83600216600f0b1315612f55577001000000000000000162e42fefa39ef3580260801c5b5f83600116600f0b1315612f7a5770010000000000000000b17217f7d1cf79ab0260801c5b600f83810b60401d603f03900b1c60016001607f1b038111156120cf575f5ffd5b6001600160a01b0381168114611b92575f5ffd5b5f60208284031215612fbf575f5ffd5b81356120cc81612f9b565b5f60208284031215612fda575f5ffd5b5035919050565b8015158114611b92575f5ffd5b5f5f60408385031215612fff575f5ffd5b823561300a81612f9b565b9150602083013561301a81612fe1565b809150509250929050565b6001600160a01b0391909116815260200190565b5f5f5f6060848603121561304b575f5ffd5b833561305681612f9b565b95602085013595506040909401359392505050565b5f5f6040838503121561307c575f5ffd5b50508035926020909101359150565b602080825282518282018190525f918401906040840190835b818110156125665783516001600160a01b03168352602093840193909201916001016130a4565b5f5f604083850312156130dc575f5ffd5b82356130e781612f9b565b946020939093013593505050565b5f5f5f5f5f5f5f60e0888a03121561310b575f5ffd5b873561311681612f9b565b9650602088013561312681612f9b565b9550604088013561313681612f9b565b9450606088013561314681612f9b565b9350608088013561315681612f9b565b925060a088013561316681612f9b565b915060c088013561317681612f9b565b8091505092959891949750929550565b6020808252600e908201526d139bdd08185d5d1a1bdc9a5e995960921b604082015260600190565b634e487b7160e01b5f52601160045260245ffd5b80820281158282048414176120cf576120cf6131ae565b634e487b7160e01b5f52601260045260245ffd5b5f8261320757634e487b7160e01b5f52601260045260245ffd5b500490565b6020808252601a9082015279496e73756666696369656e7420457468657220666f722066656560301b604082015260600190565b818103818111156120cf576120cf6131ae565b5f60018201613264576132646131ae565b5060010190565b634e487b7160e01b5f52602160045260245ffd5b6003811061328f5761328f61326b565b9052565b8781526001600160a01b0387166020820152604081018690526060810185905260e08101600185106132c7576132c761326b565b8460808301526132da60a083018561327f565b82151560c083015298975050505050505050565b6001600160a01b03851681526080810161330b602083018661327f565b836040830152821515606083015295945050505050565b6001600160a01b039290921682521515602082015260400190565b634e487b7160e01b5f52603260045260245ffd5b634e487b7160e01b5f52603160045260245ffd5b5f60208284031215613375575f5ffd5b5051919050565b5f6020828403121561338c575f5ffd5b81516120cc81612f9b565b5f602082840312156133a7575f5ffd5b81516120cc81612fe1565b60208082526029908201527f496e73756666696369656e7420457468657220666f72206f7264657220636f736040820152687420616e642066656560b81b606082015260800190565b808201808211156120cf576120cf6131ae56fea264697066735822122015efa44a6a65a923cbfe9677030750dd01f631bd20daeeb64508b3d30190602064736f6c634300081e0033",
			"opcodes": "PUSH1 0x80 PUSH1 0x40 MSTORE PUSH1 0x1 PUSH1 0x16 SSTORE CALLVALUE DUP1 ISZERO PUSH1 0x13 JUMPI PUSH0 PUSH0 REVERT JUMPDEST POP PUSH1 0x40 MLOAD PUSH2 0x34EB CODESIZE SUB DUP1 PUSH2 0x34EB DUP4 CODECOPY DUP2 ADD PUSH1 0x40 DUP2 SWAP1 MSTORE PUSH1 0x30 SWAP2 PUSH1 0x84 JUMP JUMPDEST PUSH1 0x1 PUSH0 DUP2 DUP2 SSTORE DUP2 SLOAD PUSH1 0xFF NOT SWAP1 DUP2 AND DUP4 SSTORE PUSH1 0x2 DUP1 SLOAD PUSH1 0x1 PUSH1 0x1 PUSH1 0xA0 SHL SUB NOT AND CALLER SWAP1 DUP2 OR SWAP1 SWAP2 SSTORE DUP3 MSTORE PUSH1 0x4 PUSH1 0x20 SWAP1 DUP2 MSTORE PUSH1 0x40 DUP1 DUP5 KECCAK256 DUP1 SLOAD DUP5 AND DUP7 OR SWAP1 SSTORE PUSH1 0xA SWAP6 SWAP1 SWAP6 SSTORE PUSH1 0x7 SWAP1 MSTORE SWAP3 SWAP1 KECCAK256 DUP1 SLOAD SWAP1 SWAP3 AND OR SWAP1 SSTORE PUSH1 0x9A JUMP JUMPDEST PUSH0 PUSH1 0x20 DUP3 DUP5 SUB SLT ISZERO PUSH1 0x93 JUMPI PUSH0 PUSH0 REVERT JUMPDEST POP MLOAD SWAP2 SWAP1 POP JUMP JUMPDEST PUSH2 0x3444 DUP1 PUSH2 0xA7 PUSH0 CODECOPY PUSH0 RETURN INVALID PUSH1 0x80 PUSH1 0x40 MSTORE PUSH1 0x4 CALLDATASIZE LT PUSH2 0x271 JUMPI PUSH0 CALLDATALOAD PUSH1 0xE0 SHR DUP1 PUSH4 0x71DC7725 GT PUSH2 0x14F JUMPI DUP1 PUSH4 0xB5B6603C GT PUSH2 0xBB JUMPI DUP1 PUSH4 0xB5B6603C EQ PUSH2 0x706 JUMPI DUP1 PUSH4 0xBA0BBD95 EQ PUSH2 0x725 JUMPI DUP1 PUSH4 0xC0713601 EQ PUSH2 0x744 JUMPI DUP1 PUSH4 0xD3FF95C7 EQ PUSH2 0x763 JUMPI DUP1 PUSH4 0xD695BF86 EQ PUSH2 0x782 JUMPI DUP1 PUSH4 0xD8428759 EQ PUSH2 0x796 JUMPI DUP1 PUSH4 0xDC45D08E EQ PUSH2 0x7CA JUMPI DUP1 PUSH4 0xE74B981B EQ PUSH2 0x7F1 JUMPI DUP1 PUSH4 0xF19E207E EQ PUSH2 0x810 JUMPI DUP1 PUSH4 0xF343EBED EQ PUSH2 0x83E JUMPI DUP1 PUSH4 0xF47A0ACC EQ PUSH2 0x850 JUMPI DUP1 PUSH4 0xFA66A5F4 EQ PUSH2 0x865 JUMPI DUP1 PUSH4 0xFCF99B16 EQ PUSH2 0x87A JUMPI PUSH2 0x271 JUMP JUMPDEST DUP1 PUSH4 0x71DC7725 EQ PUSH2 0x5C2 JUMPI DUP1 PUSH4 0x78DD0298 EQ PUSH2 0x5E1 JUMPI DUP1 PUSH4 0x7BB009D9 EQ PUSH2 0x5F5 JUMPI DUP1 PUSH4 0x8456CB59 EQ PUSH2 0x614 JUMPI DUP1 PUSH4 0x87AD8F87 EQ PUSH2 0x628 JUMPI DUP1 PUSH4 0x8DA5CB5B EQ PUSH2 0x647 JUMPI DUP1 PUSH4 0x9815005F EQ PUSH2 0x666 JUMPI DUP1 PUSH4 0x9C5338A5 EQ PUSH2 0x679 JUMPI DUP1 PUSH4 0xA001ECDD EQ PUSH2 0x698 JUMPI DUP1 PUSH4 0xA0AABD57 EQ PUSH2 0x6AD JUMPI DUP1 PUSH4 0xAB16D155 EQ PUSH2 0x6C0 JUMPI DUP1 PUSH4 0xAB48570D EQ PUSH2 0x6DF JUMPI DUP1 PUSH4 0xAE7B7BD2 EQ PUSH2 0x6F3 JUMPI PUSH2 0x271 JUMP JUMPDEST DUP1 PUSH4 0x46904840 GT PUSH2 0x1EE JUMPI DUP1 PUSH4 0x46904840 EQ PUSH2 0x442 JUMPI DUP1 PUSH4 0x46F6C9DE EQ PUSH2 0x461 JUMPI DUP1 PUSH4 0x4783C35B EQ PUSH2 0x498 JUMPI DUP1 PUSH4 0x4A3D72A1 EQ PUSH2 0x4BC JUMPI DUP1 PUSH4 0x52B459CC EQ PUSH2 0x4DB JUMPI DUP1 PUSH4 0x52F7C988 EQ PUSH2 0x4FA JUMPI DUP1 PUSH4 0x555D3E63 EQ PUSH2 0x519 JUMPI DUP1 PUSH4 0x566D5D0E EQ PUSH2 0x538 JUMPI DUP1 PUSH4 0x5A2FE45A EQ PUSH2 0x559 JUMPI DUP1 PUSH4 0x5C975ABB EQ PUSH2 0x56C JUMPI DUP1 PUSH4 0x60455410 EQ PUSH2 0x583 JUMPI DUP1 PUSH4 0x63BA5DF7 EQ PUSH2 0x598 JUMPI DUP1 PUSH4 0x6F726DDA EQ PUSH2 0x5AD JUMPI PUSH2 0x271 JUMP JUMPDEST DUP1 PUSH3 0xDFA778 EQ PUSH2 0x2A8 JUMPI DUP1 PUSH3 0xE36DE3 EQ PUSH2 0x2EB JUMPI DUP1 PUSH4 0x75B6E33 EQ PUSH2 0x30E JUMPI DUP1 PUSH4 0x11508BEB EQ PUSH2 0x323 JUMPI DUP1 PUSH4 0x11C0A582 EQ PUSH2 0x344 JUMPI DUP1 PUSH4 0x1351CF51 EQ PUSH2 0x358 JUMPI DUP1 PUSH4 0x13AF4035 EQ PUSH2 0x377 JUMPI DUP1 PUSH4 0x176BFF03 EQ PUSH2 0x396 JUMPI DUP1 PUSH4 0x1B8E2ED9 EQ PUSH2 0x3C4 JUMPI DUP1 PUSH4 0x27E235E3 EQ PUSH2 0x3F0 JUMPI DUP1 PUSH4 0x3772525C EQ PUSH2 0x41B JUMPI DUP1 PUSH4 0x3F4BA83A EQ PUSH2 0x42E JUMPI JUMPDEST PUSH1 0x40 MLOAD CALLVALUE DUP2 MSTORE CALLER SWAP1 PUSH32 0x1E57E3BB474320BE3D2C77138F75B7C3941292D647F5F9634E33A8E94E0E069B SWAP1 PUSH1 0x20 ADD PUSH1 0x40 MLOAD DUP1 SWAP2 SUB SWAP1 LOG2 STOP JUMPDEST CALLVALUE DUP1 ISZERO PUSH2 0x2B3 JUMPI PUSH0 PUSH0 REVERT JUMPDEST POP PUSH2 0x2D6 PUSH2 0x2C2 CALLDATASIZE PUSH1 0x4 PUSH2 0x2FAF JUMP JUMPDEST PUSH1 0x7 PUSH1 0x20 MSTORE PUSH0 SWAP1 DUP2 MSTORE PUSH1 0x40 SWAP1 KECCAK256 SLOAD PUSH1 0xFF AND DUP2 JUMP JUMPDEST PUSH1 0x40 MLOAD SWAP1 ISZERO ISZERO DUP2 MSTORE PUSH1 0x20 ADD JUMPDEST PUSH1 0x40 MLOAD DUP1 SWAP2 SUB SWAP1 RETURN JUMPDEST CALLVALUE DUP1 ISZERO PUSH2 0x2F6 JUMPI PUSH0 PUSH0 REVERT JUMPDEST POP PUSH2 0x300 PUSH1 0x9 SLOAD DUP2 JUMP JUMPDEST PUSH1 0x40 MLOAD SWAP1 DUP2 MSTORE PUSH1 0x20 ADD PUSH2 0x2E2 JUMP JUMPDEST CALLVALUE DUP1 ISZERO PUSH2 0x319 JUMPI PUSH0 PUSH0 REVERT JUMPDEST POP PUSH2 0x300 PUSH1 0xC SLOAD DUP2 JUMP JUMPDEST CALLVALUE DUP1 ISZERO PUSH2 0x32E JUMPI PUSH0 PUSH0 REVERT JUMPDEST POP PUSH2 0x342 PUSH2 0x33D CALLDATASIZE PUSH1 0x4 PUSH2 0x2FCA JUMP JUMPDEST PUSH2 0x88D JUMP JUMPDEST STOP JUMPDEST CALLVALUE DUP1 ISZERO PUSH2 0x34F JUMPI PUSH0 PUSH0 REVERT JUMPDEST POP PUSH1 0xD SLOAD PUSH2 0x300 JUMP JUMPDEST CALLVALUE DUP1 ISZERO PUSH2 0x363 JUMPI PUSH0 PUSH0 REVERT JUMPDEST POP PUSH2 0x342 PUSH2 0x372 CALLDATASIZE PUSH1 0x4 PUSH2 0x2FEE JUMP JUMPDEST PUSH2 0x8FF JUMP JUMPDEST CALLVALUE DUP1 ISZERO PUSH2 0x382 JUMPI PUSH0 PUSH0 REVERT JUMPDEST POP PUSH2 0x342 PUSH2 0x391 CALLDATASIZE PUSH1 0x4 PUSH2 0x2FAF JUMP JUMPDEST PUSH2 0x96C JUMP JUMPDEST CALLVALUE DUP1 ISZERO PUSH2 0x3A1 JUMPI PUSH0 PUSH0 REVERT JUMPDEST POP PUSH2 0x2D6 PUSH2 0x3B0 CALLDATASIZE PUSH1 0x4 PUSH2 0x2FAF JUMP JUMPDEST PUSH1 0x5 PUSH1 0x20 MSTORE PUSH0 SWAP1 DUP2 MSTORE PUSH1 0x40 SWAP1 KECCAK256 SLOAD PUSH1 0xFF AND DUP2 JUMP JUMPDEST CALLVALUE DUP1 ISZERO PUSH2 0x3CF JUMPI PUSH0 PUSH0 REVERT JUMPDEST POP PUSH1 0x14 SLOAD PUSH2 0x3E3 SWAP1 PUSH1 0x1 PUSH1 0x1 PUSH1 0xA0 SHL SUB AND DUP2 JUMP JUMPDEST PUSH1 0x40 MLOAD PUSH2 0x2E2 SWAP2 SWAP1 PUSH2 0x3025 JUMP JUMPDEST CALLVALUE DUP1 ISZERO PUSH2 0x3FB JUMPI PUSH0 PUSH0 REVERT JUMPDEST POP PUSH2 0x300 PUSH2 0x40A CALLDATASIZE PUSH1 0x4 PUSH2 0x2FAF JUMP JUMPDEST PUSH1 0x17 PUSH1 0x20 MSTORE PUSH0 SWAP1 DUP2 MSTORE PUSH1 0x40 SWAP1 KECCAK256 SLOAD DUP2 JUMP JUMPDEST PUSH2 0x342 PUSH2 0x429 CALLDATASIZE PUSH1 0x4 PUSH2 0x3039 JUMP JUMPDEST PUSH2 0x9BC JUMP JUMPDEST CALLVALUE DUP1 ISZERO PUSH2 0x439 JUMPI PUSH0 PUSH0 REVERT JUMPDEST POP PUSH2 0x342 PUSH2 0xB98 JUMP JUMPDEST CALLVALUE DUP1 ISZERO PUSH2 0x44D JUMPI PUSH0 PUSH0 REVERT JUMPDEST POP PUSH1 0x3 SLOAD PUSH2 0x3E3 SWAP1 PUSH1 0x1 PUSH1 0x1 PUSH1 0xA0 SHL SUB AND DUP2 JUMP JUMPDEST CALLVALUE DUP1 ISZERO PUSH2 0x46C JUMPI PUSH0 PUSH0 REVERT JUMPDEST POP PUSH2 0x2D6 PUSH2 0x47B CALLDATASIZE PUSH1 0x4 PUSH2 0x2FAF JUMP JUMPDEST PUSH1 0x1 PUSH1 0x1 PUSH1 0xA0 SHL SUB AND PUSH0 SWAP1 DUP2 MSTORE PUSH1 0x5 PUSH1 0x20 MSTORE PUSH1 0x40 SWAP1 KECCAK256 SLOAD PUSH1 0xFF AND SWAP1 JUMP JUMPDEST CALLVALUE DUP1 ISZERO PUSH2 0x4A3 JUMPI PUSH0 PUSH0 REVERT JUMPDEST POP PUSH1 0x1 SLOAD PUSH2 0x3E3 SWAP1 PUSH2 0x100 SWAP1 DIV PUSH1 0x1 PUSH1 0x1 PUSH1 0xA0 SHL SUB AND DUP2 JUMP JUMPDEST CALLVALUE DUP1 ISZERO PUSH2 0x4C7 JUMPI PUSH0 PUSH0 REVERT JUMPDEST POP PUSH1 0xF SLOAD PUSH2 0x3E3 SWAP1 PUSH1 0x1 PUSH1 0x1 PUSH1 0xA0 SHL SUB AND DUP2 JUMP JUMPDEST CALLVALUE DUP1 ISZERO PUSH2 0x4E6 JUMPI PUSH0 PUSH0 REVERT JUMPDEST POP PUSH2 0x342 PUSH2 0x4F5 CALLDATASIZE PUSH1 0x4 PUSH2 0x2FEE JUMP JUMPDEST PUSH2 0xBE1 JUMP JUMPDEST CALLVALUE DUP1 ISZERO PUSH2 0x505 JUMPI PUSH0 PUSH0 REVERT JUMPDEST POP PUSH2 0x342 PUSH2 0x514 CALLDATASIZE PUSH1 0x4 PUSH2 0x306B JUMP JUMPDEST PUSH2 0xC4A JUMP JUMPDEST CALLVALUE DUP1 ISZERO PUSH2 0x524 JUMPI PUSH0 PUSH0 REVERT JUMPDEST POP PUSH1 0x11 SLOAD PUSH2 0x3E3 SWAP1 PUSH1 0x1 PUSH1 0x1 PUSH1 0xA0 SHL SUB AND DUP2 JUMP JUMPDEST CALLVALUE DUP1 ISZERO PUSH2 0x543 JUMPI PUSH0 PUSH0 REVERT JUMPDEST POP PUSH2 0x54C PUSH2 0xD22 JUMP JUMPDEST PUSH1 0x40 MLOAD PUSH2 0x2E2 SWAP2 SWAP1 PUSH2 0x308B JUMP JUMPDEST PUSH2 0x342 PUSH2 0x567 CALLDATASIZE PUSH1 0x4 PUSH2 0x3039 JUMP JUMPDEST PUSH2 0xD82 JUMP JUMPDEST CALLVALUE DUP1 ISZERO PUSH2 0x577 JUMPI PUSH0 PUSH0 REVERT JUMPDEST POP PUSH1 0x1 SLOAD PUSH1 0xFF AND PUSH2 0x2D6 JUMP JUMPDEST CALLVALUE DUP1 ISZERO PUSH2 0x58E JUMPI PUSH0 PUSH0 REVERT JUMPDEST POP PUSH2 0x300 PUSH1 0xD SLOAD DUP2 JUMP JUMPDEST CALLVALUE DUP1 ISZERO PUSH2 0x5A3 JUMPI PUSH0 PUSH0 REVERT JUMPDEST POP PUSH2 0x300 PUSH1 0x8 SLOAD DUP2 JUMP JUMPDEST CALLVALUE DUP1 ISZERO PUSH2 0x5B8 JUMPI PUSH0 PUSH0 REVERT JUMPDEST POP PUSH2 0x300 PUSH1 0xA SLOAD DUP2 JUMP JUMPDEST CALLVALUE DUP1 ISZERO PUSH2 0x5CD JUMPI PUSH0 PUSH0 REVERT JUMPDEST POP PUSH1 0x13 SLOAD PUSH2 0x3E3 SWAP1 PUSH1 0x1 PUSH1 0x1 PUSH1 0xA0 SHL SUB AND DUP2 JUMP JUMPDEST CALLVALUE DUP1 ISZERO PUSH2 0x5EC JUMPI PUSH0 PUSH0 REVERT JUMPDEST POP PUSH2 0x300 PUSH2 0xF1D JUMP JUMPDEST CALLVALUE DUP1 ISZERO PUSH2 0x600 JUMPI PUSH0 PUSH0 REVERT JUMPDEST POP PUSH2 0x3E3 PUSH2 0x60F CALLDATASIZE PUSH1 0x4 PUSH2 0x2FCA JUMP JUMPDEST PUSH2 0xF3A JUMP JUMPDEST CALLVALUE DUP1 ISZERO PUSH2 0x61F JUMPI PUSH0 PUSH0 REVERT JUMPDEST POP PUSH2 0x342 PUSH2 0xF62 JUMP JUMPDEST CALLVALUE DUP1 ISZERO PUSH2 0x633 JUMPI PUSH0 PUSH0 REVERT JUMPDEST POP PUSH1 0x10 SLOAD PUSH2 0x3E3 SWAP1 PUSH1 0x1 PUSH1 0x1 PUSH1 0xA0 SHL SUB AND DUP2 JUMP JUMPDEST CALLVALUE DUP1 ISZERO PUSH2 0x652 JUMPI PUSH0 PUSH0 REVERT JUMPDEST POP PUSH1 0x2 SLOAD PUSH2 0x3E3 SWAP1 PUSH1 0x1 PUSH1 0x1 PUSH1 0xA0 SHL SUB AND DUP2 JUMP JUMPDEST PUSH2 0x342 PUSH2 0x674 CALLDATASIZE PUSH1 0x4 PUSH2 0x3039 JUMP JUMPDEST PUSH2 0xFA8 JUMP JUMPDEST CALLVALUE DUP1 ISZERO PUSH2 0x684 JUMPI PUSH0 PUSH0 REVERT JUMPDEST POP PUSH1 0x12 SLOAD PUSH2 0x3E3 SWAP1 PUSH1 0x1 PUSH1 0x1 PUSH1 0xA0 SHL SUB AND DUP2 JUMP JUMPDEST CALLVALUE DUP1 ISZERO PUSH2 0x6A3 JUMPI PUSH0 PUSH0 REVERT JUMPDEST POP PUSH2 0x300 PUSH1 0xB SLOAD DUP2 JUMP JUMPDEST PUSH2 0x342 PUSH2 0x6BB CALLDATASIZE PUSH1 0x4 PUSH2 0x3039 JUMP JUMPDEST PUSH2 0x11A7 JUMP JUMPDEST CALLVALUE DUP1 ISZERO PUSH2 0x6CB JUMPI PUSH0 PUSH0 REVERT JUMPDEST POP PUSH2 0x342 PUSH2 0x6DA CALLDATASIZE PUSH1 0x4 PUSH2 0x2FEE JUMP JUMPDEST PUSH2 0x13A7 JUMP JUMPDEST CALLVALUE DUP1 ISZERO PUSH2 0x6EA JUMPI PUSH0 PUSH0 REVERT JUMPDEST POP PUSH2 0x342 PUSH2 0x16B9 JUMP JUMPDEST PUSH2 0x342 PUSH2 0x701 CALLDATASIZE PUSH1 0x4 PUSH2 0x3039 JUMP JUMPDEST PUSH2 0x18AC JUMP JUMPDEST CALLVALUE DUP1 ISZERO PUSH2 0x711 JUMPI PUSH0 PUSH0 REVERT JUMPDEST POP PUSH2 0x342 PUSH2 0x720 CALLDATASIZE PUSH1 0x4 PUSH2 0x30CB JUMP JUMPDEST PUSH2 0x1A61 JUMP JUMPDEST CALLVALUE DUP1 ISZERO PUSH2 0x730 JUMPI PUSH0 PUSH0 REVERT JUMPDEST POP PUSH2 0x342 PUSH2 0x73F CALLDATASIZE PUSH1 0x4 PUSH2 0x30CB JUMP JUMPDEST PUSH2 0x1B19 JUMP JUMPDEST CALLVALUE DUP1 ISZERO PUSH2 0x74F JUMPI PUSH0 PUSH0 REVERT JUMPDEST POP PUSH2 0x342 PUSH2 0x75E CALLDATASIZE PUSH1 0x4 PUSH2 0x2FCA JUMP JUMPDEST PUSH2 0x1B4F JUMP JUMPDEST CALLVALUE DUP1 ISZERO PUSH2 0x76E JUMPI PUSH0 PUSH0 REVERT JUMPDEST POP PUSH2 0x342 PUSH2 0x77D CALLDATASIZE PUSH1 0x4 PUSH2 0x30F5 JUMP JUMPDEST PUSH2 0x1B95 JUMP JUMPDEST CALLVALUE DUP1 ISZERO PUSH2 0x78D JUMPI PUSH0 PUSH0 REVERT JUMPDEST POP PUSH2 0x342 PUSH2 0x1C5C JUMP JUMPDEST CALLVALUE DUP1 ISZERO PUSH2 0x7A1 JUMPI PUSH0 PUSH0 REVERT JUMPDEST POP PUSH2 0x7B5 PUSH2 0x7B0 CALLDATASIZE PUSH1 0x4 PUSH2 0x2FAF JUMP JUMPDEST PUSH2 0x1DA5 JUMP JUMPDEST PUSH1 0x40 DUP1 MLOAD SWAP3 DUP4 MSTORE SWAP1 ISZERO ISZERO PUSH1 0x20 DUP4 ADD MSTORE ADD PUSH2 0x2E2 JUMP JUMPDEST CALLVALUE DUP1 ISZERO PUSH2 0x7D5 JUMPI PUSH0 PUSH0 REVERT JUMPDEST POP PUSH2 0x300 PUSH2 0x7E4 CALLDATASIZE PUSH1 0x4 PUSH2 0x2FAF JUMP JUMPDEST PUSH1 0x1 PUSH1 0x1 PUSH1 0xA0 SHL SUB AND BALANCE SWAP1 JUMP JUMPDEST CALLVALUE DUP1 ISZERO PUSH2 0x7FC JUMPI PUSH0 PUSH0 REVERT JUMPDEST POP PUSH2 0x342 PUSH2 0x80B CALLDATASIZE PUSH1 0x4 PUSH2 0x2FAF JUMP JUMPDEST PUSH2 0x1DB9 JUMP JUMPDEST CALLVALUE DUP1 ISZERO PUSH2 0x81B JUMPI PUSH0 PUSH0 REVERT JUMPDEST POP PUSH2 0x2D6 PUSH2 0x82A CALLDATASIZE PUSH1 0x4 PUSH2 0x2FAF JUMP JUMPDEST PUSH1 0x4 PUSH1 0x20 MSTORE PUSH0 SWAP1 DUP2 MSTORE PUSH1 0x40 SWAP1 KECCAK256 SLOAD PUSH1 0xFF AND DUP2 JUMP JUMPDEST CALLVALUE DUP1 ISZERO PUSH2 0x849 JUMPI PUSH0 PUSH0 REVERT JUMPDEST POP SELFBALANCE PUSH2 0x300 JUMP JUMPDEST CALLVALUE DUP1 ISZERO PUSH2 0x85B JUMPI PUSH0 PUSH0 REVERT JUMPDEST POP PUSH2 0x300 PUSH1 0x16 SLOAD DUP2 JUMP JUMPDEST CALLVALUE DUP1 ISZERO PUSH2 0x870 JUMPI PUSH0 PUSH0 REVERT JUMPDEST POP PUSH2 0x300 PUSH1 0xE SLOAD DUP2 JUMP JUMPDEST PUSH2 0x342 PUSH2 0x888 CALLDATASIZE PUSH1 0x4 PUSH2 0x3039 JUMP JUMPDEST PUSH2 0x1E6B JUMP JUMPDEST CALLER PUSH0 SWAP1 DUP2 MSTORE PUSH1 0x7 PUSH1 0x20 MSTORE PUSH1 0x40 SWAP1 KECCAK256 SLOAD PUSH1 0xFF AND PUSH2 0x8C4 JUMPI PUSH1 0x40 MLOAD PUSH3 0x461BCD PUSH1 0xE5 SHL DUP2 MSTORE PUSH1 0x4 ADD PUSH2 0x8BB SWAP1 PUSH2 0x3186 JUMP JUMPDEST PUSH1 0x40 MLOAD DUP1 SWAP2 SUB SWAP1 REVERT JUMPDEST PUSH1 0xD DUP2 SWAP1 SSTORE PUSH1 0x40 MLOAD DUP2 DUP2 MSTORE PUSH32 0x66CBCA4F3C64FECF1DCB9CE094ABCF7F68C3450A1D4E3A8E917DD621EDB4EBE0 SWAP1 PUSH1 0x20 ADD PUSH1 0x40 MLOAD DUP1 SWAP2 SUB SWAP1 LOG1 POP JUMP JUMPDEST CALLER PUSH0 SWAP1 DUP2 MSTORE PUSH1 0x4 PUSH1 0x20 MSTORE PUSH1 0x40 SWAP1 KECCAK256 SLOAD PUSH1 0xFF AND PUSH2 0x92D JUMPI PUSH1 0x40 MLOAD PUSH3 0x461BCD PUSH1 0xE5 SHL DUP2 MSTORE PUSH1 0x4 ADD PUSH2 0x8BB SWAP1 PUSH2 0x3186 JUMP JUMPDEST PUSH2 0x935 PUSH2 0x2053 JUMP JUMPDEST PUSH2 0x93D PUSH2 0x207B JUMP JUMPDEST PUSH1 0x1 PUSH1 0x1 PUSH1 0xA0 SHL SUB DUP3 AND PUSH0 SWAP1 DUP2 MSTORE PUSH1 0x4 PUSH1 0x20 MSTORE PUSH1 0x40 DUP2 KECCAK256 DUP1 SLOAD PUSH1 0xFF NOT AND DUP4 ISZERO ISZERO OR SWAP1 SSTORE PUSH1 0x1 SWAP1 SSTORE POP POP JUMP JUMPDEST POP POP JUMP JUMPDEST CALLER PUSH0 SWAP1 DUP2 MSTORE PUSH1 0x4 PUSH1 0x20 MSTORE PUSH1 0x40 SWAP1 KECCAK256 SLOAD PUSH1 0xFF AND PUSH2 0x99A JUMPI PUSH1 0x40 MLOAD PUSH3 0x461BCD PUSH1 0xE5 SHL DUP2 MSTORE PUSH1 0x4 ADD PUSH2 0x8BB SWAP1 PUSH2 0x3186 JUMP JUMPDEST PUSH1 0x2 DUP1 SLOAD PUSH1 0x1 PUSH1 0x1 PUSH1 0xA0 SHL SUB NOT AND PUSH1 0x1 PUSH1 0x1 PUSH1 0xA0 SHL SUB SWAP3 SWAP1 SWAP3 AND SWAP2 SWAP1 SWAP2 OR SWAP1 SSTORE JUMP JUMPDEST CALLER PUSH0 SWAP1 DUP2 MSTORE PUSH1 0x4 PUSH1 0x20 MSTORE PUSH1 0x40 SWAP1 KECCAK256 SLOAD PUSH1 0xFF AND PUSH2 0x9EA JUMPI PUSH1 0x40 MLOAD PUSH3 0x461BCD PUSH1 0xE5 SHL DUP2 MSTORE PUSH1 0x4 ADD PUSH2 0x8BB SWAP1 PUSH2 0x3186 JUMP JUMPDEST PUSH2 0x9F2 PUSH2 0x2053 JUMP JUMPDEST PUSH2 0x9FA PUSH2 0x207B JUMP JUMPDEST PUSH0 PUSH2 0x3E8 PUSH2 0xA08 DUP4 DUP6 PUSH2 0x31C2 JUMP JUMPDEST PUSH2 0xA12 SWAP2 SWAP1 PUSH2 0x31ED JUMP JUMPDEST SWAP1 POP PUSH0 PUSH2 0x2710 PUSH1 0xB SLOAD DUP4 PUSH2 0xA26 SWAP2 SWAP1 PUSH2 0x31C2 JUMP JUMPDEST PUSH2 0xA30 SWAP2 SWAP1 PUSH2 0x31ED JUMP JUMPDEST SWAP1 POP PUSH0 PUSH1 0xD SLOAD DUP3 PUSH8 0xDE0B6B3A7640000 PUSH2 0xA4A SWAP2 SWAP1 PUSH2 0x31C2 JUMP JUMPDEST PUSH2 0xA54 SWAP2 SWAP1 PUSH2 0x31ED JUMP JUMPDEST SWAP1 POP PUSH0 PUSH2 0xA63 DUP3 PUSH1 0xC SLOAD PUSH2 0x20C1 JUMP JUMPDEST SWAP1 POP DUP1 CALLVALUE LT ISZERO PUSH2 0xA85 JUMPI PUSH1 0x40 MLOAD PUSH3 0x461BCD PUSH1 0xE5 SHL DUP2 MSTORE PUSH1 0x4 ADD PUSH2 0x8BB SWAP1 PUSH2 0x320C JUMP JUMPDEST PUSH1 0x3 SLOAD PUSH1 0x40 MLOAD PUSH1 0x1 PUSH1 0x1 PUSH1 0xA0 SHL SUB SWAP1 SWAP2 AND SWAP1 DUP3 ISZERO PUSH2 0x8FC MUL SWAP1 DUP4 SWAP1 PUSH0 DUP2 DUP2 DUP2 DUP6 DUP9 DUP9 CALL SWAP4 POP POP POP POP ISZERO DUP1 ISZERO PUSH2 0xABC JUMPI RETURNDATASIZE PUSH0 PUSH0 RETURNDATACOPY RETURNDATASIZE PUSH0 REVERT JUMPDEST POP PUSH0 PUSH2 0xAC8 DUP3 CALLVALUE PUSH2 0x3240 JUMP JUMPDEST SWAP1 POP DUP1 ISZERO PUSH2 0xB05 JUMPI PUSH1 0x40 MLOAD PUSH1 0x1 PUSH1 0x1 PUSH1 0xA0 SHL SUB DUP10 AND SWAP1 DUP3 ISZERO PUSH2 0x8FC MUL SWAP1 DUP4 SWAP1 PUSH0 DUP2 DUP2 DUP2 DUP6 DUP9 DUP9 CALL SWAP4 POP POP POP POP ISZERO DUP1 ISZERO PUSH2 0xB03 JUMPI RETURNDATASIZE PUSH0 PUSH0 RETURNDATACOPY RETURNDATASIZE PUSH0 REVERT JUMPDEST POP JUMPDEST PUSH1 0x16 DUP1 SLOAD PUSH0 SWAP2 DUP3 PUSH2 0xB15 DUP4 PUSH2 0x3253 JUMP JUMPDEST SWAP1 SWAP2 SSTORE POP PUSH1 0x12 SLOAD PUSH1 0x40 MLOAD PUSH4 0x3AA2B93 PUSH1 0xE1 SHL DUP2 MSTORE SWAP2 SWAP3 POP PUSH1 0x1 PUSH1 0x1 PUSH1 0xA0 SHL SUB AND SWAP1 PUSH4 0x7545726 SWAP1 PUSH2 0xB57 SWAP1 DUP5 SWAP1 DUP14 SWAP1 DUP14 SWAP1 DUP14 SWAP1 PUSH0 SWAP1 PUSH1 0x2 SWAP1 DUP3 SWAP1 PUSH1 0x4 ADD PUSH2 0x3293 JUMP JUMPDEST PUSH0 PUSH1 0x40 MLOAD DUP1 DUP4 SUB DUP2 PUSH0 DUP8 DUP1 EXTCODESIZE ISZERO DUP1 ISZERO PUSH2 0xB6E JUMPI PUSH0 PUSH0 REVERT JUMPDEST POP GAS CALL ISZERO DUP1 ISZERO PUSH2 0xB80 JUMPI RETURNDATASIZE PUSH0 PUSH0 RETURNDATACOPY RETURNDATASIZE PUSH0 REVERT JUMPDEST POP POP POP POP POP POP POP POP POP POP PUSH2 0xB93 PUSH1 0x1 PUSH0 SSTORE JUMP JUMPDEST POP POP POP JUMP JUMPDEST CALLER PUSH0 SWAP1 DUP2 MSTORE PUSH1 0x4 PUSH1 0x20 MSTORE PUSH1 0x40 SWAP1 KECCAK256 SLOAD PUSH1 0xFF AND PUSH2 0xBC6 JUMPI PUSH1 0x40 MLOAD PUSH3 0x461BCD PUSH1 0xE5 SHL DUP2 MSTORE PUSH1 0x4 ADD PUSH2 0x8BB SWAP1 PUSH2 0x3186 JUMP JUMPDEST PUSH2 0xBCE PUSH2 0x2053 JUMP JUMPDEST PUSH2 0xBD6 PUSH2 0x20D5 JUMP JUMPDEST PUSH2 0xBDF PUSH1 0x1 PUSH0 SSTORE JUMP JUMPDEST JUMP JUMPDEST CALLER PUSH0 SWAP1 DUP2 MSTORE PUSH1 0x4 PUSH1 0x20 MSTORE PUSH1 0x40 SWAP1 KECCAK256 SLOAD PUSH1 0xFF AND PUSH2 0xC0F JUMPI PUSH1 0x40 MLOAD PUSH3 0x461BCD PUSH1 0xE5 SHL DUP2 MSTORE PUSH1 0x4 ADD PUSH2 0x8BB SWAP1 PUSH2 0x3186 JUMP JUMPDEST PUSH2 0xC17 PUSH2 0x2053 JUMP JUMPDEST PUSH2 0xC1F PUSH2 0x207B JUMP JUMPDEST PUSH1 0x1 PUSH1 0x1 PUSH1 0xA0 SHL SUB DUP3 AND PUSH0 SWAP1 DUP2 MSTORE PUSH1 0x7 PUSH1 0x20 MSTORE PUSH1 0x40 DUP2 KECCAK256 DUP1 SLOAD PUSH1 0xFF NOT AND DUP4 ISZERO ISZERO OR SWAP1 SSTORE PUSH1 0x1 SWAP1 SSTORE POP POP JUMP JUMPDEST CALLER PUSH0 SWAP1 DUP2 MSTORE PUSH1 0x4 PUSH1 0x20 MSTORE PUSH1 0x40 SWAP1 KECCAK256 SLOAD PUSH1 0xFF AND PUSH2 0xC78 JUMPI PUSH1 0x40 MLOAD PUSH3 0x461BCD PUSH1 0xE5 SHL DUP2 MSTORE PUSH1 0x4 ADD PUSH2 0x8BB SWAP1 PUSH2 0x3186 JUMP JUMPDEST PUSH2 0xBB8 DUP3 GT ISZERO PUSH2 0xCDB JUMPI PUSH1 0x40 MLOAD PUSH3 0x461BCD PUSH1 0xE5 SHL DUP2 MSTORE PUSH1 0x20 PUSH1 0x4 DUP3 ADD MSTORE PUSH1 0x28 PUSH1 0x24 DUP3 ADD MSTORE PUSH32 0x4665652063616E6E6F7420657863656564203325202833303030206261736973 PUSH1 0x44 DUP3 ADD MSTORE PUSH8 0x20706F696E747329 PUSH1 0xC0 SHL PUSH1 0x64 DUP3 ADD MSTORE PUSH1 0x84 ADD PUSH2 0x8BB JUMP JUMPDEST PUSH1 0xB DUP3 SWAP1 SSTORE PUSH1 0xC DUP2 SWAP1 SSTORE PUSH1 0x40 DUP1 MLOAD DUP4 DUP2 MSTORE PUSH1 0x20 DUP2 ADD DUP4 SWAP1 MSTORE PUSH32 0x528D9479E9F9889A87A3C30C7F7BA537E5E59C4C85A37733B16E57C62DF61302 SWAP2 ADD PUSH1 0x40 MLOAD DUP1 SWAP2 SUB SWAP1 LOG1 POP POP JUMP JUMPDEST PUSH1 0x60 PUSH1 0x6 DUP1 SLOAD DUP1 PUSH1 0x20 MUL PUSH1 0x20 ADD PUSH1 0x40 MLOAD SWAP1 DUP2 ADD PUSH1 0x40 MSTORE DUP1 SWAP3 SWAP2 SWAP1 DUP2 DUP2 MSTORE PUSH1 0x20 ADD DUP3 DUP1 SLOAD DUP1 ISZERO PUSH2 0xD78 JUMPI PUSH1 0x20 MUL DUP3 ADD SWAP2 SWAP1 PUSH0 MSTORE PUSH1 0x20 PUSH0 KECCAK256 SWAP1 JUMPDEST DUP2 SLOAD PUSH1 0x1 PUSH1 0x1 PUSH1 0xA0 SHL SUB AND DUP2 MSTORE PUSH1 0x1 SWAP1 SWAP2 ADD SWAP1 PUSH1 0x20 ADD DUP1 DUP4 GT PUSH2 0xD5A JUMPI JUMPDEST POP POP POP POP POP SWAP1 POP SWAP1 JUMP JUMPDEST CALLER PUSH0 SWAP1 DUP2 MSTORE PUSH1 0x4 PUSH1 0x20 MSTORE PUSH1 0x40 SWAP1 KECCAK256 SLOAD PUSH1 0xFF AND PUSH2 0xDB0 JUMPI PUSH1 0x40 MLOAD PUSH3 0x461BCD PUSH1 0xE5 SHL DUP2 MSTORE PUSH1 0x4 ADD PUSH2 0x8BB SWAP1 PUSH2 0x3186 JUMP JUMPDEST PUSH2 0xDB8 PUSH2 0x2053 JUMP JUMPDEST PUSH2 0xDC0 PUSH2 0x207B JUMP JUMPDEST PUSH0 PUSH2 0x3E8 PUSH2 0xDCE DUP4 DUP6 PUSH2 0x31C2 JUMP JUMPDEST PUSH2 0xDD8 SWAP2 SWAP1 PUSH2 0x31ED JUMP JUMPDEST SWAP1 POP PUSH0 PUSH2 0x2710 PUSH1 0xB SLOAD DUP4 PUSH2 0xDEC SWAP2 SWAP1 PUSH2 0x31C2 JUMP JUMPDEST PUSH2 0xDF6 SWAP2 SWAP1 PUSH2 0x31ED JUMP JUMPDEST SWAP1 POP PUSH0 PUSH1 0xD SLOAD DUP3 PUSH8 0xDE0B6B3A7640000 PUSH2 0xE10 SWAP2 SWAP1 PUSH2 0x31C2 JUMP JUMPDEST PUSH2 0xE1A SWAP2 SWAP1 PUSH2 0x31ED JUMP JUMPDEST SWAP1 POP PUSH0 PUSH2 0xE29 DUP3 PUSH1 0xC SLOAD PUSH2 0x20C1 JUMP JUMPDEST SWAP1 POP DUP1 CALLVALUE LT ISZERO PUSH2 0xE4B JUMPI PUSH1 0x40 MLOAD PUSH3 0x461BCD PUSH1 0xE5 SHL DUP2 MSTORE PUSH1 0x4 ADD PUSH2 0x8BB SWAP1 PUSH2 0x320C JUMP JUMPDEST PUSH1 0x3 SLOAD PUSH1 0x40 MLOAD PUSH1 0x1 PUSH1 0x1 PUSH1 0xA0 SHL SUB SWAP1 SWAP2 AND SWAP1 DUP3 ISZERO PUSH2 0x8FC MUL SWAP1 DUP4 SWAP1 PUSH0 DUP2 DUP2 DUP2 DUP6 DUP9 DUP9 CALL SWAP4 POP POP POP POP ISZERO DUP1 ISZERO PUSH2 0xE82 JUMPI RETURNDATASIZE PUSH0 PUSH0 RETURNDATACOPY RETURNDATASIZE PUSH0 REVERT JUMPDEST POP PUSH0 PUSH2 0xE8E DUP3 CALLVALUE PUSH2 0x3240 JUMP JUMPDEST SWAP1 POP DUP1 ISZERO PUSH2 0xECB JUMPI PUSH1 0x40 MLOAD PUSH1 0x1 PUSH1 0x1 PUSH1 0xA0 SHL SUB DUP10 AND SWAP1 DUP3 ISZERO PUSH2 0x8FC MUL SWAP1 DUP4 SWAP1 PUSH0 DUP2 DUP2 DUP2 DUP6 DUP9 DUP9 CALL SWAP4 POP POP POP POP ISZERO DUP1 ISZERO PUSH2 0xEC9 JUMPI RETURNDATASIZE PUSH0 PUSH0 RETURNDATACOPY RETURNDATASIZE PUSH0 REVERT JUMPDEST POP JUMPDEST PUSH1 0x16 DUP1 SLOAD PUSH0 SWAP2 DUP3 PUSH2 0xEDB DUP4 PUSH2 0x3253 JUMP JUMPDEST SWAP1 SWAP2 SSTORE POP PUSH1 0x13 SLOAD PUSH1 0x40 MLOAD PUSH4 0x3AA2B93 PUSH1 0xE1 SHL DUP2 MSTORE SWAP2 SWAP3 POP PUSH1 0x1 PUSH1 0x1 PUSH1 0xA0 SHL SUB AND SWAP1 PUSH4 0x7545726 SWAP1 PUSH2 0xB57 SWAP1 DUP5 SWAP1 DUP14 SWAP1 DUP14 SWAP1 DUP14 SWAP1 PUSH0 SWAP1 PUSH1 0x1 SWAP1 DUP3 SWAP1 PUSH1 0x4 ADD PUSH2 0x3293 JUMP JUMPDEST PUSH1 0x16 DUP1 SLOAD PUSH0 SWAP2 DUP2 SWAP1 DUP4 PUSH2 0xF2F DUP4 PUSH2 0x3253 JUMP JUMPDEST SWAP1 SWAP2 SSTORE POP SWAP1 SWAP3 SWAP2 POP POP JUMP JUMPDEST PUSH1 0x6 DUP2 DUP2 SLOAD DUP2 LT PUSH2 0xF49 JUMPI PUSH0 DUP1 REVERT JUMPDEST PUSH0 SWAP2 DUP3 MSTORE PUSH1 0x20 SWAP1 SWAP2 KECCAK256 ADD SLOAD PUSH1 0x1 PUSH1 0x1 PUSH1 0xA0 SHL SUB AND SWAP1 POP DUP2 JUMP JUMPDEST CALLER PUSH0 SWAP1 DUP2 MSTORE PUSH1 0x4 PUSH1 0x20 MSTORE PUSH1 0x40 SWAP1 KECCAK256 SLOAD PUSH1 0xFF AND PUSH2 0xF90 JUMPI PUSH1 0x40 MLOAD PUSH3 0x461BCD PUSH1 0xE5 SHL DUP2 MSTORE PUSH1 0x4 ADD PUSH2 0x8BB SWAP1 PUSH2 0x3186 JUMP JUMPDEST PUSH2 0xF98 PUSH2 0x2053 JUMP JUMPDEST PUSH2 0xFA0 PUSH2 0x207B JUMP JUMPDEST PUSH2 0xBD6 PUSH2 0x2121 JUMP JUMPDEST CALLER PUSH0 SWAP1 DUP2 MSTORE PUSH1 0x4 PUSH1 0x20 MSTORE PUSH1 0x40 SWAP1 KECCAK256 SLOAD PUSH1 0xFF AND PUSH2 0xFD6 JUMPI PUSH1 0x40 MLOAD PUSH3 0x461BCD PUSH1 0xE5 SHL DUP2 MSTORE PUSH1 0x4 ADD PUSH2 0x8BB SWAP1 PUSH2 0x3186 JUMP JUMPDEST PUSH2 0xFDE PUSH2 0x2053 JUMP JUMPDEST PUSH2 0xFE6 PUSH2 0x207B JUMP JUMPDEST PUSH0 PUSH2 0x3E8 PUSH2 0xFF4 DUP4 DUP6 PUSH2 0x31C2 JUMP JUMPDEST PUSH2 0xFFE SWAP2 SWAP1 PUSH2 0x31ED JUMP JUMPDEST SWAP1 POP PUSH0 PUSH2 0x2710 PUSH1 0xB SLOAD DUP4 PUSH2 0x1012 SWAP2 SWAP1 PUSH2 0x31C2 JUMP JUMPDEST PUSH2 0x101C SWAP2 SWAP1 PUSH2 0x31ED JUMP JUMPDEST SWAP1 POP PUSH0 PUSH1 0xD SLOAD DUP3 PUSH8 0xDE0B6B3A7640000 PUSH2 0x1036 SWAP2 SWAP1 PUSH2 0x31C2 JUMP JUMPDEST PUSH2 0x1040 SWAP2 SWAP1 PUSH2 0x31ED JUMP JUMPDEST SWAP1 POP PUSH0 PUSH2 0x104F DUP3 PUSH1 0xC SLOAD PUSH2 0x20C1 JUMP JUMPDEST SWAP1 POP DUP1 CALLVALUE LT ISZERO PUSH2 0x1071 JUMPI PUSH1 0x40 MLOAD PUSH3 0x461BCD PUSH1 0xE5 SHL DUP2 MSTORE PUSH1 0x4 ADD PUSH2 0x8BB SWAP1 PUSH2 0x320C JUMP JUMPDEST PUSH1 0x3 SLOAD PUSH1 0x40 MLOAD PUSH1 0x1 PUSH1 0x1 PUSH1 0xA0 SHL SUB SWAP1 SWAP2 AND SWAP1 DUP3 ISZERO PUSH2 0x8FC MUL SWAP1 DUP4 SWAP1 PUSH0 DUP2 DUP2 DUP2 DUP6 DUP9 DUP9 CALL SWAP4 POP POP POP POP ISZERO DUP1 ISZERO PUSH2 0x10A8 JUMPI RETURNDATASIZE PUSH0 PUSH0 RETURNDATACOPY RETURNDATASIZE PUSH0 REVERT JUMPDEST POP PUSH0 PUSH2 0x10B4 DUP3 CALLVALUE PUSH2 0x3240 JUMP JUMPDEST SWAP1 POP DUP1 ISZERO PUSH2 0x10F1 JUMPI PUSH1 0x40 MLOAD PUSH1 0x1 PUSH1 0x1 PUSH1 0xA0 SHL SUB DUP10 AND SWAP1 DUP3 ISZERO PUSH2 0x8FC MUL SWAP1 DUP4 SWAP1 PUSH0 DUP2 DUP2 DUP2 DUP6 DUP9 DUP9 CALL SWAP4 POP POP POP POP ISZERO DUP1 ISZERO PUSH2 0x10EF JUMPI RETURNDATASIZE PUSH0 PUSH0 RETURNDATACOPY RETURNDATASIZE PUSH0 REVERT JUMPDEST POP JUMPDEST PUSH1 0x16 DUP1 SLOAD PUSH0 SWAP2 DUP3 PUSH2 0x1101 DUP4 PUSH2 0x3253 JUMP JUMPDEST SWAP1 SWAP2 SSTORE POP PUSH1 0x10 SLOAD PUSH1 0x40 MLOAD PUSH4 0x42AF7A0D PUSH1 0xE1 SHL DUP2 MSTORE SWAP2 SWAP3 POP PUSH1 0x1 PUSH1 0x1 PUSH1 0xA0 SHL SUB AND SWAP1 PUSH4 0x855EF41A SWAP1 PUSH2 0x113D SWAP1 DUP13 SWAP1 PUSH1 0x1 SWAP1 DUP12 SWAP1 DUP3 SWAP1 PUSH1 0x4 ADD PUSH2 0x32EE JUMP JUMPDEST PUSH0 PUSH1 0x40 MLOAD DUP1 DUP4 SUB DUP2 PUSH0 DUP8 DUP1 EXTCODESIZE ISZERO DUP1 ISZERO PUSH2 0x1154 JUMPI PUSH0 PUSH0 REVERT JUMPDEST POP GAS CALL ISZERO DUP1 ISZERO PUSH2 0x1166 JUMPI RETURNDATASIZE PUSH0 PUSH0 RETURNDATACOPY RETURNDATASIZE PUSH0 REVERT JUMPDEST POP POP PUSH1 0x13 SLOAD PUSH1 0x40 MLOAD PUSH4 0x7E8843D PUSH1 0xE4 SHL DUP2 MSTORE PUSH1 0x1 PUSH1 0x1 PUSH1 0xA0 SHL SUB SWAP1 SWAP2 AND SWAP3 POP PUSH4 0x7E8843D0 SWAP2 POP PUSH2 0xB57 SWAP1 DUP5 SWAP1 DUP14 SWAP1 DUP14 SWAP1 DUP14 SWAP1 PUSH0 SWAP1 PUSH1 0x1 SWAP1 DUP3 SWAP1 PUSH1 0x4 ADD PUSH2 0x3293 JUMP JUMPDEST CALLER PUSH0 SWAP1 DUP2 MSTORE PUSH1 0x4 PUSH1 0x20 MSTORE PUSH1 0x40 SWAP1 KECCAK256 SLOAD PUSH1 0xFF AND PUSH2 0x11D5 JUMPI PUSH1 0x40 MLOAD PUSH3 0x461BCD PUSH1 0xE5 SHL DUP2 MSTORE PUSH1 0x4 ADD PUSH2 0x8BB SWAP1 PUSH2 0x3186 JUMP JUMPDEST PUSH2 0x11DD PUSH2 0x2053 JUMP JUMPDEST PUSH2 0x11E5 PUSH2 0x207B JUMP JUMPDEST PUSH0 PUSH2 0x3E8 PUSH2 0x11F3 DUP4 DUP6 PUSH2 0x31C2 JUMP JUMPDEST PUSH2 0x11FD SWAP2 SWAP1 PUSH2 0x31ED JUMP JUMPDEST SWAP1 POP PUSH0 PUSH2 0x2710 PUSH1 0xB SLOAD DUP4 PUSH2 0x1211 SWAP2 SWAP1 PUSH2 0x31C2 JUMP JUMPDEST PUSH2 0x121B SWAP2 SWAP1 PUSH2 0x31ED JUMP JUMPDEST SWAP1 POP PUSH0 PUSH1 0xD SLOAD DUP3 PUSH8 0xDE0B6B3A7640000 PUSH2 0x1235 SWAP2 SWAP1 PUSH2 0x31C2 JUMP JUMPDEST PUSH2 0x123F SWAP2 SWAP1 PUSH2 0x31ED JUMP JUMPDEST SWAP1 POP PUSH0 PUSH2 0x124E DUP3 PUSH1 0xC SLOAD PUSH2 0x20C1 JUMP JUMPDEST SWAP1 POP DUP1 CALLVALUE LT ISZERO PUSH2 0x1270 JUMPI PUSH1 0x40 MLOAD PUSH3 0x461BCD PUSH1 0xE5 SHL DUP2 MSTORE PUSH1 0x4 ADD PUSH2 0x8BB SWAP1 PUSH2 0x320C JUMP JUMPDEST PUSH1 0x3 SLOAD PUSH1 0x40 MLOAD PUSH1 0x1 PUSH1 0x1 PUSH1 0xA0 SHL SUB SWAP1 SWAP2 AND SWAP1 DUP3 ISZERO PUSH2 0x8FC MUL SWAP1 DUP4 SWAP1 PUSH0 DUP2 DUP2 DUP2 DUP6 DUP9 DUP9 CALL SWAP4 POP POP POP POP ISZERO DUP1 ISZERO PUSH2 0x12A7 JUMPI RETURNDATASIZE PUSH0 PUSH0 RETURNDATACOPY RETURNDATASIZE PUSH0 REVERT JUMPDEST POP PUSH0 PUSH2 0x12B3 DUP3 CALLVALUE PUSH2 0x3240 JUMP JUMPDEST SWAP1 POP DUP1 ISZERO PUSH2 0x12F0 JUMPI PUSH1 0x40 MLOAD PUSH1 0x1 PUSH1 0x1 PUSH1 0xA0 SHL SUB DUP10 AND SWAP1 DUP3 ISZERO PUSH2 0x8FC MUL SWAP1 DUP4 SWAP1 PUSH0 DUP2 DUP2 DUP2 DUP6 DUP9 DUP9 CALL SWAP4 POP POP POP POP ISZERO DUP1 ISZERO PUSH2 0x12EE JUMPI RETURNDATASIZE PUSH0 PUSH0 RETURNDATACOPY RETURNDATASIZE PUSH0 REVERT JUMPDEST POP JUMPDEST PUSH1 0x16 DUP1 SLOAD PUSH0 SWAP2 DUP3 PUSH2 0x1300 DUP4 PUSH2 0x3253 JUMP JUMPDEST SWAP1 SWAP2 SSTORE POP PUSH1 0x10 SLOAD PUSH1 0x40 MLOAD PUSH4 0x42AF7A0D PUSH1 0xE1 SHL DUP2 MSTORE SWAP2 SWAP3 POP PUSH1 0x1 PUSH1 0x1 PUSH1 0xA0 SHL SUB AND SWAP1 PUSH4 0x855EF41A SWAP1 PUSH2 0x133D SWAP1 DUP13 SWAP1 PUSH1 0x2 SWAP1 DUP12 SWAP1 PUSH1 0x1 SWAP1 PUSH1 0x4 ADD PUSH2 0x32EE JUMP JUMPDEST PUSH0 PUSH1 0x40 MLOAD DUP1 DUP4 SUB DUP2 PUSH0 DUP8 DUP1 EXTCODESIZE ISZERO DUP1 ISZERO PUSH2 0x1354 JUMPI PUSH0 PUSH0 REVERT JUMPDEST POP GAS CALL ISZERO DUP1 ISZERO PUSH2 0x1366 JUMPI RETURNDATASIZE PUSH0 PUSH0 RETURNDATACOPY RETURNDATASIZE PUSH0 REVERT JUMPDEST POP POP PUSH1 0x12 SLOAD PUSH1 0x40 MLOAD PUSH4 0x7E8843D PUSH1 0xE4 SHL DUP2 MSTORE PUSH1 0x1 PUSH1 0x1 PUSH1 0xA0 SHL SUB SWAP1 SWAP2 AND SWAP3 POP PUSH4 0x7E8843D0 SWAP2 POP PUSH2 0xB57 SWAP1 DUP5 SWAP1 DUP14 SWAP1 DUP14 SWAP1 DUP14 SWAP1 PUSH0 SWAP1 PUSH1 0x2 SWAP1 DUP3 SWAP1 PUSH1 0x4 ADD PUSH2 0x3293 JUMP JUMPDEST CALLER PUSH0 SWAP1 DUP2 MSTORE PUSH1 0x4 PUSH1 0x20 MSTORE PUSH1 0x40 SWAP1 KECCAK256 SLOAD PUSH1 0xFF AND PUSH2 0x13D5 JUMPI PUSH1 0x40 MLOAD PUSH3 0x461BCD PUSH1 0xE5 SHL DUP2 MSTORE PUSH1 0x4 ADD PUSH2 0x8BB SWAP1 PUSH2 0x3186 JUMP JUMPDEST PUSH2 0x13DD PUSH2 0x2053 JUMP JUMPDEST PUSH1 0x1 PUSH1 0x1 PUSH1 0xA0 SHL SUB DUP3 AND PUSH2 0x1433 JUMPI PUSH1 0x40 MLOAD PUSH3 0x461BCD PUSH1 0xE5 SHL DUP2 MSTORE PUSH1 0x20 PUSH1 0x4 DUP3 ADD MSTORE PUSH1 0x1C PUSH1 0x24 DUP3 ADD MSTORE PUSH32 0x427579657220616464726573732063616E6E6F74206265207A65726F00000000 PUSH1 0x44 DUP3 ADD MSTORE PUSH1 0x64 ADD PUSH2 0x8BB JUMP JUMPDEST DUP1 ISZERO PUSH2 0x151B JUMPI PUSH1 0x1 PUSH1 0x1 PUSH1 0xA0 SHL SUB DUP3 AND PUSH0 SWAP1 DUP2 MSTORE PUSH1 0x5 PUSH1 0x20 MSTORE PUSH1 0x40 SWAP1 KECCAK256 SLOAD PUSH1 0xFF AND PUSH2 0x1516 JUMPI PUSH1 0x1 PUSH1 0x1 PUSH1 0xA0 SHL SUB DUP1 DUP4 AND PUSH0 DUP2 DUP2 MSTORE PUSH1 0x5 PUSH1 0x20 MSTORE PUSH1 0x40 DUP1 DUP3 KECCAK256 DUP1 SLOAD PUSH1 0xFF NOT AND PUSH1 0x1 SWAP1 DUP2 OR SWAP1 SWAP2 SSTORE PUSH1 0x6 DUP1 SLOAD DUP1 DUP4 ADD DUP3 SSTORE SWAP4 MSTORE PUSH32 0xF652222313E28459528D920B65115C16C04F3EFC82AAEDC97BE59F3F377C0D3F SWAP1 SWAP3 ADD DUP1 SLOAD PUSH1 0x1 PUSH1 0x1 PUSH1 0xA0 SHL SUB NOT AND SWAP1 SWAP4 OR SWAP1 SWAP3 SSTORE PUSH1 0xF SLOAD SWAP2 MLOAD PUSH4 0xF7314BC9 PUSH1 0xE0 SHL DUP2 MSTORE SWAP2 SWAP1 SWAP3 AND SWAP2 PUSH4 0xF7314BC9 SWAP2 PUSH2 0x14E8 SWAP2 DUP7 SWAP2 PUSH1 0x4 ADD PUSH2 0x3322 JUMP JUMPDEST PUSH0 PUSH1 0x40 MLOAD DUP1 DUP4 SUB DUP2 PUSH0 DUP8 DUP1 EXTCODESIZE ISZERO DUP1 ISZERO PUSH2 0x14FF JUMPI PUSH0 PUSH0 REVERT JUMPDEST POP GAS CALL ISZERO DUP1 ISZERO PUSH2 0x1511 JUMPI RETURNDATASIZE PUSH0 PUSH0 RETURNDATACOPY RETURNDATASIZE PUSH0 REVERT JUMPDEST POP POP POP POP JUMPDEST PUSH2 0x16B0 JUMP JUMPDEST PUSH1 0x1 PUSH1 0x1 PUSH1 0xA0 SHL SUB DUP3 AND PUSH0 SWAP1 DUP2 MSTORE PUSH1 0x5 PUSH1 0x20 MSTORE PUSH1 0x40 SWAP1 KECCAK256 SLOAD PUSH1 0xFF AND ISZERO PUSH2 0x16B0 JUMPI PUSH1 0x1 PUSH1 0x1 PUSH1 0xA0 SHL SUB DUP3 AND PUSH0 SWAP1 DUP2 MSTORE PUSH1 0x5 PUSH1 0x20 MSTORE PUSH1 0x40 DUP2 KECCAK256 DUP1 SLOAD PUSH1 0xFF NOT AND SWAP1 SSTORE JUMPDEST PUSH1 0x6 SLOAD DUP2 LT ISZERO PUSH2 0x164F JUMPI DUP3 PUSH1 0x1 PUSH1 0x1 PUSH1 0xA0 SHL SUB AND PUSH1 0x6 DUP3 DUP2 SLOAD DUP2 LT PUSH2 0x1582 JUMPI PUSH2 0x1582 PUSH2 0x333D JUMP JUMPDEST PUSH0 SWAP2 DUP3 MSTORE PUSH1 0x20 SWAP1 SWAP2 KECCAK256 ADD SLOAD PUSH1 0x1 PUSH1 0x1 PUSH1 0xA0 SHL SUB AND SUB PUSH2 0x1647 JUMPI PUSH1 0x6 DUP1 SLOAD PUSH2 0x15AB SWAP1 PUSH1 0x1 SWAP1 PUSH2 0x3240 JUMP JUMPDEST DUP2 SLOAD DUP2 LT PUSH2 0x15BB JUMPI PUSH2 0x15BB PUSH2 0x333D JUMP JUMPDEST PUSH0 SWAP2 DUP3 MSTORE PUSH1 0x20 SWAP1 SWAP2 KECCAK256 ADD SLOAD PUSH1 0x6 DUP1 SLOAD PUSH1 0x1 PUSH1 0x1 PUSH1 0xA0 SHL SUB SWAP1 SWAP3 AND SWAP2 DUP4 SWAP1 DUP2 LT PUSH2 0x15E6 JUMPI PUSH2 0x15E6 PUSH2 0x333D JUMP JUMPDEST SWAP1 PUSH0 MSTORE PUSH1 0x20 PUSH0 KECCAK256 ADD PUSH0 PUSH2 0x100 EXP DUP2 SLOAD DUP2 PUSH1 0x1 PUSH1 0x1 PUSH1 0xA0 SHL SUB MUL NOT AND SWAP1 DUP4 PUSH1 0x1 PUSH1 0x1 PUSH1 0xA0 SHL SUB AND MUL OR SWAP1 SSTORE POP PUSH1 0x6 DUP1 SLOAD DUP1 PUSH2 0x1622 JUMPI PUSH2 0x1622 PUSH2 0x3351 JUMP JUMPDEST PUSH0 DUP3 DUP2 MSTORE PUSH1 0x20 SWAP1 KECCAK256 DUP2 ADD PUSH0 NOT SWAP1 DUP2 ADD DUP1 SLOAD PUSH1 0x1 PUSH1 0x1 PUSH1 0xA0 SHL SUB NOT AND SWAP1 SSTORE ADD SWAP1 SSTORE PUSH2 0x164F JUMP JUMPDEST PUSH1 0x1 ADD PUSH2 0x155B JUMP JUMPDEST POP PUSH1 0xF SLOAD PUSH1 0x40 MLOAD PUSH4 0xF7314BC9 PUSH1 0xE0 SHL DUP2 MSTORE PUSH1 0x1 PUSH1 0x1 PUSH1 0xA0 SHL SUB SWAP1 SWAP2 AND SWAP1 PUSH4 0xF7314BC9 SWAP1 PUSH2 0x1682 SWAP1 DUP6 SWAP1 PUSH0 SWAP1 PUSH1 0x4 ADD PUSH2 0x3322 JUMP JUMPDEST PUSH0 PUSH1 0x40 MLOAD DUP1 DUP4 SUB DUP2 PUSH0 DUP8 DUP1 EXTCODESIZE ISZERO DUP1 ISZERO PUSH2 0x1699 JUMPI PUSH0 PUSH0 REVERT JUMPDEST POP GAS CALL ISZERO DUP1 ISZERO PUSH2 0x16AB JUMPI RETURNDATASIZE PUSH0 PUSH0 RETURNDATACOPY RETURNDATASIZE PUSH0 REVERT JUMPDEST POP POP POP POP JUMPDEST PUSH2 0x968 PUSH1 0x1 PUSH0 SSTORE JUMP JUMPDEST CALLER PUSH0 SWAP1 DUP2 MSTORE PUSH1 0x4 PUSH1 0x20 MSTORE PUSH1 0x40 SWAP1 KECCAK256 SLOAD PUSH1 0xFF AND PUSH2 0x16E7 JUMPI PUSH1 0x40 MLOAD PUSH3 0x461BCD PUSH1 0xE5 SHL DUP2 MSTORE PUSH1 0x4 ADD PUSH2 0x8BB SWAP1 PUSH2 0x3186 JUMP JUMPDEST PUSH1 0xF SLOAD PUSH1 0x40 DUP1 MLOAD PUSH4 0x1F56C9E3 PUSH1 0xE0 SHL DUP2 MSTORE SWAP1 MLOAD PUSH0 SWAP3 PUSH1 0x1 PUSH1 0x1 PUSH1 0xA0 SHL SUB AND SWAP2 PUSH4 0x1F56C9E3 SWAP2 PUSH1 0x4 DUP1 DUP4 ADD SWAP3 PUSH1 0x20 SWAP3 SWAP2 SWAP1 DUP3 SWAP1 SUB ADD DUP2 DUP7 GAS STATICCALL ISZERO DUP1 ISZERO PUSH2 0x172E JUMPI RETURNDATASIZE PUSH0 PUSH0 RETURNDATACOPY RETURNDATASIZE PUSH0 REVERT JUMPDEST POP POP POP POP PUSH1 0x40 MLOAD RETURNDATASIZE PUSH1 0x1F NOT PUSH1 0x1F DUP3 ADD AND DUP3 ADD DUP1 PUSH1 0x40 MSTORE POP DUP2 ADD SWAP1 PUSH2 0x1752 SWAP2 SWAP1 PUSH2 0x3365 JUMP JUMPDEST SWAP1 POP PUSH0 JUMPDEST DUP2 DUP2 LT ISZERO PUSH2 0x968 JUMPI PUSH1 0xF SLOAD PUSH1 0x40 MLOAD PUSH4 0x9D63B499 PUSH1 0xE0 SHL DUP2 MSTORE PUSH1 0x4 DUP2 ADD DUP4 SWAP1 MSTORE PUSH0 SWAP2 PUSH1 0x1 PUSH1 0x1 PUSH1 0xA0 SHL SUB AND SWAP1 PUSH4 0x9D63B499 SWAP1 PUSH1 0x24 ADD PUSH1 0x20 PUSH1 0x40 MLOAD DUP1 DUP4 SUB DUP2 DUP7 GAS STATICCALL ISZERO DUP1 ISZERO PUSH2 0x17A5 JUMPI RETURNDATASIZE PUSH0 PUSH0 RETURNDATACOPY RETURNDATASIZE PUSH0 REVERT JUMPDEST POP POP POP POP PUSH1 0x40 MLOAD RETURNDATASIZE PUSH1 0x1F NOT PUSH1 0x1F DUP3 ADD AND DUP3 ADD DUP1 PUSH1 0x40 MSTORE POP DUP2 ADD SWAP1 PUSH2 0x17C9 SWAP2 SWAP1 PUSH2 0x337C JUMP JUMPDEST PUSH1 0xF SLOAD PUSH1 0x40 MLOAD PUSH4 0x237B64EF PUSH1 0xE1 SHL DUP2 MSTORE SWAP2 SWAP3 POP PUSH1 0x1 PUSH1 0x1 PUSH1 0xA0 SHL SUB AND SWAP1 PUSH4 0x46F6C9DE SWAP1 PUSH2 0x17FA SWAP1 DUP5 SWAP1 PUSH1 0x4 ADD PUSH2 0x3025 JUMP JUMPDEST PUSH1 0x20 PUSH1 0x40 MLOAD DUP1 DUP4 SUB DUP2 DUP7 GAS STATICCALL ISZERO DUP1 ISZERO PUSH2 0x1815 JUMPI RETURNDATASIZE PUSH0 PUSH0 RETURNDATACOPY RETURNDATASIZE PUSH0 REVERT JUMPDEST POP POP POP POP PUSH1 0x40 MLOAD RETURNDATASIZE PUSH1 0x1F NOT PUSH1 0x1F DUP3 ADD AND DUP3 ADD DUP1 PUSH1 0x40 MSTORE POP DUP2 ADD SWAP1 PUSH2 0x1839 SWAP2 SWAP1 PUSH2 0x3397 JUMP JUMPDEST ISZERO PUSH2 0x18A3 JUMPI PUSH1 0x1 PUSH1 0x1 PUSH1 0xA0 SHL SUB DUP2 AND PUSH0 DUP2 DUP2 MSTORE PUSH1 0x5 PUSH1 0x20 MSTORE PUSH1 0x40 DUP2 KECCAK256 DUP1 SLOAD PUSH1 0xFF NOT AND PUSH1 0x1 SWAP1 DUP2 OR SWAP1 SWAP2 SSTORE PUSH1 0x6 DUP1 SLOAD SWAP2 DUP3 ADD DUP2 SSTORE SWAP1 SWAP2 MSTORE PUSH32 0xF652222313E28459528D920B65115C16C04F3EFC82AAEDC97BE59F3F377C0D3F ADD DUP1 SLOAD PUSH1 0x1 PUSH1 0x1 PUSH1 0xA0 SHL SUB NOT AND SWAP1 SWAP2 OR SWAP1 SSTORE JUMPDEST POP PUSH1 0x1 ADD PUSH2 0x1756 JUMP JUMPDEST CALLER PUSH0 SWAP1 DUP2 MSTORE PUSH1 0x4 PUSH1 0x20 MSTORE PUSH1 0x40 SWAP1 KECCAK256 SLOAD PUSH1 0xFF AND PUSH2 0x18DA JUMPI PUSH1 0x40 MLOAD PUSH3 0x461BCD PUSH1 0xE5 SHL DUP2 MSTORE PUSH1 0x4 ADD PUSH2 0x8BB SWAP1 PUSH2 0x3186 JUMP JUMPDEST PUSH2 0x18E2 PUSH2 0x2053 JUMP JUMPDEST PUSH2 0x18EA PUSH2 0x207B JUMP JUMPDEST PUSH0 PUSH2 0x3E8 PUSH2 0x18F8 DUP4 DUP6 PUSH2 0x31C2 JUMP JUMPDEST PUSH2 0x1902 SWAP2 SWAP1 PUSH2 0x31ED JUMP JUMPDEST SWAP1 POP PUSH0 PUSH2 0x2710 PUSH1 0xB SLOAD DUP4 PUSH2 0x1916 SWAP2 SWAP1 PUSH2 0x31C2 JUMP JUMPDEST PUSH2 0x1920 SWAP2 SWAP1 PUSH2 0x31ED JUMP JUMPDEST SWAP1 POP PUSH0 PUSH2 0x192F DUP3 PUSH1 0xC SLOAD PUSH2 0x20C1 JUMP JUMPDEST SWAP1 POP DUP1 CALLVALUE DUP2 GT ISZERO PUSH2 0x1952 JUMPI PUSH1 0x40 MLOAD PUSH3 0x461BCD PUSH1 0xE5 SHL DUP2 MSTORE PUSH1 0x4 ADD PUSH2 0x8BB SWAP1 PUSH2 0x33B2 JUMP JUMPDEST PUSH1 0x3 SLOAD PUSH1 0x40 MLOAD PUSH1 0x1 PUSH1 0x1 PUSH1 0xA0 SHL SUB SWAP1 SWAP2 AND SWAP1 DUP4 ISZERO PUSH2 0x8FC MUL SWAP1 DUP5 SWAP1 PUSH0 DUP2 DUP2 DUP2 DUP6 DUP9 DUP9 CALL SWAP4 POP POP POP POP ISZERO DUP1 ISZERO PUSH2 0x1989 JUMPI RETURNDATASIZE PUSH0 PUSH0 RETURNDATACOPY RETURNDATASIZE PUSH0 REVERT JUMPDEST POP PUSH0 PUSH2 0x1995 DUP3 CALLVALUE PUSH2 0x3240 JUMP JUMPDEST SWAP1 POP DUP8 DUP2 ISZERO PUSH2 0x19D3 JUMPI PUSH1 0x40 MLOAD PUSH1 0x1 PUSH1 0x1 PUSH1 0xA0 SHL SUB DUP3 AND SWAP1 DUP4 ISZERO PUSH2 0x8FC MUL SWAP1 DUP5 SWAP1 PUSH0 DUP2 DUP2 DUP2 DUP6 DUP9 DUP9 CALL SWAP4 POP POP POP POP ISZERO DUP1 ISZERO PUSH2 0x19D1 JUMPI RETURNDATASIZE PUSH0 PUSH0 RETURNDATACOPY RETURNDATASIZE PUSH0 REVERT JUMPDEST POP JUMPDEST PUSH1 0x16 DUP1 SLOAD PUSH0 SWAP2 DUP3 PUSH2 0x19E3 DUP4 PUSH2 0x3253 JUMP JUMPDEST SWAP1 SWAP2 SSTORE POP PUSH1 0x10 SLOAD PUSH1 0x40 MLOAD PUSH4 0x3AA2B93 PUSH1 0xE1 SHL DUP2 MSTORE SWAP2 SWAP3 POP PUSH1 0x1 PUSH1 0x1 PUSH1 0xA0 SHL SUB AND SWAP1 PUSH4 0x7545726 SWAP1 PUSH2 0x1A24 SWAP1 DUP5 SWAP1 DUP15 SWAP1 DUP15 SWAP1 DUP15 SWAP1 PUSH0 SWAP1 DUP2 SWAP1 DUP2 SWAP1 PUSH1 0x4 ADD PUSH2 0x3293 JUMP JUMPDEST PUSH0 PUSH1 0x40 MLOAD DUP1 DUP4 SUB DUP2 PUSH0 DUP8 DUP1 EXTCODESIZE ISZERO DUP1 ISZERO PUSH2 0x1A3B JUMPI PUSH0 PUSH0 REVERT JUMPDEST POP GAS CALL ISZERO DUP1 ISZERO PUSH2 0x1A4D JUMPI RETURNDATASIZE PUSH0 PUSH0 RETURNDATACOPY RETURNDATASIZE PUSH0 REVERT JUMPDEST POP POP POP POP POP POP POP POP POP POP POP PUSH2 0xB93 PUSH1 0x1 PUSH0 SSTORE JUMP JUMPDEST CALLER PUSH0 SWAP1 DUP2 MSTORE PUSH1 0x4 PUSH1 0x20 MSTORE PUSH1 0x40 SWAP1 KECCAK256 SLOAD PUSH1 0xFF AND PUSH2 0x1A8F JUMPI PUSH1 0x40 MLOAD PUSH3 0x461BCD PUSH1 0xE5 SHL DUP2 MSTORE PUSH1 0x4 ADD PUSH2 0x8BB SWAP1 PUSH2 0x3186 JUMP JUMPDEST PUSH2 0x1A97 PUSH2 0x207B JUMP JUMPDEST PUSH1 0x1 PUSH1 0x1 PUSH1 0xA0 SHL SUB DUP3 AND PUSH2 0x1AE6 JUMPI PUSH1 0x40 MLOAD PUSH3 0x461BCD PUSH1 0xE5 SHL DUP2 MSTORE PUSH1 0x20 PUSH1 0x4 DUP3 ADD MSTORE PUSH1 0x16 PUSH1 0x24 DUP3 ADD MSTORE PUSH22 0x496E76616C69642073656E6465722061646472657373 PUSH1 0x50 SHL PUSH1 0x44 DUP3 ADD MSTORE PUSH1 0x64 ADD PUSH2 0x8BB JUMP JUMPDEST PUSH1 0x40 MLOAD PUSH1 0x1 PUSH1 0x1 PUSH1 0xA0 SHL SUB DUP4 AND SWAP1 DUP3 ISZERO PUSH2 0x8FC MUL SWAP1 DUP4 SWAP1 PUSH0 DUP2 DUP2 DUP2 DUP6 DUP9 DUP9 CALL SWAP4 POP POP POP POP ISZERO DUP1 ISZERO PUSH2 0xB93 JUMPI RETURNDATASIZE PUSH0 PUSH0 RETURNDATACOPY RETURNDATASIZE PUSH0 REVERT JUMPDEST CALLER PUSH0 SWAP1 DUP2 MSTORE PUSH1 0x4 PUSH1 0x20 MSTORE PUSH1 0x40 SWAP1 KECCAK256 SLOAD PUSH1 0xFF AND PUSH2 0x1B47 JUMPI PUSH1 0x40 MLOAD PUSH3 0x461BCD PUSH1 0xE5 SHL DUP2 MSTORE PUSH1 0x4 ADD PUSH2 0x8BB SWAP1 PUSH2 0x3186 JUMP JUMPDEST PUSH2 0x1AE6 PUSH2 0x207B JUMP JUMPDEST CALLER PUSH0 SWAP1 DUP2 MSTORE PUSH1 0x7 PUSH1 0x20 MSTORE PUSH1 0x40 SWAP1 KECCAK256 SLOAD PUSH1 0xFF AND PUSH2 0x1B7D JUMPI PUSH1 0x40 MLOAD PUSH3 0x461BCD PUSH1 0xE5 SHL DUP2 MSTORE PUSH1 0x4 ADD PUSH2 0x8BB SWAP1 PUSH2 0x3186 JUMP JUMPDEST PUSH1 0xE DUP2 SWAP1 SSTORE PUSH1 0xA SLOAD DUP2 LT ISZERO PUSH2 0x1B92 JUMPI PUSH1 0xA DUP2 SWAP1 SSTORE JUMPDEST POP JUMP JUMPDEST CALLER PUSH0 SWAP1 DUP2 MSTORE PUSH1 0x4 PUSH1 0x20 MSTORE PUSH1 0x40 SWAP1 KECCAK256 SLOAD PUSH1 0xFF AND PUSH2 0x1BC3 JUMPI PUSH1 0x40 MLOAD PUSH3 0x461BCD PUSH1 0xE5 SHL DUP2 MSTORE PUSH1 0x4 ADD PUSH2 0x8BB SWAP1 PUSH2 0x3186 JUMP JUMPDEST PUSH2 0x1BCB PUSH2 0x2053 JUMP JUMPDEST PUSH2 0x1BD3 PUSH2 0x207B JUMP JUMPDEST PUSH1 0x12 DUP1 SLOAD PUSH1 0x1 PUSH1 0x1 PUSH1 0xA0 SHL SUB NOT SWAP1 DUP2 AND PUSH1 0x1 PUSH1 0x1 PUSH1 0xA0 SHL SUB DUP11 DUP2 AND SWAP2 SWAP1 SWAP2 OR SWAP1 SWAP3 SSTORE PUSH1 0x13 DUP1 SLOAD DUP3 AND DUP10 DUP5 AND OR SWAP1 SSTORE PUSH1 0x14 DUP1 SLOAD DUP3 AND DUP6 DUP5 AND OR SWAP1 SSTORE PUSH1 0x10 DUP1 SLOAD DUP3 AND DUP9 DUP5 AND OR SWAP1 SSTORE PUSH1 0x11 DUP1 SLOAD DUP3 AND DUP8 DUP5 AND OR SWAP1 SSTORE PUSH1 0xF DUP1 SLOAD SWAP1 SWAP2 AND DUP6 DUP4 AND OR SWAP1 SSTORE PUSH1 0x1 DUP1 SLOAD PUSH2 0x100 PUSH1 0x1 PUSH1 0xA8 SHL SUB NOT AND PUSH2 0x100 SWAP3 DUP5 AND SWAP3 SWAP1 SWAP3 MUL SWAP2 SWAP1 SWAP2 OR DUP2 SSTORE PUSH0 SSTORE POP POP POP POP POP POP POP JUMP JUMPDEST CALLER PUSH0 SWAP1 DUP2 MSTORE PUSH1 0x7 PUSH1 0x20 MSTORE PUSH1 0x40 SWAP1 KECCAK256 SLOAD PUSH1 0xFF AND PUSH2 0x1C8A JUMPI PUSH1 0x40 MLOAD PUSH3 0x461BCD PUSH1 0xE5 SHL DUP2 MSTORE PUSH1 0x4 ADD PUSH2 0x8BB SWAP1 PUSH2 0x3186 JUMP JUMPDEST PUSH0 PUSH1 0xA SLOAD PUSH1 0xE SLOAD SUB PUSH2 0x1C9F JUMPI POP PUSH2 0x2710 PUSH2 0x1D0B JUMP JUMPDEST PUSH0 PUSH2 0x1CB8 PUSH1 0xA SLOAD PUSH1 0xE SLOAD PUSH2 0x1CB3 SWAP2 SWAP1 PUSH2 0x3240 JUMP JUMPDEST PUSH2 0x215C JUMP JUMPDEST SWAP1 POP PUSH0 PUSH2 0x1CC9 PUSH2 0x652 PUSH2 0x3E8 PUSH2 0x2178 JUMP JUMPDEST SWAP1 POP PUSH0 PUSH2 0x1CD5 DUP4 PUSH2 0x21AD JUMP JUMPDEST SWAP1 POP PUSH0 PUSH2 0x1CE2 DUP3 DUP5 PUSH2 0x21E5 JUMP JUMPDEST SWAP1 POP PUSH0 PUSH2 0x1CEE DUP3 PUSH2 0x221A JUMP JUMPDEST SWAP1 POP PUSH2 0x1CF9 DUP2 PUSH2 0x226A JUMP JUMPDEST PUSH8 0xFFFFFFFFFFFFFFFF AND SWAP6 POP POP POP POP POP POP JUMPDEST PUSH0 PUSH2 0x1D18 PUSH2 0x2710 DUP4 PUSH2 0x2284 JUMP JUMPDEST SWAP1 POP PUSH0 PUSH2 0x2710 DUP3 PUSH1 0xE SLOAD PUSH2 0x1D2C SWAP2 SWAP1 PUSH2 0x33FB JUMP JUMPDEST PUSH2 0x1D39 SWAP1 PUSH3 0xF4240 PUSH2 0x31C2 JUMP JUMPDEST PUSH2 0x1D43 SWAP2 SWAP1 PUSH2 0x31ED JUMP JUMPDEST PUSH1 0x8 DUP2 SWAP1 SSTORE PUSH1 0xD SLOAD SWAP1 SWAP2 POP PUSH2 0x1D60 DUP3 PUSH8 0xDE0B6B3A7640000 PUSH2 0x31C2 JUMP JUMPDEST PUSH2 0x1D6A SWAP2 SWAP1 PUSH2 0x31ED JUMP JUMPDEST PUSH1 0x9 SSTORE PUSH1 0x40 MLOAD DUP2 DUP2 MSTORE PUSH32 0x66CBCA4F3C64FECF1DCB9CE094ABCF7F68C3450A1D4E3A8E917DD621EDB4EBE0 SWAP1 PUSH1 0x20 ADD PUSH1 0x40 MLOAD DUP1 SWAP2 SUB SWAP1 LOG1 POP POP POP JUMP JUMPDEST PUSH0 PUSH0 PUSH2 0x1DB0 DUP4 PUSH2 0x2293 JUMP JUMPDEST SWAP2 POP SWAP2 POP SWAP2 POP SWAP2 JUMP JUMPDEST CALLER PUSH0 SWAP1 DUP2 MSTORE PUSH1 0x4 PUSH1 0x20 MSTORE PUSH1 0x40 SWAP1 KECCAK256 SLOAD PUSH1 0xFF AND PUSH2 0x1DE7 JUMPI PUSH1 0x40 MLOAD PUSH3 0x461BCD PUSH1 0xE5 SHL DUP2 MSTORE PUSH1 0x4 ADD PUSH2 0x8BB SWAP1 PUSH2 0x3186 JUMP JUMPDEST PUSH1 0x1 PUSH1 0x1 PUSH1 0xA0 SHL SUB DUP2 AND PUSH2 0x1E49 JUMPI PUSH1 0x40 MLOAD PUSH3 0x461BCD PUSH1 0xE5 SHL DUP2 MSTORE PUSH1 0x20 PUSH1 0x4 DUP3 ADD MSTORE PUSH1 0x24 DUP1 DUP3 ADD MSTORE PUSH32 0x46656520726563697069656E742063616E6E6F74206265207A65726F20616464 PUSH1 0x44 DUP3 ADD MSTORE PUSH4 0x72657373 PUSH1 0xE0 SHL PUSH1 0x64 DUP3 ADD MSTORE PUSH1 0x84 ADD PUSH2 0x8BB JUMP JUMPDEST PUSH1 0x3 DUP1 SLOAD PUSH1 0x1 PUSH1 0x1 PUSH1 0xA0 SHL SUB NOT AND PUSH1 0x1 PUSH1 0x1 PUSH1 0xA0 SHL SUB SWAP3 SWAP1 SWAP3 AND SWAP2 SWAP1 SWAP2 OR SWAP1 SSTORE JUMP JUMPDEST CALLER PUSH0 SWAP1 DUP2 MSTORE PUSH1 0x4 PUSH1 0x20 MSTORE PUSH1 0x40 SWAP1 KECCAK256 SLOAD PUSH1 0xFF AND PUSH2 0x1E99 JUMPI PUSH1 0x40 MLOAD PUSH3 0x461BCD PUSH1 0xE5 SHL DUP2 MSTORE PUSH1 0x4 ADD PUSH2 0x8BB SWAP1 PUSH2 0x3186 JUMP JUMPDEST PUSH2 0x1EA1 PUSH2 0x2053 JUMP JUMPDEST PUSH2 0x1EA9 PUSH2 0x207B JUMP JUMPDEST PUSH0 PUSH2 0x3E8 PUSH2 0x1EB7 DUP4 DUP6 PUSH2 0x31C2 JUMP JUMPDEST PUSH2 0x1EC1 SWAP2 SWAP1 PUSH2 0x31ED JUMP JUMPDEST SWAP1 POP PUSH0 PUSH2 0x2710 PUSH1 0xB SLOAD DUP4 PUSH2 0x1ED5 SWAP2 SWAP1 PUSH2 0x31C2 JUMP JUMPDEST PUSH2 0x1EDF SWAP2 SWAP1 PUSH2 0x31ED JUMP JUMPDEST SWAP1 POP PUSH0 PUSH2 0x1EEE DUP3 PUSH1 0xC SLOAD PUSH2 0x20C1 JUMP JUMPDEST SWAP1 POP PUSH0 PUSH2 0x1EFB DUP3 DUP6 PUSH2 0x33FB JUMP JUMPDEST SWAP1 POP DUP1 CALLVALUE LT ISZERO PUSH2 0x1F1D JUMPI PUSH1 0x40 MLOAD PUSH3 0x461BCD PUSH1 0xE5 SHL DUP2 MSTORE PUSH1 0x4 ADD PUSH2 0x8BB SWAP1 PUSH2 0x33B2 JUMP JUMPDEST PUSH1 0x3 SLOAD PUSH1 0x40 MLOAD PUSH1 0x1 PUSH1 0x1 PUSH1 0xA0 SHL SUB SWAP1 SWAP2 AND SWAP1 DUP4 ISZERO PUSH2 0x8FC MUL SWAP1 DUP5 SWAP1 PUSH0 DUP2 DUP2 DUP2 DUP6 DUP9 DUP9 CALL SWAP4 POP POP POP POP ISZERO DUP1 ISZERO PUSH2 0x1F54 JUMPI RETURNDATASIZE PUSH0 PUSH0 RETURNDATACOPY RETURNDATASIZE PUSH0 REVERT JUMPDEST POP PUSH0 PUSH2 0x1F60 DUP3 CALLVALUE PUSH2 0x3240 JUMP JUMPDEST SWAP1 POP DUP8 DUP2 ISZERO PUSH2 0x1F9E JUMPI PUSH1 0x40 MLOAD PUSH1 0x1 PUSH1 0x1 PUSH1 0xA0 SHL SUB DUP3 AND SWAP1 DUP4 ISZERO PUSH2 0x8FC MUL SWAP1 DUP5 SWAP1 PUSH0 DUP2 DUP2 DUP2 DUP6 DUP9 DUP9 CALL SWAP4 POP POP POP POP ISZERO DUP1 ISZERO PUSH2 0x1F9C JUMPI RETURNDATASIZE PUSH0 PUSH0 RETURNDATACOPY RETURNDATASIZE PUSH0 REVERT JUMPDEST POP JUMPDEST PUSH1 0x16 DUP1 SLOAD PUSH0 SWAP2 DUP3 PUSH2 0x1FAE DUP4 PUSH2 0x3253 JUMP JUMPDEST SWAP1 SWAP2 SSTORE POP PUSH1 0x10 SLOAD PUSH1 0x40 MLOAD PUSH4 0x42AF7A0D PUSH1 0xE1 SHL DUP2 MSTORE SWAP2 SWAP3 POP PUSH1 0x1 PUSH1 0x1 PUSH1 0xA0 SHL SUB AND SWAP1 PUSH4 0x855EF41A SWAP1 PUSH2 0x1FEA SWAP1 DUP14 SWAP1 PUSH0 SWAP1 DUP13 SWAP1 PUSH1 0x1 SWAP1 PUSH1 0x4 ADD PUSH2 0x32EE JUMP JUMPDEST PUSH0 PUSH1 0x40 MLOAD DUP1 DUP4 SUB DUP2 PUSH0 DUP8 DUP1 EXTCODESIZE ISZERO DUP1 ISZERO PUSH2 0x2001 JUMPI PUSH0 PUSH0 REVERT JUMPDEST POP GAS CALL ISZERO DUP1 ISZERO PUSH2 0x2013 JUMPI RETURNDATASIZE PUSH0 PUSH0 RETURNDATACOPY RETURNDATASIZE PUSH0 REVERT JUMPDEST POP POP PUSH1 0x10 SLOAD PUSH1 0x40 MLOAD PUSH4 0x7E8843D PUSH1 0xE4 SHL DUP2 MSTORE PUSH1 0x1 PUSH1 0x1 PUSH1 0xA0 SHL SUB SWAP1 SWAP2 AND SWAP3 POP PUSH4 0x7E8843D0 SWAP2 POP PUSH2 0x1A24 SWAP1 DUP5 SWAP1 DUP15 SWAP1 DUP15 SWAP1 DUP15 SWAP1 PUSH0 SWAP1 DUP2 SWAP1 DUP2 SWAP1 PUSH1 0x4 ADD PUSH2 0x3293 JUMP JUMPDEST PUSH1 0x2 PUSH0 SLOAD SUB PUSH2 0x2075 JUMPI PUSH1 0x40 MLOAD PUSH4 0x3EE5AEB5 PUSH1 0xE0 SHL DUP2 MSTORE PUSH1 0x4 ADD PUSH1 0x40 MLOAD DUP1 SWAP2 SUB SWAP1 REVERT JUMPDEST PUSH1 0x2 PUSH0 SSTORE JUMP JUMPDEST PUSH1 0x1 SLOAD PUSH1 0xFF AND ISZERO PUSH2 0xBDF JUMPI PUSH1 0x40 MLOAD PUSH3 0x461BCD PUSH1 0xE5 SHL DUP2 MSTORE PUSH1 0x20 PUSH1 0x4 DUP3 ADD MSTORE PUSH1 0x10 PUSH1 0x24 DUP3 ADD MSTORE PUSH16 0x14185D5CD8589B194E881C185D5CD959 PUSH1 0x82 SHL PUSH1 0x44 DUP3 ADD MSTORE PUSH1 0x64 ADD PUSH2 0x8BB JUMP JUMPDEST PUSH0 DUP3 DUP3 XOR DUP3 DUP5 LT MUL DUP3 XOR JUMPDEST SWAP1 POP JUMPDEST SWAP3 SWAP2 POP POP JUMP JUMPDEST PUSH2 0x20DD PUSH2 0x22F4 JUMP JUMPDEST PUSH1 0x1 DUP1 SLOAD PUSH1 0xFF NOT AND SWAP1 SSTORE PUSH32 0x5DB9EE0A495BF2E6FF9C91A7834C1BA4FDD244A5E8AA4E537BD38AEAE4B073AA CALLER JUMPDEST PUSH1 0x40 MLOAD PUSH2 0x2117 SWAP2 SWAP1 PUSH2 0x3025 JUMP JUMPDEST PUSH1 0x40 MLOAD DUP1 SWAP2 SUB SWAP1 LOG1 JUMP JUMPDEST PUSH2 0x2129 PUSH2 0x207B JUMP JUMPDEST PUSH1 0x1 DUP1 SLOAD PUSH1 0xFF NOT AND DUP2 OR SWAP1 SSTORE PUSH32 0x62E78CEA01BEE320CD4E420270B5EA74000D11B0C9F74754EBDBFC544B05A258 CALLER PUSH2 0x210A JUMP JUMPDEST PUSH0 PUSH8 0x7FFFFFFFFFFFFFFF DUP3 GT ISZERO PUSH2 0x2171 JUMPI PUSH0 PUSH0 REVERT JUMPDEST POP PUSH1 0x40 SHL SWAP1 JUMP JUMPDEST PUSH0 DUP2 PUSH0 SUB PUSH2 0x2184 JUMPI PUSH0 PUSH0 REVERT JUMPDEST PUSH0 PUSH2 0x218F DUP5 DUP5 PUSH2 0x233D JUMP JUMPDEST SWAP1 POP PUSH1 0x1 PUSH1 0x1 PUSH1 0x7F SHL SUB PUSH1 0x1 PUSH1 0x1 PUSH1 0x80 SHL SUB DUP3 AND GT ISZERO PUSH2 0x20CC JUMPI PUSH0 PUSH0 REVERT JUMPDEST PUSH0 PUSH0 DUP3 PUSH1 0xF SIGNEXTEND SGT PUSH2 0x21BC JUMPI PUSH0 PUSH0 REVERT JUMPDEST PUSH1 0x80 PUSH2 0x21C7 DUP4 PUSH2 0x249B JUMP JUMPDEST PUSH1 0xF SIGNEXTEND PUSH16 0xB17217F7D1CF79ABC9E3B39803F2F6AF MUL SWAP1 SHR SWAP1 POP SWAP2 SWAP1 POP JUMP JUMPDEST PUSH0 PUSH1 0xF DUP4 DUP2 SIGNEXTEND SWAP1 DUP4 SWAP1 SIGNEXTEND MUL PUSH1 0x40 SAR PUSH1 0x1 PUSH1 0x1 PUSH1 0x7F SHL SUB NOT DUP2 SLT DUP1 ISZERO SWAP1 PUSH2 0x2212 JUMPI POP PUSH1 0x1 PUSH1 0x1 PUSH1 0x7F SHL SUB DUP2 SGT ISZERO JUMPDEST PUSH2 0x20CC JUMPI PUSH0 PUSH0 REVERT JUMPDEST PUSH0 PUSH1 0x1 PUSH1 0x46 SHL DUP3 PUSH1 0xF SIGNEXTEND SLT PUSH2 0x222D JUMPI PUSH0 PUSH0 REVERT JUMPDEST PUSH1 0x1 PUSH1 0x1 PUSH1 0x46 SHL SUB NOT DUP3 PUSH1 0xF SIGNEXTEND SLT ISZERO PUSH2 0x2247 JUMPI POP PUSH0 SWAP2 SWAP1 POP JUMP JUMPDEST PUSH2 0x20CF PUSH1 0x80 DUP4 PUSH1 0xF SIGNEXTEND PUSH17 0x171547652B82FE1777D0FFDA0D23A7D12 MUL SWAP1 SAR PUSH2 0x2571 JUMP JUMPDEST PUSH0 PUSH0 DUP3 PUSH1 0xF SIGNEXTEND SLT ISZERO PUSH2 0x227A JUMPI PUSH0 PUSH0 REVERT JUMPDEST POP PUSH1 0xF SIGNEXTEND PUSH1 0x40 SAR SWAP1 JUMP JUMPDEST PUSH0 DUP3 DUP3 XOR DUP3 DUP5 GT MUL DUP3 XOR PUSH2 0x20CC JUMP JUMPDEST PUSH0 DUP1 DUP1 JUMPDEST PUSH1 0x6 SLOAD DUP2 LT ISZERO PUSH2 0x22E9 JUMPI DUP4 PUSH1 0x1 PUSH1 0x1 PUSH1 0xA0 SHL SUB AND PUSH1 0x6 DUP3 DUP2 SLOAD DUP2 LT PUSH2 0x22BE JUMPI PUSH2 0x22BE PUSH2 0x333D JUMP JUMPDEST PUSH0 SWAP2 DUP3 MSTORE PUSH1 0x20 SWAP1 SWAP2 KECCAK256 ADD SLOAD PUSH1 0x1 PUSH1 0x1 PUSH1 0xA0 SHL SUB AND SUB PUSH2 0x22E1 JUMPI SWAP4 PUSH1 0x1 SWAP4 POP SWAP2 POP POP JUMP JUMPDEST PUSH1 0x1 ADD PUSH2 0x2297 JUMP JUMPDEST POP PUSH0 SWAP4 DUP5 SWAP4 POP SWAP2 POP POP JUMP JUMPDEST PUSH1 0x1 SLOAD PUSH1 0xFF AND PUSH2 0xBDF JUMPI PUSH1 0x40 MLOAD PUSH3 0x461BCD PUSH1 0xE5 SHL DUP2 MSTORE PUSH1 0x20 PUSH1 0x4 DUP3 ADD MSTORE PUSH1 0x14 PUSH1 0x24 DUP3 ADD MSTORE PUSH20 0x14185D5CD8589B194E881B9BDD081C185D5CD959 PUSH1 0x62 SHL PUSH1 0x44 DUP3 ADD MSTORE PUSH1 0x64 ADD PUSH2 0x8BB JUMP JUMPDEST PUSH0 DUP2 PUSH0 SUB PUSH2 0x2349 JUMPI PUSH0 PUSH0 REVERT JUMPDEST PUSH0 PUSH1 0x1 PUSH1 0x1 PUSH1 0xC0 SHL SUB DUP5 GT PUSH2 0x2373 JUMPI DUP3 PUSH1 0x40 DUP6 SWAP1 SHL DUP2 PUSH2 0x236B JUMPI PUSH2 0x236B PUSH2 0x31D9 JUMP JUMPDEST DIV SWAP1 POP PUSH2 0x2488 JUMP JUMPDEST PUSH1 0xC0 DUP5 DUP2 SHR PUSH1 0x1 PUSH1 0x20 SHL DUP2 LT PUSH2 0x238B JUMPI PUSH1 0x20 SWAP2 DUP3 ADD SWAP2 SHR JUMPDEST PUSH3 0x10000 DUP2 LT PUSH2 0x239D JUMPI PUSH1 0x10 SWAP2 DUP3 ADD SWAP2 SHR JUMPDEST PUSH2 0x100 DUP2 LT PUSH2 0x23AE JUMPI PUSH1 0x8 SWAP2 DUP3 ADD SWAP2 SHR JUMPDEST PUSH1 0x10 DUP2 LT PUSH2 0x23BE JUMPI PUSH1 0x4 SWAP2 DUP3 ADD SWAP2 SHR JUMPDEST PUSH1 0x4 DUP2 LT PUSH2 0x23CE JUMPI PUSH1 0x2 SWAP2 DUP3 ADD SWAP2 SHR JUMPDEST PUSH1 0x2 DUP2 LT PUSH2 0x23DD JUMPI PUSH1 0x1 DUP3 ADD SWAP2 POP JUMPDEST PUSH1 0xBF DUP3 SUB PUSH1 0x1 DUP7 SUB SWAP1 SHR PUSH1 0x1 ADD DUP3 PUSH1 0xFF SUB DUP8 SWAP1 SHL DUP2 PUSH2 0x23FE JUMPI PUSH2 0x23FE PUSH2 0x31D9 JUMP JUMPDEST DIV SWAP3 POP PUSH1 0x1 PUSH1 0x1 PUSH1 0x80 SHL SUB DUP4 GT ISZERO PUSH2 0x2414 JUMPI PUSH0 PUSH0 REVERT JUMPDEST PUSH1 0x80 DUP6 SWAP1 SHR DUP4 MUL PUSH1 0x1 PUSH1 0x1 PUSH1 0x80 SHL SUB DUP7 AND DUP5 MUL PUSH1 0xC0 DUP9 SWAP1 SHR PUSH1 0x40 DUP10 SWAP1 SHL DUP3 DUP2 LT ISZERO PUSH2 0x2440 JUMPI PUSH1 0x1 DUP3 SUB SWAP2 POP JUMPDEST PUSH1 0x80 DUP5 SWAP1 SHL SWAP3 SWAP1 SUB DUP3 DUP2 LT ISZERO PUSH2 0x2457 JUMPI PUSH1 0x1 DUP3 SUB SWAP2 POP JUMPDEST DUP3 SWAP1 SUB PUSH1 0x80 DUP5 SWAP1 SHR DUP3 EQ PUSH2 0x246C JUMPI PUSH1 0x1 PUSH2 0x247D JUMP JUMPDEST DUP9 DUP2 DUP2 PUSH2 0x247B JUMPI PUSH2 0x247B PUSH2 0x31D9 JUMP JUMPDEST DIV JUMPDEST DUP8 ADD SWAP7 POP POP POP POP POP POP POP JUMPDEST PUSH1 0x1 PUSH1 0x1 PUSH1 0x80 SHL SUB DUP2 GT ISZERO PUSH2 0x20CC JUMPI PUSH0 PUSH0 REVERT JUMPDEST PUSH0 PUSH0 DUP3 PUSH1 0xF SIGNEXTEND SGT PUSH2 0x24AA JUMPI PUSH0 PUSH0 REVERT JUMPDEST PUSH0 PUSH1 0xF DUP4 SWAP1 SIGNEXTEND PUSH1 0x1 PUSH1 0x40 SHL DUP2 SLT PUSH2 0x24C3 JUMPI PUSH1 0x40 SWAP2 DUP3 ADD SWAP2 SAR JUMPDEST PUSH1 0x1 PUSH1 0x20 SHL DUP2 SLT PUSH2 0x24D6 JUMPI PUSH1 0x20 SWAP2 DUP3 ADD SWAP2 SAR JUMPDEST PUSH3 0x10000 DUP2 SLT PUSH2 0x24E8 JUMPI PUSH1 0x10 SWAP2 DUP3 ADD SWAP2 SAR JUMPDEST PUSH2 0x100 DUP2 SLT PUSH2 0x24F9 JUMPI PUSH1 0x8 SWAP2 DUP3 ADD SWAP2 SAR JUMPDEST PUSH1 0x10 DUP2 SLT PUSH2 0x2509 JUMPI PUSH1 0x4 SWAP2 DUP3 ADD SWAP2 SAR JUMPDEST PUSH1 0x4 DUP2 SLT PUSH2 0x2519 JUMPI PUSH1 0x2 SWAP2 DUP3 ADD SWAP2 SAR JUMPDEST PUSH1 0x2 DUP2 SLT PUSH2 0x2528 JUMPI PUSH1 0x1 DUP3 ADD SWAP2 POP JUMPDEST PUSH1 0x3F NOT DUP3 ADD PUSH1 0x40 SHL PUSH1 0xF DUP6 SWAP1 SIGNEXTEND PUSH1 0x7F DUP5 SWAP1 SUB SHL PUSH1 0x1 PUSH1 0x3F SHL JUMPDEST PUSH0 DUP2 SGT ISZERO PUSH2 0x2566 JUMPI SWAP1 DUP1 MUL PUSH1 0xFF DUP2 SWAP1 SHR DUP3 DUP2 MUL SWAP4 SWAP1 SWAP4 ADD SWAP3 PUSH1 0x7F ADD SHR SWAP1 PUSH1 0x1 SAR PUSH2 0x2541 JUMP JUMPDEST POP SWAP1 SWAP6 SWAP5 POP POP POP POP POP JUMP JUMPDEST PUSH0 PUSH1 0x1 PUSH1 0x46 SHL DUP3 PUSH1 0xF SIGNEXTEND SLT PUSH2 0x2584 JUMPI PUSH0 PUSH0 REVERT JUMPDEST PUSH1 0x1 PUSH1 0x1 PUSH1 0x46 SHL SUB NOT DUP3 PUSH1 0xF SIGNEXTEND SLT ISZERO PUSH2 0x259E JUMPI POP PUSH0 SWAP2 SWAP1 POP JUMP JUMPDEST PUSH1 0x1 PUSH1 0x7F SHL PUSH0 PUSH1 0x1 PUSH1 0x3F SHL DUP5 AND PUSH1 0xF SIGNEXTEND SGT ISZERO PUSH2 0x25CB JUMPI PUSH17 0x16A09E667F3BCC908B2FB1366EA957D3E MUL PUSH1 0x80 SHR JUMPDEST PUSH0 DUP4 PUSH1 0x1 PUSH1 0x3E SHL AND PUSH1 0xF SIGNEXTEND SGT ISZERO PUSH2 0x25F3 JUMPI PUSH17 0x1306FE0A31B7152DE8D5A46305C85EDEC MUL PUSH1 0x80 SHR JUMPDEST PUSH0 DUP4 PUSH1 0x1 PUSH1 0x3D SHL AND PUSH1 0xF SIGNEXTEND SGT ISZERO PUSH2 0x261B JUMPI PUSH17 0x1172B83C7D517ADCDF7C8C50EB14A791F MUL PUSH1 0x80 SHR JUMPDEST PUSH0 DUP4 PUSH1 0x1 PUSH1 0x3C SHL AND PUSH1 0xF SIGNEXTEND SGT ISZERO PUSH2 0x2643 JUMPI PUSH17 0x10B5586CF9890F6298B92B71842A98363 MUL PUSH1 0x80 SHR JUMPDEST PUSH0 DUP4 PUSH1 0x1 PUSH1 0x3B SHL AND PUSH1 0xF SIGNEXTEND SGT ISZERO PUSH2 0x266B JUMPI PUSH17 0x1059B0D31585743AE7C548EB68CA417FD MUL PUSH1 0x80 SHR JUMPDEST PUSH0 DUP4 PUSH1 0x1 PUSH1 0x3A SHL AND PUSH1 0xF SIGNEXTEND SGT ISZERO PUSH2 0x2693 JUMPI PUSH17 0x102C9A3E778060EE6F7CACA4F7A29BDE8 MUL PUSH1 0x80 SHR JUMPDEST PUSH0 DUP4 PUSH1 0x1 PUSH1 0x39 SHL AND PUSH1 0xF SIGNEXTEND SGT ISZERO PUSH2 0x26BB JUMPI PUSH17 0x10163DA9FB33356D84A66AE336DCDFA3F MUL PUSH1 0x80 SHR JUMPDEST PUSH0 DUP4 PUSH1 0x1 PUSH1 0x38 SHL AND PUSH1 0xF SIGNEXTEND SGT ISZERO PUSH2 0x26E3 JUMPI PUSH17 0x100B1AFA5ABCBED6129AB13EC11DC9543 MUL PUSH1 0x80 SHR JUMPDEST PUSH0 DUP4 PUSH1 0x1 PUSH1 0x37 SHL AND PUSH1 0xF SIGNEXTEND SGT ISZERO PUSH2 0x270B JUMPI PUSH17 0x10058C86DA1C09EA1FF19D294CF2F679B MUL PUSH1 0x80 SHR JUMPDEST PUSH0 DUP4 PUSH1 0x1 PUSH1 0x36 SHL AND PUSH1 0xF SIGNEXTEND SGT ISZERO PUSH2 0x2733 JUMPI PUSH17 0x1002C605E2E8CEC506D21BFC89A23A00F MUL PUSH1 0x80 SHR JUMPDEST PUSH0 DUP4 PUSH1 0x1 PUSH1 0x35 SHL AND PUSH1 0xF SIGNEXTEND SGT ISZERO PUSH2 0x275B JUMPI PUSH17 0x100162F3904051FA128BCA9C55C31E5DF MUL PUSH1 0x80 SHR JUMPDEST PUSH0 DUP4 PUSH1 0x1 PUSH1 0x34 SHL AND PUSH1 0xF SIGNEXTEND SGT ISZERO PUSH2 0x2783 JUMPI PUSH17 0x1000B175EFFDC76BA38E31671CA939725 MUL PUSH1 0x80 SHR JUMPDEST PUSH0 DUP4 PUSH1 0x1 PUSH1 0x33 SHL AND PUSH1 0xF SIGNEXTEND SGT ISZERO PUSH2 0x27AB JUMPI PUSH17 0x100058BA01FB9F96D6CACD4B180917C3D MUL PUSH1 0x80 SHR JUMPDEST PUSH0 DUP4 PUSH1 0x1 PUSH1 0x32 SHL AND PUSH1 0xF SIGNEXTEND SGT ISZERO PUSH2 0x27D3 JUMPI PUSH17 0x10002C5CC37DA9491D0985C348C68E7B3 MUL PUSH1 0x80 SHR JUMPDEST PUSH0 DUP4 PUSH1 0x1 PUSH1 0x31 SHL AND PUSH1 0xF SIGNEXTEND SGT ISZERO PUSH2 0x27FB JUMPI PUSH17 0x1000162E525EE054754457D5995292026 MUL PUSH1 0x80 SHR JUMPDEST PUSH0 DUP4 PUSH1 0x1 PUSH1 0x30 SHL AND PUSH1 0xF SIGNEXTEND SGT ISZERO PUSH2 0x2823 JUMPI PUSH17 0x10000B17255775C040618BF4A4ADE83FC MUL PUSH1 0x80 SHR JUMPDEST PUSH0 DUP4 PUSH1 0x1 PUSH1 0x2F SHL AND PUSH1 0xF SIGNEXTEND SGT ISZERO PUSH2 0x284B JUMPI PUSH17 0x1000058B91B5BC9AE2EED81E9B7D4CFAB MUL PUSH1 0x80 SHR JUMPDEST PUSH0 DUP4 PUSH1 0x1 PUSH1 0x2E SHL AND PUSH1 0xF SIGNEXTEND SGT ISZERO PUSH2 0x2873 JUMPI PUSH17 0x100002C5C89D5EC6CA4D7C8ACC017B7C9 MUL PUSH1 0x80 SHR JUMPDEST PUSH0 DUP4 PUSH1 0x1 PUSH1 0x2D SHL AND PUSH1 0xF SIGNEXTEND SGT ISZERO PUSH2 0x289B JUMPI PUSH17 0x10000162E43F4F831060E02D839A9D16D MUL PUSH1 0x80 SHR JUMPDEST PUSH0 DUP4 PUSH1 0x1 PUSH1 0x2C SHL AND PUSH1 0xF SIGNEXTEND SGT ISZERO PUSH2 0x28C3 JUMPI PUSH17 0x100000B1721BCFC99D9F890EA06911763 MUL PUSH1 0x80 SHR JUMPDEST PUSH0 DUP4 PUSH1 0x1 PUSH1 0x2B SHL AND PUSH1 0xF SIGNEXTEND SGT ISZERO PUSH2 0x28EB JUMPI PUSH17 0x10000058B90CF1E6D97F9CA14DBCC1628 MUL PUSH1 0x80 SHR JUMPDEST PUSH0 DUP4 PUSH1 0x1 PUSH1 0x2A SHL AND PUSH1 0xF SIGNEXTEND SGT ISZERO PUSH2 0x2913 JUMPI PUSH17 0x1000002C5C863B73F016468F6BAC5CA2B MUL PUSH1 0x80 SHR JUMPDEST PUSH0 DUP4 PUSH1 0x1 PUSH1 0x29 SHL AND PUSH1 0xF SIGNEXTEND SGT ISZERO PUSH2 0x293B JUMPI PUSH17 0x100000162E430E5A18F6119E3C02282A5 MUL PUSH1 0x80 SHR JUMPDEST PUSH0 DUP4 PUSH1 0x1 PUSH1 0x28 SHL AND PUSH1 0xF SIGNEXTEND SGT ISZERO PUSH2 0x2963 JUMPI PUSH17 0x1000000B1721835514B86E6D96EFD1BFE MUL PUSH1 0x80 SHR JUMPDEST PUSH0 DUP4 PUSH5 0x8000000000 AND PUSH1 0xF SIGNEXTEND SGT ISZERO PUSH2 0x298C JUMPI PUSH17 0x100000058B90C0B48C6BE5DF846C5B2EF MUL PUSH1 0x80 SHR JUMPDEST PUSH0 DUP4 PUSH5 0x4000000000 AND PUSH1 0xF SIGNEXTEND SGT ISZERO PUSH2 0x29B5 JUMPI PUSH17 0x10000002C5C8601CC6B9E94213C72737A MUL PUSH1 0x80 SHR JUMPDEST PUSH0 DUP4 PUSH5 0x2000000000 AND PUSH1 0xF SIGNEXTEND SGT ISZERO PUSH2 0x29DE JUMPI PUSH17 0x1000000162E42FFF037DF38AA2B219F06 MUL PUSH1 0x80 SHR JUMPDEST PUSH0 DUP4 PUSH5 0x1000000000 AND PUSH1 0xF SIGNEXTEND SGT ISZERO PUSH2 0x2A07 JUMPI PUSH17 0x10000000B17217FBA9C739AA5819F44F9 MUL PUSH1 0x80 SHR JUMPDEST PUSH0 DUP4 PUSH5 0x800000000 AND PUSH1 0xF SIGNEXTEND SGT ISZERO PUSH2 0x2A30 JUMPI PUSH17 0x1000000058B90BFCDEE5ACD3C1CEDC823 MUL PUSH1 0x80 SHR JUMPDEST PUSH0 DUP4 PUSH5 0x400000000 AND PUSH1 0xF SIGNEXTEND SGT ISZERO PUSH2 0x2A59 JUMPI PUSH17 0x100000002C5C85FE31F35A6A30DA1BE50 MUL PUSH1 0x80 SHR JUMPDEST PUSH0 DUP4 PUSH5 0x200000000 AND PUSH1 0xF SIGNEXTEND SGT ISZERO PUSH2 0x2A82 JUMPI PUSH17 0x10000000162E42FF0999CE3541B9FFFCF MUL PUSH1 0x80 SHR JUMPDEST PUSH0 DUP4 PUSH1 0x1 PUSH1 0x20 SHL AND PUSH1 0xF SIGNEXTEND SGT ISZERO PUSH2 0x2AAA JUMPI PUSH17 0x100000000B17217F80F4EF5AADDA45554 MUL PUSH1 0x80 SHR JUMPDEST PUSH0 DUP4 PUSH4 0x80000000 AND PUSH1 0xF SIGNEXTEND SGT ISZERO PUSH2 0x2AD2 JUMPI PUSH17 0x10000000058B90BFBF8479BD5A81B51AD MUL PUSH1 0x80 SHR JUMPDEST PUSH0 DUP4 PUSH4 0x40000000 AND PUSH1 0xF SIGNEXTEND SGT ISZERO PUSH2 0x2AFA JUMPI PUSH17 0x1000000002C5C85FDF84BD62AE30A74CC MUL PUSH1 0x80 SHR JUMPDEST PUSH0 DUP4 PUSH4 0x20000000 AND PUSH1 0xF SIGNEXTEND SGT ISZERO PUSH2 0x2B22 JUMPI PUSH17 0x100000000162E42FEFB2FED257559BDAA MUL PUSH1 0x80 SHR JUMPDEST PUSH0 DUP4 PUSH4 0x10000000 AND PUSH1 0xF SIGNEXTEND SGT ISZERO PUSH2 0x2B4A JUMPI PUSH17 0x1000000000B17217F7D5A7716BBA4A9AE MUL PUSH1 0x80 SHR JUMPDEST PUSH0 DUP4 PUSH4 0x8000000 AND PUSH1 0xF SIGNEXTEND SGT ISZERO PUSH2 0x2B72 JUMPI PUSH17 0x100000000058B90BFBE9DDBAC5E109CCE MUL PUSH1 0x80 SHR JUMPDEST PUSH0 DUP4 PUSH4 0x4000000 AND PUSH1 0xF SIGNEXTEND SGT ISZERO PUSH2 0x2B9A JUMPI PUSH17 0x10000000002C5C85FDF4B15DE6F17EB0D MUL PUSH1 0x80 SHR JUMPDEST PUSH0 DUP4 PUSH4 0x2000000 AND PUSH1 0xF SIGNEXTEND SGT ISZERO PUSH2 0x2BC2 JUMPI PUSH17 0x1000000000162E42FEFA494F1478FDE05 MUL PUSH1 0x80 SHR JUMPDEST PUSH0 DUP4 PUSH4 0x1000000 AND PUSH1 0xF SIGNEXTEND SGT ISZERO PUSH2 0x2BEA JUMPI PUSH17 0x10000000000B17217F7D20CF927C8E94C MUL PUSH1 0x80 SHR JUMPDEST PUSH0 DUP4 PUSH3 0x800000 AND PUSH1 0xF SIGNEXTEND SGT ISZERO PUSH2 0x2C11 JUMPI PUSH17 0x1000000000058B90BFBE8F71CB4E4B33D MUL PUSH1 0x80 SHR JUMPDEST PUSH0 DUP4 PUSH3 0x400000 AND PUSH1 0xF SIGNEXTEND SGT ISZERO PUSH2 0x2C38 JUMPI PUSH17 0x100000000002C5C85FDF477B662B26945 MUL PUSH1 0x80 SHR JUMPDEST PUSH0 DUP4 PUSH3 0x200000 AND PUSH1 0xF SIGNEXTEND SGT ISZERO PUSH2 0x2C5F JUMPI PUSH17 0x10000000000162E42FEFA3AE53369388C MUL PUSH1 0x80 SHR JUMPDEST PUSH0 DUP4 PUSH3 0x100000 AND PUSH1 0xF SIGNEXTEND SGT ISZERO PUSH2 0x2C86 JUMPI PUSH17 0x100000000000B17217F7D1D351A389D40 MUL PUSH1 0x80 SHR JUMPDEST PUSH0 DUP4 PUSH3 0x80000 AND PUSH1 0xF SIGNEXTEND SGT ISZERO PUSH2 0x2CAD JUMPI PUSH17 0x10000000000058B90BFBE8E8B2D3D4EDE MUL PUSH1 0x80 SHR JUMPDEST PUSH0 DUP4 PUSH3 0x40000 AND PUSH1 0xF SIGNEXTEND SGT ISZERO PUSH2 0x2CD4 JUMPI PUSH17 0x1000000000002C5C85FDF4741BEA6E77E MUL PUSH1 0x80 SHR JUMPDEST PUSH0 DUP4 PUSH3 0x20000 AND PUSH1 0xF SIGNEXTEND SGT ISZERO PUSH2 0x2CFB JUMPI PUSH17 0x100000000000162E42FEFA39FE95583C2 MUL PUSH1 0x80 SHR JUMPDEST PUSH0 DUP4 PUSH3 0x10000 AND PUSH1 0xF SIGNEXTEND SGT ISZERO PUSH2 0x2D22 JUMPI PUSH17 0x1000000000000B17217F7D1CFB72B45E1 MUL PUSH1 0x80 SHR JUMPDEST PUSH0 DUP4 PUSH2 0x8000 AND PUSH1 0xF SIGNEXTEND SGT ISZERO PUSH2 0x2D48 JUMPI PUSH17 0x100000000000058B90BFBE8E7CC35C3F0 MUL PUSH1 0x80 SHR JUMPDEST PUSH0 DUP4 PUSH2 0x4000 AND PUSH1 0xF SIGNEXTEND SGT ISZERO PUSH2 0x2D6E JUMPI PUSH17 0x10000000000002C5C85FDF473E242EA38 MUL PUSH1 0x80 SHR JUMPDEST PUSH0 DUP4 PUSH2 0x2000 AND PUSH1 0xF SIGNEXTEND SGT ISZERO PUSH2 0x2D94 JUMPI PUSH17 0x1000000000000162E42FEFA39F02B772C MUL PUSH1 0x80 SHR JUMPDEST PUSH0 DUP4 PUSH2 0x1000 AND PUSH1 0xF SIGNEXTEND SGT ISZERO PUSH2 0x2DBA JUMPI PUSH17 0x10000000000000B17217F7D1CF7D83C1A MUL PUSH1 0x80 SHR JUMPDEST PUSH0 DUP4 PUSH2 0x800 AND PUSH1 0xF SIGNEXTEND SGT ISZERO PUSH2 0x2DE0 JUMPI PUSH17 0x1000000000000058B90BFBE8E7BDCBE2E MUL PUSH1 0x80 SHR JUMPDEST PUSH0 DUP4 PUSH2 0x400 AND PUSH1 0xF SIGNEXTEND SGT ISZERO PUSH2 0x2E06 JUMPI PUSH17 0x100000000000002C5C85FDF473DEA871F MUL PUSH1 0x80 SHR JUMPDEST PUSH0 DUP4 PUSH2 0x200 AND PUSH1 0xF SIGNEXTEND SGT ISZERO PUSH2 0x2E2C JUMPI PUSH17 0x10000000000000162E42FEFA39EF44D91 MUL PUSH1 0x80 SHR JUMPDEST PUSH0 DUP4 PUSH2 0x100 AND PUSH1 0xF SIGNEXTEND SGT ISZERO PUSH2 0x2E52 JUMPI PUSH17 0x100000000000000B17217F7D1CF79E949 MUL PUSH1 0x80 SHR JUMPDEST PUSH0 DUP4 PUSH1 0x80 AND PUSH1 0xF SIGNEXTEND SGT ISZERO PUSH2 0x2E77 JUMPI PUSH17 0x10000000000000058B90BFBE8E7BCE544 MUL PUSH1 0x80 SHR JUMPDEST PUSH0 DUP4 PUSH1 0x40 AND PUSH1 0xF SIGNEXTEND SGT ISZERO PUSH2 0x2E9C JUMPI PUSH17 0x1000000000000002C5C85FDF473DE6ECA MUL PUSH1 0x80 SHR JUMPDEST PUSH0 DUP4 PUSH1 0x20 AND PUSH1 0xF SIGNEXTEND SGT ISZERO PUSH2 0x2EC1 JUMPI PUSH17 0x100000000000000162E42FEFA39EF366F MUL PUSH1 0x80 SHR JUMPDEST PUSH0 DUP4 PUSH1 0x10 AND PUSH1 0xF SIGNEXTEND SGT ISZERO PUSH2 0x2EE6 JUMPI PUSH17 0x1000000000000000B17217F7D1CF79AFA MUL PUSH1 0x80 SHR JUMPDEST PUSH0 DUP4 PUSH1 0x8 AND PUSH1 0xF SIGNEXTEND SGT ISZERO PUSH2 0x2F0B JUMPI PUSH17 0x100000000000000058B90BFBE8E7BCD6D MUL PUSH1 0x80 SHR JUMPDEST PUSH0 DUP4 PUSH1 0x4 AND PUSH1 0xF SIGNEXTEND SGT ISZERO PUSH2 0x2F30 JUMPI PUSH17 0x10000000000000002C5C85FDF473DE6B2 MUL PUSH1 0x80 SHR JUMPDEST PUSH0 DUP4 PUSH1 0x2 AND PUSH1 0xF SIGNEXTEND SGT ISZERO PUSH2 0x2F55 JUMPI PUSH17 0x1000000000000000162E42FEFA39EF358 MUL PUSH1 0x80 SHR JUMPDEST PUSH0 DUP4 PUSH1 0x1 AND PUSH1 0xF SIGNEXTEND SGT ISZERO PUSH2 0x2F7A JUMPI PUSH17 0x10000000000000000B17217F7D1CF79AB MUL PUSH1 0x80 SHR JUMPDEST PUSH1 0xF DUP4 DUP2 SIGNEXTEND PUSH1 0x40 SAR PUSH1 0x3F SUB SWAP1 SIGNEXTEND SHR PUSH1 0x1 PUSH1 0x1 PUSH1 0x7F SHL SUB DUP2 GT ISZERO PUSH2 0x20CF JUMPI PUSH0 PUSH0 REVERT JUMPDEST PUSH1 0x1 PUSH1 0x1 PUSH1 0xA0 SHL SUB DUP2 AND DUP2 EQ PUSH2 0x1B92 JUMPI PUSH0 PUSH0 REVERT JUMPDEST PUSH0 PUSH1 0x20 DUP3 DUP5 SUB SLT ISZERO PUSH2 0x2FBF JUMPI PUSH0 PUSH0 REVERT JUMPDEST DUP2 CALLDATALOAD PUSH2 0x20CC DUP2 PUSH2 0x2F9B JUMP JUMPDEST PUSH0 PUSH1 0x20 DUP3 DUP5 SUB SLT ISZERO PUSH2 0x2FDA JUMPI PUSH0 PUSH0 REVERT JUMPDEST POP CALLDATALOAD SWAP2 SWAP1 POP JUMP JUMPDEST DUP1 ISZERO ISZERO DUP2 EQ PUSH2 0x1B92 JUMPI PUSH0 PUSH0 REVERT JUMPDEST PUSH0 PUSH0 PUSH1 0x40 DUP4 DUP6 SUB SLT ISZERO PUSH2 0x2FFF JUMPI PUSH0 PUSH0 REVERT JUMPDEST DUP3 CALLDATALOAD PUSH2 0x300A DUP2 PUSH2 0x2F9B JUMP JUMPDEST SWAP2 POP PUSH1 0x20 DUP4 ADD CALLDATALOAD PUSH2 0x301A DUP2 PUSH2 0x2FE1 JUMP JUMPDEST DUP1 SWAP2 POP POP SWAP3 POP SWAP3 SWAP1 POP JUMP JUMPDEST PUSH1 0x1 PUSH1 0x1 PUSH1 0xA0 SHL SUB SWAP2 SWAP1 SWAP2 AND DUP2 MSTORE PUSH1 0x20 ADD SWAP1 JUMP JUMPDEST PUSH0 PUSH0 PUSH0 PUSH1 0x60 DUP5 DUP7 SUB SLT ISZERO PUSH2 0x304B JUMPI PUSH0 PUSH0 REVERT JUMPDEST DUP4 CALLDATALOAD PUSH2 0x3056 DUP2 PUSH2 0x2F9B JUMP JUMPDEST SWAP6 PUSH1 0x20 DUP6 ADD CALLDATALOAD SWAP6 POP PUSH1 0x40 SWAP1 SWAP5 ADD CALLDATALOAD SWAP4 SWAP3 POP POP POP JUMP JUMPDEST PUSH0 PUSH0 PUSH1 0x40 DUP4 DUP6 SUB SLT ISZERO PUSH2 0x307C JUMPI PUSH0 PUSH0 REVERT JUMPDEST POP POP DUP1 CALLDATALOAD SWAP3 PUSH1 0x20 SWAP1 SWAP2 ADD CALLDATALOAD SWAP2 POP JUMP JUMPDEST PUSH1 0x20 DUP1 DUP3 MSTORE DUP3 MLOAD DUP3 DUP3 ADD DUP2 SWAP1 MSTORE PUSH0 SWAP2 DUP5 ADD SWAP1 PUSH1 0x40 DUP5 ADD SWAP1 DUP4 JUMPDEST DUP2 DUP2 LT ISZERO PUSH2 0x2566 JUMPI DUP4 MLOAD PUSH1 0x1 PUSH1 0x1 PUSH1 0xA0 SHL SUB AND DUP4 MSTORE PUSH1 0x20 SWAP4 DUP5 ADD SWAP4 SWAP1 SWAP3 ADD SWAP2 PUSH1 0x1 ADD PUSH2 0x30A4 JUMP JUMPDEST PUSH0 PUSH0 PUSH1 0x40 DUP4 DUP6 SUB SLT ISZERO PUSH2 0x30DC JUMPI PUSH0 PUSH0 REVERT JUMPDEST DUP3 CALLDATALOAD PUSH2 0x30E7 DUP2 PUSH2 0x2F9B JUMP JUMPDEST SWAP5 PUSH1 0x20 SWAP4 SWAP1 SWAP4 ADD CALLDATALOAD SWAP4 POP POP POP JUMP JUMPDEST PUSH0 PUSH0 PUSH0 PUSH0 PUSH0 PUSH0 PUSH0 PUSH1 0xE0 DUP9 DUP11 SUB SLT ISZERO PUSH2 0x310B JUMPI PUSH0 PUSH0 REVERT JUMPDEST DUP8 CALLDATALOAD PUSH2 0x3116 DUP2 PUSH2 0x2F9B JUMP JUMPDEST SWAP7 POP PUSH1 0x20 DUP9 ADD CALLDATALOAD PUSH2 0x3126 DUP2 PUSH2 0x2F9B JUMP JUMPDEST SWAP6 POP PUSH1 0x40 DUP9 ADD CALLDATALOAD PUSH2 0x3136 DUP2 PUSH2 0x2F9B JUMP JUMPDEST SWAP5 POP PUSH1 0x60 DUP9 ADD CALLDATALOAD PUSH2 0x3146 DUP2 PUSH2 0x2F9B JUMP JUMPDEST SWAP4 POP PUSH1 0x80 DUP9 ADD CALLDATALOAD PUSH2 0x3156 DUP2 PUSH2 0x2F9B JUMP JUMPDEST SWAP3 POP PUSH1 0xA0 DUP9 ADD CALLDATALOAD PUSH2 0x3166 DUP2 PUSH2 0x2F9B JUMP JUMPDEST SWAP2 POP PUSH1 0xC0 DUP9 ADD CALLDATALOAD PUSH2 0x3176 DUP2 PUSH2 0x2F9B JUMP JUMPDEST DUP1 SWAP2 POP POP SWAP3 SWAP6 SWAP9 SWAP2 SWAP5 SWAP8 POP SWAP3 SWAP6 POP JUMP JUMPDEST PUSH1 0x20 DUP1 DUP3 MSTORE PUSH1 0xE SWAP1 DUP3 ADD MSTORE PUSH14 0x139BDD08185D5D1A1BDC9A5E9959 PUSH1 0x92 SHL PUSH1 0x40 DUP3 ADD MSTORE PUSH1 0x60 ADD SWAP1 JUMP JUMPDEST PUSH4 0x4E487B71 PUSH1 0xE0 SHL PUSH0 MSTORE PUSH1 0x11 PUSH1 0x4 MSTORE PUSH1 0x24 PUSH0 REVERT JUMPDEST DUP1 DUP3 MUL DUP2 ISZERO DUP3 DUP3 DIV DUP5 EQ OR PUSH2 0x20CF JUMPI PUSH2 0x20CF PUSH2 0x31AE JUMP JUMPDEST PUSH4 0x4E487B71 PUSH1 0xE0 SHL PUSH0 MSTORE PUSH1 0x12 PUSH1 0x4 MSTORE PUSH1 0x24 PUSH0 REVERT JUMPDEST PUSH0 DUP3 PUSH2 0x3207 JUMPI PUSH4 0x4E487B71 PUSH1 0xE0 SHL PUSH0 MSTORE PUSH1 0x12 PUSH1 0x4 MSTORE PUSH1 0x24 PUSH0 REVERT JUMPDEST POP DIV SWAP1 JUMP JUMPDEST PUSH1 0x20 DUP1 DUP3 MSTORE PUSH1 0x1A SWAP1 DUP3 ADD MSTORE PUSH26 0x496E73756666696369656E7420457468657220666F7220666565 PUSH1 0x30 SHL PUSH1 0x40 DUP3 ADD MSTORE PUSH1 0x60 ADD SWAP1 JUMP JUMPDEST DUP2 DUP2 SUB DUP2 DUP2 GT ISZERO PUSH2 0x20CF JUMPI PUSH2 0x20CF PUSH2 0x31AE JUMP JUMPDEST PUSH0 PUSH1 0x1 DUP3 ADD PUSH2 0x3264 JUMPI PUSH2 0x3264 PUSH2 0x31AE JUMP JUMPDEST POP PUSH1 0x1 ADD SWAP1 JUMP JUMPDEST PUSH4 0x4E487B71 PUSH1 0xE0 SHL PUSH0 MSTORE PUSH1 0x21 PUSH1 0x4 MSTORE PUSH1 0x24 PUSH0 REVERT JUMPDEST PUSH1 0x3 DUP2 LT PUSH2 0x328F JUMPI PUSH2 0x328F PUSH2 0x326B JUMP JUMPDEST SWAP1 MSTORE JUMP JUMPDEST DUP8 DUP2 MSTORE PUSH1 0x1 PUSH1 0x1 PUSH1 0xA0 SHL SUB DUP8 AND PUSH1 0x20 DUP3 ADD MSTORE PUSH1 0x40 DUP2 ADD DUP7 SWAP1 MSTORE PUSH1 0x60 DUP2 ADD DUP6 SWAP1 MSTORE PUSH1 0xE0 DUP2 ADD PUSH1 0x1 DUP6 LT PUSH2 0x32C7 JUMPI PUSH2 0x32C7 PUSH2 0x326B JUMP JUMPDEST DUP5 PUSH1 0x80 DUP4 ADD MSTORE PUSH2 0x32DA PUSH1 0xA0 DUP4 ADD DUP6 PUSH2 0x327F JUMP JUMPDEST DUP3 ISZERO ISZERO PUSH1 0xC0 DUP4 ADD MSTORE SWAP9 SWAP8 POP POP POP POP POP POP POP POP JUMP JUMPDEST PUSH1 0x1 PUSH1 0x1 PUSH1 0xA0 SHL SUB DUP6 AND DUP2 MSTORE PUSH1 0x80 DUP2 ADD PUSH2 0x330B PUSH1 0x20 DUP4 ADD DUP7 PUSH2 0x327F JUMP JUMPDEST DUP4 PUSH1 0x40 DUP4 ADD MSTORE DUP3 ISZERO ISZERO PUSH1 0x60 DUP4 ADD MSTORE SWAP6 SWAP5 POP POP POP POP POP JUMP JUMPDEST PUSH1 0x1 PUSH1 0x1 PUSH1 0xA0 SHL SUB SWAP3 SWAP1 SWAP3 AND DUP3 MSTORE ISZERO ISZERO PUSH1 0x20 DUP3 ADD MSTORE PUSH1 0x40 ADD SWAP1 JUMP JUMPDEST PUSH4 0x4E487B71 PUSH1 0xE0 SHL PUSH0 MSTORE PUSH1 0x32 PUSH1 0x4 MSTORE PUSH1 0x24 PUSH0 REVERT JUMPDEST PUSH4 0x4E487B71 PUSH1 0xE0 SHL PUSH0 MSTORE PUSH1 0x31 PUSH1 0x4 MSTORE PUSH1 0x24 PUSH0 REVERT JUMPDEST PUSH0 PUSH1 0x20 DUP3 DUP5 SUB SLT ISZERO PUSH2 0x3375 JUMPI PUSH0 PUSH0 REVERT JUMPDEST POP MLOAD SWAP2 SWAP1 POP JUMP JUMPDEST PUSH0 PUSH1 0x20 DUP3 DUP5 SUB SLT ISZERO PUSH2 0x338C JUMPI PUSH0 PUSH0 REVERT JUMPDEST DUP2 MLOAD PUSH2 0x20CC DUP2 PUSH2 0x2F9B JUMP JUMPDEST PUSH0 PUSH1 0x20 DUP3 DUP5 SUB SLT ISZERO PUSH2 0x33A7 JUMPI PUSH0 PUSH0 REVERT JUMPDEST DUP2 MLOAD PUSH2 0x20CC DUP2 PUSH2 0x2FE1 JUMP JUMPDEST PUSH1 0x20 DUP1 DUP3 MSTORE PUSH1 0x29 SWAP1 DUP3 ADD MSTORE PUSH32 0x496E73756666696369656E7420457468657220666F72206F7264657220636F73 PUSH1 0x40 DUP3 ADD MSTORE PUSH9 0x7420616E6420666565 PUSH1 0xB8 SHL PUSH1 0x60 DUP3 ADD MSTORE PUSH1 0x80 ADD SWAP1 JUMP JUMPDEST DUP1 DUP3 ADD DUP1 DUP3 GT ISZERO PUSH2 0x20CF JUMPI PUSH2 0x20CF PUSH2 0x31AE JUMP INVALID LOG2 PUSH5 0x6970667358 0x22 SLT KECCAK256 ISZERO 0xEF LOG4 BLOBBASEFEE PUSH11 0x65A923CBFE9677030750DD ADD 0xF6 BALANCE 0xBD KECCAK256 0xDA RETURNCONTRACT 0xB6 GASLIMIT ADDMOD 0xB3 0xD3 ADD SWAP1 PUSH1 0x20 PUSH5 0x736F6C6343 STOP ADDMOD 0x1E STOP CALLER "
		},
		"gasEstimates": {
			"creation": {
				"codeDepositCost": "2676000",
				"executionCost": "infinite",
				"totalCost": "infinite"
			},
			"external": {
				"": "1797",
				"CheckAuthorizedBuyer(address)": "infinite",
				"LMEprice()": "2559",
				"LMEpriceInEther()": "2340",
				"No()": "2581",
				"adminControl()": "2515",
				"authorizedAddresses(address)": "2713",
				"authorizedBuyersList(uint256)": "4702",
				"authorizedBuyersMap(address)": "2693",
				"balances(address)": "2736",
				"balancesContract()": "2449",
				"dailyPrice()": "2558",
				"escrowHandler()": "2471",
				"feeCap()": "2362",
				"feePercentage()": "2493",
				"feeRecipient()": "2383",
				"getAllAuthorizedBuyers()": "infinite",
				"getContractBalanceEther()": "413",
				"getEtherBalance(address)": "3118",
				"getNextOrderID()": "24549",
				"getUSDTPerETH()": "2403",
				"isAuthorizedBuyer(address)": "2578",
				"migrateAuthorizedBuyersFromBackup()": "infinite",
				"multisig()": "2438",
				"nextOrderID()": "2536",
				"nickeliumContract()": "2560",
				"owner()": "2493",
				"pause()": "infinite",
				"paused()": "2513",
				"placeBuyOrderEther(address,uint256,uint256)": "infinite",
				"placeBuyOrderUSDC(address,uint256,uint256)": "infinite",
				"placeBuyOrderUSDT(address,uint256,uint256)": "infinite",
				"placeSellOrderEther(address,uint256,uint256)": "infinite",
				"placeSellOrderUSDC(address,uint256,uint256)": "infinite",
				"placeSellOrderUSDT(address,uint256,uint256)": "infinite",
				"priceChanger(address)": "2539",
				"releaseEther(address,uint256)": "infinite",
				"revertEther(address,uint256)": "infinite",
				"setAuthorizedAddress(address,bool)": "infinite",
				"setAuthorizedBuyer(address,bool)": "infinite",
				"setContracts(address,address,address,address,address,address,address)": "infinite",
				"setFee(uint256,uint256)": "48146",
				"setFeeRecipient(address)": "26968",
				"setOwner(address)": "26913",
				"setPriceChanger(address,bool)": "infinite",
				"setUSDTPerETH(uint256)": "25667",
				"unpause()": "infinite",
				"updateDailyPrice(uint256)": "48821",
				"update_LME_price()": "infinite",
				"usdcOrders()": "2537",
				"usdtOrders()": "2383",
				"usdtPerEth()": "2537"
			},
			"internal": {
				"findBuyerIndex(address)": "infinite",
				"getDailyPrice()": "infinite"
			}
		},
		"methodIdentifiers": {
			"CheckAuthorizedBuyer(address)": "d8428759",
			"LMEprice()": "63ba5df7",
			"LMEpriceInEther()": "00e36de3",
			"No()": "6f726dda",
			"adminControl()": "555d3e63",
			"authorizedAddresses(address)": "f19e207e",
			"authorizedBuyersList(uint256)": "7bb009d9",
			"authorizedBuyersMap(address)": "176bff03",
			"balances(address)": "27e235e3",
			"balancesContract()": "4a3d72a1",
			"dailyPrice()": "fa66a5f4",
			"escrowHandler()": "87ad8f87",
			"feeCap()": "075b6e33",
			"feePercentage()": "a001ecdd",
			"feeRecipient()": "46904840",
			"getAllAuthorizedBuyers()": "566d5d0e",
			"getContractBalanceEther()": "f343ebed",
			"getEtherBalance(address)": "dc45d08e",
			"getNextOrderID()": "78dd0298",
			"getUSDTPerETH()": "11c0a582",
			"isAuthorizedBuyer(address)": "46f6c9de",
			"migrateAuthorizedBuyersFromBackup()": "ab48570d",
			"multisig()": "4783c35b",
			"nextOrderID()": "f47a0acc",
			"nickeliumContract()": "1b8e2ed9",
			"owner()": "8da5cb5b",
			"pause()": "8456cb59",
			"paused()": "5c975abb",
			"placeBuyOrderEther(address,uint256,uint256)": "fcf99b16",
			"placeBuyOrderUSDC(address,uint256,uint256)": "a0aabd57",
			"placeBuyOrderUSDT(address,uint256,uint256)": "9815005f",
			"placeSellOrderEther(address,uint256,uint256)": "ae7b7bd2",
			"placeSellOrderUSDC(address,uint256,uint256)": "3772525c",
			"placeSellOrderUSDT(address,uint256,uint256)": "5a2fe45a",
			"priceChanger(address)": "00dfa778",
			"releaseEther(address,uint256)": "ba0bbd95",
			"revertEther(address,uint256)": "b5b6603c",
			"setAuthorizedAddress(address,bool)": "1351cf51",
			"setAuthorizedBuyer(address,bool)": "ab16d155",
			"setContracts(address,address,address,address,address,address,address)": "d3ff95c7",
			"setFee(uint256,uint256)": "52f7c988",
			"setFeeRecipient(address)": "e74b981b",
			"setOwner(address)": "13af4035",
			"setPriceChanger(address,bool)": "52b459cc",
			"setUSDTPerETH(uint256)": "11508beb",
			"unpause()": "3f4ba83a",
			"updateDailyPrice(uint256)": "c0713601",
			"update_LME_price()": "d695bf86",
			"usdcOrders()": "9c5338a5",
			"usdtOrders()": "71dc7725",
			"usdtPerEth()": "60455410"
		}
	},
	"abi": [
		{
			"inputs": [
				{
					"internalType": "uint256",
					"name": "_initialNo",
					"type": "uint256"
				}
			],
			"stateMutability": "nonpayable",
			"type": "constructor"
		},
		{
			"inputs": [],
			"name": "ReentrancyGuardReentrantCall",
			"type": "error"
		},
		{
			"anonymous": false,
			"inputs": [
				{
					"indexed": true,
					"internalType": "address",
					"name": "sender",
					"type": "address"
				},
				{
					"indexed": false,
					"internalType": "uint256",
					"name": "amount",
					"type": "uint256"
				}
			],
			"name": "EtherReceived",
			"type": "event"
		},
		{
			"anonymous": false,
			"inputs": [
				{
					"indexed": false,
					"internalType": "uint256",
					"name": "feePercentage",
					"type": "uint256"
				},
				{
					"indexed": false,
					"internalType": "uint256",
					"name": "feeCap",
					"type": "uint256"
				}
			],
			"name": "FeeUpdated",
			"type": "event"
		},
		{
			"anonymous": false,
			"inputs": [
				{
					"indexed": false,
					"internalType": "address",
					"name": "account",
					"type": "address"
				}
			],
			"name": "Paused",
			"type": "event"
		},
		{
			"anonymous": false,
			"inputs": [
				{
					"indexed": false,
					"internalType": "uint256",
					"name": "newPrice",
					"type": "uint256"
				}
			],
			"name": "PriceUpdated",
			"type": "event"
		},
		{
			"anonymous": false,
			"inputs": [
				{
					"indexed": false,
					"internalType": "address",
					"name": "account",
					"type": "address"
				}
			],
			"name": "Unpaused",
			"type": "event"
		},
		{
			"stateMutability": "payable",
			"type": "fallback"
		},
		{
			"inputs": [
				{
					"internalType": "address",
					"name": "buyer",
					"type": "address"
				}
			],
			"name": "CheckAuthorizedBuyer",
			"outputs": [
				{
					"internalType": "uint256",
					"name": "",
					"type": "uint256"
				},
				{
					"internalType": "bool",
					"name": "",
					"type": "bool"
				}
			],
			"stateMutability": "view",
			"type": "function"
		},
		{
			"inputs": [],
			"name": "LMEprice",
			"outputs": [
				{
					"internalType": "uint256",
					"name": "",
					"type": "uint256"
				}
			],
			"stateMutability": "view",
			"type": "function"
		},
		{
			"inputs": [],
			"name": "LMEpriceInEther",
			"outputs": [
				{
					"internalType": "uint256",
					"name": "",
					"type": "uint256"
				}
			],
			"stateMutability": "view",
			"type": "function"
		},
		{
			"inputs": [],
			"name": "No",
			"outputs": [
				{
					"internalType": "uint256",
					"name": "",
					"type": "uint256"
				}
			],
			"stateMutability": "view",
			"type": "function"
		},
		{
			"inputs": [],
			"name": "adminControl",
			"outputs": [
				{
					"internalType": "contract IAdminControl",
					"name": "",
					"type": "address"
				}
			],
			"stateMutability": "view",
			"type": "function"
		},
		{
			"inputs": [
				{
					"internalType": "address",
					"name": "",
					"type": "address"
				}
			],
			"name": "authorizedAddresses",
			"outputs": [
				{
					"internalType": "bool",
					"name": "",
					"type": "bool"
				}
			],
			"stateMutability": "view",
			"type": "function"
		},
		{
			"inputs": [
				{
					"internalType": "uint256",
					"name": "",
					"type": "uint256"
				}
			],
			"name": "authorizedBuyersList",
			"outputs": [
				{
					"internalType": "address",
					"name": "",
					"type": "address"
				}
			],
			"stateMutability": "view",
			"type": "function"
		},
		{
			"inputs": [
				{
					"internalType": "address",
					"name": "",
					"type": "address"
				}
			],
			"name": "authorizedBuyersMap",
			"outputs": [
				{
					"internalType": "bool",
					"name": "",
					"type": "bool"
				}
			],
			"stateMutability": "view",
			"type": "function"
		},
		{
			"inputs": [
				{
					"internalType": "address",
					"name": "",
					"type": "address"
				}
			],
			"name": "balances",
			"outputs": [
				{
					"internalType": "uint256",
					"name": "",
					"type": "uint256"
				}
			],
			"stateMutability": "view",
			"type": "function"
		},
		{
			"inputs": [],
			"name": "balancesContract",
			"outputs": [
				{
					"internalType": "contract IBalances",
					"name": "",
					"type": "address"
				}
			],
			"stateMutability": "view",
			"type": "function"
		},
		{
			"inputs": [],
			"name": "dailyPrice",
			"outputs": [
				{
					"internalType": "uint256",
					"name": "",
					"type": "uint256"
				}
			],
			"stateMutability": "view",
			"type": "function"
		},
		{
			"inputs": [],
			"name": "escrowHandler",
			"outputs": [
				{
					"internalType": "contract IEscrowHandler",
					"name": "",
					"type": "address"
				}
			],
			"stateMutability": "view",
			"type": "function"
		},
		{
			"inputs": [],
			"name": "feeCap",
			"outputs": [
				{
					"internalType": "uint256",
					"name": "",
					"type": "uint256"
				}
			],
			"stateMutability": "view",
			"type": "function"
		},
		{
			"inputs": [],
			"name": "feePercentage",
			"outputs": [
				{
					"internalType": "uint256",
					"name": "",
					"type": "uint256"
				}
			],
			"stateMutability": "view",
			"type": "function"
		},
		{
			"inputs": [],
			"name": "feeRecipient",
			"outputs": [
				{
					"internalType": "address payable",
					"name": "",
					"type": "address"
				}
			],
			"stateMutability": "view",
			"type": "function"
		},
		{
			"inputs": [],
			"name": "getAllAuthorizedBuyers",
			"outputs": [
				{
					"internalType": "address[]",
					"name": "",
					"type": "address[]"
				}
			],
			"stateMutability": "view",
			"type": "function"
		},
		{
			"inputs": [],
			"name": "getContractBalanceEther",
			"outputs": [
				{
					"internalType": "uint256",
					"name": "",
					"type": "uint256"
				}
			],
			"stateMutability": "view",
			"type": "function"
		},
		{
			"inputs": [
				{
					"internalType": "address",
					"name": "account",
					"type": "address"
				}
			],
			"name": "getEtherBalance",
			"outputs": [
				{
					"internalType": "uint256",
					"name": "",
					"type": "uint256"
				}
			],
			"stateMutability": "view",
			"type": "function"
		},
		{
			"inputs": [],
			"name": "getNextOrderID",
			"outputs": [
				{
					"internalType": "uint256",
					"name": "",
					"type": "uint256"
				}
			],
			"stateMutability": "nonpayable",
			"type": "function"
		},
		{
			"inputs": [],
			"name": "getUSDTPerETH",
			"outputs": [
				{
					"internalType": "uint256",
					"name": "",
					"type": "uint256"
				}
			],
			"stateMutability": "view",
			"type": "function"
		},
		{
			"inputs": [
				{
					"internalType": "address",
					"name": "buyer",
					"type": "address"
				}
			],
			"name": "isAuthorizedBuyer",
			"outputs": [
				{
					"internalType": "bool",
					"name": "",
					"type": "bool"
				}
			],
			"stateMutability": "view",
			"type": "function"
		},
		{
			"inputs": [],
			"name": "migrateAuthorizedBuyersFromBackup",
			"outputs": [],
			"stateMutability": "nonpayable",
			"type": "function"
		},
		{
			"inputs": [],
			"name": "multisig",
			"outputs": [
				{
					"internalType": "address",
					"name": "",
					"type": "address"
				}
			],
			"stateMutability": "view",
			"type": "function"
		},
		{
			"inputs": [],
			"name": "nextOrderID",
			"outputs": [
				{
					"internalType": "uint256",
					"name": "",
					"type": "uint256"
				}
			],
			"stateMutability": "view",
			"type": "function"
		},
		{
			"inputs": [],
			"name": "nickeliumContract",
			"outputs": [
				{
					"internalType": "contract INickelium",
					"name": "",
					"type": "address"
				}
			],
			"stateMutability": "view",
			"type": "function"
		},
		{
			"inputs": [],
			"name": "owner",
			"outputs": [
				{
					"internalType": "address",
					"name": "",
					"type": "address"
				}
			],
			"stateMutability": "view",
			"type": "function"
		},
		{
			"inputs": [],
			"name": "pause",
			"outputs": [],
			"stateMutability": "nonpayable",
			"type": "function"
		},
		{
			"inputs": [],
			"name": "paused",
			"outputs": [
				{
					"internalType": "bool",
					"name": "",
					"type": "bool"
				}
			],
			"stateMutability": "view",
			"type": "function"
		},
		{
			"inputs": [
				{
					"internalType": "address",
					"name": "buyer",
					"type": "address"
				},
				{
					"internalType": "uint256",
					"name": "_price",
					"type": "uint256"
				},
				{
					"internalType": "uint256",
					"name": "_amount",
					"type": "uint256"
				}
			],
			"name": "placeBuyOrderEther",
			"outputs": [],
			"stateMutability": "payable",
			"type": "function"
		},
		{
			"inputs": [
				{
					"internalType": "address",
					"name": "buyer",
					"type": "address"
				},
				{
					"internalType": "uint256",
					"name": "_price",
					"type": "uint256"
				},
				{
					"internalType": "uint256",
					"name": "_amount",
					"type": "uint256"
				}
			],
			"name": "placeBuyOrderUSDC",
			"outputs": [],
			"stateMutability": "payable",
			"type": "function"
		},
		{
			"inputs": [
				{
					"internalType": "address",
					"name": "buyer",
					"type": "address"
				},
				{
					"internalType": "uint256",
					"name": "_price",
					"type": "uint256"
				},
				{
					"internalType": "uint256",
					"name": "_amount",
					"type": "uint256"
				}
			],
			"name": "placeBuyOrderUSDT",
			"outputs": [],
			"stateMutability": "payable",
			"type": "function"
		},
		{
			"inputs": [
				{
					"internalType": "address",
					"name": "seller",
					"type": "address"
				},
				{
					"internalType": "uint256",
					"name": "_price",
					"type": "uint256"
				},
				{
					"internalType": "uint256",
					"name": "_amount",
					"type": "uint256"
				}
			],
			"name": "placeSellOrderEther",
			"outputs": [],
			"stateMutability": "payable",
			"type": "function"
		},
		{
			"inputs": [
				{
					"internalType": "address",
					"name": "seller",
					"type": "address"
				},
				{
					"internalType": "uint256",
					"name": "_price",
					"type": "uint256"
				},
				{
					"internalType": "uint256",
					"name": "_amount",
					"type": "uint256"
				}
			],
			"name": "placeSellOrderUSDC",
			"outputs": [],
			"stateMutability": "payable",
			"type": "function"
		},
		{
			"inputs": [
				{
					"internalType": "address",
					"name": "seller",
					"type": "address"
				},
				{
					"internalType": "uint256",
					"name": "_price",
					"type": "uint256"
				},
				{
					"internalType": "uint256",
					"name": "_amount",
					"type": "uint256"
				}
			],
			"name": "placeSellOrderUSDT",
			"outputs": [],
			"stateMutability": "payable",
			"type": "function"
		},
		{
			"inputs": [
				{
					"internalType": "address",
					"name": "",
					"type": "address"
				}
			],
			"name": "priceChanger",
			"outputs": [
				{
					"internalType": "bool",
					"name": "",
					"type": "bool"
				}
			],
			"stateMutability": "view",
			"type": "function"
		},
		{
			"inputs": [
				{
					"internalType": "address payable",
					"name": "seller",
					"type": "address"
				},
				{
					"internalType": "uint256",
					"name": "amount",
					"type": "uint256"
				}
			],
			"name": "releaseEther",
			"outputs": [],
			"stateMutability": "nonpayable",
			"type": "function"
		},
		{
			"inputs": [
				{
					"internalType": "address",
					"name": "sender",
					"type": "address"
				},
				{
					"internalType": "uint256",
					"name": "amount",
					"type": "uint256"
				}
			],
			"name": "revertEther",
			"outputs": [],
			"stateMutability": "nonpayable",
			"type": "function"
		},
		{
			"inputs": [
				{
					"internalType": "address",
					"name": "_address",
					"type": "address"
				},
				{
					"internalType": "bool",
					"name": "_status",
					"type": "bool"
				}
			],
			"name": "setAuthorizedAddress",
			"outputs": [],
			"stateMutability": "nonpayable",
			"type": "function"
		},
		{
			"inputs": [
				{
					"internalType": "address",
					"name": "buyer",
					"type": "address"
				},
				{
					"internalType": "bool",
					"name": "_status",
					"type": "bool"
				}
			],
			"name": "setAuthorizedBuyer",
			"outputs": [],
			"stateMutability": "nonpayable",
			"type": "function"
		},
		{
			"inputs": [
				{
					"internalType": "address",
					"name": "_usdcOrdersAddress",
					"type": "address"
				},
				{
					"internalType": "address",
					"name": "_usdtOrdersAddress",
					"type": "address"
				},
				{
					"internalType": "address",
					"name": "_escrowHandler",
					"type": "address"
				},
				{
					"internalType": "address",
					"name": "_adminControl",
					"type": "address"
				},
				{
					"internalType": "address",
					"name": "_balancesContract",
					"type": "address"
				},
				{
					"internalType": "address",
					"name": "_nickeliumAddress",
					"type": "address"
				},
				{
					"internalType": "address",
					"name": "_multisig",
					"type": "address"
				}
			],
			"name": "setContracts",
			"outputs": [],
			"stateMutability": "nonpayable",
			"type": "function"
		},
		{
			"inputs": [
				{
					"internalType": "uint256",
					"name": "_feePercentage",
					"type": "uint256"
				},
				{
					"internalType": "uint256",
					"name": "_feeCap",
					"type": "uint256"
				}
			],
			"name": "setFee",
			"outputs": [],
			"stateMutability": "nonpayable",
			"type": "function"
		},
		{
			"inputs": [
				{
					"internalType": "address payable",
					"name": "_newFeeRecipient",
					"type": "address"
				}
			],
			"name": "setFeeRecipient",
			"outputs": [],
			"stateMutability": "nonpayable",
			"type": "function"
		},
		{
			"inputs": [
				{
					"internalType": "address",
					"name": "newOwner",
					"type": "address"
				}
			],
			"name": "setOwner",
			"outputs": [],
			"stateMutability": "nonpayable",
			"type": "function"
		},
		{
			"inputs": [
				{
					"internalType": "address",
					"name": "_address",
					"type": "address"
				},
				{
					"internalType": "bool",
					"name": "_status",
					"type": "bool"
				}
			],
			"name": "setPriceChanger",
			"outputs": [],
			"stateMutability": "nonpayable",
			"type": "function"
		},
		{
			"inputs": [
				{
					"internalType": "uint256",
					"name": "_newPrice",
					"type": "uint256"
				}
			],
			"name": "setUSDTPerETH",
			"outputs": [],
			"stateMutability": "nonpayable",
			"type": "function"
		},
		{
			"inputs": [],
			"name": "unpause",
			"outputs": [],
			"stateMutability": "nonpayable",
			"type": "function"
		},
		{
			"inputs": [
				{
					"internalType": "uint256",
					"name": "_newPrice",
					"type": "uint256"
				}
			],
			"name": "updateDailyPrice",
			"outputs": [],
			"stateMutability": "nonpayable",
			"type": "function"
		},
		{
			"inputs": [],
			"name": "update_LME_price",
			"outputs": [],
			"stateMutability": "nonpayable",
			"type": "function"
		},
		{
			"inputs": [],
			"name": "usdcOrders",
			"outputs": [
				{
					"internalType": "contract IUSDCorders",
					"name": "",
					"type": "address"
				}
			],
			"stateMutability": "view",
			"type": "function"
		},
		{
			"inputs": [],
			"name": "usdtOrders",
			"outputs": [
				{
					"internalType": "contract IUSDTorders",
					"name": "",
					"type": "address"
				}
			],
			"stateMutability": "view",
			"type": "function"
		},
		{
			"inputs": [],
			"name": "usdtPerEth",
			"outputs": [
				{
					"internalType": "uint256",
					"name": "",
					"type": "uint256"
				}
			],
			"stateMutability": "view",
			"type": "function"
		}
	]
}