{
	"data": {
		"bytecode": {
			"linkReferences": {},
			"object": "608060405234801561000f575f5ffd5b50604051806040016040528060098152602001684e69636b656c69756d60b81b815250604051806040016040528060038152602001621390d360ea1b815250816003908161005d919061015e565b50600461006a828261015e565b5050600160058190556006805460ff1990811690915560128054336001600160a01b03199182168117909255600c8054909116821790555f90815260076020526040812080549092169092179055601481905560135550610218565b634e487b7160e01b5f52604160045260245ffd5b600181811c908216806100ee57607f821691505b60208210810361010c57634e487b7160e01b5f52602260045260245ffd5b50919050565b601f82111561015957805f5260205f20601f840160051c810160208510156101375750805b601f840160051c820191505b81811015610156575f8155600101610143565b50505b505050565b81516001600160401b03811115610177576101776100c6565b61018b8161018584546100da565b84610112565b6020601f8211600181146101bd575f83156101a65750848201515b5f19600385901b1c1916600184901b178455610156565b5f84815260208120601f198516915b828110156101ec57878501518255602094850194600190920191016101cc565b508482101561020957868401515f19600387901b60f8161c191681555b50505050600190811b01905550565b613ca1806102255f395ff3fe608060405260043610610342575f3560e01c806371dc7725116101b1578063b2b44167116100ec578063db5544a61161008f578063db5544a61461096c578063dd62ed3e1461098b578063e9ce848d146109aa578063ebe4e82f146109c9578063ef81a99a146109dd578063f19e207e146109f0578063f7affbc014610a1e578063f851a44014610a3d57610342565b8063b2b441671461088a578063b54c23221461089e578063b7826af8146108bd578063c5026555146108dc578063d2873510146108fb578063d6f455f41461091a578063d763cd9a14610939578063da3e33971461094d57610342565b80638da5cb5b116101545780638da5cb5b146107a95780639519cfb8146107c857806395d89b41146107e757806399762734146107fb5780639ad8d6f71461081a5780639c5338a514610839578063a9059cbb14610858578063b29b83e21461087757610342565b806371dc7725146106e95780637536c1f3146107085780637b7f1c821461071b5780637eeef60a1461073a5780638456cb591461074f57806387ad8f87146107635780638c65a498146107825780638c6e76811461079657610342565b806340c10f1911610281578063539738dd11610224578063539738dd1461061c57806355b057fa1461063b5780635620d45a1461064e5780635c975abb1461066d5780636461f757146106845780636a6a07eb146106975780636cca424f146106b657806370a08231146106ca57610342565b806340c10f191461055b57806340f4aa811461057a57806342966c681461058f57806349e3bbe5146105ae5780634a3d72a1146105c15780634c3095a9146105e0578063505b304d146105f457806352519b3c1461060857610342565b80631eb7002a116102e95780631eb7002a1461049a57806323b872dd146104b95780632465af11146104d857806326aa02b8146104f95780632d121aca146104f9578063313ce56714610518578063352c9b99146105335780633f4ba83a1461054757610342565b806306fdde0314610379578063095ea7b3146103a35780630cf71579146103d25780631351cf51146103fe57806313af40351461041f57806318160ddd1461043e5780631a88f3061461045c5780631d2e4a2f1461047b575b60405134815233907f1e57e3bb474320be3d2c77138f75b7c3941292d647f5f9634e33a8e94e0e069b9060200160405180910390a2005b348015610384575f5ffd5b5061038d610a5c565b60405161039a9190613302565b60405180910390f35b3480156103ae575f5ffd5b506103c26103bd36600461334b565b610aec565b604051901515815260200161039a565b3480156103dd575f5ffd5b506015546103f1906001600160a01b031681565b60405161039a9190613375565b348015610409575f5ffd5b5061041d610418366004613396565b610b05565b005b34801561042a575f5ffd5b5061041d6104393660046133cd565b610b7c565b348015610449575f5ffd5b506002545b60405190815260200161039a565b348015610467575f5ffd5b5061041d61047636600461334b565b610bcc565b348015610486575f5ffd5b506016546103f1906001600160a01b031681565b3480156104a5575f5ffd5b5061041d6104b43660046133e8565b610cdd565b3480156104c4575f5ffd5b506103c26104d33660046133ff565b610f95565b3480156104e3575f5ffd5b506104ec610fb8565b60405161039a9190613465565b348015610504575f5ffd5b5061044e6105133660046133cd565b61102b565b348015610523575f5ffd5b506040516003815260200161039a565b34801561053e575f5ffd5b5061044e611035565b348015610552575f5ffd5b5061041d611298565b348015610566575f5ffd5b5061041d61057536600461334b565b6112e2565b348015610585575f5ffd5b5061044e60145481565b34801561059a575f5ffd5b5061041d6105a93660046133e8565b611447565b61041d6105bc366004613523565b611565565b3480156105cc575f5ffd5b506010546103f1906001600160a01b031681565b3480156105eb575f5ffd5b506104ec611739565b3480156105ff575f5ffd5b506104ec611780565b348015610613575f5ffd5b5061041d6117c7565b348015610627575f5ffd5b5061041d610636366004613523565b611836565b61041d610649366004613523565b611b45565b348015610659575f5ffd5b5061041d610668366004613523565b611bc3565b348015610678575f5ffd5b5060065460ff166103c2565b61041d610692366004613523565b611c3e565b3480156106a2575f5ffd5b5061041d6106b13660046133e8565b611d21565b3480156106c1575f5ffd5b506104ec611d9a565b3480156106d5575f5ffd5b5061044e6106e43660046133cd565b611de1565b3480156106f4575f5ffd5b50600f546103f1906001600160a01b031681565b61041d610716366004613523565b611dfb565b348015610726575f5ffd5b50600a546103f1906001600160a01b031681565b348015610745575f5ffd5b5061044e60135481565b34801561075a575f5ffd5b5061041d611e41565b34801561076e575f5ffd5b506009546103f1906001600160a01b031681565b34801561078d575f5ffd5b506104ec611e87565b61041d6107a4366004613523565b611ece565b3480156107b4575f5ffd5b506012546103f1906001600160a01b031681565b3480156107d3575f5ffd5b5061041d6107e2366004613523565b611f9a565b3480156107f2575f5ffd5b5061038d611fde565b348015610806575f5ffd5b50600b546103f1906001600160a01b031681565b348015610825575f5ffd5b5061041d610834366004613543565b611fed565b348015610844575f5ffd5b50600e546103f1906001600160a01b031681565b348015610863575f5ffd5b506103c261087236600461334b565b6120b4565b61041d610885366004613523565b6121a4565b348015610895575f5ffd5b5061041d612270565b3480156108a9575f5ffd5b5061041d6108b8366004613523565b612387565b3480156108c8575f5ffd5b506008546103f1906001600160a01b031681565b3480156108e7575f5ffd5b506018546103f1906001600160a01b031681565b348015610906575f5ffd5b50600d546103f1906001600160a01b031681565b348015610925575f5ffd5b5061041d6109343660046135e7565b6123cb565b348015610944575f5ffd5b5060145461044e565b348015610958575f5ffd5b506103c26109673660046133ff565b61246b565b348015610977575f5ffd5b506017546103f1906001600160a01b031681565b348015610996575f5ffd5b5061044e6109a5366004613654565b6124b6565b3480156109b5575f5ffd5b506019546103f1906001600160a01b031681565b3480156109d4575f5ffd5b506104ec6124e0565b61041d6109eb366004613523565b612527565b3480156109fb575f5ffd5b506103c2610a0a3660046133cd565b60076020525f908152604090205460ff1681565b348015610a29575f5ffd5b5061041d610a38366004613523565b61295f565b348015610a48575f5ffd5b50600c546103f1906001600160a01b031681565b606060038054610a6b90613680565b80601f0160208091040260200160405190810160405280929190818152602001828054610a9790613680565b8015610ae25780601f10610ab957610100808354040283529160200191610ae2565b820191905f5260205f20905b815481529060010190602001808311610ac557829003601f168201915b5050505050905090565b5f33610af9818585612ea6565b60019150505b92915050565b335f9081526007602052604090205460ff16610b3c5760405162461bcd60e51b8152600401610b33906136b8565b60405180910390fd5b610b44612eb8565b610b4c612ee2565b6001600160a01b0382165f908152600760205260409020805460ff191682151517905560016005555050565b5050565b335f9081526007602052604090205460ff16610baa5760405162461bcd60e51b8152600401610b33906136b8565b601280546001600160a01b0319166001600160a01b0392909216919091179055565b335f9081526007602052604090205460ff16610bfa5760405162461bcd60e51b8152600401610b33906136b8565b610c02612ee2565b610c0d308383612f28565b6010546001600160a01b031663e0b1cccb30610c2881611de1565b6040518363ffffffff1660e01b8152600401610c459291906136e0565b5f604051808303815f87803b158015610c5c575f5ffd5b505af1158015610c6e573d5f5f3e3d5ffd5b50506010546001600160a01b0316915063e0b1cccb905083610c8f81611de1565b6040518363ffffffff1660e01b8152600401610cac9291906136e0565b5f604051808303815f87803b158015610cc3575f5ffd5b505af1158015610cd5573d5f5f3e3d5ffd5b505050505050565b335f9081526007602052604090205460ff16610d0b5760405162461bcd60e51b8152600401610b33906136b8565b610d13612eb8565b610d1b612ee2565b610d2660058261370d565b15610d735760405162461bcd60e51b815260206004820152601d60248201527f416d6f756e74206d75737420626520646976697369626c6520627920350000006044820152606401610b33565b5f610d7f600583613734565b6015546040516303c30ae360e41b8152600481018390529192506001600160a01b031690633c30ae30906024015f604051808303815f87803b158015610dc3575f5ffd5b505af1158015610dd5573d5f5f3e3d5ffd5b50506016546040516303c30ae360e41b8152600481018590526001600160a01b039091169250633c30ae3091506024015f604051808303815f87803b158015610e1c575f5ffd5b505af1158015610e2e573d5f5f3e3d5ffd5b50506017546040516303c30ae360e41b8152600481018590526001600160a01b039091169250633c30ae3091506024015f604051808303815f87803b158015610e75575f5ffd5b505af1158015610e87573d5f5f3e3d5ffd5b50506018546040516303c30ae360e41b8152600481018590526001600160a01b039091169250633c30ae3091506024015f604051808303815f87803b158015610ece575f5ffd5b505af1158015610ee0573d5f5f3e3d5ffd5b50506019546040516303c30ae360e41b8152600481018590526001600160a01b039091169250633c30ae3091506024015f604051808303815f87803b158015610f27575f5ffd5b505af1158015610f39573d5f5f3e3d5ffd5b505050508160145f828254610f4e9190613747565b909155505f90506064610f63846103e861375a565b610f6d9190613734565b90508060135f828254610f809190613747565b9091555050600160055550610f929050565b50565b5f33610fa2858285612f85565b610fad858585612f28565b506001949350505050565b600f5460408051632465af1160e01b815290516060926001600160a01b031691632465af11916004808301925f9291908290030181865afa158015610fff573d5f5f3e3d5ffd5b505050506040513d5f823e601f3d908101601f19168201604052611026919081019061382c565b905090565b5f610aff82611de1565b60195460408051630957e63b60e41b815290515f926001600160a01b03169163957e63b09160048083019260209291908290030181865afa15801561107c573d5f5f3e3d5ffd5b505050506040513d601f19601f820116820180604052508101906110a09190613943565b60185f9054906101000a90046001600160a01b03166001600160a01b031663957e63b06040518163ffffffff1660e01b8152600401602060405180830381865afa1580156110f0573d5f5f3e3d5ffd5b505050506040513d601f19601f820116820180604052508101906111149190613943565b60175f9054906101000a90046001600160a01b03166001600160a01b031663957e63b06040518163ffffffff1660e01b8152600401602060405180830381865afa158015611164573d5f5f3e3d5ffd5b505050506040513d601f19601f820116820180604052508101906111889190613943565b60165f9054906101000a90046001600160a01b03166001600160a01b031663957e63b06040518163ffffffff1660e01b8152600401602060405180830381865afa1580156111d8573d5f5f3e3d5ffd5b505050506040513d601f19601f820116820180604052508101906111fc9190613943565b60155f9054906101000a90046001600160a01b03166001600160a01b031663957e63b06040518163ffffffff1660e01b8152600401602060405180830381865afa15801561124c573d5f5f3e3d5ffd5b505050506040513d601f19601f820116820180604052508101906112709190613943565b61127a9190613747565b6112849190613747565b61128e9190613747565b6110269190613747565b335f9081526007602052604090205460ff166112c65760405162461bcd60e51b8152600401610b33906136b8565b6112ce612eb8565b6112d6612fd6565b6112e06001600555565b565b335f9081526007602052604090205460ff166113105760405162461bcd60e51b8152600401610b33906136b8565b611318612eb8565b611320612ee2565b8060135410156113825760405162461bcd60e51b815260206004820152602760248201527f4e6f7420656e6f75676820756e69747320696e2073746f636b20746f206d696e6044820152667420636f696e7360c81b6064820152608401610b33565b8060135f828254611393919061395a565b909155505f90506103e86113a883606461375a565b6113b29190613734565b90508060145f8282546113c5919061395a565b909155508290506113d68482613022565b6010546001600160a01b031663e0b1cccb856113f181611de1565b6040518363ffffffff1660e01b815260040161140e9291906136e0565b5f604051808303815f87803b158015611425575f5ffd5b505af1158015611437573d5f5f3e3d5ffd5b505050505050610b786001600555565b61144f612eb8565b611457612ee2565b338161146282611de1565b10156114b05760405162461bcd60e51b815260206004820152601c60248201527f496e73756666696369656e742062616c616e636520746f206275726e000000006044820152606401610b33565b6114ba8183613056565b6010546001600160a01b031663e0b1cccb826114d581611de1565b6040518363ffffffff1660e01b81526004016114f29291906136e0565b5f604051808303815f87803b158015611509575f5ffd5b505af115801561151b573d5f5f3e3d5ffd5b505050505f6103e8836064611530919061375a565b61153a9190613734565b90508060145f82825461154d9190613747565b925050819055508260135f828254610f809190613747565b61156d612eb8565b611575612ee2565b5f6103e8611583838561375a565b61158d9190613734565b600d546040516370a0823160e01b81529192505f916001600160a01b03909116906370a08231906115c2903390600401613375565b602060405180830381865afa1580156115dd573d5f5f3e3d5ffd5b505050506040513d601f19601f820116820180604052508101906116019190613943565b90508181101561164f5760405162461bcd60e51b8152602060048201526019602482015278496e73756666696369656e7420555344432062616c616e636560381b6044820152606401610b33565b600d546009546040516323b872dd60e01b81526001600160a01b03928316926323b872dd9261168892339290911690879060040161396d565b6020604051808303815f875af11580156116a4573d5f5f3e3d5ffd5b505050506040513d601f19601f820116820180604052508101906116c89190613991565b5060085460405163a0aabd5760e01b81526001600160a01b039091169063a0aabd579034906116ff903390899089906004016139ac565b5f604051808303818588803b158015611716575f5ffd5b505af1158015611728573d5f5f3e3d5ffd5b50505050505050610b786001600555565b60095460408051634c3095a960e01b815290516060926001600160a01b031691634c3095a9916004808301925f9291908290030181865afa158015610fff573d5f5f3e3d5ffd5b600e546040805163505b304d60e01b815290516060926001600160a01b03169163505b304d916004808301925f9291908290030181865afa158015610fff573d5f5f3e3d5ffd5b6117cf612eb8565b600a546040516333bf357760e01b81526001600160a01b03909116906333bf3577906117ff903390600401613375565b5f604051808303815f87803b158015611816575f5ffd5b505af1158015611828573d5f5f3e3d5ffd5b505050506112e06001600555565b61183e612eb8565b611846612ee2565b600e546040805163505b304d60e01b815290515f926001600160a01b03169163505b304d91600480830192869291908290030181865afa15801561188c573d5f5f3e3d5ffd5b505050506040513d5f823e601f3d908101601f191682016040526118b3919081019061382c565b90505f5b8151811015611b3957838282815181106118d3576118d36139cd565b60200260200101515f015103611b3157336001600160a01b03168282815181106118ff576118ff6139cd565b6020026020010151602001516001600160a01b0316146119315760405162461bcd60e51b8152600401610b33906139e1565b5f828281518110611944576119446139cd565b60200260200101516060015190505f6103e882858581518110611969576119696139cd565b60200260200101516040015161197f919061375a565b6119899190613734565b90505f6103e8611999848861375a565b6119a39190613734565b905081811115611ac8575f6119b8838361395a565b600d54604051636eb1769f60e11b815291925082916001600160a01b039091169063dd62ed3e906119ef9033903090600401613a24565b602060405180830381865afa158015611a0a573d5f5f3e3d5ffd5b505050506040513d601f19601f82011682018060405250810190611a2e9190613943565b1015611a4c5760405162461bcd60e51b8152600401610b3390613a3e565b600d546009546040516323b872dd60e01b81526001600160a01b03928316926323b872dd92611a8592339290911690869060040161396d565b6020604051808303815f875af1158015611aa1573d5f5f3e3d5ffd5b505050506040513d601f19601f82011682018060405250810190611ac59190613991565b50505b600e54604051630512a7dd60e31b81526001600160a01b03909116906328953ee890611afc9033908b908b906004016139ac565b5f604051808303815f87803b158015611b13575f5ffd5b505af1158015611b25573d5f5f3e3d5ffd5b50505050505050611b39565b6001016118b7565b5050610b786001600555565b611b4d612eb8565b611b55612ee2565b600854604051637e7ccd8b60e11b81526001600160a01b039091169063fcf99b16903490611b8b903390879087906004016139ac565b5f604051808303818588803b158015611ba2575f5ffd5b505af1158015611bb4573d5f5f3e3d5ffd5b5050505050610b786001600555565b611bcb612eb8565b611bd3612ee2565b60095460405163f87825ef60e01b81526001600160a01b039091169063f87825ef90611c07903390869086906004016139ac565b5f604051808303815f87803b158015611c1e575f5ffd5b505af1158015611c30573d5f5f3e3d5ffd5b50505050610b786001600555565b611c46612eb8565b611c4e612ee2565b80611c5833611de1565b1015611c765760405162461bcd60e51b8152600401610b3390613a8a565b8082611c82828261375a565b611c8c9190613734565b14611ca95760405162461bcd60e51b8152600401610b3390613ad0565b5f611cb5333084610f95565b905080611cd45760405162461bcd60e51b8152600401610b3390613afc565b600854604051630ddc949760e21b81526001600160a01b0390911690633772525c903490611d0a903390889088906004016139ac565b5f604051808303818588803b158015611425575f5ffd5b611d29612eb8565b611d31612ee2565b600a546040516351272da360e11b81526001600160a01b039091169063a24e5b4690611d6390339085906004016136e0565b5f604051808303815f87803b158015611d7a575f5ffd5b505af1158015611d8c573d5f5f3e3d5ffd5b50505050610f926001600555565b600f5460408051636cca424f60e01b815290516060926001600160a01b031691636cca424f916004808301925f9291908290030181865afa158015610fff573d5f5f3e3d5ffd5b6001600160a01b03165f9081526020819052604090205490565b611e03612eb8565b611e0b612ee2565b6009546040516312e9f0bd60e21b81526001600160a01b0390911690634ba7c2f4903490611b8b903390879087906004016139ac565b611e49612ee2565b335f9081526007602052604090205460ff16611e775760405162461bcd60e51b8152600401610b33906136b8565b611e7f612eb8565b6112d661308a565b6009546040805163118cb49360e31b815290516060926001600160a01b031691638c65a498916004808301925f9291908290030181865afa158015610fff573d5f5f3e3d5ffd5b611ed6612eb8565b611ede612ee2565b80611ee833611de1565b1015611f065760405162461bcd60e51b8152600401610b3390613a8a565b8082611f12828261375a565b611f1c9190613734565b14611f395760405162461bcd60e51b8152600401610b3390613ad0565b5f611f45333084610f95565b905080611f645760405162461bcd60e51b8152600401610b3390613afc565b600854604051632d17f22d60e11b81526001600160a01b0390911690635a2fe45a903490611d0a903390889088906004016139ac565b611fa2612eb8565b611faa612ee2565b600f5460405163327ebc6560e01b81526001600160a01b039091169063327ebc6590611c07903390869086906004016139ac565b606060048054610a6b90613680565b335f9081526007602052604090205460ff1661201b5760405162461bcd60e51b8152600401610b33906136b8565b612023612eb8565b61202b612ee2565b600880546001600160a01b03199081166001600160a01b038b8116919091179092556009805482168a8416179055600a80548216898416179055600b80548216888416179055600d80548216878416179055600e80548216868416179055600f805482168584161790556010805490911691831691909117905560016005555050505050505050565b5f6120bd612ee2565b5f6120c884846130c7565b9050801561219d576010546001600160a01b031663e0b1cccb336120eb81611de1565b6040518363ffffffff1660e01b81526004016121089291906136e0565b5f604051808303815f87803b15801561211f575f5ffd5b505af1158015612131573d5f5f3e3d5ffd5b50506010546001600160a01b0316915063e0b1cccb90508561215281611de1565b6040518363ffffffff1660e01b815260040161216f9291906136e0565b5f604051808303815f87803b158015612186575f5ffd5b505af1158015612198573d5f5f3e3d5ffd5b505050505b9392505050565b6121ac612eb8565b6121b4612ee2565b806121be33611de1565b10156121dc5760405162461bcd60e51b8152600401610b3390613a8a565b80826121e8828261375a565b6121f29190613734565b1461220f5760405162461bcd60e51b8152600401610b3390613ad0565b5f61221b333084610f95565b90508061223a5760405162461bcd60e51b8152600401610b3390613afc565b60085460405163573dbde960e11b81526001600160a01b039091169063ae7b7bd2903490611d0a903390889088906004016139ac565b335f9081526007602052604090205460ff1661229e5760405162461bcd60e51b8152600401610b33906136b8565b6122a6612eb8565b6122ae612ee2565b5f5f60105f9054906101000a90046001600160a01b03166001600160a01b031663867e7c276040518163ffffffff1660e01b81526004015f60405180830381865afa1580156122ff573d5f5f3e3d5ffd5b505050506040513d5f823e601f3d908101601f191682016040526123269190810190613b90565b90925090505f5b825181101561237a5761237283828151811061234b5761234b6139cd565b6020026020010151838381518110612365576123656139cd565b60200260200101516112e2565b60010161232d565b5050506112e06001600555565b61238f612eb8565b612397612ee2565b600e5460405163a95767b960e01b81526001600160a01b039091169063a95767b990611c07903390869086906004016139ac565b335f9081526007602052604090205460ff166123f95760405162461bcd60e51b8152600401610b33906136b8565b612401612eb8565b612409612ee2565b601580546001600160a01b03199081166001600160a01b03888116919091179092556016805482168784161790556017805482168684161790556018805482168584161790556019805490911691831691909117905560016005555050505050565b335f9081526007602052604081205460ff166124995760405162461bcd60e51b8152600401610b33906136b8565b6124a1612ee2565b6124ac848484612ea6565b5060019392505050565b6001600160a01b039182165f90815260016020908152604080832093909416825291909152205490565b600e546040805163ebe4e82f60e01b815290516060926001600160a01b03169163ebe4e82f916004808301925f9291908290030181865afa158015610fff573d5f5f3e3d5ffd5b61252f612eb8565b612537612ee2565b5f6103e8612545838561375a565b61254f9190613734565b90505f600b5f9054906101000a90046001600160a01b03166001600160a01b031663dd644f726040518163ffffffff1660e01b8152600401602060405180830381865afa1580156125a2573d5f5f3e3d5ffd5b505050506040513d601f19601f820116820180604052508101906125c69190613943565b90505f600b5f9054906101000a90046001600160a01b03166001600160a01b031663353907146040518163ffffffff1660e01b8152600401602060405180830381865afa158015612619573d5f5f3e3d5ffd5b505050506040513d601f19601f8201168201806040525081019061263d9190613943565b9050825f83156126a7576126538461271061395a565b61265f8661271061375a565b6126699190613734565b9150612710612678858461375a565b6126829190613734565b90505f8311801561269257508281115b1561269a5750815b6126a48186613747565b91505b600b546040516370a0823160e01b815283916001600160a01b0316906370a08231906126d7903390600401613375565b602060405180830381865afa1580156126f2573d5f5f3e3d5ffd5b505050506040513d601f19601f820116820180604052508101906127169190613943565b101561275b5760405162461bcd60e51b8152602060048201526014602482015273496e73756666696369656e742062616c616e636560601b6044820152606401610b33565b600b54604051636eb1769f60e11b815283916001600160a01b03169063dd62ed3e9061278d9033903090600401613a24565b602060405180830381865afa1580156127a8573d5f5f3e3d5ffd5b505050506040513d601f19601f820116820180604052508101906127cc9190613943565b10156128135760405162461bcd60e51b8152602060048201526016602482015275496e73756666696369656e7420616c6c6f77616e636560501b6044820152606401610b33565b600b546009546040515f9283926001600160a01b03918216926323b872dd60e01b92612848923392911690899060240161396d565b60408051601f198184030181529181526020820180516001600160e01b03166001600160e01b03199094169390931790925290516128869190613c55565b5f604051808303815f865af19150503d805f81146128bf576040519150601f19603f3d011682016040523d82523d5f602084013e6128c4565b606091505b50915091508181906128e95760405162461bcd60e51b8152600401610b339190613302565b50600854604051639815005f60e01b81526001600160a01b0390911690639815005f9034906129209033908e908e906004016139ac565b5f604051808303818588803b158015612937575f5ffd5b505af1158015612949573d5f5f3e3d5ffd5b505050505050505050505050610b786001600555565b612967612eb8565b61296f612ee2565b600f5460408051632465af1160e01b815290515f926001600160a01b031691632465af1191600480830192869291908290030181865afa1580156129b5573d5f5f3e3d5ffd5b505050506040513d5f823e601f3d908101601f191682016040526129dc919081019061382c565b90505f5b8151811015611b3957838282815181106129fc576129fc6139cd565b60200260200101515f015103612e9e57336001600160a01b0316828281518110612a2857612a286139cd565b6020026020010151602001516001600160a01b031614612a5a5760405162461bcd60e51b8152600401610b33906139e1565b5f828281518110612a6d57612a6d6139cd565b60200260200101516060015190505f6103e882858581518110612a9257612a926139cd565b602002602001015160400151612aa8919061375a565b612ab29190613734565b90505f6103e8612ac2848861375a565b612acc9190613734565b905081811115612e6a575f80612ae2848461395a565b90505f600b5f9054906101000a90046001600160a01b03166001600160a01b031663dd644f726040518163ffffffff1660e01b8152600401602060405180830381865afa158015612b35573d5f5f3e3d5ffd5b505050506040513d601f19601f82011682018060405250810190612b599190613943565b90505f600b5f9054906101000a90046001600160a01b03166001600160a01b031663353907146040518163ffffffff1660e01b8152600401602060405180830381865afa158015612bac573d5f5f3e3d5ffd5b505050506040513d601f19601f82011682018060405250810190612bd09190613943565b90505f8215612c3d57612be58361271061395a565b612bf18561271061375a565b612bfb9190613734565b9450612710612c0a848761375a565b612c149190613734565b90505f82118015612c2457508181115b15612c2c5750805b612c368185613747565b9450612c41565b8394505b5050600b546040516370a0823160e01b81528493506001600160a01b0390911691506370a0823190612c77903390600401613375565b602060405180830381865afa158015612c92573d5f5f3e3d5ffd5b505050506040513d601f19601f82011682018060405250810190612cb69190613943565b1015612d005760405162461bcd60e51b8152602060048201526019602482015278496e73756666696369656e7420555344542062616c616e636560381b6044820152606401610b33565b600b54604051636eb1769f60e11b815282916001600160a01b03169063dd62ed3e90612d329033903090600401613a24565b602060405180830381865afa158015612d4d573d5f5f3e3d5ffd5b505050506040513d601f19601f82011682018060405250810190612d719190613943565b1015612d8f5760405162461bcd60e51b8152600401610b3390613a3e565b600b546009546040515f9283926001600160a01b03918216926323b872dd60e01b92612dc4923392911690889060240161396d565b60408051601f198184030181529181526020820180516001600160e01b03166001600160e01b0319909416939093179092529051612e029190613c55565b5f604051808303815f865af19150503d805f8114612e3b576040519150601f19603f3d011682016040523d82523d5f602084013e612e40565b606091505b5091509150818190612e655760405162461bcd60e51b8152600401610b339190613302565b505050505b600f5460405163e3d8141760e01b81526001600160a01b039091169063e3d8141790611afc9033908b908b906004016139ac565b6001016129e0565b612eb383838360016130d4565b505050565b600260055403612edb57604051633ee5aeb560e01b815260040160405180910390fd5b6002600555565b60065460ff16156112e05760405162461bcd60e51b815260206004820152601060248201526f14185d5cd8589b194e881c185d5cd95960821b6044820152606401610b33565b6001600160a01b038316612f51575f604051634b637e8f60e11b8152600401610b339190613375565b6001600160a01b038216612f7a575f60405163ec442f0560e01b8152600401610b339190613375565b612eb38383836131a6565b5f612f9084846124b6565b90505f19811015612fd05781811015612fc257828183604051637dc7a0d960e11b8152600401610b33939291906139ac565b612fd084848484035f6130d4565b50505050565b612fde6132b9565b6006805460ff191690557f5db9ee0a495bf2e6ff9c91a7834c1ba4fdd244a5e8aa4e537bd38aeae4b073aa335b6040516130189190613375565b60405180910390a1565b6001600160a01b03821661304b575f60405163ec442f0560e01b8152600401610b339190613375565b610b785f83836131a6565b6001600160a01b03821661307f575f604051634b637e8f60e11b8152600401610b339190613375565b610b78825f836131a6565b613092612ee2565b6006805460ff191660011790557f62e78cea01bee320cd4e420270b5ea74000d11b0c9f74754ebdbfc544b05a25861300b3390565b5f33610af9818585612f28565b6001600160a01b0384166130fd575f60405163e602df0560e01b8152600401610b339190613375565b6001600160a01b038316613126575f604051634a1406b160e11b8152600401610b339190613375565b6001600160a01b038085165f9081526001602090815260408083209387168352929052208290558015612fd057826001600160a01b0316846001600160a01b03167f8c5be1e5ebec7d5bd14f71427d1e84f3dd0314c0f7b2291e5b200ac8c7c3b9258460405161319891815260200190565b60405180910390a350505050565b6001600160a01b0383166131d0578060025f8282546131c59190613747565b9091555061322d9050565b6001600160a01b0383165f908152602081905260409020548181101561320f5783818360405163391434e360e21b8152600401610b33939291906139ac565b6001600160a01b0384165f9081526020819052604090209082900390555b6001600160a01b03821661324957600280548290039055613267565b6001600160a01b0382165f9081526020819052604090208054820190555b816001600160a01b0316836001600160a01b03167fddf252ad1be2c89b69c2b068fc378daa952ba7f163c4a11628f55a4df523b3ef836040516132ac91815260200190565b60405180910390a3505050565b60065460ff166112e05760405162461bcd60e51b815260206004820152601460248201527314185d5cd8589b194e881b9bdd081c185d5cd95960621b6044820152606401610b33565b602081525f82518060208401528060208501604085015e5f604082850101526040601f19601f83011684010191505092915050565b6001600160a01b0381168114610f92575f5ffd5b5f5f6040838503121561335c575f5ffd5b823561336781613337565b946020939093013593505050565b6001600160a01b0391909116815260200190565b8015158114610f92575f5ffd5b5f5f604083850312156133a7575f5ffd5b82356133b281613337565b915060208301356133c281613389565b809150509250929050565b5f602082840312156133dd575f5ffd5b813561219d81613337565b5f602082840312156133f8575f5ffd5b5035919050565b5f5f5f60608486031215613411575f5ffd5b833561341c81613337565b9250602084013561342c81613337565b929592945050506040919091013590565b634e487b7160e01b5f52602160045260245ffd5b600381106134615761346161343d565b9052565b602080825282518282018190525f918401906040840190835b818110156135185783518051845260018060a01b03602082015116602085015260408101516040850152606081015160608501526080810151608085015260a0810151600181106134d1576134d161343d565b8060a08601525060c08101516134ea60c0860182613451565b5060e0810151905061350060e085018215159052565b5060209390930192610100929092019160010161347e565b509095945050505050565b5f5f60408385031215613534575f5ffd5b50508035926020909101359150565b5f5f5f5f5f5f5f5f610100898b03121561355b575f5ffd5b883561356681613337565b9750602089013561357681613337565b9650604089013561358681613337565b9550606089013561359681613337565b945060808901356135a681613337565b935060a08901356135b681613337565b925060c08901356135c681613337565b915060e08901356135d681613337565b809150509295985092959890939650565b5f5f5f5f5f60a086880312156135fb575f5ffd5b853561360681613337565b9450602086013561361681613337565b9350604086013561362681613337565b9250606086013561363681613337565b9150608086013561364681613337565b809150509295509295909350565b5f5f60408385031215613665575f5ffd5b823561367081613337565b915060208301356133c281613337565b600181811c9082168061369457607f821691505b6020821081036136b257634e487b7160e01b5f52602260045260245ffd5b50919050565b6020808252600e908201526d139bdd08185d5d1a1bdc9a5e995960921b604082015260600190565b6001600160a01b03929092168252602082015260400190565b634e487b7160e01b5f52601260045260245ffd5b5f8261371b5761371b6136f9565b500690565b634e487b7160e01b5f52601160045260245ffd5b5f82613742576137426136f9565b500490565b80820180821115610aff57610aff613720565b8082028115828204841417610aff57610aff613720565b634e487b7160e01b5f52604160045260245ffd5b60405161010081016001600160401b03811182821017156137a8576137a8613771565b60405290565b604051601f8201601f191681016001600160401b03811182821017156137d6576137d6613771565b604052919050565b5f6001600160401b038211156137f6576137f6613771565b5060051b60200190565b80516001811061380e575f5ffd5b919050565b80516003811061380e575f5ffd5b805161380e81613389565b5f6020828403121561383c575f5ffd5b81516001600160401b03811115613851575f5ffd5b8201601f81018413613861575f5ffd5b805161387461386f826137de565b6137ae565b8082825260208201915060208360081b850101925086831115613895575f5ffd5b6020840193505b828410156139395761010084880312156138b4575f5ffd5b6138bc613785565b8451815260208501516138ce81613337565b60208201526040858101519082015260608086015190820152608080860151908201526138fd60a08601613800565b60a082015261390e60c08601613813565b60c082015261391f60e08601613821565b60e08201528252610100939093019260209091019061389c565b9695505050505050565b5f60208284031215613953575f5ffd5b5051919050565b81810381811115610aff57610aff613720565b6001600160a01b039384168152919092166020820152604081019190915260600190565b5f602082840312156139a1575f5ffd5b815161219d81613389565b6001600160a01b039390931683526020830191909152604082015260600190565b634e487b7160e01b5f52603260045260245ffd5b60208082526023908201527f4f6e6c7920746865206f776e65722063616e206368616e67652074686520707260408201526269636560e81b606082015260800190565b6001600160a01b0392831681529116602082015260400190565b6020808252602c908201527f496e73756666696369656e74205553445420616c6c6f77616e636520666f722060408201526b7072696365206368616e676560a01b606082015260800190565b60208082526026908201527f496e73756666696369656e742062616c616e636520666f7220746865206f70656040820152653930ba34b7b760d11b606082015260800190565b602080825260129082015271506f74656e7469616c206f766572666c6f7760701b604082015260600190565b602080825260159082015274151bdad95b881d1c985b9cd9995c8819985a5b1959605a1b604082015260600190565b5f82601f830112613b3a575f5ffd5b8151613b4861386f826137de565b8082825260208201915060208360051b860101925085831115613b69575f5ffd5b602085015b83811015613b86578051835260209283019201613b6e565b5095945050505050565b5f5f60408385031215613ba1575f5ffd5b82516001600160401b03811115613bb6575f5ffd5b8301601f81018513613bc6575f5ffd5b8051613bd461386f826137de565b8082825260208201915060208360051b850101925087831115613bf5575f5ffd5b6020840193505b82841015613c20578351613c0f81613337565b825260209384019390910190613bfc565b8095505050505060208301516001600160401b03811115613c3f575f5ffd5b613c4b85828601613b2b565b9150509250929050565b5f82518060208501845e5f92019182525091905056fea264697066735822122041198b4066a030807cb21aff8f40aad1b6f19fc1beb838922c736ee70a81886164736f6c634300081e0033",
			"opcodes": "PUSH1 0x80 PUSH1 0x40 MSTORE CALLVALUE DUP1 ISZERO PUSH2 0xF JUMPI PUSH0 PUSH0 REVERT JUMPDEST POP PUSH1 0x40 MLOAD DUP1 PUSH1 0x40 ADD PUSH1 0x40 MSTORE DUP1 PUSH1 0x9 DUP2 MSTORE PUSH1 0x20 ADD PUSH9 0x4E69636B656C69756D PUSH1 0xB8 SHL DUP2 MSTORE POP PUSH1 0x40 MLOAD DUP1 PUSH1 0x40 ADD PUSH1 0x40 MSTORE DUP1 PUSH1 0x3 DUP2 MSTORE PUSH1 0x20 ADD PUSH3 0x1390D3 PUSH1 0xEA SHL DUP2 MSTORE POP DUP2 PUSH1 0x3 SWAP1 DUP2 PUSH2 0x5D SWAP2 SWAP1 PUSH2 0x15E JUMP JUMPDEST POP PUSH1 0x4 PUSH2 0x6A DUP3 DUP3 PUSH2 0x15E JUMP JUMPDEST POP POP PUSH1 0x1 PUSH1 0x5 DUP2 SWAP1 SSTORE PUSH1 0x6 DUP1 SLOAD PUSH1 0xFF NOT SWAP1 DUP2 AND SWAP1 SWAP2 SSTORE PUSH1 0x12 DUP1 SLOAD CALLER PUSH1 0x1 PUSH1 0x1 PUSH1 0xA0 SHL SUB NOT SWAP2 DUP3 AND DUP2 OR SWAP1 SWAP3 SSTORE PUSH1 0xC DUP1 SLOAD SWAP1 SWAP2 AND DUP3 OR SWAP1 SSTORE PUSH0 SWAP1 DUP2 MSTORE PUSH1 0x7 PUSH1 0x20 MSTORE PUSH1 0x40 DUP2 KECCAK256 DUP1 SLOAD SWAP1 SWAP3 AND SWAP1 SWAP3 OR SWAP1 SSTORE PUSH1 0x14 DUP2 SWAP1 SSTORE PUSH1 0x13 SSTORE POP PUSH2 0x218 JUMP JUMPDEST PUSH4 0x4E487B71 PUSH1 0xE0 SHL PUSH0 MSTORE PUSH1 0x41 PUSH1 0x4 MSTORE PUSH1 0x24 PUSH0 REVERT JUMPDEST PUSH1 0x1 DUP2 DUP2 SHR SWAP1 DUP3 AND DUP1 PUSH2 0xEE JUMPI PUSH1 0x7F DUP3 AND SWAP2 POP JUMPDEST PUSH1 0x20 DUP3 LT DUP2 SUB PUSH2 0x10C JUMPI PUSH4 0x4E487B71 PUSH1 0xE0 SHL PUSH0 MSTORE PUSH1 0x22 PUSH1 0x4 MSTORE PUSH1 0x24 PUSH0 REVERT JUMPDEST POP SWAP2 SWAP1 POP JUMP JUMPDEST PUSH1 0x1F DUP3 GT ISZERO PUSH2 0x159 JUMPI DUP1 PUSH0 MSTORE PUSH1 0x20 PUSH0 KECCAK256 PUSH1 0x1F DUP5 ADD PUSH1 0x5 SHR DUP2 ADD PUSH1 0x20 DUP6 LT ISZERO PUSH2 0x137 JUMPI POP DUP1 JUMPDEST PUSH1 0x1F DUP5 ADD PUSH1 0x5 SHR DUP3 ADD SWAP2 POP JUMPDEST DUP2 DUP2 LT ISZERO PUSH2 0x156 JUMPI PUSH0 DUP2 SSTORE PUSH1 0x1 ADD PUSH2 0x143 JUMP JUMPDEST POP POP JUMPDEST POP POP POP JUMP JUMPDEST DUP2 MLOAD PUSH1 0x1 PUSH1 0x1 PUSH1 0x40 SHL SUB DUP2 GT ISZERO PUSH2 0x177 JUMPI PUSH2 0x177 PUSH2 0xC6 JUMP JUMPDEST PUSH2 0x18B DUP2 PUSH2 0x185 DUP5 SLOAD PUSH2 0xDA JUMP JUMPDEST DUP5 PUSH2 0x112 JUMP JUMPDEST PUSH1 0x20 PUSH1 0x1F DUP3 GT PUSH1 0x1 DUP2 EQ PUSH2 0x1BD JUMPI PUSH0 DUP4 ISZERO PUSH2 0x1A6 JUMPI POP DUP5 DUP3 ADD MLOAD JUMPDEST PUSH0 NOT PUSH1 0x3 DUP6 SWAP1 SHL SHR NOT AND PUSH1 0x1 DUP5 SWAP1 SHL OR DUP5 SSTORE PUSH2 0x156 JUMP JUMPDEST PUSH0 DUP5 DUP2 MSTORE PUSH1 0x20 DUP2 KECCAK256 PUSH1 0x1F NOT DUP6 AND SWAP2 JUMPDEST DUP3 DUP2 LT ISZERO PUSH2 0x1EC JUMPI DUP8 DUP6 ADD MLOAD DUP3 SSTORE PUSH1 0x20 SWAP5 DUP6 ADD SWAP5 PUSH1 0x1 SWAP1 SWAP3 ADD SWAP2 ADD PUSH2 0x1CC JUMP JUMPDEST POP DUP5 DUP3 LT ISZERO PUSH2 0x209 JUMPI DUP7 DUP5 ADD MLOAD PUSH0 NOT PUSH1 0x3 DUP8 SWAP1 SHL PUSH1 0xF8 AND SHR NOT AND DUP2 SSTORE JUMPDEST POP POP POP POP PUSH1 0x1 SWAP1 DUP2 SHL ADD SWAP1 SSTORE POP JUMP JUMPDEST PUSH2 0x3CA1 DUP1 PUSH2 0x225 PUSH0 CODECOPY PUSH0 RETURN INVALID PUSH1 0x80 PUSH1 0x40 MSTORE PUSH1 0x4 CALLDATASIZE LT PUSH2 0x342 JUMPI PUSH0 CALLDATALOAD PUSH1 0xE0 SHR DUP1 PUSH4 0x71DC7725 GT PUSH2 0x1B1 JUMPI DUP1 PUSH4 0xB2B44167 GT PUSH2 0xEC JUMPI DUP1 PUSH4 0xDB5544A6 GT PUSH2 0x8F JUMPI DUP1 PUSH4 0xDB5544A6 EQ PUSH2 0x96C JUMPI DUP1 PUSH4 0xDD62ED3E EQ PUSH2 0x98B JUMPI DUP1 PUSH4 0xE9CE848D EQ PUSH2 0x9AA JUMPI DUP1 PUSH4 0xEBE4E82F EQ PUSH2 0x9C9 JUMPI DUP1 PUSH4 0xEF81A99A EQ PUSH2 0x9DD JUMPI DUP1 PUSH4 0xF19E207E EQ PUSH2 0x9F0 JUMPI DUP1 PUSH4 0xF7AFFBC0 EQ PUSH2 0xA1E JUMPI DUP1 PUSH4 0xF851A440 EQ PUSH2 0xA3D JUMPI PUSH2 0x342 JUMP JUMPDEST DUP1 PUSH4 0xB2B44167 EQ PUSH2 0x88A JUMPI DUP1 PUSH4 0xB54C2322 EQ PUSH2 0x89E JUMPI DUP1 PUSH4 0xB7826AF8 EQ PUSH2 0x8BD JUMPI DUP1 PUSH4 0xC5026555 EQ PUSH2 0x8DC JUMPI DUP1 PUSH4 0xD2873510 EQ PUSH2 0x8FB JUMPI DUP1 PUSH4 0xD6F455F4 EQ PUSH2 0x91A JUMPI DUP1 PUSH4 0xD763CD9A EQ PUSH2 0x939 JUMPI DUP1 PUSH4 0xDA3E3397 EQ PUSH2 0x94D JUMPI PUSH2 0x342 JUMP JUMPDEST DUP1 PUSH4 0x8DA5CB5B GT PUSH2 0x154 JUMPI DUP1 PUSH4 0x8DA5CB5B EQ PUSH2 0x7A9 JUMPI DUP1 PUSH4 0x9519CFB8 EQ PUSH2 0x7C8 JUMPI DUP1 PUSH4 0x95D89B41 EQ PUSH2 0x7E7 JUMPI DUP1 PUSH4 0x99762734 EQ PUSH2 0x7FB JUMPI DUP1 PUSH4 0x9AD8D6F7 EQ PUSH2 0x81A JUMPI DUP1 PUSH4 0x9C5338A5 EQ PUSH2 0x839 JUMPI DUP1 PUSH4 0xA9059CBB EQ PUSH2 0x858 JUMPI DUP1 PUSH4 0xB29B83E2 EQ PUSH2 0x877 JUMPI PUSH2 0x342 JUMP JUMPDEST DUP1 PUSH4 0x71DC7725 EQ PUSH2 0x6E9 JUMPI DUP1 PUSH4 0x7536C1F3 EQ PUSH2 0x708 JUMPI DUP1 PUSH4 0x7B7F1C82 EQ PUSH2 0x71B JUMPI DUP1 PUSH4 0x7EEEF60A EQ PUSH2 0x73A JUMPI DUP1 PUSH4 0x8456CB59 EQ PUSH2 0x74F JUMPI DUP1 PUSH4 0x87AD8F87 EQ PUSH2 0x763 JUMPI DUP1 PUSH4 0x8C65A498 EQ PUSH2 0x782 JUMPI DUP1 PUSH4 0x8C6E7681 EQ PUSH2 0x796 JUMPI PUSH2 0x342 JUMP JUMPDEST DUP1 PUSH4 0x40C10F19 GT PUSH2 0x281 JUMPI DUP1 PUSH4 0x539738DD GT PUSH2 0x224 JUMPI DUP1 PUSH4 0x539738DD EQ PUSH2 0x61C JUMPI DUP1 PUSH4 0x55B057FA EQ PUSH2 0x63B JUMPI DUP1 PUSH4 0x5620D45A EQ PUSH2 0x64E JUMPI DUP1 PUSH4 0x5C975ABB EQ PUSH2 0x66D JUMPI DUP1 PUSH4 0x6461F757 EQ PUSH2 0x684 JUMPI DUP1 PUSH4 0x6A6A07EB EQ PUSH2 0x697 JUMPI DUP1 PUSH4 0x6CCA424F EQ PUSH2 0x6B6 JUMPI DUP1 PUSH4 0x70A08231 EQ PUSH2 0x6CA JUMPI PUSH2 0x342 JUMP JUMPDEST DUP1 PUSH4 0x40C10F19 EQ PUSH2 0x55B JUMPI DUP1 PUSH4 0x40F4AA81 EQ PUSH2 0x57A JUMPI DUP1 PUSH4 0x42966C68 EQ PUSH2 0x58F JUMPI DUP1 PUSH4 0x49E3BBE5 EQ PUSH2 0x5AE JUMPI DUP1 PUSH4 0x4A3D72A1 EQ PUSH2 0x5C1 JUMPI DUP1 PUSH4 0x4C3095A9 EQ PUSH2 0x5E0 JUMPI DUP1 PUSH4 0x505B304D EQ PUSH2 0x5F4 JUMPI DUP1 PUSH4 0x52519B3C EQ PUSH2 0x608 JUMPI PUSH2 0x342 JUMP JUMPDEST DUP1 PUSH4 0x1EB7002A GT PUSH2 0x2E9 JUMPI DUP1 PUSH4 0x1EB7002A EQ PUSH2 0x49A JUMPI DUP1 PUSH4 0x23B872DD EQ PUSH2 0x4B9 JUMPI DUP1 PUSH4 0x2465AF11 EQ PUSH2 0x4D8 JUMPI DUP1 PUSH4 0x26AA02B8 EQ PUSH2 0x4F9 JUMPI DUP1 PUSH4 0x2D121ACA EQ PUSH2 0x4F9 JUMPI DUP1 PUSH4 0x313CE567 EQ PUSH2 0x518 JUMPI DUP1 PUSH4 0x352C9B99 EQ PUSH2 0x533 JUMPI DUP1 PUSH4 0x3F4BA83A EQ PUSH2 0x547 JUMPI PUSH2 0x342 JUMP JUMPDEST DUP1 PUSH4 0x6FDDE03 EQ PUSH2 0x379 JUMPI DUP1 PUSH4 0x95EA7B3 EQ PUSH2 0x3A3 JUMPI DUP1 PUSH4 0xCF71579 EQ PUSH2 0x3D2 JUMPI DUP1 PUSH4 0x1351CF51 EQ PUSH2 0x3FE JUMPI DUP1 PUSH4 0x13AF4035 EQ PUSH2 0x41F JUMPI DUP1 PUSH4 0x18160DDD EQ PUSH2 0x43E JUMPI DUP1 PUSH4 0x1A88F306 EQ PUSH2 0x45C JUMPI DUP1 PUSH4 0x1D2E4A2F EQ PUSH2 0x47B JUMPI JUMPDEST PUSH1 0x40 MLOAD CALLVALUE DUP2 MSTORE CALLER SWAP1 PUSH32 0x1E57E3BB474320BE3D2C77138F75B7C3941292D647F5F9634E33A8E94E0E069B SWAP1 PUSH1 0x20 ADD PUSH1 0x40 MLOAD DUP1 SWAP2 SUB SWAP1 LOG2 STOP JUMPDEST CALLVALUE DUP1 ISZERO PUSH2 0x384 JUMPI PUSH0 PUSH0 REVERT JUMPDEST POP PUSH2 0x38D PUSH2 0xA5C JUMP JUMPDEST PUSH1 0x40 MLOAD PUSH2 0x39A SWAP2 SWAP1 PUSH2 0x3302 JUMP JUMPDEST PUSH1 0x40 MLOAD DUP1 SWAP2 SUB SWAP1 RETURN JUMPDEST CALLVALUE DUP1 ISZERO PUSH2 0x3AE JUMPI PUSH0 PUSH0 REVERT JUMPDEST POP PUSH2 0x3C2 PUSH2 0x3BD CALLDATASIZE PUSH1 0x4 PUSH2 0x334B JUMP JUMPDEST PUSH2 0xAEC JUMP JUMPDEST PUSH1 0x40 MLOAD SWAP1 ISZERO ISZERO DUP2 MSTORE PUSH1 0x20 ADD PUSH2 0x39A JUMP JUMPDEST CALLVALUE DUP1 ISZERO PUSH2 0x3DD JUMPI PUSH0 PUSH0 REVERT JUMPDEST POP PUSH1 0x15 SLOAD PUSH2 0x3F1 SWAP1 PUSH1 0x1 PUSH1 0x1 PUSH1 0xA0 SHL SUB AND DUP2 JUMP JUMPDEST PUSH1 0x40 MLOAD PUSH2 0x39A SWAP2 SWAP1 PUSH2 0x3375 JUMP JUMPDEST CALLVALUE DUP1 ISZERO PUSH2 0x409 JUMPI PUSH0 PUSH0 REVERT JUMPDEST POP PUSH2 0x41D PUSH2 0x418 CALLDATASIZE PUSH1 0x4 PUSH2 0x3396 JUMP JUMPDEST PUSH2 0xB05 JUMP JUMPDEST STOP JUMPDEST CALLVALUE DUP1 ISZERO PUSH2 0x42A JUMPI PUSH0 PUSH0 REVERT JUMPDEST POP PUSH2 0x41D PUSH2 0x439 CALLDATASIZE PUSH1 0x4 PUSH2 0x33CD JUMP JUMPDEST PUSH2 0xB7C JUMP JUMPDEST CALLVALUE DUP1 ISZERO PUSH2 0x449 JUMPI PUSH0 PUSH0 REVERT JUMPDEST POP PUSH1 0x2 SLOAD JUMPDEST PUSH1 0x40 MLOAD SWAP1 DUP2 MSTORE PUSH1 0x20 ADD PUSH2 0x39A JUMP JUMPDEST CALLVALUE DUP1 ISZERO PUSH2 0x467 JUMPI PUSH0 PUSH0 REVERT JUMPDEST POP PUSH2 0x41D PUSH2 0x476 CALLDATASIZE PUSH1 0x4 PUSH2 0x334B JUMP JUMPDEST PUSH2 0xBCC JUMP JUMPDEST CALLVALUE DUP1 ISZERO PUSH2 0x486 JUMPI PUSH0 PUSH0 REVERT JUMPDEST POP PUSH1 0x16 SLOAD PUSH2 0x3F1 SWAP1 PUSH1 0x1 PUSH1 0x1 PUSH1 0xA0 SHL SUB AND DUP2 JUMP JUMPDEST CALLVALUE DUP1 ISZERO PUSH2 0x4A5 JUMPI PUSH0 PUSH0 REVERT JUMPDEST POP PUSH2 0x41D PUSH2 0x4B4 CALLDATASIZE PUSH1 0x4 PUSH2 0x33E8 JUMP JUMPDEST PUSH2 0xCDD JUMP JUMPDEST CALLVALUE DUP1 ISZERO PUSH2 0x4C4 JUMPI PUSH0 PUSH0 REVERT JUMPDEST POP PUSH2 0x3C2 PUSH2 0x4D3 CALLDATASIZE PUSH1 0x4 PUSH2 0x33FF JUMP JUMPDEST PUSH2 0xF95 JUMP JUMPDEST CALLVALUE DUP1 ISZERO PUSH2 0x4E3 JUMPI PUSH0 PUSH0 REVERT JUMPDEST POP PUSH2 0x4EC PUSH2 0xFB8 JUMP JUMPDEST PUSH1 0x40 MLOAD PUSH2 0x39A SWAP2 SWAP1 PUSH2 0x3465 JUMP JUMPDEST CALLVALUE DUP1 ISZERO PUSH2 0x504 JUMPI PUSH0 PUSH0 REVERT JUMPDEST POP PUSH2 0x44E PUSH2 0x513 CALLDATASIZE PUSH1 0x4 PUSH2 0x33CD JUMP JUMPDEST PUSH2 0x102B JUMP JUMPDEST CALLVALUE DUP1 ISZERO PUSH2 0x523 JUMPI PUSH0 PUSH0 REVERT JUMPDEST POP PUSH1 0x40 MLOAD PUSH1 0x3 DUP2 MSTORE PUSH1 0x20 ADD PUSH2 0x39A JUMP JUMPDEST CALLVALUE DUP1 ISZERO PUSH2 0x53E JUMPI PUSH0 PUSH0 REVERT JUMPDEST POP PUSH2 0x44E PUSH2 0x1035 JUMP JUMPDEST CALLVALUE DUP1 ISZERO PUSH2 0x552 JUMPI PUSH0 PUSH0 REVERT JUMPDEST POP PUSH2 0x41D PUSH2 0x1298 JUMP JUMPDEST CALLVALUE DUP1 ISZERO PUSH2 0x566 JUMPI PUSH0 PUSH0 REVERT JUMPDEST POP PUSH2 0x41D PUSH2 0x575 CALLDATASIZE PUSH1 0x4 PUSH2 0x334B JUMP JUMPDEST PUSH2 0x12E2 JUMP JUMPDEST CALLVALUE DUP1 ISZERO PUSH2 0x585 JUMPI PUSH0 PUSH0 REVERT JUMPDEST POP PUSH2 0x44E PUSH1 0x14 SLOAD DUP2 JUMP JUMPDEST CALLVALUE DUP1 ISZERO PUSH2 0x59A JUMPI PUSH0 PUSH0 REVERT JUMPDEST POP PUSH2 0x41D PUSH2 0x5A9 CALLDATASIZE PUSH1 0x4 PUSH2 0x33E8 JUMP JUMPDEST PUSH2 0x1447 JUMP JUMPDEST PUSH2 0x41D PUSH2 0x5BC CALLDATASIZE PUSH1 0x4 PUSH2 0x3523 JUMP JUMPDEST PUSH2 0x1565 JUMP JUMPDEST CALLVALUE DUP1 ISZERO PUSH2 0x5CC JUMPI PUSH0 PUSH0 REVERT JUMPDEST POP PUSH1 0x10 SLOAD PUSH2 0x3F1 SWAP1 PUSH1 0x1 PUSH1 0x1 PUSH1 0xA0 SHL SUB AND DUP2 JUMP JUMPDEST CALLVALUE DUP1 ISZERO PUSH2 0x5EB JUMPI PUSH0 PUSH0 REVERT JUMPDEST POP PUSH2 0x4EC PUSH2 0x1739 JUMP JUMPDEST CALLVALUE DUP1 ISZERO PUSH2 0x5FF JUMPI PUSH0 PUSH0 REVERT JUMPDEST POP PUSH2 0x4EC PUSH2 0x1780 JUMP JUMPDEST CALLVALUE DUP1 ISZERO PUSH2 0x613 JUMPI PUSH0 PUSH0 REVERT JUMPDEST POP PUSH2 0x41D PUSH2 0x17C7 JUMP JUMPDEST CALLVALUE DUP1 ISZERO PUSH2 0x627 JUMPI PUSH0 PUSH0 REVERT JUMPDEST POP PUSH2 0x41D PUSH2 0x636 CALLDATASIZE PUSH1 0x4 PUSH2 0x3523 JUMP JUMPDEST PUSH2 0x1836 JUMP JUMPDEST PUSH2 0x41D PUSH2 0x649 CALLDATASIZE PUSH1 0x4 PUSH2 0x3523 JUMP JUMPDEST PUSH2 0x1B45 JUMP JUMPDEST CALLVALUE DUP1 ISZERO PUSH2 0x659 JUMPI PUSH0 PUSH0 REVERT JUMPDEST POP PUSH2 0x41D PUSH2 0x668 CALLDATASIZE PUSH1 0x4 PUSH2 0x3523 JUMP JUMPDEST PUSH2 0x1BC3 JUMP JUMPDEST CALLVALUE DUP1 ISZERO PUSH2 0x678 JUMPI PUSH0 PUSH0 REVERT JUMPDEST POP PUSH1 0x6 SLOAD PUSH1 0xFF AND PUSH2 0x3C2 JUMP JUMPDEST PUSH2 0x41D PUSH2 0x692 CALLDATASIZE PUSH1 0x4 PUSH2 0x3523 JUMP JUMPDEST PUSH2 0x1C3E JUMP JUMPDEST CALLVALUE DUP1 ISZERO PUSH2 0x6A2 JUMPI PUSH0 PUSH0 REVERT JUMPDEST POP PUSH2 0x41D PUSH2 0x6B1 CALLDATASIZE PUSH1 0x4 PUSH2 0x33E8 JUMP JUMPDEST PUSH2 0x1D21 JUMP JUMPDEST CALLVALUE DUP1 ISZERO PUSH2 0x6C1 JUMPI PUSH0 PUSH0 REVERT JUMPDEST POP PUSH2 0x4EC PUSH2 0x1D9A JUMP JUMPDEST CALLVALUE DUP1 ISZERO PUSH2 0x6D5 JUMPI PUSH0 PUSH0 REVERT JUMPDEST POP PUSH2 0x44E PUSH2 0x6E4 CALLDATASIZE PUSH1 0x4 PUSH2 0x33CD JUMP JUMPDEST PUSH2 0x1DE1 JUMP JUMPDEST CALLVALUE DUP1 ISZERO PUSH2 0x6F4 JUMPI PUSH0 PUSH0 REVERT JUMPDEST POP PUSH1 0xF SLOAD PUSH2 0x3F1 SWAP1 PUSH1 0x1 PUSH1 0x1 PUSH1 0xA0 SHL SUB AND DUP2 JUMP JUMPDEST PUSH2 0x41D PUSH2 0x716 CALLDATASIZE PUSH1 0x4 PUSH2 0x3523 JUMP JUMPDEST PUSH2 0x1DFB JUMP JUMPDEST CALLVALUE DUP1 ISZERO PUSH2 0x726 JUMPI PUSH0 PUSH0 REVERT JUMPDEST POP PUSH1 0xA SLOAD PUSH2 0x3F1 SWAP1 PUSH1 0x1 PUSH1 0x1 PUSH1 0xA0 SHL SUB AND DUP2 JUMP JUMPDEST CALLVALUE DUP1 ISZERO PUSH2 0x745 JUMPI PUSH0 PUSH0 REVERT JUMPDEST POP PUSH2 0x44E PUSH1 0x13 SLOAD DUP2 JUMP JUMPDEST CALLVALUE DUP1 ISZERO PUSH2 0x75A JUMPI PUSH0 PUSH0 REVERT JUMPDEST POP PUSH2 0x41D PUSH2 0x1E41 JUMP JUMPDEST CALLVALUE DUP1 ISZERO PUSH2 0x76E JUMPI PUSH0 PUSH0 REVERT JUMPDEST POP PUSH1 0x9 SLOAD PUSH2 0x3F1 SWAP1 PUSH1 0x1 PUSH1 0x1 PUSH1 0xA0 SHL SUB AND DUP2 JUMP JUMPDEST CALLVALUE DUP1 ISZERO PUSH2 0x78D JUMPI PUSH0 PUSH0 REVERT JUMPDEST POP PUSH2 0x4EC PUSH2 0x1E87 JUMP JUMPDEST PUSH2 0x41D PUSH2 0x7A4 CALLDATASIZE PUSH1 0x4 PUSH2 0x3523 JUMP JUMPDEST PUSH2 0x1ECE JUMP JUMPDEST CALLVALUE DUP1 ISZERO PUSH2 0x7B4 JUMPI PUSH0 PUSH0 REVERT JUMPDEST POP PUSH1 0x12 SLOAD PUSH2 0x3F1 SWAP1 PUSH1 0x1 PUSH1 0x1 PUSH1 0xA0 SHL SUB AND DUP2 JUMP JUMPDEST CALLVALUE DUP1 ISZERO PUSH2 0x7D3 JUMPI PUSH0 PUSH0 REVERT JUMPDEST POP PUSH2 0x41D PUSH2 0x7E2 CALLDATASIZE PUSH1 0x4 PUSH2 0x3523 JUMP JUMPDEST PUSH2 0x1F9A JUMP JUMPDEST CALLVALUE DUP1 ISZERO PUSH2 0x7F2 JUMPI PUSH0 PUSH0 REVERT JUMPDEST POP PUSH2 0x38D PUSH2 0x1FDE JUMP JUMPDEST CALLVALUE DUP1 ISZERO PUSH2 0x806 JUMPI PUSH0 PUSH0 REVERT JUMPDEST POP PUSH1 0xB SLOAD PUSH2 0x3F1 SWAP1 PUSH1 0x1 PUSH1 0x1 PUSH1 0xA0 SHL SUB AND DUP2 JUMP JUMPDEST CALLVALUE DUP1 ISZERO PUSH2 0x825 JUMPI PUSH0 PUSH0 REVERT JUMPDEST POP PUSH2 0x41D PUSH2 0x834 CALLDATASIZE PUSH1 0x4 PUSH2 0x3543 JUMP JUMPDEST PUSH2 0x1FED JUMP JUMPDEST CALLVALUE DUP1 ISZERO PUSH2 0x844 JUMPI PUSH0 PUSH0 REVERT JUMPDEST POP PUSH1 0xE SLOAD PUSH2 0x3F1 SWAP1 PUSH1 0x1 PUSH1 0x1 PUSH1 0xA0 SHL SUB AND DUP2 JUMP JUMPDEST CALLVALUE DUP1 ISZERO PUSH2 0x863 JUMPI PUSH0 PUSH0 REVERT JUMPDEST POP PUSH2 0x3C2 PUSH2 0x872 CALLDATASIZE PUSH1 0x4 PUSH2 0x334B JUMP JUMPDEST PUSH2 0x20B4 JUMP JUMPDEST PUSH2 0x41D PUSH2 0x885 CALLDATASIZE PUSH1 0x4 PUSH2 0x3523 JUMP JUMPDEST PUSH2 0x21A4 JUMP JUMPDEST CALLVALUE DUP1 ISZERO PUSH2 0x895 JUMPI PUSH0 PUSH0 REVERT JUMPDEST POP PUSH2 0x41D PUSH2 0x2270 JUMP JUMPDEST CALLVALUE DUP1 ISZERO PUSH2 0x8A9 JUMPI PUSH0 PUSH0 REVERT JUMPDEST POP PUSH2 0x41D PUSH2 0x8B8 CALLDATASIZE PUSH1 0x4 PUSH2 0x3523 JUMP JUMPDEST PUSH2 0x2387 JUMP JUMPDEST CALLVALUE DUP1 ISZERO PUSH2 0x8C8 JUMPI PUSH0 PUSH0 REVERT JUMPDEST POP PUSH1 0x8 SLOAD PUSH2 0x3F1 SWAP1 PUSH1 0x1 PUSH1 0x1 PUSH1 0xA0 SHL SUB AND DUP2 JUMP JUMPDEST CALLVALUE DUP1 ISZERO PUSH2 0x8E7 JUMPI PUSH0 PUSH0 REVERT JUMPDEST POP PUSH1 0x18 SLOAD PUSH2 0x3F1 SWAP1 PUSH1 0x1 PUSH1 0x1 PUSH1 0xA0 SHL SUB AND DUP2 JUMP JUMPDEST CALLVALUE DUP1 ISZERO PUSH2 0x906 JUMPI PUSH0 PUSH0 REVERT JUMPDEST POP PUSH1 0xD SLOAD PUSH2 0x3F1 SWAP1 PUSH1 0x1 PUSH1 0x1 PUSH1 0xA0 SHL SUB AND DUP2 JUMP JUMPDEST CALLVALUE DUP1 ISZERO PUSH2 0x925 JUMPI PUSH0 PUSH0 REVERT JUMPDEST POP PUSH2 0x41D PUSH2 0x934 CALLDATASIZE PUSH1 0x4 PUSH2 0x35E7 JUMP JUMPDEST PUSH2 0x23CB JUMP JUMPDEST CALLVALUE DUP1 ISZERO PUSH2 0x944 JUMPI PUSH0 PUSH0 REVERT JUMPDEST POP PUSH1 0x14 SLOAD PUSH2 0x44E JUMP JUMPDEST CALLVALUE DUP1 ISZERO PUSH2 0x958 JUMPI PUSH0 PUSH0 REVERT JUMPDEST POP PUSH2 0x3C2 PUSH2 0x967 CALLDATASIZE PUSH1 0x4 PUSH2 0x33FF JUMP JUMPDEST PUSH2 0x246B JUMP JUMPDEST CALLVALUE DUP1 ISZERO PUSH2 0x977 JUMPI PUSH0 PUSH0 REVERT JUMPDEST POP PUSH1 0x17 SLOAD PUSH2 0x3F1 SWAP1 PUSH1 0x1 PUSH1 0x1 PUSH1 0xA0 SHL SUB AND DUP2 JUMP JUMPDEST CALLVALUE DUP1 ISZERO PUSH2 0x996 JUMPI PUSH0 PUSH0 REVERT JUMPDEST POP PUSH2 0x44E PUSH2 0x9A5 CALLDATASIZE PUSH1 0x4 PUSH2 0x3654 JUMP JUMPDEST PUSH2 0x24B6 JUMP JUMPDEST CALLVALUE DUP1 ISZERO PUSH2 0x9B5 JUMPI PUSH0 PUSH0 REVERT JUMPDEST POP PUSH1 0x19 SLOAD PUSH2 0x3F1 SWAP1 PUSH1 0x1 PUSH1 0x1 PUSH1 0xA0 SHL SUB AND DUP2 JUMP JUMPDEST CALLVALUE DUP1 ISZERO PUSH2 0x9D4 JUMPI PUSH0 PUSH0 REVERT JUMPDEST POP PUSH2 0x4EC PUSH2 0x24E0 JUMP JUMPDEST PUSH2 0x41D PUSH2 0x9EB CALLDATASIZE PUSH1 0x4 PUSH2 0x3523 JUMP JUMPDEST PUSH2 0x2527 JUMP JUMPDEST CALLVALUE DUP1 ISZERO PUSH2 0x9FB JUMPI PUSH0 PUSH0 REVERT JUMPDEST POP PUSH2 0x3C2 PUSH2 0xA0A CALLDATASIZE PUSH1 0x4 PUSH2 0x33CD JUMP JUMPDEST PUSH1 0x7 PUSH1 0x20 MSTORE PUSH0 SWAP1 DUP2 MSTORE PUSH1 0x40 SWAP1 KECCAK256 SLOAD PUSH1 0xFF AND DUP2 JUMP JUMPDEST CALLVALUE DUP1 ISZERO PUSH2 0xA29 JUMPI PUSH0 PUSH0 REVERT JUMPDEST POP PUSH2 0x41D PUSH2 0xA38 CALLDATASIZE PUSH1 0x4 PUSH2 0x3523 JUMP JUMPDEST PUSH2 0x295F JUMP JUMPDEST CALLVALUE DUP1 ISZERO PUSH2 0xA48 JUMPI PUSH0 PUSH0 REVERT JUMPDEST POP PUSH1 0xC SLOAD PUSH2 0x3F1 SWAP1 PUSH1 0x1 PUSH1 0x1 PUSH1 0xA0 SHL SUB AND DUP2 JUMP JUMPDEST PUSH1 0x60 PUSH1 0x3 DUP1 SLOAD PUSH2 0xA6B SWAP1 PUSH2 0x3680 JUMP JUMPDEST DUP1 PUSH1 0x1F ADD PUSH1 0x20 DUP1 SWAP2 DIV MUL PUSH1 0x20 ADD PUSH1 0x40 MLOAD SWAP1 DUP2 ADD PUSH1 0x40 MSTORE DUP1 SWAP3 SWAP2 SWAP1 DUP2 DUP2 MSTORE PUSH1 0x20 ADD DUP3 DUP1 SLOAD PUSH2 0xA97 SWAP1 PUSH2 0x3680 JUMP JUMPDEST DUP1 ISZERO PUSH2 0xAE2 JUMPI DUP1 PUSH1 0x1F LT PUSH2 0xAB9 JUMPI PUSH2 0x100 DUP1 DUP4 SLOAD DIV MUL DUP4 MSTORE SWAP2 PUSH1 0x20 ADD SWAP2 PUSH2 0xAE2 JUMP JUMPDEST DUP3 ADD SWAP2 SWAP1 PUSH0 MSTORE PUSH1 0x20 PUSH0 KECCAK256 SWAP1 JUMPDEST DUP2 SLOAD DUP2 MSTORE SWAP1 PUSH1 0x1 ADD SWAP1 PUSH1 0x20 ADD DUP1 DUP4 GT PUSH2 0xAC5 JUMPI DUP3 SWAP1 SUB PUSH1 0x1F AND DUP3 ADD SWAP2 JUMPDEST POP POP POP POP POP SWAP1 POP SWAP1 JUMP JUMPDEST PUSH0 CALLER PUSH2 0xAF9 DUP2 DUP6 DUP6 PUSH2 0x2EA6 JUMP JUMPDEST PUSH1 0x1 SWAP2 POP POP JUMPDEST SWAP3 SWAP2 POP POP JUMP JUMPDEST CALLER PUSH0 SWAP1 DUP2 MSTORE PUSH1 0x7 PUSH1 0x20 MSTORE PUSH1 0x40 SWAP1 KECCAK256 SLOAD PUSH1 0xFF AND PUSH2 0xB3C JUMPI PUSH1 0x40 MLOAD PUSH3 0x461BCD PUSH1 0xE5 SHL DUP2 MSTORE PUSH1 0x4 ADD PUSH2 0xB33 SWAP1 PUSH2 0x36B8 JUMP JUMPDEST PUSH1 0x40 MLOAD DUP1 SWAP2 SUB SWAP1 REVERT JUMPDEST PUSH2 0xB44 PUSH2 0x2EB8 JUMP JUMPDEST PUSH2 0xB4C PUSH2 0x2EE2 JUMP JUMPDEST PUSH1 0x1 PUSH1 0x1 PUSH1 0xA0 SHL SUB DUP3 AND PUSH0 SWAP1 DUP2 MSTORE PUSH1 0x7 PUSH1 0x20 MSTORE PUSH1 0x40 SWAP1 KECCAK256 DUP1 SLOAD PUSH1 0xFF NOT AND DUP3 ISZERO ISZERO OR SWAP1 SSTORE PUSH1 0x1 PUSH1 0x5 SSTORE POP POP JUMP JUMPDEST POP POP JUMP JUMPDEST CALLER PUSH0 SWAP1 DUP2 MSTORE PUSH1 0x7 PUSH1 0x20 MSTORE PUSH1 0x40 SWAP1 KECCAK256 SLOAD PUSH1 0xFF AND PUSH2 0xBAA JUMPI PUSH1 0x40 MLOAD PUSH3 0x461BCD PUSH1 0xE5 SHL DUP2 MSTORE PUSH1 0x4 ADD PUSH2 0xB33 SWAP1 PUSH2 0x36B8 JUMP JUMPDEST PUSH1 0x12 DUP1 SLOAD PUSH1 0x1 PUSH1 0x1 PUSH1 0xA0 SHL SUB NOT AND PUSH1 0x1 PUSH1 0x1 PUSH1 0xA0 SHL SUB SWAP3 SWAP1 SWAP3 AND SWAP2 SWAP1 SWAP2 OR SWAP1 SSTORE JUMP JUMPDEST CALLER PUSH0 SWAP1 DUP2 MSTORE PUSH1 0x7 PUSH1 0x20 MSTORE PUSH1 0x40 SWAP1 KECCAK256 SLOAD PUSH1 0xFF AND PUSH2 0xBFA JUMPI PUSH1 0x40 MLOAD PUSH3 0x461BCD PUSH1 0xE5 SHL DUP2 MSTORE PUSH1 0x4 ADD PUSH2 0xB33 SWAP1 PUSH2 0x36B8 JUMP JUMPDEST PUSH2 0xC02 PUSH2 0x2EE2 JUMP JUMPDEST PUSH2 0xC0D ADDRESS DUP4 DUP4 PUSH2 0x2F28 JUMP JUMPDEST PUSH1 0x10 SLOAD PUSH1 0x1 PUSH1 0x1 PUSH1 0xA0 SHL SUB AND PUSH4 0xE0B1CCCB ADDRESS PUSH2 0xC28 DUP2 PUSH2 0x1DE1 JUMP JUMPDEST PUSH1 0x40 MLOAD DUP4 PUSH4 0xFFFFFFFF AND PUSH1 0xE0 SHL DUP2 MSTORE PUSH1 0x4 ADD PUSH2 0xC45 SWAP3 SWAP2 SWAP1 PUSH2 0x36E0 JUMP JUMPDEST PUSH0 PUSH1 0x40 MLOAD DUP1 DUP4 SUB DUP2 PUSH0 DUP8 DUP1 EXTCODESIZE ISZERO DUP1 ISZERO PUSH2 0xC5C JUMPI PUSH0 PUSH0 REVERT JUMPDEST POP GAS CALL ISZERO DUP1 ISZERO PUSH2 0xC6E JUMPI RETURNDATASIZE PUSH0 PUSH0 RETURNDATACOPY RETURNDATASIZE PUSH0 REVERT JUMPDEST POP POP PUSH1 0x10 SLOAD PUSH1 0x1 PUSH1 0x1 PUSH1 0xA0 SHL SUB AND SWAP2 POP PUSH4 0xE0B1CCCB SWAP1 POP DUP4 PUSH2 0xC8F DUP2 PUSH2 0x1DE1 JUMP JUMPDEST PUSH1 0x40 MLOAD DUP4 PUSH4 0xFFFFFFFF AND PUSH1 0xE0 SHL DUP2 MSTORE PUSH1 0x4 ADD PUSH2 0xCAC SWAP3 SWAP2 SWAP1 PUSH2 0x36E0 JUMP JUMPDEST PUSH0 PUSH1 0x40 MLOAD DUP1 DUP4 SUB DUP2 PUSH0 DUP8 DUP1 EXTCODESIZE ISZERO DUP1 ISZERO PUSH2 0xCC3 JUMPI PUSH0 PUSH0 REVERT JUMPDEST POP GAS CALL ISZERO DUP1 ISZERO PUSH2 0xCD5 JUMPI RETURNDATASIZE PUSH0 PUSH0 RETURNDATACOPY RETURNDATASIZE PUSH0 REVERT JUMPDEST POP POP POP POP POP POP JUMP JUMPDEST CALLER PUSH0 SWAP1 DUP2 MSTORE PUSH1 0x7 PUSH1 0x20 MSTORE PUSH1 0x40 SWAP1 KECCAK256 SLOAD PUSH1 0xFF AND PUSH2 0xD0B JUMPI PUSH1 0x40 MLOAD PUSH3 0x461BCD PUSH1 0xE5 SHL DUP2 MSTORE PUSH1 0x4 ADD PUSH2 0xB33 SWAP1 PUSH2 0x36B8 JUMP JUMPDEST PUSH2 0xD13 PUSH2 0x2EB8 JUMP JUMPDEST PUSH2 0xD1B PUSH2 0x2EE2 JUMP JUMPDEST PUSH2 0xD26 PUSH1 0x5 DUP3 PUSH2 0x370D JUMP JUMPDEST ISZERO PUSH2 0xD73 JUMPI PUSH1 0x40 MLOAD PUSH3 0x461BCD PUSH1 0xE5 SHL DUP2 MSTORE PUSH1 0x20 PUSH1 0x4 DUP3 ADD MSTORE PUSH1 0x1D PUSH1 0x24 DUP3 ADD MSTORE PUSH32 0x416D6F756E74206D75737420626520646976697369626C652062792035000000 PUSH1 0x44 DUP3 ADD MSTORE PUSH1 0x64 ADD PUSH2 0xB33 JUMP JUMPDEST PUSH0 PUSH2 0xD7F PUSH1 0x5 DUP4 PUSH2 0x3734 JUMP JUMPDEST PUSH1 0x15 SLOAD PUSH1 0x40 MLOAD PUSH4 0x3C30AE3 PUSH1 0xE4 SHL DUP2 MSTORE PUSH1 0x4 DUP2 ADD DUP4 SWAP1 MSTORE SWAP2 SWAP3 POP PUSH1 0x1 PUSH1 0x1 PUSH1 0xA0 SHL SUB AND SWAP1 PUSH4 0x3C30AE30 SWAP1 PUSH1 0x24 ADD PUSH0 PUSH1 0x40 MLOAD DUP1 DUP4 SUB DUP2 PUSH0 DUP8 DUP1 EXTCODESIZE ISZERO DUP1 ISZERO PUSH2 0xDC3 JUMPI PUSH0 PUSH0 REVERT JUMPDEST POP GAS CALL ISZERO DUP1 ISZERO PUSH2 0xDD5 JUMPI RETURNDATASIZE PUSH0 PUSH0 RETURNDATACOPY RETURNDATASIZE PUSH0 REVERT JUMPDEST POP POP PUSH1 0x16 SLOAD PUSH1 0x40 MLOAD PUSH4 0x3C30AE3 PUSH1 0xE4 SHL DUP2 MSTORE PUSH1 0x4 DUP2 ADD DUP6 SWAP1 MSTORE PUSH1 0x1 PUSH1 0x1 PUSH1 0xA0 SHL SUB SWAP1 SWAP2 AND SWAP3 POP PUSH4 0x3C30AE30 SWAP2 POP PUSH1 0x24 ADD PUSH0 PUSH1 0x40 MLOAD DUP1 DUP4 SUB DUP2 PUSH0 DUP8 DUP1 EXTCODESIZE ISZERO DUP1 ISZERO PUSH2 0xE1C JUMPI PUSH0 PUSH0 REVERT JUMPDEST POP GAS CALL ISZERO DUP1 ISZERO PUSH2 0xE2E JUMPI RETURNDATASIZE PUSH0 PUSH0 RETURNDATACOPY RETURNDATASIZE PUSH0 REVERT JUMPDEST POP POP PUSH1 0x17 SLOAD PUSH1 0x40 MLOAD PUSH4 0x3C30AE3 PUSH1 0xE4 SHL DUP2 MSTORE PUSH1 0x4 DUP2 ADD DUP6 SWAP1 MSTORE PUSH1 0x1 PUSH1 0x1 PUSH1 0xA0 SHL SUB SWAP1 SWAP2 AND SWAP3 POP PUSH4 0x3C30AE30 SWAP2 POP PUSH1 0x24 ADD PUSH0 PUSH1 0x40 MLOAD DUP1 DUP4 SUB DUP2 PUSH0 DUP8 DUP1 EXTCODESIZE ISZERO DUP1 ISZERO PUSH2 0xE75 JUMPI PUSH0 PUSH0 REVERT JUMPDEST POP GAS CALL ISZERO DUP1 ISZERO PUSH2 0xE87 JUMPI RETURNDATASIZE PUSH0 PUSH0 RETURNDATACOPY RETURNDATASIZE PUSH0 REVERT JUMPDEST POP POP PUSH1 0x18 SLOAD PUSH1 0x40 MLOAD PUSH4 0x3C30AE3 PUSH1 0xE4 SHL DUP2 MSTORE PUSH1 0x4 DUP2 ADD DUP6 SWAP1 MSTORE PUSH1 0x1 PUSH1 0x1 PUSH1 0xA0 SHL SUB SWAP1 SWAP2 AND SWAP3 POP PUSH4 0x3C30AE30 SWAP2 POP PUSH1 0x24 ADD PUSH0 PUSH1 0x40 MLOAD DUP1 DUP4 SUB DUP2 PUSH0 DUP8 DUP1 EXTCODESIZE ISZERO DUP1 ISZERO PUSH2 0xECE JUMPI PUSH0 PUSH0 REVERT JUMPDEST POP GAS CALL ISZERO DUP1 ISZERO PUSH2 0xEE0 JUMPI RETURNDATASIZE PUSH0 PUSH0 RETURNDATACOPY RETURNDATASIZE PUSH0 REVERT JUMPDEST POP POP PUSH1 0x19 SLOAD PUSH1 0x40 MLOAD PUSH4 0x3C30AE3 PUSH1 0xE4 SHL DUP2 MSTORE PUSH1 0x4 DUP2 ADD DUP6 SWAP1 MSTORE PUSH1 0x1 PUSH1 0x1 PUSH1 0xA0 SHL SUB SWAP1 SWAP2 AND SWAP3 POP PUSH4 0x3C30AE30 SWAP2 POP PUSH1 0x24 ADD PUSH0 PUSH1 0x40 MLOAD DUP1 DUP4 SUB DUP2 PUSH0 DUP8 DUP1 EXTCODESIZE ISZERO DUP1 ISZERO PUSH2 0xF27 JUMPI PUSH0 PUSH0 REVERT JUMPDEST POP GAS CALL ISZERO DUP1 ISZERO PUSH2 0xF39 JUMPI RETURNDATASIZE PUSH0 PUSH0 RETURNDATACOPY RETURNDATASIZE PUSH0 REVERT JUMPDEST POP POP POP POP DUP2 PUSH1 0x14 PUSH0 DUP3 DUP3 SLOAD PUSH2 0xF4E SWAP2 SWAP1 PUSH2 0x3747 JUMP JUMPDEST SWAP1 SWAP2 SSTORE POP PUSH0 SWAP1 POP PUSH1 0x64 PUSH2 0xF63 DUP5 PUSH2 0x3E8 PUSH2 0x375A JUMP JUMPDEST PUSH2 0xF6D SWAP2 SWAP1 PUSH2 0x3734 JUMP JUMPDEST SWAP1 POP DUP1 PUSH1 0x13 PUSH0 DUP3 DUP3 SLOAD PUSH2 0xF80 SWAP2 SWAP1 PUSH2 0x3747 JUMP JUMPDEST SWAP1 SWAP2 SSTORE POP POP PUSH1 0x1 PUSH1 0x5 SSTORE POP PUSH2 0xF92 SWAP1 POP JUMP JUMPDEST POP JUMP JUMPDEST PUSH0 CALLER PUSH2 0xFA2 DUP6 DUP3 DUP6 PUSH2 0x2F85 JUMP JUMPDEST PUSH2 0xFAD DUP6 DUP6 DUP6 PUSH2 0x2F28 JUMP JUMPDEST POP PUSH1 0x1 SWAP5 SWAP4 POP POP POP POP JUMP JUMPDEST PUSH1 0xF SLOAD PUSH1 0x40 DUP1 MLOAD PUSH4 0x2465AF11 PUSH1 0xE0 SHL DUP2 MSTORE SWAP1 MLOAD PUSH1 0x60 SWAP3 PUSH1 0x1 PUSH1 0x1 PUSH1 0xA0 SHL SUB AND SWAP2 PUSH4 0x2465AF11 SWAP2 PUSH1 0x4 DUP1 DUP4 ADD SWAP3 PUSH0 SWAP3 SWAP2 SWAP1 DUP3 SWAP1 SUB ADD DUP2 DUP7 GAS STATICCALL ISZERO DUP1 ISZERO PUSH2 0xFFF JUMPI RETURNDATASIZE PUSH0 PUSH0 RETURNDATACOPY RETURNDATASIZE PUSH0 REVERT JUMPDEST POP POP POP POP PUSH1 0x40 MLOAD RETURNDATASIZE PUSH0 DUP3 RETURNDATACOPY PUSH1 0x1F RETURNDATASIZE SWAP1 DUP2 ADD PUSH1 0x1F NOT AND DUP3 ADD PUSH1 0x40 MSTORE PUSH2 0x1026 SWAP2 SWAP1 DUP2 ADD SWAP1 PUSH2 0x382C JUMP JUMPDEST SWAP1 POP SWAP1 JUMP JUMPDEST PUSH0 PUSH2 0xAFF DUP3 PUSH2 0x1DE1 JUMP JUMPDEST PUSH1 0x19 SLOAD PUSH1 0x40 DUP1 MLOAD PUSH4 0x957E63B PUSH1 0xE4 SHL DUP2 MSTORE SWAP1 MLOAD PUSH0 SWAP3 PUSH1 0x1 PUSH1 0x1 PUSH1 0xA0 SHL SUB AND SWAP2 PUSH4 0x957E63B0 SWAP2 PUSH1 0x4 DUP1 DUP4 ADD SWAP3 PUSH1 0x20 SWAP3 SWAP2 SWAP1 DUP3 SWAP1 SUB ADD DUP2 DUP7 GAS STATICCALL ISZERO DUP1 ISZERO PUSH2 0x107C JUMPI RETURNDATASIZE PUSH0 PUSH0 RETURNDATACOPY RETURNDATASIZE PUSH0 REVERT JUMPDEST POP POP POP POP PUSH1 0x40 MLOAD RETURNDATASIZE PUSH1 0x1F NOT PUSH1 0x1F DUP3 ADD AND DUP3 ADD DUP1 PUSH1 0x40 MSTORE POP DUP2 ADD SWAP1 PUSH2 0x10A0 SWAP2 SWAP1 PUSH2 0x3943 JUMP JUMPDEST PUSH1 0x18 PUSH0 SWAP1 SLOAD SWAP1 PUSH2 0x100 EXP SWAP1 DIV PUSH1 0x1 PUSH1 0x1 PUSH1 0xA0 SHL SUB AND PUSH1 0x1 PUSH1 0x1 PUSH1 0xA0 SHL SUB AND PUSH4 0x957E63B0 PUSH1 0x40 MLOAD DUP2 PUSH4 0xFFFFFFFF AND PUSH1 0xE0 SHL DUP2 MSTORE PUSH1 0x4 ADD PUSH1 0x20 PUSH1 0x40 MLOAD DUP1 DUP4 SUB DUP2 DUP7 GAS STATICCALL ISZERO DUP1 ISZERO PUSH2 0x10F0 JUMPI RETURNDATASIZE PUSH0 PUSH0 RETURNDATACOPY RETURNDATASIZE PUSH0 REVERT JUMPDEST POP POP POP POP PUSH1 0x40 MLOAD RETURNDATASIZE PUSH1 0x1F NOT PUSH1 0x1F DUP3 ADD AND DUP3 ADD DUP1 PUSH1 0x40 MSTORE POP DUP2 ADD SWAP1 PUSH2 0x1114 SWAP2 SWAP1 PUSH2 0x3943 JUMP JUMPDEST PUSH1 0x17 PUSH0 SWAP1 SLOAD SWAP1 PUSH2 0x100 EXP SWAP1 DIV PUSH1 0x1 PUSH1 0x1 PUSH1 0xA0 SHL SUB AND PUSH1 0x1 PUSH1 0x1 PUSH1 0xA0 SHL SUB AND PUSH4 0x957E63B0 PUSH1 0x40 MLOAD DUP2 PUSH4 0xFFFFFFFF AND PUSH1 0xE0 SHL DUP2 MSTORE PUSH1 0x4 ADD PUSH1 0x20 PUSH1 0x40 MLOAD DUP1 DUP4 SUB DUP2 DUP7 GAS STATICCALL ISZERO DUP1 ISZERO PUSH2 0x1164 JUMPI RETURNDATASIZE PUSH0 PUSH0 RETURNDATACOPY RETURNDATASIZE PUSH0 REVERT JUMPDEST POP POP POP POP PUSH1 0x40 MLOAD RETURNDATASIZE PUSH1 0x1F NOT PUSH1 0x1F DUP3 ADD AND DUP3 ADD DUP1 PUSH1 0x40 MSTORE POP DUP2 ADD SWAP1 PUSH2 0x1188 SWAP2 SWAP1 PUSH2 0x3943 JUMP JUMPDEST PUSH1 0x16 PUSH0 SWAP1 SLOAD SWAP1 PUSH2 0x100 EXP SWAP1 DIV PUSH1 0x1 PUSH1 0x1 PUSH1 0xA0 SHL SUB AND PUSH1 0x1 PUSH1 0x1 PUSH1 0xA0 SHL SUB AND PUSH4 0x957E63B0 PUSH1 0x40 MLOAD DUP2 PUSH4 0xFFFFFFFF AND PUSH1 0xE0 SHL DUP2 MSTORE PUSH1 0x4 ADD PUSH1 0x20 PUSH1 0x40 MLOAD DUP1 DUP4 SUB DUP2 DUP7 GAS STATICCALL ISZERO DUP1 ISZERO PUSH2 0x11D8 JUMPI RETURNDATASIZE PUSH0 PUSH0 RETURNDATACOPY RETURNDATASIZE PUSH0 REVERT JUMPDEST POP POP POP POP PUSH1 0x40 MLOAD RETURNDATASIZE PUSH1 0x1F NOT PUSH1 0x1F DUP3 ADD AND DUP3 ADD DUP1 PUSH1 0x40 MSTORE POP DUP2 ADD SWAP1 PUSH2 0x11FC SWAP2 SWAP1 PUSH2 0x3943 JUMP JUMPDEST PUSH1 0x15 PUSH0 SWAP1 SLOAD SWAP1 PUSH2 0x100 EXP SWAP1 DIV PUSH1 0x1 PUSH1 0x1 PUSH1 0xA0 SHL SUB AND PUSH1 0x1 PUSH1 0x1 PUSH1 0xA0 SHL SUB AND PUSH4 0x957E63B0 PUSH1 0x40 MLOAD DUP2 PUSH4 0xFFFFFFFF AND PUSH1 0xE0 SHL DUP2 MSTORE PUSH1 0x4 ADD PUSH1 0x20 PUSH1 0x40 MLOAD DUP1 DUP4 SUB DUP2 DUP7 GAS STATICCALL ISZERO DUP1 ISZERO PUSH2 0x124C JUMPI RETURNDATASIZE PUSH0 PUSH0 RETURNDATACOPY RETURNDATASIZE PUSH0 REVERT JUMPDEST POP POP POP POP PUSH1 0x40 MLOAD RETURNDATASIZE PUSH1 0x1F NOT PUSH1 0x1F DUP3 ADD AND DUP3 ADD DUP1 PUSH1 0x40 MSTORE POP DUP2 ADD SWAP1 PUSH2 0x1270 SWAP2 SWAP1 PUSH2 0x3943 JUMP JUMPDEST PUSH2 0x127A SWAP2 SWAP1 PUSH2 0x3747 JUMP JUMPDEST PUSH2 0x1284 SWAP2 SWAP1 PUSH2 0x3747 JUMP JUMPDEST PUSH2 0x128E SWAP2 SWAP1 PUSH2 0x3747 JUMP JUMPDEST PUSH2 0x1026 SWAP2 SWAP1 PUSH2 0x3747 JUMP JUMPDEST CALLER PUSH0 SWAP1 DUP2 MSTORE PUSH1 0x7 PUSH1 0x20 MSTORE PUSH1 0x40 SWAP1 KECCAK256 SLOAD PUSH1 0xFF AND PUSH2 0x12C6 JUMPI PUSH1 0x40 MLOAD PUSH3 0x461BCD PUSH1 0xE5 SHL DUP2 MSTORE PUSH1 0x4 ADD PUSH2 0xB33 SWAP1 PUSH2 0x36B8 JUMP JUMPDEST PUSH2 0x12CE PUSH2 0x2EB8 JUMP JUMPDEST PUSH2 0x12D6 PUSH2 0x2FD6 JUMP JUMPDEST PUSH2 0x12E0 PUSH1 0x1 PUSH1 0x5 SSTORE JUMP JUMPDEST JUMP JUMPDEST CALLER PUSH0 SWAP1 DUP2 MSTORE PUSH1 0x7 PUSH1 0x20 MSTORE PUSH1 0x40 SWAP1 KECCAK256 SLOAD PUSH1 0xFF AND PUSH2 0x1310 JUMPI PUSH1 0x40 MLOAD PUSH3 0x461BCD PUSH1 0xE5 SHL DUP2 MSTORE PUSH1 0x4 ADD PUSH2 0xB33 SWAP1 PUSH2 0x36B8 JUMP JUMPDEST PUSH2 0x1318 PUSH2 0x2EB8 JUMP JUMPDEST PUSH2 0x1320 PUSH2 0x2EE2 JUMP JUMPDEST DUP1 PUSH1 0x13 SLOAD LT ISZERO PUSH2 0x1382 JUMPI PUSH1 0x40 MLOAD PUSH3 0x461BCD PUSH1 0xE5 SHL DUP2 MSTORE PUSH1 0x20 PUSH1 0x4 DUP3 ADD MSTORE PUSH1 0x27 PUSH1 0x24 DUP3 ADD MSTORE PUSH32 0x4E6F7420656E6F75676820756E69747320696E2073746F636B20746F206D696E PUSH1 0x44 DUP3 ADD MSTORE PUSH7 0x7420636F696E73 PUSH1 0xC8 SHL PUSH1 0x64 DUP3 ADD MSTORE PUSH1 0x84 ADD PUSH2 0xB33 JUMP JUMPDEST DUP1 PUSH1 0x13 PUSH0 DUP3 DUP3 SLOAD PUSH2 0x1393 SWAP2 SWAP1 PUSH2 0x395A JUMP JUMPDEST SWAP1 SWAP2 SSTORE POP PUSH0 SWAP1 POP PUSH2 0x3E8 PUSH2 0x13A8 DUP4 PUSH1 0x64 PUSH2 0x375A JUMP JUMPDEST PUSH2 0x13B2 SWAP2 SWAP1 PUSH2 0x3734 JUMP JUMPDEST SWAP1 POP DUP1 PUSH1 0x14 PUSH0 DUP3 DUP3 SLOAD PUSH2 0x13C5 SWAP2 SWAP1 PUSH2 0x395A JUMP JUMPDEST SWAP1 SWAP2 SSTORE POP DUP3 SWAP1 POP PUSH2 0x13D6 DUP5 DUP3 PUSH2 0x3022 JUMP JUMPDEST PUSH1 0x10 SLOAD PUSH1 0x1 PUSH1 0x1 PUSH1 0xA0 SHL SUB AND PUSH4 0xE0B1CCCB DUP6 PUSH2 0x13F1 DUP2 PUSH2 0x1DE1 JUMP JUMPDEST PUSH1 0x40 MLOAD DUP4 PUSH4 0xFFFFFFFF AND PUSH1 0xE0 SHL DUP2 MSTORE PUSH1 0x4 ADD PUSH2 0x140E SWAP3 SWAP2 SWAP1 PUSH2 0x36E0 JUMP JUMPDEST PUSH0 PUSH1 0x40 MLOAD DUP1 DUP4 SUB DUP2 PUSH0 DUP8 DUP1 EXTCODESIZE ISZERO DUP1 ISZERO PUSH2 0x1425 JUMPI PUSH0 PUSH0 REVERT JUMPDEST POP GAS CALL ISZERO DUP1 ISZERO PUSH2 0x1437 JUMPI RETURNDATASIZE PUSH0 PUSH0 RETURNDATACOPY RETURNDATASIZE PUSH0 REVERT JUMPDEST POP POP POP POP POP POP PUSH2 0xB78 PUSH1 0x1 PUSH1 0x5 SSTORE JUMP JUMPDEST PUSH2 0x144F PUSH2 0x2EB8 JUMP JUMPDEST PUSH2 0x1457 PUSH2 0x2EE2 JUMP JUMPDEST CALLER DUP2 PUSH2 0x1462 DUP3 PUSH2 0x1DE1 JUMP JUMPDEST LT ISZERO PUSH2 0x14B0 JUMPI PUSH1 0x40 MLOAD PUSH3 0x461BCD PUSH1 0xE5 SHL DUP2 MSTORE PUSH1 0x20 PUSH1 0x4 DUP3 ADD MSTORE PUSH1 0x1C PUSH1 0x24 DUP3 ADD MSTORE PUSH32 0x496E73756666696369656E742062616C616E636520746F206275726E00000000 PUSH1 0x44 DUP3 ADD MSTORE PUSH1 0x64 ADD PUSH2 0xB33 JUMP JUMPDEST PUSH2 0x14BA DUP2 DUP4 PUSH2 0x3056 JUMP JUMPDEST PUSH1 0x10 SLOAD PUSH1 0x1 PUSH1 0x1 PUSH1 0xA0 SHL SUB AND PUSH4 0xE0B1CCCB DUP3 PUSH2 0x14D5 DUP2 PUSH2 0x1DE1 JUMP JUMPDEST PUSH1 0x40 MLOAD DUP4 PUSH4 0xFFFFFFFF AND PUSH1 0xE0 SHL DUP2 MSTORE PUSH1 0x4 ADD PUSH2 0x14F2 SWAP3 SWAP2 SWAP1 PUSH2 0x36E0 JUMP JUMPDEST PUSH0 PUSH1 0x40 MLOAD DUP1 DUP4 SUB DUP2 PUSH0 DUP8 DUP1 EXTCODESIZE ISZERO DUP1 ISZERO PUSH2 0x1509 JUMPI PUSH0 PUSH0 REVERT JUMPDEST POP GAS CALL ISZERO DUP1 ISZERO PUSH2 0x151B JUMPI RETURNDATASIZE PUSH0 PUSH0 RETURNDATACOPY RETURNDATASIZE PUSH0 REVERT JUMPDEST POP POP POP POP PUSH0 PUSH2 0x3E8 DUP4 PUSH1 0x64 PUSH2 0x1530 SWAP2 SWAP1 PUSH2 0x375A JUMP JUMPDEST PUSH2 0x153A SWAP2 SWAP1 PUSH2 0x3734 JUMP JUMPDEST SWAP1 POP DUP1 PUSH1 0x14 PUSH0 DUP3 DUP3 SLOAD PUSH2 0x154D SWAP2 SWAP1 PUSH2 0x3747 JUMP JUMPDEST SWAP3 POP POP DUP2 SWAP1 SSTORE POP DUP3 PUSH1 0x13 PUSH0 DUP3 DUP3 SLOAD PUSH2 0xF80 SWAP2 SWAP1 PUSH2 0x3747 JUMP JUMPDEST PUSH2 0x156D PUSH2 0x2EB8 JUMP JUMPDEST PUSH2 0x1575 PUSH2 0x2EE2 JUMP JUMPDEST PUSH0 PUSH2 0x3E8 PUSH2 0x1583 DUP4 DUP6 PUSH2 0x375A JUMP JUMPDEST PUSH2 0x158D SWAP2 SWAP1 PUSH2 0x3734 JUMP JUMPDEST PUSH1 0xD SLOAD PUSH1 0x40 MLOAD PUSH4 0x70A08231 PUSH1 0xE0 SHL DUP2 MSTORE SWAP2 SWAP3 POP PUSH0 SWAP2 PUSH1 0x1 PUSH1 0x1 PUSH1 0xA0 SHL SUB SWAP1 SWAP2 AND SWAP1 PUSH4 0x70A08231 SWAP1 PUSH2 0x15C2 SWAP1 CALLER SWAP1 PUSH1 0x4 ADD PUSH2 0x3375 JUMP JUMPDEST PUSH1 0x20 PUSH1 0x40 MLOAD DUP1 DUP4 SUB DUP2 DUP7 GAS STATICCALL ISZERO DUP1 ISZERO PUSH2 0x15DD JUMPI RETURNDATASIZE PUSH0 PUSH0 RETURNDATACOPY RETURNDATASIZE PUSH0 REVERT JUMPDEST POP POP POP POP PUSH1 0x40 MLOAD RETURNDATASIZE PUSH1 0x1F NOT PUSH1 0x1F DUP3 ADD AND DUP3 ADD DUP1 PUSH1 0x40 MSTORE POP DUP2 ADD SWAP1 PUSH2 0x1601 SWAP2 SWAP1 PUSH2 0x3943 JUMP JUMPDEST SWAP1 POP DUP2 DUP2 LT ISZERO PUSH2 0x164F JUMPI PUSH1 0x40 MLOAD PUSH3 0x461BCD PUSH1 0xE5 SHL DUP2 MSTORE PUSH1 0x20 PUSH1 0x4 DUP3 ADD MSTORE PUSH1 0x19 PUSH1 0x24 DUP3 ADD MSTORE PUSH25 0x496E73756666696369656E7420555344432062616C616E6365 PUSH1 0x38 SHL PUSH1 0x44 DUP3 ADD MSTORE PUSH1 0x64 ADD PUSH2 0xB33 JUMP JUMPDEST PUSH1 0xD SLOAD PUSH1 0x9 SLOAD PUSH1 0x40 MLOAD PUSH4 0x23B872DD PUSH1 0xE0 SHL DUP2 MSTORE PUSH1 0x1 PUSH1 0x1 PUSH1 0xA0 SHL SUB SWAP3 DUP4 AND SWAP3 PUSH4 0x23B872DD SWAP3 PUSH2 0x1688 SWAP3 CALLER SWAP3 SWAP1 SWAP2 AND SWAP1 DUP8 SWAP1 PUSH1 0x4 ADD PUSH2 0x396D JUMP JUMPDEST PUSH1 0x20 PUSH1 0x40 MLOAD DUP1 DUP4 SUB DUP2 PUSH0 DUP8 GAS CALL ISZERO DUP1 ISZERO PUSH2 0x16A4 JUMPI RETURNDATASIZE PUSH0 PUSH0 RETURNDATACOPY RETURNDATASIZE PUSH0 REVERT JUMPDEST POP POP POP POP PUSH1 0x40 MLOAD RETURNDATASIZE PUSH1 0x1F NOT PUSH1 0x1F DUP3 ADD AND DUP3 ADD DUP1 PUSH1 0x40 MSTORE POP DUP2 ADD SWAP1 PUSH2 0x16C8 SWAP2 SWAP1 PUSH2 0x3991 JUMP JUMPDEST POP PUSH1 0x8 SLOAD PUSH1 0x40 MLOAD PUSH4 0xA0AABD57 PUSH1 0xE0 SHL DUP2 MSTORE PUSH1 0x1 PUSH1 0x1 PUSH1 0xA0 SHL SUB SWAP1 SWAP2 AND SWAP1 PUSH4 0xA0AABD57 SWAP1 CALLVALUE SWAP1 PUSH2 0x16FF SWAP1 CALLER SWAP1 DUP10 SWAP1 DUP10 SWAP1 PUSH1 0x4 ADD PUSH2 0x39AC JUMP JUMPDEST PUSH0 PUSH1 0x40 MLOAD DUP1 DUP4 SUB DUP2 DUP6 DUP9 DUP1 EXTCODESIZE ISZERO DUP1 ISZERO PUSH2 0x1716 JUMPI PUSH0 PUSH0 REVERT JUMPDEST POP GAS CALL ISZERO DUP1 ISZERO PUSH2 0x1728 JUMPI RETURNDATASIZE PUSH0 PUSH0 RETURNDATACOPY RETURNDATASIZE PUSH0 REVERT JUMPDEST POP POP POP POP POP POP POP PUSH2 0xB78 PUSH1 0x1 PUSH1 0x5 SSTORE JUMP JUMPDEST PUSH1 0x9 SLOAD PUSH1 0x40 DUP1 MLOAD PUSH4 0x4C3095A9 PUSH1 0xE0 SHL DUP2 MSTORE SWAP1 MLOAD PUSH1 0x60 SWAP3 PUSH1 0x1 PUSH1 0x1 PUSH1 0xA0 SHL SUB AND SWAP2 PUSH4 0x4C3095A9 SWAP2 PUSH1 0x4 DUP1 DUP4 ADD SWAP3 PUSH0 SWAP3 SWAP2 SWAP1 DUP3 SWAP1 SUB ADD DUP2 DUP7 GAS STATICCALL ISZERO DUP1 ISZERO PUSH2 0xFFF JUMPI RETURNDATASIZE PUSH0 PUSH0 RETURNDATACOPY RETURNDATASIZE PUSH0 REVERT JUMPDEST PUSH1 0xE SLOAD PUSH1 0x40 DUP1 MLOAD PUSH4 0x505B304D PUSH1 0xE0 SHL DUP2 MSTORE SWAP1 MLOAD PUSH1 0x60 SWAP3 PUSH1 0x1 PUSH1 0x1 PUSH1 0xA0 SHL SUB AND SWAP2 PUSH4 0x505B304D SWAP2 PUSH1 0x4 DUP1 DUP4 ADD SWAP3 PUSH0 SWAP3 SWAP2 SWAP1 DUP3 SWAP1 SUB ADD DUP2 DUP7 GAS STATICCALL ISZERO DUP1 ISZERO PUSH2 0xFFF JUMPI RETURNDATASIZE PUSH0 PUSH0 RETURNDATACOPY RETURNDATASIZE PUSH0 REVERT JUMPDEST PUSH2 0x17CF PUSH2 0x2EB8 JUMP JUMPDEST PUSH1 0xA SLOAD PUSH1 0x40 MLOAD PUSH4 0x33BF3577 PUSH1 0xE0 SHL DUP2 MSTORE PUSH1 0x1 PUSH1 0x1 PUSH1 0xA0 SHL SUB SWAP1 SWAP2 AND SWAP1 PUSH4 0x33BF3577 SWAP1 PUSH2 0x17FF SWAP1 CALLER SWAP1 PUSH1 0x4 ADD PUSH2 0x3375 JUMP JUMPDEST PUSH0 PUSH1 0x40 MLOAD DUP1 DUP4 SUB DUP2 PUSH0 DUP8 DUP1 EXTCODESIZE ISZERO DUP1 ISZERO PUSH2 0x1816 JUMPI PUSH0 PUSH0 REVERT JUMPDEST POP GAS CALL ISZERO DUP1 ISZERO PUSH2 0x1828 JUMPI RETURNDATASIZE PUSH0 PUSH0 RETURNDATACOPY RETURNDATASIZE PUSH0 REVERT JUMPDEST POP POP POP POP PUSH2 0x12E0 PUSH1 0x1 PUSH1 0x5 SSTORE JUMP JUMPDEST PUSH2 0x183E PUSH2 0x2EB8 JUMP JUMPDEST PUSH2 0x1846 PUSH2 0x2EE2 JUMP JUMPDEST PUSH1 0xE SLOAD PUSH1 0x40 DUP1 MLOAD PUSH4 0x505B304D PUSH1 0xE0 SHL DUP2 MSTORE SWAP1 MLOAD PUSH0 SWAP3 PUSH1 0x1 PUSH1 0x1 PUSH1 0xA0 SHL SUB AND SWAP2 PUSH4 0x505B304D SWAP2 PUSH1 0x4 DUP1 DUP4 ADD SWAP3 DUP7 SWAP3 SWAP2 SWAP1 DUP3 SWAP1 SUB ADD DUP2 DUP7 GAS STATICCALL ISZERO DUP1 ISZERO PUSH2 0x188C JUMPI RETURNDATASIZE PUSH0 PUSH0 RETURNDATACOPY RETURNDATASIZE PUSH0 REVERT JUMPDEST POP POP POP POP PUSH1 0x40 MLOAD RETURNDATASIZE PUSH0 DUP3 RETURNDATACOPY PUSH1 0x1F RETURNDATASIZE SWAP1 DUP2 ADD PUSH1 0x1F NOT AND DUP3 ADD PUSH1 0x40 MSTORE PUSH2 0x18B3 SWAP2 SWAP1 DUP2 ADD SWAP1 PUSH2 0x382C JUMP JUMPDEST SWAP1 POP PUSH0 JUMPDEST DUP2 MLOAD DUP2 LT ISZERO PUSH2 0x1B39 JUMPI DUP4 DUP3 DUP3 DUP2 MLOAD DUP2 LT PUSH2 0x18D3 JUMPI PUSH2 0x18D3 PUSH2 0x39CD JUMP JUMPDEST PUSH1 0x20 MUL PUSH1 0x20 ADD ADD MLOAD PUSH0 ADD MLOAD SUB PUSH2 0x1B31 JUMPI CALLER PUSH1 0x1 PUSH1 0x1 PUSH1 0xA0 SHL SUB AND DUP3 DUP3 DUP2 MLOAD DUP2 LT PUSH2 0x18FF JUMPI PUSH2 0x18FF PUSH2 0x39CD JUMP JUMPDEST PUSH1 0x20 MUL PUSH1 0x20 ADD ADD MLOAD PUSH1 0x20 ADD MLOAD PUSH1 0x1 PUSH1 0x1 PUSH1 0xA0 SHL SUB AND EQ PUSH2 0x1931 JUMPI PUSH1 0x40 MLOAD PUSH3 0x461BCD PUSH1 0xE5 SHL DUP2 MSTORE PUSH1 0x4 ADD PUSH2 0xB33 SWAP1 PUSH2 0x39E1 JUMP JUMPDEST PUSH0 DUP3 DUP3 DUP2 MLOAD DUP2 LT PUSH2 0x1944 JUMPI PUSH2 0x1944 PUSH2 0x39CD JUMP JUMPDEST PUSH1 0x20 MUL PUSH1 0x20 ADD ADD MLOAD PUSH1 0x60 ADD MLOAD SWAP1 POP PUSH0 PUSH2 0x3E8 DUP3 DUP6 DUP6 DUP2 MLOAD DUP2 LT PUSH2 0x1969 JUMPI PUSH2 0x1969 PUSH2 0x39CD JUMP JUMPDEST PUSH1 0x20 MUL PUSH1 0x20 ADD ADD MLOAD PUSH1 0x40 ADD MLOAD PUSH2 0x197F SWAP2 SWAP1 PUSH2 0x375A JUMP JUMPDEST PUSH2 0x1989 SWAP2 SWAP1 PUSH2 0x3734 JUMP JUMPDEST SWAP1 POP PUSH0 PUSH2 0x3E8 PUSH2 0x1999 DUP5 DUP9 PUSH2 0x375A JUMP JUMPDEST PUSH2 0x19A3 SWAP2 SWAP1 PUSH2 0x3734 JUMP JUMPDEST SWAP1 POP DUP2 DUP2 GT ISZERO PUSH2 0x1AC8 JUMPI PUSH0 PUSH2 0x19B8 DUP4 DUP4 PUSH2 0x395A JUMP JUMPDEST PUSH1 0xD SLOAD PUSH1 0x40 MLOAD PUSH4 0x6EB1769F PUSH1 0xE1 SHL DUP2 MSTORE SWAP2 SWAP3 POP DUP3 SWAP2 PUSH1 0x1 PUSH1 0x1 PUSH1 0xA0 SHL SUB SWAP1 SWAP2 AND SWAP1 PUSH4 0xDD62ED3E SWAP1 PUSH2 0x19EF SWAP1 CALLER SWAP1 ADDRESS SWAP1 PUSH1 0x4 ADD PUSH2 0x3A24 JUMP JUMPDEST PUSH1 0x20 PUSH1 0x40 MLOAD DUP1 DUP4 SUB DUP2 DUP7 GAS STATICCALL ISZERO DUP1 ISZERO PUSH2 0x1A0A JUMPI RETURNDATASIZE PUSH0 PUSH0 RETURNDATACOPY RETURNDATASIZE PUSH0 REVERT JUMPDEST POP POP POP POP PUSH1 0x40 MLOAD RETURNDATASIZE PUSH1 0x1F NOT PUSH1 0x1F DUP3 ADD AND DUP3 ADD DUP1 PUSH1 0x40 MSTORE POP DUP2 ADD SWAP1 PUSH2 0x1A2E SWAP2 SWAP1 PUSH2 0x3943 JUMP JUMPDEST LT ISZERO PUSH2 0x1A4C JUMPI PUSH1 0x40 MLOAD PUSH3 0x461BCD PUSH1 0xE5 SHL DUP2 MSTORE PUSH1 0x4 ADD PUSH2 0xB33 SWAP1 PUSH2 0x3A3E JUMP JUMPDEST PUSH1 0xD SLOAD PUSH1 0x9 SLOAD PUSH1 0x40 MLOAD PUSH4 0x23B872DD PUSH1 0xE0 SHL DUP2 MSTORE PUSH1 0x1 PUSH1 0x1 PUSH1 0xA0 SHL SUB SWAP3 DUP4 AND SWAP3 PUSH4 0x23B872DD SWAP3 PUSH2 0x1A85 SWAP3 CALLER SWAP3 SWAP1 SWAP2 AND SWAP1 DUP7 SWAP1 PUSH1 0x4 ADD PUSH2 0x396D JUMP JUMPDEST PUSH1 0x20 PUSH1 0x40 MLOAD DUP1 DUP4 SUB DUP2 PUSH0 DUP8 GAS CALL ISZERO DUP1 ISZERO PUSH2 0x1AA1 JUMPI RETURNDATASIZE PUSH0 PUSH0 RETURNDATACOPY RETURNDATASIZE PUSH0 REVERT JUMPDEST POP POP POP POP PUSH1 0x40 MLOAD RETURNDATASIZE PUSH1 0x1F NOT PUSH1 0x1F DUP3 ADD AND DUP3 ADD DUP1 PUSH1 0x40 MSTORE POP DUP2 ADD SWAP1 PUSH2 0x1AC5 SWAP2 SWAP1 PUSH2 0x3991 JUMP JUMPDEST POP POP JUMPDEST PUSH1 0xE SLOAD PUSH1 0x40 MLOAD PUSH4 0x512A7DD PUSH1 0xE3 SHL DUP2 MSTORE PUSH1 0x1 PUSH1 0x1 PUSH1 0xA0 SHL SUB SWAP1 SWAP2 AND SWAP1 PUSH4 0x28953EE8 SWAP1 PUSH2 0x1AFC SWAP1 CALLER SWAP1 DUP12 SWAP1 DUP12 SWAP1 PUSH1 0x4 ADD PUSH2 0x39AC JUMP JUMPDEST PUSH0 PUSH1 0x40 MLOAD DUP1 DUP4 SUB DUP2 PUSH0 DUP8 DUP1 EXTCODESIZE ISZERO DUP1 ISZERO PUSH2 0x1B13 JUMPI PUSH0 PUSH0 REVERT JUMPDEST POP GAS CALL ISZERO DUP1 ISZERO PUSH2 0x1B25 JUMPI RETURNDATASIZE PUSH0 PUSH0 RETURNDATACOPY RETURNDATASIZE PUSH0 REVERT JUMPDEST POP POP POP POP POP POP POP PUSH2 0x1B39 JUMP JUMPDEST PUSH1 0x1 ADD PUSH2 0x18B7 JUMP JUMPDEST POP POP PUSH2 0xB78 PUSH1 0x1 PUSH1 0x5 SSTORE JUMP JUMPDEST PUSH2 0x1B4D PUSH2 0x2EB8 JUMP JUMPDEST PUSH2 0x1B55 PUSH2 0x2EE2 JUMP JUMPDEST PUSH1 0x8 SLOAD PUSH1 0x40 MLOAD PUSH4 0x7E7CCD8B PUSH1 0xE1 SHL DUP2 MSTORE PUSH1 0x1 PUSH1 0x1 PUSH1 0xA0 SHL SUB SWAP1 SWAP2 AND SWAP1 PUSH4 0xFCF99B16 SWAP1 CALLVALUE SWAP1 PUSH2 0x1B8B SWAP1 CALLER SWAP1 DUP8 SWAP1 DUP8 SWAP1 PUSH1 0x4 ADD PUSH2 0x39AC JUMP JUMPDEST PUSH0 PUSH1 0x40 MLOAD DUP1 DUP4 SUB DUP2 DUP6 DUP9 DUP1 EXTCODESIZE ISZERO DUP1 ISZERO PUSH2 0x1BA2 JUMPI PUSH0 PUSH0 REVERT JUMPDEST POP GAS CALL ISZERO DUP1 ISZERO PUSH2 0x1BB4 JUMPI RETURNDATASIZE PUSH0 PUSH0 RETURNDATACOPY RETURNDATASIZE PUSH0 REVERT JUMPDEST POP POP POP POP POP PUSH2 0xB78 PUSH1 0x1 PUSH1 0x5 SSTORE JUMP JUMPDEST PUSH2 0x1BCB PUSH2 0x2EB8 JUMP JUMPDEST PUSH2 0x1BD3 PUSH2 0x2EE2 JUMP JUMPDEST PUSH1 0x9 SLOAD PUSH1 0x40 MLOAD PUSH4 0xF87825EF PUSH1 0xE0 SHL DUP2 MSTORE PUSH1 0x1 PUSH1 0x1 PUSH1 0xA0 SHL SUB SWAP1 SWAP2 AND SWAP1 PUSH4 0xF87825EF SWAP1 PUSH2 0x1C07 SWAP1 CALLER SWAP1 DUP7 SWAP1 DUP7 SWAP1 PUSH1 0x4 ADD PUSH2 0x39AC JUMP JUMPDEST PUSH0 PUSH1 0x40 MLOAD DUP1 DUP4 SUB DUP2 PUSH0 DUP8 DUP1 EXTCODESIZE ISZERO DUP1 ISZERO PUSH2 0x1C1E JUMPI PUSH0 PUSH0 REVERT JUMPDEST POP GAS CALL ISZERO DUP1 ISZERO PUSH2 0x1C30 JUMPI RETURNDATASIZE PUSH0 PUSH0 RETURNDATACOPY RETURNDATASIZE PUSH0 REVERT JUMPDEST POP POP POP POP PUSH2 0xB78 PUSH1 0x1 PUSH1 0x5 SSTORE JUMP JUMPDEST PUSH2 0x1C46 PUSH2 0x2EB8 JUMP JUMPDEST PUSH2 0x1C4E PUSH2 0x2EE2 JUMP JUMPDEST DUP1 PUSH2 0x1C58 CALLER PUSH2 0x1DE1 JUMP JUMPDEST LT ISZERO PUSH2 0x1C76 JUMPI PUSH1 0x40 MLOAD PUSH3 0x461BCD PUSH1 0xE5 SHL DUP2 MSTORE PUSH1 0x4 ADD PUSH2 0xB33 SWAP1 PUSH2 0x3A8A JUMP JUMPDEST DUP1 DUP3 PUSH2 0x1C82 DUP3 DUP3 PUSH2 0x375A JUMP JUMPDEST PUSH2 0x1C8C SWAP2 SWAP1 PUSH2 0x3734 JUMP JUMPDEST EQ PUSH2 0x1CA9 JUMPI PUSH1 0x40 MLOAD PUSH3 0x461BCD PUSH1 0xE5 SHL DUP2 MSTORE PUSH1 0x4 ADD PUSH2 0xB33 SWAP1 PUSH2 0x3AD0 JUMP JUMPDEST PUSH0 PUSH2 0x1CB5 CALLER ADDRESS DUP5 PUSH2 0xF95 JUMP JUMPDEST SWAP1 POP DUP1 PUSH2 0x1CD4 JUMPI PUSH1 0x40 MLOAD PUSH3 0x461BCD PUSH1 0xE5 SHL DUP2 MSTORE PUSH1 0x4 ADD PUSH2 0xB33 SWAP1 PUSH2 0x3AFC JUMP JUMPDEST PUSH1 0x8 SLOAD PUSH1 0x40 MLOAD PUSH4 0xDDC9497 PUSH1 0xE2 SHL DUP2 MSTORE PUSH1 0x1 PUSH1 0x1 PUSH1 0xA0 SHL SUB SWAP1 SWAP2 AND SWAP1 PUSH4 0x3772525C SWAP1 CALLVALUE SWAP1 PUSH2 0x1D0A SWAP1 CALLER SWAP1 DUP9 SWAP1 DUP9 SWAP1 PUSH1 0x4 ADD PUSH2 0x39AC JUMP JUMPDEST PUSH0 PUSH1 0x40 MLOAD DUP1 DUP4 SUB DUP2 DUP6 DUP9 DUP1 EXTCODESIZE ISZERO DUP1 ISZERO PUSH2 0x1425 JUMPI PUSH0 PUSH0 REVERT JUMPDEST PUSH2 0x1D29 PUSH2 0x2EB8 JUMP JUMPDEST PUSH2 0x1D31 PUSH2 0x2EE2 JUMP JUMPDEST PUSH1 0xA SLOAD PUSH1 0x40 MLOAD PUSH4 0x51272DA3 PUSH1 0xE1 SHL DUP2 MSTORE PUSH1 0x1 PUSH1 0x1 PUSH1 0xA0 SHL SUB SWAP1 SWAP2 AND SWAP1 PUSH4 0xA24E5B46 SWAP1 PUSH2 0x1D63 SWAP1 CALLER SWAP1 DUP6 SWAP1 PUSH1 0x4 ADD PUSH2 0x36E0 JUMP JUMPDEST PUSH0 PUSH1 0x40 MLOAD DUP1 DUP4 SUB DUP2 PUSH0 DUP8 DUP1 EXTCODESIZE ISZERO DUP1 ISZERO PUSH2 0x1D7A JUMPI PUSH0 PUSH0 REVERT JUMPDEST POP GAS CALL ISZERO DUP1 ISZERO PUSH2 0x1D8C JUMPI RETURNDATASIZE PUSH0 PUSH0 RETURNDATACOPY RETURNDATASIZE PUSH0 REVERT JUMPDEST POP POP POP POP PUSH2 0xF92 PUSH1 0x1 PUSH1 0x5 SSTORE JUMP JUMPDEST PUSH1 0xF SLOAD PUSH1 0x40 DUP1 MLOAD PUSH4 0x6CCA424F PUSH1 0xE0 SHL DUP2 MSTORE SWAP1 MLOAD PUSH1 0x60 SWAP3 PUSH1 0x1 PUSH1 0x1 PUSH1 0xA0 SHL SUB AND SWAP2 PUSH4 0x6CCA424F SWAP2 PUSH1 0x4 DUP1 DUP4 ADD SWAP3 PUSH0 SWAP3 SWAP2 SWAP1 DUP3 SWAP1 SUB ADD DUP2 DUP7 GAS STATICCALL ISZERO DUP1 ISZERO PUSH2 0xFFF JUMPI RETURNDATASIZE PUSH0 PUSH0 RETURNDATACOPY RETURNDATASIZE PUSH0 REVERT JUMPDEST PUSH1 0x1 PUSH1 0x1 PUSH1 0xA0 SHL SUB AND PUSH0 SWAP1 DUP2 MSTORE PUSH1 0x20 DUP2 SWAP1 MSTORE PUSH1 0x40 SWAP1 KECCAK256 SLOAD SWAP1 JUMP JUMPDEST PUSH2 0x1E03 PUSH2 0x2EB8 JUMP JUMPDEST PUSH2 0x1E0B PUSH2 0x2EE2 JUMP JUMPDEST PUSH1 0x9 SLOAD PUSH1 0x40 MLOAD PUSH4 0x12E9F0BD PUSH1 0xE2 SHL DUP2 MSTORE PUSH1 0x1 PUSH1 0x1 PUSH1 0xA0 SHL SUB SWAP1 SWAP2 AND SWAP1 PUSH4 0x4BA7C2F4 SWAP1 CALLVALUE SWAP1 PUSH2 0x1B8B SWAP1 CALLER SWAP1 DUP8 SWAP1 DUP8 SWAP1 PUSH1 0x4 ADD PUSH2 0x39AC JUMP JUMPDEST PUSH2 0x1E49 PUSH2 0x2EE2 JUMP JUMPDEST CALLER PUSH0 SWAP1 DUP2 MSTORE PUSH1 0x7 PUSH1 0x20 MSTORE PUSH1 0x40 SWAP1 KECCAK256 SLOAD PUSH1 0xFF AND PUSH2 0x1E77 JUMPI PUSH1 0x40 MLOAD PUSH3 0x461BCD PUSH1 0xE5 SHL DUP2 MSTORE PUSH1 0x4 ADD PUSH2 0xB33 SWAP1 PUSH2 0x36B8 JUMP JUMPDEST PUSH2 0x1E7F PUSH2 0x2EB8 JUMP JUMPDEST PUSH2 0x12D6 PUSH2 0x308A JUMP JUMPDEST PUSH1 0x9 SLOAD PUSH1 0x40 DUP1 MLOAD PUSH4 0x118CB493 PUSH1 0xE3 SHL DUP2 MSTORE SWAP1 MLOAD PUSH1 0x60 SWAP3 PUSH1 0x1 PUSH1 0x1 PUSH1 0xA0 SHL SUB AND SWAP2 PUSH4 0x8C65A498 SWAP2 PUSH1 0x4 DUP1 DUP4 ADD SWAP3 PUSH0 SWAP3 SWAP2 SWAP1 DUP3 SWAP1 SUB ADD DUP2 DUP7 GAS STATICCALL ISZERO DUP1 ISZERO PUSH2 0xFFF JUMPI RETURNDATASIZE PUSH0 PUSH0 RETURNDATACOPY RETURNDATASIZE PUSH0 REVERT JUMPDEST PUSH2 0x1ED6 PUSH2 0x2EB8 JUMP JUMPDEST PUSH2 0x1EDE PUSH2 0x2EE2 JUMP JUMPDEST DUP1 PUSH2 0x1EE8 CALLER PUSH2 0x1DE1 JUMP JUMPDEST LT ISZERO PUSH2 0x1F06 JUMPI PUSH1 0x40 MLOAD PUSH3 0x461BCD PUSH1 0xE5 SHL DUP2 MSTORE PUSH1 0x4 ADD PUSH2 0xB33 SWAP1 PUSH2 0x3A8A JUMP JUMPDEST DUP1 DUP3 PUSH2 0x1F12 DUP3 DUP3 PUSH2 0x375A JUMP JUMPDEST PUSH2 0x1F1C SWAP2 SWAP1 PUSH2 0x3734 JUMP JUMPDEST EQ PUSH2 0x1F39 JUMPI PUSH1 0x40 MLOAD PUSH3 0x461BCD PUSH1 0xE5 SHL DUP2 MSTORE PUSH1 0x4 ADD PUSH2 0xB33 SWAP1 PUSH2 0x3AD0 JUMP JUMPDEST PUSH0 PUSH2 0x1F45 CALLER ADDRESS DUP5 PUSH2 0xF95 JUMP JUMPDEST SWAP1 POP DUP1 PUSH2 0x1F64 JUMPI PUSH1 0x40 MLOAD PUSH3 0x461BCD PUSH1 0xE5 SHL DUP2 MSTORE PUSH1 0x4 ADD PUSH2 0xB33 SWAP1 PUSH2 0x3AFC JUMP JUMPDEST PUSH1 0x8 SLOAD PUSH1 0x40 MLOAD PUSH4 0x2D17F22D PUSH1 0xE1 SHL DUP2 MSTORE PUSH1 0x1 PUSH1 0x1 PUSH1 0xA0 SHL SUB SWAP1 SWAP2 AND SWAP1 PUSH4 0x5A2FE45A SWAP1 CALLVALUE SWAP1 PUSH2 0x1D0A SWAP1 CALLER SWAP1 DUP9 SWAP1 DUP9 SWAP1 PUSH1 0x4 ADD PUSH2 0x39AC JUMP JUMPDEST PUSH2 0x1FA2 PUSH2 0x2EB8 JUMP JUMPDEST PUSH2 0x1FAA PUSH2 0x2EE2 JUMP JUMPDEST PUSH1 0xF SLOAD PUSH1 0x40 MLOAD PUSH4 0x327EBC65 PUSH1 0xE0 SHL DUP2 MSTORE PUSH1 0x1 PUSH1 0x1 PUSH1 0xA0 SHL SUB SWAP1 SWAP2 AND SWAP1 PUSH4 0x327EBC65 SWAP1 PUSH2 0x1C07 SWAP1 CALLER SWAP1 DUP7 SWAP1 DUP7 SWAP1 PUSH1 0x4 ADD PUSH2 0x39AC JUMP JUMPDEST PUSH1 0x60 PUSH1 0x4 DUP1 SLOAD PUSH2 0xA6B SWAP1 PUSH2 0x3680 JUMP JUMPDEST CALLER PUSH0 SWAP1 DUP2 MSTORE PUSH1 0x7 PUSH1 0x20 MSTORE PUSH1 0x40 SWAP1 KECCAK256 SLOAD PUSH1 0xFF AND PUSH2 0x201B JUMPI PUSH1 0x40 MLOAD PUSH3 0x461BCD PUSH1 0xE5 SHL DUP2 MSTORE PUSH1 0x4 ADD PUSH2 0xB33 SWAP1 PUSH2 0x36B8 JUMP JUMPDEST PUSH2 0x2023 PUSH2 0x2EB8 JUMP JUMPDEST PUSH2 0x202B PUSH2 0x2EE2 JUMP JUMPDEST PUSH1 0x8 DUP1 SLOAD PUSH1 0x1 PUSH1 0x1 PUSH1 0xA0 SHL SUB NOT SWAP1 DUP2 AND PUSH1 0x1 PUSH1 0x1 PUSH1 0xA0 SHL SUB DUP12 DUP2 AND SWAP2 SWAP1 SWAP2 OR SWAP1 SWAP3 SSTORE PUSH1 0x9 DUP1 SLOAD DUP3 AND DUP11 DUP5 AND OR SWAP1 SSTORE PUSH1 0xA DUP1 SLOAD DUP3 AND DUP10 DUP5 AND OR SWAP1 SSTORE PUSH1 0xB DUP1 SLOAD DUP3 AND DUP9 DUP5 AND OR SWAP1 SSTORE PUSH1 0xD DUP1 SLOAD DUP3 AND DUP8 DUP5 AND OR SWAP1 SSTORE PUSH1 0xE DUP1 SLOAD DUP3 AND DUP7 DUP5 AND OR SWAP1 SSTORE PUSH1 0xF DUP1 SLOAD DUP3 AND DUP6 DUP5 AND OR SWAP1 SSTORE PUSH1 0x10 DUP1 SLOAD SWAP1 SWAP2 AND SWAP2 DUP4 AND SWAP2 SWAP1 SWAP2 OR SWAP1 SSTORE PUSH1 0x1 PUSH1 0x5 SSTORE POP POP POP POP POP POP POP POP JUMP JUMPDEST PUSH0 PUSH2 0x20BD PUSH2 0x2EE2 JUMP JUMPDEST PUSH0 PUSH2 0x20C8 DUP5 DUP5 PUSH2 0x30C7 JUMP JUMPDEST SWAP1 POP DUP1 ISZERO PUSH2 0x219D JUMPI PUSH1 0x10 SLOAD PUSH1 0x1 PUSH1 0x1 PUSH1 0xA0 SHL SUB AND PUSH4 0xE0B1CCCB CALLER PUSH2 0x20EB DUP2 PUSH2 0x1DE1 JUMP JUMPDEST PUSH1 0x40 MLOAD DUP4 PUSH4 0xFFFFFFFF AND PUSH1 0xE0 SHL DUP2 MSTORE PUSH1 0x4 ADD PUSH2 0x2108 SWAP3 SWAP2 SWAP1 PUSH2 0x36E0 JUMP JUMPDEST PUSH0 PUSH1 0x40 MLOAD DUP1 DUP4 SUB DUP2 PUSH0 DUP8 DUP1 EXTCODESIZE ISZERO DUP1 ISZERO PUSH2 0x211F JUMPI PUSH0 PUSH0 REVERT JUMPDEST POP GAS CALL ISZERO DUP1 ISZERO PUSH2 0x2131 JUMPI RETURNDATASIZE PUSH0 PUSH0 RETURNDATACOPY RETURNDATASIZE PUSH0 REVERT JUMPDEST POP POP PUSH1 0x10 SLOAD PUSH1 0x1 PUSH1 0x1 PUSH1 0xA0 SHL SUB AND SWAP2 POP PUSH4 0xE0B1CCCB SWAP1 POP DUP6 PUSH2 0x2152 DUP2 PUSH2 0x1DE1 JUMP JUMPDEST PUSH1 0x40 MLOAD DUP4 PUSH4 0xFFFFFFFF AND PUSH1 0xE0 SHL DUP2 MSTORE PUSH1 0x4 ADD PUSH2 0x216F SWAP3 SWAP2 SWAP1 PUSH2 0x36E0 JUMP JUMPDEST PUSH0 PUSH1 0x40 MLOAD DUP1 DUP4 SUB DUP2 PUSH0 DUP8 DUP1 EXTCODESIZE ISZERO DUP1 ISZERO PUSH2 0x2186 JUMPI PUSH0 PUSH0 REVERT JUMPDEST POP GAS CALL ISZERO DUP1 ISZERO PUSH2 0x2198 JUMPI RETURNDATASIZE PUSH0 PUSH0 RETURNDATACOPY RETURNDATASIZE PUSH0 REVERT JUMPDEST POP POP POP POP JUMPDEST SWAP4 SWAP3 POP POP POP JUMP JUMPDEST PUSH2 0x21AC PUSH2 0x2EB8 JUMP JUMPDEST PUSH2 0x21B4 PUSH2 0x2EE2 JUMP JUMPDEST DUP1 PUSH2 0x21BE CALLER PUSH2 0x1DE1 JUMP JUMPDEST LT ISZERO PUSH2 0x21DC JUMPI PUSH1 0x40 MLOAD PUSH3 0x461BCD PUSH1 0xE5 SHL DUP2 MSTORE PUSH1 0x4 ADD PUSH2 0xB33 SWAP1 PUSH2 0x3A8A JUMP JUMPDEST DUP1 DUP3 PUSH2 0x21E8 DUP3 DUP3 PUSH2 0x375A JUMP JUMPDEST PUSH2 0x21F2 SWAP2 SWAP1 PUSH2 0x3734 JUMP JUMPDEST EQ PUSH2 0x220F JUMPI PUSH1 0x40 MLOAD PUSH3 0x461BCD PUSH1 0xE5 SHL DUP2 MSTORE PUSH1 0x4 ADD PUSH2 0xB33 SWAP1 PUSH2 0x3AD0 JUMP JUMPDEST PUSH0 PUSH2 0x221B CALLER ADDRESS DUP5 PUSH2 0xF95 JUMP JUMPDEST SWAP1 POP DUP1 PUSH2 0x223A JUMPI PUSH1 0x40 MLOAD PUSH3 0x461BCD PUSH1 0xE5 SHL DUP2 MSTORE PUSH1 0x4 ADD PUSH2 0xB33 SWAP1 PUSH2 0x3AFC JUMP JUMPDEST PUSH1 0x8 SLOAD PUSH1 0x40 MLOAD PUSH4 0x573DBDE9 PUSH1 0xE1 SHL DUP2 MSTORE PUSH1 0x1 PUSH1 0x1 PUSH1 0xA0 SHL SUB SWAP1 SWAP2 AND SWAP1 PUSH4 0xAE7B7BD2 SWAP1 CALLVALUE SWAP1 PUSH2 0x1D0A SWAP1 CALLER SWAP1 DUP9 SWAP1 DUP9 SWAP1 PUSH1 0x4 ADD PUSH2 0x39AC JUMP JUMPDEST CALLER PUSH0 SWAP1 DUP2 MSTORE PUSH1 0x7 PUSH1 0x20 MSTORE PUSH1 0x40 SWAP1 KECCAK256 SLOAD PUSH1 0xFF AND PUSH2 0x229E JUMPI PUSH1 0x40 MLOAD PUSH3 0x461BCD PUSH1 0xE5 SHL DUP2 MSTORE PUSH1 0x4 ADD PUSH2 0xB33 SWAP1 PUSH2 0x36B8 JUMP JUMPDEST PUSH2 0x22A6 PUSH2 0x2EB8 JUMP JUMPDEST PUSH2 0x22AE PUSH2 0x2EE2 JUMP JUMPDEST PUSH0 PUSH0 PUSH1 0x10 PUSH0 SWAP1 SLOAD SWAP1 PUSH2 0x100 EXP SWAP1 DIV PUSH1 0x1 PUSH1 0x1 PUSH1 0xA0 SHL SUB AND PUSH1 0x1 PUSH1 0x1 PUSH1 0xA0 SHL SUB AND PUSH4 0x867E7C27 PUSH1 0x40 MLOAD DUP2 PUSH4 0xFFFFFFFF AND PUSH1 0xE0 SHL DUP2 MSTORE PUSH1 0x4 ADD PUSH0 PUSH1 0x40 MLOAD DUP1 DUP4 SUB DUP2 DUP7 GAS STATICCALL ISZERO DUP1 ISZERO PUSH2 0x22FF JUMPI RETURNDATASIZE PUSH0 PUSH0 RETURNDATACOPY RETURNDATASIZE PUSH0 REVERT JUMPDEST POP POP POP POP PUSH1 0x40 MLOAD RETURNDATASIZE PUSH0 DUP3 RETURNDATACOPY PUSH1 0x1F RETURNDATASIZE SWAP1 DUP2 ADD PUSH1 0x1F NOT AND DUP3 ADD PUSH1 0x40 MSTORE PUSH2 0x2326 SWAP2 SWAP1 DUP2 ADD SWAP1 PUSH2 0x3B90 JUMP JUMPDEST SWAP1 SWAP3 POP SWAP1 POP PUSH0 JUMPDEST DUP3 MLOAD DUP2 LT ISZERO PUSH2 0x237A JUMPI PUSH2 0x2372 DUP4 DUP3 DUP2 MLOAD DUP2 LT PUSH2 0x234B JUMPI PUSH2 0x234B PUSH2 0x39CD JUMP JUMPDEST PUSH1 0x20 MUL PUSH1 0x20 ADD ADD MLOAD DUP4 DUP4 DUP2 MLOAD DUP2 LT PUSH2 0x2365 JUMPI PUSH2 0x2365 PUSH2 0x39CD JUMP JUMPDEST PUSH1 0x20 MUL PUSH1 0x20 ADD ADD MLOAD PUSH2 0x12E2 JUMP JUMPDEST PUSH1 0x1 ADD PUSH2 0x232D JUMP JUMPDEST POP POP POP PUSH2 0x12E0 PUSH1 0x1 PUSH1 0x5 SSTORE JUMP JUMPDEST PUSH2 0x238F PUSH2 0x2EB8 JUMP JUMPDEST PUSH2 0x2397 PUSH2 0x2EE2 JUMP JUMPDEST PUSH1 0xE SLOAD PUSH1 0x40 MLOAD PUSH4 0xA95767B9 PUSH1 0xE0 SHL DUP2 MSTORE PUSH1 0x1 PUSH1 0x1 PUSH1 0xA0 SHL SUB SWAP1 SWAP2 AND SWAP1 PUSH4 0xA95767B9 SWAP1 PUSH2 0x1C07 SWAP1 CALLER SWAP1 DUP7 SWAP1 DUP7 SWAP1 PUSH1 0x4 ADD PUSH2 0x39AC JUMP JUMPDEST CALLER PUSH0 SWAP1 DUP2 MSTORE PUSH1 0x7 PUSH1 0x20 MSTORE PUSH1 0x40 SWAP1 KECCAK256 SLOAD PUSH1 0xFF AND PUSH2 0x23F9 JUMPI PUSH1 0x40 MLOAD PUSH3 0x461BCD PUSH1 0xE5 SHL DUP2 MSTORE PUSH1 0x4 ADD PUSH2 0xB33 SWAP1 PUSH2 0x36B8 JUMP JUMPDEST PUSH2 0x2401 PUSH2 0x2EB8 JUMP JUMPDEST PUSH2 0x2409 PUSH2 0x2EE2 JUMP JUMPDEST PUSH1 0x15 DUP1 SLOAD PUSH1 0x1 PUSH1 0x1 PUSH1 0xA0 SHL SUB NOT SWAP1 DUP2 AND PUSH1 0x1 PUSH1 0x1 PUSH1 0xA0 SHL SUB DUP9 DUP2 AND SWAP2 SWAP1 SWAP2 OR SWAP1 SWAP3 SSTORE PUSH1 0x16 DUP1 SLOAD DUP3 AND DUP8 DUP5 AND OR SWAP1 SSTORE PUSH1 0x17 DUP1 SLOAD DUP3 AND DUP7 DUP5 AND OR SWAP1 SSTORE PUSH1 0x18 DUP1 SLOAD DUP3 AND DUP6 DUP5 AND OR SWAP1 SSTORE PUSH1 0x19 DUP1 SLOAD SWAP1 SWAP2 AND SWAP2 DUP4 AND SWAP2 SWAP1 SWAP2 OR SWAP1 SSTORE PUSH1 0x1 PUSH1 0x5 SSTORE POP POP POP POP POP JUMP JUMPDEST CALLER PUSH0 SWAP1 DUP2 MSTORE PUSH1 0x7 PUSH1 0x20 MSTORE PUSH1 0x40 DUP2 KECCAK256 SLOAD PUSH1 0xFF AND PUSH2 0x2499 JUMPI PUSH1 0x40 MLOAD PUSH3 0x461BCD PUSH1 0xE5 SHL DUP2 MSTORE PUSH1 0x4 ADD PUSH2 0xB33 SWAP1 PUSH2 0x36B8 JUMP JUMPDEST PUSH2 0x24A1 PUSH2 0x2EE2 JUMP JUMPDEST PUSH2 0x24AC DUP5 DUP5 DUP5 PUSH2 0x2EA6 JUMP JUMPDEST POP PUSH1 0x1 SWAP4 SWAP3 POP POP POP JUMP JUMPDEST PUSH1 0x1 PUSH1 0x1 PUSH1 0xA0 SHL SUB SWAP2 DUP3 AND PUSH0 SWAP1 DUP2 MSTORE PUSH1 0x1 PUSH1 0x20 SWAP1 DUP2 MSTORE PUSH1 0x40 DUP1 DUP4 KECCAK256 SWAP4 SWAP1 SWAP5 AND DUP3 MSTORE SWAP2 SWAP1 SWAP2 MSTORE KECCAK256 SLOAD SWAP1 JUMP JUMPDEST PUSH1 0xE SLOAD PUSH1 0x40 DUP1 MLOAD PUSH4 0xEBE4E82F PUSH1 0xE0 SHL DUP2 MSTORE SWAP1 MLOAD PUSH1 0x60 SWAP3 PUSH1 0x1 PUSH1 0x1 PUSH1 0xA0 SHL SUB AND SWAP2 PUSH4 0xEBE4E82F SWAP2 PUSH1 0x4 DUP1 DUP4 ADD SWAP3 PUSH0 SWAP3 SWAP2 SWAP1 DUP3 SWAP1 SUB ADD DUP2 DUP7 GAS STATICCALL ISZERO DUP1 ISZERO PUSH2 0xFFF JUMPI RETURNDATASIZE PUSH0 PUSH0 RETURNDATACOPY RETURNDATASIZE PUSH0 REVERT JUMPDEST PUSH2 0x252F PUSH2 0x2EB8 JUMP JUMPDEST PUSH2 0x2537 PUSH2 0x2EE2 JUMP JUMPDEST PUSH0 PUSH2 0x3E8 PUSH2 0x2545 DUP4 DUP6 PUSH2 0x375A JUMP JUMPDEST PUSH2 0x254F SWAP2 SWAP1 PUSH2 0x3734 JUMP JUMPDEST SWAP1 POP PUSH0 PUSH1 0xB PUSH0 SWAP1 SLOAD SWAP1 PUSH2 0x100 EXP SWAP1 DIV PUSH1 0x1 PUSH1 0x1 PUSH1 0xA0 SHL SUB AND PUSH1 0x1 PUSH1 0x1 PUSH1 0xA0 SHL SUB AND PUSH4 0xDD644F72 PUSH1 0x40 MLOAD DUP2 PUSH4 0xFFFFFFFF AND PUSH1 0xE0 SHL DUP2 MSTORE PUSH1 0x4 ADD PUSH1 0x20 PUSH1 0x40 MLOAD DUP1 DUP4 SUB DUP2 DUP7 GAS STATICCALL ISZERO DUP1 ISZERO PUSH2 0x25A2 JUMPI RETURNDATASIZE PUSH0 PUSH0 RETURNDATACOPY RETURNDATASIZE PUSH0 REVERT JUMPDEST POP POP POP POP PUSH1 0x40 MLOAD RETURNDATASIZE PUSH1 0x1F NOT PUSH1 0x1F DUP3 ADD AND DUP3 ADD DUP1 PUSH1 0x40 MSTORE POP DUP2 ADD SWAP1 PUSH2 0x25C6 SWAP2 SWAP1 PUSH2 0x3943 JUMP JUMPDEST SWAP1 POP PUSH0 PUSH1 0xB PUSH0 SWAP1 SLOAD SWAP1 PUSH2 0x100 EXP SWAP1 DIV PUSH1 0x1 PUSH1 0x1 PUSH1 0xA0 SHL SUB AND PUSH1 0x1 PUSH1 0x1 PUSH1 0xA0 SHL SUB AND PUSH4 0x35390714 PUSH1 0x40 MLOAD DUP2 PUSH4 0xFFFFFFFF AND PUSH1 0xE0 SHL DUP2 MSTORE PUSH1 0x4 ADD PUSH1 0x20 PUSH1 0x40 MLOAD DUP1 DUP4 SUB DUP2 DUP7 GAS STATICCALL ISZERO DUP1 ISZERO PUSH2 0x2619 JUMPI RETURNDATASIZE PUSH0 PUSH0 RETURNDATACOPY RETURNDATASIZE PUSH0 REVERT JUMPDEST POP POP POP POP PUSH1 0x40 MLOAD RETURNDATASIZE PUSH1 0x1F NOT PUSH1 0x1F DUP3 ADD AND DUP3 ADD DUP1 PUSH1 0x40 MSTORE POP DUP2 ADD SWAP1 PUSH2 0x263D SWAP2 SWAP1 PUSH2 0x3943 JUMP JUMPDEST SWAP1 POP DUP3 PUSH0 DUP4 ISZERO PUSH2 0x26A7 JUMPI PUSH2 0x2653 DUP5 PUSH2 0x2710 PUSH2 0x395A JUMP JUMPDEST PUSH2 0x265F DUP7 PUSH2 0x2710 PUSH2 0x375A JUMP JUMPDEST PUSH2 0x2669 SWAP2 SWAP1 PUSH2 0x3734 JUMP JUMPDEST SWAP2 POP PUSH2 0x2710 PUSH2 0x2678 DUP6 DUP5 PUSH2 0x375A JUMP JUMPDEST PUSH2 0x2682 SWAP2 SWAP1 PUSH2 0x3734 JUMP JUMPDEST SWAP1 POP PUSH0 DUP4 GT DUP1 ISZERO PUSH2 0x2692 JUMPI POP DUP3 DUP2 GT JUMPDEST ISZERO PUSH2 0x269A JUMPI POP DUP2 JUMPDEST PUSH2 0x26A4 DUP2 DUP7 PUSH2 0x3747 JUMP JUMPDEST SWAP2 POP JUMPDEST PUSH1 0xB SLOAD PUSH1 0x40 MLOAD PUSH4 0x70A08231 PUSH1 0xE0 SHL DUP2 MSTORE DUP4 SWAP2 PUSH1 0x1 PUSH1 0x1 PUSH1 0xA0 SHL SUB AND SWAP1 PUSH4 0x70A08231 SWAP1 PUSH2 0x26D7 SWAP1 CALLER SWAP1 PUSH1 0x4 ADD PUSH2 0x3375 JUMP JUMPDEST PUSH1 0x20 PUSH1 0x40 MLOAD DUP1 DUP4 SUB DUP2 DUP7 GAS STATICCALL ISZERO DUP1 ISZERO PUSH2 0x26F2 JUMPI RETURNDATASIZE PUSH0 PUSH0 RETURNDATACOPY RETURNDATASIZE PUSH0 REVERT JUMPDEST POP POP POP POP PUSH1 0x40 MLOAD RETURNDATASIZE PUSH1 0x1F NOT PUSH1 0x1F DUP3 ADD AND DUP3 ADD DUP1 PUSH1 0x40 MSTORE POP DUP2 ADD SWAP1 PUSH2 0x2716 SWAP2 SWAP1 PUSH2 0x3943 JUMP JUMPDEST LT ISZERO PUSH2 0x275B JUMPI PUSH1 0x40 MLOAD PUSH3 0x461BCD PUSH1 0xE5 SHL DUP2 MSTORE PUSH1 0x20 PUSH1 0x4 DUP3 ADD MSTORE PUSH1 0x14 PUSH1 0x24 DUP3 ADD MSTORE PUSH20 0x496E73756666696369656E742062616C616E6365 PUSH1 0x60 SHL PUSH1 0x44 DUP3 ADD MSTORE PUSH1 0x64 ADD PUSH2 0xB33 JUMP JUMPDEST PUSH1 0xB SLOAD PUSH1 0x40 MLOAD PUSH4 0x6EB1769F PUSH1 0xE1 SHL DUP2 MSTORE DUP4 SWAP2 PUSH1 0x1 PUSH1 0x1 PUSH1 0xA0 SHL SUB AND SWAP1 PUSH4 0xDD62ED3E SWAP1 PUSH2 0x278D SWAP1 CALLER SWAP1 ADDRESS SWAP1 PUSH1 0x4 ADD PUSH2 0x3A24 JUMP JUMPDEST PUSH1 0x20 PUSH1 0x40 MLOAD DUP1 DUP4 SUB DUP2 DUP7 GAS STATICCALL ISZERO DUP1 ISZERO PUSH2 0x27A8 JUMPI RETURNDATASIZE PUSH0 PUSH0 RETURNDATACOPY RETURNDATASIZE PUSH0 REVERT JUMPDEST POP POP POP POP PUSH1 0x40 MLOAD RETURNDATASIZE PUSH1 0x1F NOT PUSH1 0x1F DUP3 ADD AND DUP3 ADD DUP1 PUSH1 0x40 MSTORE POP DUP2 ADD SWAP1 PUSH2 0x27CC SWAP2 SWAP1 PUSH2 0x3943 JUMP JUMPDEST LT ISZERO PUSH2 0x2813 JUMPI PUSH1 0x40 MLOAD PUSH3 0x461BCD PUSH1 0xE5 SHL DUP2 MSTORE PUSH1 0x20 PUSH1 0x4 DUP3 ADD MSTORE PUSH1 0x16 PUSH1 0x24 DUP3 ADD MSTORE PUSH22 0x496E73756666696369656E7420616C6C6F77616E6365 PUSH1 0x50 SHL PUSH1 0x44 DUP3 ADD MSTORE PUSH1 0x64 ADD PUSH2 0xB33 JUMP JUMPDEST PUSH1 0xB SLOAD PUSH1 0x9 SLOAD PUSH1 0x40 MLOAD PUSH0 SWAP3 DUP4 SWAP3 PUSH1 0x1 PUSH1 0x1 PUSH1 0xA0 SHL SUB SWAP2 DUP3 AND SWAP3 PUSH4 0x23B872DD PUSH1 0xE0 SHL SWAP3 PUSH2 0x2848 SWAP3 CALLER SWAP3 SWAP2 AND SWAP1 DUP10 SWAP1 PUSH1 0x24 ADD PUSH2 0x396D JUMP JUMPDEST PUSH1 0x40 DUP1 MLOAD PUSH1 0x1F NOT DUP2 DUP5 SUB ADD DUP2 MSTORE SWAP2 DUP2 MSTORE PUSH1 0x20 DUP3 ADD DUP1 MLOAD PUSH1 0x1 PUSH1 0x1 PUSH1 0xE0 SHL SUB AND PUSH1 0x1 PUSH1 0x1 PUSH1 0xE0 SHL SUB NOT SWAP1 SWAP5 AND SWAP4 SWAP1 SWAP4 OR SWAP1 SWAP3 MSTORE SWAP1 MLOAD PUSH2 0x2886 SWAP2 SWAP1 PUSH2 0x3C55 JUMP JUMPDEST PUSH0 PUSH1 0x40 MLOAD DUP1 DUP4 SUB DUP2 PUSH0 DUP7 GAS CALL SWAP2 POP POP RETURNDATASIZE DUP1 PUSH0 DUP2 EQ PUSH2 0x28BF JUMPI PUSH1 0x40 MLOAD SWAP2 POP PUSH1 0x1F NOT PUSH1 0x3F RETURNDATASIZE ADD AND DUP3 ADD PUSH1 0x40 MSTORE RETURNDATASIZE DUP3 MSTORE RETURNDATASIZE PUSH0 PUSH1 0x20 DUP5 ADD RETURNDATACOPY PUSH2 0x28C4 JUMP JUMPDEST PUSH1 0x60 SWAP2 POP JUMPDEST POP SWAP2 POP SWAP2 POP DUP2 DUP2 SWAP1 PUSH2 0x28E9 JUMPI PUSH1 0x40 MLOAD PUSH3 0x461BCD PUSH1 0xE5 SHL DUP2 MSTORE PUSH1 0x4 ADD PUSH2 0xB33 SWAP2 SWAP1 PUSH2 0x3302 JUMP JUMPDEST POP PUSH1 0x8 SLOAD PUSH1 0x40 MLOAD PUSH4 0x9815005F PUSH1 0xE0 SHL DUP2 MSTORE PUSH1 0x1 PUSH1 0x1 PUSH1 0xA0 SHL SUB SWAP1 SWAP2 AND SWAP1 PUSH4 0x9815005F SWAP1 CALLVALUE SWAP1 PUSH2 0x2920 SWAP1 CALLER SWAP1 DUP15 SWAP1 DUP15 SWAP1 PUSH1 0x4 ADD PUSH2 0x39AC JUMP JUMPDEST PUSH0 PUSH1 0x40 MLOAD DUP1 DUP4 SUB DUP2 DUP6 DUP9 DUP1 EXTCODESIZE ISZERO DUP1 ISZERO PUSH2 0x2937 JUMPI PUSH0 PUSH0 REVERT JUMPDEST POP GAS CALL ISZERO DUP1 ISZERO PUSH2 0x2949 JUMPI RETURNDATASIZE PUSH0 PUSH0 RETURNDATACOPY RETURNDATASIZE PUSH0 REVERT JUMPDEST POP POP POP POP POP POP POP POP POP POP POP POP PUSH2 0xB78 PUSH1 0x1 PUSH1 0x5 SSTORE JUMP JUMPDEST PUSH2 0x2967 PUSH2 0x2EB8 JUMP JUMPDEST PUSH2 0x296F PUSH2 0x2EE2 JUMP JUMPDEST PUSH1 0xF SLOAD PUSH1 0x40 DUP1 MLOAD PUSH4 0x2465AF11 PUSH1 0xE0 SHL DUP2 MSTORE SWAP1 MLOAD PUSH0 SWAP3 PUSH1 0x1 PUSH1 0x1 PUSH1 0xA0 SHL SUB AND SWAP2 PUSH4 0x2465AF11 SWAP2 PUSH1 0x4 DUP1 DUP4 ADD SWAP3 DUP7 SWAP3 SWAP2 SWAP1 DUP3 SWAP1 SUB ADD DUP2 DUP7 GAS STATICCALL ISZERO DUP1 ISZERO PUSH2 0x29B5 JUMPI RETURNDATASIZE PUSH0 PUSH0 RETURNDATACOPY RETURNDATASIZE PUSH0 REVERT JUMPDEST POP POP POP POP PUSH1 0x40 MLOAD RETURNDATASIZE PUSH0 DUP3 RETURNDATACOPY PUSH1 0x1F RETURNDATASIZE SWAP1 DUP2 ADD PUSH1 0x1F NOT AND DUP3 ADD PUSH1 0x40 MSTORE PUSH2 0x29DC SWAP2 SWAP1 DUP2 ADD SWAP1 PUSH2 0x382C JUMP JUMPDEST SWAP1 POP PUSH0 JUMPDEST DUP2 MLOAD DUP2 LT ISZERO PUSH2 0x1B39 JUMPI DUP4 DUP3 DUP3 DUP2 MLOAD DUP2 LT PUSH2 0x29FC JUMPI PUSH2 0x29FC PUSH2 0x39CD JUMP JUMPDEST PUSH1 0x20 MUL PUSH1 0x20 ADD ADD MLOAD PUSH0 ADD MLOAD SUB PUSH2 0x2E9E JUMPI CALLER PUSH1 0x1 PUSH1 0x1 PUSH1 0xA0 SHL SUB AND DUP3 DUP3 DUP2 MLOAD DUP2 LT PUSH2 0x2A28 JUMPI PUSH2 0x2A28 PUSH2 0x39CD JUMP JUMPDEST PUSH1 0x20 MUL PUSH1 0x20 ADD ADD MLOAD PUSH1 0x20 ADD MLOAD PUSH1 0x1 PUSH1 0x1 PUSH1 0xA0 SHL SUB AND EQ PUSH2 0x2A5A JUMPI PUSH1 0x40 MLOAD PUSH3 0x461BCD PUSH1 0xE5 SHL DUP2 MSTORE PUSH1 0x4 ADD PUSH2 0xB33 SWAP1 PUSH2 0x39E1 JUMP JUMPDEST PUSH0 DUP3 DUP3 DUP2 MLOAD DUP2 LT PUSH2 0x2A6D JUMPI PUSH2 0x2A6D PUSH2 0x39CD JUMP JUMPDEST PUSH1 0x20 MUL PUSH1 0x20 ADD ADD MLOAD PUSH1 0x60 ADD MLOAD SWAP1 POP PUSH0 PUSH2 0x3E8 DUP3 DUP6 DUP6 DUP2 MLOAD DUP2 LT PUSH2 0x2A92 JUMPI PUSH2 0x2A92 PUSH2 0x39CD JUMP JUMPDEST PUSH1 0x20 MUL PUSH1 0x20 ADD ADD MLOAD PUSH1 0x40 ADD MLOAD PUSH2 0x2AA8 SWAP2 SWAP1 PUSH2 0x375A JUMP JUMPDEST PUSH2 0x2AB2 SWAP2 SWAP1 PUSH2 0x3734 JUMP JUMPDEST SWAP1 POP PUSH0 PUSH2 0x3E8 PUSH2 0x2AC2 DUP5 DUP9 PUSH2 0x375A JUMP JUMPDEST PUSH2 0x2ACC SWAP2 SWAP1 PUSH2 0x3734 JUMP JUMPDEST SWAP1 POP DUP2 DUP2 GT ISZERO PUSH2 0x2E6A JUMPI PUSH0 DUP1 PUSH2 0x2AE2 DUP5 DUP5 PUSH2 0x395A JUMP JUMPDEST SWAP1 POP PUSH0 PUSH1 0xB PUSH0 SWAP1 SLOAD SWAP1 PUSH2 0x100 EXP SWAP1 DIV PUSH1 0x1 PUSH1 0x1 PUSH1 0xA0 SHL SUB AND PUSH1 0x1 PUSH1 0x1 PUSH1 0xA0 SHL SUB AND PUSH4 0xDD644F72 PUSH1 0x40 MLOAD DUP2 PUSH4 0xFFFFFFFF AND PUSH1 0xE0 SHL DUP2 MSTORE PUSH1 0x4 ADD PUSH1 0x20 PUSH1 0x40 MLOAD DUP1 DUP4 SUB DUP2 DUP7 GAS STATICCALL ISZERO DUP1 ISZERO PUSH2 0x2B35 JUMPI RETURNDATASIZE PUSH0 PUSH0 RETURNDATACOPY RETURNDATASIZE PUSH0 REVERT JUMPDEST POP POP POP POP PUSH1 0x40 MLOAD RETURNDATASIZE PUSH1 0x1F NOT PUSH1 0x1F DUP3 ADD AND DUP3 ADD DUP1 PUSH1 0x40 MSTORE POP DUP2 ADD SWAP1 PUSH2 0x2B59 SWAP2 SWAP1 PUSH2 0x3943 JUMP JUMPDEST SWAP1 POP PUSH0 PUSH1 0xB PUSH0 SWAP1 SLOAD SWAP1 PUSH2 0x100 EXP SWAP1 DIV PUSH1 0x1 PUSH1 0x1 PUSH1 0xA0 SHL SUB AND PUSH1 0x1 PUSH1 0x1 PUSH1 0xA0 SHL SUB AND PUSH4 0x35390714 PUSH1 0x40 MLOAD DUP2 PUSH4 0xFFFFFFFF AND PUSH1 0xE0 SHL DUP2 MSTORE PUSH1 0x4 ADD PUSH1 0x20 PUSH1 0x40 MLOAD DUP1 DUP4 SUB DUP2 DUP7 GAS STATICCALL ISZERO DUP1 ISZERO PUSH2 0x2BAC JUMPI RETURNDATASIZE PUSH0 PUSH0 RETURNDATACOPY RETURNDATASIZE PUSH0 REVERT JUMPDEST POP POP POP POP PUSH1 0x40 MLOAD RETURNDATASIZE PUSH1 0x1F NOT PUSH1 0x1F DUP3 ADD AND DUP3 ADD DUP1 PUSH1 0x40 MSTORE POP DUP2 ADD SWAP1 PUSH2 0x2BD0 SWAP2 SWAP1 PUSH2 0x3943 JUMP JUMPDEST SWAP1 POP PUSH0 DUP3 ISZERO PUSH2 0x2C3D JUMPI PUSH2 0x2BE5 DUP4 PUSH2 0x2710 PUSH2 0x395A JUMP JUMPDEST PUSH2 0x2BF1 DUP6 PUSH2 0x2710 PUSH2 0x375A JUMP JUMPDEST PUSH2 0x2BFB SWAP2 SWAP1 PUSH2 0x3734 JUMP JUMPDEST SWAP5 POP PUSH2 0x2710 PUSH2 0x2C0A DUP5 DUP8 PUSH2 0x375A JUMP JUMPDEST PUSH2 0x2C14 SWAP2 SWAP1 PUSH2 0x3734 JUMP JUMPDEST SWAP1 POP PUSH0 DUP3 GT DUP1 ISZERO PUSH2 0x2C24 JUMPI POP DUP2 DUP2 GT JUMPDEST ISZERO PUSH2 0x2C2C JUMPI POP DUP1 JUMPDEST PUSH2 0x2C36 DUP2 DUP6 PUSH2 0x3747 JUMP JUMPDEST SWAP5 POP PUSH2 0x2C41 JUMP JUMPDEST DUP4 SWAP5 POP JUMPDEST POP POP PUSH1 0xB SLOAD PUSH1 0x40 MLOAD PUSH4 0x70A08231 PUSH1 0xE0 SHL DUP2 MSTORE DUP5 SWAP4 POP PUSH1 0x1 PUSH1 0x1 PUSH1 0xA0 SHL SUB SWAP1 SWAP2 AND SWAP2 POP PUSH4 0x70A08231 SWAP1 PUSH2 0x2C77 SWAP1 CALLER SWAP1 PUSH1 0x4 ADD PUSH2 0x3375 JUMP JUMPDEST PUSH1 0x20 PUSH1 0x40 MLOAD DUP1 DUP4 SUB DUP2 DUP7 GAS STATICCALL ISZERO DUP1 ISZERO PUSH2 0x2C92 JUMPI RETURNDATASIZE PUSH0 PUSH0 RETURNDATACOPY RETURNDATASIZE PUSH0 REVERT JUMPDEST POP POP POP POP PUSH1 0x40 MLOAD RETURNDATASIZE PUSH1 0x1F NOT PUSH1 0x1F DUP3 ADD AND DUP3 ADD DUP1 PUSH1 0x40 MSTORE POP DUP2 ADD SWAP1 PUSH2 0x2CB6 SWAP2 SWAP1 PUSH2 0x3943 JUMP JUMPDEST LT ISZERO PUSH2 0x2D00 JUMPI PUSH1 0x40 MLOAD PUSH3 0x461BCD PUSH1 0xE5 SHL DUP2 MSTORE PUSH1 0x20 PUSH1 0x4 DUP3 ADD MSTORE PUSH1 0x19 PUSH1 0x24 DUP3 ADD MSTORE PUSH25 0x496E73756666696369656E7420555344542062616C616E6365 PUSH1 0x38 SHL PUSH1 0x44 DUP3 ADD MSTORE PUSH1 0x64 ADD PUSH2 0xB33 JUMP JUMPDEST PUSH1 0xB SLOAD PUSH1 0x40 MLOAD PUSH4 0x6EB1769F PUSH1 0xE1 SHL DUP2 MSTORE DUP3 SWAP2 PUSH1 0x1 PUSH1 0x1 PUSH1 0xA0 SHL SUB AND SWAP1 PUSH4 0xDD62ED3E SWAP1 PUSH2 0x2D32 SWAP1 CALLER SWAP1 ADDRESS SWAP1 PUSH1 0x4 ADD PUSH2 0x3A24 JUMP JUMPDEST PUSH1 0x20 PUSH1 0x40 MLOAD DUP1 DUP4 SUB DUP2 DUP7 GAS STATICCALL ISZERO DUP1 ISZERO PUSH2 0x2D4D JUMPI RETURNDATASIZE PUSH0 PUSH0 RETURNDATACOPY RETURNDATASIZE PUSH0 REVERT JUMPDEST POP POP POP POP PUSH1 0x40 MLOAD RETURNDATASIZE PUSH1 0x1F NOT PUSH1 0x1F DUP3 ADD AND DUP3 ADD DUP1 PUSH1 0x40 MSTORE POP DUP2 ADD SWAP1 PUSH2 0x2D71 SWAP2 SWAP1 PUSH2 0x3943 JUMP JUMPDEST LT ISZERO PUSH2 0x2D8F JUMPI PUSH1 0x40 MLOAD PUSH3 0x461BCD PUSH1 0xE5 SHL DUP2 MSTORE PUSH1 0x4 ADD PUSH2 0xB33 SWAP1 PUSH2 0x3A3E JUMP JUMPDEST PUSH1 0xB SLOAD PUSH1 0x9 SLOAD PUSH1 0x40 MLOAD PUSH0 SWAP3 DUP4 SWAP3 PUSH1 0x1 PUSH1 0x1 PUSH1 0xA0 SHL SUB SWAP2 DUP3 AND SWAP3 PUSH4 0x23B872DD PUSH1 0xE0 SHL SWAP3 PUSH2 0x2DC4 SWAP3 CALLER SWAP3 SWAP2 AND SWAP1 DUP9 SWAP1 PUSH1 0x24 ADD PUSH2 0x396D JUMP JUMPDEST PUSH1 0x40 DUP1 MLOAD PUSH1 0x1F NOT DUP2 DUP5 SUB ADD DUP2 MSTORE SWAP2 DUP2 MSTORE PUSH1 0x20 DUP3 ADD DUP1 MLOAD PUSH1 0x1 PUSH1 0x1 PUSH1 0xE0 SHL SUB AND PUSH1 0x1 PUSH1 0x1 PUSH1 0xE0 SHL SUB NOT SWAP1 SWAP5 AND SWAP4 SWAP1 SWAP4 OR SWAP1 SWAP3 MSTORE SWAP1 MLOAD PUSH2 0x2E02 SWAP2 SWAP1 PUSH2 0x3C55 JUMP JUMPDEST PUSH0 PUSH1 0x40 MLOAD DUP1 DUP4 SUB DUP2 PUSH0 DUP7 GAS CALL SWAP2 POP POP RETURNDATASIZE DUP1 PUSH0 DUP2 EQ PUSH2 0x2E3B JUMPI PUSH1 0x40 MLOAD SWAP2 POP PUSH1 0x1F NOT PUSH1 0x3F RETURNDATASIZE ADD AND DUP3 ADD PUSH1 0x40 MSTORE RETURNDATASIZE DUP3 MSTORE RETURNDATASIZE PUSH0 PUSH1 0x20 DUP5 ADD RETURNDATACOPY PUSH2 0x2E40 JUMP JUMPDEST PUSH1 0x60 SWAP2 POP JUMPDEST POP SWAP2 POP SWAP2 POP DUP2 DUP2 SWAP1 PUSH2 0x2E65 JUMPI PUSH1 0x40 MLOAD PUSH3 0x461BCD PUSH1 0xE5 SHL DUP2 MSTORE PUSH1 0x4 ADD PUSH2 0xB33 SWAP2 SWAP1 PUSH2 0x3302 JUMP JUMPDEST POP POP POP POP JUMPDEST PUSH1 0xF SLOAD PUSH1 0x40 MLOAD PUSH4 0xE3D81417 PUSH1 0xE0 SHL DUP2 MSTORE PUSH1 0x1 PUSH1 0x1 PUSH1 0xA0 SHL SUB SWAP1 SWAP2 AND SWAP1 PUSH4 0xE3D81417 SWAP1 PUSH2 0x1AFC SWAP1 CALLER SWAP1 DUP12 SWAP1 DUP12 SWAP1 PUSH1 0x4 ADD PUSH2 0x39AC JUMP JUMPDEST PUSH1 0x1 ADD PUSH2 0x29E0 JUMP JUMPDEST PUSH2 0x2EB3 DUP4 DUP4 DUP4 PUSH1 0x1 PUSH2 0x30D4 JUMP JUMPDEST POP POP POP JUMP JUMPDEST PUSH1 0x2 PUSH1 0x5 SLOAD SUB PUSH2 0x2EDB JUMPI PUSH1 0x40 MLOAD PUSH4 0x3EE5AEB5 PUSH1 0xE0 SHL DUP2 MSTORE PUSH1 0x4 ADD PUSH1 0x40 MLOAD DUP1 SWAP2 SUB SWAP1 REVERT JUMPDEST PUSH1 0x2 PUSH1 0x5 SSTORE JUMP JUMPDEST PUSH1 0x6 SLOAD PUSH1 0xFF AND ISZERO PUSH2 0x12E0 JUMPI PUSH1 0x40 MLOAD PUSH3 0x461BCD PUSH1 0xE5 SHL DUP2 MSTORE PUSH1 0x20 PUSH1 0x4 DUP3 ADD MSTORE PUSH1 0x10 PUSH1 0x24 DUP3 ADD MSTORE PUSH16 0x14185D5CD8589B194E881C185D5CD959 PUSH1 0x82 SHL PUSH1 0x44 DUP3 ADD MSTORE PUSH1 0x64 ADD PUSH2 0xB33 JUMP JUMPDEST PUSH1 0x1 PUSH1 0x1 PUSH1 0xA0 SHL SUB DUP4 AND PUSH2 0x2F51 JUMPI PUSH0 PUSH1 0x40 MLOAD PUSH4 0x4B637E8F PUSH1 0xE1 SHL DUP2 MSTORE PUSH1 0x4 ADD PUSH2 0xB33 SWAP2 SWAP1 PUSH2 0x3375 JUMP JUMPDEST PUSH1 0x1 PUSH1 0x1 PUSH1 0xA0 SHL SUB DUP3 AND PUSH2 0x2F7A JUMPI PUSH0 PUSH1 0x40 MLOAD PUSH4 0xEC442F05 PUSH1 0xE0 SHL DUP2 MSTORE PUSH1 0x4 ADD PUSH2 0xB33 SWAP2 SWAP1 PUSH2 0x3375 JUMP JUMPDEST PUSH2 0x2EB3 DUP4 DUP4 DUP4 PUSH2 0x31A6 JUMP JUMPDEST PUSH0 PUSH2 0x2F90 DUP5 DUP5 PUSH2 0x24B6 JUMP JUMPDEST SWAP1 POP PUSH0 NOT DUP2 LT ISZERO PUSH2 0x2FD0 JUMPI DUP2 DUP2 LT ISZERO PUSH2 0x2FC2 JUMPI DUP3 DUP2 DUP4 PUSH1 0x40 MLOAD PUSH4 0x7DC7A0D9 PUSH1 0xE1 SHL DUP2 MSTORE PUSH1 0x4 ADD PUSH2 0xB33 SWAP4 SWAP3 SWAP2 SWAP1 PUSH2 0x39AC JUMP JUMPDEST PUSH2 0x2FD0 DUP5 DUP5 DUP5 DUP5 SUB PUSH0 PUSH2 0x30D4 JUMP JUMPDEST POP POP POP POP JUMP JUMPDEST PUSH2 0x2FDE PUSH2 0x32B9 JUMP JUMPDEST PUSH1 0x6 DUP1 SLOAD PUSH1 0xFF NOT AND SWAP1 SSTORE PUSH32 0x5DB9EE0A495BF2E6FF9C91A7834C1BA4FDD244A5E8AA4E537BD38AEAE4B073AA CALLER JUMPDEST PUSH1 0x40 MLOAD PUSH2 0x3018 SWAP2 SWAP1 PUSH2 0x3375 JUMP JUMPDEST PUSH1 0x40 MLOAD DUP1 SWAP2 SUB SWAP1 LOG1 JUMP JUMPDEST PUSH1 0x1 PUSH1 0x1 PUSH1 0xA0 SHL SUB DUP3 AND PUSH2 0x304B JUMPI PUSH0 PUSH1 0x40 MLOAD PUSH4 0xEC442F05 PUSH1 0xE0 SHL DUP2 MSTORE PUSH1 0x4 ADD PUSH2 0xB33 SWAP2 SWAP1 PUSH2 0x3375 JUMP JUMPDEST PUSH2 0xB78 PUSH0 DUP4 DUP4 PUSH2 0x31A6 JUMP JUMPDEST PUSH1 0x1 PUSH1 0x1 PUSH1 0xA0 SHL SUB DUP3 AND PUSH2 0x307F JUMPI PUSH0 PUSH1 0x40 MLOAD PUSH4 0x4B637E8F PUSH1 0xE1 SHL DUP2 MSTORE PUSH1 0x4 ADD PUSH2 0xB33 SWAP2 SWAP1 PUSH2 0x3375 JUMP JUMPDEST PUSH2 0xB78 DUP3 PUSH0 DUP4 PUSH2 0x31A6 JUMP JUMPDEST PUSH2 0x3092 PUSH2 0x2EE2 JUMP JUMPDEST PUSH1 0x6 DUP1 SLOAD PUSH1 0xFF NOT AND PUSH1 0x1 OR SWAP1 SSTORE PUSH32 0x62E78CEA01BEE320CD4E420270B5EA74000D11B0C9F74754EBDBFC544B05A258 PUSH2 0x300B CALLER SWAP1 JUMP JUMPDEST PUSH0 CALLER PUSH2 0xAF9 DUP2 DUP6 DUP6 PUSH2 0x2F28 JUMP JUMPDEST PUSH1 0x1 PUSH1 0x1 PUSH1 0xA0 SHL SUB DUP5 AND PUSH2 0x30FD JUMPI PUSH0 PUSH1 0x40 MLOAD PUSH4 0xE602DF05 PUSH1 0xE0 SHL DUP2 MSTORE PUSH1 0x4 ADD PUSH2 0xB33 SWAP2 SWAP1 PUSH2 0x3375 JUMP JUMPDEST PUSH1 0x1 PUSH1 0x1 PUSH1 0xA0 SHL SUB DUP4 AND PUSH2 0x3126 JUMPI PUSH0 PUSH1 0x40 MLOAD PUSH4 0x4A1406B1 PUSH1 0xE1 SHL DUP2 MSTORE PUSH1 0x4 ADD PUSH2 0xB33 SWAP2 SWAP1 PUSH2 0x3375 JUMP JUMPDEST PUSH1 0x1 PUSH1 0x1 PUSH1 0xA0 SHL SUB DUP1 DUP6 AND PUSH0 SWAP1 DUP2 MSTORE PUSH1 0x1 PUSH1 0x20 SWAP1 DUP2 MSTORE PUSH1 0x40 DUP1 DUP4 KECCAK256 SWAP4 DUP8 AND DUP4 MSTORE SWAP3 SWAP1 MSTORE KECCAK256 DUP3 SWAP1 SSTORE DUP1 ISZERO PUSH2 0x2FD0 JUMPI DUP3 PUSH1 0x1 PUSH1 0x1 PUSH1 0xA0 SHL SUB AND DUP5 PUSH1 0x1 PUSH1 0x1 PUSH1 0xA0 SHL SUB AND PUSH32 0x8C5BE1E5EBEC7D5BD14F71427D1E84F3DD0314C0F7B2291E5B200AC8C7C3B925 DUP5 PUSH1 0x40 MLOAD PUSH2 0x3198 SWAP2 DUP2 MSTORE PUSH1 0x20 ADD SWAP1 JUMP JUMPDEST PUSH1 0x40 MLOAD DUP1 SWAP2 SUB SWAP1 LOG3 POP POP POP POP JUMP JUMPDEST PUSH1 0x1 PUSH1 0x1 PUSH1 0xA0 SHL SUB DUP4 AND PUSH2 0x31D0 JUMPI DUP1 PUSH1 0x2 PUSH0 DUP3 DUP3 SLOAD PUSH2 0x31C5 SWAP2 SWAP1 PUSH2 0x3747 JUMP JUMPDEST SWAP1 SWAP2 SSTORE POP PUSH2 0x322D SWAP1 POP JUMP JUMPDEST PUSH1 0x1 PUSH1 0x1 PUSH1 0xA0 SHL SUB DUP4 AND PUSH0 SWAP1 DUP2 MSTORE PUSH1 0x20 DUP2 SWAP1 MSTORE PUSH1 0x40 SWAP1 KECCAK256 SLOAD DUP2 DUP2 LT ISZERO PUSH2 0x320F JUMPI DUP4 DUP2 DUP4 PUSH1 0x40 MLOAD PUSH4 0x391434E3 PUSH1 0xE2 SHL DUP2 MSTORE PUSH1 0x4 ADD PUSH2 0xB33 SWAP4 SWAP3 SWAP2 SWAP1 PUSH2 0x39AC JUMP JUMPDEST PUSH1 0x1 PUSH1 0x1 PUSH1 0xA0 SHL SUB DUP5 AND PUSH0 SWAP1 DUP2 MSTORE PUSH1 0x20 DUP2 SWAP1 MSTORE PUSH1 0x40 SWAP1 KECCAK256 SWAP1 DUP3 SWAP1 SUB SWAP1 SSTORE JUMPDEST PUSH1 0x1 PUSH1 0x1 PUSH1 0xA0 SHL SUB DUP3 AND PUSH2 0x3249 JUMPI PUSH1 0x2 DUP1 SLOAD DUP3 SWAP1 SUB SWAP1 SSTORE PUSH2 0x3267 JUMP JUMPDEST PUSH1 0x1 PUSH1 0x1 PUSH1 0xA0 SHL SUB DUP3 AND PUSH0 SWAP1 DUP2 MSTORE PUSH1 0x20 DUP2 SWAP1 MSTORE PUSH1 0x40 SWAP1 KECCAK256 DUP1 SLOAD DUP3 ADD SWAP1 SSTORE JUMPDEST DUP2 PUSH1 0x1 PUSH1 0x1 PUSH1 0xA0 SHL SUB AND DUP4 PUSH1 0x1 PUSH1 0x1 PUSH1 0xA0 SHL SUB AND PUSH32 0xDDF252AD1BE2C89B69C2B068FC378DAA952BA7F163C4A11628F55A4DF523B3EF DUP4 PUSH1 0x40 MLOAD PUSH2 0x32AC SWAP2 DUP2 MSTORE PUSH1 0x20 ADD SWAP1 JUMP JUMPDEST PUSH1 0x40 MLOAD DUP1 SWAP2 SUB SWAP1 LOG3 POP POP POP JUMP JUMPDEST PUSH1 0x6 SLOAD PUSH1 0xFF AND PUSH2 0x12E0 JUMPI PUSH1 0x40 MLOAD PUSH3 0x461BCD PUSH1 0xE5 SHL DUP2 MSTORE PUSH1 0x20 PUSH1 0x4 DUP3 ADD MSTORE PUSH1 0x14 PUSH1 0x24 DUP3 ADD MSTORE PUSH20 0x14185D5CD8589B194E881B9BDD081C185D5CD959 PUSH1 0x62 SHL PUSH1 0x44 DUP3 ADD MSTORE PUSH1 0x64 ADD PUSH2 0xB33 JUMP JUMPDEST PUSH1 0x20 DUP2 MSTORE PUSH0 DUP3 MLOAD DUP1 PUSH1 0x20 DUP5 ADD MSTORE DUP1 PUSH1 0x20 DUP6 ADD PUSH1 0x40 DUP6 ADD MCOPY PUSH0 PUSH1 0x40 DUP3 DUP6 ADD ADD MSTORE PUSH1 0x40 PUSH1 0x1F NOT PUSH1 0x1F DUP4 ADD AND DUP5 ADD ADD SWAP2 POP POP SWAP3 SWAP2 POP POP JUMP JUMPDEST PUSH1 0x1 PUSH1 0x1 PUSH1 0xA0 SHL SUB DUP2 AND DUP2 EQ PUSH2 0xF92 JUMPI PUSH0 PUSH0 REVERT JUMPDEST PUSH0 PUSH0 PUSH1 0x40 DUP4 DUP6 SUB SLT ISZERO PUSH2 0x335C JUMPI PUSH0 PUSH0 REVERT JUMPDEST DUP3 CALLDATALOAD PUSH2 0x3367 DUP2 PUSH2 0x3337 JUMP JUMPDEST SWAP5 PUSH1 0x20 SWAP4 SWAP1 SWAP4 ADD CALLDATALOAD SWAP4 POP POP POP JUMP JUMPDEST PUSH1 0x1 PUSH1 0x1 PUSH1 0xA0 SHL SUB SWAP2 SWAP1 SWAP2 AND DUP2 MSTORE PUSH1 0x20 ADD SWAP1 JUMP JUMPDEST DUP1 ISZERO ISZERO DUP2 EQ PUSH2 0xF92 JUMPI PUSH0 PUSH0 REVERT JUMPDEST PUSH0 PUSH0 PUSH1 0x40 DUP4 DUP6 SUB SLT ISZERO PUSH2 0x33A7 JUMPI PUSH0 PUSH0 REVERT JUMPDEST DUP3 CALLDATALOAD PUSH2 0x33B2 DUP2 PUSH2 0x3337 JUMP JUMPDEST SWAP2 POP PUSH1 0x20 DUP4 ADD CALLDATALOAD PUSH2 0x33C2 DUP2 PUSH2 0x3389 JUMP JUMPDEST DUP1 SWAP2 POP POP SWAP3 POP SWAP3 SWAP1 POP JUMP JUMPDEST PUSH0 PUSH1 0x20 DUP3 DUP5 SUB SLT ISZERO PUSH2 0x33DD JUMPI PUSH0 PUSH0 REVERT JUMPDEST DUP2 CALLDATALOAD PUSH2 0x219D DUP2 PUSH2 0x3337 JUMP JUMPDEST PUSH0 PUSH1 0x20 DUP3 DUP5 SUB SLT ISZERO PUSH2 0x33F8 JUMPI PUSH0 PUSH0 REVERT JUMPDEST POP CALLDATALOAD SWAP2 SWAP1 POP JUMP JUMPDEST PUSH0 PUSH0 PUSH0 PUSH1 0x60 DUP5 DUP7 SUB SLT ISZERO PUSH2 0x3411 JUMPI PUSH0 PUSH0 REVERT JUMPDEST DUP4 CALLDATALOAD PUSH2 0x341C DUP2 PUSH2 0x3337 JUMP JUMPDEST SWAP3 POP PUSH1 0x20 DUP5 ADD CALLDATALOAD PUSH2 0x342C DUP2 PUSH2 0x3337 JUMP JUMPDEST SWAP3 SWAP6 SWAP3 SWAP5 POP POP POP PUSH1 0x40 SWAP2 SWAP1 SWAP2 ADD CALLDATALOAD SWAP1 JUMP JUMPDEST PUSH4 0x4E487B71 PUSH1 0xE0 SHL PUSH0 MSTORE PUSH1 0x21 PUSH1 0x4 MSTORE PUSH1 0x24 PUSH0 REVERT JUMPDEST PUSH1 0x3 DUP2 LT PUSH2 0x3461 JUMPI PUSH2 0x3461 PUSH2 0x343D JUMP JUMPDEST SWAP1 MSTORE JUMP JUMPDEST PUSH1 0x20 DUP1 DUP3 MSTORE DUP3 MLOAD DUP3 DUP3 ADD DUP2 SWAP1 MSTORE PUSH0 SWAP2 DUP5 ADD SWAP1 PUSH1 0x40 DUP5 ADD SWAP1 DUP4 JUMPDEST DUP2 DUP2 LT ISZERO PUSH2 0x3518 JUMPI DUP4 MLOAD DUP1 MLOAD DUP5 MSTORE PUSH1 0x1 DUP1 PUSH1 0xA0 SHL SUB PUSH1 0x20 DUP3 ADD MLOAD AND PUSH1 0x20 DUP6 ADD MSTORE PUSH1 0x40 DUP2 ADD MLOAD PUSH1 0x40 DUP6 ADD MSTORE PUSH1 0x60 DUP2 ADD MLOAD PUSH1 0x60 DUP6 ADD MSTORE PUSH1 0x80 DUP2 ADD MLOAD PUSH1 0x80 DUP6 ADD MSTORE PUSH1 0xA0 DUP2 ADD MLOAD PUSH1 0x1 DUP2 LT PUSH2 0x34D1 JUMPI PUSH2 0x34D1 PUSH2 0x343D JUMP JUMPDEST DUP1 PUSH1 0xA0 DUP7 ADD MSTORE POP PUSH1 0xC0 DUP2 ADD MLOAD PUSH2 0x34EA PUSH1 0xC0 DUP7 ADD DUP3 PUSH2 0x3451 JUMP JUMPDEST POP PUSH1 0xE0 DUP2 ADD MLOAD SWAP1 POP PUSH2 0x3500 PUSH1 0xE0 DUP6 ADD DUP3 ISZERO ISZERO SWAP1 MSTORE JUMP JUMPDEST POP PUSH1 0x20 SWAP4 SWAP1 SWAP4 ADD SWAP3 PUSH2 0x100 SWAP3 SWAP1 SWAP3 ADD SWAP2 PUSH1 0x1 ADD PUSH2 0x347E JUMP JUMPDEST POP SWAP1 SWAP6 SWAP5 POP POP POP POP POP JUMP JUMPDEST PUSH0 PUSH0 PUSH1 0x40 DUP4 DUP6 SUB SLT ISZERO PUSH2 0x3534 JUMPI PUSH0 PUSH0 REVERT JUMPDEST POP POP DUP1 CALLDATALOAD SWAP3 PUSH1 0x20 SWAP1 SWAP2 ADD CALLDATALOAD SWAP2 POP JUMP JUMPDEST PUSH0 PUSH0 PUSH0 PUSH0 PUSH0 PUSH0 PUSH0 PUSH0 PUSH2 0x100 DUP10 DUP12 SUB SLT ISZERO PUSH2 0x355B JUMPI PUSH0 PUSH0 REVERT JUMPDEST DUP9 CALLDATALOAD PUSH2 0x3566 DUP2 PUSH2 0x3337 JUMP JUMPDEST SWAP8 POP PUSH1 0x20 DUP10 ADD CALLDATALOAD PUSH2 0x3576 DUP2 PUSH2 0x3337 JUMP JUMPDEST SWAP7 POP PUSH1 0x40 DUP10 ADD CALLDATALOAD PUSH2 0x3586 DUP2 PUSH2 0x3337 JUMP JUMPDEST SWAP6 POP PUSH1 0x60 DUP10 ADD CALLDATALOAD PUSH2 0x3596 DUP2 PUSH2 0x3337 JUMP JUMPDEST SWAP5 POP PUSH1 0x80 DUP10 ADD CALLDATALOAD PUSH2 0x35A6 DUP2 PUSH2 0x3337 JUMP JUMPDEST SWAP4 POP PUSH1 0xA0 DUP10 ADD CALLDATALOAD PUSH2 0x35B6 DUP2 PUSH2 0x3337 JUMP JUMPDEST SWAP3 POP PUSH1 0xC0 DUP10 ADD CALLDATALOAD PUSH2 0x35C6 DUP2 PUSH2 0x3337 JUMP JUMPDEST SWAP2 POP PUSH1 0xE0 DUP10 ADD CALLDATALOAD PUSH2 0x35D6 DUP2 PUSH2 0x3337 JUMP JUMPDEST DUP1 SWAP2 POP POP SWAP3 SWAP6 SWAP9 POP SWAP3 SWAP6 SWAP9 SWAP1 SWAP4 SWAP7 POP JUMP JUMPDEST PUSH0 PUSH0 PUSH0 PUSH0 PUSH0 PUSH1 0xA0 DUP7 DUP9 SUB SLT ISZERO PUSH2 0x35FB JUMPI PUSH0 PUSH0 REVERT JUMPDEST DUP6 CALLDATALOAD PUSH2 0x3606 DUP2 PUSH2 0x3337 JUMP JUMPDEST SWAP5 POP PUSH1 0x20 DUP7 ADD CALLDATALOAD PUSH2 0x3616 DUP2 PUSH2 0x3337 JUMP JUMPDEST SWAP4 POP PUSH1 0x40 DUP7 ADD CALLDATALOAD PUSH2 0x3626 DUP2 PUSH2 0x3337 JUMP JUMPDEST SWAP3 POP PUSH1 0x60 DUP7 ADD CALLDATALOAD PUSH2 0x3636 DUP2 PUSH2 0x3337 JUMP JUMPDEST SWAP2 POP PUSH1 0x80 DUP7 ADD CALLDATALOAD PUSH2 0x3646 DUP2 PUSH2 0x3337 JUMP JUMPDEST DUP1 SWAP2 POP POP SWAP3 SWAP6 POP SWAP3 SWAP6 SWAP1 SWAP4 POP JUMP JUMPDEST PUSH0 PUSH0 PUSH1 0x40 DUP4 DUP6 SUB SLT ISZERO PUSH2 0x3665 JUMPI PUSH0 PUSH0 REVERT JUMPDEST DUP3 CALLDATALOAD PUSH2 0x3670 DUP2 PUSH2 0x3337 JUMP JUMPDEST SWAP2 POP PUSH1 0x20 DUP4 ADD CALLDATALOAD PUSH2 0x33C2 DUP2 PUSH2 0x3337 JUMP JUMPDEST PUSH1 0x1 DUP2 DUP2 SHR SWAP1 DUP3 AND DUP1 PUSH2 0x3694 JUMPI PUSH1 0x7F DUP3 AND SWAP2 POP JUMPDEST PUSH1 0x20 DUP3 LT DUP2 SUB PUSH2 0x36B2 JUMPI PUSH4 0x4E487B71 PUSH1 0xE0 SHL PUSH0 MSTORE PUSH1 0x22 PUSH1 0x4 MSTORE PUSH1 0x24 PUSH0 REVERT JUMPDEST POP SWAP2 SWAP1 POP JUMP JUMPDEST PUSH1 0x20 DUP1 DUP3 MSTORE PUSH1 0xE SWAP1 DUP3 ADD MSTORE PUSH14 0x139BDD08185D5D1A1BDC9A5E9959 PUSH1 0x92 SHL PUSH1 0x40 DUP3 ADD MSTORE PUSH1 0x60 ADD SWAP1 JUMP JUMPDEST PUSH1 0x1 PUSH1 0x1 PUSH1 0xA0 SHL SUB SWAP3 SWAP1 SWAP3 AND DUP3 MSTORE PUSH1 0x20 DUP3 ADD MSTORE PUSH1 0x40 ADD SWAP1 JUMP JUMPDEST PUSH4 0x4E487B71 PUSH1 0xE0 SHL PUSH0 MSTORE PUSH1 0x12 PUSH1 0x4 MSTORE PUSH1 0x24 PUSH0 REVERT JUMPDEST PUSH0 DUP3 PUSH2 0x371B JUMPI PUSH2 0x371B PUSH2 0x36F9 JUMP JUMPDEST POP MOD SWAP1 JUMP JUMPDEST PUSH4 0x4E487B71 PUSH1 0xE0 SHL PUSH0 MSTORE PUSH1 0x11 PUSH1 0x4 MSTORE PUSH1 0x24 PUSH0 REVERT JUMPDEST PUSH0 DUP3 PUSH2 0x3742 JUMPI PUSH2 0x3742 PUSH2 0x36F9 JUMP JUMPDEST POP DIV SWAP1 JUMP JUMPDEST DUP1 DUP3 ADD DUP1 DUP3 GT ISZERO PUSH2 0xAFF JUMPI PUSH2 0xAFF PUSH2 0x3720 JUMP JUMPDEST DUP1 DUP3 MUL DUP2 ISZERO DUP3 DUP3 DIV DUP5 EQ OR PUSH2 0xAFF JUMPI PUSH2 0xAFF PUSH2 0x3720 JUMP JUMPDEST PUSH4 0x4E487B71 PUSH1 0xE0 SHL PUSH0 MSTORE PUSH1 0x41 PUSH1 0x4 MSTORE PUSH1 0x24 PUSH0 REVERT JUMPDEST PUSH1 0x40 MLOAD PUSH2 0x100 DUP2 ADD PUSH1 0x1 PUSH1 0x1 PUSH1 0x40 SHL SUB DUP2 GT DUP3 DUP3 LT OR ISZERO PUSH2 0x37A8 JUMPI PUSH2 0x37A8 PUSH2 0x3771 JUMP JUMPDEST PUSH1 0x40 MSTORE SWAP1 JUMP JUMPDEST PUSH1 0x40 MLOAD PUSH1 0x1F DUP3 ADD PUSH1 0x1F NOT AND DUP2 ADD PUSH1 0x1 PUSH1 0x1 PUSH1 0x40 SHL SUB DUP2 GT DUP3 DUP3 LT OR ISZERO PUSH2 0x37D6 JUMPI PUSH2 0x37D6 PUSH2 0x3771 JUMP JUMPDEST PUSH1 0x40 MSTORE SWAP2 SWAP1 POP JUMP JUMPDEST PUSH0 PUSH1 0x1 PUSH1 0x1 PUSH1 0x40 SHL SUB DUP3 GT ISZERO PUSH2 0x37F6 JUMPI PUSH2 0x37F6 PUSH2 0x3771 JUMP JUMPDEST POP PUSH1 0x5 SHL PUSH1 0x20 ADD SWAP1 JUMP JUMPDEST DUP1 MLOAD PUSH1 0x1 DUP2 LT PUSH2 0x380E JUMPI PUSH0 PUSH0 REVERT JUMPDEST SWAP2 SWAP1 POP JUMP JUMPDEST DUP1 MLOAD PUSH1 0x3 DUP2 LT PUSH2 0x380E JUMPI PUSH0 PUSH0 REVERT JUMPDEST DUP1 MLOAD PUSH2 0x380E DUP2 PUSH2 0x3389 JUMP JUMPDEST PUSH0 PUSH1 0x20 DUP3 DUP5 SUB SLT ISZERO PUSH2 0x383C JUMPI PUSH0 PUSH0 REVERT JUMPDEST DUP2 MLOAD PUSH1 0x1 PUSH1 0x1 PUSH1 0x40 SHL SUB DUP2 GT ISZERO PUSH2 0x3851 JUMPI PUSH0 PUSH0 REVERT JUMPDEST DUP3 ADD PUSH1 0x1F DUP2 ADD DUP5 SGT PUSH2 0x3861 JUMPI PUSH0 PUSH0 REVERT JUMPDEST DUP1 MLOAD PUSH2 0x3874 PUSH2 0x386F DUP3 PUSH2 0x37DE JUMP JUMPDEST PUSH2 0x37AE JUMP JUMPDEST DUP1 DUP3 DUP3 MSTORE PUSH1 0x20 DUP3 ADD SWAP2 POP PUSH1 0x20 DUP4 PUSH1 0x8 SHL DUP6 ADD ADD SWAP3 POP DUP7 DUP4 GT ISZERO PUSH2 0x3895 JUMPI PUSH0 PUSH0 REVERT JUMPDEST PUSH1 0x20 DUP5 ADD SWAP4 POP JUMPDEST DUP3 DUP5 LT ISZERO PUSH2 0x3939 JUMPI PUSH2 0x100 DUP5 DUP9 SUB SLT ISZERO PUSH2 0x38B4 JUMPI PUSH0 PUSH0 REVERT JUMPDEST PUSH2 0x38BC PUSH2 0x3785 JUMP JUMPDEST DUP5 MLOAD DUP2 MSTORE PUSH1 0x20 DUP6 ADD MLOAD PUSH2 0x38CE DUP2 PUSH2 0x3337 JUMP JUMPDEST PUSH1 0x20 DUP3 ADD MSTORE PUSH1 0x40 DUP6 DUP2 ADD MLOAD SWAP1 DUP3 ADD MSTORE PUSH1 0x60 DUP1 DUP7 ADD MLOAD SWAP1 DUP3 ADD MSTORE PUSH1 0x80 DUP1 DUP7 ADD MLOAD SWAP1 DUP3 ADD MSTORE PUSH2 0x38FD PUSH1 0xA0 DUP7 ADD PUSH2 0x3800 JUMP JUMPDEST PUSH1 0xA0 DUP3 ADD MSTORE PUSH2 0x390E PUSH1 0xC0 DUP7 ADD PUSH2 0x3813 JUMP JUMPDEST PUSH1 0xC0 DUP3 ADD MSTORE PUSH2 0x391F PUSH1 0xE0 DUP7 ADD PUSH2 0x3821 JUMP JUMPDEST PUSH1 0xE0 DUP3 ADD MSTORE DUP3 MSTORE PUSH2 0x100 SWAP4 SWAP1 SWAP4 ADD SWAP3 PUSH1 0x20 SWAP1 SWAP2 ADD SWAP1 PUSH2 0x389C JUMP JUMPDEST SWAP7 SWAP6 POP POP POP POP POP POP JUMP JUMPDEST PUSH0 PUSH1 0x20 DUP3 DUP5 SUB SLT ISZERO PUSH2 0x3953 JUMPI PUSH0 PUSH0 REVERT JUMPDEST POP MLOAD SWAP2 SWAP1 POP JUMP JUMPDEST DUP2 DUP2 SUB DUP2 DUP2 GT ISZERO PUSH2 0xAFF JUMPI PUSH2 0xAFF PUSH2 0x3720 JUMP JUMPDEST PUSH1 0x1 PUSH1 0x1 PUSH1 0xA0 SHL SUB SWAP4 DUP5 AND DUP2 MSTORE SWAP2 SWAP1 SWAP3 AND PUSH1 0x20 DUP3 ADD MSTORE PUSH1 0x40 DUP2 ADD SWAP2 SWAP1 SWAP2 MSTORE PUSH1 0x60 ADD SWAP1 JUMP JUMPDEST PUSH0 PUSH1 0x20 DUP3 DUP5 SUB SLT ISZERO PUSH2 0x39A1 JUMPI PUSH0 PUSH0 REVERT JUMPDEST DUP2 MLOAD PUSH2 0x219D DUP2 PUSH2 0x3389 JUMP JUMPDEST PUSH1 0x1 PUSH1 0x1 PUSH1 0xA0 SHL SUB SWAP4 SWAP1 SWAP4 AND DUP4 MSTORE PUSH1 0x20 DUP4 ADD SWAP2 SWAP1 SWAP2 MSTORE PUSH1 0x40 DUP3 ADD MSTORE PUSH1 0x60 ADD SWAP1 JUMP JUMPDEST PUSH4 0x4E487B71 PUSH1 0xE0 SHL PUSH0 MSTORE PUSH1 0x32 PUSH1 0x4 MSTORE PUSH1 0x24 PUSH0 REVERT JUMPDEST PUSH1 0x20 DUP1 DUP3 MSTORE PUSH1 0x23 SWAP1 DUP3 ADD MSTORE PUSH32 0x4F6E6C7920746865206F776E65722063616E206368616E676520746865207072 PUSH1 0x40 DUP3 ADD MSTORE PUSH3 0x696365 PUSH1 0xE8 SHL PUSH1 0x60 DUP3 ADD MSTORE PUSH1 0x80 ADD SWAP1 JUMP JUMPDEST PUSH1 0x1 PUSH1 0x1 PUSH1 0xA0 SHL SUB SWAP3 DUP4 AND DUP2 MSTORE SWAP2 AND PUSH1 0x20 DUP3 ADD MSTORE PUSH1 0x40 ADD SWAP1 JUMP JUMPDEST PUSH1 0x20 DUP1 DUP3 MSTORE PUSH1 0x2C SWAP1 DUP3 ADD MSTORE PUSH32 0x496E73756666696369656E74205553445420616C6C6F77616E636520666F7220 PUSH1 0x40 DUP3 ADD MSTORE PUSH12 0x7072696365206368616E6765 PUSH1 0xA0 SHL PUSH1 0x60 DUP3 ADD MSTORE PUSH1 0x80 ADD SWAP1 JUMP JUMPDEST PUSH1 0x20 DUP1 DUP3 MSTORE PUSH1 0x26 SWAP1 DUP3 ADD MSTORE PUSH32 0x496E73756666696369656E742062616C616E636520666F7220746865206F7065 PUSH1 0x40 DUP3 ADD MSTORE PUSH6 0x3930BA34B7B7 PUSH1 0xD1 SHL PUSH1 0x60 DUP3 ADD MSTORE PUSH1 0x80 ADD SWAP1 JUMP JUMPDEST PUSH1 0x20 DUP1 DUP3 MSTORE PUSH1 0x12 SWAP1 DUP3 ADD MSTORE PUSH18 0x506F74656E7469616C206F766572666C6F77 PUSH1 0x70 SHL PUSH1 0x40 DUP3 ADD MSTORE PUSH1 0x60 ADD SWAP1 JUMP JUMPDEST PUSH1 0x20 DUP1 DUP3 MSTORE PUSH1 0x15 SWAP1 DUP3 ADD MSTORE PUSH21 0x151BDAD95B881D1C985B9CD9995C8819985A5B1959 PUSH1 0x5A SHL PUSH1 0x40 DUP3 ADD MSTORE PUSH1 0x60 ADD SWAP1 JUMP JUMPDEST PUSH0 DUP3 PUSH1 0x1F DUP4 ADD SLT PUSH2 0x3B3A JUMPI PUSH0 PUSH0 REVERT JUMPDEST DUP2 MLOAD PUSH2 0x3B48 PUSH2 0x386F DUP3 PUSH2 0x37DE JUMP JUMPDEST DUP1 DUP3 DUP3 MSTORE PUSH1 0x20 DUP3 ADD SWAP2 POP PUSH1 0x20 DUP4 PUSH1 0x5 SHL DUP7 ADD ADD SWAP3 POP DUP6 DUP4 GT ISZERO PUSH2 0x3B69 JUMPI PUSH0 PUSH0 REVERT JUMPDEST PUSH1 0x20 DUP6 ADD JUMPDEST DUP4 DUP2 LT ISZERO PUSH2 0x3B86 JUMPI DUP1 MLOAD DUP4 MSTORE PUSH1 0x20 SWAP3 DUP4 ADD SWAP3 ADD PUSH2 0x3B6E JUMP JUMPDEST POP SWAP6 SWAP5 POP POP POP POP POP JUMP JUMPDEST PUSH0 PUSH0 PUSH1 0x40 DUP4 DUP6 SUB SLT ISZERO PUSH2 0x3BA1 JUMPI PUSH0 PUSH0 REVERT JUMPDEST DUP3 MLOAD PUSH1 0x1 PUSH1 0x1 PUSH1 0x40 SHL SUB DUP2 GT ISZERO PUSH2 0x3BB6 JUMPI PUSH0 PUSH0 REVERT JUMPDEST DUP4 ADD PUSH1 0x1F DUP2 ADD DUP6 SGT PUSH2 0x3BC6 JUMPI PUSH0 PUSH0 REVERT JUMPDEST DUP1 MLOAD PUSH2 0x3BD4 PUSH2 0x386F DUP3 PUSH2 0x37DE JUMP JUMPDEST DUP1 DUP3 DUP3 MSTORE PUSH1 0x20 DUP3 ADD SWAP2 POP PUSH1 0x20 DUP4 PUSH1 0x5 SHL DUP6 ADD ADD SWAP3 POP DUP8 DUP4 GT ISZERO PUSH2 0x3BF5 JUMPI PUSH0 PUSH0 REVERT JUMPDEST PUSH1 0x20 DUP5 ADD SWAP4 POP JUMPDEST DUP3 DUP5 LT ISZERO PUSH2 0x3C20 JUMPI DUP4 MLOAD PUSH2 0x3C0F DUP2 PUSH2 0x3337 JUMP JUMPDEST DUP3 MSTORE PUSH1 0x20 SWAP4 DUP5 ADD SWAP4 SWAP1 SWAP2 ADD SWAP1 PUSH2 0x3BFC JUMP JUMPDEST DUP1 SWAP6 POP POP POP POP POP PUSH1 0x20 DUP4 ADD MLOAD PUSH1 0x1 PUSH1 0x1 PUSH1 0x40 SHL SUB DUP2 GT ISZERO PUSH2 0x3C3F JUMPI PUSH0 PUSH0 REVERT JUMPDEST PUSH2 0x3C4B DUP6 DUP3 DUP7 ADD PUSH2 0x3B2B JUMP JUMPDEST SWAP2 POP POP SWAP3 POP SWAP3 SWAP1 POP JUMP JUMPDEST PUSH0 DUP3 MLOAD DUP1 PUSH1 0x20 DUP6 ADD DUP5 MCOPY PUSH0 SWAP3 ADD SWAP2 DUP3 MSTORE POP SWAP2 SWAP1 POP JUMP INVALID LOG2 PUSH5 0x6970667358 0x22 SLT KECCAK256 COINBASE NOT DUP12 BLOCKHASH PUSH7 0xA030807CB21AFF DUP16 BLOCKHASH 0xAA DATALOADN 0xB6F1 SWAP16 0xC1 0xBE 0xB8 CODESIZE SWAP3 0x2C PUSH20 0x6EE70A81886164736F6C634300081E0033000000 "
		},
		"gasEstimates": {
			"creation": {
				"codeDepositCost": "3104200",
				"executionCost": "infinite",
				"totalCost": "infinite"
			},
			"external": {
				"": "1732",
				"GetStockOfAllMines()": "infinite",
				"RemoveOrder(uint256)": "infinite",
				"TokenUnitsStock()": "2406",
				"USDCContract()": "2493",
				"USDTContract()": "2471",
				"addNickelToStock(uint256)": "infinite",
				"admin()": "2558",
				"adminControlContract()": "2450",
				"allowance(address,address)": "infinite",
				"approve(address,uint256)": "24774",
				"approveToken(address,address,uint256)": "infinite",
				"authorizedAddresses(address)": "2676",
				"balanceOf(address)": "2742",
				"balancesContract()": "2494",
				"burn(uint256)": "infinite",
				"central()": "2449",
				"changeBuyOrderPriceEther(uint256,uint256)": "infinite",
				"changeBuyOrderPriceUSDC(uint256,uint256)": "infinite",
				"changeBuyOrderPriceUSDT(uint256,uint256)": "infinite",
				"changeSellOrderPriceEther(uint256,uint256)": "infinite",
				"changeSellOrderPriceUSDC(uint256,uint256)": "infinite",
				"changeSellOrderPriceUSDT(uint256,uint256)": "infinite",
				"checkNickeliumBalance(address)": "2716",
				"decimals()": "332",
				"escrowHandler()": "2516",
				"getAvailableNickeliumStock()": "2468",
				"getBuyOrdersEther()": "infinite",
				"getBuyOrdersUSDC()": "infinite",
				"getBuyOrdersUSDT()": "infinite",
				"getNickeliumBalance(address)": "2694",
				"getSellOrdersEther()": "infinite",
				"getSellOrdersUSDC()": "infinite",
				"getSellOrdersUSDT()": "infinite",
				"migrateBalances()": "infinite",
				"mine1NFT()": "2451",
				"mine2NFT()": "2561",
				"mine3NFT()": "2404",
				"mine4NFT()": "2471",
				"mine5NFT()": "2448",
				"mint(address,uint256)": "infinite",
				"name()": "infinite",
				"owner()": "2405",
				"pause()": "infinite",
				"paused()": "2414",
				"placeBuyOrderEther(uint256,uint256)": "infinite",
				"placeBuyOrderUSDC(uint256,uint256)": "infinite",
				"placeBuyOrderUSDT(uint256,uint256)": "infinite",
				"placeSellOrderEther(uint256,uint256)": "infinite",
				"placeSellOrderUSDC(uint256,uint256)": "infinite",
				"placeSellOrderUSDT(uint256,uint256)": "infinite",
				"removeAllOrders()": "infinite",
				"setAuthorizedAddress(address,bool)": "infinite",
				"setContracts(address,address,address,address,address,address,address,address)": "infinite",
				"setNFTContracts(address,address,address,address,address)": "infinite",
				"setOwner(address)": "26888",
				"symbol()": "infinite",
				"totalNickelInStock()": "2362",
				"totalSupply()": "2437",
				"transfer(address,uint256)": "infinite",
				"transferFrom(address,address,uint256)": "infinite",
				"transferFromContract(address,uint256)": "infinite",
				"unpause()": "infinite",
				"usdcOrders()": "2515",
				"usdtOrders()": "2406"
			}
		},
		"methodIdentifiers": {
			"GetStockOfAllMines()": "352c9b99",
			"RemoveOrder(uint256)": "6a6a07eb",
			"TokenUnitsStock()": "7eeef60a",
			"USDCContract()": "d2873510",
			"USDTContract()": "99762734",
			"addNickelToStock(uint256)": "1eb7002a",
			"admin()": "f851a440",
			"adminControlContract()": "7b7f1c82",
			"allowance(address,address)": "dd62ed3e",
			"approve(address,uint256)": "095ea7b3",
			"approveToken(address,address,uint256)": "da3e3397",
			"authorizedAddresses(address)": "f19e207e",
			"balanceOf(address)": "70a08231",
			"balancesContract()": "4a3d72a1",
			"burn(uint256)": "42966c68",
			"central()": "b7826af8",
			"changeBuyOrderPriceEther(uint256,uint256)": "7536c1f3",
			"changeBuyOrderPriceUSDC(uint256,uint256)": "539738dd",
			"changeBuyOrderPriceUSDT(uint256,uint256)": "f7affbc0",
			"changeSellOrderPriceEther(uint256,uint256)": "5620d45a",
			"changeSellOrderPriceUSDC(uint256,uint256)": "b54c2322",
			"changeSellOrderPriceUSDT(uint256,uint256)": "9519cfb8",
			"checkNickeliumBalance(address)": "2d121aca",
			"decimals()": "313ce567",
			"escrowHandler()": "87ad8f87",
			"getAvailableNickeliumStock()": "d763cd9a",
			"getBuyOrdersEther()": "4c3095a9",
			"getBuyOrdersUSDC()": "505b304d",
			"getBuyOrdersUSDT()": "2465af11",
			"getNickeliumBalance(address)": "26aa02b8",
			"getSellOrdersEther()": "8c65a498",
			"getSellOrdersUSDC()": "ebe4e82f",
			"getSellOrdersUSDT()": "6cca424f",
			"migrateBalances()": "b2b44167",
			"mine1NFT()": "0cf71579",
			"mine2NFT()": "1d2e4a2f",
			"mine3NFT()": "db5544a6",
			"mine4NFT()": "c5026555",
			"mine5NFT()": "e9ce848d",
			"mint(address,uint256)": "40c10f19",
			"name()": "06fdde03",
			"owner()": "8da5cb5b",
			"pause()": "8456cb59",
			"paused()": "5c975abb",
			"placeBuyOrderEther(uint256,uint256)": "55b057fa",
			"placeBuyOrderUSDC(uint256,uint256)": "49e3bbe5",
			"placeBuyOrderUSDT(uint256,uint256)": "ef81a99a",
			"placeSellOrderEther(uint256,uint256)": "b29b83e2",
			"placeSellOrderUSDC(uint256,uint256)": "6461f757",
			"placeSellOrderUSDT(uint256,uint256)": "8c6e7681",
			"removeAllOrders()": "52519b3c",
			"setAuthorizedAddress(address,bool)": "1351cf51",
			"setContracts(address,address,address,address,address,address,address,address)": "9ad8d6f7",
			"setNFTContracts(address,address,address,address,address)": "d6f455f4",
			"setOwner(address)": "13af4035",
			"symbol()": "95d89b41",
			"totalNickelInStock()": "40f4aa81",
			"totalSupply()": "18160ddd",
			"transfer(address,uint256)": "a9059cbb",
			"transferFrom(address,address,uint256)": "23b872dd",
			"transferFromContract(address,uint256)": "1a88f306",
			"unpause()": "3f4ba83a",
			"usdcOrders()": "9c5338a5",
			"usdtOrders()": "71dc7725"
		}
	},
	"abi": [
		{
			"inputs": [],
			"stateMutability": "nonpayable",
			"type": "constructor"
		},
		{
			"inputs": [
				{
					"internalType": "address",
					"name": "spender",
					"type": "address"
				},
				{
					"internalType": "uint256",
					"name": "allowance",
					"type": "uint256"
				},
				{
					"internalType": "uint256",
					"name": "needed",
					"type": "uint256"
				}
			],
			"name": "ERC20InsufficientAllowance",
			"type": "error"
		},
		{
			"inputs": [
				{
					"internalType": "address",
					"name": "sender",
					"type": "address"
				},
				{
					"internalType": "uint256",
					"name": "balance",
					"type": "uint256"
				},
				{
					"internalType": "uint256",
					"name": "needed",
					"type": "uint256"
				}
			],
			"name": "ERC20InsufficientBalance",
			"type": "error"
		},
		{
			"inputs": [
				{
					"internalType": "address",
					"name": "approver",
					"type": "address"
				}
			],
			"name": "ERC20InvalidApprover",
			"type": "error"
		},
		{
			"inputs": [
				{
					"internalType": "address",
					"name": "receiver",
					"type": "address"
				}
			],
			"name": "ERC20InvalidReceiver",
			"type": "error"
		},
		{
			"inputs": [
				{
					"internalType": "address",
					"name": "sender",
					"type": "address"
				}
			],
			"name": "ERC20InvalidSender",
			"type": "error"
		},
		{
			"inputs": [
				{
					"internalType": "address",
					"name": "spender",
					"type": "address"
				}
			],
			"name": "ERC20InvalidSpender",
			"type": "error"
		},
		{
			"inputs": [],
			"name": "ReentrancyGuardReentrantCall",
			"type": "error"
		},
		{
			"anonymous": false,
			"inputs": [
				{
					"indexed": true,
					"internalType": "address",
					"name": "owner",
					"type": "address"
				},
				{
					"indexed": true,
					"internalType": "address",
					"name": "spender",
					"type": "address"
				},
				{
					"indexed": false,
					"internalType": "uint256",
					"name": "value",
					"type": "uint256"
				}
			],
			"name": "Approval",
			"type": "event"
		},
		{
			"anonymous": false,
			"inputs": [
				{
					"indexed": true,
					"internalType": "address",
					"name": "sender",
					"type": "address"
				},
				{
					"indexed": false,
					"internalType": "uint256",
					"name": "amount",
					"type": "uint256"
				}
			],
			"name": "EtherReceived",
			"type": "event"
		},
		{
			"anonymous": false,
			"inputs": [
				{
					"indexed": false,
					"internalType": "address",
					"name": "account",
					"type": "address"
				}
			],
			"name": "Paused",
			"type": "event"
		},
		{
			"anonymous": false,
			"inputs": [
				{
					"indexed": false,
					"internalType": "uint256",
					"name": "newPrice",
					"type": "uint256"
				}
			],
			"name": "PriceUpdated",
			"type": "event"
		},
		{
			"anonymous": false,
			"inputs": [
				{
					"indexed": true,
					"internalType": "address",
					"name": "from",
					"type": "address"
				},
				{
					"indexed": true,
					"internalType": "address",
					"name": "to",
					"type": "address"
				},
				{
					"indexed": false,
					"internalType": "uint256",
					"name": "value",
					"type": "uint256"
				}
			],
			"name": "Transfer",
			"type": "event"
		},
		{
			"anonymous": false,
			"inputs": [
				{
					"indexed": false,
					"internalType": "address",
					"name": "account",
					"type": "address"
				}
			],
			"name": "Unpaused",
			"type": "event"
		},
		{
			"stateMutability": "payable",
			"type": "fallback"
		},
		{
			"inputs": [],
			"name": "GetStockOfAllMines",
			"outputs": [
				{
					"internalType": "uint256",
					"name": "totalStockLimit",
					"type": "uint256"
				}
			],
			"stateMutability": "view",
			"type": "function"
		},
		{
			"inputs": [
				{
					"internalType": "uint256",
					"name": "orderID",
					"type": "uint256"
				}
			],
			"name": "RemoveOrder",
			"outputs": [],
			"stateMutability": "nonpayable",
			"type": "function"
		},
		{
			"inputs": [],
			"name": "TokenUnitsStock",
			"outputs": [
				{
					"internalType": "uint256",
					"name": "",
					"type": "uint256"
				}
			],
			"stateMutability": "view",
			"type": "function"
		},
		{
			"inputs": [],
			"name": "USDCContract",
			"outputs": [
				{
					"internalType": "contract IERC20",
					"name": "",
					"type": "address"
				}
			],
			"stateMutability": "view",
			"type": "function"
		},
		{
			"inputs": [],
			"name": "USDTContract",
			"outputs": [
				{
					"internalType": "contract ITether",
					"name": "",
					"type": "address"
				}
			],
			"stateMutability": "view",
			"type": "function"
		},
		{
			"inputs": [
				{
					"internalType": "uint256",
					"name": "amountGrams",
					"type": "uint256"
				}
			],
			"name": "addNickelToStock",
			"outputs": [],
			"stateMutability": "nonpayable",
			"type": "function"
		},
		{
			"inputs": [],
			"name": "admin",
			"outputs": [
				{
					"internalType": "address",
					"name": "",
					"type": "address"
				}
			],
			"stateMutability": "view",
			"type": "function"
		},
		{
			"inputs": [],
			"name": "adminControlContract",
			"outputs": [
				{
					"internalType": "contract IAdminControl",
					"name": "",
					"type": "address"
				}
			],
			"stateMutability": "view",
			"type": "function"
		},
		{
			"inputs": [
				{
					"internalType": "address",
					"name": "owner",
					"type": "address"
				},
				{
					"internalType": "address",
					"name": "spender",
					"type": "address"
				}
			],
			"name": "allowance",
			"outputs": [
				{
					"internalType": "uint256",
					"name": "",
					"type": "uint256"
				}
			],
			"stateMutability": "view",
			"type": "function"
		},
		{
			"inputs": [
				{
					"internalType": "address",
					"name": "spender",
					"type": "address"
				},
				{
					"internalType": "uint256",
					"name": "value",
					"type": "uint256"
				}
			],
			"name": "approve",
			"outputs": [
				{
					"internalType": "bool",
					"name": "",
					"type": "bool"
				}
			],
			"stateMutability": "nonpayable",
			"type": "function"
		},
		{
			"inputs": [
				{
					"internalType": "address",
					"name": "user",
					"type": "address"
				},
				{
					"internalType": "address",
					"name": "spender",
					"type": "address"
				},
				{
					"internalType": "uint256",
					"name": "amount",
					"type": "uint256"
				}
			],
			"name": "approveToken",
			"outputs": [
				{
					"internalType": "bool",
					"name": "",
					"type": "bool"
				}
			],
			"stateMutability": "nonpayable",
			"type": "function"
		},
		{
			"inputs": [
				{
					"internalType": "address",
					"name": "",
					"type": "address"
				}
			],
			"name": "authorizedAddresses",
			"outputs": [
				{
					"internalType": "bool",
					"name": "",
					"type": "bool"
				}
			],
			"stateMutability": "view",
			"type": "function"
		},
		{
			"inputs": [
				{
					"internalType": "address",
					"name": "account",
					"type": "address"
				}
			],
			"name": "balanceOf",
			"outputs": [
				{
					"internalType": "uint256",
					"name": "",
					"type": "uint256"
				}
			],
			"stateMutability": "view",
			"type": "function"
		},
		{
			"inputs": [],
			"name": "balancesContract",
			"outputs": [
				{
					"internalType": "contract IBalances",
					"name": "",
					"type": "address"
				}
			],
			"stateMutability": "view",
			"type": "function"
		},
		{
			"inputs": [
				{
					"internalType": "uint256",
					"name": "amount",
					"type": "uint256"
				}
			],
			"name": "burn",
			"outputs": [],
			"stateMutability": "nonpayable",
			"type": "function"
		},
		{
			"inputs": [],
			"name": "central",
			"outputs": [
				{
					"internalType": "contract ICentral",
					"name": "",
					"type": "address"
				}
			],
			"stateMutability": "view",
			"type": "function"
		},
		{
			"inputs": [
				{
					"internalType": "uint256",
					"name": "orderID",
					"type": "uint256"
				},
				{
					"internalType": "uint256",
					"name": "newPrice",
					"type": "uint256"
				}
			],
			"name": "changeBuyOrderPriceEther",
			"outputs": [],
			"stateMutability": "payable",
			"type": "function"
		},
		{
			"inputs": [
				{
					"internalType": "uint256",
					"name": "orderID",
					"type": "uint256"
				},
				{
					"internalType": "uint256",
					"name": "newPrice",
					"type": "uint256"
				}
			],
			"name": "changeBuyOrderPriceUSDC",
			"outputs": [],
			"stateMutability": "nonpayable",
			"type": "function"
		},
		{
			"inputs": [
				{
					"internalType": "uint256",
					"name": "orderID",
					"type": "uint256"
				},
				{
					"internalType": "uint256",
					"name": "newPrice",
					"type": "uint256"
				}
			],
			"name": "changeBuyOrderPriceUSDT",
			"outputs": [],
			"stateMutability": "nonpayable",
			"type": "function"
		},
		{
			"inputs": [
				{
					"internalType": "uint256",
					"name": "orderID",
					"type": "uint256"
				},
				{
					"internalType": "uint256",
					"name": "newPrice",
					"type": "uint256"
				}
			],
			"name": "changeSellOrderPriceEther",
			"outputs": [],
			"stateMutability": "nonpayable",
			"type": "function"
		},
		{
			"inputs": [
				{
					"internalType": "uint256",
					"name": "orderID",
					"type": "uint256"
				},
				{
					"internalType": "uint256",
					"name": "newPrice",
					"type": "uint256"
				}
			],
			"name": "changeSellOrderPriceUSDC",
			"outputs": [],
			"stateMutability": "nonpayable",
			"type": "function"
		},
		{
			"inputs": [
				{
					"internalType": "uint256",
					"name": "orderID",
					"type": "uint256"
				},
				{
					"internalType": "uint256",
					"name": "newPrice",
					"type": "uint256"
				}
			],
			"name": "changeSellOrderPriceUSDT",
			"outputs": [],
			"stateMutability": "nonpayable",
			"type": "function"
		},
		{
			"inputs": [
				{
					"internalType": "address",
					"name": "account",
					"type": "address"
				}
			],
			"name": "checkNickeliumBalance",
			"outputs": [
				{
					"internalType": "uint256",
					"name": "",
					"type": "uint256"
				}
			],
			"stateMutability": "view",
			"type": "function"
		},
		{
			"inputs": [],
			"name": "decimals",
			"outputs": [
				{
					"internalType": "uint8",
					"name": "",
					"type": "uint8"
				}
			],
			"stateMutability": "view",
			"type": "function"
		},
		{
			"inputs": [],
			"name": "escrowHandler",
			"outputs": [
				{
					"internalType": "contract IEscrowHandler",
					"name": "",
					"type": "address"
				}
			],
			"stateMutability": "view",
			"type": "function"
		},
		{
			"inputs": [],
			"name": "getAvailableNickeliumStock",
			"outputs": [
				{
					"internalType": "uint256",
					"name": "",
					"type": "uint256"
				}
			],
			"stateMutability": "view",
			"type": "function"
		},
		{
			"inputs": [],
			"name": "getBuyOrdersEther",
			"outputs": [
				{
					"components": [
						{
							"internalType": "uint256",
							"name": "orderID",
							"type": "uint256"
						},
						{
							"internalType": "address payable",
							"name": "user",
							"type": "address"
						},
						{
							"internalType": "uint256",
							"name": "price",
							"type": "uint256"
						},
						{
							"internalType": "uint256",
							"name": "amount",
							"type": "uint256"
						},
						{
							"internalType": "uint256",
							"name": "fulfilledAmount",
							"type": "uint256"
						},
						{
							"internalType": "enum SharedStructs.AssetType",
							"name": "assetType",
							"type": "uint8"
						},
						{
							"internalType": "enum SharedStructs.PaymentMethod",
							"name": "priceCurrency",
							"type": "uint8"
						},
						{
							"internalType": "bool",
							"name": "authorizedBuyersOnly",
							"type": "bool"
						}
					],
					"internalType": "struct SharedStructs.Order[]",
					"name": "",
					"type": "tuple[]"
				}
			],
			"stateMutability": "view",
			"type": "function"
		},
		{
			"inputs": [],
			"name": "getBuyOrdersUSDC",
			"outputs": [
				{
					"components": [
						{
							"internalType": "uint256",
							"name": "orderID",
							"type": "uint256"
						},
						{
							"internalType": "address payable",
							"name": "user",
							"type": "address"
						},
						{
							"internalType": "uint256",
							"name": "price",
							"type": "uint256"
						},
						{
							"internalType": "uint256",
							"name": "amount",
							"type": "uint256"
						},
						{
							"internalType": "uint256",
							"name": "fulfilledAmount",
							"type": "uint256"
						},
						{
							"internalType": "enum SharedStructs.AssetType",
							"name": "assetType",
							"type": "uint8"
						},
						{
							"internalType": "enum SharedStructs.PaymentMethod",
							"name": "priceCurrency",
							"type": "uint8"
						},
						{
							"internalType": "bool",
							"name": "authorizedBuyersOnly",
							"type": "bool"
						}
					],
					"internalType": "struct SharedStructs.Order[]",
					"name": "",
					"type": "tuple[]"
				}
			],
			"stateMutability": "view",
			"type": "function"
		},
		{
			"inputs": [],
			"name": "getBuyOrdersUSDT",
			"outputs": [
				{
					"components": [
						{
							"internalType": "uint256",
							"name": "orderID",
							"type": "uint256"
						},
						{
							"internalType": "address payable",
							"name": "user",
							"type": "address"
						},
						{
							"internalType": "uint256",
							"name": "price",
							"type": "uint256"
						},
						{
							"internalType": "uint256",
							"name": "amount",
							"type": "uint256"
						},
						{
							"internalType": "uint256",
							"name": "fulfilledAmount",
							"type": "uint256"
						},
						{
							"internalType": "enum SharedStructs.AssetType",
							"name": "assetType",
							"type": "uint8"
						},
						{
							"internalType": "enum SharedStructs.PaymentMethod",
							"name": "priceCurrency",
							"type": "uint8"
						},
						{
							"internalType": "bool",
							"name": "authorizedBuyersOnly",
							"type": "bool"
						}
					],
					"internalType": "struct SharedStructs.Order[]",
					"name": "",
					"type": "tuple[]"
				}
			],
			"stateMutability": "view",
			"type": "function"
		},
		{
			"inputs": [
				{
					"internalType": "address",
					"name": "account",
					"type": "address"
				}
			],
			"name": "getNickeliumBalance",
			"outputs": [
				{
					"internalType": "uint256",
					"name": "",
					"type": "uint256"
				}
			],
			"stateMutability": "view",
			"type": "function"
		},
		{
			"inputs": [],
			"name": "getSellOrdersEther",
			"outputs": [
				{
					"components": [
						{
							"internalType": "uint256",
							"name": "orderID",
							"type": "uint256"
						},
						{
							"internalType": "address payable",
							"name": "user",
							"type": "address"
						},
						{
							"internalType": "uint256",
							"name": "price",
							"type": "uint256"
						},
						{
							"internalType": "uint256",
							"name": "amount",
							"type": "uint256"
						},
						{
							"internalType": "uint256",
							"name": "fulfilledAmount",
							"type": "uint256"
						},
						{
							"internalType": "enum SharedStructs.AssetType",
							"name": "assetType",
							"type": "uint8"
						},
						{
							"internalType": "enum SharedStructs.PaymentMethod",
							"name": "priceCurrency",
							"type": "uint8"
						},
						{
							"internalType": "bool",
							"name": "authorizedBuyersOnly",
							"type": "bool"
						}
					],
					"internalType": "struct SharedStructs.Order[]",
					"name": "",
					"type": "tuple[]"
				}
			],
			"stateMutability": "view",
			"type": "function"
		},
		{
			"inputs": [],
			"name": "getSellOrdersUSDC",
			"outputs": [
				{
					"components": [
						{
							"internalType": "uint256",
							"name": "orderID",
							"type": "uint256"
						},
						{
							"internalType": "address payable",
							"name": "user",
							"type": "address"
						},
						{
							"internalType": "uint256",
							"name": "price",
							"type": "uint256"
						},
						{
							"internalType": "uint256",
							"name": "amount",
							"type": "uint256"
						},
						{
							"internalType": "uint256",
							"name": "fulfilledAmount",
							"type": "uint256"
						},
						{
							"internalType": "enum SharedStructs.AssetType",
							"name": "assetType",
							"type": "uint8"
						},
						{
							"internalType": "enum SharedStructs.PaymentMethod",
							"name": "priceCurrency",
							"type": "uint8"
						},
						{
							"internalType": "bool",
							"name": "authorizedBuyersOnly",
							"type": "bool"
						}
					],
					"internalType": "struct SharedStructs.Order[]",
					"name": "",
					"type": "tuple[]"
				}
			],
			"stateMutability": "view",
			"type": "function"
		},
		{
			"inputs": [],
			"name": "getSellOrdersUSDT",
			"outputs": [
				{
					"components": [
						{
							"internalType": "uint256",
							"name": "orderID",
							"type": "uint256"
						},
						{
							"internalType": "address payable",
							"name": "user",
							"type": "address"
						},
						{
							"internalType": "uint256",
							"name": "price",
							"type": "uint256"
						},
						{
							"internalType": "uint256",
							"name": "amount",
							"type": "uint256"
						},
						{
							"internalType": "uint256",
							"name": "fulfilledAmount",
							"type": "uint256"
						},
						{
							"internalType": "enum SharedStructs.AssetType",
							"name": "assetType",
							"type": "uint8"
						},
						{
							"internalType": "enum SharedStructs.PaymentMethod",
							"name": "priceCurrency",
							"type": "uint8"
						},
						{
							"internalType": "bool",
							"name": "authorizedBuyersOnly",
							"type": "bool"
						}
					],
					"internalType": "struct SharedStructs.Order[]",
					"name": "",
					"type": "tuple[]"
				}
			],
			"stateMutability": "view",
			"type": "function"
		},
		{
			"inputs": [],
			"name": "migrateBalances",
			"outputs": [],
			"stateMutability": "nonpayable",
			"type": "function"
		},
		{
			"inputs": [],
			"name": "mine1NFT",
			"outputs": [
				{
					"internalType": "contract INFTContract",
					"name": "",
					"type": "address"
				}
			],
			"stateMutability": "view",
			"type": "function"
		},
		{
			"inputs": [],
			"name": "mine2NFT",
			"outputs": [
				{
					"internalType": "contract INFTContract",
					"name": "",
					"type": "address"
				}
			],
			"stateMutability": "view",
			"type": "function"
		},
		{
			"inputs": [],
			"name": "mine3NFT",
			"outputs": [
				{
					"internalType": "contract INFTContract",
					"name": "",
					"type": "address"
				}
			],
			"stateMutability": "view",
			"type": "function"
		},
		{
			"inputs": [],
			"name": "mine4NFT",
			"outputs": [
				{
					"internalType": "contract INFTContract",
					"name": "",
					"type": "address"
				}
			],
			"stateMutability": "view",
			"type": "function"
		},
		{
			"inputs": [],
			"name": "mine5NFT",
			"outputs": [
				{
					"internalType": "contract INFTContract",
					"name": "",
					"type": "address"
				}
			],
			"stateMutability": "view",
			"type": "function"
		},
		{
			"inputs": [
				{
					"internalType": "address",
					"name": "account",
					"type": "address"
				},
				{
					"internalType": "uint256",
					"name": "TokenUnits",
					"type": "uint256"
				}
			],
			"name": "mint",
			"outputs": [],
			"stateMutability": "nonpayable",
			"type": "function"
		},
		{
			"inputs": [],
			"name": "name",
			"outputs": [
				{
					"internalType": "string",
					"name": "",
					"type": "string"
				}
			],
			"stateMutability": "view",
			"type": "function"
		},
		{
			"inputs": [],
			"name": "owner",
			"outputs": [
				{
					"internalType": "address",
					"name": "",
					"type": "address"
				}
			],
			"stateMutability": "view",
			"type": "function"
		},
		{
			"inputs": [],
			"name": "pause",
			"outputs": [],
			"stateMutability": "nonpayable",
			"type": "function"
		},
		{
			"inputs": [],
			"name": "paused",
			"outputs": [
				{
					"internalType": "bool",
					"name": "",
					"type": "bool"
				}
			],
			"stateMutability": "view",
			"type": "function"
		},
		{
			"inputs": [
				{
					"internalType": "uint256",
					"name": "_price",
					"type": "uint256"
				},
				{
					"internalType": "uint256",
					"name": "_amount",
					"type": "uint256"
				}
			],
			"name": "placeBuyOrderEther",
			"outputs": [],
			"stateMutability": "payable",
			"type": "function"
		},
		{
			"inputs": [
				{
					"internalType": "uint256",
					"name": "_price",
					"type": "uint256"
				},
				{
					"internalType": "uint256",
					"name": "_amount",
					"type": "uint256"
				}
			],
			"name": "placeBuyOrderUSDC",
			"outputs": [],
			"stateMutability": "payable",
			"type": "function"
		},
		{
			"inputs": [
				{
					"internalType": "uint256",
					"name": "_price",
					"type": "uint256"
				},
				{
					"internalType": "uint256",
					"name": "_amount",
					"type": "uint256"
				}
			],
			"name": "placeBuyOrderUSDT",
			"outputs": [],
			"stateMutability": "payable",
			"type": "function"
		},
		{
			"inputs": [
				{
					"internalType": "uint256",
					"name": "_price",
					"type": "uint256"
				},
				{
					"internalType": "uint256",
					"name": "_amount",
					"type": "uint256"
				}
			],
			"name": "placeSellOrderEther",
			"outputs": [],
			"stateMutability": "payable",
			"type": "function"
		},
		{
			"inputs": [
				{
					"internalType": "uint256",
					"name": "_price",
					"type": "uint256"
				},
				{
					"internalType": "uint256",
					"name": "_amount",
					"type": "uint256"
				}
			],
			"name": "placeSellOrderUSDC",
			"outputs": [],
			"stateMutability": "payable",
			"type": "function"
		},
		{
			"inputs": [
				{
					"internalType": "uint256",
					"name": "_price",
					"type": "uint256"
				},
				{
					"internalType": "uint256",
					"name": "_amount",
					"type": "uint256"
				}
			],
			"name": "placeSellOrderUSDT",
			"outputs": [],
			"stateMutability": "payable",
			"type": "function"
		},
		{
			"inputs": [],
			"name": "removeAllOrders",
			"outputs": [],
			"stateMutability": "nonpayable",
			"type": "function"
		},
		{
			"inputs": [
				{
					"internalType": "address",
					"name": "_address",
					"type": "address"
				},
				{
					"internalType": "bool",
					"name": "_status",
					"type": "bool"
				}
			],
			"name": "setAuthorizedAddress",
			"outputs": [],
			"stateMutability": "nonpayable",
			"type": "function"
		},
		{
			"inputs": [
				{
					"internalType": "address",
					"name": "_centralAddress",
					"type": "address"
				},
				{
					"internalType": "address",
					"name": "_escrowHandlerAddress",
					"type": "address"
				},
				{
					"internalType": "address",
					"name": "_adminControlAddress",
					"type": "address"
				},
				{
					"internalType": "address",
					"name": "_usdtAddress",
					"type": "address"
				},
				{
					"internalType": "address",
					"name": "_usdcAddress",
					"type": "address"
				},
				{
					"internalType": "address",
					"name": "_usdcOrdersAddress",
					"type": "address"
				},
				{
					"internalType": "address",
					"name": "_usdtOrdersAddress",
					"type": "address"
				},
				{
					"internalType": "address",
					"name": "_balancesContract",
					"type": "address"
				}
			],
			"name": "setContracts",
			"outputs": [],
			"stateMutability": "nonpayable",
			"type": "function"
		},
		{
			"inputs": [
				{
					"internalType": "address",
					"name": "_mine1NFTAddress",
					"type": "address"
				},
				{
					"internalType": "address",
					"name": "_mine2NFTAddress",
					"type": "address"
				},
				{
					"internalType": "address",
					"name": "_mine3NFTAddress",
					"type": "address"
				},
				{
					"internalType": "address",
					"name": "_mine4NFTAddress",
					"type": "address"
				},
				{
					"internalType": "address",
					"name": "_mine5NFTAddress",
					"type": "address"
				}
			],
			"name": "setNFTContracts",
			"outputs": [],
			"stateMutability": "nonpayable",
			"type": "function"
		},
		{
			"inputs": [
				{
					"internalType": "address",
					"name": "newOwner",
					"type": "address"
				}
			],
			"name": "setOwner",
			"outputs": [],
			"stateMutability": "nonpayable",
			"type": "function"
		},
		{
			"inputs": [],
			"name": "symbol",
			"outputs": [
				{
					"internalType": "string",
					"name": "",
					"type": "string"
				}
			],
			"stateMutability": "view",
			"type": "function"
		},
		{
			"inputs": [],
			"name": "totalNickelInStock",
			"outputs": [
				{
					"internalType": "uint256",
					"name": "",
					"type": "uint256"
				}
			],
			"stateMutability": "view",
			"type": "function"
		},
		{
			"inputs": [],
			"name": "totalSupply",
			"outputs": [
				{
					"internalType": "uint256",
					"name": "",
					"type": "uint256"
				}
			],
			"stateMutability": "view",
			"type": "function"
		},
		{
			"inputs": [
				{
					"internalType": "address",
					"name": "_to",
					"type": "address"
				},
				{
					"internalType": "uint256",
					"name": "amount",
					"type": "uint256"
				}
			],
			"name": "transfer",
			"outputs": [
				{
					"internalType": "bool",
					"name": "",
					"type": "bool"
				}
			],
			"stateMutability": "nonpayable",
			"type": "function"
		},
		{
			"inputs": [
				{
					"internalType": "address",
					"name": "from",
					"type": "address"
				},
				{
					"internalType": "address",
					"name": "to",
					"type": "address"
				},
				{
					"internalType": "uint256",
					"name": "value",
					"type": "uint256"
				}
			],
			"name": "transferFrom",
			"outputs": [
				{
					"internalType": "bool",
					"name": "",
					"type": "bool"
				}
			],
			"stateMutability": "nonpayable",
			"type": "function"
		},
		{
			"inputs": [
				{
					"internalType": "address",
					"name": "recipient",
					"type": "address"
				},
				{
					"internalType": "uint256",
					"name": "amount",
					"type": "uint256"
				}
			],
			"name": "transferFromContract",
			"outputs": [],
			"stateMutability": "nonpayable",
			"type": "function"
		},
		{
			"inputs": [],
			"name": "unpause",
			"outputs": [],
			"stateMutability": "nonpayable",
			"type": "function"
		},
		{
			"inputs": [],
			"name": "usdcOrders",
			"outputs": [
				{
					"internalType": "contract IUSDCorders",
					"name": "",
					"type": "address"
				}
			],
			"stateMutability": "view",
			"type": "function"
		},
		{
			"inputs": [],
			"name": "usdtOrders",
			"outputs": [
				{
					"internalType": "contract IUSDTorders",
					"name": "",
					"type": "address"
				}
			],
			"stateMutability": "view",
			"type": "function"
		}
	]
}