{
	"data": {
		"bytecode": {
			"linkReferences": {},
			"object": "6080604052348015600e575f5ffd5b5060015f818155815460ff19908116835533808352600460205260409092208054909116909217909155600580546001600160a01b0319169091179055610af7806100585f395ff3fe608060405234801561000f575f5ffd5b50600436106100ad575f3560e01c80630d462d44146100b15780631351cf51146100c657806313af4035146100d95780633f4ba83a146100ec5780635c975abb146100f457806371dc7725146101105780638456cb591461013057806387ad8f87146101385780638da5cb5b146101505780639c5338a514610163578063b3066d4914610176578063ced6f7df14610189578063f19e207e1461019c575b5f5ffd5b6100c46100bf366004610906565b6101be565b005b6100c46100d436600461097c565b610390565b6100c46100e73660046109ad565b6103f9565b6100c4610449565b60015460ff165b60405190151581526020015b60405180910390f35b600254610123906001600160a01b031681565b60405161010791906109cd565b6100c4610492565b6001546101239061010090046001600160a01b031681565b600554610123906001600160a01b031681565b600354610123906001600160a01b031681565b6100c46101843660046109e1565b6104d8565b6100c4610197366004610906565b61065e565b6100fb6101aa3660046109ad565b60046020525f908152604090205460ff1681565b335f9081526004602052604090205460ff166101f55760405162461bcd60e51b81526004016101ec90610a21565b60405180910390fd5b6101fd61079e565b6102056107c6565b5f82600281111561021857610218610a49565b0361028f576001546040516303aa2b9360e11b81526101009091046001600160a01b03169063075457269061025d908a908a908a908a908a908a908a90600401610a5d565b5f604051808303815f87803b158015610274575f5ffd5b505af1158015610286573d5f5f3e3d5ffd5b5050505061037e565b60018260028111156102a3576102a3610a49565b036102e4576002546040516303aa2b9360e11b81526001600160a01b039091169063075457269061025d908a908a908a908a908a908a908a90600401610a5d565b60028260028111156102f8576102f8610a49565b03610339576003546040516303aa2b9360e11b81526001600160a01b039091169063075457269061025d908a908a908a908a908a908a908a90600401610a5d565b60405162461bcd60e51b815260206004820152601a602482015279155b9cdd5c1c1bdc9d1959081c185e5b595b9d081b595d1a1bd960321b60448201526064016101ec565b61038760015f55565b50505050505050565b335f9081526004602052604090205460ff166103be5760405162461bcd60e51b81526004016101ec90610a21565b6103c661079e565b6103ce6107c6565b6001600160a01b0382165f908152600460205260408120805460ff1916831515179055600190555050565b335f9081526004602052604090205460ff166104275760405162461bcd60e51b81526004016101ec90610a21565b600580546001600160a01b0319166001600160a01b0392909216919091179055565b335f9081526004602052604090205460ff166104775760405162461bcd60e51b81526004016101ec90610a21565b61047f61079e565b61048761080c565b61049060015f55565b565b61049a6107c6565b335f9081526004602052604090205460ff166104c85760405162461bcd60e51b81526004016101ec90610a21565b6104d061079e565b610487610858565b335f9081526004602052604090205460ff166105065760405162461bcd60e51b81526004016101ec90610a21565b61050e61079e565b6105166107c6565b6001600160a01b03831661056c5760405162461bcd60e51b815260206004820152601d60248201527f496e76616c696420657363726f7748616e646c6572206164647265737300000060448201526064016101ec565b6001600160a01b0382166105bf5760405162461bcd60e51b815260206004820152601a602482015279496e76616c696420757364744f7264657273206164647265737360301b60448201526064016101ec565b6001600160a01b0381166106125760405162461bcd60e51b815260206004820152601a602482015279496e76616c696420757364634f7264657273206164647265737360301b60448201526064016101ec565b60018054610100600160a81b0319166101006001600160a01b0395861602178155600280546001600160a01b031990811694861694909417905560038054909316919093161790555f55565b335f9081526004602052604090205460ff1661068c5760405162461bcd60e51b81526004016101ec90610a21565b61069461079e565b61069c6107c6565b5f8260028111156106af576106af610a49565b036106f4576001546040516307e8843d60e41b81526101009091046001600160a01b031690637e8843d09061025d908a908a908a908a908a908a908a90600401610a5d565b600182600281111561070857610708610a49565b03610749576002546040516307e8843d60e41b81526001600160a01b0390911690637e8843d09061025d908a908a908a908a908a908a908a90600401610a5d565b600282600281111561075d5761075d610a49565b03610339576003546040516307e8843d60e41b81526001600160a01b0390911690637e8843d09061025d908a908a908a908a908a908a908a90600401610a5d565b60025f54036107c057604051633ee5aeb560e01b815260040160405180910390fd5b60025f55565b60015460ff16156104905760405162461bcd60e51b815260206004820152601060248201526f14185d5cd8589b194e881c185d5cd95960821b60448201526064016101ec565b610814610893565b6001805460ff191690557f5db9ee0a495bf2e6ff9c91a7834c1ba4fdd244a5e8aa4e537bd38aeae4b073aa335b60405161084e91906109cd565b60405180910390a1565b6108606107c6565b6001805460ff1916811790557f62e78cea01bee320cd4e420270b5ea74000d11b0c9f74754ebdbfc544b05a25833610841565b60015460ff166104905760405162461bcd60e51b815260206004820152601460248201527314185d5cd8589b194e881b9bdd081c185d5cd95960621b60448201526064016101ec565b80356001600160a01b03811681146108f2575f5ffd5b919050565b803580151581146108f2575f5ffd5b5f5f5f5f5f5f5f60e0888a03121561091c575f5ffd5b8735965061092c602089016108dc565b9550604088013594506060880135935060808801356001811061094d575f5ffd5b925060a088013560038110610960575f5ffd5b915061096e60c089016108f7565b905092959891949750929550565b5f5f6040838503121561098d575f5ffd5b610996836108dc565b91506109a4602084016108f7565b90509250929050565b5f602082840312156109bd575f5ffd5b6109c6826108dc565b9392505050565b6001600160a01b0391909116815260200190565b5f5f5f606084860312156109f3575f5ffd5b6109fc846108dc565b9250610a0a602085016108dc565b9150610a18604085016108dc565b90509250925092565b6020808252600e908201526d139bdd08185d5d1a1bdc9a5e995960921b604082015260600190565b634e487b7160e01b5f52602160045260245ffd5b8781526001600160a01b0387166020820152604081018690526060810185905260e0810160018510610a9157610a91610a49565b84608083015260038410610aa757610aa7610a49565b8360a083015282151560c08301529897505050505050505056fea26469706673582212205d9dc772aa9f6621fb5c3382e175e16fe117de8a12410c16c1a5155f0f10d63e64736f6c634300081e0033",
			"opcodes": "PUSH1 0x80 PUSH1 0x40 MSTORE CALLVALUE DUP1 ISZERO PUSH1 0xE JUMPI PUSH0 PUSH0 REVERT JUMPDEST POP PUSH1 0x1 PUSH0 DUP2 DUP2 SSTORE DUP2 SLOAD PUSH1 0xFF NOT SWAP1 DUP2 AND DUP4 SSTORE CALLER DUP1 DUP4 MSTORE PUSH1 0x4 PUSH1 0x20 MSTORE PUSH1 0x40 SWAP1 SWAP3 KECCAK256 DUP1 SLOAD SWAP1 SWAP2 AND SWAP1 SWAP3 OR SWAP1 SWAP2 SSTORE PUSH1 0x5 DUP1 SLOAD PUSH1 0x1 PUSH1 0x1 PUSH1 0xA0 SHL SUB NOT AND SWAP1 SWAP2 OR SWAP1 SSTORE PUSH2 0xAF7 DUP1 PUSH2 0x58 PUSH0 CODECOPY PUSH0 RETURN INVALID PUSH1 0x80 PUSH1 0x40 MSTORE CALLVALUE DUP1 ISZERO PUSH2 0xF JUMPI PUSH0 PUSH0 REVERT JUMPDEST POP PUSH1 0x4 CALLDATASIZE LT PUSH2 0xAD JUMPI PUSH0 CALLDATALOAD PUSH1 0xE0 SHR DUP1 PUSH4 0xD462D44 EQ PUSH2 0xB1 JUMPI DUP1 PUSH4 0x1351CF51 EQ PUSH2 0xC6 JUMPI DUP1 PUSH4 0x13AF4035 EQ PUSH2 0xD9 JUMPI DUP1 PUSH4 0x3F4BA83A EQ PUSH2 0xEC JUMPI DUP1 PUSH4 0x5C975ABB EQ PUSH2 0xF4 JUMPI DUP1 PUSH4 0x71DC7725 EQ PUSH2 0x110 JUMPI DUP1 PUSH4 0x8456CB59 EQ PUSH2 0x130 JUMPI DUP1 PUSH4 0x87AD8F87 EQ PUSH2 0x138 JUMPI DUP1 PUSH4 0x8DA5CB5B EQ PUSH2 0x150 JUMPI DUP1 PUSH4 0x9C5338A5 EQ PUSH2 0x163 JUMPI DUP1 PUSH4 0xB3066D49 EQ PUSH2 0x176 JUMPI DUP1 PUSH4 0xCED6F7DF EQ PUSH2 0x189 JUMPI DUP1 PUSH4 0xF19E207E EQ PUSH2 0x19C JUMPI JUMPDEST PUSH0 PUSH0 REVERT JUMPDEST PUSH2 0xC4 PUSH2 0xBF CALLDATASIZE PUSH1 0x4 PUSH2 0x906 JUMP JUMPDEST PUSH2 0x1BE JUMP JUMPDEST STOP JUMPDEST PUSH2 0xC4 PUSH2 0xD4 CALLDATASIZE PUSH1 0x4 PUSH2 0x97C JUMP JUMPDEST PUSH2 0x390 JUMP JUMPDEST PUSH2 0xC4 PUSH2 0xE7 CALLDATASIZE PUSH1 0x4 PUSH2 0x9AD JUMP JUMPDEST PUSH2 0x3F9 JUMP JUMPDEST PUSH2 0xC4 PUSH2 0x449 JUMP JUMPDEST PUSH1 0x1 SLOAD PUSH1 0xFF AND JUMPDEST PUSH1 0x40 MLOAD SWAP1 ISZERO ISZERO DUP2 MSTORE PUSH1 0x20 ADD JUMPDEST PUSH1 0x40 MLOAD DUP1 SWAP2 SUB SWAP1 RETURN JUMPDEST PUSH1 0x2 SLOAD PUSH2 0x123 SWAP1 PUSH1 0x1 PUSH1 0x1 PUSH1 0xA0 SHL SUB AND DUP2 JUMP JUMPDEST PUSH1 0x40 MLOAD PUSH2 0x107 SWAP2 SWAP1 PUSH2 0x9CD JUMP JUMPDEST PUSH2 0xC4 PUSH2 0x492 JUMP JUMPDEST PUSH1 0x1 SLOAD PUSH2 0x123 SWAP1 PUSH2 0x100 SWAP1 DIV PUSH1 0x1 PUSH1 0x1 PUSH1 0xA0 SHL SUB AND DUP2 JUMP JUMPDEST PUSH1 0x5 SLOAD PUSH2 0x123 SWAP1 PUSH1 0x1 PUSH1 0x1 PUSH1 0xA0 SHL SUB AND DUP2 JUMP JUMPDEST PUSH1 0x3 SLOAD PUSH2 0x123 SWAP1 PUSH1 0x1 PUSH1 0x1 PUSH1 0xA0 SHL SUB AND DUP2 JUMP JUMPDEST PUSH2 0xC4 PUSH2 0x184 CALLDATASIZE PUSH1 0x4 PUSH2 0x9E1 JUMP JUMPDEST PUSH2 0x4D8 JUMP JUMPDEST PUSH2 0xC4 PUSH2 0x197 CALLDATASIZE PUSH1 0x4 PUSH2 0x906 JUMP JUMPDEST PUSH2 0x65E JUMP JUMPDEST PUSH2 0xFB PUSH2 0x1AA CALLDATASIZE PUSH1 0x4 PUSH2 0x9AD JUMP JUMPDEST PUSH1 0x4 PUSH1 0x20 MSTORE PUSH0 SWAP1 DUP2 MSTORE PUSH1 0x40 SWAP1 KECCAK256 SLOAD PUSH1 0xFF AND DUP2 JUMP JUMPDEST CALLER PUSH0 SWAP1 DUP2 MSTORE PUSH1 0x4 PUSH1 0x20 MSTORE PUSH1 0x40 SWAP1 KECCAK256 SLOAD PUSH1 0xFF AND PUSH2 0x1F5 JUMPI PUSH1 0x40 MLOAD PUSH3 0x461BCD PUSH1 0xE5 SHL DUP2 MSTORE PUSH1 0x4 ADD PUSH2 0x1EC SWAP1 PUSH2 0xA21 JUMP JUMPDEST PUSH1 0x40 MLOAD DUP1 SWAP2 SUB SWAP1 REVERT JUMPDEST PUSH2 0x1FD PUSH2 0x79E JUMP JUMPDEST PUSH2 0x205 PUSH2 0x7C6 JUMP JUMPDEST PUSH0 DUP3 PUSH1 0x2 DUP2 GT ISZERO PUSH2 0x218 JUMPI PUSH2 0x218 PUSH2 0xA49 JUMP JUMPDEST SUB PUSH2 0x28F JUMPI PUSH1 0x1 SLOAD PUSH1 0x40 MLOAD PUSH4 0x3AA2B93 PUSH1 0xE1 SHL DUP2 MSTORE PUSH2 0x100 SWAP1 SWAP2 DIV PUSH1 0x1 PUSH1 0x1 PUSH1 0xA0 SHL SUB AND SWAP1 PUSH4 0x7545726 SWAP1 PUSH2 0x25D SWAP1 DUP11 SWAP1 DUP11 SWAP1 DUP11 SWAP1 DUP11 SWAP1 DUP11 SWAP1 DUP11 SWAP1 DUP11 SWAP1 PUSH1 0x4 ADD PUSH2 0xA5D JUMP JUMPDEST PUSH0 PUSH1 0x40 MLOAD DUP1 DUP4 SUB DUP2 PUSH0 DUP8 DUP1 EXTCODESIZE ISZERO DUP1 ISZERO PUSH2 0x274 JUMPI PUSH0 PUSH0 REVERT JUMPDEST POP GAS CALL ISZERO DUP1 ISZERO PUSH2 0x286 JUMPI RETURNDATASIZE PUSH0 PUSH0 RETURNDATACOPY RETURNDATASIZE PUSH0 REVERT JUMPDEST POP POP POP POP PUSH2 0x37E JUMP JUMPDEST PUSH1 0x1 DUP3 PUSH1 0x2 DUP2 GT ISZERO PUSH2 0x2A3 JUMPI PUSH2 0x2A3 PUSH2 0xA49 JUMP JUMPDEST SUB PUSH2 0x2E4 JUMPI PUSH1 0x2 SLOAD PUSH1 0x40 MLOAD PUSH4 0x3AA2B93 PUSH1 0xE1 SHL DUP2 MSTORE PUSH1 0x1 PUSH1 0x1 PUSH1 0xA0 SHL SUB SWAP1 SWAP2 AND SWAP1 PUSH4 0x7545726 SWAP1 PUSH2 0x25D SWAP1 DUP11 SWAP1 DUP11 SWAP1 DUP11 SWAP1 DUP11 SWAP1 DUP11 SWAP1 DUP11 SWAP1 DUP11 SWAP1 PUSH1 0x4 ADD PUSH2 0xA5D JUMP JUMPDEST PUSH1 0x2 DUP3 PUSH1 0x2 DUP2 GT ISZERO PUSH2 0x2F8 JUMPI PUSH2 0x2F8 PUSH2 0xA49 JUMP JUMPDEST SUB PUSH2 0x339 JUMPI PUSH1 0x3 SLOAD PUSH1 0x40 MLOAD PUSH4 0x3AA2B93 PUSH1 0xE1 SHL DUP2 MSTORE PUSH1 0x1 PUSH1 0x1 PUSH1 0xA0 SHL SUB SWAP1 SWAP2 AND SWAP1 PUSH4 0x7545726 SWAP1 PUSH2 0x25D SWAP1 DUP11 SWAP1 DUP11 SWAP1 DUP11 SWAP1 DUP11 SWAP1 DUP11 SWAP1 DUP11 SWAP1 DUP11 SWAP1 PUSH1 0x4 ADD PUSH2 0xA5D JUMP JUMPDEST PUSH1 0x40 MLOAD PUSH3 0x461BCD PUSH1 0xE5 SHL DUP2 MSTORE PUSH1 0x20 PUSH1 0x4 DUP3 ADD MSTORE PUSH1 0x1A PUSH1 0x24 DUP3 ADD MSTORE PUSH26 0x155B9CDD5C1C1BDC9D1959081C185E5B595B9D081B595D1A1BD9 PUSH1 0x32 SHL PUSH1 0x44 DUP3 ADD MSTORE PUSH1 0x64 ADD PUSH2 0x1EC JUMP JUMPDEST PUSH2 0x387 PUSH1 0x1 PUSH0 SSTORE JUMP JUMPDEST POP POP POP POP POP POP POP JUMP JUMPDEST CALLER PUSH0 SWAP1 DUP2 MSTORE PUSH1 0x4 PUSH1 0x20 MSTORE PUSH1 0x40 SWAP1 KECCAK256 SLOAD PUSH1 0xFF AND PUSH2 0x3BE JUMPI PUSH1 0x40 MLOAD PUSH3 0x461BCD PUSH1 0xE5 SHL DUP2 MSTORE PUSH1 0x4 ADD PUSH2 0x1EC SWAP1 PUSH2 0xA21 JUMP JUMPDEST PUSH2 0x3C6 PUSH2 0x79E JUMP JUMPDEST PUSH2 0x3CE PUSH2 0x7C6 JUMP JUMPDEST PUSH1 0x1 PUSH1 0x1 PUSH1 0xA0 SHL SUB DUP3 AND PUSH0 SWAP1 DUP2 MSTORE PUSH1 0x4 PUSH1 0x20 MSTORE PUSH1 0x40 DUP2 KECCAK256 DUP1 SLOAD PUSH1 0xFF NOT AND DUP4 ISZERO ISZERO OR SWAP1 SSTORE PUSH1 0x1 SWAP1 SSTORE POP POP JUMP JUMPDEST CALLER PUSH0 SWAP1 DUP2 MSTORE PUSH1 0x4 PUSH1 0x20 MSTORE PUSH1 0x40 SWAP1 KECCAK256 SLOAD PUSH1 0xFF AND PUSH2 0x427 JUMPI PUSH1 0x40 MLOAD PUSH3 0x461BCD PUSH1 0xE5 SHL DUP2 MSTORE PUSH1 0x4 ADD PUSH2 0x1EC SWAP1 PUSH2 0xA21 JUMP JUMPDEST PUSH1 0x5 DUP1 SLOAD PUSH1 0x1 PUSH1 0x1 PUSH1 0xA0 SHL SUB NOT AND PUSH1 0x1 PUSH1 0x1 PUSH1 0xA0 SHL SUB SWAP3 SWAP1 SWAP3 AND SWAP2 SWAP1 SWAP2 OR SWAP1 SSTORE JUMP JUMPDEST CALLER PUSH0 SWAP1 DUP2 MSTORE PUSH1 0x4 PUSH1 0x20 MSTORE PUSH1 0x40 SWAP1 KECCAK256 SLOAD PUSH1 0xFF AND PUSH2 0x477 JUMPI PUSH1 0x40 MLOAD PUSH3 0x461BCD PUSH1 0xE5 SHL DUP2 MSTORE PUSH1 0x4 ADD PUSH2 0x1EC SWAP1 PUSH2 0xA21 JUMP JUMPDEST PUSH2 0x47F PUSH2 0x79E JUMP JUMPDEST PUSH2 0x487 PUSH2 0x80C JUMP JUMPDEST PUSH2 0x490 PUSH1 0x1 PUSH0 SSTORE JUMP JUMPDEST JUMP JUMPDEST PUSH2 0x49A PUSH2 0x7C6 JUMP JUMPDEST CALLER PUSH0 SWAP1 DUP2 MSTORE PUSH1 0x4 PUSH1 0x20 MSTORE PUSH1 0x40 SWAP1 KECCAK256 SLOAD PUSH1 0xFF AND PUSH2 0x4C8 JUMPI PUSH1 0x40 MLOAD PUSH3 0x461BCD PUSH1 0xE5 SHL DUP2 MSTORE PUSH1 0x4 ADD PUSH2 0x1EC SWAP1 PUSH2 0xA21 JUMP JUMPDEST PUSH2 0x4D0 PUSH2 0x79E JUMP JUMPDEST PUSH2 0x487 PUSH2 0x858 JUMP JUMPDEST CALLER PUSH0 SWAP1 DUP2 MSTORE PUSH1 0x4 PUSH1 0x20 MSTORE PUSH1 0x40 SWAP1 KECCAK256 SLOAD PUSH1 0xFF AND PUSH2 0x506 JUMPI PUSH1 0x40 MLOAD PUSH3 0x461BCD PUSH1 0xE5 SHL DUP2 MSTORE PUSH1 0x4 ADD PUSH2 0x1EC SWAP1 PUSH2 0xA21 JUMP JUMPDEST PUSH2 0x50E PUSH2 0x79E JUMP JUMPDEST PUSH2 0x516 PUSH2 0x7C6 JUMP JUMPDEST PUSH1 0x1 PUSH1 0x1 PUSH1 0xA0 SHL SUB DUP4 AND PUSH2 0x56C JUMPI PUSH1 0x40 MLOAD PUSH3 0x461BCD PUSH1 0xE5 SHL DUP2 MSTORE PUSH1 0x20 PUSH1 0x4 DUP3 ADD MSTORE PUSH1 0x1D PUSH1 0x24 DUP3 ADD MSTORE PUSH32 0x496E76616C696420657363726F7748616E646C65722061646472657373000000 PUSH1 0x44 DUP3 ADD MSTORE PUSH1 0x64 ADD PUSH2 0x1EC JUMP JUMPDEST PUSH1 0x1 PUSH1 0x1 PUSH1 0xA0 SHL SUB DUP3 AND PUSH2 0x5BF JUMPI PUSH1 0x40 MLOAD PUSH3 0x461BCD PUSH1 0xE5 SHL DUP2 MSTORE PUSH1 0x20 PUSH1 0x4 DUP3 ADD MSTORE PUSH1 0x1A PUSH1 0x24 DUP3 ADD MSTORE PUSH26 0x496E76616C696420757364744F72646572732061646472657373 PUSH1 0x30 SHL PUSH1 0x44 DUP3 ADD MSTORE PUSH1 0x64 ADD PUSH2 0x1EC JUMP JUMPDEST PUSH1 0x1 PUSH1 0x1 PUSH1 0xA0 SHL SUB DUP2 AND PUSH2 0x612 JUMPI PUSH1 0x40 MLOAD PUSH3 0x461BCD PUSH1 0xE5 SHL DUP2 MSTORE PUSH1 0x20 PUSH1 0x4 DUP3 ADD MSTORE PUSH1 0x1A PUSH1 0x24 DUP3 ADD MSTORE PUSH26 0x496E76616C696420757364634F72646572732061646472657373 PUSH1 0x30 SHL PUSH1 0x44 DUP3 ADD MSTORE PUSH1 0x64 ADD PUSH2 0x1EC JUMP JUMPDEST PUSH1 0x1 DUP1 SLOAD PUSH2 0x100 PUSH1 0x1 PUSH1 0xA8 SHL SUB NOT AND PUSH2 0x100 PUSH1 0x1 PUSH1 0x1 PUSH1 0xA0 SHL SUB SWAP6 DUP7 AND MUL OR DUP2 SSTORE PUSH1 0x2 DUP1 SLOAD PUSH1 0x1 PUSH1 0x1 PUSH1 0xA0 SHL SUB NOT SWAP1 DUP2 AND SWAP5 DUP7 AND SWAP5 SWAP1 SWAP5 OR SWAP1 SSTORE PUSH1 0x3 DUP1 SLOAD SWAP1 SWAP4 AND SWAP2 SWAP1 SWAP4 AND OR SWAP1 SSTORE PUSH0 SSTORE JUMP JUMPDEST CALLER PUSH0 SWAP1 DUP2 MSTORE PUSH1 0x4 PUSH1 0x20 MSTORE PUSH1 0x40 SWAP1 KECCAK256 SLOAD PUSH1 0xFF AND PUSH2 0x68C JUMPI PUSH1 0x40 MLOAD PUSH3 0x461BCD PUSH1 0xE5 SHL DUP2 MSTORE PUSH1 0x4 ADD PUSH2 0x1EC SWAP1 PUSH2 0xA21 JUMP JUMPDEST PUSH2 0x694 PUSH2 0x79E JUMP JUMPDEST PUSH2 0x69C PUSH2 0x7C6 JUMP JUMPDEST PUSH0 DUP3 PUSH1 0x2 DUP2 GT ISZERO PUSH2 0x6AF JUMPI PUSH2 0x6AF PUSH2 0xA49 JUMP JUMPDEST SUB PUSH2 0x6F4 JUMPI PUSH1 0x1 SLOAD PUSH1 0x40 MLOAD PUSH4 0x7E8843D PUSH1 0xE4 SHL DUP2 MSTORE PUSH2 0x100 SWAP1 SWAP2 DIV PUSH1 0x1 PUSH1 0x1 PUSH1 0xA0 SHL SUB AND SWAP1 PUSH4 0x7E8843D0 SWAP1 PUSH2 0x25D SWAP1 DUP11 SWAP1 DUP11 SWAP1 DUP11 SWAP1 DUP11 SWAP1 DUP11 SWAP1 DUP11 SWAP1 DUP11 SWAP1 PUSH1 0x4 ADD PUSH2 0xA5D JUMP JUMPDEST PUSH1 0x1 DUP3 PUSH1 0x2 DUP2 GT ISZERO PUSH2 0x708 JUMPI PUSH2 0x708 PUSH2 0xA49 JUMP JUMPDEST SUB PUSH2 0x749 JUMPI PUSH1 0x2 SLOAD PUSH1 0x40 MLOAD PUSH4 0x7E8843D PUSH1 0xE4 SHL DUP2 MSTORE PUSH1 0x1 PUSH1 0x1 PUSH1 0xA0 SHL SUB SWAP1 SWAP2 AND SWAP1 PUSH4 0x7E8843D0 SWAP1 PUSH2 0x25D SWAP1 DUP11 SWAP1 DUP11 SWAP1 DUP11 SWAP1 DUP11 SWAP1 DUP11 SWAP1 DUP11 SWAP1 DUP11 SWAP1 PUSH1 0x4 ADD PUSH2 0xA5D JUMP JUMPDEST PUSH1 0x2 DUP3 PUSH1 0x2 DUP2 GT ISZERO PUSH2 0x75D JUMPI PUSH2 0x75D PUSH2 0xA49 JUMP JUMPDEST SUB PUSH2 0x339 JUMPI PUSH1 0x3 SLOAD PUSH1 0x40 MLOAD PUSH4 0x7E8843D PUSH1 0xE4 SHL DUP2 MSTORE PUSH1 0x1 PUSH1 0x1 PUSH1 0xA0 SHL SUB SWAP1 SWAP2 AND SWAP1 PUSH4 0x7E8843D0 SWAP1 PUSH2 0x25D SWAP1 DUP11 SWAP1 DUP11 SWAP1 DUP11 SWAP1 DUP11 SWAP1 DUP11 SWAP1 DUP11 SWAP1 DUP11 SWAP1 PUSH1 0x4 ADD PUSH2 0xA5D JUMP JUMPDEST PUSH1 0x2 PUSH0 SLOAD SUB PUSH2 0x7C0 JUMPI PUSH1 0x40 MLOAD PUSH4 0x3EE5AEB5 PUSH1 0xE0 SHL DUP2 MSTORE PUSH1 0x4 ADD PUSH1 0x40 MLOAD DUP1 SWAP2 SUB SWAP1 REVERT JUMPDEST PUSH1 0x2 PUSH0 SSTORE JUMP JUMPDEST PUSH1 0x1 SLOAD PUSH1 0xFF AND ISZERO PUSH2 0x490 JUMPI PUSH1 0x40 MLOAD PUSH3 0x461BCD PUSH1 0xE5 SHL DUP2 MSTORE PUSH1 0x20 PUSH1 0x4 DUP3 ADD MSTORE PUSH1 0x10 PUSH1 0x24 DUP3 ADD MSTORE PUSH16 0x14185D5CD8589B194E881C185D5CD959 PUSH1 0x82 SHL PUSH1 0x44 DUP3 ADD MSTORE PUSH1 0x64 ADD PUSH2 0x1EC JUMP JUMPDEST PUSH2 0x814 PUSH2 0x893 JUMP JUMPDEST PUSH1 0x1 DUP1 SLOAD PUSH1 0xFF NOT AND SWAP1 SSTORE PUSH32 0x5DB9EE0A495BF2E6FF9C91A7834C1BA4FDD244A5E8AA4E537BD38AEAE4B073AA CALLER JUMPDEST PUSH1 0x40 MLOAD PUSH2 0x84E SWAP2 SWAP1 PUSH2 0x9CD JUMP JUMPDEST PUSH1 0x40 MLOAD DUP1 SWAP2 SUB SWAP1 LOG1 JUMP JUMPDEST PUSH2 0x860 PUSH2 0x7C6 JUMP JUMPDEST PUSH1 0x1 DUP1 SLOAD PUSH1 0xFF NOT AND DUP2 OR SWAP1 SSTORE PUSH32 0x62E78CEA01BEE320CD4E420270B5EA74000D11B0C9F74754EBDBFC544B05A258 CALLER PUSH2 0x841 JUMP JUMPDEST PUSH1 0x1 SLOAD PUSH1 0xFF AND PUSH2 0x490 JUMPI PUSH1 0x40 MLOAD PUSH3 0x461BCD PUSH1 0xE5 SHL DUP2 MSTORE PUSH1 0x20 PUSH1 0x4 DUP3 ADD MSTORE PUSH1 0x14 PUSH1 0x24 DUP3 ADD MSTORE PUSH20 0x14185D5CD8589B194E881B9BDD081C185D5CD959 PUSH1 0x62 SHL PUSH1 0x44 DUP3 ADD MSTORE PUSH1 0x64 ADD PUSH2 0x1EC JUMP JUMPDEST DUP1 CALLDATALOAD PUSH1 0x1 PUSH1 0x1 PUSH1 0xA0 SHL SUB DUP2 AND DUP2 EQ PUSH2 0x8F2 JUMPI PUSH0 PUSH0 REVERT JUMPDEST SWAP2 SWAP1 POP JUMP JUMPDEST DUP1 CALLDATALOAD DUP1 ISZERO ISZERO DUP2 EQ PUSH2 0x8F2 JUMPI PUSH0 PUSH0 REVERT JUMPDEST PUSH0 PUSH0 PUSH0 PUSH0 PUSH0 PUSH0 PUSH0 PUSH1 0xE0 DUP9 DUP11 SUB SLT ISZERO PUSH2 0x91C JUMPI PUSH0 PUSH0 REVERT JUMPDEST DUP8 CALLDATALOAD SWAP7 POP PUSH2 0x92C PUSH1 0x20 DUP10 ADD PUSH2 0x8DC JUMP JUMPDEST SWAP6 POP PUSH1 0x40 DUP9 ADD CALLDATALOAD SWAP5 POP PUSH1 0x60 DUP9 ADD CALLDATALOAD SWAP4 POP PUSH1 0x80 DUP9 ADD CALLDATALOAD PUSH1 0x1 DUP2 LT PUSH2 0x94D JUMPI PUSH0 PUSH0 REVERT JUMPDEST SWAP3 POP PUSH1 0xA0 DUP9 ADD CALLDATALOAD PUSH1 0x3 DUP2 LT PUSH2 0x960 JUMPI PUSH0 PUSH0 REVERT JUMPDEST SWAP2 POP PUSH2 0x96E PUSH1 0xC0 DUP10 ADD PUSH2 0x8F7 JUMP JUMPDEST SWAP1 POP SWAP3 SWAP6 SWAP9 SWAP2 SWAP5 SWAP8 POP SWAP3 SWAP6 POP JUMP JUMPDEST PUSH0 PUSH0 PUSH1 0x40 DUP4 DUP6 SUB SLT ISZERO PUSH2 0x98D JUMPI PUSH0 PUSH0 REVERT JUMPDEST PUSH2 0x996 DUP4 PUSH2 0x8DC JUMP JUMPDEST SWAP2 POP PUSH2 0x9A4 PUSH1 0x20 DUP5 ADD PUSH2 0x8F7 JUMP JUMPDEST SWAP1 POP SWAP3 POP SWAP3 SWAP1 POP JUMP JUMPDEST PUSH0 PUSH1 0x20 DUP3 DUP5 SUB SLT ISZERO PUSH2 0x9BD JUMPI PUSH0 PUSH0 REVERT JUMPDEST PUSH2 0x9C6 DUP3 PUSH2 0x8DC JUMP JUMPDEST SWAP4 SWAP3 POP POP POP JUMP JUMPDEST PUSH1 0x1 PUSH1 0x1 PUSH1 0xA0 SHL SUB SWAP2 SWAP1 SWAP2 AND DUP2 MSTORE PUSH1 0x20 ADD SWAP1 JUMP JUMPDEST PUSH0 PUSH0 PUSH0 PUSH1 0x60 DUP5 DUP7 SUB SLT ISZERO PUSH2 0x9F3 JUMPI PUSH0 PUSH0 REVERT JUMPDEST PUSH2 0x9FC DUP5 PUSH2 0x8DC JUMP JUMPDEST SWAP3 POP PUSH2 0xA0A PUSH1 0x20 DUP6 ADD PUSH2 0x8DC JUMP JUMPDEST SWAP2 POP PUSH2 0xA18 PUSH1 0x40 DUP6 ADD PUSH2 0x8DC JUMP JUMPDEST SWAP1 POP SWAP3 POP SWAP3 POP SWAP3 JUMP JUMPDEST PUSH1 0x20 DUP1 DUP3 MSTORE PUSH1 0xE SWAP1 DUP3 ADD MSTORE PUSH14 0x139BDD08185D5D1A1BDC9A5E9959 PUSH1 0x92 SHL PUSH1 0x40 DUP3 ADD MSTORE PUSH1 0x60 ADD SWAP1 JUMP JUMPDEST PUSH4 0x4E487B71 PUSH1 0xE0 SHL PUSH0 MSTORE PUSH1 0x21 PUSH1 0x4 MSTORE PUSH1 0x24 PUSH0 REVERT JUMPDEST DUP8 DUP2 MSTORE PUSH1 0x1 PUSH1 0x1 PUSH1 0xA0 SHL SUB DUP8 AND PUSH1 0x20 DUP3 ADD MSTORE PUSH1 0x40 DUP2 ADD DUP7 SWAP1 MSTORE PUSH1 0x60 DUP2 ADD DUP6 SWAP1 MSTORE PUSH1 0xE0 DUP2 ADD PUSH1 0x1 DUP6 LT PUSH2 0xA91 JUMPI PUSH2 0xA91 PUSH2 0xA49 JUMP JUMPDEST DUP5 PUSH1 0x80 DUP4 ADD MSTORE PUSH1 0x3 DUP5 LT PUSH2 0xAA7 JUMPI PUSH2 0xAA7 PUSH2 0xA49 JUMP JUMPDEST DUP4 PUSH1 0xA0 DUP4 ADD MSTORE DUP3 ISZERO ISZERO PUSH1 0xC0 DUP4 ADD MSTORE SWAP9 SWAP8 POP POP POP POP POP POP POP POP JUMP INVALID LOG2 PUSH5 0x6970667358 0x22 SLT KECCAK256 TSTORE SWAP14 0xC7 PUSH19 0xAA9F6621FB5C3382E175E16FE117DE8A12410C AND 0xC1 0xA5 ISZERO PUSH0 0xF LT 0xD6 RETURNDATACOPY PUSH5 0x736F6C6343 STOP ADDMOD 0x1E STOP CALLER "
		},
		"gasEstimates": {
			"creation": {
				"codeDepositCost": "561400",
				"executionCost": "95461",
				"totalCost": "656861"
			},
			"external": {
				"authorizedAddresses(address)": "2759",
				"escrowHandler()": "2503",
				"owner()": "2514",
				"pause()": "infinite",
				"paused()": "2347",
				"routeBuyOrder(uint256,address,uint256,uint256,uint8,uint8,bool)": "infinite",
				"routeSellOrder(uint256,address,uint256,uint256,uint8,uint8,bool)": "infinite",
				"setAuthorizedAddress(address,bool)": "infinite",
				"setContracts(address,address,address)": "infinite",
				"setOwner(address)": "26781",
				"unpause()": "infinite",
				"usdcOrders()": "2536",
				"usdtOrders()": "2448"
			}
		},
		"methodIdentifiers": {
			"authorizedAddresses(address)": "f19e207e",
			"escrowHandler()": "87ad8f87",
			"owner()": "8da5cb5b",
			"pause()": "8456cb59",
			"paused()": "5c975abb",
			"routeBuyOrder(uint256,address,uint256,uint256,uint8,uint8,bool)": "ced6f7df",
			"routeSellOrder(uint256,address,uint256,uint256,uint8,uint8,bool)": "0d462d44",
			"setAuthorizedAddress(address,bool)": "1351cf51",
			"setContracts(address,address,address)": "b3066d49",
			"setOwner(address)": "13af4035",
			"unpause()": "3f4ba83a",
			"usdcOrders()": "9c5338a5",
			"usdtOrders()": "71dc7725"
		}
	},
	"abi": [
		{
			"inputs": [],
			"stateMutability": "nonpayable",
			"type": "constructor"
		},
		{
			"inputs": [],
			"name": "ReentrancyGuardReentrantCall",
			"type": "error"
		},
		{
			"anonymous": false,
			"inputs": [
				{
					"indexed": false,
					"internalType": "address",
					"name": "account",
					"type": "address"
				}
			],
			"name": "Paused",
			"type": "event"
		},
		{
			"anonymous": false,
			"inputs": [
				{
					"indexed": false,
					"internalType": "address",
					"name": "account",
					"type": "address"
				}
			],
			"name": "Unpaused",
			"type": "event"
		},
		{
			"inputs": [
				{
					"internalType": "address",
					"name": "",
					"type": "address"
				}
			],
			"name": "authorizedAddresses",
			"outputs": [
				{
					"internalType": "bool",
					"name": "",
					"type": "bool"
				}
			],
			"stateMutability": "view",
			"type": "function"
		},
		{
			"inputs": [],
			"name": "escrowHandler",
			"outputs": [
				{
					"internalType": "contract IEscrowHandler",
					"name": "",
					"type": "address"
				}
			],
			"stateMutability": "view",
			"type": "function"
		},
		{
			"inputs": [],
			"name": "owner",
			"outputs": [
				{
					"internalType": "address",
					"name": "",
					"type": "address"
				}
			],
			"stateMutability": "view",
			"type": "function"
		},
		{
			"inputs": [],
			"name": "pause",
			"outputs": [],
			"stateMutability": "nonpayable",
			"type": "function"
		},
		{
			"inputs": [],
			"name": "paused",
			"outputs": [
				{
					"internalType": "bool",
					"name": "",
					"type": "bool"
				}
			],
			"stateMutability": "view",
			"type": "function"
		},
		{
			"inputs": [
				{
					"internalType": "uint256",
					"name": "_orderID",
					"type": "uint256"
				},
				{
					"internalType": "address",
					"name": "buyer",
					"type": "address"
				},
				{
					"internalType": "uint256",
					"name": "_price",
					"type": "uint256"
				},
				{
					"internalType": "uint256",
					"name": "_amount",
					"type": "uint256"
				},
				{
					"internalType": "enum SharedStructs.AssetType",
					"name": "_assetType",
					"type": "uint8"
				},
				{
					"internalType": "enum SharedStructs.PaymentMethod",
					"name": "_priceCurrency",
					"type": "uint8"
				},
				{
					"internalType": "bool",
					"name": "authorizedBuyersOnly",
					"type": "bool"
				}
			],
			"name": "routeBuyOrder",
			"outputs": [],
			"stateMutability": "nonpayable",
			"type": "function"
		},
		{
			"inputs": [
				{
					"internalType": "uint256",
					"name": "_orderID",
					"type": "uint256"
				},
				{
					"internalType": "address",
					"name": "seller",
					"type": "address"
				},
				{
					"internalType": "uint256",
					"name": "_price",
					"type": "uint256"
				},
				{
					"internalType": "uint256",
					"name": "_amount",
					"type": "uint256"
				},
				{
					"internalType": "enum SharedStructs.AssetType",
					"name": "_assetType",
					"type": "uint8"
				},
				{
					"internalType": "enum SharedStructs.PaymentMethod",
					"name": "_priceCurrency",
					"type": "uint8"
				},
				{
					"internalType": "bool",
					"name": "authorizedBuyersOnly",
					"type": "bool"
				}
			],
			"name": "routeSellOrder",
			"outputs": [],
			"stateMutability": "nonpayable",
			"type": "function"
		},
		{
			"inputs": [
				{
					"internalType": "address",
					"name": "_address",
					"type": "address"
				},
				{
					"internalType": "bool",
					"name": "_status",
					"type": "bool"
				}
			],
			"name": "setAuthorizedAddress",
			"outputs": [],
			"stateMutability": "nonpayable",
			"type": "function"
		},
		{
			"inputs": [
				{
					"internalType": "address",
					"name": "_escrowHandler",
					"type": "address"
				},
				{
					"internalType": "address",
					"name": "_usdtOrders",
					"type": "address"
				},
				{
					"internalType": "address",
					"name": "_usdcOrders",
					"type": "address"
				}
			],
			"name": "setContracts",
			"outputs": [],
			"stateMutability": "nonpayable",
			"type": "function"
		},
		{
			"inputs": [
				{
					"internalType": "address",
					"name": "newOwner",
					"type": "address"
				}
			],
			"name": "setOwner",
			"outputs": [],
			"stateMutability": "nonpayable",
			"type": "function"
		},
		{
			"inputs": [],
			"name": "unpause",
			"outputs": [],
			"stateMutability": "nonpayable",
			"type": "function"
		},
		{
			"inputs": [],
			"name": "usdcOrders",
			"outputs": [
				{
					"internalType": "contract IUSDCorders",
					"name": "",
					"type": "address"
				}
			],
			"stateMutability": "view",
			"type": "function"
		},
		{
			"inputs": [],
			"name": "usdtOrders",
			"outputs": [
				{
					"internalType": "contract IUSDTorders",
					"name": "",
					"type": "address"
				}
			],
			"stateMutability": "view",
			"type": "function"
		}
	]
}