{
	"data": {
		"bytecode": {
			"linkReferences": {},
			"object": "608060409081525f805460ff19908116825560018080553383526002602052929091208054909116909117905561481d806100395f395ff3fe608060405234801561000f575f5ffd5b5060043610610177575f3560e01c80637e8843d0116100d15780637e8843d0146102b45780638456cb59146102c757806387ad8f87146102cf5780638da5cb5b146102e2578063985d86db146102f55780639976273414610308578063a817d34f1461031b578063a85672581461032e578063ab4b885314610341578063af23174714610354578063b6adc7d81461035c578063ba60b76e1461036f578063e3d8141714610377578063f19e207e1461038a578063f63bf8bd146103ac575f5ffd5b8063075457261461017b5780631351cf511461019057806313af4035146101a35780631b8e2ed9146101b65780632465af11146101df57806329878bc4146101f4578063327ebc65146102075780633f4ba83a1461021a57806352d38b7f14610222578063555d3e63146102355780635c975abb1461024857806360988eaf1461025e5780636a40eef3146102705780636ae51d1a146102855780636cca424f146102ac575b5f5ffd5b61018e61018936600461422d565b6103bf565b005b61018e61019e3660046142a7565b610636565b61018e6101b13660046142dc565b61069f565b6007546101c9906001600160a01b031681565b6040516101d691906142f5565b60405180910390f35b6101e76106ef565b6040516101d691906143a8565b6009546101c9906001600160a01b031681565b61018e6102153660046143f6565b610804565b61018e610acd565b61018e610230366004614426565b610b16565b6008546101c9906001600160a01b031681565b5f5460ff165b60405190151581526020016101d6565b6004545b6040519081526020016101d6565b610278610d02565b6040516101d6919061443d565b610298610293366004614426565b610df4565b6040516101d698979695949392919061444c565b6101e7610e58565b61018e6102c236600461422d565b610f64565b61018e611106565b6005546101c9906001600160a01b031681565b600a546101c9906001600160a01b031681565b610298610303366004614426565b61114c565b6006546101c9906001600160a01b031681565b610278610329366004614426565b61115b565b61018e61033c3660046144a7565b61124e565b61027861034f366004614426565b6112e7565b600354610262565b61018e61036a366004614426565b611302565b61027861149e565b61018e6103853660046143f6565b6114b9565b61024e6103983660046142dc565b60026020525f908152604090205460ff1681565b61018e6103ba3660046144cf565b611a1d565b335f9081526002602052604090205460ff166103f65760405162461bcd60e51b81526004016103ed90614530565b60405180910390fd5b6103fe611abd565b6005546040516310df52b960e01b81525f916001600160a01b0316906310df52b990610430908a908890600401614558565b602060405180830381865afa15801561044b573d5f5f3e3d5ffd5b505050506040513d601f19601f8201168201806040525081019061046f9190614575565b6005549091506001600160a01b031663e80b146d888661048f89866145a0565b6040518463ffffffff1660e01b81526004016104ad939291906145b3565b5f604051808303815f87803b1580156104c4575f5ffd5b505af11580156104d6573d5f5f3e3d5ffd5b505050505f6040518061010001604052808a8152602001896001600160a01b031681526020018881526020018781526020015f8152602001865f81111561051f5761051f614309565b815260200185600281111561053657610536614309565b8152841515602091820152600954604080516363ba5df760e01b815290519394506001600160a01b03909116926363ba5df7926004808401939192918290030181865afa158015610589573d5f5f3e3d5ffd5b505050506040513d601f19601f820116820180604052508101906105ad9190614575565b8710156105cc5760405162461bcd60e51b81526004016103ed906145de565b6004545f036105e6576105e1815f6001611b02565b61062b565b60045f815481106105f9576105f9614630565b905f5260205f2090600602016002015481604001511015610620576105e1815f6001611b02565b61062b6004826121d7565b505050505050505050565b335f9081526002602052604090205460ff166106645760405162461bcd60e51b81526004016103ed90614530565b61066c6126be565b610674611abd565b6001600160a01b0382165f908152600260205260409020805460ff1916821515179055600180555050565b335f9081526002602052604090205460ff166106cd5760405162461bcd60e51b81526004016103ed90614530565b600a80546001600160a01b0319166001600160a01b0392909216919091179055565b60606003805480602002602001604051908101604052809291908181526020015f905b828210156107fb575f8481526020908190206040805161010081018252600686029092018054835260018101546001600160a01b0316938301939093526002830154908201526003820154606082015260048201546080820152600582015490919060a083019060ff16801561078a5761078a614309565b801561079857610798614309565b81526020016005820160019054906101000a900460ff1660028111156107c0576107c0614309565b60028111156107d1576107d1614309565b81526005919091015460ff6201000090910416151560209182015290825260019092019101610712565b50505050905090565b335f9081526002602052604090205460ff166108325760405162461bcd60e51b81526004016103ed90614530565b61083a6126be565b610842611abd565b60095f9054906101000a90046001600160a01b03166001600160a01b03166363ba5df76040518163ffffffff1660e01b8152600401602060405180830381865afa158015610892573d5f5f3e3d5ffd5b505050506040513d601f19601f820116820180604052508101906108b69190614575565b8110156108d55760405162461bcd60e51b81526004016103ed906145de565b5f5b600454811015610a845782600482815481106108f5576108f5614630565b905f5260205f2090600602015f015403610a7c575f6004828154811061091d5761091d614630565b5f918252602090912060069091020160018101549091506001600160a01b0386811691161461095e5760405162461bcd60e51b81526004016103ed90614644565b6002810183905560408051610100810182528254815260018301546001600160a01b03166020820152908101849052600382015460608201526004820154608082015260058201545f9190839060a083019060ff1680156109c1576109c1614309565b80156109cf576109cf614309565b81526020016005820160019054906101000a900460ff1660028111156109f7576109f7614309565b6002811115610a0857610a08614309565b81526005919091015462010000900460ff1615156020909101529050610a3160048460016126e8565b60035415801590610a64575060035f81548110610a5057610a50614630565b905f5260205f209060060201600201548411155b15610a7457610a74815f5f611b02565b505050610abf565b6001016108d7565b5060405162461bcd60e51b815260206004820152600f60248201526e13dc99195c881b9bdd08199bdd5b99608a1b60448201526064016103ed565b610ac860018055565b505050565b335f9081526002602052604090205460ff16610afb5760405162461bcd60e51b81526004016103ed90614530565b610b036126be565b610b0b613226565b610b1460018055565b565b335f9081526002602052604090205460ff16610b445760405162461bcd60e51b81526004016103ed90614530565b6004548110610b655760405162461bcd60e51b81526004016103ed90614687565b805b600454610b76906001906146b4565b811015610ca0576004610b8a8260016145a0565b81548110610b9a57610b9a614630565b905f5260205f20906006020160048281548110610bb957610bb9614630565b5f9182526020909120825460069092020190815560018083015481830180546001600160a01b0319166001600160a01b03909216919091179055600280840154908301556003808401549083015560048084015490830155600580840154908301805460ff90921692909160ff191690838015610c3857610c38614309565b0217905550600582810154908201805460ff61010093849004169261ff001990911690836002811115610c6d57610c6d614309565b02179055506005918201549101805462ff00001916620100009283900460ff161515909202919091179055600101610b67565b506004805480610cb257610cb26146c7565b5f8281526020812060065f19909301928302018181556001810180546001600160a01b031916905560028101829055600381018290556004810191909155600501805462ffffff19169055905550565b610d0a6141ac565b60045f81548110610d1d57610d1d614630565b5f918252602091829020604080516101008101825260069093029091018054835260018101546001600160a01b0316938301939093526002830154908201526003820154606082015260048201546080820152600582015490919060a083019060ff168015610d8e57610d8e614309565b8015610d9c57610d9c614309565b81526020016005820160019054906101000a900460ff166002811115610dc457610dc4614309565b6002811115610dd557610dd5614309565b81526005919091015462010000900460ff161515602090910152919050565b60038181548110610e03575f80fd5b5f9182526020909120600690910201805460018201546002830154600384015460048501546005909501549395506001600160a01b0390921693909260ff808216916101008104821691620100009091041688565b60606004805480602002602001604051908101604052809291908181526020015f905b828210156107fb575f8481526020908190206040805161010081018252600686029092018054835260018101546001600160a01b0316938301939093526002830154908201526003820154606082015260048201546080820152600582015490919060a083019060ff168015610ef357610ef3614309565b8015610f0157610f01614309565b81526020016005820160019054906101000a900460ff166002811115610f2957610f29614309565b6002811115610f3a57610f3a614309565b81526005919091015460ff6201000090910416151560209182015290825260019092019101610e7b565b335f9081526002602052604090205460ff16610f925760405162461bcd60e51b81526004016103ed90614530565b610f9a6126be565b610fa2611abd565b5f604051806101000160405280898152602001886001600160a01b031681526020018781526020018681526020015f8152602001855f811115610fe757610fe7614309565b8152602001846002811115610ffe57610ffe614309565b8152831515602091820152600954604080516363ba5df760e01b815290519394506001600160a01b03909116926363ba5df7926004808401939192918290030181865afa158015611051573d5f5f3e3d5ffd5b505050506040513d601f19601f820116820180604052508101906110759190614575565b8610156110945760405162461bcd60e51b81526004016103ed906145de565b6003545f036110ae576110a981600180611b02565b6110f3565b60035f815481106110c1576110c1614630565b905f5260205f20906006020160020154816040015111156110e8576110a981600180611b02565b6110f3600382613271565b506110fd60018055565b50505050505050565b335f9081526002602052604090205460ff166111345760405162461bcd60e51b81526004016103ed90614530565b61113c6126be565b611144611abd565b610b0b61366e565b60048181548110610e03575f80fd5b6111636141ac565b6004828154811061117657611176614630565b5f918252602091829020604080516101008101825260069093029091018054835260018101546001600160a01b0316938301939093526002830154908201526003820154606082015260048201546080820152600582015490919060a083019060ff1680156111e7576111e7614309565b80156111f5576111f5614309565b81526020016005820160019054906101000a900460ff16600281111561121d5761121d614309565b600281111561122e5761122e614309565b81526005919091015462010000900460ff16151560209091015292915050565b335f9081526002602052604090205460ff1661127c5760405162461bcd60e51b81526004016103ed90614530565b611284611abd565b60065460405163095ea7b360e01b81526001600160a01b039091169063095ea7b3906112b690859085906004016146db565b5f604051808303815f87803b1580156112cd575f5ffd5b505af11580156112df573d5f5f3e3d5ffd5b505050505050565b6112ef6141ac565b6003828154811061117657611176614630565b335f9081526002602052604090205460ff166113305760405162461bcd60e51b81526004016103ed90614530565b60035481106113515760405162461bcd60e51b81526004016103ed90614687565b805b600354611362906001906146b4565b81101561148c5760036113768260016145a0565b8154811061138657611386614630565b905f5260205f209060060201600382815481106113a5576113a5614630565b5f9182526020909120825460069092020190815560018083015481830180546001600160a01b0319166001600160a01b03909216919091179055600280840154908301556003808401549083015560048084015490830155600580840154908301805460ff90921692909160ff19169083801561142457611424614309565b0217905550600582810154908201805460ff61010093849004169261ff00199091169083600281111561145957611459614309565b02179055506005918201549101805462ff00001916620100009283900460ff161515909202919091179055600101611353565b506003805480610cb257610cb26146c7565b6114a66141ac565b60035f81548110610d1d57610d1d614630565b335f9081526002602052604090205460ff166114e75760405162461bcd60e51b81526004016103ed90614530565b6114ef6126be565b6114f7611abd565b60095f9054906101000a90046001600160a01b03166001600160a01b03166363ba5df76040518163ffffffff1660e01b8152600401602060405180830381865afa158015611547573d5f5f3e3d5ffd5b505050506040513d601f19601f8201168201806040525081019061156b9190614575565b81101561158a5760405162461bcd60e51b81526004016103ed906145de565b5f5b600354811015610a845782600382815481106115aa576115aa614630565b905f5260205f2090600602015f015403611a15575f600382815481106115d2576115d2614630565b5f918252602090912060069091020160018101549091506001600160a01b038681169116146116135760405162461bcd60e51b81526004016103ed90614644565b600381015460028201545f906103e89061162e9084906146f4565b611638919061470b565b90505f6103e861164884886146f4565b611652919061470b565b9050818111156116d9575f61166783836146b4565b6005546001878101546040516342af7a0d60e11b81529394506001600160a01b039283169363855ef41a936116a693921691908690829060040161472a565b5f604051808303815f87803b1580156116bd575f5ffd5b505af11580156116cf573d5f5f3e3d5ffd5b50505050506118f4565b5f6116e482846146b4565b6005546001878101546040516347db859160e01b81529394505f936001600160a01b03938416936347db859193611721939091169160040161475e565b602060405180830381865afa15801561173c573d5f5f3e3d5ffd5b505050506040513d601f19601f820116820180604052508101906117609190614575565b9050818110156117c15760405162461bcd60e51b815260206004820152602660248201527f496e73756666696369656e7420657363726f772062616c616e636520666f72206044820152651c99599d5b9960d21b60648201526084016103ed565b6005546040516320cdb42760e01b8152600481018490526001600160a01b03909116906320cdb427906024015f604051808303815f87803b158015611804575f5ffd5b505af1158015611816573d5f5f3e3d5ffd5b505060065460055460018a01546040516323b872dd60e01b81526001600160a01b0393841695506323b872dd945061185a939283169290911690879060040161477b565b5f604051808303815f87803b158015611871575f5ffd5b505af1158015611883573d5f5f3e3d5ffd5b50506005546001898101546040516342af7a0d60e11b81526001600160a01b03938416955063855ef41a94506118c493909116919087905f9060040161472a565b5f604051808303815f87803b1580156118db575f5ffd5b505af11580156118ed573d5f5f3e3d5ffd5b5050505050505b6002840186905560408051610100810182528554815260018601546001600160a01b03166020820152908101879052600385015460608201526004850154608082015260058501545f9190869060a083019060ff16801561195757611957614309565b801561196557611965614309565b81526020016005820160019054906101000a900460ff16600281111561198d5761198d614309565b600281111561199e5761199e614309565b81526005919091015462010000900460ff16151560209091015290506119c66003875f6126e8565b600454158015906119f9575060045f815481106119e5576119e5614630565b905f5260205f209060060201600201548710155b15611a0a57611a0a8160015f611b02565b505050505050610abf565b60010161158c565b335f9081526002602052604090205460ff16611a4b5760405162461bcd60e51b81526004016103ed90614530565b611a536126be565b611a5b611abd565b600680546001600160a01b03199081166001600160a01b038881169190911790925560078054821687841617905560088054821686841617905560098054821685841617905560058054909116918316919091179055600180555b5050505050565b5f5460ff1615610b145760405162461bcd60e51b815260206004820152601060248201526f14185d5cd8589b194e881c185d5cd95960821b60448201526064016103ed565b611b0a611abd565b60608301515f908184611b1e576003611b21565b60045b90505f5b8154811015611ca4575f828281548110611b4157611b41614630565b905f5260205f209060060201905086158015611b675750600581015462010000900460ff165b15611bf557600954602089015160405163237b64ef60e11b81526001600160a01b03909216916346f6c9de91611b9f916004016142f5565b602060405180830381865afa158015611bba573d5f5f3e3d5ffd5b505050506040513d601f19601f82011682018060405250810190611bde919061479f565b611bf55781611bec816147ba565b92505050611b25565b5f87611c0c57816002015489604001511115611c19565b8160020154896040015110155b905080611c27575050611ca4565b611c358583600301546136aa565b9550611c438983888b6136c1565b611c4d86866146b4565b945085826003015f828254611c6291906146b4565b909155505060038201545f03611c8157611c7c8484613a0b565b611c8f565b82611c8b816147ba565b9350505b845f03611c9d575050611ca4565b5050611b25565b5f86611cb1576004611cb4565b60035b905083156121be57606088018490525f805b8254811015611dee57895f0151838281548110611ce557611ce5614630565b905f5260205f2090600602015f015403611de65789838281548110611d0c57611d0c614630565b5f91825260209182902083516006929092020190815590820151600180830180546001600160a01b0319166001600160a01b039093169290921790915560408301516002830155606083015160038301556080830151600483015560a08301516005830180549192909160ff191690838015611d8a57611d8a614309565b021790555060c082015160058201805461ff001916610100836002811115611db457611db4614309565b021790555060e0919091015160059091018054911515620100000262ff00001990921691909117905560019150611dee565b600101611cc6565b508015611e0057505050505050505050565b8154601411611e2d578715611e1f57611e1a826001613bc5565b611e2d565b611e2d828a60a00151613e73565b81545f9015611eb6575b825481108015611e9f575088611e7557828181548110611e5957611e59614630565b905f5260205f209060060201600201548a604001511015611e9f565b828181548110611e8757611e87614630565b905f5260205f209060060201600201548a6040015111155b15611eb65780611eae816147ba565b915050611e37565b8254600180820185555f8581526020908190208d516006909402019283558c015182820180546001600160a01b0319166001600160a01b0390921691909117905560408c0151600283015560608c0151600383015560808c0151600483015560a08c01516005830180548e949360ff1990911690838015611f3957611f39614309565b021790555060c082015160058201805461ff001916610100836002811115611f6357611f63614309565b021790555060e0919091015160059091018054911515620100000262ff00001990921691909117905582545f90611f9c906001906146b4565b90505b818111156120d25783611fb36001836146b4565b81548110611fc357611fc3614630565b905f5260205f209060060201848281548110611fe157611fe1614630565b5f9182526020909120825460069092020190815560018083015481830180546001600160a01b0319166001600160a01b03909216919091179055600280840154908301556003808401549083015560048084015490830155600580840154908301805460ff90921692909160ff19169083801561206057612060614309565b0217905550600582810154908201805460ff61010093849004169261ff00199091169083600281111561209557612095614309565b02179055506005918201549101805462ff00001916620100009283900460ff161515909202919091179055806120ca816147d2565b915050611f9f565b50898382815481106120e6576120e6614630565b5f91825260209182902083516006929092020190815590820151600180830180546001600160a01b0319166001600160a01b039093169290921790915560408301516002830155606083015160038301556080830151600483015560a08301516005830180549192909160ff19169083801561216457612164614309565b021790555060c082015160058201805461ff00191661010083600281111561218e5761218e614309565b021790555060e0919091015160059091018054911515620100000262ff00001990921691909117905550506121cd565b856121cd576121cd8183613a0b565b5050505050505050565b81545f5b818110801561220f575082604001518482815481106121fc576121fc614630565b905f5260205f2090600602016002015411155b15612226578061221e816147ba565b9150506121db565b601482106123b7575f8461223b6001856146b4565b8154811061224b5761224b614630565b5f918252602091829020604080516101008101825260069093029091018054835260018101546001600160a01b0316938301939093526002830154908201526003820154606082015260048201546080820152600582015490919060a083019060ff1680156122bc576122bc614309565b80156122ca576122ca614309565b81526020016005820160019054906101000a900460ff1660028111156122f2576122f2614309565b600281111561230357612303614309565b81526005919091015462010000900460ff1615156020909101526040818101519086015191925011156123535761233e858560a00151613e73565b845492508282111561234e578291505b6123b5565b60405162461bcd60e51b815260206004820152603160248201527f4e6577206f72646572207072696365206973206e6f74206c6f7720656e6f756760448201527034103a379031329034b739b2b93a32b21760791b60648201526084016103ed565b505b8354600180820186555f868152602090819020865160069094020192835585015182820180546001600160a01b0319166001600160a01b0390921691909117905560408501516002830155606085015160038301556080850151600483015560a085015160058301805487949360ff199091169083801561243a5761243a614309565b021790555060c082015160058201805461ff00191661010083600281111561246457612464614309565b021790555060e0919091015160059091018054911515620100000262ff00001990921691909117905583545f9061249d906001906146b4565b90505b818111156125d357846124b46001836146b4565b815481106124c4576124c4614630565b905f5260205f2090600602018582815481106124e2576124e2614630565b5f9182526020909120825460069092020190815560018083015481830180546001600160a01b0319166001600160a01b03909216919091179055600280840154908301556003808401549083015560048084015490830155600580840154908301805460ff90921692909160ff19169083801561256157612561614309565b0217905550600582810154908201805460ff61010093849004169261ff00199091169083600281111561259657612596614309565b02179055506005918201549101805462ff00001916620100009283900460ff161515909202919091179055806125cb816147d2565b9150506124a0565b50828482815481106125e7576125e7614630565b5f91825260209182902083516006929092020190815590820151600180830180546001600160a01b0319166001600160a01b039093169290921790915560408301516002830155606083015160038301556080830151600483015560a08301516005830180549192909160ff19169083801561266557612665614309565b021790555060c082015160058201805461ff00191661010083600281111561268f5761268f614309565b021790555060e0919091015160059091018054911515620100000262ff00001990921691909117905550505050565b6002600154036126e157604051633ee5aeb560e01b815260040160405180910390fd5b6002600155565b825482106127085760405162461bcd60e51b81526004016103ed90614687565b5f83838154811061271b5761271b614630565b5f918252602091829020604080516101008101825260069093029091018054835260018101546001600160a01b0316938301939093526002830154908201526003820154606082015260048201546080820152600582015490919060a083019060ff16801561278c5761278c614309565b801561279a5761279a614309565b81526020016005820160019054906101000a900460ff1660028111156127c2576127c2614309565b60028111156127d3576127d3614309565b81526005919091015462010000900460ff16151560209091015290505f8215612c9857835b5f8111801561283557508561280e6001836146b4565b8154811061281e5761281e614630565b905f5260205f209060060201600201548360400151105b1561297257856128466001836146b4565b8154811061285657612856614630565b905f5260205f20906006020186828154811061287457612874614630565b5f9182526020909120825460069092020190815560018083015481830180546001600160a01b0319166001600160a01b03909216919091179055600280840154908301556003808401549083015560048084015490830155600580840154908301805460ff90921692909160ff1916908380156128f3576128f3614309565b0217905550600582810154908201805460ff61010093849004169261ff00199091169083600281111561292857612928614309565b02179055506005918201549101805462ff00001916620100009283900460ff16151590920291909117905561295e6001826146b4565b94508061296a816147d2565b9150506127f8565b50835b8554612983906001906146b4565b811080156129bf5750856129988260016145a0565b815481106129a8576129a8614630565b905f5260205f209060060201600201548360400151115b15612b025781612af057856129d58260016145a0565b815481106129e5576129e5614630565b905f5260205f209060060201868281548110612a0357612a03614630565b5f9182526020909120825460069092020190815560018083015481830180546001600160a01b0319166001600160a01b03909216919091179055600280840154908301556003808401549083015560048084015490830155600580840154908301805460ff90921692909160ff191690838015612a8257612a82614309565b0217905550600582810154908201805460ff61010093849004169261ff001990911690836002811115612ab757612ab7614309565b02179055506005918201549101805462ff00001916620100009283900460ff161515909202919091179055612aed8160016145a0565b94505b80612afa816147ba565b915050612975565b50835b8554612b13906001906146b4565b81108015612b4f575085612b288260016145a0565b81548110612b3857612b38614630565b905f5260205f209060060201600201548360400151145b15612c925781612c805785612b658260016145a0565b81548110612b7557612b75614630565b905f5260205f209060060201868281548110612b9357612b93614630565b5f9182526020909120825460069092020190815560018083015481830180546001600160a01b0319166001600160a01b03909216919091179055600280840154908301556003808401549083015560048084015490830155600580840154908301805460ff90921692909160ff191690838015612c1257612c12614309565b0217905550600582810154908201805460ff61010093849004169261ff001990911690836002811115612c4757612c47614309565b02179055506005918201549101805462ff00001916620100009283900460ff161515909202919091179055612c7d8160016145a0565b94505b80612c8a816147ba565b915050612b05565b50613136565b835b5f81118015612cd7575085612cb06001836146b4565b81548110612cc057612cc0614630565b905f5260205f209060060201600201548360400151115b15612e145785612ce86001836146b4565b81548110612cf857612cf8614630565b905f5260205f209060060201868281548110612d1657612d16614630565b5f9182526020909120825460069092020190815560018083015481830180546001600160a01b0319166001600160a01b03909216919091179055600280840154908301556003808401549083015560048084015490830155600580840154908301805460ff90921692909160ff191690838015612d9557612d95614309565b0217905550600582810154908201805460ff61010093849004169261ff001990911690836002811115612dca57612dca614309565b02179055506005918201549101805462ff00001916620100009283900460ff161515909202919091179055612e006001826146b4565b945080612e0c816147d2565b915050612c9a565b50835b8554612e25906001906146b4565b81108015612e61575085612e3a8260016145a0565b81548110612e4a57612e4a614630565b905f5260205f209060060201600201548360400151105b15612fa45781612f925785612e778260016145a0565b81548110612e8757612e87614630565b905f5260205f209060060201868281548110612ea557612ea5614630565b5f9182526020909120825460069092020190815560018083015481830180546001600160a01b0319166001600160a01b03909216919091179055600280840154908301556003808401549083015560048084015490830155600580840154908301805460ff90921692909160ff191690838015612f2457612f24614309565b0217905550600582810154908201805460ff61010093849004169261ff001990911690836002811115612f5957612f59614309565b02179055506005918201549101805462ff00001916620100009283900460ff161515909202919091179055612f8f8160016145a0565b94505b80612f9c816147ba565b915050612e17565b50835b8554612fb5906001906146b4565b81108015612ff1575085612fca8260016145a0565b81548110612fda57612fda614630565b905f5260205f209060060201600201548360400151145b15613134578161312257856130078260016145a0565b8154811061301757613017614630565b905f5260205f20906006020186828154811061303557613035614630565b5f9182526020909120825460069092020190815560018083015481830180546001600160a01b0319166001600160a01b03909216919091179055600280840154908301556003808401549083015560048084015490830155600580840154908301805460ff90921692909160ff1916908380156130b4576130b4614309565b0217905550600582810154908201805460ff61010093849004169261ff0019909116908360028111156130e9576130e9614309565b02179055506005918201549101805462ff00001916620100009283900460ff16151590920291909117905561311f8160016145a0565b94505b8061312c816147ba565b915050612fa7565b505b80611ab6578185858154811061314e5761314e614630565b5f91825260209182902083516006929092020190815590820151600180830180546001600160a01b0319166001600160a01b039093169290921790915560408301516002830155606083015160038301556080830151600483015560a08301516005830180549192909160ff1916908380156131cc576131cc614309565b021790555060c082015160058201805461ff0019166101008360028111156131f6576131f6614309565b021790555060e0919091015160059091018054911515620100000262ff0000199092169190911790555050505050565b61322e614153565b5f805460ff191690557f5db9ee0a495bf2e6ff9c91a7834c1ba4fdd244a5e8aa4e537bd38aeae4b073aa335b60405161326791906142f5565b60405180910390a1565b81545f5b81811080156132a95750826040015184828154811061329657613296614630565b905f5260205f2090600602016002015410155b156132c057806132b8816147ba565b915050613275565b60148210613452575f846132d56001856146b4565b815481106132e5576132e5614630565b5f918252602091829020604080516101008101825260069093029091018054835260018101546001600160a01b0316938301939093526002830154908201526003820154606082015260048201546080820152600582015490919060a083019060ff16801561335657613356614309565b801561336457613364614309565b81526020016005820160019054906101000a900460ff16600281111561338c5761338c614309565b600281111561339d5761339d614309565b81526005919091015462010000900460ff1615156020909101526040818101519086015191925010156133ed576133d8858560c00151613bc5565b84549250828211156133e8578291505b613450565b60405162461bcd60e51b815260206004820152603260248201527f4e6577206f72646572207072696365206973206e6f74206869676820656e6f7560448201527133b4103a379031329034b739b2b93a32b21760711b60648201526084016103ed565b505b8354600180820186555f868152602090819020865160069094020192835585015182820180546001600160a01b0319166001600160a01b0390921691909117905560408501516002830155606085015160038301556080850151600483015560a085015160058301805487949360ff19909116908380156134d5576134d5614309565b021790555060c082015160058201805461ff0019166101008360028111156134ff576134ff614309565b021790555060e0919091015160059091018054911515620100000262ff00001990921691909117905583545f90613538906001906146b4565b90505b818111156125d3578461354f6001836146b4565b8154811061355f5761355f614630565b905f5260205f20906006020185828154811061357d5761357d614630565b5f9182526020909120825460069092020190815560018083015481830180546001600160a01b0319166001600160a01b03909216919091179055600280840154908301556003808401549083015560048084015490830155600580840154908301805460ff90921692909160ff1916908380156135fc576135fc614309565b0217905550600582810154908201805460ff61010093849004169261ff00199091169083600281111561363157613631614309565b02179055506005918201549101805462ff00001916620100009283900460ff16151590920291909117905580613666816147d2565b91505061353b565b613676611abd565b5f805460ff191660011790557f62e78cea01bee320cd4e420270b5ea74000d11b0c9f74754ebdbfc544b05a25861325a3390565b5f6136b8828410848461419b565b90505b92915050565b5f5f5f83156136ed575050506020840151600184015460408601516001600160a01b039091169061370c565b5050506001830154602085015160028501546001600160a01b03909216915b5f6103e861371a83886146f4565b613724919061470b565b60055460c08a01516040516342af7a0d60e11b81529293506001600160a01b039091169163855ef41a916137619188919086905f9060040161472a565b5f604051808303815f87803b158015613778575f5ffd5b505af115801561378a573d5f5f3e3d5ffd5b50506005546040516310df52b960e01b81528993506001600160a01b0390911691506310df52b9906137c29087905f90600401614558565b602060405180830381865afa1580156137dd573d5f5f3e3d5ffd5b505050506040513d601f19601f820116820180604052508101906138019190614575565b10156138675760405162461bcd60e51b815260206004820152602f60248201527f53656c6c657220646f6573206e6f74206861766520656e6f756768204e69636b60448201526e656c69756d20696e20657363726f7760881b60648201526084016103ed565b60075460055460405163da3e339760e01b81526001600160a01b039283169263da3e3397926138a0928592909116908b9060040161477b565b6020604051808303815f875af11580156138bc573d5f5f3e3d5ffd5b505050506040513d601f19601f820116820180604052508101906138e0919061479f565b50600554604051630212ae7560e31b81526001600160a01b039091169063109573a89061391590869088908b9060040161477b565b5f604051808303815f87803b15801561392c575f5ffd5b505af115801561393e573d5f5f3e3d5ffd5b50506005546040516320cdb42760e01b8152600481018590526001600160a01b0390911692506320cdb42791506024015f604051808303815f87803b158015613985575f5ffd5b505af1158015613997573d5f5f3e3d5ffd5b50506006546005546040516323b872dd60e01b81526001600160a01b0392831694506323b872dd93506139d492909116908790869060040161477b565b5f604051808303815f87803b1580156139eb575f5ffd5b505af11580156139fd573d5f5f3e3d5ffd5b505050505050505050505050565b81548110613a2b5760405162461bcd60e51b81526004016103ed90614687565b805b8254613a3b906001906146b4565b811015613b635782613a4e8260016145a0565b81548110613a5e57613a5e614630565b905f5260205f209060060201838281548110613a7c57613a7c614630565b5f9182526020909120825460069092020190815560018083015481830180546001600160a01b0319166001600160a01b03909216919091179055600280840154908301556003808401549083015560048084015490830155600580840154908301805460ff90921692909160ff191690838015613afb57613afb614309565b0217905550600582810154908201805460ff61010093849004169261ff001990911690836002811115613b3057613b30614309565b02179055506005918201549101805462ff00001916620100009283900460ff161515909202919091179055600101613a2d565b5081805480613b7457613b746146c7565b5f8281526020812060065f19909301928302018181556001810180546001600160a01b031916905560028101829055600381018290556004810191909155600501805462ffffff1916905590555050565b81545f90613bd5906001906146b4565b90505f838281548110613bea57613bea614630565b5f918252602091829020604080516101008101825260069093029091018054835260018101546001600160a01b0316938301939093526002830154908201526003820154606082015260048201546080820152600582015490919060a083019060ff168015613c5b57613c5b614309565b8015613c6957613c69614309565b81526020016005820160019054906101000a900460ff166002811115613c9157613c91614309565b6002811115613ca257613ca2614309565b81526005919091015462010000900460ff1615156020909101528454909150849080613cd057613cd06146c7565b5f8281526020812060065f19909301928302018181556001810180546001600160a01b0319169055600281018290556003810182905560048101829055600501805462ffffff191690559155606082015160408301519091906103e890613d389084906146f4565b613d42919061470b565b6005546040516320cdb42760e01b8152600481018390529192506001600160a01b0316906320cdb427906024015f604051808303815f87803b158015613d86575f5ffd5b505af1158015613d98573d5f5f3e3d5ffd5b505060065460055460208701516040516323b872dd60e01b81526001600160a01b0393841695506323b872dd9450613dd89390921691869060040161477b565b5f604051808303815f87803b158015613def575f5ffd5b505af1158015613e01573d5f5f3e3d5ffd5b505060055460208601516040516342af7a0d60e11b81526001600160a01b03909216935063855ef41a9250613e3e91899086905f9060040161472a565b5f604051808303815f87803b158015613e55575f5ffd5b505af1158015613e67573d5f5f3e3d5ffd5b50505050505050505050565b81545f90613e83906001906146b4565b90505f838281548110613e9857613e98614630565b5f918252602091829020604080516101008101825260069093029091018054835260018101546001600160a01b0316938301939093526002830154908201526003820154606082015260048201546080820152600582015490919060a083019060ff168015613f0957613f09614309565b8015613f1757613f17614309565b81526020016005820160019054906101000a900460ff166002811115613f3f57613f3f614309565b6002811115613f5057613f50614309565b81526005919091015462010000900460ff161515602091820152810151855491925090859080613f8257613f826146c7565b5f8281526020812060065f19909301928302018181556001810180546001600160a01b0319169055600281018290556003810182905560048082018390556005918201805462ffffff1916905592909355606085015192546040516310df52b960e01b815291926001600160a01b0391909116916310df52b99161400a9187918b9101614558565b602060405180830381865afa158015614025573d5f5f3e3d5ffd5b505050506040513d601f19601f820116820180604052508101906140499190614575565b90505f828210614059578261405b565b815b9050808210156140b75760405162461bcd60e51b815260206004820152602160248201527f496e73756666696369656e7420746f6b656e20657363726f772062616c616e636044820152606560f81b60648201526084016103ed565b600754604051630d44798360e11b81526001600160a01b0390911690631a88f306906140e990879085906004016146db565b5f604051808303815f87803b158015614100575f5ffd5b505af1158015614112573d5f5f3e3d5ffd5b50506005546001600160a01b0316915063e80b146d9050858961413585876146b4565b6040518463ffffffff1660e01b81526004016139d4939291906145b3565b5f5460ff16610b145760405162461bcd60e51b815260206004820152601460248201527314185d5cd8589b194e881b9bdd081c185d5cd95960621b60448201526064016103ed565b8181188315150281185b9392505050565b6040518061010001604052805f81526020015f6001600160a01b031681526020015f81526020015f81526020015f81526020015f5f8111156141f0576141f0614309565b81526020015f81525f60209091015290565b80356001600160a01b0381168114614218575f5ffd5b919050565b801515811461422a575f5ffd5b50565b5f5f5f5f5f5f5f60e0888a031215614243575f5ffd5b8735965061425360208901614202565b95506040880135945060608801359350608088013560018110614274575f5ffd5b925060a088013560038110614287575f5ffd5b915060c08801356142978161421d565b8091505092959891949750929550565b5f5f604083850312156142b8575f5ffd5b6142c183614202565b915060208301356142d18161421d565b809150509250929050565b5f602082840312156142ec575f5ffd5b6136b882614202565b6001600160a01b0391909116815260200190565b634e487b7160e01b5f52602160045260245ffd5b6001811061432d5761432d614309565b9052565b6003811061432d5761432d614309565b8051825260018060a01b03602082015116602083015260408101516040830152606081015160608301526080810151608083015260a081015161438760a084018261431d565b5060c081015161439a60c0840182614331565b5060e0908101511515910152565b602080825282518282018190525f918401906040840190835b818110156143eb576143d4838551614341565b6020939093019261010092909201916001016143c1565b509095945050505050565b5f5f5f60608486031215614408575f5ffd5b61441184614202565b95602085013595506040909401359392505050565b5f60208284031215614436575f5ffd5b5035919050565b61010081016136bb8284614341565b8881526001600160a01b0388166020820152604081018790526060810186905260808101859052610100810161448560a083018661431d565b61449260c0830185614331565b82151560e08301529998505050505050505050565b5f5f604083850312156144b8575f5ffd5b6144c183614202565b946020939093013593505050565b5f5f5f5f5f60a086880312156144e3575f5ffd5b6144ec86614202565b94506144fa60208701614202565b935061450860408701614202565b925061451660608701614202565b915061452460808701614202565b90509295509295909350565b6020808252600e908201526d139bdd08185d5d1a1bdc9a5e995960921b604082015260600190565b6001600160a01b0383168152604081016141a5602083018461431d565b5f60208284031215614585575f5ffd5b5051919050565b634e487b7160e01b5f52601160045260245ffd5b808201808211156136bb576136bb61458c565b6001600160a01b0384168152606081016145d0602083018561431d565b826040830152949350505050565b60208082526032908201527f4f72646572207072696365206d757374206265206174206c65617374207468656040820152712063757272656e74204c4d4520707269636560701b606082015260800190565b634e487b7160e01b5f52603260045260245ffd5b60208082526023908201527f4f6e6c7920746865206f776e65722063616e206368616e67652074686520707260408201526269636560e81b606082015260800190565b602080825260139082015272496e646578206f7574206f6620626f756e647360681b604082015260600190565b818103818111156136bb576136bb61458c565b634e487b7160e01b5f52603160045260245ffd5b6001600160a01b03929092168252602082015260400190565b80820281158282048414176136bb576136bb61458c565b5f8261472557634e487b7160e01b5f52601260045260245ffd5b500490565b6001600160a01b0385168152608081016147476020830186614331565b836040830152821515606083015295945050505050565b6001600160a01b0383168152604081016141a56020830184614331565b6001600160a01b039384168152919092166020820152604081019190915260600190565b5f602082840312156147af575f5ffd5b81516141a58161421d565b5f600182016147cb576147cb61458c565b5060010190565b5f816147e0576147e061458c565b505f19019056fea26469706673582212202dfc007fc0ad485f6addfcc82b9f269e77edf5e01d8750274c37f287151dbde364736f6c634300081e0033",
			"opcodes": "PUSH1 0x80 PUSH1 0x40 SWAP1 DUP2 MSTORE PUSH0 DUP1 SLOAD PUSH1 0xFF NOT SWAP1 DUP2 AND DUP3 SSTORE PUSH1 0x1 DUP1 DUP1 SSTORE CALLER DUP4 MSTORE PUSH1 0x2 PUSH1 0x20 MSTORE SWAP3 SWAP1 SWAP2 KECCAK256 DUP1 SLOAD SWAP1 SWAP2 AND SWAP1 SWAP2 OR SWAP1 SSTORE PUSH2 0x481D DUP1 PUSH2 0x39 PUSH0 CODECOPY PUSH0 RETURN INVALID PUSH1 0x80 PUSH1 0x40 MSTORE CALLVALUE DUP1 ISZERO PUSH2 0xF JUMPI PUSH0 PUSH0 REVERT JUMPDEST POP PUSH1 0x4 CALLDATASIZE LT PUSH2 0x177 JUMPI PUSH0 CALLDATALOAD PUSH1 0xE0 SHR DUP1 PUSH4 0x7E8843D0 GT PUSH2 0xD1 JUMPI DUP1 PUSH4 0x7E8843D0 EQ PUSH2 0x2B4 JUMPI DUP1 PUSH4 0x8456CB59 EQ PUSH2 0x2C7 JUMPI DUP1 PUSH4 0x87AD8F87 EQ PUSH2 0x2CF JUMPI DUP1 PUSH4 0x8DA5CB5B EQ PUSH2 0x2E2 JUMPI DUP1 PUSH4 0x985D86DB EQ PUSH2 0x2F5 JUMPI DUP1 PUSH4 0x99762734 EQ PUSH2 0x308 JUMPI DUP1 PUSH4 0xA817D34F EQ PUSH2 0x31B JUMPI DUP1 PUSH4 0xA8567258 EQ PUSH2 0x32E JUMPI DUP1 PUSH4 0xAB4B8853 EQ PUSH2 0x341 JUMPI DUP1 PUSH4 0xAF231747 EQ PUSH2 0x354 JUMPI DUP1 PUSH4 0xB6ADC7D8 EQ PUSH2 0x35C JUMPI DUP1 PUSH4 0xBA60B76E EQ PUSH2 0x36F JUMPI DUP1 PUSH4 0xE3D81417 EQ PUSH2 0x377 JUMPI DUP1 PUSH4 0xF19E207E EQ PUSH2 0x38A JUMPI DUP1 PUSH4 0xF63BF8BD EQ PUSH2 0x3AC JUMPI PUSH0 PUSH0 REVERT JUMPDEST DUP1 PUSH4 0x7545726 EQ PUSH2 0x17B JUMPI DUP1 PUSH4 0x1351CF51 EQ PUSH2 0x190 JUMPI DUP1 PUSH4 0x13AF4035 EQ PUSH2 0x1A3 JUMPI DUP1 PUSH4 0x1B8E2ED9 EQ PUSH2 0x1B6 JUMPI DUP1 PUSH4 0x2465AF11 EQ PUSH2 0x1DF JUMPI DUP1 PUSH4 0x29878BC4 EQ PUSH2 0x1F4 JUMPI DUP1 PUSH4 0x327EBC65 EQ PUSH2 0x207 JUMPI DUP1 PUSH4 0x3F4BA83A EQ PUSH2 0x21A JUMPI DUP1 PUSH4 0x52D38B7F EQ PUSH2 0x222 JUMPI DUP1 PUSH4 0x555D3E63 EQ PUSH2 0x235 JUMPI DUP1 PUSH4 0x5C975ABB EQ PUSH2 0x248 JUMPI DUP1 PUSH4 0x60988EAF EQ PUSH2 0x25E JUMPI DUP1 PUSH4 0x6A40EEF3 EQ PUSH2 0x270 JUMPI DUP1 PUSH4 0x6AE51D1A EQ PUSH2 0x285 JUMPI DUP1 PUSH4 0x6CCA424F EQ PUSH2 0x2AC JUMPI JUMPDEST PUSH0 PUSH0 REVERT JUMPDEST PUSH2 0x18E PUSH2 0x189 CALLDATASIZE PUSH1 0x4 PUSH2 0x422D JUMP JUMPDEST PUSH2 0x3BF JUMP JUMPDEST STOP JUMPDEST PUSH2 0x18E PUSH2 0x19E CALLDATASIZE PUSH1 0x4 PUSH2 0x42A7 JUMP JUMPDEST PUSH2 0x636 JUMP JUMPDEST PUSH2 0x18E PUSH2 0x1B1 CALLDATASIZE PUSH1 0x4 PUSH2 0x42DC JUMP JUMPDEST PUSH2 0x69F JUMP JUMPDEST PUSH1 0x7 SLOAD PUSH2 0x1C9 SWAP1 PUSH1 0x1 PUSH1 0x1 PUSH1 0xA0 SHL SUB AND DUP2 JUMP JUMPDEST PUSH1 0x40 MLOAD PUSH2 0x1D6 SWAP2 SWAP1 PUSH2 0x42F5 JUMP JUMPDEST PUSH1 0x40 MLOAD DUP1 SWAP2 SUB SWAP1 RETURN JUMPDEST PUSH2 0x1E7 PUSH2 0x6EF JUMP JUMPDEST PUSH1 0x40 MLOAD PUSH2 0x1D6 SWAP2 SWAP1 PUSH2 0x43A8 JUMP JUMPDEST PUSH1 0x9 SLOAD PUSH2 0x1C9 SWAP1 PUSH1 0x1 PUSH1 0x1 PUSH1 0xA0 SHL SUB AND DUP2 JUMP JUMPDEST PUSH2 0x18E PUSH2 0x215 CALLDATASIZE PUSH1 0x4 PUSH2 0x43F6 JUMP JUMPDEST PUSH2 0x804 JUMP JUMPDEST PUSH2 0x18E PUSH2 0xACD JUMP JUMPDEST PUSH2 0x18E PUSH2 0x230 CALLDATASIZE PUSH1 0x4 PUSH2 0x4426 JUMP JUMPDEST PUSH2 0xB16 JUMP JUMPDEST PUSH1 0x8 SLOAD PUSH2 0x1C9 SWAP1 PUSH1 0x1 PUSH1 0x1 PUSH1 0xA0 SHL SUB AND DUP2 JUMP JUMPDEST PUSH0 SLOAD PUSH1 0xFF AND JUMPDEST PUSH1 0x40 MLOAD SWAP1 ISZERO ISZERO DUP2 MSTORE PUSH1 0x20 ADD PUSH2 0x1D6 JUMP JUMPDEST PUSH1 0x4 SLOAD JUMPDEST PUSH1 0x40 MLOAD SWAP1 DUP2 MSTORE PUSH1 0x20 ADD PUSH2 0x1D6 JUMP JUMPDEST PUSH2 0x278 PUSH2 0xD02 JUMP JUMPDEST PUSH1 0x40 MLOAD PUSH2 0x1D6 SWAP2 SWAP1 PUSH2 0x443D JUMP JUMPDEST PUSH2 0x298 PUSH2 0x293 CALLDATASIZE PUSH1 0x4 PUSH2 0x4426 JUMP JUMPDEST PUSH2 0xDF4 JUMP JUMPDEST PUSH1 0x40 MLOAD PUSH2 0x1D6 SWAP9 SWAP8 SWAP7 SWAP6 SWAP5 SWAP4 SWAP3 SWAP2 SWAP1 PUSH2 0x444C JUMP JUMPDEST PUSH2 0x1E7 PUSH2 0xE58 JUMP JUMPDEST PUSH2 0x18E PUSH2 0x2C2 CALLDATASIZE PUSH1 0x4 PUSH2 0x422D JUMP JUMPDEST PUSH2 0xF64 JUMP JUMPDEST PUSH2 0x18E PUSH2 0x1106 JUMP JUMPDEST PUSH1 0x5 SLOAD PUSH2 0x1C9 SWAP1 PUSH1 0x1 PUSH1 0x1 PUSH1 0xA0 SHL SUB AND DUP2 JUMP JUMPDEST PUSH1 0xA SLOAD PUSH2 0x1C9 SWAP1 PUSH1 0x1 PUSH1 0x1 PUSH1 0xA0 SHL SUB AND DUP2 JUMP JUMPDEST PUSH2 0x298 PUSH2 0x303 CALLDATASIZE PUSH1 0x4 PUSH2 0x4426 JUMP JUMPDEST PUSH2 0x114C JUMP JUMPDEST PUSH1 0x6 SLOAD PUSH2 0x1C9 SWAP1 PUSH1 0x1 PUSH1 0x1 PUSH1 0xA0 SHL SUB AND DUP2 JUMP JUMPDEST PUSH2 0x278 PUSH2 0x329 CALLDATASIZE PUSH1 0x4 PUSH2 0x4426 JUMP JUMPDEST PUSH2 0x115B JUMP JUMPDEST PUSH2 0x18E PUSH2 0x33C CALLDATASIZE PUSH1 0x4 PUSH2 0x44A7 JUMP JUMPDEST PUSH2 0x124E JUMP JUMPDEST PUSH2 0x278 PUSH2 0x34F CALLDATASIZE PUSH1 0x4 PUSH2 0x4426 JUMP JUMPDEST PUSH2 0x12E7 JUMP JUMPDEST PUSH1 0x3 SLOAD PUSH2 0x262 JUMP JUMPDEST PUSH2 0x18E PUSH2 0x36A CALLDATASIZE PUSH1 0x4 PUSH2 0x4426 JUMP JUMPDEST PUSH2 0x1302 JUMP JUMPDEST PUSH2 0x278 PUSH2 0x149E JUMP JUMPDEST PUSH2 0x18E PUSH2 0x385 CALLDATASIZE PUSH1 0x4 PUSH2 0x43F6 JUMP JUMPDEST PUSH2 0x14B9 JUMP JUMPDEST PUSH2 0x24E PUSH2 0x398 CALLDATASIZE PUSH1 0x4 PUSH2 0x42DC JUMP JUMPDEST PUSH1 0x2 PUSH1 0x20 MSTORE PUSH0 SWAP1 DUP2 MSTORE PUSH1 0x40 SWAP1 KECCAK256 SLOAD PUSH1 0xFF AND DUP2 JUMP JUMPDEST PUSH2 0x18E PUSH2 0x3BA CALLDATASIZE PUSH1 0x4 PUSH2 0x44CF JUMP JUMPDEST PUSH2 0x1A1D JUMP JUMPDEST CALLER PUSH0 SWAP1 DUP2 MSTORE PUSH1 0x2 PUSH1 0x20 MSTORE PUSH1 0x40 SWAP1 KECCAK256 SLOAD PUSH1 0xFF AND PUSH2 0x3F6 JUMPI PUSH1 0x40 MLOAD PUSH3 0x461BCD PUSH1 0xE5 SHL DUP2 MSTORE PUSH1 0x4 ADD PUSH2 0x3ED SWAP1 PUSH2 0x4530 JUMP JUMPDEST PUSH1 0x40 MLOAD DUP1 SWAP2 SUB SWAP1 REVERT JUMPDEST PUSH2 0x3FE PUSH2 0x1ABD JUMP JUMPDEST PUSH1 0x5 SLOAD PUSH1 0x40 MLOAD PUSH4 0x10DF52B9 PUSH1 0xE0 SHL DUP2 MSTORE PUSH0 SWAP2 PUSH1 0x1 PUSH1 0x1 PUSH1 0xA0 SHL SUB AND SWAP1 PUSH4 0x10DF52B9 SWAP1 PUSH2 0x430 SWAP1 DUP11 SWAP1 DUP9 SWAP1 PUSH1 0x4 ADD PUSH2 0x4558 JUMP JUMPDEST PUSH1 0x20 PUSH1 0x40 MLOAD DUP1 DUP4 SUB DUP2 DUP7 GAS STATICCALL ISZERO DUP1 ISZERO PUSH2 0x44B JUMPI RETURNDATASIZE PUSH0 PUSH0 RETURNDATACOPY RETURNDATASIZE PUSH0 REVERT JUMPDEST POP POP POP POP PUSH1 0x40 MLOAD RETURNDATASIZE PUSH1 0x1F NOT PUSH1 0x1F DUP3 ADD AND DUP3 ADD DUP1 PUSH1 0x40 MSTORE POP DUP2 ADD SWAP1 PUSH2 0x46F SWAP2 SWAP1 PUSH2 0x4575 JUMP JUMPDEST PUSH1 0x5 SLOAD SWAP1 SWAP2 POP PUSH1 0x1 PUSH1 0x1 PUSH1 0xA0 SHL SUB AND PUSH4 0xE80B146D DUP9 DUP7 PUSH2 0x48F DUP10 DUP7 PUSH2 0x45A0 JUMP JUMPDEST PUSH1 0x40 MLOAD DUP5 PUSH4 0xFFFFFFFF AND PUSH1 0xE0 SHL DUP2 MSTORE PUSH1 0x4 ADD PUSH2 0x4AD SWAP4 SWAP3 SWAP2 SWAP1 PUSH2 0x45B3 JUMP JUMPDEST PUSH0 PUSH1 0x40 MLOAD DUP1 DUP4 SUB DUP2 PUSH0 DUP8 DUP1 EXTCODESIZE ISZERO DUP1 ISZERO PUSH2 0x4C4 JUMPI PUSH0 PUSH0 REVERT JUMPDEST POP GAS CALL ISZERO DUP1 ISZERO PUSH2 0x4D6 JUMPI RETURNDATASIZE PUSH0 PUSH0 RETURNDATACOPY RETURNDATASIZE PUSH0 REVERT JUMPDEST POP POP POP POP PUSH0 PUSH1 0x40 MLOAD DUP1 PUSH2 0x100 ADD PUSH1 0x40 MSTORE DUP1 DUP11 DUP2 MSTORE PUSH1 0x20 ADD DUP10 PUSH1 0x1 PUSH1 0x1 PUSH1 0xA0 SHL SUB AND DUP2 MSTORE PUSH1 0x20 ADD DUP9 DUP2 MSTORE PUSH1 0x20 ADD DUP8 DUP2 MSTORE PUSH1 0x20 ADD PUSH0 DUP2 MSTORE PUSH1 0x20 ADD DUP7 PUSH0 DUP2 GT ISZERO PUSH2 0x51F JUMPI PUSH2 0x51F PUSH2 0x4309 JUMP JUMPDEST DUP2 MSTORE PUSH1 0x20 ADD DUP6 PUSH1 0x2 DUP2 GT ISZERO PUSH2 0x536 JUMPI PUSH2 0x536 PUSH2 0x4309 JUMP JUMPDEST DUP2 MSTORE DUP5 ISZERO ISZERO PUSH1 0x20 SWAP2 DUP3 ADD MSTORE PUSH1 0x9 SLOAD PUSH1 0x40 DUP1 MLOAD PUSH4 0x63BA5DF7 PUSH1 0xE0 SHL DUP2 MSTORE SWAP1 MLOAD SWAP4 SWAP5 POP PUSH1 0x1 PUSH1 0x1 PUSH1 0xA0 SHL SUB SWAP1 SWAP2 AND SWAP3 PUSH4 0x63BA5DF7 SWAP3 PUSH1 0x4 DUP1 DUP5 ADD SWAP4 SWAP2 SWAP3 SWAP2 DUP3 SWAP1 SUB ADD DUP2 DUP7 GAS STATICCALL ISZERO DUP1 ISZERO PUSH2 0x589 JUMPI RETURNDATASIZE PUSH0 PUSH0 RETURNDATACOPY RETURNDATASIZE PUSH0 REVERT JUMPDEST POP POP POP POP PUSH1 0x40 MLOAD RETURNDATASIZE PUSH1 0x1F NOT PUSH1 0x1F DUP3 ADD AND DUP3 ADD DUP1 PUSH1 0x40 MSTORE POP DUP2 ADD SWAP1 PUSH2 0x5AD SWAP2 SWAP1 PUSH2 0x4575 JUMP JUMPDEST DUP8 LT ISZERO PUSH2 0x5CC JUMPI PUSH1 0x40 MLOAD PUSH3 0x461BCD PUSH1 0xE5 SHL DUP2 MSTORE PUSH1 0x4 ADD PUSH2 0x3ED SWAP1 PUSH2 0x45DE JUMP JUMPDEST PUSH1 0x4 SLOAD PUSH0 SUB PUSH2 0x5E6 JUMPI PUSH2 0x5E1 DUP2 PUSH0 PUSH1 0x1 PUSH2 0x1B02 JUMP JUMPDEST PUSH2 0x62B JUMP JUMPDEST PUSH1 0x4 PUSH0 DUP2 SLOAD DUP2 LT PUSH2 0x5F9 JUMPI PUSH2 0x5F9 PUSH2 0x4630 JUMP JUMPDEST SWAP1 PUSH0 MSTORE PUSH1 0x20 PUSH0 KECCAK256 SWAP1 PUSH1 0x6 MUL ADD PUSH1 0x2 ADD SLOAD DUP2 PUSH1 0x40 ADD MLOAD LT ISZERO PUSH2 0x620 JUMPI PUSH2 0x5E1 DUP2 PUSH0 PUSH1 0x1 PUSH2 0x1B02 JUMP JUMPDEST PUSH2 0x62B PUSH1 0x4 DUP3 PUSH2 0x21D7 JUMP JUMPDEST POP POP POP POP POP POP POP POP POP JUMP JUMPDEST CALLER PUSH0 SWAP1 DUP2 MSTORE PUSH1 0x2 PUSH1 0x20 MSTORE PUSH1 0x40 SWAP1 KECCAK256 SLOAD PUSH1 0xFF AND PUSH2 0x664 JUMPI PUSH1 0x40 MLOAD PUSH3 0x461BCD PUSH1 0xE5 SHL DUP2 MSTORE PUSH1 0x4 ADD PUSH2 0x3ED SWAP1 PUSH2 0x4530 JUMP JUMPDEST PUSH2 0x66C PUSH2 0x26BE JUMP JUMPDEST PUSH2 0x674 PUSH2 0x1ABD JUMP JUMPDEST PUSH1 0x1 PUSH1 0x1 PUSH1 0xA0 SHL SUB DUP3 AND PUSH0 SWAP1 DUP2 MSTORE PUSH1 0x2 PUSH1 0x20 MSTORE PUSH1 0x40 SWAP1 KECCAK256 DUP1 SLOAD PUSH1 0xFF NOT AND DUP3 ISZERO ISZERO OR SWAP1 SSTORE PUSH1 0x1 DUP1 SSTORE POP POP JUMP JUMPDEST CALLER PUSH0 SWAP1 DUP2 MSTORE PUSH1 0x2 PUSH1 0x20 MSTORE PUSH1 0x40 SWAP1 KECCAK256 SLOAD PUSH1 0xFF AND PUSH2 0x6CD JUMPI PUSH1 0x40 MLOAD PUSH3 0x461BCD PUSH1 0xE5 SHL DUP2 MSTORE PUSH1 0x4 ADD PUSH2 0x3ED SWAP1 PUSH2 0x4530 JUMP JUMPDEST PUSH1 0xA DUP1 SLOAD PUSH1 0x1 PUSH1 0x1 PUSH1 0xA0 SHL SUB NOT AND PUSH1 0x1 PUSH1 0x1 PUSH1 0xA0 SHL SUB SWAP3 SWAP1 SWAP3 AND SWAP2 SWAP1 SWAP2 OR SWAP1 SSTORE JUMP JUMPDEST PUSH1 0x60 PUSH1 0x3 DUP1 SLOAD DUP1 PUSH1 0x20 MUL PUSH1 0x20 ADD PUSH1 0x40 MLOAD SWAP1 DUP2 ADD PUSH1 0x40 MSTORE DUP1 SWAP3 SWAP2 SWAP1 DUP2 DUP2 MSTORE PUSH1 0x20 ADD PUSH0 SWAP1 JUMPDEST DUP3 DUP3 LT ISZERO PUSH2 0x7FB JUMPI PUSH0 DUP5 DUP2 MSTORE PUSH1 0x20 SWAP1 DUP2 SWAP1 KECCAK256 PUSH1 0x40 DUP1 MLOAD PUSH2 0x100 DUP2 ADD DUP3 MSTORE PUSH1 0x6 DUP7 MUL SWAP1 SWAP3 ADD DUP1 SLOAD DUP4 MSTORE PUSH1 0x1 DUP2 ADD SLOAD PUSH1 0x1 PUSH1 0x1 PUSH1 0xA0 SHL SUB AND SWAP4 DUP4 ADD SWAP4 SWAP1 SWAP4 MSTORE PUSH1 0x2 DUP4 ADD SLOAD SWAP1 DUP3 ADD MSTORE PUSH1 0x3 DUP3 ADD SLOAD PUSH1 0x60 DUP3 ADD MSTORE PUSH1 0x4 DUP3 ADD SLOAD PUSH1 0x80 DUP3 ADD MSTORE PUSH1 0x5 DUP3 ADD SLOAD SWAP1 SWAP2 SWAP1 PUSH1 0xA0 DUP4 ADD SWAP1 PUSH1 0xFF AND DUP1 ISZERO PUSH2 0x78A JUMPI PUSH2 0x78A PUSH2 0x4309 JUMP JUMPDEST DUP1 ISZERO PUSH2 0x798 JUMPI PUSH2 0x798 PUSH2 0x4309 JUMP JUMPDEST DUP2 MSTORE PUSH1 0x20 ADD PUSH1 0x5 DUP3 ADD PUSH1 0x1 SWAP1 SLOAD SWAP1 PUSH2 0x100 EXP SWAP1 DIV PUSH1 0xFF AND PUSH1 0x2 DUP2 GT ISZERO PUSH2 0x7C0 JUMPI PUSH2 0x7C0 PUSH2 0x4309 JUMP JUMPDEST PUSH1 0x2 DUP2 GT ISZERO PUSH2 0x7D1 JUMPI PUSH2 0x7D1 PUSH2 0x4309 JUMP JUMPDEST DUP2 MSTORE PUSH1 0x5 SWAP2 SWAP1 SWAP2 ADD SLOAD PUSH1 0xFF PUSH3 0x10000 SWAP1 SWAP2 DIV AND ISZERO ISZERO PUSH1 0x20 SWAP2 DUP3 ADD MSTORE SWAP1 DUP3 MSTORE PUSH1 0x1 SWAP1 SWAP3 ADD SWAP2 ADD PUSH2 0x712 JUMP JUMPDEST POP POP POP POP SWAP1 POP SWAP1 JUMP JUMPDEST CALLER PUSH0 SWAP1 DUP2 MSTORE PUSH1 0x2 PUSH1 0x20 MSTORE PUSH1 0x40 SWAP1 KECCAK256 SLOAD PUSH1 0xFF AND PUSH2 0x832 JUMPI PUSH1 0x40 MLOAD PUSH3 0x461BCD PUSH1 0xE5 SHL DUP2 MSTORE PUSH1 0x4 ADD PUSH2 0x3ED SWAP1 PUSH2 0x4530 JUMP JUMPDEST PUSH2 0x83A PUSH2 0x26BE JUMP JUMPDEST PUSH2 0x842 PUSH2 0x1ABD JUMP JUMPDEST PUSH1 0x9 PUSH0 SWAP1 SLOAD SWAP1 PUSH2 0x100 EXP SWAP1 DIV PUSH1 0x1 PUSH1 0x1 PUSH1 0xA0 SHL SUB AND PUSH1 0x1 PUSH1 0x1 PUSH1 0xA0 SHL SUB AND PUSH4 0x63BA5DF7 PUSH1 0x40 MLOAD DUP2 PUSH4 0xFFFFFFFF AND PUSH1 0xE0 SHL DUP2 MSTORE PUSH1 0x4 ADD PUSH1 0x20 PUSH1 0x40 MLOAD DUP1 DUP4 SUB DUP2 DUP7 GAS STATICCALL ISZERO DUP1 ISZERO PUSH2 0x892 JUMPI RETURNDATASIZE PUSH0 PUSH0 RETURNDATACOPY RETURNDATASIZE PUSH0 REVERT JUMPDEST POP POP POP POP PUSH1 0x40 MLOAD RETURNDATASIZE PUSH1 0x1F NOT PUSH1 0x1F DUP3 ADD AND DUP3 ADD DUP1 PUSH1 0x40 MSTORE POP DUP2 ADD SWAP1 PUSH2 0x8B6 SWAP2 SWAP1 PUSH2 0x4575 JUMP JUMPDEST DUP2 LT ISZERO PUSH2 0x8D5 JUMPI PUSH1 0x40 MLOAD PUSH3 0x461BCD PUSH1 0xE5 SHL DUP2 MSTORE PUSH1 0x4 ADD PUSH2 0x3ED SWAP1 PUSH2 0x45DE JUMP JUMPDEST PUSH0 JUMPDEST PUSH1 0x4 SLOAD DUP2 LT ISZERO PUSH2 0xA84 JUMPI DUP3 PUSH1 0x4 DUP3 DUP2 SLOAD DUP2 LT PUSH2 0x8F5 JUMPI PUSH2 0x8F5 PUSH2 0x4630 JUMP JUMPDEST SWAP1 PUSH0 MSTORE PUSH1 0x20 PUSH0 KECCAK256 SWAP1 PUSH1 0x6 MUL ADD PUSH0 ADD SLOAD SUB PUSH2 0xA7C JUMPI PUSH0 PUSH1 0x4 DUP3 DUP2 SLOAD DUP2 LT PUSH2 0x91D JUMPI PUSH2 0x91D PUSH2 0x4630 JUMP JUMPDEST PUSH0 SWAP2 DUP3 MSTORE PUSH1 0x20 SWAP1 SWAP2 KECCAK256 PUSH1 0x6 SWAP1 SWAP2 MUL ADD PUSH1 0x1 DUP2 ADD SLOAD SWAP1 SWAP2 POP PUSH1 0x1 PUSH1 0x1 PUSH1 0xA0 SHL SUB DUP7 DUP2 AND SWAP2 AND EQ PUSH2 0x95E JUMPI PUSH1 0x40 MLOAD PUSH3 0x461BCD PUSH1 0xE5 SHL DUP2 MSTORE PUSH1 0x4 ADD PUSH2 0x3ED SWAP1 PUSH2 0x4644 JUMP JUMPDEST PUSH1 0x2 DUP2 ADD DUP4 SWAP1 SSTORE PUSH1 0x40 DUP1 MLOAD PUSH2 0x100 DUP2 ADD DUP3 MSTORE DUP3 SLOAD DUP2 MSTORE PUSH1 0x1 DUP4 ADD SLOAD PUSH1 0x1 PUSH1 0x1 PUSH1 0xA0 SHL SUB AND PUSH1 0x20 DUP3 ADD MSTORE SWAP1 DUP2 ADD DUP5 SWAP1 MSTORE PUSH1 0x3 DUP3 ADD SLOAD PUSH1 0x60 DUP3 ADD MSTORE PUSH1 0x4 DUP3 ADD SLOAD PUSH1 0x80 DUP3 ADD MSTORE PUSH1 0x5 DUP3 ADD SLOAD PUSH0 SWAP2 SWAP1 DUP4 SWAP1 PUSH1 0xA0 DUP4 ADD SWAP1 PUSH1 0xFF AND DUP1 ISZERO PUSH2 0x9C1 JUMPI PUSH2 0x9C1 PUSH2 0x4309 JUMP JUMPDEST DUP1 ISZERO PUSH2 0x9CF JUMPI PUSH2 0x9CF PUSH2 0x4309 JUMP JUMPDEST DUP2 MSTORE PUSH1 0x20 ADD PUSH1 0x5 DUP3 ADD PUSH1 0x1 SWAP1 SLOAD SWAP1 PUSH2 0x100 EXP SWAP1 DIV PUSH1 0xFF AND PUSH1 0x2 DUP2 GT ISZERO PUSH2 0x9F7 JUMPI PUSH2 0x9F7 PUSH2 0x4309 JUMP JUMPDEST PUSH1 0x2 DUP2 GT ISZERO PUSH2 0xA08 JUMPI PUSH2 0xA08 PUSH2 0x4309 JUMP JUMPDEST DUP2 MSTORE PUSH1 0x5 SWAP2 SWAP1 SWAP2 ADD SLOAD PUSH3 0x10000 SWAP1 DIV PUSH1 0xFF AND ISZERO ISZERO PUSH1 0x20 SWAP1 SWAP2 ADD MSTORE SWAP1 POP PUSH2 0xA31 PUSH1 0x4 DUP5 PUSH1 0x1 PUSH2 0x26E8 JUMP JUMPDEST PUSH1 0x3 SLOAD ISZERO DUP1 ISZERO SWAP1 PUSH2 0xA64 JUMPI POP PUSH1 0x3 PUSH0 DUP2 SLOAD DUP2 LT PUSH2 0xA50 JUMPI PUSH2 0xA50 PUSH2 0x4630 JUMP JUMPDEST SWAP1 PUSH0 MSTORE PUSH1 0x20 PUSH0 KECCAK256 SWAP1 PUSH1 0x6 MUL ADD PUSH1 0x2 ADD SLOAD DUP5 GT ISZERO JUMPDEST ISZERO PUSH2 0xA74 JUMPI PUSH2 0xA74 DUP2 PUSH0 PUSH0 PUSH2 0x1B02 JUMP JUMPDEST POP POP POP PUSH2 0xABF JUMP JUMPDEST PUSH1 0x1 ADD PUSH2 0x8D7 JUMP JUMPDEST POP PUSH1 0x40 MLOAD PUSH3 0x461BCD PUSH1 0xE5 SHL DUP2 MSTORE PUSH1 0x20 PUSH1 0x4 DUP3 ADD MSTORE PUSH1 0xF PUSH1 0x24 DUP3 ADD MSTORE PUSH15 0x13DC99195C881B9BDD08199BDD5B99 PUSH1 0x8A SHL PUSH1 0x44 DUP3 ADD MSTORE PUSH1 0x64 ADD PUSH2 0x3ED JUMP JUMPDEST PUSH2 0xAC8 PUSH1 0x1 DUP1 SSTORE JUMP JUMPDEST POP POP POP JUMP JUMPDEST CALLER PUSH0 SWAP1 DUP2 MSTORE PUSH1 0x2 PUSH1 0x20 MSTORE PUSH1 0x40 SWAP1 KECCAK256 SLOAD PUSH1 0xFF AND PUSH2 0xAFB JUMPI PUSH1 0x40 MLOAD PUSH3 0x461BCD PUSH1 0xE5 SHL DUP2 MSTORE PUSH1 0x4 ADD PUSH2 0x3ED SWAP1 PUSH2 0x4530 JUMP JUMPDEST PUSH2 0xB03 PUSH2 0x26BE JUMP JUMPDEST PUSH2 0xB0B PUSH2 0x3226 JUMP JUMPDEST PUSH2 0xB14 PUSH1 0x1 DUP1 SSTORE JUMP JUMPDEST JUMP JUMPDEST CALLER PUSH0 SWAP1 DUP2 MSTORE PUSH1 0x2 PUSH1 0x20 MSTORE PUSH1 0x40 SWAP1 KECCAK256 SLOAD PUSH1 0xFF AND PUSH2 0xB44 JUMPI PUSH1 0x40 MLOAD PUSH3 0x461BCD PUSH1 0xE5 SHL DUP2 MSTORE PUSH1 0x4 ADD PUSH2 0x3ED SWAP1 PUSH2 0x4530 JUMP JUMPDEST PUSH1 0x4 SLOAD DUP2 LT PUSH2 0xB65 JUMPI PUSH1 0x40 MLOAD PUSH3 0x461BCD PUSH1 0xE5 SHL DUP2 MSTORE PUSH1 0x4 ADD PUSH2 0x3ED SWAP1 PUSH2 0x4687 JUMP JUMPDEST DUP1 JUMPDEST PUSH1 0x4 SLOAD PUSH2 0xB76 SWAP1 PUSH1 0x1 SWAP1 PUSH2 0x46B4 JUMP JUMPDEST DUP2 LT ISZERO PUSH2 0xCA0 JUMPI PUSH1 0x4 PUSH2 0xB8A DUP3 PUSH1 0x1 PUSH2 0x45A0 JUMP JUMPDEST DUP2 SLOAD DUP2 LT PUSH2 0xB9A JUMPI PUSH2 0xB9A PUSH2 0x4630 JUMP JUMPDEST SWAP1 PUSH0 MSTORE PUSH1 0x20 PUSH0 KECCAK256 SWAP1 PUSH1 0x6 MUL ADD PUSH1 0x4 DUP3 DUP2 SLOAD DUP2 LT PUSH2 0xBB9 JUMPI PUSH2 0xBB9 PUSH2 0x4630 JUMP JUMPDEST PUSH0 SWAP2 DUP3 MSTORE PUSH1 0x20 SWAP1 SWAP2 KECCAK256 DUP3 SLOAD PUSH1 0x6 SWAP1 SWAP3 MUL ADD SWAP1 DUP2 SSTORE PUSH1 0x1 DUP1 DUP4 ADD SLOAD DUP2 DUP4 ADD DUP1 SLOAD PUSH1 0x1 PUSH1 0x1 PUSH1 0xA0 SHL SUB NOT AND PUSH1 0x1 PUSH1 0x1 PUSH1 0xA0 SHL SUB SWAP1 SWAP3 AND SWAP2 SWAP1 SWAP2 OR SWAP1 SSTORE PUSH1 0x2 DUP1 DUP5 ADD SLOAD SWAP1 DUP4 ADD SSTORE PUSH1 0x3 DUP1 DUP5 ADD SLOAD SWAP1 DUP4 ADD SSTORE PUSH1 0x4 DUP1 DUP5 ADD SLOAD SWAP1 DUP4 ADD SSTORE PUSH1 0x5 DUP1 DUP5 ADD SLOAD SWAP1 DUP4 ADD DUP1 SLOAD PUSH1 0xFF SWAP1 SWAP3 AND SWAP3 SWAP1 SWAP2 PUSH1 0xFF NOT AND SWAP1 DUP4 DUP1 ISZERO PUSH2 0xC38 JUMPI PUSH2 0xC38 PUSH2 0x4309 JUMP JUMPDEST MUL OR SWAP1 SSTORE POP PUSH1 0x5 DUP3 DUP2 ADD SLOAD SWAP1 DUP3 ADD DUP1 SLOAD PUSH1 0xFF PUSH2 0x100 SWAP4 DUP5 SWAP1 DIV AND SWAP3 PUSH2 0xFF00 NOT SWAP1 SWAP2 AND SWAP1 DUP4 PUSH1 0x2 DUP2 GT ISZERO PUSH2 0xC6D JUMPI PUSH2 0xC6D PUSH2 0x4309 JUMP JUMPDEST MUL OR SWAP1 SSTORE POP PUSH1 0x5 SWAP2 DUP3 ADD SLOAD SWAP2 ADD DUP1 SLOAD PUSH3 0xFF0000 NOT AND PUSH3 0x10000 SWAP3 DUP4 SWAP1 DIV PUSH1 0xFF AND ISZERO ISZERO SWAP1 SWAP3 MUL SWAP2 SWAP1 SWAP2 OR SWAP1 SSTORE PUSH1 0x1 ADD PUSH2 0xB67 JUMP JUMPDEST POP PUSH1 0x4 DUP1 SLOAD DUP1 PUSH2 0xCB2 JUMPI PUSH2 0xCB2 PUSH2 0x46C7 JUMP JUMPDEST PUSH0 DUP3 DUP2 MSTORE PUSH1 0x20 DUP2 KECCAK256 PUSH1 0x6 PUSH0 NOT SWAP1 SWAP4 ADD SWAP3 DUP4 MUL ADD DUP2 DUP2 SSTORE PUSH1 0x1 DUP2 ADD DUP1 SLOAD PUSH1 0x1 PUSH1 0x1 PUSH1 0xA0 SHL SUB NOT AND SWAP1 SSTORE PUSH1 0x2 DUP2 ADD DUP3 SWAP1 SSTORE PUSH1 0x3 DUP2 ADD DUP3 SWAP1 SSTORE PUSH1 0x4 DUP2 ADD SWAP2 SWAP1 SWAP2 SSTORE PUSH1 0x5 ADD DUP1 SLOAD PUSH3 0xFFFFFF NOT AND SWAP1 SSTORE SWAP1 SSTORE POP JUMP JUMPDEST PUSH2 0xD0A PUSH2 0x41AC JUMP JUMPDEST PUSH1 0x4 PUSH0 DUP2 SLOAD DUP2 LT PUSH2 0xD1D JUMPI PUSH2 0xD1D PUSH2 0x4630 JUMP JUMPDEST PUSH0 SWAP2 DUP3 MSTORE PUSH1 0x20 SWAP2 DUP3 SWAP1 KECCAK256 PUSH1 0x40 DUP1 MLOAD PUSH2 0x100 DUP2 ADD DUP3 MSTORE PUSH1 0x6 SWAP1 SWAP4 MUL SWAP1 SWAP2 ADD DUP1 SLOAD DUP4 MSTORE PUSH1 0x1 DUP2 ADD SLOAD PUSH1 0x1 PUSH1 0x1 PUSH1 0xA0 SHL SUB AND SWAP4 DUP4 ADD SWAP4 SWAP1 SWAP4 MSTORE PUSH1 0x2 DUP4 ADD SLOAD SWAP1 DUP3 ADD MSTORE PUSH1 0x3 DUP3 ADD SLOAD PUSH1 0x60 DUP3 ADD MSTORE PUSH1 0x4 DUP3 ADD SLOAD PUSH1 0x80 DUP3 ADD MSTORE PUSH1 0x5 DUP3 ADD SLOAD SWAP1 SWAP2 SWAP1 PUSH1 0xA0 DUP4 ADD SWAP1 PUSH1 0xFF AND DUP1 ISZERO PUSH2 0xD8E JUMPI PUSH2 0xD8E PUSH2 0x4309 JUMP JUMPDEST DUP1 ISZERO PUSH2 0xD9C JUMPI PUSH2 0xD9C PUSH2 0x4309 JUMP JUMPDEST DUP2 MSTORE PUSH1 0x20 ADD PUSH1 0x5 DUP3 ADD PUSH1 0x1 SWAP1 SLOAD SWAP1 PUSH2 0x100 EXP SWAP1 DIV PUSH1 0xFF AND PUSH1 0x2 DUP2 GT ISZERO PUSH2 0xDC4 JUMPI PUSH2 0xDC4 PUSH2 0x4309 JUMP JUMPDEST PUSH1 0x2 DUP2 GT ISZERO PUSH2 0xDD5 JUMPI PUSH2 0xDD5 PUSH2 0x4309 JUMP JUMPDEST DUP2 MSTORE PUSH1 0x5 SWAP2 SWAP1 SWAP2 ADD SLOAD PUSH3 0x10000 SWAP1 DIV PUSH1 0xFF AND ISZERO ISZERO PUSH1 0x20 SWAP1 SWAP2 ADD MSTORE SWAP2 SWAP1 POP JUMP JUMPDEST PUSH1 0x3 DUP2 DUP2 SLOAD DUP2 LT PUSH2 0xE03 JUMPI PUSH0 DUP1 REVERT JUMPDEST PUSH0 SWAP2 DUP3 MSTORE PUSH1 0x20 SWAP1 SWAP2 KECCAK256 PUSH1 0x6 SWAP1 SWAP2 MUL ADD DUP1 SLOAD PUSH1 0x1 DUP3 ADD SLOAD PUSH1 0x2 DUP4 ADD SLOAD PUSH1 0x3 DUP5 ADD SLOAD PUSH1 0x4 DUP6 ADD SLOAD PUSH1 0x5 SWAP1 SWAP6 ADD SLOAD SWAP4 SWAP6 POP PUSH1 0x1 PUSH1 0x1 PUSH1 0xA0 SHL SUB SWAP1 SWAP3 AND SWAP4 SWAP1 SWAP3 PUSH1 0xFF DUP1 DUP3 AND SWAP2 PUSH2 0x100 DUP2 DIV DUP3 AND SWAP2 PUSH3 0x10000 SWAP1 SWAP2 DIV AND DUP9 JUMP JUMPDEST PUSH1 0x60 PUSH1 0x4 DUP1 SLOAD DUP1 PUSH1 0x20 MUL PUSH1 0x20 ADD PUSH1 0x40 MLOAD SWAP1 DUP2 ADD PUSH1 0x40 MSTORE DUP1 SWAP3 SWAP2 SWAP1 DUP2 DUP2 MSTORE PUSH1 0x20 ADD PUSH0 SWAP1 JUMPDEST DUP3 DUP3 LT ISZERO PUSH2 0x7FB JUMPI PUSH0 DUP5 DUP2 MSTORE PUSH1 0x20 SWAP1 DUP2 SWAP1 KECCAK256 PUSH1 0x40 DUP1 MLOAD PUSH2 0x100 DUP2 ADD DUP3 MSTORE PUSH1 0x6 DUP7 MUL SWAP1 SWAP3 ADD DUP1 SLOAD DUP4 MSTORE PUSH1 0x1 DUP2 ADD SLOAD PUSH1 0x1 PUSH1 0x1 PUSH1 0xA0 SHL SUB AND SWAP4 DUP4 ADD SWAP4 SWAP1 SWAP4 MSTORE PUSH1 0x2 DUP4 ADD SLOAD SWAP1 DUP3 ADD MSTORE PUSH1 0x3 DUP3 ADD SLOAD PUSH1 0x60 DUP3 ADD MSTORE PUSH1 0x4 DUP3 ADD SLOAD PUSH1 0x80 DUP3 ADD MSTORE PUSH1 0x5 DUP3 ADD SLOAD SWAP1 SWAP2 SWAP1 PUSH1 0xA0 DUP4 ADD SWAP1 PUSH1 0xFF AND DUP1 ISZERO PUSH2 0xEF3 JUMPI PUSH2 0xEF3 PUSH2 0x4309 JUMP JUMPDEST DUP1 ISZERO PUSH2 0xF01 JUMPI PUSH2 0xF01 PUSH2 0x4309 JUMP JUMPDEST DUP2 MSTORE PUSH1 0x20 ADD PUSH1 0x5 DUP3 ADD PUSH1 0x1 SWAP1 SLOAD SWAP1 PUSH2 0x100 EXP SWAP1 DIV PUSH1 0xFF AND PUSH1 0x2 DUP2 GT ISZERO PUSH2 0xF29 JUMPI PUSH2 0xF29 PUSH2 0x4309 JUMP JUMPDEST PUSH1 0x2 DUP2 GT ISZERO PUSH2 0xF3A JUMPI PUSH2 0xF3A PUSH2 0x4309 JUMP JUMPDEST DUP2 MSTORE PUSH1 0x5 SWAP2 SWAP1 SWAP2 ADD SLOAD PUSH1 0xFF PUSH3 0x10000 SWAP1 SWAP2 DIV AND ISZERO ISZERO PUSH1 0x20 SWAP2 DUP3 ADD MSTORE SWAP1 DUP3 MSTORE PUSH1 0x1 SWAP1 SWAP3 ADD SWAP2 ADD PUSH2 0xE7B JUMP JUMPDEST CALLER PUSH0 SWAP1 DUP2 MSTORE PUSH1 0x2 PUSH1 0x20 MSTORE PUSH1 0x40 SWAP1 KECCAK256 SLOAD PUSH1 0xFF AND PUSH2 0xF92 JUMPI PUSH1 0x40 MLOAD PUSH3 0x461BCD PUSH1 0xE5 SHL DUP2 MSTORE PUSH1 0x4 ADD PUSH2 0x3ED SWAP1 PUSH2 0x4530 JUMP JUMPDEST PUSH2 0xF9A PUSH2 0x26BE JUMP JUMPDEST PUSH2 0xFA2 PUSH2 0x1ABD JUMP JUMPDEST PUSH0 PUSH1 0x40 MLOAD DUP1 PUSH2 0x100 ADD PUSH1 0x40 MSTORE DUP1 DUP10 DUP2 MSTORE PUSH1 0x20 ADD DUP9 PUSH1 0x1 PUSH1 0x1 PUSH1 0xA0 SHL SUB AND DUP2 MSTORE PUSH1 0x20 ADD DUP8 DUP2 MSTORE PUSH1 0x20 ADD DUP7 DUP2 MSTORE PUSH1 0x20 ADD PUSH0 DUP2 MSTORE PUSH1 0x20 ADD DUP6 PUSH0 DUP2 GT ISZERO PUSH2 0xFE7 JUMPI PUSH2 0xFE7 PUSH2 0x4309 JUMP JUMPDEST DUP2 MSTORE PUSH1 0x20 ADD DUP5 PUSH1 0x2 DUP2 GT ISZERO PUSH2 0xFFE JUMPI PUSH2 0xFFE PUSH2 0x4309 JUMP JUMPDEST DUP2 MSTORE DUP4 ISZERO ISZERO PUSH1 0x20 SWAP2 DUP3 ADD MSTORE PUSH1 0x9 SLOAD PUSH1 0x40 DUP1 MLOAD PUSH4 0x63BA5DF7 PUSH1 0xE0 SHL DUP2 MSTORE SWAP1 MLOAD SWAP4 SWAP5 POP PUSH1 0x1 PUSH1 0x1 PUSH1 0xA0 SHL SUB SWAP1 SWAP2 AND SWAP3 PUSH4 0x63BA5DF7 SWAP3 PUSH1 0x4 DUP1 DUP5 ADD SWAP4 SWAP2 SWAP3 SWAP2 DUP3 SWAP1 SUB ADD DUP2 DUP7 GAS STATICCALL ISZERO DUP1 ISZERO PUSH2 0x1051 JUMPI RETURNDATASIZE PUSH0 PUSH0 RETURNDATACOPY RETURNDATASIZE PUSH0 REVERT JUMPDEST POP POP POP POP PUSH1 0x40 MLOAD RETURNDATASIZE PUSH1 0x1F NOT PUSH1 0x1F DUP3 ADD AND DUP3 ADD DUP1 PUSH1 0x40 MSTORE POP DUP2 ADD SWAP1 PUSH2 0x1075 SWAP2 SWAP1 PUSH2 0x4575 JUMP JUMPDEST DUP7 LT ISZERO PUSH2 0x1094 JUMPI PUSH1 0x40 MLOAD PUSH3 0x461BCD PUSH1 0xE5 SHL DUP2 MSTORE PUSH1 0x4 ADD PUSH2 0x3ED SWAP1 PUSH2 0x45DE JUMP JUMPDEST PUSH1 0x3 SLOAD PUSH0 SUB PUSH2 0x10AE JUMPI PUSH2 0x10A9 DUP2 PUSH1 0x1 DUP1 PUSH2 0x1B02 JUMP JUMPDEST PUSH2 0x10F3 JUMP JUMPDEST PUSH1 0x3 PUSH0 DUP2 SLOAD DUP2 LT PUSH2 0x10C1 JUMPI PUSH2 0x10C1 PUSH2 0x4630 JUMP JUMPDEST SWAP1 PUSH0 MSTORE PUSH1 0x20 PUSH0 KECCAK256 SWAP1 PUSH1 0x6 MUL ADD PUSH1 0x2 ADD SLOAD DUP2 PUSH1 0x40 ADD MLOAD GT ISZERO PUSH2 0x10E8 JUMPI PUSH2 0x10A9 DUP2 PUSH1 0x1 DUP1 PUSH2 0x1B02 JUMP JUMPDEST PUSH2 0x10F3 PUSH1 0x3 DUP3 PUSH2 0x3271 JUMP JUMPDEST POP PUSH2 0x10FD PUSH1 0x1 DUP1 SSTORE JUMP JUMPDEST POP POP POP POP POP POP POP JUMP JUMPDEST CALLER PUSH0 SWAP1 DUP2 MSTORE PUSH1 0x2 PUSH1 0x20 MSTORE PUSH1 0x40 SWAP1 KECCAK256 SLOAD PUSH1 0xFF AND PUSH2 0x1134 JUMPI PUSH1 0x40 MLOAD PUSH3 0x461BCD PUSH1 0xE5 SHL DUP2 MSTORE PUSH1 0x4 ADD PUSH2 0x3ED SWAP1 PUSH2 0x4530 JUMP JUMPDEST PUSH2 0x113C PUSH2 0x26BE JUMP JUMPDEST PUSH2 0x1144 PUSH2 0x1ABD JUMP JUMPDEST PUSH2 0xB0B PUSH2 0x366E JUMP JUMPDEST PUSH1 0x4 DUP2 DUP2 SLOAD DUP2 LT PUSH2 0xE03 JUMPI PUSH0 DUP1 REVERT JUMPDEST PUSH2 0x1163 PUSH2 0x41AC JUMP JUMPDEST PUSH1 0x4 DUP3 DUP2 SLOAD DUP2 LT PUSH2 0x1176 JUMPI PUSH2 0x1176 PUSH2 0x4630 JUMP JUMPDEST PUSH0 SWAP2 DUP3 MSTORE PUSH1 0x20 SWAP2 DUP3 SWAP1 KECCAK256 PUSH1 0x40 DUP1 MLOAD PUSH2 0x100 DUP2 ADD DUP3 MSTORE PUSH1 0x6 SWAP1 SWAP4 MUL SWAP1 SWAP2 ADD DUP1 SLOAD DUP4 MSTORE PUSH1 0x1 DUP2 ADD SLOAD PUSH1 0x1 PUSH1 0x1 PUSH1 0xA0 SHL SUB AND SWAP4 DUP4 ADD SWAP4 SWAP1 SWAP4 MSTORE PUSH1 0x2 DUP4 ADD SLOAD SWAP1 DUP3 ADD MSTORE PUSH1 0x3 DUP3 ADD SLOAD PUSH1 0x60 DUP3 ADD MSTORE PUSH1 0x4 DUP3 ADD SLOAD PUSH1 0x80 DUP3 ADD MSTORE PUSH1 0x5 DUP3 ADD SLOAD SWAP1 SWAP2 SWAP1 PUSH1 0xA0 DUP4 ADD SWAP1 PUSH1 0xFF AND DUP1 ISZERO PUSH2 0x11E7 JUMPI PUSH2 0x11E7 PUSH2 0x4309 JUMP JUMPDEST DUP1 ISZERO PUSH2 0x11F5 JUMPI PUSH2 0x11F5 PUSH2 0x4309 JUMP JUMPDEST DUP2 MSTORE PUSH1 0x20 ADD PUSH1 0x5 DUP3 ADD PUSH1 0x1 SWAP1 SLOAD SWAP1 PUSH2 0x100 EXP SWAP1 DIV PUSH1 0xFF AND PUSH1 0x2 DUP2 GT ISZERO PUSH2 0x121D JUMPI PUSH2 0x121D PUSH2 0x4309 JUMP JUMPDEST PUSH1 0x2 DUP2 GT ISZERO PUSH2 0x122E JUMPI PUSH2 0x122E PUSH2 0x4309 JUMP JUMPDEST DUP2 MSTORE PUSH1 0x5 SWAP2 SWAP1 SWAP2 ADD SLOAD PUSH3 0x10000 SWAP1 DIV PUSH1 0xFF AND ISZERO ISZERO PUSH1 0x20 SWAP1 SWAP2 ADD MSTORE SWAP3 SWAP2 POP POP JUMP JUMPDEST CALLER PUSH0 SWAP1 DUP2 MSTORE PUSH1 0x2 PUSH1 0x20 MSTORE PUSH1 0x40 SWAP1 KECCAK256 SLOAD PUSH1 0xFF AND PUSH2 0x127C JUMPI PUSH1 0x40 MLOAD PUSH3 0x461BCD PUSH1 0xE5 SHL DUP2 MSTORE PUSH1 0x4 ADD PUSH2 0x3ED SWAP1 PUSH2 0x4530 JUMP JUMPDEST PUSH2 0x1284 PUSH2 0x1ABD JUMP JUMPDEST PUSH1 0x6 SLOAD PUSH1 0x40 MLOAD PUSH4 0x95EA7B3 PUSH1 0xE0 SHL DUP2 MSTORE PUSH1 0x1 PUSH1 0x1 PUSH1 0xA0 SHL SUB SWAP1 SWAP2 AND SWAP1 PUSH4 0x95EA7B3 SWAP1 PUSH2 0x12B6 SWAP1 DUP6 SWAP1 DUP6 SWAP1 PUSH1 0x4 ADD PUSH2 0x46DB JUMP JUMPDEST PUSH0 PUSH1 0x40 MLOAD DUP1 DUP4 SUB DUP2 PUSH0 DUP8 DUP1 EXTCODESIZE ISZERO DUP1 ISZERO PUSH2 0x12CD JUMPI PUSH0 PUSH0 REVERT JUMPDEST POP GAS CALL ISZERO DUP1 ISZERO PUSH2 0x12DF JUMPI RETURNDATASIZE PUSH0 PUSH0 RETURNDATACOPY RETURNDATASIZE PUSH0 REVERT JUMPDEST POP POP POP POP POP POP JUMP JUMPDEST PUSH2 0x12EF PUSH2 0x41AC JUMP JUMPDEST PUSH1 0x3 DUP3 DUP2 SLOAD DUP2 LT PUSH2 0x1176 JUMPI PUSH2 0x1176 PUSH2 0x4630 JUMP JUMPDEST CALLER PUSH0 SWAP1 DUP2 MSTORE PUSH1 0x2 PUSH1 0x20 MSTORE PUSH1 0x40 SWAP1 KECCAK256 SLOAD PUSH1 0xFF AND PUSH2 0x1330 JUMPI PUSH1 0x40 MLOAD PUSH3 0x461BCD PUSH1 0xE5 SHL DUP2 MSTORE PUSH1 0x4 ADD PUSH2 0x3ED SWAP1 PUSH2 0x4530 JUMP JUMPDEST PUSH1 0x3 SLOAD DUP2 LT PUSH2 0x1351 JUMPI PUSH1 0x40 MLOAD PUSH3 0x461BCD PUSH1 0xE5 SHL DUP2 MSTORE PUSH1 0x4 ADD PUSH2 0x3ED SWAP1 PUSH2 0x4687 JUMP JUMPDEST DUP1 JUMPDEST PUSH1 0x3 SLOAD PUSH2 0x1362 SWAP1 PUSH1 0x1 SWAP1 PUSH2 0x46B4 JUMP JUMPDEST DUP2 LT ISZERO PUSH2 0x148C JUMPI PUSH1 0x3 PUSH2 0x1376 DUP3 PUSH1 0x1 PUSH2 0x45A0 JUMP JUMPDEST DUP2 SLOAD DUP2 LT PUSH2 0x1386 JUMPI PUSH2 0x1386 PUSH2 0x4630 JUMP JUMPDEST SWAP1 PUSH0 MSTORE PUSH1 0x20 PUSH0 KECCAK256 SWAP1 PUSH1 0x6 MUL ADD PUSH1 0x3 DUP3 DUP2 SLOAD DUP2 LT PUSH2 0x13A5 JUMPI PUSH2 0x13A5 PUSH2 0x4630 JUMP JUMPDEST PUSH0 SWAP2 DUP3 MSTORE PUSH1 0x20 SWAP1 SWAP2 KECCAK256 DUP3 SLOAD PUSH1 0x6 SWAP1 SWAP3 MUL ADD SWAP1 DUP2 SSTORE PUSH1 0x1 DUP1 DUP4 ADD SLOAD DUP2 DUP4 ADD DUP1 SLOAD PUSH1 0x1 PUSH1 0x1 PUSH1 0xA0 SHL SUB NOT AND PUSH1 0x1 PUSH1 0x1 PUSH1 0xA0 SHL SUB SWAP1 SWAP3 AND SWAP2 SWAP1 SWAP2 OR SWAP1 SSTORE PUSH1 0x2 DUP1 DUP5 ADD SLOAD SWAP1 DUP4 ADD SSTORE PUSH1 0x3 DUP1 DUP5 ADD SLOAD SWAP1 DUP4 ADD SSTORE PUSH1 0x4 DUP1 DUP5 ADD SLOAD SWAP1 DUP4 ADD SSTORE PUSH1 0x5 DUP1 DUP5 ADD SLOAD SWAP1 DUP4 ADD DUP1 SLOAD PUSH1 0xFF SWAP1 SWAP3 AND SWAP3 SWAP1 SWAP2 PUSH1 0xFF NOT AND SWAP1 DUP4 DUP1 ISZERO PUSH2 0x1424 JUMPI PUSH2 0x1424 PUSH2 0x4309 JUMP JUMPDEST MUL OR SWAP1 SSTORE POP PUSH1 0x5 DUP3 DUP2 ADD SLOAD SWAP1 DUP3 ADD DUP1 SLOAD PUSH1 0xFF PUSH2 0x100 SWAP4 DUP5 SWAP1 DIV AND SWAP3 PUSH2 0xFF00 NOT SWAP1 SWAP2 AND SWAP1 DUP4 PUSH1 0x2 DUP2 GT ISZERO PUSH2 0x1459 JUMPI PUSH2 0x1459 PUSH2 0x4309 JUMP JUMPDEST MUL OR SWAP1 SSTORE POP PUSH1 0x5 SWAP2 DUP3 ADD SLOAD SWAP2 ADD DUP1 SLOAD PUSH3 0xFF0000 NOT AND PUSH3 0x10000 SWAP3 DUP4 SWAP1 DIV PUSH1 0xFF AND ISZERO ISZERO SWAP1 SWAP3 MUL SWAP2 SWAP1 SWAP2 OR SWAP1 SSTORE PUSH1 0x1 ADD PUSH2 0x1353 JUMP JUMPDEST POP PUSH1 0x3 DUP1 SLOAD DUP1 PUSH2 0xCB2 JUMPI PUSH2 0xCB2 PUSH2 0x46C7 JUMP JUMPDEST PUSH2 0x14A6 PUSH2 0x41AC JUMP JUMPDEST PUSH1 0x3 PUSH0 DUP2 SLOAD DUP2 LT PUSH2 0xD1D JUMPI PUSH2 0xD1D PUSH2 0x4630 JUMP JUMPDEST CALLER PUSH0 SWAP1 DUP2 MSTORE PUSH1 0x2 PUSH1 0x20 MSTORE PUSH1 0x40 SWAP1 KECCAK256 SLOAD PUSH1 0xFF AND PUSH2 0x14E7 JUMPI PUSH1 0x40 MLOAD PUSH3 0x461BCD PUSH1 0xE5 SHL DUP2 MSTORE PUSH1 0x4 ADD PUSH2 0x3ED SWAP1 PUSH2 0x4530 JUMP JUMPDEST PUSH2 0x14EF PUSH2 0x26BE JUMP JUMPDEST PUSH2 0x14F7 PUSH2 0x1ABD JUMP JUMPDEST PUSH1 0x9 PUSH0 SWAP1 SLOAD SWAP1 PUSH2 0x100 EXP SWAP1 DIV PUSH1 0x1 PUSH1 0x1 PUSH1 0xA0 SHL SUB AND PUSH1 0x1 PUSH1 0x1 PUSH1 0xA0 SHL SUB AND PUSH4 0x63BA5DF7 PUSH1 0x40 MLOAD DUP2 PUSH4 0xFFFFFFFF AND PUSH1 0xE0 SHL DUP2 MSTORE PUSH1 0x4 ADD PUSH1 0x20 PUSH1 0x40 MLOAD DUP1 DUP4 SUB DUP2 DUP7 GAS STATICCALL ISZERO DUP1 ISZERO PUSH2 0x1547 JUMPI RETURNDATASIZE PUSH0 PUSH0 RETURNDATACOPY RETURNDATASIZE PUSH0 REVERT JUMPDEST POP POP POP POP PUSH1 0x40 MLOAD RETURNDATASIZE PUSH1 0x1F NOT PUSH1 0x1F DUP3 ADD AND DUP3 ADD DUP1 PUSH1 0x40 MSTORE POP DUP2 ADD SWAP1 PUSH2 0x156B SWAP2 SWAP1 PUSH2 0x4575 JUMP JUMPDEST DUP2 LT ISZERO PUSH2 0x158A JUMPI PUSH1 0x40 MLOAD PUSH3 0x461BCD PUSH1 0xE5 SHL DUP2 MSTORE PUSH1 0x4 ADD PUSH2 0x3ED SWAP1 PUSH2 0x45DE JUMP JUMPDEST PUSH0 JUMPDEST PUSH1 0x3 SLOAD DUP2 LT ISZERO PUSH2 0xA84 JUMPI DUP3 PUSH1 0x3 DUP3 DUP2 SLOAD DUP2 LT PUSH2 0x15AA JUMPI PUSH2 0x15AA PUSH2 0x4630 JUMP JUMPDEST SWAP1 PUSH0 MSTORE PUSH1 0x20 PUSH0 KECCAK256 SWAP1 PUSH1 0x6 MUL ADD PUSH0 ADD SLOAD SUB PUSH2 0x1A15 JUMPI PUSH0 PUSH1 0x3 DUP3 DUP2 SLOAD DUP2 LT PUSH2 0x15D2 JUMPI PUSH2 0x15D2 PUSH2 0x4630 JUMP JUMPDEST PUSH0 SWAP2 DUP3 MSTORE PUSH1 0x20 SWAP1 SWAP2 KECCAK256 PUSH1 0x6 SWAP1 SWAP2 MUL ADD PUSH1 0x1 DUP2 ADD SLOAD SWAP1 SWAP2 POP PUSH1 0x1 PUSH1 0x1 PUSH1 0xA0 SHL SUB DUP7 DUP2 AND SWAP2 AND EQ PUSH2 0x1613 JUMPI PUSH1 0x40 MLOAD PUSH3 0x461BCD PUSH1 0xE5 SHL DUP2 MSTORE PUSH1 0x4 ADD PUSH2 0x3ED SWAP1 PUSH2 0x4644 JUMP JUMPDEST PUSH1 0x3 DUP2 ADD SLOAD PUSH1 0x2 DUP3 ADD SLOAD PUSH0 SWAP1 PUSH2 0x3E8 SWAP1 PUSH2 0x162E SWAP1 DUP5 SWAP1 PUSH2 0x46F4 JUMP JUMPDEST PUSH2 0x1638 SWAP2 SWAP1 PUSH2 0x470B JUMP JUMPDEST SWAP1 POP PUSH0 PUSH2 0x3E8 PUSH2 0x1648 DUP5 DUP9 PUSH2 0x46F4 JUMP JUMPDEST PUSH2 0x1652 SWAP2 SWAP1 PUSH2 0x470B JUMP JUMPDEST SWAP1 POP DUP2 DUP2 GT ISZERO PUSH2 0x16D9 JUMPI PUSH0 PUSH2 0x1667 DUP4 DUP4 PUSH2 0x46B4 JUMP JUMPDEST PUSH1 0x5 SLOAD PUSH1 0x1 DUP8 DUP2 ADD SLOAD PUSH1 0x40 MLOAD PUSH4 0x42AF7A0D PUSH1 0xE1 SHL DUP2 MSTORE SWAP4 SWAP5 POP PUSH1 0x1 PUSH1 0x1 PUSH1 0xA0 SHL SUB SWAP3 DUP4 AND SWAP4 PUSH4 0x855EF41A SWAP4 PUSH2 0x16A6 SWAP4 SWAP3 AND SWAP2 SWAP1 DUP7 SWAP1 DUP3 SWAP1 PUSH1 0x4 ADD PUSH2 0x472A JUMP JUMPDEST PUSH0 PUSH1 0x40 MLOAD DUP1 DUP4 SUB DUP2 PUSH0 DUP8 DUP1 EXTCODESIZE ISZERO DUP1 ISZERO PUSH2 0x16BD JUMPI PUSH0 PUSH0 REVERT JUMPDEST POP GAS CALL ISZERO DUP1 ISZERO PUSH2 0x16CF JUMPI RETURNDATASIZE PUSH0 PUSH0 RETURNDATACOPY RETURNDATASIZE PUSH0 REVERT JUMPDEST POP POP POP POP POP PUSH2 0x18F4 JUMP JUMPDEST PUSH0 PUSH2 0x16E4 DUP3 DUP5 PUSH2 0x46B4 JUMP JUMPDEST PUSH1 0x5 SLOAD PUSH1 0x1 DUP8 DUP2 ADD SLOAD PUSH1 0x40 MLOAD PUSH4 0x47DB8591 PUSH1 0xE0 SHL DUP2 MSTORE SWAP4 SWAP5 POP PUSH0 SWAP4 PUSH1 0x1 PUSH1 0x1 PUSH1 0xA0 SHL SUB SWAP4 DUP5 AND SWAP4 PUSH4 0x47DB8591 SWAP4 PUSH2 0x1721 SWAP4 SWAP1 SWAP2 AND SWAP2 PUSH1 0x4 ADD PUSH2 0x475E JUMP JUMPDEST PUSH1 0x20 PUSH1 0x40 MLOAD DUP1 DUP4 SUB DUP2 DUP7 GAS STATICCALL ISZERO DUP1 ISZERO PUSH2 0x173C JUMPI RETURNDATASIZE PUSH0 PUSH0 RETURNDATACOPY RETURNDATASIZE PUSH0 REVERT JUMPDEST POP POP POP POP PUSH1 0x40 MLOAD RETURNDATASIZE PUSH1 0x1F NOT PUSH1 0x1F DUP3 ADD AND DUP3 ADD DUP1 PUSH1 0x40 MSTORE POP DUP2 ADD SWAP1 PUSH2 0x1760 SWAP2 SWAP1 PUSH2 0x4575 JUMP JUMPDEST SWAP1 POP DUP2 DUP2 LT ISZERO PUSH2 0x17C1 JUMPI PUSH1 0x40 MLOAD PUSH3 0x461BCD PUSH1 0xE5 SHL DUP2 MSTORE PUSH1 0x20 PUSH1 0x4 DUP3 ADD MSTORE PUSH1 0x26 PUSH1 0x24 DUP3 ADD MSTORE PUSH32 0x496E73756666696369656E7420657363726F772062616C616E636520666F7220 PUSH1 0x44 DUP3 ADD MSTORE PUSH6 0x1C99599D5B99 PUSH1 0xD2 SHL PUSH1 0x64 DUP3 ADD MSTORE PUSH1 0x84 ADD PUSH2 0x3ED JUMP JUMPDEST PUSH1 0x5 SLOAD PUSH1 0x40 MLOAD PUSH4 0x20CDB427 PUSH1 0xE0 SHL DUP2 MSTORE PUSH1 0x4 DUP2 ADD DUP5 SWAP1 MSTORE PUSH1 0x1 PUSH1 0x1 PUSH1 0xA0 SHL SUB SWAP1 SWAP2 AND SWAP1 PUSH4 0x20CDB427 SWAP1 PUSH1 0x24 ADD PUSH0 PUSH1 0x40 MLOAD DUP1 DUP4 SUB DUP2 PUSH0 DUP8 DUP1 EXTCODESIZE ISZERO DUP1 ISZERO PUSH2 0x1804 JUMPI PUSH0 PUSH0 REVERT JUMPDEST POP GAS CALL ISZERO DUP1 ISZERO PUSH2 0x1816 JUMPI RETURNDATASIZE PUSH0 PUSH0 RETURNDATACOPY RETURNDATASIZE PUSH0 REVERT JUMPDEST POP POP PUSH1 0x6 SLOAD PUSH1 0x5 SLOAD PUSH1 0x1 DUP11 ADD SLOAD PUSH1 0x40 MLOAD PUSH4 0x23B872DD PUSH1 0xE0 SHL DUP2 MSTORE PUSH1 0x1 PUSH1 0x1 PUSH1 0xA0 SHL SUB SWAP4 DUP5 AND SWAP6 POP PUSH4 0x23B872DD SWAP5 POP PUSH2 0x185A SWAP4 SWAP3 DUP4 AND SWAP3 SWAP1 SWAP2 AND SWAP1 DUP8 SWAP1 PUSH1 0x4 ADD PUSH2 0x477B JUMP JUMPDEST PUSH0 PUSH1 0x40 MLOAD DUP1 DUP4 SUB DUP2 PUSH0 DUP8 DUP1 EXTCODESIZE ISZERO DUP1 ISZERO PUSH2 0x1871 JUMPI PUSH0 PUSH0 REVERT JUMPDEST POP GAS CALL ISZERO DUP1 ISZERO PUSH2 0x1883 JUMPI RETURNDATASIZE PUSH0 PUSH0 RETURNDATACOPY RETURNDATASIZE PUSH0 REVERT JUMPDEST POP POP PUSH1 0x5 SLOAD PUSH1 0x1 DUP10 DUP2 ADD SLOAD PUSH1 0x40 MLOAD PUSH4 0x42AF7A0D PUSH1 0xE1 SHL DUP2 MSTORE PUSH1 0x1 PUSH1 0x1 PUSH1 0xA0 SHL SUB SWAP4 DUP5 AND SWAP6 POP PUSH4 0x855EF41A SWAP5 POP PUSH2 0x18C4 SWAP4 SWAP1 SWAP2 AND SWAP2 SWAP1 DUP8 SWAP1 PUSH0 SWAP1 PUSH1 0x4 ADD PUSH2 0x472A JUMP JUMPDEST PUSH0 PUSH1 0x40 MLOAD DUP1 DUP4 SUB DUP2 PUSH0 DUP8 DUP1 EXTCODESIZE ISZERO DUP1 ISZERO PUSH2 0x18DB JUMPI PUSH0 PUSH0 REVERT JUMPDEST POP GAS CALL ISZERO DUP1 ISZERO PUSH2 0x18ED JUMPI RETURNDATASIZE PUSH0 PUSH0 RETURNDATACOPY RETURNDATASIZE PUSH0 REVERT JUMPDEST POP POP POP POP POP POP JUMPDEST PUSH1 0x2 DUP5 ADD DUP7 SWAP1 SSTORE PUSH1 0x40 DUP1 MLOAD PUSH2 0x100 DUP2 ADD DUP3 MSTORE DUP6 SLOAD DUP2 MSTORE PUSH1 0x1 DUP7 ADD SLOAD PUSH1 0x1 PUSH1 0x1 PUSH1 0xA0 SHL SUB AND PUSH1 0x20 DUP3 ADD MSTORE SWAP1 DUP2 ADD DUP8 SWAP1 MSTORE PUSH1 0x3 DUP6 ADD SLOAD PUSH1 0x60 DUP3 ADD MSTORE PUSH1 0x4 DUP6 ADD SLOAD PUSH1 0x80 DUP3 ADD MSTORE PUSH1 0x5 DUP6 ADD SLOAD PUSH0 SWAP2 SWAP1 DUP7 SWAP1 PUSH1 0xA0 DUP4 ADD SWAP1 PUSH1 0xFF AND DUP1 ISZERO PUSH2 0x1957 JUMPI PUSH2 0x1957 PUSH2 0x4309 JUMP JUMPDEST DUP1 ISZERO PUSH2 0x1965 JUMPI PUSH2 0x1965 PUSH2 0x4309 JUMP JUMPDEST DUP2 MSTORE PUSH1 0x20 ADD PUSH1 0x5 DUP3 ADD PUSH1 0x1 SWAP1 SLOAD SWAP1 PUSH2 0x100 EXP SWAP1 DIV PUSH1 0xFF AND PUSH1 0x2 DUP2 GT ISZERO PUSH2 0x198D JUMPI PUSH2 0x198D PUSH2 0x4309 JUMP JUMPDEST PUSH1 0x2 DUP2 GT ISZERO PUSH2 0x199E JUMPI PUSH2 0x199E PUSH2 0x4309 JUMP JUMPDEST DUP2 MSTORE PUSH1 0x5 SWAP2 SWAP1 SWAP2 ADD SLOAD PUSH3 0x10000 SWAP1 DIV PUSH1 0xFF AND ISZERO ISZERO PUSH1 0x20 SWAP1 SWAP2 ADD MSTORE SWAP1 POP PUSH2 0x19C6 PUSH1 0x3 DUP8 PUSH0 PUSH2 0x26E8 JUMP JUMPDEST PUSH1 0x4 SLOAD ISZERO DUP1 ISZERO SWAP1 PUSH2 0x19F9 JUMPI POP PUSH1 0x4 PUSH0 DUP2 SLOAD DUP2 LT PUSH2 0x19E5 JUMPI PUSH2 0x19E5 PUSH2 0x4630 JUMP JUMPDEST SWAP1 PUSH0 MSTORE PUSH1 0x20 PUSH0 KECCAK256 SWAP1 PUSH1 0x6 MUL ADD PUSH1 0x2 ADD SLOAD DUP8 LT ISZERO JUMPDEST ISZERO PUSH2 0x1A0A JUMPI PUSH2 0x1A0A DUP2 PUSH1 0x1 PUSH0 PUSH2 0x1B02 JUMP JUMPDEST POP POP POP POP POP POP PUSH2 0xABF JUMP JUMPDEST PUSH1 0x1 ADD PUSH2 0x158C JUMP JUMPDEST CALLER PUSH0 SWAP1 DUP2 MSTORE PUSH1 0x2 PUSH1 0x20 MSTORE PUSH1 0x40 SWAP1 KECCAK256 SLOAD PUSH1 0xFF AND PUSH2 0x1A4B JUMPI PUSH1 0x40 MLOAD PUSH3 0x461BCD PUSH1 0xE5 SHL DUP2 MSTORE PUSH1 0x4 ADD PUSH2 0x3ED SWAP1 PUSH2 0x4530 JUMP JUMPDEST PUSH2 0x1A53 PUSH2 0x26BE JUMP JUMPDEST PUSH2 0x1A5B PUSH2 0x1ABD JUMP JUMPDEST PUSH1 0x6 DUP1 SLOAD PUSH1 0x1 PUSH1 0x1 PUSH1 0xA0 SHL SUB NOT SWAP1 DUP2 AND PUSH1 0x1 PUSH1 0x1 PUSH1 0xA0 SHL SUB DUP9 DUP2 AND SWAP2 SWAP1 SWAP2 OR SWAP1 SWAP3 SSTORE PUSH1 0x7 DUP1 SLOAD DUP3 AND DUP8 DUP5 AND OR SWAP1 SSTORE PUSH1 0x8 DUP1 SLOAD DUP3 AND DUP7 DUP5 AND OR SWAP1 SSTORE PUSH1 0x9 DUP1 SLOAD DUP3 AND DUP6 DUP5 AND OR SWAP1 SSTORE PUSH1 0x5 DUP1 SLOAD SWAP1 SWAP2 AND SWAP2 DUP4 AND SWAP2 SWAP1 SWAP2 OR SWAP1 SSTORE PUSH1 0x1 DUP1 SSTORE JUMPDEST POP POP POP POP POP JUMP JUMPDEST PUSH0 SLOAD PUSH1 0xFF AND ISZERO PUSH2 0xB14 JUMPI PUSH1 0x40 MLOAD PUSH3 0x461BCD PUSH1 0xE5 SHL DUP2 MSTORE PUSH1 0x20 PUSH1 0x4 DUP3 ADD MSTORE PUSH1 0x10 PUSH1 0x24 DUP3 ADD MSTORE PUSH16 0x14185D5CD8589B194E881C185D5CD959 PUSH1 0x82 SHL PUSH1 0x44 DUP3 ADD MSTORE PUSH1 0x64 ADD PUSH2 0x3ED JUMP JUMPDEST PUSH2 0x1B0A PUSH2 0x1ABD JUMP JUMPDEST PUSH1 0x60 DUP4 ADD MLOAD PUSH0 SWAP1 DUP2 DUP5 PUSH2 0x1B1E JUMPI PUSH1 0x3 PUSH2 0x1B21 JUMP JUMPDEST PUSH1 0x4 JUMPDEST SWAP1 POP PUSH0 JUMPDEST DUP2 SLOAD DUP2 LT ISZERO PUSH2 0x1CA4 JUMPI PUSH0 DUP3 DUP3 DUP2 SLOAD DUP2 LT PUSH2 0x1B41 JUMPI PUSH2 0x1B41 PUSH2 0x4630 JUMP JUMPDEST SWAP1 PUSH0 MSTORE PUSH1 0x20 PUSH0 KECCAK256 SWAP1 PUSH1 0x6 MUL ADD SWAP1 POP DUP7 ISZERO DUP1 ISZERO PUSH2 0x1B67 JUMPI POP PUSH1 0x5 DUP2 ADD SLOAD PUSH3 0x10000 SWAP1 DIV PUSH1 0xFF AND JUMPDEST ISZERO PUSH2 0x1BF5 JUMPI PUSH1 0x9 SLOAD PUSH1 0x20 DUP10 ADD MLOAD PUSH1 0x40 MLOAD PUSH4 0x237B64EF PUSH1 0xE1 SHL DUP2 MSTORE PUSH1 0x1 PUSH1 0x1 PUSH1 0xA0 SHL SUB SWAP1 SWAP3 AND SWAP2 PUSH4 0x46F6C9DE SWAP2 PUSH2 0x1B9F SWAP2 PUSH1 0x4 ADD PUSH2 0x42F5 JUMP JUMPDEST PUSH1 0x20 PUSH1 0x40 MLOAD DUP1 DUP4 SUB DUP2 DUP7 GAS STATICCALL ISZERO DUP1 ISZERO PUSH2 0x1BBA JUMPI RETURNDATASIZE PUSH0 PUSH0 RETURNDATACOPY RETURNDATASIZE PUSH0 REVERT JUMPDEST POP POP POP POP PUSH1 0x40 MLOAD RETURNDATASIZE PUSH1 0x1F NOT PUSH1 0x1F DUP3 ADD AND DUP3 ADD DUP1 PUSH1 0x40 MSTORE POP DUP2 ADD SWAP1 PUSH2 0x1BDE SWAP2 SWAP1 PUSH2 0x479F JUMP JUMPDEST PUSH2 0x1BF5 JUMPI DUP2 PUSH2 0x1BEC DUP2 PUSH2 0x47BA JUMP JUMPDEST SWAP3 POP POP POP PUSH2 0x1B25 JUMP JUMPDEST PUSH0 DUP8 PUSH2 0x1C0C JUMPI DUP2 PUSH1 0x2 ADD SLOAD DUP10 PUSH1 0x40 ADD MLOAD GT ISZERO PUSH2 0x1C19 JUMP JUMPDEST DUP2 PUSH1 0x2 ADD SLOAD DUP10 PUSH1 0x40 ADD MLOAD LT ISZERO JUMPDEST SWAP1 POP DUP1 PUSH2 0x1C27 JUMPI POP POP PUSH2 0x1CA4 JUMP JUMPDEST PUSH2 0x1C35 DUP6 DUP4 PUSH1 0x3 ADD SLOAD PUSH2 0x36AA JUMP JUMPDEST SWAP6 POP PUSH2 0x1C43 DUP10 DUP4 DUP9 DUP12 PUSH2 0x36C1 JUMP JUMPDEST PUSH2 0x1C4D DUP7 DUP7 PUSH2 0x46B4 JUMP JUMPDEST SWAP5 POP DUP6 DUP3 PUSH1 0x3 ADD PUSH0 DUP3 DUP3 SLOAD PUSH2 0x1C62 SWAP2 SWAP1 PUSH2 0x46B4 JUMP JUMPDEST SWAP1 SWAP2 SSTORE POP POP PUSH1 0x3 DUP3 ADD SLOAD PUSH0 SUB PUSH2 0x1C81 JUMPI PUSH2 0x1C7C DUP5 DUP5 PUSH2 0x3A0B JUMP JUMPDEST PUSH2 0x1C8F JUMP JUMPDEST DUP3 PUSH2 0x1C8B DUP2 PUSH2 0x47BA JUMP JUMPDEST SWAP4 POP POP JUMPDEST DUP5 PUSH0 SUB PUSH2 0x1C9D JUMPI POP POP PUSH2 0x1CA4 JUMP JUMPDEST POP POP PUSH2 0x1B25 JUMP JUMPDEST PUSH0 DUP7 PUSH2 0x1CB1 JUMPI PUSH1 0x4 PUSH2 0x1CB4 JUMP JUMPDEST PUSH1 0x3 JUMPDEST SWAP1 POP DUP4 ISZERO PUSH2 0x21BE JUMPI PUSH1 0x60 DUP9 ADD DUP5 SWAP1 MSTORE PUSH0 DUP1 JUMPDEST DUP3 SLOAD DUP2 LT ISZERO PUSH2 0x1DEE JUMPI DUP10 PUSH0 ADD MLOAD DUP4 DUP3 DUP2 SLOAD DUP2 LT PUSH2 0x1CE5 JUMPI PUSH2 0x1CE5 PUSH2 0x4630 JUMP JUMPDEST SWAP1 PUSH0 MSTORE PUSH1 0x20 PUSH0 KECCAK256 SWAP1 PUSH1 0x6 MUL ADD PUSH0 ADD SLOAD SUB PUSH2 0x1DE6 JUMPI DUP10 DUP4 DUP3 DUP2 SLOAD DUP2 LT PUSH2 0x1D0C JUMPI PUSH2 0x1D0C PUSH2 0x4630 JUMP JUMPDEST PUSH0 SWAP2 DUP3 MSTORE PUSH1 0x20 SWAP2 DUP3 SWAP1 KECCAK256 DUP4 MLOAD PUSH1 0x6 SWAP3 SWAP1 SWAP3 MUL ADD SWAP1 DUP2 SSTORE SWAP1 DUP3 ADD MLOAD PUSH1 0x1 DUP1 DUP4 ADD DUP1 SLOAD PUSH1 0x1 PUSH1 0x1 PUSH1 0xA0 SHL SUB NOT AND PUSH1 0x1 PUSH1 0x1 PUSH1 0xA0 SHL SUB SWAP1 SWAP4 AND SWAP3 SWAP1 SWAP3 OR SWAP1 SWAP2 SSTORE PUSH1 0x40 DUP4 ADD MLOAD PUSH1 0x2 DUP4 ADD SSTORE PUSH1 0x60 DUP4 ADD MLOAD PUSH1 0x3 DUP4 ADD SSTORE PUSH1 0x80 DUP4 ADD MLOAD PUSH1 0x4 DUP4 ADD SSTORE PUSH1 0xA0 DUP4 ADD MLOAD PUSH1 0x5 DUP4 ADD DUP1 SLOAD SWAP2 SWAP3 SWAP1 SWAP2 PUSH1 0xFF NOT AND SWAP1 DUP4 DUP1 ISZERO PUSH2 0x1D8A JUMPI PUSH2 0x1D8A PUSH2 0x4309 JUMP JUMPDEST MUL OR SWAP1 SSTORE POP PUSH1 0xC0 DUP3 ADD MLOAD PUSH1 0x5 DUP3 ADD DUP1 SLOAD PUSH2 0xFF00 NOT AND PUSH2 0x100 DUP4 PUSH1 0x2 DUP2 GT ISZERO PUSH2 0x1DB4 JUMPI PUSH2 0x1DB4 PUSH2 0x4309 JUMP JUMPDEST MUL OR SWAP1 SSTORE POP PUSH1 0xE0 SWAP2 SWAP1 SWAP2 ADD MLOAD PUSH1 0x5 SWAP1 SWAP2 ADD DUP1 SLOAD SWAP2 ISZERO ISZERO PUSH3 0x10000 MUL PUSH3 0xFF0000 NOT SWAP1 SWAP3 AND SWAP2 SWAP1 SWAP2 OR SWAP1 SSTORE PUSH1 0x1 SWAP2 POP PUSH2 0x1DEE JUMP JUMPDEST PUSH1 0x1 ADD PUSH2 0x1CC6 JUMP JUMPDEST POP DUP1 ISZERO PUSH2 0x1E00 JUMPI POP POP POP POP POP POP POP POP POP JUMP JUMPDEST DUP2 SLOAD PUSH1 0x14 GT PUSH2 0x1E2D JUMPI DUP8 ISZERO PUSH2 0x1E1F JUMPI PUSH2 0x1E1A DUP3 PUSH1 0x1 PUSH2 0x3BC5 JUMP JUMPDEST PUSH2 0x1E2D JUMP JUMPDEST PUSH2 0x1E2D DUP3 DUP11 PUSH1 0xA0 ADD MLOAD PUSH2 0x3E73 JUMP JUMPDEST DUP2 SLOAD PUSH0 SWAP1 ISZERO PUSH2 0x1EB6 JUMPI JUMPDEST DUP3 SLOAD DUP2 LT DUP1 ISZERO PUSH2 0x1E9F JUMPI POP DUP9 PUSH2 0x1E75 JUMPI DUP3 DUP2 DUP2 SLOAD DUP2 LT PUSH2 0x1E59 JUMPI PUSH2 0x1E59 PUSH2 0x4630 JUMP JUMPDEST SWAP1 PUSH0 MSTORE PUSH1 0x20 PUSH0 KECCAK256 SWAP1 PUSH1 0x6 MUL ADD PUSH1 0x2 ADD SLOAD DUP11 PUSH1 0x40 ADD MLOAD LT ISZERO PUSH2 0x1E9F JUMP JUMPDEST DUP3 DUP2 DUP2 SLOAD DUP2 LT PUSH2 0x1E87 JUMPI PUSH2 0x1E87 PUSH2 0x4630 JUMP JUMPDEST SWAP1 PUSH0 MSTORE PUSH1 0x20 PUSH0 KECCAK256 SWAP1 PUSH1 0x6 MUL ADD PUSH1 0x2 ADD SLOAD DUP11 PUSH1 0x40 ADD MLOAD GT ISZERO JUMPDEST ISZERO PUSH2 0x1EB6 JUMPI DUP1 PUSH2 0x1EAE DUP2 PUSH2 0x47BA JUMP JUMPDEST SWAP2 POP POP PUSH2 0x1E37 JUMP JUMPDEST DUP3 SLOAD PUSH1 0x1 DUP1 DUP3 ADD DUP6 SSTORE PUSH0 DUP6 DUP2 MSTORE PUSH1 0x20 SWAP1 DUP2 SWAP1 KECCAK256 DUP14 MLOAD PUSH1 0x6 SWAP1 SWAP5 MUL ADD SWAP3 DUP4 SSTORE DUP13 ADD MLOAD DUP3 DUP3 ADD DUP1 SLOAD PUSH1 0x1 PUSH1 0x1 PUSH1 0xA0 SHL SUB NOT AND PUSH1 0x1 PUSH1 0x1 PUSH1 0xA0 SHL SUB SWAP1 SWAP3 AND SWAP2 SWAP1 SWAP2 OR SWAP1 SSTORE PUSH1 0x40 DUP13 ADD MLOAD PUSH1 0x2 DUP4 ADD SSTORE PUSH1 0x60 DUP13 ADD MLOAD PUSH1 0x3 DUP4 ADD SSTORE PUSH1 0x80 DUP13 ADD MLOAD PUSH1 0x4 DUP4 ADD SSTORE PUSH1 0xA0 DUP13 ADD MLOAD PUSH1 0x5 DUP4 ADD DUP1 SLOAD DUP15 SWAP5 SWAP4 PUSH1 0xFF NOT SWAP1 SWAP2 AND SWAP1 DUP4 DUP1 ISZERO PUSH2 0x1F39 JUMPI PUSH2 0x1F39 PUSH2 0x4309 JUMP JUMPDEST MUL OR SWAP1 SSTORE POP PUSH1 0xC0 DUP3 ADD MLOAD PUSH1 0x5 DUP3 ADD DUP1 SLOAD PUSH2 0xFF00 NOT AND PUSH2 0x100 DUP4 PUSH1 0x2 DUP2 GT ISZERO PUSH2 0x1F63 JUMPI PUSH2 0x1F63 PUSH2 0x4309 JUMP JUMPDEST MUL OR SWAP1 SSTORE POP PUSH1 0xE0 SWAP2 SWAP1 SWAP2 ADD MLOAD PUSH1 0x5 SWAP1 SWAP2 ADD DUP1 SLOAD SWAP2 ISZERO ISZERO PUSH3 0x10000 MUL PUSH3 0xFF0000 NOT SWAP1 SWAP3 AND SWAP2 SWAP1 SWAP2 OR SWAP1 SSTORE DUP3 SLOAD PUSH0 SWAP1 PUSH2 0x1F9C SWAP1 PUSH1 0x1 SWAP1 PUSH2 0x46B4 JUMP JUMPDEST SWAP1 POP JUMPDEST DUP2 DUP2 GT ISZERO PUSH2 0x20D2 JUMPI DUP4 PUSH2 0x1FB3 PUSH1 0x1 DUP4 PUSH2 0x46B4 JUMP JUMPDEST DUP2 SLOAD DUP2 LT PUSH2 0x1FC3 JUMPI PUSH2 0x1FC3 PUSH2 0x4630 JUMP JUMPDEST SWAP1 PUSH0 MSTORE PUSH1 0x20 PUSH0 KECCAK256 SWAP1 PUSH1 0x6 MUL ADD DUP5 DUP3 DUP2 SLOAD DUP2 LT PUSH2 0x1FE1 JUMPI PUSH2 0x1FE1 PUSH2 0x4630 JUMP JUMPDEST PUSH0 SWAP2 DUP3 MSTORE PUSH1 0x20 SWAP1 SWAP2 KECCAK256 DUP3 SLOAD PUSH1 0x6 SWAP1 SWAP3 MUL ADD SWAP1 DUP2 SSTORE PUSH1 0x1 DUP1 DUP4 ADD SLOAD DUP2 DUP4 ADD DUP1 SLOAD PUSH1 0x1 PUSH1 0x1 PUSH1 0xA0 SHL SUB NOT AND PUSH1 0x1 PUSH1 0x1 PUSH1 0xA0 SHL SUB SWAP1 SWAP3 AND SWAP2 SWAP1 SWAP2 OR SWAP1 SSTORE PUSH1 0x2 DUP1 DUP5 ADD SLOAD SWAP1 DUP4 ADD SSTORE PUSH1 0x3 DUP1 DUP5 ADD SLOAD SWAP1 DUP4 ADD SSTORE PUSH1 0x4 DUP1 DUP5 ADD SLOAD SWAP1 DUP4 ADD SSTORE PUSH1 0x5 DUP1 DUP5 ADD SLOAD SWAP1 DUP4 ADD DUP1 SLOAD PUSH1 0xFF SWAP1 SWAP3 AND SWAP3 SWAP1 SWAP2 PUSH1 0xFF NOT AND SWAP1 DUP4 DUP1 ISZERO PUSH2 0x2060 JUMPI PUSH2 0x2060 PUSH2 0x4309 JUMP JUMPDEST MUL OR SWAP1 SSTORE POP PUSH1 0x5 DUP3 DUP2 ADD SLOAD SWAP1 DUP3 ADD DUP1 SLOAD PUSH1 0xFF PUSH2 0x100 SWAP4 DUP5 SWAP1 DIV AND SWAP3 PUSH2 0xFF00 NOT SWAP1 SWAP2 AND SWAP1 DUP4 PUSH1 0x2 DUP2 GT ISZERO PUSH2 0x2095 JUMPI PUSH2 0x2095 PUSH2 0x4309 JUMP JUMPDEST MUL OR SWAP1 SSTORE POP PUSH1 0x5 SWAP2 DUP3 ADD SLOAD SWAP2 ADD DUP1 SLOAD PUSH3 0xFF0000 NOT AND PUSH3 0x10000 SWAP3 DUP4 SWAP1 DIV PUSH1 0xFF AND ISZERO ISZERO SWAP1 SWAP3 MUL SWAP2 SWAP1 SWAP2 OR SWAP1 SSTORE DUP1 PUSH2 0x20CA DUP2 PUSH2 0x47D2 JUMP JUMPDEST SWAP2 POP POP PUSH2 0x1F9F JUMP JUMPDEST POP DUP10 DUP4 DUP3 DUP2 SLOAD DUP2 LT PUSH2 0x20E6 JUMPI PUSH2 0x20E6 PUSH2 0x4630 JUMP JUMPDEST PUSH0 SWAP2 DUP3 MSTORE PUSH1 0x20 SWAP2 DUP3 SWAP1 KECCAK256 DUP4 MLOAD PUSH1 0x6 SWAP3 SWAP1 SWAP3 MUL ADD SWAP1 DUP2 SSTORE SWAP1 DUP3 ADD MLOAD PUSH1 0x1 DUP1 DUP4 ADD DUP1 SLOAD PUSH1 0x1 PUSH1 0x1 PUSH1 0xA0 SHL SUB NOT AND PUSH1 0x1 PUSH1 0x1 PUSH1 0xA0 SHL SUB SWAP1 SWAP4 AND SWAP3 SWAP1 SWAP3 OR SWAP1 SWAP2 SSTORE PUSH1 0x40 DUP4 ADD MLOAD PUSH1 0x2 DUP4 ADD SSTORE PUSH1 0x60 DUP4 ADD MLOAD PUSH1 0x3 DUP4 ADD SSTORE PUSH1 0x80 DUP4 ADD MLOAD PUSH1 0x4 DUP4 ADD SSTORE PUSH1 0xA0 DUP4 ADD MLOAD PUSH1 0x5 DUP4 ADD DUP1 SLOAD SWAP2 SWAP3 SWAP1 SWAP2 PUSH1 0xFF NOT AND SWAP1 DUP4 DUP1 ISZERO PUSH2 0x2164 JUMPI PUSH2 0x2164 PUSH2 0x4309 JUMP JUMPDEST MUL OR SWAP1 SSTORE POP PUSH1 0xC0 DUP3 ADD MLOAD PUSH1 0x5 DUP3 ADD DUP1 SLOAD PUSH2 0xFF00 NOT AND PUSH2 0x100 DUP4 PUSH1 0x2 DUP2 GT ISZERO PUSH2 0x218E JUMPI PUSH2 0x218E PUSH2 0x4309 JUMP JUMPDEST MUL OR SWAP1 SSTORE POP PUSH1 0xE0 SWAP2 SWAP1 SWAP2 ADD MLOAD PUSH1 0x5 SWAP1 SWAP2 ADD DUP1 SLOAD SWAP2 ISZERO ISZERO PUSH3 0x10000 MUL PUSH3 0xFF0000 NOT SWAP1 SWAP3 AND SWAP2 SWAP1 SWAP2 OR SWAP1 SSTORE POP POP PUSH2 0x21CD JUMP JUMPDEST DUP6 PUSH2 0x21CD JUMPI PUSH2 0x21CD DUP2 DUP4 PUSH2 0x3A0B JUMP JUMPDEST POP POP POP POP POP POP POP POP JUMP JUMPDEST DUP2 SLOAD PUSH0 JUMPDEST DUP2 DUP2 LT DUP1 ISZERO PUSH2 0x220F JUMPI POP DUP3 PUSH1 0x40 ADD MLOAD DUP5 DUP3 DUP2 SLOAD DUP2 LT PUSH2 0x21FC JUMPI PUSH2 0x21FC PUSH2 0x4630 JUMP JUMPDEST SWAP1 PUSH0 MSTORE PUSH1 0x20 PUSH0 KECCAK256 SWAP1 PUSH1 0x6 MUL ADD PUSH1 0x2 ADD SLOAD GT ISZERO JUMPDEST ISZERO PUSH2 0x2226 JUMPI DUP1 PUSH2 0x221E DUP2 PUSH2 0x47BA JUMP JUMPDEST SWAP2 POP POP PUSH2 0x21DB JUMP JUMPDEST PUSH1 0x14 DUP3 LT PUSH2 0x23B7 JUMPI PUSH0 DUP5 PUSH2 0x223B PUSH1 0x1 DUP6 PUSH2 0x46B4 JUMP JUMPDEST DUP2 SLOAD DUP2 LT PUSH2 0x224B JUMPI PUSH2 0x224B PUSH2 0x4630 JUMP JUMPDEST PUSH0 SWAP2 DUP3 MSTORE PUSH1 0x20 SWAP2 DUP3 SWAP1 KECCAK256 PUSH1 0x40 DUP1 MLOAD PUSH2 0x100 DUP2 ADD DUP3 MSTORE PUSH1 0x6 SWAP1 SWAP4 MUL SWAP1 SWAP2 ADD DUP1 SLOAD DUP4 MSTORE PUSH1 0x1 DUP2 ADD SLOAD PUSH1 0x1 PUSH1 0x1 PUSH1 0xA0 SHL SUB AND SWAP4 DUP4 ADD SWAP4 SWAP1 SWAP4 MSTORE PUSH1 0x2 DUP4 ADD SLOAD SWAP1 DUP3 ADD MSTORE PUSH1 0x3 DUP3 ADD SLOAD PUSH1 0x60 DUP3 ADD MSTORE PUSH1 0x4 DUP3 ADD SLOAD PUSH1 0x80 DUP3 ADD MSTORE PUSH1 0x5 DUP3 ADD SLOAD SWAP1 SWAP2 SWAP1 PUSH1 0xA0 DUP4 ADD SWAP1 PUSH1 0xFF AND DUP1 ISZERO PUSH2 0x22BC JUMPI PUSH2 0x22BC PUSH2 0x4309 JUMP JUMPDEST DUP1 ISZERO PUSH2 0x22CA JUMPI PUSH2 0x22CA PUSH2 0x4309 JUMP JUMPDEST DUP2 MSTORE PUSH1 0x20 ADD PUSH1 0x5 DUP3 ADD PUSH1 0x1 SWAP1 SLOAD SWAP1 PUSH2 0x100 EXP SWAP1 DIV PUSH1 0xFF AND PUSH1 0x2 DUP2 GT ISZERO PUSH2 0x22F2 JUMPI PUSH2 0x22F2 PUSH2 0x4309 JUMP JUMPDEST PUSH1 0x2 DUP2 GT ISZERO PUSH2 0x2303 JUMPI PUSH2 0x2303 PUSH2 0x4309 JUMP JUMPDEST DUP2 MSTORE PUSH1 0x5 SWAP2 SWAP1 SWAP2 ADD SLOAD PUSH3 0x10000 SWAP1 DIV PUSH1 0xFF AND ISZERO ISZERO PUSH1 0x20 SWAP1 SWAP2 ADD MSTORE PUSH1 0x40 DUP2 DUP2 ADD MLOAD SWAP1 DUP7 ADD MLOAD SWAP2 SWAP3 POP GT ISZERO PUSH2 0x2353 JUMPI PUSH2 0x233E DUP6 DUP6 PUSH1 0xA0 ADD MLOAD PUSH2 0x3E73 JUMP JUMPDEST DUP5 SLOAD SWAP3 POP DUP3 DUP3 GT ISZERO PUSH2 0x234E JUMPI DUP3 SWAP2 POP JUMPDEST PUSH2 0x23B5 JUMP JUMPDEST PUSH1 0x40 MLOAD PUSH3 0x461BCD PUSH1 0xE5 SHL DUP2 MSTORE PUSH1 0x20 PUSH1 0x4 DUP3 ADD MSTORE PUSH1 0x31 PUSH1 0x24 DUP3 ADD MSTORE PUSH32 0x4E6577206F72646572207072696365206973206E6F74206C6F7720656E6F7567 PUSH1 0x44 DUP3 ADD MSTORE PUSH17 0x34103A379031329034B739B2B93A32B217 PUSH1 0x79 SHL PUSH1 0x64 DUP3 ADD MSTORE PUSH1 0x84 ADD PUSH2 0x3ED JUMP JUMPDEST POP JUMPDEST DUP4 SLOAD PUSH1 0x1 DUP1 DUP3 ADD DUP7 SSTORE PUSH0 DUP7 DUP2 MSTORE PUSH1 0x20 SWAP1 DUP2 SWAP1 KECCAK256 DUP7 MLOAD PUSH1 0x6 SWAP1 SWAP5 MUL ADD SWAP3 DUP4 SSTORE DUP6 ADD MLOAD DUP3 DUP3 ADD DUP1 SLOAD PUSH1 0x1 PUSH1 0x1 PUSH1 0xA0 SHL SUB NOT AND PUSH1 0x1 PUSH1 0x1 PUSH1 0xA0 SHL SUB SWAP1 SWAP3 AND SWAP2 SWAP1 SWAP2 OR SWAP1 SSTORE PUSH1 0x40 DUP6 ADD MLOAD PUSH1 0x2 DUP4 ADD SSTORE PUSH1 0x60 DUP6 ADD MLOAD PUSH1 0x3 DUP4 ADD SSTORE PUSH1 0x80 DUP6 ADD MLOAD PUSH1 0x4 DUP4 ADD SSTORE PUSH1 0xA0 DUP6 ADD MLOAD PUSH1 0x5 DUP4 ADD DUP1 SLOAD DUP8 SWAP5 SWAP4 PUSH1 0xFF NOT SWAP1 SWAP2 AND SWAP1 DUP4 DUP1 ISZERO PUSH2 0x243A JUMPI PUSH2 0x243A PUSH2 0x4309 JUMP JUMPDEST MUL OR SWAP1 SSTORE POP PUSH1 0xC0 DUP3 ADD MLOAD PUSH1 0x5 DUP3 ADD DUP1 SLOAD PUSH2 0xFF00 NOT AND PUSH2 0x100 DUP4 PUSH1 0x2 DUP2 GT ISZERO PUSH2 0x2464 JUMPI PUSH2 0x2464 PUSH2 0x4309 JUMP JUMPDEST MUL OR SWAP1 SSTORE POP PUSH1 0xE0 SWAP2 SWAP1 SWAP2 ADD MLOAD PUSH1 0x5 SWAP1 SWAP2 ADD DUP1 SLOAD SWAP2 ISZERO ISZERO PUSH3 0x10000 MUL PUSH3 0xFF0000 NOT SWAP1 SWAP3 AND SWAP2 SWAP1 SWAP2 OR SWAP1 SSTORE DUP4 SLOAD PUSH0 SWAP1 PUSH2 0x249D SWAP1 PUSH1 0x1 SWAP1 PUSH2 0x46B4 JUMP JUMPDEST SWAP1 POP JUMPDEST DUP2 DUP2 GT ISZERO PUSH2 0x25D3 JUMPI DUP5 PUSH2 0x24B4 PUSH1 0x1 DUP4 PUSH2 0x46B4 JUMP JUMPDEST DUP2 SLOAD DUP2 LT PUSH2 0x24C4 JUMPI PUSH2 0x24C4 PUSH2 0x4630 JUMP JUMPDEST SWAP1 PUSH0 MSTORE PUSH1 0x20 PUSH0 KECCAK256 SWAP1 PUSH1 0x6 MUL ADD DUP6 DUP3 DUP2 SLOAD DUP2 LT PUSH2 0x24E2 JUMPI PUSH2 0x24E2 PUSH2 0x4630 JUMP JUMPDEST PUSH0 SWAP2 DUP3 MSTORE PUSH1 0x20 SWAP1 SWAP2 KECCAK256 DUP3 SLOAD PUSH1 0x6 SWAP1 SWAP3 MUL ADD SWAP1 DUP2 SSTORE PUSH1 0x1 DUP1 DUP4 ADD SLOAD DUP2 DUP4 ADD DUP1 SLOAD PUSH1 0x1 PUSH1 0x1 PUSH1 0xA0 SHL SUB NOT AND PUSH1 0x1 PUSH1 0x1 PUSH1 0xA0 SHL SUB SWAP1 SWAP3 AND SWAP2 SWAP1 SWAP2 OR SWAP1 SSTORE PUSH1 0x2 DUP1 DUP5 ADD SLOAD SWAP1 DUP4 ADD SSTORE PUSH1 0x3 DUP1 DUP5 ADD SLOAD SWAP1 DUP4 ADD SSTORE PUSH1 0x4 DUP1 DUP5 ADD SLOAD SWAP1 DUP4 ADD SSTORE PUSH1 0x5 DUP1 DUP5 ADD SLOAD SWAP1 DUP4 ADD DUP1 SLOAD PUSH1 0xFF SWAP1 SWAP3 AND SWAP3 SWAP1 SWAP2 PUSH1 0xFF NOT AND SWAP1 DUP4 DUP1 ISZERO PUSH2 0x2561 JUMPI PUSH2 0x2561 PUSH2 0x4309 JUMP JUMPDEST MUL OR SWAP1 SSTORE POP PUSH1 0x5 DUP3 DUP2 ADD SLOAD SWAP1 DUP3 ADD DUP1 SLOAD PUSH1 0xFF PUSH2 0x100 SWAP4 DUP5 SWAP1 DIV AND SWAP3 PUSH2 0xFF00 NOT SWAP1 SWAP2 AND SWAP1 DUP4 PUSH1 0x2 DUP2 GT ISZERO PUSH2 0x2596 JUMPI PUSH2 0x2596 PUSH2 0x4309 JUMP JUMPDEST MUL OR SWAP1 SSTORE POP PUSH1 0x5 SWAP2 DUP3 ADD SLOAD SWAP2 ADD DUP1 SLOAD PUSH3 0xFF0000 NOT AND PUSH3 0x10000 SWAP3 DUP4 SWAP1 DIV PUSH1 0xFF AND ISZERO ISZERO SWAP1 SWAP3 MUL SWAP2 SWAP1 SWAP2 OR SWAP1 SSTORE DUP1 PUSH2 0x25CB DUP2 PUSH2 0x47D2 JUMP JUMPDEST SWAP2 POP POP PUSH2 0x24A0 JUMP JUMPDEST POP DUP3 DUP5 DUP3 DUP2 SLOAD DUP2 LT PUSH2 0x25E7 JUMPI PUSH2 0x25E7 PUSH2 0x4630 JUMP JUMPDEST PUSH0 SWAP2 DUP3 MSTORE PUSH1 0x20 SWAP2 DUP3 SWAP1 KECCAK256 DUP4 MLOAD PUSH1 0x6 SWAP3 SWAP1 SWAP3 MUL ADD SWAP1 DUP2 SSTORE SWAP1 DUP3 ADD MLOAD PUSH1 0x1 DUP1 DUP4 ADD DUP1 SLOAD PUSH1 0x1 PUSH1 0x1 PUSH1 0xA0 SHL SUB NOT AND PUSH1 0x1 PUSH1 0x1 PUSH1 0xA0 SHL SUB SWAP1 SWAP4 AND SWAP3 SWAP1 SWAP3 OR SWAP1 SWAP2 SSTORE PUSH1 0x40 DUP4 ADD MLOAD PUSH1 0x2 DUP4 ADD SSTORE PUSH1 0x60 DUP4 ADD MLOAD PUSH1 0x3 DUP4 ADD SSTORE PUSH1 0x80 DUP4 ADD MLOAD PUSH1 0x4 DUP4 ADD SSTORE PUSH1 0xA0 DUP4 ADD MLOAD PUSH1 0x5 DUP4 ADD DUP1 SLOAD SWAP2 SWAP3 SWAP1 SWAP2 PUSH1 0xFF NOT AND SWAP1 DUP4 DUP1 ISZERO PUSH2 0x2665 JUMPI PUSH2 0x2665 PUSH2 0x4309 JUMP JUMPDEST MUL OR SWAP1 SSTORE POP PUSH1 0xC0 DUP3 ADD MLOAD PUSH1 0x5 DUP3 ADD DUP1 SLOAD PUSH2 0xFF00 NOT AND PUSH2 0x100 DUP4 PUSH1 0x2 DUP2 GT ISZERO PUSH2 0x268F JUMPI PUSH2 0x268F PUSH2 0x4309 JUMP JUMPDEST MUL OR SWAP1 SSTORE POP PUSH1 0xE0 SWAP2 SWAP1 SWAP2 ADD MLOAD PUSH1 0x5 SWAP1 SWAP2 ADD DUP1 SLOAD SWAP2 ISZERO ISZERO PUSH3 0x10000 MUL PUSH3 0xFF0000 NOT SWAP1 SWAP3 AND SWAP2 SWAP1 SWAP2 OR SWAP1 SSTORE POP POP POP POP JUMP JUMPDEST PUSH1 0x2 PUSH1 0x1 SLOAD SUB PUSH2 0x26E1 JUMPI PUSH1 0x40 MLOAD PUSH4 0x3EE5AEB5 PUSH1 0xE0 SHL DUP2 MSTORE PUSH1 0x4 ADD PUSH1 0x40 MLOAD DUP1 SWAP2 SUB SWAP1 REVERT JUMPDEST PUSH1 0x2 PUSH1 0x1 SSTORE JUMP JUMPDEST DUP3 SLOAD DUP3 LT PUSH2 0x2708 JUMPI PUSH1 0x40 MLOAD PUSH3 0x461BCD PUSH1 0xE5 SHL DUP2 MSTORE PUSH1 0x4 ADD PUSH2 0x3ED SWAP1 PUSH2 0x4687 JUMP JUMPDEST PUSH0 DUP4 DUP4 DUP2 SLOAD DUP2 LT PUSH2 0x271B JUMPI PUSH2 0x271B PUSH2 0x4630 JUMP JUMPDEST PUSH0 SWAP2 DUP3 MSTORE PUSH1 0x20 SWAP2 DUP3 SWAP1 KECCAK256 PUSH1 0x40 DUP1 MLOAD PUSH2 0x100 DUP2 ADD DUP3 MSTORE PUSH1 0x6 SWAP1 SWAP4 MUL SWAP1 SWAP2 ADD DUP1 SLOAD DUP4 MSTORE PUSH1 0x1 DUP2 ADD SLOAD PUSH1 0x1 PUSH1 0x1 PUSH1 0xA0 SHL SUB AND SWAP4 DUP4 ADD SWAP4 SWAP1 SWAP4 MSTORE PUSH1 0x2 DUP4 ADD SLOAD SWAP1 DUP3 ADD MSTORE PUSH1 0x3 DUP3 ADD SLOAD PUSH1 0x60 DUP3 ADD MSTORE PUSH1 0x4 DUP3 ADD SLOAD PUSH1 0x80 DUP3 ADD MSTORE PUSH1 0x5 DUP3 ADD SLOAD SWAP1 SWAP2 SWAP1 PUSH1 0xA0 DUP4 ADD SWAP1 PUSH1 0xFF AND DUP1 ISZERO PUSH2 0x278C JUMPI PUSH2 0x278C PUSH2 0x4309 JUMP JUMPDEST DUP1 ISZERO PUSH2 0x279A JUMPI PUSH2 0x279A PUSH2 0x4309 JUMP JUMPDEST DUP2 MSTORE PUSH1 0x20 ADD PUSH1 0x5 DUP3 ADD PUSH1 0x1 SWAP1 SLOAD SWAP1 PUSH2 0x100 EXP SWAP1 DIV PUSH1 0xFF AND PUSH1 0x2 DUP2 GT ISZERO PUSH2 0x27C2 JUMPI PUSH2 0x27C2 PUSH2 0x4309 JUMP JUMPDEST PUSH1 0x2 DUP2 GT ISZERO PUSH2 0x27D3 JUMPI PUSH2 0x27D3 PUSH2 0x4309 JUMP JUMPDEST DUP2 MSTORE PUSH1 0x5 SWAP2 SWAP1 SWAP2 ADD SLOAD PUSH3 0x10000 SWAP1 DIV PUSH1 0xFF AND ISZERO ISZERO PUSH1 0x20 SWAP1 SWAP2 ADD MSTORE SWAP1 POP PUSH0 DUP3 ISZERO PUSH2 0x2C98 JUMPI DUP4 JUMPDEST PUSH0 DUP2 GT DUP1 ISZERO PUSH2 0x2835 JUMPI POP DUP6 PUSH2 0x280E PUSH1 0x1 DUP4 PUSH2 0x46B4 JUMP JUMPDEST DUP2 SLOAD DUP2 LT PUSH2 0x281E JUMPI PUSH2 0x281E PUSH2 0x4630 JUMP JUMPDEST SWAP1 PUSH0 MSTORE PUSH1 0x20 PUSH0 KECCAK256 SWAP1 PUSH1 0x6 MUL ADD PUSH1 0x2 ADD SLOAD DUP4 PUSH1 0x40 ADD MLOAD LT JUMPDEST ISZERO PUSH2 0x2972 JUMPI DUP6 PUSH2 0x2846 PUSH1 0x1 DUP4 PUSH2 0x46B4 JUMP JUMPDEST DUP2 SLOAD DUP2 LT PUSH2 0x2856 JUMPI PUSH2 0x2856 PUSH2 0x4630 JUMP JUMPDEST SWAP1 PUSH0 MSTORE PUSH1 0x20 PUSH0 KECCAK256 SWAP1 PUSH1 0x6 MUL ADD DUP7 DUP3 DUP2 SLOAD DUP2 LT PUSH2 0x2874 JUMPI PUSH2 0x2874 PUSH2 0x4630 JUMP JUMPDEST PUSH0 SWAP2 DUP3 MSTORE PUSH1 0x20 SWAP1 SWAP2 KECCAK256 DUP3 SLOAD PUSH1 0x6 SWAP1 SWAP3 MUL ADD SWAP1 DUP2 SSTORE PUSH1 0x1 DUP1 DUP4 ADD SLOAD DUP2 DUP4 ADD DUP1 SLOAD PUSH1 0x1 PUSH1 0x1 PUSH1 0xA0 SHL SUB NOT AND PUSH1 0x1 PUSH1 0x1 PUSH1 0xA0 SHL SUB SWAP1 SWAP3 AND SWAP2 SWAP1 SWAP2 OR SWAP1 SSTORE PUSH1 0x2 DUP1 DUP5 ADD SLOAD SWAP1 DUP4 ADD SSTORE PUSH1 0x3 DUP1 DUP5 ADD SLOAD SWAP1 DUP4 ADD SSTORE PUSH1 0x4 DUP1 DUP5 ADD SLOAD SWAP1 DUP4 ADD SSTORE PUSH1 0x5 DUP1 DUP5 ADD SLOAD SWAP1 DUP4 ADD DUP1 SLOAD PUSH1 0xFF SWAP1 SWAP3 AND SWAP3 SWAP1 SWAP2 PUSH1 0xFF NOT AND SWAP1 DUP4 DUP1 ISZERO PUSH2 0x28F3 JUMPI PUSH2 0x28F3 PUSH2 0x4309 JUMP JUMPDEST MUL OR SWAP1 SSTORE POP PUSH1 0x5 DUP3 DUP2 ADD SLOAD SWAP1 DUP3 ADD DUP1 SLOAD PUSH1 0xFF PUSH2 0x100 SWAP4 DUP5 SWAP1 DIV AND SWAP3 PUSH2 0xFF00 NOT SWAP1 SWAP2 AND SWAP1 DUP4 PUSH1 0x2 DUP2 GT ISZERO PUSH2 0x2928 JUMPI PUSH2 0x2928 PUSH2 0x4309 JUMP JUMPDEST MUL OR SWAP1 SSTORE POP PUSH1 0x5 SWAP2 DUP3 ADD SLOAD SWAP2 ADD DUP1 SLOAD PUSH3 0xFF0000 NOT AND PUSH3 0x10000 SWAP3 DUP4 SWAP1 DIV PUSH1 0xFF AND ISZERO ISZERO SWAP1 SWAP3 MUL SWAP2 SWAP1 SWAP2 OR SWAP1 SSTORE PUSH2 0x295E PUSH1 0x1 DUP3 PUSH2 0x46B4 JUMP JUMPDEST SWAP5 POP DUP1 PUSH2 0x296A DUP2 PUSH2 0x47D2 JUMP JUMPDEST SWAP2 POP POP PUSH2 0x27F8 JUMP JUMPDEST POP DUP4 JUMPDEST DUP6 SLOAD PUSH2 0x2983 SWAP1 PUSH1 0x1 SWAP1 PUSH2 0x46B4 JUMP JUMPDEST DUP2 LT DUP1 ISZERO PUSH2 0x29BF JUMPI POP DUP6 PUSH2 0x2998 DUP3 PUSH1 0x1 PUSH2 0x45A0 JUMP JUMPDEST DUP2 SLOAD DUP2 LT PUSH2 0x29A8 JUMPI PUSH2 0x29A8 PUSH2 0x4630 JUMP JUMPDEST SWAP1 PUSH0 MSTORE PUSH1 0x20 PUSH0 KECCAK256 SWAP1 PUSH1 0x6 MUL ADD PUSH1 0x2 ADD SLOAD DUP4 PUSH1 0x40 ADD MLOAD GT JUMPDEST ISZERO PUSH2 0x2B02 JUMPI DUP2 PUSH2 0x2AF0 JUMPI DUP6 PUSH2 0x29D5 DUP3 PUSH1 0x1 PUSH2 0x45A0 JUMP JUMPDEST DUP2 SLOAD DUP2 LT PUSH2 0x29E5 JUMPI PUSH2 0x29E5 PUSH2 0x4630 JUMP JUMPDEST SWAP1 PUSH0 MSTORE PUSH1 0x20 PUSH0 KECCAK256 SWAP1 PUSH1 0x6 MUL ADD DUP7 DUP3 DUP2 SLOAD DUP2 LT PUSH2 0x2A03 JUMPI PUSH2 0x2A03 PUSH2 0x4630 JUMP JUMPDEST PUSH0 SWAP2 DUP3 MSTORE PUSH1 0x20 SWAP1 SWAP2 KECCAK256 DUP3 SLOAD PUSH1 0x6 SWAP1 SWAP3 MUL ADD SWAP1 DUP2 SSTORE PUSH1 0x1 DUP1 DUP4 ADD SLOAD DUP2 DUP4 ADD DUP1 SLOAD PUSH1 0x1 PUSH1 0x1 PUSH1 0xA0 SHL SUB NOT AND PUSH1 0x1 PUSH1 0x1 PUSH1 0xA0 SHL SUB SWAP1 SWAP3 AND SWAP2 SWAP1 SWAP2 OR SWAP1 SSTORE PUSH1 0x2 DUP1 DUP5 ADD SLOAD SWAP1 DUP4 ADD SSTORE PUSH1 0x3 DUP1 DUP5 ADD SLOAD SWAP1 DUP4 ADD SSTORE PUSH1 0x4 DUP1 DUP5 ADD SLOAD SWAP1 DUP4 ADD SSTORE PUSH1 0x5 DUP1 DUP5 ADD SLOAD SWAP1 DUP4 ADD DUP1 SLOAD PUSH1 0xFF SWAP1 SWAP3 AND SWAP3 SWAP1 SWAP2 PUSH1 0xFF NOT AND SWAP1 DUP4 DUP1 ISZERO PUSH2 0x2A82 JUMPI PUSH2 0x2A82 PUSH2 0x4309 JUMP JUMPDEST MUL OR SWAP1 SSTORE POP PUSH1 0x5 DUP3 DUP2 ADD SLOAD SWAP1 DUP3 ADD DUP1 SLOAD PUSH1 0xFF PUSH2 0x100 SWAP4 DUP5 SWAP1 DIV AND SWAP3 PUSH2 0xFF00 NOT SWAP1 SWAP2 AND SWAP1 DUP4 PUSH1 0x2 DUP2 GT ISZERO PUSH2 0x2AB7 JUMPI PUSH2 0x2AB7 PUSH2 0x4309 JUMP JUMPDEST MUL OR SWAP1 SSTORE POP PUSH1 0x5 SWAP2 DUP3 ADD SLOAD SWAP2 ADD DUP1 SLOAD PUSH3 0xFF0000 NOT AND PUSH3 0x10000 SWAP3 DUP4 SWAP1 DIV PUSH1 0xFF AND ISZERO ISZERO SWAP1 SWAP3 MUL SWAP2 SWAP1 SWAP2 OR SWAP1 SSTORE PUSH2 0x2AED DUP2 PUSH1 0x1 PUSH2 0x45A0 JUMP JUMPDEST SWAP5 POP JUMPDEST DUP1 PUSH2 0x2AFA DUP2 PUSH2 0x47BA JUMP JUMPDEST SWAP2 POP POP PUSH2 0x2975 JUMP JUMPDEST POP DUP4 JUMPDEST DUP6 SLOAD PUSH2 0x2B13 SWAP1 PUSH1 0x1 SWAP1 PUSH2 0x46B4 JUMP JUMPDEST DUP2 LT DUP1 ISZERO PUSH2 0x2B4F JUMPI POP DUP6 PUSH2 0x2B28 DUP3 PUSH1 0x1 PUSH2 0x45A0 JUMP JUMPDEST DUP2 SLOAD DUP2 LT PUSH2 0x2B38 JUMPI PUSH2 0x2B38 PUSH2 0x4630 JUMP JUMPDEST SWAP1 PUSH0 MSTORE PUSH1 0x20 PUSH0 KECCAK256 SWAP1 PUSH1 0x6 MUL ADD PUSH1 0x2 ADD SLOAD DUP4 PUSH1 0x40 ADD MLOAD EQ JUMPDEST ISZERO PUSH2 0x2C92 JUMPI DUP2 PUSH2 0x2C80 JUMPI DUP6 PUSH2 0x2B65 DUP3 PUSH1 0x1 PUSH2 0x45A0 JUMP JUMPDEST DUP2 SLOAD DUP2 LT PUSH2 0x2B75 JUMPI PUSH2 0x2B75 PUSH2 0x4630 JUMP JUMPDEST SWAP1 PUSH0 MSTORE PUSH1 0x20 PUSH0 KECCAK256 SWAP1 PUSH1 0x6 MUL ADD DUP7 DUP3 DUP2 SLOAD DUP2 LT PUSH2 0x2B93 JUMPI PUSH2 0x2B93 PUSH2 0x4630 JUMP JUMPDEST PUSH0 SWAP2 DUP3 MSTORE PUSH1 0x20 SWAP1 SWAP2 KECCAK256 DUP3 SLOAD PUSH1 0x6 SWAP1 SWAP3 MUL ADD SWAP1 DUP2 SSTORE PUSH1 0x1 DUP1 DUP4 ADD SLOAD DUP2 DUP4 ADD DUP1 SLOAD PUSH1 0x1 PUSH1 0x1 PUSH1 0xA0 SHL SUB NOT AND PUSH1 0x1 PUSH1 0x1 PUSH1 0xA0 SHL SUB SWAP1 SWAP3 AND SWAP2 SWAP1 SWAP2 OR SWAP1 SSTORE PUSH1 0x2 DUP1 DUP5 ADD SLOAD SWAP1 DUP4 ADD SSTORE PUSH1 0x3 DUP1 DUP5 ADD SLOAD SWAP1 DUP4 ADD SSTORE PUSH1 0x4 DUP1 DUP5 ADD SLOAD SWAP1 DUP4 ADD SSTORE PUSH1 0x5 DUP1 DUP5 ADD SLOAD SWAP1 DUP4 ADD DUP1 SLOAD PUSH1 0xFF SWAP1 SWAP3 AND SWAP3 SWAP1 SWAP2 PUSH1 0xFF NOT AND SWAP1 DUP4 DUP1 ISZERO PUSH2 0x2C12 JUMPI PUSH2 0x2C12 PUSH2 0x4309 JUMP JUMPDEST MUL OR SWAP1 SSTORE POP PUSH1 0x5 DUP3 DUP2 ADD SLOAD SWAP1 DUP3 ADD DUP1 SLOAD PUSH1 0xFF PUSH2 0x100 SWAP4 DUP5 SWAP1 DIV AND SWAP3 PUSH2 0xFF00 NOT SWAP1 SWAP2 AND SWAP1 DUP4 PUSH1 0x2 DUP2 GT ISZERO PUSH2 0x2C47 JUMPI PUSH2 0x2C47 PUSH2 0x4309 JUMP JUMPDEST MUL OR SWAP1 SSTORE POP PUSH1 0x5 SWAP2 DUP3 ADD SLOAD SWAP2 ADD DUP1 SLOAD PUSH3 0xFF0000 NOT AND PUSH3 0x10000 SWAP3 DUP4 SWAP1 DIV PUSH1 0xFF AND ISZERO ISZERO SWAP1 SWAP3 MUL SWAP2 SWAP1 SWAP2 OR SWAP1 SSTORE PUSH2 0x2C7D DUP2 PUSH1 0x1 PUSH2 0x45A0 JUMP JUMPDEST SWAP5 POP JUMPDEST DUP1 PUSH2 0x2C8A DUP2 PUSH2 0x47BA JUMP JUMPDEST SWAP2 POP POP PUSH2 0x2B05 JUMP JUMPDEST POP PUSH2 0x3136 JUMP JUMPDEST DUP4 JUMPDEST PUSH0 DUP2 GT DUP1 ISZERO PUSH2 0x2CD7 JUMPI POP DUP6 PUSH2 0x2CB0 PUSH1 0x1 DUP4 PUSH2 0x46B4 JUMP JUMPDEST DUP2 SLOAD DUP2 LT PUSH2 0x2CC0 JUMPI PUSH2 0x2CC0 PUSH2 0x4630 JUMP JUMPDEST SWAP1 PUSH0 MSTORE PUSH1 0x20 PUSH0 KECCAK256 SWAP1 PUSH1 0x6 MUL ADD PUSH1 0x2 ADD SLOAD DUP4 PUSH1 0x40 ADD MLOAD GT JUMPDEST ISZERO PUSH2 0x2E14 JUMPI DUP6 PUSH2 0x2CE8 PUSH1 0x1 DUP4 PUSH2 0x46B4 JUMP JUMPDEST DUP2 SLOAD DUP2 LT PUSH2 0x2CF8 JUMPI PUSH2 0x2CF8 PUSH2 0x4630 JUMP JUMPDEST SWAP1 PUSH0 MSTORE PUSH1 0x20 PUSH0 KECCAK256 SWAP1 PUSH1 0x6 MUL ADD DUP7 DUP3 DUP2 SLOAD DUP2 LT PUSH2 0x2D16 JUMPI PUSH2 0x2D16 PUSH2 0x4630 JUMP JUMPDEST PUSH0 SWAP2 DUP3 MSTORE PUSH1 0x20 SWAP1 SWAP2 KECCAK256 DUP3 SLOAD PUSH1 0x6 SWAP1 SWAP3 MUL ADD SWAP1 DUP2 SSTORE PUSH1 0x1 DUP1 DUP4 ADD SLOAD DUP2 DUP4 ADD DUP1 SLOAD PUSH1 0x1 PUSH1 0x1 PUSH1 0xA0 SHL SUB NOT AND PUSH1 0x1 PUSH1 0x1 PUSH1 0xA0 SHL SUB SWAP1 SWAP3 AND SWAP2 SWAP1 SWAP2 OR SWAP1 SSTORE PUSH1 0x2 DUP1 DUP5 ADD SLOAD SWAP1 DUP4 ADD SSTORE PUSH1 0x3 DUP1 DUP5 ADD SLOAD SWAP1 DUP4 ADD SSTORE PUSH1 0x4 DUP1 DUP5 ADD SLOAD SWAP1 DUP4 ADD SSTORE PUSH1 0x5 DUP1 DUP5 ADD SLOAD SWAP1 DUP4 ADD DUP1 SLOAD PUSH1 0xFF SWAP1 SWAP3 AND SWAP3 SWAP1 SWAP2 PUSH1 0xFF NOT AND SWAP1 DUP4 DUP1 ISZERO PUSH2 0x2D95 JUMPI PUSH2 0x2D95 PUSH2 0x4309 JUMP JUMPDEST MUL OR SWAP1 SSTORE POP PUSH1 0x5 DUP3 DUP2 ADD SLOAD SWAP1 DUP3 ADD DUP1 SLOAD PUSH1 0xFF PUSH2 0x100 SWAP4 DUP5 SWAP1 DIV AND SWAP3 PUSH2 0xFF00 NOT SWAP1 SWAP2 AND SWAP1 DUP4 PUSH1 0x2 DUP2 GT ISZERO PUSH2 0x2DCA JUMPI PUSH2 0x2DCA PUSH2 0x4309 JUMP JUMPDEST MUL OR SWAP1 SSTORE POP PUSH1 0x5 SWAP2 DUP3 ADD SLOAD SWAP2 ADD DUP1 SLOAD PUSH3 0xFF0000 NOT AND PUSH3 0x10000 SWAP3 DUP4 SWAP1 DIV PUSH1 0xFF AND ISZERO ISZERO SWAP1 SWAP3 MUL SWAP2 SWAP1 SWAP2 OR SWAP1 SSTORE PUSH2 0x2E00 PUSH1 0x1 DUP3 PUSH2 0x46B4 JUMP JUMPDEST SWAP5 POP DUP1 PUSH2 0x2E0C DUP2 PUSH2 0x47D2 JUMP JUMPDEST SWAP2 POP POP PUSH2 0x2C9A JUMP JUMPDEST POP DUP4 JUMPDEST DUP6 SLOAD PUSH2 0x2E25 SWAP1 PUSH1 0x1 SWAP1 PUSH2 0x46B4 JUMP JUMPDEST DUP2 LT DUP1 ISZERO PUSH2 0x2E61 JUMPI POP DUP6 PUSH2 0x2E3A DUP3 PUSH1 0x1 PUSH2 0x45A0 JUMP JUMPDEST DUP2 SLOAD DUP2 LT PUSH2 0x2E4A JUMPI PUSH2 0x2E4A PUSH2 0x4630 JUMP JUMPDEST SWAP1 PUSH0 MSTORE PUSH1 0x20 PUSH0 KECCAK256 SWAP1 PUSH1 0x6 MUL ADD PUSH1 0x2 ADD SLOAD DUP4 PUSH1 0x40 ADD MLOAD LT JUMPDEST ISZERO PUSH2 0x2FA4 JUMPI DUP2 PUSH2 0x2F92 JUMPI DUP6 PUSH2 0x2E77 DUP3 PUSH1 0x1 PUSH2 0x45A0 JUMP JUMPDEST DUP2 SLOAD DUP2 LT PUSH2 0x2E87 JUMPI PUSH2 0x2E87 PUSH2 0x4630 JUMP JUMPDEST SWAP1 PUSH0 MSTORE PUSH1 0x20 PUSH0 KECCAK256 SWAP1 PUSH1 0x6 MUL ADD DUP7 DUP3 DUP2 SLOAD DUP2 LT PUSH2 0x2EA5 JUMPI PUSH2 0x2EA5 PUSH2 0x4630 JUMP JUMPDEST PUSH0 SWAP2 DUP3 MSTORE PUSH1 0x20 SWAP1 SWAP2 KECCAK256 DUP3 SLOAD PUSH1 0x6 SWAP1 SWAP3 MUL ADD SWAP1 DUP2 SSTORE PUSH1 0x1 DUP1 DUP4 ADD SLOAD DUP2 DUP4 ADD DUP1 SLOAD PUSH1 0x1 PUSH1 0x1 PUSH1 0xA0 SHL SUB NOT AND PUSH1 0x1 PUSH1 0x1 PUSH1 0xA0 SHL SUB SWAP1 SWAP3 AND SWAP2 SWAP1 SWAP2 OR SWAP1 SSTORE PUSH1 0x2 DUP1 DUP5 ADD SLOAD SWAP1 DUP4 ADD SSTORE PUSH1 0x3 DUP1 DUP5 ADD SLOAD SWAP1 DUP4 ADD SSTORE PUSH1 0x4 DUP1 DUP5 ADD SLOAD SWAP1 DUP4 ADD SSTORE PUSH1 0x5 DUP1 DUP5 ADD SLOAD SWAP1 DUP4 ADD DUP1 SLOAD PUSH1 0xFF SWAP1 SWAP3 AND SWAP3 SWAP1 SWAP2 PUSH1 0xFF NOT AND SWAP1 DUP4 DUP1 ISZERO PUSH2 0x2F24 JUMPI PUSH2 0x2F24 PUSH2 0x4309 JUMP JUMPDEST MUL OR SWAP1 SSTORE POP PUSH1 0x5 DUP3 DUP2 ADD SLOAD SWAP1 DUP3 ADD DUP1 SLOAD PUSH1 0xFF PUSH2 0x100 SWAP4 DUP5 SWAP1 DIV AND SWAP3 PUSH2 0xFF00 NOT SWAP1 SWAP2 AND SWAP1 DUP4 PUSH1 0x2 DUP2 GT ISZERO PUSH2 0x2F59 JUMPI PUSH2 0x2F59 PUSH2 0x4309 JUMP JUMPDEST MUL OR SWAP1 SSTORE POP PUSH1 0x5 SWAP2 DUP3 ADD SLOAD SWAP2 ADD DUP1 SLOAD PUSH3 0xFF0000 NOT AND PUSH3 0x10000 SWAP3 DUP4 SWAP1 DIV PUSH1 0xFF AND ISZERO ISZERO SWAP1 SWAP3 MUL SWAP2 SWAP1 SWAP2 OR SWAP1 SSTORE PUSH2 0x2F8F DUP2 PUSH1 0x1 PUSH2 0x45A0 JUMP JUMPDEST SWAP5 POP JUMPDEST DUP1 PUSH2 0x2F9C DUP2 PUSH2 0x47BA JUMP JUMPDEST SWAP2 POP POP PUSH2 0x2E17 JUMP JUMPDEST POP DUP4 JUMPDEST DUP6 SLOAD PUSH2 0x2FB5 SWAP1 PUSH1 0x1 SWAP1 PUSH2 0x46B4 JUMP JUMPDEST DUP2 LT DUP1 ISZERO PUSH2 0x2FF1 JUMPI POP DUP6 PUSH2 0x2FCA DUP3 PUSH1 0x1 PUSH2 0x45A0 JUMP JUMPDEST DUP2 SLOAD DUP2 LT PUSH2 0x2FDA JUMPI PUSH2 0x2FDA PUSH2 0x4630 JUMP JUMPDEST SWAP1 PUSH0 MSTORE PUSH1 0x20 PUSH0 KECCAK256 SWAP1 PUSH1 0x6 MUL ADD PUSH1 0x2 ADD SLOAD DUP4 PUSH1 0x40 ADD MLOAD EQ JUMPDEST ISZERO PUSH2 0x3134 JUMPI DUP2 PUSH2 0x3122 JUMPI DUP6 PUSH2 0x3007 DUP3 PUSH1 0x1 PUSH2 0x45A0 JUMP JUMPDEST DUP2 SLOAD DUP2 LT PUSH2 0x3017 JUMPI PUSH2 0x3017 PUSH2 0x4630 JUMP JUMPDEST SWAP1 PUSH0 MSTORE PUSH1 0x20 PUSH0 KECCAK256 SWAP1 PUSH1 0x6 MUL ADD DUP7 DUP3 DUP2 SLOAD DUP2 LT PUSH2 0x3035 JUMPI PUSH2 0x3035 PUSH2 0x4630 JUMP JUMPDEST PUSH0 SWAP2 DUP3 MSTORE PUSH1 0x20 SWAP1 SWAP2 KECCAK256 DUP3 SLOAD PUSH1 0x6 SWAP1 SWAP3 MUL ADD SWAP1 DUP2 SSTORE PUSH1 0x1 DUP1 DUP4 ADD SLOAD DUP2 DUP4 ADD DUP1 SLOAD PUSH1 0x1 PUSH1 0x1 PUSH1 0xA0 SHL SUB NOT AND PUSH1 0x1 PUSH1 0x1 PUSH1 0xA0 SHL SUB SWAP1 SWAP3 AND SWAP2 SWAP1 SWAP2 OR SWAP1 SSTORE PUSH1 0x2 DUP1 DUP5 ADD SLOAD SWAP1 DUP4 ADD SSTORE PUSH1 0x3 DUP1 DUP5 ADD SLOAD SWAP1 DUP4 ADD SSTORE PUSH1 0x4 DUP1 DUP5 ADD SLOAD SWAP1 DUP4 ADD SSTORE PUSH1 0x5 DUP1 DUP5 ADD SLOAD SWAP1 DUP4 ADD DUP1 SLOAD PUSH1 0xFF SWAP1 SWAP3 AND SWAP3 SWAP1 SWAP2 PUSH1 0xFF NOT AND SWAP1 DUP4 DUP1 ISZERO PUSH2 0x30B4 JUMPI PUSH2 0x30B4 PUSH2 0x4309 JUMP JUMPDEST MUL OR SWAP1 SSTORE POP PUSH1 0x5 DUP3 DUP2 ADD SLOAD SWAP1 DUP3 ADD DUP1 SLOAD PUSH1 0xFF PUSH2 0x100 SWAP4 DUP5 SWAP1 DIV AND SWAP3 PUSH2 0xFF00 NOT SWAP1 SWAP2 AND SWAP1 DUP4 PUSH1 0x2 DUP2 GT ISZERO PUSH2 0x30E9 JUMPI PUSH2 0x30E9 PUSH2 0x4309 JUMP JUMPDEST MUL OR SWAP1 SSTORE POP PUSH1 0x5 SWAP2 DUP3 ADD SLOAD SWAP2 ADD DUP1 SLOAD PUSH3 0xFF0000 NOT AND PUSH3 0x10000 SWAP3 DUP4 SWAP1 DIV PUSH1 0xFF AND ISZERO ISZERO SWAP1 SWAP3 MUL SWAP2 SWAP1 SWAP2 OR SWAP1 SSTORE PUSH2 0x311F DUP2 PUSH1 0x1 PUSH2 0x45A0 JUMP JUMPDEST SWAP5 POP JUMPDEST DUP1 PUSH2 0x312C DUP2 PUSH2 0x47BA JUMP JUMPDEST SWAP2 POP POP PUSH2 0x2FA7 JUMP JUMPDEST POP JUMPDEST DUP1 PUSH2 0x1AB6 JUMPI DUP2 DUP6 DUP6 DUP2 SLOAD DUP2 LT PUSH2 0x314E JUMPI PUSH2 0x314E PUSH2 0x4630 JUMP JUMPDEST PUSH0 SWAP2 DUP3 MSTORE PUSH1 0x20 SWAP2 DUP3 SWAP1 KECCAK256 DUP4 MLOAD PUSH1 0x6 SWAP3 SWAP1 SWAP3 MUL ADD SWAP1 DUP2 SSTORE SWAP1 DUP3 ADD MLOAD PUSH1 0x1 DUP1 DUP4 ADD DUP1 SLOAD PUSH1 0x1 PUSH1 0x1 PUSH1 0xA0 SHL SUB NOT AND PUSH1 0x1 PUSH1 0x1 PUSH1 0xA0 SHL SUB SWAP1 SWAP4 AND SWAP3 SWAP1 SWAP3 OR SWAP1 SWAP2 SSTORE PUSH1 0x40 DUP4 ADD MLOAD PUSH1 0x2 DUP4 ADD SSTORE PUSH1 0x60 DUP4 ADD MLOAD PUSH1 0x3 DUP4 ADD SSTORE PUSH1 0x80 DUP4 ADD MLOAD PUSH1 0x4 DUP4 ADD SSTORE PUSH1 0xA0 DUP4 ADD MLOAD PUSH1 0x5 DUP4 ADD DUP1 SLOAD SWAP2 SWAP3 SWAP1 SWAP2 PUSH1 0xFF NOT AND SWAP1 DUP4 DUP1 ISZERO PUSH2 0x31CC JUMPI PUSH2 0x31CC PUSH2 0x4309 JUMP JUMPDEST MUL OR SWAP1 SSTORE POP PUSH1 0xC0 DUP3 ADD MLOAD PUSH1 0x5 DUP3 ADD DUP1 SLOAD PUSH2 0xFF00 NOT AND PUSH2 0x100 DUP4 PUSH1 0x2 DUP2 GT ISZERO PUSH2 0x31F6 JUMPI PUSH2 0x31F6 PUSH2 0x4309 JUMP JUMPDEST MUL OR SWAP1 SSTORE POP PUSH1 0xE0 SWAP2 SWAP1 SWAP2 ADD MLOAD PUSH1 0x5 SWAP1 SWAP2 ADD DUP1 SLOAD SWAP2 ISZERO ISZERO PUSH3 0x10000 MUL PUSH3 0xFF0000 NOT SWAP1 SWAP3 AND SWAP2 SWAP1 SWAP2 OR SWAP1 SSTORE POP POP POP POP POP JUMP JUMPDEST PUSH2 0x322E PUSH2 0x4153 JUMP JUMPDEST PUSH0 DUP1 SLOAD PUSH1 0xFF NOT AND SWAP1 SSTORE PUSH32 0x5DB9EE0A495BF2E6FF9C91A7834C1BA4FDD244A5E8AA4E537BD38AEAE4B073AA CALLER JUMPDEST PUSH1 0x40 MLOAD PUSH2 0x3267 SWAP2 SWAP1 PUSH2 0x42F5 JUMP JUMPDEST PUSH1 0x40 MLOAD DUP1 SWAP2 SUB SWAP1 LOG1 JUMP JUMPDEST DUP2 SLOAD PUSH0 JUMPDEST DUP2 DUP2 LT DUP1 ISZERO PUSH2 0x32A9 JUMPI POP DUP3 PUSH1 0x40 ADD MLOAD DUP5 DUP3 DUP2 SLOAD DUP2 LT PUSH2 0x3296 JUMPI PUSH2 0x3296 PUSH2 0x4630 JUMP JUMPDEST SWAP1 PUSH0 MSTORE PUSH1 0x20 PUSH0 KECCAK256 SWAP1 PUSH1 0x6 MUL ADD PUSH1 0x2 ADD SLOAD LT ISZERO JUMPDEST ISZERO PUSH2 0x32C0 JUMPI DUP1 PUSH2 0x32B8 DUP2 PUSH2 0x47BA JUMP JUMPDEST SWAP2 POP POP PUSH2 0x3275 JUMP JUMPDEST PUSH1 0x14 DUP3 LT PUSH2 0x3452 JUMPI PUSH0 DUP5 PUSH2 0x32D5 PUSH1 0x1 DUP6 PUSH2 0x46B4 JUMP JUMPDEST DUP2 SLOAD DUP2 LT PUSH2 0x32E5 JUMPI PUSH2 0x32E5 PUSH2 0x4630 JUMP JUMPDEST PUSH0 SWAP2 DUP3 MSTORE PUSH1 0x20 SWAP2 DUP3 SWAP1 KECCAK256 PUSH1 0x40 DUP1 MLOAD PUSH2 0x100 DUP2 ADD DUP3 MSTORE PUSH1 0x6 SWAP1 SWAP4 MUL SWAP1 SWAP2 ADD DUP1 SLOAD DUP4 MSTORE PUSH1 0x1 DUP2 ADD SLOAD PUSH1 0x1 PUSH1 0x1 PUSH1 0xA0 SHL SUB AND SWAP4 DUP4 ADD SWAP4 SWAP1 SWAP4 MSTORE PUSH1 0x2 DUP4 ADD SLOAD SWAP1 DUP3 ADD MSTORE PUSH1 0x3 DUP3 ADD SLOAD PUSH1 0x60 DUP3 ADD MSTORE PUSH1 0x4 DUP3 ADD SLOAD PUSH1 0x80 DUP3 ADD MSTORE PUSH1 0x5 DUP3 ADD SLOAD SWAP1 SWAP2 SWAP1 PUSH1 0xA0 DUP4 ADD SWAP1 PUSH1 0xFF AND DUP1 ISZERO PUSH2 0x3356 JUMPI PUSH2 0x3356 PUSH2 0x4309 JUMP JUMPDEST DUP1 ISZERO PUSH2 0x3364 JUMPI PUSH2 0x3364 PUSH2 0x4309 JUMP JUMPDEST DUP2 MSTORE PUSH1 0x20 ADD PUSH1 0x5 DUP3 ADD PUSH1 0x1 SWAP1 SLOAD SWAP1 PUSH2 0x100 EXP SWAP1 DIV PUSH1 0xFF AND PUSH1 0x2 DUP2 GT ISZERO PUSH2 0x338C JUMPI PUSH2 0x338C PUSH2 0x4309 JUMP JUMPDEST PUSH1 0x2 DUP2 GT ISZERO PUSH2 0x339D JUMPI PUSH2 0x339D PUSH2 0x4309 JUMP JUMPDEST DUP2 MSTORE PUSH1 0x5 SWAP2 SWAP1 SWAP2 ADD SLOAD PUSH3 0x10000 SWAP1 DIV PUSH1 0xFF AND ISZERO ISZERO PUSH1 0x20 SWAP1 SWAP2 ADD MSTORE PUSH1 0x40 DUP2 DUP2 ADD MLOAD SWAP1 DUP7 ADD MLOAD SWAP2 SWAP3 POP LT ISZERO PUSH2 0x33ED JUMPI PUSH2 0x33D8 DUP6 DUP6 PUSH1 0xC0 ADD MLOAD PUSH2 0x3BC5 JUMP JUMPDEST DUP5 SLOAD SWAP3 POP DUP3 DUP3 GT ISZERO PUSH2 0x33E8 JUMPI DUP3 SWAP2 POP JUMPDEST PUSH2 0x3450 JUMP JUMPDEST PUSH1 0x40 MLOAD PUSH3 0x461BCD PUSH1 0xE5 SHL DUP2 MSTORE PUSH1 0x20 PUSH1 0x4 DUP3 ADD MSTORE PUSH1 0x32 PUSH1 0x24 DUP3 ADD MSTORE PUSH32 0x4E6577206F72646572207072696365206973206E6F74206869676820656E6F75 PUSH1 0x44 DUP3 ADD MSTORE PUSH18 0x33B4103A379031329034B739B2B93A32B217 PUSH1 0x71 SHL PUSH1 0x64 DUP3 ADD MSTORE PUSH1 0x84 ADD PUSH2 0x3ED JUMP JUMPDEST POP JUMPDEST DUP4 SLOAD PUSH1 0x1 DUP1 DUP3 ADD DUP7 SSTORE PUSH0 DUP7 DUP2 MSTORE PUSH1 0x20 SWAP1 DUP2 SWAP1 KECCAK256 DUP7 MLOAD PUSH1 0x6 SWAP1 SWAP5 MUL ADD SWAP3 DUP4 SSTORE DUP6 ADD MLOAD DUP3 DUP3 ADD DUP1 SLOAD PUSH1 0x1 PUSH1 0x1 PUSH1 0xA0 SHL SUB NOT AND PUSH1 0x1 PUSH1 0x1 PUSH1 0xA0 SHL SUB SWAP1 SWAP3 AND SWAP2 SWAP1 SWAP2 OR SWAP1 SSTORE PUSH1 0x40 DUP6 ADD MLOAD PUSH1 0x2 DUP4 ADD SSTORE PUSH1 0x60 DUP6 ADD MLOAD PUSH1 0x3 DUP4 ADD SSTORE PUSH1 0x80 DUP6 ADD MLOAD PUSH1 0x4 DUP4 ADD SSTORE PUSH1 0xA0 DUP6 ADD MLOAD PUSH1 0x5 DUP4 ADD DUP1 SLOAD DUP8 SWAP5 SWAP4 PUSH1 0xFF NOT SWAP1 SWAP2 AND SWAP1 DUP4 DUP1 ISZERO PUSH2 0x34D5 JUMPI PUSH2 0x34D5 PUSH2 0x4309 JUMP JUMPDEST MUL OR SWAP1 SSTORE POP PUSH1 0xC0 DUP3 ADD MLOAD PUSH1 0x5 DUP3 ADD DUP1 SLOAD PUSH2 0xFF00 NOT AND PUSH2 0x100 DUP4 PUSH1 0x2 DUP2 GT ISZERO PUSH2 0x34FF JUMPI PUSH2 0x34FF PUSH2 0x4309 JUMP JUMPDEST MUL OR SWAP1 SSTORE POP PUSH1 0xE0 SWAP2 SWAP1 SWAP2 ADD MLOAD PUSH1 0x5 SWAP1 SWAP2 ADD DUP1 SLOAD SWAP2 ISZERO ISZERO PUSH3 0x10000 MUL PUSH3 0xFF0000 NOT SWAP1 SWAP3 AND SWAP2 SWAP1 SWAP2 OR SWAP1 SSTORE DUP4 SLOAD PUSH0 SWAP1 PUSH2 0x3538 SWAP1 PUSH1 0x1 SWAP1 PUSH2 0x46B4 JUMP JUMPDEST SWAP1 POP JUMPDEST DUP2 DUP2 GT ISZERO PUSH2 0x25D3 JUMPI DUP5 PUSH2 0x354F PUSH1 0x1 DUP4 PUSH2 0x46B4 JUMP JUMPDEST DUP2 SLOAD DUP2 LT PUSH2 0x355F JUMPI PUSH2 0x355F PUSH2 0x4630 JUMP JUMPDEST SWAP1 PUSH0 MSTORE PUSH1 0x20 PUSH0 KECCAK256 SWAP1 PUSH1 0x6 MUL ADD DUP6 DUP3 DUP2 SLOAD DUP2 LT PUSH2 0x357D JUMPI PUSH2 0x357D PUSH2 0x4630 JUMP JUMPDEST PUSH0 SWAP2 DUP3 MSTORE PUSH1 0x20 SWAP1 SWAP2 KECCAK256 DUP3 SLOAD PUSH1 0x6 SWAP1 SWAP3 MUL ADD SWAP1 DUP2 SSTORE PUSH1 0x1 DUP1 DUP4 ADD SLOAD DUP2 DUP4 ADD DUP1 SLOAD PUSH1 0x1 PUSH1 0x1 PUSH1 0xA0 SHL SUB NOT AND PUSH1 0x1 PUSH1 0x1 PUSH1 0xA0 SHL SUB SWAP1 SWAP3 AND SWAP2 SWAP1 SWAP2 OR SWAP1 SSTORE PUSH1 0x2 DUP1 DUP5 ADD SLOAD SWAP1 DUP4 ADD SSTORE PUSH1 0x3 DUP1 DUP5 ADD SLOAD SWAP1 DUP4 ADD SSTORE PUSH1 0x4 DUP1 DUP5 ADD SLOAD SWAP1 DUP4 ADD SSTORE PUSH1 0x5 DUP1 DUP5 ADD SLOAD SWAP1 DUP4 ADD DUP1 SLOAD PUSH1 0xFF SWAP1 SWAP3 AND SWAP3 SWAP1 SWAP2 PUSH1 0xFF NOT AND SWAP1 DUP4 DUP1 ISZERO PUSH2 0x35FC JUMPI PUSH2 0x35FC PUSH2 0x4309 JUMP JUMPDEST MUL OR SWAP1 SSTORE POP PUSH1 0x5 DUP3 DUP2 ADD SLOAD SWAP1 DUP3 ADD DUP1 SLOAD PUSH1 0xFF PUSH2 0x100 SWAP4 DUP5 SWAP1 DIV AND SWAP3 PUSH2 0xFF00 NOT SWAP1 SWAP2 AND SWAP1 DUP4 PUSH1 0x2 DUP2 GT ISZERO PUSH2 0x3631 JUMPI PUSH2 0x3631 PUSH2 0x4309 JUMP JUMPDEST MUL OR SWAP1 SSTORE POP PUSH1 0x5 SWAP2 DUP3 ADD SLOAD SWAP2 ADD DUP1 SLOAD PUSH3 0xFF0000 NOT AND PUSH3 0x10000 SWAP3 DUP4 SWAP1 DIV PUSH1 0xFF AND ISZERO ISZERO SWAP1 SWAP3 MUL SWAP2 SWAP1 SWAP2 OR SWAP1 SSTORE DUP1 PUSH2 0x3666 DUP2 PUSH2 0x47D2 JUMP JUMPDEST SWAP2 POP POP PUSH2 0x353B JUMP JUMPDEST PUSH2 0x3676 PUSH2 0x1ABD JUMP JUMPDEST PUSH0 DUP1 SLOAD PUSH1 0xFF NOT AND PUSH1 0x1 OR SWAP1 SSTORE PUSH32 0x62E78CEA01BEE320CD4E420270B5EA74000D11B0C9F74754EBDBFC544B05A258 PUSH2 0x325A CALLER SWAP1 JUMP JUMPDEST PUSH0 PUSH2 0x36B8 DUP3 DUP5 LT DUP5 DUP5 PUSH2 0x419B JUMP JUMPDEST SWAP1 POP JUMPDEST SWAP3 SWAP2 POP POP JUMP JUMPDEST PUSH0 PUSH0 PUSH0 DUP4 ISZERO PUSH2 0x36ED JUMPI POP POP POP PUSH1 0x20 DUP5 ADD MLOAD PUSH1 0x1 DUP5 ADD SLOAD PUSH1 0x40 DUP7 ADD MLOAD PUSH1 0x1 PUSH1 0x1 PUSH1 0xA0 SHL SUB SWAP1 SWAP2 AND SWAP1 PUSH2 0x370C JUMP JUMPDEST POP POP POP PUSH1 0x1 DUP4 ADD SLOAD PUSH1 0x20 DUP6 ADD MLOAD PUSH1 0x2 DUP6 ADD SLOAD PUSH1 0x1 PUSH1 0x1 PUSH1 0xA0 SHL SUB SWAP1 SWAP3 AND SWAP2 JUMPDEST PUSH0 PUSH2 0x3E8 PUSH2 0x371A DUP4 DUP9 PUSH2 0x46F4 JUMP JUMPDEST PUSH2 0x3724 SWAP2 SWAP1 PUSH2 0x470B JUMP JUMPDEST PUSH1 0x5 SLOAD PUSH1 0xC0 DUP11 ADD MLOAD PUSH1 0x40 MLOAD PUSH4 0x42AF7A0D PUSH1 0xE1 SHL DUP2 MSTORE SWAP3 SWAP4 POP PUSH1 0x1 PUSH1 0x1 PUSH1 0xA0 SHL SUB SWAP1 SWAP2 AND SWAP2 PUSH4 0x855EF41A SWAP2 PUSH2 0x3761 SWAP2 DUP9 SWAP2 SWAP1 DUP7 SWAP1 PUSH0 SWAP1 PUSH1 0x4 ADD PUSH2 0x472A JUMP JUMPDEST PUSH0 PUSH1 0x40 MLOAD DUP1 DUP4 SUB DUP2 PUSH0 DUP8 DUP1 EXTCODESIZE ISZERO DUP1 ISZERO PUSH2 0x3778 JUMPI PUSH0 PUSH0 REVERT JUMPDEST POP GAS CALL ISZERO DUP1 ISZERO PUSH2 0x378A JUMPI RETURNDATASIZE PUSH0 PUSH0 RETURNDATACOPY RETURNDATASIZE PUSH0 REVERT JUMPDEST POP POP PUSH1 0x5 SLOAD PUSH1 0x40 MLOAD PUSH4 0x10DF52B9 PUSH1 0xE0 SHL DUP2 MSTORE DUP10 SWAP4 POP PUSH1 0x1 PUSH1 0x1 PUSH1 0xA0 SHL SUB SWAP1 SWAP2 AND SWAP2 POP PUSH4 0x10DF52B9 SWAP1 PUSH2 0x37C2 SWAP1 DUP8 SWAP1 PUSH0 SWAP1 PUSH1 0x4 ADD PUSH2 0x4558 JUMP JUMPDEST PUSH1 0x20 PUSH1 0x40 MLOAD DUP1 DUP4 SUB DUP2 DUP7 GAS STATICCALL ISZERO DUP1 ISZERO PUSH2 0x37DD JUMPI RETURNDATASIZE PUSH0 PUSH0 RETURNDATACOPY RETURNDATASIZE PUSH0 REVERT JUMPDEST POP POP POP POP PUSH1 0x40 MLOAD RETURNDATASIZE PUSH1 0x1F NOT PUSH1 0x1F DUP3 ADD AND DUP3 ADD DUP1 PUSH1 0x40 MSTORE POP DUP2 ADD SWAP1 PUSH2 0x3801 SWAP2 SWAP1 PUSH2 0x4575 JUMP JUMPDEST LT ISZERO PUSH2 0x3867 JUMPI PUSH1 0x40 MLOAD PUSH3 0x461BCD PUSH1 0xE5 SHL DUP2 MSTORE PUSH1 0x20 PUSH1 0x4 DUP3 ADD MSTORE PUSH1 0x2F PUSH1 0x24 DUP3 ADD MSTORE PUSH32 0x53656C6C657220646F6573206E6F74206861766520656E6F756768204E69636B PUSH1 0x44 DUP3 ADD MSTORE PUSH15 0x656C69756D20696E20657363726F77 PUSH1 0x88 SHL PUSH1 0x64 DUP3 ADD MSTORE PUSH1 0x84 ADD PUSH2 0x3ED JUMP JUMPDEST PUSH1 0x7 SLOAD PUSH1 0x5 SLOAD PUSH1 0x40 MLOAD PUSH4 0xDA3E3397 PUSH1 0xE0 SHL DUP2 MSTORE PUSH1 0x1 PUSH1 0x1 PUSH1 0xA0 SHL SUB SWAP3 DUP4 AND SWAP3 PUSH4 0xDA3E3397 SWAP3 PUSH2 0x38A0 SWAP3 DUP6 SWAP3 SWAP1 SWAP2 AND SWAP1 DUP12 SWAP1 PUSH1 0x4 ADD PUSH2 0x477B JUMP JUMPDEST PUSH1 0x20 PUSH1 0x40 MLOAD DUP1 DUP4 SUB DUP2 PUSH0 DUP8 GAS CALL ISZERO DUP1 ISZERO PUSH2 0x38BC JUMPI RETURNDATASIZE PUSH0 PUSH0 RETURNDATACOPY RETURNDATASIZE PUSH0 REVERT JUMPDEST POP POP POP POP PUSH1 0x40 MLOAD RETURNDATASIZE PUSH1 0x1F NOT PUSH1 0x1F DUP3 ADD AND DUP3 ADD DUP1 PUSH1 0x40 MSTORE POP DUP2 ADD SWAP1 PUSH2 0x38E0 SWAP2 SWAP1 PUSH2 0x479F JUMP JUMPDEST POP PUSH1 0x5 SLOAD PUSH1 0x40 MLOAD PUSH4 0x212AE75 PUSH1 0xE3 SHL DUP2 MSTORE PUSH1 0x1 PUSH1 0x1 PUSH1 0xA0 SHL SUB SWAP1 SWAP2 AND SWAP1 PUSH4 0x109573A8 SWAP1 PUSH2 0x3915 SWAP1 DUP7 SWAP1 DUP9 SWAP1 DUP12 SWAP1 PUSH1 0x4 ADD PUSH2 0x477B JUMP JUMPDEST PUSH0 PUSH1 0x40 MLOAD DUP1 DUP4 SUB DUP2 PUSH0 DUP8 DUP1 EXTCODESIZE ISZERO DUP1 ISZERO PUSH2 0x392C JUMPI PUSH0 PUSH0 REVERT JUMPDEST POP GAS CALL ISZERO DUP1 ISZERO PUSH2 0x393E JUMPI RETURNDATASIZE PUSH0 PUSH0 RETURNDATACOPY RETURNDATASIZE PUSH0 REVERT JUMPDEST POP POP PUSH1 0x5 SLOAD PUSH1 0x40 MLOAD PUSH4 0x20CDB427 PUSH1 0xE0 SHL DUP2 MSTORE PUSH1 0x4 DUP2 ADD DUP6 SWAP1 MSTORE PUSH1 0x1 PUSH1 0x1 PUSH1 0xA0 SHL SUB SWAP1 SWAP2 AND SWAP3 POP PUSH4 0x20CDB427 SWAP2 POP PUSH1 0x24 ADD PUSH0 PUSH1 0x40 MLOAD DUP1 DUP4 SUB DUP2 PUSH0 DUP8 DUP1 EXTCODESIZE ISZERO DUP1 ISZERO PUSH2 0x3985 JUMPI PUSH0 PUSH0 REVERT JUMPDEST POP GAS CALL ISZERO DUP1 ISZERO PUSH2 0x3997 JUMPI RETURNDATASIZE PUSH0 PUSH0 RETURNDATACOPY RETURNDATASIZE PUSH0 REVERT JUMPDEST POP POP PUSH1 0x6 SLOAD PUSH1 0x5 SLOAD PUSH1 0x40 MLOAD PUSH4 0x23B872DD PUSH1 0xE0 SHL DUP2 MSTORE PUSH1 0x1 PUSH1 0x1 PUSH1 0xA0 SHL SUB SWAP3 DUP4 AND SWAP5 POP PUSH4 0x23B872DD SWAP4 POP PUSH2 0x39D4 SWAP3 SWAP1 SWAP2 AND SWAP1 DUP8 SWAP1 DUP7 SWAP1 PUSH1 0x4 ADD PUSH2 0x477B JUMP JUMPDEST PUSH0 PUSH1 0x40 MLOAD DUP1 DUP4 SUB DUP2 PUSH0 DUP8 DUP1 EXTCODESIZE ISZERO DUP1 ISZERO PUSH2 0x39EB JUMPI PUSH0 PUSH0 REVERT JUMPDEST POP GAS CALL ISZERO DUP1 ISZERO PUSH2 0x39FD JUMPI RETURNDATASIZE PUSH0 PUSH0 RETURNDATACOPY RETURNDATASIZE PUSH0 REVERT JUMPDEST POP POP POP POP POP POP POP POP POP POP POP POP JUMP JUMPDEST DUP2 SLOAD DUP2 LT PUSH2 0x3A2B JUMPI PUSH1 0x40 MLOAD PUSH3 0x461BCD PUSH1 0xE5 SHL DUP2 MSTORE PUSH1 0x4 ADD PUSH2 0x3ED SWAP1 PUSH2 0x4687 JUMP JUMPDEST DUP1 JUMPDEST DUP3 SLOAD PUSH2 0x3A3B SWAP1 PUSH1 0x1 SWAP1 PUSH2 0x46B4 JUMP JUMPDEST DUP2 LT ISZERO PUSH2 0x3B63 JUMPI DUP3 PUSH2 0x3A4E DUP3 PUSH1 0x1 PUSH2 0x45A0 JUMP JUMPDEST DUP2 SLOAD DUP2 LT PUSH2 0x3A5E JUMPI PUSH2 0x3A5E PUSH2 0x4630 JUMP JUMPDEST SWAP1 PUSH0 MSTORE PUSH1 0x20 PUSH0 KECCAK256 SWAP1 PUSH1 0x6 MUL ADD DUP4 DUP3 DUP2 SLOAD DUP2 LT PUSH2 0x3A7C JUMPI PUSH2 0x3A7C PUSH2 0x4630 JUMP JUMPDEST PUSH0 SWAP2 DUP3 MSTORE PUSH1 0x20 SWAP1 SWAP2 KECCAK256 DUP3 SLOAD PUSH1 0x6 SWAP1 SWAP3 MUL ADD SWAP1 DUP2 SSTORE PUSH1 0x1 DUP1 DUP4 ADD SLOAD DUP2 DUP4 ADD DUP1 SLOAD PUSH1 0x1 PUSH1 0x1 PUSH1 0xA0 SHL SUB NOT AND PUSH1 0x1 PUSH1 0x1 PUSH1 0xA0 SHL SUB SWAP1 SWAP3 AND SWAP2 SWAP1 SWAP2 OR SWAP1 SSTORE PUSH1 0x2 DUP1 DUP5 ADD SLOAD SWAP1 DUP4 ADD SSTORE PUSH1 0x3 DUP1 DUP5 ADD SLOAD SWAP1 DUP4 ADD SSTORE PUSH1 0x4 DUP1 DUP5 ADD SLOAD SWAP1 DUP4 ADD SSTORE PUSH1 0x5 DUP1 DUP5 ADD SLOAD SWAP1 DUP4 ADD DUP1 SLOAD PUSH1 0xFF SWAP1 SWAP3 AND SWAP3 SWAP1 SWAP2 PUSH1 0xFF NOT AND SWAP1 DUP4 DUP1 ISZERO PUSH2 0x3AFB JUMPI PUSH2 0x3AFB PUSH2 0x4309 JUMP JUMPDEST MUL OR SWAP1 SSTORE POP PUSH1 0x5 DUP3 DUP2 ADD SLOAD SWAP1 DUP3 ADD DUP1 SLOAD PUSH1 0xFF PUSH2 0x100 SWAP4 DUP5 SWAP1 DIV AND SWAP3 PUSH2 0xFF00 NOT SWAP1 SWAP2 AND SWAP1 DUP4 PUSH1 0x2 DUP2 GT ISZERO PUSH2 0x3B30 JUMPI PUSH2 0x3B30 PUSH2 0x4309 JUMP JUMPDEST MUL OR SWAP1 SSTORE POP PUSH1 0x5 SWAP2 DUP3 ADD SLOAD SWAP2 ADD DUP1 SLOAD PUSH3 0xFF0000 NOT AND PUSH3 0x10000 SWAP3 DUP4 SWAP1 DIV PUSH1 0xFF AND ISZERO ISZERO SWAP1 SWAP3 MUL SWAP2 SWAP1 SWAP2 OR SWAP1 SSTORE PUSH1 0x1 ADD PUSH2 0x3A2D JUMP JUMPDEST POP DUP2 DUP1 SLOAD DUP1 PUSH2 0x3B74 JUMPI PUSH2 0x3B74 PUSH2 0x46C7 JUMP JUMPDEST PUSH0 DUP3 DUP2 MSTORE PUSH1 0x20 DUP2 KECCAK256 PUSH1 0x6 PUSH0 NOT SWAP1 SWAP4 ADD SWAP3 DUP4 MUL ADD DUP2 DUP2 SSTORE PUSH1 0x1 DUP2 ADD DUP1 SLOAD PUSH1 0x1 PUSH1 0x1 PUSH1 0xA0 SHL SUB NOT AND SWAP1 SSTORE PUSH1 0x2 DUP2 ADD DUP3 SWAP1 SSTORE PUSH1 0x3 DUP2 ADD DUP3 SWAP1 SSTORE PUSH1 0x4 DUP2 ADD SWAP2 SWAP1 SWAP2 SSTORE PUSH1 0x5 ADD DUP1 SLOAD PUSH3 0xFFFFFF NOT AND SWAP1 SSTORE SWAP1 SSTORE POP POP JUMP JUMPDEST DUP2 SLOAD PUSH0 SWAP1 PUSH2 0x3BD5 SWAP1 PUSH1 0x1 SWAP1 PUSH2 0x46B4 JUMP JUMPDEST SWAP1 POP PUSH0 DUP4 DUP3 DUP2 SLOAD DUP2 LT PUSH2 0x3BEA JUMPI PUSH2 0x3BEA PUSH2 0x4630 JUMP JUMPDEST PUSH0 SWAP2 DUP3 MSTORE PUSH1 0x20 SWAP2 DUP3 SWAP1 KECCAK256 PUSH1 0x40 DUP1 MLOAD PUSH2 0x100 DUP2 ADD DUP3 MSTORE PUSH1 0x6 SWAP1 SWAP4 MUL SWAP1 SWAP2 ADD DUP1 SLOAD DUP4 MSTORE PUSH1 0x1 DUP2 ADD SLOAD PUSH1 0x1 PUSH1 0x1 PUSH1 0xA0 SHL SUB AND SWAP4 DUP4 ADD SWAP4 SWAP1 SWAP4 MSTORE PUSH1 0x2 DUP4 ADD SLOAD SWAP1 DUP3 ADD MSTORE PUSH1 0x3 DUP3 ADD SLOAD PUSH1 0x60 DUP3 ADD MSTORE PUSH1 0x4 DUP3 ADD SLOAD PUSH1 0x80 DUP3 ADD MSTORE PUSH1 0x5 DUP3 ADD SLOAD SWAP1 SWAP2 SWAP1 PUSH1 0xA0 DUP4 ADD SWAP1 PUSH1 0xFF AND DUP1 ISZERO PUSH2 0x3C5B JUMPI PUSH2 0x3C5B PUSH2 0x4309 JUMP JUMPDEST DUP1 ISZERO PUSH2 0x3C69 JUMPI PUSH2 0x3C69 PUSH2 0x4309 JUMP JUMPDEST DUP2 MSTORE PUSH1 0x20 ADD PUSH1 0x5 DUP3 ADD PUSH1 0x1 SWAP1 SLOAD SWAP1 PUSH2 0x100 EXP SWAP1 DIV PUSH1 0xFF AND PUSH1 0x2 DUP2 GT ISZERO PUSH2 0x3C91 JUMPI PUSH2 0x3C91 PUSH2 0x4309 JUMP JUMPDEST PUSH1 0x2 DUP2 GT ISZERO PUSH2 0x3CA2 JUMPI PUSH2 0x3CA2 PUSH2 0x4309 JUMP JUMPDEST DUP2 MSTORE PUSH1 0x5 SWAP2 SWAP1 SWAP2 ADD SLOAD PUSH3 0x10000 SWAP1 DIV PUSH1 0xFF AND ISZERO ISZERO PUSH1 0x20 SWAP1 SWAP2 ADD MSTORE DUP5 SLOAD SWAP1 SWAP2 POP DUP5 SWAP1 DUP1 PUSH2 0x3CD0 JUMPI PUSH2 0x3CD0 PUSH2 0x46C7 JUMP JUMPDEST PUSH0 DUP3 DUP2 MSTORE PUSH1 0x20 DUP2 KECCAK256 PUSH1 0x6 PUSH0 NOT SWAP1 SWAP4 ADD SWAP3 DUP4 MUL ADD DUP2 DUP2 SSTORE PUSH1 0x1 DUP2 ADD DUP1 SLOAD PUSH1 0x1 PUSH1 0x1 PUSH1 0xA0 SHL SUB NOT AND SWAP1 SSTORE PUSH1 0x2 DUP2 ADD DUP3 SWAP1 SSTORE PUSH1 0x3 DUP2 ADD DUP3 SWAP1 SSTORE PUSH1 0x4 DUP2 ADD DUP3 SWAP1 SSTORE PUSH1 0x5 ADD DUP1 SLOAD PUSH3 0xFFFFFF NOT AND SWAP1 SSTORE SWAP2 SSTORE PUSH1 0x60 DUP3 ADD MLOAD PUSH1 0x40 DUP4 ADD MLOAD SWAP1 SWAP2 SWAP1 PUSH2 0x3E8 SWAP1 PUSH2 0x3D38 SWAP1 DUP5 SWAP1 PUSH2 0x46F4 JUMP JUMPDEST PUSH2 0x3D42 SWAP2 SWAP1 PUSH2 0x470B JUMP JUMPDEST PUSH1 0x5 SLOAD PUSH1 0x40 MLOAD PUSH4 0x20CDB427 PUSH1 0xE0 SHL DUP2 MSTORE PUSH1 0x4 DUP2 ADD DUP4 SWAP1 MSTORE SWAP2 SWAP3 POP PUSH1 0x1 PUSH1 0x1 PUSH1 0xA0 SHL SUB AND SWAP1 PUSH4 0x20CDB427 SWAP1 PUSH1 0x24 ADD PUSH0 PUSH1 0x40 MLOAD DUP1 DUP4 SUB DUP2 PUSH0 DUP8 DUP1 EXTCODESIZE ISZERO DUP1 ISZERO PUSH2 0x3D86 JUMPI PUSH0 PUSH0 REVERT JUMPDEST POP GAS CALL ISZERO DUP1 ISZERO PUSH2 0x3D98 JUMPI RETURNDATASIZE PUSH0 PUSH0 RETURNDATACOPY RETURNDATASIZE PUSH0 REVERT JUMPDEST POP POP PUSH1 0x6 SLOAD PUSH1 0x5 SLOAD PUSH1 0x20 DUP8 ADD MLOAD PUSH1 0x40 MLOAD PUSH4 0x23B872DD PUSH1 0xE0 SHL DUP2 MSTORE PUSH1 0x1 PUSH1 0x1 PUSH1 0xA0 SHL SUB SWAP4 DUP5 AND SWAP6 POP PUSH4 0x23B872DD SWAP5 POP PUSH2 0x3DD8 SWAP4 SWAP1 SWAP3 AND SWAP2 DUP7 SWAP1 PUSH1 0x4 ADD PUSH2 0x477B JUMP JUMPDEST PUSH0 PUSH1 0x40 MLOAD DUP1 DUP4 SUB DUP2 PUSH0 DUP8 DUP1 EXTCODESIZE ISZERO DUP1 ISZERO PUSH2 0x3DEF JUMPI PUSH0 PUSH0 REVERT JUMPDEST POP GAS CALL ISZERO DUP1 ISZERO PUSH2 0x3E01 JUMPI RETURNDATASIZE PUSH0 PUSH0 RETURNDATACOPY RETURNDATASIZE PUSH0 REVERT JUMPDEST POP POP PUSH1 0x5 SLOAD PUSH1 0x20 DUP7 ADD MLOAD PUSH1 0x40 MLOAD PUSH4 0x42AF7A0D PUSH1 0xE1 SHL DUP2 MSTORE PUSH1 0x1 PUSH1 0x1 PUSH1 0xA0 SHL SUB SWAP1 SWAP3 AND SWAP4 POP PUSH4 0x855EF41A SWAP3 POP PUSH2 0x3E3E SWAP2 DUP10 SWAP1 DUP7 SWAP1 PUSH0 SWAP1 PUSH1 0x4 ADD PUSH2 0x472A JUMP JUMPDEST PUSH0 PUSH1 0x40 MLOAD DUP1 DUP4 SUB DUP2 PUSH0 DUP8 DUP1 EXTCODESIZE ISZERO DUP1 ISZERO PUSH2 0x3E55 JUMPI PUSH0 PUSH0 REVERT JUMPDEST POP GAS CALL ISZERO DUP1 ISZERO PUSH2 0x3E67 JUMPI RETURNDATASIZE PUSH0 PUSH0 RETURNDATACOPY RETURNDATASIZE PUSH0 REVERT JUMPDEST POP POP POP POP POP POP POP POP POP POP JUMP JUMPDEST DUP2 SLOAD PUSH0 SWAP1 PUSH2 0x3E83 SWAP1 PUSH1 0x1 SWAP1 PUSH2 0x46B4 JUMP JUMPDEST SWAP1 POP PUSH0 DUP4 DUP3 DUP2 SLOAD DUP2 LT PUSH2 0x3E98 JUMPI PUSH2 0x3E98 PUSH2 0x4630 JUMP JUMPDEST PUSH0 SWAP2 DUP3 MSTORE PUSH1 0x20 SWAP2 DUP3 SWAP1 KECCAK256 PUSH1 0x40 DUP1 MLOAD PUSH2 0x100 DUP2 ADD DUP3 MSTORE PUSH1 0x6 SWAP1 SWAP4 MUL SWAP1 SWAP2 ADD DUP1 SLOAD DUP4 MSTORE PUSH1 0x1 DUP2 ADD SLOAD PUSH1 0x1 PUSH1 0x1 PUSH1 0xA0 SHL SUB AND SWAP4 DUP4 ADD SWAP4 SWAP1 SWAP4 MSTORE PUSH1 0x2 DUP4 ADD SLOAD SWAP1 DUP3 ADD MSTORE PUSH1 0x3 DUP3 ADD SLOAD PUSH1 0x60 DUP3 ADD MSTORE PUSH1 0x4 DUP3 ADD SLOAD PUSH1 0x80 DUP3 ADD MSTORE PUSH1 0x5 DUP3 ADD SLOAD SWAP1 SWAP2 SWAP1 PUSH1 0xA0 DUP4 ADD SWAP1 PUSH1 0xFF AND DUP1 ISZERO PUSH2 0x3F09 JUMPI PUSH2 0x3F09 PUSH2 0x4309 JUMP JUMPDEST DUP1 ISZERO PUSH2 0x3F17 JUMPI PUSH2 0x3F17 PUSH2 0x4309 JUMP JUMPDEST DUP2 MSTORE PUSH1 0x20 ADD PUSH1 0x5 DUP3 ADD PUSH1 0x1 SWAP1 SLOAD SWAP1 PUSH2 0x100 EXP SWAP1 DIV PUSH1 0xFF AND PUSH1 0x2 DUP2 GT ISZERO PUSH2 0x3F3F JUMPI PUSH2 0x3F3F PUSH2 0x4309 JUMP JUMPDEST PUSH1 0x2 DUP2 GT ISZERO PUSH2 0x3F50 JUMPI PUSH2 0x3F50 PUSH2 0x4309 JUMP JUMPDEST DUP2 MSTORE PUSH1 0x5 SWAP2 SWAP1 SWAP2 ADD SLOAD PUSH3 0x10000 SWAP1 DIV PUSH1 0xFF AND ISZERO ISZERO PUSH1 0x20 SWAP2 DUP3 ADD MSTORE DUP2 ADD MLOAD DUP6 SLOAD SWAP2 SWAP3 POP SWAP1 DUP6 SWAP1 DUP1 PUSH2 0x3F82 JUMPI PUSH2 0x3F82 PUSH2 0x46C7 JUMP JUMPDEST PUSH0 DUP3 DUP2 MSTORE PUSH1 0x20 DUP2 KECCAK256 PUSH1 0x6 PUSH0 NOT SWAP1 SWAP4 ADD SWAP3 DUP4 MUL ADD DUP2 DUP2 SSTORE PUSH1 0x1 DUP2 ADD DUP1 SLOAD PUSH1 0x1 PUSH1 0x1 PUSH1 0xA0 SHL SUB NOT AND SWAP1 SSTORE PUSH1 0x2 DUP2 ADD DUP3 SWAP1 SSTORE PUSH1 0x3 DUP2 ADD DUP3 SWAP1 SSTORE PUSH1 0x4 DUP1 DUP3 ADD DUP4 SWAP1 SSTORE PUSH1 0x5 SWAP2 DUP3 ADD DUP1 SLOAD PUSH3 0xFFFFFF NOT AND SWAP1 SSTORE SWAP3 SWAP1 SWAP4 SSTORE PUSH1 0x60 DUP6 ADD MLOAD SWAP3 SLOAD PUSH1 0x40 MLOAD PUSH4 0x10DF52B9 PUSH1 0xE0 SHL DUP2 MSTORE SWAP2 SWAP3 PUSH1 0x1 PUSH1 0x1 PUSH1 0xA0 SHL SUB SWAP2 SWAP1 SWAP2 AND SWAP2 PUSH4 0x10DF52B9 SWAP2 PUSH2 0x400A SWAP2 DUP8 SWAP2 DUP12 SWAP2 ADD PUSH2 0x4558 JUMP JUMPDEST PUSH1 0x20 PUSH1 0x40 MLOAD DUP1 DUP4 SUB DUP2 DUP7 GAS STATICCALL ISZERO DUP1 ISZERO PUSH2 0x4025 JUMPI RETURNDATASIZE PUSH0 PUSH0 RETURNDATACOPY RETURNDATASIZE PUSH0 REVERT JUMPDEST POP POP POP POP PUSH1 0x40 MLOAD RETURNDATASIZE PUSH1 0x1F NOT PUSH1 0x1F DUP3 ADD AND DUP3 ADD DUP1 PUSH1 0x40 MSTORE POP DUP2 ADD SWAP1 PUSH2 0x4049 SWAP2 SWAP1 PUSH2 0x4575 JUMP JUMPDEST SWAP1 POP PUSH0 DUP3 DUP3 LT PUSH2 0x4059 JUMPI DUP3 PUSH2 0x405B JUMP JUMPDEST DUP2 JUMPDEST SWAP1 POP DUP1 DUP3 LT ISZERO PUSH2 0x40B7 JUMPI PUSH1 0x40 MLOAD PUSH3 0x461BCD PUSH1 0xE5 SHL DUP2 MSTORE PUSH1 0x20 PUSH1 0x4 DUP3 ADD MSTORE PUSH1 0x21 PUSH1 0x24 DUP3 ADD MSTORE PUSH32 0x496E73756666696369656E7420746F6B656E20657363726F772062616C616E63 PUSH1 0x44 DUP3 ADD MSTORE PUSH1 0x65 PUSH1 0xF8 SHL PUSH1 0x64 DUP3 ADD MSTORE PUSH1 0x84 ADD PUSH2 0x3ED JUMP JUMPDEST PUSH1 0x7 SLOAD PUSH1 0x40 MLOAD PUSH4 0xD447983 PUSH1 0xE1 SHL DUP2 MSTORE PUSH1 0x1 PUSH1 0x1 PUSH1 0xA0 SHL SUB SWAP1 SWAP2 AND SWAP1 PUSH4 0x1A88F306 SWAP1 PUSH2 0x40E9 SWAP1 DUP8 SWAP1 DUP6 SWAP1 PUSH1 0x4 ADD PUSH2 0x46DB JUMP JUMPDEST PUSH0 PUSH1 0x40 MLOAD DUP1 DUP4 SUB DUP2 PUSH0 DUP8 DUP1 EXTCODESIZE ISZERO DUP1 ISZERO PUSH2 0x4100 JUMPI PUSH0 PUSH0 REVERT JUMPDEST POP GAS CALL ISZERO DUP1 ISZERO PUSH2 0x4112 JUMPI RETURNDATASIZE PUSH0 PUSH0 RETURNDATACOPY RETURNDATASIZE PUSH0 REVERT JUMPDEST POP POP PUSH1 0x5 SLOAD PUSH1 0x1 PUSH1 0x1 PUSH1 0xA0 SHL SUB AND SWAP2 POP PUSH4 0xE80B146D SWAP1 POP DUP6 DUP10 PUSH2 0x4135 DUP6 DUP8 PUSH2 0x46B4 JUMP JUMPDEST PUSH1 0x40 MLOAD DUP5 PUSH4 0xFFFFFFFF AND PUSH1 0xE0 SHL DUP2 MSTORE PUSH1 0x4 ADD PUSH2 0x39D4 SWAP4 SWAP3 SWAP2 SWAP1 PUSH2 0x45B3 JUMP JUMPDEST PUSH0 SLOAD PUSH1 0xFF AND PUSH2 0xB14 JUMPI PUSH1 0x40 MLOAD PUSH3 0x461BCD PUSH1 0xE5 SHL DUP2 MSTORE PUSH1 0x20 PUSH1 0x4 DUP3 ADD MSTORE PUSH1 0x14 PUSH1 0x24 DUP3 ADD MSTORE PUSH20 0x14185D5CD8589B194E881B9BDD081C185D5CD959 PUSH1 0x62 SHL PUSH1 0x44 DUP3 ADD MSTORE PUSH1 0x64 ADD PUSH2 0x3ED JUMP JUMPDEST DUP2 DUP2 XOR DUP4 ISZERO ISZERO MUL DUP2 XOR JUMPDEST SWAP4 SWAP3 POP POP POP JUMP JUMPDEST PUSH1 0x40 MLOAD DUP1 PUSH2 0x100 ADD PUSH1 0x40 MSTORE DUP1 PUSH0 DUP2 MSTORE PUSH1 0x20 ADD PUSH0 PUSH1 0x1 PUSH1 0x1 PUSH1 0xA0 SHL SUB AND DUP2 MSTORE PUSH1 0x20 ADD PUSH0 DUP2 MSTORE PUSH1 0x20 ADD PUSH0 DUP2 MSTORE PUSH1 0x20 ADD PUSH0 DUP2 MSTORE PUSH1 0x20 ADD PUSH0 PUSH0 DUP2 GT ISZERO PUSH2 0x41F0 JUMPI PUSH2 0x41F0 PUSH2 0x4309 JUMP JUMPDEST DUP2 MSTORE PUSH1 0x20 ADD PUSH0 DUP2 MSTORE PUSH0 PUSH1 0x20 SWAP1 SWAP2 ADD MSTORE SWAP1 JUMP JUMPDEST DUP1 CALLDATALOAD PUSH1 0x1 PUSH1 0x1 PUSH1 0xA0 SHL SUB DUP2 AND DUP2 EQ PUSH2 0x4218 JUMPI PUSH0 PUSH0 REVERT JUMPDEST SWAP2 SWAP1 POP JUMP JUMPDEST DUP1 ISZERO ISZERO DUP2 EQ PUSH2 0x422A JUMPI PUSH0 PUSH0 REVERT JUMPDEST POP JUMP JUMPDEST PUSH0 PUSH0 PUSH0 PUSH0 PUSH0 PUSH0 PUSH0 PUSH1 0xE0 DUP9 DUP11 SUB SLT ISZERO PUSH2 0x4243 JUMPI PUSH0 PUSH0 REVERT JUMPDEST DUP8 CALLDATALOAD SWAP7 POP PUSH2 0x4253 PUSH1 0x20 DUP10 ADD PUSH2 0x4202 JUMP JUMPDEST SWAP6 POP PUSH1 0x40 DUP9 ADD CALLDATALOAD SWAP5 POP PUSH1 0x60 DUP9 ADD CALLDATALOAD SWAP4 POP PUSH1 0x80 DUP9 ADD CALLDATALOAD PUSH1 0x1 DUP2 LT PUSH2 0x4274 JUMPI PUSH0 PUSH0 REVERT JUMPDEST SWAP3 POP PUSH1 0xA0 DUP9 ADD CALLDATALOAD PUSH1 0x3 DUP2 LT PUSH2 0x4287 JUMPI PUSH0 PUSH0 REVERT JUMPDEST SWAP2 POP PUSH1 0xC0 DUP9 ADD CALLDATALOAD PUSH2 0x4297 DUP2 PUSH2 0x421D JUMP JUMPDEST DUP1 SWAP2 POP POP SWAP3 SWAP6 SWAP9 SWAP2 SWAP5 SWAP8 POP SWAP3 SWAP6 POP JUMP JUMPDEST PUSH0 PUSH0 PUSH1 0x40 DUP4 DUP6 SUB SLT ISZERO PUSH2 0x42B8 JUMPI PUSH0 PUSH0 REVERT JUMPDEST PUSH2 0x42C1 DUP4 PUSH2 0x4202 JUMP JUMPDEST SWAP2 POP PUSH1 0x20 DUP4 ADD CALLDATALOAD PUSH2 0x42D1 DUP2 PUSH2 0x421D JUMP JUMPDEST DUP1 SWAP2 POP POP SWAP3 POP SWAP3 SWAP1 POP JUMP JUMPDEST PUSH0 PUSH1 0x20 DUP3 DUP5 SUB SLT ISZERO PUSH2 0x42EC JUMPI PUSH0 PUSH0 REVERT JUMPDEST PUSH2 0x36B8 DUP3 PUSH2 0x4202 JUMP JUMPDEST PUSH1 0x1 PUSH1 0x1 PUSH1 0xA0 SHL SUB SWAP2 SWAP1 SWAP2 AND DUP2 MSTORE PUSH1 0x20 ADD SWAP1 JUMP JUMPDEST PUSH4 0x4E487B71 PUSH1 0xE0 SHL PUSH0 MSTORE PUSH1 0x21 PUSH1 0x4 MSTORE PUSH1 0x24 PUSH0 REVERT JUMPDEST PUSH1 0x1 DUP2 LT PUSH2 0x432D JUMPI PUSH2 0x432D PUSH2 0x4309 JUMP JUMPDEST SWAP1 MSTORE JUMP JUMPDEST PUSH1 0x3 DUP2 LT PUSH2 0x432D JUMPI PUSH2 0x432D PUSH2 0x4309 JUMP JUMPDEST DUP1 MLOAD DUP3 MSTORE PUSH1 0x1 DUP1 PUSH1 0xA0 SHL SUB PUSH1 0x20 DUP3 ADD MLOAD AND PUSH1 0x20 DUP4 ADD MSTORE PUSH1 0x40 DUP2 ADD MLOAD PUSH1 0x40 DUP4 ADD MSTORE PUSH1 0x60 DUP2 ADD MLOAD PUSH1 0x60 DUP4 ADD MSTORE PUSH1 0x80 DUP2 ADD MLOAD PUSH1 0x80 DUP4 ADD MSTORE PUSH1 0xA0 DUP2 ADD MLOAD PUSH2 0x4387 PUSH1 0xA0 DUP5 ADD DUP3 PUSH2 0x431D JUMP JUMPDEST POP PUSH1 0xC0 DUP2 ADD MLOAD PUSH2 0x439A PUSH1 0xC0 DUP5 ADD DUP3 PUSH2 0x4331 JUMP JUMPDEST POP PUSH1 0xE0 SWAP1 DUP2 ADD MLOAD ISZERO ISZERO SWAP2 ADD MSTORE JUMP JUMPDEST PUSH1 0x20 DUP1 DUP3 MSTORE DUP3 MLOAD DUP3 DUP3 ADD DUP2 SWAP1 MSTORE PUSH0 SWAP2 DUP5 ADD SWAP1 PUSH1 0x40 DUP5 ADD SWAP1 DUP4 JUMPDEST DUP2 DUP2 LT ISZERO PUSH2 0x43EB JUMPI PUSH2 0x43D4 DUP4 DUP6 MLOAD PUSH2 0x4341 JUMP JUMPDEST PUSH1 0x20 SWAP4 SWAP1 SWAP4 ADD SWAP3 PUSH2 0x100 SWAP3 SWAP1 SWAP3 ADD SWAP2 PUSH1 0x1 ADD PUSH2 0x43C1 JUMP JUMPDEST POP SWAP1 SWAP6 SWAP5 POP POP POP POP POP JUMP JUMPDEST PUSH0 PUSH0 PUSH0 PUSH1 0x60 DUP5 DUP7 SUB SLT ISZERO PUSH2 0x4408 JUMPI PUSH0 PUSH0 REVERT JUMPDEST PUSH2 0x4411 DUP5 PUSH2 0x4202 JUMP JUMPDEST SWAP6 PUSH1 0x20 DUP6 ADD CALLDATALOAD SWAP6 POP PUSH1 0x40 SWAP1 SWAP5 ADD CALLDATALOAD SWAP4 SWAP3 POP POP POP JUMP JUMPDEST PUSH0 PUSH1 0x20 DUP3 DUP5 SUB SLT ISZERO PUSH2 0x4436 JUMPI PUSH0 PUSH0 REVERT JUMPDEST POP CALLDATALOAD SWAP2 SWAP1 POP JUMP JUMPDEST PUSH2 0x100 DUP2 ADD PUSH2 0x36BB DUP3 DUP5 PUSH2 0x4341 JUMP JUMPDEST DUP9 DUP2 MSTORE PUSH1 0x1 PUSH1 0x1 PUSH1 0xA0 SHL SUB DUP9 AND PUSH1 0x20 DUP3 ADD MSTORE PUSH1 0x40 DUP2 ADD DUP8 SWAP1 MSTORE PUSH1 0x60 DUP2 ADD DUP7 SWAP1 MSTORE PUSH1 0x80 DUP2 ADD DUP6 SWAP1 MSTORE PUSH2 0x100 DUP2 ADD PUSH2 0x4485 PUSH1 0xA0 DUP4 ADD DUP7 PUSH2 0x431D JUMP JUMPDEST PUSH2 0x4492 PUSH1 0xC0 DUP4 ADD DUP6 PUSH2 0x4331 JUMP JUMPDEST DUP3 ISZERO ISZERO PUSH1 0xE0 DUP4 ADD MSTORE SWAP10 SWAP9 POP POP POP POP POP POP POP POP POP JUMP JUMPDEST PUSH0 PUSH0 PUSH1 0x40 DUP4 DUP6 SUB SLT ISZERO PUSH2 0x44B8 JUMPI PUSH0 PUSH0 REVERT JUMPDEST PUSH2 0x44C1 DUP4 PUSH2 0x4202 JUMP JUMPDEST SWAP5 PUSH1 0x20 SWAP4 SWAP1 SWAP4 ADD CALLDATALOAD SWAP4 POP POP POP JUMP JUMPDEST PUSH0 PUSH0 PUSH0 PUSH0 PUSH0 PUSH1 0xA0 DUP7 DUP9 SUB SLT ISZERO PUSH2 0x44E3 JUMPI PUSH0 PUSH0 REVERT JUMPDEST PUSH2 0x44EC DUP7 PUSH2 0x4202 JUMP JUMPDEST SWAP5 POP PUSH2 0x44FA PUSH1 0x20 DUP8 ADD PUSH2 0x4202 JUMP JUMPDEST SWAP4 POP PUSH2 0x4508 PUSH1 0x40 DUP8 ADD PUSH2 0x4202 JUMP JUMPDEST SWAP3 POP PUSH2 0x4516 PUSH1 0x60 DUP8 ADD PUSH2 0x4202 JUMP JUMPDEST SWAP2 POP PUSH2 0x4524 PUSH1 0x80 DUP8 ADD PUSH2 0x4202 JUMP JUMPDEST SWAP1 POP SWAP3 SWAP6 POP SWAP3 SWAP6 SWAP1 SWAP4 POP JUMP JUMPDEST PUSH1 0x20 DUP1 DUP3 MSTORE PUSH1 0xE SWAP1 DUP3 ADD MSTORE PUSH14 0x139BDD08185D5D1A1BDC9A5E9959 PUSH1 0x92 SHL PUSH1 0x40 DUP3 ADD MSTORE PUSH1 0x60 ADD SWAP1 JUMP JUMPDEST PUSH1 0x1 PUSH1 0x1 PUSH1 0xA0 SHL SUB DUP4 AND DUP2 MSTORE PUSH1 0x40 DUP2 ADD PUSH2 0x41A5 PUSH1 0x20 DUP4 ADD DUP5 PUSH2 0x431D JUMP JUMPDEST PUSH0 PUSH1 0x20 DUP3 DUP5 SUB SLT ISZERO PUSH2 0x4585 JUMPI PUSH0 PUSH0 REVERT JUMPDEST POP MLOAD SWAP2 SWAP1 POP JUMP JUMPDEST PUSH4 0x4E487B71 PUSH1 0xE0 SHL PUSH0 MSTORE PUSH1 0x11 PUSH1 0x4 MSTORE PUSH1 0x24 PUSH0 REVERT JUMPDEST DUP1 DUP3 ADD DUP1 DUP3 GT ISZERO PUSH2 0x36BB JUMPI PUSH2 0x36BB PUSH2 0x458C JUMP JUMPDEST PUSH1 0x1 PUSH1 0x1 PUSH1 0xA0 SHL SUB DUP5 AND DUP2 MSTORE PUSH1 0x60 DUP2 ADD PUSH2 0x45D0 PUSH1 0x20 DUP4 ADD DUP6 PUSH2 0x431D JUMP JUMPDEST DUP3 PUSH1 0x40 DUP4 ADD MSTORE SWAP5 SWAP4 POP POP POP POP JUMP JUMPDEST PUSH1 0x20 DUP1 DUP3 MSTORE PUSH1 0x32 SWAP1 DUP3 ADD MSTORE PUSH32 0x4F72646572207072696365206D757374206265206174206C6561737420746865 PUSH1 0x40 DUP3 ADD MSTORE PUSH18 0x2063757272656E74204C4D45207072696365 PUSH1 0x70 SHL PUSH1 0x60 DUP3 ADD MSTORE PUSH1 0x80 ADD SWAP1 JUMP JUMPDEST PUSH4 0x4E487B71 PUSH1 0xE0 SHL PUSH0 MSTORE PUSH1 0x32 PUSH1 0x4 MSTORE PUSH1 0x24 PUSH0 REVERT JUMPDEST PUSH1 0x20 DUP1 DUP3 MSTORE PUSH1 0x23 SWAP1 DUP3 ADD MSTORE PUSH32 0x4F6E6C7920746865206F776E65722063616E206368616E676520746865207072 PUSH1 0x40 DUP3 ADD MSTORE PUSH3 0x696365 PUSH1 0xE8 SHL PUSH1 0x60 DUP3 ADD MSTORE PUSH1 0x80 ADD SWAP1 JUMP JUMPDEST PUSH1 0x20 DUP1 DUP3 MSTORE PUSH1 0x13 SWAP1 DUP3 ADD MSTORE PUSH19 0x496E646578206F7574206F6620626F756E6473 PUSH1 0x68 SHL PUSH1 0x40 DUP3 ADD MSTORE PUSH1 0x60 ADD SWAP1 JUMP JUMPDEST DUP2 DUP2 SUB DUP2 DUP2 GT ISZERO PUSH2 0x36BB JUMPI PUSH2 0x36BB PUSH2 0x458C JUMP JUMPDEST PUSH4 0x4E487B71 PUSH1 0xE0 SHL PUSH0 MSTORE PUSH1 0x31 PUSH1 0x4 MSTORE PUSH1 0x24 PUSH0 REVERT JUMPDEST PUSH1 0x1 PUSH1 0x1 PUSH1 0xA0 SHL SUB SWAP3 SWAP1 SWAP3 AND DUP3 MSTORE PUSH1 0x20 DUP3 ADD MSTORE PUSH1 0x40 ADD SWAP1 JUMP JUMPDEST DUP1 DUP3 MUL DUP2 ISZERO DUP3 DUP3 DIV DUP5 EQ OR PUSH2 0x36BB JUMPI PUSH2 0x36BB PUSH2 0x458C JUMP JUMPDEST PUSH0 DUP3 PUSH2 0x4725 JUMPI PUSH4 0x4E487B71 PUSH1 0xE0 SHL PUSH0 MSTORE PUSH1 0x12 PUSH1 0x4 MSTORE PUSH1 0x24 PUSH0 REVERT JUMPDEST POP DIV SWAP1 JUMP JUMPDEST PUSH1 0x1 PUSH1 0x1 PUSH1 0xA0 SHL SUB DUP6 AND DUP2 MSTORE PUSH1 0x80 DUP2 ADD PUSH2 0x4747 PUSH1 0x20 DUP4 ADD DUP7 PUSH2 0x4331 JUMP JUMPDEST DUP4 PUSH1 0x40 DUP4 ADD MSTORE DUP3 ISZERO ISZERO PUSH1 0x60 DUP4 ADD MSTORE SWAP6 SWAP5 POP POP POP POP POP JUMP JUMPDEST PUSH1 0x1 PUSH1 0x1 PUSH1 0xA0 SHL SUB DUP4 AND DUP2 MSTORE PUSH1 0x40 DUP2 ADD PUSH2 0x41A5 PUSH1 0x20 DUP4 ADD DUP5 PUSH2 0x4331 JUMP JUMPDEST PUSH1 0x1 PUSH1 0x1 PUSH1 0xA0 SHL SUB SWAP4 DUP5 AND DUP2 MSTORE SWAP2 SWAP1 SWAP3 AND PUSH1 0x20 DUP3 ADD MSTORE PUSH1 0x40 DUP2 ADD SWAP2 SWAP1 SWAP2 MSTORE PUSH1 0x60 ADD SWAP1 JUMP JUMPDEST PUSH0 PUSH1 0x20 DUP3 DUP5 SUB SLT ISZERO PUSH2 0x47AF JUMPI PUSH0 PUSH0 REVERT JUMPDEST DUP2 MLOAD PUSH2 0x41A5 DUP2 PUSH2 0x421D JUMP JUMPDEST PUSH0 PUSH1 0x1 DUP3 ADD PUSH2 0x47CB JUMPI PUSH2 0x47CB PUSH2 0x458C JUMP JUMPDEST POP PUSH1 0x1 ADD SWAP1 JUMP JUMPDEST PUSH0 DUP2 PUSH2 0x47E0 JUMPI PUSH2 0x47E0 PUSH2 0x458C JUMP JUMPDEST POP PUSH0 NOT ADD SWAP1 JUMP INVALID LOG2 PUSH5 0x6970667358 0x22 SLT KECCAK256 0x2D 0xFC STOP PUSH32 0xC0AD485F6ADDFCC82B9F269E77EDF5E01D8750274C37F287151DBDE364736F6C PUSH4 0x4300081E STOP CALLER "
		},
		"gasEstimates": {
			"creation": {
				"codeDepositCost": "3692200",
				"executionCost": "74767",
				"totalCost": "3766967"
			},
			"external": {
				"USDTContract()": "2470",
				"addBuyOrder(uint256,address,uint256,uint256,uint8,uint8,bool)": "infinite",
				"addSellOrder(uint256,address,uint256,uint256,uint8,uint8,bool)": "infinite",
				"adminControl()": "2559",
				"approveUSDT(address,uint256)": "infinite",
				"authorizedAddresses(address)": "2818",
				"buyOrdersUSDT(uint256)": "infinite",
				"buyOrdersUSDTLength()": "2489",
				"centralContract()": "2471",
				"changeBuyOrderPriceUSDT(address,uint256,uint256)": "infinite",
				"changeSellOrderPriceUSDT(address,uint256,uint256)": "infinite",
				"escrowHandler()": "2404",
				"getBuyOrdersUSDT()": "infinite",
				"getBuyOrdersUSDT(uint256)": "infinite",
				"getHighestBuyOrderUSDT()": "infinite",
				"getLowestSellOrderUSDT()": "infinite",
				"getSellOrdersUSDT()": "infinite",
				"getSellOrdersUSDT(uint256)": "infinite",
				"nickeliumContract()": "2427",
				"owner()": "2426",
				"pause()": "infinite",
				"paused()": "2512",
				"removeBuyOrderUSDT(uint256)": "infinite",
				"removeSellOrderUSDT(uint256)": "infinite",
				"sellOrdersUSDT(uint256)": "infinite",
				"sellOrdersUSDTLength()": "2523",
				"setAuthorizedAddress(address,bool)": "75429",
				"setContracts(address,address,address,address,address)": "infinite",
				"setOwner(address)": "26808",
				"unpause()": "infinite"
			},
			"internal": {
				"executeTradeUSDT(struct SharedStructs.Order memory,struct SharedStructs.Order storage pointer,uint256,bool)": "infinite",
				"findInsertPosition(struct SharedStructs.Order storage ref[] storage pointer,uint256,bool)": "infinite",
				"insertOrderInSortedPosition(struct SharedStructs.Order storage ref[] storage pointer,struct SharedStructs.Order memory)": "infinite",
				"insertSellOrderInSortedPosition(struct SharedStructs.Order storage ref[] storage pointer,struct SharedStructs.Order memory)": "infinite",
				"matchNewOrderUSDT(struct SharedStructs.Order memory,bool,bool)": "infinite",
				"removeOrderFromList(struct SharedStructs.Order storage ref[] storage pointer,uint256)": "infinite",
				"removeWorstPricedOrder(struct SharedStructs.Order storage ref[] storage pointer,enum SharedStructs.PaymentMethod)": "infinite",
				"removeWorstPricedSellOrder(struct SharedStructs.Order storage ref[] storage pointer,enum SharedStructs.AssetType)": "infinite",
				"repositionOrder(struct SharedStructs.Order storage ref[] storage pointer,uint256,bool)": "infinite"
			}
		},
		"methodIdentifiers": {
			"USDTContract()": "99762734",
			"addBuyOrder(uint256,address,uint256,uint256,uint8,uint8,bool)": "7e8843d0",
			"addSellOrder(uint256,address,uint256,uint256,uint8,uint8,bool)": "07545726",
			"adminControl()": "555d3e63",
			"approveUSDT(address,uint256)": "a8567258",
			"authorizedAddresses(address)": "f19e207e",
			"buyOrdersUSDT(uint256)": "6ae51d1a",
			"buyOrdersUSDTLength()": "af231747",
			"centralContract()": "29878bc4",
			"changeBuyOrderPriceUSDT(address,uint256,uint256)": "e3d81417",
			"changeSellOrderPriceUSDT(address,uint256,uint256)": "327ebc65",
			"escrowHandler()": "87ad8f87",
			"getBuyOrdersUSDT()": "2465af11",
			"getBuyOrdersUSDT(uint256)": "ab4b8853",
			"getHighestBuyOrderUSDT()": "ba60b76e",
			"getLowestSellOrderUSDT()": "6a40eef3",
			"getSellOrdersUSDT()": "6cca424f",
			"getSellOrdersUSDT(uint256)": "a817d34f",
			"nickeliumContract()": "1b8e2ed9",
			"owner()": "8da5cb5b",
			"pause()": "8456cb59",
			"paused()": "5c975abb",
			"removeBuyOrderUSDT(uint256)": "b6adc7d8",
			"removeSellOrderUSDT(uint256)": "52d38b7f",
			"sellOrdersUSDT(uint256)": "985d86db",
			"sellOrdersUSDTLength()": "60988eaf",
			"setAuthorizedAddress(address,bool)": "1351cf51",
			"setContracts(address,address,address,address,address)": "f63bf8bd",
			"setOwner(address)": "13af4035",
			"unpause()": "3f4ba83a"
		}
	},
	"abi": [
		{
			"inputs": [],
			"stateMutability": "payable",
			"type": "constructor"
		},
		{
			"inputs": [],
			"name": "ReentrancyGuardReentrantCall",
			"type": "error"
		},
		{
			"anonymous": false,
			"inputs": [
				{
					"indexed": false,
					"internalType": "address",
					"name": "account",
					"type": "address"
				}
			],
			"name": "Paused",
			"type": "event"
		},
		{
			"anonymous": false,
			"inputs": [
				{
					"indexed": false,
					"internalType": "address",
					"name": "account",
					"type": "address"
				}
			],
			"name": "Unpaused",
			"type": "event"
		},
		{
			"inputs": [],
			"name": "USDTContract",
			"outputs": [
				{
					"internalType": "contract ITether",
					"name": "",
					"type": "address"
				}
			],
			"stateMutability": "view",
			"type": "function"
		},
		{
			"inputs": [
				{
					"internalType": "uint256",
					"name": "_orderID",
					"type": "uint256"
				},
				{
					"internalType": "address",
					"name": "buyer",
					"type": "address"
				},
				{
					"internalType": "uint256",
					"name": "_price",
					"type": "uint256"
				},
				{
					"internalType": "uint256",
					"name": "_amount",
					"type": "uint256"
				},
				{
					"internalType": "enum SharedStructs.AssetType",
					"name": "_assetType",
					"type": "uint8"
				},
				{
					"internalType": "enum SharedStructs.PaymentMethod",
					"name": "_priceCurrency",
					"type": "uint8"
				},
				{
					"internalType": "bool",
					"name": "authorizedBuyersOnly",
					"type": "bool"
				}
			],
			"name": "addBuyOrder",
			"outputs": [],
			"stateMutability": "nonpayable",
			"type": "function"
		},
		{
			"inputs": [
				{
					"internalType": "uint256",
					"name": "_orderID",
					"type": "uint256"
				},
				{
					"internalType": "address",
					"name": "seller",
					"type": "address"
				},
				{
					"internalType": "uint256",
					"name": "_price",
					"type": "uint256"
				},
				{
					"internalType": "uint256",
					"name": "_amount",
					"type": "uint256"
				},
				{
					"internalType": "enum SharedStructs.AssetType",
					"name": "_assetType",
					"type": "uint8"
				},
				{
					"internalType": "enum SharedStructs.PaymentMethod",
					"name": "_priceCurrency",
					"type": "uint8"
				},
				{
					"internalType": "bool",
					"name": "authorizedBuyersOnly",
					"type": "bool"
				}
			],
			"name": "addSellOrder",
			"outputs": [],
			"stateMutability": "nonpayable",
			"type": "function"
		},
		{
			"inputs": [],
			"name": "adminControl",
			"outputs": [
				{
					"internalType": "contract IAdminControl",
					"name": "",
					"type": "address"
				}
			],
			"stateMutability": "view",
			"type": "function"
		},
		{
			"inputs": [
				{
					"internalType": "address",
					"name": "adminControlAddress",
					"type": "address"
				},
				{
					"internalType": "uint256",
					"name": "transferAmount",
					"type": "uint256"
				}
			],
			"name": "approveUSDT",
			"outputs": [],
			"stateMutability": "nonpayable",
			"type": "function"
		},
		{
			"inputs": [
				{
					"internalType": "address",
					"name": "",
					"type": "address"
				}
			],
			"name": "authorizedAddresses",
			"outputs": [
				{
					"internalType": "bool",
					"name": "",
					"type": "bool"
				}
			],
			"stateMutability": "view",
			"type": "function"
		},
		{
			"inputs": [
				{
					"internalType": "uint256",
					"name": "",
					"type": "uint256"
				}
			],
			"name": "buyOrdersUSDT",
			"outputs": [
				{
					"internalType": "uint256",
					"name": "orderID",
					"type": "uint256"
				},
				{
					"internalType": "address payable",
					"name": "user",
					"type": "address"
				},
				{
					"internalType": "uint256",
					"name": "price",
					"type": "uint256"
				},
				{
					"internalType": "uint256",
					"name": "amount",
					"type": "uint256"
				},
				{
					"internalType": "uint256",
					"name": "fulfilledAmount",
					"type": "uint256"
				},
				{
					"internalType": "enum SharedStructs.AssetType",
					"name": "assetType",
					"type": "uint8"
				},
				{
					"internalType": "enum SharedStructs.PaymentMethod",
					"name": "priceCurrency",
					"type": "uint8"
				},
				{
					"internalType": "bool",
					"name": "authorizedBuyersOnly",
					"type": "bool"
				}
			],
			"stateMutability": "view",
			"type": "function"
		},
		{
			"inputs": [],
			"name": "buyOrdersUSDTLength",
			"outputs": [
				{
					"internalType": "uint256",
					"name": "",
					"type": "uint256"
				}
			],
			"stateMutability": "view",
			"type": "function"
		},
		{
			"inputs": [],
			"name": "centralContract",
			"outputs": [
				{
					"internalType": "contract ICentral",
					"name": "",
					"type": "address"
				}
			],
			"stateMutability": "view",
			"type": "function"
		},
		{
			"inputs": [
				{
					"internalType": "address",
					"name": "buyer",
					"type": "address"
				},
				{
					"internalType": "uint256",
					"name": "orderID",
					"type": "uint256"
				},
				{
					"internalType": "uint256",
					"name": "newPrice",
					"type": "uint256"
				}
			],
			"name": "changeBuyOrderPriceUSDT",
			"outputs": [],
			"stateMutability": "nonpayable",
			"type": "function"
		},
		{
			"inputs": [
				{
					"internalType": "address",
					"name": "seller",
					"type": "address"
				},
				{
					"internalType": "uint256",
					"name": "orderID",
					"type": "uint256"
				},
				{
					"internalType": "uint256",
					"name": "newPrice",
					"type": "uint256"
				}
			],
			"name": "changeSellOrderPriceUSDT",
			"outputs": [],
			"stateMutability": "nonpayable",
			"type": "function"
		},
		{
			"inputs": [],
			"name": "escrowHandler",
			"outputs": [
				{
					"internalType": "contract IEscrowHandler",
					"name": "",
					"type": "address"
				}
			],
			"stateMutability": "view",
			"type": "function"
		},
		{
			"inputs": [],
			"name": "getBuyOrdersUSDT",
			"outputs": [
				{
					"components": [
						{
							"internalType": "uint256",
							"name": "orderID",
							"type": "uint256"
						},
						{
							"internalType": "address payable",
							"name": "user",
							"type": "address"
						},
						{
							"internalType": "uint256",
							"name": "price",
							"type": "uint256"
						},
						{
							"internalType": "uint256",
							"name": "amount",
							"type": "uint256"
						},
						{
							"internalType": "uint256",
							"name": "fulfilledAmount",
							"type": "uint256"
						},
						{
							"internalType": "enum SharedStructs.AssetType",
							"name": "assetType",
							"type": "uint8"
						},
						{
							"internalType": "enum SharedStructs.PaymentMethod",
							"name": "priceCurrency",
							"type": "uint8"
						},
						{
							"internalType": "bool",
							"name": "authorizedBuyersOnly",
							"type": "bool"
						}
					],
					"internalType": "struct SharedStructs.Order[]",
					"name": "",
					"type": "tuple[]"
				}
			],
			"stateMutability": "view",
			"type": "function"
		},
		{
			"inputs": [
				{
					"internalType": "uint256",
					"name": "index",
					"type": "uint256"
				}
			],
			"name": "getBuyOrdersUSDT",
			"outputs": [
				{
					"components": [
						{
							"internalType": "uint256",
							"name": "orderID",
							"type": "uint256"
						},
						{
							"internalType": "address payable",
							"name": "user",
							"type": "address"
						},
						{
							"internalType": "uint256",
							"name": "price",
							"type": "uint256"
						},
						{
							"internalType": "uint256",
							"name": "amount",
							"type": "uint256"
						},
						{
							"internalType": "uint256",
							"name": "fulfilledAmount",
							"type": "uint256"
						},
						{
							"internalType": "enum SharedStructs.AssetType",
							"name": "assetType",
							"type": "uint8"
						},
						{
							"internalType": "enum SharedStructs.PaymentMethod",
							"name": "priceCurrency",
							"type": "uint8"
						},
						{
							"internalType": "bool",
							"name": "authorizedBuyersOnly",
							"type": "bool"
						}
					],
					"internalType": "struct SharedStructs.Order",
					"name": "",
					"type": "tuple"
				}
			],
			"stateMutability": "view",
			"type": "function"
		},
		{
			"inputs": [],
			"name": "getHighestBuyOrderUSDT",
			"outputs": [
				{
					"components": [
						{
							"internalType": "uint256",
							"name": "orderID",
							"type": "uint256"
						},
						{
							"internalType": "address payable",
							"name": "user",
							"type": "address"
						},
						{
							"internalType": "uint256",
							"name": "price",
							"type": "uint256"
						},
						{
							"internalType": "uint256",
							"name": "amount",
							"type": "uint256"
						},
						{
							"internalType": "uint256",
							"name": "fulfilledAmount",
							"type": "uint256"
						},
						{
							"internalType": "enum SharedStructs.AssetType",
							"name": "assetType",
							"type": "uint8"
						},
						{
							"internalType": "enum SharedStructs.PaymentMethod",
							"name": "priceCurrency",
							"type": "uint8"
						},
						{
							"internalType": "bool",
							"name": "authorizedBuyersOnly",
							"type": "bool"
						}
					],
					"internalType": "struct SharedStructs.Order",
					"name": "",
					"type": "tuple"
				}
			],
			"stateMutability": "view",
			"type": "function"
		},
		{
			"inputs": [],
			"name": "getLowestSellOrderUSDT",
			"outputs": [
				{
					"components": [
						{
							"internalType": "uint256",
							"name": "orderID",
							"type": "uint256"
						},
						{
							"internalType": "address payable",
							"name": "user",
							"type": "address"
						},
						{
							"internalType": "uint256",
							"name": "price",
							"type": "uint256"
						},
						{
							"internalType": "uint256",
							"name": "amount",
							"type": "uint256"
						},
						{
							"internalType": "uint256",
							"name": "fulfilledAmount",
							"type": "uint256"
						},
						{
							"internalType": "enum SharedStructs.AssetType",
							"name": "assetType",
							"type": "uint8"
						},
						{
							"internalType": "enum SharedStructs.PaymentMethod",
							"name": "priceCurrency",
							"type": "uint8"
						},
						{
							"internalType": "bool",
							"name": "authorizedBuyersOnly",
							"type": "bool"
						}
					],
					"internalType": "struct SharedStructs.Order",
					"name": "",
					"type": "tuple"
				}
			],
			"stateMutability": "view",
			"type": "function"
		},
		{
			"inputs": [],
			"name": "getSellOrdersUSDT",
			"outputs": [
				{
					"components": [
						{
							"internalType": "uint256",
							"name": "orderID",
							"type": "uint256"
						},
						{
							"internalType": "address payable",
							"name": "user",
							"type": "address"
						},
						{
							"internalType": "uint256",
							"name": "price",
							"type": "uint256"
						},
						{
							"internalType": "uint256",
							"name": "amount",
							"type": "uint256"
						},
						{
							"internalType": "uint256",
							"name": "fulfilledAmount",
							"type": "uint256"
						},
						{
							"internalType": "enum SharedStructs.AssetType",
							"name": "assetType",
							"type": "uint8"
						},
						{
							"internalType": "enum SharedStructs.PaymentMethod",
							"name": "priceCurrency",
							"type": "uint8"
						},
						{
							"internalType": "bool",
							"name": "authorizedBuyersOnly",
							"type": "bool"
						}
					],
					"internalType": "struct SharedStructs.Order[]",
					"name": "",
					"type": "tuple[]"
				}
			],
			"stateMutability": "view",
			"type": "function"
		},
		{
			"inputs": [
				{
					"internalType": "uint256",
					"name": "index",
					"type": "uint256"
				}
			],
			"name": "getSellOrdersUSDT",
			"outputs": [
				{
					"components": [
						{
							"internalType": "uint256",
							"name": "orderID",
							"type": "uint256"
						},
						{
							"internalType": "address payable",
							"name": "user",
							"type": "address"
						},
						{
							"internalType": "uint256",
							"name": "price",
							"type": "uint256"
						},
						{
							"internalType": "uint256",
							"name": "amount",
							"type": "uint256"
						},
						{
							"internalType": "uint256",
							"name": "fulfilledAmount",
							"type": "uint256"
						},
						{
							"internalType": "enum SharedStructs.AssetType",
							"name": "assetType",
							"type": "uint8"
						},
						{
							"internalType": "enum SharedStructs.PaymentMethod",
							"name": "priceCurrency",
							"type": "uint8"
						},
						{
							"internalType": "bool",
							"name": "authorizedBuyersOnly",
							"type": "bool"
						}
					],
					"internalType": "struct SharedStructs.Order",
					"name": "",
					"type": "tuple"
				}
			],
			"stateMutability": "view",
			"type": "function"
		},
		{
			"inputs": [],
			"name": "nickeliumContract",
			"outputs": [
				{
					"internalType": "contract INickelium",
					"name": "",
					"type": "address"
				}
			],
			"stateMutability": "view",
			"type": "function"
		},
		{
			"inputs": [],
			"name": "owner",
			"outputs": [
				{
					"internalType": "address",
					"name": "",
					"type": "address"
				}
			],
			"stateMutability": "view",
			"type": "function"
		},
		{
			"inputs": [],
			"name": "pause",
			"outputs": [],
			"stateMutability": "nonpayable",
			"type": "function"
		},
		{
			"inputs": [],
			"name": "paused",
			"outputs": [
				{
					"internalType": "bool",
					"name": "",
					"type": "bool"
				}
			],
			"stateMutability": "view",
			"type": "function"
		},
		{
			"inputs": [
				{
					"internalType": "uint256",
					"name": "index",
					"type": "uint256"
				}
			],
			"name": "removeBuyOrderUSDT",
			"outputs": [],
			"stateMutability": "nonpayable",
			"type": "function"
		},
		{
			"inputs": [
				{
					"internalType": "uint256",
					"name": "index",
					"type": "uint256"
				}
			],
			"name": "removeSellOrderUSDT",
			"outputs": [],
			"stateMutability": "nonpayable",
			"type": "function"
		},
		{
			"inputs": [
				{
					"internalType": "uint256",
					"name": "",
					"type": "uint256"
				}
			],
			"name": "sellOrdersUSDT",
			"outputs": [
				{
					"internalType": "uint256",
					"name": "orderID",
					"type": "uint256"
				},
				{
					"internalType": "address payable",
					"name": "user",
					"type": "address"
				},
				{
					"internalType": "uint256",
					"name": "price",
					"type": "uint256"
				},
				{
					"internalType": "uint256",
					"name": "amount",
					"type": "uint256"
				},
				{
					"internalType": "uint256",
					"name": "fulfilledAmount",
					"type": "uint256"
				},
				{
					"internalType": "enum SharedStructs.AssetType",
					"name": "assetType",
					"type": "uint8"
				},
				{
					"internalType": "enum SharedStructs.PaymentMethod",
					"name": "priceCurrency",
					"type": "uint8"
				},
				{
					"internalType": "bool",
					"name": "authorizedBuyersOnly",
					"type": "bool"
				}
			],
			"stateMutability": "view",
			"type": "function"
		},
		{
			"inputs": [],
			"name": "sellOrdersUSDTLength",
			"outputs": [
				{
					"internalType": "uint256",
					"name": "",
					"type": "uint256"
				}
			],
			"stateMutability": "view",
			"type": "function"
		},
		{
			"inputs": [
				{
					"internalType": "address",
					"name": "_address",
					"type": "address"
				},
				{
					"internalType": "bool",
					"name": "_status",
					"type": "bool"
				}
			],
			"name": "setAuthorizedAddress",
			"outputs": [],
			"stateMutability": "nonpayable",
			"type": "function"
		},
		{
			"inputs": [
				{
					"internalType": "address",
					"name": "_USDTAddress",
					"type": "address"
				},
				{
					"internalType": "address",
					"name": "_nickeliumAddress",
					"type": "address"
				},
				{
					"internalType": "address",
					"name": "_adminControl",
					"type": "address"
				},
				{
					"internalType": "address",
					"name": "_centralAddress",
					"type": "address"
				},
				{
					"internalType": "address",
					"name": "_escrowHandler",
					"type": "address"
				}
			],
			"name": "setContracts",
			"outputs": [],
			"stateMutability": "nonpayable",
			"type": "function"
		},
		{
			"inputs": [
				{
					"internalType": "address",
					"name": "newOwner",
					"type": "address"
				}
			],
			"name": "setOwner",
			"outputs": [],
			"stateMutability": "nonpayable",
			"type": "function"
		},
		{
			"inputs": [],
			"name": "unpause",
			"outputs": [],
			"stateMutability": "nonpayable",
			"type": "function"
		}
	]
}